{
	"data": {
		"bytecode": {
			"linkReferences": {
				"LmPool Ver3.0/Libraries/PriceMath.sol": {
					"PriceMath": [
						{
							"length": 20,
							"start": 6532
						},
						{
							"length": 20,
							"start": 6654
						},
						{
							"length": 20,
							"start": 6776
						}
					]
				}
			},
			"object": "60c06040523480156200001157600080fd5b506040516200313a3803806200313a8339818101604052810190620000379190620001d7565b8473ffffffffffffffffffffffffffffffffffffffff1660808173ffffffffffffffffffffffffffffffffffffffff16815250508373ffffffffffffffffffffffffffffffffffffffff1660a08173ffffffffffffffffffffffffffffffffffffffff1681525050826000806101000a81548173ffffffffffffffffffffffffffffffffffffffff021916908373ffffffffffffffffffffffffffffffffffffffff16021790555081600160006101000a81548173ffffffffffffffffffffffffffffffffffffffff021916908373ffffffffffffffffffffffffffffffffffffffff1602179055508060048190555050505050506200025f565b600080fd5b600073ffffffffffffffffffffffffffffffffffffffff82169050919050565b6000620001648262000137565b9050919050565b620001768162000157565b81146200018257600080fd5b50565b60008151905062000196816200016b565b92915050565b6000819050919050565b620001b1816200019c565b8114620001bd57600080fd5b50565b600081519050620001d181620001a6565b92915050565b600080600080600060a08688031215620001f657620001f562000132565b5b6000620002068882890162000185565b9550506020620002198882890162000185565b94505060406200022c8882890162000185565b93505060606200023f8882890162000185565b92505060806200025288828901620001c0565b9150509295509295909350565b60805160a051612e306200030a600039600081816107c001528181610a5101528181610b9b01528181610e2601528181610fab015281816110d301528181611203015281816112710152818161151001526115c501526000818161052401528181610722015281816109b201528181610afa01528181610e0501528181610f040152818161107e015281816111a7015281816112240152818161125001526114690152612e306000f3fe608060405234801561001057600080fd5b506004361061012c5760003560e01c80637dc0d1d0116100ad578063d004f0f711610071578063d004f0f714610360578063d21220a714610390578063ddca3f43146103ae578063eed5907f146103cc578063f8fffb2a146103fc5761012c565b80637dc0d1d0146102a557806390256e54146102c35780639c8f9f23146102e15780639cd441da14610312578063a9c472b2146103425761012c565b80632a75dd70116100f45780632a75dd70146101eb578063443cb4bc1461021b5780635a76f25e1461023957806370a082311461025757806378f0c735146102875761012c565b806301ffc9a71461013157806309feb954146101615780630dfe16811461017f578063150b7a021461019d57806318160ddd146101cd575b600080fd5b61014b6004803603810190610146919061200a565b61042c565b6040516101589190612052565b60405180910390f35b6101696104fe565b60405161017691906120ec565b60405180910390f35b610187610522565b6040516101949190612128565b60405180910390f35b6101b760048036038101906101b2919061221c565b610546565b6040516101c491906122b3565b60405180910390f35b6101d561055b565b6040516101e291906122dd565b60405180910390f35b6102056004803603810190610200919061232e565b610561565b60405161021291906123c0565b60405180910390f35b610223610591565b60405161023091906122dd565b60405180910390f35b610241610597565b60405161024e91906122dd565b60405180910390f35b610271600480360381019061026c91906123db565b61059d565b60405161027e91906122dd565b60405180910390f35b61028f6105b5565b60405161029c91906122dd565b60405180910390f35b6102ad6105bb565b6040516102ba9190612429565b60405180910390f35b6102cb6105e1565b6040516102d891906122dd565b60405180910390f35b6102fb60048036038101906102f69190612444565b6105e7565b604051610309929190612471565b60405180910390f35b61032c6004803603810190610327919061249a565b610af6565b60405161033991906122dd565b60405180910390f35b61034a611058565b60405161035791906123c0565b60405180910390f35b61037a600480360381019061037591906124da565b61107a565b60405161038791906122dd565b60405180910390f35b6103986115c3565b6040516103a59190612128565b60405180910390f35b6103b66115e7565b6040516103c391906122dd565b60405180910390f35b6103e660048036038101906103e1919061251a565b6115ed565b6040516103f391906122dd565b60405180910390f35b6104166004803603810190610411919061251a565b611630565b60405161042391906122dd565b60405180910390f35b60007f80ac58cd000000000000000000000000000000000000000000000000000000007bffffffffffffffffffffffffffffffffffffffffffffffffffffffff1916827bffffffffffffffffffffffffffffffffffffffffffffffffffffffff191614806104f757507f01ffc9a7000000000000000000000000000000000000000000000000000000007bffffffffffffffffffffffffffffffffffffffffffffffffffffffff1916827bffffffffffffffffffffffffffffffffffffffffffffffffffffffff1916145b9050919050565b60008054906101000a900473ffffffffffffffffffffffffffffffffffffffff1681565b7f000000000000000000000000000000000000000000000000000000000000000081565b600063150b7a0260e01b905095945050505050565b60085481565b6000806000806105718587611673565b9250925092506105848184848b8b61187d565b9350505050949350505050565b60025481565b60035481565b60096020528060005260406000206000915090505481565b60065481565b600160009054906101000a900473ffffffffffffffffffffffffffffffffffffffff1681565b60055481565b60008060008054906101000a900473ffffffffffffffffffffffffffffffffffffffff1673ffffffffffffffffffffffffffffffffffffffff166326908fa13330866040518463ffffffff1660e01b81526004016106479392919061257c565b600060405180830381600087803b15801561066157600080fd5b505af1158015610675573d6000803e3d6000fd5b5050505060008060009054906101000a900473ffffffffffffffffffffffffffffffffffffffff1673ffffffffffffffffffffffffffffffffffffffff166399fbab88856040518263ffffffff1660e01b81526004016106d591906122dd565b60e0604051808303816000875af11580156106f4573d6000803e3d6000fd5b505050506040513d601f19601f820116820180604052508101906107189190612722565b60000151905060007f000000000000000000000000000000000000000000000000000000000000000073ffffffffffffffffffffffffffffffffffffffff166370a08231306040518263ffffffff1660e01b8152600401610779919061274f565b602060405180830381865afa158015610796573d6000803e3d6000fd5b505050506040513d601f19601f820116820180604052508101906107ba919061276a565b905060007f000000000000000000000000000000000000000000000000000000000000000073ffffffffffffffffffffffffffffffffffffffff166370a08231306040518263ffffffff1660e01b8152600401610817919061274f565b602060405180830381865afa158015610834573d6000803e3d6000fd5b505050506040513d601f19601f82011682018060405250810190610858919061276a565b9050600854828461086991906127c6565b6108739190612837565b9450600854818461088491906127c6565b61088e9190612837565b93506000851180156108a05750600184115b6108df576040517f08c379a00000000000000000000000000000000000000000000000000000000081526004016108d6906128c5565b60405180910390fd5b6108e933846119a9565b60008054906101000a900473ffffffffffffffffffffffffffffffffffffffff1673ffffffffffffffffffffffffffffffffffffffff1663ec82872287306040518363ffffffff1660e01b81526004016109449291906128e5565b600060405180830381600087803b15801561095e57600080fd5b505af1158015610972573d6000803e3d6000fd5b505050506109b06005548684610988919061290e565b610992919061290e565b60065486846109a1919061290e565b6109ab919061290e565b611a1c565b7f000000000000000000000000000000000000000000000000000000000000000073ffffffffffffffffffffffffffffffffffffffff1663a9059cbb33876040518363ffffffff1660e01b8152600401610a0b929190612942565b6020604051808303816000875af1158015610a2a573d6000803e3d6000fd5b505050506040513d601f19601f82011682018060405250810190610a4e9190612997565b507f000000000000000000000000000000000000000000000000000000000000000073ffffffffffffffffffffffffffffffffffffffff1663a9059cbb33866040518363ffffffff1660e01b8152600401610aaa929190612942565b6020604051808303816000875af1158015610ac9573d6000803e3d6000fd5b505050506040513d601f19601f82011682018060405250810190610aed9190612997565b50505050915091565b60007f000000000000000000000000000000000000000000000000000000000000000073ffffffffffffffffffffffffffffffffffffffff166323b872dd3330866040518463ffffffff1660e01b8152600401610b559392919061257c565b6020604051808303816000875af1158015610b74573d6000803e3d6000fd5b505050506040513d601f19601f82011682018060405250810190610b989190612997565b507f000000000000000000000000000000000000000000000000000000000000000073ffffffffffffffffffffffffffffffffffffffff166323b872dd3330856040518463ffffffff1660e01b8152600401610bf69392919061257c565b6020604051808303816000875af1158015610c15573d6000803e3d6000fd5b505050506040513d601f19601f82011682018060405250810190610c399190612997565b5060006002541180610c4d57506000600354115b15610cd5576000600554600254610c64919061290e565b90506000600654600354610c78919061290e565b9050818582610c8791906127c6565b610c919190612837565b8414610cd2576040517f08c379a0000000000000000000000000000000000000000000000000000000008152600401610cc990612a10565b60405180910390fd5b50505b600060085403610cfa57610cf38284610cee91906127c6565b611a2e565b9050610d3b565b610d3860025460085485610d0e91906127c6565b610d189190612837565b60035460085485610d2991906127c6565b610d339190612837565b611aa8565b90505b60008111610d7e576040517f08c379a0000000000000000000000000000000000000000000000000000000008152600401610d7590612a7c565b60405180910390fd5b610d883382611ac2565b60008054906101000a900473ffffffffffffffffffffffffffffffffffffffff1673ffffffffffffffffffffffffffffffffffffffff166391cda3e73360008054906101000a900473ffffffffffffffffffffffffffffffffffffffff1673ffffffffffffffffffffffffffffffffffffffff16638b21787885337f00000000000000000000000000000000000000000000000000000000000000007f00000000000000000000000000000000000000000000000000000000000000006004548c8c6040518863ffffffff1660e01b8152600401610e6c9796959493929190612a9c565b60e060405180830381865afa158015610e89573d6000803e3d6000fd5b505050506040513d601f19601f82011682018060405250810190610ead9190612722565b6040518363ffffffff1660e01b8152600401610eca929190612bb7565b600060405180830381600087803b158015610ee457600080fd5b505af1158015610ef8573d6000803e3d6000fd5b505050506110526005547f000000000000000000000000000000000000000000000000000000000000000073ffffffffffffffffffffffffffffffffffffffff166370a08231306040518263ffffffff1660e01b8152600401610f5b919061274f565b602060405180830381865afa158015610f78573d6000803e3d6000fd5b505050506040513d601f19601f82011682018060405250810190610f9c919061276a565b610fa6919061290e565b6006547f000000000000000000000000000000000000000000000000000000000000000073ffffffffffffffffffffffffffffffffffffffff166370a08231306040518263ffffffff1660e01b8152600401611002919061274f565b602060405180830381865afa15801561101f573d6000803e3d6000fd5b505050506040513d601f19601f82011682018060405250810190611043919061276a565b61104d919061290e565b611a1c565b92915050565b600760009054906101000a90046fffffffffffffffffffffffffffffffff1681565b60007f000000000000000000000000000000000000000000000000000000000000000073ffffffffffffffffffffffffffffffffffffffff168373ffffffffffffffffffffffffffffffffffffffff16148061112157507f000000000000000000000000000000000000000000000000000000000000000073ffffffffffffffffffffffffffffffffffffffff168373ffffffffffffffffffffffffffffffffffffffff16145b611160576040517f08c379a000000000000000000000000000000000000000000000000000000000815260040161115790612c2d565b60405180910390fd5b600082116111a3576040517f08c379a000000000000000000000000000000000000000000000000000000000815260040161119a90612c99565b60405180910390fd5b60007f000000000000000000000000000000000000000000000000000000000000000073ffffffffffffffffffffffffffffffffffffffff168473ffffffffffffffffffffffffffffffffffffffff161490506000806000808461124e577f00000000000000000000000000000000000000000000000000000000000000007f0000000000000000000000000000000000000000000000000000000000000000600354600254611297565b7f00000000000000000000000000000000000000000000000000000000000000007f00000000000000000000000000000000000000000000000000000000000000006002546003545b93509350935093508373ffffffffffffffffffffffffffffffffffffffff166323b872dd33308a6040518463ffffffff1660e01b81526004016112dc9392919061257c565b6020604051808303816000875af11580156112fb573d6000803e3d6000fd5b505050506040513d601f19601f8201168201806040525081019061131f9190612997565b5060006103e86004546103e8611335919061290e565b8961134091906127c6565b61134a9190612837565b9050851561138a576103e86004548961136391906127c6565b61136d9190612837565b6005600082825461137e9190612cb9565b925050819055506113be565b6103e86004548961139b91906127c6565b6113a59190612837565b600660008282546113b69190612cb9565b925050819055505b80836113ca9190612cb9565b81836113d691906127c6565b6113e09190612837565b96508373ffffffffffffffffffffffffffffffffffffffff1663a9059cbb33896040518363ffffffff1660e01b815260040161141d929190612942565b6020604051808303816000875af115801561143c573d6000803e3d6000fd5b505050506040513d601f19601f820116820180604052508101906114609190612997565b506115b76005547f000000000000000000000000000000000000000000000000000000000000000073ffffffffffffffffffffffffffffffffffffffff166370a08231306040518263ffffffff1660e01b81526004016114c0919061274f565b602060405180830381865afa1580156114dd573d6000803e3d6000fd5b505050506040513d601f19601f82011682018060405250810190611501919061276a565b61150b919061290e565b6006547f000000000000000000000000000000000000000000000000000000000000000073ffffffffffffffffffffffffffffffffffffffff166370a08231306040518263ffffffff1660e01b8152600401611567919061274f565b602060405180830381865afa158015611584573d6000803e3d6000fd5b505050506040513d601f19601f820116820180604052508101906115a8919061276a565b6115b2919061290e565b611a1c565b50505050505092915050565b7f000000000000000000000000000000000000000000000000000000000000000081565b60045481565b6000806000806115fd8587611673565b925092509250600061161084838a611b35565b9050600061161f838584611bc0565b905080955050505050509392505050565b6000806000806116408587611673565b925092509250600061165382848a611c86565b90506000611662858484611d4d565b905080955050505050509392505050565b600080600073__$4ec935bfa73ba494898a519090cde0c82b$__63b3e30051866040518263ffffffff1660e01b81526004016116af9190612cfc565b602060405180830381865af41580156116cc573d6000803e3d6000fd5b505050506040513d601f19601f820116820180604052508101906116f09190612d43565b925073__$4ec935bfa73ba494898a519090cde0c82b$__63b3e30051856040518263ffffffff1660e01b81526004016117299190612cfc565b602060405180830381865af4158015611746573d6000803e3d6000fd5b505050506040513d601f19601f8201168201806040525081019061176a9190612d43565b915073__$4ec935bfa73ba494898a519090cde0c82b$__63b3e30051600160009054906101000a900473ffffffffffffffffffffffffffffffffffffffff1673ffffffffffffffffffffffffffffffffffffffff16631faa9c146040518163ffffffff1660e01b8152600401602060405180830381865afa1580156117f3573d6000803e3d6000fd5b505050506040513d601f19601f820116820180604052508101906118179190612d85565b6040518263ffffffff1660e01b81526004016118339190612cfc565b602060405180830381865af4158015611850573d6000803e3d6000fd5b505050506040513d601f19601f820116820180604052508101906118749190612d43565b90509250925092565b60008373ffffffffffffffffffffffffffffffffffffffff168573ffffffffffffffffffffffffffffffffffffffff1611156118be57838580955081965050505b8473ffffffffffffffffffffffffffffffffffffffff168673ffffffffffffffffffffffffffffffffffffffff1611611903576118fc858585611c86565b90506119a0565b8373ffffffffffffffffffffffffffffffffffffffff168673ffffffffffffffffffffffffffffffffffffffff161015611991576000611944878686611c86565b90506000611953878986611b35565b9050806fffffffffffffffffffffffffffffffff16826fffffffffffffffffffffffffffffffff16106119865780611988565b815b9250505061199f565b61199c858584611b35565b90505b5b95945050505050565b80600960008473ffffffffffffffffffffffffffffffffffffffff1673ffffffffffffffffffffffffffffffffffffffff16815260200190815260200160002060008282546119f8919061290e565b925050819055508060086000828254611a11919061290e565b925050819055505050565b81600281905550806003819055505050565b60006003821115611a955781905060006001600284611a4d9190612837565b611a579190612cb9565b90505b81811015611a8f578091506002818285611a749190612837565b611a7e9190612cb9565b611a889190612837565b9050611a5a565b50611aa3565b60008214611aa257600190505b5b919050565b600081831115611ab85781611aba565b825b905092915050565b80600960008473ffffffffffffffffffffffffffffffffffffffff1673ffffffffffffffffffffffffffffffffffffffff1681526020019081526020016000206000828254611b119190612cb9565b925050819055508060086000828254611b2a9190612cb9565b925050819055505050565b60008273ffffffffffffffffffffffffffffffffffffffff168473ffffffffffffffffffffffffffffffffffffffff161115611b7657828480945081955050505b611bb7611bb2836c010000000000000000000000008787611b979190612db2565b73ffffffffffffffffffffffffffffffffffffffff16611de2565b611f76565b90509392505050565b60008273ffffffffffffffffffffffffffffffffffffffff168473ffffffffffffffffffffffffffffffffffffffff161115611c0157828480945081955050505b8373ffffffffffffffffffffffffffffffffffffffff16611c73606060ff16846fffffffffffffffffffffffffffffffff16901b8686611c419190612db2565b73ffffffffffffffffffffffffffffffffffffffff168673ffffffffffffffffffffffffffffffffffffffff16611de2565b611c7d9190612837565b90509392505050565b60008273ffffffffffffffffffffffffffffffffffffffff168473ffffffffffffffffffffffffffffffffffffffff161115611cc757828480945081955050505b6000611d0d8573ffffffffffffffffffffffffffffffffffffffff168573ffffffffffffffffffffffffffffffffffffffff166c01000000000000000000000000611de2565b9050611d43611d3e84838888611d239190612db2565b73ffffffffffffffffffffffffffffffffffffffff16611de2565b611f76565b9150509392505050565b60008273ffffffffffffffffffffffffffffffffffffffff168473ffffffffffffffffffffffffffffffffffffffff161115611d8e57828480945081955050505b611dd9826fffffffffffffffffffffffffffffffff168585611db09190612db2565b73ffffffffffffffffffffffffffffffffffffffff166c01000000000000000000000000611de2565b90509392505050565b6000806000801985870985870292508281108382030391505060008103611e1c5760008411611e1057600080fd5b83820492505050611f6f565b808411611e2857600080fd5b600084868809905082811182039150808303925060008586191690508086049550808404935060018182600003040190508083611e6591906127c6565b8417935060006002876003611e7a91906127c6565b1890508087611e8991906127c6565b6002611e95919061290e565b81611ea091906127c6565b90508087611eae91906127c6565b6002611eba919061290e565b81611ec591906127c6565b90508087611ed391906127c6565b6002611edf919061290e565b81611eea91906127c6565b90508087611ef891906127c6565b6002611f04919061290e565b81611f0f91906127c6565b90508087611f1d91906127c6565b6002611f29919061290e565b81611f3491906127c6565b90508087611f4291906127c6565b6002611f4e919061290e565b81611f5991906127c6565b90508085611f6791906127c6565b955050505050505b9392505050565b600081829150816fffffffffffffffffffffffffffffffff1614611f9957600080fd5b919050565b6000604051905090565b600080fd5b600080fd5b60007fffffffff0000000000000000000000000000000000000000000000000000000082169050919050565b611fe781611fb2565b8114611ff257600080fd5b50565b60008135905061200481611fde565b92915050565b6000602082840312156120205761201f611fa8565b5b600061202e84828501611ff5565b91505092915050565b60008115159050919050565b61204c81612037565b82525050565b60006020820190506120676000830184612043565b92915050565b600073ffffffffffffffffffffffffffffffffffffffff82169050919050565b6000819050919050565b60006120b26120ad6120a88461206d565b61208d565b61206d565b9050919050565b60006120c482612097565b9050919050565b60006120d6826120b9565b9050919050565b6120e6816120cb565b82525050565b600060208201905061210160008301846120dd565b92915050565b6000612112826120b9565b9050919050565b61212281612107565b82525050565b600060208201905061213d6000830184612119565b92915050565b600061214e8261206d565b9050919050565b61215e81612143565b811461216957600080fd5b50565b60008135905061217b81612155565b92915050565b6000819050919050565b61219481612181565b811461219f57600080fd5b50565b6000813590506121b18161218b565b92915050565b600080fd5b600080fd5b600080fd5b60008083601f8401126121dc576121db6121b7565b5b8235905067ffffffffffffffff8111156121f9576121f86121bc565b5b602083019150836001820283011115612215576122146121c1565b5b9250929050565b60008060008060006080868803121561223857612237611fa8565b5b60006122468882890161216c565b95505060206122578882890161216c565b9450506040612268888289016121a2565b935050606086013567ffffffffffffffff81111561228957612288611fad565b5b612295888289016121c6565b92509250509295509295909350565b6122ad81611fb2565b82525050565b60006020820190506122c860008301846122a4565b92915050565b6122d781612181565b82525050565b60006020820190506122f260008301846122ce565b92915050565b6000819050919050565b61230b816122f8565b811461231657600080fd5b50565b60008135905061232881612302565b92915050565b6000806000806080858703121561234857612347611fa8565b5b6000612356878288016121a2565b9450506020612367878288016121a2565b935050604061237887828801612319565b925050606061238987828801612319565b91505092959194509250565b60006fffffffffffffffffffffffffffffffff82169050919050565b6123ba81612395565b82525050565b60006020820190506123d560008301846123b1565b92915050565b6000602082840312156123f1576123f0611fa8565b5b60006123ff8482850161216c565b91505092915050565b6000612413826120b9565b9050919050565b61242381612408565b82525050565b600060208201905061243e600083018461241a565b92915050565b60006020828403121561245a57612459611fa8565b5b6000612468848285016121a2565b91505092915050565b600060408201905061248660008301856122ce565b61249360208301846122ce565b9392505050565b600080604083850312156124b1576124b0611fa8565b5b60006124bf858286016121a2565b92505060206124d0858286016121a2565b9150509250929050565b600080604083850312156124f1576124f0611fa8565b5b60006124ff8582860161216c565b9250506020612510858286016121a2565b9150509250929050565b60008060006060848603121561253357612532611fa8565b5b6000612541868287016121a2565b935050602061255286828701612319565b925050604061256386828701612319565b9150509250925092565b61257681612143565b82525050565b6000606082019050612591600083018661256d565b61259e602083018561256d565b6125ab60408301846122ce565b949350505050565b600080fd5b6000601f19601f8301169050919050565b7f4e487b7100000000000000000000000000000000000000000000000000000000600052604160045260246000fd5b612601826125b8565b810181811067ffffffffffffffff821117156126205761261f6125c9565b5b80604052505050565b6000612633611f9e565b905061263f82826125f8565b919050565b6000815190506126538161218b565b92915050565b60008151905061266881612155565b92915050565b600060e08284031215612684576126836125b3565b5b61268e60e0612629565b9050600061269e84828501612644565b60008301525060206126b284828501612659565b60208301525060406126c684828501612659565b60408301525060606126da84828501612659565b60608301525060806126ee84828501612644565b60808301525060a061270284828501612644565b60a08301525060c061271684828501612644565b60c08301525092915050565b600060e0828403121561273857612737611fa8565b5b60006127468482850161266e565b91505092915050565b6000602082019050612764600083018461256d565b92915050565b6000602082840312156127805761277f611fa8565b5b600061278e84828501612644565b91505092915050565b7f4e487b7100000000000000000000000000000000000000000000000000000000600052601160045260246000fd5b60006127d182612181565b91506127dc83612181565b92508282026127ea81612181565b9150828204841483151761280157612800612797565b5b5092915050565b7f4e487b7100000000000000000000000000000000000000000000000000000000600052601260045260246000fd5b600061284282612181565b915061284d83612181565b92508261285d5761285c612808565b5b828204905092915050565b600082825260208201905092915050565b7f616d6f756e7430206f7220616d6f756e7431203d203000000000000000000000600082015250565b60006128af601683612868565b91506128ba82612879565b602082019050919050565b600060208201905081810360008301526128de816128a2565b9050919050565b60006040820190506128fa60008301856122ce565b612907602083018461256d565b9392505050565b600061291982612181565b915061292483612181565b925082820390508181111561293c5761293b612797565b5b92915050565b6000604082019050612957600083018561256d565b61296460208301846122ce565b9392505050565b61297481612037565b811461297f57600080fd5b50565b6000815190506129918161296b565b92915050565b6000602082840312156129ad576129ac611fa8565b5b60006129bb84828501612982565b91505092915050565b7f6479202f20647820213d2079202f207800000000000000000000000000000000600082015250565b60006129fa601083612868565b9150612a05826129c4565b602082019050919050565b60006020820190508181036000830152612a29816129ed565b9050919050565b7f736861726573203d203000000000000000000000000000000000000000000000600082015250565b6000612a66600a83612868565b9150612a7182612a30565b602082019050919050565b60006020820190508181036000830152612a9581612a59565b9050919050565b600060e082019050612ab1600083018a6122ce565b612abe602083018961256d565b612acb604083018861256d565b612ad8606083018761256d565b612ae560808301866122ce565b612af260a08301856122ce565b612aff60c08301846122ce565b98975050505050505050565b612b1481612181565b82525050565b612b2381612143565b82525050565b60e082016000820151612b3f6000850182612b0b565b506020820151612b526020850182612b1a565b506040820151612b656040850182612b1a565b506060820151612b786060850182612b1a565b506080820151612b8b6080850182612b0b565b5060a0820151612b9e60a0850182612b0b565b5060c0820151612bb160c0850182612b0b565b50505050565b600061010082019050612bcd600083018561256d565b612bda6020830184612b29565b9392505050565b7f496e76616c69646520546f6b656e000000000000000000000000000000000000600082015250565b6000612c17600e83612868565b9150612c2282612be1565b602082019050919050565b60006020820190508181036000830152612c4681612c0a565b9050919050565b7f616d6f756e7420696e203d203000000000000000000000000000000000000000600082015250565b6000612c83600d83612868565b9150612c8e82612c4d565b602082019050919050565b60006020820190508181036000830152612cb281612c76565b9050919050565b6000612cc482612181565b9150612ccf83612181565b9250828201905080821115612ce757612ce6612797565b5b92915050565b612cf6816122f8565b82525050565b6000602082019050612d116000830184612ced565b92915050565b612d208161206d565b8114612d2b57600080fd5b50565b600081519050612d3d81612d17565b92915050565b600060208284031215612d5957612d58611fa8565b5b6000612d6784828501612d2e565b91505092915050565b600081519050612d7f81612302565b92915050565b600060208284031215612d9b57612d9a611fa8565b5b6000612da984828501612d70565b91505092915050565b6000612dbd8261206d565b9150612dc88361206d565b9250828203905073ffffffffffffffffffffffffffffffffffffffff811115612df457612df3612797565b5b9291505056fea26469706673582212206ecd64fc714d90ef5de1259d591850d5aba5e8cacd8173b565c8d96b24bb3ca664736f6c63430008120033",
			"opcodes": "PUSH1 0xC0 PUSH1 0x40 MSTORE CALLVALUE DUP1 ISZERO PUSH3 0x11 JUMPI PUSH1 0x0 DUP1 REVERT JUMPDEST POP PUSH1 0x40 MLOAD PUSH3 0x313A CODESIZE SUB DUP1 PUSH3 0x313A DUP4 CODECOPY DUP2 DUP2 ADD PUSH1 0x40 MSTORE DUP2 ADD SWAP1 PUSH3 0x37 SWAP2 SWAP1 PUSH3 0x1D7 JUMP JUMPDEST DUP5 PUSH20 0xFFFFFFFFFFFFFFFFFFFFFFFFFFFFFFFFFFFFFFFF AND PUSH1 0x80 DUP2 PUSH20 0xFFFFFFFFFFFFFFFFFFFFFFFFFFFFFFFFFFFFFFFF AND DUP2 MSTORE POP POP DUP4 PUSH20 0xFFFFFFFFFFFFFFFFFFFFFFFFFFFFFFFFFFFFFFFF AND PUSH1 0xA0 DUP2 PUSH20 0xFFFFFFFFFFFFFFFFFFFFFFFFFFFFFFFFFFFFFFFF AND DUP2 MSTORE POP POP DUP3 PUSH1 0x0 DUP1 PUSH2 0x100 EXP DUP2 SLOAD DUP2 PUSH20 0xFFFFFFFFFFFFFFFFFFFFFFFFFFFFFFFFFFFFFFFF MUL NOT AND SWAP1 DUP4 PUSH20 0xFFFFFFFFFFFFFFFFFFFFFFFFFFFFFFFFFFFFFFFF AND MUL OR SWAP1 SSTORE POP DUP2 PUSH1 0x1 PUSH1 0x0 PUSH2 0x100 EXP DUP2 SLOAD DUP2 PUSH20 0xFFFFFFFFFFFFFFFFFFFFFFFFFFFFFFFFFFFFFFFF MUL NOT AND SWAP1 DUP4 PUSH20 0xFFFFFFFFFFFFFFFFFFFFFFFFFFFFFFFFFFFFFFFF AND MUL OR SWAP1 SSTORE POP DUP1 PUSH1 0x4 DUP2 SWAP1 SSTORE POP POP POP POP POP POP PUSH3 0x25F JUMP JUMPDEST PUSH1 0x0 DUP1 REVERT JUMPDEST PUSH1 0x0 PUSH20 0xFFFFFFFFFFFFFFFFFFFFFFFFFFFFFFFFFFFFFFFF DUP3 AND SWAP1 POP SWAP2 SWAP1 POP JUMP JUMPDEST PUSH1 0x0 PUSH3 0x164 DUP3 PUSH3 0x137 JUMP JUMPDEST SWAP1 POP SWAP2 SWAP1 POP JUMP JUMPDEST PUSH3 0x176 DUP2 PUSH3 0x157 JUMP JUMPDEST DUP2 EQ PUSH3 0x182 JUMPI PUSH1 0x0 DUP1 REVERT JUMPDEST POP JUMP JUMPDEST PUSH1 0x0 DUP2 MLOAD SWAP1 POP PUSH3 0x196 DUP2 PUSH3 0x16B JUMP JUMPDEST SWAP3 SWAP2 POP POP JUMP JUMPDEST PUSH1 0x0 DUP2 SWAP1 POP SWAP2 SWAP1 POP JUMP JUMPDEST PUSH3 0x1B1 DUP2 PUSH3 0x19C JUMP JUMPDEST DUP2 EQ PUSH3 0x1BD JUMPI PUSH1 0x0 DUP1 REVERT JUMPDEST POP JUMP JUMPDEST PUSH1 0x0 DUP2 MLOAD SWAP1 POP PUSH3 0x1D1 DUP2 PUSH3 0x1A6 JUMP JUMPDEST SWAP3 SWAP2 POP POP JUMP JUMPDEST PUSH1 0x0 DUP1 PUSH1 0x0 DUP1 PUSH1 0x0 PUSH1 0xA0 DUP7 DUP9 SUB SLT ISZERO PUSH3 0x1F6 JUMPI PUSH3 0x1F5 PUSH3 0x132 JUMP JUMPDEST JUMPDEST PUSH1 0x0 PUSH3 0x206 DUP9 DUP3 DUP10 ADD PUSH3 0x185 JUMP JUMPDEST SWAP6 POP POP PUSH1 0x20 PUSH3 0x219 DUP9 DUP3 DUP10 ADD PUSH3 0x185 JUMP JUMPDEST SWAP5 POP POP PUSH1 0x40 PUSH3 0x22C DUP9 DUP3 DUP10 ADD PUSH3 0x185 JUMP JUMPDEST SWAP4 POP POP PUSH1 0x60 PUSH3 0x23F DUP9 DUP3 DUP10 ADD PUSH3 0x185 JUMP JUMPDEST SWAP3 POP POP PUSH1 0x80 PUSH3 0x252 DUP9 DUP3 DUP10 ADD PUSH3 0x1C0 JUMP JUMPDEST SWAP2 POP POP SWAP3 SWAP6 POP SWAP3 SWAP6 SWAP1 SWAP4 POP JUMP JUMPDEST PUSH1 0x80 MLOAD PUSH1 0xA0 MLOAD PUSH2 0x2E30 PUSH3 0x30A PUSH1 0x0 CODECOPY PUSH1 0x0 DUP2 DUP2 PUSH2 0x7C0 ADD MSTORE DUP2 DUP2 PUSH2 0xA51 ADD MSTORE DUP2 DUP2 PUSH2 0xB9B ADD MSTORE DUP2 DUP2 PUSH2 0xE26 ADD MSTORE DUP2 DUP2 PUSH2 0xFAB ADD MSTORE DUP2 DUP2 PUSH2 0x10D3 ADD MSTORE DUP2 DUP2 PUSH2 0x1203 ADD MSTORE DUP2 DUP2 PUSH2 0x1271 ADD MSTORE DUP2 DUP2 PUSH2 0x1510 ADD MSTORE PUSH2 0x15C5 ADD MSTORE PUSH1 0x0 DUP2 DUP2 PUSH2 0x524 ADD MSTORE DUP2 DUP2 PUSH2 0x722 ADD MSTORE DUP2 DUP2 PUSH2 0x9B2 ADD MSTORE DUP2 DUP2 PUSH2 0xAFA ADD MSTORE DUP2 DUP2 PUSH2 0xE05 ADD MSTORE DUP2 DUP2 PUSH2 0xF04 ADD MSTORE DUP2 DUP2 PUSH2 0x107E ADD MSTORE DUP2 DUP2 PUSH2 0x11A7 ADD MSTORE DUP2 DUP2 PUSH2 0x1224 ADD MSTORE DUP2 DUP2 PUSH2 0x1250 ADD MSTORE PUSH2 0x1469 ADD MSTORE PUSH2 0x2E30 PUSH1 0x0 RETURN INVALID PUSH1 0x80 PUSH1 0x40 MSTORE CALLVALUE DUP1 ISZERO PUSH2 0x10 JUMPI PUSH1 0x0 DUP1 REVERT JUMPDEST POP PUSH1 0x4 CALLDATASIZE LT PUSH2 0x12C JUMPI PUSH1 0x0 CALLDATALOAD PUSH1 0xE0 SHR DUP1 PUSH4 0x7DC0D1D0 GT PUSH2 0xAD JUMPI DUP1 PUSH4 0xD004F0F7 GT PUSH2 0x71 JUMPI DUP1 PUSH4 0xD004F0F7 EQ PUSH2 0x360 JUMPI DUP1 PUSH4 0xD21220A7 EQ PUSH2 0x390 JUMPI DUP1 PUSH4 0xDDCA3F43 EQ PUSH2 0x3AE JUMPI DUP1 PUSH4 0xEED5907F EQ PUSH2 0x3CC JUMPI DUP1 PUSH4 0xF8FFFB2A EQ PUSH2 0x3FC JUMPI PUSH2 0x12C JUMP JUMPDEST DUP1 PUSH4 0x7DC0D1D0 EQ PUSH2 0x2A5 JUMPI DUP1 PUSH4 0x90256E54 EQ PUSH2 0x2C3 JUMPI DUP1 PUSH4 0x9C8F9F23 EQ PUSH2 0x2E1 JUMPI DUP1 PUSH4 0x9CD441DA EQ PUSH2 0x312 JUMPI DUP1 PUSH4 0xA9C472B2 EQ PUSH2 0x342 JUMPI PUSH2 0x12C JUMP JUMPDEST DUP1 PUSH4 0x2A75DD70 GT PUSH2 0xF4 JUMPI DUP1 PUSH4 0x2A75DD70 EQ PUSH2 0x1EB JUMPI DUP1 PUSH4 0x443CB4BC EQ PUSH2 0x21B JUMPI DUP1 PUSH4 0x5A76F25E EQ PUSH2 0x239 JUMPI DUP1 PUSH4 0x70A08231 EQ PUSH2 0x257 JUMPI DUP1 PUSH4 0x78F0C735 EQ PUSH2 0x287 JUMPI PUSH2 0x12C JUMP JUMPDEST DUP1 PUSH4 0x1FFC9A7 EQ PUSH2 0x131 JUMPI DUP1 PUSH4 0x9FEB954 EQ PUSH2 0x161 JUMPI DUP1 PUSH4 0xDFE1681 EQ PUSH2 0x17F JUMPI DUP1 PUSH4 0x150B7A02 EQ PUSH2 0x19D JUMPI DUP1 PUSH4 0x18160DDD EQ PUSH2 0x1CD JUMPI JUMPDEST PUSH1 0x0 DUP1 REVERT JUMPDEST PUSH2 0x14B PUSH1 0x4 DUP1 CALLDATASIZE SUB DUP2 ADD SWAP1 PUSH2 0x146 SWAP2 SWAP1 PUSH2 0x200A JUMP JUMPDEST PUSH2 0x42C JUMP JUMPDEST PUSH1 0x40 MLOAD PUSH2 0x158 SWAP2 SWAP1 PUSH2 0x2052 JUMP JUMPDEST PUSH1 0x40 MLOAD DUP1 SWAP2 SUB SWAP1 RETURN JUMPDEST PUSH2 0x169 PUSH2 0x4FE JUMP JUMPDEST PUSH1 0x40 MLOAD PUSH2 0x176 SWAP2 SWAP1 PUSH2 0x20EC JUMP JUMPDEST PUSH1 0x40 MLOAD DUP1 SWAP2 SUB SWAP1 RETURN JUMPDEST PUSH2 0x187 PUSH2 0x522 JUMP JUMPDEST PUSH1 0x40 MLOAD PUSH2 0x194 SWAP2 SWAP1 PUSH2 0x2128 JUMP JUMPDEST PUSH1 0x40 MLOAD DUP1 SWAP2 SUB SWAP1 RETURN JUMPDEST PUSH2 0x1B7 PUSH1 0x4 DUP1 CALLDATASIZE SUB DUP2 ADD SWAP1 PUSH2 0x1B2 SWAP2 SWAP1 PUSH2 0x221C JUMP JUMPDEST PUSH2 0x546 JUMP JUMPDEST PUSH1 0x40 MLOAD PUSH2 0x1C4 SWAP2 SWAP1 PUSH2 0x22B3 JUMP JUMPDEST PUSH1 0x40 MLOAD DUP1 SWAP2 SUB SWAP1 RETURN JUMPDEST PUSH2 0x1D5 PUSH2 0x55B JUMP JUMPDEST PUSH1 0x40 MLOAD PUSH2 0x1E2 SWAP2 SWAP1 PUSH2 0x22DD JUMP JUMPDEST PUSH1 0x40 MLOAD DUP1 SWAP2 SUB SWAP1 RETURN JUMPDEST PUSH2 0x205 PUSH1 0x4 DUP1 CALLDATASIZE SUB DUP2 ADD SWAP1 PUSH2 0x200 SWAP2 SWAP1 PUSH2 0x232E JUMP JUMPDEST PUSH2 0x561 JUMP JUMPDEST PUSH1 0x40 MLOAD PUSH2 0x212 SWAP2 SWAP1 PUSH2 0x23C0 JUMP JUMPDEST PUSH1 0x40 MLOAD DUP1 SWAP2 SUB SWAP1 RETURN JUMPDEST PUSH2 0x223 PUSH2 0x591 JUMP JUMPDEST PUSH1 0x40 MLOAD PUSH2 0x230 SWAP2 SWAP1 PUSH2 0x22DD JUMP JUMPDEST PUSH1 0x40 MLOAD DUP1 SWAP2 SUB SWAP1 RETURN JUMPDEST PUSH2 0x241 PUSH2 0x597 JUMP JUMPDEST PUSH1 0x40 MLOAD PUSH2 0x24E SWAP2 SWAP1 PUSH2 0x22DD JUMP JUMPDEST PUSH1 0x40 MLOAD DUP1 SWAP2 SUB SWAP1 RETURN JUMPDEST PUSH2 0x271 PUSH1 0x4 DUP1 CALLDATASIZE SUB DUP2 ADD SWAP1 PUSH2 0x26C SWAP2 SWAP1 PUSH2 0x23DB JUMP JUMPDEST PUSH2 0x59D JUMP JUMPDEST PUSH1 0x40 MLOAD PUSH2 0x27E SWAP2 SWAP1 PUSH2 0x22DD JUMP JUMPDEST PUSH1 0x40 MLOAD DUP1 SWAP2 SUB SWAP1 RETURN JUMPDEST PUSH2 0x28F PUSH2 0x5B5 JUMP JUMPDEST PUSH1 0x40 MLOAD PUSH2 0x29C SWAP2 SWAP1 PUSH2 0x22DD JUMP JUMPDEST PUSH1 0x40 MLOAD DUP1 SWAP2 SUB SWAP1 RETURN JUMPDEST PUSH2 0x2AD PUSH2 0x5BB JUMP JUMPDEST PUSH1 0x40 MLOAD PUSH2 0x2BA SWAP2 SWAP1 PUSH2 0x2429 JUMP JUMPDEST PUSH1 0x40 MLOAD DUP1 SWAP2 SUB SWAP1 RETURN JUMPDEST PUSH2 0x2CB PUSH2 0x5E1 JUMP JUMPDEST PUSH1 0x40 MLOAD PUSH2 0x2D8 SWAP2 SWAP1 PUSH2 0x22DD JUMP JUMPDEST PUSH1 0x40 MLOAD DUP1 SWAP2 SUB SWAP1 RETURN JUMPDEST PUSH2 0x2FB PUSH1 0x4 DUP1 CALLDATASIZE SUB DUP2 ADD SWAP1 PUSH2 0x2F6 SWAP2 SWAP1 PUSH2 0x2444 JUMP JUMPDEST PUSH2 0x5E7 JUMP JUMPDEST PUSH1 0x40 MLOAD PUSH2 0x309 SWAP3 SWAP2 SWAP1 PUSH2 0x2471 JUMP JUMPDEST PUSH1 0x40 MLOAD DUP1 SWAP2 SUB SWAP1 RETURN JUMPDEST PUSH2 0x32C PUSH1 0x4 DUP1 CALLDATASIZE SUB DUP2 ADD SWAP1 PUSH2 0x327 SWAP2 SWAP1 PUSH2 0x249A JUMP JUMPDEST PUSH2 0xAF6 JUMP JUMPDEST PUSH1 0x40 MLOAD PUSH2 0x339 SWAP2 SWAP1 PUSH2 0x22DD JUMP JUMPDEST PUSH1 0x40 MLOAD DUP1 SWAP2 SUB SWAP1 RETURN JUMPDEST PUSH2 0x34A PUSH2 0x1058 JUMP JUMPDEST PUSH1 0x40 MLOAD PUSH2 0x357 SWAP2 SWAP1 PUSH2 0x23C0 JUMP JUMPDEST PUSH1 0x40 MLOAD DUP1 SWAP2 SUB SWAP1 RETURN JUMPDEST PUSH2 0x37A PUSH1 0x4 DUP1 CALLDATASIZE SUB DUP2 ADD SWAP1 PUSH2 0x375 SWAP2 SWAP1 PUSH2 0x24DA JUMP JUMPDEST PUSH2 0x107A JUMP JUMPDEST PUSH1 0x40 MLOAD PUSH2 0x387 SWAP2 SWAP1 PUSH2 0x22DD JUMP JUMPDEST PUSH1 0x40 MLOAD DUP1 SWAP2 SUB SWAP1 RETURN JUMPDEST PUSH2 0x398 PUSH2 0x15C3 JUMP JUMPDEST PUSH1 0x40 MLOAD PUSH2 0x3A5 SWAP2 SWAP1 PUSH2 0x2128 JUMP JUMPDEST PUSH1 0x40 MLOAD DUP1 SWAP2 SUB SWAP1 RETURN JUMPDEST PUSH2 0x3B6 PUSH2 0x15E7 JUMP JUMPDEST PUSH1 0x40 MLOAD PUSH2 0x3C3 SWAP2 SWAP1 PUSH2 0x22DD JUMP JUMPDEST PUSH1 0x40 MLOAD DUP1 SWAP2 SUB SWAP1 RETURN JUMPDEST PUSH2 0x3E6 PUSH1 0x4 DUP1 CALLDATASIZE SUB DUP2 ADD SWAP1 PUSH2 0x3E1 SWAP2 SWAP1 PUSH2 0x251A JUMP JUMPDEST PUSH2 0x15ED JUMP JUMPDEST PUSH1 0x40 MLOAD PUSH2 0x3F3 SWAP2 SWAP1 PUSH2 0x22DD JUMP JUMPDEST PUSH1 0x40 MLOAD DUP1 SWAP2 SUB SWAP1 RETURN JUMPDEST PUSH2 0x416 PUSH1 0x4 DUP1 CALLDATASIZE SUB DUP2 ADD SWAP1 PUSH2 0x411 SWAP2 SWAP1 PUSH2 0x251A JUMP JUMPDEST PUSH2 0x1630 JUMP JUMPDEST PUSH1 0x40 MLOAD PUSH2 0x423 SWAP2 SWAP1 PUSH2 0x22DD JUMP JUMPDEST PUSH1 0x40 MLOAD DUP1 SWAP2 SUB SWAP1 RETURN JUMPDEST PUSH1 0x0 PUSH32 0x80AC58CD00000000000000000000000000000000000000000000000000000000 PUSH28 0xFFFFFFFFFFFFFFFFFFFFFFFFFFFFFFFFFFFFFFFFFFFFFFFFFFFFFFFF NOT AND DUP3 PUSH28 0xFFFFFFFFFFFFFFFFFFFFFFFFFFFFFFFFFFFFFFFFFFFFFFFFFFFFFFFF NOT AND EQ DUP1 PUSH2 0x4F7 JUMPI POP PUSH32 0x1FFC9A700000000000000000000000000000000000000000000000000000000 PUSH28 0xFFFFFFFFFFFFFFFFFFFFFFFFFFFFFFFFFFFFFFFFFFFFFFFFFFFFFFFF NOT AND DUP3 PUSH28 0xFFFFFFFFFFFFFFFFFFFFFFFFFFFFFFFFFFFFFFFFFFFFFFFFFFFFFFFF NOT AND EQ JUMPDEST SWAP1 POP SWAP2 SWAP1 POP JUMP JUMPDEST PUSH1 0x0 DUP1 SLOAD SWAP1 PUSH2 0x100 EXP SWAP1 DIV PUSH20 0xFFFFFFFFFFFFFFFFFFFFFFFFFFFFFFFFFFFFFFFF AND DUP2 JUMP JUMPDEST PUSH32 0x0 DUP2 JUMP JUMPDEST PUSH1 0x0 PUSH4 0x150B7A02 PUSH1 0xE0 SHL SWAP1 POP SWAP6 SWAP5 POP POP POP POP POP JUMP JUMPDEST PUSH1 0x8 SLOAD DUP2 JUMP JUMPDEST PUSH1 0x0 DUP1 PUSH1 0x0 DUP1 PUSH2 0x571 DUP6 DUP8 PUSH2 0x1673 JUMP JUMPDEST SWAP3 POP SWAP3 POP SWAP3 POP PUSH2 0x584 DUP2 DUP5 DUP5 DUP12 DUP12 PUSH2 0x187D JUMP JUMPDEST SWAP4 POP POP POP POP SWAP5 SWAP4 POP POP POP POP JUMP JUMPDEST PUSH1 0x2 SLOAD DUP2 JUMP JUMPDEST PUSH1 0x3 SLOAD DUP2 JUMP JUMPDEST PUSH1 0x9 PUSH1 0x20 MSTORE DUP1 PUSH1 0x0 MSTORE PUSH1 0x40 PUSH1 0x0 KECCAK256 PUSH1 0x0 SWAP2 POP SWAP1 POP SLOAD DUP2 JUMP JUMPDEST PUSH1 0x6 SLOAD DUP2 JUMP JUMPDEST PUSH1 0x1 PUSH1 0x0 SWAP1 SLOAD SWAP1 PUSH2 0x100 EXP SWAP1 DIV PUSH20 0xFFFFFFFFFFFFFFFFFFFFFFFFFFFFFFFFFFFFFFFF AND DUP2 JUMP JUMPDEST PUSH1 0x5 SLOAD DUP2 JUMP JUMPDEST PUSH1 0x0 DUP1 PUSH1 0x0 DUP1 SLOAD SWAP1 PUSH2 0x100 EXP SWAP1 DIV PUSH20 0xFFFFFFFFFFFFFFFFFFFFFFFFFFFFFFFFFFFFFFFF AND PUSH20 0xFFFFFFFFFFFFFFFFFFFFFFFFFFFFFFFFFFFFFFFF AND PUSH4 0x26908FA1 CALLER ADDRESS DUP7 PUSH1 0x40 MLOAD DUP5 PUSH4 0xFFFFFFFF AND PUSH1 0xE0 SHL DUP2 MSTORE PUSH1 0x4 ADD PUSH2 0x647 SWAP4 SWAP3 SWAP2 SWAP1 PUSH2 0x257C JUMP JUMPDEST PUSH1 0x0 PUSH1 0x40 MLOAD DUP1 DUP4 SUB DUP2 PUSH1 0x0 DUP8 DUP1 EXTCODESIZE ISZERO DUP1 ISZERO PUSH2 0x661 JUMPI PUSH1 0x0 DUP1 REVERT JUMPDEST POP GAS CALL ISZERO DUP1 ISZERO PUSH2 0x675 JUMPI RETURNDATASIZE PUSH1 0x0 DUP1 RETURNDATACOPY RETURNDATASIZE PUSH1 0x0 REVERT JUMPDEST POP POP POP POP PUSH1 0x0 DUP1 PUSH1 0x0 SWAP1 SLOAD SWAP1 PUSH2 0x100 EXP SWAP1 DIV PUSH20 0xFFFFFFFFFFFFFFFFFFFFFFFFFFFFFFFFFFFFFFFF AND PUSH20 0xFFFFFFFFFFFFFFFFFFFFFFFFFFFFFFFFFFFFFFFF AND PUSH4 0x99FBAB88 DUP6 PUSH1 0x40 MLOAD DUP3 PUSH4 0xFFFFFFFF AND PUSH1 0xE0 SHL DUP2 MSTORE PUSH1 0x4 ADD PUSH2 0x6D5 SWAP2 SWAP1 PUSH2 0x22DD JUMP JUMPDEST PUSH1 0xE0 PUSH1 0x40 MLOAD DUP1 DUP4 SUB DUP2 PUSH1 0x0 DUP8 GAS CALL ISZERO DUP1 ISZERO PUSH2 0x6F4 JUMPI RETURNDATASIZE PUSH1 0x0 DUP1 RETURNDATACOPY RETURNDATASIZE PUSH1 0x0 REVERT JUMPDEST POP POP POP POP PUSH1 0x40 MLOAD RETURNDATASIZE PUSH1 0x1F NOT PUSH1 0x1F DUP3 ADD AND DUP3 ADD DUP1 PUSH1 0x40 MSTORE POP DUP2 ADD SWAP1 PUSH2 0x718 SWAP2 SWAP1 PUSH2 0x2722 JUMP JUMPDEST PUSH1 0x0 ADD MLOAD SWAP1 POP PUSH1 0x0 PUSH32 0x0 PUSH20 0xFFFFFFFFFFFFFFFFFFFFFFFFFFFFFFFFFFFFFFFF AND PUSH4 0x70A08231 ADDRESS PUSH1 0x40 MLOAD DUP3 PUSH4 0xFFFFFFFF AND PUSH1 0xE0 SHL DUP2 MSTORE PUSH1 0x4 ADD PUSH2 0x779 SWAP2 SWAP1 PUSH2 0x274F JUMP JUMPDEST PUSH1 0x20 PUSH1 0x40 MLOAD DUP1 DUP4 SUB DUP2 DUP7 GAS STATICCALL ISZERO DUP1 ISZERO PUSH2 0x796 JUMPI RETURNDATASIZE PUSH1 0x0 DUP1 RETURNDATACOPY RETURNDATASIZE PUSH1 0x0 REVERT JUMPDEST POP POP POP POP PUSH1 0x40 MLOAD RETURNDATASIZE PUSH1 0x1F NOT PUSH1 0x1F DUP3 ADD AND DUP3 ADD DUP1 PUSH1 0x40 MSTORE POP DUP2 ADD SWAP1 PUSH2 0x7BA SWAP2 SWAP1 PUSH2 0x276A JUMP JUMPDEST SWAP1 POP PUSH1 0x0 PUSH32 0x0 PUSH20 0xFFFFFFFFFFFFFFFFFFFFFFFFFFFFFFFFFFFFFFFF AND PUSH4 0x70A08231 ADDRESS PUSH1 0x40 MLOAD DUP3 PUSH4 0xFFFFFFFF AND PUSH1 0xE0 SHL DUP2 MSTORE PUSH1 0x4 ADD PUSH2 0x817 SWAP2 SWAP1 PUSH2 0x274F JUMP JUMPDEST PUSH1 0x20 PUSH1 0x40 MLOAD DUP1 DUP4 SUB DUP2 DUP7 GAS STATICCALL ISZERO DUP1 ISZERO PUSH2 0x834 JUMPI RETURNDATASIZE PUSH1 0x0 DUP1 RETURNDATACOPY RETURNDATASIZE PUSH1 0x0 REVERT JUMPDEST POP POP POP POP PUSH1 0x40 MLOAD RETURNDATASIZE PUSH1 0x1F NOT PUSH1 0x1F DUP3 ADD AND DUP3 ADD DUP1 PUSH1 0x40 MSTORE POP DUP2 ADD SWAP1 PUSH2 0x858 SWAP2 SWAP1 PUSH2 0x276A JUMP JUMPDEST SWAP1 POP PUSH1 0x8 SLOAD DUP3 DUP5 PUSH2 0x869 SWAP2 SWAP1 PUSH2 0x27C6 JUMP JUMPDEST PUSH2 0x873 SWAP2 SWAP1 PUSH2 0x2837 JUMP JUMPDEST SWAP5 POP PUSH1 0x8 SLOAD DUP2 DUP5 PUSH2 0x884 SWAP2 SWAP1 PUSH2 0x27C6 JUMP JUMPDEST PUSH2 0x88E SWAP2 SWAP1 PUSH2 0x2837 JUMP JUMPDEST SWAP4 POP PUSH1 0x0 DUP6 GT DUP1 ISZERO PUSH2 0x8A0 JUMPI POP PUSH1 0x1 DUP5 GT JUMPDEST PUSH2 0x8DF JUMPI PUSH1 0x40 MLOAD PUSH32 0x8C379A000000000000000000000000000000000000000000000000000000000 DUP2 MSTORE PUSH1 0x4 ADD PUSH2 0x8D6 SWAP1 PUSH2 0x28C5 JUMP JUMPDEST PUSH1 0x40 MLOAD DUP1 SWAP2 SUB SWAP1 REVERT JUMPDEST PUSH2 0x8E9 CALLER DUP5 PUSH2 0x19A9 JUMP JUMPDEST PUSH1 0x0 DUP1 SLOAD SWAP1 PUSH2 0x100 EXP SWAP1 DIV PUSH20 0xFFFFFFFFFFFFFFFFFFFFFFFFFFFFFFFFFFFFFFFF AND PUSH20 0xFFFFFFFFFFFFFFFFFFFFFFFFFFFFFFFFFFFFFFFF AND PUSH4 0xEC828722 DUP8 ADDRESS PUSH1 0x40 MLOAD DUP4 PUSH4 0xFFFFFFFF AND PUSH1 0xE0 SHL DUP2 MSTORE PUSH1 0x4 ADD PUSH2 0x944 SWAP3 SWAP2 SWAP1 PUSH2 0x28E5 JUMP JUMPDEST PUSH1 0x0 PUSH1 0x40 MLOAD DUP1 DUP4 SUB DUP2 PUSH1 0x0 DUP8 DUP1 EXTCODESIZE ISZERO DUP1 ISZERO PUSH2 0x95E JUMPI PUSH1 0x0 DUP1 REVERT JUMPDEST POP GAS CALL ISZERO DUP1 ISZERO PUSH2 0x972 JUMPI RETURNDATASIZE PUSH1 0x0 DUP1 RETURNDATACOPY RETURNDATASIZE PUSH1 0x0 REVERT JUMPDEST POP POP POP POP PUSH2 0x9B0 PUSH1 0x5 SLOAD DUP7 DUP5 PUSH2 0x988 SWAP2 SWAP1 PUSH2 0x290E JUMP JUMPDEST PUSH2 0x992 SWAP2 SWAP1 PUSH2 0x290E JUMP JUMPDEST PUSH1 0x6 SLOAD DUP7 DUP5 PUSH2 0x9A1 SWAP2 SWAP1 PUSH2 0x290E JUMP JUMPDEST PUSH2 0x9AB SWAP2 SWAP1 PUSH2 0x290E JUMP JUMPDEST PUSH2 0x1A1C JUMP JUMPDEST PUSH32 0x0 PUSH20 0xFFFFFFFFFFFFFFFFFFFFFFFFFFFFFFFFFFFFFFFF AND PUSH4 0xA9059CBB CALLER DUP8 PUSH1 0x40 MLOAD DUP4 PUSH4 0xFFFFFFFF AND PUSH1 0xE0 SHL DUP2 MSTORE PUSH1 0x4 ADD PUSH2 0xA0B SWAP3 SWAP2 SWAP1 PUSH2 0x2942 JUMP JUMPDEST PUSH1 0x20 PUSH1 0x40 MLOAD DUP1 DUP4 SUB DUP2 PUSH1 0x0 DUP8 GAS CALL ISZERO DUP1 ISZERO PUSH2 0xA2A JUMPI RETURNDATASIZE PUSH1 0x0 DUP1 RETURNDATACOPY RETURNDATASIZE PUSH1 0x0 REVERT JUMPDEST POP POP POP POP PUSH1 0x40 MLOAD RETURNDATASIZE PUSH1 0x1F NOT PUSH1 0x1F DUP3 ADD AND DUP3 ADD DUP1 PUSH1 0x40 MSTORE POP DUP2 ADD SWAP1 PUSH2 0xA4E SWAP2 SWAP1 PUSH2 0x2997 JUMP JUMPDEST POP PUSH32 0x0 PUSH20 0xFFFFFFFFFFFFFFFFFFFFFFFFFFFFFFFFFFFFFFFF AND PUSH4 0xA9059CBB CALLER DUP7 PUSH1 0x40 MLOAD DUP4 PUSH4 0xFFFFFFFF AND PUSH1 0xE0 SHL DUP2 MSTORE PUSH1 0x4 ADD PUSH2 0xAAA SWAP3 SWAP2 SWAP1 PUSH2 0x2942 JUMP JUMPDEST PUSH1 0x20 PUSH1 0x40 MLOAD DUP1 DUP4 SUB DUP2 PUSH1 0x0 DUP8 GAS CALL ISZERO DUP1 ISZERO PUSH2 0xAC9 JUMPI RETURNDATASIZE PUSH1 0x0 DUP1 RETURNDATACOPY RETURNDATASIZE PUSH1 0x0 REVERT JUMPDEST POP POP POP POP PUSH1 0x40 MLOAD RETURNDATASIZE PUSH1 0x1F NOT PUSH1 0x1F DUP3 ADD AND DUP3 ADD DUP1 PUSH1 0x40 MSTORE POP DUP2 ADD SWAP1 PUSH2 0xAED SWAP2 SWAP1 PUSH2 0x2997 JUMP JUMPDEST POP POP POP POP SWAP2 POP SWAP2 JUMP JUMPDEST PUSH1 0x0 PUSH32 0x0 PUSH20 0xFFFFFFFFFFFFFFFFFFFFFFFFFFFFFFFFFFFFFFFF AND PUSH4 0x23B872DD CALLER ADDRESS DUP7 PUSH1 0x40 MLOAD DUP5 PUSH4 0xFFFFFFFF AND PUSH1 0xE0 SHL DUP2 MSTORE PUSH1 0x4 ADD PUSH2 0xB55 SWAP4 SWAP3 SWAP2 SWAP1 PUSH2 0x257C JUMP JUMPDEST PUSH1 0x20 PUSH1 0x40 MLOAD DUP1 DUP4 SUB DUP2 PUSH1 0x0 DUP8 GAS CALL ISZERO DUP1 ISZERO PUSH2 0xB74 JUMPI RETURNDATASIZE PUSH1 0x0 DUP1 RETURNDATACOPY RETURNDATASIZE PUSH1 0x0 REVERT JUMPDEST POP POP POP POP PUSH1 0x40 MLOAD RETURNDATASIZE PUSH1 0x1F NOT PUSH1 0x1F DUP3 ADD AND DUP3 ADD DUP1 PUSH1 0x40 MSTORE POP DUP2 ADD SWAP1 PUSH2 0xB98 SWAP2 SWAP1 PUSH2 0x2997 JUMP JUMPDEST POP PUSH32 0x0 PUSH20 0xFFFFFFFFFFFFFFFFFFFFFFFFFFFFFFFFFFFFFFFF AND PUSH4 0x23B872DD CALLER ADDRESS DUP6 PUSH1 0x40 MLOAD DUP5 PUSH4 0xFFFFFFFF AND PUSH1 0xE0 SHL DUP2 MSTORE PUSH1 0x4 ADD PUSH2 0xBF6 SWAP4 SWAP3 SWAP2 SWAP1 PUSH2 0x257C JUMP JUMPDEST PUSH1 0x20 PUSH1 0x40 MLOAD DUP1 DUP4 SUB DUP2 PUSH1 0x0 DUP8 GAS CALL ISZERO DUP1 ISZERO PUSH2 0xC15 JUMPI RETURNDATASIZE PUSH1 0x0 DUP1 RETURNDATACOPY RETURNDATASIZE PUSH1 0x0 REVERT JUMPDEST POP POP POP POP PUSH1 0x40 MLOAD RETURNDATASIZE PUSH1 0x1F NOT PUSH1 0x1F DUP3 ADD AND DUP3 ADD DUP1 PUSH1 0x40 MSTORE POP DUP2 ADD SWAP1 PUSH2 0xC39 SWAP2 SWAP1 PUSH2 0x2997 JUMP JUMPDEST POP PUSH1 0x0 PUSH1 0x2 SLOAD GT DUP1 PUSH2 0xC4D JUMPI POP PUSH1 0x0 PUSH1 0x3 SLOAD GT JUMPDEST ISZERO PUSH2 0xCD5 JUMPI PUSH1 0x0 PUSH1 0x5 SLOAD PUSH1 0x2 SLOAD PUSH2 0xC64 SWAP2 SWAP1 PUSH2 0x290E JUMP JUMPDEST SWAP1 POP PUSH1 0x0 PUSH1 0x6 SLOAD PUSH1 0x3 SLOAD PUSH2 0xC78 SWAP2 SWAP1 PUSH2 0x290E JUMP JUMPDEST SWAP1 POP DUP2 DUP6 DUP3 PUSH2 0xC87 SWAP2 SWAP1 PUSH2 0x27C6 JUMP JUMPDEST PUSH2 0xC91 SWAP2 SWAP1 PUSH2 0x2837 JUMP JUMPDEST DUP5 EQ PUSH2 0xCD2 JUMPI PUSH1 0x40 MLOAD PUSH32 0x8C379A000000000000000000000000000000000000000000000000000000000 DUP2 MSTORE PUSH1 0x4 ADD PUSH2 0xCC9 SWAP1 PUSH2 0x2A10 JUMP JUMPDEST PUSH1 0x40 MLOAD DUP1 SWAP2 SUB SWAP1 REVERT JUMPDEST POP POP JUMPDEST PUSH1 0x0 PUSH1 0x8 SLOAD SUB PUSH2 0xCFA JUMPI PUSH2 0xCF3 DUP3 DUP5 PUSH2 0xCEE SWAP2 SWAP1 PUSH2 0x27C6 JUMP JUMPDEST PUSH2 0x1A2E JUMP JUMPDEST SWAP1 POP PUSH2 0xD3B JUMP JUMPDEST PUSH2 0xD38 PUSH1 0x2 SLOAD PUSH1 0x8 SLOAD DUP6 PUSH2 0xD0E SWAP2 SWAP1 PUSH2 0x27C6 JUMP JUMPDEST PUSH2 0xD18 SWAP2 SWAP1 PUSH2 0x2837 JUMP JUMPDEST PUSH1 0x3 SLOAD PUSH1 0x8 SLOAD DUP6 PUSH2 0xD29 SWAP2 SWAP1 PUSH2 0x27C6 JUMP JUMPDEST PUSH2 0xD33 SWAP2 SWAP1 PUSH2 0x2837 JUMP JUMPDEST PUSH2 0x1AA8 JUMP JUMPDEST SWAP1 POP JUMPDEST PUSH1 0x0 DUP2 GT PUSH2 0xD7E JUMPI PUSH1 0x40 MLOAD PUSH32 0x8C379A000000000000000000000000000000000000000000000000000000000 DUP2 MSTORE PUSH1 0x4 ADD PUSH2 0xD75 SWAP1 PUSH2 0x2A7C JUMP JUMPDEST PUSH1 0x40 MLOAD DUP1 SWAP2 SUB SWAP1 REVERT JUMPDEST PUSH2 0xD88 CALLER DUP3 PUSH2 0x1AC2 JUMP JUMPDEST PUSH1 0x0 DUP1 SLOAD SWAP1 PUSH2 0x100 EXP SWAP1 DIV PUSH20 0xFFFFFFFFFFFFFFFFFFFFFFFFFFFFFFFFFFFFFFFF AND PUSH20 0xFFFFFFFFFFFFFFFFFFFFFFFFFFFFFFFFFFFFFFFF AND PUSH4 0x91CDA3E7 CALLER PUSH1 0x0 DUP1 SLOAD SWAP1 PUSH2 0x100 EXP SWAP1 DIV PUSH20 0xFFFFFFFFFFFFFFFFFFFFFFFFFFFFFFFFFFFFFFFF AND PUSH20 0xFFFFFFFFFFFFFFFFFFFFFFFFFFFFFFFFFFFFFFFF AND PUSH4 0x8B217878 DUP6 CALLER PUSH32 0x0 PUSH32 0x0 PUSH1 0x4 SLOAD DUP13 DUP13 PUSH1 0x40 MLOAD DUP9 PUSH4 0xFFFFFFFF AND PUSH1 0xE0 SHL DUP2 MSTORE PUSH1 0x4 ADD PUSH2 0xE6C SWAP8 SWAP7 SWAP6 SWAP5 SWAP4 SWAP3 SWAP2 SWAP1 PUSH2 0x2A9C JUMP JUMPDEST PUSH1 0xE0 PUSH1 0x40 MLOAD DUP1 DUP4 SUB DUP2 DUP7 GAS STATICCALL ISZERO DUP1 ISZERO PUSH2 0xE89 JUMPI RETURNDATASIZE PUSH1 0x0 DUP1 RETURNDATACOPY RETURNDATASIZE PUSH1 0x0 REVERT JUMPDEST POP POP POP POP PUSH1 0x40 MLOAD RETURNDATASIZE PUSH1 0x1F NOT PUSH1 0x1F DUP3 ADD AND DUP3 ADD DUP1 PUSH1 0x40 MSTORE POP DUP2 ADD SWAP1 PUSH2 0xEAD SWAP2 SWAP1 PUSH2 0x2722 JUMP JUMPDEST PUSH1 0x40 MLOAD DUP4 PUSH4 0xFFFFFFFF AND PUSH1 0xE0 SHL DUP2 MSTORE PUSH1 0x4 ADD PUSH2 0xECA SWAP3 SWAP2 SWAP1 PUSH2 0x2BB7 JUMP JUMPDEST PUSH1 0x0 PUSH1 0x40 MLOAD DUP1 DUP4 SUB DUP2 PUSH1 0x0 DUP8 DUP1 EXTCODESIZE ISZERO DUP1 ISZERO PUSH2 0xEE4 JUMPI PUSH1 0x0 DUP1 REVERT JUMPDEST POP GAS CALL ISZERO DUP1 ISZERO PUSH2 0xEF8 JUMPI RETURNDATASIZE PUSH1 0x0 DUP1 RETURNDATACOPY RETURNDATASIZE PUSH1 0x0 REVERT JUMPDEST POP POP POP POP PUSH2 0x1052 PUSH1 0x5 SLOAD PUSH32 0x0 PUSH20 0xFFFFFFFFFFFFFFFFFFFFFFFFFFFFFFFFFFFFFFFF AND PUSH4 0x70A08231 ADDRESS PUSH1 0x40 MLOAD DUP3 PUSH4 0xFFFFFFFF AND PUSH1 0xE0 SHL DUP2 MSTORE PUSH1 0x4 ADD PUSH2 0xF5B SWAP2 SWAP1 PUSH2 0x274F JUMP JUMPDEST PUSH1 0x20 PUSH1 0x40 MLOAD DUP1 DUP4 SUB DUP2 DUP7 GAS STATICCALL ISZERO DUP1 ISZERO PUSH2 0xF78 JUMPI RETURNDATASIZE PUSH1 0x0 DUP1 RETURNDATACOPY RETURNDATASIZE PUSH1 0x0 REVERT JUMPDEST POP POP POP POP PUSH1 0x40 MLOAD RETURNDATASIZE PUSH1 0x1F NOT PUSH1 0x1F DUP3 ADD AND DUP3 ADD DUP1 PUSH1 0x40 MSTORE POP DUP2 ADD SWAP1 PUSH2 0xF9C SWAP2 SWAP1 PUSH2 0x276A JUMP JUMPDEST PUSH2 0xFA6 SWAP2 SWAP1 PUSH2 0x290E JUMP JUMPDEST PUSH1 0x6 SLOAD PUSH32 0x0 PUSH20 0xFFFFFFFFFFFFFFFFFFFFFFFFFFFFFFFFFFFFFFFF AND PUSH4 0x70A08231 ADDRESS PUSH1 0x40 MLOAD DUP3 PUSH4 0xFFFFFFFF AND PUSH1 0xE0 SHL DUP2 MSTORE PUSH1 0x4 ADD PUSH2 0x1002 SWAP2 SWAP1 PUSH2 0x274F JUMP JUMPDEST PUSH1 0x20 PUSH1 0x40 MLOAD DUP1 DUP4 SUB DUP2 DUP7 GAS STATICCALL ISZERO DUP1 ISZERO PUSH2 0x101F JUMPI RETURNDATASIZE PUSH1 0x0 DUP1 RETURNDATACOPY RETURNDATASIZE PUSH1 0x0 REVERT JUMPDEST POP POP POP POP PUSH1 0x40 MLOAD RETURNDATASIZE PUSH1 0x1F NOT PUSH1 0x1F DUP3 ADD AND DUP3 ADD DUP1 PUSH1 0x40 MSTORE POP DUP2 ADD SWAP1 PUSH2 0x1043 SWAP2 SWAP1 PUSH2 0x276A JUMP JUMPDEST PUSH2 0x104D SWAP2 SWAP1 PUSH2 0x290E JUMP JUMPDEST PUSH2 0x1A1C JUMP JUMPDEST SWAP3 SWAP2 POP POP JUMP JUMPDEST PUSH1 0x7 PUSH1 0x0 SWAP1 SLOAD SWAP1 PUSH2 0x100 EXP SWAP1 DIV PUSH16 0xFFFFFFFFFFFFFFFFFFFFFFFFFFFFFFFF AND DUP2 JUMP JUMPDEST PUSH1 0x0 PUSH32 0x0 PUSH20 0xFFFFFFFFFFFFFFFFFFFFFFFFFFFFFFFFFFFFFFFF AND DUP4 PUSH20 0xFFFFFFFFFFFFFFFFFFFFFFFFFFFFFFFFFFFFFFFF AND EQ DUP1 PUSH2 0x1121 JUMPI POP PUSH32 0x0 PUSH20 0xFFFFFFFFFFFFFFFFFFFFFFFFFFFFFFFFFFFFFFFF AND DUP4 PUSH20 0xFFFFFFFFFFFFFFFFFFFFFFFFFFFFFFFFFFFFFFFF AND EQ JUMPDEST PUSH2 0x1160 JUMPI PUSH1 0x40 MLOAD PUSH32 0x8C379A000000000000000000000000000000000000000000000000000000000 DUP2 MSTORE PUSH1 0x4 ADD PUSH2 0x1157 SWAP1 PUSH2 0x2C2D JUMP JUMPDEST PUSH1 0x40 MLOAD DUP1 SWAP2 SUB SWAP1 REVERT JUMPDEST PUSH1 0x0 DUP3 GT PUSH2 0x11A3 JUMPI PUSH1 0x40 MLOAD PUSH32 0x8C379A000000000000000000000000000000000000000000000000000000000 DUP2 MSTORE PUSH1 0x4 ADD PUSH2 0x119A SWAP1 PUSH2 0x2C99 JUMP JUMPDEST PUSH1 0x40 MLOAD DUP1 SWAP2 SUB SWAP1 REVERT JUMPDEST PUSH1 0x0 PUSH32 0x0 PUSH20 0xFFFFFFFFFFFFFFFFFFFFFFFFFFFFFFFFFFFFFFFF AND DUP5 PUSH20 0xFFFFFFFFFFFFFFFFFFFFFFFFFFFFFFFFFFFFFFFF AND EQ SWAP1 POP PUSH1 0x0 DUP1 PUSH1 0x0 DUP1 DUP5 PUSH2 0x124E JUMPI PUSH32 0x0 PUSH32 0x0 PUSH1 0x3 SLOAD PUSH1 0x2 SLOAD PUSH2 0x1297 JUMP JUMPDEST PUSH32 0x0 PUSH32 0x0 PUSH1 0x2 SLOAD PUSH1 0x3 SLOAD JUMPDEST SWAP4 POP SWAP4 POP SWAP4 POP SWAP4 POP DUP4 PUSH20 0xFFFFFFFFFFFFFFFFFFFFFFFFFFFFFFFFFFFFFFFF AND PUSH4 0x23B872DD CALLER ADDRESS DUP11 PUSH1 0x40 MLOAD DUP5 PUSH4 0xFFFFFFFF AND PUSH1 0xE0 SHL DUP2 MSTORE PUSH1 0x4 ADD PUSH2 0x12DC SWAP4 SWAP3 SWAP2 SWAP1 PUSH2 0x257C JUMP JUMPDEST PUSH1 0x20 PUSH1 0x40 MLOAD DUP1 DUP4 SUB DUP2 PUSH1 0x0 DUP8 GAS CALL ISZERO DUP1 ISZERO PUSH2 0x12FB JUMPI RETURNDATASIZE PUSH1 0x0 DUP1 RETURNDATACOPY RETURNDATASIZE PUSH1 0x0 REVERT JUMPDEST POP POP POP POP PUSH1 0x40 MLOAD RETURNDATASIZE PUSH1 0x1F NOT PUSH1 0x1F DUP3 ADD AND DUP3 ADD DUP1 PUSH1 0x40 MSTORE POP DUP2 ADD SWAP1 PUSH2 0x131F SWAP2 SWAP1 PUSH2 0x2997 JUMP JUMPDEST POP PUSH1 0x0 PUSH2 0x3E8 PUSH1 0x4 SLOAD PUSH2 0x3E8 PUSH2 0x1335 SWAP2 SWAP1 PUSH2 0x290E JUMP JUMPDEST DUP10 PUSH2 0x1340 SWAP2 SWAP1 PUSH2 0x27C6 JUMP JUMPDEST PUSH2 0x134A SWAP2 SWAP1 PUSH2 0x2837 JUMP JUMPDEST SWAP1 POP DUP6 ISZERO PUSH2 0x138A JUMPI PUSH2 0x3E8 PUSH1 0x4 SLOAD DUP10 PUSH2 0x1363 SWAP2 SWAP1 PUSH2 0x27C6 JUMP JUMPDEST PUSH2 0x136D SWAP2 SWAP1 PUSH2 0x2837 JUMP JUMPDEST PUSH1 0x5 PUSH1 0x0 DUP3 DUP3 SLOAD PUSH2 0x137E SWAP2 SWAP1 PUSH2 0x2CB9 JUMP JUMPDEST SWAP3 POP POP DUP2 SWAP1 SSTORE POP PUSH2 0x13BE JUMP JUMPDEST PUSH2 0x3E8 PUSH1 0x4 SLOAD DUP10 PUSH2 0x139B SWAP2 SWAP1 PUSH2 0x27C6 JUMP JUMPDEST PUSH2 0x13A5 SWAP2 SWAP1 PUSH2 0x2837 JUMP JUMPDEST PUSH1 0x6 PUSH1 0x0 DUP3 DUP3 SLOAD PUSH2 0x13B6 SWAP2 SWAP1 PUSH2 0x2CB9 JUMP JUMPDEST SWAP3 POP POP DUP2 SWAP1 SSTORE POP JUMPDEST DUP1 DUP4 PUSH2 0x13CA SWAP2 SWAP1 PUSH2 0x2CB9 JUMP JUMPDEST DUP2 DUP4 PUSH2 0x13D6 SWAP2 SWAP1 PUSH2 0x27C6 JUMP JUMPDEST PUSH2 0x13E0 SWAP2 SWAP1 PUSH2 0x2837 JUMP JUMPDEST SWAP7 POP DUP4 PUSH20 0xFFFFFFFFFFFFFFFFFFFFFFFFFFFFFFFFFFFFFFFF AND PUSH4 0xA9059CBB CALLER DUP10 PUSH1 0x40 MLOAD DUP4 PUSH4 0xFFFFFFFF AND PUSH1 0xE0 SHL DUP2 MSTORE PUSH1 0x4 ADD PUSH2 0x141D SWAP3 SWAP2 SWAP1 PUSH2 0x2942 JUMP JUMPDEST PUSH1 0x20 PUSH1 0x40 MLOAD DUP1 DUP4 SUB DUP2 PUSH1 0x0 DUP8 GAS CALL ISZERO DUP1 ISZERO PUSH2 0x143C JUMPI RETURNDATASIZE PUSH1 0x0 DUP1 RETURNDATACOPY RETURNDATASIZE PUSH1 0x0 REVERT JUMPDEST POP POP POP POP PUSH1 0x40 MLOAD RETURNDATASIZE PUSH1 0x1F NOT PUSH1 0x1F DUP3 ADD AND DUP3 ADD DUP1 PUSH1 0x40 MSTORE POP DUP2 ADD SWAP1 PUSH2 0x1460 SWAP2 SWAP1 PUSH2 0x2997 JUMP JUMPDEST POP PUSH2 0x15B7 PUSH1 0x5 SLOAD PUSH32 0x0 PUSH20 0xFFFFFFFFFFFFFFFFFFFFFFFFFFFFFFFFFFFFFFFF AND PUSH4 0x70A08231 ADDRESS PUSH1 0x40 MLOAD DUP3 PUSH4 0xFFFFFFFF AND PUSH1 0xE0 SHL DUP2 MSTORE PUSH1 0x4 ADD PUSH2 0x14C0 SWAP2 SWAP1 PUSH2 0x274F JUMP JUMPDEST PUSH1 0x20 PUSH1 0x40 MLOAD DUP1 DUP4 SUB DUP2 DUP7 GAS STATICCALL ISZERO DUP1 ISZERO PUSH2 0x14DD JUMPI RETURNDATASIZE PUSH1 0x0 DUP1 RETURNDATACOPY RETURNDATASIZE PUSH1 0x0 REVERT JUMPDEST POP POP POP POP PUSH1 0x40 MLOAD RETURNDATASIZE PUSH1 0x1F NOT PUSH1 0x1F DUP3 ADD AND DUP3 ADD DUP1 PUSH1 0x40 MSTORE POP DUP2 ADD SWAP1 PUSH2 0x1501 SWAP2 SWAP1 PUSH2 0x276A JUMP JUMPDEST PUSH2 0x150B SWAP2 SWAP1 PUSH2 0x290E JUMP JUMPDEST PUSH1 0x6 SLOAD PUSH32 0x0 PUSH20 0xFFFFFFFFFFFFFFFFFFFFFFFFFFFFFFFFFFFFFFFF AND PUSH4 0x70A08231 ADDRESS PUSH1 0x40 MLOAD DUP3 PUSH4 0xFFFFFFFF AND PUSH1 0xE0 SHL DUP2 MSTORE PUSH1 0x4 ADD PUSH2 0x1567 SWAP2 SWAP1 PUSH2 0x274F JUMP JUMPDEST PUSH1 0x20 PUSH1 0x40 MLOAD DUP1 DUP4 SUB DUP2 DUP7 GAS STATICCALL ISZERO DUP1 ISZERO PUSH2 0x1584 JUMPI RETURNDATASIZE PUSH1 0x0 DUP1 RETURNDATACOPY RETURNDATASIZE PUSH1 0x0 REVERT JUMPDEST POP POP POP POP PUSH1 0x40 MLOAD RETURNDATASIZE PUSH1 0x1F NOT PUSH1 0x1F DUP3 ADD AND DUP3 ADD DUP1 PUSH1 0x40 MSTORE POP DUP2 ADD SWAP1 PUSH2 0x15A8 SWAP2 SWAP1 PUSH2 0x276A JUMP JUMPDEST PUSH2 0x15B2 SWAP2 SWAP1 PUSH2 0x290E JUMP JUMPDEST PUSH2 0x1A1C JUMP JUMPDEST POP POP POP POP POP POP SWAP3 SWAP2 POP POP JUMP JUMPDEST PUSH32 0x0 DUP2 JUMP JUMPDEST PUSH1 0x4 SLOAD DUP2 JUMP JUMPDEST PUSH1 0x0 DUP1 PUSH1 0x0 DUP1 PUSH2 0x15FD DUP6 DUP8 PUSH2 0x1673 JUMP JUMPDEST SWAP3 POP SWAP3 POP SWAP3 POP PUSH1 0x0 PUSH2 0x1610 DUP5 DUP4 DUP11 PUSH2 0x1B35 JUMP JUMPDEST SWAP1 POP PUSH1 0x0 PUSH2 0x161F DUP4 DUP6 DUP5 PUSH2 0x1BC0 JUMP JUMPDEST SWAP1 POP DUP1 SWAP6 POP POP POP POP POP POP SWAP4 SWAP3 POP POP POP JUMP JUMPDEST PUSH1 0x0 DUP1 PUSH1 0x0 DUP1 PUSH2 0x1640 DUP6 DUP8 PUSH2 0x1673 JUMP JUMPDEST SWAP3 POP SWAP3 POP SWAP3 POP PUSH1 0x0 PUSH2 0x1653 DUP3 DUP5 DUP11 PUSH2 0x1C86 JUMP JUMPDEST SWAP1 POP PUSH1 0x0 PUSH2 0x1662 DUP6 DUP5 DUP5 PUSH2 0x1D4D JUMP JUMPDEST SWAP1 POP DUP1 SWAP6 POP POP POP POP POP POP SWAP4 SWAP3 POP POP POP JUMP JUMPDEST PUSH1 0x0 DUP1 PUSH1 0x0 PUSH20 0x0 PUSH4 0xB3E30051 DUP7 PUSH1 0x40 MLOAD DUP3 PUSH4 0xFFFFFFFF AND PUSH1 0xE0 SHL DUP2 MSTORE PUSH1 0x4 ADD PUSH2 0x16AF SWAP2 SWAP1 PUSH2 0x2CFC JUMP JUMPDEST PUSH1 0x20 PUSH1 0x40 MLOAD DUP1 DUP4 SUB DUP2 DUP7 GAS DELEGATECALL ISZERO DUP1 ISZERO PUSH2 0x16CC JUMPI RETURNDATASIZE PUSH1 0x0 DUP1 RETURNDATACOPY RETURNDATASIZE PUSH1 0x0 REVERT JUMPDEST POP POP POP POP PUSH1 0x40 MLOAD RETURNDATASIZE PUSH1 0x1F NOT PUSH1 0x1F DUP3 ADD AND DUP3 ADD DUP1 PUSH1 0x40 MSTORE POP DUP2 ADD SWAP1 PUSH2 0x16F0 SWAP2 SWAP1 PUSH2 0x2D43 JUMP JUMPDEST SWAP3 POP PUSH20 0x0 PUSH4 0xB3E30051 DUP6 PUSH1 0x40 MLOAD DUP3 PUSH4 0xFFFFFFFF AND PUSH1 0xE0 SHL DUP2 MSTORE PUSH1 0x4 ADD PUSH2 0x1729 SWAP2 SWAP1 PUSH2 0x2CFC JUMP JUMPDEST PUSH1 0x20 PUSH1 0x40 MLOAD DUP1 DUP4 SUB DUP2 DUP7 GAS DELEGATECALL ISZERO DUP1 ISZERO PUSH2 0x1746 JUMPI RETURNDATASIZE PUSH1 0x0 DUP1 RETURNDATACOPY RETURNDATASIZE PUSH1 0x0 REVERT JUMPDEST POP POP POP POP PUSH1 0x40 MLOAD RETURNDATASIZE PUSH1 0x1F NOT PUSH1 0x1F DUP3 ADD AND DUP3 ADD DUP1 PUSH1 0x40 MSTORE POP DUP2 ADD SWAP1 PUSH2 0x176A SWAP2 SWAP1 PUSH2 0x2D43 JUMP JUMPDEST SWAP2 POP PUSH20 0x0 PUSH4 0xB3E30051 PUSH1 0x1 PUSH1 0x0 SWAP1 SLOAD SWAP1 PUSH2 0x100 EXP SWAP1 DIV PUSH20 0xFFFFFFFFFFFFFFFFFFFFFFFFFFFFFFFFFFFFFFFF AND PUSH20 0xFFFFFFFFFFFFFFFFFFFFFFFFFFFFFFFFFFFFFFFF AND PUSH4 0x1FAA9C14 PUSH1 0x40 MLOAD DUP2 PUSH4 0xFFFFFFFF AND PUSH1 0xE0 SHL DUP2 MSTORE PUSH1 0x4 ADD PUSH1 0x20 PUSH1 0x40 MLOAD DUP1 DUP4 SUB DUP2 DUP7 GAS STATICCALL ISZERO DUP1 ISZERO PUSH2 0x17F3 JUMPI RETURNDATASIZE PUSH1 0x0 DUP1 RETURNDATACOPY RETURNDATASIZE PUSH1 0x0 REVERT JUMPDEST POP POP POP POP PUSH1 0x40 MLOAD RETURNDATASIZE PUSH1 0x1F NOT PUSH1 0x1F DUP3 ADD AND DUP3 ADD DUP1 PUSH1 0x40 MSTORE POP DUP2 ADD SWAP1 PUSH2 0x1817 SWAP2 SWAP1 PUSH2 0x2D85 JUMP JUMPDEST PUSH1 0x40 MLOAD DUP3 PUSH4 0xFFFFFFFF AND PUSH1 0xE0 SHL DUP2 MSTORE PUSH1 0x4 ADD PUSH2 0x1833 SWAP2 SWAP1 PUSH2 0x2CFC JUMP JUMPDEST PUSH1 0x20 PUSH1 0x40 MLOAD DUP1 DUP4 SUB DUP2 DUP7 GAS DELEGATECALL ISZERO DUP1 ISZERO PUSH2 0x1850 JUMPI RETURNDATASIZE PUSH1 0x0 DUP1 RETURNDATACOPY RETURNDATASIZE PUSH1 0x0 REVERT JUMPDEST POP POP POP POP PUSH1 0x40 MLOAD RETURNDATASIZE PUSH1 0x1F NOT PUSH1 0x1F DUP3 ADD AND DUP3 ADD DUP1 PUSH1 0x40 MSTORE POP DUP2 ADD SWAP1 PUSH2 0x1874 SWAP2 SWAP1 PUSH2 0x2D43 JUMP JUMPDEST SWAP1 POP SWAP3 POP SWAP3 POP SWAP3 JUMP JUMPDEST PUSH1 0x0 DUP4 PUSH20 0xFFFFFFFFFFFFFFFFFFFFFFFFFFFFFFFFFFFFFFFF AND DUP6 PUSH20 0xFFFFFFFFFFFFFFFFFFFFFFFFFFFFFFFFFFFFFFFF AND GT ISZERO PUSH2 0x18BE JUMPI DUP4 DUP6 DUP1 SWAP6 POP DUP2 SWAP7 POP POP POP JUMPDEST DUP5 PUSH20 0xFFFFFFFFFFFFFFFFFFFFFFFFFFFFFFFFFFFFFFFF AND DUP7 PUSH20 0xFFFFFFFFFFFFFFFFFFFFFFFFFFFFFFFFFFFFFFFF AND GT PUSH2 0x1903 JUMPI PUSH2 0x18FC DUP6 DUP6 DUP6 PUSH2 0x1C86 JUMP JUMPDEST SWAP1 POP PUSH2 0x19A0 JUMP JUMPDEST DUP4 PUSH20 0xFFFFFFFFFFFFFFFFFFFFFFFFFFFFFFFFFFFFFFFF AND DUP7 PUSH20 0xFFFFFFFFFFFFFFFFFFFFFFFFFFFFFFFFFFFFFFFF AND LT ISZERO PUSH2 0x1991 JUMPI PUSH1 0x0 PUSH2 0x1944 DUP8 DUP7 DUP7 PUSH2 0x1C86 JUMP JUMPDEST SWAP1 POP PUSH1 0x0 PUSH2 0x1953 DUP8 DUP10 DUP7 PUSH2 0x1B35 JUMP JUMPDEST SWAP1 POP DUP1 PUSH16 0xFFFFFFFFFFFFFFFFFFFFFFFFFFFFFFFF AND DUP3 PUSH16 0xFFFFFFFFFFFFFFFFFFFFFFFFFFFFFFFF AND LT PUSH2 0x1986 JUMPI DUP1 PUSH2 0x1988 JUMP JUMPDEST DUP2 JUMPDEST SWAP3 POP POP POP PUSH2 0x199F JUMP JUMPDEST PUSH2 0x199C DUP6 DUP6 DUP5 PUSH2 0x1B35 JUMP JUMPDEST SWAP1 POP JUMPDEST JUMPDEST SWAP6 SWAP5 POP POP POP POP POP JUMP JUMPDEST DUP1 PUSH1 0x9 PUSH1 0x0 DUP5 PUSH20 0xFFFFFFFFFFFFFFFFFFFFFFFFFFFFFFFFFFFFFFFF AND PUSH20 0xFFFFFFFFFFFFFFFFFFFFFFFFFFFFFFFFFFFFFFFF AND DUP2 MSTORE PUSH1 0x20 ADD SWAP1 DUP2 MSTORE PUSH1 0x20 ADD PUSH1 0x0 KECCAK256 PUSH1 0x0 DUP3 DUP3 SLOAD PUSH2 0x19F8 SWAP2 SWAP1 PUSH2 0x290E JUMP JUMPDEST SWAP3 POP POP DUP2 SWAP1 SSTORE POP DUP1 PUSH1 0x8 PUSH1 0x0 DUP3 DUP3 SLOAD PUSH2 0x1A11 SWAP2 SWAP1 PUSH2 0x290E JUMP JUMPDEST SWAP3 POP POP DUP2 SWAP1 SSTORE POP POP POP JUMP JUMPDEST DUP2 PUSH1 0x2 DUP2 SWAP1 SSTORE POP DUP1 PUSH1 0x3 DUP2 SWAP1 SSTORE POP POP POP JUMP JUMPDEST PUSH1 0x0 PUSH1 0x3 DUP3 GT ISZERO PUSH2 0x1A95 JUMPI DUP2 SWAP1 POP PUSH1 0x0 PUSH1 0x1 PUSH1 0x2 DUP5 PUSH2 0x1A4D SWAP2 SWAP1 PUSH2 0x2837 JUMP JUMPDEST PUSH2 0x1A57 SWAP2 SWAP1 PUSH2 0x2CB9 JUMP JUMPDEST SWAP1 POP JUMPDEST DUP2 DUP2 LT ISZERO PUSH2 0x1A8F JUMPI DUP1 SWAP2 POP PUSH1 0x2 DUP2 DUP3 DUP6 PUSH2 0x1A74 SWAP2 SWAP1 PUSH2 0x2837 JUMP JUMPDEST PUSH2 0x1A7E SWAP2 SWAP1 PUSH2 0x2CB9 JUMP JUMPDEST PUSH2 0x1A88 SWAP2 SWAP1 PUSH2 0x2837 JUMP JUMPDEST SWAP1 POP PUSH2 0x1A5A JUMP JUMPDEST POP PUSH2 0x1AA3 JUMP JUMPDEST PUSH1 0x0 DUP3 EQ PUSH2 0x1AA2 JUMPI PUSH1 0x1 SWAP1 POP JUMPDEST JUMPDEST SWAP2 SWAP1 POP JUMP JUMPDEST PUSH1 0x0 DUP2 DUP4 GT ISZERO PUSH2 0x1AB8 JUMPI DUP2 PUSH2 0x1ABA JUMP JUMPDEST DUP3 JUMPDEST SWAP1 POP SWAP3 SWAP2 POP POP JUMP JUMPDEST DUP1 PUSH1 0x9 PUSH1 0x0 DUP5 PUSH20 0xFFFFFFFFFFFFFFFFFFFFFFFFFFFFFFFFFFFFFFFF AND PUSH20 0xFFFFFFFFFFFFFFFFFFFFFFFFFFFFFFFFFFFFFFFF AND DUP2 MSTORE PUSH1 0x20 ADD SWAP1 DUP2 MSTORE PUSH1 0x20 ADD PUSH1 0x0 KECCAK256 PUSH1 0x0 DUP3 DUP3 SLOAD PUSH2 0x1B11 SWAP2 SWAP1 PUSH2 0x2CB9 JUMP JUMPDEST SWAP3 POP POP DUP2 SWAP1 SSTORE POP DUP1 PUSH1 0x8 PUSH1 0x0 DUP3 DUP3 SLOAD PUSH2 0x1B2A SWAP2 SWAP1 PUSH2 0x2CB9 JUMP JUMPDEST SWAP3 POP POP DUP2 SWAP1 SSTORE POP POP POP JUMP JUMPDEST PUSH1 0x0 DUP3 PUSH20 0xFFFFFFFFFFFFFFFFFFFFFFFFFFFFFFFFFFFFFFFF AND DUP5 PUSH20 0xFFFFFFFFFFFFFFFFFFFFFFFFFFFFFFFFFFFFFFFF AND GT ISZERO PUSH2 0x1B76 JUMPI DUP3 DUP5 DUP1 SWAP5 POP DUP2 SWAP6 POP POP POP JUMPDEST PUSH2 0x1BB7 PUSH2 0x1BB2 DUP4 PUSH13 0x1000000000000000000000000 DUP8 DUP8 PUSH2 0x1B97 SWAP2 SWAP1 PUSH2 0x2DB2 JUMP JUMPDEST PUSH20 0xFFFFFFFFFFFFFFFFFFFFFFFFFFFFFFFFFFFFFFFF AND PUSH2 0x1DE2 JUMP JUMPDEST PUSH2 0x1F76 JUMP JUMPDEST SWAP1 POP SWAP4 SWAP3 POP POP POP JUMP JUMPDEST PUSH1 0x0 DUP3 PUSH20 0xFFFFFFFFFFFFFFFFFFFFFFFFFFFFFFFFFFFFFFFF AND DUP5 PUSH20 0xFFFFFFFFFFFFFFFFFFFFFFFFFFFFFFFFFFFFFFFF AND GT ISZERO PUSH2 0x1C01 JUMPI DUP3 DUP5 DUP1 SWAP5 POP DUP2 SWAP6 POP POP POP JUMPDEST DUP4 PUSH20 0xFFFFFFFFFFFFFFFFFFFFFFFFFFFFFFFFFFFFFFFF AND PUSH2 0x1C73 PUSH1 0x60 PUSH1 0xFF AND DUP5 PUSH16 0xFFFFFFFFFFFFFFFFFFFFFFFFFFFFFFFF AND SWAP1 SHL DUP7 DUP7 PUSH2 0x1C41 SWAP2 SWAP1 PUSH2 0x2DB2 JUMP JUMPDEST PUSH20 0xFFFFFFFFFFFFFFFFFFFFFFFFFFFFFFFFFFFFFFFF AND DUP7 PUSH20 0xFFFFFFFFFFFFFFFFFFFFFFFFFFFFFFFFFFFFFFFF AND PUSH2 0x1DE2 JUMP JUMPDEST PUSH2 0x1C7D SWAP2 SWAP1 PUSH2 0x2837 JUMP JUMPDEST SWAP1 POP SWAP4 SWAP3 POP POP POP JUMP JUMPDEST PUSH1 0x0 DUP3 PUSH20 0xFFFFFFFFFFFFFFFFFFFFFFFFFFFFFFFFFFFFFFFF AND DUP5 PUSH20 0xFFFFFFFFFFFFFFFFFFFFFFFFFFFFFFFFFFFFFFFF AND GT ISZERO PUSH2 0x1CC7 JUMPI DUP3 DUP5 DUP1 SWAP5 POP DUP2 SWAP6 POP POP POP JUMPDEST PUSH1 0x0 PUSH2 0x1D0D DUP6 PUSH20 0xFFFFFFFFFFFFFFFFFFFFFFFFFFFFFFFFFFFFFFFF AND DUP6 PUSH20 0xFFFFFFFFFFFFFFFFFFFFFFFFFFFFFFFFFFFFFFFF AND PUSH13 0x1000000000000000000000000 PUSH2 0x1DE2 JUMP JUMPDEST SWAP1 POP PUSH2 0x1D43 PUSH2 0x1D3E DUP5 DUP4 DUP9 DUP9 PUSH2 0x1D23 SWAP2 SWAP1 PUSH2 0x2DB2 JUMP JUMPDEST PUSH20 0xFFFFFFFFFFFFFFFFFFFFFFFFFFFFFFFFFFFFFFFF AND PUSH2 0x1DE2 JUMP JUMPDEST PUSH2 0x1F76 JUMP JUMPDEST SWAP2 POP POP SWAP4 SWAP3 POP POP POP JUMP JUMPDEST PUSH1 0x0 DUP3 PUSH20 0xFFFFFFFFFFFFFFFFFFFFFFFFFFFFFFFFFFFFFFFF AND DUP5 PUSH20 0xFFFFFFFFFFFFFFFFFFFFFFFFFFFFFFFFFFFFFFFF AND GT ISZERO PUSH2 0x1D8E JUMPI DUP3 DUP5 DUP1 SWAP5 POP DUP2 SWAP6 POP POP POP JUMPDEST PUSH2 0x1DD9 DUP3 PUSH16 0xFFFFFFFFFFFFFFFFFFFFFFFFFFFFFFFF AND DUP6 DUP6 PUSH2 0x1DB0 SWAP2 SWAP1 PUSH2 0x2DB2 JUMP JUMPDEST PUSH20 0xFFFFFFFFFFFFFFFFFFFFFFFFFFFFFFFFFFFFFFFF AND PUSH13 0x1000000000000000000000000 PUSH2 0x1DE2 JUMP JUMPDEST SWAP1 POP SWAP4 SWAP3 POP POP POP JUMP JUMPDEST PUSH1 0x0 DUP1 PUSH1 0x0 DUP1 NOT DUP6 DUP8 MULMOD DUP6 DUP8 MUL SWAP3 POP DUP3 DUP2 LT DUP4 DUP3 SUB SUB SWAP2 POP POP PUSH1 0x0 DUP2 SUB PUSH2 0x1E1C JUMPI PUSH1 0x0 DUP5 GT PUSH2 0x1E10 JUMPI PUSH1 0x0 DUP1 REVERT JUMPDEST DUP4 DUP3 DIV SWAP3 POP POP POP PUSH2 0x1F6F JUMP JUMPDEST DUP1 DUP5 GT PUSH2 0x1E28 JUMPI PUSH1 0x0 DUP1 REVERT JUMPDEST PUSH1 0x0 DUP5 DUP7 DUP9 MULMOD SWAP1 POP DUP3 DUP2 GT DUP3 SUB SWAP2 POP DUP1 DUP4 SUB SWAP3 POP PUSH1 0x0 DUP6 DUP7 NOT AND SWAP1 POP DUP1 DUP7 DIV SWAP6 POP DUP1 DUP5 DIV SWAP4 POP PUSH1 0x1 DUP2 DUP3 PUSH1 0x0 SUB DIV ADD SWAP1 POP DUP1 DUP4 PUSH2 0x1E65 SWAP2 SWAP1 PUSH2 0x27C6 JUMP JUMPDEST DUP5 OR SWAP4 POP PUSH1 0x0 PUSH1 0x2 DUP8 PUSH1 0x3 PUSH2 0x1E7A SWAP2 SWAP1 PUSH2 0x27C6 JUMP JUMPDEST XOR SWAP1 POP DUP1 DUP8 PUSH2 0x1E89 SWAP2 SWAP1 PUSH2 0x27C6 JUMP JUMPDEST PUSH1 0x2 PUSH2 0x1E95 SWAP2 SWAP1 PUSH2 0x290E JUMP JUMPDEST DUP2 PUSH2 0x1EA0 SWAP2 SWAP1 PUSH2 0x27C6 JUMP JUMPDEST SWAP1 POP DUP1 DUP8 PUSH2 0x1EAE SWAP2 SWAP1 PUSH2 0x27C6 JUMP JUMPDEST PUSH1 0x2 PUSH2 0x1EBA SWAP2 SWAP1 PUSH2 0x290E JUMP JUMPDEST DUP2 PUSH2 0x1EC5 SWAP2 SWAP1 PUSH2 0x27C6 JUMP JUMPDEST SWAP1 POP DUP1 DUP8 PUSH2 0x1ED3 SWAP2 SWAP1 PUSH2 0x27C6 JUMP JUMPDEST PUSH1 0x2 PUSH2 0x1EDF SWAP2 SWAP1 PUSH2 0x290E JUMP JUMPDEST DUP2 PUSH2 0x1EEA SWAP2 SWAP1 PUSH2 0x27C6 JUMP JUMPDEST SWAP1 POP DUP1 DUP8 PUSH2 0x1EF8 SWAP2 SWAP1 PUSH2 0x27C6 JUMP JUMPDEST PUSH1 0x2 PUSH2 0x1F04 SWAP2 SWAP1 PUSH2 0x290E JUMP JUMPDEST DUP2 PUSH2 0x1F0F SWAP2 SWAP1 PUSH2 0x27C6 JUMP JUMPDEST SWAP1 POP DUP1 DUP8 PUSH2 0x1F1D SWAP2 SWAP1 PUSH2 0x27C6 JUMP JUMPDEST PUSH1 0x2 PUSH2 0x1F29 SWAP2 SWAP1 PUSH2 0x290E JUMP JUMPDEST DUP2 PUSH2 0x1F34 SWAP2 SWAP1 PUSH2 0x27C6 JUMP JUMPDEST SWAP1 POP DUP1 DUP8 PUSH2 0x1F42 SWAP2 SWAP1 PUSH2 0x27C6 JUMP JUMPDEST PUSH1 0x2 PUSH2 0x1F4E SWAP2 SWAP1 PUSH2 0x290E JUMP JUMPDEST DUP2 PUSH2 0x1F59 SWAP2 SWAP1 PUSH2 0x27C6 JUMP JUMPDEST SWAP1 POP DUP1 DUP6 PUSH2 0x1F67 SWAP2 SWAP1 PUSH2 0x27C6 JUMP JUMPDEST SWAP6 POP POP POP POP POP POP JUMPDEST SWAP4 SWAP3 POP POP POP JUMP JUMPDEST PUSH1 0x0 DUP2 DUP3 SWAP2 POP DUP2 PUSH16 0xFFFFFFFFFFFFFFFFFFFFFFFFFFFFFFFF AND EQ PUSH2 0x1F99 JUMPI PUSH1 0x0 DUP1 REVERT JUMPDEST SWAP2 SWAP1 POP JUMP JUMPDEST PUSH1 0x0 PUSH1 0x40 MLOAD SWAP1 POP SWAP1 JUMP JUMPDEST PUSH1 0x0 DUP1 REVERT JUMPDEST PUSH1 0x0 DUP1 REVERT JUMPDEST PUSH1 0x0 PUSH32 0xFFFFFFFF00000000000000000000000000000000000000000000000000000000 DUP3 AND SWAP1 POP SWAP2 SWAP1 POP JUMP JUMPDEST PUSH2 0x1FE7 DUP2 PUSH2 0x1FB2 JUMP JUMPDEST DUP2 EQ PUSH2 0x1FF2 JUMPI PUSH1 0x0 DUP1 REVERT JUMPDEST POP JUMP JUMPDEST PUSH1 0x0 DUP2 CALLDATALOAD SWAP1 POP PUSH2 0x2004 DUP2 PUSH2 0x1FDE JUMP JUMPDEST SWAP3 SWAP2 POP POP JUMP JUMPDEST PUSH1 0x0 PUSH1 0x20 DUP3 DUP5 SUB SLT ISZERO PUSH2 0x2020 JUMPI PUSH2 0x201F PUSH2 0x1FA8 JUMP JUMPDEST JUMPDEST PUSH1 0x0 PUSH2 0x202E DUP5 DUP3 DUP6 ADD PUSH2 0x1FF5 JUMP JUMPDEST SWAP2 POP POP SWAP3 SWAP2 POP POP JUMP JUMPDEST PUSH1 0x0 DUP2 ISZERO ISZERO SWAP1 POP SWAP2 SWAP1 POP JUMP JUMPDEST PUSH2 0x204C DUP2 PUSH2 0x2037 JUMP JUMPDEST DUP3 MSTORE POP POP JUMP JUMPDEST PUSH1 0x0 PUSH1 0x20 DUP3 ADD SWAP1 POP PUSH2 0x2067 PUSH1 0x0 DUP4 ADD DUP5 PUSH2 0x2043 JUMP JUMPDEST SWAP3 SWAP2 POP POP JUMP JUMPDEST PUSH1 0x0 PUSH20 0xFFFFFFFFFFFFFFFFFFFFFFFFFFFFFFFFFFFFFFFF DUP3 AND SWAP1 POP SWAP2 SWAP1 POP JUMP JUMPDEST PUSH1 0x0 DUP2 SWAP1 POP SWAP2 SWAP1 POP JUMP JUMPDEST PUSH1 0x0 PUSH2 0x20B2 PUSH2 0x20AD PUSH2 0x20A8 DUP5 PUSH2 0x206D JUMP JUMPDEST PUSH2 0x208D JUMP JUMPDEST PUSH2 0x206D JUMP JUMPDEST SWAP1 POP SWAP2 SWAP1 POP JUMP JUMPDEST PUSH1 0x0 PUSH2 0x20C4 DUP3 PUSH2 0x2097 JUMP JUMPDEST SWAP1 POP SWAP2 SWAP1 POP JUMP JUMPDEST PUSH1 0x0 PUSH2 0x20D6 DUP3 PUSH2 0x20B9 JUMP JUMPDEST SWAP1 POP SWAP2 SWAP1 POP JUMP JUMPDEST PUSH2 0x20E6 DUP2 PUSH2 0x20CB JUMP JUMPDEST DUP3 MSTORE POP POP JUMP JUMPDEST PUSH1 0x0 PUSH1 0x20 DUP3 ADD SWAP1 POP PUSH2 0x2101 PUSH1 0x0 DUP4 ADD DUP5 PUSH2 0x20DD JUMP JUMPDEST SWAP3 SWAP2 POP POP JUMP JUMPDEST PUSH1 0x0 PUSH2 0x2112 DUP3 PUSH2 0x20B9 JUMP JUMPDEST SWAP1 POP SWAP2 SWAP1 POP JUMP JUMPDEST PUSH2 0x2122 DUP2 PUSH2 0x2107 JUMP JUMPDEST DUP3 MSTORE POP POP JUMP JUMPDEST PUSH1 0x0 PUSH1 0x20 DUP3 ADD SWAP1 POP PUSH2 0x213D PUSH1 0x0 DUP4 ADD DUP5 PUSH2 0x2119 JUMP JUMPDEST SWAP3 SWAP2 POP POP JUMP JUMPDEST PUSH1 0x0 PUSH2 0x214E DUP3 PUSH2 0x206D JUMP JUMPDEST SWAP1 POP SWAP2 SWAP1 POP JUMP JUMPDEST PUSH2 0x215E DUP2 PUSH2 0x2143 JUMP JUMPDEST DUP2 EQ PUSH2 0x2169 JUMPI PUSH1 0x0 DUP1 REVERT JUMPDEST POP JUMP JUMPDEST PUSH1 0x0 DUP2 CALLDATALOAD SWAP1 POP PUSH2 0x217B DUP2 PUSH2 0x2155 JUMP JUMPDEST SWAP3 SWAP2 POP POP JUMP JUMPDEST PUSH1 0x0 DUP2 SWAP1 POP SWAP2 SWAP1 POP JUMP JUMPDEST PUSH2 0x2194 DUP2 PUSH2 0x2181 JUMP JUMPDEST DUP2 EQ PUSH2 0x219F JUMPI PUSH1 0x0 DUP1 REVERT JUMPDEST POP JUMP JUMPDEST PUSH1 0x0 DUP2 CALLDATALOAD SWAP1 POP PUSH2 0x21B1 DUP2 PUSH2 0x218B JUMP JUMPDEST SWAP3 SWAP2 POP POP JUMP JUMPDEST PUSH1 0x0 DUP1 REVERT JUMPDEST PUSH1 0x0 DUP1 REVERT JUMPDEST PUSH1 0x0 DUP1 REVERT JUMPDEST PUSH1 0x0 DUP1 DUP4 PUSH1 0x1F DUP5 ADD SLT PUSH2 0x21DC JUMPI PUSH2 0x21DB PUSH2 0x21B7 JUMP JUMPDEST JUMPDEST DUP3 CALLDATALOAD SWAP1 POP PUSH8 0xFFFFFFFFFFFFFFFF DUP2 GT ISZERO PUSH2 0x21F9 JUMPI PUSH2 0x21F8 PUSH2 0x21BC JUMP JUMPDEST JUMPDEST PUSH1 0x20 DUP4 ADD SWAP2 POP DUP4 PUSH1 0x1 DUP3 MUL DUP4 ADD GT ISZERO PUSH2 0x2215 JUMPI PUSH2 0x2214 PUSH2 0x21C1 JUMP JUMPDEST JUMPDEST SWAP3 POP SWAP3 SWAP1 POP JUMP JUMPDEST PUSH1 0x0 DUP1 PUSH1 0x0 DUP1 PUSH1 0x0 PUSH1 0x80 DUP7 DUP9 SUB SLT ISZERO PUSH2 0x2238 JUMPI PUSH2 0x2237 PUSH2 0x1FA8 JUMP JUMPDEST JUMPDEST PUSH1 0x0 PUSH2 0x2246 DUP9 DUP3 DUP10 ADD PUSH2 0x216C JUMP JUMPDEST SWAP6 POP POP PUSH1 0x20 PUSH2 0x2257 DUP9 DUP3 DUP10 ADD PUSH2 0x216C JUMP JUMPDEST SWAP5 POP POP PUSH1 0x40 PUSH2 0x2268 DUP9 DUP3 DUP10 ADD PUSH2 0x21A2 JUMP JUMPDEST SWAP4 POP POP PUSH1 0x60 DUP7 ADD CALLDATALOAD PUSH8 0xFFFFFFFFFFFFFFFF DUP2 GT ISZERO PUSH2 0x2289 JUMPI PUSH2 0x2288 PUSH2 0x1FAD JUMP JUMPDEST JUMPDEST PUSH2 0x2295 DUP9 DUP3 DUP10 ADD PUSH2 0x21C6 JUMP JUMPDEST SWAP3 POP SWAP3 POP POP SWAP3 SWAP6 POP SWAP3 SWAP6 SWAP1 SWAP4 POP JUMP JUMPDEST PUSH2 0x22AD DUP2 PUSH2 0x1FB2 JUMP JUMPDEST DUP3 MSTORE POP POP JUMP JUMPDEST PUSH1 0x0 PUSH1 0x20 DUP3 ADD SWAP1 POP PUSH2 0x22C8 PUSH1 0x0 DUP4 ADD DUP5 PUSH2 0x22A4 JUMP JUMPDEST SWAP3 SWAP2 POP POP JUMP JUMPDEST PUSH2 0x22D7 DUP2 PUSH2 0x2181 JUMP JUMPDEST DUP3 MSTORE POP POP JUMP JUMPDEST PUSH1 0x0 PUSH1 0x20 DUP3 ADD SWAP1 POP PUSH2 0x22F2 PUSH1 0x0 DUP4 ADD DUP5 PUSH2 0x22CE JUMP JUMPDEST SWAP3 SWAP2 POP POP JUMP JUMPDEST PUSH1 0x0 DUP2 SWAP1 POP SWAP2 SWAP1 POP JUMP JUMPDEST PUSH2 0x230B DUP2 PUSH2 0x22F8 JUMP JUMPDEST DUP2 EQ PUSH2 0x2316 JUMPI PUSH1 0x0 DUP1 REVERT JUMPDEST POP JUMP JUMPDEST PUSH1 0x0 DUP2 CALLDATALOAD SWAP1 POP PUSH2 0x2328 DUP2 PUSH2 0x2302 JUMP JUMPDEST SWAP3 SWAP2 POP POP JUMP JUMPDEST PUSH1 0x0 DUP1 PUSH1 0x0 DUP1 PUSH1 0x80 DUP6 DUP8 SUB SLT ISZERO PUSH2 0x2348 JUMPI PUSH2 0x2347 PUSH2 0x1FA8 JUMP JUMPDEST JUMPDEST PUSH1 0x0 PUSH2 0x2356 DUP8 DUP3 DUP9 ADD PUSH2 0x21A2 JUMP JUMPDEST SWAP5 POP POP PUSH1 0x20 PUSH2 0x2367 DUP8 DUP3 DUP9 ADD PUSH2 0x21A2 JUMP JUMPDEST SWAP4 POP POP PUSH1 0x40 PUSH2 0x2378 DUP8 DUP3 DUP9 ADD PUSH2 0x2319 JUMP JUMPDEST SWAP3 POP POP PUSH1 0x60 PUSH2 0x2389 DUP8 DUP3 DUP9 ADD PUSH2 0x2319 JUMP JUMPDEST SWAP2 POP POP SWAP3 SWAP6 SWAP2 SWAP5 POP SWAP3 POP JUMP JUMPDEST PUSH1 0x0 PUSH16 0xFFFFFFFFFFFFFFFFFFFFFFFFFFFFFFFF DUP3 AND SWAP1 POP SWAP2 SWAP1 POP JUMP JUMPDEST PUSH2 0x23BA DUP2 PUSH2 0x2395 JUMP JUMPDEST DUP3 MSTORE POP POP JUMP JUMPDEST PUSH1 0x0 PUSH1 0x20 DUP3 ADD SWAP1 POP PUSH2 0x23D5 PUSH1 0x0 DUP4 ADD DUP5 PUSH2 0x23B1 JUMP JUMPDEST SWAP3 SWAP2 POP POP JUMP JUMPDEST PUSH1 0x0 PUSH1 0x20 DUP3 DUP5 SUB SLT ISZERO PUSH2 0x23F1 JUMPI PUSH2 0x23F0 PUSH2 0x1FA8 JUMP JUMPDEST JUMPDEST PUSH1 0x0 PUSH2 0x23FF DUP5 DUP3 DUP6 ADD PUSH2 0x216C JUMP JUMPDEST SWAP2 POP POP SWAP3 SWAP2 POP POP JUMP JUMPDEST PUSH1 0x0 PUSH2 0x2413 DUP3 PUSH2 0x20B9 JUMP JUMPDEST SWAP1 POP SWAP2 SWAP1 POP JUMP JUMPDEST PUSH2 0x2423 DUP2 PUSH2 0x2408 JUMP JUMPDEST DUP3 MSTORE POP POP JUMP JUMPDEST PUSH1 0x0 PUSH1 0x20 DUP3 ADD SWAP1 POP PUSH2 0x243E PUSH1 0x0 DUP4 ADD DUP5 PUSH2 0x241A JUMP JUMPDEST SWAP3 SWAP2 POP POP JUMP JUMPDEST PUSH1 0x0 PUSH1 0x20 DUP3 DUP5 SUB SLT ISZERO PUSH2 0x245A JUMPI PUSH2 0x2459 PUSH2 0x1FA8 JUMP JUMPDEST JUMPDEST PUSH1 0x0 PUSH2 0x2468 DUP5 DUP3 DUP6 ADD PUSH2 0x21A2 JUMP JUMPDEST SWAP2 POP POP SWAP3 SWAP2 POP POP JUMP JUMPDEST PUSH1 0x0 PUSH1 0x40 DUP3 ADD SWAP1 POP PUSH2 0x2486 PUSH1 0x0 DUP4 ADD DUP6 PUSH2 0x22CE JUMP JUMPDEST PUSH2 0x2493 PUSH1 0x20 DUP4 ADD DUP5 PUSH2 0x22CE JUMP JUMPDEST SWAP4 SWAP3 POP POP POP JUMP JUMPDEST PUSH1 0x0 DUP1 PUSH1 0x40 DUP4 DUP6 SUB SLT ISZERO PUSH2 0x24B1 JUMPI PUSH2 0x24B0 PUSH2 0x1FA8 JUMP JUMPDEST JUMPDEST PUSH1 0x0 PUSH2 0x24BF DUP6 DUP3 DUP7 ADD PUSH2 0x21A2 JUMP JUMPDEST SWAP3 POP POP PUSH1 0x20 PUSH2 0x24D0 DUP6 DUP3 DUP7 ADD PUSH2 0x21A2 JUMP JUMPDEST SWAP2 POP POP SWAP3 POP SWAP3 SWAP1 POP JUMP JUMPDEST PUSH1 0x0 DUP1 PUSH1 0x40 DUP4 DUP6 SUB SLT ISZERO PUSH2 0x24F1 JUMPI PUSH2 0x24F0 PUSH2 0x1FA8 JUMP JUMPDEST JUMPDEST PUSH1 0x0 PUSH2 0x24FF DUP6 DUP3 DUP7 ADD PUSH2 0x216C JUMP JUMPDEST SWAP3 POP POP PUSH1 0x20 PUSH2 0x2510 DUP6 DUP3 DUP7 ADD PUSH2 0x21A2 JUMP JUMPDEST SWAP2 POP POP SWAP3 POP SWAP3 SWAP1 POP JUMP JUMPDEST PUSH1 0x0 DUP1 PUSH1 0x0 PUSH1 0x60 DUP5 DUP7 SUB SLT ISZERO PUSH2 0x2533 JUMPI PUSH2 0x2532 PUSH2 0x1FA8 JUMP JUMPDEST JUMPDEST PUSH1 0x0 PUSH2 0x2541 DUP7 DUP3 DUP8 ADD PUSH2 0x21A2 JUMP JUMPDEST SWAP4 POP POP PUSH1 0x20 PUSH2 0x2552 DUP7 DUP3 DUP8 ADD PUSH2 0x2319 JUMP JUMPDEST SWAP3 POP POP PUSH1 0x40 PUSH2 0x2563 DUP7 DUP3 DUP8 ADD PUSH2 0x2319 JUMP JUMPDEST SWAP2 POP POP SWAP3 POP SWAP3 POP SWAP3 JUMP JUMPDEST PUSH2 0x2576 DUP2 PUSH2 0x2143 JUMP JUMPDEST DUP3 MSTORE POP POP JUMP JUMPDEST PUSH1 0x0 PUSH1 0x60 DUP3 ADD SWAP1 POP PUSH2 0x2591 PUSH1 0x0 DUP4 ADD DUP7 PUSH2 0x256D JUMP JUMPDEST PUSH2 0x259E PUSH1 0x20 DUP4 ADD DUP6 PUSH2 0x256D JUMP JUMPDEST PUSH2 0x25AB PUSH1 0x40 DUP4 ADD DUP5 PUSH2 0x22CE JUMP JUMPDEST SWAP5 SWAP4 POP POP POP POP JUMP JUMPDEST PUSH1 0x0 DUP1 REVERT JUMPDEST PUSH1 0x0 PUSH1 0x1F NOT PUSH1 0x1F DUP4 ADD AND SWAP1 POP SWAP2 SWAP1 POP JUMP JUMPDEST PUSH32 0x4E487B7100000000000000000000000000000000000000000000000000000000 PUSH1 0x0 MSTORE PUSH1 0x41 PUSH1 0x4 MSTORE PUSH1 0x24 PUSH1 0x0 REVERT JUMPDEST PUSH2 0x2601 DUP3 PUSH2 0x25B8 JUMP JUMPDEST DUP2 ADD DUP2 DUP2 LT PUSH8 0xFFFFFFFFFFFFFFFF DUP3 GT OR ISZERO PUSH2 0x2620 JUMPI PUSH2 0x261F PUSH2 0x25C9 JUMP JUMPDEST JUMPDEST DUP1 PUSH1 0x40 MSTORE POP POP POP JUMP JUMPDEST PUSH1 0x0 PUSH2 0x2633 PUSH2 0x1F9E JUMP JUMPDEST SWAP1 POP PUSH2 0x263F DUP3 DUP3 PUSH2 0x25F8 JUMP JUMPDEST SWAP2 SWAP1 POP JUMP JUMPDEST PUSH1 0x0 DUP2 MLOAD SWAP1 POP PUSH2 0x2653 DUP2 PUSH2 0x218B JUMP JUMPDEST SWAP3 SWAP2 POP POP JUMP JUMPDEST PUSH1 0x0 DUP2 MLOAD SWAP1 POP PUSH2 0x2668 DUP2 PUSH2 0x2155 JUMP JUMPDEST SWAP3 SWAP2 POP POP JUMP JUMPDEST PUSH1 0x0 PUSH1 0xE0 DUP3 DUP5 SUB SLT ISZERO PUSH2 0x2684 JUMPI PUSH2 0x2683 PUSH2 0x25B3 JUMP JUMPDEST JUMPDEST PUSH2 0x268E PUSH1 0xE0 PUSH2 0x2629 JUMP JUMPDEST SWAP1 POP PUSH1 0x0 PUSH2 0x269E DUP5 DUP3 DUP6 ADD PUSH2 0x2644 JUMP JUMPDEST PUSH1 0x0 DUP4 ADD MSTORE POP PUSH1 0x20 PUSH2 0x26B2 DUP5 DUP3 DUP6 ADD PUSH2 0x2659 JUMP JUMPDEST PUSH1 0x20 DUP4 ADD MSTORE POP PUSH1 0x40 PUSH2 0x26C6 DUP5 DUP3 DUP6 ADD PUSH2 0x2659 JUMP JUMPDEST PUSH1 0x40 DUP4 ADD MSTORE POP PUSH1 0x60 PUSH2 0x26DA DUP5 DUP3 DUP6 ADD PUSH2 0x2659 JUMP JUMPDEST PUSH1 0x60 DUP4 ADD MSTORE POP PUSH1 0x80 PUSH2 0x26EE DUP5 DUP3 DUP6 ADD PUSH2 0x2644 JUMP JUMPDEST PUSH1 0x80 DUP4 ADD MSTORE POP PUSH1 0xA0 PUSH2 0x2702 DUP5 DUP3 DUP6 ADD PUSH2 0x2644 JUMP JUMPDEST PUSH1 0xA0 DUP4 ADD MSTORE POP PUSH1 0xC0 PUSH2 0x2716 DUP5 DUP3 DUP6 ADD PUSH2 0x2644 JUMP JUMPDEST PUSH1 0xC0 DUP4 ADD MSTORE POP SWAP3 SWAP2 POP POP JUMP JUMPDEST PUSH1 0x0 PUSH1 0xE0 DUP3 DUP5 SUB SLT ISZERO PUSH2 0x2738 JUMPI PUSH2 0x2737 PUSH2 0x1FA8 JUMP JUMPDEST JUMPDEST PUSH1 0x0 PUSH2 0x2746 DUP5 DUP3 DUP6 ADD PUSH2 0x266E JUMP JUMPDEST SWAP2 POP POP SWAP3 SWAP2 POP POP JUMP JUMPDEST PUSH1 0x0 PUSH1 0x20 DUP3 ADD SWAP1 POP PUSH2 0x2764 PUSH1 0x0 DUP4 ADD DUP5 PUSH2 0x256D JUMP JUMPDEST SWAP3 SWAP2 POP POP JUMP JUMPDEST PUSH1 0x0 PUSH1 0x20 DUP3 DUP5 SUB SLT ISZERO PUSH2 0x2780 JUMPI PUSH2 0x277F PUSH2 0x1FA8 JUMP JUMPDEST JUMPDEST PUSH1 0x0 PUSH2 0x278E DUP5 DUP3 DUP6 ADD PUSH2 0x2644 JUMP JUMPDEST SWAP2 POP POP SWAP3 SWAP2 POP POP JUMP JUMPDEST PUSH32 0x4E487B7100000000000000000000000000000000000000000000000000000000 PUSH1 0x0 MSTORE PUSH1 0x11 PUSH1 0x4 MSTORE PUSH1 0x24 PUSH1 0x0 REVERT JUMPDEST PUSH1 0x0 PUSH2 0x27D1 DUP3 PUSH2 0x2181 JUMP JUMPDEST SWAP2 POP PUSH2 0x27DC DUP4 PUSH2 0x2181 JUMP JUMPDEST SWAP3 POP DUP3 DUP3 MUL PUSH2 0x27EA DUP2 PUSH2 0x2181 JUMP JUMPDEST SWAP2 POP DUP3 DUP3 DIV DUP5 EQ DUP4 ISZERO OR PUSH2 0x2801 JUMPI PUSH2 0x2800 PUSH2 0x2797 JUMP JUMPDEST JUMPDEST POP SWAP3 SWAP2 POP POP JUMP JUMPDEST PUSH32 0x4E487B7100000000000000000000000000000000000000000000000000000000 PUSH1 0x0 MSTORE PUSH1 0x12 PUSH1 0x4 MSTORE PUSH1 0x24 PUSH1 0x0 REVERT JUMPDEST PUSH1 0x0 PUSH2 0x2842 DUP3 PUSH2 0x2181 JUMP JUMPDEST SWAP2 POP PUSH2 0x284D DUP4 PUSH2 0x2181 JUMP JUMPDEST SWAP3 POP DUP3 PUSH2 0x285D JUMPI PUSH2 0x285C PUSH2 0x2808 JUMP JUMPDEST JUMPDEST DUP3 DUP3 DIV SWAP1 POP SWAP3 SWAP2 POP POP JUMP JUMPDEST PUSH1 0x0 DUP3 DUP3 MSTORE PUSH1 0x20 DUP3 ADD SWAP1 POP SWAP3 SWAP2 POP POP JUMP JUMPDEST PUSH32 0x616D6F756E7430206F7220616D6F756E7431203D203000000000000000000000 PUSH1 0x0 DUP3 ADD MSTORE POP JUMP JUMPDEST PUSH1 0x0 PUSH2 0x28AF PUSH1 0x16 DUP4 PUSH2 0x2868 JUMP JUMPDEST SWAP2 POP PUSH2 0x28BA DUP3 PUSH2 0x2879 JUMP JUMPDEST PUSH1 0x20 DUP3 ADD SWAP1 POP SWAP2 SWAP1 POP JUMP JUMPDEST PUSH1 0x0 PUSH1 0x20 DUP3 ADD SWAP1 POP DUP2 DUP2 SUB PUSH1 0x0 DUP4 ADD MSTORE PUSH2 0x28DE DUP2 PUSH2 0x28A2 JUMP JUMPDEST SWAP1 POP SWAP2 SWAP1 POP JUMP JUMPDEST PUSH1 0x0 PUSH1 0x40 DUP3 ADD SWAP1 POP PUSH2 0x28FA PUSH1 0x0 DUP4 ADD DUP6 PUSH2 0x22CE JUMP JUMPDEST PUSH2 0x2907 PUSH1 0x20 DUP4 ADD DUP5 PUSH2 0x256D JUMP JUMPDEST SWAP4 SWAP3 POP POP POP JUMP JUMPDEST PUSH1 0x0 PUSH2 0x2919 DUP3 PUSH2 0x2181 JUMP JUMPDEST SWAP2 POP PUSH2 0x2924 DUP4 PUSH2 0x2181 JUMP JUMPDEST SWAP3 POP DUP3 DUP3 SUB SWAP1 POP DUP2 DUP2 GT ISZERO PUSH2 0x293C JUMPI PUSH2 0x293B PUSH2 0x2797 JUMP JUMPDEST JUMPDEST SWAP3 SWAP2 POP POP JUMP JUMPDEST PUSH1 0x0 PUSH1 0x40 DUP3 ADD SWAP1 POP PUSH2 0x2957 PUSH1 0x0 DUP4 ADD DUP6 PUSH2 0x256D JUMP JUMPDEST PUSH2 0x2964 PUSH1 0x20 DUP4 ADD DUP5 PUSH2 0x22CE JUMP JUMPDEST SWAP4 SWAP3 POP POP POP JUMP JUMPDEST PUSH2 0x2974 DUP2 PUSH2 0x2037 JUMP JUMPDEST DUP2 EQ PUSH2 0x297F JUMPI PUSH1 0x0 DUP1 REVERT JUMPDEST POP JUMP JUMPDEST PUSH1 0x0 DUP2 MLOAD SWAP1 POP PUSH2 0x2991 DUP2 PUSH2 0x296B JUMP JUMPDEST SWAP3 SWAP2 POP POP JUMP JUMPDEST PUSH1 0x0 PUSH1 0x20 DUP3 DUP5 SUB SLT ISZERO PUSH2 0x29AD JUMPI PUSH2 0x29AC PUSH2 0x1FA8 JUMP JUMPDEST JUMPDEST PUSH1 0x0 PUSH2 0x29BB DUP5 DUP3 DUP6 ADD PUSH2 0x2982 JUMP JUMPDEST SWAP2 POP POP SWAP3 SWAP2 POP POP JUMP JUMPDEST PUSH32 0x6479202F20647820213D2079202F207800000000000000000000000000000000 PUSH1 0x0 DUP3 ADD MSTORE POP JUMP JUMPDEST PUSH1 0x0 PUSH2 0x29FA PUSH1 0x10 DUP4 PUSH2 0x2868 JUMP JUMPDEST SWAP2 POP PUSH2 0x2A05 DUP3 PUSH2 0x29C4 JUMP JUMPDEST PUSH1 0x20 DUP3 ADD SWAP1 POP SWAP2 SWAP1 POP JUMP JUMPDEST PUSH1 0x0 PUSH1 0x20 DUP3 ADD SWAP1 POP DUP2 DUP2 SUB PUSH1 0x0 DUP4 ADD MSTORE PUSH2 0x2A29 DUP2 PUSH2 0x29ED JUMP JUMPDEST SWAP1 POP SWAP2 SWAP1 POP JUMP JUMPDEST PUSH32 0x736861726573203D203000000000000000000000000000000000000000000000 PUSH1 0x0 DUP3 ADD MSTORE POP JUMP JUMPDEST PUSH1 0x0 PUSH2 0x2A66 PUSH1 0xA DUP4 PUSH2 0x2868 JUMP JUMPDEST SWAP2 POP PUSH2 0x2A71 DUP3 PUSH2 0x2A30 JUMP JUMPDEST PUSH1 0x20 DUP3 ADD SWAP1 POP SWAP2 SWAP1 POP JUMP JUMPDEST PUSH1 0x0 PUSH1 0x20 DUP3 ADD SWAP1 POP DUP2 DUP2 SUB PUSH1 0x0 DUP4 ADD MSTORE PUSH2 0x2A95 DUP2 PUSH2 0x2A59 JUMP JUMPDEST SWAP1 POP SWAP2 SWAP1 POP JUMP JUMPDEST PUSH1 0x0 PUSH1 0xE0 DUP3 ADD SWAP1 POP PUSH2 0x2AB1 PUSH1 0x0 DUP4 ADD DUP11 PUSH2 0x22CE JUMP JUMPDEST PUSH2 0x2ABE PUSH1 0x20 DUP4 ADD DUP10 PUSH2 0x256D JUMP JUMPDEST PUSH2 0x2ACB PUSH1 0x40 DUP4 ADD DUP9 PUSH2 0x256D JUMP JUMPDEST PUSH2 0x2AD8 PUSH1 0x60 DUP4 ADD DUP8 PUSH2 0x256D JUMP JUMPDEST PUSH2 0x2AE5 PUSH1 0x80 DUP4 ADD DUP7 PUSH2 0x22CE JUMP JUMPDEST PUSH2 0x2AF2 PUSH1 0xA0 DUP4 ADD DUP6 PUSH2 0x22CE JUMP JUMPDEST PUSH2 0x2AFF PUSH1 0xC0 DUP4 ADD DUP5 PUSH2 0x22CE JUMP JUMPDEST SWAP9 SWAP8 POP POP POP POP POP POP POP POP JUMP JUMPDEST PUSH2 0x2B14 DUP2 PUSH2 0x2181 JUMP JUMPDEST DUP3 MSTORE POP POP JUMP JUMPDEST PUSH2 0x2B23 DUP2 PUSH2 0x2143 JUMP JUMPDEST DUP3 MSTORE POP POP JUMP JUMPDEST PUSH1 0xE0 DUP3 ADD PUSH1 0x0 DUP3 ADD MLOAD PUSH2 0x2B3F PUSH1 0x0 DUP6 ADD DUP3 PUSH2 0x2B0B JUMP JUMPDEST POP PUSH1 0x20 DUP3 ADD MLOAD PUSH2 0x2B52 PUSH1 0x20 DUP6 ADD DUP3 PUSH2 0x2B1A JUMP JUMPDEST POP PUSH1 0x40 DUP3 ADD MLOAD PUSH2 0x2B65 PUSH1 0x40 DUP6 ADD DUP3 PUSH2 0x2B1A JUMP JUMPDEST POP PUSH1 0x60 DUP3 ADD MLOAD PUSH2 0x2B78 PUSH1 0x60 DUP6 ADD DUP3 PUSH2 0x2B1A JUMP JUMPDEST POP PUSH1 0x80 DUP3 ADD MLOAD PUSH2 0x2B8B PUSH1 0x80 DUP6 ADD DUP3 PUSH2 0x2B0B JUMP JUMPDEST POP PUSH1 0xA0 DUP3 ADD MLOAD PUSH2 0x2B9E PUSH1 0xA0 DUP6 ADD DUP3 PUSH2 0x2B0B JUMP JUMPDEST POP PUSH1 0xC0 DUP3 ADD MLOAD PUSH2 0x2BB1 PUSH1 0xC0 DUP6 ADD DUP3 PUSH2 0x2B0B JUMP JUMPDEST POP POP POP POP JUMP JUMPDEST PUSH1 0x0 PUSH2 0x100 DUP3 ADD SWAP1 POP PUSH2 0x2BCD PUSH1 0x0 DUP4 ADD DUP6 PUSH2 0x256D JUMP JUMPDEST PUSH2 0x2BDA PUSH1 0x20 DUP4 ADD DUP5 PUSH2 0x2B29 JUMP JUMPDEST SWAP4 SWAP3 POP POP POP JUMP JUMPDEST PUSH32 0x496E76616C69646520546F6B656E000000000000000000000000000000000000 PUSH1 0x0 DUP3 ADD MSTORE POP JUMP JUMPDEST PUSH1 0x0 PUSH2 0x2C17 PUSH1 0xE DUP4 PUSH2 0x2868 JUMP JUMPDEST SWAP2 POP PUSH2 0x2C22 DUP3 PUSH2 0x2BE1 JUMP JUMPDEST PUSH1 0x20 DUP3 ADD SWAP1 POP SWAP2 SWAP1 POP JUMP JUMPDEST PUSH1 0x0 PUSH1 0x20 DUP3 ADD SWAP1 POP DUP2 DUP2 SUB PUSH1 0x0 DUP4 ADD MSTORE PUSH2 0x2C46 DUP2 PUSH2 0x2C0A JUMP JUMPDEST SWAP1 POP SWAP2 SWAP1 POP JUMP JUMPDEST PUSH32 0x616D6F756E7420696E203D203000000000000000000000000000000000000000 PUSH1 0x0 DUP3 ADD MSTORE POP JUMP JUMPDEST PUSH1 0x0 PUSH2 0x2C83 PUSH1 0xD DUP4 PUSH2 0x2868 JUMP JUMPDEST SWAP2 POP PUSH2 0x2C8E DUP3 PUSH2 0x2C4D JUMP JUMPDEST PUSH1 0x20 DUP3 ADD SWAP1 POP SWAP2 SWAP1 POP JUMP JUMPDEST PUSH1 0x0 PUSH1 0x20 DUP3 ADD SWAP1 POP DUP2 DUP2 SUB PUSH1 0x0 DUP4 ADD MSTORE PUSH2 0x2CB2 DUP2 PUSH2 0x2C76 JUMP JUMPDEST SWAP1 POP SWAP2 SWAP1 POP JUMP JUMPDEST PUSH1 0x0 PUSH2 0x2CC4 DUP3 PUSH2 0x2181 JUMP JUMPDEST SWAP2 POP PUSH2 0x2CCF DUP4 PUSH2 0x2181 JUMP JUMPDEST SWAP3 POP DUP3 DUP3 ADD SWAP1 POP DUP1 DUP3 GT ISZERO PUSH2 0x2CE7 JUMPI PUSH2 0x2CE6 PUSH2 0x2797 JUMP JUMPDEST JUMPDEST SWAP3 SWAP2 POP POP JUMP JUMPDEST PUSH2 0x2CF6 DUP2 PUSH2 0x22F8 JUMP JUMPDEST DUP3 MSTORE POP POP JUMP JUMPDEST PUSH1 0x0 PUSH1 0x20 DUP3 ADD SWAP1 POP PUSH2 0x2D11 PUSH1 0x0 DUP4 ADD DUP5 PUSH2 0x2CED JUMP JUMPDEST SWAP3 SWAP2 POP POP JUMP JUMPDEST PUSH2 0x2D20 DUP2 PUSH2 0x206D JUMP JUMPDEST DUP2 EQ PUSH2 0x2D2B JUMPI PUSH1 0x0 DUP1 REVERT JUMPDEST POP JUMP JUMPDEST PUSH1 0x0 DUP2 MLOAD SWAP1 POP PUSH2 0x2D3D DUP2 PUSH2 0x2D17 JUMP JUMPDEST SWAP3 SWAP2 POP POP JUMP JUMPDEST PUSH1 0x0 PUSH1 0x20 DUP3 DUP5 SUB SLT ISZERO PUSH2 0x2D59 JUMPI PUSH2 0x2D58 PUSH2 0x1FA8 JUMP JUMPDEST JUMPDEST PUSH1 0x0 PUSH2 0x2D67 DUP5 DUP3 DUP6 ADD PUSH2 0x2D2E JUMP JUMPDEST SWAP2 POP POP SWAP3 SWAP2 POP POP JUMP JUMPDEST PUSH1 0x0 DUP2 MLOAD SWAP1 POP PUSH2 0x2D7F DUP2 PUSH2 0x2302 JUMP JUMPDEST SWAP3 SWAP2 POP POP JUMP JUMPDEST PUSH1 0x0 PUSH1 0x20 DUP3 DUP5 SUB SLT ISZERO PUSH2 0x2D9B JUMPI PUSH2 0x2D9A PUSH2 0x1FA8 JUMP JUMPDEST JUMPDEST PUSH1 0x0 PUSH2 0x2DA9 DUP5 DUP3 DUP6 ADD PUSH2 0x2D70 JUMP JUMPDEST SWAP2 POP POP SWAP3 SWAP2 POP POP JUMP JUMPDEST PUSH1 0x0 PUSH2 0x2DBD DUP3 PUSH2 0x206D JUMP JUMPDEST SWAP2 POP PUSH2 0x2DC8 DUP4 PUSH2 0x206D JUMP JUMPDEST SWAP3 POP DUP3 DUP3 SUB SWAP1 POP PUSH20 0xFFFFFFFFFFFFFFFFFFFFFFFFFFFFFFFFFFFFFFFF DUP2 GT ISZERO PUSH2 0x2DF4 JUMPI PUSH2 0x2DF3 PUSH2 0x2797 JUMP JUMPDEST JUMPDEST SWAP3 SWAP2 POP POP JUMP INVALID LOG2 PUSH5 0x6970667358 0x22 SLT KECCAK256 PUSH15 0xCD64FC714D90EF5DE1259D591850D5 0xAB 0xA5 0xE8 0xCA 0xCD DUP2 PUSH20 0xB565C8D96B24BB3CA664736F6C63430008120033 "
		},
		"gasEstimates": {
			"creation": {
				"codeDepositCost": "2364800",
				"executionCost": "infinite",
				"totalCost": "infinite"
			},
			"external": {
				"NFTPositionManager()": "infinite",
				"_quoteForAmount0(uint256,int256,int256)": "infinite",
				"_quoteForAmount1(uint256,int256,int256)": "infinite",
				"addLiquidity(uint256,uint256)": "infinite",
				"balanceOf(address)": "2903",
				"fee()": "2495",
				"getLiquidityForAmounts(uint256,uint256,int256,int256)": "infinite",
				"liquidityOfPool()": "2582",
				"onERC721Received(address,address,uint256,bytes)": "infinite",
				"oracle()": "infinite",
				"removeLiquidity(uint256)": "infinite",
				"reserve0()": "2474",
				"reserve1()": "2496",
				"supportsInterface(bytes4)": "708",
				"swap(address,uint256)": "infinite",
				"token0()": "infinite",
				"token1()": "infinite",
				"totalFee0()": "2474",
				"totalFee1()": "2540",
				"totalSupply()": "2541"
			},
			"internal": {
				"_burn(address,uint256)": "infinite",
				"_min(uint256,uint256)": "67",
				"_mint(address,uint256)": "infinite",
				"_sqrt(uint256)": "infinite",
				"_sqrtX96Convert(int256,int256)": "infinite",
				"_update(uint256,uint256)": "44241"
			}
		},
		"methodIdentifiers": {
			"NFTPositionManager()": "09feb954",
			"_quoteForAmount0(uint256,int256,int256)": "f8fffb2a",
			"_quoteForAmount1(uint256,int256,int256)": "eed5907f",
			"addLiquidity(uint256,uint256)": "9cd441da",
			"balanceOf(address)": "70a08231",
			"fee()": "ddca3f43",
			"getLiquidityForAmounts(uint256,uint256,int256,int256)": "2a75dd70",
			"liquidityOfPool()": "a9c472b2",
			"onERC721Received(address,address,uint256,bytes)": "150b7a02",
			"oracle()": "7dc0d1d0",
			"removeLiquidity(uint256)": "9c8f9f23",
			"reserve0()": "443cb4bc",
			"reserve1()": "5a76f25e",
			"supportsInterface(bytes4)": "01ffc9a7",
			"swap(address,uint256)": "d004f0f7",
			"token0()": "0dfe1681",
			"token1()": "d21220a7",
			"totalFee0()": "90256e54",
			"totalFee1()": "78f0c735",
			"totalSupply()": "18160ddd"
		}
	},
	"abi": [
		{
			"inputs": [
				{
					"internalType": "address",
					"name": "_token0",
					"type": "address"
				},
				{
					"internalType": "address",
					"name": "_token1",
					"type": "address"
				},
				{
					"internalType": "address",
					"name": "_NFTPositionManager",
					"type": "address"
				},
				{
					"internalType": "address",
					"name": "_oracle",
					"type": "address"
				},
				{
					"internalType": "uint256",
					"name": "_fee",
					"type": "uint256"
				}
			],
			"stateMutability": "nonpayable",
			"type": "constructor"
		},
		{
			"inputs": [],
			"name": "NFTPositionManager",
			"outputs": [
				{
					"internalType": "contract IPositionManager",
					"name": "",
					"type": "address"
				}
			],
			"stateMutability": "view",
			"type": "function"
		},
		{
			"inputs": [
				{
					"internalType": "uint256",
					"name": "_amount0",
					"type": "uint256"
				},
				{
					"internalType": "int256",
					"name": "_upperPrice",
					"type": "int256"
				},
				{
					"internalType": "int256",
					"name": "_lowerPrice",
					"type": "int256"
				}
			],
			"name": "_quoteForAmount0",
			"outputs": [
				{
					"internalType": "uint256",
					"name": "",
					"type": "uint256"
				}
			],
			"stateMutability": "view",
			"type": "function"
		},
		{
			"inputs": [
				{
					"internalType": "uint256",
					"name": "_amount1",
					"type": "uint256"
				},
				{
					"internalType": "int256",
					"name": "_upperPrice",
					"type": "int256"
				},
				{
					"internalType": "int256",
					"name": "_lowerPrice",
					"type": "int256"
				}
			],
			"name": "_quoteForAmount1",
			"outputs": [
				{
					"internalType": "uint256",
					"name": "",
					"type": "uint256"
				}
			],
			"stateMutability": "view",
			"type": "function"
		},
		{
			"inputs": [
				{
					"internalType": "uint256",
					"name": "_amount0",
					"type": "uint256"
				},
				{
					"internalType": "uint256",
					"name": "_amount1",
					"type": "uint256"
				}
			],
			"name": "addLiquidity",
			"outputs": [
				{
					"internalType": "uint256",
					"name": "shares",
					"type": "uint256"
				}
			],
			"stateMutability": "nonpayable",
			"type": "function"
		},
		{
			"inputs": [
				{
					"internalType": "address",
					"name": "",
					"type": "address"
				}
			],
			"name": "balanceOf",
			"outputs": [
				{
					"internalType": "uint256",
					"name": "",
					"type": "uint256"
				}
			],
			"stateMutability": "view",
			"type": "function"
		},
		{
			"inputs": [],
			"name": "fee",
			"outputs": [
				{
					"internalType": "uint256",
					"name": "",
					"type": "uint256"
				}
			],
			"stateMutability": "view",
			"type": "function"
		},
		{
			"inputs": [
				{
					"internalType": "uint256",
					"name": "_amount0",
					"type": "uint256"
				},
				{
					"internalType": "uint256",
					"name": "_amount1",
					"type": "uint256"
				},
				{
					"internalType": "int256",
					"name": "_upperPrice",
					"type": "int256"
				},
				{
					"internalType": "int256",
					"name": "_lowerPrice",
					"type": "int256"
				}
			],
			"name": "getLiquidityForAmounts",
			"outputs": [
				{
					"internalType": "uint128",
					"name": "",
					"type": "uint128"
				}
			],
			"stateMutability": "view",
			"type": "function"
		},
		{
			"inputs": [],
			"name": "liquidityOfPool",
			"outputs": [
				{
					"internalType": "uint128",
					"name": "",
					"type": "uint128"
				}
			],
			"stateMutability": "view",
			"type": "function"
		},
		{
			"inputs": [
				{
					"internalType": "address",
					"name": "",
					"type": "address"
				},
				{
					"internalType": "address",
					"name": "",
					"type": "address"
				},
				{
					"internalType": "uint256",
					"name": "",
					"type": "uint256"
				},
				{
					"internalType": "bytes",
					"name": "",
					"type": "bytes"
				}
			],
			"name": "onERC721Received",
			"outputs": [
				{
					"internalType": "bytes4",
					"name": "",
					"type": "bytes4"
				}
			],
			"stateMutability": "view",
			"type": "function"
		},
		{
			"inputs": [],
			"name": "oracle",
			"outputs": [
				{
					"internalType": "contract IOracle",
					"name": "",
					"type": "address"
				}
			],
			"stateMutability": "view",
			"type": "function"
		},
		{
			"inputs": [
				{
					"internalType": "uint256",
					"name": "_tokenId",
					"type": "uint256"
				}
			],
			"name": "removeLiquidity",
			"outputs": [
				{
					"internalType": "uint256",
					"name": "amount0",
					"type": "uint256"
				},
				{
					"internalType": "uint256",
					"name": "amount1",
					"type": "uint256"
				}
			],
			"stateMutability": "nonpayable",
			"type": "function"
		},
		{
			"inputs": [],
			"name": "reserve0",
			"outputs": [
				{
					"internalType": "uint256",
					"name": "",
					"type": "uint256"
				}
			],
			"stateMutability": "view",
			"type": "function"
		},
		{
			"inputs": [],
			"name": "reserve1",
			"outputs": [
				{
					"internalType": "uint256",
					"name": "",
					"type": "uint256"
				}
			],
			"stateMutability": "view",
			"type": "function"
		},
		{
			"inputs": [
				{
					"internalType": "bytes4",
					"name": "interfaceID",
					"type": "bytes4"
				}
			],
			"name": "supportsInterface",
			"outputs": [
				{
					"internalType": "bool",
					"name": "",
					"type": "bool"
				}
			],
			"stateMutability": "pure",
			"type": "function"
		},
		{
			"inputs": [
				{
					"internalType": "address",
					"name": "_tokenIn",
					"type": "address"
				},
				{
					"internalType": "uint256",
					"name": "_amountIn",
					"type": "uint256"
				}
			],
			"name": "swap",
			"outputs": [
				{
					"internalType": "uint256",
					"name": "amountOut",
					"type": "uint256"
				}
			],
			"stateMutability": "nonpayable",
			"type": "function"
		},
		{
			"inputs": [],
			"name": "token0",
			"outputs": [
				{
					"internalType": "contract IERC20",
					"name": "",
					"type": "address"
				}
			],
			"stateMutability": "view",
			"type": "function"
		},
		{
			"inputs": [],
			"name": "token1",
			"outputs": [
				{
					"internalType": "contract IERC20",
					"name": "",
					"type": "address"
				}
			],
			"stateMutability": "view",
			"type": "function"
		},
		{
			"inputs": [],
			"name": "totalFee0",
			"outputs": [
				{
					"internalType": "uint256",
					"name": "",
					"type": "uint256"
				}
			],
			"stateMutability": "view",
			"type": "function"
		},
		{
			"inputs": [],
			"name": "totalFee1",
			"outputs": [
				{
					"internalType": "uint256",
					"name": "",
					"type": "uint256"
				}
			],
			"stateMutability": "view",
			"type": "function"
		},
		{
			"inputs": [],
			"name": "totalSupply",
			"outputs": [
				{
					"internalType": "uint256",
					"name": "",
					"type": "uint256"
				}
			],
			"stateMutability": "view",
			"type": "function"
		}
	]
}