{
	"TVNProject/TVNLmPool/TVNLmPool.sol": {
		"TVNLmPool": {
			"abi": [
				{
					"inputs": [
						{
							"internalType": "address",
							"name": "_token0",
							"type": "address"
						},
						{
							"internalType": "address",
							"name": "_token1",
							"type": "address"
						},
						{
							"internalType": "address",
							"name": "_NFTPositionManager",
							"type": "address"
						},
						{
							"internalType": "uint256",
							"name": "_fee",
							"type": "uint256"
						}
					],
					"stateMutability": "nonpayable",
					"type": "constructor"
				},
				{
					"inputs": [],
					"name": "NFTPositionManager",
					"outputs": [
						{
							"internalType": "contract IPositionManager",
							"name": "",
							"type": "address"
						}
					],
					"stateMutability": "view",
					"type": "function"
				},
				{
					"inputs": [
						{
							"internalType": "uint256",
							"name": "_amount0",
							"type": "uint256"
						}
					],
					"name": "_quote",
					"outputs": [
						{
							"internalType": "uint256",
							"name": "",
							"type": "uint256"
						}
					],
					"stateMutability": "view",
					"type": "function"
				},
				{
					"inputs": [
						{
							"internalType": "uint256",
							"name": "_amount0",
							"type": "uint256"
						},
						{
							"internalType": "uint256",
							"name": "_amount1",
							"type": "uint256"
						}
					],
					"name": "addLiquidity",
					"outputs": [
						{
							"internalType": "uint256",
							"name": "shares",
							"type": "uint256"
						}
					],
					"stateMutability": "nonpayable",
					"type": "function"
				},
				{
					"inputs": [
						{
							"internalType": "address",
							"name": "",
							"type": "address"
						}
					],
					"name": "balanceOf",
					"outputs": [
						{
							"internalType": "uint256",
							"name": "",
							"type": "uint256"
						}
					],
					"stateMutability": "view",
					"type": "function"
				},
				{
					"inputs": [],
					"name": "fee",
					"outputs": [
						{
							"internalType": "uint256",
							"name": "",
							"type": "uint256"
						}
					],
					"stateMutability": "view",
					"type": "function"
				},
				{
					"inputs": [
						{
							"internalType": "address",
							"name": "",
							"type": "address"
						},
						{
							"internalType": "address",
							"name": "",
							"type": "address"
						},
						{
							"internalType": "uint256",
							"name": "",
							"type": "uint256"
						},
						{
							"internalType": "bytes",
							"name": "",
							"type": "bytes"
						}
					],
					"name": "onERC721Received",
					"outputs": [
						{
							"internalType": "bytes4",
							"name": "",
							"type": "bytes4"
						}
					],
					"stateMutability": "view",
					"type": "function"
				},
				{
					"inputs": [
						{
							"internalType": "uint256",
							"name": "_tokenId",
							"type": "uint256"
						}
					],
					"name": "removeLiquidity",
					"outputs": [
						{
							"internalType": "uint256",
							"name": "amount0",
							"type": "uint256"
						},
						{
							"internalType": "uint256",
							"name": "amount1",
							"type": "uint256"
						}
					],
					"stateMutability": "nonpayable",
					"type": "function"
				},
				{
					"inputs": [],
					"name": "reserve0",
					"outputs": [
						{
							"internalType": "uint256",
							"name": "",
							"type": "uint256"
						}
					],
					"stateMutability": "view",
					"type": "function"
				},
				{
					"inputs": [],
					"name": "reserve1",
					"outputs": [
						{
							"internalType": "uint256",
							"name": "",
							"type": "uint256"
						}
					],
					"stateMutability": "view",
					"type": "function"
				},
				{
					"inputs": [
						{
							"internalType": "bytes4",
							"name": "interfaceID",
							"type": "bytes4"
						}
					],
					"name": "supportsInterface",
					"outputs": [
						{
							"internalType": "bool",
							"name": "",
							"type": "bool"
						}
					],
					"stateMutability": "pure",
					"type": "function"
				},
				{
					"inputs": [
						{
							"internalType": "address",
							"name": "_tokenIn",
							"type": "address"
						},
						{
							"internalType": "uint256",
							"name": "_amountIn",
							"type": "uint256"
						}
					],
					"name": "swap",
					"outputs": [
						{
							"internalType": "uint256",
							"name": "amountOut",
							"type": "uint256"
						}
					],
					"stateMutability": "nonpayable",
					"type": "function"
				},
				{
					"inputs": [],
					"name": "token0",
					"outputs": [
						{
							"internalType": "contract IERC20",
							"name": "",
							"type": "address"
						}
					],
					"stateMutability": "view",
					"type": "function"
				},
				{
					"inputs": [],
					"name": "token1",
					"outputs": [
						{
							"internalType": "contract IERC20",
							"name": "",
							"type": "address"
						}
					],
					"stateMutability": "view",
					"type": "function"
				},
				{
					"inputs": [],
					"name": "totalFee0",
					"outputs": [
						{
							"internalType": "uint256",
							"name": "",
							"type": "uint256"
						}
					],
					"stateMutability": "view",
					"type": "function"
				},
				{
					"inputs": [],
					"name": "totalFee1",
					"outputs": [
						{
							"internalType": "uint256",
							"name": "",
							"type": "uint256"
						}
					],
					"stateMutability": "view",
					"type": "function"
				},
				{
					"inputs": [],
					"name": "totalSupply",
					"outputs": [
						{
							"internalType": "uint256",
							"name": "",
							"type": "uint256"
						}
					],
					"stateMutability": "view",
					"type": "function"
				}
			],
			"devdoc": {
				"kind": "dev",
				"methods": {},
				"version": 1
			},
			"evm": {
				"assembly": "    /* \"TVNProject/TVNLmPool/TVNLmPool.sol\":364:7076  contract TVNLmPool {... */\n  mstore(0x40, 0xc0)\n    /* \"TVNProject/TVNLmPool/TVNLmPool.sol\":885:1175  constructor(... */\n  callvalue\n  dup1\n  iszero\n  tag_1\n  jumpi\n  0x00\n  dup1\n  revert\ntag_1:\n  pop\n  mload(0x40)\n  sub(codesize, bytecodeSize)\n  dup1\n  bytecodeSize\n  dup4\n  codecopy\n  dup2\n  dup2\n  add\n  0x40\n  mstore\n  dup2\n  add\n  swap1\n  tag_2\n  swap2\n  swap1\n  tag_3\n  jump\t// in\ntag_2:\n    /* \"TVNProject/TVNLmPool/TVNLmPool.sol\":1038:1045  _token0 */\n  dup4\n    /* \"TVNProject/TVNLmPool/TVNLmPool.sol\":1022:1046  token0 = IERC20(_token0) */\n  0xffffffffffffffffffffffffffffffffffffffff\n  and\n  0x80\n  dup2\n  0xffffffffffffffffffffffffffffffffffffffff\n  and\n  dup2\n  mstore\n  pop\n  pop\n    /* \"TVNProject/TVNLmPool/TVNLmPool.sol\":1072:1079  _token1 */\n  dup3\n    /* \"TVNProject/TVNLmPool/TVNLmPool.sol\":1056:1080  token1 = IERC20(_token1) */\n  0xffffffffffffffffffffffffffffffffffffffff\n  and\n  0xa0\n  dup2\n  0xffffffffffffffffffffffffffffffffffffffff\n  and\n  dup2\n  mstore\n  pop\n  pop\n    /* \"TVNProject/TVNLmPool/TVNLmPool.sol\":1128:1147  _NFTPositionManager */\n  dup2\n    /* \"TVNProject/TVNLmPool/TVNLmPool.sol\":1090:1108  NFTPositionManager */\n  0x00\n  dup1\n    /* \"TVNProject/TVNLmPool/TVNLmPool.sol\":1090:1148  NFTPositionManager = IPositionManager(_NFTPositionManager) */\n  0x0100\n  exp\n  dup2\n  sload\n  dup2\n  0xffffffffffffffffffffffffffffffffffffffff\n  mul\n  not\n  and\n  swap1\n  dup4\n  0xffffffffffffffffffffffffffffffffffffffff\n  and\n  mul\n  or\n  swap1\n  sstore\n  pop\n    /* \"TVNProject/TVNLmPool/TVNLmPool.sol\":1164:1168  _fee */\n  dup1\n    /* \"TVNProject/TVNLmPool/TVNLmPool.sol\":1158:1161  fee */\n  0x03\n    /* \"TVNProject/TVNLmPool/TVNLmPool.sol\":1158:1168  fee = _fee */\n  dup2\n  swap1\n  sstore\n  pop\n    /* \"TVNProject/TVNLmPool/TVNLmPool.sol\":885:1175  constructor(... */\n  pop\n  pop\n  pop\n  pop\n    /* \"TVNProject/TVNLmPool/TVNLmPool.sol\":364:7076  contract TVNLmPool {... */\n  jump(tag_6)\n    /* \"#utility.yul\":88:205   */\ntag_8:\n    /* \"#utility.yul\":197:198   */\n  0x00\n    /* \"#utility.yul\":194:195   */\n  dup1\n    /* \"#utility.yul\":187:199   */\n  revert\n    /* \"#utility.yul\":334:460   */\ntag_10:\n    /* \"#utility.yul\":371:378   */\n  0x00\n    /* \"#utility.yul\":411:453   */\n  0xffffffffffffffffffffffffffffffffffffffff\n    /* \"#utility.yul\":404:409   */\n  dup3\n    /* \"#utility.yul\":400:454   */\n  and\n    /* \"#utility.yul\":389:454   */\n  swap1\n  pop\n    /* \"#utility.yul\":334:460   */\n  swap2\n  swap1\n  pop\n  jump\t// out\n    /* \"#utility.yul\":466:562   */\ntag_11:\n    /* \"#utility.yul\":503:510   */\n  0x00\n    /* \"#utility.yul\":532:556   */\n  tag_23\n    /* \"#utility.yul\":550:555   */\n  dup3\n    /* \"#utility.yul\":532:556   */\n  tag_10\n  jump\t// in\ntag_23:\n    /* \"#utility.yul\":521:556   */\n  swap1\n  pop\n    /* \"#utility.yul\":466:562   */\n  swap2\n  swap1\n  pop\n  jump\t// out\n    /* \"#utility.yul\":568:690   */\ntag_12:\n    /* \"#utility.yul\":641:665   */\n  tag_25\n    /* \"#utility.yul\":659:664   */\n  dup2\n    /* \"#utility.yul\":641:665   */\n  tag_11\n  jump\t// in\ntag_25:\n    /* \"#utility.yul\":634:639   */\n  dup2\n    /* \"#utility.yul\":631:666   */\n  eq\n    /* \"#utility.yul\":621:684   */\n  tag_26\n  jumpi\n    /* \"#utility.yul\":680:681   */\n  0x00\n    /* \"#utility.yul\":677:678   */\n  dup1\n    /* \"#utility.yul\":670:682   */\n  revert\n    /* \"#utility.yul\":621:684   */\ntag_26:\n    /* \"#utility.yul\":568:690   */\n  pop\n  jump\t// out\n    /* \"#utility.yul\":696:839   */\ntag_13:\n    /* \"#utility.yul\":753:758   */\n  0x00\n    /* \"#utility.yul\":784:790   */\n  dup2\n    /* \"#utility.yul\":778:791   */\n  mload\n    /* \"#utility.yul\":769:791   */\n  swap1\n  pop\n    /* \"#utility.yul\":800:833   */\n  tag_28\n    /* \"#utility.yul\":827:832   */\n  dup2\n    /* \"#utility.yul\":800:833   */\n  tag_12\n  jump\t// in\ntag_28:\n    /* \"#utility.yul\":696:839   */\n  swap3\n  swap2\n  pop\n  pop\n  jump\t// out\n    /* \"#utility.yul\":845:922   */\ntag_14:\n    /* \"#utility.yul\":882:889   */\n  0x00\n    /* \"#utility.yul\":911:916   */\n  dup2\n    /* \"#utility.yul\":900:916   */\n  swap1\n  pop\n    /* \"#utility.yul\":845:922   */\n  swap2\n  swap1\n  pop\n  jump\t// out\n    /* \"#utility.yul\":928:1050   */\ntag_15:\n    /* \"#utility.yul\":1001:1025   */\n  tag_31\n    /* \"#utility.yul\":1019:1024   */\n  dup2\n    /* \"#utility.yul\":1001:1025   */\n  tag_14\n  jump\t// in\ntag_31:\n    /* \"#utility.yul\":994:999   */\n  dup2\n    /* \"#utility.yul\":991:1026   */\n  eq\n    /* \"#utility.yul\":981:1044   */\n  tag_32\n  jumpi\n    /* \"#utility.yul\":1040:1041   */\n  0x00\n    /* \"#utility.yul\":1037:1038   */\n  dup1\n    /* \"#utility.yul\":1030:1042   */\n  revert\n    /* \"#utility.yul\":981:1044   */\ntag_32:\n    /* \"#utility.yul\":928:1050   */\n  pop\n  jump\t// out\n    /* \"#utility.yul\":1056:1199   */\ntag_16:\n    /* \"#utility.yul\":1113:1118   */\n  0x00\n    /* \"#utility.yul\":1144:1150   */\n  dup2\n    /* \"#utility.yul\":1138:1151   */\n  mload\n    /* \"#utility.yul\":1129:1151   */\n  swap1\n  pop\n    /* \"#utility.yul\":1160:1193   */\n  tag_34\n    /* \"#utility.yul\":1187:1192   */\n  dup2\n    /* \"#utility.yul\":1160:1193   */\n  tag_15\n  jump\t// in\ntag_34:\n    /* \"#utility.yul\":1056:1199   */\n  swap3\n  swap2\n  pop\n  pop\n  jump\t// out\n    /* \"#utility.yul\":1205:2025   */\ntag_3:\n    /* \"#utility.yul\":1302:1308   */\n  0x00\n    /* \"#utility.yul\":1310:1316   */\n  dup1\n    /* \"#utility.yul\":1318:1324   */\n  0x00\n    /* \"#utility.yul\":1326:1332   */\n  dup1\n    /* \"#utility.yul\":1375:1378   */\n  0x80\n    /* \"#utility.yul\":1363:1372   */\n  dup6\n    /* \"#utility.yul\":1354:1361   */\n  dup8\n    /* \"#utility.yul\":1350:1373   */\n  sub\n    /* \"#utility.yul\":1346:1379   */\n  slt\n    /* \"#utility.yul\":1343:1463   */\n  iszero\n  tag_36\n  jumpi\n    /* \"#utility.yul\":1382:1461   */\n  tag_37\n  tag_8\n  jump\t// in\ntag_37:\n    /* \"#utility.yul\":1343:1463   */\ntag_36:\n    /* \"#utility.yul\":1502:1503   */\n  0x00\n    /* \"#utility.yul\":1527:1591   */\n  tag_38\n    /* \"#utility.yul\":1583:1590   */\n  dup8\n    /* \"#utility.yul\":1574:1580   */\n  dup3\n    /* \"#utility.yul\":1563:1572   */\n  dup9\n    /* \"#utility.yul\":1559:1581   */\n  add\n    /* \"#utility.yul\":1527:1591   */\n  tag_13\n  jump\t// in\ntag_38:\n    /* \"#utility.yul\":1517:1591   */\n  swap5\n  pop\n    /* \"#utility.yul\":1473:1601   */\n  pop\n    /* \"#utility.yul\":1640:1642   */\n  0x20\n    /* \"#utility.yul\":1666:1730   */\n  tag_39\n    /* \"#utility.yul\":1722:1729   */\n  dup8\n    /* \"#utility.yul\":1713:1719   */\n  dup3\n    /* \"#utility.yul\":1702:1711   */\n  dup9\n    /* \"#utility.yul\":1698:1720   */\n  add\n    /* \"#utility.yul\":1666:1730   */\n  tag_13\n  jump\t// in\ntag_39:\n    /* \"#utility.yul\":1656:1730   */\n  swap4\n  pop\n    /* \"#utility.yul\":1611:1740   */\n  pop\n    /* \"#utility.yul\":1779:1781   */\n  0x40\n    /* \"#utility.yul\":1805:1869   */\n  tag_40\n    /* \"#utility.yul\":1861:1868   */\n  dup8\n    /* \"#utility.yul\":1852:1858   */\n  dup3\n    /* \"#utility.yul\":1841:1850   */\n  dup9\n    /* \"#utility.yul\":1837:1859   */\n  add\n    /* \"#utility.yul\":1805:1869   */\n  tag_13\n  jump\t// in\ntag_40:\n    /* \"#utility.yul\":1795:1869   */\n  swap3\n  pop\n    /* \"#utility.yul\":1750:1879   */\n  pop\n    /* \"#utility.yul\":1918:1920   */\n  0x60\n    /* \"#utility.yul\":1944:2008   */\n  tag_41\n    /* \"#utility.yul\":2000:2007   */\n  dup8\n    /* \"#utility.yul\":1991:1997   */\n  dup3\n    /* \"#utility.yul\":1980:1989   */\n  dup9\n    /* \"#utility.yul\":1976:1998   */\n  add\n    /* \"#utility.yul\":1944:2008   */\n  tag_16\n  jump\t// in\ntag_41:\n    /* \"#utility.yul\":1934:2008   */\n  swap2\n  pop\n    /* \"#utility.yul\":1889:2018   */\n  pop\n    /* \"#utility.yul\":1205:2025   */\n  swap3\n  swap6\n  swap2\n  swap5\n  pop\n  swap3\n  pop\n  jump\t// out\n    /* \"TVNProject/TVNLmPool/TVNLmPool.sol\":364:7076  contract TVNLmPool {... */\ntag_6:\n  mload(0x80)\n  mload(0xa0)\n  codecopy(0x00, dataOffset(sub_0), dataSize(sub_0))\n  0x00\n  assignImmutable(\"0xfc9b319535b4537e1f2e48ab66fc9bab155dd55a5a7551380dca44f719741359\")\n  0x00\n  assignImmutable(\"0x6f613263a27c07dcf0f796f1c8181099a92e5eb2eae8c3bec65733e2d5818bb8\")\n  return(0x00, dataSize(sub_0))\nstop\n\nsub_0: assembly {\n        /* \"TVNProject/TVNLmPool/TVNLmPool.sol\":364:7076  contract TVNLmPool {... */\n      mstore(0x40, 0x80)\n      callvalue\n      dup1\n      iszero\n      tag_1\n      jumpi\n      0x00\n      dup1\n      revert\n    tag_1:\n      pop\n      jumpi(tag_2, lt(calldatasize, 0x04))\n      shr(0xe0, calldataload(0x00))\n      dup1\n      0x733baa6b\n      gt\n      tag_19\n      jumpi\n      dup1\n      0x9cd441da\n      gt\n      tag_20\n      jumpi\n      dup1\n      0x9cd441da\n      eq\n      tag_15\n      jumpi\n      dup1\n      0xd004f0f7\n      eq\n      tag_16\n      jumpi\n      dup1\n      0xd21220a7\n      eq\n      tag_17\n      jumpi\n      dup1\n      0xddca3f43\n      eq\n      tag_18\n      jumpi\n      jump(tag_2)\n    tag_20:\n      dup1\n      0x733baa6b\n      eq\n      tag_11\n      jumpi\n      dup1\n      0x78f0c735\n      eq\n      tag_12\n      jumpi\n      dup1\n      0x90256e54\n      eq\n      tag_13\n      jumpi\n      dup1\n      0x9c8f9f23\n      eq\n      tag_14\n      jumpi\n      jump(tag_2)\n    tag_19:\n      dup1\n      0x18160ddd\n      gt\n      tag_21\n      jumpi\n      dup1\n      0x18160ddd\n      eq\n      tag_7\n      jumpi\n      dup1\n      0x443cb4bc\n      eq\n      tag_8\n      jumpi\n      dup1\n      0x5a76f25e\n      eq\n      tag_9\n      jumpi\n      dup1\n      0x70a08231\n      eq\n      tag_10\n      jumpi\n      jump(tag_2)\n    tag_21:\n      dup1\n      0x01ffc9a7\n      eq\n      tag_3\n      jumpi\n      dup1\n      0x09feb954\n      eq\n      tag_4\n      jumpi\n      dup1\n      0x0dfe1681\n      eq\n      tag_5\n      jumpi\n      dup1\n      0x150b7a02\n      eq\n      tag_6\n      jumpi\n    tag_2:\n      0x00\n      dup1\n      revert\n        /* \"TVNProject/TVNLmPool/TVNLmPool.sol\":6838:7074  function supportsInterface(bytes4 interfaceID)... */\n    tag_3:\n      tag_22\n      0x04\n      dup1\n      calldatasize\n      sub\n      dup2\n      add\n      swap1\n      tag_23\n      swap2\n      swap1\n      tag_24\n      jump\t// in\n    tag_23:\n      tag_25\n      jump\t// in\n    tag_22:\n      mload(0x40)\n      tag_26\n      swap2\n      swap1\n      tag_27\n      jump\t// in\n    tag_26:\n      mload(0x40)\n      dup1\n      swap2\n      sub\n      swap1\n      return\n        /* \"TVNProject/TVNLmPool/TVNLmPool.sol\":510:552  IPositionManager public NFTPositionManager */\n    tag_4:\n      tag_28\n      tag_29\n      jump\t// in\n    tag_28:\n      mload(0x40)\n      tag_30\n      swap2\n      swap1\n      tag_31\n      jump\t// in\n    tag_30:\n      mload(0x40)\n      dup1\n      swap2\n      sub\n      swap1\n      return\n        /* \"TVNProject/TVNLmPool/TVNLmPool.sol\":438:468  IERC20 public immutable token0 */\n    tag_5:\n      tag_32\n      tag_33\n      jump\t// in\n    tag_32:\n      mload(0x40)\n      tag_34\n      swap2\n      swap1\n      tag_35\n      jump\t// in\n    tag_34:\n      mload(0x40)\n      dup1\n      swap2\n      sub\n      swap1\n      return\n        /* \"TVNProject/TVNLmPool/TVNLmPool.sol\":6640:6832  function onERC721Received(... */\n    tag_6:\n      tag_36\n      0x04\n      dup1\n      calldatasize\n      sub\n      dup2\n      add\n      swap1\n      tag_37\n      swap2\n      swap1\n      tag_38\n      jump\t// in\n    tag_37:\n      tag_39\n      jump\t// in\n    tag_36:\n      mload(0x40)\n      tag_40\n      swap2\n      swap1\n      tag_41\n      jump\t// in\n    tag_40:\n      mload(0x40)\n      dup1\n      swap2\n      sub\n      swap1\n      return\n        /* \"TVNProject/TVNLmPool/TVNLmPool.sol\":775:801  uint256 public totalSupply */\n    tag_7:\n      tag_42\n      tag_43\n      jump\t// in\n    tag_42:\n      mload(0x40)\n      tag_44\n      swap2\n      swap1\n      tag_45\n      jump\t// in\n    tag_44:\n      mload(0x40)\n      dup1\n      swap2\n      sub\n      swap1\n      return\n        /* \"TVNProject/TVNLmPool/TVNLmPool.sol\":612:635  uint256 public reserve0 */\n    tag_8:\n      tag_46\n      tag_47\n      jump\t// in\n    tag_46:\n      mload(0x40)\n      tag_48\n      swap2\n      swap1\n      tag_45\n      jump\t// in\n    tag_48:\n      mload(0x40)\n      dup1\n      swap2\n      sub\n      swap1\n      return\n        /* \"TVNProject/TVNLmPool/TVNLmPool.sol\":641:664  uint256 public reserve1 */\n    tag_9:\n      tag_49\n      tag_50\n      jump\t// in\n    tag_49:\n      mload(0x40)\n      tag_51\n      swap2\n      swap1\n      tag_45\n      jump\t// in\n    tag_51:\n      mload(0x40)\n      dup1\n      swap2\n      sub\n      swap1\n      return\n        /* \"TVNProject/TVNLmPool/TVNLmPool.sol\":834:878  mapping(address => uint256) public balanceOf */\n    tag_10:\n      tag_52\n      0x04\n      dup1\n      calldatasize\n      sub\n      dup2\n      add\n      swap1\n      tag_53\n      swap2\n      swap1\n      tag_54\n      jump\t// in\n    tag_53:\n      tag_55\n      jump\t// in\n    tag_52:\n      mload(0x40)\n      tag_56\n      swap2\n      swap1\n      tag_45\n      jump\t// in\n    tag_56:\n      mload(0x40)\n      dup1\n      swap2\n      sub\n      swap1\n      return\n        /* \"TVNProject/TVNLmPool/TVNLmPool.sol\":3178:3458  function _quote(uint256 _amount0) external view returns (uint256) {... */\n    tag_11:\n      tag_57\n      0x04\n      dup1\n      calldatasize\n      sub\n      dup2\n      add\n      swap1\n      tag_58\n      swap2\n      swap1\n      tag_59\n      jump\t// in\n    tag_58:\n      tag_60\n      jump\t// in\n    tag_57:\n      mload(0x40)\n      tag_61\n      swap2\n      swap1\n      tag_45\n      jump\t// in\n    tag_61:\n      mload(0x40)\n      dup1\n      swap2\n      sub\n      swap1\n      return\n        /* \"TVNProject/TVNLmPool/TVNLmPool.sol\":744:768  uint256 public totalFee1 */\n    tag_12:\n      tag_62\n      tag_63\n      jump\t// in\n    tag_62:\n      mload(0x40)\n      tag_64\n      swap2\n      swap1\n      tag_45\n      jump\t// in\n    tag_64:\n      mload(0x40)\n      dup1\n      swap2\n      sub\n      swap1\n      return\n        /* \"TVNProject/TVNLmPool/TVNLmPool.sol\":714:738  uint256 public totalFee0 */\n    tag_13:\n      tag_65\n      tag_66\n      jump\t// in\n    tag_65:\n      mload(0x40)\n      tag_67\n      swap2\n      swap1\n      tag_45\n      jump\t// in\n    tag_67:\n      mload(0x40)\n      dup1\n      swap2\n      sub\n      swap1\n      return\n        /* \"TVNProject/TVNLmPool/TVNLmPool.sol\":5043:6190  function removeLiquidity(uint256 _tokenId)... */\n    tag_14:\n      tag_68\n      0x04\n      dup1\n      calldatasize\n      sub\n      dup2\n      add\n      swap1\n      tag_69\n      swap2\n      swap1\n      tag_59\n      jump\t// in\n    tag_69:\n      tag_70\n      jump\t// in\n    tag_68:\n      mload(0x40)\n      tag_71\n      swap3\n      swap2\n      swap1\n      tag_72\n      jump\t// in\n    tag_71:\n      mload(0x40)\n      dup1\n      swap2\n      sub\n      swap1\n      return\n        /* \"TVNProject/TVNLmPool/TVNLmPool.sol\":3464:5037  function addLiquidity(uint256 _amount0, uint256 _amount1)... */\n    tag_15:\n      tag_73\n      0x04\n      dup1\n      calldatasize\n      sub\n      dup2\n      add\n      swap1\n      tag_74\n      swap2\n      swap1\n      tag_75\n      jump\t// in\n    tag_74:\n      tag_76\n      jump\t// in\n    tag_73:\n      mload(0x40)\n      tag_77\n      swap2\n      swap1\n      tag_45\n      jump\t// in\n    tag_77:\n      mload(0x40)\n      dup1\n      swap2\n      sub\n      swap1\n      return\n        /* \"TVNProject/TVNLmPool/TVNLmPool.sol\":1587:3172  function swap(address _tokenIn, uint256 _amountIn)... */\n    tag_16:\n      tag_78\n      0x04\n      dup1\n      calldatasize\n      sub\n      dup2\n      add\n      swap1\n      tag_79\n      swap2\n      swap1\n      tag_80\n      jump\t// in\n    tag_79:\n      tag_81\n      jump\t// in\n    tag_78:\n      mload(0x40)\n      tag_82\n      swap2\n      swap1\n      tag_45\n      jump\t// in\n    tag_82:\n      mload(0x40)\n      dup1\n      swap2\n      sub\n      swap1\n      return\n        /* \"TVNProject/TVNLmPool/TVNLmPool.sol\":474:504  IERC20 public immutable token1 */\n    tag_17:\n      tag_83\n      tag_84\n      jump\t// in\n    tag_83:\n      mload(0x40)\n      tag_85\n      swap2\n      swap1\n      tag_35\n      jump\t// in\n    tag_85:\n      mload(0x40)\n      dup1\n      swap2\n      sub\n      swap1\n      return\n        /* \"TVNProject/TVNLmPool/TVNLmPool.sol\":670:688  uint256 public fee */\n    tag_18:\n      tag_86\n      tag_87\n      jump\t// in\n    tag_86:\n      mload(0x40)\n      tag_88\n      swap2\n      swap1\n      tag_45\n      jump\t// in\n    tag_88:\n      mload(0x40)\n      dup1\n      swap2\n      sub\n      swap1\n      return\n        /* \"TVNProject/TVNLmPool/TVNLmPool.sol\":6838:7074  function supportsInterface(bytes4 interfaceID)... */\n    tag_25:\n        /* \"TVNProject/TVNLmPool/TVNLmPool.sol\":6932:6936  bool */\n      0x00\n        /* \"TVNProject/TVNLmPool/TVNLmPool.sol\":6986:7011  type(IERC721).interfaceId */\n      0x80ac58cd00000000000000000000000000000000000000000000000000000000\n        /* \"TVNProject/TVNLmPool/TVNLmPool.sol\":6971:7011  interfaceID == type(IERC721).interfaceId */\n      not(0xffffffffffffffffffffffffffffffffffffffffffffffffffffffff)\n      and\n        /* \"TVNProject/TVNLmPool/TVNLmPool.sol\":6971:6982  interfaceID */\n      dup3\n        /* \"TVNProject/TVNLmPool/TVNLmPool.sol\":6971:7011  interfaceID == type(IERC721).interfaceId */\n      not(0xffffffffffffffffffffffffffffffffffffffffffffffffffffffff)\n      and\n      eq\n        /* \"TVNProject/TVNLmPool/TVNLmPool.sol\":6971:7067  interfaceID == type(IERC721).interfaceId ||... */\n      dup1\n      tag_90\n      jumpi\n      pop\n        /* \"TVNProject/TVNLmPool/TVNLmPool.sol\":7042:7067  type(IERC165).interfaceId */\n      0x01ffc9a700000000000000000000000000000000000000000000000000000000\n        /* \"TVNProject/TVNLmPool/TVNLmPool.sol\":7027:7067  interfaceID == type(IERC165).interfaceId */\n      not(0xffffffffffffffffffffffffffffffffffffffffffffffffffffffff)\n      and\n        /* \"TVNProject/TVNLmPool/TVNLmPool.sol\":7027:7038  interfaceID */\n      dup3\n        /* \"TVNProject/TVNLmPool/TVNLmPool.sol\":7027:7067  interfaceID == type(IERC165).interfaceId */\n      not(0xffffffffffffffffffffffffffffffffffffffffffffffffffffffff)\n      and\n      eq\n        /* \"TVNProject/TVNLmPool/TVNLmPool.sol\":6971:7067  interfaceID == type(IERC721).interfaceId ||... */\n    tag_90:\n        /* \"TVNProject/TVNLmPool/TVNLmPool.sol\":6952:7067  return... */\n      swap1\n      pop\n        /* \"TVNProject/TVNLmPool/TVNLmPool.sol\":6838:7074  function supportsInterface(bytes4 interfaceID)... */\n      swap2\n      swap1\n      pop\n      jump\t// out\n        /* \"TVNProject/TVNLmPool/TVNLmPool.sol\":510:552  IPositionManager public NFTPositionManager */\n    tag_29:\n      0x00\n      dup1\n      sload\n      swap1\n      0x0100\n      exp\n      swap1\n      div\n      0xffffffffffffffffffffffffffffffffffffffff\n      and\n      dup2\n      jump\t// out\n        /* \"TVNProject/TVNLmPool/TVNLmPool.sol\":438:468  IERC20 public immutable token0 */\n    tag_33:\n      immutable(\"0x6f613263a27c07dcf0f796f1c8181099a92e5eb2eae8c3bec65733e2d5818bb8\")\n      dup2\n      jump\t// out\n        /* \"TVNProject/TVNLmPool/TVNLmPool.sol\":6640:6832  function onERC721Received(... */\n    tag_39:\n        /* \"TVNProject/TVNLmPool/TVNLmPool.sol\":6770:6776  bytes4 */\n      0x00\n        /* \"TVNProject/TVNLmPool/TVNLmPool.sol\":6795:6825  this.onERC721Received.selector */\n      shl(0xe0, 0x150b7a02)\n        /* \"TVNProject/TVNLmPool/TVNLmPool.sol\":6788:6825  return this.onERC721Received.selector */\n      swap1\n      pop\n        /* \"TVNProject/TVNLmPool/TVNLmPool.sol\":6640:6832  function onERC721Received(... */\n      swap6\n      swap5\n      pop\n      pop\n      pop\n      pop\n      pop\n      jump\t// out\n        /* \"TVNProject/TVNLmPool/TVNLmPool.sol\":775:801  uint256 public totalSupply */\n    tag_43:\n      sload(0x06)\n      dup2\n      jump\t// out\n        /* \"TVNProject/TVNLmPool/TVNLmPool.sol\":612:635  uint256 public reserve0 */\n    tag_47:\n      sload(0x01)\n      dup2\n      jump\t// out\n        /* \"TVNProject/TVNLmPool/TVNLmPool.sol\":641:664  uint256 public reserve1 */\n    tag_50:\n      sload(0x02)\n      dup2\n      jump\t// out\n        /* \"TVNProject/TVNLmPool/TVNLmPool.sol\":834:878  mapping(address => uint256) public balanceOf */\n    tag_55:\n      mstore(0x20, 0x07)\n      dup1\n      0x00\n      mstore\n      keccak256(0x00, 0x40)\n      0x00\n      swap2\n      pop\n      swap1\n      pop\n      sload\n      dup2\n      jump\t// out\n        /* \"TVNProject/TVNLmPool/TVNLmPool.sol\":3178:3458  function _quote(uint256 _amount0) external view returns (uint256) {... */\n    tag_60:\n        /* \"TVNProject/TVNLmPool/TVNLmPool.sol\":3235:3242  uint256 */\n      0x00\n        /* \"TVNProject/TVNLmPool/TVNLmPool.sol\":3254:3276  uint256 modifyReserve0 */\n      dup1\n        /* \"TVNProject/TVNLmPool/TVNLmPool.sol\":3290:3299  totalFee0 */\n      sload(0x04)\n        /* \"TVNProject/TVNLmPool/TVNLmPool.sol\":3279:3287  reserve0 */\n      sload(0x01)\n        /* \"TVNProject/TVNLmPool/TVNLmPool.sol\":3279:3299  reserve0 - totalFee0 */\n      tag_93\n      swap2\n      swap1\n      tag_94\n      jump\t// in\n    tag_93:\n        /* \"TVNProject/TVNLmPool/TVNLmPool.sol\":3254:3299  uint256 modifyReserve0 = reserve0 - totalFee0 */\n      swap1\n      pop\n        /* \"TVNProject/TVNLmPool/TVNLmPool.sol\":3309:3331  uint256 modifyReserve1 */\n      0x00\n        /* \"TVNProject/TVNLmPool/TVNLmPool.sol\":3345:3354  totalFee1 */\n      sload(0x05)\n        /* \"TVNProject/TVNLmPool/TVNLmPool.sol\":3334:3342  reserve1 */\n      sload(0x02)\n        /* \"TVNProject/TVNLmPool/TVNLmPool.sol\":3334:3354  reserve1 - totalFee1 */\n      tag_95\n      swap2\n      swap1\n      tag_94\n      jump\t// in\n    tag_95:\n        /* \"TVNProject/TVNLmPool/TVNLmPool.sol\":3309:3354  uint256 modifyReserve1 = reserve1 - totalFee1 */\n      swap1\n      pop\n        /* \"TVNProject/TVNLmPool/TVNLmPool.sol\":3365:3380  uint256 amount1 */\n      0x00\n        /* \"TVNProject/TVNLmPool/TVNLmPool.sol\":3413:3427  modifyReserve0 */\n      dup3\n        /* \"TVNProject/TVNLmPool/TVNLmPool.sol\":3401:3409  _amount0 */\n      dup6\n        /* \"TVNProject/TVNLmPool/TVNLmPool.sol\":3384:3398  modifyReserve1 */\n      dup4\n        /* \"TVNProject/TVNLmPool/TVNLmPool.sol\":3384:3409  modifyReserve1 * _amount0 */\n      tag_96\n      swap2\n      swap1\n      tag_97\n      jump\t// in\n    tag_96:\n        /* \"TVNProject/TVNLmPool/TVNLmPool.sol\":3383:3427  (modifyReserve1 * _amount0) / modifyReserve0 */\n      tag_98\n      swap2\n      swap1\n      tag_99\n      jump\t// in\n    tag_98:\n        /* \"TVNProject/TVNLmPool/TVNLmPool.sol\":3365:3427  uint256 amount1 = (modifyReserve1 * _amount0) / modifyReserve0 */\n      swap1\n      pop\n        /* \"TVNProject/TVNLmPool/TVNLmPool.sol\":3444:3451  amount1 */\n      dup1\n        /* \"TVNProject/TVNLmPool/TVNLmPool.sol\":3437:3451  return amount1 */\n      swap4\n      pop\n      pop\n      pop\n      pop\n        /* \"TVNProject/TVNLmPool/TVNLmPool.sol\":3178:3458  function _quote(uint256 _amount0) external view returns (uint256) {... */\n      swap2\n      swap1\n      pop\n      jump\t// out\n        /* \"TVNProject/TVNLmPool/TVNLmPool.sol\":744:768  uint256 public totalFee1 */\n    tag_63:\n      sload(0x05)\n      dup2\n      jump\t// out\n        /* \"TVNProject/TVNLmPool/TVNLmPool.sol\":714:738  uint256 public totalFee0 */\n    tag_66:\n      sload(0x04)\n      dup2\n      jump\t// out\n        /* \"TVNProject/TVNLmPool/TVNLmPool.sol\":5043:6190  function removeLiquidity(uint256 _tokenId)... */\n    tag_70:\n        /* \"TVNProject/TVNLmPool/TVNLmPool.sol\":5120:5135  uint256 amount0 */\n      0x00\n        /* \"TVNProject/TVNLmPool/TVNLmPool.sol\":5137:5152  uint256 amount1 */\n      dup1\n        /* \"TVNProject/TVNLmPool/TVNLmPool.sol\":5213:5231  NFTPositionManager */\n      0x00\n      dup1\n      sload\n      swap1\n      0x0100\n      exp\n      swap1\n      div\n      0xffffffffffffffffffffffffffffffffffffffff\n      and\n        /* \"TVNProject/TVNLmPool/TVNLmPool.sol\":5213:5248  NFTPositionManager.transferPosition */\n      0xffffffffffffffffffffffffffffffffffffffff\n      and\n      0x26908fa1\n        /* \"TVNProject/TVNLmPool/TVNLmPool.sol\":5262:5272  msg.sender */\n      caller\n        /* \"TVNProject/TVNLmPool/TVNLmPool.sol\":5294:5298  this */\n      address\n        /* \"TVNProject/TVNLmPool/TVNLmPool.sol\":5313:5321  _tokenId */\n      dup7\n        /* \"TVNProject/TVNLmPool/TVNLmPool.sol\":5213:5331  NFTPositionManager.transferPosition(... */\n      mload(0x40)\n      dup5\n      0xffffffff\n      and\n      0xe0\n      shl\n      dup2\n      mstore\n      0x04\n      add\n      tag_101\n      swap4\n      swap3\n      swap2\n      swap1\n      tag_102\n      jump\t// in\n    tag_101:\n      0x00\n      mload(0x40)\n      dup1\n      dup4\n      sub\n      dup2\n      0x00\n      dup8\n      dup1\n      extcodesize\n      iszero\n      dup1\n      iszero\n      tag_103\n      jumpi\n      0x00\n      dup1\n      revert\n    tag_103:\n      pop\n      gas\n      call\n      iszero\n      dup1\n      iszero\n      tag_105\n      jumpi\n      returndatasize\n      0x00\n      dup1\n      returndatacopy\n      revert(0x00, returndatasize)\n    tag_105:\n      pop\n      pop\n      pop\n      pop\n        /* \"TVNProject/TVNLmPool/TVNLmPool.sol\":5383:5398  uint256 _shares */\n      0x00\n        /* \"TVNProject/TVNLmPool/TVNLmPool.sol\":5401:5419  NFTPositionManager */\n      dup1\n      0x00\n      swap1\n      sload\n      swap1\n      0x0100\n      exp\n      swap1\n      div\n      0xffffffffffffffffffffffffffffffffffffffff\n      and\n        /* \"TVNProject/TVNLmPool/TVNLmPool.sol\":5401:5429  NFTPositionManager.positions */\n      0xffffffffffffffffffffffffffffffffffffffff\n      and\n      0x99fbab88\n        /* \"TVNProject/TVNLmPool/TVNLmPool.sol\":5430:5438  _tokenId */\n      dup6\n        /* \"TVNProject/TVNLmPool/TVNLmPool.sol\":5401:5439  NFTPositionManager.positions(_tokenId) */\n      mload(0x40)\n      dup3\n      0xffffffff\n      and\n      0xe0\n      shl\n      dup2\n      mstore\n      0x04\n      add\n      tag_106\n      swap2\n      swap1\n      tag_45\n      jump\t// in\n    tag_106:\n      0xe0\n      mload(0x40)\n      dup1\n      dup4\n      sub\n      dup2\n      0x00\n      dup8\n      gas\n      call\n      iszero\n      dup1\n      iszero\n      tag_108\n      jumpi\n      returndatasize\n      0x00\n      dup1\n      returndatacopy\n      revert(0x00, returndatasize)\n    tag_108:\n      pop\n      pop\n      pop\n      pop\n      mload(0x40)\n      returndatasize\n      not(0x1f)\n      0x1f\n      dup3\n      add\n      and\n      dup3\n      add\n      dup1\n      0x40\n      mstore\n      pop\n      dup2\n      add\n      swap1\n      tag_109\n      swap2\n      swap1\n      tag_110\n      jump\t// in\n    tag_109:\n        /* \"TVNProject/TVNLmPool/TVNLmPool.sol\":5401:5446  NFTPositionManager.positions(_tokenId).shares */\n      0x00\n      add\n      mload\n        /* \"TVNProject/TVNLmPool/TVNLmPool.sol\":5383:5446  uint256 _shares = NFTPositionManager.positions(_tokenId).shares */\n      swap1\n      pop\n        /* \"TVNProject/TVNLmPool/TVNLmPool.sol\":5552:5564  uint256 bal0 */\n      0x00\n        /* \"TVNProject/TVNLmPool/TVNLmPool.sol\":5567:5573  token0 */\n      immutable(\"0x6f613263a27c07dcf0f796f1c8181099a92e5eb2eae8c3bec65733e2d5818bb8\")\n        /* \"TVNProject/TVNLmPool/TVNLmPool.sol\":5567:5583  token0.balanceOf */\n      0xffffffffffffffffffffffffffffffffffffffff\n      and\n      0x70a08231\n        /* \"TVNProject/TVNLmPool/TVNLmPool.sol\":5592:5596  this */\n      address\n        /* \"TVNProject/TVNLmPool/TVNLmPool.sol\":5567:5598  token0.balanceOf(address(this)) */\n      mload(0x40)\n      dup3\n      0xffffffff\n      and\n      0xe0\n      shl\n      dup2\n      mstore\n      0x04\n      add\n      tag_111\n      swap2\n      swap1\n      tag_112\n      jump\t// in\n    tag_111:\n      0x20\n      mload(0x40)\n      dup1\n      dup4\n      sub\n      dup2\n      dup7\n      gas\n      staticcall\n      iszero\n      dup1\n      iszero\n      tag_114\n      jumpi\n      returndatasize\n      0x00\n      dup1\n      returndatacopy\n      revert(0x00, returndatasize)\n    tag_114:\n      pop\n      pop\n      pop\n      pop\n      mload(0x40)\n      returndatasize\n      not(0x1f)\n      0x1f\n      dup3\n      add\n      and\n      dup3\n      add\n      dup1\n      0x40\n      mstore\n      pop\n      dup2\n      add\n      swap1\n      tag_115\n      swap2\n      swap1\n      tag_116\n      jump\t// in\n    tag_115:\n        /* \"TVNProject/TVNLmPool/TVNLmPool.sol\":5552:5598  uint256 bal0 = token0.balanceOf(address(this)) */\n      swap1\n      pop\n        /* \"TVNProject/TVNLmPool/TVNLmPool.sol\":5608:5620  uint256 bal1 */\n      0x00\n        /* \"TVNProject/TVNLmPool/TVNLmPool.sol\":5623:5629  token1 */\n      immutable(\"0xfc9b319535b4537e1f2e48ab66fc9bab155dd55a5a7551380dca44f719741359\")\n        /* \"TVNProject/TVNLmPool/TVNLmPool.sol\":5623:5639  token1.balanceOf */\n      0xffffffffffffffffffffffffffffffffffffffff\n      and\n      0x70a08231\n        /* \"TVNProject/TVNLmPool/TVNLmPool.sol\":5648:5652  this */\n      address\n        /* \"TVNProject/TVNLmPool/TVNLmPool.sol\":5623:5654  token1.balanceOf(address(this)) */\n      mload(0x40)\n      dup3\n      0xffffffff\n      and\n      0xe0\n      shl\n      dup2\n      mstore\n      0x04\n      add\n      tag_117\n      swap2\n      swap1\n      tag_112\n      jump\t// in\n    tag_117:\n      0x20\n      mload(0x40)\n      dup1\n      dup4\n      sub\n      dup2\n      dup7\n      gas\n      staticcall\n      iszero\n      dup1\n      iszero\n      tag_119\n      jumpi\n      returndatasize\n      0x00\n      dup1\n      returndatacopy\n      revert(0x00, returndatasize)\n    tag_119:\n      pop\n      pop\n      pop\n      pop\n      mload(0x40)\n      returndatasize\n      not(0x1f)\n      0x1f\n      dup3\n      add\n      and\n      dup3\n      add\n      dup1\n      0x40\n      mstore\n      pop\n      dup2\n      add\n      swap1\n      tag_120\n      swap2\n      swap1\n      tag_116\n      jump\t// in\n    tag_120:\n        /* \"TVNProject/TVNLmPool/TVNLmPool.sol\":5608:5654  uint256 bal1 = token1.balanceOf(address(this)) */\n      swap1\n      pop\n        /* \"TVNProject/TVNLmPool/TVNLmPool.sol\":5694:5705  totalSupply */\n      sload(0x06)\n        /* \"TVNProject/TVNLmPool/TVNLmPool.sol\":5686:5690  bal0 */\n      dup3\n        /* \"TVNProject/TVNLmPool/TVNLmPool.sol\":5676:5683  _shares */\n      dup5\n        /* \"TVNProject/TVNLmPool/TVNLmPool.sol\":5676:5690  _shares * bal0 */\n      tag_121\n      swap2\n      swap1\n      tag_97\n      jump\t// in\n    tag_121:\n        /* \"TVNProject/TVNLmPool/TVNLmPool.sol\":5675:5705  (_shares * bal0) / totalSupply */\n      tag_122\n      swap2\n      swap1\n      tag_99\n      jump\t// in\n    tag_122:\n        /* \"TVNProject/TVNLmPool/TVNLmPool.sol\":5665:5705  amount0 = (_shares * bal0) / totalSupply */\n      swap5\n      pop\n        /* \"TVNProject/TVNLmPool/TVNLmPool.sol\":5744:5755  totalSupply */\n      sload(0x06)\n        /* \"TVNProject/TVNLmPool/TVNLmPool.sol\":5736:5740  bal1 */\n      dup2\n        /* \"TVNProject/TVNLmPool/TVNLmPool.sol\":5726:5733  _shares */\n      dup5\n        /* \"TVNProject/TVNLmPool/TVNLmPool.sol\":5726:5740  _shares * bal1 */\n      tag_123\n      swap2\n      swap1\n      tag_97\n      jump\t// in\n    tag_123:\n        /* \"TVNProject/TVNLmPool/TVNLmPool.sol\":5725:5755  (_shares * bal1) / totalSupply */\n      tag_124\n      swap2\n      swap1\n      tag_99\n      jump\t// in\n    tag_124:\n        /* \"TVNProject/TVNLmPool/TVNLmPool.sol\":5715:5755  amount1 = (_shares * bal1) / totalSupply */\n      swap4\n      pop\n        /* \"TVNProject/TVNLmPool/TVNLmPool.sol\":5783:5784  0 */\n      0x00\n        /* \"TVNProject/TVNLmPool/TVNLmPool.sol\":5773:5780  amount0 */\n      dup6\n        /* \"TVNProject/TVNLmPool/TVNLmPool.sol\":5773:5784  amount0 > 0 */\n      gt\n        /* \"TVNProject/TVNLmPool/TVNLmPool.sol\":5773:5799  amount0 > 0 && amount1 > 1 */\n      dup1\n      iszero\n      tag_125\n      jumpi\n      pop\n        /* \"TVNProject/TVNLmPool/TVNLmPool.sol\":5798:5799  1 */\n      0x01\n        /* \"TVNProject/TVNLmPool/TVNLmPool.sol\":5788:5795  amount1 */\n      dup5\n        /* \"TVNProject/TVNLmPool/TVNLmPool.sol\":5788:5799  amount1 > 1 */\n      gt\n        /* \"TVNProject/TVNLmPool/TVNLmPool.sol\":5773:5799  amount0 > 0 && amount1 > 1 */\n    tag_125:\n        /* \"TVNProject/TVNLmPool/TVNLmPool.sol\":5765:5826  require(amount0 > 0 && amount1 > 1, \"amount0 or amount1 = 0\") */\n      tag_126\n      jumpi\n      mload(0x40)\n      0x08c379a000000000000000000000000000000000000000000000000000000000\n      dup2\n      mstore\n      0x04\n      add\n      tag_127\n      swap1\n      tag_128\n      jump\t// in\n    tag_127:\n      mload(0x40)\n      dup1\n      swap2\n      sub\n      swap1\n      revert\n    tag_126:\n        /* \"TVNProject/TVNLmPool/TVNLmPool.sol\":5859:5885  _burn(msg.sender, _shares) */\n      tag_129\n        /* \"TVNProject/TVNLmPool/TVNLmPool.sol\":5865:5875  msg.sender */\n      caller\n        /* \"TVNProject/TVNLmPool/TVNLmPool.sol\":5877:5884  _shares */\n      dup5\n        /* \"TVNProject/TVNLmPool/TVNLmPool.sol\":5859:5864  _burn */\n      tag_130\n        /* \"TVNProject/TVNLmPool/TVNLmPool.sol\":5859:5885  _burn(msg.sender, _shares) */\n      jump\t// in\n    tag_129:\n        /* \"TVNProject/TVNLmPool/TVNLmPool.sol\":5895:5913  NFTPositionManager */\n      0x00\n      dup1\n      sload\n      swap1\n      0x0100\n      exp\n      swap1\n      div\n      0xffffffffffffffffffffffffffffffffffffffff\n      and\n        /* \"TVNProject/TVNLmPool/TVNLmPool.sol\":5895:5926  NFTPositionManager.burnPosition */\n      0xffffffffffffffffffffffffffffffffffffffff\n      and\n      0xec828722\n        /* \"TVNProject/TVNLmPool/TVNLmPool.sol\":5927:5935  _tokenId */\n      dup8\n        /* \"TVNProject/TVNLmPool/TVNLmPool.sol\":5945:5949  this */\n      address\n        /* \"TVNProject/TVNLmPool/TVNLmPool.sol\":5895:5951  NFTPositionManager.burnPosition(_tokenId, address(this)) */\n      mload(0x40)\n      dup4\n      0xffffffff\n      and\n      0xe0\n      shl\n      dup2\n      mstore\n      0x04\n      add\n      tag_131\n      swap3\n      swap2\n      swap1\n      tag_132\n      jump\t// in\n    tag_131:\n      0x00\n      mload(0x40)\n      dup1\n      dup4\n      sub\n      dup2\n      0x00\n      dup8\n      dup1\n      extcodesize\n      iszero\n      dup1\n      iszero\n      tag_133\n      jumpi\n      0x00\n      dup1\n      revert\n    tag_133:\n      pop\n      gas\n      call\n      iszero\n      dup1\n      iszero\n      tag_135\n      jumpi\n      returndatasize\n      0x00\n      dup1\n      returndatacopy\n      revert(0x00, returndatasize)\n    tag_135:\n      pop\n      pop\n      pop\n      pop\n        /* \"TVNProject/TVNLmPool/TVNLmPool.sol\":5988:6051  _update(bal0 - amount0 - totalFee0, bal1 - amount1 - totalFee1) */\n      tag_136\n        /* \"TVNProject/TVNLmPool/TVNLmPool.sol\":6013:6022  totalFee0 */\n      sload(0x04)\n        /* \"TVNProject/TVNLmPool/TVNLmPool.sol\":6003:6010  amount0 */\n      dup7\n        /* \"TVNProject/TVNLmPool/TVNLmPool.sol\":5996:6000  bal0 */\n      dup5\n        /* \"TVNProject/TVNLmPool/TVNLmPool.sol\":5996:6010  bal0 - amount0 */\n      tag_137\n      swap2\n      swap1\n      tag_94\n      jump\t// in\n    tag_137:\n        /* \"TVNProject/TVNLmPool/TVNLmPool.sol\":5996:6022  bal0 - amount0 - totalFee0 */\n      tag_138\n      swap2\n      swap1\n      tag_94\n      jump\t// in\n    tag_138:\n        /* \"TVNProject/TVNLmPool/TVNLmPool.sol\":6041:6050  totalFee1 */\n      sload(0x05)\n        /* \"TVNProject/TVNLmPool/TVNLmPool.sol\":6031:6038  amount1 */\n      dup7\n        /* \"TVNProject/TVNLmPool/TVNLmPool.sol\":6024:6028  bal1 */\n      dup5\n        /* \"TVNProject/TVNLmPool/TVNLmPool.sol\":6024:6038  bal1 - amount1 */\n      tag_139\n      swap2\n      swap1\n      tag_94\n      jump\t// in\n    tag_139:\n        /* \"TVNProject/TVNLmPool/TVNLmPool.sol\":6024:6050  bal1 - amount1 - totalFee1 */\n      tag_140\n      swap2\n      swap1\n      tag_94\n      jump\t// in\n    tag_140:\n        /* \"TVNProject/TVNLmPool/TVNLmPool.sol\":5988:5995  _update */\n      tag_141\n        /* \"TVNProject/TVNLmPool/TVNLmPool.sol\":5988:6051  _update(bal0 - amount0 - totalFee0, bal1 - amount1 - totalFee1) */\n      jump\t// in\n    tag_136:\n        /* \"TVNProject/TVNLmPool/TVNLmPool.sol\":6101:6107  token0 */\n      immutable(\"0x6f613263a27c07dcf0f796f1c8181099a92e5eb2eae8c3bec65733e2d5818bb8\")\n        /* \"TVNProject/TVNLmPool/TVNLmPool.sol\":6101:6116  token0.transfer */\n      0xffffffffffffffffffffffffffffffffffffffff\n      and\n      0xa9059cbb\n        /* \"TVNProject/TVNLmPool/TVNLmPool.sol\":6117:6127  msg.sender */\n      caller\n        /* \"TVNProject/TVNLmPool/TVNLmPool.sol\":6129:6136  amount0 */\n      dup8\n        /* \"TVNProject/TVNLmPool/TVNLmPool.sol\":6101:6137  token0.transfer(msg.sender, amount0) */\n      mload(0x40)\n      dup4\n      0xffffffff\n      and\n      0xe0\n      shl\n      dup2\n      mstore\n      0x04\n      add\n      tag_142\n      swap3\n      swap2\n      swap1\n      tag_143\n      jump\t// in\n    tag_142:\n      0x20\n      mload(0x40)\n      dup1\n      dup4\n      sub\n      dup2\n      0x00\n      dup8\n      gas\n      call\n      iszero\n      dup1\n      iszero\n      tag_145\n      jumpi\n      returndatasize\n      0x00\n      dup1\n      returndatacopy\n      revert(0x00, returndatasize)\n    tag_145:\n      pop\n      pop\n      pop\n      pop\n      mload(0x40)\n      returndatasize\n      not(0x1f)\n      0x1f\n      dup3\n      add\n      and\n      dup3\n      add\n      dup1\n      0x40\n      mstore\n      pop\n      dup2\n      add\n      swap1\n      tag_146\n      swap2\n      swap1\n      tag_147\n      jump\t// in\n    tag_146:\n      pop\n        /* \"TVNProject/TVNLmPool/TVNLmPool.sol\":6147:6153  token1 */\n      immutable(\"0xfc9b319535b4537e1f2e48ab66fc9bab155dd55a5a7551380dca44f719741359\")\n        /* \"TVNProject/TVNLmPool/TVNLmPool.sol\":6147:6162  token1.transfer */\n      0xffffffffffffffffffffffffffffffffffffffff\n      and\n      0xa9059cbb\n        /* \"TVNProject/TVNLmPool/TVNLmPool.sol\":6163:6173  msg.sender */\n      caller\n        /* \"TVNProject/TVNLmPool/TVNLmPool.sol\":6175:6182  amount1 */\n      dup7\n        /* \"TVNProject/TVNLmPool/TVNLmPool.sol\":6147:6183  token1.transfer(msg.sender, amount1) */\n      mload(0x40)\n      dup4\n      0xffffffff\n      and\n      0xe0\n      shl\n      dup2\n      mstore\n      0x04\n      add\n      tag_148\n      swap3\n      swap2\n      swap1\n      tag_143\n      jump\t// in\n    tag_148:\n      0x20\n      mload(0x40)\n      dup1\n      dup4\n      sub\n      dup2\n      0x00\n      dup8\n      gas\n      call\n      iszero\n      dup1\n      iszero\n      tag_150\n      jumpi\n      returndatasize\n      0x00\n      dup1\n      returndatacopy\n      revert(0x00, returndatasize)\n    tag_150:\n      pop\n      pop\n      pop\n      pop\n      mload(0x40)\n      returndatasize\n      not(0x1f)\n      0x1f\n      dup3\n      add\n      and\n      dup3\n      add\n      dup1\n      0x40\n      mstore\n      pop\n      dup2\n      add\n      swap1\n      tag_151\n      swap2\n      swap1\n      tag_147\n      jump\t// in\n    tag_151:\n      pop\n        /* \"TVNProject/TVNLmPool/TVNLmPool.sol\":5158:6190  {... */\n      pop\n      pop\n      pop\n        /* \"TVNProject/TVNLmPool/TVNLmPool.sol\":5043:6190  function removeLiquidity(uint256 _tokenId)... */\n      swap2\n      pop\n      swap2\n      jump\t// out\n        /* \"TVNProject/TVNLmPool/TVNLmPool.sol\":3464:5037  function addLiquidity(uint256 _amount0, uint256 _amount1)... */\n    tag_76:\n        /* \"TVNProject/TVNLmPool/TVNLmPool.sol\":3556:3570  uint256 shares */\n      0x00\n        /* \"TVNProject/TVNLmPool/TVNLmPool.sol\":3623:3629  token0 */\n      immutable(\"0x6f613263a27c07dcf0f796f1c8181099a92e5eb2eae8c3bec65733e2d5818bb8\")\n        /* \"TVNProject/TVNLmPool/TVNLmPool.sol\":3623:3642  token0.transferFrom */\n      0xffffffffffffffffffffffffffffffffffffffff\n      and\n      0x23b872dd\n        /* \"TVNProject/TVNLmPool/TVNLmPool.sol\":3643:3653  msg.sender */\n      caller\n        /* \"TVNProject/TVNLmPool/TVNLmPool.sol\":3663:3667  this */\n      address\n        /* \"TVNProject/TVNLmPool/TVNLmPool.sol\":3670:3678  _amount0 */\n      dup7\n        /* \"TVNProject/TVNLmPool/TVNLmPool.sol\":3623:3679  token0.transferFrom(msg.sender, address(this), _amount0) */\n      mload(0x40)\n      dup5\n      0xffffffff\n      and\n      0xe0\n      shl\n      dup2\n      mstore\n      0x04\n      add\n      tag_153\n      swap4\n      swap3\n      swap2\n      swap1\n      tag_102\n      jump\t// in\n    tag_153:\n      0x20\n      mload(0x40)\n      dup1\n      dup4\n      sub\n      dup2\n      0x00\n      dup8\n      gas\n      call\n      iszero\n      dup1\n      iszero\n      tag_155\n      jumpi\n      returndatasize\n      0x00\n      dup1\n      returndatacopy\n      revert(0x00, returndatasize)\n    tag_155:\n      pop\n      pop\n      pop\n      pop\n      mload(0x40)\n      returndatasize\n      not(0x1f)\n      0x1f\n      dup3\n      add\n      and\n      dup3\n      add\n      dup1\n      0x40\n      mstore\n      pop\n      dup2\n      add\n      swap1\n      tag_156\n      swap2\n      swap1\n      tag_147\n      jump\t// in\n    tag_156:\n      pop\n        /* \"TVNProject/TVNLmPool/TVNLmPool.sol\":3689:3695  token1 */\n      immutable(\"0xfc9b319535b4537e1f2e48ab66fc9bab155dd55a5a7551380dca44f719741359\")\n        /* \"TVNProject/TVNLmPool/TVNLmPool.sol\":3689:3708  token1.transferFrom */\n      0xffffffffffffffffffffffffffffffffffffffff\n      and\n      0x23b872dd\n        /* \"TVNProject/TVNLmPool/TVNLmPool.sol\":3709:3719  msg.sender */\n      caller\n        /* \"TVNProject/TVNLmPool/TVNLmPool.sol\":3729:3733  this */\n      address\n        /* \"TVNProject/TVNLmPool/TVNLmPool.sol\":3736:3744  _amount1 */\n      dup6\n        /* \"TVNProject/TVNLmPool/TVNLmPool.sol\":3689:3745  token1.transferFrom(msg.sender, address(this), _amount1) */\n      mload(0x40)\n      dup5\n      0xffffffff\n      and\n      0xe0\n      shl\n      dup2\n      mstore\n      0x04\n      add\n      tag_157\n      swap4\n      swap3\n      swap2\n      swap1\n      tag_102\n      jump\t// in\n    tag_157:\n      0x20\n      mload(0x40)\n      dup1\n      dup4\n      sub\n      dup2\n      0x00\n      dup8\n      gas\n      call\n      iszero\n      dup1\n      iszero\n      tag_159\n      jumpi\n      returndatasize\n      0x00\n      dup1\n      returndatacopy\n      revert(0x00, returndatasize)\n    tag_159:\n      pop\n      pop\n      pop\n      pop\n      mload(0x40)\n      returndatasize\n      not(0x1f)\n      0x1f\n      dup3\n      add\n      and\n      dup3\n      add\n      dup1\n      0x40\n      mstore\n      pop\n      dup2\n      add\n      swap1\n      tag_160\n      swap2\n      swap1\n      tag_147\n      jump\t// in\n    tag_160:\n      pop\n        /* \"TVNProject/TVNLmPool/TVNLmPool.sol\":3797:3798  0 */\n      0x00\n        /* \"TVNProject/TVNLmPool/TVNLmPool.sol\":3786:3794  reserve0 */\n      sload(0x01)\n        /* \"TVNProject/TVNLmPool/TVNLmPool.sol\":3786:3798  reserve0 > 0 */\n      gt\n        /* \"TVNProject/TVNLmPool/TVNLmPool.sol\":3786:3814  reserve0 > 0 || reserve1 > 0 */\n      dup1\n      tag_161\n      jumpi\n      pop\n        /* \"TVNProject/TVNLmPool/TVNLmPool.sol\":3813:3814  0 */\n      0x00\n        /* \"TVNProject/TVNLmPool/TVNLmPool.sol\":3802:3810  reserve1 */\n      sload(0x02)\n        /* \"TVNProject/TVNLmPool/TVNLmPool.sol\":3802:3814  reserve1 > 0 */\n      gt\n        /* \"TVNProject/TVNLmPool/TVNLmPool.sol\":3786:3814  reserve0 > 0 || reserve1 > 0 */\n    tag_161:\n        /* \"TVNProject/TVNLmPool/TVNLmPool.sol\":3782:4090  if (reserve0 > 0 || reserve1 > 0) {... */\n      iszero\n      tag_162\n      jumpi\n        /* \"TVNProject/TVNLmPool/TVNLmPool.sol\":3830:3852  uint256 modifyReserve0 */\n      0x00\n        /* \"TVNProject/TVNLmPool/TVNLmPool.sol\":3866:3875  totalFee0 */\n      sload(0x04)\n        /* \"TVNProject/TVNLmPool/TVNLmPool.sol\":3855:3863  reserve0 */\n      sload(0x01)\n        /* \"TVNProject/TVNLmPool/TVNLmPool.sol\":3855:3875  reserve0 - totalFee0 */\n      tag_163\n      swap2\n      swap1\n      tag_94\n      jump\t// in\n    tag_163:\n        /* \"TVNProject/TVNLmPool/TVNLmPool.sol\":3830:3875  uint256 modifyReserve0 = reserve0 - totalFee0 */\n      swap1\n      pop\n        /* \"TVNProject/TVNLmPool/TVNLmPool.sol\":3889:3911  uint256 modifyReserve1 */\n      0x00\n        /* \"TVNProject/TVNLmPool/TVNLmPool.sol\":3925:3934  totalFee1 */\n      sload(0x05)\n        /* \"TVNProject/TVNLmPool/TVNLmPool.sol\":3914:3922  reserve1 */\n      sload(0x02)\n        /* \"TVNProject/TVNLmPool/TVNLmPool.sol\":3914:3934  reserve1 - totalFee1 */\n      tag_164\n      swap2\n      swap1\n      tag_94\n      jump\t// in\n    tag_164:\n        /* \"TVNProject/TVNLmPool/TVNLmPool.sol\":3889:3934  uint256 modifyReserve1 = reserve1 - totalFee1 */\n      swap1\n      pop\n        /* \"TVNProject/TVNLmPool/TVNLmPool.sol\":4015:4029  modifyReserve0 */\n      dup2\n        /* \"TVNProject/TVNLmPool/TVNLmPool.sol\":4003:4011  _amount0 */\n      dup6\n        /* \"TVNProject/TVNLmPool/TVNLmPool.sol\":3986:4000  modifyReserve1 */\n      dup3\n        /* \"TVNProject/TVNLmPool/TVNLmPool.sol\":3986:4011  modifyReserve1 * _amount0 */\n      tag_165\n      swap2\n      swap1\n      tag_97\n      jump\t// in\n    tag_165:\n        /* \"TVNProject/TVNLmPool/TVNLmPool.sol\":3985:4029  (modifyReserve1 * _amount0) / modifyReserve0 */\n      tag_166\n      swap2\n      swap1\n      tag_99\n      jump\t// in\n    tag_166:\n        /* \"TVNProject/TVNLmPool/TVNLmPool.sol\":3973:3981  _amount1 */\n      dup5\n        /* \"TVNProject/TVNLmPool/TVNLmPool.sol\":3973:4029  _amount1 == (modifyReserve1 * _amount0) / modifyReserve0 */\n      eq\n        /* \"TVNProject/TVNLmPool/TVNLmPool.sol\":3948:4079  require(... */\n      tag_167\n      jumpi\n      mload(0x40)\n      0x08c379a000000000000000000000000000000000000000000000000000000000\n      dup2\n      mstore\n      0x04\n      add\n      tag_168\n      swap1\n      tag_169\n      jump\t// in\n    tag_168:\n      mload(0x40)\n      dup1\n      swap2\n      sub\n      swap1\n      revert\n    tag_167:\n        /* \"TVNProject/TVNLmPool/TVNLmPool.sol\":3816:4090  {... */\n      pop\n      pop\n        /* \"TVNProject/TVNLmPool/TVNLmPool.sol\":3782:4090  if (reserve0 > 0 || reserve1 > 0) {... */\n    tag_162:\n        /* \"TVNProject/TVNLmPool/TVNLmPool.sol\":4231:4232  0 */\n      0x00\n        /* \"TVNProject/TVNLmPool/TVNLmPool.sol\":4216:4227  totalSupply */\n      sload(0x06)\n        /* \"TVNProject/TVNLmPool/TVNLmPool.sol\":4216:4232  totalSupply == 0 */\n      sub\n        /* \"TVNProject/TVNLmPool/TVNLmPool.sol\":4212:4462  if (totalSupply == 0) {... */\n      tag_170\n      jumpi\n        /* \"TVNProject/TVNLmPool/TVNLmPool.sol\":4257:4283  _sqrt(_amount0 * _amount1) */\n      tag_171\n        /* \"TVNProject/TVNLmPool/TVNLmPool.sol\":4274:4282  _amount1 */\n      dup3\n        /* \"TVNProject/TVNLmPool/TVNLmPool.sol\":4263:4271  _amount0 */\n      dup5\n        /* \"TVNProject/TVNLmPool/TVNLmPool.sol\":4263:4282  _amount0 * _amount1 */\n      tag_172\n      swap2\n      swap1\n      tag_97\n      jump\t// in\n    tag_172:\n        /* \"TVNProject/TVNLmPool/TVNLmPool.sol\":4257:4262  _sqrt */\n      tag_173\n        /* \"TVNProject/TVNLmPool/TVNLmPool.sol\":4257:4283  _sqrt(_amount0 * _amount1) */\n      jump\t// in\n    tag_171:\n        /* \"TVNProject/TVNLmPool/TVNLmPool.sol\":4248:4283  shares = _sqrt(_amount0 * _amount1) */\n      swap1\n      pop\n        /* \"TVNProject/TVNLmPool/TVNLmPool.sol\":4212:4462  if (totalSupply == 0) {... */\n      jump(tag_174)\n    tag_170:\n        /* \"TVNProject/TVNLmPool/TVNLmPool.sol\":4323:4451  _min(... */\n      tag_175\n        /* \"TVNProject/TVNLmPool/TVNLmPool.sol\":4373:4381  reserve0 */\n      sload(0x01)\n        /* \"TVNProject/TVNLmPool/TVNLmPool.sol\":4357:4368  totalSupply */\n      sload(0x06)\n        /* \"TVNProject/TVNLmPool/TVNLmPool.sol\":4346:4354  _amount0 */\n      dup6\n        /* \"TVNProject/TVNLmPool/TVNLmPool.sol\":4346:4368  _amount0 * totalSupply */\n      tag_176\n      swap2\n      swap1\n      tag_97\n      jump\t// in\n    tag_176:\n        /* \"TVNProject/TVNLmPool/TVNLmPool.sol\":4345:4382  (_amount0 * totalSupply) / (reserve0) */\n      tag_177\n      swap2\n      swap1\n      tag_99\n      jump\t// in\n    tag_177:\n        /* \"TVNProject/TVNLmPool/TVNLmPool.sol\":4428:4436  reserve1 */\n      sload(0x02)\n        /* \"TVNProject/TVNLmPool/TVNLmPool.sol\":4412:4423  totalSupply */\n      sload(0x06)\n        /* \"TVNProject/TVNLmPool/TVNLmPool.sol\":4401:4409  _amount1 */\n      dup6\n        /* \"TVNProject/TVNLmPool/TVNLmPool.sol\":4401:4423  _amount1 * totalSupply */\n      tag_178\n      swap2\n      swap1\n      tag_97\n      jump\t// in\n    tag_178:\n        /* \"TVNProject/TVNLmPool/TVNLmPool.sol\":4400:4437  (_amount1 * totalSupply) / (reserve1) */\n      tag_179\n      swap2\n      swap1\n      tag_99\n      jump\t// in\n    tag_179:\n        /* \"TVNProject/TVNLmPool/TVNLmPool.sol\":4323:4327  _min */\n      tag_180\n        /* \"TVNProject/TVNLmPool/TVNLmPool.sol\":4323:4451  _min(... */\n      jump\t// in\n    tag_175:\n        /* \"TVNProject/TVNLmPool/TVNLmPool.sol\":4314:4451  shares = _min(... */\n      swap1\n      pop\n        /* \"TVNProject/TVNLmPool/TVNLmPool.sol\":4212:4462  if (totalSupply == 0) {... */\n    tag_174:\n        /* \"TVNProject/TVNLmPool/TVNLmPool.sol\":4488:4489  0 */\n      0x00\n        /* \"TVNProject/TVNLmPool/TVNLmPool.sol\":4479:4485  shares */\n      dup2\n        /* \"TVNProject/TVNLmPool/TVNLmPool.sol\":4479:4489  shares > 0 */\n      gt\n        /* \"TVNProject/TVNLmPool/TVNLmPool.sol\":4471:4504  require(shares > 0, \"shares = 0\") */\n      tag_181\n      jumpi\n      mload(0x40)\n      0x08c379a000000000000000000000000000000000000000000000000000000000\n      dup2\n      mstore\n      0x04\n      add\n      tag_182\n      swap1\n      tag_183\n      jump\t// in\n    tag_182:\n      mload(0x40)\n      dup1\n      swap2\n      sub\n      swap1\n      revert\n    tag_181:\n        /* \"TVNProject/TVNLmPool/TVNLmPool.sol\":4514:4539  _mint(msg.sender, shares) */\n      tag_184\n        /* \"TVNProject/TVNLmPool/TVNLmPool.sol\":4520:4530  msg.sender */\n      caller\n        /* \"TVNProject/TVNLmPool/TVNLmPool.sol\":4532:4538  shares */\n      dup3\n        /* \"TVNProject/TVNLmPool/TVNLmPool.sol\":4514:4519  _mint */\n      tag_185\n        /* \"TVNProject/TVNLmPool/TVNLmPool.sol\":4514:4539  _mint(msg.sender, shares) */\n      jump\t// in\n    tag_184:\n        /* \"TVNProject/TVNLmPool/TVNLmPool.sol\":4549:4567  NFTPositionManager */\n      0x00\n      dup1\n      sload\n      swap1\n      0x0100\n      exp\n      swap1\n      div\n      0xffffffffffffffffffffffffffffffffffffffff\n      and\n        /* \"TVNProject/TVNLmPool/TVNLmPool.sol\":4549:4580  NFTPositionManager.mintPosition */\n      0xffffffffffffffffffffffffffffffffffffffff\n      and\n      0x91cda3e7\n        /* \"TVNProject/TVNLmPool/TVNLmPool.sol\":4594:4604  msg.sender */\n      caller\n        /* \"TVNProject/TVNLmPool/TVNLmPool.sol\":4618:4636  NFTPositionManager */\n      0x00\n      dup1\n      sload\n      swap1\n      0x0100\n      exp\n      swap1\n      div\n      0xffffffffffffffffffffffffffffffffffffffff\n      and\n        /* \"TVNProject/TVNLmPool/TVNLmPool.sol\":4618:4647  NFTPositionManager.mintParams */\n      0xffffffffffffffffffffffffffffffffffffffff\n      and\n      0x8b217878\n        /* \"TVNProject/TVNLmPool/TVNLmPool.sol\":4665:4671  shares */\n      dup6\n        /* \"TVNProject/TVNLmPool/TVNLmPool.sol\":4689:4699  msg.sender */\n      caller\n        /* \"TVNProject/TVNLmPool/TVNLmPool.sol\":4725:4731  token0 */\n      immutable(\"0x6f613263a27c07dcf0f796f1c8181099a92e5eb2eae8c3bec65733e2d5818bb8\")\n        /* \"TVNProject/TVNLmPool/TVNLmPool.sol\":4758:4764  token1 */\n      immutable(\"0xfc9b319535b4537e1f2e48ab66fc9bab155dd55a5a7551380dca44f719741359\")\n        /* \"TVNProject/TVNLmPool/TVNLmPool.sol\":4783:4786  fee */\n      sload(0x03)\n        /* \"TVNProject/TVNLmPool/TVNLmPool.sol\":4804:4812  _amount0 */\n      dup13\n        /* \"TVNProject/TVNLmPool/TVNLmPool.sol\":4830:4838  _amount1 */\n      dup13\n        /* \"TVNProject/TVNLmPool/TVNLmPool.sol\":4618:4852  NFTPositionManager.mintParams(... */\n      mload(0x40)\n      dup9\n      0xffffffff\n      and\n      0xe0\n      shl\n      dup2\n      mstore\n      0x04\n      add\n      tag_186\n      swap8\n      swap7\n      swap6\n      swap5\n      swap4\n      swap3\n      swap2\n      swap1\n      tag_187\n      jump\t// in\n    tag_186:\n      0xe0\n      mload(0x40)\n      dup1\n      dup4\n      sub\n      dup2\n      dup7\n      gas\n      staticcall\n      iszero\n      dup1\n      iszero\n      tag_189\n      jumpi\n      returndatasize\n      0x00\n      dup1\n      returndatacopy\n      revert(0x00, returndatasize)\n    tag_189:\n      pop\n      pop\n      pop\n      pop\n      mload(0x40)\n      returndatasize\n      not(0x1f)\n      0x1f\n      dup3\n      add\n      and\n      dup3\n      add\n      dup1\n      0x40\n      mstore\n      pop\n      dup2\n      add\n      swap1\n      tag_190\n      swap2\n      swap1\n      tag_110\n      jump\t// in\n    tag_190:\n        /* \"TVNProject/TVNLmPool/TVNLmPool.sol\":4549:4862  NFTPositionManager.mintPosition(... */\n      mload(0x40)\n      dup4\n      0xffffffff\n      and\n      0xe0\n      shl\n      dup2\n      mstore\n      0x04\n      add\n      tag_191\n      swap3\n      swap2\n      swap1\n      tag_192\n      jump\t// in\n    tag_191:\n      0x00\n      mload(0x40)\n      dup1\n      dup4\n      sub\n      dup2\n      0x00\n      dup8\n      dup1\n      extcodesize\n      iszero\n      dup1\n      iszero\n      tag_193\n      jumpi\n      0x00\n      dup1\n      revert\n    tag_193:\n      pop\n      gas\n      call\n      iszero\n      dup1\n      iszero\n      tag_195\n      jumpi\n      returndatasize\n      0x00\n      dup1\n      returndatacopy\n      revert(0x00, returndatasize)\n    tag_195:\n      pop\n      pop\n      pop\n      pop\n        /* \"TVNProject/TVNLmPool/TVNLmPool.sol\":4899:5030  _update(... */\n      tag_196\n        /* \"TVNProject/TVNLmPool/TVNLmPool.sol\":4954:4963  totalFee0 */\n      sload(0x04)\n        /* \"TVNProject/TVNLmPool/TVNLmPool.sol\":4920:4926  token0 */\n      immutable(\"0x6f613263a27c07dcf0f796f1c8181099a92e5eb2eae8c3bec65733e2d5818bb8\")\n        /* \"TVNProject/TVNLmPool/TVNLmPool.sol\":4920:4936  token0.balanceOf */\n      0xffffffffffffffffffffffffffffffffffffffff\n      and\n      0x70a08231\n        /* \"TVNProject/TVNLmPool/TVNLmPool.sol\":4945:4949  this */\n      address\n        /* \"TVNProject/TVNLmPool/TVNLmPool.sol\":4920:4951  token0.balanceOf(address(this)) */\n      mload(0x40)\n      dup3\n      0xffffffff\n      and\n      0xe0\n      shl\n      dup2\n      mstore\n      0x04\n      add\n      tag_197\n      swap2\n      swap1\n      tag_112\n      jump\t// in\n    tag_197:\n      0x20\n      mload(0x40)\n      dup1\n      dup4\n      sub\n      dup2\n      dup7\n      gas\n      staticcall\n      iszero\n      dup1\n      iszero\n      tag_199\n      jumpi\n      returndatasize\n      0x00\n      dup1\n      returndatacopy\n      revert(0x00, returndatasize)\n    tag_199:\n      pop\n      pop\n      pop\n      pop\n      mload(0x40)\n      returndatasize\n      not(0x1f)\n      0x1f\n      dup3\n      add\n      and\n      dup3\n      add\n      dup1\n      0x40\n      mstore\n      pop\n      dup2\n      add\n      swap1\n      tag_200\n      swap2\n      swap1\n      tag_116\n      jump\t// in\n    tag_200:\n        /* \"TVNProject/TVNLmPool/TVNLmPool.sol\":4920:4963  token0.balanceOf(address(this)) - totalFee0 */\n      tag_201\n      swap2\n      swap1\n      tag_94\n      jump\t// in\n    tag_201:\n        /* \"TVNProject/TVNLmPool/TVNLmPool.sol\":5011:5020  totalFee1 */\n      sload(0x05)\n        /* \"TVNProject/TVNLmPool/TVNLmPool.sol\":4977:4983  token1 */\n      immutable(\"0xfc9b319535b4537e1f2e48ab66fc9bab155dd55a5a7551380dca44f719741359\")\n        /* \"TVNProject/TVNLmPool/TVNLmPool.sol\":4977:4993  token1.balanceOf */\n      0xffffffffffffffffffffffffffffffffffffffff\n      and\n      0x70a08231\n        /* \"TVNProject/TVNLmPool/TVNLmPool.sol\":5002:5006  this */\n      address\n        /* \"TVNProject/TVNLmPool/TVNLmPool.sol\":4977:5008  token1.balanceOf(address(this)) */\n      mload(0x40)\n      dup3\n      0xffffffff\n      and\n      0xe0\n      shl\n      dup2\n      mstore\n      0x04\n      add\n      tag_202\n      swap2\n      swap1\n      tag_112\n      jump\t// in\n    tag_202:\n      0x20\n      mload(0x40)\n      dup1\n      dup4\n      sub\n      dup2\n      dup7\n      gas\n      staticcall\n      iszero\n      dup1\n      iszero\n      tag_204\n      jumpi\n      returndatasize\n      0x00\n      dup1\n      returndatacopy\n      revert(0x00, returndatasize)\n    tag_204:\n      pop\n      pop\n      pop\n      pop\n      mload(0x40)\n      returndatasize\n      not(0x1f)\n      0x1f\n      dup3\n      add\n      and\n      dup3\n      add\n      dup1\n      0x40\n      mstore\n      pop\n      dup2\n      add\n      swap1\n      tag_205\n      swap2\n      swap1\n      tag_116\n      jump\t// in\n    tag_205:\n        /* \"TVNProject/TVNLmPool/TVNLmPool.sol\":4977:5020  token1.balanceOf(address(this)) - totalFee1 */\n      tag_206\n      swap2\n      swap1\n      tag_94\n      jump\t// in\n    tag_206:\n        /* \"TVNProject/TVNLmPool/TVNLmPool.sol\":4899:4906  _update */\n      tag_141\n        /* \"TVNProject/TVNLmPool/TVNLmPool.sol\":4899:5030  _update(... */\n      jump\t// in\n    tag_196:\n        /* \"TVNProject/TVNLmPool/TVNLmPool.sol\":3464:5037  function addLiquidity(uint256 _amount0, uint256 _amount1)... */\n      swap3\n      swap2\n      pop\n      pop\n      jump\t// out\n        /* \"TVNProject/TVNLmPool/TVNLmPool.sol\":1587:3172  function swap(address _tokenIn, uint256 _amountIn)... */\n    tag_81:\n        /* \"TVNProject/TVNLmPool/TVNLmPool.sol\":1672:1689  uint256 amountOut */\n      0x00\n        /* \"TVNProject/TVNLmPool/TVNLmPool.sol\":1746:1752  token0 */\n      immutable(\"0x6f613263a27c07dcf0f796f1c8181099a92e5eb2eae8c3bec65733e2d5818bb8\")\n        /* \"TVNProject/TVNLmPool/TVNLmPool.sol\":1726:1753  _tokenIn == address(token0) */\n      0xffffffffffffffffffffffffffffffffffffffff\n      and\n        /* \"TVNProject/TVNLmPool/TVNLmPool.sol\":1726:1734  _tokenIn */\n      dup4\n        /* \"TVNProject/TVNLmPool/TVNLmPool.sol\":1726:1753  _tokenIn == address(token0) */\n      0xffffffffffffffffffffffffffffffffffffffff\n      and\n      eq\n        /* \"TVNProject/TVNLmPool/TVNLmPool.sol\":1726:1784  _tokenIn == address(token0) || _tokenIn == address(token1) */\n      dup1\n      tag_208\n      jumpi\n      pop\n        /* \"TVNProject/TVNLmPool/TVNLmPool.sol\":1777:1783  token1 */\n      immutable(\"0xfc9b319535b4537e1f2e48ab66fc9bab155dd55a5a7551380dca44f719741359\")\n        /* \"TVNProject/TVNLmPool/TVNLmPool.sol\":1757:1784  _tokenIn == address(token1) */\n      0xffffffffffffffffffffffffffffffffffffffff\n      and\n        /* \"TVNProject/TVNLmPool/TVNLmPool.sol\":1757:1765  _tokenIn */\n      dup4\n        /* \"TVNProject/TVNLmPool/TVNLmPool.sol\":1757:1784  _tokenIn == address(token1) */\n      0xffffffffffffffffffffffffffffffffffffffff\n      and\n      eq\n        /* \"TVNProject/TVNLmPool/TVNLmPool.sol\":1726:1784  _tokenIn == address(token0) || _tokenIn == address(token1) */\n    tag_208:\n        /* \"TVNProject/TVNLmPool/TVNLmPool.sol\":1705:1824  require(... */\n      tag_209\n      jumpi\n      mload(0x40)\n      0x08c379a000000000000000000000000000000000000000000000000000000000\n      dup2\n      mstore\n      0x04\n      add\n      tag_210\n      swap1\n      tag_211\n      jump\t// in\n    tag_210:\n      mload(0x40)\n      dup1\n      swap2\n      sub\n      swap1\n      revert\n    tag_209:\n        /* \"TVNProject/TVNLmPool/TVNLmPool.sol\":1854:1855  0 */\n      0x00\n        /* \"TVNProject/TVNLmPool/TVNLmPool.sol\":1842:1851  _amountIn */\n      dup3\n        /* \"TVNProject/TVNLmPool/TVNLmPool.sol\":1842:1855  _amountIn > 0 */\n      gt\n        /* \"TVNProject/TVNLmPool/TVNLmPool.sol\":1834:1873  require(_amountIn > 0, \"amount in = 0\") */\n      tag_212\n      jumpi\n      mload(0x40)\n      0x08c379a000000000000000000000000000000000000000000000000000000000\n      dup2\n      mstore\n      0x04\n      add\n      tag_213\n      swap1\n      tag_214\n      jump\t// in\n    tag_213:\n      mload(0x40)\n      dup1\n      swap2\n      sub\n      swap1\n      revert\n    tag_212:\n        /* \"TVNProject/TVNLmPool/TVNLmPool.sol\":1912:1925  bool isToken0 */\n      0x00\n        /* \"TVNProject/TVNLmPool/TVNLmPool.sol\":1948:1954  token0 */\n      immutable(\"0x6f613263a27c07dcf0f796f1c8181099a92e5eb2eae8c3bec65733e2d5818bb8\")\n        /* \"TVNProject/TVNLmPool/TVNLmPool.sol\":1928:1955  _tokenIn == address(token0) */\n      0xffffffffffffffffffffffffffffffffffffffff\n      and\n        /* \"TVNProject/TVNLmPool/TVNLmPool.sol\":1928:1936  _tokenIn */\n      dup5\n        /* \"TVNProject/TVNLmPool/TVNLmPool.sol\":1928:1955  _tokenIn == address(token0) */\n      0xffffffffffffffffffffffffffffffffffffffff\n      and\n      eq\n        /* \"TVNProject/TVNLmPool/TVNLmPool.sol\":1912:1955  bool isToken0 = _tokenIn == address(token0) */\n      swap1\n      pop\n        /* \"TVNProject/TVNLmPool/TVNLmPool.sol\":1980:1994  IERC20 tokenIn */\n      0x00\n        /* \"TVNProject/TVNLmPool/TVNLmPool.sol\":2008:2023  IERC20 tokenOut */\n      dup1\n        /* \"TVNProject/TVNLmPool/TVNLmPool.sol\":2037:2050  uint256 resIn */\n      0x00\n        /* \"TVNProject/TVNLmPool/TVNLmPool.sol\":2064:2078  uint256 resOut */\n      dup1\n        /* \"TVNProject/TVNLmPool/TVNLmPool.sol\":2091:2099  isToken0 */\n      dup5\n        /* \"TVNProject/TVNLmPool/TVNLmPool.sol\":2091:2209  isToken0... */\n      tag_215\n      jumpi\n        /* \"TVNProject/TVNLmPool/TVNLmPool.sol\":2174:2180  token1 */\n      immutable(\"0xfc9b319535b4537e1f2e48ab66fc9bab155dd55a5a7551380dca44f719741359\")\n        /* \"TVNProject/TVNLmPool/TVNLmPool.sol\":2182:2188  token0 */\n      immutable(\"0x6f613263a27c07dcf0f796f1c8181099a92e5eb2eae8c3bec65733e2d5818bb8\")\n        /* \"TVNProject/TVNLmPool/TVNLmPool.sol\":2190:2198  reserve1 */\n      sload(0x02)\n        /* \"TVNProject/TVNLmPool/TVNLmPool.sol\":2200:2208  reserve0 */\n      sload(0x01)\n        /* \"TVNProject/TVNLmPool/TVNLmPool.sol\":2091:2209  isToken0... */\n      jump(tag_216)\n    tag_215:\n        /* \"TVNProject/TVNLmPool/TVNLmPool.sol\":2119:2125  token0 */\n      immutable(\"0x6f613263a27c07dcf0f796f1c8181099a92e5eb2eae8c3bec65733e2d5818bb8\")\n        /* \"TVNProject/TVNLmPool/TVNLmPool.sol\":2127:2133  token1 */\n      immutable(\"0xfc9b319535b4537e1f2e48ab66fc9bab155dd55a5a7551380dca44f719741359\")\n        /* \"TVNProject/TVNLmPool/TVNLmPool.sol\":2135:2143  reserve0 */\n      sload(0x01)\n        /* \"TVNProject/TVNLmPool/TVNLmPool.sol\":2145:2153  reserve1 */\n      sload(0x02)\n        /* \"TVNProject/TVNLmPool/TVNLmPool.sol\":2091:2209  isToken0... */\n    tag_216:\n        /* \"TVNProject/TVNLmPool/TVNLmPool.sol\":1966:2209  (... */\n      swap4\n      pop\n      swap4\n      pop\n      swap4\n      pop\n      swap4\n      pop\n        /* \"TVNProject/TVNLmPool/TVNLmPool.sol\":2220:2227  tokenIn */\n      dup4\n        /* \"TVNProject/TVNLmPool/TVNLmPool.sol\":2220:2240  tokenIn.transferFrom */\n      0xffffffffffffffffffffffffffffffffffffffff\n      and\n      0x23b872dd\n        /* \"TVNProject/TVNLmPool/TVNLmPool.sol\":2241:2251  msg.sender */\n      caller\n        /* \"TVNProject/TVNLmPool/TVNLmPool.sol\":2261:2265  this */\n      address\n        /* \"TVNProject/TVNLmPool/TVNLmPool.sol\":2268:2277  _amountIn */\n      dup11\n        /* \"TVNProject/TVNLmPool/TVNLmPool.sol\":2220:2278  tokenIn.transferFrom(msg.sender, address(this), _amountIn) */\n      mload(0x40)\n      dup5\n      0xffffffff\n      and\n      0xe0\n      shl\n      dup2\n      mstore\n      0x04\n      add\n      tag_217\n      swap4\n      swap3\n      swap2\n      swap1\n      tag_102\n      jump\t// in\n    tag_217:\n      0x20\n      mload(0x40)\n      dup1\n      dup4\n      sub\n      dup2\n      0x00\n      dup8\n      gas\n      call\n      iszero\n      dup1\n      iszero\n      tag_219\n      jumpi\n      returndatasize\n      0x00\n      dup1\n      returndatacopy\n      revert(0x00, returndatasize)\n    tag_219:\n      pop\n      pop\n      pop\n      pop\n      mload(0x40)\n      returndatasize\n      not(0x1f)\n      0x1f\n      dup3\n      add\n      and\n      dup3\n      add\n      dup1\n      0x40\n      mstore\n      pop\n      dup2\n      add\n      swap1\n      tag_220\n      swap2\n      swap1\n      tag_147\n      jump\t// in\n    tag_220:\n      pop\n        /* \"TVNProject/TVNLmPool/TVNLmPool.sol\":2610:2633  uint256 amountInWithFee */\n      0x00\n        /* \"TVNProject/TVNLmPool/TVNLmPool.sol\":2665:2669  1000 */\n      0x03e8\n        /* \"TVNProject/TVNLmPool/TVNLmPool.sol\":2657:2660  fee */\n      sload(0x03)\n        /* \"TVNProject/TVNLmPool/TVNLmPool.sol\":2650:2654  1000 */\n      0x03e8\n        /* \"TVNProject/TVNLmPool/TVNLmPool.sol\":2650:2660  1000 - fee */\n      tag_221\n      swap2\n      swap1\n      tag_94\n      jump\t// in\n    tag_221:\n        /* \"TVNProject/TVNLmPool/TVNLmPool.sol\":2637:2646  _amountIn */\n      dup10\n        /* \"TVNProject/TVNLmPool/TVNLmPool.sol\":2637:2661  _amountIn * (1000 - fee) */\n      tag_222\n      swap2\n      swap1\n      tag_97\n      jump\t// in\n    tag_222:\n        /* \"TVNProject/TVNLmPool/TVNLmPool.sol\":2636:2669  (_amountIn * (1000 - fee)) / 1000 */\n      tag_223\n      swap2\n      swap1\n      tag_99\n      jump\t// in\n    tag_223:\n        /* \"TVNProject/TVNLmPool/TVNLmPool.sol\":2610:2669  uint256 amountInWithFee = (_amountIn * (1000 - fee)) / 1000 */\n      swap1\n      pop\n        /* \"TVNProject/TVNLmPool/TVNLmPool.sol\":2684:2692  isToken0 */\n      dup6\n        /* \"TVNProject/TVNLmPool/TVNLmPool.sol\":2680:2824  if (isToken0) {... */\n      iszero\n      tag_224\n      jumpi\n        /* \"TVNProject/TVNLmPool/TVNLmPool.sol\":2741:2745  1000 */\n      0x03e8\n        /* \"TVNProject/TVNLmPool/TVNLmPool.sol\":2734:2737  fee */\n      sload(0x03)\n        /* \"TVNProject/TVNLmPool/TVNLmPool.sol\":2722:2731  _amountIn */\n      dup10\n        /* \"TVNProject/TVNLmPool/TVNLmPool.sol\":2722:2737  _amountIn * fee */\n      tag_225\n      swap2\n      swap1\n      tag_97\n      jump\t// in\n    tag_225:\n        /* \"TVNProject/TVNLmPool/TVNLmPool.sol\":2721:2745  (_amountIn * fee) / 1000 */\n      tag_226\n      swap2\n      swap1\n      tag_99\n      jump\t// in\n    tag_226:\n        /* \"TVNProject/TVNLmPool/TVNLmPool.sol\":2708:2717  totalFee0 */\n      0x04\n      0x00\n        /* \"TVNProject/TVNLmPool/TVNLmPool.sol\":2708:2745  totalFee0 += (_amountIn * fee) / 1000 */\n      dup3\n      dup3\n      sload\n      tag_227\n      swap2\n      swap1\n      tag_228\n      jump\t// in\n    tag_227:\n      swap3\n      pop\n      pop\n      dup2\n      swap1\n      sstore\n      pop\n        /* \"TVNProject/TVNLmPool/TVNLmPool.sol\":2680:2824  if (isToken0) {... */\n      jump(tag_229)\n    tag_224:\n        /* \"TVNProject/TVNLmPool/TVNLmPool.sol\":2809:2813  1000 */\n      0x03e8\n        /* \"TVNProject/TVNLmPool/TVNLmPool.sol\":2802:2805  fee */\n      sload(0x03)\n        /* \"TVNProject/TVNLmPool/TVNLmPool.sol\":2790:2799  _amountIn */\n      dup10\n        /* \"TVNProject/TVNLmPool/TVNLmPool.sol\":2790:2805  _amountIn * fee */\n      tag_230\n      swap2\n      swap1\n      tag_97\n      jump\t// in\n    tag_230:\n        /* \"TVNProject/TVNLmPool/TVNLmPool.sol\":2789:2813  (_amountIn * fee) / 1000 */\n      tag_231\n      swap2\n      swap1\n      tag_99\n      jump\t// in\n    tag_231:\n        /* \"TVNProject/TVNLmPool/TVNLmPool.sol\":2776:2785  totalFee1 */\n      0x05\n      0x00\n        /* \"TVNProject/TVNLmPool/TVNLmPool.sol\":2776:2813  totalFee1 += (_amountIn * fee) / 1000 */\n      dup3\n      dup3\n      sload\n      tag_232\n      swap2\n      swap1\n      tag_228\n      jump\t// in\n    tag_232:\n      swap3\n      pop\n      pop\n      dup2\n      swap1\n      sstore\n      pop\n        /* \"TVNProject/TVNLmPool/TVNLmPool.sol\":2680:2824  if (isToken0) {... */\n    tag_229:\n        /* \"TVNProject/TVNLmPool/TVNLmPool.sol\":2884:2899  amountInWithFee */\n      dup1\n        /* \"TVNProject/TVNLmPool/TVNLmPool.sol\":2876:2881  resIn */\n      dup4\n        /* \"TVNProject/TVNLmPool/TVNLmPool.sol\":2876:2899  resIn + amountInWithFee */\n      tag_233\n      swap2\n      swap1\n      tag_228\n      jump\t// in\n    tag_233:\n        /* \"TVNProject/TVNLmPool/TVNLmPool.sol\":2856:2871  amountInWithFee */\n      dup2\n        /* \"TVNProject/TVNLmPool/TVNLmPool.sol\":2847:2853  resOut */\n      dup4\n        /* \"TVNProject/TVNLmPool/TVNLmPool.sol\":2847:2871  resOut * amountInWithFee */\n      tag_234\n      swap2\n      swap1\n      tag_97\n      jump\t// in\n    tag_234:\n        /* \"TVNProject/TVNLmPool/TVNLmPool.sol\":2846:2900  (resOut * amountInWithFee) / (resIn + amountInWithFee) */\n      tag_235\n      swap2\n      swap1\n      tag_99\n      jump\t// in\n    tag_235:\n        /* \"TVNProject/TVNLmPool/TVNLmPool.sol\":2834:2900  amountOut = (resOut * amountInWithFee) / (resIn + amountInWithFee) */\n      swap7\n      pop\n        /* \"TVNProject/TVNLmPool/TVNLmPool.sol\":2954:2962  tokenOut */\n      dup4\n        /* \"TVNProject/TVNLmPool/TVNLmPool.sol\":2954:2971  tokenOut.transfer */\n      0xffffffffffffffffffffffffffffffffffffffff\n      and\n      0xa9059cbb\n        /* \"TVNProject/TVNLmPool/TVNLmPool.sol\":2972:2982  msg.sender */\n      caller\n        /* \"TVNProject/TVNLmPool/TVNLmPool.sol\":2984:2993  amountOut */\n      dup10\n        /* \"TVNProject/TVNLmPool/TVNLmPool.sol\":2954:2994  tokenOut.transfer(msg.sender, amountOut) */\n      mload(0x40)\n      dup4\n      0xffffffff\n      and\n      0xe0\n      shl\n      dup2\n      mstore\n      0x04\n      add\n      tag_236\n      swap3\n      swap2\n      swap1\n      tag_143\n      jump\t// in\n    tag_236:\n      0x20\n      mload(0x40)\n      dup1\n      dup4\n      sub\n      dup2\n      0x00\n      dup8\n      gas\n      call\n      iszero\n      dup1\n      iszero\n      tag_238\n      jumpi\n      returndatasize\n      0x00\n      dup1\n      returndatacopy\n      revert(0x00, returndatasize)\n    tag_238:\n      pop\n      pop\n      pop\n      pop\n      mload(0x40)\n      returndatasize\n      not(0x1f)\n      0x1f\n      dup3\n      add\n      and\n      dup3\n      add\n      dup1\n      0x40\n      mstore\n      pop\n      dup2\n      add\n      swap1\n      tag_239\n      swap2\n      swap1\n      tag_147\n      jump\t// in\n    tag_239:\n      pop\n        /* \"TVNProject/TVNLmPool/TVNLmPool.sol\":3034:3165  _update(... */\n      tag_240\n        /* \"TVNProject/TVNLmPool/TVNLmPool.sol\":3089:3098  totalFee0 */\n      sload(0x04)\n        /* \"TVNProject/TVNLmPool/TVNLmPool.sol\":3055:3061  token0 */\n      immutable(\"0x6f613263a27c07dcf0f796f1c8181099a92e5eb2eae8c3bec65733e2d5818bb8\")\n        /* \"TVNProject/TVNLmPool/TVNLmPool.sol\":3055:3071  token0.balanceOf */\n      0xffffffffffffffffffffffffffffffffffffffff\n      and\n      0x70a08231\n        /* \"TVNProject/TVNLmPool/TVNLmPool.sol\":3080:3084  this */\n      address\n        /* \"TVNProject/TVNLmPool/TVNLmPool.sol\":3055:3086  token0.balanceOf(address(this)) */\n      mload(0x40)\n      dup3\n      0xffffffff\n      and\n      0xe0\n      shl\n      dup2\n      mstore\n      0x04\n      add\n      tag_241\n      swap2\n      swap1\n      tag_112\n      jump\t// in\n    tag_241:\n      0x20\n      mload(0x40)\n      dup1\n      dup4\n      sub\n      dup2\n      dup7\n      gas\n      staticcall\n      iszero\n      dup1\n      iszero\n      tag_243\n      jumpi\n      returndatasize\n      0x00\n      dup1\n      returndatacopy\n      revert(0x00, returndatasize)\n    tag_243:\n      pop\n      pop\n      pop\n      pop\n      mload(0x40)\n      returndatasize\n      not(0x1f)\n      0x1f\n      dup3\n      add\n      and\n      dup3\n      add\n      dup1\n      0x40\n      mstore\n      pop\n      dup2\n      add\n      swap1\n      tag_244\n      swap2\n      swap1\n      tag_116\n      jump\t// in\n    tag_244:\n        /* \"TVNProject/TVNLmPool/TVNLmPool.sol\":3055:3098  token0.balanceOf(address(this)) - totalFee0 */\n      tag_245\n      swap2\n      swap1\n      tag_94\n      jump\t// in\n    tag_245:\n        /* \"TVNProject/TVNLmPool/TVNLmPool.sol\":3146:3155  totalFee1 */\n      sload(0x05)\n        /* \"TVNProject/TVNLmPool/TVNLmPool.sol\":3112:3118  token1 */\n      immutable(\"0xfc9b319535b4537e1f2e48ab66fc9bab155dd55a5a7551380dca44f719741359\")\n        /* \"TVNProject/TVNLmPool/TVNLmPool.sol\":3112:3128  token1.balanceOf */\n      0xffffffffffffffffffffffffffffffffffffffff\n      and\n      0x70a08231\n        /* \"TVNProject/TVNLmPool/TVNLmPool.sol\":3137:3141  this */\n      address\n        /* \"TVNProject/TVNLmPool/TVNLmPool.sol\":3112:3143  token1.balanceOf(address(this)) */\n      mload(0x40)\n      dup3\n      0xffffffff\n      and\n      0xe0\n      shl\n      dup2\n      mstore\n      0x04\n      add\n      tag_246\n      swap2\n      swap1\n      tag_112\n      jump\t// in\n    tag_246:\n      0x20\n      mload(0x40)\n      dup1\n      dup4\n      sub\n      dup2\n      dup7\n      gas\n      staticcall\n      iszero\n      dup1\n      iszero\n      tag_248\n      jumpi\n      returndatasize\n      0x00\n      dup1\n      returndatacopy\n      revert(0x00, returndatasize)\n    tag_248:\n      pop\n      pop\n      pop\n      pop\n      mload(0x40)\n      returndatasize\n      not(0x1f)\n      0x1f\n      dup3\n      add\n      and\n      dup3\n      add\n      dup1\n      0x40\n      mstore\n      pop\n      dup2\n      add\n      swap1\n      tag_249\n      swap2\n      swap1\n      tag_116\n      jump\t// in\n    tag_249:\n        /* \"TVNProject/TVNLmPool/TVNLmPool.sol\":3112:3155  token1.balanceOf(address(this)) - totalFee1 */\n      tag_250\n      swap2\n      swap1\n      tag_94\n      jump\t// in\n    tag_250:\n        /* \"TVNProject/TVNLmPool/TVNLmPool.sol\":3034:3041  _update */\n      tag_141\n        /* \"TVNProject/TVNLmPool/TVNLmPool.sol\":3034:3165  _update(... */\n      jump\t// in\n    tag_240:\n        /* \"TVNProject/TVNLmPool/TVNLmPool.sol\":1695:3172  {... */\n      pop\n      pop\n      pop\n      pop\n      pop\n      pop\n        /* \"TVNProject/TVNLmPool/TVNLmPool.sol\":1587:3172  function swap(address _tokenIn, uint256 _amountIn)... */\n      swap3\n      swap2\n      pop\n      pop\n      jump\t// out\n        /* \"TVNProject/TVNLmPool/TVNLmPool.sol\":474:504  IERC20 public immutable token1 */\n    tag_84:\n      immutable(\"0xfc9b319535b4537e1f2e48ab66fc9bab155dd55a5a7551380dca44f719741359\")\n      dup2\n      jump\t// out\n        /* \"TVNProject/TVNLmPool/TVNLmPool.sol\":670:688  uint256 public fee */\n    tag_87:\n      sload(0x03)\n      dup2\n      jump\t// out\n        /* \"TVNProject/TVNLmPool/TVNLmPool.sol\":1314:1445  function _burn(address _from, uint256 _amount) private {... */\n    tag_130:\n        /* \"TVNProject/TVNLmPool/TVNLmPool.sol\":1399:1406  _amount */\n      dup1\n        /* \"TVNProject/TVNLmPool/TVNLmPool.sol\":1379:1388  balanceOf */\n      0x07\n        /* \"TVNProject/TVNLmPool/TVNLmPool.sol\":1379:1395  balanceOf[_from] */\n      0x00\n        /* \"TVNProject/TVNLmPool/TVNLmPool.sol\":1389:1394  _from */\n      dup5\n        /* \"TVNProject/TVNLmPool/TVNLmPool.sol\":1379:1395  balanceOf[_from] */\n      0xffffffffffffffffffffffffffffffffffffffff\n      and\n      0xffffffffffffffffffffffffffffffffffffffff\n      and\n      dup2\n      mstore\n      0x20\n      add\n      swap1\n      dup2\n      mstore\n      0x20\n      add\n      0x00\n      keccak256\n      0x00\n        /* \"TVNProject/TVNLmPool/TVNLmPool.sol\":1379:1406  balanceOf[_from] -= _amount */\n      dup3\n      dup3\n      sload\n      tag_252\n      swap2\n      swap1\n      tag_94\n      jump\t// in\n    tag_252:\n      swap3\n      pop\n      pop\n      dup2\n      swap1\n      sstore\n      pop\n        /* \"TVNProject/TVNLmPool/TVNLmPool.sol\":1431:1438  _amount */\n      dup1\n        /* \"TVNProject/TVNLmPool/TVNLmPool.sol\":1416:1427  totalSupply */\n      0x06\n      0x00\n        /* \"TVNProject/TVNLmPool/TVNLmPool.sol\":1416:1438  totalSupply -= _amount */\n      dup3\n      dup3\n      sload\n      tag_253\n      swap2\n      swap1\n      tag_94\n      jump\t// in\n    tag_253:\n      swap3\n      pop\n      pop\n      dup2\n      swap1\n      sstore\n      pop\n        /* \"TVNProject/TVNLmPool/TVNLmPool.sol\":1314:1445  function _burn(address _from, uint256 _amount) private {... */\n      pop\n      pop\n      jump\t// out\n        /* \"TVNProject/TVNLmPool/TVNLmPool.sol\":1451:1581  function _update(uint256 _reserve0, uint256 _reserve1) private {... */\n    tag_141:\n        /* \"TVNProject/TVNLmPool/TVNLmPool.sol\":1535:1544  _reserve0 */\n      dup2\n        /* \"TVNProject/TVNLmPool/TVNLmPool.sol\":1524:1532  reserve0 */\n      0x01\n        /* \"TVNProject/TVNLmPool/TVNLmPool.sol\":1524:1544  reserve0 = _reserve0 */\n      dup2\n      swap1\n      sstore\n      pop\n        /* \"TVNProject/TVNLmPool/TVNLmPool.sol\":1565:1574  _reserve1 */\n      dup1\n        /* \"TVNProject/TVNLmPool/TVNLmPool.sol\":1554:1562  reserve1 */\n      0x02\n        /* \"TVNProject/TVNLmPool/TVNLmPool.sol\":1554:1574  reserve1 = _reserve1 */\n      dup2\n      swap1\n      sstore\n      pop\n        /* \"TVNProject/TVNLmPool/TVNLmPool.sol\":1451:1581  function _update(uint256 _reserve0, uint256 _reserve1) private {... */\n      pop\n      pop\n      jump\t// out\n        /* \"TVNProject/TVNLmPool/TVNLmPool.sol\":6222:6523  function _sqrt(uint256 y) private pure returns (uint256 z) {... */\n    tag_173:\n        /* \"TVNProject/TVNLmPool/TVNLmPool.sol\":6270:6279  uint256 z */\n      0x00\n        /* \"TVNProject/TVNLmPool/TVNLmPool.sol\":6299:6300  3 */\n      0x03\n        /* \"TVNProject/TVNLmPool/TVNLmPool.sol\":6295:6296  y */\n      dup3\n        /* \"TVNProject/TVNLmPool/TVNLmPool.sol\":6295:6300  y > 3 */\n      gt\n        /* \"TVNProject/TVNLmPool/TVNLmPool.sol\":6291:6517  if (y > 3) {... */\n      iszero\n      tag_256\n      jumpi\n        /* \"TVNProject/TVNLmPool/TVNLmPool.sol\":6320:6321  y */\n      dup2\n        /* \"TVNProject/TVNLmPool/TVNLmPool.sol\":6316:6321  z = y */\n      swap1\n      pop\n        /* \"TVNProject/TVNLmPool/TVNLmPool.sol\":6335:6344  uint256 x */\n      0x00\n        /* \"TVNProject/TVNLmPool/TVNLmPool.sol\":6355:6356  1 */\n      0x01\n        /* \"TVNProject/TVNLmPool/TVNLmPool.sol\":6351:6352  2 */\n      0x02\n        /* \"TVNProject/TVNLmPool/TVNLmPool.sol\":6347:6348  y */\n      dup5\n        /* \"TVNProject/TVNLmPool/TVNLmPool.sol\":6347:6352  y / 2 */\n      tag_257\n      swap2\n      swap1\n      tag_99\n      jump\t// in\n    tag_257:\n        /* \"TVNProject/TVNLmPool/TVNLmPool.sol\":6347:6356  y / 2 + 1 */\n      tag_258\n      swap2\n      swap1\n      tag_228\n      jump\t// in\n    tag_258:\n        /* \"TVNProject/TVNLmPool/TVNLmPool.sol\":6335:6356  uint256 x = y / 2 + 1 */\n      swap1\n      pop\n        /* \"TVNProject/TVNLmPool/TVNLmPool.sol\":6370:6459  while (x < z) {... */\n    tag_259:\n        /* \"TVNProject/TVNLmPool/TVNLmPool.sol\":6381:6382  z */\n      dup2\n        /* \"TVNProject/TVNLmPool/TVNLmPool.sol\":6377:6378  x */\n      dup2\n        /* \"TVNProject/TVNLmPool/TVNLmPool.sol\":6377:6382  x < z */\n      lt\n        /* \"TVNProject/TVNLmPool/TVNLmPool.sol\":6370:6459  while (x < z) {... */\n      iszero\n      tag_260\n      jumpi\n        /* \"TVNProject/TVNLmPool/TVNLmPool.sol\":6406:6407  x */\n      dup1\n        /* \"TVNProject/TVNLmPool/TVNLmPool.sol\":6402:6407  z = x */\n      swap2\n      pop\n        /* \"TVNProject/TVNLmPool/TVNLmPool.sol\":6443:6444  2 */\n      0x02\n        /* \"TVNProject/TVNLmPool/TVNLmPool.sol\":6438:6439  x */\n      dup2\n        /* \"TVNProject/TVNLmPool/TVNLmPool.sol\":6434:6435  x */\n      dup3\n        /* \"TVNProject/TVNLmPool/TVNLmPool.sol\":6430:6431  y */\n      dup6\n        /* \"TVNProject/TVNLmPool/TVNLmPool.sol\":6430:6435  y / x */\n      tag_261\n      swap2\n      swap1\n      tag_99\n      jump\t// in\n    tag_261:\n        /* \"TVNProject/TVNLmPool/TVNLmPool.sol\":6430:6439  y / x + x */\n      tag_262\n      swap2\n      swap1\n      tag_228\n      jump\t// in\n    tag_262:\n        /* \"TVNProject/TVNLmPool/TVNLmPool.sol\":6429:6444  (y / x + x) / 2 */\n      tag_263\n      swap2\n      swap1\n      tag_99\n      jump\t// in\n    tag_263:\n        /* \"TVNProject/TVNLmPool/TVNLmPool.sol\":6425:6444  x = (y / x + x) / 2 */\n      swap1\n      pop\n        /* \"TVNProject/TVNLmPool/TVNLmPool.sol\":6370:6459  while (x < z) {... */\n      jump(tag_259)\n    tag_260:\n        /* \"TVNProject/TVNLmPool/TVNLmPool.sol\":6302:6469  {... */\n      pop\n        /* \"TVNProject/TVNLmPool/TVNLmPool.sol\":6291:6517  if (y > 3) {... */\n      jump(tag_264)\n    tag_256:\n        /* \"TVNProject/TVNLmPool/TVNLmPool.sol\":6484:6485  0 */\n      0x00\n        /* \"TVNProject/TVNLmPool/TVNLmPool.sol\":6479:6480  y */\n      dup3\n        /* \"TVNProject/TVNLmPool/TVNLmPool.sol\":6479:6485  y != 0 */\n      eq\n        /* \"TVNProject/TVNLmPool/TVNLmPool.sol\":6475:6517  if (y != 0) {... */\n      tag_265\n      jumpi\n        /* \"TVNProject/TVNLmPool/TVNLmPool.sol\":6505:6506  1 */\n      0x01\n        /* \"TVNProject/TVNLmPool/TVNLmPool.sol\":6501:6506  z = 1 */\n      swap1\n      pop\n        /* \"TVNProject/TVNLmPool/TVNLmPool.sol\":6475:6517  if (y != 0) {... */\n    tag_265:\n        /* \"TVNProject/TVNLmPool/TVNLmPool.sol\":6291:6517  if (y > 3) {... */\n    tag_264:\n        /* \"TVNProject/TVNLmPool/TVNLmPool.sol\":6222:6523  function _sqrt(uint256 y) private pure returns (uint256 z) {... */\n      swap2\n      swap1\n      pop\n      jump\t// out\n        /* \"TVNProject/TVNLmPool/TVNLmPool.sol\":6529:6634  function _min(uint256 x, uint256 y) private pure returns (uint256) {... */\n    tag_180:\n        /* \"TVNProject/TVNLmPool/TVNLmPool.sol\":6587:6594  uint256 */\n      0x00\n        /* \"TVNProject/TVNLmPool/TVNLmPool.sol\":6618:6619  y */\n      dup2\n        /* \"TVNProject/TVNLmPool/TVNLmPool.sol\":6613:6614  x */\n      dup4\n        /* \"TVNProject/TVNLmPool/TVNLmPool.sol\":6613:6619  x <= y */\n      gt\n      iszero\n        /* \"TVNProject/TVNLmPool/TVNLmPool.sol\":6613:6627  x <= y ? x : y */\n      tag_267\n      jumpi\n        /* \"TVNProject/TVNLmPool/TVNLmPool.sol\":6626:6627  y */\n      dup2\n        /* \"TVNProject/TVNLmPool/TVNLmPool.sol\":6613:6627  x <= y ? x : y */\n      jump(tag_268)\n    tag_267:\n        /* \"TVNProject/TVNLmPool/TVNLmPool.sol\":6622:6623  x */\n      dup3\n        /* \"TVNProject/TVNLmPool/TVNLmPool.sol\":6613:6627  x <= y ? x : y */\n    tag_268:\n        /* \"TVNProject/TVNLmPool/TVNLmPool.sol\":6606:6627  return x <= y ? x : y */\n      swap1\n      pop\n        /* \"TVNProject/TVNLmPool/TVNLmPool.sol\":6529:6634  function _min(uint256 x, uint256 y) private pure returns (uint256) {... */\n      swap3\n      swap2\n      pop\n      pop\n      jump\t// out\n        /* \"TVNProject/TVNLmPool/TVNLmPool.sol\":1181:1308  function _mint(address _to, uint256 _amount) private {... */\n    tag_185:\n        /* \"TVNProject/TVNLmPool/TVNLmPool.sol\":1262:1269  _amount */\n      dup1\n        /* \"TVNProject/TVNLmPool/TVNLmPool.sol\":1244:1253  balanceOf */\n      0x07\n        /* \"TVNProject/TVNLmPool/TVNLmPool.sol\":1244:1258  balanceOf[_to] */\n      0x00\n        /* \"TVNProject/TVNLmPool/TVNLmPool.sol\":1254:1257  _to */\n      dup5\n        /* \"TVNProject/TVNLmPool/TVNLmPool.sol\":1244:1258  balanceOf[_to] */\n      0xffffffffffffffffffffffffffffffffffffffff\n      and\n      0xffffffffffffffffffffffffffffffffffffffff\n      and\n      dup2\n      mstore\n      0x20\n      add\n      swap1\n      dup2\n      mstore\n      0x20\n      add\n      0x00\n      keccak256\n      0x00\n        /* \"TVNProject/TVNLmPool/TVNLmPool.sol\":1244:1269  balanceOf[_to] += _amount */\n      dup3\n      dup3\n      sload\n      tag_270\n      swap2\n      swap1\n      tag_228\n      jump\t// in\n    tag_270:\n      swap3\n      pop\n      pop\n      dup2\n      swap1\n      sstore\n      pop\n        /* \"TVNProject/TVNLmPool/TVNLmPool.sol\":1294:1301  _amount */\n      dup1\n        /* \"TVNProject/TVNLmPool/TVNLmPool.sol\":1279:1290  totalSupply */\n      0x06\n      0x00\n        /* \"TVNProject/TVNLmPool/TVNLmPool.sol\":1279:1301  totalSupply += _amount */\n      dup3\n      dup3\n      sload\n      tag_271\n      swap2\n      swap1\n      tag_228\n      jump\t// in\n    tag_271:\n      swap3\n      pop\n      pop\n      dup2\n      swap1\n      sstore\n      pop\n        /* \"TVNProject/TVNLmPool/TVNLmPool.sol\":1181:1308  function _mint(address _to, uint256 _amount) private {... */\n      pop\n      pop\n      jump\t// out\n        /* \"#utility.yul\":7:82   */\n    tag_272:\n        /* \"#utility.yul\":40:46   */\n      0x00\n        /* \"#utility.yul\":73:75   */\n      0x40\n        /* \"#utility.yul\":67:76   */\n      mload\n        /* \"#utility.yul\":57:76   */\n      swap1\n      pop\n        /* \"#utility.yul\":7:82   */\n      swap1\n      jump\t// out\n        /* \"#utility.yul\":88:205   */\n    tag_273:\n        /* \"#utility.yul\":197:198   */\n      0x00\n        /* \"#utility.yul\":194:195   */\n      dup1\n        /* \"#utility.yul\":187:199   */\n      revert\n        /* \"#utility.yul\":211:328   */\n    tag_274:\n        /* \"#utility.yul\":320:321   */\n      0x00\n        /* \"#utility.yul\":317:318   */\n      dup1\n        /* \"#utility.yul\":310:322   */\n      revert\n        /* \"#utility.yul\":334:483   */\n    tag_275:\n        /* \"#utility.yul\":370:377   */\n      0x00\n        /* \"#utility.yul\":410:476   */\n      0xffffffff00000000000000000000000000000000000000000000000000000000\n        /* \"#utility.yul\":403:408   */\n      dup3\n        /* \"#utility.yul\":399:477   */\n      and\n        /* \"#utility.yul\":388:477   */\n      swap1\n      pop\n        /* \"#utility.yul\":334:483   */\n      swap2\n      swap1\n      pop\n      jump\t// out\n        /* \"#utility.yul\":489:609   */\n    tag_276:\n        /* \"#utility.yul\":561:584   */\n      tag_334\n        /* \"#utility.yul\":578:583   */\n      dup2\n        /* \"#utility.yul\":561:584   */\n      tag_275\n      jump\t// in\n    tag_334:\n        /* \"#utility.yul\":554:559   */\n      dup2\n        /* \"#utility.yul\":551:585   */\n      eq\n        /* \"#utility.yul\":541:603   */\n      tag_335\n      jumpi\n        /* \"#utility.yul\":599:600   */\n      0x00\n        /* \"#utility.yul\":596:597   */\n      dup1\n        /* \"#utility.yul\":589:601   */\n      revert\n        /* \"#utility.yul\":541:603   */\n    tag_335:\n        /* \"#utility.yul\":489:609   */\n      pop\n      jump\t// out\n        /* \"#utility.yul\":615:752   */\n    tag_277:\n        /* \"#utility.yul\":660:665   */\n      0x00\n        /* \"#utility.yul\":698:704   */\n      dup2\n        /* \"#utility.yul\":685:705   */\n      calldataload\n        /* \"#utility.yul\":676:705   */\n      swap1\n      pop\n        /* \"#utility.yul\":714:746   */\n      tag_337\n        /* \"#utility.yul\":740:745   */\n      dup2\n        /* \"#utility.yul\":714:746   */\n      tag_276\n      jump\t// in\n    tag_337:\n        /* \"#utility.yul\":615:752   */\n      swap3\n      swap2\n      pop\n      pop\n      jump\t// out\n        /* \"#utility.yul\":758:1085   */\n    tag_24:\n        /* \"#utility.yul\":816:822   */\n      0x00\n        /* \"#utility.yul\":865:867   */\n      0x20\n        /* \"#utility.yul\":853:862   */\n      dup3\n        /* \"#utility.yul\":844:851   */\n      dup5\n        /* \"#utility.yul\":840:863   */\n      sub\n        /* \"#utility.yul\":836:868   */\n      slt\n        /* \"#utility.yul\":833:952   */\n      iszero\n      tag_339\n      jumpi\n        /* \"#utility.yul\":871:950   */\n      tag_340\n      tag_273\n      jump\t// in\n    tag_340:\n        /* \"#utility.yul\":833:952   */\n    tag_339:\n        /* \"#utility.yul\":991:992   */\n      0x00\n        /* \"#utility.yul\":1016:1068   */\n      tag_341\n        /* \"#utility.yul\":1060:1067   */\n      dup5\n        /* \"#utility.yul\":1051:1057   */\n      dup3\n        /* \"#utility.yul\":1040:1049   */\n      dup6\n        /* \"#utility.yul\":1036:1058   */\n      add\n        /* \"#utility.yul\":1016:1068   */\n      tag_277\n      jump\t// in\n    tag_341:\n        /* \"#utility.yul\":1006:1068   */\n      swap2\n      pop\n        /* \"#utility.yul\":962:1078   */\n      pop\n        /* \"#utility.yul\":758:1085   */\n      swap3\n      swap2\n      pop\n      pop\n      jump\t// out\n        /* \"#utility.yul\":1091:1181   */\n    tag_278:\n        /* \"#utility.yul\":1125:1132   */\n      0x00\n        /* \"#utility.yul\":1168:1173   */\n      dup2\n        /* \"#utility.yul\":1161:1174   */\n      iszero\n        /* \"#utility.yul\":1154:1175   */\n      iszero\n        /* \"#utility.yul\":1143:1175   */\n      swap1\n      pop\n        /* \"#utility.yul\":1091:1181   */\n      swap2\n      swap1\n      pop\n      jump\t// out\n        /* \"#utility.yul\":1187:1296   */\n    tag_279:\n        /* \"#utility.yul\":1268:1289   */\n      tag_344\n        /* \"#utility.yul\":1283:1288   */\n      dup2\n        /* \"#utility.yul\":1268:1289   */\n      tag_278\n      jump\t// in\n    tag_344:\n        /* \"#utility.yul\":1263:1266   */\n      dup3\n        /* \"#utility.yul\":1256:1290   */\n      mstore\n        /* \"#utility.yul\":1187:1296   */\n      pop\n      pop\n      jump\t// out\n        /* \"#utility.yul\":1302:1512   */\n    tag_27:\n        /* \"#utility.yul\":1389:1393   */\n      0x00\n        /* \"#utility.yul\":1427:1429   */\n      0x20\n        /* \"#utility.yul\":1416:1425   */\n      dup3\n        /* \"#utility.yul\":1412:1430   */\n      add\n        /* \"#utility.yul\":1404:1430   */\n      swap1\n      pop\n        /* \"#utility.yul\":1440:1505   */\n      tag_346\n        /* \"#utility.yul\":1502:1503   */\n      0x00\n        /* \"#utility.yul\":1491:1500   */\n      dup4\n        /* \"#utility.yul\":1487:1504   */\n      add\n        /* \"#utility.yul\":1478:1484   */\n      dup5\n        /* \"#utility.yul\":1440:1505   */\n      tag_279\n      jump\t// in\n    tag_346:\n        /* \"#utility.yul\":1302:1512   */\n      swap3\n      swap2\n      pop\n      pop\n      jump\t// out\n        /* \"#utility.yul\":1518:1644   */\n    tag_280:\n        /* \"#utility.yul\":1555:1562   */\n      0x00\n        /* \"#utility.yul\":1595:1637   */\n      0xffffffffffffffffffffffffffffffffffffffff\n        /* \"#utility.yul\":1588:1593   */\n      dup3\n        /* \"#utility.yul\":1584:1638   */\n      and\n        /* \"#utility.yul\":1573:1638   */\n      swap1\n      pop\n        /* \"#utility.yul\":1518:1644   */\n      swap2\n      swap1\n      pop\n      jump\t// out\n        /* \"#utility.yul\":1650:1710   */\n    tag_281:\n        /* \"#utility.yul\":1678:1681   */\n      0x00\n        /* \"#utility.yul\":1699:1704   */\n      dup2\n        /* \"#utility.yul\":1692:1704   */\n      swap1\n      pop\n        /* \"#utility.yul\":1650:1710   */\n      swap2\n      swap1\n      pop\n      jump\t// out\n        /* \"#utility.yul\":1716:1858   */\n    tag_282:\n        /* \"#utility.yul\":1766:1775   */\n      0x00\n        /* \"#utility.yul\":1799:1852   */\n      tag_350\n        /* \"#utility.yul\":1817:1851   */\n      tag_351\n        /* \"#utility.yul\":1826:1850   */\n      tag_352\n        /* \"#utility.yul\":1844:1849   */\n      dup5\n        /* \"#utility.yul\":1826:1850   */\n      tag_280\n      jump\t// in\n    tag_352:\n        /* \"#utility.yul\":1817:1851   */\n      tag_281\n      jump\t// in\n    tag_351:\n        /* \"#utility.yul\":1799:1852   */\n      tag_280\n      jump\t// in\n    tag_350:\n        /* \"#utility.yul\":1786:1852   */\n      swap1\n      pop\n        /* \"#utility.yul\":1716:1858   */\n      swap2\n      swap1\n      pop\n      jump\t// out\n        /* \"#utility.yul\":1864:1990   */\n    tag_283:\n        /* \"#utility.yul\":1914:1923   */\n      0x00\n        /* \"#utility.yul\":1947:1984   */\n      tag_354\n        /* \"#utility.yul\":1978:1983   */\n      dup3\n        /* \"#utility.yul\":1947:1984   */\n      tag_282\n      jump\t// in\n    tag_354:\n        /* \"#utility.yul\":1934:1984   */\n      swap1\n      pop\n        /* \"#utility.yul\":1864:1990   */\n      swap2\n      swap1\n      pop\n      jump\t// out\n        /* \"#utility.yul\":1996:2146   */\n    tag_284:\n        /* \"#utility.yul\":2070:2079   */\n      0x00\n        /* \"#utility.yul\":2103:2140   */\n      tag_356\n        /* \"#utility.yul\":2134:2139   */\n      dup3\n        /* \"#utility.yul\":2103:2140   */\n      tag_283\n      jump\t// in\n    tag_356:\n        /* \"#utility.yul\":2090:2140   */\n      swap1\n      pop\n        /* \"#utility.yul\":1996:2146   */\n      swap2\n      swap1\n      pop\n      jump\t// out\n        /* \"#utility.yul\":2152:2331   */\n    tag_285:\n        /* \"#utility.yul\":2263:2324   */\n      tag_358\n        /* \"#utility.yul\":2318:2323   */\n      dup2\n        /* \"#utility.yul\":2263:2324   */\n      tag_284\n      jump\t// in\n    tag_358:\n        /* \"#utility.yul\":2258:2261   */\n      dup3\n        /* \"#utility.yul\":2251:2325   */\n      mstore\n        /* \"#utility.yul\":2152:2331   */\n      pop\n      pop\n      jump\t// out\n        /* \"#utility.yul\":2337:2607   */\n    tag_31:\n        /* \"#utility.yul\":2454:2458   */\n      0x00\n        /* \"#utility.yul\":2492:2494   */\n      0x20\n        /* \"#utility.yul\":2481:2490   */\n      dup3\n        /* \"#utility.yul\":2477:2495   */\n      add\n        /* \"#utility.yul\":2469:2495   */\n      swap1\n      pop\n        /* \"#utility.yul\":2505:2600   */\n      tag_360\n        /* \"#utility.yul\":2597:2598   */\n      0x00\n        /* \"#utility.yul\":2586:2595   */\n      dup4\n        /* \"#utility.yul\":2582:2599   */\n      add\n        /* \"#utility.yul\":2573:2579   */\n      dup5\n        /* \"#utility.yul\":2505:2600   */\n      tag_285\n      jump\t// in\n    tag_360:\n        /* \"#utility.yul\":2337:2607   */\n      swap3\n      swap2\n      pop\n      pop\n      jump\t// out\n        /* \"#utility.yul\":2613:2752   */\n    tag_286:\n        /* \"#utility.yul\":2676:2685   */\n      0x00\n        /* \"#utility.yul\":2709:2746   */\n      tag_362\n        /* \"#utility.yul\":2740:2745   */\n      dup3\n        /* \"#utility.yul\":2709:2746   */\n      tag_283\n      jump\t// in\n    tag_362:\n        /* \"#utility.yul\":2696:2746   */\n      swap1\n      pop\n        /* \"#utility.yul\":2613:2752   */\n      swap2\n      swap1\n      pop\n      jump\t// out\n        /* \"#utility.yul\":2758:2915   */\n    tag_287:\n        /* \"#utility.yul\":2858:2908   */\n      tag_364\n        /* \"#utility.yul\":2902:2907   */\n      dup2\n        /* \"#utility.yul\":2858:2908   */\n      tag_286\n      jump\t// in\n    tag_364:\n        /* \"#utility.yul\":2853:2856   */\n      dup3\n        /* \"#utility.yul\":2846:2909   */\n      mstore\n        /* \"#utility.yul\":2758:2915   */\n      pop\n      pop\n      jump\t// out\n        /* \"#utility.yul\":2921:3169   */\n    tag_35:\n        /* \"#utility.yul\":3027:3031   */\n      0x00\n        /* \"#utility.yul\":3065:3067   */\n      0x20\n        /* \"#utility.yul\":3054:3063   */\n      dup3\n        /* \"#utility.yul\":3050:3068   */\n      add\n        /* \"#utility.yul\":3042:3068   */\n      swap1\n      pop\n        /* \"#utility.yul\":3078:3162   */\n      tag_366\n        /* \"#utility.yul\":3159:3160   */\n      0x00\n        /* \"#utility.yul\":3148:3157   */\n      dup4\n        /* \"#utility.yul\":3144:3161   */\n      add\n        /* \"#utility.yul\":3135:3141   */\n      dup5\n        /* \"#utility.yul\":3078:3162   */\n      tag_287\n      jump\t// in\n    tag_366:\n        /* \"#utility.yul\":2921:3169   */\n      swap3\n      swap2\n      pop\n      pop\n      jump\t// out\n        /* \"#utility.yul\":3175:3271   */\n    tag_288:\n        /* \"#utility.yul\":3212:3219   */\n      0x00\n        /* \"#utility.yul\":3241:3265   */\n      tag_368\n        /* \"#utility.yul\":3259:3264   */\n      dup3\n        /* \"#utility.yul\":3241:3265   */\n      tag_280\n      jump\t// in\n    tag_368:\n        /* \"#utility.yul\":3230:3265   */\n      swap1\n      pop\n        /* \"#utility.yul\":3175:3271   */\n      swap2\n      swap1\n      pop\n      jump\t// out\n        /* \"#utility.yul\":3277:3399   */\n    tag_289:\n        /* \"#utility.yul\":3350:3374   */\n      tag_370\n        /* \"#utility.yul\":3368:3373   */\n      dup2\n        /* \"#utility.yul\":3350:3374   */\n      tag_288\n      jump\t// in\n    tag_370:\n        /* \"#utility.yul\":3343:3348   */\n      dup2\n        /* \"#utility.yul\":3340:3375   */\n      eq\n        /* \"#utility.yul\":3330:3393   */\n      tag_371\n      jumpi\n        /* \"#utility.yul\":3389:3390   */\n      0x00\n        /* \"#utility.yul\":3386:3387   */\n      dup1\n        /* \"#utility.yul\":3379:3391   */\n      revert\n        /* \"#utility.yul\":3330:3393   */\n    tag_371:\n        /* \"#utility.yul\":3277:3399   */\n      pop\n      jump\t// out\n        /* \"#utility.yul\":3405:3544   */\n    tag_290:\n        /* \"#utility.yul\":3451:3456   */\n      0x00\n        /* \"#utility.yul\":3489:3495   */\n      dup2\n        /* \"#utility.yul\":3476:3496   */\n      calldataload\n        /* \"#utility.yul\":3467:3496   */\n      swap1\n      pop\n        /* \"#utility.yul\":3505:3538   */\n      tag_373\n        /* \"#utility.yul\":3532:3537   */\n      dup2\n        /* \"#utility.yul\":3505:3538   */\n      tag_289\n      jump\t// in\n    tag_373:\n        /* \"#utility.yul\":3405:3544   */\n      swap3\n      swap2\n      pop\n      pop\n      jump\t// out\n        /* \"#utility.yul\":3550:3627   */\n    tag_291:\n        /* \"#utility.yul\":3587:3594   */\n      0x00\n        /* \"#utility.yul\":3616:3621   */\n      dup2\n        /* \"#utility.yul\":3605:3621   */\n      swap1\n      pop\n        /* \"#utility.yul\":3550:3627   */\n      swap2\n      swap1\n      pop\n      jump\t// out\n        /* \"#utility.yul\":3633:3755   */\n    tag_292:\n        /* \"#utility.yul\":3706:3730   */\n      tag_376\n        /* \"#utility.yul\":3724:3729   */\n      dup2\n        /* \"#utility.yul\":3706:3730   */\n      tag_291\n      jump\t// in\n    tag_376:\n        /* \"#utility.yul\":3699:3704   */\n      dup2\n        /* \"#utility.yul\":3696:3731   */\n      eq\n        /* \"#utility.yul\":3686:3749   */\n      tag_377\n      jumpi\n        /* \"#utility.yul\":3745:3746   */\n      0x00\n        /* \"#utility.yul\":3742:3743   */\n      dup1\n        /* \"#utility.yul\":3735:3747   */\n      revert\n        /* \"#utility.yul\":3686:3749   */\n    tag_377:\n        /* \"#utility.yul\":3633:3755   */\n      pop\n      jump\t// out\n        /* \"#utility.yul\":3761:3900   */\n    tag_293:\n        /* \"#utility.yul\":3807:3812   */\n      0x00\n        /* \"#utility.yul\":3845:3851   */\n      dup2\n        /* \"#utility.yul\":3832:3852   */\n      calldataload\n        /* \"#utility.yul\":3823:3852   */\n      swap1\n      pop\n        /* \"#utility.yul\":3861:3894   */\n      tag_379\n        /* \"#utility.yul\":3888:3893   */\n      dup2\n        /* \"#utility.yul\":3861:3894   */\n      tag_292\n      jump\t// in\n    tag_379:\n        /* \"#utility.yul\":3761:3900   */\n      swap3\n      swap2\n      pop\n      pop\n      jump\t// out\n        /* \"#utility.yul\":3906:4023   */\n    tag_294:\n        /* \"#utility.yul\":4015:4016   */\n      0x00\n        /* \"#utility.yul\":4012:4013   */\n      dup1\n        /* \"#utility.yul\":4005:4017   */\n      revert\n        /* \"#utility.yul\":4029:4146   */\n    tag_295:\n        /* \"#utility.yul\":4138:4139   */\n      0x00\n        /* \"#utility.yul\":4135:4136   */\n      dup1\n        /* \"#utility.yul\":4128:4140   */\n      revert\n        /* \"#utility.yul\":4152:4269   */\n    tag_296:\n        /* \"#utility.yul\":4261:4262   */\n      0x00\n        /* \"#utility.yul\":4258:4259   */\n      dup1\n        /* \"#utility.yul\":4251:4263   */\n      revert\n        /* \"#utility.yul\":4288:4840   */\n    tag_297:\n        /* \"#utility.yul\":4345:4353   */\n      0x00\n        /* \"#utility.yul\":4355:4361   */\n      dup1\n        /* \"#utility.yul\":4405:4408   */\n      dup4\n        /* \"#utility.yul\":4398:4402   */\n      0x1f\n        /* \"#utility.yul\":4390:4396   */\n      dup5\n        /* \"#utility.yul\":4386:4403   */\n      add\n        /* \"#utility.yul\":4382:4409   */\n      slt\n        /* \"#utility.yul\":4372:4494   */\n      tag_384\n      jumpi\n        /* \"#utility.yul\":4413:4492   */\n      tag_385\n      tag_294\n      jump\t// in\n    tag_385:\n        /* \"#utility.yul\":4372:4494   */\n    tag_384:\n        /* \"#utility.yul\":4526:4532   */\n      dup3\n        /* \"#utility.yul\":4513:4533   */\n      calldataload\n        /* \"#utility.yul\":4503:4533   */\n      swap1\n      pop\n        /* \"#utility.yul\":4556:4574   */\n      0xffffffffffffffff\n        /* \"#utility.yul\":4548:4554   */\n      dup2\n        /* \"#utility.yul\":4545:4575   */\n      gt\n        /* \"#utility.yul\":4542:4659   */\n      iszero\n      tag_386\n      jumpi\n        /* \"#utility.yul\":4578:4657   */\n      tag_387\n      tag_295\n      jump\t// in\n    tag_387:\n        /* \"#utility.yul\":4542:4659   */\n    tag_386:\n        /* \"#utility.yul\":4692:4696   */\n      0x20\n        /* \"#utility.yul\":4684:4690   */\n      dup4\n        /* \"#utility.yul\":4680:4697   */\n      add\n        /* \"#utility.yul\":4668:4697   */\n      swap2\n      pop\n        /* \"#utility.yul\":4746:4749   */\n      dup4\n        /* \"#utility.yul\":4738:4742   */\n      0x01\n        /* \"#utility.yul\":4730:4736   */\n      dup3\n        /* \"#utility.yul\":4726:4743   */\n      mul\n        /* \"#utility.yul\":4716:4724   */\n      dup4\n        /* \"#utility.yul\":4712:4744   */\n      add\n        /* \"#utility.yul\":4709:4750   */\n      gt\n        /* \"#utility.yul\":4706:4834   */\n      iszero\n      tag_388\n      jumpi\n        /* \"#utility.yul\":4753:4832   */\n      tag_389\n      tag_296\n      jump\t// in\n    tag_389:\n        /* \"#utility.yul\":4706:4834   */\n    tag_388:\n        /* \"#utility.yul\":4288:4840   */\n      swap3\n      pop\n      swap3\n      swap1\n      pop\n      jump\t// out\n        /* \"#utility.yul\":4846:5809   */\n    tag_38:\n        /* \"#utility.yul\":4943:4949   */\n      0x00\n        /* \"#utility.yul\":4951:4957   */\n      dup1\n        /* \"#utility.yul\":4959:4965   */\n      0x00\n        /* \"#utility.yul\":4967:4973   */\n      dup1\n        /* \"#utility.yul\":4975:4981   */\n      0x00\n        /* \"#utility.yul\":5024:5027   */\n      0x80\n        /* \"#utility.yul\":5012:5021   */\n      dup7\n        /* \"#utility.yul\":5003:5010   */\n      dup9\n        /* \"#utility.yul\":4999:5022   */\n      sub\n        /* \"#utility.yul\":4995:5028   */\n      slt\n        /* \"#utility.yul\":4992:5112   */\n      iszero\n      tag_391\n      jumpi\n        /* \"#utility.yul\":5031:5110   */\n      tag_392\n      tag_273\n      jump\t// in\n    tag_392:\n        /* \"#utility.yul\":4992:5112   */\n    tag_391:\n        /* \"#utility.yul\":5151:5152   */\n      0x00\n        /* \"#utility.yul\":5176:5229   */\n      tag_393\n        /* \"#utility.yul\":5221:5228   */\n      dup9\n        /* \"#utility.yul\":5212:5218   */\n      dup3\n        /* \"#utility.yul\":5201:5210   */\n      dup10\n        /* \"#utility.yul\":5197:5219   */\n      add\n        /* \"#utility.yul\":5176:5229   */\n      tag_290\n      jump\t// in\n    tag_393:\n        /* \"#utility.yul\":5166:5229   */\n      swap6\n      pop\n        /* \"#utility.yul\":5122:5239   */\n      pop\n        /* \"#utility.yul\":5278:5280   */\n      0x20\n        /* \"#utility.yul\":5304:5357   */\n      tag_394\n        /* \"#utility.yul\":5349:5356   */\n      dup9\n        /* \"#utility.yul\":5340:5346   */\n      dup3\n        /* \"#utility.yul\":5329:5338   */\n      dup10\n        /* \"#utility.yul\":5325:5347   */\n      add\n        /* \"#utility.yul\":5304:5357   */\n      tag_290\n      jump\t// in\n    tag_394:\n        /* \"#utility.yul\":5294:5357   */\n      swap5\n      pop\n        /* \"#utility.yul\":5249:5367   */\n      pop\n        /* \"#utility.yul\":5406:5408   */\n      0x40\n        /* \"#utility.yul\":5432:5485   */\n      tag_395\n        /* \"#utility.yul\":5477:5484   */\n      dup9\n        /* \"#utility.yul\":5468:5474   */\n      dup3\n        /* \"#utility.yul\":5457:5466   */\n      dup10\n        /* \"#utility.yul\":5453:5475   */\n      add\n        /* \"#utility.yul\":5432:5485   */\n      tag_293\n      jump\t// in\n    tag_395:\n        /* \"#utility.yul\":5422:5485   */\n      swap4\n      pop\n        /* \"#utility.yul\":5377:5495   */\n      pop\n        /* \"#utility.yul\":5562:5564   */\n      0x60\n        /* \"#utility.yul\":5551:5560   */\n      dup7\n        /* \"#utility.yul\":5547:5565   */\n      add\n        /* \"#utility.yul\":5534:5566   */\n      calldataload\n        /* \"#utility.yul\":5593:5611   */\n      0xffffffffffffffff\n        /* \"#utility.yul\":5585:5591   */\n      dup2\n        /* \"#utility.yul\":5582:5612   */\n      gt\n        /* \"#utility.yul\":5579:5696   */\n      iszero\n      tag_396\n      jumpi\n        /* \"#utility.yul\":5615:5694   */\n      tag_397\n      tag_274\n      jump\t// in\n    tag_397:\n        /* \"#utility.yul\":5579:5696   */\n    tag_396:\n        /* \"#utility.yul\":5728:5792   */\n      tag_398\n        /* \"#utility.yul\":5784:5791   */\n      dup9\n        /* \"#utility.yul\":5775:5781   */\n      dup3\n        /* \"#utility.yul\":5764:5773   */\n      dup10\n        /* \"#utility.yul\":5760:5782   */\n      add\n        /* \"#utility.yul\":5728:5792   */\n      tag_297\n      jump\t// in\n    tag_398:\n        /* \"#utility.yul\":5710:5792   */\n      swap3\n      pop\n      swap3\n      pop\n        /* \"#utility.yul\":5505:5802   */\n      pop\n        /* \"#utility.yul\":4846:5809   */\n      swap3\n      swap6\n      pop\n      swap3\n      swap6\n      swap1\n      swap4\n      pop\n      jump\t// out\n        /* \"#utility.yul\":5815:5930   */\n    tag_298:\n        /* \"#utility.yul\":5900:5923   */\n      tag_400\n        /* \"#utility.yul\":5917:5922   */\n      dup2\n        /* \"#utility.yul\":5900:5923   */\n      tag_275\n      jump\t// in\n    tag_400:\n        /* \"#utility.yul\":5895:5898   */\n      dup3\n        /* \"#utility.yul\":5888:5924   */\n      mstore\n        /* \"#utility.yul\":5815:5930   */\n      pop\n      pop\n      jump\t// out\n        /* \"#utility.yul\":5936:6154   */\n    tag_41:\n        /* \"#utility.yul\":6027:6031   */\n      0x00\n        /* \"#utility.yul\":6065:6067   */\n      0x20\n        /* \"#utility.yul\":6054:6063   */\n      dup3\n        /* \"#utility.yul\":6050:6068   */\n      add\n        /* \"#utility.yul\":6042:6068   */\n      swap1\n      pop\n        /* \"#utility.yul\":6078:6147   */\n      tag_402\n        /* \"#utility.yul\":6144:6145   */\n      0x00\n        /* \"#utility.yul\":6133:6142   */\n      dup4\n        /* \"#utility.yul\":6129:6146   */\n      add\n        /* \"#utility.yul\":6120:6126   */\n      dup5\n        /* \"#utility.yul\":6078:6147   */\n      tag_298\n      jump\t// in\n    tag_402:\n        /* \"#utility.yul\":5936:6154   */\n      swap3\n      swap2\n      pop\n      pop\n      jump\t// out\n        /* \"#utility.yul\":6160:6278   */\n    tag_299:\n        /* \"#utility.yul\":6247:6271   */\n      tag_404\n        /* \"#utility.yul\":6265:6270   */\n      dup2\n        /* \"#utility.yul\":6247:6271   */\n      tag_291\n      jump\t// in\n    tag_404:\n        /* \"#utility.yul\":6242:6245   */\n      dup3\n        /* \"#utility.yul\":6235:6272   */\n      mstore\n        /* \"#utility.yul\":6160:6278   */\n      pop\n      pop\n      jump\t// out\n        /* \"#utility.yul\":6284:6506   */\n    tag_45:\n        /* \"#utility.yul\":6377:6381   */\n      0x00\n        /* \"#utility.yul\":6415:6417   */\n      0x20\n        /* \"#utility.yul\":6404:6413   */\n      dup3\n        /* \"#utility.yul\":6400:6418   */\n      add\n        /* \"#utility.yul\":6392:6418   */\n      swap1\n      pop\n        /* \"#utility.yul\":6428:6499   */\n      tag_406\n        /* \"#utility.yul\":6496:6497   */\n      0x00\n        /* \"#utility.yul\":6485:6494   */\n      dup4\n        /* \"#utility.yul\":6481:6498   */\n      add\n        /* \"#utility.yul\":6472:6478   */\n      dup5\n        /* \"#utility.yul\":6428:6499   */\n      tag_299\n      jump\t// in\n    tag_406:\n        /* \"#utility.yul\":6284:6506   */\n      swap3\n      swap2\n      pop\n      pop\n      jump\t// out\n        /* \"#utility.yul\":6512:6841   */\n    tag_54:\n        /* \"#utility.yul\":6571:6577   */\n      0x00\n        /* \"#utility.yul\":6620:6622   */\n      0x20\n        /* \"#utility.yul\":6608:6617   */\n      dup3\n        /* \"#utility.yul\":6599:6606   */\n      dup5\n        /* \"#utility.yul\":6595:6618   */\n      sub\n        /* \"#utility.yul\":6591:6623   */\n      slt\n        /* \"#utility.yul\":6588:6707   */\n      iszero\n      tag_408\n      jumpi\n        /* \"#utility.yul\":6626:6705   */\n      tag_409\n      tag_273\n      jump\t// in\n    tag_409:\n        /* \"#utility.yul\":6588:6707   */\n    tag_408:\n        /* \"#utility.yul\":6746:6747   */\n      0x00\n        /* \"#utility.yul\":6771:6824   */\n      tag_410\n        /* \"#utility.yul\":6816:6823   */\n      dup5\n        /* \"#utility.yul\":6807:6813   */\n      dup3\n        /* \"#utility.yul\":6796:6805   */\n      dup6\n        /* \"#utility.yul\":6792:6814   */\n      add\n        /* \"#utility.yul\":6771:6824   */\n      tag_290\n      jump\t// in\n    tag_410:\n        /* \"#utility.yul\":6761:6824   */\n      swap2\n      pop\n        /* \"#utility.yul\":6717:6834   */\n      pop\n        /* \"#utility.yul\":6512:6841   */\n      swap3\n      swap2\n      pop\n      pop\n      jump\t// out\n        /* \"#utility.yul\":6847:7176   */\n    tag_59:\n        /* \"#utility.yul\":6906:6912   */\n      0x00\n        /* \"#utility.yul\":6955:6957   */\n      0x20\n        /* \"#utility.yul\":6943:6952   */\n      dup3\n        /* \"#utility.yul\":6934:6941   */\n      dup5\n        /* \"#utility.yul\":6930:6953   */\n      sub\n        /* \"#utility.yul\":6926:6958   */\n      slt\n        /* \"#utility.yul\":6923:7042   */\n      iszero\n      tag_412\n      jumpi\n        /* \"#utility.yul\":6961:7040   */\n      tag_413\n      tag_273\n      jump\t// in\n    tag_413:\n        /* \"#utility.yul\":6923:7042   */\n    tag_412:\n        /* \"#utility.yul\":7081:7082   */\n      0x00\n        /* \"#utility.yul\":7106:7159   */\n      tag_414\n        /* \"#utility.yul\":7151:7158   */\n      dup5\n        /* \"#utility.yul\":7142:7148   */\n      dup3\n        /* \"#utility.yul\":7131:7140   */\n      dup6\n        /* \"#utility.yul\":7127:7149   */\n      add\n        /* \"#utility.yul\":7106:7159   */\n      tag_293\n      jump\t// in\n    tag_414:\n        /* \"#utility.yul\":7096:7159   */\n      swap2\n      pop\n        /* \"#utility.yul\":7052:7169   */\n      pop\n        /* \"#utility.yul\":6847:7176   */\n      swap3\n      swap2\n      pop\n      pop\n      jump\t// out\n        /* \"#utility.yul\":7182:7514   */\n    tag_72:\n        /* \"#utility.yul\":7303:7307   */\n      0x00\n        /* \"#utility.yul\":7341:7343   */\n      0x40\n        /* \"#utility.yul\":7330:7339   */\n      dup3\n        /* \"#utility.yul\":7326:7344   */\n      add\n        /* \"#utility.yul\":7318:7344   */\n      swap1\n      pop\n        /* \"#utility.yul\":7354:7425   */\n      tag_416\n        /* \"#utility.yul\":7422:7423   */\n      0x00\n        /* \"#utility.yul\":7411:7420   */\n      dup4\n        /* \"#utility.yul\":7407:7424   */\n      add\n        /* \"#utility.yul\":7398:7404   */\n      dup6\n        /* \"#utility.yul\":7354:7425   */\n      tag_299\n      jump\t// in\n    tag_416:\n        /* \"#utility.yul\":7435:7507   */\n      tag_417\n        /* \"#utility.yul\":7503:7505   */\n      0x20\n        /* \"#utility.yul\":7492:7501   */\n      dup4\n        /* \"#utility.yul\":7488:7506   */\n      add\n        /* \"#utility.yul\":7479:7485   */\n      dup5\n        /* \"#utility.yul\":7435:7507   */\n      tag_299\n      jump\t// in\n    tag_417:\n        /* \"#utility.yul\":7182:7514   */\n      swap4\n      swap3\n      pop\n      pop\n      pop\n      jump\t// out\n        /* \"#utility.yul\":7520:7994   */\n    tag_75:\n        /* \"#utility.yul\":7588:7594   */\n      0x00\n        /* \"#utility.yul\":7596:7602   */\n      dup1\n        /* \"#utility.yul\":7645:7647   */\n      0x40\n        /* \"#utility.yul\":7633:7642   */\n      dup4\n        /* \"#utility.yul\":7624:7631   */\n      dup6\n        /* \"#utility.yul\":7620:7643   */\n      sub\n        /* \"#utility.yul\":7616:7648   */\n      slt\n        /* \"#utility.yul\":7613:7732   */\n      iszero\n      tag_419\n      jumpi\n        /* \"#utility.yul\":7651:7730   */\n      tag_420\n      tag_273\n      jump\t// in\n    tag_420:\n        /* \"#utility.yul\":7613:7732   */\n    tag_419:\n        /* \"#utility.yul\":7771:7772   */\n      0x00\n        /* \"#utility.yul\":7796:7849   */\n      tag_421\n        /* \"#utility.yul\":7841:7848   */\n      dup6\n        /* \"#utility.yul\":7832:7838   */\n      dup3\n        /* \"#utility.yul\":7821:7830   */\n      dup7\n        /* \"#utility.yul\":7817:7839   */\n      add\n        /* \"#utility.yul\":7796:7849   */\n      tag_293\n      jump\t// in\n    tag_421:\n        /* \"#utility.yul\":7786:7849   */\n      swap3\n      pop\n        /* \"#utility.yul\":7742:7859   */\n      pop\n        /* \"#utility.yul\":7898:7900   */\n      0x20\n        /* \"#utility.yul\":7924:7977   */\n      tag_422\n        /* \"#utility.yul\":7969:7976   */\n      dup6\n        /* \"#utility.yul\":7960:7966   */\n      dup3\n        /* \"#utility.yul\":7949:7958   */\n      dup7\n        /* \"#utility.yul\":7945:7967   */\n      add\n        /* \"#utility.yul\":7924:7977   */\n      tag_293\n      jump\t// in\n    tag_422:\n        /* \"#utility.yul\":7914:7977   */\n      swap2\n      pop\n        /* \"#utility.yul\":7869:7987   */\n      pop\n        /* \"#utility.yul\":7520:7994   */\n      swap3\n      pop\n      swap3\n      swap1\n      pop\n      jump\t// out\n        /* \"#utility.yul\":8000:8474   */\n    tag_80:\n        /* \"#utility.yul\":8068:8074   */\n      0x00\n        /* \"#utility.yul\":8076:8082   */\n      dup1\n        /* \"#utility.yul\":8125:8127   */\n      0x40\n        /* \"#utility.yul\":8113:8122   */\n      dup4\n        /* \"#utility.yul\":8104:8111   */\n      dup6\n        /* \"#utility.yul\":8100:8123   */\n      sub\n        /* \"#utility.yul\":8096:8128   */\n      slt\n        /* \"#utility.yul\":8093:8212   */\n      iszero\n      tag_424\n      jumpi\n        /* \"#utility.yul\":8131:8210   */\n      tag_425\n      tag_273\n      jump\t// in\n    tag_425:\n        /* \"#utility.yul\":8093:8212   */\n    tag_424:\n        /* \"#utility.yul\":8251:8252   */\n      0x00\n        /* \"#utility.yul\":8276:8329   */\n      tag_426\n        /* \"#utility.yul\":8321:8328   */\n      dup6\n        /* \"#utility.yul\":8312:8318   */\n      dup3\n        /* \"#utility.yul\":8301:8310   */\n      dup7\n        /* \"#utility.yul\":8297:8319   */\n      add\n        /* \"#utility.yul\":8276:8329   */\n      tag_290\n      jump\t// in\n    tag_426:\n        /* \"#utility.yul\":8266:8329   */\n      swap3\n      pop\n        /* \"#utility.yul\":8222:8339   */\n      pop\n        /* \"#utility.yul\":8378:8380   */\n      0x20\n        /* \"#utility.yul\":8404:8457   */\n      tag_427\n        /* \"#utility.yul\":8449:8456   */\n      dup6\n        /* \"#utility.yul\":8440:8446   */\n      dup3\n        /* \"#utility.yul\":8429:8438   */\n      dup7\n        /* \"#utility.yul\":8425:8447   */\n      add\n        /* \"#utility.yul\":8404:8457   */\n      tag_293\n      jump\t// in\n    tag_427:\n        /* \"#utility.yul\":8394:8457   */\n      swap2\n      pop\n        /* \"#utility.yul\":8349:8467   */\n      pop\n        /* \"#utility.yul\":8000:8474   */\n      swap3\n      pop\n      swap3\n      swap1\n      pop\n      jump\t// out\n        /* \"#utility.yul\":8480:8660   */\n    tag_300:\n        /* \"#utility.yul\":8528:8605   */\n      0x4e487b7100000000000000000000000000000000000000000000000000000000\n        /* \"#utility.yul\":8525:8526   */\n      0x00\n        /* \"#utility.yul\":8518:8606   */\n      mstore\n        /* \"#utility.yul\":8625:8629   */\n      0x11\n        /* \"#utility.yul\":8622:8623   */\n      0x04\n        /* \"#utility.yul\":8615:8630   */\n      mstore\n        /* \"#utility.yul\":8649:8653   */\n      0x24\n        /* \"#utility.yul\":8646:8647   */\n      0x00\n        /* \"#utility.yul\":8639:8654   */\n      revert\n        /* \"#utility.yul\":8666:8860   */\n    tag_94:\n        /* \"#utility.yul\":8706:8710   */\n      0x00\n        /* \"#utility.yul\":8726:8746   */\n      tag_430\n        /* \"#utility.yul\":8744:8745   */\n      dup3\n        /* \"#utility.yul\":8726:8746   */\n      tag_291\n      jump\t// in\n    tag_430:\n        /* \"#utility.yul\":8721:8746   */\n      swap2\n      pop\n        /* \"#utility.yul\":8760:8780   */\n      tag_431\n        /* \"#utility.yul\":8778:8779   */\n      dup4\n        /* \"#utility.yul\":8760:8780   */\n      tag_291\n      jump\t// in\n    tag_431:\n        /* \"#utility.yul\":8755:8780   */\n      swap3\n      pop\n        /* \"#utility.yul\":8804:8805   */\n      dup3\n        /* \"#utility.yul\":8801:8802   */\n      dup3\n        /* \"#utility.yul\":8797:8806   */\n      sub\n        /* \"#utility.yul\":8789:8806   */\n      swap1\n      pop\n        /* \"#utility.yul\":8828:8829   */\n      dup2\n        /* \"#utility.yul\":8822:8826   */\n      dup2\n        /* \"#utility.yul\":8819:8830   */\n      gt\n        /* \"#utility.yul\":8816:8853   */\n      iszero\n      tag_432\n      jumpi\n        /* \"#utility.yul\":8833:8851   */\n      tag_433\n      tag_300\n      jump\t// in\n    tag_433:\n        /* \"#utility.yul\":8816:8853   */\n    tag_432:\n        /* \"#utility.yul\":8666:8860   */\n      swap3\n      swap2\n      pop\n      pop\n      jump\t// out\n        /* \"#utility.yul\":8866:9276   */\n    tag_97:\n        /* \"#utility.yul\":8906:8913   */\n      0x00\n        /* \"#utility.yul\":8929:8949   */\n      tag_435\n        /* \"#utility.yul\":8947:8948   */\n      dup3\n        /* \"#utility.yul\":8929:8949   */\n      tag_291\n      jump\t// in\n    tag_435:\n        /* \"#utility.yul\":8924:8949   */\n      swap2\n      pop\n        /* \"#utility.yul\":8963:8983   */\n      tag_436\n        /* \"#utility.yul\":8981:8982   */\n      dup4\n        /* \"#utility.yul\":8963:8983   */\n      tag_291\n      jump\t// in\n    tag_436:\n        /* \"#utility.yul\":8958:8983   */\n      swap3\n      pop\n        /* \"#utility.yul\":9018:9019   */\n      dup3\n        /* \"#utility.yul\":9015:9016   */\n      dup3\n        /* \"#utility.yul\":9011:9020   */\n      mul\n        /* \"#utility.yul\":9040:9070   */\n      tag_437\n        /* \"#utility.yul\":9058:9069   */\n      dup2\n        /* \"#utility.yul\":9040:9070   */\n      tag_291\n      jump\t// in\n    tag_437:\n        /* \"#utility.yul\":9029:9070   */\n      swap2\n      pop\n        /* \"#utility.yul\":9219:9220   */\n      dup3\n        /* \"#utility.yul\":9210:9217   */\n      dup3\n        /* \"#utility.yul\":9206:9221   */\n      div\n        /* \"#utility.yul\":9203:9204   */\n      dup5\n        /* \"#utility.yul\":9200:9222   */\n      eq\n        /* \"#utility.yul\":9180:9181   */\n      dup4\n        /* \"#utility.yul\":9173:9182   */\n      iszero\n        /* \"#utility.yul\":9153:9236   */\n      or\n        /* \"#utility.yul\":9130:9269   */\n      tag_438\n      jumpi\n        /* \"#utility.yul\":9249:9267   */\n      tag_439\n      tag_300\n      jump\t// in\n    tag_439:\n        /* \"#utility.yul\":9130:9269   */\n    tag_438:\n        /* \"#utility.yul\":8914:9276   */\n      pop\n        /* \"#utility.yul\":8866:9276   */\n      swap3\n      swap2\n      pop\n      pop\n      jump\t// out\n        /* \"#utility.yul\":9282:9462   */\n    tag_301:\n        /* \"#utility.yul\":9330:9407   */\n      0x4e487b7100000000000000000000000000000000000000000000000000000000\n        /* \"#utility.yul\":9327:9328   */\n      0x00\n        /* \"#utility.yul\":9320:9408   */\n      mstore\n        /* \"#utility.yul\":9427:9431   */\n      0x12\n        /* \"#utility.yul\":9424:9425   */\n      0x04\n        /* \"#utility.yul\":9417:9432   */\n      mstore\n        /* \"#utility.yul\":9451:9455   */\n      0x24\n        /* \"#utility.yul\":9448:9449   */\n      0x00\n        /* \"#utility.yul\":9441:9456   */\n      revert\n        /* \"#utility.yul\":9468:9653   */\n    tag_99:\n        /* \"#utility.yul\":9508:9509   */\n      0x00\n        /* \"#utility.yul\":9525:9545   */\n      tag_442\n        /* \"#utility.yul\":9543:9544   */\n      dup3\n        /* \"#utility.yul\":9525:9545   */\n      tag_291\n      jump\t// in\n    tag_442:\n        /* \"#utility.yul\":9520:9545   */\n      swap2\n      pop\n        /* \"#utility.yul\":9559:9579   */\n      tag_443\n        /* \"#utility.yul\":9577:9578   */\n      dup4\n        /* \"#utility.yul\":9559:9579   */\n      tag_291\n      jump\t// in\n    tag_443:\n        /* \"#utility.yul\":9554:9579   */\n      swap3\n      pop\n        /* \"#utility.yul\":9598:9599   */\n      dup3\n        /* \"#utility.yul\":9588:9623   */\n      tag_444\n      jumpi\n        /* \"#utility.yul\":9603:9621   */\n      tag_445\n      tag_301\n      jump\t// in\n    tag_445:\n        /* \"#utility.yul\":9588:9623   */\n    tag_444:\n        /* \"#utility.yul\":9645:9646   */\n      dup3\n        /* \"#utility.yul\":9642:9643   */\n      dup3\n        /* \"#utility.yul\":9638:9647   */\n      div\n        /* \"#utility.yul\":9633:9647   */\n      swap1\n      pop\n        /* \"#utility.yul\":9468:9653   */\n      swap3\n      swap2\n      pop\n      pop\n      jump\t// out\n        /* \"#utility.yul\":9659:9777   */\n    tag_302:\n        /* \"#utility.yul\":9746:9770   */\n      tag_447\n        /* \"#utility.yul\":9764:9769   */\n      dup2\n        /* \"#utility.yul\":9746:9770   */\n      tag_288\n      jump\t// in\n    tag_447:\n        /* \"#utility.yul\":9741:9744   */\n      dup3\n        /* \"#utility.yul\":9734:9771   */\n      mstore\n        /* \"#utility.yul\":9659:9777   */\n      pop\n      pop\n      jump\t// out\n        /* \"#utility.yul\":9783:10225   */\n    tag_102:\n        /* \"#utility.yul\":9932:9936   */\n      0x00\n        /* \"#utility.yul\":9970:9972   */\n      0x60\n        /* \"#utility.yul\":9959:9968   */\n      dup3\n        /* \"#utility.yul\":9955:9973   */\n      add\n        /* \"#utility.yul\":9947:9973   */\n      swap1\n      pop\n        /* \"#utility.yul\":9983:10054   */\n      tag_449\n        /* \"#utility.yul\":10051:10052   */\n      0x00\n        /* \"#utility.yul\":10040:10049   */\n      dup4\n        /* \"#utility.yul\":10036:10053   */\n      add\n        /* \"#utility.yul\":10027:10033   */\n      dup7\n        /* \"#utility.yul\":9983:10054   */\n      tag_302\n      jump\t// in\n    tag_449:\n        /* \"#utility.yul\":10064:10136   */\n      tag_450\n        /* \"#utility.yul\":10132:10134   */\n      0x20\n        /* \"#utility.yul\":10121:10130   */\n      dup4\n        /* \"#utility.yul\":10117:10135   */\n      add\n        /* \"#utility.yul\":10108:10114   */\n      dup6\n        /* \"#utility.yul\":10064:10136   */\n      tag_302\n      jump\t// in\n    tag_450:\n        /* \"#utility.yul\":10146:10218   */\n      tag_451\n        /* \"#utility.yul\":10214:10216   */\n      0x40\n        /* \"#utility.yul\":10203:10212   */\n      dup4\n        /* \"#utility.yul\":10199:10217   */\n      add\n        /* \"#utility.yul\":10190:10196   */\n      dup5\n        /* \"#utility.yul\":10146:10218   */\n      tag_299\n      jump\t// in\n    tag_451:\n        /* \"#utility.yul\":9783:10225   */\n      swap5\n      swap4\n      pop\n      pop\n      pop\n      pop\n      jump\t// out\n        /* \"#utility.yul\":10231:10348   */\n    tag_303:\n        /* \"#utility.yul\":10340:10341   */\n      0x00\n        /* \"#utility.yul\":10337:10338   */\n      dup1\n        /* \"#utility.yul\":10330:10342   */\n      revert\n        /* \"#utility.yul\":10354:10456   */\n    tag_304:\n        /* \"#utility.yul\":10395:10401   */\n      0x00\n        /* \"#utility.yul\":10446:10448   */\n      0x1f\n        /* \"#utility.yul\":10442:10449   */\n      not\n        /* \"#utility.yul\":10437:10439   */\n      0x1f\n        /* \"#utility.yul\":10430:10435   */\n      dup4\n        /* \"#utility.yul\":10426:10440   */\n      add\n        /* \"#utility.yul\":10422:10450   */\n      and\n        /* \"#utility.yul\":10412:10450   */\n      swap1\n      pop\n        /* \"#utility.yul\":10354:10456   */\n      swap2\n      swap1\n      pop\n      jump\t// out\n        /* \"#utility.yul\":10462:10642   */\n    tag_305:\n        /* \"#utility.yul\":10510:10587   */\n      0x4e487b7100000000000000000000000000000000000000000000000000000000\n        /* \"#utility.yul\":10507:10508   */\n      0x00\n        /* \"#utility.yul\":10500:10588   */\n      mstore\n        /* \"#utility.yul\":10607:10611   */\n      0x41\n        /* \"#utility.yul\":10604:10605   */\n      0x04\n        /* \"#utility.yul\":10597:10612   */\n      mstore\n        /* \"#utility.yul\":10631:10635   */\n      0x24\n        /* \"#utility.yul\":10628:10629   */\n      0x00\n        /* \"#utility.yul\":10621:10636   */\n      revert\n        /* \"#utility.yul\":10648:10929   */\n    tag_306:\n        /* \"#utility.yul\":10731:10758   */\n      tag_456\n        /* \"#utility.yul\":10753:10757   */\n      dup3\n        /* \"#utility.yul\":10731:10758   */\n      tag_304\n      jump\t// in\n    tag_456:\n        /* \"#utility.yul\":10723:10729   */\n      dup2\n        /* \"#utility.yul\":10719:10759   */\n      add\n        /* \"#utility.yul\":10861:10867   */\n      dup2\n        /* \"#utility.yul\":10849:10859   */\n      dup2\n        /* \"#utility.yul\":10846:10868   */\n      lt\n        /* \"#utility.yul\":10825:10843   */\n      0xffffffffffffffff\n        /* \"#utility.yul\":10813:10823   */\n      dup3\n        /* \"#utility.yul\":10810:10844   */\n      gt\n        /* \"#utility.yul\":10807:10869   */\n      or\n        /* \"#utility.yul\":10804:10892   */\n      iszero\n      tag_457\n      jumpi\n        /* \"#utility.yul\":10872:10890   */\n      tag_458\n      tag_305\n      jump\t// in\n    tag_458:\n        /* \"#utility.yul\":10804:10892   */\n    tag_457:\n        /* \"#utility.yul\":10912:10922   */\n      dup1\n        /* \"#utility.yul\":10908:10910   */\n      0x40\n        /* \"#utility.yul\":10901:10923   */\n      mstore\n        /* \"#utility.yul\":10691:10929   */\n      pop\n        /* \"#utility.yul\":10648:10929   */\n      pop\n      pop\n      jump\t// out\n        /* \"#utility.yul\":10935:11064   */\n    tag_307:\n        /* \"#utility.yul\":10969:10975   */\n      0x00\n        /* \"#utility.yul\":10996:11016   */\n      tag_460\n      tag_272\n      jump\t// in\n    tag_460:\n        /* \"#utility.yul\":10986:11016   */\n      swap1\n      pop\n        /* \"#utility.yul\":11025:11058   */\n      tag_461\n        /* \"#utility.yul\":11053:11057   */\n      dup3\n        /* \"#utility.yul\":11045:11051   */\n      dup3\n        /* \"#utility.yul\":11025:11058   */\n      tag_306\n      jump\t// in\n    tag_461:\n        /* \"#utility.yul\":10935:11064   */\n      swap2\n      swap1\n      pop\n      jump\t// out\n        /* \"#utility.yul\":11193:11336   */\n    tag_309:\n        /* \"#utility.yul\":11250:11255   */\n      0x00\n        /* \"#utility.yul\":11281:11287   */\n      dup2\n        /* \"#utility.yul\":11275:11288   */\n      mload\n        /* \"#utility.yul\":11266:11288   */\n      swap1\n      pop\n        /* \"#utility.yul\":11297:11330   */\n      tag_464\n        /* \"#utility.yul\":11324:11329   */\n      dup2\n        /* \"#utility.yul\":11297:11330   */\n      tag_292\n      jump\t// in\n    tag_464:\n        /* \"#utility.yul\":11193:11336   */\n      swap3\n      swap2\n      pop\n      pop\n      jump\t// out\n        /* \"#utility.yul\":11342:11485   */\n    tag_310:\n        /* \"#utility.yul\":11399:11404   */\n      0x00\n        /* \"#utility.yul\":11430:11436   */\n      dup2\n        /* \"#utility.yul\":11424:11437   */\n      mload\n        /* \"#utility.yul\":11415:11437   */\n      swap1\n      pop\n        /* \"#utility.yul\":11446:11479   */\n      tag_466\n        /* \"#utility.yul\":11473:11478   */\n      dup2\n        /* \"#utility.yul\":11446:11479   */\n      tag_289\n      jump\t// in\n    tag_466:\n        /* \"#utility.yul\":11342:11485   */\n      swap3\n      swap2\n      pop\n      pop\n      jump\t// out\n        /* \"#utility.yul\":11535:13021   */\n    tag_311:\n        /* \"#utility.yul\":11624:11629   */\n      0x00\n        /* \"#utility.yul\":11668:11672   */\n      0xe0\n        /* \"#utility.yul\":11656:11665   */\n      dup3\n        /* \"#utility.yul\":11651:11654   */\n      dup5\n        /* \"#utility.yul\":11647:11666   */\n      sub\n        /* \"#utility.yul\":11643:11673   */\n      slt\n        /* \"#utility.yul\":11640:11757   */\n      iszero\n      tag_468\n      jumpi\n        /* \"#utility.yul\":11676:11755   */\n      tag_469\n      tag_303\n      jump\t// in\n    tag_469:\n        /* \"#utility.yul\":11640:11757   */\n    tag_468:\n        /* \"#utility.yul\":11775:11796   */\n      tag_470\n        /* \"#utility.yul\":11791:11795   */\n      0xe0\n        /* \"#utility.yul\":11775:11796   */\n      tag_307\n      jump\t// in\n    tag_470:\n        /* \"#utility.yul\":11766:11796   */\n      swap1\n      pop\n        /* \"#utility.yul\":11857:11858   */\n      0x00\n        /* \"#utility.yul\":11897:11957   */\n      tag_471\n        /* \"#utility.yul\":11953:11956   */\n      dup5\n        /* \"#utility.yul\":11944:11950   */\n      dup3\n        /* \"#utility.yul\":11933:11942   */\n      dup6\n        /* \"#utility.yul\":11929:11951   */\n      add\n        /* \"#utility.yul\":11897:11957   */\n      tag_309\n      jump\t// in\n    tag_471:\n        /* \"#utility.yul\":11890:11894   */\n      0x00\n        /* \"#utility.yul\":11883:11888   */\n      dup4\n        /* \"#utility.yul\":11879:11895   */\n      add\n        /* \"#utility.yul\":11872:11958   */\n      mstore\n        /* \"#utility.yul\":11806:11969   */\n      pop\n        /* \"#utility.yul\":12029:12031   */\n      0x20\n        /* \"#utility.yul\":12070:12130   */\n      tag_472\n        /* \"#utility.yul\":12126:12129   */\n      dup5\n        /* \"#utility.yul\":12117:12123   */\n      dup3\n        /* \"#utility.yul\":12106:12115   */\n      dup6\n        /* \"#utility.yul\":12102:12124   */\n      add\n        /* \"#utility.yul\":12070:12130   */\n      tag_310\n      jump\t// in\n    tag_472:\n        /* \"#utility.yul\":12063:12067   */\n      0x20\n        /* \"#utility.yul\":12056:12061   */\n      dup4\n        /* \"#utility.yul\":12052:12068   */\n      add\n        /* \"#utility.yul\":12045:12131   */\n      mstore\n        /* \"#utility.yul\":11979:12142   */\n      pop\n        /* \"#utility.yul\":12203:12205   */\n      0x40\n        /* \"#utility.yul\":12244:12304   */\n      tag_473\n        /* \"#utility.yul\":12300:12303   */\n      dup5\n        /* \"#utility.yul\":12291:12297   */\n      dup3\n        /* \"#utility.yul\":12280:12289   */\n      dup6\n        /* \"#utility.yul\":12276:12298   */\n      add\n        /* \"#utility.yul\":12244:12304   */\n      tag_310\n      jump\t// in\n    tag_473:\n        /* \"#utility.yul\":12237:12241   */\n      0x40\n        /* \"#utility.yul\":12230:12235   */\n      dup4\n        /* \"#utility.yul\":12226:12242   */\n      add\n        /* \"#utility.yul\":12219:12305   */\n      mstore\n        /* \"#utility.yul\":12152:12316   */\n      pop\n        /* \"#utility.yul\":12377:12379   */\n      0x60\n        /* \"#utility.yul\":12418:12478   */\n      tag_474\n        /* \"#utility.yul\":12474:12477   */\n      dup5\n        /* \"#utility.yul\":12465:12471   */\n      dup3\n        /* \"#utility.yul\":12454:12463   */\n      dup6\n        /* \"#utility.yul\":12450:12472   */\n      add\n        /* \"#utility.yul\":12418:12478   */\n      tag_310\n      jump\t// in\n    tag_474:\n        /* \"#utility.yul\":12411:12415   */\n      0x60\n        /* \"#utility.yul\":12404:12409   */\n      dup4\n        /* \"#utility.yul\":12400:12416   */\n      add\n        /* \"#utility.yul\":12393:12479   */\n      mstore\n        /* \"#utility.yul\":12326:12490   */\n      pop\n        /* \"#utility.yul\":12548:12551   */\n      0x80\n        /* \"#utility.yul\":12590:12650   */\n      tag_475\n        /* \"#utility.yul\":12646:12649   */\n      dup5\n        /* \"#utility.yul\":12637:12643   */\n      dup3\n        /* \"#utility.yul\":12626:12635   */\n      dup6\n        /* \"#utility.yul\":12622:12644   */\n      add\n        /* \"#utility.yul\":12590:12650   */\n      tag_309\n      jump\t// in\n    tag_475:\n        /* \"#utility.yul\":12583:12587   */\n      0x80\n        /* \"#utility.yul\":12576:12581   */\n      dup4\n        /* \"#utility.yul\":12572:12588   */\n      add\n        /* \"#utility.yul\":12565:12651   */\n      mstore\n        /* \"#utility.yul\":12500:12662   */\n      pop\n        /* \"#utility.yul\":12724:12727   */\n      0xa0\n        /* \"#utility.yul\":12766:12826   */\n      tag_476\n        /* \"#utility.yul\":12822:12825   */\n      dup5\n        /* \"#utility.yul\":12813:12819   */\n      dup3\n        /* \"#utility.yul\":12802:12811   */\n      dup6\n        /* \"#utility.yul\":12798:12820   */\n      add\n        /* \"#utility.yul\":12766:12826   */\n      tag_309\n      jump\t// in\n    tag_476:\n        /* \"#utility.yul\":12759:12763   */\n      0xa0\n        /* \"#utility.yul\":12752:12757   */\n      dup4\n        /* \"#utility.yul\":12748:12764   */\n      add\n        /* \"#utility.yul\":12741:12827   */\n      mstore\n        /* \"#utility.yul\":12672:12838   */\n      pop\n        /* \"#utility.yul\":12900:12903   */\n      0xc0\n        /* \"#utility.yul\":12942:13002   */\n      tag_477\n        /* \"#utility.yul\":12998:13001   */\n      dup5\n        /* \"#utility.yul\":12989:12995   */\n      dup3\n        /* \"#utility.yul\":12978:12987   */\n      dup6\n        /* \"#utility.yul\":12974:12996   */\n      add\n        /* \"#utility.yul\":12942:13002   */\n      tag_309\n      jump\t// in\n    tag_477:\n        /* \"#utility.yul\":12935:12939   */\n      0xc0\n        /* \"#utility.yul\":12928:12933   */\n      dup4\n        /* \"#utility.yul\":12924:12940   */\n      add\n        /* \"#utility.yul\":12917:13003   */\n      mstore\n        /* \"#utility.yul\":12848:13014   */\n      pop\n        /* \"#utility.yul\":11535:13021   */\n      swap3\n      swap2\n      pop\n      pop\n      jump\t// out\n        /* \"#utility.yul\":13027:13437   */\n    tag_110:\n        /* \"#utility.yul\":13126:13132   */\n      0x00\n        /* \"#utility.yul\":13175:13178   */\n      0xe0\n        /* \"#utility.yul\":13163:13172   */\n      dup3\n        /* \"#utility.yul\":13154:13161   */\n      dup5\n        /* \"#utility.yul\":13150:13173   */\n      sub\n        /* \"#utility.yul\":13146:13179   */\n      slt\n        /* \"#utility.yul\":13143:13263   */\n      iszero\n      tag_479\n      jumpi\n        /* \"#utility.yul\":13182:13261   */\n      tag_480\n      tag_273\n      jump\t// in\n    tag_480:\n        /* \"#utility.yul\":13143:13263   */\n    tag_479:\n        /* \"#utility.yul\":13302:13303   */\n      0x00\n        /* \"#utility.yul\":13327:13420   */\n      tag_481\n        /* \"#utility.yul\":13412:13419   */\n      dup5\n        /* \"#utility.yul\":13403:13409   */\n      dup3\n        /* \"#utility.yul\":13392:13401   */\n      dup6\n        /* \"#utility.yul\":13388:13410   */\n      add\n        /* \"#utility.yul\":13327:13420   */\n      tag_311\n      jump\t// in\n    tag_481:\n        /* \"#utility.yul\":13317:13420   */\n      swap2\n      pop\n        /* \"#utility.yul\":13273:13430   */\n      pop\n        /* \"#utility.yul\":13027:13437   */\n      swap3\n      swap2\n      pop\n      pop\n      jump\t// out\n        /* \"#utility.yul\":13443:13665   */\n    tag_112:\n        /* \"#utility.yul\":13536:13540   */\n      0x00\n        /* \"#utility.yul\":13574:13576   */\n      0x20\n        /* \"#utility.yul\":13563:13572   */\n      dup3\n        /* \"#utility.yul\":13559:13577   */\n      add\n        /* \"#utility.yul\":13551:13577   */\n      swap1\n      pop\n        /* \"#utility.yul\":13587:13658   */\n      tag_483\n        /* \"#utility.yul\":13655:13656   */\n      0x00\n        /* \"#utility.yul\":13644:13653   */\n      dup4\n        /* \"#utility.yul\":13640:13657   */\n      add\n        /* \"#utility.yul\":13631:13637   */\n      dup5\n        /* \"#utility.yul\":13587:13658   */\n      tag_302\n      jump\t// in\n    tag_483:\n        /* \"#utility.yul\":13443:13665   */\n      swap3\n      swap2\n      pop\n      pop\n      jump\t// out\n        /* \"#utility.yul\":13671:14022   */\n    tag_116:\n        /* \"#utility.yul\":13741:13747   */\n      0x00\n        /* \"#utility.yul\":13790:13792   */\n      0x20\n        /* \"#utility.yul\":13778:13787   */\n      dup3\n        /* \"#utility.yul\":13769:13776   */\n      dup5\n        /* \"#utility.yul\":13765:13788   */\n      sub\n        /* \"#utility.yul\":13761:13793   */\n      slt\n        /* \"#utility.yul\":13758:13877   */\n      iszero\n      tag_485\n      jumpi\n        /* \"#utility.yul\":13796:13875   */\n      tag_486\n      tag_273\n      jump\t// in\n    tag_486:\n        /* \"#utility.yul\":13758:13877   */\n    tag_485:\n        /* \"#utility.yul\":13916:13917   */\n      0x00\n        /* \"#utility.yul\":13941:14005   */\n      tag_487\n        /* \"#utility.yul\":13997:14004   */\n      dup5\n        /* \"#utility.yul\":13988:13994   */\n      dup3\n        /* \"#utility.yul\":13977:13986   */\n      dup6\n        /* \"#utility.yul\":13973:13995   */\n      add\n        /* \"#utility.yul\":13941:14005   */\n      tag_309\n      jump\t// in\n    tag_487:\n        /* \"#utility.yul\":13931:14005   */\n      swap2\n      pop\n        /* \"#utility.yul\":13887:14015   */\n      pop\n        /* \"#utility.yul\":13671:14022   */\n      swap3\n      swap2\n      pop\n      pop\n      jump\t// out\n        /* \"#utility.yul\":14028:14197   */\n    tag_312:\n        /* \"#utility.yul\":14112:14123   */\n      0x00\n        /* \"#utility.yul\":14146:14152   */\n      dup3\n        /* \"#utility.yul\":14141:14144   */\n      dup3\n        /* \"#utility.yul\":14134:14153   */\n      mstore\n        /* \"#utility.yul\":14186:14190   */\n      0x20\n        /* \"#utility.yul\":14181:14184   */\n      dup3\n        /* \"#utility.yul\":14177:14191   */\n      add\n        /* \"#utility.yul\":14162:14191   */\n      swap1\n      pop\n        /* \"#utility.yul\":14028:14197   */\n      swap3\n      swap2\n      pop\n      pop\n      jump\t// out\n        /* \"#utility.yul\":14203:14375   */\n    tag_313:\n        /* \"#utility.yul\":14343:14367   */\n      0x616d6f756e7430206f7220616d6f756e7431203d203000000000000000000000\n        /* \"#utility.yul\":14339:14340   */\n      0x00\n        /* \"#utility.yul\":14331:14337   */\n      dup3\n        /* \"#utility.yul\":14327:14341   */\n      add\n        /* \"#utility.yul\":14320:14368   */\n      mstore\n        /* \"#utility.yul\":14203:14375   */\n      pop\n      jump\t// out\n        /* \"#utility.yul\":14381:14747   */\n    tag_314:\n        /* \"#utility.yul\":14523:14526   */\n      0x00\n        /* \"#utility.yul\":14544:14611   */\n      tag_491\n        /* \"#utility.yul\":14608:14610   */\n      0x16\n        /* \"#utility.yul\":14603:14606   */\n      dup4\n        /* \"#utility.yul\":14544:14611   */\n      tag_312\n      jump\t// in\n    tag_491:\n        /* \"#utility.yul\":14537:14611   */\n      swap2\n      pop\n        /* \"#utility.yul\":14620:14713   */\n      tag_492\n        /* \"#utility.yul\":14709:14712   */\n      dup3\n        /* \"#utility.yul\":14620:14713   */\n      tag_313\n      jump\t// in\n    tag_492:\n        /* \"#utility.yul\":14738:14740   */\n      0x20\n        /* \"#utility.yul\":14733:14736   */\n      dup3\n        /* \"#utility.yul\":14729:14741   */\n      add\n        /* \"#utility.yul\":14722:14741   */\n      swap1\n      pop\n        /* \"#utility.yul\":14381:14747   */\n      swap2\n      swap1\n      pop\n      jump\t// out\n        /* \"#utility.yul\":14753:15172   */\n    tag_128:\n        /* \"#utility.yul\":14919:14923   */\n      0x00\n        /* \"#utility.yul\":14957:14959   */\n      0x20\n        /* \"#utility.yul\":14946:14955   */\n      dup3\n        /* \"#utility.yul\":14942:14960   */\n      add\n        /* \"#utility.yul\":14934:14960   */\n      swap1\n      pop\n        /* \"#utility.yul\":15006:15015   */\n      dup2\n        /* \"#utility.yul\":15000:15004   */\n      dup2\n        /* \"#utility.yul\":14996:15016   */\n      sub\n        /* \"#utility.yul\":14992:14993   */\n      0x00\n        /* \"#utility.yul\":14981:14990   */\n      dup4\n        /* \"#utility.yul\":14977:14994   */\n      add\n        /* \"#utility.yul\":14970:15017   */\n      mstore\n        /* \"#utility.yul\":15034:15165   */\n      tag_494\n        /* \"#utility.yul\":15160:15164   */\n      dup2\n        /* \"#utility.yul\":15034:15165   */\n      tag_314\n      jump\t// in\n    tag_494:\n        /* \"#utility.yul\":15026:15165   */\n      swap1\n      pop\n        /* \"#utility.yul\":14753:15172   */\n      swap2\n      swap1\n      pop\n      jump\t// out\n        /* \"#utility.yul\":15178:15510   */\n    tag_132:\n        /* \"#utility.yul\":15299:15303   */\n      0x00\n        /* \"#utility.yul\":15337:15339   */\n      0x40\n        /* \"#utility.yul\":15326:15335   */\n      dup3\n        /* \"#utility.yul\":15322:15340   */\n      add\n        /* \"#utility.yul\":15314:15340   */\n      swap1\n      pop\n        /* \"#utility.yul\":15350:15421   */\n      tag_496\n        /* \"#utility.yul\":15418:15419   */\n      0x00\n        /* \"#utility.yul\":15407:15416   */\n      dup4\n        /* \"#utility.yul\":15403:15420   */\n      add\n        /* \"#utility.yul\":15394:15400   */\n      dup6\n        /* \"#utility.yul\":15350:15421   */\n      tag_299\n      jump\t// in\n    tag_496:\n        /* \"#utility.yul\":15431:15503   */\n      tag_497\n        /* \"#utility.yul\":15499:15501   */\n      0x20\n        /* \"#utility.yul\":15488:15497   */\n      dup4\n        /* \"#utility.yul\":15484:15502   */\n      add\n        /* \"#utility.yul\":15475:15481   */\n      dup5\n        /* \"#utility.yul\":15431:15503   */\n      tag_302\n      jump\t// in\n    tag_497:\n        /* \"#utility.yul\":15178:15510   */\n      swap4\n      swap3\n      pop\n      pop\n      pop\n      jump\t// out\n        /* \"#utility.yul\":15516:15848   */\n    tag_143:\n        /* \"#utility.yul\":15637:15641   */\n      0x00\n        /* \"#utility.yul\":15675:15677   */\n      0x40\n        /* \"#utility.yul\":15664:15673   */\n      dup3\n        /* \"#utility.yul\":15660:15678   */\n      add\n        /* \"#utility.yul\":15652:15678   */\n      swap1\n      pop\n        /* \"#utility.yul\":15688:15759   */\n      tag_499\n        /* \"#utility.yul\":15756:15757   */\n      0x00\n        /* \"#utility.yul\":15745:15754   */\n      dup4\n        /* \"#utility.yul\":15741:15758   */\n      add\n        /* \"#utility.yul\":15732:15738   */\n      dup6\n        /* \"#utility.yul\":15688:15759   */\n      tag_302\n      jump\t// in\n    tag_499:\n        /* \"#utility.yul\":15769:15841   */\n      tag_500\n        /* \"#utility.yul\":15837:15839   */\n      0x20\n        /* \"#utility.yul\":15826:15835   */\n      dup4\n        /* \"#utility.yul\":15822:15840   */\n      add\n        /* \"#utility.yul\":15813:15819   */\n      dup5\n        /* \"#utility.yul\":15769:15841   */\n      tag_299\n      jump\t// in\n    tag_500:\n        /* \"#utility.yul\":15516:15848   */\n      swap4\n      swap3\n      pop\n      pop\n      pop\n      jump\t// out\n        /* \"#utility.yul\":15854:15970   */\n    tag_315:\n        /* \"#utility.yul\":15924:15945   */\n      tag_502\n        /* \"#utility.yul\":15939:15944   */\n      dup2\n        /* \"#utility.yul\":15924:15945   */\n      tag_278\n      jump\t// in\n    tag_502:\n        /* \"#utility.yul\":15917:15922   */\n      dup2\n        /* \"#utility.yul\":15914:15946   */\n      eq\n        /* \"#utility.yul\":15904:15964   */\n      tag_503\n      jumpi\n        /* \"#utility.yul\":15960:15961   */\n      0x00\n        /* \"#utility.yul\":15957:15958   */\n      dup1\n        /* \"#utility.yul\":15950:15962   */\n      revert\n        /* \"#utility.yul\":15904:15964   */\n    tag_503:\n        /* \"#utility.yul\":15854:15970   */\n      pop\n      jump\t// out\n        /* \"#utility.yul\":15976:16113   */\n    tag_316:\n        /* \"#utility.yul\":16030:16035   */\n      0x00\n        /* \"#utility.yul\":16061:16067   */\n      dup2\n        /* \"#utility.yul\":16055:16068   */\n      mload\n        /* \"#utility.yul\":16046:16068   */\n      swap1\n      pop\n        /* \"#utility.yul\":16077:16107   */\n      tag_505\n        /* \"#utility.yul\":16101:16106   */\n      dup2\n        /* \"#utility.yul\":16077:16107   */\n      tag_315\n      jump\t// in\n    tag_505:\n        /* \"#utility.yul\":15976:16113   */\n      swap3\n      swap2\n      pop\n      pop\n      jump\t// out\n        /* \"#utility.yul\":16119:16464   */\n    tag_147:\n        /* \"#utility.yul\":16186:16192   */\n      0x00\n        /* \"#utility.yul\":16235:16237   */\n      0x20\n        /* \"#utility.yul\":16223:16232   */\n      dup3\n        /* \"#utility.yul\":16214:16221   */\n      dup5\n        /* \"#utility.yul\":16210:16233   */\n      sub\n        /* \"#utility.yul\":16206:16238   */\n      slt\n        /* \"#utility.yul\":16203:16322   */\n      iszero\n      tag_507\n      jumpi\n        /* \"#utility.yul\":16241:16320   */\n      tag_508\n      tag_273\n      jump\t// in\n    tag_508:\n        /* \"#utility.yul\":16203:16322   */\n    tag_507:\n        /* \"#utility.yul\":16361:16362   */\n      0x00\n        /* \"#utility.yul\":16386:16447   */\n      tag_509\n        /* \"#utility.yul\":16439:16446   */\n      dup5\n        /* \"#utility.yul\":16430:16436   */\n      dup3\n        /* \"#utility.yul\":16419:16428   */\n      dup6\n        /* \"#utility.yul\":16415:16437   */\n      add\n        /* \"#utility.yul\":16386:16447   */\n      tag_316\n      jump\t// in\n    tag_509:\n        /* \"#utility.yul\":16376:16447   */\n      swap2\n      pop\n        /* \"#utility.yul\":16332:16457   */\n      pop\n        /* \"#utility.yul\":16119:16464   */\n      swap3\n      swap2\n      pop\n      pop\n      jump\t// out\n        /* \"#utility.yul\":16470:16636   */\n    tag_317:\n        /* \"#utility.yul\":16610:16628   */\n      0x6479202f20647820213d2079202f207800000000000000000000000000000000\n        /* \"#utility.yul\":16606:16607   */\n      0x00\n        /* \"#utility.yul\":16598:16604   */\n      dup3\n        /* \"#utility.yul\":16594:16608   */\n      add\n        /* \"#utility.yul\":16587:16629   */\n      mstore\n        /* \"#utility.yul\":16470:16636   */\n      pop\n      jump\t// out\n        /* \"#utility.yul\":16642:17008   */\n    tag_318:\n        /* \"#utility.yul\":16784:16787   */\n      0x00\n        /* \"#utility.yul\":16805:16872   */\n      tag_512\n        /* \"#utility.yul\":16869:16871   */\n      0x10\n        /* \"#utility.yul\":16864:16867   */\n      dup4\n        /* \"#utility.yul\":16805:16872   */\n      tag_312\n      jump\t// in\n    tag_512:\n        /* \"#utility.yul\":16798:16872   */\n      swap2\n      pop\n        /* \"#utility.yul\":16881:16974   */\n      tag_513\n        /* \"#utility.yul\":16970:16973   */\n      dup3\n        /* \"#utility.yul\":16881:16974   */\n      tag_317\n      jump\t// in\n    tag_513:\n        /* \"#utility.yul\":16999:17001   */\n      0x20\n        /* \"#utility.yul\":16994:16997   */\n      dup3\n        /* \"#utility.yul\":16990:17002   */\n      add\n        /* \"#utility.yul\":16983:17002   */\n      swap1\n      pop\n        /* \"#utility.yul\":16642:17008   */\n      swap2\n      swap1\n      pop\n      jump\t// out\n        /* \"#utility.yul\":17014:17433   */\n    tag_169:\n        /* \"#utility.yul\":17180:17184   */\n      0x00\n        /* \"#utility.yul\":17218:17220   */\n      0x20\n        /* \"#utility.yul\":17207:17216   */\n      dup3\n        /* \"#utility.yul\":17203:17221   */\n      add\n        /* \"#utility.yul\":17195:17221   */\n      swap1\n      pop\n        /* \"#utility.yul\":17267:17276   */\n      dup2\n        /* \"#utility.yul\":17261:17265   */\n      dup2\n        /* \"#utility.yul\":17257:17277   */\n      sub\n        /* \"#utility.yul\":17253:17254   */\n      0x00\n        /* \"#utility.yul\":17242:17251   */\n      dup4\n        /* \"#utility.yul\":17238:17255   */\n      add\n        /* \"#utility.yul\":17231:17278   */\n      mstore\n        /* \"#utility.yul\":17295:17426   */\n      tag_515\n        /* \"#utility.yul\":17421:17425   */\n      dup2\n        /* \"#utility.yul\":17295:17426   */\n      tag_318\n      jump\t// in\n    tag_515:\n        /* \"#utility.yul\":17287:17426   */\n      swap1\n      pop\n        /* \"#utility.yul\":17014:17433   */\n      swap2\n      swap1\n      pop\n      jump\t// out\n        /* \"#utility.yul\":17439:17599   */\n    tag_319:\n        /* \"#utility.yul\":17579:17591   */\n      0x736861726573203d203000000000000000000000000000000000000000000000\n        /* \"#utility.yul\":17575:17576   */\n      0x00\n        /* \"#utility.yul\":17567:17573   */\n      dup3\n        /* \"#utility.yul\":17563:17577   */\n      add\n        /* \"#utility.yul\":17556:17592   */\n      mstore\n        /* \"#utility.yul\":17439:17599   */\n      pop\n      jump\t// out\n        /* \"#utility.yul\":17605:17971   */\n    tag_320:\n        /* \"#utility.yul\":17747:17750   */\n      0x00\n        /* \"#utility.yul\":17768:17835   */\n      tag_518\n        /* \"#utility.yul\":17832:17834   */\n      0x0a\n        /* \"#utility.yul\":17827:17830   */\n      dup4\n        /* \"#utility.yul\":17768:17835   */\n      tag_312\n      jump\t// in\n    tag_518:\n        /* \"#utility.yul\":17761:17835   */\n      swap2\n      pop\n        /* \"#utility.yul\":17844:17937   */\n      tag_519\n        /* \"#utility.yul\":17933:17936   */\n      dup3\n        /* \"#utility.yul\":17844:17937   */\n      tag_319\n      jump\t// in\n    tag_519:\n        /* \"#utility.yul\":17962:17964   */\n      0x20\n        /* \"#utility.yul\":17957:17960   */\n      dup3\n        /* \"#utility.yul\":17953:17965   */\n      add\n        /* \"#utility.yul\":17946:17965   */\n      swap1\n      pop\n        /* \"#utility.yul\":17605:17971   */\n      swap2\n      swap1\n      pop\n      jump\t// out\n        /* \"#utility.yul\":17977:18396   */\n    tag_183:\n        /* \"#utility.yul\":18143:18147   */\n      0x00\n        /* \"#utility.yul\":18181:18183   */\n      0x20\n        /* \"#utility.yul\":18170:18179   */\n      dup3\n        /* \"#utility.yul\":18166:18184   */\n      add\n        /* \"#utility.yul\":18158:18184   */\n      swap1\n      pop\n        /* \"#utility.yul\":18230:18239   */\n      dup2\n        /* \"#utility.yul\":18224:18228   */\n      dup2\n        /* \"#utility.yul\":18220:18240   */\n      sub\n        /* \"#utility.yul\":18216:18217   */\n      0x00\n        /* \"#utility.yul\":18205:18214   */\n      dup4\n        /* \"#utility.yul\":18201:18218   */\n      add\n        /* \"#utility.yul\":18194:18241   */\n      mstore\n        /* \"#utility.yul\":18258:18389   */\n      tag_521\n        /* \"#utility.yul\":18384:18388   */\n      dup2\n        /* \"#utility.yul\":18258:18389   */\n      tag_320\n      jump\t// in\n    tag_521:\n        /* \"#utility.yul\":18250:18389   */\n      swap1\n      pop\n        /* \"#utility.yul\":17977:18396   */\n      swap2\n      swap1\n      pop\n      jump\t// out\n        /* \"#utility.yul\":18402:19288   */\n    tag_187:\n        /* \"#utility.yul\":18663:18667   */\n      0x00\n        /* \"#utility.yul\":18701:18704   */\n      0xe0\n        /* \"#utility.yul\":18690:18699   */\n      dup3\n        /* \"#utility.yul\":18686:18705   */\n      add\n        /* \"#utility.yul\":18678:18705   */\n      swap1\n      pop\n        /* \"#utility.yul\":18715:18786   */\n      tag_523\n        /* \"#utility.yul\":18783:18784   */\n      0x00\n        /* \"#utility.yul\":18772:18781   */\n      dup4\n        /* \"#utility.yul\":18768:18785   */\n      add\n        /* \"#utility.yul\":18759:18765   */\n      dup11\n        /* \"#utility.yul\":18715:18786   */\n      tag_299\n      jump\t// in\n    tag_523:\n        /* \"#utility.yul\":18796:18868   */\n      tag_524\n        /* \"#utility.yul\":18864:18866   */\n      0x20\n        /* \"#utility.yul\":18853:18862   */\n      dup4\n        /* \"#utility.yul\":18849:18867   */\n      add\n        /* \"#utility.yul\":18840:18846   */\n      dup10\n        /* \"#utility.yul\":18796:18868   */\n      tag_302\n      jump\t// in\n    tag_524:\n        /* \"#utility.yul\":18878:18950   */\n      tag_525\n        /* \"#utility.yul\":18946:18948   */\n      0x40\n        /* \"#utility.yul\":18935:18944   */\n      dup4\n        /* \"#utility.yul\":18931:18949   */\n      add\n        /* \"#utility.yul\":18922:18928   */\n      dup9\n        /* \"#utility.yul\":18878:18950   */\n      tag_302\n      jump\t// in\n    tag_525:\n        /* \"#utility.yul\":18960:19032   */\n      tag_526\n        /* \"#utility.yul\":19028:19030   */\n      0x60\n        /* \"#utility.yul\":19017:19026   */\n      dup4\n        /* \"#utility.yul\":19013:19031   */\n      add\n        /* \"#utility.yul\":19004:19010   */\n      dup8\n        /* \"#utility.yul\":18960:19032   */\n      tag_302\n      jump\t// in\n    tag_526:\n        /* \"#utility.yul\":19042:19115   */\n      tag_527\n        /* \"#utility.yul\":19110:19113   */\n      0x80\n        /* \"#utility.yul\":19099:19108   */\n      dup4\n        /* \"#utility.yul\":19095:19114   */\n      add\n        /* \"#utility.yul\":19086:19092   */\n      dup7\n        /* \"#utility.yul\":19042:19115   */\n      tag_299\n      jump\t// in\n    tag_527:\n        /* \"#utility.yul\":19125:19198   */\n      tag_528\n        /* \"#utility.yul\":19193:19196   */\n      0xa0\n        /* \"#utility.yul\":19182:19191   */\n      dup4\n        /* \"#utility.yul\":19178:19197   */\n      add\n        /* \"#utility.yul\":19169:19175   */\n      dup6\n        /* \"#utility.yul\":19125:19198   */\n      tag_299\n      jump\t// in\n    tag_528:\n        /* \"#utility.yul\":19208:19281   */\n      tag_529\n        /* \"#utility.yul\":19276:19279   */\n      0xc0\n        /* \"#utility.yul\":19265:19274   */\n      dup4\n        /* \"#utility.yul\":19261:19280   */\n      add\n        /* \"#utility.yul\":19252:19258   */\n      dup5\n        /* \"#utility.yul\":19208:19281   */\n      tag_299\n      jump\t// in\n    tag_529:\n        /* \"#utility.yul\":18402:19288   */\n      swap9\n      swap8\n      pop\n      pop\n      pop\n      pop\n      pop\n      pop\n      pop\n      pop\n      jump\t// out\n        /* \"#utility.yul\":19294:19402   */\n    tag_321:\n        /* \"#utility.yul\":19371:19395   */\n      tag_531\n        /* \"#utility.yul\":19389:19394   */\n      dup2\n        /* \"#utility.yul\":19371:19395   */\n      tag_291\n      jump\t// in\n    tag_531:\n        /* \"#utility.yul\":19366:19369   */\n      dup3\n        /* \"#utility.yul\":19359:19396   */\n      mstore\n        /* \"#utility.yul\":19294:19402   */\n      pop\n      pop\n      jump\t// out\n        /* \"#utility.yul\":19408:19516   */\n    tag_322:\n        /* \"#utility.yul\":19485:19509   */\n      tag_533\n        /* \"#utility.yul\":19503:19508   */\n      dup2\n        /* \"#utility.yul\":19485:19509   */\n      tag_288\n      jump\t// in\n    tag_533:\n        /* \"#utility.yul\":19480:19483   */\n      dup3\n        /* \"#utility.yul\":19473:19510   */\n      mstore\n        /* \"#utility.yul\":19408:19516   */\n      pop\n      pop\n      jump\t// out\n        /* \"#utility.yul\":19606:21003   */\n    tag_323:\n        /* \"#utility.yul\":19761:19765   */\n      0xe0\n        /* \"#utility.yul\":19756:19759   */\n      dup3\n        /* \"#utility.yul\":19752:19766   */\n      add\n        /* \"#utility.yul\":19850:19854   */\n      0x00\n        /* \"#utility.yul\":19843:19848   */\n      dup3\n        /* \"#utility.yul\":19839:19855   */\n      add\n        /* \"#utility.yul\":19833:19856   */\n      mload\n        /* \"#utility.yul\":19869:19932   */\n      tag_535\n        /* \"#utility.yul\":19926:19930   */\n      0x00\n        /* \"#utility.yul\":19921:19924   */\n      dup6\n        /* \"#utility.yul\":19917:19931   */\n      add\n        /* \"#utility.yul\":19903:19915   */\n      dup3\n        /* \"#utility.yul\":19869:19932   */\n      tag_321\n      jump\t// in\n    tag_535:\n        /* \"#utility.yul\":19776:19942   */\n      pop\n        /* \"#utility.yul\":20025:20029   */\n      0x20\n        /* \"#utility.yul\":20018:20023   */\n      dup3\n        /* \"#utility.yul\":20014:20030   */\n      add\n        /* \"#utility.yul\":20008:20031   */\n      mload\n        /* \"#utility.yul\":20044:20107   */\n      tag_536\n        /* \"#utility.yul\":20101:20105   */\n      0x20\n        /* \"#utility.yul\":20096:20099   */\n      dup6\n        /* \"#utility.yul\":20092:20106   */\n      add\n        /* \"#utility.yul\":20078:20090   */\n      dup3\n        /* \"#utility.yul\":20044:20107   */\n      tag_322\n      jump\t// in\n    tag_536:\n        /* \"#utility.yul\":19952:20117   */\n      pop\n        /* \"#utility.yul\":20201:20205   */\n      0x40\n        /* \"#utility.yul\":20194:20199   */\n      dup3\n        /* \"#utility.yul\":20190:20206   */\n      add\n        /* \"#utility.yul\":20184:20207   */\n      mload\n        /* \"#utility.yul\":20220:20283   */\n      tag_537\n        /* \"#utility.yul\":20277:20281   */\n      0x40\n        /* \"#utility.yul\":20272:20275   */\n      dup6\n        /* \"#utility.yul\":20268:20282   */\n      add\n        /* \"#utility.yul\":20254:20266   */\n      dup3\n        /* \"#utility.yul\":20220:20283   */\n      tag_322\n      jump\t// in\n    tag_537:\n        /* \"#utility.yul\":20127:20293   */\n      pop\n        /* \"#utility.yul\":20377:20381   */\n      0x60\n        /* \"#utility.yul\":20370:20375   */\n      dup3\n        /* \"#utility.yul\":20366:20382   */\n      add\n        /* \"#utility.yul\":20360:20383   */\n      mload\n        /* \"#utility.yul\":20396:20459   */\n      tag_538\n        /* \"#utility.yul\":20453:20457   */\n      0x60\n        /* \"#utility.yul\":20448:20451   */\n      dup6\n        /* \"#utility.yul\":20444:20458   */\n      add\n        /* \"#utility.yul\":20430:20442   */\n      dup3\n        /* \"#utility.yul\":20396:20459   */\n      tag_322\n      jump\t// in\n    tag_538:\n        /* \"#utility.yul\":20303:20469   */\n      pop\n        /* \"#utility.yul\":20550:20554   */\n      0x80\n        /* \"#utility.yul\":20543:20548   */\n      dup3\n        /* \"#utility.yul\":20539:20555   */\n      add\n        /* \"#utility.yul\":20533:20556   */\n      mload\n        /* \"#utility.yul\":20569:20632   */\n      tag_539\n        /* \"#utility.yul\":20626:20630   */\n      0x80\n        /* \"#utility.yul\":20621:20624   */\n      dup6\n        /* \"#utility.yul\":20617:20631   */\n      add\n        /* \"#utility.yul\":20603:20615   */\n      dup3\n        /* \"#utility.yul\":20569:20632   */\n      tag_321\n      jump\t// in\n    tag_539:\n        /* \"#utility.yul\":20479:20642   */\n      pop\n        /* \"#utility.yul\":20727:20731   */\n      0xa0\n        /* \"#utility.yul\":20720:20725   */\n      dup3\n        /* \"#utility.yul\":20716:20732   */\n      add\n        /* \"#utility.yul\":20710:20733   */\n      mload\n        /* \"#utility.yul\":20746:20809   */\n      tag_540\n        /* \"#utility.yul\":20803:20807   */\n      0xa0\n        /* \"#utility.yul\":20798:20801   */\n      dup6\n        /* \"#utility.yul\":20794:20808   */\n      add\n        /* \"#utility.yul\":20780:20792   */\n      dup3\n        /* \"#utility.yul\":20746:20809   */\n      tag_321\n      jump\t// in\n    tag_540:\n        /* \"#utility.yul\":20652:20819   */\n      pop\n        /* \"#utility.yul\":20904:20908   */\n      0xc0\n        /* \"#utility.yul\":20897:20902   */\n      dup3\n        /* \"#utility.yul\":20893:20909   */\n      add\n        /* \"#utility.yul\":20887:20910   */\n      mload\n        /* \"#utility.yul\":20923:20986   */\n      tag_541\n        /* \"#utility.yul\":20980:20984   */\n      0xc0\n        /* \"#utility.yul\":20975:20978   */\n      dup6\n        /* \"#utility.yul\":20971:20985   */\n      add\n        /* \"#utility.yul\":20957:20969   */\n      dup3\n        /* \"#utility.yul\":20923:20986   */\n      tag_321\n      jump\t// in\n    tag_541:\n        /* \"#utility.yul\":20829:20996   */\n      pop\n        /* \"#utility.yul\":19730:21003   */\n      pop\n        /* \"#utility.yul\":19606:21003   */\n      pop\n      pop\n      jump\t// out\n        /* \"#utility.yul\":21009:21458   */\n    tag_192:\n        /* \"#utility.yul\":21188:21192   */\n      0x00\n        /* \"#utility.yul\":21226:21229   */\n      0x0100\n        /* \"#utility.yul\":21215:21224   */\n      dup3\n        /* \"#utility.yul\":21211:21230   */\n      add\n        /* \"#utility.yul\":21203:21230   */\n      swap1\n      pop\n        /* \"#utility.yul\":21240:21311   */\n      tag_543\n        /* \"#utility.yul\":21308:21309   */\n      0x00\n        /* \"#utility.yul\":21297:21306   */\n      dup4\n        /* \"#utility.yul\":21293:21310   */\n      add\n        /* \"#utility.yul\":21284:21290   */\n      dup6\n        /* \"#utility.yul\":21240:21311   */\n      tag_302\n      jump\t// in\n    tag_543:\n        /* \"#utility.yul\":21321:21451   */\n      tag_544\n        /* \"#utility.yul\":21447:21449   */\n      0x20\n        /* \"#utility.yul\":21436:21445   */\n      dup4\n        /* \"#utility.yul\":21432:21450   */\n      add\n        /* \"#utility.yul\":21423:21429   */\n      dup5\n        /* \"#utility.yul\":21321:21451   */\n      tag_323\n      jump\t// in\n    tag_544:\n        /* \"#utility.yul\":21009:21458   */\n      swap4\n      swap3\n      pop\n      pop\n      pop\n      jump\t// out\n        /* \"#utility.yul\":21464:21628   */\n    tag_324:\n        /* \"#utility.yul\":21604:21620   */\n      0x496e76616c69646520546f6b656e000000000000000000000000000000000000\n        /* \"#utility.yul\":21600:21601   */\n      0x00\n        /* \"#utility.yul\":21592:21598   */\n      dup3\n        /* \"#utility.yul\":21588:21602   */\n      add\n        /* \"#utility.yul\":21581:21621   */\n      mstore\n        /* \"#utility.yul\":21464:21628   */\n      pop\n      jump\t// out\n        /* \"#utility.yul\":21634:22000   */\n    tag_325:\n        /* \"#utility.yul\":21776:21779   */\n      0x00\n        /* \"#utility.yul\":21797:21864   */\n      tag_547\n        /* \"#utility.yul\":21861:21863   */\n      0x0e\n        /* \"#utility.yul\":21856:21859   */\n      dup4\n        /* \"#utility.yul\":21797:21864   */\n      tag_312\n      jump\t// in\n    tag_547:\n        /* \"#utility.yul\":21790:21864   */\n      swap2\n      pop\n        /* \"#utility.yul\":21873:21966   */\n      tag_548\n        /* \"#utility.yul\":21962:21965   */\n      dup3\n        /* \"#utility.yul\":21873:21966   */\n      tag_324\n      jump\t// in\n    tag_548:\n        /* \"#utility.yul\":21991:21993   */\n      0x20\n        /* \"#utility.yul\":21986:21989   */\n      dup3\n        /* \"#utility.yul\":21982:21994   */\n      add\n        /* \"#utility.yul\":21975:21994   */\n      swap1\n      pop\n        /* \"#utility.yul\":21634:22000   */\n      swap2\n      swap1\n      pop\n      jump\t// out\n        /* \"#utility.yul\":22006:22425   */\n    tag_211:\n        /* \"#utility.yul\":22172:22176   */\n      0x00\n        /* \"#utility.yul\":22210:22212   */\n      0x20\n        /* \"#utility.yul\":22199:22208   */\n      dup3\n        /* \"#utility.yul\":22195:22213   */\n      add\n        /* \"#utility.yul\":22187:22213   */\n      swap1\n      pop\n        /* \"#utility.yul\":22259:22268   */\n      dup2\n        /* \"#utility.yul\":22253:22257   */\n      dup2\n        /* \"#utility.yul\":22249:22269   */\n      sub\n        /* \"#utility.yul\":22245:22246   */\n      0x00\n        /* \"#utility.yul\":22234:22243   */\n      dup4\n        /* \"#utility.yul\":22230:22247   */\n      add\n        /* \"#utility.yul\":22223:22270   */\n      mstore\n        /* \"#utility.yul\":22287:22418   */\n      tag_550\n        /* \"#utility.yul\":22413:22417   */\n      dup2\n        /* \"#utility.yul\":22287:22418   */\n      tag_325\n      jump\t// in\n    tag_550:\n        /* \"#utility.yul\":22279:22418   */\n      swap1\n      pop\n        /* \"#utility.yul\":22006:22425   */\n      swap2\n      swap1\n      pop\n      jump\t// out\n        /* \"#utility.yul\":22431:22594   */\n    tag_326:\n        /* \"#utility.yul\":22571:22586   */\n      0x616d6f756e7420696e203d203000000000000000000000000000000000000000\n        /* \"#utility.yul\":22567:22568   */\n      0x00\n        /* \"#utility.yul\":22559:22565   */\n      dup3\n        /* \"#utility.yul\":22555:22569   */\n      add\n        /* \"#utility.yul\":22548:22587   */\n      mstore\n        /* \"#utility.yul\":22431:22594   */\n      pop\n      jump\t// out\n        /* \"#utility.yul\":22600:22966   */\n    tag_327:\n        /* \"#utility.yul\":22742:22745   */\n      0x00\n        /* \"#utility.yul\":22763:22830   */\n      tag_553\n        /* \"#utility.yul\":22827:22829   */\n      0x0d\n        /* \"#utility.yul\":22822:22825   */\n      dup4\n        /* \"#utility.yul\":22763:22830   */\n      tag_312\n      jump\t// in\n    tag_553:\n        /* \"#utility.yul\":22756:22830   */\n      swap2\n      pop\n        /* \"#utility.yul\":22839:22932   */\n      tag_554\n        /* \"#utility.yul\":22928:22931   */\n      dup3\n        /* \"#utility.yul\":22839:22932   */\n      tag_326\n      jump\t// in\n    tag_554:\n        /* \"#utility.yul\":22957:22959   */\n      0x20\n        /* \"#utility.yul\":22952:22955   */\n      dup3\n        /* \"#utility.yul\":22948:22960   */\n      add\n        /* \"#utility.yul\":22941:22960   */\n      swap1\n      pop\n        /* \"#utility.yul\":22600:22966   */\n      swap2\n      swap1\n      pop\n      jump\t// out\n        /* \"#utility.yul\":22972:23391   */\n    tag_214:\n        /* \"#utility.yul\":23138:23142   */\n      0x00\n        /* \"#utility.yul\":23176:23178   */\n      0x20\n        /* \"#utility.yul\":23165:23174   */\n      dup3\n        /* \"#utility.yul\":23161:23179   */\n      add\n        /* \"#utility.yul\":23153:23179   */\n      swap1\n      pop\n        /* \"#utility.yul\":23225:23234   */\n      dup2\n        /* \"#utility.yul\":23219:23223   */\n      dup2\n        /* \"#utility.yul\":23215:23235   */\n      sub\n        /* \"#utility.yul\":23211:23212   */\n      0x00\n        /* \"#utility.yul\":23200:23209   */\n      dup4\n        /* \"#utility.yul\":23196:23213   */\n      add\n        /* \"#utility.yul\":23189:23236   */\n      mstore\n        /* \"#utility.yul\":23253:23384   */\n      tag_556\n        /* \"#utility.yul\":23379:23383   */\n      dup2\n        /* \"#utility.yul\":23253:23384   */\n      tag_327\n      jump\t// in\n    tag_556:\n        /* \"#utility.yul\":23245:23384   */\n      swap1\n      pop\n        /* \"#utility.yul\":22972:23391   */\n      swap2\n      swap1\n      pop\n      jump\t// out\n        /* \"#utility.yul\":23397:23588   */\n    tag_228:\n        /* \"#utility.yul\":23437:23440   */\n      0x00\n        /* \"#utility.yul\":23456:23476   */\n      tag_558\n        /* \"#utility.yul\":23474:23475   */\n      dup3\n        /* \"#utility.yul\":23456:23476   */\n      tag_291\n      jump\t// in\n    tag_558:\n        /* \"#utility.yul\":23451:23476   */\n      swap2\n      pop\n        /* \"#utility.yul\":23490:23510   */\n      tag_559\n        /* \"#utility.yul\":23508:23509   */\n      dup4\n        /* \"#utility.yul\":23490:23510   */\n      tag_291\n      jump\t// in\n    tag_559:\n        /* \"#utility.yul\":23485:23510   */\n      swap3\n      pop\n        /* \"#utility.yul\":23533:23534   */\n      dup3\n        /* \"#utility.yul\":23530:23531   */\n      dup3\n        /* \"#utility.yul\":23526:23535   */\n      add\n        /* \"#utility.yul\":23519:23535   */\n      swap1\n      pop\n        /* \"#utility.yul\":23554:23557   */\n      dup1\n        /* \"#utility.yul\":23551:23552   */\n      dup3\n        /* \"#utility.yul\":23548:23558   */\n      gt\n        /* \"#utility.yul\":23545:23581   */\n      iszero\n      tag_560\n      jumpi\n        /* \"#utility.yul\":23561:23579   */\n      tag_561\n      tag_300\n      jump\t// in\n    tag_561:\n        /* \"#utility.yul\":23545:23581   */\n    tag_560:\n        /* \"#utility.yul\":23397:23588   */\n      swap3\n      swap2\n      pop\n      pop\n      jump\t// out\n\n    auxdata: 0xa2646970667358221220f104c4b41a28ddaa9ee4375c9fe20e2ce1f0b1387187e7f6f221db82ef0a4a6d64736f6c63430008120033\n}\n",
				"bytecode": {
					"linkReferences": {},
					"object": "60c06040523480156200001157600080fd5b506040516200254d3803806200254d833981810160405281019062000037919062000195565b8373ffffffffffffffffffffffffffffffffffffffff1660808173ffffffffffffffffffffffffffffffffffffffff16815250508273ffffffffffffffffffffffffffffffffffffffff1660a08173ffffffffffffffffffffffffffffffffffffffff1681525050816000806101000a81548173ffffffffffffffffffffffffffffffffffffffff021916908373ffffffffffffffffffffffffffffffffffffffff160217905550806003819055505050505062000207565b600080fd5b600073ffffffffffffffffffffffffffffffffffffffff82169050919050565b60006200012282620000f5565b9050919050565b620001348162000115565b81146200014057600080fd5b50565b600081519050620001548162000129565b92915050565b6000819050919050565b6200016f816200015a565b81146200017b57600080fd5b50565b6000815190506200018f8162000164565b92915050565b60008060008060808587031215620001b257620001b1620000f0565b5b6000620001c28782880162000143565b9450506020620001d58782880162000143565b9350506040620001e88782880162000143565b9250506060620001fb878288016200017e565b91505092959194509250565b60805160a05161229b620002b2600039600081816106f10152818161098201528181610acc01528181610d5701528181610edc01528181610fe201528181611112015281816111800152818161141f01526114d401526000818161045c01528181610653015281816108e301528181610a2b01528181610d3601528181610e3501528181610f8d015281816110b6015281816111330152818161115f0152611378015261229b6000f3fe608060405234801561001057600080fd5b50600436106101005760003560e01c8063733baa6b116100975780639cd441da116100665780639cd441da146102c8578063d004f0f7146102f8578063d21220a714610328578063ddca3f431461034657610100565b8063733baa6b1461022b57806378f0c7351461025b57806390256e54146102795780639c8f9f231461029757610100565b806318160ddd116100d357806318160ddd146101a1578063443cb4bc146101bf5780635a76f25e146101dd57806370a08231146101fb57610100565b806301ffc9a71461010557806309feb954146101355780630dfe168114610153578063150b7a0214610171575b600080fd5b61011f600480360381019061011a91906116f4565b610364565b60405161012c919061173c565b60405180910390f35b61013d610436565b60405161014a91906117d6565b60405180910390f35b61015b61045a565b6040516101689190611812565b60405180910390f35b61018b60048036038101906101869190611906565b61047e565b604051610198919061199d565b60405180910390f35b6101a9610493565b6040516101b691906119c7565b60405180910390f35b6101c7610499565b6040516101d491906119c7565b60405180910390f35b6101e561049f565b6040516101f291906119c7565b60405180910390f35b610215600480360381019061021091906119e2565b6104a5565b60405161022291906119c7565b60405180910390f35b61024560048036038101906102409190611a0f565b6104bd565b60405161025291906119c7565b60405180910390f35b61026361050c565b60405161027091906119c7565b60405180910390f35b610281610512565b60405161028e91906119c7565b60405180910390f35b6102b160048036038101906102ac9190611a0f565b610518565b6040516102bf929190611a3c565b60405180910390f35b6102e260048036038101906102dd9190611a65565b610a27565b6040516102ef91906119c7565b60405180910390f35b610312600480360381019061030d9190611aa5565b610f89565b60405161031f91906119c7565b60405180910390f35b6103306114d2565b60405161033d9190611812565b60405180910390f35b61034e6114f6565b60405161035b91906119c7565b60405180910390f35b60007f80ac58cd000000000000000000000000000000000000000000000000000000007bffffffffffffffffffffffffffffffffffffffffffffffffffffffff1916827bffffffffffffffffffffffffffffffffffffffffffffffffffffffff1916148061042f57507f01ffc9a7000000000000000000000000000000000000000000000000000000007bffffffffffffffffffffffffffffffffffffffffffffffffffffffff1916827bffffffffffffffffffffffffffffffffffffffffffffffffffffffff1916145b9050919050565b60008054906101000a900473ffffffffffffffffffffffffffffffffffffffff1681565b7f000000000000000000000000000000000000000000000000000000000000000081565b600063150b7a0260e01b905095945050505050565b60065481565b60015481565b60025481565b60076020528060005260406000206000915090505481565b6000806004546001546104d09190611b14565b905060006005546002546104e49190611b14565b905060008285836104f59190611b48565b6104ff9190611bb9565b9050809350505050919050565b60055481565b60045481565b60008060008054906101000a900473ffffffffffffffffffffffffffffffffffffffff1673ffffffffffffffffffffffffffffffffffffffff166326908fa13330866040518463ffffffff1660e01b815260040161057893929190611bf9565b600060405180830381600087803b15801561059257600080fd5b505af11580156105a6573d6000803e3d6000fd5b5050505060008060009054906101000a900473ffffffffffffffffffffffffffffffffffffffff1673ffffffffffffffffffffffffffffffffffffffff166399fbab88856040518263ffffffff1660e01b815260040161060691906119c7565b60e0604051808303816000875af1158015610625573d6000803e3d6000fd5b505050506040513d601f19601f820116820180604052508101906106499190611d9f565b60000151905060007f000000000000000000000000000000000000000000000000000000000000000073ffffffffffffffffffffffffffffffffffffffff166370a08231306040518263ffffffff1660e01b81526004016106aa9190611dcc565b602060405180830381865afa1580156106c7573d6000803e3d6000fd5b505050506040513d601f19601f820116820180604052508101906106eb9190611de7565b905060007f000000000000000000000000000000000000000000000000000000000000000073ffffffffffffffffffffffffffffffffffffffff166370a08231306040518263ffffffff1660e01b81526004016107489190611dcc565b602060405180830381865afa158015610765573d6000803e3d6000fd5b505050506040513d601f19601f820116820180604052508101906107899190611de7565b9050600654828461079a9190611b48565b6107a49190611bb9565b945060065481846107b59190611b48565b6107bf9190611bb9565b93506000851180156107d15750600184115b610810576040517f08c379a000000000000000000000000000000000000000000000000000000000815260040161080790611e71565b60405180910390fd5b61081a33846114fc565b60008054906101000a900473ffffffffffffffffffffffffffffffffffffffff1673ffffffffffffffffffffffffffffffffffffffff1663ec82872287306040518363ffffffff1660e01b8152600401610875929190611e91565b600060405180830381600087803b15801561088f57600080fd5b505af11580156108a3573d6000803e3d6000fd5b505050506108e160045486846108b99190611b14565b6108c39190611b14565b60055486846108d29190611b14565b6108dc9190611b14565b61156f565b7f000000000000000000000000000000000000000000000000000000000000000073ffffffffffffffffffffffffffffffffffffffff1663a9059cbb33876040518363ffffffff1660e01b815260040161093c929190611eba565b6020604051808303816000875af115801561095b573d6000803e3d6000fd5b505050506040513d601f19601f8201168201806040525081019061097f9190611f0f565b507f000000000000000000000000000000000000000000000000000000000000000073ffffffffffffffffffffffffffffffffffffffff1663a9059cbb33866040518363ffffffff1660e01b81526004016109db929190611eba565b6020604051808303816000875af11580156109fa573d6000803e3d6000fd5b505050506040513d601f19601f82011682018060405250810190610a1e9190611f0f565b50505050915091565b60007f000000000000000000000000000000000000000000000000000000000000000073ffffffffffffffffffffffffffffffffffffffff166323b872dd3330866040518463ffffffff1660e01b8152600401610a8693929190611bf9565b6020604051808303816000875af1158015610aa5573d6000803e3d6000fd5b505050506040513d601f19601f82011682018060405250810190610ac99190611f0f565b507f000000000000000000000000000000000000000000000000000000000000000073ffffffffffffffffffffffffffffffffffffffff166323b872dd3330856040518463ffffffff1660e01b8152600401610b2793929190611bf9565b6020604051808303816000875af1158015610b46573d6000803e3d6000fd5b505050506040513d601f19601f82011682018060405250810190610b6a9190611f0f565b5060006001541180610b7e57506000600254115b15610c06576000600454600154610b959190611b14565b90506000600554600254610ba99190611b14565b9050818582610bb89190611b48565b610bc29190611bb9565b8414610c03576040517f08c379a0000000000000000000000000000000000000000000000000000000008152600401610bfa90611f88565b60405180910390fd5b50505b600060065403610c2b57610c248284610c1f9190611b48565b611581565b9050610c6c565b610c6960015460065485610c3f9190611b48565b610c499190611bb9565b60025460065485610c5a9190611b48565b610c649190611bb9565b6115fb565b90505b60008111610caf576040517f08c379a0000000000000000000000000000000000000000000000000000000008152600401610ca690611ff4565b60405180910390fd5b610cb93382611615565b60008054906101000a900473ffffffffffffffffffffffffffffffffffffffff1673ffffffffffffffffffffffffffffffffffffffff166391cda3e73360008054906101000a900473ffffffffffffffffffffffffffffffffffffffff1673ffffffffffffffffffffffffffffffffffffffff16638b21787885337f00000000000000000000000000000000000000000000000000000000000000007f00000000000000000000000000000000000000000000000000000000000000006003548c8c6040518863ffffffff1660e01b8152600401610d9d9796959493929190612014565b60e060405180830381865afa158015610dba573d6000803e3d6000fd5b505050506040513d601f19601f82011682018060405250810190610dde9190611d9f565b6040518363ffffffff1660e01b8152600401610dfb92919061212f565b600060405180830381600087803b158015610e1557600080fd5b505af1158015610e29573d6000803e3d6000fd5b50505050610f836004547f000000000000000000000000000000000000000000000000000000000000000073ffffffffffffffffffffffffffffffffffffffff166370a08231306040518263ffffffff1660e01b8152600401610e8c9190611dcc565b602060405180830381865afa158015610ea9573d6000803e3d6000fd5b505050506040513d601f19601f82011682018060405250810190610ecd9190611de7565b610ed79190611b14565b6005547f000000000000000000000000000000000000000000000000000000000000000073ffffffffffffffffffffffffffffffffffffffff166370a08231306040518263ffffffff1660e01b8152600401610f339190611dcc565b602060405180830381865afa158015610f50573d6000803e3d6000fd5b505050506040513d601f19601f82011682018060405250810190610f749190611de7565b610f7e9190611b14565b61156f565b92915050565b60007f000000000000000000000000000000000000000000000000000000000000000073ffffffffffffffffffffffffffffffffffffffff168373ffffffffffffffffffffffffffffffffffffffff16148061103057507f000000000000000000000000000000000000000000000000000000000000000073ffffffffffffffffffffffffffffffffffffffff168373ffffffffffffffffffffffffffffffffffffffff16145b61106f576040517f08c379a0000000000000000000000000000000000000000000000000000000008152600401611066906121a5565b60405180910390fd5b600082116110b2576040517f08c379a00000000000000000000000000000000000000000000000000000000081526004016110a990612211565b60405180910390fd5b60007f000000000000000000000000000000000000000000000000000000000000000073ffffffffffffffffffffffffffffffffffffffff168473ffffffffffffffffffffffffffffffffffffffff161490506000806000808461115d577f00000000000000000000000000000000000000000000000000000000000000007f00000000000000000000000000000000000000000000000000000000000000006002546001546111a6565b7f00000000000000000000000000000000000000000000000000000000000000007f00000000000000000000000000000000000000000000000000000000000000006001546002545b93509350935093508373ffffffffffffffffffffffffffffffffffffffff166323b872dd33308a6040518463ffffffff1660e01b81526004016111eb93929190611bf9565b6020604051808303816000875af115801561120a573d6000803e3d6000fd5b505050506040513d601f19601f8201168201806040525081019061122e9190611f0f565b5060006103e86003546103e86112449190611b14565b8961124f9190611b48565b6112599190611bb9565b90508515611299576103e8600354896112729190611b48565b61127c9190611bb9565b6004600082825461128d9190612231565b925050819055506112cd565b6103e8600354896112aa9190611b48565b6112b49190611bb9565b600560008282546112c59190612231565b925050819055505b80836112d99190612231565b81836112e59190611b48565b6112ef9190611bb9565b96508373ffffffffffffffffffffffffffffffffffffffff1663a9059cbb33896040518363ffffffff1660e01b815260040161132c929190611eba565b6020604051808303816000875af115801561134b573d6000803e3d6000fd5b505050506040513d601f19601f8201168201806040525081019061136f9190611f0f565b506114c66004547f000000000000000000000000000000000000000000000000000000000000000073ffffffffffffffffffffffffffffffffffffffff166370a08231306040518263ffffffff1660e01b81526004016113cf9190611dcc565b602060405180830381865afa1580156113ec573d6000803e3d6000fd5b505050506040513d601f19601f820116820180604052508101906114109190611de7565b61141a9190611b14565b6005547f000000000000000000000000000000000000000000000000000000000000000073ffffffffffffffffffffffffffffffffffffffff166370a08231306040518263ffffffff1660e01b81526004016114769190611dcc565b602060405180830381865afa158015611493573d6000803e3d6000fd5b505050506040513d601f19601f820116820180604052508101906114b79190611de7565b6114c19190611b14565b61156f565b50505050505092915050565b7f000000000000000000000000000000000000000000000000000000000000000081565b60035481565b80600760008473ffffffffffffffffffffffffffffffffffffffff1673ffffffffffffffffffffffffffffffffffffffff168152602001908152602001600020600082825461154b9190611b14565b9250508190555080600660008282546115649190611b14565b925050819055505050565b81600181905550806002819055505050565b600060038211156115e857819050600060016002846115a09190611bb9565b6115aa9190612231565b90505b818110156115e25780915060028182856115c79190611bb9565b6115d19190612231565b6115db9190611bb9565b90506115ad565b506115f6565b600082146115f557600190505b5b919050565b60008183111561160b578161160d565b825b905092915050565b80600760008473ffffffffffffffffffffffffffffffffffffffff1673ffffffffffffffffffffffffffffffffffffffff16815260200190815260200160002060008282546116649190612231565b92505081905550806006600082825461167d9190612231565b925050819055505050565b6000604051905090565b600080fd5b600080fd5b60007fffffffff0000000000000000000000000000000000000000000000000000000082169050919050565b6116d18161169c565b81146116dc57600080fd5b50565b6000813590506116ee816116c8565b92915050565b60006020828403121561170a57611709611692565b5b6000611718848285016116df565b91505092915050565b60008115159050919050565b61173681611721565b82525050565b6000602082019050611751600083018461172d565b92915050565b600073ffffffffffffffffffffffffffffffffffffffff82169050919050565b6000819050919050565b600061179c61179761179284611757565b611777565b611757565b9050919050565b60006117ae82611781565b9050919050565b60006117c0826117a3565b9050919050565b6117d0816117b5565b82525050565b60006020820190506117eb60008301846117c7565b92915050565b60006117fc826117a3565b9050919050565b61180c816117f1565b82525050565b60006020820190506118276000830184611803565b92915050565b600061183882611757565b9050919050565b6118488161182d565b811461185357600080fd5b50565b6000813590506118658161183f565b92915050565b6000819050919050565b61187e8161186b565b811461188957600080fd5b50565b60008135905061189b81611875565b92915050565b600080fd5b600080fd5b600080fd5b60008083601f8401126118c6576118c56118a1565b5b8235905067ffffffffffffffff8111156118e3576118e26118a6565b5b6020830191508360018202830111156118ff576118fe6118ab565b5b9250929050565b60008060008060006080868803121561192257611921611692565b5b600061193088828901611856565b955050602061194188828901611856565b94505060406119528882890161188c565b935050606086013567ffffffffffffffff81111561197357611972611697565b5b61197f888289016118b0565b92509250509295509295909350565b6119978161169c565b82525050565b60006020820190506119b2600083018461198e565b92915050565b6119c18161186b565b82525050565b60006020820190506119dc60008301846119b8565b92915050565b6000602082840312156119f8576119f7611692565b5b6000611a0684828501611856565b91505092915050565b600060208284031215611a2557611a24611692565b5b6000611a338482850161188c565b91505092915050565b6000604082019050611a5160008301856119b8565b611a5e60208301846119b8565b9392505050565b60008060408385031215611a7c57611a7b611692565b5b6000611a8a8582860161188c565b9250506020611a9b8582860161188c565b9150509250929050565b60008060408385031215611abc57611abb611692565b5b6000611aca85828601611856565b9250506020611adb8582860161188c565b9150509250929050565b7f4e487b7100000000000000000000000000000000000000000000000000000000600052601160045260246000fd5b6000611b1f8261186b565b9150611b2a8361186b565b9250828203905081811115611b4257611b41611ae5565b5b92915050565b6000611b538261186b565b9150611b5e8361186b565b9250828202611b6c8161186b565b91508282048414831517611b8357611b82611ae5565b5b5092915050565b7f4e487b7100000000000000000000000000000000000000000000000000000000600052601260045260246000fd5b6000611bc48261186b565b9150611bcf8361186b565b925082611bdf57611bde611b8a565b5b828204905092915050565b611bf38161182d565b82525050565b6000606082019050611c0e6000830186611bea565b611c1b6020830185611bea565b611c2860408301846119b8565b949350505050565b600080fd5b6000601f19601f8301169050919050565b7f4e487b7100000000000000000000000000000000000000000000000000000000600052604160045260246000fd5b611c7e82611c35565b810181811067ffffffffffffffff82111715611c9d57611c9c611c46565b5b80604052505050565b6000611cb0611688565b9050611cbc8282611c75565b919050565b600081519050611cd081611875565b92915050565b600081519050611ce58161183f565b92915050565b600060e08284031215611d0157611d00611c30565b5b611d0b60e0611ca6565b90506000611d1b84828501611cc1565b6000830152506020611d2f84828501611cd6565b6020830152506040611d4384828501611cd6565b6040830152506060611d5784828501611cd6565b6060830152506080611d6b84828501611cc1565b60808301525060a0611d7f84828501611cc1565b60a08301525060c0611d9384828501611cc1565b60c08301525092915050565b600060e08284031215611db557611db4611692565b5b6000611dc384828501611ceb565b91505092915050565b6000602082019050611de16000830184611bea565b92915050565b600060208284031215611dfd57611dfc611692565b5b6000611e0b84828501611cc1565b91505092915050565b600082825260208201905092915050565b7f616d6f756e7430206f7220616d6f756e7431203d203000000000000000000000600082015250565b6000611e5b601683611e14565b9150611e6682611e25565b602082019050919050565b60006020820190508181036000830152611e8a81611e4e565b9050919050565b6000604082019050611ea660008301856119b8565b611eb36020830184611bea565b9392505050565b6000604082019050611ecf6000830185611bea565b611edc60208301846119b8565b9392505050565b611eec81611721565b8114611ef757600080fd5b50565b600081519050611f0981611ee3565b92915050565b600060208284031215611f2557611f24611692565b5b6000611f3384828501611efa565b91505092915050565b7f6479202f20647820213d2079202f207800000000000000000000000000000000600082015250565b6000611f72601083611e14565b9150611f7d82611f3c565b602082019050919050565b60006020820190508181036000830152611fa181611f65565b9050919050565b7f736861726573203d203000000000000000000000000000000000000000000000600082015250565b6000611fde600a83611e14565b9150611fe982611fa8565b602082019050919050565b6000602082019050818103600083015261200d81611fd1565b9050919050565b600060e082019050612029600083018a6119b8565b6120366020830189611bea565b6120436040830188611bea565b6120506060830187611bea565b61205d60808301866119b8565b61206a60a08301856119b8565b61207760c08301846119b8565b98975050505050505050565b61208c8161186b565b82525050565b61209b8161182d565b82525050565b60e0820160008201516120b76000850182612083565b5060208201516120ca6020850182612092565b5060408201516120dd6040850182612092565b5060608201516120f06060850182612092565b5060808201516121036080850182612083565b5060a082015161211660a0850182612083565b5060c082015161212960c0850182612083565b50505050565b6000610100820190506121456000830185611bea565b61215260208301846120a1565b9392505050565b7f496e76616c69646520546f6b656e000000000000000000000000000000000000600082015250565b600061218f600e83611e14565b915061219a82612159565b602082019050919050565b600060208201905081810360008301526121be81612182565b9050919050565b7f616d6f756e7420696e203d203000000000000000000000000000000000000000600082015250565b60006121fb600d83611e14565b9150612206826121c5565b602082019050919050565b6000602082019050818103600083015261222a816121ee565b9050919050565b600061223c8261186b565b91506122478361186b565b925082820190508082111561225f5761225e611ae5565b5b9291505056fea2646970667358221220f104c4b41a28ddaa9ee4375c9fe20e2ce1f0b1387187e7f6f221db82ef0a4a6d64736f6c63430008120033",
					"opcodes": "PUSH1 0xC0 PUSH1 0x40 MSTORE CALLVALUE DUP1 ISZERO PUSH3 0x11 JUMPI PUSH1 0x0 DUP1 REVERT JUMPDEST POP PUSH1 0x40 MLOAD PUSH3 0x254D CODESIZE SUB DUP1 PUSH3 0x254D DUP4 CODECOPY DUP2 DUP2 ADD PUSH1 0x40 MSTORE DUP2 ADD SWAP1 PUSH3 0x37 SWAP2 SWAP1 PUSH3 0x195 JUMP JUMPDEST DUP4 PUSH20 0xFFFFFFFFFFFFFFFFFFFFFFFFFFFFFFFFFFFFFFFF AND PUSH1 0x80 DUP2 PUSH20 0xFFFFFFFFFFFFFFFFFFFFFFFFFFFFFFFFFFFFFFFF AND DUP2 MSTORE POP POP DUP3 PUSH20 0xFFFFFFFFFFFFFFFFFFFFFFFFFFFFFFFFFFFFFFFF AND PUSH1 0xA0 DUP2 PUSH20 0xFFFFFFFFFFFFFFFFFFFFFFFFFFFFFFFFFFFFFFFF AND DUP2 MSTORE POP POP DUP2 PUSH1 0x0 DUP1 PUSH2 0x100 EXP DUP2 SLOAD DUP2 PUSH20 0xFFFFFFFFFFFFFFFFFFFFFFFFFFFFFFFFFFFFFFFF MUL NOT AND SWAP1 DUP4 PUSH20 0xFFFFFFFFFFFFFFFFFFFFFFFFFFFFFFFFFFFFFFFF AND MUL OR SWAP1 SSTORE POP DUP1 PUSH1 0x3 DUP2 SWAP1 SSTORE POP POP POP POP POP PUSH3 0x207 JUMP JUMPDEST PUSH1 0x0 DUP1 REVERT JUMPDEST PUSH1 0x0 PUSH20 0xFFFFFFFFFFFFFFFFFFFFFFFFFFFFFFFFFFFFFFFF DUP3 AND SWAP1 POP SWAP2 SWAP1 POP JUMP JUMPDEST PUSH1 0x0 PUSH3 0x122 DUP3 PUSH3 0xF5 JUMP JUMPDEST SWAP1 POP SWAP2 SWAP1 POP JUMP JUMPDEST PUSH3 0x134 DUP2 PUSH3 0x115 JUMP JUMPDEST DUP2 EQ PUSH3 0x140 JUMPI PUSH1 0x0 DUP1 REVERT JUMPDEST POP JUMP JUMPDEST PUSH1 0x0 DUP2 MLOAD SWAP1 POP PUSH3 0x154 DUP2 PUSH3 0x129 JUMP JUMPDEST SWAP3 SWAP2 POP POP JUMP JUMPDEST PUSH1 0x0 DUP2 SWAP1 POP SWAP2 SWAP1 POP JUMP JUMPDEST PUSH3 0x16F DUP2 PUSH3 0x15A JUMP JUMPDEST DUP2 EQ PUSH3 0x17B JUMPI PUSH1 0x0 DUP1 REVERT JUMPDEST POP JUMP JUMPDEST PUSH1 0x0 DUP2 MLOAD SWAP1 POP PUSH3 0x18F DUP2 PUSH3 0x164 JUMP JUMPDEST SWAP3 SWAP2 POP POP JUMP JUMPDEST PUSH1 0x0 DUP1 PUSH1 0x0 DUP1 PUSH1 0x80 DUP6 DUP8 SUB SLT ISZERO PUSH3 0x1B2 JUMPI PUSH3 0x1B1 PUSH3 0xF0 JUMP JUMPDEST JUMPDEST PUSH1 0x0 PUSH3 0x1C2 DUP8 DUP3 DUP9 ADD PUSH3 0x143 JUMP JUMPDEST SWAP5 POP POP PUSH1 0x20 PUSH3 0x1D5 DUP8 DUP3 DUP9 ADD PUSH3 0x143 JUMP JUMPDEST SWAP4 POP POP PUSH1 0x40 PUSH3 0x1E8 DUP8 DUP3 DUP9 ADD PUSH3 0x143 JUMP JUMPDEST SWAP3 POP POP PUSH1 0x60 PUSH3 0x1FB DUP8 DUP3 DUP9 ADD PUSH3 0x17E JUMP JUMPDEST SWAP2 POP POP SWAP3 SWAP6 SWAP2 SWAP5 POP SWAP3 POP JUMP JUMPDEST PUSH1 0x80 MLOAD PUSH1 0xA0 MLOAD PUSH2 0x229B PUSH3 0x2B2 PUSH1 0x0 CODECOPY PUSH1 0x0 DUP2 DUP2 PUSH2 0x6F1 ADD MSTORE DUP2 DUP2 PUSH2 0x982 ADD MSTORE DUP2 DUP2 PUSH2 0xACC ADD MSTORE DUP2 DUP2 PUSH2 0xD57 ADD MSTORE DUP2 DUP2 PUSH2 0xEDC ADD MSTORE DUP2 DUP2 PUSH2 0xFE2 ADD MSTORE DUP2 DUP2 PUSH2 0x1112 ADD MSTORE DUP2 DUP2 PUSH2 0x1180 ADD MSTORE DUP2 DUP2 PUSH2 0x141F ADD MSTORE PUSH2 0x14D4 ADD MSTORE PUSH1 0x0 DUP2 DUP2 PUSH2 0x45C ADD MSTORE DUP2 DUP2 PUSH2 0x653 ADD MSTORE DUP2 DUP2 PUSH2 0x8E3 ADD MSTORE DUP2 DUP2 PUSH2 0xA2B ADD MSTORE DUP2 DUP2 PUSH2 0xD36 ADD MSTORE DUP2 DUP2 PUSH2 0xE35 ADD MSTORE DUP2 DUP2 PUSH2 0xF8D ADD MSTORE DUP2 DUP2 PUSH2 0x10B6 ADD MSTORE DUP2 DUP2 PUSH2 0x1133 ADD MSTORE DUP2 DUP2 PUSH2 0x115F ADD MSTORE PUSH2 0x1378 ADD MSTORE PUSH2 0x229B PUSH1 0x0 RETURN INVALID PUSH1 0x80 PUSH1 0x40 MSTORE CALLVALUE DUP1 ISZERO PUSH2 0x10 JUMPI PUSH1 0x0 DUP1 REVERT JUMPDEST POP PUSH1 0x4 CALLDATASIZE LT PUSH2 0x100 JUMPI PUSH1 0x0 CALLDATALOAD PUSH1 0xE0 SHR DUP1 PUSH4 0x733BAA6B GT PUSH2 0x97 JUMPI DUP1 PUSH4 0x9CD441DA GT PUSH2 0x66 JUMPI DUP1 PUSH4 0x9CD441DA EQ PUSH2 0x2C8 JUMPI DUP1 PUSH4 0xD004F0F7 EQ PUSH2 0x2F8 JUMPI DUP1 PUSH4 0xD21220A7 EQ PUSH2 0x328 JUMPI DUP1 PUSH4 0xDDCA3F43 EQ PUSH2 0x346 JUMPI PUSH2 0x100 JUMP JUMPDEST DUP1 PUSH4 0x733BAA6B EQ PUSH2 0x22B JUMPI DUP1 PUSH4 0x78F0C735 EQ PUSH2 0x25B JUMPI DUP1 PUSH4 0x90256E54 EQ PUSH2 0x279 JUMPI DUP1 PUSH4 0x9C8F9F23 EQ PUSH2 0x297 JUMPI PUSH2 0x100 JUMP JUMPDEST DUP1 PUSH4 0x18160DDD GT PUSH2 0xD3 JUMPI DUP1 PUSH4 0x18160DDD EQ PUSH2 0x1A1 JUMPI DUP1 PUSH4 0x443CB4BC EQ PUSH2 0x1BF JUMPI DUP1 PUSH4 0x5A76F25E EQ PUSH2 0x1DD JUMPI DUP1 PUSH4 0x70A08231 EQ PUSH2 0x1FB JUMPI PUSH2 0x100 JUMP JUMPDEST DUP1 PUSH4 0x1FFC9A7 EQ PUSH2 0x105 JUMPI DUP1 PUSH4 0x9FEB954 EQ PUSH2 0x135 JUMPI DUP1 PUSH4 0xDFE1681 EQ PUSH2 0x153 JUMPI DUP1 PUSH4 0x150B7A02 EQ PUSH2 0x171 JUMPI JUMPDEST PUSH1 0x0 DUP1 REVERT JUMPDEST PUSH2 0x11F PUSH1 0x4 DUP1 CALLDATASIZE SUB DUP2 ADD SWAP1 PUSH2 0x11A SWAP2 SWAP1 PUSH2 0x16F4 JUMP JUMPDEST PUSH2 0x364 JUMP JUMPDEST PUSH1 0x40 MLOAD PUSH2 0x12C SWAP2 SWAP1 PUSH2 0x173C JUMP JUMPDEST PUSH1 0x40 MLOAD DUP1 SWAP2 SUB SWAP1 RETURN JUMPDEST PUSH2 0x13D PUSH2 0x436 JUMP JUMPDEST PUSH1 0x40 MLOAD PUSH2 0x14A SWAP2 SWAP1 PUSH2 0x17D6 JUMP JUMPDEST PUSH1 0x40 MLOAD DUP1 SWAP2 SUB SWAP1 RETURN JUMPDEST PUSH2 0x15B PUSH2 0x45A JUMP JUMPDEST PUSH1 0x40 MLOAD PUSH2 0x168 SWAP2 SWAP1 PUSH2 0x1812 JUMP JUMPDEST PUSH1 0x40 MLOAD DUP1 SWAP2 SUB SWAP1 RETURN JUMPDEST PUSH2 0x18B PUSH1 0x4 DUP1 CALLDATASIZE SUB DUP2 ADD SWAP1 PUSH2 0x186 SWAP2 SWAP1 PUSH2 0x1906 JUMP JUMPDEST PUSH2 0x47E JUMP JUMPDEST PUSH1 0x40 MLOAD PUSH2 0x198 SWAP2 SWAP1 PUSH2 0x199D JUMP JUMPDEST PUSH1 0x40 MLOAD DUP1 SWAP2 SUB SWAP1 RETURN JUMPDEST PUSH2 0x1A9 PUSH2 0x493 JUMP JUMPDEST PUSH1 0x40 MLOAD PUSH2 0x1B6 SWAP2 SWAP1 PUSH2 0x19C7 JUMP JUMPDEST PUSH1 0x40 MLOAD DUP1 SWAP2 SUB SWAP1 RETURN JUMPDEST PUSH2 0x1C7 PUSH2 0x499 JUMP JUMPDEST PUSH1 0x40 MLOAD PUSH2 0x1D4 SWAP2 SWAP1 PUSH2 0x19C7 JUMP JUMPDEST PUSH1 0x40 MLOAD DUP1 SWAP2 SUB SWAP1 RETURN JUMPDEST PUSH2 0x1E5 PUSH2 0x49F JUMP JUMPDEST PUSH1 0x40 MLOAD PUSH2 0x1F2 SWAP2 SWAP1 PUSH2 0x19C7 JUMP JUMPDEST PUSH1 0x40 MLOAD DUP1 SWAP2 SUB SWAP1 RETURN JUMPDEST PUSH2 0x215 PUSH1 0x4 DUP1 CALLDATASIZE SUB DUP2 ADD SWAP1 PUSH2 0x210 SWAP2 SWAP1 PUSH2 0x19E2 JUMP JUMPDEST PUSH2 0x4A5 JUMP JUMPDEST PUSH1 0x40 MLOAD PUSH2 0x222 SWAP2 SWAP1 PUSH2 0x19C7 JUMP JUMPDEST PUSH1 0x40 MLOAD DUP1 SWAP2 SUB SWAP1 RETURN JUMPDEST PUSH2 0x245 PUSH1 0x4 DUP1 CALLDATASIZE SUB DUP2 ADD SWAP1 PUSH2 0x240 SWAP2 SWAP1 PUSH2 0x1A0F JUMP JUMPDEST PUSH2 0x4BD JUMP JUMPDEST PUSH1 0x40 MLOAD PUSH2 0x252 SWAP2 SWAP1 PUSH2 0x19C7 JUMP JUMPDEST PUSH1 0x40 MLOAD DUP1 SWAP2 SUB SWAP1 RETURN JUMPDEST PUSH2 0x263 PUSH2 0x50C JUMP JUMPDEST PUSH1 0x40 MLOAD PUSH2 0x270 SWAP2 SWAP1 PUSH2 0x19C7 JUMP JUMPDEST PUSH1 0x40 MLOAD DUP1 SWAP2 SUB SWAP1 RETURN JUMPDEST PUSH2 0x281 PUSH2 0x512 JUMP JUMPDEST PUSH1 0x40 MLOAD PUSH2 0x28E SWAP2 SWAP1 PUSH2 0x19C7 JUMP JUMPDEST PUSH1 0x40 MLOAD DUP1 SWAP2 SUB SWAP1 RETURN JUMPDEST PUSH2 0x2B1 PUSH1 0x4 DUP1 CALLDATASIZE SUB DUP2 ADD SWAP1 PUSH2 0x2AC SWAP2 SWAP1 PUSH2 0x1A0F JUMP JUMPDEST PUSH2 0x518 JUMP JUMPDEST PUSH1 0x40 MLOAD PUSH2 0x2BF SWAP3 SWAP2 SWAP1 PUSH2 0x1A3C JUMP JUMPDEST PUSH1 0x40 MLOAD DUP1 SWAP2 SUB SWAP1 RETURN JUMPDEST PUSH2 0x2E2 PUSH1 0x4 DUP1 CALLDATASIZE SUB DUP2 ADD SWAP1 PUSH2 0x2DD SWAP2 SWAP1 PUSH2 0x1A65 JUMP JUMPDEST PUSH2 0xA27 JUMP JUMPDEST PUSH1 0x40 MLOAD PUSH2 0x2EF SWAP2 SWAP1 PUSH2 0x19C7 JUMP JUMPDEST PUSH1 0x40 MLOAD DUP1 SWAP2 SUB SWAP1 RETURN JUMPDEST PUSH2 0x312 PUSH1 0x4 DUP1 CALLDATASIZE SUB DUP2 ADD SWAP1 PUSH2 0x30D SWAP2 SWAP1 PUSH2 0x1AA5 JUMP JUMPDEST PUSH2 0xF89 JUMP JUMPDEST PUSH1 0x40 MLOAD PUSH2 0x31F SWAP2 SWAP1 PUSH2 0x19C7 JUMP JUMPDEST PUSH1 0x40 MLOAD DUP1 SWAP2 SUB SWAP1 RETURN JUMPDEST PUSH2 0x330 PUSH2 0x14D2 JUMP JUMPDEST PUSH1 0x40 MLOAD PUSH2 0x33D SWAP2 SWAP1 PUSH2 0x1812 JUMP JUMPDEST PUSH1 0x40 MLOAD DUP1 SWAP2 SUB SWAP1 RETURN JUMPDEST PUSH2 0x34E PUSH2 0x14F6 JUMP JUMPDEST PUSH1 0x40 MLOAD PUSH2 0x35B SWAP2 SWAP1 PUSH2 0x19C7 JUMP JUMPDEST PUSH1 0x40 MLOAD DUP1 SWAP2 SUB SWAP1 RETURN JUMPDEST PUSH1 0x0 PUSH32 0x80AC58CD00000000000000000000000000000000000000000000000000000000 PUSH28 0xFFFFFFFFFFFFFFFFFFFFFFFFFFFFFFFFFFFFFFFFFFFFFFFFFFFFFFFF NOT AND DUP3 PUSH28 0xFFFFFFFFFFFFFFFFFFFFFFFFFFFFFFFFFFFFFFFFFFFFFFFFFFFFFFFF NOT AND EQ DUP1 PUSH2 0x42F JUMPI POP PUSH32 0x1FFC9A700000000000000000000000000000000000000000000000000000000 PUSH28 0xFFFFFFFFFFFFFFFFFFFFFFFFFFFFFFFFFFFFFFFFFFFFFFFFFFFFFFFF NOT AND DUP3 PUSH28 0xFFFFFFFFFFFFFFFFFFFFFFFFFFFFFFFFFFFFFFFFFFFFFFFFFFFFFFFF NOT AND EQ JUMPDEST SWAP1 POP SWAP2 SWAP1 POP JUMP JUMPDEST PUSH1 0x0 DUP1 SLOAD SWAP1 PUSH2 0x100 EXP SWAP1 DIV PUSH20 0xFFFFFFFFFFFFFFFFFFFFFFFFFFFFFFFFFFFFFFFF AND DUP2 JUMP JUMPDEST PUSH32 0x0 DUP2 JUMP JUMPDEST PUSH1 0x0 PUSH4 0x150B7A02 PUSH1 0xE0 SHL SWAP1 POP SWAP6 SWAP5 POP POP POP POP POP JUMP JUMPDEST PUSH1 0x6 SLOAD DUP2 JUMP JUMPDEST PUSH1 0x1 SLOAD DUP2 JUMP JUMPDEST PUSH1 0x2 SLOAD DUP2 JUMP JUMPDEST PUSH1 0x7 PUSH1 0x20 MSTORE DUP1 PUSH1 0x0 MSTORE PUSH1 0x40 PUSH1 0x0 KECCAK256 PUSH1 0x0 SWAP2 POP SWAP1 POP SLOAD DUP2 JUMP JUMPDEST PUSH1 0x0 DUP1 PUSH1 0x4 SLOAD PUSH1 0x1 SLOAD PUSH2 0x4D0 SWAP2 SWAP1 PUSH2 0x1B14 JUMP JUMPDEST SWAP1 POP PUSH1 0x0 PUSH1 0x5 SLOAD PUSH1 0x2 SLOAD PUSH2 0x4E4 SWAP2 SWAP1 PUSH2 0x1B14 JUMP JUMPDEST SWAP1 POP PUSH1 0x0 DUP3 DUP6 DUP4 PUSH2 0x4F5 SWAP2 SWAP1 PUSH2 0x1B48 JUMP JUMPDEST PUSH2 0x4FF SWAP2 SWAP1 PUSH2 0x1BB9 JUMP JUMPDEST SWAP1 POP DUP1 SWAP4 POP POP POP POP SWAP2 SWAP1 POP JUMP JUMPDEST PUSH1 0x5 SLOAD DUP2 JUMP JUMPDEST PUSH1 0x4 SLOAD DUP2 JUMP JUMPDEST PUSH1 0x0 DUP1 PUSH1 0x0 DUP1 SLOAD SWAP1 PUSH2 0x100 EXP SWAP1 DIV PUSH20 0xFFFFFFFFFFFFFFFFFFFFFFFFFFFFFFFFFFFFFFFF AND PUSH20 0xFFFFFFFFFFFFFFFFFFFFFFFFFFFFFFFFFFFFFFFF AND PUSH4 0x26908FA1 CALLER ADDRESS DUP7 PUSH1 0x40 MLOAD DUP5 PUSH4 0xFFFFFFFF AND PUSH1 0xE0 SHL DUP2 MSTORE PUSH1 0x4 ADD PUSH2 0x578 SWAP4 SWAP3 SWAP2 SWAP1 PUSH2 0x1BF9 JUMP JUMPDEST PUSH1 0x0 PUSH1 0x40 MLOAD DUP1 DUP4 SUB DUP2 PUSH1 0x0 DUP8 DUP1 EXTCODESIZE ISZERO DUP1 ISZERO PUSH2 0x592 JUMPI PUSH1 0x0 DUP1 REVERT JUMPDEST POP GAS CALL ISZERO DUP1 ISZERO PUSH2 0x5A6 JUMPI RETURNDATASIZE PUSH1 0x0 DUP1 RETURNDATACOPY RETURNDATASIZE PUSH1 0x0 REVERT JUMPDEST POP POP POP POP PUSH1 0x0 DUP1 PUSH1 0x0 SWAP1 SLOAD SWAP1 PUSH2 0x100 EXP SWAP1 DIV PUSH20 0xFFFFFFFFFFFFFFFFFFFFFFFFFFFFFFFFFFFFFFFF AND PUSH20 0xFFFFFFFFFFFFFFFFFFFFFFFFFFFFFFFFFFFFFFFF AND PUSH4 0x99FBAB88 DUP6 PUSH1 0x40 MLOAD DUP3 PUSH4 0xFFFFFFFF AND PUSH1 0xE0 SHL DUP2 MSTORE PUSH1 0x4 ADD PUSH2 0x606 SWAP2 SWAP1 PUSH2 0x19C7 JUMP JUMPDEST PUSH1 0xE0 PUSH1 0x40 MLOAD DUP1 DUP4 SUB DUP2 PUSH1 0x0 DUP8 GAS CALL ISZERO DUP1 ISZERO PUSH2 0x625 JUMPI RETURNDATASIZE PUSH1 0x0 DUP1 RETURNDATACOPY RETURNDATASIZE PUSH1 0x0 REVERT JUMPDEST POP POP POP POP PUSH1 0x40 MLOAD RETURNDATASIZE PUSH1 0x1F NOT PUSH1 0x1F DUP3 ADD AND DUP3 ADD DUP1 PUSH1 0x40 MSTORE POP DUP2 ADD SWAP1 PUSH2 0x649 SWAP2 SWAP1 PUSH2 0x1D9F JUMP JUMPDEST PUSH1 0x0 ADD MLOAD SWAP1 POP PUSH1 0x0 PUSH32 0x0 PUSH20 0xFFFFFFFFFFFFFFFFFFFFFFFFFFFFFFFFFFFFFFFF AND PUSH4 0x70A08231 ADDRESS PUSH1 0x40 MLOAD DUP3 PUSH4 0xFFFFFFFF AND PUSH1 0xE0 SHL DUP2 MSTORE PUSH1 0x4 ADD PUSH2 0x6AA SWAP2 SWAP1 PUSH2 0x1DCC JUMP JUMPDEST PUSH1 0x20 PUSH1 0x40 MLOAD DUP1 DUP4 SUB DUP2 DUP7 GAS STATICCALL ISZERO DUP1 ISZERO PUSH2 0x6C7 JUMPI RETURNDATASIZE PUSH1 0x0 DUP1 RETURNDATACOPY RETURNDATASIZE PUSH1 0x0 REVERT JUMPDEST POP POP POP POP PUSH1 0x40 MLOAD RETURNDATASIZE PUSH1 0x1F NOT PUSH1 0x1F DUP3 ADD AND DUP3 ADD DUP1 PUSH1 0x40 MSTORE POP DUP2 ADD SWAP1 PUSH2 0x6EB SWAP2 SWAP1 PUSH2 0x1DE7 JUMP JUMPDEST SWAP1 POP PUSH1 0x0 PUSH32 0x0 PUSH20 0xFFFFFFFFFFFFFFFFFFFFFFFFFFFFFFFFFFFFFFFF AND PUSH4 0x70A08231 ADDRESS PUSH1 0x40 MLOAD DUP3 PUSH4 0xFFFFFFFF AND PUSH1 0xE0 SHL DUP2 MSTORE PUSH1 0x4 ADD PUSH2 0x748 SWAP2 SWAP1 PUSH2 0x1DCC JUMP JUMPDEST PUSH1 0x20 PUSH1 0x40 MLOAD DUP1 DUP4 SUB DUP2 DUP7 GAS STATICCALL ISZERO DUP1 ISZERO PUSH2 0x765 JUMPI RETURNDATASIZE PUSH1 0x0 DUP1 RETURNDATACOPY RETURNDATASIZE PUSH1 0x0 REVERT JUMPDEST POP POP POP POP PUSH1 0x40 MLOAD RETURNDATASIZE PUSH1 0x1F NOT PUSH1 0x1F DUP3 ADD AND DUP3 ADD DUP1 PUSH1 0x40 MSTORE POP DUP2 ADD SWAP1 PUSH2 0x789 SWAP2 SWAP1 PUSH2 0x1DE7 JUMP JUMPDEST SWAP1 POP PUSH1 0x6 SLOAD DUP3 DUP5 PUSH2 0x79A SWAP2 SWAP1 PUSH2 0x1B48 JUMP JUMPDEST PUSH2 0x7A4 SWAP2 SWAP1 PUSH2 0x1BB9 JUMP JUMPDEST SWAP5 POP PUSH1 0x6 SLOAD DUP2 DUP5 PUSH2 0x7B5 SWAP2 SWAP1 PUSH2 0x1B48 JUMP JUMPDEST PUSH2 0x7BF SWAP2 SWAP1 PUSH2 0x1BB9 JUMP JUMPDEST SWAP4 POP PUSH1 0x0 DUP6 GT DUP1 ISZERO PUSH2 0x7D1 JUMPI POP PUSH1 0x1 DUP5 GT JUMPDEST PUSH2 0x810 JUMPI PUSH1 0x40 MLOAD PUSH32 0x8C379A000000000000000000000000000000000000000000000000000000000 DUP2 MSTORE PUSH1 0x4 ADD PUSH2 0x807 SWAP1 PUSH2 0x1E71 JUMP JUMPDEST PUSH1 0x40 MLOAD DUP1 SWAP2 SUB SWAP1 REVERT JUMPDEST PUSH2 0x81A CALLER DUP5 PUSH2 0x14FC JUMP JUMPDEST PUSH1 0x0 DUP1 SLOAD SWAP1 PUSH2 0x100 EXP SWAP1 DIV PUSH20 0xFFFFFFFFFFFFFFFFFFFFFFFFFFFFFFFFFFFFFFFF AND PUSH20 0xFFFFFFFFFFFFFFFFFFFFFFFFFFFFFFFFFFFFFFFF AND PUSH4 0xEC828722 DUP8 ADDRESS PUSH1 0x40 MLOAD DUP4 PUSH4 0xFFFFFFFF AND PUSH1 0xE0 SHL DUP2 MSTORE PUSH1 0x4 ADD PUSH2 0x875 SWAP3 SWAP2 SWAP1 PUSH2 0x1E91 JUMP JUMPDEST PUSH1 0x0 PUSH1 0x40 MLOAD DUP1 DUP4 SUB DUP2 PUSH1 0x0 DUP8 DUP1 EXTCODESIZE ISZERO DUP1 ISZERO PUSH2 0x88F JUMPI PUSH1 0x0 DUP1 REVERT JUMPDEST POP GAS CALL ISZERO DUP1 ISZERO PUSH2 0x8A3 JUMPI RETURNDATASIZE PUSH1 0x0 DUP1 RETURNDATACOPY RETURNDATASIZE PUSH1 0x0 REVERT JUMPDEST POP POP POP POP PUSH2 0x8E1 PUSH1 0x4 SLOAD DUP7 DUP5 PUSH2 0x8B9 SWAP2 SWAP1 PUSH2 0x1B14 JUMP JUMPDEST PUSH2 0x8C3 SWAP2 SWAP1 PUSH2 0x1B14 JUMP JUMPDEST PUSH1 0x5 SLOAD DUP7 DUP5 PUSH2 0x8D2 SWAP2 SWAP1 PUSH2 0x1B14 JUMP JUMPDEST PUSH2 0x8DC SWAP2 SWAP1 PUSH2 0x1B14 JUMP JUMPDEST PUSH2 0x156F JUMP JUMPDEST PUSH32 0x0 PUSH20 0xFFFFFFFFFFFFFFFFFFFFFFFFFFFFFFFFFFFFFFFF AND PUSH4 0xA9059CBB CALLER DUP8 PUSH1 0x40 MLOAD DUP4 PUSH4 0xFFFFFFFF AND PUSH1 0xE0 SHL DUP2 MSTORE PUSH1 0x4 ADD PUSH2 0x93C SWAP3 SWAP2 SWAP1 PUSH2 0x1EBA JUMP JUMPDEST PUSH1 0x20 PUSH1 0x40 MLOAD DUP1 DUP4 SUB DUP2 PUSH1 0x0 DUP8 GAS CALL ISZERO DUP1 ISZERO PUSH2 0x95B JUMPI RETURNDATASIZE PUSH1 0x0 DUP1 RETURNDATACOPY RETURNDATASIZE PUSH1 0x0 REVERT JUMPDEST POP POP POP POP PUSH1 0x40 MLOAD RETURNDATASIZE PUSH1 0x1F NOT PUSH1 0x1F DUP3 ADD AND DUP3 ADD DUP1 PUSH1 0x40 MSTORE POP DUP2 ADD SWAP1 PUSH2 0x97F SWAP2 SWAP1 PUSH2 0x1F0F JUMP JUMPDEST POP PUSH32 0x0 PUSH20 0xFFFFFFFFFFFFFFFFFFFFFFFFFFFFFFFFFFFFFFFF AND PUSH4 0xA9059CBB CALLER DUP7 PUSH1 0x40 MLOAD DUP4 PUSH4 0xFFFFFFFF AND PUSH1 0xE0 SHL DUP2 MSTORE PUSH1 0x4 ADD PUSH2 0x9DB SWAP3 SWAP2 SWAP1 PUSH2 0x1EBA JUMP JUMPDEST PUSH1 0x20 PUSH1 0x40 MLOAD DUP1 DUP4 SUB DUP2 PUSH1 0x0 DUP8 GAS CALL ISZERO DUP1 ISZERO PUSH2 0x9FA JUMPI RETURNDATASIZE PUSH1 0x0 DUP1 RETURNDATACOPY RETURNDATASIZE PUSH1 0x0 REVERT JUMPDEST POP POP POP POP PUSH1 0x40 MLOAD RETURNDATASIZE PUSH1 0x1F NOT PUSH1 0x1F DUP3 ADD AND DUP3 ADD DUP1 PUSH1 0x40 MSTORE POP DUP2 ADD SWAP1 PUSH2 0xA1E SWAP2 SWAP1 PUSH2 0x1F0F JUMP JUMPDEST POP POP POP POP SWAP2 POP SWAP2 JUMP JUMPDEST PUSH1 0x0 PUSH32 0x0 PUSH20 0xFFFFFFFFFFFFFFFFFFFFFFFFFFFFFFFFFFFFFFFF AND PUSH4 0x23B872DD CALLER ADDRESS DUP7 PUSH1 0x40 MLOAD DUP5 PUSH4 0xFFFFFFFF AND PUSH1 0xE0 SHL DUP2 MSTORE PUSH1 0x4 ADD PUSH2 0xA86 SWAP4 SWAP3 SWAP2 SWAP1 PUSH2 0x1BF9 JUMP JUMPDEST PUSH1 0x20 PUSH1 0x40 MLOAD DUP1 DUP4 SUB DUP2 PUSH1 0x0 DUP8 GAS CALL ISZERO DUP1 ISZERO PUSH2 0xAA5 JUMPI RETURNDATASIZE PUSH1 0x0 DUP1 RETURNDATACOPY RETURNDATASIZE PUSH1 0x0 REVERT JUMPDEST POP POP POP POP PUSH1 0x40 MLOAD RETURNDATASIZE PUSH1 0x1F NOT PUSH1 0x1F DUP3 ADD AND DUP3 ADD DUP1 PUSH1 0x40 MSTORE POP DUP2 ADD SWAP1 PUSH2 0xAC9 SWAP2 SWAP1 PUSH2 0x1F0F JUMP JUMPDEST POP PUSH32 0x0 PUSH20 0xFFFFFFFFFFFFFFFFFFFFFFFFFFFFFFFFFFFFFFFF AND PUSH4 0x23B872DD CALLER ADDRESS DUP6 PUSH1 0x40 MLOAD DUP5 PUSH4 0xFFFFFFFF AND PUSH1 0xE0 SHL DUP2 MSTORE PUSH1 0x4 ADD PUSH2 0xB27 SWAP4 SWAP3 SWAP2 SWAP1 PUSH2 0x1BF9 JUMP JUMPDEST PUSH1 0x20 PUSH1 0x40 MLOAD DUP1 DUP4 SUB DUP2 PUSH1 0x0 DUP8 GAS CALL ISZERO DUP1 ISZERO PUSH2 0xB46 JUMPI RETURNDATASIZE PUSH1 0x0 DUP1 RETURNDATACOPY RETURNDATASIZE PUSH1 0x0 REVERT JUMPDEST POP POP POP POP PUSH1 0x40 MLOAD RETURNDATASIZE PUSH1 0x1F NOT PUSH1 0x1F DUP3 ADD AND DUP3 ADD DUP1 PUSH1 0x40 MSTORE POP DUP2 ADD SWAP1 PUSH2 0xB6A SWAP2 SWAP1 PUSH2 0x1F0F JUMP JUMPDEST POP PUSH1 0x0 PUSH1 0x1 SLOAD GT DUP1 PUSH2 0xB7E JUMPI POP PUSH1 0x0 PUSH1 0x2 SLOAD GT JUMPDEST ISZERO PUSH2 0xC06 JUMPI PUSH1 0x0 PUSH1 0x4 SLOAD PUSH1 0x1 SLOAD PUSH2 0xB95 SWAP2 SWAP1 PUSH2 0x1B14 JUMP JUMPDEST SWAP1 POP PUSH1 0x0 PUSH1 0x5 SLOAD PUSH1 0x2 SLOAD PUSH2 0xBA9 SWAP2 SWAP1 PUSH2 0x1B14 JUMP JUMPDEST SWAP1 POP DUP2 DUP6 DUP3 PUSH2 0xBB8 SWAP2 SWAP1 PUSH2 0x1B48 JUMP JUMPDEST PUSH2 0xBC2 SWAP2 SWAP1 PUSH2 0x1BB9 JUMP JUMPDEST DUP5 EQ PUSH2 0xC03 JUMPI PUSH1 0x40 MLOAD PUSH32 0x8C379A000000000000000000000000000000000000000000000000000000000 DUP2 MSTORE PUSH1 0x4 ADD PUSH2 0xBFA SWAP1 PUSH2 0x1F88 JUMP JUMPDEST PUSH1 0x40 MLOAD DUP1 SWAP2 SUB SWAP1 REVERT JUMPDEST POP POP JUMPDEST PUSH1 0x0 PUSH1 0x6 SLOAD SUB PUSH2 0xC2B JUMPI PUSH2 0xC24 DUP3 DUP5 PUSH2 0xC1F SWAP2 SWAP1 PUSH2 0x1B48 JUMP JUMPDEST PUSH2 0x1581 JUMP JUMPDEST SWAP1 POP PUSH2 0xC6C JUMP JUMPDEST PUSH2 0xC69 PUSH1 0x1 SLOAD PUSH1 0x6 SLOAD DUP6 PUSH2 0xC3F SWAP2 SWAP1 PUSH2 0x1B48 JUMP JUMPDEST PUSH2 0xC49 SWAP2 SWAP1 PUSH2 0x1BB9 JUMP JUMPDEST PUSH1 0x2 SLOAD PUSH1 0x6 SLOAD DUP6 PUSH2 0xC5A SWAP2 SWAP1 PUSH2 0x1B48 JUMP JUMPDEST PUSH2 0xC64 SWAP2 SWAP1 PUSH2 0x1BB9 JUMP JUMPDEST PUSH2 0x15FB JUMP JUMPDEST SWAP1 POP JUMPDEST PUSH1 0x0 DUP2 GT PUSH2 0xCAF JUMPI PUSH1 0x40 MLOAD PUSH32 0x8C379A000000000000000000000000000000000000000000000000000000000 DUP2 MSTORE PUSH1 0x4 ADD PUSH2 0xCA6 SWAP1 PUSH2 0x1FF4 JUMP JUMPDEST PUSH1 0x40 MLOAD DUP1 SWAP2 SUB SWAP1 REVERT JUMPDEST PUSH2 0xCB9 CALLER DUP3 PUSH2 0x1615 JUMP JUMPDEST PUSH1 0x0 DUP1 SLOAD SWAP1 PUSH2 0x100 EXP SWAP1 DIV PUSH20 0xFFFFFFFFFFFFFFFFFFFFFFFFFFFFFFFFFFFFFFFF AND PUSH20 0xFFFFFFFFFFFFFFFFFFFFFFFFFFFFFFFFFFFFFFFF AND PUSH4 0x91CDA3E7 CALLER PUSH1 0x0 DUP1 SLOAD SWAP1 PUSH2 0x100 EXP SWAP1 DIV PUSH20 0xFFFFFFFFFFFFFFFFFFFFFFFFFFFFFFFFFFFFFFFF AND PUSH20 0xFFFFFFFFFFFFFFFFFFFFFFFFFFFFFFFFFFFFFFFF AND PUSH4 0x8B217878 DUP6 CALLER PUSH32 0x0 PUSH32 0x0 PUSH1 0x3 SLOAD DUP13 DUP13 PUSH1 0x40 MLOAD DUP9 PUSH4 0xFFFFFFFF AND PUSH1 0xE0 SHL DUP2 MSTORE PUSH1 0x4 ADD PUSH2 0xD9D SWAP8 SWAP7 SWAP6 SWAP5 SWAP4 SWAP3 SWAP2 SWAP1 PUSH2 0x2014 JUMP JUMPDEST PUSH1 0xE0 PUSH1 0x40 MLOAD DUP1 DUP4 SUB DUP2 DUP7 GAS STATICCALL ISZERO DUP1 ISZERO PUSH2 0xDBA JUMPI RETURNDATASIZE PUSH1 0x0 DUP1 RETURNDATACOPY RETURNDATASIZE PUSH1 0x0 REVERT JUMPDEST POP POP POP POP PUSH1 0x40 MLOAD RETURNDATASIZE PUSH1 0x1F NOT PUSH1 0x1F DUP3 ADD AND DUP3 ADD DUP1 PUSH1 0x40 MSTORE POP DUP2 ADD SWAP1 PUSH2 0xDDE SWAP2 SWAP1 PUSH2 0x1D9F JUMP JUMPDEST PUSH1 0x40 MLOAD DUP4 PUSH4 0xFFFFFFFF AND PUSH1 0xE0 SHL DUP2 MSTORE PUSH1 0x4 ADD PUSH2 0xDFB SWAP3 SWAP2 SWAP1 PUSH2 0x212F JUMP JUMPDEST PUSH1 0x0 PUSH1 0x40 MLOAD DUP1 DUP4 SUB DUP2 PUSH1 0x0 DUP8 DUP1 EXTCODESIZE ISZERO DUP1 ISZERO PUSH2 0xE15 JUMPI PUSH1 0x0 DUP1 REVERT JUMPDEST POP GAS CALL ISZERO DUP1 ISZERO PUSH2 0xE29 JUMPI RETURNDATASIZE PUSH1 0x0 DUP1 RETURNDATACOPY RETURNDATASIZE PUSH1 0x0 REVERT JUMPDEST POP POP POP POP PUSH2 0xF83 PUSH1 0x4 SLOAD PUSH32 0x0 PUSH20 0xFFFFFFFFFFFFFFFFFFFFFFFFFFFFFFFFFFFFFFFF AND PUSH4 0x70A08231 ADDRESS PUSH1 0x40 MLOAD DUP3 PUSH4 0xFFFFFFFF AND PUSH1 0xE0 SHL DUP2 MSTORE PUSH1 0x4 ADD PUSH2 0xE8C SWAP2 SWAP1 PUSH2 0x1DCC JUMP JUMPDEST PUSH1 0x20 PUSH1 0x40 MLOAD DUP1 DUP4 SUB DUP2 DUP7 GAS STATICCALL ISZERO DUP1 ISZERO PUSH2 0xEA9 JUMPI RETURNDATASIZE PUSH1 0x0 DUP1 RETURNDATACOPY RETURNDATASIZE PUSH1 0x0 REVERT JUMPDEST POP POP POP POP PUSH1 0x40 MLOAD RETURNDATASIZE PUSH1 0x1F NOT PUSH1 0x1F DUP3 ADD AND DUP3 ADD DUP1 PUSH1 0x40 MSTORE POP DUP2 ADD SWAP1 PUSH2 0xECD SWAP2 SWAP1 PUSH2 0x1DE7 JUMP JUMPDEST PUSH2 0xED7 SWAP2 SWAP1 PUSH2 0x1B14 JUMP JUMPDEST PUSH1 0x5 SLOAD PUSH32 0x0 PUSH20 0xFFFFFFFFFFFFFFFFFFFFFFFFFFFFFFFFFFFFFFFF AND PUSH4 0x70A08231 ADDRESS PUSH1 0x40 MLOAD DUP3 PUSH4 0xFFFFFFFF AND PUSH1 0xE0 SHL DUP2 MSTORE PUSH1 0x4 ADD PUSH2 0xF33 SWAP2 SWAP1 PUSH2 0x1DCC JUMP JUMPDEST PUSH1 0x20 PUSH1 0x40 MLOAD DUP1 DUP4 SUB DUP2 DUP7 GAS STATICCALL ISZERO DUP1 ISZERO PUSH2 0xF50 JUMPI RETURNDATASIZE PUSH1 0x0 DUP1 RETURNDATACOPY RETURNDATASIZE PUSH1 0x0 REVERT JUMPDEST POP POP POP POP PUSH1 0x40 MLOAD RETURNDATASIZE PUSH1 0x1F NOT PUSH1 0x1F DUP3 ADD AND DUP3 ADD DUP1 PUSH1 0x40 MSTORE POP DUP2 ADD SWAP1 PUSH2 0xF74 SWAP2 SWAP1 PUSH2 0x1DE7 JUMP JUMPDEST PUSH2 0xF7E SWAP2 SWAP1 PUSH2 0x1B14 JUMP JUMPDEST PUSH2 0x156F JUMP JUMPDEST SWAP3 SWAP2 POP POP JUMP JUMPDEST PUSH1 0x0 PUSH32 0x0 PUSH20 0xFFFFFFFFFFFFFFFFFFFFFFFFFFFFFFFFFFFFFFFF AND DUP4 PUSH20 0xFFFFFFFFFFFFFFFFFFFFFFFFFFFFFFFFFFFFFFFF AND EQ DUP1 PUSH2 0x1030 JUMPI POP PUSH32 0x0 PUSH20 0xFFFFFFFFFFFFFFFFFFFFFFFFFFFFFFFFFFFFFFFF AND DUP4 PUSH20 0xFFFFFFFFFFFFFFFFFFFFFFFFFFFFFFFFFFFFFFFF AND EQ JUMPDEST PUSH2 0x106F JUMPI PUSH1 0x40 MLOAD PUSH32 0x8C379A000000000000000000000000000000000000000000000000000000000 DUP2 MSTORE PUSH1 0x4 ADD PUSH2 0x1066 SWAP1 PUSH2 0x21A5 JUMP JUMPDEST PUSH1 0x40 MLOAD DUP1 SWAP2 SUB SWAP1 REVERT JUMPDEST PUSH1 0x0 DUP3 GT PUSH2 0x10B2 JUMPI PUSH1 0x40 MLOAD PUSH32 0x8C379A000000000000000000000000000000000000000000000000000000000 DUP2 MSTORE PUSH1 0x4 ADD PUSH2 0x10A9 SWAP1 PUSH2 0x2211 JUMP JUMPDEST PUSH1 0x40 MLOAD DUP1 SWAP2 SUB SWAP1 REVERT JUMPDEST PUSH1 0x0 PUSH32 0x0 PUSH20 0xFFFFFFFFFFFFFFFFFFFFFFFFFFFFFFFFFFFFFFFF AND DUP5 PUSH20 0xFFFFFFFFFFFFFFFFFFFFFFFFFFFFFFFFFFFFFFFF AND EQ SWAP1 POP PUSH1 0x0 DUP1 PUSH1 0x0 DUP1 DUP5 PUSH2 0x115D JUMPI PUSH32 0x0 PUSH32 0x0 PUSH1 0x2 SLOAD PUSH1 0x1 SLOAD PUSH2 0x11A6 JUMP JUMPDEST PUSH32 0x0 PUSH32 0x0 PUSH1 0x1 SLOAD PUSH1 0x2 SLOAD JUMPDEST SWAP4 POP SWAP4 POP SWAP4 POP SWAP4 POP DUP4 PUSH20 0xFFFFFFFFFFFFFFFFFFFFFFFFFFFFFFFFFFFFFFFF AND PUSH4 0x23B872DD CALLER ADDRESS DUP11 PUSH1 0x40 MLOAD DUP5 PUSH4 0xFFFFFFFF AND PUSH1 0xE0 SHL DUP2 MSTORE PUSH1 0x4 ADD PUSH2 0x11EB SWAP4 SWAP3 SWAP2 SWAP1 PUSH2 0x1BF9 JUMP JUMPDEST PUSH1 0x20 PUSH1 0x40 MLOAD DUP1 DUP4 SUB DUP2 PUSH1 0x0 DUP8 GAS CALL ISZERO DUP1 ISZERO PUSH2 0x120A JUMPI RETURNDATASIZE PUSH1 0x0 DUP1 RETURNDATACOPY RETURNDATASIZE PUSH1 0x0 REVERT JUMPDEST POP POP POP POP PUSH1 0x40 MLOAD RETURNDATASIZE PUSH1 0x1F NOT PUSH1 0x1F DUP3 ADD AND DUP3 ADD DUP1 PUSH1 0x40 MSTORE POP DUP2 ADD SWAP1 PUSH2 0x122E SWAP2 SWAP1 PUSH2 0x1F0F JUMP JUMPDEST POP PUSH1 0x0 PUSH2 0x3E8 PUSH1 0x3 SLOAD PUSH2 0x3E8 PUSH2 0x1244 SWAP2 SWAP1 PUSH2 0x1B14 JUMP JUMPDEST DUP10 PUSH2 0x124F SWAP2 SWAP1 PUSH2 0x1B48 JUMP JUMPDEST PUSH2 0x1259 SWAP2 SWAP1 PUSH2 0x1BB9 JUMP JUMPDEST SWAP1 POP DUP6 ISZERO PUSH2 0x1299 JUMPI PUSH2 0x3E8 PUSH1 0x3 SLOAD DUP10 PUSH2 0x1272 SWAP2 SWAP1 PUSH2 0x1B48 JUMP JUMPDEST PUSH2 0x127C SWAP2 SWAP1 PUSH2 0x1BB9 JUMP JUMPDEST PUSH1 0x4 PUSH1 0x0 DUP3 DUP3 SLOAD PUSH2 0x128D SWAP2 SWAP1 PUSH2 0x2231 JUMP JUMPDEST SWAP3 POP POP DUP2 SWAP1 SSTORE POP PUSH2 0x12CD JUMP JUMPDEST PUSH2 0x3E8 PUSH1 0x3 SLOAD DUP10 PUSH2 0x12AA SWAP2 SWAP1 PUSH2 0x1B48 JUMP JUMPDEST PUSH2 0x12B4 SWAP2 SWAP1 PUSH2 0x1BB9 JUMP JUMPDEST PUSH1 0x5 PUSH1 0x0 DUP3 DUP3 SLOAD PUSH2 0x12C5 SWAP2 SWAP1 PUSH2 0x2231 JUMP JUMPDEST SWAP3 POP POP DUP2 SWAP1 SSTORE POP JUMPDEST DUP1 DUP4 PUSH2 0x12D9 SWAP2 SWAP1 PUSH2 0x2231 JUMP JUMPDEST DUP2 DUP4 PUSH2 0x12E5 SWAP2 SWAP1 PUSH2 0x1B48 JUMP JUMPDEST PUSH2 0x12EF SWAP2 SWAP1 PUSH2 0x1BB9 JUMP JUMPDEST SWAP7 POP DUP4 PUSH20 0xFFFFFFFFFFFFFFFFFFFFFFFFFFFFFFFFFFFFFFFF AND PUSH4 0xA9059CBB CALLER DUP10 PUSH1 0x40 MLOAD DUP4 PUSH4 0xFFFFFFFF AND PUSH1 0xE0 SHL DUP2 MSTORE PUSH1 0x4 ADD PUSH2 0x132C SWAP3 SWAP2 SWAP1 PUSH2 0x1EBA JUMP JUMPDEST PUSH1 0x20 PUSH1 0x40 MLOAD DUP1 DUP4 SUB DUP2 PUSH1 0x0 DUP8 GAS CALL ISZERO DUP1 ISZERO PUSH2 0x134B JUMPI RETURNDATASIZE PUSH1 0x0 DUP1 RETURNDATACOPY RETURNDATASIZE PUSH1 0x0 REVERT JUMPDEST POP POP POP POP PUSH1 0x40 MLOAD RETURNDATASIZE PUSH1 0x1F NOT PUSH1 0x1F DUP3 ADD AND DUP3 ADD DUP1 PUSH1 0x40 MSTORE POP DUP2 ADD SWAP1 PUSH2 0x136F SWAP2 SWAP1 PUSH2 0x1F0F JUMP JUMPDEST POP PUSH2 0x14C6 PUSH1 0x4 SLOAD PUSH32 0x0 PUSH20 0xFFFFFFFFFFFFFFFFFFFFFFFFFFFFFFFFFFFFFFFF AND PUSH4 0x70A08231 ADDRESS PUSH1 0x40 MLOAD DUP3 PUSH4 0xFFFFFFFF AND PUSH1 0xE0 SHL DUP2 MSTORE PUSH1 0x4 ADD PUSH2 0x13CF SWAP2 SWAP1 PUSH2 0x1DCC JUMP JUMPDEST PUSH1 0x20 PUSH1 0x40 MLOAD DUP1 DUP4 SUB DUP2 DUP7 GAS STATICCALL ISZERO DUP1 ISZERO PUSH2 0x13EC JUMPI RETURNDATASIZE PUSH1 0x0 DUP1 RETURNDATACOPY RETURNDATASIZE PUSH1 0x0 REVERT JUMPDEST POP POP POP POP PUSH1 0x40 MLOAD RETURNDATASIZE PUSH1 0x1F NOT PUSH1 0x1F DUP3 ADD AND DUP3 ADD DUP1 PUSH1 0x40 MSTORE POP DUP2 ADD SWAP1 PUSH2 0x1410 SWAP2 SWAP1 PUSH2 0x1DE7 JUMP JUMPDEST PUSH2 0x141A SWAP2 SWAP1 PUSH2 0x1B14 JUMP JUMPDEST PUSH1 0x5 SLOAD PUSH32 0x0 PUSH20 0xFFFFFFFFFFFFFFFFFFFFFFFFFFFFFFFFFFFFFFFF AND PUSH4 0x70A08231 ADDRESS PUSH1 0x40 MLOAD DUP3 PUSH4 0xFFFFFFFF AND PUSH1 0xE0 SHL DUP2 MSTORE PUSH1 0x4 ADD PUSH2 0x1476 SWAP2 SWAP1 PUSH2 0x1DCC JUMP JUMPDEST PUSH1 0x20 PUSH1 0x40 MLOAD DUP1 DUP4 SUB DUP2 DUP7 GAS STATICCALL ISZERO DUP1 ISZERO PUSH2 0x1493 JUMPI RETURNDATASIZE PUSH1 0x0 DUP1 RETURNDATACOPY RETURNDATASIZE PUSH1 0x0 REVERT JUMPDEST POP POP POP POP PUSH1 0x40 MLOAD RETURNDATASIZE PUSH1 0x1F NOT PUSH1 0x1F DUP3 ADD AND DUP3 ADD DUP1 PUSH1 0x40 MSTORE POP DUP2 ADD SWAP1 PUSH2 0x14B7 SWAP2 SWAP1 PUSH2 0x1DE7 JUMP JUMPDEST PUSH2 0x14C1 SWAP2 SWAP1 PUSH2 0x1B14 JUMP JUMPDEST PUSH2 0x156F JUMP JUMPDEST POP POP POP POP POP POP SWAP3 SWAP2 POP POP JUMP JUMPDEST PUSH32 0x0 DUP2 JUMP JUMPDEST PUSH1 0x3 SLOAD DUP2 JUMP JUMPDEST DUP1 PUSH1 0x7 PUSH1 0x0 DUP5 PUSH20 0xFFFFFFFFFFFFFFFFFFFFFFFFFFFFFFFFFFFFFFFF AND PUSH20 0xFFFFFFFFFFFFFFFFFFFFFFFFFFFFFFFFFFFFFFFF AND DUP2 MSTORE PUSH1 0x20 ADD SWAP1 DUP2 MSTORE PUSH1 0x20 ADD PUSH1 0x0 KECCAK256 PUSH1 0x0 DUP3 DUP3 SLOAD PUSH2 0x154B SWAP2 SWAP1 PUSH2 0x1B14 JUMP JUMPDEST SWAP3 POP POP DUP2 SWAP1 SSTORE POP DUP1 PUSH1 0x6 PUSH1 0x0 DUP3 DUP3 SLOAD PUSH2 0x1564 SWAP2 SWAP1 PUSH2 0x1B14 JUMP JUMPDEST SWAP3 POP POP DUP2 SWAP1 SSTORE POP POP POP JUMP JUMPDEST DUP2 PUSH1 0x1 DUP2 SWAP1 SSTORE POP DUP1 PUSH1 0x2 DUP2 SWAP1 SSTORE POP POP POP JUMP JUMPDEST PUSH1 0x0 PUSH1 0x3 DUP3 GT ISZERO PUSH2 0x15E8 JUMPI DUP2 SWAP1 POP PUSH1 0x0 PUSH1 0x1 PUSH1 0x2 DUP5 PUSH2 0x15A0 SWAP2 SWAP1 PUSH2 0x1BB9 JUMP JUMPDEST PUSH2 0x15AA SWAP2 SWAP1 PUSH2 0x2231 JUMP JUMPDEST SWAP1 POP JUMPDEST DUP2 DUP2 LT ISZERO PUSH2 0x15E2 JUMPI DUP1 SWAP2 POP PUSH1 0x2 DUP2 DUP3 DUP6 PUSH2 0x15C7 SWAP2 SWAP1 PUSH2 0x1BB9 JUMP JUMPDEST PUSH2 0x15D1 SWAP2 SWAP1 PUSH2 0x2231 JUMP JUMPDEST PUSH2 0x15DB SWAP2 SWAP1 PUSH2 0x1BB9 JUMP JUMPDEST SWAP1 POP PUSH2 0x15AD JUMP JUMPDEST POP PUSH2 0x15F6 JUMP JUMPDEST PUSH1 0x0 DUP3 EQ PUSH2 0x15F5 JUMPI PUSH1 0x1 SWAP1 POP JUMPDEST JUMPDEST SWAP2 SWAP1 POP JUMP JUMPDEST PUSH1 0x0 DUP2 DUP4 GT ISZERO PUSH2 0x160B JUMPI DUP2 PUSH2 0x160D JUMP JUMPDEST DUP3 JUMPDEST SWAP1 POP SWAP3 SWAP2 POP POP JUMP JUMPDEST DUP1 PUSH1 0x7 PUSH1 0x0 DUP5 PUSH20 0xFFFFFFFFFFFFFFFFFFFFFFFFFFFFFFFFFFFFFFFF AND PUSH20 0xFFFFFFFFFFFFFFFFFFFFFFFFFFFFFFFFFFFFFFFF AND DUP2 MSTORE PUSH1 0x20 ADD SWAP1 DUP2 MSTORE PUSH1 0x20 ADD PUSH1 0x0 KECCAK256 PUSH1 0x0 DUP3 DUP3 SLOAD PUSH2 0x1664 SWAP2 SWAP1 PUSH2 0x2231 JUMP JUMPDEST SWAP3 POP POP DUP2 SWAP1 SSTORE POP DUP1 PUSH1 0x6 PUSH1 0x0 DUP3 DUP3 SLOAD PUSH2 0x167D SWAP2 SWAP1 PUSH2 0x2231 JUMP JUMPDEST SWAP3 POP POP DUP2 SWAP1 SSTORE POP POP POP JUMP JUMPDEST PUSH1 0x0 PUSH1 0x40 MLOAD SWAP1 POP SWAP1 JUMP JUMPDEST PUSH1 0x0 DUP1 REVERT JUMPDEST PUSH1 0x0 DUP1 REVERT JUMPDEST PUSH1 0x0 PUSH32 0xFFFFFFFF00000000000000000000000000000000000000000000000000000000 DUP3 AND SWAP1 POP SWAP2 SWAP1 POP JUMP JUMPDEST PUSH2 0x16D1 DUP2 PUSH2 0x169C JUMP JUMPDEST DUP2 EQ PUSH2 0x16DC JUMPI PUSH1 0x0 DUP1 REVERT JUMPDEST POP JUMP JUMPDEST PUSH1 0x0 DUP2 CALLDATALOAD SWAP1 POP PUSH2 0x16EE DUP2 PUSH2 0x16C8 JUMP JUMPDEST SWAP3 SWAP2 POP POP JUMP JUMPDEST PUSH1 0x0 PUSH1 0x20 DUP3 DUP5 SUB SLT ISZERO PUSH2 0x170A JUMPI PUSH2 0x1709 PUSH2 0x1692 JUMP JUMPDEST JUMPDEST PUSH1 0x0 PUSH2 0x1718 DUP5 DUP3 DUP6 ADD PUSH2 0x16DF JUMP JUMPDEST SWAP2 POP POP SWAP3 SWAP2 POP POP JUMP JUMPDEST PUSH1 0x0 DUP2 ISZERO ISZERO SWAP1 POP SWAP2 SWAP1 POP JUMP JUMPDEST PUSH2 0x1736 DUP2 PUSH2 0x1721 JUMP JUMPDEST DUP3 MSTORE POP POP JUMP JUMPDEST PUSH1 0x0 PUSH1 0x20 DUP3 ADD SWAP1 POP PUSH2 0x1751 PUSH1 0x0 DUP4 ADD DUP5 PUSH2 0x172D JUMP JUMPDEST SWAP3 SWAP2 POP POP JUMP JUMPDEST PUSH1 0x0 PUSH20 0xFFFFFFFFFFFFFFFFFFFFFFFFFFFFFFFFFFFFFFFF DUP3 AND SWAP1 POP SWAP2 SWAP1 POP JUMP JUMPDEST PUSH1 0x0 DUP2 SWAP1 POP SWAP2 SWAP1 POP JUMP JUMPDEST PUSH1 0x0 PUSH2 0x179C PUSH2 0x1797 PUSH2 0x1792 DUP5 PUSH2 0x1757 JUMP JUMPDEST PUSH2 0x1777 JUMP JUMPDEST PUSH2 0x1757 JUMP JUMPDEST SWAP1 POP SWAP2 SWAP1 POP JUMP JUMPDEST PUSH1 0x0 PUSH2 0x17AE DUP3 PUSH2 0x1781 JUMP JUMPDEST SWAP1 POP SWAP2 SWAP1 POP JUMP JUMPDEST PUSH1 0x0 PUSH2 0x17C0 DUP3 PUSH2 0x17A3 JUMP JUMPDEST SWAP1 POP SWAP2 SWAP1 POP JUMP JUMPDEST PUSH2 0x17D0 DUP2 PUSH2 0x17B5 JUMP JUMPDEST DUP3 MSTORE POP POP JUMP JUMPDEST PUSH1 0x0 PUSH1 0x20 DUP3 ADD SWAP1 POP PUSH2 0x17EB PUSH1 0x0 DUP4 ADD DUP5 PUSH2 0x17C7 JUMP JUMPDEST SWAP3 SWAP2 POP POP JUMP JUMPDEST PUSH1 0x0 PUSH2 0x17FC DUP3 PUSH2 0x17A3 JUMP JUMPDEST SWAP1 POP SWAP2 SWAP1 POP JUMP JUMPDEST PUSH2 0x180C DUP2 PUSH2 0x17F1 JUMP JUMPDEST DUP3 MSTORE POP POP JUMP JUMPDEST PUSH1 0x0 PUSH1 0x20 DUP3 ADD SWAP1 POP PUSH2 0x1827 PUSH1 0x0 DUP4 ADD DUP5 PUSH2 0x1803 JUMP JUMPDEST SWAP3 SWAP2 POP POP JUMP JUMPDEST PUSH1 0x0 PUSH2 0x1838 DUP3 PUSH2 0x1757 JUMP JUMPDEST SWAP1 POP SWAP2 SWAP1 POP JUMP JUMPDEST PUSH2 0x1848 DUP2 PUSH2 0x182D JUMP JUMPDEST DUP2 EQ PUSH2 0x1853 JUMPI PUSH1 0x0 DUP1 REVERT JUMPDEST POP JUMP JUMPDEST PUSH1 0x0 DUP2 CALLDATALOAD SWAP1 POP PUSH2 0x1865 DUP2 PUSH2 0x183F JUMP JUMPDEST SWAP3 SWAP2 POP POP JUMP JUMPDEST PUSH1 0x0 DUP2 SWAP1 POP SWAP2 SWAP1 POP JUMP JUMPDEST PUSH2 0x187E DUP2 PUSH2 0x186B JUMP JUMPDEST DUP2 EQ PUSH2 0x1889 JUMPI PUSH1 0x0 DUP1 REVERT JUMPDEST POP JUMP JUMPDEST PUSH1 0x0 DUP2 CALLDATALOAD SWAP1 POP PUSH2 0x189B DUP2 PUSH2 0x1875 JUMP JUMPDEST SWAP3 SWAP2 POP POP JUMP JUMPDEST PUSH1 0x0 DUP1 REVERT JUMPDEST PUSH1 0x0 DUP1 REVERT JUMPDEST PUSH1 0x0 DUP1 REVERT JUMPDEST PUSH1 0x0 DUP1 DUP4 PUSH1 0x1F DUP5 ADD SLT PUSH2 0x18C6 JUMPI PUSH2 0x18C5 PUSH2 0x18A1 JUMP JUMPDEST JUMPDEST DUP3 CALLDATALOAD SWAP1 POP PUSH8 0xFFFFFFFFFFFFFFFF DUP2 GT ISZERO PUSH2 0x18E3 JUMPI PUSH2 0x18E2 PUSH2 0x18A6 JUMP JUMPDEST JUMPDEST PUSH1 0x20 DUP4 ADD SWAP2 POP DUP4 PUSH1 0x1 DUP3 MUL DUP4 ADD GT ISZERO PUSH2 0x18FF JUMPI PUSH2 0x18FE PUSH2 0x18AB JUMP JUMPDEST JUMPDEST SWAP3 POP SWAP3 SWAP1 POP JUMP JUMPDEST PUSH1 0x0 DUP1 PUSH1 0x0 DUP1 PUSH1 0x0 PUSH1 0x80 DUP7 DUP9 SUB SLT ISZERO PUSH2 0x1922 JUMPI PUSH2 0x1921 PUSH2 0x1692 JUMP JUMPDEST JUMPDEST PUSH1 0x0 PUSH2 0x1930 DUP9 DUP3 DUP10 ADD PUSH2 0x1856 JUMP JUMPDEST SWAP6 POP POP PUSH1 0x20 PUSH2 0x1941 DUP9 DUP3 DUP10 ADD PUSH2 0x1856 JUMP JUMPDEST SWAP5 POP POP PUSH1 0x40 PUSH2 0x1952 DUP9 DUP3 DUP10 ADD PUSH2 0x188C JUMP JUMPDEST SWAP4 POP POP PUSH1 0x60 DUP7 ADD CALLDATALOAD PUSH8 0xFFFFFFFFFFFFFFFF DUP2 GT ISZERO PUSH2 0x1973 JUMPI PUSH2 0x1972 PUSH2 0x1697 JUMP JUMPDEST JUMPDEST PUSH2 0x197F DUP9 DUP3 DUP10 ADD PUSH2 0x18B0 JUMP JUMPDEST SWAP3 POP SWAP3 POP POP SWAP3 SWAP6 POP SWAP3 SWAP6 SWAP1 SWAP4 POP JUMP JUMPDEST PUSH2 0x1997 DUP2 PUSH2 0x169C JUMP JUMPDEST DUP3 MSTORE POP POP JUMP JUMPDEST PUSH1 0x0 PUSH1 0x20 DUP3 ADD SWAP1 POP PUSH2 0x19B2 PUSH1 0x0 DUP4 ADD DUP5 PUSH2 0x198E JUMP JUMPDEST SWAP3 SWAP2 POP POP JUMP JUMPDEST PUSH2 0x19C1 DUP2 PUSH2 0x186B JUMP JUMPDEST DUP3 MSTORE POP POP JUMP JUMPDEST PUSH1 0x0 PUSH1 0x20 DUP3 ADD SWAP1 POP PUSH2 0x19DC PUSH1 0x0 DUP4 ADD DUP5 PUSH2 0x19B8 JUMP JUMPDEST SWAP3 SWAP2 POP POP JUMP JUMPDEST PUSH1 0x0 PUSH1 0x20 DUP3 DUP5 SUB SLT ISZERO PUSH2 0x19F8 JUMPI PUSH2 0x19F7 PUSH2 0x1692 JUMP JUMPDEST JUMPDEST PUSH1 0x0 PUSH2 0x1A06 DUP5 DUP3 DUP6 ADD PUSH2 0x1856 JUMP JUMPDEST SWAP2 POP POP SWAP3 SWAP2 POP POP JUMP JUMPDEST PUSH1 0x0 PUSH1 0x20 DUP3 DUP5 SUB SLT ISZERO PUSH2 0x1A25 JUMPI PUSH2 0x1A24 PUSH2 0x1692 JUMP JUMPDEST JUMPDEST PUSH1 0x0 PUSH2 0x1A33 DUP5 DUP3 DUP6 ADD PUSH2 0x188C JUMP JUMPDEST SWAP2 POP POP SWAP3 SWAP2 POP POP JUMP JUMPDEST PUSH1 0x0 PUSH1 0x40 DUP3 ADD SWAP1 POP PUSH2 0x1A51 PUSH1 0x0 DUP4 ADD DUP6 PUSH2 0x19B8 JUMP JUMPDEST PUSH2 0x1A5E PUSH1 0x20 DUP4 ADD DUP5 PUSH2 0x19B8 JUMP JUMPDEST SWAP4 SWAP3 POP POP POP JUMP JUMPDEST PUSH1 0x0 DUP1 PUSH1 0x40 DUP4 DUP6 SUB SLT ISZERO PUSH2 0x1A7C JUMPI PUSH2 0x1A7B PUSH2 0x1692 JUMP JUMPDEST JUMPDEST PUSH1 0x0 PUSH2 0x1A8A DUP6 DUP3 DUP7 ADD PUSH2 0x188C JUMP JUMPDEST SWAP3 POP POP PUSH1 0x20 PUSH2 0x1A9B DUP6 DUP3 DUP7 ADD PUSH2 0x188C JUMP JUMPDEST SWAP2 POP POP SWAP3 POP SWAP3 SWAP1 POP JUMP JUMPDEST PUSH1 0x0 DUP1 PUSH1 0x40 DUP4 DUP6 SUB SLT ISZERO PUSH2 0x1ABC JUMPI PUSH2 0x1ABB PUSH2 0x1692 JUMP JUMPDEST JUMPDEST PUSH1 0x0 PUSH2 0x1ACA DUP6 DUP3 DUP7 ADD PUSH2 0x1856 JUMP JUMPDEST SWAP3 POP POP PUSH1 0x20 PUSH2 0x1ADB DUP6 DUP3 DUP7 ADD PUSH2 0x188C JUMP JUMPDEST SWAP2 POP POP SWAP3 POP SWAP3 SWAP1 POP JUMP JUMPDEST PUSH32 0x4E487B7100000000000000000000000000000000000000000000000000000000 PUSH1 0x0 MSTORE PUSH1 0x11 PUSH1 0x4 MSTORE PUSH1 0x24 PUSH1 0x0 REVERT JUMPDEST PUSH1 0x0 PUSH2 0x1B1F DUP3 PUSH2 0x186B JUMP JUMPDEST SWAP2 POP PUSH2 0x1B2A DUP4 PUSH2 0x186B JUMP JUMPDEST SWAP3 POP DUP3 DUP3 SUB SWAP1 POP DUP2 DUP2 GT ISZERO PUSH2 0x1B42 JUMPI PUSH2 0x1B41 PUSH2 0x1AE5 JUMP JUMPDEST JUMPDEST SWAP3 SWAP2 POP POP JUMP JUMPDEST PUSH1 0x0 PUSH2 0x1B53 DUP3 PUSH2 0x186B JUMP JUMPDEST SWAP2 POP PUSH2 0x1B5E DUP4 PUSH2 0x186B JUMP JUMPDEST SWAP3 POP DUP3 DUP3 MUL PUSH2 0x1B6C DUP2 PUSH2 0x186B JUMP JUMPDEST SWAP2 POP DUP3 DUP3 DIV DUP5 EQ DUP4 ISZERO OR PUSH2 0x1B83 JUMPI PUSH2 0x1B82 PUSH2 0x1AE5 JUMP JUMPDEST JUMPDEST POP SWAP3 SWAP2 POP POP JUMP JUMPDEST PUSH32 0x4E487B7100000000000000000000000000000000000000000000000000000000 PUSH1 0x0 MSTORE PUSH1 0x12 PUSH1 0x4 MSTORE PUSH1 0x24 PUSH1 0x0 REVERT JUMPDEST PUSH1 0x0 PUSH2 0x1BC4 DUP3 PUSH2 0x186B JUMP JUMPDEST SWAP2 POP PUSH2 0x1BCF DUP4 PUSH2 0x186B JUMP JUMPDEST SWAP3 POP DUP3 PUSH2 0x1BDF JUMPI PUSH2 0x1BDE PUSH2 0x1B8A JUMP JUMPDEST JUMPDEST DUP3 DUP3 DIV SWAP1 POP SWAP3 SWAP2 POP POP JUMP JUMPDEST PUSH2 0x1BF3 DUP2 PUSH2 0x182D JUMP JUMPDEST DUP3 MSTORE POP POP JUMP JUMPDEST PUSH1 0x0 PUSH1 0x60 DUP3 ADD SWAP1 POP PUSH2 0x1C0E PUSH1 0x0 DUP4 ADD DUP7 PUSH2 0x1BEA JUMP JUMPDEST PUSH2 0x1C1B PUSH1 0x20 DUP4 ADD DUP6 PUSH2 0x1BEA JUMP JUMPDEST PUSH2 0x1C28 PUSH1 0x40 DUP4 ADD DUP5 PUSH2 0x19B8 JUMP JUMPDEST SWAP5 SWAP4 POP POP POP POP JUMP JUMPDEST PUSH1 0x0 DUP1 REVERT JUMPDEST PUSH1 0x0 PUSH1 0x1F NOT PUSH1 0x1F DUP4 ADD AND SWAP1 POP SWAP2 SWAP1 POP JUMP JUMPDEST PUSH32 0x4E487B7100000000000000000000000000000000000000000000000000000000 PUSH1 0x0 MSTORE PUSH1 0x41 PUSH1 0x4 MSTORE PUSH1 0x24 PUSH1 0x0 REVERT JUMPDEST PUSH2 0x1C7E DUP3 PUSH2 0x1C35 JUMP JUMPDEST DUP2 ADD DUP2 DUP2 LT PUSH8 0xFFFFFFFFFFFFFFFF DUP3 GT OR ISZERO PUSH2 0x1C9D JUMPI PUSH2 0x1C9C PUSH2 0x1C46 JUMP JUMPDEST JUMPDEST DUP1 PUSH1 0x40 MSTORE POP POP POP JUMP JUMPDEST PUSH1 0x0 PUSH2 0x1CB0 PUSH2 0x1688 JUMP JUMPDEST SWAP1 POP PUSH2 0x1CBC DUP3 DUP3 PUSH2 0x1C75 JUMP JUMPDEST SWAP2 SWAP1 POP JUMP JUMPDEST PUSH1 0x0 DUP2 MLOAD SWAP1 POP PUSH2 0x1CD0 DUP2 PUSH2 0x1875 JUMP JUMPDEST SWAP3 SWAP2 POP POP JUMP JUMPDEST PUSH1 0x0 DUP2 MLOAD SWAP1 POP PUSH2 0x1CE5 DUP2 PUSH2 0x183F JUMP JUMPDEST SWAP3 SWAP2 POP POP JUMP JUMPDEST PUSH1 0x0 PUSH1 0xE0 DUP3 DUP5 SUB SLT ISZERO PUSH2 0x1D01 JUMPI PUSH2 0x1D00 PUSH2 0x1C30 JUMP JUMPDEST JUMPDEST PUSH2 0x1D0B PUSH1 0xE0 PUSH2 0x1CA6 JUMP JUMPDEST SWAP1 POP PUSH1 0x0 PUSH2 0x1D1B DUP5 DUP3 DUP6 ADD PUSH2 0x1CC1 JUMP JUMPDEST PUSH1 0x0 DUP4 ADD MSTORE POP PUSH1 0x20 PUSH2 0x1D2F DUP5 DUP3 DUP6 ADD PUSH2 0x1CD6 JUMP JUMPDEST PUSH1 0x20 DUP4 ADD MSTORE POP PUSH1 0x40 PUSH2 0x1D43 DUP5 DUP3 DUP6 ADD PUSH2 0x1CD6 JUMP JUMPDEST PUSH1 0x40 DUP4 ADD MSTORE POP PUSH1 0x60 PUSH2 0x1D57 DUP5 DUP3 DUP6 ADD PUSH2 0x1CD6 JUMP JUMPDEST PUSH1 0x60 DUP4 ADD MSTORE POP PUSH1 0x80 PUSH2 0x1D6B DUP5 DUP3 DUP6 ADD PUSH2 0x1CC1 JUMP JUMPDEST PUSH1 0x80 DUP4 ADD MSTORE POP PUSH1 0xA0 PUSH2 0x1D7F DUP5 DUP3 DUP6 ADD PUSH2 0x1CC1 JUMP JUMPDEST PUSH1 0xA0 DUP4 ADD MSTORE POP PUSH1 0xC0 PUSH2 0x1D93 DUP5 DUP3 DUP6 ADD PUSH2 0x1CC1 JUMP JUMPDEST PUSH1 0xC0 DUP4 ADD MSTORE POP SWAP3 SWAP2 POP POP JUMP JUMPDEST PUSH1 0x0 PUSH1 0xE0 DUP3 DUP5 SUB SLT ISZERO PUSH2 0x1DB5 JUMPI PUSH2 0x1DB4 PUSH2 0x1692 JUMP JUMPDEST JUMPDEST PUSH1 0x0 PUSH2 0x1DC3 DUP5 DUP3 DUP6 ADD PUSH2 0x1CEB JUMP JUMPDEST SWAP2 POP POP SWAP3 SWAP2 POP POP JUMP JUMPDEST PUSH1 0x0 PUSH1 0x20 DUP3 ADD SWAP1 POP PUSH2 0x1DE1 PUSH1 0x0 DUP4 ADD DUP5 PUSH2 0x1BEA JUMP JUMPDEST SWAP3 SWAP2 POP POP JUMP JUMPDEST PUSH1 0x0 PUSH1 0x20 DUP3 DUP5 SUB SLT ISZERO PUSH2 0x1DFD JUMPI PUSH2 0x1DFC PUSH2 0x1692 JUMP JUMPDEST JUMPDEST PUSH1 0x0 PUSH2 0x1E0B DUP5 DUP3 DUP6 ADD PUSH2 0x1CC1 JUMP JUMPDEST SWAP2 POP POP SWAP3 SWAP2 POP POP JUMP JUMPDEST PUSH1 0x0 DUP3 DUP3 MSTORE PUSH1 0x20 DUP3 ADD SWAP1 POP SWAP3 SWAP2 POP POP JUMP JUMPDEST PUSH32 0x616D6F756E7430206F7220616D6F756E7431203D203000000000000000000000 PUSH1 0x0 DUP3 ADD MSTORE POP JUMP JUMPDEST PUSH1 0x0 PUSH2 0x1E5B PUSH1 0x16 DUP4 PUSH2 0x1E14 JUMP JUMPDEST SWAP2 POP PUSH2 0x1E66 DUP3 PUSH2 0x1E25 JUMP JUMPDEST PUSH1 0x20 DUP3 ADD SWAP1 POP SWAP2 SWAP1 POP JUMP JUMPDEST PUSH1 0x0 PUSH1 0x20 DUP3 ADD SWAP1 POP DUP2 DUP2 SUB PUSH1 0x0 DUP4 ADD MSTORE PUSH2 0x1E8A DUP2 PUSH2 0x1E4E JUMP JUMPDEST SWAP1 POP SWAP2 SWAP1 POP JUMP JUMPDEST PUSH1 0x0 PUSH1 0x40 DUP3 ADD SWAP1 POP PUSH2 0x1EA6 PUSH1 0x0 DUP4 ADD DUP6 PUSH2 0x19B8 JUMP JUMPDEST PUSH2 0x1EB3 PUSH1 0x20 DUP4 ADD DUP5 PUSH2 0x1BEA JUMP JUMPDEST SWAP4 SWAP3 POP POP POP JUMP JUMPDEST PUSH1 0x0 PUSH1 0x40 DUP3 ADD SWAP1 POP PUSH2 0x1ECF PUSH1 0x0 DUP4 ADD DUP6 PUSH2 0x1BEA JUMP JUMPDEST PUSH2 0x1EDC PUSH1 0x20 DUP4 ADD DUP5 PUSH2 0x19B8 JUMP JUMPDEST SWAP4 SWAP3 POP POP POP JUMP JUMPDEST PUSH2 0x1EEC DUP2 PUSH2 0x1721 JUMP JUMPDEST DUP2 EQ PUSH2 0x1EF7 JUMPI PUSH1 0x0 DUP1 REVERT JUMPDEST POP JUMP JUMPDEST PUSH1 0x0 DUP2 MLOAD SWAP1 POP PUSH2 0x1F09 DUP2 PUSH2 0x1EE3 JUMP JUMPDEST SWAP3 SWAP2 POP POP JUMP JUMPDEST PUSH1 0x0 PUSH1 0x20 DUP3 DUP5 SUB SLT ISZERO PUSH2 0x1F25 JUMPI PUSH2 0x1F24 PUSH2 0x1692 JUMP JUMPDEST JUMPDEST PUSH1 0x0 PUSH2 0x1F33 DUP5 DUP3 DUP6 ADD PUSH2 0x1EFA JUMP JUMPDEST SWAP2 POP POP SWAP3 SWAP2 POP POP JUMP JUMPDEST PUSH32 0x6479202F20647820213D2079202F207800000000000000000000000000000000 PUSH1 0x0 DUP3 ADD MSTORE POP JUMP JUMPDEST PUSH1 0x0 PUSH2 0x1F72 PUSH1 0x10 DUP4 PUSH2 0x1E14 JUMP JUMPDEST SWAP2 POP PUSH2 0x1F7D DUP3 PUSH2 0x1F3C JUMP JUMPDEST PUSH1 0x20 DUP3 ADD SWAP1 POP SWAP2 SWAP1 POP JUMP JUMPDEST PUSH1 0x0 PUSH1 0x20 DUP3 ADD SWAP1 POP DUP2 DUP2 SUB PUSH1 0x0 DUP4 ADD MSTORE PUSH2 0x1FA1 DUP2 PUSH2 0x1F65 JUMP JUMPDEST SWAP1 POP SWAP2 SWAP1 POP JUMP JUMPDEST PUSH32 0x736861726573203D203000000000000000000000000000000000000000000000 PUSH1 0x0 DUP3 ADD MSTORE POP JUMP JUMPDEST PUSH1 0x0 PUSH2 0x1FDE PUSH1 0xA DUP4 PUSH2 0x1E14 JUMP JUMPDEST SWAP2 POP PUSH2 0x1FE9 DUP3 PUSH2 0x1FA8 JUMP JUMPDEST PUSH1 0x20 DUP3 ADD SWAP1 POP SWAP2 SWAP1 POP JUMP JUMPDEST PUSH1 0x0 PUSH1 0x20 DUP3 ADD SWAP1 POP DUP2 DUP2 SUB PUSH1 0x0 DUP4 ADD MSTORE PUSH2 0x200D DUP2 PUSH2 0x1FD1 JUMP JUMPDEST SWAP1 POP SWAP2 SWAP1 POP JUMP JUMPDEST PUSH1 0x0 PUSH1 0xE0 DUP3 ADD SWAP1 POP PUSH2 0x2029 PUSH1 0x0 DUP4 ADD DUP11 PUSH2 0x19B8 JUMP JUMPDEST PUSH2 0x2036 PUSH1 0x20 DUP4 ADD DUP10 PUSH2 0x1BEA JUMP JUMPDEST PUSH2 0x2043 PUSH1 0x40 DUP4 ADD DUP9 PUSH2 0x1BEA JUMP JUMPDEST PUSH2 0x2050 PUSH1 0x60 DUP4 ADD DUP8 PUSH2 0x1BEA JUMP JUMPDEST PUSH2 0x205D PUSH1 0x80 DUP4 ADD DUP7 PUSH2 0x19B8 JUMP JUMPDEST PUSH2 0x206A PUSH1 0xA0 DUP4 ADD DUP6 PUSH2 0x19B8 JUMP JUMPDEST PUSH2 0x2077 PUSH1 0xC0 DUP4 ADD DUP5 PUSH2 0x19B8 JUMP JUMPDEST SWAP9 SWAP8 POP POP POP POP POP POP POP POP JUMP JUMPDEST PUSH2 0x208C DUP2 PUSH2 0x186B JUMP JUMPDEST DUP3 MSTORE POP POP JUMP JUMPDEST PUSH2 0x209B DUP2 PUSH2 0x182D JUMP JUMPDEST DUP3 MSTORE POP POP JUMP JUMPDEST PUSH1 0xE0 DUP3 ADD PUSH1 0x0 DUP3 ADD MLOAD PUSH2 0x20B7 PUSH1 0x0 DUP6 ADD DUP3 PUSH2 0x2083 JUMP JUMPDEST POP PUSH1 0x20 DUP3 ADD MLOAD PUSH2 0x20CA PUSH1 0x20 DUP6 ADD DUP3 PUSH2 0x2092 JUMP JUMPDEST POP PUSH1 0x40 DUP3 ADD MLOAD PUSH2 0x20DD PUSH1 0x40 DUP6 ADD DUP3 PUSH2 0x2092 JUMP JUMPDEST POP PUSH1 0x60 DUP3 ADD MLOAD PUSH2 0x20F0 PUSH1 0x60 DUP6 ADD DUP3 PUSH2 0x2092 JUMP JUMPDEST POP PUSH1 0x80 DUP3 ADD MLOAD PUSH2 0x2103 PUSH1 0x80 DUP6 ADD DUP3 PUSH2 0x2083 JUMP JUMPDEST POP PUSH1 0xA0 DUP3 ADD MLOAD PUSH2 0x2116 PUSH1 0xA0 DUP6 ADD DUP3 PUSH2 0x2083 JUMP JUMPDEST POP PUSH1 0xC0 DUP3 ADD MLOAD PUSH2 0x2129 PUSH1 0xC0 DUP6 ADD DUP3 PUSH2 0x2083 JUMP JUMPDEST POP POP POP POP JUMP JUMPDEST PUSH1 0x0 PUSH2 0x100 DUP3 ADD SWAP1 POP PUSH2 0x2145 PUSH1 0x0 DUP4 ADD DUP6 PUSH2 0x1BEA JUMP JUMPDEST PUSH2 0x2152 PUSH1 0x20 DUP4 ADD DUP5 PUSH2 0x20A1 JUMP JUMPDEST SWAP4 SWAP3 POP POP POP JUMP JUMPDEST PUSH32 0x496E76616C69646520546F6B656E000000000000000000000000000000000000 PUSH1 0x0 DUP3 ADD MSTORE POP JUMP JUMPDEST PUSH1 0x0 PUSH2 0x218F PUSH1 0xE DUP4 PUSH2 0x1E14 JUMP JUMPDEST SWAP2 POP PUSH2 0x219A DUP3 PUSH2 0x2159 JUMP JUMPDEST PUSH1 0x20 DUP3 ADD SWAP1 POP SWAP2 SWAP1 POP JUMP JUMPDEST PUSH1 0x0 PUSH1 0x20 DUP3 ADD SWAP1 POP DUP2 DUP2 SUB PUSH1 0x0 DUP4 ADD MSTORE PUSH2 0x21BE DUP2 PUSH2 0x2182 JUMP JUMPDEST SWAP1 POP SWAP2 SWAP1 POP JUMP JUMPDEST PUSH32 0x616D6F756E7420696E203D203000000000000000000000000000000000000000 PUSH1 0x0 DUP3 ADD MSTORE POP JUMP JUMPDEST PUSH1 0x0 PUSH2 0x21FB PUSH1 0xD DUP4 PUSH2 0x1E14 JUMP JUMPDEST SWAP2 POP PUSH2 0x2206 DUP3 PUSH2 0x21C5 JUMP JUMPDEST PUSH1 0x20 DUP3 ADD SWAP1 POP SWAP2 SWAP1 POP JUMP JUMPDEST PUSH1 0x0 PUSH1 0x20 DUP3 ADD SWAP1 POP DUP2 DUP2 SUB PUSH1 0x0 DUP4 ADD MSTORE PUSH2 0x222A DUP2 PUSH2 0x21EE JUMP JUMPDEST SWAP1 POP SWAP2 SWAP1 POP JUMP JUMPDEST PUSH1 0x0 PUSH2 0x223C DUP3 PUSH2 0x186B JUMP JUMPDEST SWAP2 POP PUSH2 0x2247 DUP4 PUSH2 0x186B JUMP JUMPDEST SWAP3 POP DUP3 DUP3 ADD SWAP1 POP DUP1 DUP3 GT ISZERO PUSH2 0x225F JUMPI PUSH2 0x225E PUSH2 0x1AE5 JUMP JUMPDEST JUMPDEST SWAP3 SWAP2 POP POP JUMP INVALID LOG2 PUSH5 0x6970667358 0x22 SLT KECCAK256 CALL DIV 0xC4 0xB4 BYTE 0x28 0xDD 0xAA SWAP15 0xE4 CALLDATACOPY 0x5C SWAP16 0xE2 0xE 0x2C 0xE1 CREATE 0xB1 CODESIZE PUSH18 0x87E7F6F221DB82EF0A4A6D64736F6C634300 ADDMOD SLT STOP CALLER "
				},
				"gasEstimates": {
					"creation": {
						"codeDepositCost": "1771800",
						"executionCost": "infinite",
						"totalCost": "infinite"
					},
					"external": {
						"NFTPositionManager()": "infinite",
						"_quote(uint256)": "infinite",
						"addLiquidity(uint256,uint256)": "infinite",
						"balanceOf(address)": "2903",
						"fee()": "2517",
						"onERC721Received(address,address,uint256,bytes)": "infinite",
						"removeLiquidity(uint256)": "infinite",
						"reserve0()": "2474",
						"reserve1()": "2496",
						"supportsInterface(bytes4)": "708",
						"swap(address,uint256)": "infinite",
						"token0()": "infinite",
						"token1()": "infinite",
						"totalFee0()": "2496",
						"totalFee1()": "2474",
						"totalSupply()": "2452"
					},
					"internal": {
						"_burn(address,uint256)": "infinite",
						"_min(uint256,uint256)": "67",
						"_mint(address,uint256)": "infinite",
						"_sqrt(uint256)": "infinite",
						"_update(uint256,uint256)": "44241"
					}
				},
				"methodIdentifiers": {
					"NFTPositionManager()": "09feb954",
					"_quote(uint256)": "733baa6b",
					"addLiquidity(uint256,uint256)": "9cd441da",
					"balanceOf(address)": "70a08231",
					"fee()": "ddca3f43",
					"onERC721Received(address,address,uint256,bytes)": "150b7a02",
					"removeLiquidity(uint256)": "9c8f9f23",
					"reserve0()": "443cb4bc",
					"reserve1()": "5a76f25e",
					"supportsInterface(bytes4)": "01ffc9a7",
					"swap(address,uint256)": "d004f0f7",
					"token0()": "0dfe1681",
					"token1()": "d21220a7",
					"totalFee0()": "90256e54",
					"totalFee1()": "78f0c735",
					"totalSupply()": "18160ddd"
				}
			},
			"storageLayout": {
				"storage": [
					{
						"astId": 239,
						"contract": "TVNProject/TVNLmPool/TVNLmPool.sol:TVNLmPool",
						"label": "NFTPositionManager",
						"offset": 0,
						"slot": "0",
						"type": "t_contract(IPositionManager)989"
					},
					{
						"astId": 241,
						"contract": "TVNProject/TVNLmPool/TVNLmPool.sol:TVNLmPool",
						"label": "reserve0",
						"offset": 0,
						"slot": "1",
						"type": "t_uint256"
					},
					{
						"astId": 243,
						"contract": "TVNProject/TVNLmPool/TVNLmPool.sol:TVNLmPool",
						"label": "reserve1",
						"offset": 0,
						"slot": "2",
						"type": "t_uint256"
					},
					{
						"astId": 245,
						"contract": "TVNProject/TVNLmPool/TVNLmPool.sol:TVNLmPool",
						"label": "fee",
						"offset": 0,
						"slot": "3",
						"type": "t_uint256"
					},
					{
						"astId": 247,
						"contract": "TVNProject/TVNLmPool/TVNLmPool.sol:TVNLmPool",
						"label": "totalFee0",
						"offset": 0,
						"slot": "4",
						"type": "t_uint256"
					},
					{
						"astId": 249,
						"contract": "TVNProject/TVNLmPool/TVNLmPool.sol:TVNLmPool",
						"label": "totalFee1",
						"offset": 0,
						"slot": "5",
						"type": "t_uint256"
					},
					{
						"astId": 251,
						"contract": "TVNProject/TVNLmPool/TVNLmPool.sol:TVNLmPool",
						"label": "totalSupply",
						"offset": 0,
						"slot": "6",
						"type": "t_uint256"
					},
					{
						"astId": 255,
						"contract": "TVNProject/TVNLmPool/TVNLmPool.sol:TVNLmPool",
						"label": "balanceOf",
						"offset": 0,
						"slot": "7",
						"type": "t_mapping(t_address,t_uint256)"
					}
				],
				"types": {
					"t_address": {
						"encoding": "inplace",
						"label": "address",
						"numberOfBytes": "20"
					},
					"t_contract(IPositionManager)989": {
						"encoding": "inplace",
						"label": "contract IPositionManager",
						"numberOfBytes": "20"
					},
					"t_mapping(t_address,t_uint256)": {
						"encoding": "mapping",
						"key": "t_address",
						"label": "mapping(address => uint256)",
						"numberOfBytes": "32",
						"value": "t_uint256"
					},
					"t_uint256": {
						"encoding": "inplace",
						"label": "uint256",
						"numberOfBytes": "32"
					}
				}
			},
			"userdoc": {
				"kind": "user",
				"methods": {},
				"version": 1
			}
		}
	}
}