{
	"TVNProject/TVNNFTPositioManager/TVNNFTPositionManager.sol": {
		"TVNNFTPositionManager": {
			"abi": [
				{
					"inputs": [
						{
							"internalType": "string",
							"name": "_name",
							"type": "string"
						},
						{
							"internalType": "string",
							"name": "_symbol",
							"type": "string"
						}
					],
					"stateMutability": "nonpayable",
					"type": "constructor"
				},
				{
					"anonymous": false,
					"inputs": [
						{
							"indexed": true,
							"internalType": "address",
							"name": "owner",
							"type": "address"
						},
						{
							"indexed": true,
							"internalType": "address",
							"name": "spender",
							"type": "address"
						},
						{
							"indexed": true,
							"internalType": "uint256",
							"name": "id",
							"type": "uint256"
						}
					],
					"name": "Approval",
					"type": "event"
				},
				{
					"anonymous": false,
					"inputs": [
						{
							"indexed": true,
							"internalType": "address",
							"name": "owner",
							"type": "address"
						},
						{
							"indexed": true,
							"internalType": "address",
							"name": "operator",
							"type": "address"
						},
						{
							"indexed": false,
							"internalType": "bool",
							"name": "approved",
							"type": "bool"
						}
					],
					"name": "ApprovalForAll",
					"type": "event"
				},
				{
					"anonymous": false,
					"inputs": [
						{
							"indexed": true,
							"internalType": "address",
							"name": "from",
							"type": "address"
						},
						{
							"indexed": true,
							"internalType": "address",
							"name": "to",
							"type": "address"
						},
						{
							"indexed": true,
							"internalType": "uint256",
							"name": "id",
							"type": "uint256"
						}
					],
					"name": "Transfer",
					"type": "event"
				},
				{
					"inputs": [
						{
							"internalType": "address",
							"name": "to",
							"type": "address"
						},
						{
							"internalType": "uint256",
							"name": "tokenId",
							"type": "uint256"
						}
					],
					"name": "approve",
					"outputs": [],
					"stateMutability": "nonpayable",
					"type": "function"
				},
				{
					"inputs": [
						{
							"internalType": "address",
							"name": "owner",
							"type": "address"
						}
					],
					"name": "balanceOf",
					"outputs": [
						{
							"internalType": "uint256",
							"name": "balance",
							"type": "uint256"
						}
					],
					"stateMutability": "view",
					"type": "function"
				},
				{
					"inputs": [
						{
							"internalType": "uint256",
							"name": "_tokenId",
							"type": "uint256"
						},
						{
							"internalType": "address",
							"name": "_from",
							"type": "address"
						}
					],
					"name": "burnPosition",
					"outputs": [],
					"stateMutability": "nonpayable",
					"type": "function"
				},
				{
					"inputs": [
						{
							"internalType": "uint256",
							"name": "tokenId",
							"type": "uint256"
						}
					],
					"name": "getApproved",
					"outputs": [
						{
							"internalType": "address",
							"name": "operator",
							"type": "address"
						}
					],
					"stateMutability": "view",
					"type": "function"
				},
				{
					"inputs": [
						{
							"internalType": "address",
							"name": "_owner",
							"type": "address"
						}
					],
					"name": "getOwnerNFT",
					"outputs": [
						{
							"internalType": "uint256[]",
							"name": "",
							"type": "uint256[]"
						}
					],
					"stateMutability": "view",
					"type": "function"
				},
				{
					"inputs": [
						{
							"internalType": "address",
							"name": "",
							"type": "address"
						},
						{
							"internalType": "uint256",
							"name": "",
							"type": "uint256"
						}
					],
					"name": "indexOfOwnerNFT",
					"outputs": [
						{
							"internalType": "uint256",
							"name": "",
							"type": "uint256"
						}
					],
					"stateMutability": "view",
					"type": "function"
				},
				{
					"inputs": [
						{
							"internalType": "address",
							"name": "",
							"type": "address"
						},
						{
							"internalType": "address",
							"name": "",
							"type": "address"
						}
					],
					"name": "isApprovalForAll",
					"outputs": [
						{
							"internalType": "bool",
							"name": "",
							"type": "bool"
						}
					],
					"stateMutability": "view",
					"type": "function"
				},
				{
					"inputs": [
						{
							"internalType": "address",
							"name": "_to",
							"type": "address"
						},
						{
							"components": [
								{
									"internalType": "uint256",
									"name": "shares",
									"type": "uint256"
								},
								{
									"internalType": "address",
									"name": "owner",
									"type": "address"
								},
								{
									"internalType": "address",
									"name": "token0",
									"type": "address"
								},
								{
									"internalType": "address",
									"name": "token1",
									"type": "address"
								},
								{
									"internalType": "uint256",
									"name": "fee",
									"type": "uint256"
								}
							],
							"internalType": "struct TVNNFTPositionManager.PositionInfo",
							"name": "params",
							"type": "tuple"
						}
					],
					"name": "mintPosition",
					"outputs": [],
					"stateMutability": "nonpayable",
					"type": "function"
				},
				{
					"inputs": [
						{
							"internalType": "address",
							"name": "",
							"type": "address"
						},
						{
							"internalType": "uint256",
							"name": "",
							"type": "uint256"
						}
					],
					"name": "ownerNFT",
					"outputs": [
						{
							"internalType": "uint256",
							"name": "",
							"type": "uint256"
						}
					],
					"stateMutability": "view",
					"type": "function"
				},
				{
					"inputs": [
						{
							"internalType": "uint256",
							"name": "tokenId",
							"type": "uint256"
						}
					],
					"name": "ownerOf",
					"outputs": [
						{
							"internalType": "address",
							"name": "owner",
							"type": "address"
						}
					],
					"stateMutability": "view",
					"type": "function"
				},
				{
					"inputs": [
						{
							"internalType": "uint256",
							"name": "",
							"type": "uint256"
						}
					],
					"name": "positions",
					"outputs": [
						{
							"internalType": "uint256",
							"name": "shares",
							"type": "uint256"
						},
						{
							"internalType": "address",
							"name": "owner",
							"type": "address"
						},
						{
							"internalType": "address",
							"name": "token0",
							"type": "address"
						},
						{
							"internalType": "address",
							"name": "token1",
							"type": "address"
						},
						{
							"internalType": "uint256",
							"name": "fee",
							"type": "uint256"
						}
					],
					"stateMutability": "view",
					"type": "function"
				},
				{
					"inputs": [
						{
							"internalType": "address",
							"name": "from",
							"type": "address"
						},
						{
							"internalType": "address",
							"name": "to",
							"type": "address"
						},
						{
							"internalType": "uint256",
							"name": "tokenId",
							"type": "uint256"
						}
					],
					"name": "safeTransferFrom",
					"outputs": [],
					"stateMutability": "nonpayable",
					"type": "function"
				},
				{
					"inputs": [
						{
							"internalType": "address",
							"name": "from",
							"type": "address"
						},
						{
							"internalType": "address",
							"name": "to",
							"type": "address"
						},
						{
							"internalType": "uint256",
							"name": "tokenId",
							"type": "uint256"
						},
						{
							"internalType": "bytes",
							"name": "data",
							"type": "bytes"
						}
					],
					"name": "safeTransferFrom",
					"outputs": [],
					"stateMutability": "nonpayable",
					"type": "function"
				},
				{
					"inputs": [
						{
							"internalType": "address",
							"name": "operator",
							"type": "address"
						},
						{
							"internalType": "bool",
							"name": "_approved",
							"type": "bool"
						}
					],
					"name": "setApprovalForAll",
					"outputs": [],
					"stateMutability": "nonpayable",
					"type": "function"
				},
				{
					"inputs": [
						{
							"internalType": "bytes4",
							"name": "interfaceID",
							"type": "bytes4"
						}
					],
					"name": "supportsInterface",
					"outputs": [
						{
							"internalType": "bool",
							"name": "",
							"type": "bool"
						}
					],
					"stateMutability": "pure",
					"type": "function"
				},
				{
					"inputs": [],
					"name": "tokenIdNext",
					"outputs": [
						{
							"internalType": "uint256",
							"name": "",
							"type": "uint256"
						}
					],
					"stateMutability": "view",
					"type": "function"
				},
				{
					"inputs": [
						{
							"internalType": "address",
							"name": "from",
							"type": "address"
						},
						{
							"internalType": "address",
							"name": "to",
							"type": "address"
						},
						{
							"internalType": "uint256",
							"name": "tokenId",
							"type": "uint256"
						}
					],
					"name": "transferFrom",
					"outputs": [],
					"stateMutability": "nonpayable",
					"type": "function"
				},
				{
					"inputs": [
						{
							"internalType": "address",
							"name": "_from",
							"type": "address"
						},
						{
							"internalType": "address",
							"name": "_to",
							"type": "address"
						},
						{
							"internalType": "uint256",
							"name": "_tokenId",
							"type": "uint256"
						}
					],
					"name": "transferPosition",
					"outputs": [],
					"stateMutability": "nonpayable",
					"type": "function"
				}
			],
			"devdoc": {
				"kind": "dev",
				"methods": {},
				"version": 1
			},
			"evm": {
				"assembly": "    /* \"TVNProject/TVNNFTPositioManager/TVNNFTPositionManager.sol\":107:2520  contract TVNNFTPositionManager is ERC721 {... */\n  mstore(0x40, 0x80)\n    /* \"TVNProject/TVNNFTPositioManager/TVNNFTPositionManager.sol\":235:236  1 */\n  0x01\n    /* \"TVNProject/TVNNFTPositioManager/TVNNFTPositionManager.sol\":206:236  uint256 public tokenIdNext = 1 */\n  0x06\n  sstore\n    /* \"TVNProject/TVNNFTPositioManager/TVNNFTPositionManager.sol\":576:687  constructor(string memory _name, string memory _symbol) {... */\n  callvalue\n  dup1\n  iszero\n  tag_1\n  jumpi\n  0x00\n  dup1\n  revert\ntag_1:\n  pop\n  mload(0x40)\n  sub(codesize, bytecodeSize)\n  dup1\n  bytecodeSize\n  dup4\n  codecopy\n  dup2\n  dup2\n  add\n  0x40\n  mstore\n  dup2\n  add\n  swap1\n  tag_2\n  swap2\n  swap1\n  tag_3\n  jump\t// in\ntag_2:\n    /* \"TVNProject/TVNNFTPositioManager/TVNNFTPositionManager.sol\":649:654  _name */\n  dup2\n    /* \"TVNProject/TVNNFTPositioManager/TVNNFTPositionManager.sol\":642:646  name */\n  0x04\n    /* \"TVNProject/TVNNFTPositioManager/TVNNFTPositionManager.sol\":642:654  name = _name */\n  swap1\n  dup2\n  tag_6\n  swap2\n  swap1\n  tag_7\n  jump\t// in\ntag_6:\n  pop\n    /* \"TVNProject/TVNNFTPositioManager/TVNNFTPositionManager.sol\":673:680  _symbol */\n  dup1\n    /* \"TVNProject/TVNNFTPositioManager/TVNNFTPositionManager.sol\":664:670  symbol */\n  0x05\n    /* \"TVNProject/TVNNFTPositioManager/TVNNFTPositionManager.sol\":664:680  symbol = _symbol */\n  swap1\n  dup2\n  tag_8\n  swap2\n  swap1\n  tag_7\n  jump\t// in\ntag_8:\n  pop\n    /* \"TVNProject/TVNNFTPositioManager/TVNNFTPositionManager.sol\":576:687  constructor(string memory _name, string memory _symbol) {... */\n  pop\n  pop\n    /* \"TVNProject/TVNNFTPositioManager/TVNNFTPositionManager.sol\":107:2520  contract TVNNFTPositionManager is ERC721 {... */\n  jump(tag_9)\n    /* \"#utility.yul\":7:82   */\ntag_10:\n    /* \"#utility.yul\":40:46   */\n  0x00\n    /* \"#utility.yul\":73:75   */\n  0x40\n    /* \"#utility.yul\":67:76   */\n  mload\n    /* \"#utility.yul\":57:76   */\n  swap1\n  pop\n    /* \"#utility.yul\":7:82   */\n  swap1\n  jump\t// out\n    /* \"#utility.yul\":88:205   */\ntag_11:\n    /* \"#utility.yul\":197:198   */\n  0x00\n    /* \"#utility.yul\":194:195   */\n  dup1\n    /* \"#utility.yul\":187:199   */\n  revert\n    /* \"#utility.yul\":211:328   */\ntag_12:\n    /* \"#utility.yul\":320:321   */\n  0x00\n    /* \"#utility.yul\":317:318   */\n  dup1\n    /* \"#utility.yul\":310:322   */\n  revert\n    /* \"#utility.yul\":334:451   */\ntag_13:\n    /* \"#utility.yul\":443:444   */\n  0x00\n    /* \"#utility.yul\":440:441   */\n  dup1\n    /* \"#utility.yul\":433:445   */\n  revert\n    /* \"#utility.yul\":457:574   */\ntag_14:\n    /* \"#utility.yul\":566:567   */\n  0x00\n    /* \"#utility.yul\":563:564   */\n  dup1\n    /* \"#utility.yul\":556:568   */\n  revert\n    /* \"#utility.yul\":580:682   */\ntag_15:\n    /* \"#utility.yul\":621:627   */\n  0x00\n    /* \"#utility.yul\":672:674   */\n  0x1f\n    /* \"#utility.yul\":668:675   */\n  not\n    /* \"#utility.yul\":663:665   */\n  0x1f\n    /* \"#utility.yul\":656:661   */\n  dup4\n    /* \"#utility.yul\":652:666   */\n  add\n    /* \"#utility.yul\":648:676   */\n  and\n    /* \"#utility.yul\":638:676   */\n  swap1\n  pop\n    /* \"#utility.yul\":580:682   */\n  swap2\n  swap1\n  pop\n  jump\t// out\n    /* \"#utility.yul\":688:868   */\ntag_16:\n    /* \"#utility.yul\":736:813   */\n  0x4e487b7100000000000000000000000000000000000000000000000000000000\n    /* \"#utility.yul\":733:734   */\n  0x00\n    /* \"#utility.yul\":726:814   */\n  mstore\n    /* \"#utility.yul\":833:837   */\n  0x41\n    /* \"#utility.yul\":830:831   */\n  0x04\n    /* \"#utility.yul\":823:838   */\n  mstore\n    /* \"#utility.yul\":857:861   */\n  0x24\n    /* \"#utility.yul\":854:855   */\n  0x00\n    /* \"#utility.yul\":847:862   */\n  revert\n    /* \"#utility.yul\":874:1155   */\ntag_17:\n    /* \"#utility.yul\":957:984   */\n  tag_51\n    /* \"#utility.yul\":979:983   */\n  dup3\n    /* \"#utility.yul\":957:984   */\n  tag_15\n  jump\t// in\ntag_51:\n    /* \"#utility.yul\":949:955   */\n  dup2\n    /* \"#utility.yul\":945:985   */\n  add\n    /* \"#utility.yul\":1087:1093   */\n  dup2\n    /* \"#utility.yul\":1075:1085   */\n  dup2\n    /* \"#utility.yul\":1072:1094   */\n  lt\n    /* \"#utility.yul\":1051:1069   */\n  0xffffffffffffffff\n    /* \"#utility.yul\":1039:1049   */\n  dup3\n    /* \"#utility.yul\":1036:1070   */\n  gt\n    /* \"#utility.yul\":1033:1095   */\n  or\n    /* \"#utility.yul\":1030:1118   */\n  iszero\n  tag_52\n  jumpi\n    /* \"#utility.yul\":1098:1116   */\n  tag_53\n  tag_16\n  jump\t// in\ntag_53:\n    /* \"#utility.yul\":1030:1118   */\ntag_52:\n    /* \"#utility.yul\":1138:1148   */\n  dup1\n    /* \"#utility.yul\":1134:1136   */\n  0x40\n    /* \"#utility.yul\":1127:1149   */\n  mstore\n    /* \"#utility.yul\":917:1155   */\n  pop\n    /* \"#utility.yul\":874:1155   */\n  pop\n  pop\n  jump\t// out\n    /* \"#utility.yul\":1161:1290   */\ntag_18:\n    /* \"#utility.yul\":1195:1201   */\n  0x00\n    /* \"#utility.yul\":1222:1242   */\n  tag_55\n  tag_10\n  jump\t// in\ntag_55:\n    /* \"#utility.yul\":1212:1242   */\n  swap1\n  pop\n    /* \"#utility.yul\":1251:1284   */\n  tag_56\n    /* \"#utility.yul\":1279:1283   */\n  dup3\n    /* \"#utility.yul\":1271:1277   */\n  dup3\n    /* \"#utility.yul\":1251:1284   */\n  tag_17\n  jump\t// in\ntag_56:\n    /* \"#utility.yul\":1161:1290   */\n  swap2\n  swap1\n  pop\n  jump\t// out\n    /* \"#utility.yul\":1296:1604   */\ntag_19:\n    /* \"#utility.yul\":1358:1362   */\n  0x00\n    /* \"#utility.yul\":1448:1466   */\n  0xffffffffffffffff\n    /* \"#utility.yul\":1440:1446   */\n  dup3\n    /* \"#utility.yul\":1437:1467   */\n  gt\n    /* \"#utility.yul\":1434:1490   */\n  iszero\n  tag_58\n  jumpi\n    /* \"#utility.yul\":1470:1488   */\n  tag_59\n  tag_16\n  jump\t// in\ntag_59:\n    /* \"#utility.yul\":1434:1490   */\ntag_58:\n    /* \"#utility.yul\":1508:1537   */\n  tag_60\n    /* \"#utility.yul\":1530:1536   */\n  dup3\n    /* \"#utility.yul\":1508:1537   */\n  tag_15\n  jump\t// in\ntag_60:\n    /* \"#utility.yul\":1500:1537   */\n  swap1\n  pop\n    /* \"#utility.yul\":1592:1596   */\n  0x20\n    /* \"#utility.yul\":1586:1590   */\n  dup2\n    /* \"#utility.yul\":1582:1597   */\n  add\n    /* \"#utility.yul\":1574:1597   */\n  swap1\n  pop\n    /* \"#utility.yul\":1296:1604   */\n  swap2\n  swap1\n  pop\n  jump\t// out\n    /* \"#utility.yul\":1610:1856   */\ntag_20:\n    /* \"#utility.yul\":1691:1692   */\n  0x00\n    /* \"#utility.yul\":1701:1814   */\ntag_62:\n    /* \"#utility.yul\":1715:1721   */\n  dup4\n    /* \"#utility.yul\":1712:1713   */\n  dup2\n    /* \"#utility.yul\":1709:1722   */\n  lt\n    /* \"#utility.yul\":1701:1814   */\n  iszero\n  tag_64\n  jumpi\n    /* \"#utility.yul\":1800:1801   */\n  dup1\n    /* \"#utility.yul\":1795:1798   */\n  dup3\n    /* \"#utility.yul\":1791:1802   */\n  add\n    /* \"#utility.yul\":1785:1803   */\n  mload\n    /* \"#utility.yul\":1781:1782   */\n  dup2\n    /* \"#utility.yul\":1776:1779   */\n  dup5\n    /* \"#utility.yul\":1772:1783   */\n  add\n    /* \"#utility.yul\":1765:1804   */\n  mstore\n    /* \"#utility.yul\":1737:1739   */\n  0x20\n    /* \"#utility.yul\":1734:1735   */\n  dup2\n    /* \"#utility.yul\":1730:1740   */\n  add\n    /* \"#utility.yul\":1725:1740   */\n  swap1\n  pop\n    /* \"#utility.yul\":1701:1814   */\n  jump(tag_62)\ntag_64:\n    /* \"#utility.yul\":1848:1849   */\n  0x00\n    /* \"#utility.yul\":1839:1845   */\n  dup5\n    /* \"#utility.yul\":1834:1837   */\n  dup5\n    /* \"#utility.yul\":1830:1846   */\n  add\n    /* \"#utility.yul\":1823:1850   */\n  mstore\n    /* \"#utility.yul\":1672:1856   */\n  pop\n    /* \"#utility.yul\":1610:1856   */\n  pop\n  pop\n  pop\n  jump\t// out\n    /* \"#utility.yul\":1862:2296   */\ntag_21:\n    /* \"#utility.yul\":1951:1956   */\n  0x00\n    /* \"#utility.yul\":1976:2042   */\n  tag_66\n    /* \"#utility.yul\":1992:2041   */\n  tag_67\n    /* \"#utility.yul\":2034:2040   */\n  dup5\n    /* \"#utility.yul\":1992:2041   */\n  tag_19\n  jump\t// in\ntag_67:\n    /* \"#utility.yul\":1976:2042   */\n  tag_18\n  jump\t// in\ntag_66:\n    /* \"#utility.yul\":1967:2042   */\n  swap1\n  pop\n    /* \"#utility.yul\":2065:2071   */\n  dup3\n    /* \"#utility.yul\":2058:2063   */\n  dup2\n    /* \"#utility.yul\":2051:2072   */\n  mstore\n    /* \"#utility.yul\":2103:2107   */\n  0x20\n    /* \"#utility.yul\":2096:2101   */\n  dup2\n    /* \"#utility.yul\":2092:2108   */\n  add\n    /* \"#utility.yul\":2141:2144   */\n  dup5\n    /* \"#utility.yul\":2132:2138   */\n  dup5\n    /* \"#utility.yul\":2127:2130   */\n  dup5\n    /* \"#utility.yul\":2123:2139   */\n  add\n    /* \"#utility.yul\":2120:2145   */\n  gt\n    /* \"#utility.yul\":2117:2229   */\n  iszero\n  tag_68\n  jumpi\n    /* \"#utility.yul\":2148:2227   */\n  tag_69\n  tag_14\n  jump\t// in\ntag_69:\n    /* \"#utility.yul\":2117:2229   */\ntag_68:\n    /* \"#utility.yul\":2238:2290   */\n  tag_70\n    /* \"#utility.yul\":2283:2289   */\n  dup5\n    /* \"#utility.yul\":2278:2281   */\n  dup3\n    /* \"#utility.yul\":2273:2276   */\n  dup6\n    /* \"#utility.yul\":2238:2290   */\n  tag_20\n  jump\t// in\ntag_70:\n    /* \"#utility.yul\":1957:2296   */\n  pop\n    /* \"#utility.yul\":1862:2296   */\n  swap4\n  swap3\n  pop\n  pop\n  pop\n  jump\t// out\n    /* \"#utility.yul\":2316:2671   */\ntag_22:\n    /* \"#utility.yul\":2383:2388   */\n  0x00\n    /* \"#utility.yul\":2432:2435   */\n  dup3\n    /* \"#utility.yul\":2425:2429   */\n  0x1f\n    /* \"#utility.yul\":2417:2423   */\n  dup4\n    /* \"#utility.yul\":2413:2430   */\n  add\n    /* \"#utility.yul\":2409:2436   */\n  slt\n    /* \"#utility.yul\":2399:2521   */\n  tag_72\n  jumpi\n    /* \"#utility.yul\":2440:2519   */\n  tag_73\n  tag_13\n  jump\t// in\ntag_73:\n    /* \"#utility.yul\":2399:2521   */\ntag_72:\n    /* \"#utility.yul\":2550:2556   */\n  dup2\n    /* \"#utility.yul\":2544:2557   */\n  mload\n    /* \"#utility.yul\":2575:2665   */\n  tag_74\n    /* \"#utility.yul\":2661:2664   */\n  dup5\n    /* \"#utility.yul\":2653:2659   */\n  dup3\n    /* \"#utility.yul\":2646:2650   */\n  0x20\n    /* \"#utility.yul\":2638:2644   */\n  dup7\n    /* \"#utility.yul\":2634:2651   */\n  add\n    /* \"#utility.yul\":2575:2665   */\n  tag_21\n  jump\t// in\ntag_74:\n    /* \"#utility.yul\":2566:2665   */\n  swap2\n  pop\n    /* \"#utility.yul\":2389:2671   */\n  pop\n    /* \"#utility.yul\":2316:2671   */\n  swap3\n  swap2\n  pop\n  pop\n  jump\t// out\n    /* \"#utility.yul\":2677:3530   */\ntag_3:\n    /* \"#utility.yul\":2776:2782   */\n  0x00\n    /* \"#utility.yul\":2784:2790   */\n  dup1\n    /* \"#utility.yul\":2833:2835   */\n  0x40\n    /* \"#utility.yul\":2821:2830   */\n  dup4\n    /* \"#utility.yul\":2812:2819   */\n  dup6\n    /* \"#utility.yul\":2808:2831   */\n  sub\n    /* \"#utility.yul\":2804:2836   */\n  slt\n    /* \"#utility.yul\":2801:2920   */\n  iszero\n  tag_76\n  jumpi\n    /* \"#utility.yul\":2839:2918   */\n  tag_77\n  tag_11\n  jump\t// in\ntag_77:\n    /* \"#utility.yul\":2801:2920   */\ntag_76:\n    /* \"#utility.yul\":2980:2981   */\n  0x00\n    /* \"#utility.yul\":2969:2978   */\n  dup4\n    /* \"#utility.yul\":2965:2982   */\n  add\n    /* \"#utility.yul\":2959:2983   */\n  mload\n    /* \"#utility.yul\":3010:3028   */\n  0xffffffffffffffff\n    /* \"#utility.yul\":3002:3008   */\n  dup2\n    /* \"#utility.yul\":2999:3029   */\n  gt\n    /* \"#utility.yul\":2996:3113   */\n  iszero\n  tag_78\n  jumpi\n    /* \"#utility.yul\":3032:3111   */\n  tag_79\n  tag_12\n  jump\t// in\ntag_79:\n    /* \"#utility.yul\":2996:3113   */\ntag_78:\n    /* \"#utility.yul\":3137:3211   */\n  tag_80\n    /* \"#utility.yul\":3203:3210   */\n  dup6\n    /* \"#utility.yul\":3194:3200   */\n  dup3\n    /* \"#utility.yul\":3183:3192   */\n  dup7\n    /* \"#utility.yul\":3179:3201   */\n  add\n    /* \"#utility.yul\":3137:3211   */\n  tag_22\n  jump\t// in\ntag_80:\n    /* \"#utility.yul\":3127:3211   */\n  swap3\n  pop\n    /* \"#utility.yul\":2930:3221   */\n  pop\n    /* \"#utility.yul\":3281:3283   */\n  0x20\n    /* \"#utility.yul\":3270:3279   */\n  dup4\n    /* \"#utility.yul\":3266:3284   */\n  add\n    /* \"#utility.yul\":3260:3285   */\n  mload\n    /* \"#utility.yul\":3312:3330   */\n  0xffffffffffffffff\n    /* \"#utility.yul\":3304:3310   */\n  dup2\n    /* \"#utility.yul\":3301:3331   */\n  gt\n    /* \"#utility.yul\":3298:3415   */\n  iszero\n  tag_81\n  jumpi\n    /* \"#utility.yul\":3334:3413   */\n  tag_82\n  tag_12\n  jump\t// in\ntag_82:\n    /* \"#utility.yul\":3298:3415   */\ntag_81:\n    /* \"#utility.yul\":3439:3513   */\n  tag_83\n    /* \"#utility.yul\":3505:3512   */\n  dup6\n    /* \"#utility.yul\":3496:3502   */\n  dup3\n    /* \"#utility.yul\":3485:3494   */\n  dup7\n    /* \"#utility.yul\":3481:3503   */\n  add\n    /* \"#utility.yul\":3439:3513   */\n  tag_22\n  jump\t// in\ntag_83:\n    /* \"#utility.yul\":3429:3513   */\n  swap2\n  pop\n    /* \"#utility.yul\":3231:3523   */\n  pop\n    /* \"#utility.yul\":2677:3530   */\n  swap3\n  pop\n  swap3\n  swap1\n  pop\n  jump\t// out\n    /* \"#utility.yul\":3536:3635   */\ntag_23:\n    /* \"#utility.yul\":3588:3594   */\n  0x00\n    /* \"#utility.yul\":3622:3627   */\n  dup2\n    /* \"#utility.yul\":3616:3628   */\n  mload\n    /* \"#utility.yul\":3606:3628   */\n  swap1\n  pop\n    /* \"#utility.yul\":3536:3635   */\n  swap2\n  swap1\n  pop\n  jump\t// out\n    /* \"#utility.yul\":3641:3821   */\ntag_24:\n    /* \"#utility.yul\":3689:3766   */\n  0x4e487b7100000000000000000000000000000000000000000000000000000000\n    /* \"#utility.yul\":3686:3687   */\n  0x00\n    /* \"#utility.yul\":3679:3767   */\n  mstore\n    /* \"#utility.yul\":3786:3790   */\n  0x22\n    /* \"#utility.yul\":3783:3784   */\n  0x04\n    /* \"#utility.yul\":3776:3791   */\n  mstore\n    /* \"#utility.yul\":3810:3814   */\n  0x24\n    /* \"#utility.yul\":3807:3808   */\n  0x00\n    /* \"#utility.yul\":3800:3815   */\n  revert\n    /* \"#utility.yul\":3827:4147   */\ntag_25:\n    /* \"#utility.yul\":3871:3877   */\n  0x00\n    /* \"#utility.yul\":3908:3909   */\n  0x02\n    /* \"#utility.yul\":3902:3906   */\n  dup3\n    /* \"#utility.yul\":3898:3910   */\n  div\n    /* \"#utility.yul\":3888:3910   */\n  swap1\n  pop\n    /* \"#utility.yul\":3955:3956   */\n  0x01\n    /* \"#utility.yul\":3949:3953   */\n  dup3\n    /* \"#utility.yul\":3945:3957   */\n  and\n    /* \"#utility.yul\":3976:3994   */\n  dup1\n    /* \"#utility.yul\":3966:4047   */\n  tag_87\n  jumpi\n    /* \"#utility.yul\":4032:4036   */\n  0x7f\n    /* \"#utility.yul\":4024:4030   */\n  dup3\n    /* \"#utility.yul\":4020:4037   */\n  and\n    /* \"#utility.yul\":4010:4037   */\n  swap2\n  pop\n    /* \"#utility.yul\":3966:4047   */\ntag_87:\n    /* \"#utility.yul\":4094:4096   */\n  0x20\n    /* \"#utility.yul\":4086:4092   */\n  dup3\n    /* \"#utility.yul\":4083:4097   */\n  lt\n    /* \"#utility.yul\":4063:4081   */\n  dup2\n    /* \"#utility.yul\":4060:4098   */\n  sub\n    /* \"#utility.yul\":4057:4141   */\n  tag_88\n  jumpi\n    /* \"#utility.yul\":4113:4131   */\n  tag_89\n  tag_24\n  jump\t// in\ntag_89:\n    /* \"#utility.yul\":4057:4141   */\ntag_88:\n    /* \"#utility.yul\":3878:4147   */\n  pop\n    /* \"#utility.yul\":3827:4147   */\n  swap2\n  swap1\n  pop\n  jump\t// out\n    /* \"#utility.yul\":4153:4294   */\ntag_26:\n    /* \"#utility.yul\":4202:4206   */\n  0x00\n    /* \"#utility.yul\":4225:4228   */\n  dup2\n    /* \"#utility.yul\":4217:4228   */\n  swap1\n  pop\n    /* \"#utility.yul\":4248:4251   */\n  dup2\n    /* \"#utility.yul\":4245:4246   */\n  0x00\n    /* \"#utility.yul\":4238:4252   */\n  mstore\n    /* \"#utility.yul\":4282:4286   */\n  0x20\n    /* \"#utility.yul\":4279:4280   */\n  0x00\n    /* \"#utility.yul\":4269:4287   */\n  keccak256\n    /* \"#utility.yul\":4261:4287   */\n  swap1\n  pop\n    /* \"#utility.yul\":4153:4294   */\n  swap2\n  swap1\n  pop\n  jump\t// out\n    /* \"#utility.yul\":4300:4393   */\ntag_27:\n    /* \"#utility.yul\":4337:4343   */\n  0x00\n    /* \"#utility.yul\":4384:4386   */\n  0x20\n    /* \"#utility.yul\":4379:4381   */\n  0x1f\n    /* \"#utility.yul\":4372:4377   */\n  dup4\n    /* \"#utility.yul\":4368:4382   */\n  add\n    /* \"#utility.yul\":4364:4387   */\n  div\n    /* \"#utility.yul\":4354:4387   */\n  swap1\n  pop\n    /* \"#utility.yul\":4300:4393   */\n  swap2\n  swap1\n  pop\n  jump\t// out\n    /* \"#utility.yul\":4399:4506   */\ntag_28:\n    /* \"#utility.yul\":4443:4451   */\n  0x00\n    /* \"#utility.yul\":4493:4498   */\n  dup3\n    /* \"#utility.yul\":4487:4491   */\n  dup3\n    /* \"#utility.yul\":4483:4499   */\n  shl\n    /* \"#utility.yul\":4462:4499   */\n  swap1\n  pop\n    /* \"#utility.yul\":4399:4506   */\n  swap3\n  swap2\n  pop\n  pop\n  jump\t// out\n    /* \"#utility.yul\":4512:4905   */\ntag_29:\n    /* \"#utility.yul\":4581:4587   */\n  0x00\n    /* \"#utility.yul\":4631:4632   */\n  0x08\n    /* \"#utility.yul\":4619:4629   */\n  dup4\n    /* \"#utility.yul\":4615:4633   */\n  mul\n    /* \"#utility.yul\":4654:4751   */\n  tag_94\n    /* \"#utility.yul\":4684:4750   */\n  0xffffffffffffffffffffffffffffffffffffffffffffffffffffffffffffffff\n    /* \"#utility.yul\":4673:4682   */\n  dup3\n    /* \"#utility.yul\":4654:4751   */\n  tag_28\n  jump\t// in\ntag_94:\n    /* \"#utility.yul\":4772:4811   */\n  tag_95\n    /* \"#utility.yul\":4802:4810   */\n  dup7\n    /* \"#utility.yul\":4791:4800   */\n  dup4\n    /* \"#utility.yul\":4772:4811   */\n  tag_28\n  jump\t// in\ntag_95:\n    /* \"#utility.yul\":4760:4811   */\n  swap6\n  pop\n    /* \"#utility.yul\":4844:4848   */\n  dup1\n    /* \"#utility.yul\":4840:4849   */\n  not\n    /* \"#utility.yul\":4833:4838   */\n  dup5\n    /* \"#utility.yul\":4829:4850   */\n  and\n    /* \"#utility.yul\":4820:4850   */\n  swap4\n  pop\n    /* \"#utility.yul\":4893:4897   */\n  dup1\n    /* \"#utility.yul\":4883:4891   */\n  dup7\n    /* \"#utility.yul\":4879:4898   */\n  and\n    /* \"#utility.yul\":4872:4877   */\n  dup5\n    /* \"#utility.yul\":4869:4899   */\n  or\n    /* \"#utility.yul\":4859:4899   */\n  swap3\n  pop\n    /* \"#utility.yul\":4588:4905   */\n  pop\n  pop\n    /* \"#utility.yul\":4512:4905   */\n  swap4\n  swap3\n  pop\n  pop\n  pop\n  jump\t// out\n    /* \"#utility.yul\":4911:4988   */\ntag_30:\n    /* \"#utility.yul\":4948:4955   */\n  0x00\n    /* \"#utility.yul\":4977:4982   */\n  dup2\n    /* \"#utility.yul\":4966:4982   */\n  swap1\n  pop\n    /* \"#utility.yul\":4911:4988   */\n  swap2\n  swap1\n  pop\n  jump\t// out\n    /* \"#utility.yul\":4994:5054   */\ntag_31:\n    /* \"#utility.yul\":5022:5025   */\n  0x00\n    /* \"#utility.yul\":5043:5048   */\n  dup2\n    /* \"#utility.yul\":5036:5048   */\n  swap1\n  pop\n    /* \"#utility.yul\":4994:5054   */\n  swap2\n  swap1\n  pop\n  jump\t// out\n    /* \"#utility.yul\":5060:5202   */\ntag_32:\n    /* \"#utility.yul\":5110:5119   */\n  0x00\n    /* \"#utility.yul\":5143:5196   */\n  tag_99\n    /* \"#utility.yul\":5161:5195   */\n  tag_100\n    /* \"#utility.yul\":5170:5194   */\n  tag_101\n    /* \"#utility.yul\":5188:5193   */\n  dup5\n    /* \"#utility.yul\":5170:5194   */\n  tag_30\n  jump\t// in\ntag_101:\n    /* \"#utility.yul\":5161:5195   */\n  tag_31\n  jump\t// in\ntag_100:\n    /* \"#utility.yul\":5143:5196   */\n  tag_30\n  jump\t// in\ntag_99:\n    /* \"#utility.yul\":5130:5196   */\n  swap1\n  pop\n    /* \"#utility.yul\":5060:5202   */\n  swap2\n  swap1\n  pop\n  jump\t// out\n    /* \"#utility.yul\":5208:5283   */\ntag_33:\n    /* \"#utility.yul\":5251:5254   */\n  0x00\n    /* \"#utility.yul\":5272:5277   */\n  dup2\n    /* \"#utility.yul\":5265:5277   */\n  swap1\n  pop\n    /* \"#utility.yul\":5208:5283   */\n  swap2\n  swap1\n  pop\n  jump\t// out\n    /* \"#utility.yul\":5289:5558   */\ntag_34:\n    /* \"#utility.yul\":5399:5438   */\n  tag_104\n    /* \"#utility.yul\":5430:5437   */\n  dup4\n    /* \"#utility.yul\":5399:5438   */\n  tag_32\n  jump\t// in\ntag_104:\n    /* \"#utility.yul\":5460:5551   */\n  tag_105\n    /* \"#utility.yul\":5509:5550   */\n  tag_106\n    /* \"#utility.yul\":5533:5549   */\n  dup3\n    /* \"#utility.yul\":5509:5550   */\n  tag_33\n  jump\t// in\ntag_106:\n    /* \"#utility.yul\":5501:5507   */\n  dup5\n    /* \"#utility.yul\":5494:5498   */\n  dup5\n    /* \"#utility.yul\":5488:5499   */\n  sload\n    /* \"#utility.yul\":5460:5551   */\n  tag_29\n  jump\t// in\ntag_105:\n    /* \"#utility.yul\":5454:5458   */\n  dup3\n    /* \"#utility.yul\":5447:5552   */\n  sstore\n    /* \"#utility.yul\":5365:5558   */\n  pop\n    /* \"#utility.yul\":5289:5558   */\n  pop\n  pop\n  pop\n  jump\t// out\n    /* \"#utility.yul\":5564:5637   */\ntag_35:\n    /* \"#utility.yul\":5609:5612   */\n  0x00\n    /* \"#utility.yul\":5564:5637   */\n  swap1\n  jump\t// out\n    /* \"#utility.yul\":5643:5832   */\ntag_36:\n    /* \"#utility.yul\":5720:5752   */\n  tag_109\n  tag_35\n  jump\t// in\ntag_109:\n    /* \"#utility.yul\":5761:5826   */\n  tag_110\n    /* \"#utility.yul\":5819:5825   */\n  dup2\n    /* \"#utility.yul\":5811:5817   */\n  dup5\n    /* \"#utility.yul\":5805:5809   */\n  dup5\n    /* \"#utility.yul\":5761:5826   */\n  tag_34\n  jump\t// in\ntag_110:\n    /* \"#utility.yul\":5696:5832   */\n  pop\n    /* \"#utility.yul\":5643:5832   */\n  pop\n  pop\n  jump\t// out\n    /* \"#utility.yul\":5838:6024   */\ntag_37:\n    /* \"#utility.yul\":5898:6018   */\ntag_112:\n    /* \"#utility.yul\":5915:5918   */\n  dup2\n    /* \"#utility.yul\":5908:5913   */\n  dup2\n    /* \"#utility.yul\":5905:5919   */\n  lt\n    /* \"#utility.yul\":5898:6018   */\n  iszero\n  tag_114\n  jumpi\n    /* \"#utility.yul\":5969:6008   */\n  tag_115\n    /* \"#utility.yul\":6006:6007   */\n  0x00\n    /* \"#utility.yul\":5999:6004   */\n  dup3\n    /* \"#utility.yul\":5969:6008   */\n  tag_36\n  jump\t// in\ntag_115:\n    /* \"#utility.yul\":5942:5943   */\n  0x01\n    /* \"#utility.yul\":5935:5940   */\n  dup2\n    /* \"#utility.yul\":5931:5944   */\n  add\n    /* \"#utility.yul\":5922:5944   */\n  swap1\n  pop\n    /* \"#utility.yul\":5898:6018   */\n  jump(tag_112)\ntag_114:\n    /* \"#utility.yul\":5838:6024   */\n  pop\n  pop\n  jump\t// out\n    /* \"#utility.yul\":6030:6573   */\ntag_38:\n    /* \"#utility.yul\":6131:6133   */\n  0x1f\n    /* \"#utility.yul\":6126:6129   */\n  dup3\n    /* \"#utility.yul\":6123:6134   */\n  gt\n    /* \"#utility.yul\":6120:6566   */\n  iszero\n  tag_117\n  jumpi\n    /* \"#utility.yul\":6165:6203   */\n  tag_118\n    /* \"#utility.yul\":6197:6202   */\n  dup2\n    /* \"#utility.yul\":6165:6203   */\n  tag_26\n  jump\t// in\ntag_118:\n    /* \"#utility.yul\":6249:6278   */\n  tag_119\n    /* \"#utility.yul\":6267:6277   */\n  dup5\n    /* \"#utility.yul\":6249:6278   */\n  tag_27\n  jump\t// in\ntag_119:\n    /* \"#utility.yul\":6239:6247   */\n  dup2\n    /* \"#utility.yul\":6235:6279   */\n  add\n    /* \"#utility.yul\":6432:6434   */\n  0x20\n    /* \"#utility.yul\":6420:6430   */\n  dup6\n    /* \"#utility.yul\":6417:6435   */\n  lt\n    /* \"#utility.yul\":6414:6463   */\n  iszero\n  tag_120\n  jumpi\n    /* \"#utility.yul\":6453:6461   */\n  dup2\n    /* \"#utility.yul\":6438:6461   */\n  swap1\n  pop\n    /* \"#utility.yul\":6414:6463   */\ntag_120:\n    /* \"#utility.yul\":6476:6556   */\n  tag_121\n    /* \"#utility.yul\":6532:6554   */\n  tag_122\n    /* \"#utility.yul\":6550:6553   */\n  dup6\n    /* \"#utility.yul\":6532:6554   */\n  tag_27\n  jump\t// in\ntag_122:\n    /* \"#utility.yul\":6522:6530   */\n  dup4\n    /* \"#utility.yul\":6518:6555   */\n  add\n    /* \"#utility.yul\":6505:6516   */\n  dup3\n    /* \"#utility.yul\":6476:6556   */\n  tag_37\n  jump\t// in\ntag_121:\n    /* \"#utility.yul\":6135:6566   */\n  pop\n  pop\n    /* \"#utility.yul\":6120:6566   */\ntag_117:\n    /* \"#utility.yul\":6030:6573   */\n  pop\n  pop\n  pop\n  jump\t// out\n    /* \"#utility.yul\":6579:6696   */\ntag_39:\n    /* \"#utility.yul\":6633:6641   */\n  0x00\n    /* \"#utility.yul\":6683:6688   */\n  dup3\n    /* \"#utility.yul\":6677:6681   */\n  dup3\n    /* \"#utility.yul\":6673:6689   */\n  shr\n    /* \"#utility.yul\":6652:6689   */\n  swap1\n  pop\n    /* \"#utility.yul\":6579:6696   */\n  swap3\n  swap2\n  pop\n  pop\n  jump\t// out\n    /* \"#utility.yul\":6702:6871   */\ntag_40:\n    /* \"#utility.yul\":6746:6752   */\n  0x00\n    /* \"#utility.yul\":6779:6830   */\n  tag_125\n    /* \"#utility.yul\":6827:6828   */\n  0x00\n    /* \"#utility.yul\":6823:6829   */\n  not\n    /* \"#utility.yul\":6815:6820   */\n  dup5\n    /* \"#utility.yul\":6812:6813   */\n  0x08\n    /* \"#utility.yul\":6808:6821   */\n  mul\n    /* \"#utility.yul\":6779:6830   */\n  tag_39\n  jump\t// in\ntag_125:\n    /* \"#utility.yul\":6775:6831   */\n  not\n    /* \"#utility.yul\":6860:6864   */\n  dup1\n    /* \"#utility.yul\":6854:6858   */\n  dup4\n    /* \"#utility.yul\":6850:6865   */\n  and\n    /* \"#utility.yul\":6840:6865   */\n  swap2\n  pop\n    /* \"#utility.yul\":6753:6871   */\n  pop\n    /* \"#utility.yul\":6702:6871   */\n  swap3\n  swap2\n  pop\n  pop\n  jump\t// out\n    /* \"#utility.yul\":6876:7171   */\ntag_41:\n    /* \"#utility.yul\":6952:6956   */\n  0x00\n    /* \"#utility.yul\":7098:7127   */\n  tag_127\n    /* \"#utility.yul\":7123:7126   */\n  dup4\n    /* \"#utility.yul\":7117:7121   */\n  dup4\n    /* \"#utility.yul\":7098:7127   */\n  tag_40\n  jump\t// in\ntag_127:\n    /* \"#utility.yul\":7090:7127   */\n  swap2\n  pop\n    /* \"#utility.yul\":7160:7163   */\n  dup3\n    /* \"#utility.yul\":7157:7158   */\n  0x02\n    /* \"#utility.yul\":7153:7164   */\n  mul\n    /* \"#utility.yul\":7147:7151   */\n  dup3\n    /* \"#utility.yul\":7144:7165   */\n  or\n    /* \"#utility.yul\":7136:7165   */\n  swap1\n  pop\n    /* \"#utility.yul\":6876:7171   */\n  swap3\n  swap2\n  pop\n  pop\n  jump\t// out\n    /* \"#utility.yul\":7176:8571   */\ntag_7:\n    /* \"#utility.yul\":7293:7330   */\n  tag_129\n    /* \"#utility.yul\":7326:7329   */\n  dup3\n    /* \"#utility.yul\":7293:7330   */\n  tag_23\n  jump\t// in\ntag_129:\n    /* \"#utility.yul\":7395:7413   */\n  0xffffffffffffffff\n    /* \"#utility.yul\":7387:7393   */\n  dup2\n    /* \"#utility.yul\":7384:7414   */\n  gt\n    /* \"#utility.yul\":7381:7437   */\n  iszero\n  tag_130\n  jumpi\n    /* \"#utility.yul\":7417:7435   */\n  tag_131\n  tag_16\n  jump\t// in\ntag_131:\n    /* \"#utility.yul\":7381:7437   */\ntag_130:\n    /* \"#utility.yul\":7461:7499   */\n  tag_132\n    /* \"#utility.yul\":7493:7497   */\n  dup3\n    /* \"#utility.yul\":7487:7498   */\n  sload\n    /* \"#utility.yul\":7461:7499   */\n  tag_25\n  jump\t// in\ntag_132:\n    /* \"#utility.yul\":7546:7613   */\n  tag_133\n    /* \"#utility.yul\":7606:7612   */\n  dup3\n    /* \"#utility.yul\":7598:7604   */\n  dup3\n    /* \"#utility.yul\":7592:7596   */\n  dup6\n    /* \"#utility.yul\":7546:7613   */\n  tag_38\n  jump\t// in\ntag_133:\n    /* \"#utility.yul\":7640:7641   */\n  0x00\n    /* \"#utility.yul\":7664:7668   */\n  0x20\n    /* \"#utility.yul\":7651:7668   */\n  swap1\n  pop\n    /* \"#utility.yul\":7696:7698   */\n  0x1f\n    /* \"#utility.yul\":7688:7694   */\n  dup4\n    /* \"#utility.yul\":7685:7699   */\n  gt\n    /* \"#utility.yul\":7713:7714   */\n  0x01\n    /* \"#utility.yul\":7708:8326   */\n  dup2\n  eq\n  tag_135\n  jumpi\n    /* \"#utility.yul\":8370:8371   */\n  0x00\n    /* \"#utility.yul\":8387:8393   */\n  dup5\n    /* \"#utility.yul\":8384:8461   */\n  iszero\n  tag_136\n  jumpi\n    /* \"#utility.yul\":8436:8445   */\n  dup3\n    /* \"#utility.yul\":8431:8434   */\n  dup8\n    /* \"#utility.yul\":8427:8446   */\n  add\n    /* \"#utility.yul\":8421:8447   */\n  mload\n    /* \"#utility.yul\":8412:8447   */\n  swap1\n  pop\n    /* \"#utility.yul\":8384:8461   */\ntag_136:\n    /* \"#utility.yul\":8487:8554   */\n  tag_137\n    /* \"#utility.yul\":8547:8553   */\n  dup6\n    /* \"#utility.yul\":8540:8545   */\n  dup3\n    /* \"#utility.yul\":8487:8554   */\n  tag_41\n  jump\t// in\ntag_137:\n    /* \"#utility.yul\":8481:8485   */\n  dup7\n    /* \"#utility.yul\":8474:8555   */\n  sstore\n    /* \"#utility.yul\":8343:8565   */\n  pop\n    /* \"#utility.yul\":7678:8565   */\n  jump(tag_134)\n    /* \"#utility.yul\":7708:8326   */\ntag_135:\n    /* \"#utility.yul\":7760:7764   */\n  0x1f\n    /* \"#utility.yul\":7756:7765   */\n  not\n    /* \"#utility.yul\":7748:7754   */\n  dup5\n    /* \"#utility.yul\":7744:7766   */\n  and\n    /* \"#utility.yul\":7794:7831   */\n  tag_138\n    /* \"#utility.yul\":7826:7830   */\n  dup7\n    /* \"#utility.yul\":7794:7831   */\n  tag_26\n  jump\t// in\ntag_138:\n    /* \"#utility.yul\":7853:7854   */\n  0x00\n    /* \"#utility.yul\":7867:8075   */\ntag_139:\n    /* \"#utility.yul\":7881:7888   */\n  dup3\n    /* \"#utility.yul\":7878:7879   */\n  dup2\n    /* \"#utility.yul\":7875:7889   */\n  lt\n    /* \"#utility.yul\":7867:8075   */\n  iszero\n  tag_141\n  jumpi\n    /* \"#utility.yul\":7960:7969   */\n  dup5\n    /* \"#utility.yul\":7955:7958   */\n  dup10\n    /* \"#utility.yul\":7951:7970   */\n  add\n    /* \"#utility.yul\":7945:7971   */\n  mload\n    /* \"#utility.yul\":7937:7943   */\n  dup3\n    /* \"#utility.yul\":7930:7972   */\n  sstore\n    /* \"#utility.yul\":8011:8012   */\n  0x01\n    /* \"#utility.yul\":8003:8009   */\n  dup3\n    /* \"#utility.yul\":7999:8013   */\n  add\n    /* \"#utility.yul\":7989:8013   */\n  swap2\n  pop\n    /* \"#utility.yul\":8058:8060   */\n  0x20\n    /* \"#utility.yul\":8047:8056   */\n  dup6\n    /* \"#utility.yul\":8043:8061   */\n  add\n    /* \"#utility.yul\":8030:8061   */\n  swap5\n  pop\n    /* \"#utility.yul\":7904:7908   */\n  0x20\n    /* \"#utility.yul\":7901:7902   */\n  dup2\n    /* \"#utility.yul\":7897:7909   */\n  add\n    /* \"#utility.yul\":7892:7909   */\n  swap1\n  pop\n    /* \"#utility.yul\":7867:8075   */\n  jump(tag_139)\ntag_141:\n    /* \"#utility.yul\":8103:8109   */\n  dup7\n    /* \"#utility.yul\":8094:8101   */\n  dup4\n    /* \"#utility.yul\":8091:8110   */\n  lt\n    /* \"#utility.yul\":8088:8267   */\n  iszero\n  tag_142\n  jumpi\n    /* \"#utility.yul\":8161:8170   */\n  dup5\n    /* \"#utility.yul\":8156:8159   */\n  dup10\n    /* \"#utility.yul\":8152:8171   */\n  add\n    /* \"#utility.yul\":8146:8172   */\n  mload\n    /* \"#utility.yul\":8204:8252   */\n  tag_143\n    /* \"#utility.yul\":8246:8250   */\n  0x1f\n    /* \"#utility.yul\":8238:8244   */\n  dup10\n    /* \"#utility.yul\":8234:8251   */\n  and\n    /* \"#utility.yul\":8223:8232   */\n  dup3\n    /* \"#utility.yul\":8204:8252   */\n  tag_40\n  jump\t// in\ntag_143:\n    /* \"#utility.yul\":8196:8202   */\n  dup4\n    /* \"#utility.yul\":8189:8253   */\n  sstore\n    /* \"#utility.yul\":8111:8267   */\n  pop\n    /* \"#utility.yul\":8088:8267   */\ntag_142:\n    /* \"#utility.yul\":8313:8314   */\n  0x01\n    /* \"#utility.yul\":8309:8310   */\n  0x02\n    /* \"#utility.yul\":8301:8307   */\n  dup9\n    /* \"#utility.yul\":8297:8311   */\n  mul\n    /* \"#utility.yul\":8293:8315   */\n  add\n    /* \"#utility.yul\":8287:8291   */\n  dup9\n    /* \"#utility.yul\":8280:8316   */\n  sstore\n    /* \"#utility.yul\":7715:8326   */\n  pop\n  pop\n  pop\n    /* \"#utility.yul\":7678:8565   */\ntag_134:\n  pop\n    /* \"#utility.yul\":7268:8571   */\n  pop\n  pop\n  pop\n    /* \"#utility.yul\":7176:8571   */\n  pop\n  pop\n  jump\t// out\n    /* \"TVNProject/TVNNFTPositioManager/TVNNFTPositionManager.sol\":107:2520  contract TVNNFTPositionManager is ERC721 {... */\ntag_9:\n  dataSize(sub_0)\n  dup1\n  dataOffset(sub_0)\n  0x00\n  codecopy\n  0x00\n  return\nstop\n\nsub_0: assembly {\n        /* \"TVNProject/TVNNFTPositioManager/TVNNFTPositionManager.sol\":107:2520  contract TVNNFTPositionManager is ERC721 {... */\n      mstore(0x40, 0x80)\n      callvalue\n      dup1\n      iszero\n      tag_1\n      jumpi\n      0x00\n      dup1\n      revert\n    tag_1:\n      pop\n      jumpi(tag_2, lt(calldatasize, 0x04))\n      shr(0xe0, calldataload(0x00))\n      dup1\n      0x8bbf58b3\n      gt\n      tag_21\n      jumpi\n      dup1\n      0xb88d4fde\n      gt\n      tag_22\n      jumpi\n      dup1\n      0xb88d4fde\n      eq\n      tag_16\n      jumpi\n      dup1\n      0xd942dc94\n      eq\n      tag_17\n      jumpi\n      dup1\n      0xdeeb79a3\n      eq\n      tag_18\n      jumpi\n      dup1\n      0xebd1d359\n      eq\n      tag_19\n      jumpi\n      dup1\n      0xec828722\n      eq\n      tag_20\n      jumpi\n      jump(tag_2)\n    tag_22:\n      dup1\n      0x8bbf58b3\n      eq\n      tag_12\n      jumpi\n      dup1\n      0x99fbab88\n      eq\n      tag_13\n      jumpi\n      dup1\n      0xa22cb465\n      eq\n      tag_14\n      jumpi\n      dup1\n      0xb11c7fd3\n      eq\n      tag_15\n      jumpi\n      jump(tag_2)\n    tag_21:\n      dup1\n      0x26908fa1\n      gt\n      tag_23\n      jumpi\n      dup1\n      0x26908fa1\n      eq\n      tag_7\n      jumpi\n      dup1\n      0x42842e0e\n      eq\n      tag_8\n      jumpi\n      dup1\n      0x6352211e\n      eq\n      tag_9\n      jumpi\n      dup1\n      0x70a08231\n      eq\n      tag_10\n      jumpi\n      dup1\n      0x7fcda073\n      eq\n      tag_11\n      jumpi\n      jump(tag_2)\n    tag_23:\n      dup1\n      0x01ffc9a7\n      eq\n      tag_3\n      jumpi\n      dup1\n      0x081812fc\n      eq\n      tag_4\n      jumpi\n      dup1\n      0x095ea7b3\n      eq\n      tag_5\n      jumpi\n      dup1\n      0x23b872dd\n      eq\n      tag_6\n      jumpi\n    tag_2:\n      0x00\n      dup1\n      revert\n        /* \"LearnSolidity/ERC721/ERC721.sol\":857:1093  function supportsInterface(bytes4 interfaceID)... */\n    tag_3:\n      tag_24\n      0x04\n      dup1\n      calldatasize\n      sub\n      dup2\n      add\n      swap1\n      tag_25\n      swap2\n      swap1\n      tag_26\n      jump\t// in\n    tag_25:\n      tag_27\n      jump\t// in\n    tag_24:\n      mload(0x40)\n      tag_28\n      swap2\n      swap1\n      tag_29\n      jump\t// in\n    tag_28:\n      mload(0x40)\n      dup1\n      swap2\n      sub\n      swap1\n      return\n        /* \"LearnSolidity/ERC721/ERC721.sol\":1987:2209  function getApproved(uint256 tokenId)... */\n    tag_4:\n      tag_30\n      0x04\n      dup1\n      calldatasize\n      sub\n      dup2\n      add\n      swap1\n      tag_31\n      swap2\n      swap1\n      tag_32\n      jump\t// in\n    tag_31:\n      tag_33\n      jump\t// in\n    tag_30:\n      mload(0x40)\n      tag_34\n      swap2\n      swap1\n      tag_35\n      jump\t// in\n    tag_34:\n      mload(0x40)\n      dup1\n      swap2\n      sub\n      swap1\n      return\n        /* \"LearnSolidity/ERC721/ERC721.sol\":1669:1981  function approve(address to, uint256 tokenId) external {... */\n    tag_5:\n      tag_36\n      0x04\n      dup1\n      calldatasize\n      sub\n      dup2\n      add\n      swap1\n      tag_37\n      swap2\n      swap1\n      tag_38\n      jump\t// in\n    tag_37:\n      tag_39\n      jump\t// in\n    tag_36:\n      stop\n        /* \"LearnSolidity/ERC721/ERC721.sol\":2493:3000  function transferFrom(... */\n    tag_6:\n      tag_40\n      0x04\n      dup1\n      calldatasize\n      sub\n      dup2\n      add\n      swap1\n      tag_41\n      swap2\n      swap1\n      tag_42\n      jump\t// in\n    tag_41:\n      tag_43\n      jump\t// in\n    tag_40:\n      stop\n        /* \"TVNProject/TVNNFTPositioManager/TVNNFTPositionManager.sol\":1454:1769  function transferPosition(... */\n    tag_7:\n      tag_44\n      0x04\n      dup1\n      calldatasize\n      sub\n      dup2\n      add\n      swap1\n      tag_45\n      swap2\n      swap1\n      tag_42\n      jump\t// in\n    tag_45:\n      tag_46\n      jump\t// in\n    tag_44:\n      stop\n        /* \"LearnSolidity/ERC721/ERC721.sol\":3006:3500  function safeTransferFrom(... */\n    tag_8:\n      tag_47\n      0x04\n      dup1\n      calldatasize\n      sub\n      dup2\n      add\n      swap1\n      tag_48\n      swap2\n      swap1\n      tag_42\n      jump\t// in\n    tag_48:\n      tag_49\n      jump\t// in\n    tag_47:\n      stop\n        /* \"LearnSolidity/ERC721/ERC721.sol\":1282:1458  function ownerOf(uint256 tokenId) external view returns (address owner) {... */\n    tag_9:\n      tag_50\n      0x04\n      dup1\n      calldatasize\n      sub\n      dup2\n      add\n      swap1\n      tag_51\n      swap2\n      swap1\n      tag_32\n      jump\t// in\n    tag_51:\n      tag_52\n      jump\t// in\n    tag_50:\n      mload(0x40)\n      tag_53\n      swap2\n      swap1\n      tag_35\n      jump\t// in\n    tag_53:\n      mload(0x40)\n      dup1\n      swap2\n      sub\n      swap1\n      return\n        /* \"LearnSolidity/ERC721/ERC721.sol\":1099:1276  function balanceOf(address owner) external view returns (uint256 balance) {... */\n    tag_10:\n      tag_54\n      0x04\n      dup1\n      calldatasize\n      sub\n      dup2\n      add\n      swap1\n      tag_55\n      swap2\n      swap1\n      tag_56\n      jump\t// in\n    tag_55:\n      tag_57\n      jump\t// in\n    tag_54:\n      mload(0x40)\n      tag_58\n      swap2\n      swap1\n      tag_59\n      jump\t// in\n    tag_58:\n      mload(0x40)\n      dup1\n      swap2\n      sub\n      swap1\n      return\n        /* \"TVNProject/TVNNFTPositioManager/TVNNFTPositionManager.sol\":499:569  mapping(address => mapping(uint256 => uint256)) public indexOfOwnerNFT */\n    tag_11:\n      tag_60\n      0x04\n      dup1\n      calldatasize\n      sub\n      dup2\n      add\n      swap1\n      tag_61\n      swap2\n      swap1\n      tag_38\n      jump\t// in\n    tag_61:\n      tag_62\n      jump\t// in\n    tag_60:\n      mload(0x40)\n      tag_63\n      swap2\n      swap1\n      tag_59\n      jump\t// in\n    tag_63:\n      mload(0x40)\n      dup1\n      swap2\n      sub\n      swap1\n      return\n        /* \"TVNProject/TVNNFTPositioManager/TVNNFTPositionManager.sol\":206:236  uint256 public tokenIdNext = 1 */\n    tag_12:\n      tag_64\n      tag_65\n      jump\t// in\n    tag_64:\n      mload(0x40)\n      tag_66\n      swap2\n      swap1\n      tag_59\n      jump\t// in\n    tag_66:\n      mload(0x40)\n      dup1\n      swap2\n      sub\n      swap1\n      return\n        /* \"TVNProject/TVNNFTPositioManager/TVNNFTPositionManager.sol\":392:441  mapping(uint256 => PositionInfo) public positions */\n    tag_13:\n      tag_67\n      0x04\n      dup1\n      calldatasize\n      sub\n      dup2\n      add\n      swap1\n      tag_68\n      swap2\n      swap1\n      tag_32\n      jump\t// in\n    tag_68:\n      tag_69\n      jump\t// in\n    tag_67:\n      mload(0x40)\n      tag_70\n      swap6\n      swap5\n      swap4\n      swap3\n      swap2\n      swap1\n      tag_71\n      jump\t// in\n    tag_70:\n      mload(0x40)\n      dup1\n      swap2\n      sub\n      swap1\n      return\n        /* \"LearnSolidity/ERC721/ERC721.sol\":1464:1663  function setApprovalForAll(address operator, bool _approved) external {... */\n    tag_14:\n      tag_72\n      0x04\n      dup1\n      calldatasize\n      sub\n      dup2\n      add\n      swap1\n      tag_73\n      swap2\n      swap1\n      tag_74\n      jump\t// in\n    tag_73:\n      tag_75\n      jump\t// in\n    tag_72:\n      stop\n        /* \"TVNProject/TVNNFTPositioManager/TVNNFTPositionManager.sol\":693:1206  function mintPosition(address _to, PositionInfo calldata params) external {... */\n    tag_15:\n      tag_76\n      0x04\n      dup1\n      calldatasize\n      sub\n      dup2\n      add\n      swap1\n      tag_77\n      swap2\n      swap1\n      tag_78\n      jump\t// in\n    tag_77:\n      tag_79\n      jump\t// in\n    tag_76:\n      stop\n        /* \"LearnSolidity/ERC721/ERC721.sol\":3506:4031  function safeTransferFrom(... */\n    tag_16:\n      tag_80\n      0x04\n      dup1\n      calldatasize\n      sub\n      dup2\n      add\n      swap1\n      tag_81\n      swap2\n      swap1\n      tag_82\n      jump\t// in\n    tag_81:\n      tag_83\n      jump\t// in\n    tag_80:\n      stop\n        /* \"TVNProject/TVNNFTPositioManager/TVNNFTPositionManager.sol\":2374:2518  function getOwnerNFT(address _owner)... */\n    tag_17:\n      tag_84\n      0x04\n      dup1\n      calldatasize\n      sub\n      dup2\n      add\n      swap1\n      tag_85\n      swap2\n      swap1\n      tag_56\n      jump\t// in\n    tag_85:\n      tag_86\n      jump\t// in\n    tag_84:\n      mload(0x40)\n      tag_87\n      swap2\n      swap1\n      tag_88\n      jump\t// in\n    tag_87:\n      mload(0x40)\n      dup1\n      swap2\n      sub\n      swap1\n      return\n        /* \"TVNProject/TVNNFTPositioManager/TVNNFTPositionManager.sol\":448:493  mapping(address => uint256[]) public ownerNFT */\n    tag_18:\n      tag_89\n      0x04\n      dup1\n      calldatasize\n      sub\n      dup2\n      add\n      swap1\n      tag_90\n      swap2\n      swap1\n      tag_38\n      jump\t// in\n    tag_90:\n      tag_91\n      jump\t// in\n    tag_89:\n      mload(0x40)\n      tag_92\n      swap2\n      swap1\n      tag_59\n      jump\t// in\n    tag_92:\n      mload(0x40)\n      dup1\n      swap2\n      sub\n      swap1\n      return\n        /* \"LearnSolidity/ERC721/ERC721.sol\":782:850  mapping(address => mapping(address => bool)) public isApprovalForAll */\n    tag_19:\n      tag_93\n      0x04\n      dup1\n      calldatasize\n      sub\n      dup2\n      add\n      swap1\n      tag_94\n      swap2\n      swap1\n      tag_95\n      jump\t// in\n    tag_94:\n      tag_96\n      jump\t// in\n    tag_93:\n      mload(0x40)\n      tag_97\n      swap2\n      swap1\n      tag_29\n      jump\t// in\n    tag_97:\n      mload(0x40)\n      dup1\n      swap2\n      sub\n      swap1\n      return\n        /* \"TVNProject/TVNNFTPositioManager/TVNNFTPositionManager.sol\":1212:1448  function burnPosition(uint256 _tokenId, address _from) external {... */\n    tag_20:\n      tag_98\n      0x04\n      dup1\n      calldatasize\n      sub\n      dup2\n      add\n      swap1\n      tag_99\n      swap2\n      swap1\n      tag_100\n      jump\t// in\n    tag_99:\n      tag_101\n      jump\t// in\n    tag_98:\n      stop\n        /* \"LearnSolidity/ERC721/ERC721.sol\":857:1093  function supportsInterface(bytes4 interfaceID)... */\n    tag_27:\n        /* \"LearnSolidity/ERC721/ERC721.sol\":951:955  bool */\n      0x00\n        /* \"LearnSolidity/ERC721/ERC721.sol\":1005:1030  type(IERC721).interfaceId */\n      0x80ac58cd00000000000000000000000000000000000000000000000000000000\n        /* \"LearnSolidity/ERC721/ERC721.sol\":990:1030  interfaceID == type(IERC721).interfaceId */\n      not(0xffffffffffffffffffffffffffffffffffffffffffffffffffffffff)\n      and\n        /* \"LearnSolidity/ERC721/ERC721.sol\":990:1001  interfaceID */\n      dup3\n        /* \"LearnSolidity/ERC721/ERC721.sol\":990:1030  interfaceID == type(IERC721).interfaceId */\n      not(0xffffffffffffffffffffffffffffffffffffffffffffffffffffffff)\n      and\n      eq\n        /* \"LearnSolidity/ERC721/ERC721.sol\":990:1086  interfaceID == type(IERC721).interfaceId ||... */\n      dup1\n      tag_103\n      jumpi\n      pop\n        /* \"LearnSolidity/ERC721/ERC721.sol\":1061:1086  type(IERC165).interfaceId */\n      0x01ffc9a700000000000000000000000000000000000000000000000000000000\n        /* \"LearnSolidity/ERC721/ERC721.sol\":1046:1086  interfaceID == type(IERC165).interfaceId */\n      not(0xffffffffffffffffffffffffffffffffffffffffffffffffffffffff)\n      and\n        /* \"LearnSolidity/ERC721/ERC721.sol\":1046:1057  interfaceID */\n      dup3\n        /* \"LearnSolidity/ERC721/ERC721.sol\":1046:1086  interfaceID == type(IERC165).interfaceId */\n      not(0xffffffffffffffffffffffffffffffffffffffffffffffffffffffff)\n      and\n      eq\n        /* \"LearnSolidity/ERC721/ERC721.sol\":990:1086  interfaceID == type(IERC721).interfaceId ||... */\n    tag_103:\n        /* \"LearnSolidity/ERC721/ERC721.sol\":971:1086  return... */\n      swap1\n      pop\n        /* \"LearnSolidity/ERC721/ERC721.sol\":857:1093  function supportsInterface(bytes4 interfaceID)... */\n      swap2\n      swap1\n      pop\n      jump\t// out\n        /* \"LearnSolidity/ERC721/ERC721.sol\":1987:2209  function getApproved(uint256 tokenId)... */\n    tag_33:\n        /* \"LearnSolidity/ERC721/ERC721.sol\":2072:2088  address operator */\n      0x00\n        /* \"LearnSolidity/ERC721/ERC721.sol\":2141:2142  0 */\n      dup1\n        /* \"LearnSolidity/ERC721/ERC721.sol\":2112:2143  _ownerOf[tokenId] != address(0) */\n      0xffffffffffffffffffffffffffffffffffffffff\n      and\n        /* \"LearnSolidity/ERC721/ERC721.sol\":2112:2120  _ownerOf */\n      0x00\n        /* \"LearnSolidity/ERC721/ERC721.sol\":2112:2129  _ownerOf[tokenId] */\n      dup1\n        /* \"LearnSolidity/ERC721/ERC721.sol\":2121:2128  tokenId */\n      dup5\n        /* \"LearnSolidity/ERC721/ERC721.sol\":2112:2129  _ownerOf[tokenId] */\n      dup2\n      mstore\n      0x20\n      add\n      swap1\n      dup2\n      mstore\n      0x20\n      add\n      0x00\n      keccak256\n      0x00\n      swap1\n      sload\n      swap1\n      0x0100\n      exp\n      swap1\n      div\n      0xffffffffffffffffffffffffffffffffffffffff\n      and\n        /* \"LearnSolidity/ERC721/ERC721.sol\":2112:2143  _ownerOf[tokenId] != address(0) */\n      0xffffffffffffffffffffffffffffffffffffffff\n      and\n      sub\n        /* \"LearnSolidity/ERC721/ERC721.sol\":2104:2166  require(_ownerOf[tokenId] != address(0), \"token does't exits\") */\n      tag_105\n      jumpi\n      mload(0x40)\n      0x08c379a000000000000000000000000000000000000000000000000000000000\n      dup2\n      mstore\n      0x04\n      add\n      tag_106\n      swap1\n      tag_107\n      jump\t// in\n    tag_106:\n      mload(0x40)\n      dup1\n      swap2\n      sub\n      swap1\n      revert\n    tag_105:\n        /* \"LearnSolidity/ERC721/ERC721.sol\":2183:2193  _approvals */\n      0x02\n        /* \"LearnSolidity/ERC721/ERC721.sol\":2183:2202  _approvals[tokenId] */\n      0x00\n        /* \"LearnSolidity/ERC721/ERC721.sol\":2194:2201  tokenId */\n      dup4\n        /* \"LearnSolidity/ERC721/ERC721.sol\":2183:2202  _approvals[tokenId] */\n      dup2\n      mstore\n      0x20\n      add\n      swap1\n      dup2\n      mstore\n      0x20\n      add\n      0x00\n      keccak256\n      0x00\n      swap1\n      sload\n      swap1\n      0x0100\n      exp\n      swap1\n      div\n      0xffffffffffffffffffffffffffffffffffffffff\n      and\n        /* \"LearnSolidity/ERC721/ERC721.sol\":2176:2202  return _approvals[tokenId] */\n      swap1\n      pop\n        /* \"LearnSolidity/ERC721/ERC721.sol\":1987:2209  function getApproved(uint256 tokenId)... */\n      swap2\n      swap1\n      pop\n      jump\t// out\n        /* \"LearnSolidity/ERC721/ERC721.sol\":1669:1981  function approve(address to, uint256 tokenId) external {... */\n    tag_39:\n        /* \"LearnSolidity/ERC721/ERC721.sol\":1734:1747  address owner */\n      0x00\n        /* \"LearnSolidity/ERC721/ERC721.sol\":1750:1758  _ownerOf */\n      dup1\n        /* \"LearnSolidity/ERC721/ERC721.sol\":1750:1767  _ownerOf[tokenId] */\n      0x00\n        /* \"LearnSolidity/ERC721/ERC721.sol\":1759:1766  tokenId */\n      dup4\n        /* \"LearnSolidity/ERC721/ERC721.sol\":1750:1767  _ownerOf[tokenId] */\n      dup2\n      mstore\n      0x20\n      add\n      swap1\n      dup2\n      mstore\n      0x20\n      add\n      0x00\n      keccak256\n      0x00\n      swap1\n      sload\n      swap1\n      0x0100\n      exp\n      swap1\n      div\n      0xffffffffffffffffffffffffffffffffffffffff\n      and\n        /* \"LearnSolidity/ERC721/ERC721.sol\":1734:1767  address owner = _ownerOf[tokenId] */\n      swap1\n      pop\n        /* \"LearnSolidity/ERC721/ERC721.sol\":1812:1817  owner */\n      dup1\n        /* \"LearnSolidity/ERC721/ERC721.sol\":1798:1817  msg.sender == owner */\n      0xffffffffffffffffffffffffffffffffffffffff\n      and\n        /* \"LearnSolidity/ERC721/ERC721.sol\":1798:1808  msg.sender */\n      caller\n        /* \"LearnSolidity/ERC721/ERC721.sol\":1798:1817  msg.sender == owner */\n      0xffffffffffffffffffffffffffffffffffffffff\n      and\n      eq\n        /* \"LearnSolidity/ERC721/ERC721.sol\":1798:1856  msg.sender == owner || isApprovalForAll[owner][msg.sender] */\n      dup1\n      tag_109\n      jumpi\n      pop\n        /* \"LearnSolidity/ERC721/ERC721.sol\":1821:1837  isApprovalForAll */\n      0x03\n        /* \"LearnSolidity/ERC721/ERC721.sol\":1821:1844  isApprovalForAll[owner] */\n      0x00\n        /* \"LearnSolidity/ERC721/ERC721.sol\":1838:1843  owner */\n      dup3\n        /* \"LearnSolidity/ERC721/ERC721.sol\":1821:1844  isApprovalForAll[owner] */\n      0xffffffffffffffffffffffffffffffffffffffff\n      and\n      0xffffffffffffffffffffffffffffffffffffffff\n      and\n      dup2\n      mstore\n      0x20\n      add\n      swap1\n      dup2\n      mstore\n      0x20\n      add\n      0x00\n      keccak256\n        /* \"LearnSolidity/ERC721/ERC721.sol\":1821:1856  isApprovalForAll[owner][msg.sender] */\n      0x00\n        /* \"LearnSolidity/ERC721/ERC721.sol\":1845:1855  msg.sender */\n      caller\n        /* \"LearnSolidity/ERC721/ERC721.sol\":1821:1856  isApprovalForAll[owner][msg.sender] */\n      0xffffffffffffffffffffffffffffffffffffffff\n      and\n      0xffffffffffffffffffffffffffffffffffffffff\n      and\n      dup2\n      mstore\n      0x20\n      add\n      swap1\n      dup2\n      mstore\n      0x20\n      add\n      0x00\n      keccak256\n      0x00\n      swap1\n      sload\n      swap1\n      0x0100\n      exp\n      swap1\n      div\n      0xff\n      and\n        /* \"LearnSolidity/ERC721/ERC721.sol\":1798:1856  msg.sender == owner || isApprovalForAll[owner][msg.sender] */\n    tag_109:\n        /* \"LearnSolidity/ERC721/ERC721.sol\":1777:1896  require(... */\n      tag_110\n      jumpi\n      mload(0x40)\n      0x08c379a000000000000000000000000000000000000000000000000000000000\n      dup2\n      mstore\n      0x04\n      add\n      tag_111\n      swap1\n      tag_112\n      jump\t// in\n    tag_111:\n      mload(0x40)\n      dup1\n      swap2\n      sub\n      swap1\n      revert\n    tag_110:\n        /* \"LearnSolidity/ERC721/ERC721.sol\":1928:1930  to */\n      dup3\n        /* \"LearnSolidity/ERC721/ERC721.sol\":1906:1916  _approvals */\n      0x02\n        /* \"LearnSolidity/ERC721/ERC721.sol\":1906:1925  _approvals[tokenId] */\n      0x00\n        /* \"LearnSolidity/ERC721/ERC721.sol\":1917:1924  tokenId */\n      dup5\n        /* \"LearnSolidity/ERC721/ERC721.sol\":1906:1925  _approvals[tokenId] */\n      dup2\n      mstore\n      0x20\n      add\n      swap1\n      dup2\n      mstore\n      0x20\n      add\n      0x00\n      keccak256\n      0x00\n        /* \"LearnSolidity/ERC721/ERC721.sol\":1906:1930  _approvals[tokenId] = to */\n      0x0100\n      exp\n      dup2\n      sload\n      dup2\n      0xffffffffffffffffffffffffffffffffffffffff\n      mul\n      not\n      and\n      swap1\n      dup4\n      0xffffffffffffffffffffffffffffffffffffffff\n      and\n      mul\n      or\n      swap1\n      sstore\n      pop\n        /* \"LearnSolidity/ERC721/ERC721.sol\":1966:1973  tokenId */\n      dup2\n        /* \"LearnSolidity/ERC721/ERC721.sol\":1962:1964  to */\n      dup4\n        /* \"LearnSolidity/ERC721/ERC721.sol\":1946:1974  Approval(owner, to, tokenId) */\n      0xffffffffffffffffffffffffffffffffffffffff\n      and\n        /* \"LearnSolidity/ERC721/ERC721.sol\":1955:1960  owner */\n      dup3\n        /* \"LearnSolidity/ERC721/ERC721.sol\":1946:1974  Approval(owner, to, tokenId) */\n      0xffffffffffffffffffffffffffffffffffffffff\n      and\n      0x8c5be1e5ebec7d5bd14f71427d1e84f3dd0314c0f7b2291e5b200ac8c7c3b925\n      mload(0x40)\n      mload(0x40)\n      dup1\n      swap2\n      sub\n      swap1\n      log4\n        /* \"LearnSolidity/ERC721/ERC721.sol\":1724:1981  {... */\n      pop\n        /* \"LearnSolidity/ERC721/ERC721.sol\":1669:1981  function approve(address to, uint256 tokenId) external {... */\n      pop\n      pop\n      jump\t// out\n        /* \"LearnSolidity/ERC721/ERC721.sol\":2493:3000  function transferFrom(... */\n    tag_43:\n        /* \"LearnSolidity/ERC721/ERC721.sol\":2621:2629  _ownerOf */\n      0x00\n        /* \"LearnSolidity/ERC721/ERC721.sol\":2621:2638  _ownerOf[tokenId] */\n      dup1\n        /* \"LearnSolidity/ERC721/ERC721.sol\":2630:2637  tokenId */\n      dup3\n        /* \"LearnSolidity/ERC721/ERC721.sol\":2621:2638  _ownerOf[tokenId] */\n      dup2\n      mstore\n      0x20\n      add\n      swap1\n      dup2\n      mstore\n      0x20\n      add\n      0x00\n      keccak256\n      0x00\n      swap1\n      sload\n      swap1\n      0x0100\n      exp\n      swap1\n      div\n      0xffffffffffffffffffffffffffffffffffffffff\n      and\n        /* \"LearnSolidity/ERC721/ERC721.sol\":2613:2638  from == _ownerOf[tokenId] */\n      0xffffffffffffffffffffffffffffffffffffffff\n      and\n        /* \"LearnSolidity/ERC721/ERC721.sol\":2613:2617  from */\n      dup4\n        /* \"LearnSolidity/ERC721/ERC721.sol\":2613:2638  from == _ownerOf[tokenId] */\n      0xffffffffffffffffffffffffffffffffffffffff\n      and\n      eq\n        /* \"LearnSolidity/ERC721/ERC721.sol\":2605:2656  require(from == _ownerOf[tokenId], \"from != owner\") */\n      tag_114\n      jumpi\n      mload(0x40)\n      0x08c379a000000000000000000000000000000000000000000000000000000000\n      dup2\n      mstore\n      0x04\n      add\n      tag_115\n      swap1\n      tag_116\n      jump\t// in\n    tag_115:\n      mload(0x40)\n      dup1\n      swap2\n      sub\n      swap1\n      revert\n    tag_114:\n        /* \"LearnSolidity/ERC721/ERC721.sol\":2688:2689  0 */\n      0x00\n        /* \"LearnSolidity/ERC721/ERC721.sol\":2674:2690  to != address(0) */\n      0xffffffffffffffffffffffffffffffffffffffff\n      and\n        /* \"LearnSolidity/ERC721/ERC721.sol\":2674:2676  to */\n      dup3\n        /* \"LearnSolidity/ERC721/ERC721.sol\":2674:2690  to != address(0) */\n      0xffffffffffffffffffffffffffffffffffffffff\n      and\n      sub\n        /* \"LearnSolidity/ERC721/ERC721.sol\":2666:2712  require(to != address(0), \"to = zero address\") */\n      tag_117\n      jumpi\n      mload(0x40)\n      0x08c379a000000000000000000000000000000000000000000000000000000000\n      dup2\n      mstore\n      0x04\n      add\n      tag_118\n      swap1\n      tag_119\n      jump\t// in\n    tag_118:\n      mload(0x40)\n      dup1\n      swap2\n      sub\n      swap1\n      revert\n    tag_117:\n        /* \"LearnSolidity/ERC721/ERC721.sol\":2743:2788  _isApprovedOrOwner(from, msg.sender, tokenId) */\n      tag_120\n        /* \"LearnSolidity/ERC721/ERC721.sol\":2762:2766  from */\n      dup4\n        /* \"LearnSolidity/ERC721/ERC721.sol\":2768:2778  msg.sender */\n      caller\n        /* \"LearnSolidity/ERC721/ERC721.sol\":2780:2787  tokenId */\n      dup4\n        /* \"LearnSolidity/ERC721/ERC721.sol\":2743:2761  _isApprovedOrOwner */\n      tag_121\n        /* \"LearnSolidity/ERC721/ERC721.sol\":2743:2788  _isApprovedOrOwner(from, msg.sender, tokenId) */\n      jump\t// in\n    tag_120:\n        /* \"LearnSolidity/ERC721/ERC721.sol\":2722:2828  require(... */\n      tag_122\n      jumpi\n      mload(0x40)\n      0x08c379a000000000000000000000000000000000000000000000000000000000\n      dup2\n      mstore\n      0x04\n      add\n      tag_123\n      swap1\n      tag_112\n      jump\t// in\n    tag_123:\n      mload(0x40)\n      dup1\n      swap2\n      sub\n      swap1\n      revert\n    tag_122:\n        /* \"LearnSolidity/ERC721/ERC721.sol\":2838:2848  _balanceOf */\n      0x01\n        /* \"LearnSolidity/ERC721/ERC721.sol\":2838:2854  _balanceOf[from] */\n      0x00\n        /* \"LearnSolidity/ERC721/ERC721.sol\":2849:2853  from */\n      dup5\n        /* \"LearnSolidity/ERC721/ERC721.sol\":2838:2854  _balanceOf[from] */\n      0xffffffffffffffffffffffffffffffffffffffff\n      and\n      0xffffffffffffffffffffffffffffffffffffffff\n      and\n      dup2\n      mstore\n      0x20\n      add\n      swap1\n      dup2\n      mstore\n      0x20\n      add\n      0x00\n      keccak256\n      0x00\n        /* \"LearnSolidity/ERC721/ERC721.sol\":2838:2856  _balanceOf[from]-- */\n      dup2\n      sload\n      dup1\n      swap3\n      swap2\n      swap1\n      tag_124\n      swap1\n      tag_125\n      jump\t// in\n    tag_124:\n      swap2\n      swap1\n      pop\n      sstore\n      pop\n        /* \"LearnSolidity/ERC721/ERC721.sol\":2866:2876  _balanceOf */\n      0x01\n        /* \"LearnSolidity/ERC721/ERC721.sol\":2866:2880  _balanceOf[to] */\n      0x00\n        /* \"LearnSolidity/ERC721/ERC721.sol\":2877:2879  to */\n      dup4\n        /* \"LearnSolidity/ERC721/ERC721.sol\":2866:2880  _balanceOf[to] */\n      0xffffffffffffffffffffffffffffffffffffffff\n      and\n      0xffffffffffffffffffffffffffffffffffffffff\n      and\n      dup2\n      mstore\n      0x20\n      add\n      swap1\n      dup2\n      mstore\n      0x20\n      add\n      0x00\n      keccak256\n      0x00\n        /* \"LearnSolidity/ERC721/ERC721.sol\":2866:2882  _balanceOf[to]++ */\n      dup2\n      sload\n      dup1\n      swap3\n      swap2\n      swap1\n      tag_126\n      swap1\n      tag_127\n      jump\t// in\n    tag_126:\n      swap2\n      swap1\n      pop\n      sstore\n      pop\n        /* \"LearnSolidity/ERC721/ERC721.sol\":2912:2914  to */\n      dup2\n        /* \"LearnSolidity/ERC721/ERC721.sol\":2892:2900  _ownerOf */\n      0x00\n        /* \"LearnSolidity/ERC721/ERC721.sol\":2892:2909  _ownerOf[tokenId] */\n      dup1\n        /* \"LearnSolidity/ERC721/ERC721.sol\":2901:2908  tokenId */\n      dup4\n        /* \"LearnSolidity/ERC721/ERC721.sol\":2892:2909  _ownerOf[tokenId] */\n      dup2\n      mstore\n      0x20\n      add\n      swap1\n      dup2\n      mstore\n      0x20\n      add\n      0x00\n      keccak256\n      0x00\n        /* \"LearnSolidity/ERC721/ERC721.sol\":2892:2914  _ownerOf[tokenId] = to */\n      0x0100\n      exp\n      dup2\n      sload\n      dup2\n      0xffffffffffffffffffffffffffffffffffffffff\n      mul\n      not\n      and\n      swap1\n      dup4\n      0xffffffffffffffffffffffffffffffffffffffff\n      and\n      mul\n      or\n      swap1\n      sstore\n      pop\n        /* \"LearnSolidity/ERC721/ERC721.sol\":2932:2942  _approvals */\n      0x02\n        /* \"LearnSolidity/ERC721/ERC721.sol\":2932:2951  _approvals[tokenId] */\n      0x00\n        /* \"LearnSolidity/ERC721/ERC721.sol\":2943:2950  tokenId */\n      dup3\n        /* \"LearnSolidity/ERC721/ERC721.sol\":2932:2951  _approvals[tokenId] */\n      dup2\n      mstore\n      0x20\n      add\n      swap1\n      dup2\n      mstore\n      0x20\n      add\n      0x00\n      keccak256\n      0x00\n        /* \"LearnSolidity/ERC721/ERC721.sol\":2925:2951  delete _approvals[tokenId] */\n      0x0100\n      exp\n      dup2\n      sload\n      swap1\n      0xffffffffffffffffffffffffffffffffffffffff\n      mul\n      not\n      and\n      swap1\n      sstore\n        /* \"LearnSolidity/ERC721/ERC721.sol\":2985:2992  tokenId */\n      dup1\n        /* \"LearnSolidity/ERC721/ERC721.sol\":2981:2983  to */\n      dup3\n        /* \"LearnSolidity/ERC721/ERC721.sol\":2966:2993  Transfer(from, to, tokenId) */\n      0xffffffffffffffffffffffffffffffffffffffff\n      and\n        /* \"LearnSolidity/ERC721/ERC721.sol\":2975:2979  from */\n      dup5\n        /* \"LearnSolidity/ERC721/ERC721.sol\":2966:2993  Transfer(from, to, tokenId) */\n      0xffffffffffffffffffffffffffffffffffffffff\n      and\n      0xddf252ad1be2c89b69c2b068fc378daa952ba7f163c4a11628f55a4df523b3ef\n      mload(0x40)\n      mload(0x40)\n      dup1\n      swap2\n      sub\n      swap1\n      log4\n        /* \"LearnSolidity/ERC721/ERC721.sol\":2493:3000  function transferFrom(... */\n      pop\n      pop\n      pop\n      jump\t// out\n        /* \"TVNProject/TVNNFTPositioManager/TVNNFTPositionManager.sol\":1454:1769  function transferPosition(... */\n    tag_46:\n        /* \"TVNProject/TVNNFTPositioManager/TVNNFTPositionManager.sol\":1575:1609  transferFrom(_from, _to, _tokenId) */\n      tag_129\n        /* \"TVNProject/TVNNFTPositioManager/TVNNFTPositionManager.sol\":1588:1593  _from */\n      dup4\n        /* \"TVNProject/TVNNFTPositioManager/TVNNFTPositionManager.sol\":1595:1598  _to */\n      dup4\n        /* \"TVNProject/TVNNFTPositioManager/TVNNFTPositionManager.sol\":1600:1608  _tokenId */\n      dup4\n        /* \"TVNProject/TVNNFTPositioManager/TVNNFTPositionManager.sol\":1575:1587  transferFrom */\n      tag_43\n        /* \"TVNProject/TVNNFTPositioManager/TVNNFTPositionManager.sol\":1575:1609  transferFrom(_from, _to, _tokenId) */\n      jump\t// in\n    tag_129:\n        /* \"TVNProject/TVNNFTPositioManager/TVNNFTPositionManager.sol\":1620:1653  _removeFromArray(_tokenId, _from) */\n      tag_130\n        /* \"TVNProject/TVNNFTPositioManager/TVNNFTPositionManager.sol\":1637:1645  _tokenId */\n      dup2\n        /* \"TVNProject/TVNNFTPositioManager/TVNNFTPositionManager.sol\":1647:1652  _from */\n      dup5\n        /* \"TVNProject/TVNNFTPositioManager/TVNNFTPositionManager.sol\":1620:1636  _removeFromArray */\n      tag_131\n        /* \"TVNProject/TVNNFTPositioManager/TVNNFTPositionManager.sol\":1620:1653  _removeFromArray(_tokenId, _from) */\n      jump\t// in\n    tag_130:\n        /* \"TVNProject/TVNNFTPositioManager/TVNNFTPositionManager.sol\":1664:1672  ownerNFT */\n      0x08\n        /* \"TVNProject/TVNNFTPositioManager/TVNNFTPositionManager.sol\":1664:1677  ownerNFT[_to] */\n      0x00\n        /* \"TVNProject/TVNNFTPositioManager/TVNNFTPositionManager.sol\":1673:1676  _to */\n      dup4\n        /* \"TVNProject/TVNNFTPositioManager/TVNNFTPositionManager.sol\":1664:1677  ownerNFT[_to] */\n      0xffffffffffffffffffffffffffffffffffffffff\n      and\n      0xffffffffffffffffffffffffffffffffffffffff\n      and\n      dup2\n      mstore\n      0x20\n      add\n      swap1\n      dup2\n      mstore\n      0x20\n      add\n      0x00\n      keccak256\n        /* \"TVNProject/TVNNFTPositioManager/TVNNFTPositionManager.sol\":1683:1691  _tokenId */\n      dup2\n        /* \"TVNProject/TVNNFTPositioManager/TVNNFTPositionManager.sol\":1664:1692  ownerNFT[_to].push(_tokenId) */\n      swap1\n      dup1\n      0x01\n      dup2\n      sload\n      add\n      dup1\n      dup3\n      sstore\n      dup1\n      swap2\n      pop\n      pop\n      0x01\n      swap1\n      sub\n      swap1\n      0x00\n      mstore\n      keccak256(0x00, 0x20)\n      add\n      0x00\n      swap1\n      swap2\n      swap1\n      swap2\n      swap1\n      swap2\n      pop\n      sstore\n        /* \"TVNProject/TVNNFTPositioManager/TVNNFTPositionManager.sol\":1761:1762  1 */\n      0x01\n        /* \"TVNProject/TVNNFTPositioManager/TVNNFTPositionManager.sol\":1738:1746  ownerNFT */\n      0x08\n        /* \"TVNProject/TVNNFTPositioManager/TVNNFTPositionManager.sol\":1738:1751  ownerNFT[_to] */\n      0x00\n        /* \"TVNProject/TVNNFTPositioManager/TVNNFTPositionManager.sol\":1747:1750  _to */\n      dup5\n        /* \"TVNProject/TVNNFTPositioManager/TVNNFTPositionManager.sol\":1738:1751  ownerNFT[_to] */\n      0xffffffffffffffffffffffffffffffffffffffff\n      and\n      0xffffffffffffffffffffffffffffffffffffffff\n      and\n      dup2\n      mstore\n      0x20\n      add\n      swap1\n      dup2\n      mstore\n      0x20\n      add\n      0x00\n      keccak256\n        /* \"TVNProject/TVNNFTPositioManager/TVNNFTPositionManager.sol\":1738:1758  ownerNFT[_to].length */\n      dup1\n      sload\n      swap1\n      pop\n        /* \"TVNProject/TVNNFTPositioManager/TVNNFTPositionManager.sol\":1738:1762  ownerNFT[_to].length - 1 */\n      tag_133\n      swap2\n      swap1\n      tag_134\n      jump\t// in\n    tag_133:\n        /* \"TVNProject/TVNNFTPositioManager/TVNNFTPositionManager.sol\":1702:1717  indexOfOwnerNFT */\n      0x09\n        /* \"TVNProject/TVNNFTPositioManager/TVNNFTPositionManager.sol\":1702:1722  indexOfOwnerNFT[_to] */\n      0x00\n        /* \"TVNProject/TVNNFTPositioManager/TVNNFTPositionManager.sol\":1718:1721  _to */\n      dup5\n        /* \"TVNProject/TVNNFTPositioManager/TVNNFTPositionManager.sol\":1702:1722  indexOfOwnerNFT[_to] */\n      0xffffffffffffffffffffffffffffffffffffffff\n      and\n      0xffffffffffffffffffffffffffffffffffffffff\n      and\n      dup2\n      mstore\n      0x20\n      add\n      swap1\n      dup2\n      mstore\n      0x20\n      add\n      0x00\n      keccak256\n        /* \"TVNProject/TVNNFTPositioManager/TVNNFTPositionManager.sol\":1702:1735  indexOfOwnerNFT[_to][tokenIdNext] */\n      0x00\n        /* \"TVNProject/TVNNFTPositioManager/TVNNFTPositionManager.sol\":1723:1734  tokenIdNext */\n      sload(0x06)\n        /* \"TVNProject/TVNNFTPositioManager/TVNNFTPositionManager.sol\":1702:1735  indexOfOwnerNFT[_to][tokenIdNext] */\n      dup2\n      mstore\n      0x20\n      add\n      swap1\n      dup2\n      mstore\n      0x20\n      add\n      0x00\n      keccak256\n        /* \"TVNProject/TVNNFTPositioManager/TVNNFTPositionManager.sol\":1702:1762  indexOfOwnerNFT[_to][tokenIdNext] = ownerNFT[_to].length - 1 */\n      dup2\n      swap1\n      sstore\n      pop\n        /* \"TVNProject/TVNNFTPositioManager/TVNNFTPositionManager.sol\":1454:1769  function transferPosition(... */\n      pop\n      pop\n      pop\n      jump\t// out\n        /* \"LearnSolidity/ERC721/ERC721.sol\":3006:3500  function safeTransferFrom(... */\n    tag_49:\n        /* \"LearnSolidity/ERC721/ERC721.sol\":3124:3155  transferFrom(from, to, tokenId) */\n      tag_136\n        /* \"LearnSolidity/ERC721/ERC721.sol\":3137:3141  from */\n      dup4\n        /* \"LearnSolidity/ERC721/ERC721.sol\":3143:3145  to */\n      dup4\n        /* \"LearnSolidity/ERC721/ERC721.sol\":3147:3154  tokenId */\n      dup4\n        /* \"LearnSolidity/ERC721/ERC721.sol\":3124:3136  transferFrom */\n      tag_43\n        /* \"LearnSolidity/ERC721/ERC721.sol\":3124:3155  transferFrom(from, to, tokenId) */\n      jump\t// in\n    tag_136:\n        /* \"LearnSolidity/ERC721/ERC721.sol\":3204:3205  0 */\n      0x00\n        /* \"LearnSolidity/ERC721/ERC721.sol\":3186:3188  to */\n      dup3\n        /* \"LearnSolidity/ERC721/ERC721.sol\":3186:3200  to.code.length */\n      0xffffffffffffffffffffffffffffffffffffffff\n      and\n      extcodesize\n        /* \"LearnSolidity/ERC721/ERC721.sol\":3186:3205  to.code.length == 0 */\n      eq\n        /* \"LearnSolidity/ERC721/ERC721.sol\":3186:3451  to.code.length == 0 ||... */\n      dup1\n      tag_137\n      jumpi\n      pop\n        /* \"LearnSolidity/ERC721/ERC721.sol\":3410:3451  IERC721Receiver.onERC721Received.selector */\n      shl(0xe0, 0x150b7a02)\n        /* \"LearnSolidity/ERC721/ERC721.sol\":3225:3451  IERC721Receiver(to).onERC721Received(... */\n      not(0xffffffffffffffffffffffffffffffffffffffffffffffffffffffff)\n      and\n        /* \"LearnSolidity/ERC721/ERC721.sol\":3241:3243  to */\n      dup3\n        /* \"LearnSolidity/ERC721/ERC721.sol\":3225:3261  IERC721Receiver(to).onERC721Received */\n      0xffffffffffffffffffffffffffffffffffffffff\n      and\n      0x150b7a02\n        /* \"LearnSolidity/ERC721/ERC721.sol\":3283:3293  msg.sender */\n      caller\n        /* \"LearnSolidity/ERC721/ERC721.sol\":3315:3319  from */\n      dup7\n        /* \"LearnSolidity/ERC721/ERC721.sol\":3341:3348  tokenId */\n      dup6\n        /* \"LearnSolidity/ERC721/ERC721.sol\":3225:3390  IERC721Receiver(to).onERC721Received(... */\n      mload(0x40)\n      dup5\n      0xffffffff\n      and\n      0xe0\n      shl\n      dup2\n      mstore\n      0x04\n      add\n      tag_138\n      swap4\n      swap3\n      swap2\n      swap1\n      tag_139\n      jump\t// in\n    tag_138:\n      0x20\n      mload(0x40)\n      dup1\n      dup4\n      sub\n      dup2\n      0x00\n      dup8\n      gas\n      call\n      iszero\n      dup1\n      iszero\n      tag_141\n      jumpi\n      returndatasize\n      0x00\n      dup1\n      returndatacopy\n      revert(0x00, returndatasize)\n    tag_141:\n      pop\n      pop\n      pop\n      pop\n      mload(0x40)\n      returndatasize\n      not(0x1f)\n      0x1f\n      dup3\n      add\n      and\n      dup3\n      add\n      dup1\n      0x40\n      mstore\n      pop\n      dup2\n      add\n      swap1\n      tag_142\n      swap2\n      swap1\n      tag_143\n      jump\t// in\n    tag_142:\n        /* \"LearnSolidity/ERC721/ERC721.sol\":3225:3451  IERC721Receiver(to).onERC721Received(... */\n      not(0xffffffffffffffffffffffffffffffffffffffffffffffffffffffff)\n      and\n      eq\n        /* \"LearnSolidity/ERC721/ERC721.sol\":3186:3451  to.code.length == 0 ||... */\n    tag_137:\n        /* \"LearnSolidity/ERC721/ERC721.sol\":3165:3493  require(... */\n      tag_144\n      jumpi\n      mload(0x40)\n      0x08c379a000000000000000000000000000000000000000000000000000000000\n      dup2\n      mstore\n      0x04\n      add\n      tag_145\n      swap1\n      tag_146\n      jump\t// in\n    tag_145:\n      mload(0x40)\n      dup1\n      swap2\n      sub\n      swap1\n      revert\n    tag_144:\n        /* \"LearnSolidity/ERC721/ERC721.sol\":3006:3500  function safeTransferFrom(... */\n      pop\n      pop\n      pop\n      jump\t// out\n        /* \"LearnSolidity/ERC721/ERC721.sol\":1282:1458  function ownerOf(uint256 tokenId) external view returns (address owner) {... */\n    tag_52:\n        /* \"LearnSolidity/ERC721/ERC721.sol\":1339:1352  address owner */\n      0x00\n        /* \"LearnSolidity/ERC721/ERC721.sol\":1372:1380  _ownerOf */\n      dup1\n        /* \"LearnSolidity/ERC721/ERC721.sol\":1372:1389  _ownerOf[tokenId] */\n      0x00\n        /* \"LearnSolidity/ERC721/ERC721.sol\":1381:1388  tokenId */\n      dup4\n        /* \"LearnSolidity/ERC721/ERC721.sol\":1372:1389  _ownerOf[tokenId] */\n      dup2\n      mstore\n      0x20\n      add\n      swap1\n      dup2\n      mstore\n      0x20\n      add\n      0x00\n      keccak256\n      0x00\n      swap1\n      sload\n      swap1\n      0x0100\n      exp\n      swap1\n      div\n      0xffffffffffffffffffffffffffffffffffffffff\n      and\n        /* \"LearnSolidity/ERC721/ERC721.sol\":1364:1389  owner = _ownerOf[tokenId] */\n      swap1\n      pop\n        /* \"LearnSolidity/ERC721/ERC721.sol\":1424:1425  0 */\n      0x00\n        /* \"LearnSolidity/ERC721/ERC721.sol\":1407:1426  owner != address(0) */\n      0xffffffffffffffffffffffffffffffffffffffff\n      and\n        /* \"LearnSolidity/ERC721/ERC721.sol\":1407:1412  owner */\n      dup2\n        /* \"LearnSolidity/ERC721/ERC721.sol\":1407:1426  owner != address(0) */\n      0xffffffffffffffffffffffffffffffffffffffff\n      and\n      sub\n        /* \"LearnSolidity/ERC721/ERC721.sol\":1399:1451  require(owner != address(0), \"owner = zero address\") */\n      tag_148\n      jumpi\n      mload(0x40)\n      0x08c379a000000000000000000000000000000000000000000000000000000000\n      dup2\n      mstore\n      0x04\n      add\n      tag_149\n      swap1\n      tag_150\n      jump\t// in\n    tag_149:\n      mload(0x40)\n      dup1\n      swap2\n      sub\n      swap1\n      revert\n    tag_148:\n        /* \"LearnSolidity/ERC721/ERC721.sol\":1282:1458  function ownerOf(uint256 tokenId) external view returns (address owner) {... */\n      swap2\n      swap1\n      pop\n      jump\t// out\n        /* \"LearnSolidity/ERC721/ERC721.sol\":1099:1276  function balanceOf(address owner) external view returns (uint256 balance) {... */\n    tag_57:\n        /* \"LearnSolidity/ERC721/ERC721.sol\":1156:1171  uint256 balance */\n      0x00\n        /* \"LearnSolidity/ERC721/ERC721.sol\":1208:1209  0 */\n      dup1\n        /* \"LearnSolidity/ERC721/ERC721.sol\":1191:1210  owner != address(0) */\n      0xffffffffffffffffffffffffffffffffffffffff\n      and\n        /* \"LearnSolidity/ERC721/ERC721.sol\":1191:1196  owner */\n      dup3\n        /* \"LearnSolidity/ERC721/ERC721.sol\":1191:1210  owner != address(0) */\n      0xffffffffffffffffffffffffffffffffffffffff\n      and\n      sub\n        /* \"LearnSolidity/ERC721/ERC721.sol\":1183:1235  require(owner != address(0), \"owner = zero address\") */\n      tag_152\n      jumpi\n      mload(0x40)\n      0x08c379a000000000000000000000000000000000000000000000000000000000\n      dup2\n      mstore\n      0x04\n      add\n      tag_153\n      swap1\n      tag_150\n      jump\t// in\n    tag_153:\n      mload(0x40)\n      dup1\n      swap2\n      sub\n      swap1\n      revert\n    tag_152:\n        /* \"LearnSolidity/ERC721/ERC721.sol\":1252:1262  _balanceOf */\n      0x01\n        /* \"LearnSolidity/ERC721/ERC721.sol\":1252:1269  _balanceOf[owner] */\n      0x00\n        /* \"LearnSolidity/ERC721/ERC721.sol\":1263:1268  owner */\n      dup4\n        /* \"LearnSolidity/ERC721/ERC721.sol\":1252:1269  _balanceOf[owner] */\n      0xffffffffffffffffffffffffffffffffffffffff\n      and\n      0xffffffffffffffffffffffffffffffffffffffff\n      and\n      dup2\n      mstore\n      0x20\n      add\n      swap1\n      dup2\n      mstore\n      0x20\n      add\n      0x00\n      keccak256\n      sload\n        /* \"LearnSolidity/ERC721/ERC721.sol\":1245:1269  return _balanceOf[owner] */\n      swap1\n      pop\n        /* \"LearnSolidity/ERC721/ERC721.sol\":1099:1276  function balanceOf(address owner) external view returns (uint256 balance) {... */\n      swap2\n      swap1\n      pop\n      jump\t// out\n        /* \"TVNProject/TVNNFTPositioManager/TVNNFTPositionManager.sol\":499:569  mapping(address => mapping(uint256 => uint256)) public indexOfOwnerNFT */\n    tag_62:\n      mstore(0x20, 0x09)\n      dup2\n      0x00\n      mstore\n      mstore(0x20, keccak256(0x00, 0x40))\n      dup1\n      0x00\n      mstore\n      keccak256(0x00, 0x40)\n      0x00\n      swap2\n      pop\n      swap2\n      pop\n      pop\n      sload\n      dup2\n      jump\t// out\n        /* \"TVNProject/TVNNFTPositioManager/TVNNFTPositionManager.sol\":206:236  uint256 public tokenIdNext = 1 */\n    tag_65:\n      sload(0x06)\n      dup2\n      jump\t// out\n        /* \"TVNProject/TVNNFTPositioManager/TVNNFTPositionManager.sol\":392:441  mapping(uint256 => PositionInfo) public positions */\n    tag_69:\n      mstore(0x20, 0x07)\n      dup1\n      0x00\n      mstore\n      keccak256(0x00, 0x40)\n      0x00\n      swap2\n      pop\n      swap1\n      pop\n      dup1\n      0x00\n      add\n      sload\n      swap1\n      dup1\n      0x01\n      add\n      0x00\n      swap1\n      sload\n      swap1\n      0x0100\n      exp\n      swap1\n      div\n      0xffffffffffffffffffffffffffffffffffffffff\n      and\n      swap1\n      dup1\n      0x02\n      add\n      0x00\n      swap1\n      sload\n      swap1\n      0x0100\n      exp\n      swap1\n      div\n      0xffffffffffffffffffffffffffffffffffffffff\n      and\n      swap1\n      dup1\n      0x03\n      add\n      0x00\n      swap1\n      sload\n      swap1\n      0x0100\n      exp\n      swap1\n      div\n      0xffffffffffffffffffffffffffffffffffffffff\n      and\n      swap1\n      dup1\n      0x04\n      add\n      sload\n      swap1\n      pop\n      dup6\n      jump\t// out\n        /* \"LearnSolidity/ERC721/ERC721.sol\":1464:1663  function setApprovalForAll(address operator, bool _approved) external {... */\n    tag_75:\n        /* \"LearnSolidity/ERC721/ERC721.sol\":1585:1594  _approved */\n      dup1\n        /* \"LearnSolidity/ERC721/ERC721.sol\":1544:1560  isApprovalForAll */\n      0x03\n        /* \"LearnSolidity/ERC721/ERC721.sol\":1544:1572  isApprovalForAll[msg.sender] */\n      0x00\n        /* \"LearnSolidity/ERC721/ERC721.sol\":1561:1571  msg.sender */\n      caller\n        /* \"LearnSolidity/ERC721/ERC721.sol\":1544:1572  isApprovalForAll[msg.sender] */\n      0xffffffffffffffffffffffffffffffffffffffff\n      and\n      0xffffffffffffffffffffffffffffffffffffffff\n      and\n      dup2\n      mstore\n      0x20\n      add\n      swap1\n      dup2\n      mstore\n      0x20\n      add\n      0x00\n      keccak256\n        /* \"LearnSolidity/ERC721/ERC721.sol\":1544:1582  isApprovalForAll[msg.sender][operator] */\n      0x00\n        /* \"LearnSolidity/ERC721/ERC721.sol\":1573:1581  operator */\n      dup5\n        /* \"LearnSolidity/ERC721/ERC721.sol\":1544:1582  isApprovalForAll[msg.sender][operator] */\n      0xffffffffffffffffffffffffffffffffffffffff\n      and\n      0xffffffffffffffffffffffffffffffffffffffff\n      and\n      dup2\n      mstore\n      0x20\n      add\n      swap1\n      dup2\n      mstore\n      0x20\n      add\n      0x00\n      keccak256\n      0x00\n        /* \"LearnSolidity/ERC721/ERC721.sol\":1544:1594  isApprovalForAll[msg.sender][operator] = _approved */\n      0x0100\n      exp\n      dup2\n      sload\n      dup2\n      0xff\n      mul\n      not\n      and\n      swap1\n      dup4\n      iszero\n      iszero\n      mul\n      or\n      swap1\n      sstore\n      pop\n        /* \"LearnSolidity/ERC721/ERC721.sol\":1636:1644  operator */\n      dup2\n        /* \"LearnSolidity/ERC721/ERC721.sol\":1609:1656  ApprovalForAll(msg.sender, operator, _approved) */\n      0xffffffffffffffffffffffffffffffffffffffff\n      and\n        /* \"LearnSolidity/ERC721/ERC721.sol\":1624:1634  msg.sender */\n      caller\n        /* \"LearnSolidity/ERC721/ERC721.sol\":1609:1656  ApprovalForAll(msg.sender, operator, _approved) */\n      0xffffffffffffffffffffffffffffffffffffffff\n      and\n      0x17307eab39ab6107e8899845ad3d59bd9653f200f220920489ca2b5937696c31\n        /* \"LearnSolidity/ERC721/ERC721.sol\":1646:1655  _approved */\n      dup4\n        /* \"LearnSolidity/ERC721/ERC721.sol\":1609:1656  ApprovalForAll(msg.sender, operator, _approved) */\n      mload(0x40)\n      tag_155\n      swap2\n      swap1\n      tag_29\n      jump\t// in\n    tag_155:\n      mload(0x40)\n      dup1\n      swap2\n      sub\n      swap1\n      log3\n        /* \"LearnSolidity/ERC721/ERC721.sol\":1464:1663  function setApprovalForAll(address operator, bool _approved) external {... */\n      pop\n      pop\n      jump\t// out\n        /* \"TVNProject/TVNNFTPositioManager/TVNNFTPositionManager.sol\":693:1206  function mintPosition(address _to, PositionInfo calldata params) external {... */\n    tag_79:\n        /* \"TVNProject/TVNNFTPositioManager/TVNNFTPositionManager.sol\":777:800  _mint(_to, tokenIdNext) */\n      tag_157\n        /* \"TVNProject/TVNNFTPositioManager/TVNNFTPositionManager.sol\":783:786  _to */\n      dup3\n        /* \"TVNProject/TVNNFTPositioManager/TVNNFTPositionManager.sol\":788:799  tokenIdNext */\n      sload(0x06)\n        /* \"TVNProject/TVNNFTPositioManager/TVNNFTPositionManager.sol\":777:782  _mint */\n      tag_158\n        /* \"TVNProject/TVNNFTPositioManager/TVNNFTPositionManager.sol\":777:800  _mint(_to, tokenIdNext) */\n      jump\t// in\n    tag_157:\n        /* \"TVNProject/TVNNFTPositioManager/TVNNFTPositionManager.sol\":811:819  ownerNFT */\n      0x08\n        /* \"TVNProject/TVNNFTPositioManager/TVNNFTPositionManager.sol\":811:824  ownerNFT[_to] */\n      0x00\n        /* \"TVNProject/TVNNFTPositioManager/TVNNFTPositionManager.sol\":820:823  _to */\n      dup4\n        /* \"TVNProject/TVNNFTPositioManager/TVNNFTPositionManager.sol\":811:824  ownerNFT[_to] */\n      0xffffffffffffffffffffffffffffffffffffffff\n      and\n      0xffffffffffffffffffffffffffffffffffffffff\n      and\n      dup2\n      mstore\n      0x20\n      add\n      swap1\n      dup2\n      mstore\n      0x20\n      add\n      0x00\n      keccak256\n        /* \"TVNProject/TVNNFTPositioManager/TVNNFTPositionManager.sol\":830:841  tokenIdNext */\n      sload(0x06)\n        /* \"TVNProject/TVNNFTPositioManager/TVNNFTPositionManager.sol\":811:842  ownerNFT[_to].push(tokenIdNext) */\n      swap1\n      dup1\n      0x01\n      dup2\n      sload\n      add\n      dup1\n      dup3\n      sstore\n      dup1\n      swap2\n      pop\n      pop\n      0x01\n      swap1\n      sub\n      swap1\n      0x00\n      mstore\n      keccak256(0x00, 0x20)\n      add\n      0x00\n      swap1\n      swap2\n      swap1\n      swap2\n      swap1\n      swap2\n      pop\n      sstore\n        /* \"TVNProject/TVNNFTPositioManager/TVNNFTPositionManager.sol\":911:912  1 */\n      0x01\n        /* \"TVNProject/TVNNFTPositioManager/TVNNFTPositionManager.sol\":888:896  ownerNFT */\n      0x08\n        /* \"TVNProject/TVNNFTPositioManager/TVNNFTPositionManager.sol\":888:901  ownerNFT[_to] */\n      0x00\n        /* \"TVNProject/TVNNFTPositioManager/TVNNFTPositionManager.sol\":897:900  _to */\n      dup5\n        /* \"TVNProject/TVNNFTPositioManager/TVNNFTPositionManager.sol\":888:901  ownerNFT[_to] */\n      0xffffffffffffffffffffffffffffffffffffffff\n      and\n      0xffffffffffffffffffffffffffffffffffffffff\n      and\n      dup2\n      mstore\n      0x20\n      add\n      swap1\n      dup2\n      mstore\n      0x20\n      add\n      0x00\n      keccak256\n        /* \"TVNProject/TVNNFTPositioManager/TVNNFTPositionManager.sol\":888:908  ownerNFT[_to].length */\n      dup1\n      sload\n      swap1\n      pop\n        /* \"TVNProject/TVNNFTPositioManager/TVNNFTPositionManager.sol\":888:912  ownerNFT[_to].length - 1 */\n      tag_160\n      swap2\n      swap1\n      tag_134\n      jump\t// in\n    tag_160:\n        /* \"TVNProject/TVNNFTPositioManager/TVNNFTPositionManager.sol\":852:867  indexOfOwnerNFT */\n      0x09\n        /* \"TVNProject/TVNNFTPositioManager/TVNNFTPositionManager.sol\":852:872  indexOfOwnerNFT[_to] */\n      0x00\n        /* \"TVNProject/TVNNFTPositioManager/TVNNFTPositionManager.sol\":868:871  _to */\n      dup5\n        /* \"TVNProject/TVNNFTPositioManager/TVNNFTPositionManager.sol\":852:872  indexOfOwnerNFT[_to] */\n      0xffffffffffffffffffffffffffffffffffffffff\n      and\n      0xffffffffffffffffffffffffffffffffffffffff\n      and\n      dup2\n      mstore\n      0x20\n      add\n      swap1\n      dup2\n      mstore\n      0x20\n      add\n      0x00\n      keccak256\n        /* \"TVNProject/TVNNFTPositioManager/TVNNFTPositionManager.sol\":852:885  indexOfOwnerNFT[_to][tokenIdNext] */\n      0x00\n        /* \"TVNProject/TVNNFTPositioManager/TVNNFTPositionManager.sol\":873:884  tokenIdNext */\n      sload(0x06)\n        /* \"TVNProject/TVNNFTPositioManager/TVNNFTPositionManager.sol\":852:885  indexOfOwnerNFT[_to][tokenIdNext] */\n      dup2\n      mstore\n      0x20\n      add\n      swap1\n      dup2\n      mstore\n      0x20\n      add\n      0x00\n      keccak256\n        /* \"TVNProject/TVNNFTPositioManager/TVNNFTPositionManager.sol\":852:912  indexOfOwnerNFT[_to][tokenIdNext] = ownerNFT[_to].length - 1 */\n      dup2\n      swap1\n      sstore\n      pop\n        /* \"TVNProject/TVNNFTPositioManager/TVNNFTPositionManager.sol\":923:952  PositionInfo storage position */\n      0x00\n        /* \"TVNProject/TVNNFTPositioManager/TVNNFTPositionManager.sol\":955:964  positions */\n      0x07\n        /* \"TVNProject/TVNNFTPositioManager/TVNNFTPositionManager.sol\":955:977  positions[tokenIdNext] */\n      0x00\n        /* \"TVNProject/TVNNFTPositioManager/TVNNFTPositionManager.sol\":965:976  tokenIdNext */\n      sload(0x06)\n        /* \"TVNProject/TVNNFTPositioManager/TVNNFTPositionManager.sol\":955:977  positions[tokenIdNext] */\n      dup2\n      mstore\n      0x20\n      add\n      swap1\n      dup2\n      mstore\n      0x20\n      add\n      0x00\n      keccak256\n        /* \"TVNProject/TVNNFTPositioManager/TVNNFTPositionManager.sol\":923:977  PositionInfo storage position = positions[tokenIdNext] */\n      swap1\n      pop\n        /* \"TVNProject/TVNNFTPositioManager/TVNNFTPositionManager.sol\":1006:1012  params */\n      dup2\n        /* \"TVNProject/TVNNFTPositioManager/TVNNFTPositionManager.sol\":1006:1019  params.shares */\n      0x00\n      add\n      calldataload\n        /* \"TVNProject/TVNNFTPositioManager/TVNNFTPositionManager.sol\":988:996  position */\n      dup2\n        /* \"TVNProject/TVNNFTPositioManager/TVNNFTPositionManager.sol\":988:1003  position.shares */\n      0x00\n      add\n        /* \"TVNProject/TVNNFTPositioManager/TVNNFTPositionManager.sol\":988:1019  position.shares = params.shares */\n      dup2\n      swap1\n      sstore\n      pop\n        /* \"TVNProject/TVNNFTPositioManager/TVNNFTPositionManager.sol\":1046:1052  params */\n      dup2\n        /* \"TVNProject/TVNNFTPositioManager/TVNNFTPositionManager.sol\":1046:1058  params.owner */\n      0x20\n      add\n      0x20\n      dup2\n      add\n      swap1\n      tag_161\n      swap2\n      swap1\n      tag_56\n      jump\t// in\n    tag_161:\n        /* \"TVNProject/TVNNFTPositioManager/TVNNFTPositionManager.sol\":1029:1037  position */\n      dup2\n        /* \"TVNProject/TVNNFTPositioManager/TVNNFTPositionManager.sol\":1029:1043  position.owner */\n      0x01\n      add\n      0x00\n        /* \"TVNProject/TVNNFTPositioManager/TVNNFTPositionManager.sol\":1029:1058  position.owner = params.owner */\n      0x0100\n      exp\n      dup2\n      sload\n      dup2\n      0xffffffffffffffffffffffffffffffffffffffff\n      mul\n      not\n      and\n      swap1\n      dup4\n      0xffffffffffffffffffffffffffffffffffffffff\n      and\n      mul\n      or\n      swap1\n      sstore\n      pop\n        /* \"TVNProject/TVNNFTPositioManager/TVNNFTPositionManager.sol\":1086:1092  params */\n      dup2\n        /* \"TVNProject/TVNNFTPositioManager/TVNNFTPositionManager.sol\":1086:1099  params.token0 */\n      0x40\n      add\n      0x20\n      dup2\n      add\n      swap1\n      tag_162\n      swap2\n      swap1\n      tag_56\n      jump\t// in\n    tag_162:\n        /* \"TVNProject/TVNNFTPositioManager/TVNNFTPositionManager.sol\":1068:1076  position */\n      dup2\n        /* \"TVNProject/TVNNFTPositioManager/TVNNFTPositionManager.sol\":1068:1083  position.token0 */\n      0x02\n      add\n      0x00\n        /* \"TVNProject/TVNNFTPositioManager/TVNNFTPositionManager.sol\":1068:1099  position.token0 = params.token0 */\n      0x0100\n      exp\n      dup2\n      sload\n      dup2\n      0xffffffffffffffffffffffffffffffffffffffff\n      mul\n      not\n      and\n      swap1\n      dup4\n      0xffffffffffffffffffffffffffffffffffffffff\n      and\n      mul\n      or\n      swap1\n      sstore\n      pop\n        /* \"TVNProject/TVNNFTPositioManager/TVNNFTPositionManager.sol\":1127:1133  params */\n      dup2\n        /* \"TVNProject/TVNNFTPositioManager/TVNNFTPositionManager.sol\":1127:1140  params.token1 */\n      0x60\n      add\n      0x20\n      dup2\n      add\n      swap1\n      tag_163\n      swap2\n      swap1\n      tag_56\n      jump\t// in\n    tag_163:\n        /* \"TVNProject/TVNNFTPositioManager/TVNNFTPositionManager.sol\":1109:1117  position */\n      dup2\n        /* \"TVNProject/TVNNFTPositioManager/TVNNFTPositionManager.sol\":1109:1124  position.token1 */\n      0x03\n      add\n      0x00\n        /* \"TVNProject/TVNNFTPositioManager/TVNNFTPositionManager.sol\":1109:1140  position.token1 = params.token1 */\n      0x0100\n      exp\n      dup2\n      sload\n      dup2\n      0xffffffffffffffffffffffffffffffffffffffff\n      mul\n      not\n      and\n      swap1\n      dup4\n      0xffffffffffffffffffffffffffffffffffffffff\n      and\n      mul\n      or\n      swap1\n      sstore\n      pop\n        /* \"TVNProject/TVNNFTPositioManager/TVNNFTPositionManager.sol\":1165:1171  params */\n      dup2\n        /* \"TVNProject/TVNNFTPositioManager/TVNNFTPositionManager.sol\":1165:1175  params.fee */\n      0x80\n      add\n      calldataload\n        /* \"TVNProject/TVNNFTPositioManager/TVNNFTPositionManager.sol\":1150:1158  position */\n      dup2\n        /* \"TVNProject/TVNNFTPositioManager/TVNNFTPositionManager.sol\":1150:1162  position.fee */\n      0x04\n      add\n        /* \"TVNProject/TVNNFTPositioManager/TVNNFTPositionManager.sol\":1150:1175  position.fee = params.fee */\n      dup2\n      swap1\n      sstore\n      pop\n        /* \"TVNProject/TVNNFTPositioManager/TVNNFTPositionManager.sol\":1186:1197  tokenIdNext */\n      0x06\n      0x00\n        /* \"TVNProject/TVNNFTPositioManager/TVNNFTPositionManager.sol\":1186:1199  tokenIdNext++ */\n      dup2\n      sload\n      dup1\n      swap3\n      swap2\n      swap1\n      tag_164\n      swap1\n      tag_127\n      jump\t// in\n    tag_164:\n      swap2\n      swap1\n      pop\n      sstore\n      pop\n        /* \"TVNProject/TVNNFTPositioManager/TVNNFTPositionManager.sol\":767:1206  {... */\n      pop\n        /* \"TVNProject/TVNNFTPositioManager/TVNNFTPositionManager.sol\":693:1206  function mintPosition(address _to, PositionInfo calldata params) external {... */\n      pop\n      pop\n      jump\t// out\n        /* \"LearnSolidity/ERC721/ERC721.sol\":3506:4031  function safeTransferFrom(... */\n    tag_83:\n        /* \"LearnSolidity/ERC721/ERC721.sol\":3653:3684  transferFrom(from, to, tokenId) */\n      tag_166\n        /* \"LearnSolidity/ERC721/ERC721.sol\":3666:3670  from */\n      dup6\n        /* \"LearnSolidity/ERC721/ERC721.sol\":3672:3674  to */\n      dup6\n        /* \"LearnSolidity/ERC721/ERC721.sol\":3676:3683  tokenId */\n      dup6\n        /* \"LearnSolidity/ERC721/ERC721.sol\":3653:3665  transferFrom */\n      tag_43\n        /* \"LearnSolidity/ERC721/ERC721.sol\":3653:3684  transferFrom(from, to, tokenId) */\n      jump\t// in\n    tag_166:\n        /* \"LearnSolidity/ERC721/ERC721.sol\":3733:3734  0 */\n      0x00\n        /* \"LearnSolidity/ERC721/ERC721.sol\":3715:3717  to */\n      dup5\n        /* \"LearnSolidity/ERC721/ERC721.sol\":3715:3729  to.code.length */\n      0xffffffffffffffffffffffffffffffffffffffff\n      and\n      extcodesize\n        /* \"LearnSolidity/ERC721/ERC721.sol\":3715:3734  to.code.length == 0 */\n      eq\n        /* \"LearnSolidity/ERC721/ERC721.sol\":3715:3982  to.code.length == 0 ||... */\n      dup1\n      tag_167\n      jumpi\n      pop\n        /* \"LearnSolidity/ERC721/ERC721.sol\":3941:3982  IERC721Receiver.onERC721Received.selector */\n      shl(0xe0, 0x150b7a02)\n        /* \"LearnSolidity/ERC721/ERC721.sol\":3754:3982  IERC721Receiver(to).onERC721Received(... */\n      not(0xffffffffffffffffffffffffffffffffffffffffffffffffffffffff)\n      and\n        /* \"LearnSolidity/ERC721/ERC721.sol\":3770:3772  to */\n      dup5\n        /* \"LearnSolidity/ERC721/ERC721.sol\":3754:3790  IERC721Receiver(to).onERC721Received */\n      0xffffffffffffffffffffffffffffffffffffffff\n      and\n      0x150b7a02\n        /* \"LearnSolidity/ERC721/ERC721.sol\":3812:3822  msg.sender */\n      caller\n        /* \"LearnSolidity/ERC721/ERC721.sol\":3844:3848  from */\n      dup9\n        /* \"LearnSolidity/ERC721/ERC721.sol\":3870:3877  tokenId */\n      dup8\n        /* \"LearnSolidity/ERC721/ERC721.sol\":3899:3903  data */\n      dup8\n      dup8\n        /* \"LearnSolidity/ERC721/ERC721.sol\":3754:3921  IERC721Receiver(to).onERC721Received(... */\n      mload(0x40)\n      dup7\n      0xffffffff\n      and\n      0xe0\n      shl\n      dup2\n      mstore\n      0x04\n      add\n      tag_168\n      swap6\n      swap5\n      swap4\n      swap3\n      swap2\n      swap1\n      tag_169\n      jump\t// in\n    tag_168:\n      0x20\n      mload(0x40)\n      dup1\n      dup4\n      sub\n      dup2\n      0x00\n      dup8\n      gas\n      call\n      iszero\n      dup1\n      iszero\n      tag_171\n      jumpi\n      returndatasize\n      0x00\n      dup1\n      returndatacopy\n      revert(0x00, returndatasize)\n    tag_171:\n      pop\n      pop\n      pop\n      pop\n      mload(0x40)\n      returndatasize\n      not(0x1f)\n      0x1f\n      dup3\n      add\n      and\n      dup3\n      add\n      dup1\n      0x40\n      mstore\n      pop\n      dup2\n      add\n      swap1\n      tag_172\n      swap2\n      swap1\n      tag_143\n      jump\t// in\n    tag_172:\n        /* \"LearnSolidity/ERC721/ERC721.sol\":3754:3982  IERC721Receiver(to).onERC721Received(... */\n      not(0xffffffffffffffffffffffffffffffffffffffffffffffffffffffff)\n      and\n      eq\n        /* \"LearnSolidity/ERC721/ERC721.sol\":3715:3982  to.code.length == 0 ||... */\n    tag_167:\n        /* \"LearnSolidity/ERC721/ERC721.sol\":3694:4024  require(... */\n      tag_173\n      jumpi\n      mload(0x40)\n      0x08c379a000000000000000000000000000000000000000000000000000000000\n      dup2\n      mstore\n      0x04\n      add\n      tag_174\n      swap1\n      tag_146\n      jump\t// in\n    tag_174:\n      mload(0x40)\n      dup1\n      swap2\n      sub\n      swap1\n      revert\n    tag_173:\n        /* \"LearnSolidity/ERC721/ERC721.sol\":3506:4031  function safeTransferFrom(... */\n      pop\n      pop\n      pop\n      pop\n      pop\n      jump\t// out\n        /* \"TVNProject/TVNNFTPositioManager/TVNNFTPositionManager.sol\":2374:2518  function getOwnerNFT(address _owner)... */\n    tag_86:\n        /* \"TVNProject/TVNNFTPositioManager/TVNNFTPositionManager.sol\":2456:2472  uint256[] memory */\n      0x60\n        /* \"TVNProject/TVNNFTPositioManager/TVNNFTPositionManager.sol\":2495:2503  ownerNFT */\n      0x08\n        /* \"TVNProject/TVNNFTPositioManager/TVNNFTPositionManager.sol\":2495:2511  ownerNFT[_owner] */\n      0x00\n        /* \"TVNProject/TVNNFTPositioManager/TVNNFTPositionManager.sol\":2504:2510  _owner */\n      dup4\n        /* \"TVNProject/TVNNFTPositioManager/TVNNFTPositionManager.sol\":2495:2511  ownerNFT[_owner] */\n      0xffffffffffffffffffffffffffffffffffffffff\n      and\n      0xffffffffffffffffffffffffffffffffffffffff\n      and\n      dup2\n      mstore\n      0x20\n      add\n      swap1\n      dup2\n      mstore\n      0x20\n      add\n      0x00\n      keccak256\n        /* \"TVNProject/TVNNFTPositioManager/TVNNFTPositionManager.sol\":2488:2511  return ownerNFT[_owner] */\n      dup1\n      sload\n      dup1\n      0x20\n      mul\n      0x20\n      add\n      mload(0x40)\n      swap1\n      dup2\n      add\n      0x40\n      mstore\n      dup1\n      swap3\n      swap2\n      swap1\n      dup2\n      dup2\n      mstore\n      0x20\n      add\n      dup3\n      dup1\n      sload\n      dup1\n      iszero\n      tag_176\n      jumpi\n      0x20\n      mul\n      dup3\n      add\n      swap2\n      swap1\n      0x00\n      mstore\n      keccak256(0x00, 0x20)\n      swap1\n    tag_177:\n      dup2\n      sload\n      dup2\n      mstore\n      0x20\n      add\n      swap1\n      0x01\n      add\n      swap1\n      dup1\n      dup4\n      gt\n      tag_177\n      jumpi\n    tag_176:\n      pop\n      pop\n      pop\n      pop\n      pop\n      swap1\n      pop\n        /* \"TVNProject/TVNNFTPositioManager/TVNNFTPositionManager.sol\":2374:2518  function getOwnerNFT(address _owner)... */\n      swap2\n      swap1\n      pop\n      jump\t// out\n        /* \"TVNProject/TVNNFTPositioManager/TVNNFTPositionManager.sol\":448:493  mapping(address => uint256[]) public ownerNFT */\n    tag_91:\n      mstore(0x20, 0x08)\n      dup2\n      0x00\n      mstore\n      keccak256(0x00, 0x40)\n      dup2\n      dup2\n      sload\n      dup2\n      lt\n      tag_178\n      jumpi\n      0x00\n      dup1\n      revert\n    tag_178:\n      swap1\n      0x00\n      mstore\n      keccak256(0x00, 0x20)\n      add\n      0x00\n      swap2\n      pop\n      swap2\n      pop\n      pop\n      sload\n      dup2\n      jump\t// out\n        /* \"LearnSolidity/ERC721/ERC721.sol\":782:850  mapping(address => mapping(address => bool)) public isApprovalForAll */\n    tag_96:\n      mstore(0x20, 0x03)\n      dup2\n      0x00\n      mstore\n      mstore(0x20, keccak256(0x00, 0x40))\n      dup1\n      0x00\n      mstore\n      keccak256(0x00, 0x40)\n      0x00\n      swap2\n      pop\n      swap2\n      pop\n      swap1\n      sload\n      swap1\n      0x0100\n      exp\n      swap1\n      div\n      0xff\n      and\n      dup2\n      jump\t// out\n        /* \"TVNProject/TVNNFTPositioManager/TVNNFTPositionManager.sol\":1212:1448  function burnPosition(uint256 _tokenId, address _from) external {... */\n    tag_101:\n        /* \"TVNProject/TVNNFTPositioManager/TVNNFTPositionManager.sol\":1303:1311  _ownerOf */\n      0x00\n        /* \"TVNProject/TVNNFTPositioManager/TVNNFTPositionManager.sol\":1303:1321  _ownerOf[_tokenId] */\n      dup1\n        /* \"TVNProject/TVNNFTPositioManager/TVNNFTPositionManager.sol\":1312:1320  _tokenId */\n      dup4\n        /* \"TVNProject/TVNNFTPositioManager/TVNNFTPositionManager.sol\":1303:1321  _ownerOf[_tokenId] */\n      dup2\n      mstore\n      0x20\n      add\n      swap1\n      dup2\n      mstore\n      0x20\n      add\n      0x00\n      keccak256\n      0x00\n      swap1\n      sload\n      swap1\n      0x0100\n      exp\n      swap1\n      div\n      0xffffffffffffffffffffffffffffffffffffffff\n      and\n        /* \"TVNProject/TVNNFTPositioManager/TVNNFTPositionManager.sol\":1294:1321  _from == _ownerOf[_tokenId] */\n      0xffffffffffffffffffffffffffffffffffffffff\n      and\n        /* \"TVNProject/TVNNFTPositioManager/TVNNFTPositionManager.sol\":1294:1299  _from */\n      dup2\n        /* \"TVNProject/TVNNFTPositioManager/TVNNFTPositionManager.sol\":1294:1321  _from == _ownerOf[_tokenId] */\n      0xffffffffffffffffffffffffffffffffffffffff\n      and\n      eq\n        /* \"TVNProject/TVNNFTPositioManager/TVNNFTPositionManager.sol\":1286:1335  require(_from == _ownerOf[_tokenId], \"not Owner\") */\n      tag_181\n      jumpi\n      mload(0x40)\n      0x08c379a000000000000000000000000000000000000000000000000000000000\n      dup2\n      mstore\n      0x04\n      add\n      tag_182\n      swap1\n      tag_183\n      jump\t// in\n    tag_182:\n      mload(0x40)\n      dup1\n      swap2\n      sub\n      swap1\n      revert\n    tag_181:\n        /* \"TVNProject/TVNNFTPositioManager/TVNNFTPositionManager.sol\":1345:1360  _burn(_tokenId) */\n      tag_184\n        /* \"TVNProject/TVNNFTPositioManager/TVNNFTPositionManager.sol\":1351:1359  _tokenId */\n      dup3\n        /* \"TVNProject/TVNNFTPositioManager/TVNNFTPositionManager.sol\":1345:1350  _burn */\n      tag_185\n        /* \"TVNProject/TVNNFTPositioManager/TVNNFTPositionManager.sol\":1345:1360  _burn(_tokenId) */\n      jump\t// in\n    tag_184:\n        /* \"TVNProject/TVNNFTPositioManager/TVNNFTPositionManager.sol\":1371:1404  _removeFromArray(_tokenId, _from) */\n      tag_186\n        /* \"TVNProject/TVNNFTPositioManager/TVNNFTPositionManager.sol\":1388:1396  _tokenId */\n      dup3\n        /* \"TVNProject/TVNNFTPositioManager/TVNNFTPositionManager.sol\":1398:1403  _from */\n      dup3\n        /* \"TVNProject/TVNNFTPositioManager/TVNNFTPositionManager.sol\":1371:1387  _removeFromArray */\n      tag_131\n        /* \"TVNProject/TVNNFTPositioManager/TVNNFTPositionManager.sol\":1371:1404  _removeFromArray(_tokenId, _from) */\n      jump\t// in\n    tag_186:\n        /* \"TVNProject/TVNNFTPositioManager/TVNNFTPositionManager.sol\":1422:1431  positions */\n      0x07\n        /* \"TVNProject/TVNNFTPositioManager/TVNNFTPositionManager.sol\":1422:1441  positions[_tokenId] */\n      0x00\n        /* \"TVNProject/TVNNFTPositioManager/TVNNFTPositionManager.sol\":1432:1440  _tokenId */\n      dup4\n        /* \"TVNProject/TVNNFTPositioManager/TVNNFTPositionManager.sol\":1422:1441  positions[_tokenId] */\n      dup2\n      mstore\n      0x20\n      add\n      swap1\n      dup2\n      mstore\n      0x20\n      add\n      0x00\n      keccak256\n      0x00\n        /* \"TVNProject/TVNNFTPositioManager/TVNNFTPositionManager.sol\":1415:1441  delete positions[_tokenId] */\n      dup1\n      dup3\n      add\n      0x00\n      swap1\n      sstore\n      0x01\n      dup3\n      add\n      exp(0x0100, 0x00)\n      dup2\n      sload\n      swap1\n      0xffffffffffffffffffffffffffffffffffffffff\n      mul\n      not\n      and\n      swap1\n      sstore\n      0x02\n      dup3\n      add\n      exp(0x0100, 0x00)\n      dup2\n      sload\n      swap1\n      0xffffffffffffffffffffffffffffffffffffffff\n      mul\n      not\n      and\n      swap1\n      sstore\n      0x03\n      dup3\n      add\n      exp(0x0100, 0x00)\n      dup2\n      sload\n      swap1\n      0xffffffffffffffffffffffffffffffffffffffff\n      mul\n      not\n      and\n      swap1\n      sstore\n      0x04\n      dup3\n      add\n      0x00\n      swap1\n      sstore\n      pop\n      pop\n        /* \"TVNProject/TVNNFTPositioManager/TVNNFTPositionManager.sol\":1212:1448  function burnPosition(uint256 _tokenId, address _from) external {... */\n      pop\n      pop\n      jump\t// out\n        /* \"LearnSolidity/ERC721/ERC721.sol\":2215:2487  function _isApprovedOrOwner(... */\n    tag_121:\n        /* \"LearnSolidity/ERC721/ERC721.sol\":2345:2349  bool */\n      0x00\n        /* \"LearnSolidity/ERC721/ERC721.sol\":2380:2385  owner */\n      dup4\n        /* \"LearnSolidity/ERC721/ERC721.sol\":2369:2385  spender == owner */\n      0xffffffffffffffffffffffffffffffffffffffff\n      and\n        /* \"LearnSolidity/ERC721/ERC721.sol\":2369:2376  spender */\n      dup4\n        /* \"LearnSolidity/ERC721/ERC721.sol\":2369:2385  spender == owner */\n      0xffffffffffffffffffffffffffffffffffffffff\n      and\n      eq\n        /* \"LearnSolidity/ERC721/ERC721.sol\":2369:2433  spender == owner ||... */\n      dup1\n      tag_188\n      jumpi\n      pop\n        /* \"LearnSolidity/ERC721/ERC721.sol\":2401:2417  isApprovalForAll */\n      0x03\n        /* \"LearnSolidity/ERC721/ERC721.sol\":2401:2424  isApprovalForAll[owner] */\n      0x00\n        /* \"LearnSolidity/ERC721/ERC721.sol\":2418:2423  owner */\n      dup6\n        /* \"LearnSolidity/ERC721/ERC721.sol\":2401:2424  isApprovalForAll[owner] */\n      0xffffffffffffffffffffffffffffffffffffffff\n      and\n      0xffffffffffffffffffffffffffffffffffffffff\n      and\n      dup2\n      mstore\n      0x20\n      add\n      swap1\n      dup2\n      mstore\n      0x20\n      add\n      0x00\n      keccak256\n        /* \"LearnSolidity/ERC721/ERC721.sol\":2401:2433  isApprovalForAll[owner][spender] */\n      0x00\n        /* \"LearnSolidity/ERC721/ERC721.sol\":2425:2432  spender */\n      dup5\n        /* \"LearnSolidity/ERC721/ERC721.sol\":2401:2433  isApprovalForAll[owner][spender] */\n      0xffffffffffffffffffffffffffffffffffffffff\n      and\n      0xffffffffffffffffffffffffffffffffffffffff\n      and\n      dup2\n      mstore\n      0x20\n      add\n      swap1\n      dup2\n      mstore\n      0x20\n      add\n      0x00\n      keccak256\n      0x00\n      swap1\n      sload\n      swap1\n      0x0100\n      exp\n      swap1\n      div\n      0xff\n      and\n        /* \"LearnSolidity/ERC721/ERC721.sol\":2369:2433  spender == owner ||... */\n    tag_188:\n        /* \"LearnSolidity/ERC721/ERC721.sol\":2369:2479  spender == owner ||... */\n      dup1\n      tag_189\n      jumpi\n      pop\n        /* \"LearnSolidity/ERC721/ERC721.sol\":2460:2470  _approvals */\n      0x02\n        /* \"LearnSolidity/ERC721/ERC721.sol\":2460:2479  _approvals[tokenId] */\n      0x00\n        /* \"LearnSolidity/ERC721/ERC721.sol\":2471:2478  tokenId */\n      dup4\n        /* \"LearnSolidity/ERC721/ERC721.sol\":2460:2479  _approvals[tokenId] */\n      dup2\n      mstore\n      0x20\n      add\n      swap1\n      dup2\n      mstore\n      0x20\n      add\n      0x00\n      keccak256\n      0x00\n      swap1\n      sload\n      swap1\n      0x0100\n      exp\n      swap1\n      div\n      0xffffffffffffffffffffffffffffffffffffffff\n      and\n        /* \"LearnSolidity/ERC721/ERC721.sol\":2449:2479  spender == _approvals[tokenId] */\n      0xffffffffffffffffffffffffffffffffffffffff\n      and\n        /* \"LearnSolidity/ERC721/ERC721.sol\":2449:2456  spender */\n      dup4\n        /* \"LearnSolidity/ERC721/ERC721.sol\":2449:2479  spender == _approvals[tokenId] */\n      0xffffffffffffffffffffffffffffffffffffffff\n      and\n      eq\n        /* \"LearnSolidity/ERC721/ERC721.sol\":2369:2479  spender == owner ||... */\n    tag_189:\n        /* \"LearnSolidity/ERC721/ERC721.sol\":2361:2480  return (spender == owner ||... */\n      swap1\n      pop\n        /* \"LearnSolidity/ERC721/ERC721.sol\":2215:2487  function _isApprovedOrOwner(... */\n      swap4\n      swap3\n      pop\n      pop\n      pop\n      jump\t// out\n        /* \"TVNProject/TVNNFTPositioManager/TVNNFTPositionManager.sol\":1775:2368  function _removeFromArray(uint256 _tokenId, address _from) private {... */\n    tag_131:\n        /* \"TVNProject/TVNNFTPositioManager/TVNNFTPositionManager.sol\":1852:1865  uint256 index */\n      0x00\n        /* \"TVNProject/TVNNFTPositioManager/TVNNFTPositionManager.sol\":1868:1883  indexOfOwnerNFT */\n      0x09\n        /* \"TVNProject/TVNNFTPositioManager/TVNNFTPositionManager.sol\":1868:1890  indexOfOwnerNFT[_from] */\n      0x00\n        /* \"TVNProject/TVNNFTPositioManager/TVNNFTPositionManager.sol\":1884:1889  _from */\n      dup4\n        /* \"TVNProject/TVNNFTPositioManager/TVNNFTPositionManager.sol\":1868:1890  indexOfOwnerNFT[_from] */\n      0xffffffffffffffffffffffffffffffffffffffff\n      and\n      0xffffffffffffffffffffffffffffffffffffffff\n      and\n      dup2\n      mstore\n      0x20\n      add\n      swap1\n      dup2\n      mstore\n      0x20\n      add\n      0x00\n      keccak256\n        /* \"TVNProject/TVNNFTPositioManager/TVNNFTPositionManager.sol\":1868:1900  indexOfOwnerNFT[_from][_tokenId] */\n      0x00\n        /* \"TVNProject/TVNNFTPositioManager/TVNNFTPositionManager.sol\":1891:1899  _tokenId */\n      dup5\n        /* \"TVNProject/TVNNFTPositioManager/TVNNFTPositionManager.sol\":1868:1900  indexOfOwnerNFT[_from][_tokenId] */\n      dup2\n      mstore\n      0x20\n      add\n      swap1\n      dup2\n      mstore\n      0x20\n      add\n      0x00\n      keccak256\n      sload\n        /* \"TVNProject/TVNNFTPositioManager/TVNNFTPositionManager.sol\":1852:1900  uint256 index = indexOfOwnerNFT[_from][_tokenId] */\n      swap1\n      pop\n        /* \"TVNProject/TVNNFTPositioManager/TVNNFTPositionManager.sol\":1910:1924  uint256 length */\n      0x00\n        /* \"TVNProject/TVNNFTPositioManager/TVNNFTPositionManager.sol\":1927:1935  ownerNFT */\n      0x08\n        /* \"TVNProject/TVNNFTPositioManager/TVNNFTPositionManager.sol\":1927:1942  ownerNFT[_from] */\n      0x00\n        /* \"TVNProject/TVNNFTPositioManager/TVNNFTPositionManager.sol\":1936:1941  _from */\n      dup5\n        /* \"TVNProject/TVNNFTPositioManager/TVNNFTPositionManager.sol\":1927:1942  ownerNFT[_from] */\n      0xffffffffffffffffffffffffffffffffffffffff\n      and\n      0xffffffffffffffffffffffffffffffffffffffff\n      and\n      dup2\n      mstore\n      0x20\n      add\n      swap1\n      dup2\n      mstore\n      0x20\n      add\n      0x00\n      keccak256\n        /* \"TVNProject/TVNNFTPositioManager/TVNNFTPositionManager.sol\":1927:1949  ownerNFT[_from].length */\n      dup1\n      sload\n      swap1\n      pop\n        /* \"TVNProject/TVNNFTPositioManager/TVNNFTPositionManager.sol\":1910:1949  uint256 length = ownerNFT[_from].length */\n      swap1\n      pop\n        /* \"TVNProject/TVNNFTPositioManager/TVNNFTPositionManager.sol\":1974:1975  1 */\n      0x01\n        /* \"TVNProject/TVNNFTPositioManager/TVNNFTPositionManager.sol\":1964:1970  length */\n      dup2\n        /* \"TVNProject/TVNNFTPositioManager/TVNNFTPositionManager.sol\":1964:1975  length == 1 */\n      sub\n        /* \"TVNProject/TVNNFTPositioManager/TVNNFTPositionManager.sol\":1960:2362  if (length == 1) {... */\n      tag_191\n      jumpi\n        /* \"TVNProject/TVNNFTPositioManager/TVNNFTPositionManager.sol\":1998:2006  ownerNFT */\n      0x08\n        /* \"TVNProject/TVNNFTPositioManager/TVNNFTPositionManager.sol\":1998:2013  ownerNFT[_from] */\n      0x00\n        /* \"TVNProject/TVNNFTPositioManager/TVNNFTPositionManager.sol\":2007:2012  _from */\n      dup5\n        /* \"TVNProject/TVNNFTPositioManager/TVNNFTPositionManager.sol\":1998:2013  ownerNFT[_from] */\n      0xffffffffffffffffffffffffffffffffffffffff\n      and\n      0xffffffffffffffffffffffffffffffffffffffff\n      and\n      dup2\n      mstore\n      0x20\n      add\n      swap1\n      dup2\n      mstore\n      0x20\n      add\n      0x00\n      keccak256\n      0x00\n        /* \"TVNProject/TVNNFTPositioManager/TVNNFTPositionManager.sol\":1991:2013  delete ownerNFT[_from] */\n      tag_192\n      swap2\n      swap1\n      tag_193\n      jump\t// in\n    tag_192:\n        /* \"TVNProject/TVNNFTPositioManager/TVNNFTPositionManager.sol\":2062:2063  0 */\n      0x00\n        /* \"TVNProject/TVNNFTPositioManager/TVNNFTPositionManager.sol\":2027:2042  indexOfOwnerNFT */\n      0x09\n        /* \"TVNProject/TVNNFTPositioManager/TVNNFTPositionManager.sol\":2027:2049  indexOfOwnerNFT[_from] */\n      0x00\n        /* \"TVNProject/TVNNFTPositioManager/TVNNFTPositionManager.sol\":2043:2048  _from */\n      dup6\n        /* \"TVNProject/TVNNFTPositioManager/TVNNFTPositionManager.sol\":2027:2049  indexOfOwnerNFT[_from] */\n      0xffffffffffffffffffffffffffffffffffffffff\n      and\n      0xffffffffffffffffffffffffffffffffffffffff\n      and\n      dup2\n      mstore\n      0x20\n      add\n      swap1\n      dup2\n      mstore\n      0x20\n      add\n      0x00\n      keccak256\n        /* \"TVNProject/TVNNFTPositioManager/TVNNFTPositionManager.sol\":2027:2059  indexOfOwnerNFT[_from][_tokenId] */\n      0x00\n        /* \"TVNProject/TVNNFTPositioManager/TVNNFTPositionManager.sol\":2050:2058  _tokenId */\n      dup7\n        /* \"TVNProject/TVNNFTPositioManager/TVNNFTPositionManager.sol\":2027:2059  indexOfOwnerNFT[_from][_tokenId] */\n      dup2\n      mstore\n      0x20\n      add\n      swap1\n      dup2\n      mstore\n      0x20\n      add\n      0x00\n      keccak256\n        /* \"TVNProject/TVNNFTPositioManager/TVNNFTPositionManager.sol\":2027:2063  indexOfOwnerNFT[_from][_tokenId] = 0 */\n      dup2\n      swap1\n      sstore\n      pop\n        /* \"TVNProject/TVNNFTPositioManager/TVNNFTPositionManager.sol\":1960:2362  if (length == 1) {... */\n      jump(tag_194)\n    tag_191:\n        /* \"TVNProject/TVNNFTPositioManager/TVNNFTPositionManager.sol\":2094:2113  uint256 lastTokenId */\n      0x00\n        /* \"TVNProject/TVNNFTPositioManager/TVNNFTPositionManager.sol\":2116:2124  ownerNFT */\n      0x08\n        /* \"TVNProject/TVNNFTPositioManager/TVNNFTPositionManager.sol\":2116:2131  ownerNFT[_from] */\n      0x00\n        /* \"TVNProject/TVNNFTPositioManager/TVNNFTPositionManager.sol\":2125:2130  _from */\n      dup6\n        /* \"TVNProject/TVNNFTPositioManager/TVNNFTPositionManager.sol\":2116:2131  ownerNFT[_from] */\n      0xffffffffffffffffffffffffffffffffffffffff\n      and\n      0xffffffffffffffffffffffffffffffffffffffff\n      and\n      dup2\n      mstore\n      0x20\n      add\n      swap1\n      dup2\n      mstore\n      0x20\n      add\n      0x00\n      keccak256\n        /* \"TVNProject/TVNNFTPositioManager/TVNNFTPositionManager.sol\":2141:2142  1 */\n      0x01\n        /* \"TVNProject/TVNNFTPositioManager/TVNNFTPositionManager.sol\":2132:2138  length */\n      dup4\n        /* \"TVNProject/TVNNFTPositioManager/TVNNFTPositionManager.sol\":2132:2142  length - 1 */\n      tag_195\n      swap2\n      swap1\n      tag_134\n      jump\t// in\n    tag_195:\n        /* \"TVNProject/TVNNFTPositioManager/TVNNFTPositionManager.sol\":2116:2143  ownerNFT[_from][length - 1] */\n      dup2\n      sload\n      dup2\n      lt\n      tag_196\n      jumpi\n      tag_197\n      tag_198\n      jump\t// in\n    tag_197:\n    tag_196:\n      swap1\n      0x00\n      mstore\n      keccak256(0x00, 0x20)\n      add\n      sload\n        /* \"TVNProject/TVNNFTPositioManager/TVNNFTPositionManager.sol\":2094:2143  uint256 lastTokenId = ownerNFT[_from][length - 1] */\n      swap1\n      pop\n        /* \"TVNProject/TVNNFTPositioManager/TVNNFTPositionManager.sol\":2182:2190  ownerNFT */\n      0x08\n        /* \"TVNProject/TVNNFTPositioManager/TVNNFTPositionManager.sol\":2182:2197  ownerNFT[_from] */\n      0x00\n        /* \"TVNProject/TVNNFTPositioManager/TVNNFTPositionManager.sol\":2191:2196  _from */\n      dup6\n        /* \"TVNProject/TVNNFTPositioManager/TVNNFTPositionManager.sol\":2182:2197  ownerNFT[_from] */\n      0xffffffffffffffffffffffffffffffffffffffff\n      and\n      0xffffffffffffffffffffffffffffffffffffffff\n      and\n      dup2\n      mstore\n      0x20\n      add\n      swap1\n      dup2\n      mstore\n      0x20\n      add\n      0x00\n      keccak256\n        /* \"TVNProject/TVNNFTPositioManager/TVNNFTPositionManager.sol\":2207:2208  1 */\n      0x01\n        /* \"TVNProject/TVNNFTPositioManager/TVNNFTPositionManager.sol\":2198:2204  length */\n      dup4\n        /* \"TVNProject/TVNNFTPositioManager/TVNNFTPositionManager.sol\":2198:2208  length - 1 */\n      tag_200\n      swap2\n      swap1\n      tag_134\n      jump\t// in\n    tag_200:\n        /* \"TVNProject/TVNNFTPositioManager/TVNNFTPositionManager.sol\":2182:2209  ownerNFT[_from][length - 1] */\n      dup2\n      sload\n      dup2\n      lt\n      tag_201\n      jumpi\n      tag_202\n      tag_198\n      jump\t// in\n    tag_202:\n    tag_201:\n      swap1\n      0x00\n      mstore\n      keccak256(0x00, 0x20)\n      add\n      sload\n        /* \"TVNProject/TVNNFTPositioManager/TVNNFTPositionManager.sol\":2157:2165  ownerNFT */\n      0x08\n        /* \"TVNProject/TVNNFTPositioManager/TVNNFTPositionManager.sol\":2157:2172  ownerNFT[_from] */\n      0x00\n        /* \"TVNProject/TVNNFTPositioManager/TVNNFTPositionManager.sol\":2166:2171  _from */\n      dup7\n        /* \"TVNProject/TVNNFTPositioManager/TVNNFTPositionManager.sol\":2157:2172  ownerNFT[_from] */\n      0xffffffffffffffffffffffffffffffffffffffff\n      and\n      0xffffffffffffffffffffffffffffffffffffffff\n      and\n      dup2\n      mstore\n      0x20\n      add\n      swap1\n      dup2\n      mstore\n      0x20\n      add\n      0x00\n      keccak256\n        /* \"TVNProject/TVNNFTPositioManager/TVNNFTPositionManager.sol\":2173:2178  index */\n      dup5\n        /* \"TVNProject/TVNNFTPositioManager/TVNNFTPositionManager.sol\":2157:2179  ownerNFT[_from][index] */\n      dup2\n      sload\n      dup2\n      lt\n      tag_204\n      jumpi\n      tag_205\n      tag_198\n      jump\t// in\n    tag_205:\n    tag_204:\n      swap1\n      0x00\n      mstore\n      keccak256(0x00, 0x20)\n      add\n        /* \"TVNProject/TVNNFTPositioManager/TVNNFTPositionManager.sol\":2157:2209  ownerNFT[_from][index] = ownerNFT[_from][length - 1] */\n      dup2\n      swap1\n      sstore\n      pop\n        /* \"TVNProject/TVNNFTPositioManager/TVNNFTPositionManager.sol\":2223:2231  ownerNFT */\n      0x08\n        /* \"TVNProject/TVNNFTPositioManager/TVNNFTPositionManager.sol\":2223:2238  ownerNFT[_from] */\n      0x00\n        /* \"TVNProject/TVNNFTPositioManager/TVNNFTPositionManager.sol\":2232:2237  _from */\n      dup6\n        /* \"TVNProject/TVNNFTPositioManager/TVNNFTPositionManager.sol\":2223:2238  ownerNFT[_from] */\n      0xffffffffffffffffffffffffffffffffffffffff\n      and\n      0xffffffffffffffffffffffffffffffffffffffff\n      and\n      dup2\n      mstore\n      0x20\n      add\n      swap1\n      dup2\n      mstore\n      0x20\n      add\n      0x00\n      keccak256\n        /* \"TVNProject/TVNNFTPositioManager/TVNNFTPositionManager.sol\":2223:2244  ownerNFT[_from].pop() */\n      dup1\n      sload\n      dup1\n      tag_207\n      jumpi\n      tag_208\n      tag_209\n      jump\t// in\n    tag_208:\n    tag_207:\n      0x01\n      swap1\n      sub\n      dup2\n      dup2\n      swap1\n      0x00\n      mstore\n      keccak256(0x00, 0x20)\n      add\n      0x00\n      swap1\n      sstore\n      swap1\n      sstore\n        /* \"TVNProject/TVNNFTPositioManager/TVNNFTPositionManager.sol\":2296:2301  index */\n      dup3\n        /* \"TVNProject/TVNNFTPositioManager/TVNNFTPositionManager.sol\":2258:2273  indexOfOwnerNFT */\n      0x09\n        /* \"TVNProject/TVNNFTPositioManager/TVNNFTPositionManager.sol\":2258:2280  indexOfOwnerNFT[_from] */\n      0x00\n        /* \"TVNProject/TVNNFTPositioManager/TVNNFTPositionManager.sol\":2274:2279  _from */\n      dup7\n        /* \"TVNProject/TVNNFTPositioManager/TVNNFTPositionManager.sol\":2258:2280  indexOfOwnerNFT[_from] */\n      0xffffffffffffffffffffffffffffffffffffffff\n      and\n      0xffffffffffffffffffffffffffffffffffffffff\n      and\n      dup2\n      mstore\n      0x20\n      add\n      swap1\n      dup2\n      mstore\n      0x20\n      add\n      0x00\n      keccak256\n        /* \"TVNProject/TVNNFTPositioManager/TVNNFTPositionManager.sol\":2258:2293  indexOfOwnerNFT[_from][lastTokenId] */\n      0x00\n        /* \"TVNProject/TVNNFTPositioManager/TVNNFTPositionManager.sol\":2281:2292  lastTokenId */\n      dup4\n        /* \"TVNProject/TVNNFTPositioManager/TVNNFTPositionManager.sol\":2258:2293  indexOfOwnerNFT[_from][lastTokenId] */\n      dup2\n      mstore\n      0x20\n      add\n      swap1\n      dup2\n      mstore\n      0x20\n      add\n      0x00\n      keccak256\n        /* \"TVNProject/TVNNFTPositioManager/TVNNFTPositionManager.sol\":2258:2301  indexOfOwnerNFT[_from][lastTokenId] = index */\n      dup2\n      swap1\n      sstore\n      pop\n        /* \"TVNProject/TVNNFTPositioManager/TVNNFTPositionManager.sol\":2350:2351  0 */\n      0x00\n        /* \"TVNProject/TVNNFTPositioManager/TVNNFTPositionManager.sol\":2315:2330  indexOfOwnerNFT */\n      0x09\n        /* \"TVNProject/TVNNFTPositioManager/TVNNFTPositionManager.sol\":2315:2337  indexOfOwnerNFT[_from] */\n      0x00\n        /* \"TVNProject/TVNNFTPositioManager/TVNNFTPositionManager.sol\":2331:2336  _from */\n      dup7\n        /* \"TVNProject/TVNNFTPositioManager/TVNNFTPositionManager.sol\":2315:2337  indexOfOwnerNFT[_from] */\n      0xffffffffffffffffffffffffffffffffffffffff\n      and\n      0xffffffffffffffffffffffffffffffffffffffff\n      and\n      dup2\n      mstore\n      0x20\n      add\n      swap1\n      dup2\n      mstore\n      0x20\n      add\n      0x00\n      keccak256\n        /* \"TVNProject/TVNNFTPositioManager/TVNNFTPositionManager.sol\":2315:2347  indexOfOwnerNFT[_from][_tokenId] */\n      0x00\n        /* \"TVNProject/TVNNFTPositioManager/TVNNFTPositionManager.sol\":2338:2346  _tokenId */\n      dup8\n        /* \"TVNProject/TVNNFTPositioManager/TVNNFTPositionManager.sol\":2315:2347  indexOfOwnerNFT[_from][_tokenId] */\n      dup2\n      mstore\n      0x20\n      add\n      swap1\n      dup2\n      mstore\n      0x20\n      add\n      0x00\n      keccak256\n        /* \"TVNProject/TVNNFTPositioManager/TVNNFTPositionManager.sol\":2315:2351  indexOfOwnerNFT[_from][_tokenId] = 0 */\n      dup2\n      swap1\n      sstore\n      pop\n        /* \"TVNProject/TVNNFTPositioManager/TVNNFTPositionManager.sol\":2080:2362  {... */\n      pop\n        /* \"TVNProject/TVNNFTPositioManager/TVNNFTPositionManager.sol\":1960:2362  if (length == 1) {... */\n    tag_194:\n        /* \"TVNProject/TVNNFTPositioManager/TVNNFTPositionManager.sol\":1842:2368  {... */\n      pop\n      pop\n        /* \"TVNProject/TVNNFTPositioManager/TVNNFTPositionManager.sol\":1775:2368  function _removeFromArray(uint256 _tokenId, address _from) private {... */\n      pop\n      pop\n      jump\t// out\n        /* \"LearnSolidity/ERC721/ERC721.sol\":4037:4332  function _mint(address to, uint tokenId) internal {... */\n    tag_158:\n        /* \"LearnSolidity/ERC721/ERC721.sol\":4119:4120  0 */\n      0x00\n        /* \"LearnSolidity/ERC721/ERC721.sol\":4105:4121  to != address(0) */\n      0xffffffffffffffffffffffffffffffffffffffff\n      and\n        /* \"LearnSolidity/ERC721/ERC721.sol\":4105:4107  to */\n      dup3\n        /* \"LearnSolidity/ERC721/ERC721.sol\":4105:4121  to != address(0) */\n      0xffffffffffffffffffffffffffffffffffffffff\n      and\n      sub\n        /* \"LearnSolidity/ERC721/ERC721.sol\":4097:4143  require(to != address(0), \"to = zero address\") */\n      tag_212\n      jumpi\n      mload(0x40)\n      0x08c379a000000000000000000000000000000000000000000000000000000000\n      dup2\n      mstore\n      0x04\n      add\n      tag_213\n      swap1\n      tag_119\n      jump\t// in\n    tag_213:\n      mload(0x40)\n      dup1\n      swap2\n      sub\n      swap1\n      revert\n    tag_212:\n        /* \"LearnSolidity/ERC721/ERC721.sol\":4190:4191  0 */\n      0x00\n        /* \"LearnSolidity/ERC721/ERC721.sol\":4161:4192  _ownerOf[tokenId] == address(0) */\n      0xffffffffffffffffffffffffffffffffffffffff\n      and\n        /* \"LearnSolidity/ERC721/ERC721.sol\":4161:4169  _ownerOf */\n      0x00\n        /* \"LearnSolidity/ERC721/ERC721.sol\":4161:4178  _ownerOf[tokenId] */\n      dup1\n        /* \"LearnSolidity/ERC721/ERC721.sol\":4170:4177  tokenId */\n      dup4\n        /* \"LearnSolidity/ERC721/ERC721.sol\":4161:4178  _ownerOf[tokenId] */\n      dup2\n      mstore\n      0x20\n      add\n      swap1\n      dup2\n      mstore\n      0x20\n      add\n      0x00\n      keccak256\n      0x00\n      swap1\n      sload\n      swap1\n      0x0100\n      exp\n      swap1\n      div\n      0xffffffffffffffffffffffffffffffffffffffff\n      and\n        /* \"LearnSolidity/ERC721/ERC721.sol\":4161:4192  _ownerOf[tokenId] == address(0) */\n      0xffffffffffffffffffffffffffffffffffffffff\n      and\n      eq\n        /* \"LearnSolidity/ERC721/ERC721.sol\":4153:4209  require(_ownerOf[tokenId] == address(0), \"token exists\") */\n      tag_214\n      jumpi\n      mload(0x40)\n      0x08c379a000000000000000000000000000000000000000000000000000000000\n      dup2\n      mstore\n      0x04\n      add\n      tag_215\n      swap1\n      tag_216\n      jump\t// in\n    tag_215:\n      mload(0x40)\n      dup1\n      swap2\n      sub\n      swap1\n      revert\n    tag_214:\n        /* \"LearnSolidity/ERC721/ERC721.sol\":4220:4230  _balanceOf */\n      0x01\n        /* \"LearnSolidity/ERC721/ERC721.sol\":4220:4234  _balanceOf[to] */\n      0x00\n        /* \"LearnSolidity/ERC721/ERC721.sol\":4231:4233  to */\n      dup4\n        /* \"LearnSolidity/ERC721/ERC721.sol\":4220:4234  _balanceOf[to] */\n      0xffffffffffffffffffffffffffffffffffffffff\n      and\n      0xffffffffffffffffffffffffffffffffffffffff\n      and\n      dup2\n      mstore\n      0x20\n      add\n      swap1\n      dup2\n      mstore\n      0x20\n      add\n      0x00\n      keccak256\n      0x00\n        /* \"LearnSolidity/ERC721/ERC721.sol\":4220:4236  _balanceOf[to]++ */\n      dup2\n      sload\n      dup1\n      swap3\n      swap2\n      swap1\n      tag_217\n      swap1\n      tag_127\n      jump\t// in\n    tag_217:\n      swap2\n      swap1\n      pop\n      sstore\n      pop\n        /* \"LearnSolidity/ERC721/ERC721.sol\":4266:4268  to */\n      dup2\n        /* \"LearnSolidity/ERC721/ERC721.sol\":4246:4254  _ownerOf */\n      0x00\n        /* \"LearnSolidity/ERC721/ERC721.sol\":4246:4263  _ownerOf[tokenId] */\n      dup1\n        /* \"LearnSolidity/ERC721/ERC721.sol\":4255:4262  tokenId */\n      dup4\n        /* \"LearnSolidity/ERC721/ERC721.sol\":4246:4263  _ownerOf[tokenId] */\n      dup2\n      mstore\n      0x20\n      add\n      swap1\n      dup2\n      mstore\n      0x20\n      add\n      0x00\n      keccak256\n      0x00\n        /* \"LearnSolidity/ERC721/ERC721.sol\":4246:4268  _ownerOf[tokenId] = to */\n      0x0100\n      exp\n      dup2\n      sload\n      dup2\n      0xffffffffffffffffffffffffffffffffffffffff\n      mul\n      not\n      and\n      swap1\n      dup4\n      0xffffffffffffffffffffffffffffffffffffffff\n      and\n      mul\n      or\n      swap1\n      sstore\n      pop\n        /* \"LearnSolidity/ERC721/ERC721.sol\":4317:4324  tokenId */\n      dup1\n        /* \"LearnSolidity/ERC721/ERC721.sol\":4313:4315  to */\n      dup3\n        /* \"LearnSolidity/ERC721/ERC721.sol\":4292:4325  Transfer(address(0), to, tokenId) */\n      0xffffffffffffffffffffffffffffffffffffffff\n      and\n        /* \"LearnSolidity/ERC721/ERC721.sol\":4309:4310  0 */\n      0x00\n        /* \"LearnSolidity/ERC721/ERC721.sol\":4292:4325  Transfer(address(0), to, tokenId) */\n      0xffffffffffffffffffffffffffffffffffffffff\n      and\n      0xddf252ad1be2c89b69c2b068fc378daa952ba7f163c4a11628f55a4df523b3ef\n      mload(0x40)\n      mload(0x40)\n      dup1\n      swap2\n      sub\n      swap1\n      log4\n        /* \"LearnSolidity/ERC721/ERC721.sol\":4037:4332  function _mint(address to, uint tokenId) internal {... */\n      pop\n      pop\n      jump\t// out\n        /* \"LearnSolidity/ERC721/ERC721.sol\":4338:4640  function _burn(uint tokenId) internal {... */\n    tag_185:\n        /* \"LearnSolidity/ERC721/ERC721.sol\":4386:4399  address owner */\n      0x00\n        /* \"LearnSolidity/ERC721/ERC721.sol\":4402:4410  _ownerOf */\n      dup1\n        /* \"LearnSolidity/ERC721/ERC721.sol\":4402:4419  _ownerOf[tokenId] */\n      0x00\n        /* \"LearnSolidity/ERC721/ERC721.sol\":4411:4418  tokenId */\n      dup4\n        /* \"LearnSolidity/ERC721/ERC721.sol\":4402:4419  _ownerOf[tokenId] */\n      dup2\n      mstore\n      0x20\n      add\n      swap1\n      dup2\n      mstore\n      0x20\n      add\n      0x00\n      keccak256\n      0x00\n      swap1\n      sload\n      swap1\n      0x0100\n      exp\n      swap1\n      div\n      0xffffffffffffffffffffffffffffffffffffffff\n      and\n        /* \"LearnSolidity/ERC721/ERC721.sol\":4386:4419  address owner = _ownerOf[tokenId] */\n      swap1\n      pop\n        /* \"LearnSolidity/ERC721/ERC721.sol\":4454:4455  0 */\n      0x00\n        /* \"LearnSolidity/ERC721/ERC721.sol\":4437:4456  owner != address(0) */\n      0xffffffffffffffffffffffffffffffffffffffff\n      and\n        /* \"LearnSolidity/ERC721/ERC721.sol\":4437:4442  owner */\n      dup2\n        /* \"LearnSolidity/ERC721/ERC721.sol\":4437:4456  owner != address(0) */\n      0xffffffffffffffffffffffffffffffffffffffff\n      and\n      sub\n        /* \"LearnSolidity/ERC721/ERC721.sol\":4429:4481  require(owner != address(0), \"token does not exits\") */\n      tag_219\n      jumpi\n      mload(0x40)\n      0x08c379a000000000000000000000000000000000000000000000000000000000\n      dup2\n      mstore\n      0x04\n      add\n      tag_220\n      swap1\n      tag_221\n      jump\t// in\n    tag_220:\n      mload(0x40)\n      dup1\n      swap2\n      sub\n      swap1\n      revert\n    tag_219:\n        /* \"LearnSolidity/ERC721/ERC721.sol\":4492:4502  _balanceOf */\n      0x01\n        /* \"LearnSolidity/ERC721/ERC721.sol\":4492:4509  _balanceOf[owner] */\n      0x00\n        /* \"LearnSolidity/ERC721/ERC721.sol\":4503:4508  owner */\n      dup3\n        /* \"LearnSolidity/ERC721/ERC721.sol\":4492:4509  _balanceOf[owner] */\n      0xffffffffffffffffffffffffffffffffffffffff\n      and\n      0xffffffffffffffffffffffffffffffffffffffff\n      and\n      dup2\n      mstore\n      0x20\n      add\n      swap1\n      dup2\n      mstore\n      0x20\n      add\n      0x00\n      keccak256\n      0x00\n        /* \"LearnSolidity/ERC721/ERC721.sol\":4492:4511  _balanceOf[owner]-- */\n      dup2\n      sload\n      dup1\n      swap3\n      swap2\n      swap1\n      tag_222\n      swap1\n      tag_125\n      jump\t// in\n    tag_222:\n      swap2\n      swap1\n      pop\n      sstore\n      pop\n        /* \"LearnSolidity/ERC721/ERC721.sol\":4528:4536  _ownerOf */\n      0x00\n        /* \"LearnSolidity/ERC721/ERC721.sol\":4528:4545  _ownerOf[tokenId] */\n      dup1\n        /* \"LearnSolidity/ERC721/ERC721.sol\":4537:4544  tokenId */\n      dup4\n        /* \"LearnSolidity/ERC721/ERC721.sol\":4528:4545  _ownerOf[tokenId] */\n      dup2\n      mstore\n      0x20\n      add\n      swap1\n      dup2\n      mstore\n      0x20\n      add\n      0x00\n      keccak256\n      0x00\n        /* \"LearnSolidity/ERC721/ERC721.sol\":4521:4545  delete _ownerOf[tokenId] */\n      0x0100\n      exp\n      dup2\n      sload\n      swap1\n      0xffffffffffffffffffffffffffffffffffffffff\n      mul\n      not\n      and\n      swap1\n      sstore\n        /* \"LearnSolidity/ERC721/ERC721.sol\":4562:4572  _approvals */\n      0x02\n        /* \"LearnSolidity/ERC721/ERC721.sol\":4562:4581  _approvals[tokenId] */\n      0x00\n        /* \"LearnSolidity/ERC721/ERC721.sol\":4573:4580  tokenId */\n      dup4\n        /* \"LearnSolidity/ERC721/ERC721.sol\":4562:4581  _approvals[tokenId] */\n      dup2\n      mstore\n      0x20\n      add\n      swap1\n      dup2\n      mstore\n      0x20\n      add\n      0x00\n      keccak256\n      0x00\n        /* \"LearnSolidity/ERC721/ERC721.sol\":4555:4581  delete _approvals[tokenId] */\n      0x0100\n      exp\n      dup2\n      sload\n      swap1\n      0xffffffffffffffffffffffffffffffffffffffff\n      mul\n      not\n      and\n      swap1\n      sstore\n        /* \"LearnSolidity/ERC721/ERC721.sol\":4625:4632  tokenId */\n      dup2\n        /* \"LearnSolidity/ERC721/ERC721.sol\":4621:4622  0 */\n      0x00\n        /* \"LearnSolidity/ERC721/ERC721.sol\":4597:4633  Transfer(owner, address(0), tokenId) */\n      0xffffffffffffffffffffffffffffffffffffffff\n      and\n        /* \"LearnSolidity/ERC721/ERC721.sol\":4606:4611  owner */\n      dup3\n        /* \"LearnSolidity/ERC721/ERC721.sol\":4597:4633  Transfer(owner, address(0), tokenId) */\n      0xffffffffffffffffffffffffffffffffffffffff\n      and\n      0xddf252ad1be2c89b69c2b068fc378daa952ba7f163c4a11628f55a4df523b3ef\n      mload(0x40)\n      mload(0x40)\n      dup1\n      swap2\n      sub\n      swap1\n      log4\n        /* \"LearnSolidity/ERC721/ERC721.sol\":4376:4640  {... */\n      pop\n        /* \"LearnSolidity/ERC721/ERC721.sol\":4338:4640  function _burn(uint tokenId) internal {... */\n      pop\n      jump\t// out\n    tag_193:\n      pop\n      dup1\n      sload\n      0x00\n      dup3\n      sstore\n      swap1\n      0x00\n      mstore\n      keccak256(0x00, 0x20)\n      swap1\n      dup2\n      add\n      swap1\n      tag_224\n      swap2\n      swap1\n      tag_225\n      jump\t// in\n    tag_224:\n      pop\n      jump\t// out\n    tag_225:\n    tag_226:\n      dup1\n      dup3\n      gt\n      iszero\n      tag_227\n      jumpi\n      0x00\n      dup2\n      0x00\n      swap1\n      sstore\n      pop\n      0x01\n      add\n      jump(tag_226)\n    tag_227:\n      pop\n      swap1\n      jump\t// out\n        /* \"#utility.yul\":88:205   */\n    tag_229:\n        /* \"#utility.yul\":197:198   */\n      0x00\n        /* \"#utility.yul\":194:195   */\n      dup1\n        /* \"#utility.yul\":187:199   */\n      revert\n        /* \"#utility.yul\":211:328   */\n    tag_230:\n        /* \"#utility.yul\":320:321   */\n      0x00\n        /* \"#utility.yul\":317:318   */\n      dup1\n        /* \"#utility.yul\":310:322   */\n      revert\n        /* \"#utility.yul\":334:483   */\n    tag_231:\n        /* \"#utility.yul\":370:377   */\n      0x00\n        /* \"#utility.yul\":410:476   */\n      0xffffffff00000000000000000000000000000000000000000000000000000000\n        /* \"#utility.yul\":403:408   */\n      dup3\n        /* \"#utility.yul\":399:477   */\n      and\n        /* \"#utility.yul\":388:477   */\n      swap1\n      pop\n        /* \"#utility.yul\":334:483   */\n      swap2\n      swap1\n      pop\n      jump\t// out\n        /* \"#utility.yul\":489:609   */\n    tag_232:\n        /* \"#utility.yul\":561:584   */\n      tag_293\n        /* \"#utility.yul\":578:583   */\n      dup2\n        /* \"#utility.yul\":561:584   */\n      tag_231\n      jump\t// in\n    tag_293:\n        /* \"#utility.yul\":554:559   */\n      dup2\n        /* \"#utility.yul\":551:585   */\n      eq\n        /* \"#utility.yul\":541:603   */\n      tag_294\n      jumpi\n        /* \"#utility.yul\":599:600   */\n      0x00\n        /* \"#utility.yul\":596:597   */\n      dup1\n        /* \"#utility.yul\":589:601   */\n      revert\n        /* \"#utility.yul\":541:603   */\n    tag_294:\n        /* \"#utility.yul\":489:609   */\n      pop\n      jump\t// out\n        /* \"#utility.yul\":615:752   */\n    tag_233:\n        /* \"#utility.yul\":660:665   */\n      0x00\n        /* \"#utility.yul\":698:704   */\n      dup2\n        /* \"#utility.yul\":685:705   */\n      calldataload\n        /* \"#utility.yul\":676:705   */\n      swap1\n      pop\n        /* \"#utility.yul\":714:746   */\n      tag_296\n        /* \"#utility.yul\":740:745   */\n      dup2\n        /* \"#utility.yul\":714:746   */\n      tag_232\n      jump\t// in\n    tag_296:\n        /* \"#utility.yul\":615:752   */\n      swap3\n      swap2\n      pop\n      pop\n      jump\t// out\n        /* \"#utility.yul\":758:1085   */\n    tag_26:\n        /* \"#utility.yul\":816:822   */\n      0x00\n        /* \"#utility.yul\":865:867   */\n      0x20\n        /* \"#utility.yul\":853:862   */\n      dup3\n        /* \"#utility.yul\":844:851   */\n      dup5\n        /* \"#utility.yul\":840:863   */\n      sub\n        /* \"#utility.yul\":836:868   */\n      slt\n        /* \"#utility.yul\":833:952   */\n      iszero\n      tag_298\n      jumpi\n        /* \"#utility.yul\":871:950   */\n      tag_299\n      tag_229\n      jump\t// in\n    tag_299:\n        /* \"#utility.yul\":833:952   */\n    tag_298:\n        /* \"#utility.yul\":991:992   */\n      0x00\n        /* \"#utility.yul\":1016:1068   */\n      tag_300\n        /* \"#utility.yul\":1060:1067   */\n      dup5\n        /* \"#utility.yul\":1051:1057   */\n      dup3\n        /* \"#utility.yul\":1040:1049   */\n      dup6\n        /* \"#utility.yul\":1036:1058   */\n      add\n        /* \"#utility.yul\":1016:1068   */\n      tag_233\n      jump\t// in\n    tag_300:\n        /* \"#utility.yul\":1006:1068   */\n      swap2\n      pop\n        /* \"#utility.yul\":962:1078   */\n      pop\n        /* \"#utility.yul\":758:1085   */\n      swap3\n      swap2\n      pop\n      pop\n      jump\t// out\n        /* \"#utility.yul\":1091:1181   */\n    tag_234:\n        /* \"#utility.yul\":1125:1132   */\n      0x00\n        /* \"#utility.yul\":1168:1173   */\n      dup2\n        /* \"#utility.yul\":1161:1174   */\n      iszero\n        /* \"#utility.yul\":1154:1175   */\n      iszero\n        /* \"#utility.yul\":1143:1175   */\n      swap1\n      pop\n        /* \"#utility.yul\":1091:1181   */\n      swap2\n      swap1\n      pop\n      jump\t// out\n        /* \"#utility.yul\":1187:1296   */\n    tag_235:\n        /* \"#utility.yul\":1268:1289   */\n      tag_303\n        /* \"#utility.yul\":1283:1288   */\n      dup2\n        /* \"#utility.yul\":1268:1289   */\n      tag_234\n      jump\t// in\n    tag_303:\n        /* \"#utility.yul\":1263:1266   */\n      dup3\n        /* \"#utility.yul\":1256:1290   */\n      mstore\n        /* \"#utility.yul\":1187:1296   */\n      pop\n      pop\n      jump\t// out\n        /* \"#utility.yul\":1302:1512   */\n    tag_29:\n        /* \"#utility.yul\":1389:1393   */\n      0x00\n        /* \"#utility.yul\":1427:1429   */\n      0x20\n        /* \"#utility.yul\":1416:1425   */\n      dup3\n        /* \"#utility.yul\":1412:1430   */\n      add\n        /* \"#utility.yul\":1404:1430   */\n      swap1\n      pop\n        /* \"#utility.yul\":1440:1505   */\n      tag_305\n        /* \"#utility.yul\":1502:1503   */\n      0x00\n        /* \"#utility.yul\":1491:1500   */\n      dup4\n        /* \"#utility.yul\":1487:1504   */\n      add\n        /* \"#utility.yul\":1478:1484   */\n      dup5\n        /* \"#utility.yul\":1440:1505   */\n      tag_235\n      jump\t// in\n    tag_305:\n        /* \"#utility.yul\":1302:1512   */\n      swap3\n      swap2\n      pop\n      pop\n      jump\t// out\n        /* \"#utility.yul\":1518:1595   */\n    tag_236:\n        /* \"#utility.yul\":1555:1562   */\n      0x00\n        /* \"#utility.yul\":1584:1589   */\n      dup2\n        /* \"#utility.yul\":1573:1589   */\n      swap1\n      pop\n        /* \"#utility.yul\":1518:1595   */\n      swap2\n      swap1\n      pop\n      jump\t// out\n        /* \"#utility.yul\":1601:1723   */\n    tag_237:\n        /* \"#utility.yul\":1674:1698   */\n      tag_308\n        /* \"#utility.yul\":1692:1697   */\n      dup2\n        /* \"#utility.yul\":1674:1698   */\n      tag_236\n      jump\t// in\n    tag_308:\n        /* \"#utility.yul\":1667:1672   */\n      dup2\n        /* \"#utility.yul\":1664:1699   */\n      eq\n        /* \"#utility.yul\":1654:1717   */\n      tag_309\n      jumpi\n        /* \"#utility.yul\":1713:1714   */\n      0x00\n        /* \"#utility.yul\":1710:1711   */\n      dup1\n        /* \"#utility.yul\":1703:1715   */\n      revert\n        /* \"#utility.yul\":1654:1717   */\n    tag_309:\n        /* \"#utility.yul\":1601:1723   */\n      pop\n      jump\t// out\n        /* \"#utility.yul\":1729:1868   */\n    tag_238:\n        /* \"#utility.yul\":1775:1780   */\n      0x00\n        /* \"#utility.yul\":1813:1819   */\n      dup2\n        /* \"#utility.yul\":1800:1820   */\n      calldataload\n        /* \"#utility.yul\":1791:1820   */\n      swap1\n      pop\n        /* \"#utility.yul\":1829:1862   */\n      tag_311\n        /* \"#utility.yul\":1856:1861   */\n      dup2\n        /* \"#utility.yul\":1829:1862   */\n      tag_237\n      jump\t// in\n    tag_311:\n        /* \"#utility.yul\":1729:1868   */\n      swap3\n      swap2\n      pop\n      pop\n      jump\t// out\n        /* \"#utility.yul\":1874:2203   */\n    tag_32:\n        /* \"#utility.yul\":1933:1939   */\n      0x00\n        /* \"#utility.yul\":1982:1984   */\n      0x20\n        /* \"#utility.yul\":1970:1979   */\n      dup3\n        /* \"#utility.yul\":1961:1968   */\n      dup5\n        /* \"#utility.yul\":1957:1980   */\n      sub\n        /* \"#utility.yul\":1953:1985   */\n      slt\n        /* \"#utility.yul\":1950:2069   */\n      iszero\n      tag_313\n      jumpi\n        /* \"#utility.yul\":1988:2067   */\n      tag_314\n      tag_229\n      jump\t// in\n    tag_314:\n        /* \"#utility.yul\":1950:2069   */\n    tag_313:\n        /* \"#utility.yul\":2108:2109   */\n      0x00\n        /* \"#utility.yul\":2133:2186   */\n      tag_315\n        /* \"#utility.yul\":2178:2185   */\n      dup5\n        /* \"#utility.yul\":2169:2175   */\n      dup3\n        /* \"#utility.yul\":2158:2167   */\n      dup6\n        /* \"#utility.yul\":2154:2176   */\n      add\n        /* \"#utility.yul\":2133:2186   */\n      tag_238\n      jump\t// in\n    tag_315:\n        /* \"#utility.yul\":2123:2186   */\n      swap2\n      pop\n        /* \"#utility.yul\":2079:2196   */\n      pop\n        /* \"#utility.yul\":1874:2203   */\n      swap3\n      swap2\n      pop\n      pop\n      jump\t// out\n        /* \"#utility.yul\":2209:2335   */\n    tag_239:\n        /* \"#utility.yul\":2246:2253   */\n      0x00\n        /* \"#utility.yul\":2286:2328   */\n      0xffffffffffffffffffffffffffffffffffffffff\n        /* \"#utility.yul\":2279:2284   */\n      dup3\n        /* \"#utility.yul\":2275:2329   */\n      and\n        /* \"#utility.yul\":2264:2329   */\n      swap1\n      pop\n        /* \"#utility.yul\":2209:2335   */\n      swap2\n      swap1\n      pop\n      jump\t// out\n        /* \"#utility.yul\":2341:2437   */\n    tag_240:\n        /* \"#utility.yul\":2378:2385   */\n      0x00\n        /* \"#utility.yul\":2407:2431   */\n      tag_318\n        /* \"#utility.yul\":2425:2430   */\n      dup3\n        /* \"#utility.yul\":2407:2431   */\n      tag_239\n      jump\t// in\n    tag_318:\n        /* \"#utility.yul\":2396:2431   */\n      swap1\n      pop\n        /* \"#utility.yul\":2341:2437   */\n      swap2\n      swap1\n      pop\n      jump\t// out\n        /* \"#utility.yul\":2443:2561   */\n    tag_241:\n        /* \"#utility.yul\":2530:2554   */\n      tag_320\n        /* \"#utility.yul\":2548:2553   */\n      dup2\n        /* \"#utility.yul\":2530:2554   */\n      tag_240\n      jump\t// in\n    tag_320:\n        /* \"#utility.yul\":2525:2528   */\n      dup3\n        /* \"#utility.yul\":2518:2555   */\n      mstore\n        /* \"#utility.yul\":2443:2561   */\n      pop\n      pop\n      jump\t// out\n        /* \"#utility.yul\":2567:2789   */\n    tag_35:\n        /* \"#utility.yul\":2660:2664   */\n      0x00\n        /* \"#utility.yul\":2698:2700   */\n      0x20\n        /* \"#utility.yul\":2687:2696   */\n      dup3\n        /* \"#utility.yul\":2683:2701   */\n      add\n        /* \"#utility.yul\":2675:2701   */\n      swap1\n      pop\n        /* \"#utility.yul\":2711:2782   */\n      tag_322\n        /* \"#utility.yul\":2779:2780   */\n      0x00\n        /* \"#utility.yul\":2768:2777   */\n      dup4\n        /* \"#utility.yul\":2764:2781   */\n      add\n        /* \"#utility.yul\":2755:2761   */\n      dup5\n        /* \"#utility.yul\":2711:2782   */\n      tag_241\n      jump\t// in\n    tag_322:\n        /* \"#utility.yul\":2567:2789   */\n      swap3\n      swap2\n      pop\n      pop\n      jump\t// out\n        /* \"#utility.yul\":2795:2917   */\n    tag_242:\n        /* \"#utility.yul\":2868:2892   */\n      tag_324\n        /* \"#utility.yul\":2886:2891   */\n      dup2\n        /* \"#utility.yul\":2868:2892   */\n      tag_240\n      jump\t// in\n    tag_324:\n        /* \"#utility.yul\":2861:2866   */\n      dup2\n        /* \"#utility.yul\":2858:2893   */\n      eq\n        /* \"#utility.yul\":2848:2911   */\n      tag_325\n      jumpi\n        /* \"#utility.yul\":2907:2908   */\n      0x00\n        /* \"#utility.yul\":2904:2905   */\n      dup1\n        /* \"#utility.yul\":2897:2909   */\n      revert\n        /* \"#utility.yul\":2848:2911   */\n    tag_325:\n        /* \"#utility.yul\":2795:2917   */\n      pop\n      jump\t// out\n        /* \"#utility.yul\":2923:3062   */\n    tag_243:\n        /* \"#utility.yul\":2969:2974   */\n      0x00\n        /* \"#utility.yul\":3007:3013   */\n      dup2\n        /* \"#utility.yul\":2994:3014   */\n      calldataload\n        /* \"#utility.yul\":2985:3014   */\n      swap1\n      pop\n        /* \"#utility.yul\":3023:3056   */\n      tag_327\n        /* \"#utility.yul\":3050:3055   */\n      dup2\n        /* \"#utility.yul\":3023:3056   */\n      tag_242\n      jump\t// in\n    tag_327:\n        /* \"#utility.yul\":2923:3062   */\n      swap3\n      swap2\n      pop\n      pop\n      jump\t// out\n        /* \"#utility.yul\":3068:3542   */\n    tag_38:\n        /* \"#utility.yul\":3136:3142   */\n      0x00\n        /* \"#utility.yul\":3144:3150   */\n      dup1\n        /* \"#utility.yul\":3193:3195   */\n      0x40\n        /* \"#utility.yul\":3181:3190   */\n      dup4\n        /* \"#utility.yul\":3172:3179   */\n      dup6\n        /* \"#utility.yul\":3168:3191   */\n      sub\n        /* \"#utility.yul\":3164:3196   */\n      slt\n        /* \"#utility.yul\":3161:3280   */\n      iszero\n      tag_329\n      jumpi\n        /* \"#utility.yul\":3199:3278   */\n      tag_330\n      tag_229\n      jump\t// in\n    tag_330:\n        /* \"#utility.yul\":3161:3280   */\n    tag_329:\n        /* \"#utility.yul\":3319:3320   */\n      0x00\n        /* \"#utility.yul\":3344:3397   */\n      tag_331\n        /* \"#utility.yul\":3389:3396   */\n      dup6\n        /* \"#utility.yul\":3380:3386   */\n      dup3\n        /* \"#utility.yul\":3369:3378   */\n      dup7\n        /* \"#utility.yul\":3365:3387   */\n      add\n        /* \"#utility.yul\":3344:3397   */\n      tag_243\n      jump\t// in\n    tag_331:\n        /* \"#utility.yul\":3334:3397   */\n      swap3\n      pop\n        /* \"#utility.yul\":3290:3407   */\n      pop\n        /* \"#utility.yul\":3446:3448   */\n      0x20\n        /* \"#utility.yul\":3472:3525   */\n      tag_332\n        /* \"#utility.yul\":3517:3524   */\n      dup6\n        /* \"#utility.yul\":3508:3514   */\n      dup3\n        /* \"#utility.yul\":3497:3506   */\n      dup7\n        /* \"#utility.yul\":3493:3515   */\n      add\n        /* \"#utility.yul\":3472:3525   */\n      tag_238\n      jump\t// in\n    tag_332:\n        /* \"#utility.yul\":3462:3525   */\n      swap2\n      pop\n        /* \"#utility.yul\":3417:3535   */\n      pop\n        /* \"#utility.yul\":3068:3542   */\n      swap3\n      pop\n      swap3\n      swap1\n      pop\n      jump\t// out\n        /* \"#utility.yul\":3548:4167   */\n    tag_42:\n        /* \"#utility.yul\":3625:3631   */\n      0x00\n        /* \"#utility.yul\":3633:3639   */\n      dup1\n        /* \"#utility.yul\":3641:3647   */\n      0x00\n        /* \"#utility.yul\":3690:3692   */\n      0x60\n        /* \"#utility.yul\":3678:3687   */\n      dup5\n        /* \"#utility.yul\":3669:3676   */\n      dup7\n        /* \"#utility.yul\":3665:3688   */\n      sub\n        /* \"#utility.yul\":3661:3693   */\n      slt\n        /* \"#utility.yul\":3658:3777   */\n      iszero\n      tag_334\n      jumpi\n        /* \"#utility.yul\":3696:3775   */\n      tag_335\n      tag_229\n      jump\t// in\n    tag_335:\n        /* \"#utility.yul\":3658:3777   */\n    tag_334:\n        /* \"#utility.yul\":3816:3817   */\n      0x00\n        /* \"#utility.yul\":3841:3894   */\n      tag_336\n        /* \"#utility.yul\":3886:3893   */\n      dup7\n        /* \"#utility.yul\":3877:3883   */\n      dup3\n        /* \"#utility.yul\":3866:3875   */\n      dup8\n        /* \"#utility.yul\":3862:3884   */\n      add\n        /* \"#utility.yul\":3841:3894   */\n      tag_243\n      jump\t// in\n    tag_336:\n        /* \"#utility.yul\":3831:3894   */\n      swap4\n      pop\n        /* \"#utility.yul\":3787:3904   */\n      pop\n        /* \"#utility.yul\":3943:3945   */\n      0x20\n        /* \"#utility.yul\":3969:4022   */\n      tag_337\n        /* \"#utility.yul\":4014:4021   */\n      dup7\n        /* \"#utility.yul\":4005:4011   */\n      dup3\n        /* \"#utility.yul\":3994:4003   */\n      dup8\n        /* \"#utility.yul\":3990:4012   */\n      add\n        /* \"#utility.yul\":3969:4022   */\n      tag_243\n      jump\t// in\n    tag_337:\n        /* \"#utility.yul\":3959:4022   */\n      swap3\n      pop\n        /* \"#utility.yul\":3914:4032   */\n      pop\n        /* \"#utility.yul\":4071:4073   */\n      0x40\n        /* \"#utility.yul\":4097:4150   */\n      tag_338\n        /* \"#utility.yul\":4142:4149   */\n      dup7\n        /* \"#utility.yul\":4133:4139   */\n      dup3\n        /* \"#utility.yul\":4122:4131   */\n      dup8\n        /* \"#utility.yul\":4118:4140   */\n      add\n        /* \"#utility.yul\":4097:4150   */\n      tag_238\n      jump\t// in\n    tag_338:\n        /* \"#utility.yul\":4087:4150   */\n      swap2\n      pop\n        /* \"#utility.yul\":4042:4160   */\n      pop\n        /* \"#utility.yul\":3548:4167   */\n      swap3\n      pop\n      swap3\n      pop\n      swap3\n      jump\t// out\n        /* \"#utility.yul\":4173:4502   */\n    tag_56:\n        /* \"#utility.yul\":4232:4238   */\n      0x00\n        /* \"#utility.yul\":4281:4283   */\n      0x20\n        /* \"#utility.yul\":4269:4278   */\n      dup3\n        /* \"#utility.yul\":4260:4267   */\n      dup5\n        /* \"#utility.yul\":4256:4279   */\n      sub\n        /* \"#utility.yul\":4252:4284   */\n      slt\n        /* \"#utility.yul\":4249:4368   */\n      iszero\n      tag_340\n      jumpi\n        /* \"#utility.yul\":4287:4366   */\n      tag_341\n      tag_229\n      jump\t// in\n    tag_341:\n        /* \"#utility.yul\":4249:4368   */\n    tag_340:\n        /* \"#utility.yul\":4407:4408   */\n      0x00\n        /* \"#utility.yul\":4432:4485   */\n      tag_342\n        /* \"#utility.yul\":4477:4484   */\n      dup5\n        /* \"#utility.yul\":4468:4474   */\n      dup3\n        /* \"#utility.yul\":4457:4466   */\n      dup6\n        /* \"#utility.yul\":4453:4475   */\n      add\n        /* \"#utility.yul\":4432:4485   */\n      tag_243\n      jump\t// in\n    tag_342:\n        /* \"#utility.yul\":4422:4485   */\n      swap2\n      pop\n        /* \"#utility.yul\":4378:4495   */\n      pop\n        /* \"#utility.yul\":4173:4502   */\n      swap3\n      swap2\n      pop\n      pop\n      jump\t// out\n        /* \"#utility.yul\":4508:4626   */\n    tag_244:\n        /* \"#utility.yul\":4595:4619   */\n      tag_344\n        /* \"#utility.yul\":4613:4618   */\n      dup2\n        /* \"#utility.yul\":4595:4619   */\n      tag_236\n      jump\t// in\n    tag_344:\n        /* \"#utility.yul\":4590:4593   */\n      dup3\n        /* \"#utility.yul\":4583:4620   */\n      mstore\n        /* \"#utility.yul\":4508:4626   */\n      pop\n      pop\n      jump\t// out\n        /* \"#utility.yul\":4632:4854   */\n    tag_59:\n        /* \"#utility.yul\":4725:4729   */\n      0x00\n        /* \"#utility.yul\":4763:4765   */\n      0x20\n        /* \"#utility.yul\":4752:4761   */\n      dup3\n        /* \"#utility.yul\":4748:4766   */\n      add\n        /* \"#utility.yul\":4740:4766   */\n      swap1\n      pop\n        /* \"#utility.yul\":4776:4847   */\n      tag_346\n        /* \"#utility.yul\":4844:4845   */\n      0x00\n        /* \"#utility.yul\":4833:4842   */\n      dup4\n        /* \"#utility.yul\":4829:4846   */\n      add\n        /* \"#utility.yul\":4820:4826   */\n      dup5\n        /* \"#utility.yul\":4776:4847   */\n      tag_244\n      jump\t// in\n    tag_346:\n        /* \"#utility.yul\":4632:4854   */\n      swap3\n      swap2\n      pop\n      pop\n      jump\t// out\n        /* \"#utility.yul\":4860:5524   */\n    tag_71:\n        /* \"#utility.yul\":5065:5069   */\n      0x00\n        /* \"#utility.yul\":5103:5106   */\n      0xa0\n        /* \"#utility.yul\":5092:5101   */\n      dup3\n        /* \"#utility.yul\":5088:5107   */\n      add\n        /* \"#utility.yul\":5080:5107   */\n      swap1\n      pop\n        /* \"#utility.yul\":5117:5188   */\n      tag_348\n        /* \"#utility.yul\":5185:5186   */\n      0x00\n        /* \"#utility.yul\":5174:5183   */\n      dup4\n        /* \"#utility.yul\":5170:5187   */\n      add\n        /* \"#utility.yul\":5161:5167   */\n      dup9\n        /* \"#utility.yul\":5117:5188   */\n      tag_244\n      jump\t// in\n    tag_348:\n        /* \"#utility.yul\":5198:5270   */\n      tag_349\n        /* \"#utility.yul\":5266:5268   */\n      0x20\n        /* \"#utility.yul\":5255:5264   */\n      dup4\n        /* \"#utility.yul\":5251:5269   */\n      add\n        /* \"#utility.yul\":5242:5248   */\n      dup8\n        /* \"#utility.yul\":5198:5270   */\n      tag_241\n      jump\t// in\n    tag_349:\n        /* \"#utility.yul\":5280:5352   */\n      tag_350\n        /* \"#utility.yul\":5348:5350   */\n      0x40\n        /* \"#utility.yul\":5337:5346   */\n      dup4\n        /* \"#utility.yul\":5333:5351   */\n      add\n        /* \"#utility.yul\":5324:5330   */\n      dup7\n        /* \"#utility.yul\":5280:5352   */\n      tag_241\n      jump\t// in\n    tag_350:\n        /* \"#utility.yul\":5362:5434   */\n      tag_351\n        /* \"#utility.yul\":5430:5432   */\n      0x60\n        /* \"#utility.yul\":5419:5428   */\n      dup4\n        /* \"#utility.yul\":5415:5433   */\n      add\n        /* \"#utility.yul\":5406:5412   */\n      dup6\n        /* \"#utility.yul\":5362:5434   */\n      tag_241\n      jump\t// in\n    tag_351:\n        /* \"#utility.yul\":5444:5517   */\n      tag_352\n        /* \"#utility.yul\":5512:5515   */\n      0x80\n        /* \"#utility.yul\":5501:5510   */\n      dup4\n        /* \"#utility.yul\":5497:5516   */\n      add\n        /* \"#utility.yul\":5488:5494   */\n      dup5\n        /* \"#utility.yul\":5444:5517   */\n      tag_244\n      jump\t// in\n    tag_352:\n        /* \"#utility.yul\":4860:5524   */\n      swap7\n      swap6\n      pop\n      pop\n      pop\n      pop\n      pop\n      pop\n      jump\t// out\n        /* \"#utility.yul\":5530:5646   */\n    tag_245:\n        /* \"#utility.yul\":5600:5621   */\n      tag_354\n        /* \"#utility.yul\":5615:5620   */\n      dup2\n        /* \"#utility.yul\":5600:5621   */\n      tag_234\n      jump\t// in\n    tag_354:\n        /* \"#utility.yul\":5593:5598   */\n      dup2\n        /* \"#utility.yul\":5590:5622   */\n      eq\n        /* \"#utility.yul\":5580:5640   */\n      tag_355\n      jumpi\n        /* \"#utility.yul\":5636:5637   */\n      0x00\n        /* \"#utility.yul\":5633:5634   */\n      dup1\n        /* \"#utility.yul\":5626:5638   */\n      revert\n        /* \"#utility.yul\":5580:5640   */\n    tag_355:\n        /* \"#utility.yul\":5530:5646   */\n      pop\n      jump\t// out\n        /* \"#utility.yul\":5652:5785   */\n    tag_246:\n        /* \"#utility.yul\":5695:5700   */\n      0x00\n        /* \"#utility.yul\":5733:5739   */\n      dup2\n        /* \"#utility.yul\":5720:5740   */\n      calldataload\n        /* \"#utility.yul\":5711:5740   */\n      swap1\n      pop\n        /* \"#utility.yul\":5749:5779   */\n      tag_357\n        /* \"#utility.yul\":5773:5778   */\n      dup2\n        /* \"#utility.yul\":5749:5779   */\n      tag_245\n      jump\t// in\n    tag_357:\n        /* \"#utility.yul\":5652:5785   */\n      swap3\n      swap2\n      pop\n      pop\n      jump\t// out\n        /* \"#utility.yul\":5791:6259   */\n    tag_74:\n        /* \"#utility.yul\":5856:5862   */\n      0x00\n        /* \"#utility.yul\":5864:5870   */\n      dup1\n        /* \"#utility.yul\":5913:5915   */\n      0x40\n        /* \"#utility.yul\":5901:5910   */\n      dup4\n        /* \"#utility.yul\":5892:5899   */\n      dup6\n        /* \"#utility.yul\":5888:5911   */\n      sub\n        /* \"#utility.yul\":5884:5916   */\n      slt\n        /* \"#utility.yul\":5881:6000   */\n      iszero\n      tag_359\n      jumpi\n        /* \"#utility.yul\":5919:5998   */\n      tag_360\n      tag_229\n      jump\t// in\n    tag_360:\n        /* \"#utility.yul\":5881:6000   */\n    tag_359:\n        /* \"#utility.yul\":6039:6040   */\n      0x00\n        /* \"#utility.yul\":6064:6117   */\n      tag_361\n        /* \"#utility.yul\":6109:6116   */\n      dup6\n        /* \"#utility.yul\":6100:6106   */\n      dup3\n        /* \"#utility.yul\":6089:6098   */\n      dup7\n        /* \"#utility.yul\":6085:6107   */\n      add\n        /* \"#utility.yul\":6064:6117   */\n      tag_243\n      jump\t// in\n    tag_361:\n        /* \"#utility.yul\":6054:6117   */\n      swap3\n      pop\n        /* \"#utility.yul\":6010:6127   */\n      pop\n        /* \"#utility.yul\":6166:6168   */\n      0x20\n        /* \"#utility.yul\":6192:6242   */\n      tag_362\n        /* \"#utility.yul\":6234:6241   */\n      dup6\n        /* \"#utility.yul\":6225:6231   */\n      dup3\n        /* \"#utility.yul\":6214:6223   */\n      dup7\n        /* \"#utility.yul\":6210:6232   */\n      add\n        /* \"#utility.yul\":6192:6242   */\n      tag_246\n      jump\t// in\n    tag_362:\n        /* \"#utility.yul\":6182:6242   */\n      swap2\n      pop\n        /* \"#utility.yul\":6137:6252   */\n      pop\n        /* \"#utility.yul\":5791:6259   */\n      swap3\n      pop\n      swap3\n      swap1\n      pop\n      jump\t// out\n        /* \"#utility.yul\":6265:6382   */\n    tag_247:\n        /* \"#utility.yul\":6374:6375   */\n      0x00\n        /* \"#utility.yul\":6371:6372   */\n      dup1\n        /* \"#utility.yul\":6364:6376   */\n      revert\n        /* \"#utility.yul\":6437:6673   */\n    tag_248:\n        /* \"#utility.yul\":6514:6519   */\n      0x00\n        /* \"#utility.yul\":6555:6558   */\n      0xa0\n        /* \"#utility.yul\":6546:6552   */\n      dup3\n        /* \"#utility.yul\":6541:6544   */\n      dup5\n        /* \"#utility.yul\":6537:6553   */\n      sub\n        /* \"#utility.yul\":6533:6559   */\n      slt\n        /* \"#utility.yul\":6530:6643   */\n      iszero\n      tag_365\n      jumpi\n        /* \"#utility.yul\":6562:6641   */\n      tag_366\n      tag_247\n      jump\t// in\n    tag_366:\n        /* \"#utility.yul\":6530:6643   */\n    tag_365:\n        /* \"#utility.yul\":6661:6667   */\n      dup2\n        /* \"#utility.yul\":6652:6667   */\n      swap1\n      pop\n        /* \"#utility.yul\":6437:6673   */\n      swap3\n      swap2\n      pop\n      pop\n      jump\t// out\n        /* \"#utility.yul\":6679:7216   */\n    tag_78:\n        /* \"#utility.yul\":6778:6784   */\n      0x00\n        /* \"#utility.yul\":6786:6792   */\n      dup1\n        /* \"#utility.yul\":6835:6838   */\n      0xc0\n        /* \"#utility.yul\":6823:6832   */\n      dup4\n        /* \"#utility.yul\":6814:6821   */\n      dup6\n        /* \"#utility.yul\":6810:6833   */\n      sub\n        /* \"#utility.yul\":6806:6839   */\n      slt\n        /* \"#utility.yul\":6803:6923   */\n      iszero\n      tag_368\n      jumpi\n        /* \"#utility.yul\":6842:6921   */\n      tag_369\n      tag_229\n      jump\t// in\n    tag_369:\n        /* \"#utility.yul\":6803:6923   */\n    tag_368:\n        /* \"#utility.yul\":6962:6963   */\n      0x00\n        /* \"#utility.yul\":6987:7040   */\n      tag_370\n        /* \"#utility.yul\":7032:7039   */\n      dup6\n        /* \"#utility.yul\":7023:7029   */\n      dup3\n        /* \"#utility.yul\":7012:7021   */\n      dup7\n        /* \"#utility.yul\":7008:7030   */\n      add\n        /* \"#utility.yul\":6987:7040   */\n      tag_243\n      jump\t// in\n    tag_370:\n        /* \"#utility.yul\":6977:7040   */\n      swap3\n      pop\n        /* \"#utility.yul\":6933:7050   */\n      pop\n        /* \"#utility.yul\":7089:7091   */\n      0x20\n        /* \"#utility.yul\":7115:7199   */\n      tag_371\n        /* \"#utility.yul\":7191:7198   */\n      dup6\n        /* \"#utility.yul\":7182:7188   */\n      dup3\n        /* \"#utility.yul\":7171:7180   */\n      dup7\n        /* \"#utility.yul\":7167:7189   */\n      add\n        /* \"#utility.yul\":7115:7199   */\n      tag_248\n      jump\t// in\n    tag_371:\n        /* \"#utility.yul\":7105:7199   */\n      swap2\n      pop\n        /* \"#utility.yul\":7060:7209   */\n      pop\n        /* \"#utility.yul\":6679:7216   */\n      swap3\n      pop\n      swap3\n      swap1\n      pop\n      jump\t// out\n        /* \"#utility.yul\":7222:7339   */\n    tag_249:\n        /* \"#utility.yul\":7331:7332   */\n      0x00\n        /* \"#utility.yul\":7328:7329   */\n      dup1\n        /* \"#utility.yul\":7321:7333   */\n      revert\n        /* \"#utility.yul\":7345:7462   */\n    tag_250:\n        /* \"#utility.yul\":7454:7455   */\n      0x00\n        /* \"#utility.yul\":7451:7452   */\n      dup1\n        /* \"#utility.yul\":7444:7456   */\n      revert\n        /* \"#utility.yul\":7468:7585   */\n    tag_251:\n        /* \"#utility.yul\":7577:7578   */\n      0x00\n        /* \"#utility.yul\":7574:7575   */\n      dup1\n        /* \"#utility.yul\":7567:7579   */\n      revert\n        /* \"#utility.yul\":7604:8156   */\n    tag_252:\n        /* \"#utility.yul\":7661:7669   */\n      0x00\n        /* \"#utility.yul\":7671:7677   */\n      dup1\n        /* \"#utility.yul\":7721:7724   */\n      dup4\n        /* \"#utility.yul\":7714:7718   */\n      0x1f\n        /* \"#utility.yul\":7706:7712   */\n      dup5\n        /* \"#utility.yul\":7702:7719   */\n      add\n        /* \"#utility.yul\":7698:7725   */\n      slt\n        /* \"#utility.yul\":7688:7810   */\n      tag_376\n      jumpi\n        /* \"#utility.yul\":7729:7808   */\n      tag_377\n      tag_249\n      jump\t// in\n    tag_377:\n        /* \"#utility.yul\":7688:7810   */\n    tag_376:\n        /* \"#utility.yul\":7842:7848   */\n      dup3\n        /* \"#utility.yul\":7829:7849   */\n      calldataload\n        /* \"#utility.yul\":7819:7849   */\n      swap1\n      pop\n        /* \"#utility.yul\":7872:7890   */\n      0xffffffffffffffff\n        /* \"#utility.yul\":7864:7870   */\n      dup2\n        /* \"#utility.yul\":7861:7891   */\n      gt\n        /* \"#utility.yul\":7858:7975   */\n      iszero\n      tag_378\n      jumpi\n        /* \"#utility.yul\":7894:7973   */\n      tag_379\n      tag_250\n      jump\t// in\n    tag_379:\n        /* \"#utility.yul\":7858:7975   */\n    tag_378:\n        /* \"#utility.yul\":8008:8012   */\n      0x20\n        /* \"#utility.yul\":8000:8006   */\n      dup4\n        /* \"#utility.yul\":7996:8013   */\n      add\n        /* \"#utility.yul\":7984:8013   */\n      swap2\n      pop\n        /* \"#utility.yul\":8062:8065   */\n      dup4\n        /* \"#utility.yul\":8054:8058   */\n      0x01\n        /* \"#utility.yul\":8046:8052   */\n      dup3\n        /* \"#utility.yul\":8042:8059   */\n      mul\n        /* \"#utility.yul\":8032:8040   */\n      dup4\n        /* \"#utility.yul\":8028:8060   */\n      add\n        /* \"#utility.yul\":8025:8066   */\n      gt\n        /* \"#utility.yul\":8022:8150   */\n      iszero\n      tag_380\n      jumpi\n        /* \"#utility.yul\":8069:8148   */\n      tag_381\n      tag_251\n      jump\t// in\n    tag_381:\n        /* \"#utility.yul\":8022:8150   */\n    tag_380:\n        /* \"#utility.yul\":7604:8156   */\n      swap3\n      pop\n      swap3\n      swap1\n      pop\n      jump\t// out\n        /* \"#utility.yul\":8162:9125   */\n    tag_82:\n        /* \"#utility.yul\":8259:8265   */\n      0x00\n        /* \"#utility.yul\":8267:8273   */\n      dup1\n        /* \"#utility.yul\":8275:8281   */\n      0x00\n        /* \"#utility.yul\":8283:8289   */\n      dup1\n        /* \"#utility.yul\":8291:8297   */\n      0x00\n        /* \"#utility.yul\":8340:8343   */\n      0x80\n        /* \"#utility.yul\":8328:8337   */\n      dup7\n        /* \"#utility.yul\":8319:8326   */\n      dup9\n        /* \"#utility.yul\":8315:8338   */\n      sub\n        /* \"#utility.yul\":8311:8344   */\n      slt\n        /* \"#utility.yul\":8308:8428   */\n      iszero\n      tag_383\n      jumpi\n        /* \"#utility.yul\":8347:8426   */\n      tag_384\n      tag_229\n      jump\t// in\n    tag_384:\n        /* \"#utility.yul\":8308:8428   */\n    tag_383:\n        /* \"#utility.yul\":8467:8468   */\n      0x00\n        /* \"#utility.yul\":8492:8545   */\n      tag_385\n        /* \"#utility.yul\":8537:8544   */\n      dup9\n        /* \"#utility.yul\":8528:8534   */\n      dup3\n        /* \"#utility.yul\":8517:8526   */\n      dup10\n        /* \"#utility.yul\":8513:8535   */\n      add\n        /* \"#utility.yul\":8492:8545   */\n      tag_243\n      jump\t// in\n    tag_385:\n        /* \"#utility.yul\":8482:8545   */\n      swap6\n      pop\n        /* \"#utility.yul\":8438:8555   */\n      pop\n        /* \"#utility.yul\":8594:8596   */\n      0x20\n        /* \"#utility.yul\":8620:8673   */\n      tag_386\n        /* \"#utility.yul\":8665:8672   */\n      dup9\n        /* \"#utility.yul\":8656:8662   */\n      dup3\n        /* \"#utility.yul\":8645:8654   */\n      dup10\n        /* \"#utility.yul\":8641:8663   */\n      add\n        /* \"#utility.yul\":8620:8673   */\n      tag_243\n      jump\t// in\n    tag_386:\n        /* \"#utility.yul\":8610:8673   */\n      swap5\n      pop\n        /* \"#utility.yul\":8565:8683   */\n      pop\n        /* \"#utility.yul\":8722:8724   */\n      0x40\n        /* \"#utility.yul\":8748:8801   */\n      tag_387\n        /* \"#utility.yul\":8793:8800   */\n      dup9\n        /* \"#utility.yul\":8784:8790   */\n      dup3\n        /* \"#utility.yul\":8773:8782   */\n      dup10\n        /* \"#utility.yul\":8769:8791   */\n      add\n        /* \"#utility.yul\":8748:8801   */\n      tag_238\n      jump\t// in\n    tag_387:\n        /* \"#utility.yul\":8738:8801   */\n      swap4\n      pop\n        /* \"#utility.yul\":8693:8811   */\n      pop\n        /* \"#utility.yul\":8878:8880   */\n      0x60\n        /* \"#utility.yul\":8867:8876   */\n      dup7\n        /* \"#utility.yul\":8863:8881   */\n      add\n        /* \"#utility.yul\":8850:8882   */\n      calldataload\n        /* \"#utility.yul\":8909:8927   */\n      0xffffffffffffffff\n        /* \"#utility.yul\":8901:8907   */\n      dup2\n        /* \"#utility.yul\":8898:8928   */\n      gt\n        /* \"#utility.yul\":8895:9012   */\n      iszero\n      tag_388\n      jumpi\n        /* \"#utility.yul\":8931:9010   */\n      tag_389\n      tag_230\n      jump\t// in\n    tag_389:\n        /* \"#utility.yul\":8895:9012   */\n    tag_388:\n        /* \"#utility.yul\":9044:9108   */\n      tag_390\n        /* \"#utility.yul\":9100:9107   */\n      dup9\n        /* \"#utility.yul\":9091:9097   */\n      dup3\n        /* \"#utility.yul\":9080:9089   */\n      dup10\n        /* \"#utility.yul\":9076:9098   */\n      add\n        /* \"#utility.yul\":9044:9108   */\n      tag_252\n      jump\t// in\n    tag_390:\n        /* \"#utility.yul\":9026:9108   */\n      swap3\n      pop\n      swap3\n      pop\n        /* \"#utility.yul\":8821:9118   */\n      pop\n        /* \"#utility.yul\":8162:9125   */\n      swap3\n      swap6\n      pop\n      swap3\n      swap6\n      swap1\n      swap4\n      pop\n      jump\t// out\n        /* \"#utility.yul\":9131:9245   */\n    tag_253:\n        /* \"#utility.yul\":9198:9204   */\n      0x00\n        /* \"#utility.yul\":9232:9237   */\n      dup2\n        /* \"#utility.yul\":9226:9238   */\n      mload\n        /* \"#utility.yul\":9216:9238   */\n      swap1\n      pop\n        /* \"#utility.yul\":9131:9245   */\n      swap2\n      swap1\n      pop\n      jump\t// out\n        /* \"#utility.yul\":9251:9435   */\n    tag_254:\n        /* \"#utility.yul\":9350:9361   */\n      0x00\n        /* \"#utility.yul\":9384:9390   */\n      dup3\n        /* \"#utility.yul\":9379:9382   */\n      dup3\n        /* \"#utility.yul\":9372:9391   */\n      mstore\n        /* \"#utility.yul\":9424:9428   */\n      0x20\n        /* \"#utility.yul\":9419:9422   */\n      dup3\n        /* \"#utility.yul\":9415:9429   */\n      add\n        /* \"#utility.yul\":9400:9429   */\n      swap1\n      pop\n        /* \"#utility.yul\":9251:9435   */\n      swap3\n      swap2\n      pop\n      pop\n      jump\t// out\n        /* \"#utility.yul\":9441:9573   */\n    tag_255:\n        /* \"#utility.yul\":9508:9512   */\n      0x00\n        /* \"#utility.yul\":9531:9534   */\n      dup2\n        /* \"#utility.yul\":9523:9534   */\n      swap1\n      pop\n        /* \"#utility.yul\":9561:9565   */\n      0x20\n        /* \"#utility.yul\":9556:9559   */\n      dup3\n        /* \"#utility.yul\":9552:9566   */\n      add\n        /* \"#utility.yul\":9544:9566   */\n      swap1\n      pop\n        /* \"#utility.yul\":9441:9573   */\n      swap2\n      swap1\n      pop\n      jump\t// out\n        /* \"#utility.yul\":9579:9687   */\n    tag_256:\n        /* \"#utility.yul\":9656:9680   */\n      tag_395\n        /* \"#utility.yul\":9674:9679   */\n      dup2\n        /* \"#utility.yul\":9656:9680   */\n      tag_236\n      jump\t// in\n    tag_395:\n        /* \"#utility.yul\":9651:9654   */\n      dup3\n        /* \"#utility.yul\":9644:9681   */\n      mstore\n        /* \"#utility.yul\":9579:9687   */\n      pop\n      pop\n      jump\t// out\n        /* \"#utility.yul\":9693:9872   */\n    tag_257:\n        /* \"#utility.yul\":9762:9772   */\n      0x00\n        /* \"#utility.yul\":9783:9829   */\n      tag_397\n        /* \"#utility.yul\":9825:9828   */\n      dup4\n        /* \"#utility.yul\":9817:9823   */\n      dup4\n        /* \"#utility.yul\":9783:9829   */\n      tag_256\n      jump\t// in\n    tag_397:\n        /* \"#utility.yul\":9861:9865   */\n      0x20\n        /* \"#utility.yul\":9856:9859   */\n      dup4\n        /* \"#utility.yul\":9852:9866   */\n      add\n        /* \"#utility.yul\":9838:9866   */\n      swap1\n      pop\n        /* \"#utility.yul\":9693:9872   */\n      swap3\n      swap2\n      pop\n      pop\n      jump\t// out\n        /* \"#utility.yul\":9878:9991   */\n    tag_258:\n        /* \"#utility.yul\":9948:9952   */\n      0x00\n        /* \"#utility.yul\":9980:9984   */\n      0x20\n        /* \"#utility.yul\":9975:9978   */\n      dup3\n        /* \"#utility.yul\":9971:9985   */\n      add\n        /* \"#utility.yul\":9963:9985   */\n      swap1\n      pop\n        /* \"#utility.yul\":9878:9991   */\n      swap2\n      swap1\n      pop\n      jump\t// out\n        /* \"#utility.yul\":10027:10759   */\n    tag_259:\n        /* \"#utility.yul\":10146:10149   */\n      0x00\n        /* \"#utility.yul\":10175:10229   */\n      tag_400\n        /* \"#utility.yul\":10223:10228   */\n      dup3\n        /* \"#utility.yul\":10175:10229   */\n      tag_253\n      jump\t// in\n    tag_400:\n        /* \"#utility.yul\":10245:10331   */\n      tag_401\n        /* \"#utility.yul\":10324:10330   */\n      dup2\n        /* \"#utility.yul\":10319:10322   */\n      dup6\n        /* \"#utility.yul\":10245:10331   */\n      tag_254\n      jump\t// in\n    tag_401:\n        /* \"#utility.yul\":10238:10331   */\n      swap4\n      pop\n        /* \"#utility.yul\":10355:10411   */\n      tag_402\n        /* \"#utility.yul\":10405:10410   */\n      dup4\n        /* \"#utility.yul\":10355:10411   */\n      tag_255\n      jump\t// in\n    tag_402:\n        /* \"#utility.yul\":10434:10441   */\n      dup1\n        /* \"#utility.yul\":10465:10466   */\n      0x00\n        /* \"#utility.yul\":10450:10734   */\n    tag_403:\n        /* \"#utility.yul\":10475:10481   */\n      dup4\n        /* \"#utility.yul\":10472:10473   */\n      dup2\n        /* \"#utility.yul\":10469:10482   */\n      lt\n        /* \"#utility.yul\":10450:10734   */\n      iszero\n      tag_405\n      jumpi\n        /* \"#utility.yul\":10551:10557   */\n      dup2\n        /* \"#utility.yul\":10545:10558   */\n      mload\n        /* \"#utility.yul\":10578:10641   */\n      tag_406\n        /* \"#utility.yul\":10637:10640   */\n      dup9\n        /* \"#utility.yul\":10622:10635   */\n      dup3\n        /* \"#utility.yul\":10578:10641   */\n      tag_257\n      jump\t// in\n    tag_406:\n        /* \"#utility.yul\":10571:10641   */\n      swap8\n      pop\n        /* \"#utility.yul\":10664:10724   */\n      tag_407\n        /* \"#utility.yul\":10717:10723   */\n      dup4\n        /* \"#utility.yul\":10664:10724   */\n      tag_258\n      jump\t// in\n    tag_407:\n        /* \"#utility.yul\":10654:10724   */\n      swap3\n      pop\n        /* \"#utility.yul\":10510:10734   */\n      pop\n        /* \"#utility.yul\":10497:10498   */\n      0x01\n        /* \"#utility.yul\":10494:10495   */\n      dup2\n        /* \"#utility.yul\":10490:10499   */\n      add\n        /* \"#utility.yul\":10485:10499   */\n      swap1\n      pop\n        /* \"#utility.yul\":10450:10734   */\n      jump(tag_403)\n    tag_405:\n        /* \"#utility.yul\":10454:10468   */\n      pop\n        /* \"#utility.yul\":10750:10753   */\n      dup6\n        /* \"#utility.yul\":10743:10753   */\n      swap4\n      pop\n        /* \"#utility.yul\":10151:10759   */\n      pop\n      pop\n      pop\n        /* \"#utility.yul\":10027:10759   */\n      swap3\n      swap2\n      pop\n      pop\n      jump\t// out\n        /* \"#utility.yul\":10765:11138   */\n    tag_88:\n        /* \"#utility.yul\":10908:10912   */\n      0x00\n        /* \"#utility.yul\":10946:10948   */\n      0x20\n        /* \"#utility.yul\":10935:10944   */\n      dup3\n        /* \"#utility.yul\":10931:10949   */\n      add\n        /* \"#utility.yul\":10923:10949   */\n      swap1\n      pop\n        /* \"#utility.yul\":10995:11004   */\n      dup2\n        /* \"#utility.yul\":10989:10993   */\n      dup2\n        /* \"#utility.yul\":10985:11005   */\n      sub\n        /* \"#utility.yul\":10981:10982   */\n      0x00\n        /* \"#utility.yul\":10970:10979   */\n      dup4\n        /* \"#utility.yul\":10966:10983   */\n      add\n        /* \"#utility.yul\":10959:11006   */\n      mstore\n        /* \"#utility.yul\":11023:11131   */\n      tag_409\n        /* \"#utility.yul\":11126:11130   */\n      dup2\n        /* \"#utility.yul\":11117:11123   */\n      dup5\n        /* \"#utility.yul\":11023:11131   */\n      tag_259\n      jump\t// in\n    tag_409:\n        /* \"#utility.yul\":11015:11131   */\n      swap1\n      pop\n        /* \"#utility.yul\":10765:11138   */\n      swap3\n      swap2\n      pop\n      pop\n      jump\t// out\n        /* \"#utility.yul\":11144:11618   */\n    tag_95:\n        /* \"#utility.yul\":11212:11218   */\n      0x00\n        /* \"#utility.yul\":11220:11226   */\n      dup1\n        /* \"#utility.yul\":11269:11271   */\n      0x40\n        /* \"#utility.yul\":11257:11266   */\n      dup4\n        /* \"#utility.yul\":11248:11255   */\n      dup6\n        /* \"#utility.yul\":11244:11267   */\n      sub\n        /* \"#utility.yul\":11240:11272   */\n      slt\n        /* \"#utility.yul\":11237:11356   */\n      iszero\n      tag_411\n      jumpi\n        /* \"#utility.yul\":11275:11354   */\n      tag_412\n      tag_229\n      jump\t// in\n    tag_412:\n        /* \"#utility.yul\":11237:11356   */\n    tag_411:\n        /* \"#utility.yul\":11395:11396   */\n      0x00\n        /* \"#utility.yul\":11420:11473   */\n      tag_413\n        /* \"#utility.yul\":11465:11472   */\n      dup6\n        /* \"#utility.yul\":11456:11462   */\n      dup3\n        /* \"#utility.yul\":11445:11454   */\n      dup7\n        /* \"#utility.yul\":11441:11463   */\n      add\n        /* \"#utility.yul\":11420:11473   */\n      tag_243\n      jump\t// in\n    tag_413:\n        /* \"#utility.yul\":11410:11473   */\n      swap3\n      pop\n        /* \"#utility.yul\":11366:11483   */\n      pop\n        /* \"#utility.yul\":11522:11524   */\n      0x20\n        /* \"#utility.yul\":11548:11601   */\n      tag_414\n        /* \"#utility.yul\":11593:11600   */\n      dup6\n        /* \"#utility.yul\":11584:11590   */\n      dup3\n        /* \"#utility.yul\":11573:11582   */\n      dup7\n        /* \"#utility.yul\":11569:11591   */\n      add\n        /* \"#utility.yul\":11548:11601   */\n      tag_243\n      jump\t// in\n    tag_414:\n        /* \"#utility.yul\":11538:11601   */\n      swap2\n      pop\n        /* \"#utility.yul\":11493:11611   */\n      pop\n        /* \"#utility.yul\":11144:11618   */\n      swap3\n      pop\n      swap3\n      swap1\n      pop\n      jump\t// out\n        /* \"#utility.yul\":11624:12098   */\n    tag_100:\n        /* \"#utility.yul\":11692:11698   */\n      0x00\n        /* \"#utility.yul\":11700:11706   */\n      dup1\n        /* \"#utility.yul\":11749:11751   */\n      0x40\n        /* \"#utility.yul\":11737:11746   */\n      dup4\n        /* \"#utility.yul\":11728:11735   */\n      dup6\n        /* \"#utility.yul\":11724:11747   */\n      sub\n        /* \"#utility.yul\":11720:11752   */\n      slt\n        /* \"#utility.yul\":11717:11836   */\n      iszero\n      tag_416\n      jumpi\n        /* \"#utility.yul\":11755:11834   */\n      tag_417\n      tag_229\n      jump\t// in\n    tag_417:\n        /* \"#utility.yul\":11717:11836   */\n    tag_416:\n        /* \"#utility.yul\":11875:11876   */\n      0x00\n        /* \"#utility.yul\":11900:11953   */\n      tag_418\n        /* \"#utility.yul\":11945:11952   */\n      dup6\n        /* \"#utility.yul\":11936:11942   */\n      dup3\n        /* \"#utility.yul\":11925:11934   */\n      dup7\n        /* \"#utility.yul\":11921:11943   */\n      add\n        /* \"#utility.yul\":11900:11953   */\n      tag_238\n      jump\t// in\n    tag_418:\n        /* \"#utility.yul\":11890:11953   */\n      swap3\n      pop\n        /* \"#utility.yul\":11846:11963   */\n      pop\n        /* \"#utility.yul\":12002:12004   */\n      0x20\n        /* \"#utility.yul\":12028:12081   */\n      tag_419\n        /* \"#utility.yul\":12073:12080   */\n      dup6\n        /* \"#utility.yul\":12064:12070   */\n      dup3\n        /* \"#utility.yul\":12053:12062   */\n      dup7\n        /* \"#utility.yul\":12049:12071   */\n      add\n        /* \"#utility.yul\":12028:12081   */\n      tag_243\n      jump\t// in\n    tag_419:\n        /* \"#utility.yul\":12018:12081   */\n      swap2\n      pop\n        /* \"#utility.yul\":11973:12091   */\n      pop\n        /* \"#utility.yul\":11624:12098   */\n      swap3\n      pop\n      swap3\n      swap1\n      pop\n      jump\t// out\n        /* \"#utility.yul\":12104:12273   */\n    tag_260:\n        /* \"#utility.yul\":12188:12199   */\n      0x00\n        /* \"#utility.yul\":12222:12228   */\n      dup3\n        /* \"#utility.yul\":12217:12220   */\n      dup3\n        /* \"#utility.yul\":12210:12229   */\n      mstore\n        /* \"#utility.yul\":12262:12266   */\n      0x20\n        /* \"#utility.yul\":12257:12260   */\n      dup3\n        /* \"#utility.yul\":12253:12267   */\n      add\n        /* \"#utility.yul\":12238:12267   */\n      swap1\n      pop\n        /* \"#utility.yul\":12104:12273   */\n      swap3\n      swap2\n      pop\n      pop\n      jump\t// out\n        /* \"#utility.yul\":12279:12447   */\n    tag_261:\n        /* \"#utility.yul\":12419:12439   */\n      0x746f6b656e20646f657327742065786974730000000000000000000000000000\n        /* \"#utility.yul\":12415:12416   */\n      0x00\n        /* \"#utility.yul\":12407:12413   */\n      dup3\n        /* \"#utility.yul\":12403:12417   */\n      add\n        /* \"#utility.yul\":12396:12440   */\n      mstore\n        /* \"#utility.yul\":12279:12447   */\n      pop\n      jump\t// out\n        /* \"#utility.yul\":12453:12819   */\n    tag_262:\n        /* \"#utility.yul\":12595:12598   */\n      0x00\n        /* \"#utility.yul\":12616:12683   */\n      tag_423\n        /* \"#utility.yul\":12680:12682   */\n      0x12\n        /* \"#utility.yul\":12675:12678   */\n      dup4\n        /* \"#utility.yul\":12616:12683   */\n      tag_260\n      jump\t// in\n    tag_423:\n        /* \"#utility.yul\":12609:12683   */\n      swap2\n      pop\n        /* \"#utility.yul\":12692:12785   */\n      tag_424\n        /* \"#utility.yul\":12781:12784   */\n      dup3\n        /* \"#utility.yul\":12692:12785   */\n      tag_261\n      jump\t// in\n    tag_424:\n        /* \"#utility.yul\":12810:12812   */\n      0x20\n        /* \"#utility.yul\":12805:12808   */\n      dup3\n        /* \"#utility.yul\":12801:12813   */\n      add\n        /* \"#utility.yul\":12794:12813   */\n      swap1\n      pop\n        /* \"#utility.yul\":12453:12819   */\n      swap2\n      swap1\n      pop\n      jump\t// out\n        /* \"#utility.yul\":12825:13244   */\n    tag_107:\n        /* \"#utility.yul\":12991:12995   */\n      0x00\n        /* \"#utility.yul\":13029:13031   */\n      0x20\n        /* \"#utility.yul\":13018:13027   */\n      dup3\n        /* \"#utility.yul\":13014:13032   */\n      add\n        /* \"#utility.yul\":13006:13032   */\n      swap1\n      pop\n        /* \"#utility.yul\":13078:13087   */\n      dup2\n        /* \"#utility.yul\":13072:13076   */\n      dup2\n        /* \"#utility.yul\":13068:13088   */\n      sub\n        /* \"#utility.yul\":13064:13065   */\n      0x00\n        /* \"#utility.yul\":13053:13062   */\n      dup4\n        /* \"#utility.yul\":13049:13066   */\n      add\n        /* \"#utility.yul\":13042:13089   */\n      mstore\n        /* \"#utility.yul\":13106:13237   */\n      tag_426\n        /* \"#utility.yul\":13232:13236   */\n      dup2\n        /* \"#utility.yul\":13106:13237   */\n      tag_262\n      jump\t// in\n    tag_426:\n        /* \"#utility.yul\":13098:13237   */\n      swap1\n      pop\n        /* \"#utility.yul\":12825:13244   */\n      swap2\n      swap1\n      pop\n      jump\t// out\n        /* \"#utility.yul\":13250:13414   */\n    tag_263:\n        /* \"#utility.yul\":13390:13406   */\n      0x6e6f7420617574686f72697a6564000000000000000000000000000000000000\n        /* \"#utility.yul\":13386:13387   */\n      0x00\n        /* \"#utility.yul\":13378:13384   */\n      dup3\n        /* \"#utility.yul\":13374:13388   */\n      add\n        /* \"#utility.yul\":13367:13407   */\n      mstore\n        /* \"#utility.yul\":13250:13414   */\n      pop\n      jump\t// out\n        /* \"#utility.yul\":13420:13786   */\n    tag_264:\n        /* \"#utility.yul\":13562:13565   */\n      0x00\n        /* \"#utility.yul\":13583:13650   */\n      tag_429\n        /* \"#utility.yul\":13647:13649   */\n      0x0e\n        /* \"#utility.yul\":13642:13645   */\n      dup4\n        /* \"#utility.yul\":13583:13650   */\n      tag_260\n      jump\t// in\n    tag_429:\n        /* \"#utility.yul\":13576:13650   */\n      swap2\n      pop\n        /* \"#utility.yul\":13659:13752   */\n      tag_430\n        /* \"#utility.yul\":13748:13751   */\n      dup3\n        /* \"#utility.yul\":13659:13752   */\n      tag_263\n      jump\t// in\n    tag_430:\n        /* \"#utility.yul\":13777:13779   */\n      0x20\n        /* \"#utility.yul\":13772:13775   */\n      dup3\n        /* \"#utility.yul\":13768:13780   */\n      add\n        /* \"#utility.yul\":13761:13780   */\n      swap1\n      pop\n        /* \"#utility.yul\":13420:13786   */\n      swap2\n      swap1\n      pop\n      jump\t// out\n        /* \"#utility.yul\":13792:14211   */\n    tag_112:\n        /* \"#utility.yul\":13958:13962   */\n      0x00\n        /* \"#utility.yul\":13996:13998   */\n      0x20\n        /* \"#utility.yul\":13985:13994   */\n      dup3\n        /* \"#utility.yul\":13981:13999   */\n      add\n        /* \"#utility.yul\":13973:13999   */\n      swap1\n      pop\n        /* \"#utility.yul\":14045:14054   */\n      dup2\n        /* \"#utility.yul\":14039:14043   */\n      dup2\n        /* \"#utility.yul\":14035:14055   */\n      sub\n        /* \"#utility.yul\":14031:14032   */\n      0x00\n        /* \"#utility.yul\":14020:14029   */\n      dup4\n        /* \"#utility.yul\":14016:14033   */\n      add\n        /* \"#utility.yul\":14009:14056   */\n      mstore\n        /* \"#utility.yul\":14073:14204   */\n      tag_432\n        /* \"#utility.yul\":14199:14203   */\n      dup2\n        /* \"#utility.yul\":14073:14204   */\n      tag_264\n      jump\t// in\n    tag_432:\n        /* \"#utility.yul\":14065:14204   */\n      swap1\n      pop\n        /* \"#utility.yul\":13792:14211   */\n      swap2\n      swap1\n      pop\n      jump\t// out\n        /* \"#utility.yul\":14217:14380   */\n    tag_265:\n        /* \"#utility.yul\":14357:14372   */\n      0x66726f6d20213d206f776e657200000000000000000000000000000000000000\n        /* \"#utility.yul\":14353:14354   */\n      0x00\n        /* \"#utility.yul\":14345:14351   */\n      dup3\n        /* \"#utility.yul\":14341:14355   */\n      add\n        /* \"#utility.yul\":14334:14373   */\n      mstore\n        /* \"#utility.yul\":14217:14380   */\n      pop\n      jump\t// out\n        /* \"#utility.yul\":14386:14752   */\n    tag_266:\n        /* \"#utility.yul\":14528:14531   */\n      0x00\n        /* \"#utility.yul\":14549:14616   */\n      tag_435\n        /* \"#utility.yul\":14613:14615   */\n      0x0d\n        /* \"#utility.yul\":14608:14611   */\n      dup4\n        /* \"#utility.yul\":14549:14616   */\n      tag_260\n      jump\t// in\n    tag_435:\n        /* \"#utility.yul\":14542:14616   */\n      swap2\n      pop\n        /* \"#utility.yul\":14625:14718   */\n      tag_436\n        /* \"#utility.yul\":14714:14717   */\n      dup3\n        /* \"#utility.yul\":14625:14718   */\n      tag_265\n      jump\t// in\n    tag_436:\n        /* \"#utility.yul\":14743:14745   */\n      0x20\n        /* \"#utility.yul\":14738:14741   */\n      dup3\n        /* \"#utility.yul\":14734:14746   */\n      add\n        /* \"#utility.yul\":14727:14746   */\n      swap1\n      pop\n        /* \"#utility.yul\":14386:14752   */\n      swap2\n      swap1\n      pop\n      jump\t// out\n        /* \"#utility.yul\":14758:15177   */\n    tag_116:\n        /* \"#utility.yul\":14924:14928   */\n      0x00\n        /* \"#utility.yul\":14962:14964   */\n      0x20\n        /* \"#utility.yul\":14951:14960   */\n      dup3\n        /* \"#utility.yul\":14947:14965   */\n      add\n        /* \"#utility.yul\":14939:14965   */\n      swap1\n      pop\n        /* \"#utility.yul\":15011:15020   */\n      dup2\n        /* \"#utility.yul\":15005:15009   */\n      dup2\n        /* \"#utility.yul\":15001:15021   */\n      sub\n        /* \"#utility.yul\":14997:14998   */\n      0x00\n        /* \"#utility.yul\":14986:14995   */\n      dup4\n        /* \"#utility.yul\":14982:14999   */\n      add\n        /* \"#utility.yul\":14975:15022   */\n      mstore\n        /* \"#utility.yul\":15039:15170   */\n      tag_438\n        /* \"#utility.yul\":15165:15169   */\n      dup2\n        /* \"#utility.yul\":15039:15170   */\n      tag_266\n      jump\t// in\n    tag_438:\n        /* \"#utility.yul\":15031:15170   */\n      swap1\n      pop\n        /* \"#utility.yul\":14758:15177   */\n      swap2\n      swap1\n      pop\n      jump\t// out\n        /* \"#utility.yul\":15183:15350   */\n    tag_267:\n        /* \"#utility.yul\":15323:15342   */\n      0x746f203d207a65726f2061646472657373000000000000000000000000000000\n        /* \"#utility.yul\":15319:15320   */\n      0x00\n        /* \"#utility.yul\":15311:15317   */\n      dup3\n        /* \"#utility.yul\":15307:15321   */\n      add\n        /* \"#utility.yul\":15300:15343   */\n      mstore\n        /* \"#utility.yul\":15183:15350   */\n      pop\n      jump\t// out\n        /* \"#utility.yul\":15356:15722   */\n    tag_268:\n        /* \"#utility.yul\":15498:15501   */\n      0x00\n        /* \"#utility.yul\":15519:15586   */\n      tag_441\n        /* \"#utility.yul\":15583:15585   */\n      0x11\n        /* \"#utility.yul\":15578:15581   */\n      dup4\n        /* \"#utility.yul\":15519:15586   */\n      tag_260\n      jump\t// in\n    tag_441:\n        /* \"#utility.yul\":15512:15586   */\n      swap2\n      pop\n        /* \"#utility.yul\":15595:15688   */\n      tag_442\n        /* \"#utility.yul\":15684:15687   */\n      dup3\n        /* \"#utility.yul\":15595:15688   */\n      tag_267\n      jump\t// in\n    tag_442:\n        /* \"#utility.yul\":15713:15715   */\n      0x20\n        /* \"#utility.yul\":15708:15711   */\n      dup3\n        /* \"#utility.yul\":15704:15716   */\n      add\n        /* \"#utility.yul\":15697:15716   */\n      swap1\n      pop\n        /* \"#utility.yul\":15356:15722   */\n      swap2\n      swap1\n      pop\n      jump\t// out\n        /* \"#utility.yul\":15728:16147   */\n    tag_119:\n        /* \"#utility.yul\":15894:15898   */\n      0x00\n        /* \"#utility.yul\":15932:15934   */\n      0x20\n        /* \"#utility.yul\":15921:15930   */\n      dup3\n        /* \"#utility.yul\":15917:15935   */\n      add\n        /* \"#utility.yul\":15909:15935   */\n      swap1\n      pop\n        /* \"#utility.yul\":15981:15990   */\n      dup2\n        /* \"#utility.yul\":15975:15979   */\n      dup2\n        /* \"#utility.yul\":15971:15991   */\n      sub\n        /* \"#utility.yul\":15967:15968   */\n      0x00\n        /* \"#utility.yul\":15956:15965   */\n      dup4\n        /* \"#utility.yul\":15952:15969   */\n      add\n        /* \"#utility.yul\":15945:15992   */\n      mstore\n        /* \"#utility.yul\":16009:16140   */\n      tag_444\n        /* \"#utility.yul\":16135:16139   */\n      dup2\n        /* \"#utility.yul\":16009:16140   */\n      tag_268\n      jump\t// in\n    tag_444:\n        /* \"#utility.yul\":16001:16140   */\n      swap1\n      pop\n        /* \"#utility.yul\":15728:16147   */\n      swap2\n      swap1\n      pop\n      jump\t// out\n        /* \"#utility.yul\":16153:16333   */\n    tag_269:\n        /* \"#utility.yul\":16201:16278   */\n      0x4e487b7100000000000000000000000000000000000000000000000000000000\n        /* \"#utility.yul\":16198:16199   */\n      0x00\n        /* \"#utility.yul\":16191:16279   */\n      mstore\n        /* \"#utility.yul\":16298:16302   */\n      0x11\n        /* \"#utility.yul\":16295:16296   */\n      0x04\n        /* \"#utility.yul\":16288:16303   */\n      mstore\n        /* \"#utility.yul\":16322:16326   */\n      0x24\n        /* \"#utility.yul\":16319:16320   */\n      0x00\n        /* \"#utility.yul\":16312:16327   */\n      revert\n        /* \"#utility.yul\":16339:16510   */\n    tag_125:\n        /* \"#utility.yul\":16378:16381   */\n      0x00\n        /* \"#utility.yul\":16401:16425   */\n      tag_447\n        /* \"#utility.yul\":16419:16424   */\n      dup3\n        /* \"#utility.yul\":16401:16425   */\n      tag_236\n      jump\t// in\n    tag_447:\n        /* \"#utility.yul\":16392:16425   */\n      swap2\n      pop\n        /* \"#utility.yul\":16447:16451   */\n      0x00\n        /* \"#utility.yul\":16440:16445   */\n      dup3\n        /* \"#utility.yul\":16437:16452   */\n      sub\n        /* \"#utility.yul\":16434:16475   */\n      tag_448\n      jumpi\n        /* \"#utility.yul\":16455:16473   */\n      tag_449\n      tag_269\n      jump\t// in\n    tag_449:\n        /* \"#utility.yul\":16434:16475   */\n    tag_448:\n        /* \"#utility.yul\":16502:16503   */\n      0x01\n        /* \"#utility.yul\":16495:16500   */\n      dup3\n        /* \"#utility.yul\":16491:16504   */\n      sub\n        /* \"#utility.yul\":16484:16504   */\n      swap1\n      pop\n        /* \"#utility.yul\":16339:16510   */\n      swap2\n      swap1\n      pop\n      jump\t// out\n        /* \"#utility.yul\":16516:16749   */\n    tag_127:\n        /* \"#utility.yul\":16555:16558   */\n      0x00\n        /* \"#utility.yul\":16578:16602   */\n      tag_451\n        /* \"#utility.yul\":16596:16601   */\n      dup3\n        /* \"#utility.yul\":16578:16602   */\n      tag_236\n      jump\t// in\n    tag_451:\n        /* \"#utility.yul\":16569:16602   */\n      swap2\n      pop\n        /* \"#utility.yul\":16624:16690   */\n      0xffffffffffffffffffffffffffffffffffffffffffffffffffffffffffffffff\n        /* \"#utility.yul\":16617:16622   */\n      dup3\n        /* \"#utility.yul\":16614:16691   */\n      sub\n        /* \"#utility.yul\":16611:16714   */\n      tag_452\n      jumpi\n        /* \"#utility.yul\":16694:16712   */\n      tag_453\n      tag_269\n      jump\t// in\n    tag_453:\n        /* \"#utility.yul\":16611:16714   */\n    tag_452:\n        /* \"#utility.yul\":16741:16742   */\n      0x01\n        /* \"#utility.yul\":16734:16739   */\n      dup3\n        /* \"#utility.yul\":16730:16743   */\n      add\n        /* \"#utility.yul\":16723:16743   */\n      swap1\n      pop\n        /* \"#utility.yul\":16516:16749   */\n      swap2\n      swap1\n      pop\n      jump\t// out\n        /* \"#utility.yul\":16755:16949   */\n    tag_134:\n        /* \"#utility.yul\":16795:16799   */\n      0x00\n        /* \"#utility.yul\":16815:16835   */\n      tag_455\n        /* \"#utility.yul\":16833:16834   */\n      dup3\n        /* \"#utility.yul\":16815:16835   */\n      tag_236\n      jump\t// in\n    tag_455:\n        /* \"#utility.yul\":16810:16835   */\n      swap2\n      pop\n        /* \"#utility.yul\":16849:16869   */\n      tag_456\n        /* \"#utility.yul\":16867:16868   */\n      dup4\n        /* \"#utility.yul\":16849:16869   */\n      tag_236\n      jump\t// in\n    tag_456:\n        /* \"#utility.yul\":16844:16869   */\n      swap3\n      pop\n        /* \"#utility.yul\":16893:16894   */\n      dup3\n        /* \"#utility.yul\":16890:16891   */\n      dup3\n        /* \"#utility.yul\":16886:16895   */\n      sub\n        /* \"#utility.yul\":16878:16895   */\n      swap1\n      pop\n        /* \"#utility.yul\":16917:16918   */\n      dup2\n        /* \"#utility.yul\":16911:16915   */\n      dup2\n        /* \"#utility.yul\":16908:16919   */\n      gt\n        /* \"#utility.yul\":16905:16942   */\n      iszero\n      tag_457\n      jumpi\n        /* \"#utility.yul\":16922:16940   */\n      tag_458\n      tag_269\n      jump\t// in\n    tag_458:\n        /* \"#utility.yul\":16905:16942   */\n    tag_457:\n        /* \"#utility.yul\":16755:16949   */\n      swap3\n      swap2\n      pop\n      pop\n      jump\t// out\n        /* \"#utility.yul\":16955:17123   */\n    tag_270:\n        /* \"#utility.yul\":17038:17049   */\n      0x00\n        /* \"#utility.yul\":17072:17078   */\n      dup3\n        /* \"#utility.yul\":17067:17070   */\n      dup3\n        /* \"#utility.yul\":17060:17079   */\n      mstore\n        /* \"#utility.yul\":17112:17116   */\n      0x20\n        /* \"#utility.yul\":17107:17110   */\n      dup3\n        /* \"#utility.yul\":17103:17117   */\n      add\n        /* \"#utility.yul\":17088:17117   */\n      swap1\n      pop\n        /* \"#utility.yul\":16955:17123   */\n      swap3\n      swap2\n      pop\n      pop\n      jump\t// out\n        /* \"#utility.yul\":17129:17243   */\n    tag_271:\n      pop\n      jump\t// out\n        /* \"#utility.yul\":17249:17611   */\n    tag_272:\n        /* \"#utility.yul\":17390:17393   */\n      0x00\n        /* \"#utility.yul\":17411:17476   */\n      tag_462\n        /* \"#utility.yul\":17474:17475   */\n      0x00\n        /* \"#utility.yul\":17469:17472   */\n      dup4\n        /* \"#utility.yul\":17411:17476   */\n      tag_270\n      jump\t// in\n    tag_462:\n        /* \"#utility.yul\":17404:17476   */\n      swap2\n      pop\n        /* \"#utility.yul\":17485:17578   */\n      tag_463\n        /* \"#utility.yul\":17574:17577   */\n      dup3\n        /* \"#utility.yul\":17485:17578   */\n      tag_271\n      jump\t// in\n    tag_463:\n        /* \"#utility.yul\":17603:17604   */\n      0x00\n        /* \"#utility.yul\":17598:17601   */\n      dup3\n        /* \"#utility.yul\":17594:17605   */\n      add\n        /* \"#utility.yul\":17587:17605   */\n      swap1\n      pop\n        /* \"#utility.yul\":17249:17611   */\n      swap2\n      swap1\n      pop\n      jump\t// out\n        /* \"#utility.yul\":17617:18365   */\n    tag_139:\n        /* \"#utility.yul\":17866:17870   */\n      0x00\n        /* \"#utility.yul\":17904:17907   */\n      0x80\n        /* \"#utility.yul\":17893:17902   */\n      dup3\n        /* \"#utility.yul\":17889:17908   */\n      add\n        /* \"#utility.yul\":17881:17908   */\n      swap1\n      pop\n        /* \"#utility.yul\":17918:17989   */\n      tag_465\n        /* \"#utility.yul\":17986:17987   */\n      0x00\n        /* \"#utility.yul\":17975:17984   */\n      dup4\n        /* \"#utility.yul\":17971:17988   */\n      add\n        /* \"#utility.yul\":17962:17968   */\n      dup7\n        /* \"#utility.yul\":17918:17989   */\n      tag_241\n      jump\t// in\n    tag_465:\n        /* \"#utility.yul\":17999:18071   */\n      tag_466\n        /* \"#utility.yul\":18067:18069   */\n      0x20\n        /* \"#utility.yul\":18056:18065   */\n      dup4\n        /* \"#utility.yul\":18052:18070   */\n      add\n        /* \"#utility.yul\":18043:18049   */\n      dup6\n        /* \"#utility.yul\":17999:18071   */\n      tag_241\n      jump\t// in\n    tag_466:\n        /* \"#utility.yul\":18081:18153   */\n      tag_467\n        /* \"#utility.yul\":18149:18151   */\n      0x40\n        /* \"#utility.yul\":18138:18147   */\n      dup4\n        /* \"#utility.yul\":18134:18152   */\n      add\n        /* \"#utility.yul\":18125:18131   */\n      dup5\n        /* \"#utility.yul\":18081:18153   */\n      tag_244\n      jump\t// in\n    tag_467:\n        /* \"#utility.yul\":18200:18209   */\n      dup2\n        /* \"#utility.yul\":18194:18198   */\n      dup2\n        /* \"#utility.yul\":18190:18210   */\n      sub\n        /* \"#utility.yul\":18185:18187   */\n      0x60\n        /* \"#utility.yul\":18174:18183   */\n      dup4\n        /* \"#utility.yul\":18170:18188   */\n      add\n        /* \"#utility.yul\":18163:18211   */\n      mstore\n        /* \"#utility.yul\":18228:18358   */\n      tag_468\n        /* \"#utility.yul\":18353:18357   */\n      dup2\n        /* \"#utility.yul\":18228:18358   */\n      tag_272\n      jump\t// in\n    tag_468:\n        /* \"#utility.yul\":18220:18358   */\n      swap1\n      pop\n        /* \"#utility.yul\":17617:18365   */\n      swap5\n      swap4\n      pop\n      pop\n      pop\n      pop\n      jump\t// out\n        /* \"#utility.yul\":18371:18512   */\n    tag_273:\n        /* \"#utility.yul\":18427:18432   */\n      0x00\n        /* \"#utility.yul\":18458:18464   */\n      dup2\n        /* \"#utility.yul\":18452:18465   */\n      mload\n        /* \"#utility.yul\":18443:18465   */\n      swap1\n      pop\n        /* \"#utility.yul\":18474:18506   */\n      tag_470\n        /* \"#utility.yul\":18500:18505   */\n      dup2\n        /* \"#utility.yul\":18474:18506   */\n      tag_232\n      jump\t// in\n    tag_470:\n        /* \"#utility.yul\":18371:18512   */\n      swap3\n      swap2\n      pop\n      pop\n      jump\t// out\n        /* \"#utility.yul\":18518:18867   */\n    tag_143:\n        /* \"#utility.yul\":18587:18593   */\n      0x00\n        /* \"#utility.yul\":18636:18638   */\n      0x20\n        /* \"#utility.yul\":18624:18633   */\n      dup3\n        /* \"#utility.yul\":18615:18622   */\n      dup5\n        /* \"#utility.yul\":18611:18634   */\n      sub\n        /* \"#utility.yul\":18607:18639   */\n      slt\n        /* \"#utility.yul\":18604:18723   */\n      iszero\n      tag_472\n      jumpi\n        /* \"#utility.yul\":18642:18721   */\n      tag_473\n      tag_229\n      jump\t// in\n    tag_473:\n        /* \"#utility.yul\":18604:18723   */\n    tag_472:\n        /* \"#utility.yul\":18762:18763   */\n      0x00\n        /* \"#utility.yul\":18787:18850   */\n      tag_474\n        /* \"#utility.yul\":18842:18849   */\n      dup5\n        /* \"#utility.yul\":18833:18839   */\n      dup3\n        /* \"#utility.yul\":18822:18831   */\n      dup6\n        /* \"#utility.yul\":18818:18840   */\n      add\n        /* \"#utility.yul\":18787:18850   */\n      tag_273\n      jump\t// in\n    tag_474:\n        /* \"#utility.yul\":18777:18850   */\n      swap2\n      pop\n        /* \"#utility.yul\":18733:18860   */\n      pop\n        /* \"#utility.yul\":18518:18867   */\n      swap3\n      swap2\n      pop\n      pop\n      jump\t// out\n        /* \"#utility.yul\":18873:19039   */\n    tag_274:\n        /* \"#utility.yul\":19013:19031   */\n      0x756e7361666520726563697069656e7400000000000000000000000000000000\n        /* \"#utility.yul\":19009:19010   */\n      0x00\n        /* \"#utility.yul\":19001:19007   */\n      dup3\n        /* \"#utility.yul\":18997:19011   */\n      add\n        /* \"#utility.yul\":18990:19032   */\n      mstore\n        /* \"#utility.yul\":18873:19039   */\n      pop\n      jump\t// out\n        /* \"#utility.yul\":19045:19411   */\n    tag_275:\n        /* \"#utility.yul\":19187:19190   */\n      0x00\n        /* \"#utility.yul\":19208:19275   */\n      tag_477\n        /* \"#utility.yul\":19272:19274   */\n      0x10\n        /* \"#utility.yul\":19267:19270   */\n      dup4\n        /* \"#utility.yul\":19208:19275   */\n      tag_260\n      jump\t// in\n    tag_477:\n        /* \"#utility.yul\":19201:19275   */\n      swap2\n      pop\n        /* \"#utility.yul\":19284:19377   */\n      tag_478\n        /* \"#utility.yul\":19373:19376   */\n      dup3\n        /* \"#utility.yul\":19284:19377   */\n      tag_274\n      jump\t// in\n    tag_478:\n        /* \"#utility.yul\":19402:19404   */\n      0x20\n        /* \"#utility.yul\":19397:19400   */\n      dup3\n        /* \"#utility.yul\":19393:19405   */\n      add\n        /* \"#utility.yul\":19386:19405   */\n      swap1\n      pop\n        /* \"#utility.yul\":19045:19411   */\n      swap2\n      swap1\n      pop\n      jump\t// out\n        /* \"#utility.yul\":19417:19836   */\n    tag_146:\n        /* \"#utility.yul\":19583:19587   */\n      0x00\n        /* \"#utility.yul\":19621:19623   */\n      0x20\n        /* \"#utility.yul\":19610:19619   */\n      dup3\n        /* \"#utility.yul\":19606:19624   */\n      add\n        /* \"#utility.yul\":19598:19624   */\n      swap1\n      pop\n        /* \"#utility.yul\":19670:19679   */\n      dup2\n        /* \"#utility.yul\":19664:19668   */\n      dup2\n        /* \"#utility.yul\":19660:19680   */\n      sub\n        /* \"#utility.yul\":19656:19657   */\n      0x00\n        /* \"#utility.yul\":19645:19654   */\n      dup4\n        /* \"#utility.yul\":19641:19658   */\n      add\n        /* \"#utility.yul\":19634:19681   */\n      mstore\n        /* \"#utility.yul\":19698:19829   */\n      tag_480\n        /* \"#utility.yul\":19824:19828   */\n      dup2\n        /* \"#utility.yul\":19698:19829   */\n      tag_275\n      jump\t// in\n    tag_480:\n        /* \"#utility.yul\":19690:19829   */\n      swap1\n      pop\n        /* \"#utility.yul\":19417:19836   */\n      swap2\n      swap1\n      pop\n      jump\t// out\n        /* \"#utility.yul\":19842:20012   */\n    tag_276:\n        /* \"#utility.yul\":19982:20004   */\n      0x6f776e6572203d207a65726f2061646472657373000000000000000000000000\n        /* \"#utility.yul\":19978:19979   */\n      0x00\n        /* \"#utility.yul\":19970:19976   */\n      dup3\n        /* \"#utility.yul\":19966:19980   */\n      add\n        /* \"#utility.yul\":19959:20005   */\n      mstore\n        /* \"#utility.yul\":19842:20012   */\n      pop\n      jump\t// out\n        /* \"#utility.yul\":20018:20384   */\n    tag_277:\n        /* \"#utility.yul\":20160:20163   */\n      0x00\n        /* \"#utility.yul\":20181:20248   */\n      tag_483\n        /* \"#utility.yul\":20245:20247   */\n      0x14\n        /* \"#utility.yul\":20240:20243   */\n      dup4\n        /* \"#utility.yul\":20181:20248   */\n      tag_260\n      jump\t// in\n    tag_483:\n        /* \"#utility.yul\":20174:20248   */\n      swap2\n      pop\n        /* \"#utility.yul\":20257:20350   */\n      tag_484\n        /* \"#utility.yul\":20346:20349   */\n      dup3\n        /* \"#utility.yul\":20257:20350   */\n      tag_276\n      jump\t// in\n    tag_484:\n        /* \"#utility.yul\":20375:20377   */\n      0x20\n        /* \"#utility.yul\":20370:20373   */\n      dup3\n        /* \"#utility.yul\":20366:20378   */\n      add\n        /* \"#utility.yul\":20359:20378   */\n      swap1\n      pop\n        /* \"#utility.yul\":20018:20384   */\n      swap2\n      swap1\n      pop\n      jump\t// out\n        /* \"#utility.yul\":20390:20809   */\n    tag_150:\n        /* \"#utility.yul\":20556:20560   */\n      0x00\n        /* \"#utility.yul\":20594:20596   */\n      0x20\n        /* \"#utility.yul\":20583:20592   */\n      dup3\n        /* \"#utility.yul\":20579:20597   */\n      add\n        /* \"#utility.yul\":20571:20597   */\n      swap1\n      pop\n        /* \"#utility.yul\":20643:20652   */\n      dup2\n        /* \"#utility.yul\":20637:20641   */\n      dup2\n        /* \"#utility.yul\":20633:20653   */\n      sub\n        /* \"#utility.yul\":20629:20630   */\n      0x00\n        /* \"#utility.yul\":20618:20627   */\n      dup4\n        /* \"#utility.yul\":20614:20631   */\n      add\n        /* \"#utility.yul\":20607:20654   */\n      mstore\n        /* \"#utility.yul\":20671:20802   */\n      tag_486\n        /* \"#utility.yul\":20797:20801   */\n      dup2\n        /* \"#utility.yul\":20671:20802   */\n      tag_277\n      jump\t// in\n    tag_486:\n        /* \"#utility.yul\":20663:20802   */\n      swap1\n      pop\n        /* \"#utility.yul\":20390:20809   */\n      swap2\n      swap1\n      pop\n      jump\t// out\n        /* \"#utility.yul\":20815:20961   */\n    tag_278:\n        /* \"#utility.yul\":20912:20918   */\n      dup3\n        /* \"#utility.yul\":20907:20910   */\n      dup2\n        /* \"#utility.yul\":20902:20905   */\n      dup4\n        /* \"#utility.yul\":20889:20919   */\n      calldatacopy\n        /* \"#utility.yul\":20953:20954   */\n      0x00\n        /* \"#utility.yul\":20944:20950   */\n      dup4\n        /* \"#utility.yul\":20939:20942   */\n      dup4\n        /* \"#utility.yul\":20935:20951   */\n      add\n        /* \"#utility.yul\":20928:20955   */\n      mstore\n        /* \"#utility.yul\":20815:20961   */\n      pop\n      pop\n      pop\n      jump\t// out\n        /* \"#utility.yul\":20967:21069   */\n    tag_279:\n        /* \"#utility.yul\":21008:21014   */\n      0x00\n        /* \"#utility.yul\":21059:21061   */\n      0x1f\n        /* \"#utility.yul\":21055:21062   */\n      not\n        /* \"#utility.yul\":21050:21052   */\n      0x1f\n        /* \"#utility.yul\":21043:21048   */\n      dup4\n        /* \"#utility.yul\":21039:21053   */\n      add\n        /* \"#utility.yul\":21035:21063   */\n      and\n        /* \"#utility.yul\":21025:21063   */\n      swap1\n      pop\n        /* \"#utility.yul\":20967:21069   */\n      swap2\n      swap1\n      pop\n      jump\t// out\n        /* \"#utility.yul\":21097:21411   */\n    tag_280:\n        /* \"#utility.yul\":21193:21196   */\n      0x00\n        /* \"#utility.yul\":21214:21284   */\n      tag_490\n        /* \"#utility.yul\":21277:21283   */\n      dup4\n        /* \"#utility.yul\":21272:21275   */\n      dup6\n        /* \"#utility.yul\":21214:21284   */\n      tag_270\n      jump\t// in\n    tag_490:\n        /* \"#utility.yul\":21207:21284   */\n      swap4\n      pop\n        /* \"#utility.yul\":21294:21350   */\n      tag_491\n        /* \"#utility.yul\":21343:21349   */\n      dup4\n        /* \"#utility.yul\":21338:21341   */\n      dup6\n        /* \"#utility.yul\":21331:21336   */\n      dup5\n        /* \"#utility.yul\":21294:21350   */\n      tag_278\n      jump\t// in\n    tag_491:\n        /* \"#utility.yul\":21375:21404   */\n      tag_492\n        /* \"#utility.yul\":21397:21403   */\n      dup4\n        /* \"#utility.yul\":21375:21404   */\n      tag_279\n      jump\t// in\n    tag_492:\n        /* \"#utility.yul\":21370:21373   */\n      dup5\n        /* \"#utility.yul\":21366:21405   */\n      add\n        /* \"#utility.yul\":21359:21405   */\n      swap1\n      pop\n        /* \"#utility.yul\":21097:21411   */\n      swap4\n      swap3\n      pop\n      pop\n      pop\n      jump\t// out\n        /* \"#utility.yul\":21417:22077   */\n    tag_169:\n        /* \"#utility.yul\":21622:21626   */\n      0x00\n        /* \"#utility.yul\":21660:21663   */\n      0x80\n        /* \"#utility.yul\":21649:21658   */\n      dup3\n        /* \"#utility.yul\":21645:21664   */\n      add\n        /* \"#utility.yul\":21637:21664   */\n      swap1\n      pop\n        /* \"#utility.yul\":21674:21745   */\n      tag_494\n        /* \"#utility.yul\":21742:21743   */\n      0x00\n        /* \"#utility.yul\":21731:21740   */\n      dup4\n        /* \"#utility.yul\":21727:21744   */\n      add\n        /* \"#utility.yul\":21718:21724   */\n      dup9\n        /* \"#utility.yul\":21674:21745   */\n      tag_241\n      jump\t// in\n    tag_494:\n        /* \"#utility.yul\":21755:21827   */\n      tag_495\n        /* \"#utility.yul\":21823:21825   */\n      0x20\n        /* \"#utility.yul\":21812:21821   */\n      dup4\n        /* \"#utility.yul\":21808:21826   */\n      add\n        /* \"#utility.yul\":21799:21805   */\n      dup8\n        /* \"#utility.yul\":21755:21827   */\n      tag_241\n      jump\t// in\n    tag_495:\n        /* \"#utility.yul\":21837:21909   */\n      tag_496\n        /* \"#utility.yul\":21905:21907   */\n      0x40\n        /* \"#utility.yul\":21894:21903   */\n      dup4\n        /* \"#utility.yul\":21890:21908   */\n      add\n        /* \"#utility.yul\":21881:21887   */\n      dup7\n        /* \"#utility.yul\":21837:21909   */\n      tag_244\n      jump\t// in\n    tag_496:\n        /* \"#utility.yul\":21956:21965   */\n      dup2\n        /* \"#utility.yul\":21950:21954   */\n      dup2\n        /* \"#utility.yul\":21946:21966   */\n      sub\n        /* \"#utility.yul\":21941:21943   */\n      0x60\n        /* \"#utility.yul\":21930:21939   */\n      dup4\n        /* \"#utility.yul\":21926:21944   */\n      add\n        /* \"#utility.yul\":21919:21967   */\n      mstore\n        /* \"#utility.yul\":21984:22070   */\n      tag_497\n        /* \"#utility.yul\":22065:22069   */\n      dup2\n        /* \"#utility.yul\":22056:22062   */\n      dup5\n        /* \"#utility.yul\":22048:22054   */\n      dup7\n        /* \"#utility.yul\":21984:22070   */\n      tag_280\n      jump\t// in\n    tag_497:\n        /* \"#utility.yul\":21976:22070   */\n      swap1\n      pop\n        /* \"#utility.yul\":21417:22077   */\n      swap7\n      swap6\n      pop\n      pop\n      pop\n      pop\n      pop\n      pop\n      jump\t// out\n        /* \"#utility.yul\":22083:22242   */\n    tag_281:\n        /* \"#utility.yul\":22223:22234   */\n      0x6e6f74204f776e65720000000000000000000000000000000000000000000000\n        /* \"#utility.yul\":22219:22220   */\n      0x00\n        /* \"#utility.yul\":22211:22217   */\n      dup3\n        /* \"#utility.yul\":22207:22221   */\n      add\n        /* \"#utility.yul\":22200:22235   */\n      mstore\n        /* \"#utility.yul\":22083:22242   */\n      pop\n      jump\t// out\n        /* \"#utility.yul\":22248:22613   */\n    tag_282:\n        /* \"#utility.yul\":22390:22393   */\n      0x00\n        /* \"#utility.yul\":22411:22477   */\n      tag_500\n        /* \"#utility.yul\":22475:22476   */\n      0x09\n        /* \"#utility.yul\":22470:22473   */\n      dup4\n        /* \"#utility.yul\":22411:22477   */\n      tag_260\n      jump\t// in\n    tag_500:\n        /* \"#utility.yul\":22404:22477   */\n      swap2\n      pop\n        /* \"#utility.yul\":22486:22579   */\n      tag_501\n        /* \"#utility.yul\":22575:22578   */\n      dup3\n        /* \"#utility.yul\":22486:22579   */\n      tag_281\n      jump\t// in\n    tag_501:\n        /* \"#utility.yul\":22604:22606   */\n      0x20\n        /* \"#utility.yul\":22599:22602   */\n      dup3\n        /* \"#utility.yul\":22595:22607   */\n      add\n        /* \"#utility.yul\":22588:22607   */\n      swap1\n      pop\n        /* \"#utility.yul\":22248:22613   */\n      swap2\n      swap1\n      pop\n      jump\t// out\n        /* \"#utility.yul\":22619:23038   */\n    tag_183:\n        /* \"#utility.yul\":22785:22789   */\n      0x00\n        /* \"#utility.yul\":22823:22825   */\n      0x20\n        /* \"#utility.yul\":22812:22821   */\n      dup3\n        /* \"#utility.yul\":22808:22826   */\n      add\n        /* \"#utility.yul\":22800:22826   */\n      swap1\n      pop\n        /* \"#utility.yul\":22872:22881   */\n      dup2\n        /* \"#utility.yul\":22866:22870   */\n      dup2\n        /* \"#utility.yul\":22862:22882   */\n      sub\n        /* \"#utility.yul\":22858:22859   */\n      0x00\n        /* \"#utility.yul\":22847:22856   */\n      dup4\n        /* \"#utility.yul\":22843:22860   */\n      add\n        /* \"#utility.yul\":22836:22883   */\n      mstore\n        /* \"#utility.yul\":22900:23031   */\n      tag_503\n        /* \"#utility.yul\":23026:23030   */\n      dup2\n        /* \"#utility.yul\":22900:23031   */\n      tag_282\n      jump\t// in\n    tag_503:\n        /* \"#utility.yul\":22892:23031   */\n      swap1\n      pop\n        /* \"#utility.yul\":22619:23038   */\n      swap2\n      swap1\n      pop\n      jump\t// out\n        /* \"#utility.yul\":23044:23224   */\n    tag_198:\n        /* \"#utility.yul\":23092:23169   */\n      0x4e487b7100000000000000000000000000000000000000000000000000000000\n        /* \"#utility.yul\":23089:23090   */\n      0x00\n        /* \"#utility.yul\":23082:23170   */\n      mstore\n        /* \"#utility.yul\":23189:23193   */\n      0x32\n        /* \"#utility.yul\":23186:23187   */\n      0x04\n        /* \"#utility.yul\":23179:23194   */\n      mstore\n        /* \"#utility.yul\":23213:23217   */\n      0x24\n        /* \"#utility.yul\":23210:23211   */\n      0x00\n        /* \"#utility.yul\":23203:23218   */\n      revert\n        /* \"#utility.yul\":23230:23410   */\n    tag_209:\n        /* \"#utility.yul\":23278:23355   */\n      0x4e487b7100000000000000000000000000000000000000000000000000000000\n        /* \"#utility.yul\":23275:23276   */\n      0x00\n        /* \"#utility.yul\":23268:23356   */\n      mstore\n        /* \"#utility.yul\":23375:23379   */\n      0x31\n        /* \"#utility.yul\":23372:23373   */\n      0x04\n        /* \"#utility.yul\":23365:23380   */\n      mstore\n        /* \"#utility.yul\":23399:23403   */\n      0x24\n        /* \"#utility.yul\":23396:23397   */\n      0x00\n        /* \"#utility.yul\":23389:23404   */\n      revert\n        /* \"#utility.yul\":23416:23578   */\n    tag_283:\n        /* \"#utility.yul\":23556:23570   */\n      0x746f6b656e206578697374730000000000000000000000000000000000000000\n        /* \"#utility.yul\":23552:23553   */\n      0x00\n        /* \"#utility.yul\":23544:23550   */\n      dup3\n        /* \"#utility.yul\":23540:23554   */\n      add\n        /* \"#utility.yul\":23533:23571   */\n      mstore\n        /* \"#utility.yul\":23416:23578   */\n      pop\n      jump\t// out\n        /* \"#utility.yul\":23584:23950   */\n    tag_284:\n        /* \"#utility.yul\":23726:23729   */\n      0x00\n        /* \"#utility.yul\":23747:23814   */\n      tag_508\n        /* \"#utility.yul\":23811:23813   */\n      0x0c\n        /* \"#utility.yul\":23806:23809   */\n      dup4\n        /* \"#utility.yul\":23747:23814   */\n      tag_260\n      jump\t// in\n    tag_508:\n        /* \"#utility.yul\":23740:23814   */\n      swap2\n      pop\n        /* \"#utility.yul\":23823:23916   */\n      tag_509\n        /* \"#utility.yul\":23912:23915   */\n      dup3\n        /* \"#utility.yul\":23823:23916   */\n      tag_283\n      jump\t// in\n    tag_509:\n        /* \"#utility.yul\":23941:23943   */\n      0x20\n        /* \"#utility.yul\":23936:23939   */\n      dup3\n        /* \"#utility.yul\":23932:23944   */\n      add\n        /* \"#utility.yul\":23925:23944   */\n      swap1\n      pop\n        /* \"#utility.yul\":23584:23950   */\n      swap2\n      swap1\n      pop\n      jump\t// out\n        /* \"#utility.yul\":23956:24375   */\n    tag_216:\n        /* \"#utility.yul\":24122:24126   */\n      0x00\n        /* \"#utility.yul\":24160:24162   */\n      0x20\n        /* \"#utility.yul\":24149:24158   */\n      dup3\n        /* \"#utility.yul\":24145:24163   */\n      add\n        /* \"#utility.yul\":24137:24163   */\n      swap1\n      pop\n        /* \"#utility.yul\":24209:24218   */\n      dup2\n        /* \"#utility.yul\":24203:24207   */\n      dup2\n        /* \"#utility.yul\":24199:24219   */\n      sub\n        /* \"#utility.yul\":24195:24196   */\n      0x00\n        /* \"#utility.yul\":24184:24193   */\n      dup4\n        /* \"#utility.yul\":24180:24197   */\n      add\n        /* \"#utility.yul\":24173:24220   */\n      mstore\n        /* \"#utility.yul\":24237:24368   */\n      tag_511\n        /* \"#utility.yul\":24363:24367   */\n      dup2\n        /* \"#utility.yul\":24237:24368   */\n      tag_284\n      jump\t// in\n    tag_511:\n        /* \"#utility.yul\":24229:24368   */\n      swap1\n      pop\n        /* \"#utility.yul\":23956:24375   */\n      swap2\n      swap1\n      pop\n      jump\t// out\n        /* \"#utility.yul\":24381:24551   */\n    tag_285:\n        /* \"#utility.yul\":24521:24543   */\n      0x746f6b656e20646f6573206e6f74206578697473000000000000000000000000\n        /* \"#utility.yul\":24517:24518   */\n      0x00\n        /* \"#utility.yul\":24509:24515   */\n      dup3\n        /* \"#utility.yul\":24505:24519   */\n      add\n        /* \"#utility.yul\":24498:24544   */\n      mstore\n        /* \"#utility.yul\":24381:24551   */\n      pop\n      jump\t// out\n        /* \"#utility.yul\":24557:24923   */\n    tag_286:\n        /* \"#utility.yul\":24699:24702   */\n      0x00\n        /* \"#utility.yul\":24720:24787   */\n      tag_514\n        /* \"#utility.yul\":24784:24786   */\n      0x14\n        /* \"#utility.yul\":24779:24782   */\n      dup4\n        /* \"#utility.yul\":24720:24787   */\n      tag_260\n      jump\t// in\n    tag_514:\n        /* \"#utility.yul\":24713:24787   */\n      swap2\n      pop\n        /* \"#utility.yul\":24796:24889   */\n      tag_515\n        /* \"#utility.yul\":24885:24888   */\n      dup3\n        /* \"#utility.yul\":24796:24889   */\n      tag_285\n      jump\t// in\n    tag_515:\n        /* \"#utility.yul\":24914:24916   */\n      0x20\n        /* \"#utility.yul\":24909:24912   */\n      dup3\n        /* \"#utility.yul\":24905:24917   */\n      add\n        /* \"#utility.yul\":24898:24917   */\n      swap1\n      pop\n        /* \"#utility.yul\":24557:24923   */\n      swap2\n      swap1\n      pop\n      jump\t// out\n        /* \"#utility.yul\":24929:25348   */\n    tag_221:\n        /* \"#utility.yul\":25095:25099   */\n      0x00\n        /* \"#utility.yul\":25133:25135   */\n      0x20\n        /* \"#utility.yul\":25122:25131   */\n      dup3\n        /* \"#utility.yul\":25118:25136   */\n      add\n        /* \"#utility.yul\":25110:25136   */\n      swap1\n      pop\n        /* \"#utility.yul\":25182:25191   */\n      dup2\n        /* \"#utility.yul\":25176:25180   */\n      dup2\n        /* \"#utility.yul\":25172:25192   */\n      sub\n        /* \"#utility.yul\":25168:25169   */\n      0x00\n        /* \"#utility.yul\":25157:25166   */\n      dup4\n        /* \"#utility.yul\":25153:25170   */\n      add\n        /* \"#utility.yul\":25146:25193   */\n      mstore\n        /* \"#utility.yul\":25210:25341   */\n      tag_517\n        /* \"#utility.yul\":25336:25340   */\n      dup2\n        /* \"#utility.yul\":25210:25341   */\n      tag_286\n      jump\t// in\n    tag_517:\n        /* \"#utility.yul\":25202:25341   */\n      swap1\n      pop\n        /* \"#utility.yul\":24929:25348   */\n      swap2\n      swap1\n      pop\n      jump\t// out\n\n    auxdata: 0xa2646970667358221220452234e0f69675625165166592ad1490efbb44f1943b899cf2e009f2760d191a64736f6c63430008120033\n}\n",
				"bytecode": {
					"linkReferences": {},
					"object": "608060405260016006553480156200001657600080fd5b506040516200310c3803806200310c83398181016040528101906200003c9190620001fb565b81600490816200004d9190620004cb565b5080600590816200005f9190620004cb565b505050620005b2565b6000604051905090565b600080fd5b600080fd5b600080fd5b600080fd5b6000601f19601f8301169050919050565b7f4e487b7100000000000000000000000000000000000000000000000000000000600052604160045260246000fd5b620000d18262000086565b810181811067ffffffffffffffff82111715620000f357620000f262000097565b5b80604052505050565b60006200010862000068565b9050620001168282620000c6565b919050565b600067ffffffffffffffff82111562000139576200013862000097565b5b620001448262000086565b9050602081019050919050565b60005b838110156200017157808201518184015260208101905062000154565b60008484015250505050565b6000620001946200018e846200011b565b620000fc565b905082815260208101848484011115620001b357620001b262000081565b5b620001c084828562000151565b509392505050565b600082601f830112620001e057620001df6200007c565b5b8151620001f28482602086016200017d565b91505092915050565b6000806040838503121562000215576200021462000072565b5b600083015167ffffffffffffffff81111562000236576200023562000077565b5b6200024485828601620001c8565b925050602083015167ffffffffffffffff81111562000268576200026762000077565b5b6200027685828601620001c8565b9150509250929050565b600081519050919050565b7f4e487b7100000000000000000000000000000000000000000000000000000000600052602260045260246000fd5b60006002820490506001821680620002d357607f821691505b602082108103620002e957620002e86200028b565b5b50919050565b60008190508160005260206000209050919050565b60006020601f8301049050919050565b600082821b905092915050565b600060088302620003537fffffffffffffffffffffffffffffffffffffffffffffffffffffffffffffffff8262000314565b6200035f868362000314565b95508019841693508086168417925050509392505050565b6000819050919050565b6000819050919050565b6000620003ac620003a6620003a08462000377565b62000381565b62000377565b9050919050565b6000819050919050565b620003c8836200038b565b620003e0620003d782620003b3565b84845462000321565b825550505050565b600090565b620003f7620003e8565b62000404818484620003bd565b505050565b5b818110156200042c5762000420600082620003ed565b6001810190506200040a565b5050565b601f8211156200047b576200044581620002ef565b620004508462000304565b8101602085101562000460578190505b620004786200046f8562000304565b83018262000409565b50505b505050565b600082821c905092915050565b6000620004a06000198460080262000480565b1980831691505092915050565b6000620004bb83836200048d565b9150826002028217905092915050565b620004d68262000280565b67ffffffffffffffff811115620004f257620004f162000097565b5b620004fe8254620002ba565b6200050b82828562000430565b600060209050601f8311600181146200054357600084156200052e578287015190505b6200053a8582620004ad565b865550620005aa565b601f1984166200055386620002ef565b60005b828110156200057d5784890151825560018201915060208501945060208101905062000556565b868310156200059d578489015162000599601f8916826200048d565b8355505b6001600288020188555050505b505050505050565b612b4a80620005c26000396000f3fe608060405234801561001057600080fd5b50600436106101165760003560e01c80638bbf58b3116100a2578063b88d4fde11610071578063b88d4fde14610305578063d942dc9414610321578063deeb79a314610351578063ebd1d35914610381578063ec828722146103b157610116565b80638bbf58b31461027b57806399fbab8814610299578063a22cb465146102cd578063b11c7fd3146102e957610116565b806326908fa1116100e957806326908fa1146101b357806342842e0e146101cf5780636352211e146101eb57806370a082311461021b5780637fcda0731461024b57610116565b806301ffc9a71461011b578063081812fc1461014b578063095ea7b31461017b57806323b872dd14610197575b600080fd5b61013560048036038101906101309190611eff565b6103cd565b6040516101429190611f47565b60405180910390f35b61016560048036038101906101609190611f98565b61049f565b6040516101729190612006565b60405180910390f35b6101956004803603810190610190919061204d565b61057c565b005b6101b160048036038101906101ac919061208d565b610764565b005b6101cd60048036038101906101c8919061208d565b610a4e565b005b6101e960048036038101906101e4919061208d565b610b73565b005b61020560048036038101906102009190611f98565b610cab565b6040516102129190612006565b60405180910390f35b610235600480360381019061023091906120e0565b610d56565b604051610242919061211c565b60405180910390f35b6102656004803603810190610260919061204d565b610e0d565b604051610272919061211c565b60405180910390f35b610283610e32565b604051610290919061211c565b60405180910390f35b6102b360048036038101906102ae9190611f98565b610e38565b6040516102c4959493929190612137565b60405180910390f35b6102e760048036038101906102e291906121b6565b610ece565b005b61030360048036038101906102fe919061221a565b610fcb565b005b61031f600480360381019061031a91906122bf565b611233565b005b61033b600480360381019061033691906120e0565b611371565b6040516103489190612405565b60405180910390f35b61036b6004803603810190610366919061204d565b611408565b604051610378919061211c565b60405180910390f35b61039b60048036038101906103969190612427565b611439565b6040516103a89190611f47565b60405180910390f35b6103cb60048036038101906103c69190612467565b611468565b005b60007f80ac58cd000000000000000000000000000000000000000000000000000000007bffffffffffffffffffffffffffffffffffffffffffffffffffffffff1916827bffffffffffffffffffffffffffffffffffffffffffffffffffffffff1916148061049857507f01ffc9a7000000000000000000000000000000000000000000000000000000007bffffffffffffffffffffffffffffffffffffffffffffffffffffffff1916827bffffffffffffffffffffffffffffffffffffffffffffffffffffffff1916145b9050919050565b60008073ffffffffffffffffffffffffffffffffffffffff1660008084815260200190815260200160002060009054906101000a900473ffffffffffffffffffffffffffffffffffffffff1673ffffffffffffffffffffffffffffffffffffffff1603610541576040517f08c379a000000000000000000000000000000000000000000000000000000000815260040161053890612504565b60405180910390fd5b6002600083815260200190815260200160002060009054906101000a900473ffffffffffffffffffffffffffffffffffffffff169050919050565b600080600083815260200190815260200160002060009054906101000a900473ffffffffffffffffffffffffffffffffffffffff1690508073ffffffffffffffffffffffffffffffffffffffff163373ffffffffffffffffffffffffffffffffffffffff1614806106735750600360008273ffffffffffffffffffffffffffffffffffffffff1673ffffffffffffffffffffffffffffffffffffffff16815260200190815260200160002060003373ffffffffffffffffffffffffffffffffffffffff1673ffffffffffffffffffffffffffffffffffffffff16815260200190815260200160002060009054906101000a900460ff165b6106b2576040517f08c379a00000000000000000000000000000000000000000000000000000000081526004016106a990612570565b60405180910390fd5b826002600084815260200190815260200160002060006101000a81548173ffffffffffffffffffffffffffffffffffffffff021916908373ffffffffffffffffffffffffffffffffffffffff160217905550818373ffffffffffffffffffffffffffffffffffffffff168273ffffffffffffffffffffffffffffffffffffffff167f8c5be1e5ebec7d5bd14f71427d1e84f3dd0314c0f7b2291e5b200ac8c7c3b92560405160405180910390a4505050565b60008082815260200190815260200160002060009054906101000a900473ffffffffffffffffffffffffffffffffffffffff1673ffffffffffffffffffffffffffffffffffffffff168373ffffffffffffffffffffffffffffffffffffffff1614610804576040517f08c379a00000000000000000000000000000000000000000000000000000000081526004016107fb906125dc565b60405180910390fd5b600073ffffffffffffffffffffffffffffffffffffffff168273ffffffffffffffffffffffffffffffffffffffff1603610873576040517f08c379a000000000000000000000000000000000000000000000000000000000815260040161086a90612648565b60405180910390fd5b61087e8333836115ba565b6108bd576040517f08c379a00000000000000000000000000000000000000000000000000000000081526004016108b490612570565b60405180910390fd5b600160008473ffffffffffffffffffffffffffffffffffffffff1673ffffffffffffffffffffffffffffffffffffffff168152602001908152602001600020600081548092919061090d90612697565b9190505550600160008373ffffffffffffffffffffffffffffffffffffffff1673ffffffffffffffffffffffffffffffffffffffff1681526020019081526020016000206000815480929190610962906126c0565b91905055508160008083815260200190815260200160002060006101000a81548173ffffffffffffffffffffffffffffffffffffffff021916908373ffffffffffffffffffffffffffffffffffffffff1602179055506002600082815260200190815260200160002060006101000a81549073ffffffffffffffffffffffffffffffffffffffff0219169055808273ffffffffffffffffffffffffffffffffffffffff168473ffffffffffffffffffffffffffffffffffffffff167fddf252ad1be2c89b69c2b068fc378daa952ba7f163c4a11628f55a4df523b3ef60405160405180910390a4505050565b610a59838383610764565b610a6381846116ee565b600860008373ffffffffffffffffffffffffffffffffffffffff1673ffffffffffffffffffffffffffffffffffffffff1681526020019081526020016000208190806001815401808255809150506001900390600052602060002001600090919091909150556001600860008473ffffffffffffffffffffffffffffffffffffffff1673ffffffffffffffffffffffffffffffffffffffff16815260200190815260200160002080549050610b189190612708565b600960008473ffffffffffffffffffffffffffffffffffffffff1673ffffffffffffffffffffffffffffffffffffffff1681526020019081526020016000206000600654815260200190815260200160002081905550505050565b610b7e838383610764565b60008273ffffffffffffffffffffffffffffffffffffffff163b1480610c67575063150b7a0260e01b7bffffffffffffffffffffffffffffffffffffffffffffffffffffffff19168273ffffffffffffffffffffffffffffffffffffffff1663150b7a023386856040518463ffffffff1660e01b8152600401610c0393929190612773565b6020604051808303816000875af1158015610c22573d6000803e3d6000fd5b505050506040513d601f19601f82011682018060405250810190610c4691906127d2565b7bffffffffffffffffffffffffffffffffffffffffffffffffffffffff1916145b610ca6576040517f08c379a0000000000000000000000000000000000000000000000000000000008152600401610c9d9061284b565b60405180910390fd5b505050565b600080600083815260200190815260200160002060009054906101000a900473ffffffffffffffffffffffffffffffffffffffff169050600073ffffffffffffffffffffffffffffffffffffffff168173ffffffffffffffffffffffffffffffffffffffff1603610d51576040517f08c379a0000000000000000000000000000000000000000000000000000000008152600401610d48906128b7565b60405180910390fd5b919050565b60008073ffffffffffffffffffffffffffffffffffffffff168273ffffffffffffffffffffffffffffffffffffffff1603610dc6576040517f08c379a0000000000000000000000000000000000000000000000000000000008152600401610dbd906128b7565b60405180910390fd5b600160008373ffffffffffffffffffffffffffffffffffffffff1673ffffffffffffffffffffffffffffffffffffffff168152602001908152602001600020549050919050565b6009602052816000526040600020602052806000526040600020600091509150505481565b60065481565b60076020528060005260406000206000915090508060000154908060010160009054906101000a900473ffffffffffffffffffffffffffffffffffffffff16908060020160009054906101000a900473ffffffffffffffffffffffffffffffffffffffff16908060030160009054906101000a900473ffffffffffffffffffffffffffffffffffffffff16908060040154905085565b80600360003373ffffffffffffffffffffffffffffffffffffffff1673ffffffffffffffffffffffffffffffffffffffff16815260200190815260200160002060008473ffffffffffffffffffffffffffffffffffffffff1673ffffffffffffffffffffffffffffffffffffffff16815260200190815260200160002060006101000a81548160ff0219169083151502179055508173ffffffffffffffffffffffffffffffffffffffff163373ffffffffffffffffffffffffffffffffffffffff167f17307eab39ab6107e8899845ad3d59bd9653f200f220920489ca2b5937696c3183604051610fbf9190611f47565b60405180910390a35050565b610fd782600654611a83565b600860008373ffffffffffffffffffffffffffffffffffffffff1673ffffffffffffffffffffffffffffffffffffffff16815260200190815260200160002060065490806001815401808255809150506001900390600052602060002001600090919091909150556001600860008473ffffffffffffffffffffffffffffffffffffffff1673ffffffffffffffffffffffffffffffffffffffff1681526020019081526020016000208054905061108e9190612708565b600960008473ffffffffffffffffffffffffffffffffffffffff1673ffffffffffffffffffffffffffffffffffffffff1681526020019081526020016000206000600654815260200190815260200160002081905550600060076000600654815260200190815260200160002090508160000135816000018190555081602001602081019061111d91906120e0565b8160010160006101000a81548173ffffffffffffffffffffffffffffffffffffffff021916908373ffffffffffffffffffffffffffffffffffffffff16021790555081604001602081019061117291906120e0565b8160020160006101000a81548173ffffffffffffffffffffffffffffffffffffffff021916908373ffffffffffffffffffffffffffffffffffffffff1602179055508160600160208101906111c791906120e0565b8160030160006101000a81548173ffffffffffffffffffffffffffffffffffffffff021916908373ffffffffffffffffffffffffffffffffffffffff1602179055508160800135816004018190555060066000815480929190611229906126c0565b9190505550505050565b61123e858585610764565b60008473ffffffffffffffffffffffffffffffffffffffff163b148061132b575063150b7a0260e01b7bffffffffffffffffffffffffffffffffffffffffffffffffffffffff19168473ffffffffffffffffffffffffffffffffffffffff1663150b7a0233888787876040518663ffffffff1660e01b81526004016112c7959493929190612924565b6020604051808303816000875af11580156112e6573d6000803e3d6000fd5b505050506040513d601f19601f8201168201806040525081019061130a91906127d2565b7bffffffffffffffffffffffffffffffffffffffffffffffffffffffff1916145b61136a576040517f08c379a00000000000000000000000000000000000000000000000000000000081526004016113619061284b565b60405180910390fd5b5050505050565b6060600860008373ffffffffffffffffffffffffffffffffffffffff1673ffffffffffffffffffffffffffffffffffffffff1681526020019081526020016000208054806020026020016040519081016040528092919081815260200182805480156113fc57602002820191906000526020600020905b8154815260200190600101908083116113e8575b50505050509050919050565b6008602052816000526040600020818154811061142457600080fd5b90600052602060002001600091509150505481565b60036020528160005260406000206020528060005260406000206000915091509054906101000a900460ff1681565b60008083815260200190815260200160002060009054906101000a900473ffffffffffffffffffffffffffffffffffffffff1673ffffffffffffffffffffffffffffffffffffffff168173ffffffffffffffffffffffffffffffffffffffff1614611508576040517f08c379a00000000000000000000000000000000000000000000000000000000081526004016114ff906129be565b60405180910390fd5b61151182611c99565b61151b82826116ee565b600760008381526020019081526020016000206000808201600090556001820160006101000a81549073ffffffffffffffffffffffffffffffffffffffff02191690556002820160006101000a81549073ffffffffffffffffffffffffffffffffffffffff02191690556003820160006101000a81549073ffffffffffffffffffffffffffffffffffffffff0219169055600482016000905550505050565b60008373ffffffffffffffffffffffffffffffffffffffff168373ffffffffffffffffffffffffffffffffffffffff16148061167c5750600360008573ffffffffffffffffffffffffffffffffffffffff1673ffffffffffffffffffffffffffffffffffffffff16815260200190815260200160002060008473ffffffffffffffffffffffffffffffffffffffff1673ffffffffffffffffffffffffffffffffffffffff16815260200190815260200160002060009054906101000a900460ff165b806116e557506002600083815260200190815260200160002060009054906101000a900473ffffffffffffffffffffffffffffffffffffffff1673ffffffffffffffffffffffffffffffffffffffff168373ffffffffffffffffffffffffffffffffffffffff16145b90509392505050565b6000600960008373ffffffffffffffffffffffffffffffffffffffff1673ffffffffffffffffffffffffffffffffffffffff16815260200190815260200160002060008481526020019081526020016000205490506000600860008473ffffffffffffffffffffffffffffffffffffffff1673ffffffffffffffffffffffffffffffffffffffff1681526020019081526020016000208054905090506001810361183857600860008473ffffffffffffffffffffffffffffffffffffffff1673ffffffffffffffffffffffffffffffffffffffff16815260200190815260200160002060006117dd9190611e5f565b6000600960008573ffffffffffffffffffffffffffffffffffffffff1673ffffffffffffffffffffffffffffffffffffffff168152602001908152602001600020600086815260200190815260200160002081905550611a7d565b6000600860008573ffffffffffffffffffffffffffffffffffffffff1673ffffffffffffffffffffffffffffffffffffffff1681526020019081526020016000206001836118869190612708565b81548110611897576118966129de565b5b90600052602060002001549050600860008573ffffffffffffffffffffffffffffffffffffffff1673ffffffffffffffffffffffffffffffffffffffff1681526020019081526020016000206001836118f09190612708565b81548110611901576119006129de565b5b9060005260206000200154600860008673ffffffffffffffffffffffffffffffffffffffff1673ffffffffffffffffffffffffffffffffffffffff168152602001908152602001600020848154811061195d5761195c6129de565b5b9060005260206000200181905550600860008573ffffffffffffffffffffffffffffffffffffffff1673ffffffffffffffffffffffffffffffffffffffff1681526020019081526020016000208054806119ba576119b9612a0d565b5b6001900381819060005260206000200160009055905582600960008673ffffffffffffffffffffffffffffffffffffffff1673ffffffffffffffffffffffffffffffffffffffff1681526020019081526020016000206000838152602001908152602001600020819055506000600960008673ffffffffffffffffffffffffffffffffffffffff1673ffffffffffffffffffffffffffffffffffffffff168152602001908152602001600020600087815260200190815260200160002081905550505b50505050565b600073ffffffffffffffffffffffffffffffffffffffff168273ffffffffffffffffffffffffffffffffffffffff1603611af2576040517f08c379a0000000000000000000000000000000000000000000000000000000008152600401611ae990612648565b60405180910390fd5b600073ffffffffffffffffffffffffffffffffffffffff1660008083815260200190815260200160002060009054906101000a900473ffffffffffffffffffffffffffffffffffffffff1673ffffffffffffffffffffffffffffffffffffffff1614611b93576040517f08c379a0000000000000000000000000000000000000000000000000000000008152600401611b8a90612a88565b60405180910390fd5b600160008373ffffffffffffffffffffffffffffffffffffffff1673ffffffffffffffffffffffffffffffffffffffff1681526020019081526020016000206000815480929190611be3906126c0565b91905055508160008083815260200190815260200160002060006101000a81548173ffffffffffffffffffffffffffffffffffffffff021916908373ffffffffffffffffffffffffffffffffffffffff160217905550808273ffffffffffffffffffffffffffffffffffffffff16600073ffffffffffffffffffffffffffffffffffffffff167fddf252ad1be2c89b69c2b068fc378daa952ba7f163c4a11628f55a4df523b3ef60405160405180910390a45050565b600080600083815260200190815260200160002060009054906101000a900473ffffffffffffffffffffffffffffffffffffffff169050600073ffffffffffffffffffffffffffffffffffffffff168173ffffffffffffffffffffffffffffffffffffffff1603611d3f576040517f08c379a0000000000000000000000000000000000000000000000000000000008152600401611d3690612af4565b60405180910390fd5b600160008273ffffffffffffffffffffffffffffffffffffffff1673ffffffffffffffffffffffffffffffffffffffff1681526020019081526020016000206000815480929190611d8f90612697565b919050555060008083815260200190815260200160002060006101000a81549073ffffffffffffffffffffffffffffffffffffffff02191690556002600083815260200190815260200160002060006101000a81549073ffffffffffffffffffffffffffffffffffffffff021916905581600073ffffffffffffffffffffffffffffffffffffffff168273ffffffffffffffffffffffffffffffffffffffff167fddf252ad1be2c89b69c2b068fc378daa952ba7f163c4a11628f55a4df523b3ef60405160405180910390a45050565b5080546000825590600052602060002090810190611e7d9190611e80565b50565b5b80821115611e99576000816000905550600101611e81565b5090565b600080fd5b600080fd5b60007fffffffff0000000000000000000000000000000000000000000000000000000082169050919050565b611edc81611ea7565b8114611ee757600080fd5b50565b600081359050611ef981611ed3565b92915050565b600060208284031215611f1557611f14611e9d565b5b6000611f2384828501611eea565b91505092915050565b60008115159050919050565b611f4181611f2c565b82525050565b6000602082019050611f5c6000830184611f38565b92915050565b6000819050919050565b611f7581611f62565b8114611f8057600080fd5b50565b600081359050611f9281611f6c565b92915050565b600060208284031215611fae57611fad611e9d565b5b6000611fbc84828501611f83565b91505092915050565b600073ffffffffffffffffffffffffffffffffffffffff82169050919050565b6000611ff082611fc5565b9050919050565b61200081611fe5565b82525050565b600060208201905061201b6000830184611ff7565b92915050565b61202a81611fe5565b811461203557600080fd5b50565b60008135905061204781612021565b92915050565b6000806040838503121561206457612063611e9d565b5b600061207285828601612038565b925050602061208385828601611f83565b9150509250929050565b6000806000606084860312156120a6576120a5611e9d565b5b60006120b486828701612038565b93505060206120c586828701612038565b92505060406120d686828701611f83565b9150509250925092565b6000602082840312156120f6576120f5611e9d565b5b600061210484828501612038565b91505092915050565b61211681611f62565b82525050565b6000602082019050612131600083018461210d565b92915050565b600060a08201905061214c600083018861210d565b6121596020830187611ff7565b6121666040830186611ff7565b6121736060830185611ff7565b612180608083018461210d565b9695505050505050565b61219381611f2c565b811461219e57600080fd5b50565b6000813590506121b08161218a565b92915050565b600080604083850312156121cd576121cc611e9d565b5b60006121db85828601612038565b92505060206121ec858286016121a1565b9150509250929050565b600080fd5b600060a08284031215612211576122106121f6565b5b81905092915050565b60008060c0838503121561223157612230611e9d565b5b600061223f85828601612038565b9250506020612250858286016121fb565b9150509250929050565b600080fd5b600080fd5b600080fd5b60008083601f84011261227f5761227e61225a565b5b8235905067ffffffffffffffff81111561229c5761229b61225f565b5b6020830191508360018202830111156122b8576122b7612264565b5b9250929050565b6000806000806000608086880312156122db576122da611e9d565b5b60006122e988828901612038565b95505060206122fa88828901612038565b945050604061230b88828901611f83565b935050606086013567ffffffffffffffff81111561232c5761232b611ea2565b5b61233888828901612269565b92509250509295509295909350565b600081519050919050565b600082825260208201905092915050565b6000819050602082019050919050565b61237c81611f62565b82525050565b600061238e8383612373565b60208301905092915050565b6000602082019050919050565b60006123b282612347565b6123bc8185612352565b93506123c783612363565b8060005b838110156123f85781516123df8882612382565b97506123ea8361239a565b9250506001810190506123cb565b5085935050505092915050565b6000602082019050818103600083015261241f81846123a7565b905092915050565b6000806040838503121561243e5761243d611e9d565b5b600061244c85828601612038565b925050602061245d85828601612038565b9150509250929050565b6000806040838503121561247e5761247d611e9d565b5b600061248c85828601611f83565b925050602061249d85828601612038565b9150509250929050565b600082825260208201905092915050565b7f746f6b656e20646f657327742065786974730000000000000000000000000000600082015250565b60006124ee6012836124a7565b91506124f9826124b8565b602082019050919050565b6000602082019050818103600083015261251d816124e1565b9050919050565b7f6e6f7420617574686f72697a6564000000000000000000000000000000000000600082015250565b600061255a600e836124a7565b915061256582612524565b602082019050919050565b600060208201905081810360008301526125898161254d565b9050919050565b7f66726f6d20213d206f776e657200000000000000000000000000000000000000600082015250565b60006125c6600d836124a7565b91506125d182612590565b602082019050919050565b600060208201905081810360008301526125f5816125b9565b9050919050565b7f746f203d207a65726f2061646472657373000000000000000000000000000000600082015250565b60006126326011836124a7565b915061263d826125fc565b602082019050919050565b6000602082019050818103600083015261266181612625565b9050919050565b7f4e487b7100000000000000000000000000000000000000000000000000000000600052601160045260246000fd5b60006126a282611f62565b9150600082036126b5576126b4612668565b5b600182039050919050565b60006126cb82611f62565b91507fffffffffffffffffffffffffffffffffffffffffffffffffffffffffffffffff82036126fd576126fc612668565b5b600182019050919050565b600061271382611f62565b915061271e83611f62565b925082820390508181111561273657612735612668565b5b92915050565b600082825260208201905092915050565b50565b600061275d60008361273c565b91506127688261274d565b600082019050919050565b60006080820190506127886000830186611ff7565b6127956020830185611ff7565b6127a2604083018461210d565b81810360608301526127b381612750565b9050949350505050565b6000815190506127cc81611ed3565b92915050565b6000602082840312156127e8576127e7611e9d565b5b60006127f6848285016127bd565b91505092915050565b7f756e7361666520726563697069656e7400000000000000000000000000000000600082015250565b60006128356010836124a7565b9150612840826127ff565b602082019050919050565b6000602082019050818103600083015261286481612828565b9050919050565b7f6f776e6572203d207a65726f2061646472657373000000000000000000000000600082015250565b60006128a16014836124a7565b91506128ac8261286b565b602082019050919050565b600060208201905081810360008301526128d081612894565b9050919050565b82818337600083830152505050565b6000601f19601f8301169050919050565b6000612903838561273c565b93506129108385846128d7565b612919836128e6565b840190509392505050565b60006080820190506129396000830188611ff7565b6129466020830187611ff7565b612953604083018661210d565b81810360608301526129668184866128f7565b90509695505050505050565b7f6e6f74204f776e65720000000000000000000000000000000000000000000000600082015250565b60006129a86009836124a7565b91506129b382612972565b602082019050919050565b600060208201905081810360008301526129d78161299b565b9050919050565b7f4e487b7100000000000000000000000000000000000000000000000000000000600052603260045260246000fd5b7f4e487b7100000000000000000000000000000000000000000000000000000000600052603160045260246000fd5b7f746f6b656e206578697374730000000000000000000000000000000000000000600082015250565b6000612a72600c836124a7565b9150612a7d82612a3c565b602082019050919050565b60006020820190508181036000830152612aa181612a65565b9050919050565b7f746f6b656e20646f6573206e6f74206578697473000000000000000000000000600082015250565b6000612ade6014836124a7565b9150612ae982612aa8565b602082019050919050565b60006020820190508181036000830152612b0d81612ad1565b905091905056fea2646970667358221220452234e0f69675625165166592ad1490efbb44f1943b899cf2e009f2760d191a64736f6c63430008120033",
					"opcodes": "PUSH1 0x80 PUSH1 0x40 MSTORE PUSH1 0x1 PUSH1 0x6 SSTORE CALLVALUE DUP1 ISZERO PUSH3 0x16 JUMPI PUSH1 0x0 DUP1 REVERT JUMPDEST POP PUSH1 0x40 MLOAD PUSH3 0x310C CODESIZE SUB DUP1 PUSH3 0x310C DUP4 CODECOPY DUP2 DUP2 ADD PUSH1 0x40 MSTORE DUP2 ADD SWAP1 PUSH3 0x3C SWAP2 SWAP1 PUSH3 0x1FB JUMP JUMPDEST DUP2 PUSH1 0x4 SWAP1 DUP2 PUSH3 0x4D SWAP2 SWAP1 PUSH3 0x4CB JUMP JUMPDEST POP DUP1 PUSH1 0x5 SWAP1 DUP2 PUSH3 0x5F SWAP2 SWAP1 PUSH3 0x4CB JUMP JUMPDEST POP POP POP PUSH3 0x5B2 JUMP JUMPDEST PUSH1 0x0 PUSH1 0x40 MLOAD SWAP1 POP SWAP1 JUMP JUMPDEST PUSH1 0x0 DUP1 REVERT JUMPDEST PUSH1 0x0 DUP1 REVERT JUMPDEST PUSH1 0x0 DUP1 REVERT JUMPDEST PUSH1 0x0 DUP1 REVERT JUMPDEST PUSH1 0x0 PUSH1 0x1F NOT PUSH1 0x1F DUP4 ADD AND SWAP1 POP SWAP2 SWAP1 POP JUMP JUMPDEST PUSH32 0x4E487B7100000000000000000000000000000000000000000000000000000000 PUSH1 0x0 MSTORE PUSH1 0x41 PUSH1 0x4 MSTORE PUSH1 0x24 PUSH1 0x0 REVERT JUMPDEST PUSH3 0xD1 DUP3 PUSH3 0x86 JUMP JUMPDEST DUP2 ADD DUP2 DUP2 LT PUSH8 0xFFFFFFFFFFFFFFFF DUP3 GT OR ISZERO PUSH3 0xF3 JUMPI PUSH3 0xF2 PUSH3 0x97 JUMP JUMPDEST JUMPDEST DUP1 PUSH1 0x40 MSTORE POP POP POP JUMP JUMPDEST PUSH1 0x0 PUSH3 0x108 PUSH3 0x68 JUMP JUMPDEST SWAP1 POP PUSH3 0x116 DUP3 DUP3 PUSH3 0xC6 JUMP JUMPDEST SWAP2 SWAP1 POP JUMP JUMPDEST PUSH1 0x0 PUSH8 0xFFFFFFFFFFFFFFFF DUP3 GT ISZERO PUSH3 0x139 JUMPI PUSH3 0x138 PUSH3 0x97 JUMP JUMPDEST JUMPDEST PUSH3 0x144 DUP3 PUSH3 0x86 JUMP JUMPDEST SWAP1 POP PUSH1 0x20 DUP2 ADD SWAP1 POP SWAP2 SWAP1 POP JUMP JUMPDEST PUSH1 0x0 JUMPDEST DUP4 DUP2 LT ISZERO PUSH3 0x171 JUMPI DUP1 DUP3 ADD MLOAD DUP2 DUP5 ADD MSTORE PUSH1 0x20 DUP2 ADD SWAP1 POP PUSH3 0x154 JUMP JUMPDEST PUSH1 0x0 DUP5 DUP5 ADD MSTORE POP POP POP POP JUMP JUMPDEST PUSH1 0x0 PUSH3 0x194 PUSH3 0x18E DUP5 PUSH3 0x11B JUMP JUMPDEST PUSH3 0xFC JUMP JUMPDEST SWAP1 POP DUP3 DUP2 MSTORE PUSH1 0x20 DUP2 ADD DUP5 DUP5 DUP5 ADD GT ISZERO PUSH3 0x1B3 JUMPI PUSH3 0x1B2 PUSH3 0x81 JUMP JUMPDEST JUMPDEST PUSH3 0x1C0 DUP5 DUP3 DUP6 PUSH3 0x151 JUMP JUMPDEST POP SWAP4 SWAP3 POP POP POP JUMP JUMPDEST PUSH1 0x0 DUP3 PUSH1 0x1F DUP4 ADD SLT PUSH3 0x1E0 JUMPI PUSH3 0x1DF PUSH3 0x7C JUMP JUMPDEST JUMPDEST DUP2 MLOAD PUSH3 0x1F2 DUP5 DUP3 PUSH1 0x20 DUP7 ADD PUSH3 0x17D JUMP JUMPDEST SWAP2 POP POP SWAP3 SWAP2 POP POP JUMP JUMPDEST PUSH1 0x0 DUP1 PUSH1 0x40 DUP4 DUP6 SUB SLT ISZERO PUSH3 0x215 JUMPI PUSH3 0x214 PUSH3 0x72 JUMP JUMPDEST JUMPDEST PUSH1 0x0 DUP4 ADD MLOAD PUSH8 0xFFFFFFFFFFFFFFFF DUP2 GT ISZERO PUSH3 0x236 JUMPI PUSH3 0x235 PUSH3 0x77 JUMP JUMPDEST JUMPDEST PUSH3 0x244 DUP6 DUP3 DUP7 ADD PUSH3 0x1C8 JUMP JUMPDEST SWAP3 POP POP PUSH1 0x20 DUP4 ADD MLOAD PUSH8 0xFFFFFFFFFFFFFFFF DUP2 GT ISZERO PUSH3 0x268 JUMPI PUSH3 0x267 PUSH3 0x77 JUMP JUMPDEST JUMPDEST PUSH3 0x276 DUP6 DUP3 DUP7 ADD PUSH3 0x1C8 JUMP JUMPDEST SWAP2 POP POP SWAP3 POP SWAP3 SWAP1 POP JUMP JUMPDEST PUSH1 0x0 DUP2 MLOAD SWAP1 POP SWAP2 SWAP1 POP JUMP JUMPDEST PUSH32 0x4E487B7100000000000000000000000000000000000000000000000000000000 PUSH1 0x0 MSTORE PUSH1 0x22 PUSH1 0x4 MSTORE PUSH1 0x24 PUSH1 0x0 REVERT JUMPDEST PUSH1 0x0 PUSH1 0x2 DUP3 DIV SWAP1 POP PUSH1 0x1 DUP3 AND DUP1 PUSH3 0x2D3 JUMPI PUSH1 0x7F DUP3 AND SWAP2 POP JUMPDEST PUSH1 0x20 DUP3 LT DUP2 SUB PUSH3 0x2E9 JUMPI PUSH3 0x2E8 PUSH3 0x28B JUMP JUMPDEST JUMPDEST POP SWAP2 SWAP1 POP JUMP JUMPDEST PUSH1 0x0 DUP2 SWAP1 POP DUP2 PUSH1 0x0 MSTORE PUSH1 0x20 PUSH1 0x0 KECCAK256 SWAP1 POP SWAP2 SWAP1 POP JUMP JUMPDEST PUSH1 0x0 PUSH1 0x20 PUSH1 0x1F DUP4 ADD DIV SWAP1 POP SWAP2 SWAP1 POP JUMP JUMPDEST PUSH1 0x0 DUP3 DUP3 SHL SWAP1 POP SWAP3 SWAP2 POP POP JUMP JUMPDEST PUSH1 0x0 PUSH1 0x8 DUP4 MUL PUSH3 0x353 PUSH32 0xFFFFFFFFFFFFFFFFFFFFFFFFFFFFFFFFFFFFFFFFFFFFFFFFFFFFFFFFFFFFFFFF DUP3 PUSH3 0x314 JUMP JUMPDEST PUSH3 0x35F DUP7 DUP4 PUSH3 0x314 JUMP JUMPDEST SWAP6 POP DUP1 NOT DUP5 AND SWAP4 POP DUP1 DUP7 AND DUP5 OR SWAP3 POP POP POP SWAP4 SWAP3 POP POP POP JUMP JUMPDEST PUSH1 0x0 DUP2 SWAP1 POP SWAP2 SWAP1 POP JUMP JUMPDEST PUSH1 0x0 DUP2 SWAP1 POP SWAP2 SWAP1 POP JUMP JUMPDEST PUSH1 0x0 PUSH3 0x3AC PUSH3 0x3A6 PUSH3 0x3A0 DUP5 PUSH3 0x377 JUMP JUMPDEST PUSH3 0x381 JUMP JUMPDEST PUSH3 0x377 JUMP JUMPDEST SWAP1 POP SWAP2 SWAP1 POP JUMP JUMPDEST PUSH1 0x0 DUP2 SWAP1 POP SWAP2 SWAP1 POP JUMP JUMPDEST PUSH3 0x3C8 DUP4 PUSH3 0x38B JUMP JUMPDEST PUSH3 0x3E0 PUSH3 0x3D7 DUP3 PUSH3 0x3B3 JUMP JUMPDEST DUP5 DUP5 SLOAD PUSH3 0x321 JUMP JUMPDEST DUP3 SSTORE POP POP POP POP JUMP JUMPDEST PUSH1 0x0 SWAP1 JUMP JUMPDEST PUSH3 0x3F7 PUSH3 0x3E8 JUMP JUMPDEST PUSH3 0x404 DUP2 DUP5 DUP5 PUSH3 0x3BD JUMP JUMPDEST POP POP POP JUMP JUMPDEST JUMPDEST DUP2 DUP2 LT ISZERO PUSH3 0x42C JUMPI PUSH3 0x420 PUSH1 0x0 DUP3 PUSH3 0x3ED JUMP JUMPDEST PUSH1 0x1 DUP2 ADD SWAP1 POP PUSH3 0x40A JUMP JUMPDEST POP POP JUMP JUMPDEST PUSH1 0x1F DUP3 GT ISZERO PUSH3 0x47B JUMPI PUSH3 0x445 DUP2 PUSH3 0x2EF JUMP JUMPDEST PUSH3 0x450 DUP5 PUSH3 0x304 JUMP JUMPDEST DUP2 ADD PUSH1 0x20 DUP6 LT ISZERO PUSH3 0x460 JUMPI DUP2 SWAP1 POP JUMPDEST PUSH3 0x478 PUSH3 0x46F DUP6 PUSH3 0x304 JUMP JUMPDEST DUP4 ADD DUP3 PUSH3 0x409 JUMP JUMPDEST POP POP JUMPDEST POP POP POP JUMP JUMPDEST PUSH1 0x0 DUP3 DUP3 SHR SWAP1 POP SWAP3 SWAP2 POP POP JUMP JUMPDEST PUSH1 0x0 PUSH3 0x4A0 PUSH1 0x0 NOT DUP5 PUSH1 0x8 MUL PUSH3 0x480 JUMP JUMPDEST NOT DUP1 DUP4 AND SWAP2 POP POP SWAP3 SWAP2 POP POP JUMP JUMPDEST PUSH1 0x0 PUSH3 0x4BB DUP4 DUP4 PUSH3 0x48D JUMP JUMPDEST SWAP2 POP DUP3 PUSH1 0x2 MUL DUP3 OR SWAP1 POP SWAP3 SWAP2 POP POP JUMP JUMPDEST PUSH3 0x4D6 DUP3 PUSH3 0x280 JUMP JUMPDEST PUSH8 0xFFFFFFFFFFFFFFFF DUP2 GT ISZERO PUSH3 0x4F2 JUMPI PUSH3 0x4F1 PUSH3 0x97 JUMP JUMPDEST JUMPDEST PUSH3 0x4FE DUP3 SLOAD PUSH3 0x2BA JUMP JUMPDEST PUSH3 0x50B DUP3 DUP3 DUP6 PUSH3 0x430 JUMP JUMPDEST PUSH1 0x0 PUSH1 0x20 SWAP1 POP PUSH1 0x1F DUP4 GT PUSH1 0x1 DUP2 EQ PUSH3 0x543 JUMPI PUSH1 0x0 DUP5 ISZERO PUSH3 0x52E JUMPI DUP3 DUP8 ADD MLOAD SWAP1 POP JUMPDEST PUSH3 0x53A DUP6 DUP3 PUSH3 0x4AD JUMP JUMPDEST DUP7 SSTORE POP PUSH3 0x5AA JUMP JUMPDEST PUSH1 0x1F NOT DUP5 AND PUSH3 0x553 DUP7 PUSH3 0x2EF JUMP JUMPDEST PUSH1 0x0 JUMPDEST DUP3 DUP2 LT ISZERO PUSH3 0x57D JUMPI DUP5 DUP10 ADD MLOAD DUP3 SSTORE PUSH1 0x1 DUP3 ADD SWAP2 POP PUSH1 0x20 DUP6 ADD SWAP5 POP PUSH1 0x20 DUP2 ADD SWAP1 POP PUSH3 0x556 JUMP JUMPDEST DUP7 DUP4 LT ISZERO PUSH3 0x59D JUMPI DUP5 DUP10 ADD MLOAD PUSH3 0x599 PUSH1 0x1F DUP10 AND DUP3 PUSH3 0x48D JUMP JUMPDEST DUP4 SSTORE POP JUMPDEST PUSH1 0x1 PUSH1 0x2 DUP9 MUL ADD DUP9 SSTORE POP POP POP JUMPDEST POP POP POP POP POP POP JUMP JUMPDEST PUSH2 0x2B4A DUP1 PUSH3 0x5C2 PUSH1 0x0 CODECOPY PUSH1 0x0 RETURN INVALID PUSH1 0x80 PUSH1 0x40 MSTORE CALLVALUE DUP1 ISZERO PUSH2 0x10 JUMPI PUSH1 0x0 DUP1 REVERT JUMPDEST POP PUSH1 0x4 CALLDATASIZE LT PUSH2 0x116 JUMPI PUSH1 0x0 CALLDATALOAD PUSH1 0xE0 SHR DUP1 PUSH4 0x8BBF58B3 GT PUSH2 0xA2 JUMPI DUP1 PUSH4 0xB88D4FDE GT PUSH2 0x71 JUMPI DUP1 PUSH4 0xB88D4FDE EQ PUSH2 0x305 JUMPI DUP1 PUSH4 0xD942DC94 EQ PUSH2 0x321 JUMPI DUP1 PUSH4 0xDEEB79A3 EQ PUSH2 0x351 JUMPI DUP1 PUSH4 0xEBD1D359 EQ PUSH2 0x381 JUMPI DUP1 PUSH4 0xEC828722 EQ PUSH2 0x3B1 JUMPI PUSH2 0x116 JUMP JUMPDEST DUP1 PUSH4 0x8BBF58B3 EQ PUSH2 0x27B JUMPI DUP1 PUSH4 0x99FBAB88 EQ PUSH2 0x299 JUMPI DUP1 PUSH4 0xA22CB465 EQ PUSH2 0x2CD JUMPI DUP1 PUSH4 0xB11C7FD3 EQ PUSH2 0x2E9 JUMPI PUSH2 0x116 JUMP JUMPDEST DUP1 PUSH4 0x26908FA1 GT PUSH2 0xE9 JUMPI DUP1 PUSH4 0x26908FA1 EQ PUSH2 0x1B3 JUMPI DUP1 PUSH4 0x42842E0E EQ PUSH2 0x1CF JUMPI DUP1 PUSH4 0x6352211E EQ PUSH2 0x1EB JUMPI DUP1 PUSH4 0x70A08231 EQ PUSH2 0x21B JUMPI DUP1 PUSH4 0x7FCDA073 EQ PUSH2 0x24B JUMPI PUSH2 0x116 JUMP JUMPDEST DUP1 PUSH4 0x1FFC9A7 EQ PUSH2 0x11B JUMPI DUP1 PUSH4 0x81812FC EQ PUSH2 0x14B JUMPI DUP1 PUSH4 0x95EA7B3 EQ PUSH2 0x17B JUMPI DUP1 PUSH4 0x23B872DD EQ PUSH2 0x197 JUMPI JUMPDEST PUSH1 0x0 DUP1 REVERT JUMPDEST PUSH2 0x135 PUSH1 0x4 DUP1 CALLDATASIZE SUB DUP2 ADD SWAP1 PUSH2 0x130 SWAP2 SWAP1 PUSH2 0x1EFF JUMP JUMPDEST PUSH2 0x3CD JUMP JUMPDEST PUSH1 0x40 MLOAD PUSH2 0x142 SWAP2 SWAP1 PUSH2 0x1F47 JUMP JUMPDEST PUSH1 0x40 MLOAD DUP1 SWAP2 SUB SWAP1 RETURN JUMPDEST PUSH2 0x165 PUSH1 0x4 DUP1 CALLDATASIZE SUB DUP2 ADD SWAP1 PUSH2 0x160 SWAP2 SWAP1 PUSH2 0x1F98 JUMP JUMPDEST PUSH2 0x49F JUMP JUMPDEST PUSH1 0x40 MLOAD PUSH2 0x172 SWAP2 SWAP1 PUSH2 0x2006 JUMP JUMPDEST PUSH1 0x40 MLOAD DUP1 SWAP2 SUB SWAP1 RETURN JUMPDEST PUSH2 0x195 PUSH1 0x4 DUP1 CALLDATASIZE SUB DUP2 ADD SWAP1 PUSH2 0x190 SWAP2 SWAP1 PUSH2 0x204D JUMP JUMPDEST PUSH2 0x57C JUMP JUMPDEST STOP JUMPDEST PUSH2 0x1B1 PUSH1 0x4 DUP1 CALLDATASIZE SUB DUP2 ADD SWAP1 PUSH2 0x1AC SWAP2 SWAP1 PUSH2 0x208D JUMP JUMPDEST PUSH2 0x764 JUMP JUMPDEST STOP JUMPDEST PUSH2 0x1CD PUSH1 0x4 DUP1 CALLDATASIZE SUB DUP2 ADD SWAP1 PUSH2 0x1C8 SWAP2 SWAP1 PUSH2 0x208D JUMP JUMPDEST PUSH2 0xA4E JUMP JUMPDEST STOP JUMPDEST PUSH2 0x1E9 PUSH1 0x4 DUP1 CALLDATASIZE SUB DUP2 ADD SWAP1 PUSH2 0x1E4 SWAP2 SWAP1 PUSH2 0x208D JUMP JUMPDEST PUSH2 0xB73 JUMP JUMPDEST STOP JUMPDEST PUSH2 0x205 PUSH1 0x4 DUP1 CALLDATASIZE SUB DUP2 ADD SWAP1 PUSH2 0x200 SWAP2 SWAP1 PUSH2 0x1F98 JUMP JUMPDEST PUSH2 0xCAB JUMP JUMPDEST PUSH1 0x40 MLOAD PUSH2 0x212 SWAP2 SWAP1 PUSH2 0x2006 JUMP JUMPDEST PUSH1 0x40 MLOAD DUP1 SWAP2 SUB SWAP1 RETURN JUMPDEST PUSH2 0x235 PUSH1 0x4 DUP1 CALLDATASIZE SUB DUP2 ADD SWAP1 PUSH2 0x230 SWAP2 SWAP1 PUSH2 0x20E0 JUMP JUMPDEST PUSH2 0xD56 JUMP JUMPDEST PUSH1 0x40 MLOAD PUSH2 0x242 SWAP2 SWAP1 PUSH2 0x211C JUMP JUMPDEST PUSH1 0x40 MLOAD DUP1 SWAP2 SUB SWAP1 RETURN JUMPDEST PUSH2 0x265 PUSH1 0x4 DUP1 CALLDATASIZE SUB DUP2 ADD SWAP1 PUSH2 0x260 SWAP2 SWAP1 PUSH2 0x204D JUMP JUMPDEST PUSH2 0xE0D JUMP JUMPDEST PUSH1 0x40 MLOAD PUSH2 0x272 SWAP2 SWAP1 PUSH2 0x211C JUMP JUMPDEST PUSH1 0x40 MLOAD DUP1 SWAP2 SUB SWAP1 RETURN JUMPDEST PUSH2 0x283 PUSH2 0xE32 JUMP JUMPDEST PUSH1 0x40 MLOAD PUSH2 0x290 SWAP2 SWAP1 PUSH2 0x211C JUMP JUMPDEST PUSH1 0x40 MLOAD DUP1 SWAP2 SUB SWAP1 RETURN JUMPDEST PUSH2 0x2B3 PUSH1 0x4 DUP1 CALLDATASIZE SUB DUP2 ADD SWAP1 PUSH2 0x2AE SWAP2 SWAP1 PUSH2 0x1F98 JUMP JUMPDEST PUSH2 0xE38 JUMP JUMPDEST PUSH1 0x40 MLOAD PUSH2 0x2C4 SWAP6 SWAP5 SWAP4 SWAP3 SWAP2 SWAP1 PUSH2 0x2137 JUMP JUMPDEST PUSH1 0x40 MLOAD DUP1 SWAP2 SUB SWAP1 RETURN JUMPDEST PUSH2 0x2E7 PUSH1 0x4 DUP1 CALLDATASIZE SUB DUP2 ADD SWAP1 PUSH2 0x2E2 SWAP2 SWAP1 PUSH2 0x21B6 JUMP JUMPDEST PUSH2 0xECE JUMP JUMPDEST STOP JUMPDEST PUSH2 0x303 PUSH1 0x4 DUP1 CALLDATASIZE SUB DUP2 ADD SWAP1 PUSH2 0x2FE SWAP2 SWAP1 PUSH2 0x221A JUMP JUMPDEST PUSH2 0xFCB JUMP JUMPDEST STOP JUMPDEST PUSH2 0x31F PUSH1 0x4 DUP1 CALLDATASIZE SUB DUP2 ADD SWAP1 PUSH2 0x31A SWAP2 SWAP1 PUSH2 0x22BF JUMP JUMPDEST PUSH2 0x1233 JUMP JUMPDEST STOP JUMPDEST PUSH2 0x33B PUSH1 0x4 DUP1 CALLDATASIZE SUB DUP2 ADD SWAP1 PUSH2 0x336 SWAP2 SWAP1 PUSH2 0x20E0 JUMP JUMPDEST PUSH2 0x1371 JUMP JUMPDEST PUSH1 0x40 MLOAD PUSH2 0x348 SWAP2 SWAP1 PUSH2 0x2405 JUMP JUMPDEST PUSH1 0x40 MLOAD DUP1 SWAP2 SUB SWAP1 RETURN JUMPDEST PUSH2 0x36B PUSH1 0x4 DUP1 CALLDATASIZE SUB DUP2 ADD SWAP1 PUSH2 0x366 SWAP2 SWAP1 PUSH2 0x204D JUMP JUMPDEST PUSH2 0x1408 JUMP JUMPDEST PUSH1 0x40 MLOAD PUSH2 0x378 SWAP2 SWAP1 PUSH2 0x211C JUMP JUMPDEST PUSH1 0x40 MLOAD DUP1 SWAP2 SUB SWAP1 RETURN JUMPDEST PUSH2 0x39B PUSH1 0x4 DUP1 CALLDATASIZE SUB DUP2 ADD SWAP1 PUSH2 0x396 SWAP2 SWAP1 PUSH2 0x2427 JUMP JUMPDEST PUSH2 0x1439 JUMP JUMPDEST PUSH1 0x40 MLOAD PUSH2 0x3A8 SWAP2 SWAP1 PUSH2 0x1F47 JUMP JUMPDEST PUSH1 0x40 MLOAD DUP1 SWAP2 SUB SWAP1 RETURN JUMPDEST PUSH2 0x3CB PUSH1 0x4 DUP1 CALLDATASIZE SUB DUP2 ADD SWAP1 PUSH2 0x3C6 SWAP2 SWAP1 PUSH2 0x2467 JUMP JUMPDEST PUSH2 0x1468 JUMP JUMPDEST STOP JUMPDEST PUSH1 0x0 PUSH32 0x80AC58CD00000000000000000000000000000000000000000000000000000000 PUSH28 0xFFFFFFFFFFFFFFFFFFFFFFFFFFFFFFFFFFFFFFFFFFFFFFFFFFFFFFFF NOT AND DUP3 PUSH28 0xFFFFFFFFFFFFFFFFFFFFFFFFFFFFFFFFFFFFFFFFFFFFFFFFFFFFFFFF NOT AND EQ DUP1 PUSH2 0x498 JUMPI POP PUSH32 0x1FFC9A700000000000000000000000000000000000000000000000000000000 PUSH28 0xFFFFFFFFFFFFFFFFFFFFFFFFFFFFFFFFFFFFFFFFFFFFFFFFFFFFFFFF NOT AND DUP3 PUSH28 0xFFFFFFFFFFFFFFFFFFFFFFFFFFFFFFFFFFFFFFFFFFFFFFFFFFFFFFFF NOT AND EQ JUMPDEST SWAP1 POP SWAP2 SWAP1 POP JUMP JUMPDEST PUSH1 0x0 DUP1 PUSH20 0xFFFFFFFFFFFFFFFFFFFFFFFFFFFFFFFFFFFFFFFF AND PUSH1 0x0 DUP1 DUP5 DUP2 MSTORE PUSH1 0x20 ADD SWAP1 DUP2 MSTORE PUSH1 0x20 ADD PUSH1 0x0 KECCAK256 PUSH1 0x0 SWAP1 SLOAD SWAP1 PUSH2 0x100 EXP SWAP1 DIV PUSH20 0xFFFFFFFFFFFFFFFFFFFFFFFFFFFFFFFFFFFFFFFF AND PUSH20 0xFFFFFFFFFFFFFFFFFFFFFFFFFFFFFFFFFFFFFFFF AND SUB PUSH2 0x541 JUMPI PUSH1 0x40 MLOAD PUSH32 0x8C379A000000000000000000000000000000000000000000000000000000000 DUP2 MSTORE PUSH1 0x4 ADD PUSH2 0x538 SWAP1 PUSH2 0x2504 JUMP JUMPDEST PUSH1 0x40 MLOAD DUP1 SWAP2 SUB SWAP1 REVERT JUMPDEST PUSH1 0x2 PUSH1 0x0 DUP4 DUP2 MSTORE PUSH1 0x20 ADD SWAP1 DUP2 MSTORE PUSH1 0x20 ADD PUSH1 0x0 KECCAK256 PUSH1 0x0 SWAP1 SLOAD SWAP1 PUSH2 0x100 EXP SWAP1 DIV PUSH20 0xFFFFFFFFFFFFFFFFFFFFFFFFFFFFFFFFFFFFFFFF AND SWAP1 POP SWAP2 SWAP1 POP JUMP JUMPDEST PUSH1 0x0 DUP1 PUSH1 0x0 DUP4 DUP2 MSTORE PUSH1 0x20 ADD SWAP1 DUP2 MSTORE PUSH1 0x20 ADD PUSH1 0x0 KECCAK256 PUSH1 0x0 SWAP1 SLOAD SWAP1 PUSH2 0x100 EXP SWAP1 DIV PUSH20 0xFFFFFFFFFFFFFFFFFFFFFFFFFFFFFFFFFFFFFFFF AND SWAP1 POP DUP1 PUSH20 0xFFFFFFFFFFFFFFFFFFFFFFFFFFFFFFFFFFFFFFFF AND CALLER PUSH20 0xFFFFFFFFFFFFFFFFFFFFFFFFFFFFFFFFFFFFFFFF AND EQ DUP1 PUSH2 0x673 JUMPI POP PUSH1 0x3 PUSH1 0x0 DUP3 PUSH20 0xFFFFFFFFFFFFFFFFFFFFFFFFFFFFFFFFFFFFFFFF AND PUSH20 0xFFFFFFFFFFFFFFFFFFFFFFFFFFFFFFFFFFFFFFFF AND DUP2 MSTORE PUSH1 0x20 ADD SWAP1 DUP2 MSTORE PUSH1 0x20 ADD PUSH1 0x0 KECCAK256 PUSH1 0x0 CALLER PUSH20 0xFFFFFFFFFFFFFFFFFFFFFFFFFFFFFFFFFFFFFFFF AND PUSH20 0xFFFFFFFFFFFFFFFFFFFFFFFFFFFFFFFFFFFFFFFF AND DUP2 MSTORE PUSH1 0x20 ADD SWAP1 DUP2 MSTORE PUSH1 0x20 ADD PUSH1 0x0 KECCAK256 PUSH1 0x0 SWAP1 SLOAD SWAP1 PUSH2 0x100 EXP SWAP1 DIV PUSH1 0xFF AND JUMPDEST PUSH2 0x6B2 JUMPI PUSH1 0x40 MLOAD PUSH32 0x8C379A000000000000000000000000000000000000000000000000000000000 DUP2 MSTORE PUSH1 0x4 ADD PUSH2 0x6A9 SWAP1 PUSH2 0x2570 JUMP JUMPDEST PUSH1 0x40 MLOAD DUP1 SWAP2 SUB SWAP1 REVERT JUMPDEST DUP3 PUSH1 0x2 PUSH1 0x0 DUP5 DUP2 MSTORE PUSH1 0x20 ADD SWAP1 DUP2 MSTORE PUSH1 0x20 ADD PUSH1 0x0 KECCAK256 PUSH1 0x0 PUSH2 0x100 EXP DUP2 SLOAD DUP2 PUSH20 0xFFFFFFFFFFFFFFFFFFFFFFFFFFFFFFFFFFFFFFFF MUL NOT AND SWAP1 DUP4 PUSH20 0xFFFFFFFFFFFFFFFFFFFFFFFFFFFFFFFFFFFFFFFF AND MUL OR SWAP1 SSTORE POP DUP2 DUP4 PUSH20 0xFFFFFFFFFFFFFFFFFFFFFFFFFFFFFFFFFFFFFFFF AND DUP3 PUSH20 0xFFFFFFFFFFFFFFFFFFFFFFFFFFFFFFFFFFFFFFFF AND PUSH32 0x8C5BE1E5EBEC7D5BD14F71427D1E84F3DD0314C0F7B2291E5B200AC8C7C3B925 PUSH1 0x40 MLOAD PUSH1 0x40 MLOAD DUP1 SWAP2 SUB SWAP1 LOG4 POP POP POP JUMP JUMPDEST PUSH1 0x0 DUP1 DUP3 DUP2 MSTORE PUSH1 0x20 ADD SWAP1 DUP2 MSTORE PUSH1 0x20 ADD PUSH1 0x0 KECCAK256 PUSH1 0x0 SWAP1 SLOAD SWAP1 PUSH2 0x100 EXP SWAP1 DIV PUSH20 0xFFFFFFFFFFFFFFFFFFFFFFFFFFFFFFFFFFFFFFFF AND PUSH20 0xFFFFFFFFFFFFFFFFFFFFFFFFFFFFFFFFFFFFFFFF AND DUP4 PUSH20 0xFFFFFFFFFFFFFFFFFFFFFFFFFFFFFFFFFFFFFFFF AND EQ PUSH2 0x804 JUMPI PUSH1 0x40 MLOAD PUSH32 0x8C379A000000000000000000000000000000000000000000000000000000000 DUP2 MSTORE PUSH1 0x4 ADD PUSH2 0x7FB SWAP1 PUSH2 0x25DC JUMP JUMPDEST PUSH1 0x40 MLOAD DUP1 SWAP2 SUB SWAP1 REVERT JUMPDEST PUSH1 0x0 PUSH20 0xFFFFFFFFFFFFFFFFFFFFFFFFFFFFFFFFFFFFFFFF AND DUP3 PUSH20 0xFFFFFFFFFFFFFFFFFFFFFFFFFFFFFFFFFFFFFFFF AND SUB PUSH2 0x873 JUMPI PUSH1 0x40 MLOAD PUSH32 0x8C379A000000000000000000000000000000000000000000000000000000000 DUP2 MSTORE PUSH1 0x4 ADD PUSH2 0x86A SWAP1 PUSH2 0x2648 JUMP JUMPDEST PUSH1 0x40 MLOAD DUP1 SWAP2 SUB SWAP1 REVERT JUMPDEST PUSH2 0x87E DUP4 CALLER DUP4 PUSH2 0x15BA JUMP JUMPDEST PUSH2 0x8BD JUMPI PUSH1 0x40 MLOAD PUSH32 0x8C379A000000000000000000000000000000000000000000000000000000000 DUP2 MSTORE PUSH1 0x4 ADD PUSH2 0x8B4 SWAP1 PUSH2 0x2570 JUMP JUMPDEST PUSH1 0x40 MLOAD DUP1 SWAP2 SUB SWAP1 REVERT JUMPDEST PUSH1 0x1 PUSH1 0x0 DUP5 PUSH20 0xFFFFFFFFFFFFFFFFFFFFFFFFFFFFFFFFFFFFFFFF AND PUSH20 0xFFFFFFFFFFFFFFFFFFFFFFFFFFFFFFFFFFFFFFFF AND DUP2 MSTORE PUSH1 0x20 ADD SWAP1 DUP2 MSTORE PUSH1 0x20 ADD PUSH1 0x0 KECCAK256 PUSH1 0x0 DUP2 SLOAD DUP1 SWAP3 SWAP2 SWAP1 PUSH2 0x90D SWAP1 PUSH2 0x2697 JUMP JUMPDEST SWAP2 SWAP1 POP SSTORE POP PUSH1 0x1 PUSH1 0x0 DUP4 PUSH20 0xFFFFFFFFFFFFFFFFFFFFFFFFFFFFFFFFFFFFFFFF AND PUSH20 0xFFFFFFFFFFFFFFFFFFFFFFFFFFFFFFFFFFFFFFFF AND DUP2 MSTORE PUSH1 0x20 ADD SWAP1 DUP2 MSTORE PUSH1 0x20 ADD PUSH1 0x0 KECCAK256 PUSH1 0x0 DUP2 SLOAD DUP1 SWAP3 SWAP2 SWAP1 PUSH2 0x962 SWAP1 PUSH2 0x26C0 JUMP JUMPDEST SWAP2 SWAP1 POP SSTORE POP DUP2 PUSH1 0x0 DUP1 DUP4 DUP2 MSTORE PUSH1 0x20 ADD SWAP1 DUP2 MSTORE PUSH1 0x20 ADD PUSH1 0x0 KECCAK256 PUSH1 0x0 PUSH2 0x100 EXP DUP2 SLOAD DUP2 PUSH20 0xFFFFFFFFFFFFFFFFFFFFFFFFFFFFFFFFFFFFFFFF MUL NOT AND SWAP1 DUP4 PUSH20 0xFFFFFFFFFFFFFFFFFFFFFFFFFFFFFFFFFFFFFFFF AND MUL OR SWAP1 SSTORE POP PUSH1 0x2 PUSH1 0x0 DUP3 DUP2 MSTORE PUSH1 0x20 ADD SWAP1 DUP2 MSTORE PUSH1 0x20 ADD PUSH1 0x0 KECCAK256 PUSH1 0x0 PUSH2 0x100 EXP DUP2 SLOAD SWAP1 PUSH20 0xFFFFFFFFFFFFFFFFFFFFFFFFFFFFFFFFFFFFFFFF MUL NOT AND SWAP1 SSTORE DUP1 DUP3 PUSH20 0xFFFFFFFFFFFFFFFFFFFFFFFFFFFFFFFFFFFFFFFF AND DUP5 PUSH20 0xFFFFFFFFFFFFFFFFFFFFFFFFFFFFFFFFFFFFFFFF AND PUSH32 0xDDF252AD1BE2C89B69C2B068FC378DAA952BA7F163C4A11628F55A4DF523B3EF PUSH1 0x40 MLOAD PUSH1 0x40 MLOAD DUP1 SWAP2 SUB SWAP1 LOG4 POP POP POP JUMP JUMPDEST PUSH2 0xA59 DUP4 DUP4 DUP4 PUSH2 0x764 JUMP JUMPDEST PUSH2 0xA63 DUP2 DUP5 PUSH2 0x16EE JUMP JUMPDEST PUSH1 0x8 PUSH1 0x0 DUP4 PUSH20 0xFFFFFFFFFFFFFFFFFFFFFFFFFFFFFFFFFFFFFFFF AND PUSH20 0xFFFFFFFFFFFFFFFFFFFFFFFFFFFFFFFFFFFFFFFF AND DUP2 MSTORE PUSH1 0x20 ADD SWAP1 DUP2 MSTORE PUSH1 0x20 ADD PUSH1 0x0 KECCAK256 DUP2 SWAP1 DUP1 PUSH1 0x1 DUP2 SLOAD ADD DUP1 DUP3 SSTORE DUP1 SWAP2 POP POP PUSH1 0x1 SWAP1 SUB SWAP1 PUSH1 0x0 MSTORE PUSH1 0x20 PUSH1 0x0 KECCAK256 ADD PUSH1 0x0 SWAP1 SWAP2 SWAP1 SWAP2 SWAP1 SWAP2 POP SSTORE PUSH1 0x1 PUSH1 0x8 PUSH1 0x0 DUP5 PUSH20 0xFFFFFFFFFFFFFFFFFFFFFFFFFFFFFFFFFFFFFFFF AND PUSH20 0xFFFFFFFFFFFFFFFFFFFFFFFFFFFFFFFFFFFFFFFF AND DUP2 MSTORE PUSH1 0x20 ADD SWAP1 DUP2 MSTORE PUSH1 0x20 ADD PUSH1 0x0 KECCAK256 DUP1 SLOAD SWAP1 POP PUSH2 0xB18 SWAP2 SWAP1 PUSH2 0x2708 JUMP JUMPDEST PUSH1 0x9 PUSH1 0x0 DUP5 PUSH20 0xFFFFFFFFFFFFFFFFFFFFFFFFFFFFFFFFFFFFFFFF AND PUSH20 0xFFFFFFFFFFFFFFFFFFFFFFFFFFFFFFFFFFFFFFFF AND DUP2 MSTORE PUSH1 0x20 ADD SWAP1 DUP2 MSTORE PUSH1 0x20 ADD PUSH1 0x0 KECCAK256 PUSH1 0x0 PUSH1 0x6 SLOAD DUP2 MSTORE PUSH1 0x20 ADD SWAP1 DUP2 MSTORE PUSH1 0x20 ADD PUSH1 0x0 KECCAK256 DUP2 SWAP1 SSTORE POP POP POP POP JUMP JUMPDEST PUSH2 0xB7E DUP4 DUP4 DUP4 PUSH2 0x764 JUMP JUMPDEST PUSH1 0x0 DUP3 PUSH20 0xFFFFFFFFFFFFFFFFFFFFFFFFFFFFFFFFFFFFFFFF AND EXTCODESIZE EQ DUP1 PUSH2 0xC67 JUMPI POP PUSH4 0x150B7A02 PUSH1 0xE0 SHL PUSH28 0xFFFFFFFFFFFFFFFFFFFFFFFFFFFFFFFFFFFFFFFFFFFFFFFFFFFFFFFF NOT AND DUP3 PUSH20 0xFFFFFFFFFFFFFFFFFFFFFFFFFFFFFFFFFFFFFFFF AND PUSH4 0x150B7A02 CALLER DUP7 DUP6 PUSH1 0x40 MLOAD DUP5 PUSH4 0xFFFFFFFF AND PUSH1 0xE0 SHL DUP2 MSTORE PUSH1 0x4 ADD PUSH2 0xC03 SWAP4 SWAP3 SWAP2 SWAP1 PUSH2 0x2773 JUMP JUMPDEST PUSH1 0x20 PUSH1 0x40 MLOAD DUP1 DUP4 SUB DUP2 PUSH1 0x0 DUP8 GAS CALL ISZERO DUP1 ISZERO PUSH2 0xC22 JUMPI RETURNDATASIZE PUSH1 0x0 DUP1 RETURNDATACOPY RETURNDATASIZE PUSH1 0x0 REVERT JUMPDEST POP POP POP POP PUSH1 0x40 MLOAD RETURNDATASIZE PUSH1 0x1F NOT PUSH1 0x1F DUP3 ADD AND DUP3 ADD DUP1 PUSH1 0x40 MSTORE POP DUP2 ADD SWAP1 PUSH2 0xC46 SWAP2 SWAP1 PUSH2 0x27D2 JUMP JUMPDEST PUSH28 0xFFFFFFFFFFFFFFFFFFFFFFFFFFFFFFFFFFFFFFFFFFFFFFFFFFFFFFFF NOT AND EQ JUMPDEST PUSH2 0xCA6 JUMPI PUSH1 0x40 MLOAD PUSH32 0x8C379A000000000000000000000000000000000000000000000000000000000 DUP2 MSTORE PUSH1 0x4 ADD PUSH2 0xC9D SWAP1 PUSH2 0x284B JUMP JUMPDEST PUSH1 0x40 MLOAD DUP1 SWAP2 SUB SWAP1 REVERT JUMPDEST POP POP POP JUMP JUMPDEST PUSH1 0x0 DUP1 PUSH1 0x0 DUP4 DUP2 MSTORE PUSH1 0x20 ADD SWAP1 DUP2 MSTORE PUSH1 0x20 ADD PUSH1 0x0 KECCAK256 PUSH1 0x0 SWAP1 SLOAD SWAP1 PUSH2 0x100 EXP SWAP1 DIV PUSH20 0xFFFFFFFFFFFFFFFFFFFFFFFFFFFFFFFFFFFFFFFF AND SWAP1 POP PUSH1 0x0 PUSH20 0xFFFFFFFFFFFFFFFFFFFFFFFFFFFFFFFFFFFFFFFF AND DUP2 PUSH20 0xFFFFFFFFFFFFFFFFFFFFFFFFFFFFFFFFFFFFFFFF AND SUB PUSH2 0xD51 JUMPI PUSH1 0x40 MLOAD PUSH32 0x8C379A000000000000000000000000000000000000000000000000000000000 DUP2 MSTORE PUSH1 0x4 ADD PUSH2 0xD48 SWAP1 PUSH2 0x28B7 JUMP JUMPDEST PUSH1 0x40 MLOAD DUP1 SWAP2 SUB SWAP1 REVERT JUMPDEST SWAP2 SWAP1 POP JUMP JUMPDEST PUSH1 0x0 DUP1 PUSH20 0xFFFFFFFFFFFFFFFFFFFFFFFFFFFFFFFFFFFFFFFF AND DUP3 PUSH20 0xFFFFFFFFFFFFFFFFFFFFFFFFFFFFFFFFFFFFFFFF AND SUB PUSH2 0xDC6 JUMPI PUSH1 0x40 MLOAD PUSH32 0x8C379A000000000000000000000000000000000000000000000000000000000 DUP2 MSTORE PUSH1 0x4 ADD PUSH2 0xDBD SWAP1 PUSH2 0x28B7 JUMP JUMPDEST PUSH1 0x40 MLOAD DUP1 SWAP2 SUB SWAP1 REVERT JUMPDEST PUSH1 0x1 PUSH1 0x0 DUP4 PUSH20 0xFFFFFFFFFFFFFFFFFFFFFFFFFFFFFFFFFFFFFFFF AND PUSH20 0xFFFFFFFFFFFFFFFFFFFFFFFFFFFFFFFFFFFFFFFF AND DUP2 MSTORE PUSH1 0x20 ADD SWAP1 DUP2 MSTORE PUSH1 0x20 ADD PUSH1 0x0 KECCAK256 SLOAD SWAP1 POP SWAP2 SWAP1 POP JUMP JUMPDEST PUSH1 0x9 PUSH1 0x20 MSTORE DUP2 PUSH1 0x0 MSTORE PUSH1 0x40 PUSH1 0x0 KECCAK256 PUSH1 0x20 MSTORE DUP1 PUSH1 0x0 MSTORE PUSH1 0x40 PUSH1 0x0 KECCAK256 PUSH1 0x0 SWAP2 POP SWAP2 POP POP SLOAD DUP2 JUMP JUMPDEST PUSH1 0x6 SLOAD DUP2 JUMP JUMPDEST PUSH1 0x7 PUSH1 0x20 MSTORE DUP1 PUSH1 0x0 MSTORE PUSH1 0x40 PUSH1 0x0 KECCAK256 PUSH1 0x0 SWAP2 POP SWAP1 POP DUP1 PUSH1 0x0 ADD SLOAD SWAP1 DUP1 PUSH1 0x1 ADD PUSH1 0x0 SWAP1 SLOAD SWAP1 PUSH2 0x100 EXP SWAP1 DIV PUSH20 0xFFFFFFFFFFFFFFFFFFFFFFFFFFFFFFFFFFFFFFFF AND SWAP1 DUP1 PUSH1 0x2 ADD PUSH1 0x0 SWAP1 SLOAD SWAP1 PUSH2 0x100 EXP SWAP1 DIV PUSH20 0xFFFFFFFFFFFFFFFFFFFFFFFFFFFFFFFFFFFFFFFF AND SWAP1 DUP1 PUSH1 0x3 ADD PUSH1 0x0 SWAP1 SLOAD SWAP1 PUSH2 0x100 EXP SWAP1 DIV PUSH20 0xFFFFFFFFFFFFFFFFFFFFFFFFFFFFFFFFFFFFFFFF AND SWAP1 DUP1 PUSH1 0x4 ADD SLOAD SWAP1 POP DUP6 JUMP JUMPDEST DUP1 PUSH1 0x3 PUSH1 0x0 CALLER PUSH20 0xFFFFFFFFFFFFFFFFFFFFFFFFFFFFFFFFFFFFFFFF AND PUSH20 0xFFFFFFFFFFFFFFFFFFFFFFFFFFFFFFFFFFFFFFFF AND DUP2 MSTORE PUSH1 0x20 ADD SWAP1 DUP2 MSTORE PUSH1 0x20 ADD PUSH1 0x0 KECCAK256 PUSH1 0x0 DUP5 PUSH20 0xFFFFFFFFFFFFFFFFFFFFFFFFFFFFFFFFFFFFFFFF AND PUSH20 0xFFFFFFFFFFFFFFFFFFFFFFFFFFFFFFFFFFFFFFFF AND DUP2 MSTORE PUSH1 0x20 ADD SWAP1 DUP2 MSTORE PUSH1 0x20 ADD PUSH1 0x0 KECCAK256 PUSH1 0x0 PUSH2 0x100 EXP DUP2 SLOAD DUP2 PUSH1 0xFF MUL NOT AND SWAP1 DUP4 ISZERO ISZERO MUL OR SWAP1 SSTORE POP DUP2 PUSH20 0xFFFFFFFFFFFFFFFFFFFFFFFFFFFFFFFFFFFFFFFF AND CALLER PUSH20 0xFFFFFFFFFFFFFFFFFFFFFFFFFFFFFFFFFFFFFFFF AND PUSH32 0x17307EAB39AB6107E8899845AD3D59BD9653F200F220920489CA2B5937696C31 DUP4 PUSH1 0x40 MLOAD PUSH2 0xFBF SWAP2 SWAP1 PUSH2 0x1F47 JUMP JUMPDEST PUSH1 0x40 MLOAD DUP1 SWAP2 SUB SWAP1 LOG3 POP POP JUMP JUMPDEST PUSH2 0xFD7 DUP3 PUSH1 0x6 SLOAD PUSH2 0x1A83 JUMP JUMPDEST PUSH1 0x8 PUSH1 0x0 DUP4 PUSH20 0xFFFFFFFFFFFFFFFFFFFFFFFFFFFFFFFFFFFFFFFF AND PUSH20 0xFFFFFFFFFFFFFFFFFFFFFFFFFFFFFFFFFFFFFFFF AND DUP2 MSTORE PUSH1 0x20 ADD SWAP1 DUP2 MSTORE PUSH1 0x20 ADD PUSH1 0x0 KECCAK256 PUSH1 0x6 SLOAD SWAP1 DUP1 PUSH1 0x1 DUP2 SLOAD ADD DUP1 DUP3 SSTORE DUP1 SWAP2 POP POP PUSH1 0x1 SWAP1 SUB SWAP1 PUSH1 0x0 MSTORE PUSH1 0x20 PUSH1 0x0 KECCAK256 ADD PUSH1 0x0 SWAP1 SWAP2 SWAP1 SWAP2 SWAP1 SWAP2 POP SSTORE PUSH1 0x1 PUSH1 0x8 PUSH1 0x0 DUP5 PUSH20 0xFFFFFFFFFFFFFFFFFFFFFFFFFFFFFFFFFFFFFFFF AND PUSH20 0xFFFFFFFFFFFFFFFFFFFFFFFFFFFFFFFFFFFFFFFF AND DUP2 MSTORE PUSH1 0x20 ADD SWAP1 DUP2 MSTORE PUSH1 0x20 ADD PUSH1 0x0 KECCAK256 DUP1 SLOAD SWAP1 POP PUSH2 0x108E SWAP2 SWAP1 PUSH2 0x2708 JUMP JUMPDEST PUSH1 0x9 PUSH1 0x0 DUP5 PUSH20 0xFFFFFFFFFFFFFFFFFFFFFFFFFFFFFFFFFFFFFFFF AND PUSH20 0xFFFFFFFFFFFFFFFFFFFFFFFFFFFFFFFFFFFFFFFF AND DUP2 MSTORE PUSH1 0x20 ADD SWAP1 DUP2 MSTORE PUSH1 0x20 ADD PUSH1 0x0 KECCAK256 PUSH1 0x0 PUSH1 0x6 SLOAD DUP2 MSTORE PUSH1 0x20 ADD SWAP1 DUP2 MSTORE PUSH1 0x20 ADD PUSH1 0x0 KECCAK256 DUP2 SWAP1 SSTORE POP PUSH1 0x0 PUSH1 0x7 PUSH1 0x0 PUSH1 0x6 SLOAD DUP2 MSTORE PUSH1 0x20 ADD SWAP1 DUP2 MSTORE PUSH1 0x20 ADD PUSH1 0x0 KECCAK256 SWAP1 POP DUP2 PUSH1 0x0 ADD CALLDATALOAD DUP2 PUSH1 0x0 ADD DUP2 SWAP1 SSTORE POP DUP2 PUSH1 0x20 ADD PUSH1 0x20 DUP2 ADD SWAP1 PUSH2 0x111D SWAP2 SWAP1 PUSH2 0x20E0 JUMP JUMPDEST DUP2 PUSH1 0x1 ADD PUSH1 0x0 PUSH2 0x100 EXP DUP2 SLOAD DUP2 PUSH20 0xFFFFFFFFFFFFFFFFFFFFFFFFFFFFFFFFFFFFFFFF MUL NOT AND SWAP1 DUP4 PUSH20 0xFFFFFFFFFFFFFFFFFFFFFFFFFFFFFFFFFFFFFFFF AND MUL OR SWAP1 SSTORE POP DUP2 PUSH1 0x40 ADD PUSH1 0x20 DUP2 ADD SWAP1 PUSH2 0x1172 SWAP2 SWAP1 PUSH2 0x20E0 JUMP JUMPDEST DUP2 PUSH1 0x2 ADD PUSH1 0x0 PUSH2 0x100 EXP DUP2 SLOAD DUP2 PUSH20 0xFFFFFFFFFFFFFFFFFFFFFFFFFFFFFFFFFFFFFFFF MUL NOT AND SWAP1 DUP4 PUSH20 0xFFFFFFFFFFFFFFFFFFFFFFFFFFFFFFFFFFFFFFFF AND MUL OR SWAP1 SSTORE POP DUP2 PUSH1 0x60 ADD PUSH1 0x20 DUP2 ADD SWAP1 PUSH2 0x11C7 SWAP2 SWAP1 PUSH2 0x20E0 JUMP JUMPDEST DUP2 PUSH1 0x3 ADD PUSH1 0x0 PUSH2 0x100 EXP DUP2 SLOAD DUP2 PUSH20 0xFFFFFFFFFFFFFFFFFFFFFFFFFFFFFFFFFFFFFFFF MUL NOT AND SWAP1 DUP4 PUSH20 0xFFFFFFFFFFFFFFFFFFFFFFFFFFFFFFFFFFFFFFFF AND MUL OR SWAP1 SSTORE POP DUP2 PUSH1 0x80 ADD CALLDATALOAD DUP2 PUSH1 0x4 ADD DUP2 SWAP1 SSTORE POP PUSH1 0x6 PUSH1 0x0 DUP2 SLOAD DUP1 SWAP3 SWAP2 SWAP1 PUSH2 0x1229 SWAP1 PUSH2 0x26C0 JUMP JUMPDEST SWAP2 SWAP1 POP SSTORE POP POP POP POP JUMP JUMPDEST PUSH2 0x123E DUP6 DUP6 DUP6 PUSH2 0x764 JUMP JUMPDEST PUSH1 0x0 DUP5 PUSH20 0xFFFFFFFFFFFFFFFFFFFFFFFFFFFFFFFFFFFFFFFF AND EXTCODESIZE EQ DUP1 PUSH2 0x132B JUMPI POP PUSH4 0x150B7A02 PUSH1 0xE0 SHL PUSH28 0xFFFFFFFFFFFFFFFFFFFFFFFFFFFFFFFFFFFFFFFFFFFFFFFFFFFFFFFF NOT AND DUP5 PUSH20 0xFFFFFFFFFFFFFFFFFFFFFFFFFFFFFFFFFFFFFFFF AND PUSH4 0x150B7A02 CALLER DUP9 DUP8 DUP8 DUP8 PUSH1 0x40 MLOAD DUP7 PUSH4 0xFFFFFFFF AND PUSH1 0xE0 SHL DUP2 MSTORE PUSH1 0x4 ADD PUSH2 0x12C7 SWAP6 SWAP5 SWAP4 SWAP3 SWAP2 SWAP1 PUSH2 0x2924 JUMP JUMPDEST PUSH1 0x20 PUSH1 0x40 MLOAD DUP1 DUP4 SUB DUP2 PUSH1 0x0 DUP8 GAS CALL ISZERO DUP1 ISZERO PUSH2 0x12E6 JUMPI RETURNDATASIZE PUSH1 0x0 DUP1 RETURNDATACOPY RETURNDATASIZE PUSH1 0x0 REVERT JUMPDEST POP POP POP POP PUSH1 0x40 MLOAD RETURNDATASIZE PUSH1 0x1F NOT PUSH1 0x1F DUP3 ADD AND DUP3 ADD DUP1 PUSH1 0x40 MSTORE POP DUP2 ADD SWAP1 PUSH2 0x130A SWAP2 SWAP1 PUSH2 0x27D2 JUMP JUMPDEST PUSH28 0xFFFFFFFFFFFFFFFFFFFFFFFFFFFFFFFFFFFFFFFFFFFFFFFFFFFFFFFF NOT AND EQ JUMPDEST PUSH2 0x136A JUMPI PUSH1 0x40 MLOAD PUSH32 0x8C379A000000000000000000000000000000000000000000000000000000000 DUP2 MSTORE PUSH1 0x4 ADD PUSH2 0x1361 SWAP1 PUSH2 0x284B JUMP JUMPDEST PUSH1 0x40 MLOAD DUP1 SWAP2 SUB SWAP1 REVERT JUMPDEST POP POP POP POP POP JUMP JUMPDEST PUSH1 0x60 PUSH1 0x8 PUSH1 0x0 DUP4 PUSH20 0xFFFFFFFFFFFFFFFFFFFFFFFFFFFFFFFFFFFFFFFF AND PUSH20 0xFFFFFFFFFFFFFFFFFFFFFFFFFFFFFFFFFFFFFFFF AND DUP2 MSTORE PUSH1 0x20 ADD SWAP1 DUP2 MSTORE PUSH1 0x20 ADD PUSH1 0x0 KECCAK256 DUP1 SLOAD DUP1 PUSH1 0x20 MUL PUSH1 0x20 ADD PUSH1 0x40 MLOAD SWAP1 DUP2 ADD PUSH1 0x40 MSTORE DUP1 SWAP3 SWAP2 SWAP1 DUP2 DUP2 MSTORE PUSH1 0x20 ADD DUP3 DUP1 SLOAD DUP1 ISZERO PUSH2 0x13FC JUMPI PUSH1 0x20 MUL DUP3 ADD SWAP2 SWAP1 PUSH1 0x0 MSTORE PUSH1 0x20 PUSH1 0x0 KECCAK256 SWAP1 JUMPDEST DUP2 SLOAD DUP2 MSTORE PUSH1 0x20 ADD SWAP1 PUSH1 0x1 ADD SWAP1 DUP1 DUP4 GT PUSH2 0x13E8 JUMPI JUMPDEST POP POP POP POP POP SWAP1 POP SWAP2 SWAP1 POP JUMP JUMPDEST PUSH1 0x8 PUSH1 0x20 MSTORE DUP2 PUSH1 0x0 MSTORE PUSH1 0x40 PUSH1 0x0 KECCAK256 DUP2 DUP2 SLOAD DUP2 LT PUSH2 0x1424 JUMPI PUSH1 0x0 DUP1 REVERT JUMPDEST SWAP1 PUSH1 0x0 MSTORE PUSH1 0x20 PUSH1 0x0 KECCAK256 ADD PUSH1 0x0 SWAP2 POP SWAP2 POP POP SLOAD DUP2 JUMP JUMPDEST PUSH1 0x3 PUSH1 0x20 MSTORE DUP2 PUSH1 0x0 MSTORE PUSH1 0x40 PUSH1 0x0 KECCAK256 PUSH1 0x20 MSTORE DUP1 PUSH1 0x0 MSTORE PUSH1 0x40 PUSH1 0x0 KECCAK256 PUSH1 0x0 SWAP2 POP SWAP2 POP SWAP1 SLOAD SWAP1 PUSH2 0x100 EXP SWAP1 DIV PUSH1 0xFF AND DUP2 JUMP JUMPDEST PUSH1 0x0 DUP1 DUP4 DUP2 MSTORE PUSH1 0x20 ADD SWAP1 DUP2 MSTORE PUSH1 0x20 ADD PUSH1 0x0 KECCAK256 PUSH1 0x0 SWAP1 SLOAD SWAP1 PUSH2 0x100 EXP SWAP1 DIV PUSH20 0xFFFFFFFFFFFFFFFFFFFFFFFFFFFFFFFFFFFFFFFF AND PUSH20 0xFFFFFFFFFFFFFFFFFFFFFFFFFFFFFFFFFFFFFFFF AND DUP2 PUSH20 0xFFFFFFFFFFFFFFFFFFFFFFFFFFFFFFFFFFFFFFFF AND EQ PUSH2 0x1508 JUMPI PUSH1 0x40 MLOAD PUSH32 0x8C379A000000000000000000000000000000000000000000000000000000000 DUP2 MSTORE PUSH1 0x4 ADD PUSH2 0x14FF SWAP1 PUSH2 0x29BE JUMP JUMPDEST PUSH1 0x40 MLOAD DUP1 SWAP2 SUB SWAP1 REVERT JUMPDEST PUSH2 0x1511 DUP3 PUSH2 0x1C99 JUMP JUMPDEST PUSH2 0x151B DUP3 DUP3 PUSH2 0x16EE JUMP JUMPDEST PUSH1 0x7 PUSH1 0x0 DUP4 DUP2 MSTORE PUSH1 0x20 ADD SWAP1 DUP2 MSTORE PUSH1 0x20 ADD PUSH1 0x0 KECCAK256 PUSH1 0x0 DUP1 DUP3 ADD PUSH1 0x0 SWAP1 SSTORE PUSH1 0x1 DUP3 ADD PUSH1 0x0 PUSH2 0x100 EXP DUP2 SLOAD SWAP1 PUSH20 0xFFFFFFFFFFFFFFFFFFFFFFFFFFFFFFFFFFFFFFFF MUL NOT AND SWAP1 SSTORE PUSH1 0x2 DUP3 ADD PUSH1 0x0 PUSH2 0x100 EXP DUP2 SLOAD SWAP1 PUSH20 0xFFFFFFFFFFFFFFFFFFFFFFFFFFFFFFFFFFFFFFFF MUL NOT AND SWAP1 SSTORE PUSH1 0x3 DUP3 ADD PUSH1 0x0 PUSH2 0x100 EXP DUP2 SLOAD SWAP1 PUSH20 0xFFFFFFFFFFFFFFFFFFFFFFFFFFFFFFFFFFFFFFFF MUL NOT AND SWAP1 SSTORE PUSH1 0x4 DUP3 ADD PUSH1 0x0 SWAP1 SSTORE POP POP POP POP JUMP JUMPDEST PUSH1 0x0 DUP4 PUSH20 0xFFFFFFFFFFFFFFFFFFFFFFFFFFFFFFFFFFFFFFFF AND DUP4 PUSH20 0xFFFFFFFFFFFFFFFFFFFFFFFFFFFFFFFFFFFFFFFF AND EQ DUP1 PUSH2 0x167C JUMPI POP PUSH1 0x3 PUSH1 0x0 DUP6 PUSH20 0xFFFFFFFFFFFFFFFFFFFFFFFFFFFFFFFFFFFFFFFF AND PUSH20 0xFFFFFFFFFFFFFFFFFFFFFFFFFFFFFFFFFFFFFFFF AND DUP2 MSTORE PUSH1 0x20 ADD SWAP1 DUP2 MSTORE PUSH1 0x20 ADD PUSH1 0x0 KECCAK256 PUSH1 0x0 DUP5 PUSH20 0xFFFFFFFFFFFFFFFFFFFFFFFFFFFFFFFFFFFFFFFF AND PUSH20 0xFFFFFFFFFFFFFFFFFFFFFFFFFFFFFFFFFFFFFFFF AND DUP2 MSTORE PUSH1 0x20 ADD SWAP1 DUP2 MSTORE PUSH1 0x20 ADD PUSH1 0x0 KECCAK256 PUSH1 0x0 SWAP1 SLOAD SWAP1 PUSH2 0x100 EXP SWAP1 DIV PUSH1 0xFF AND JUMPDEST DUP1 PUSH2 0x16E5 JUMPI POP PUSH1 0x2 PUSH1 0x0 DUP4 DUP2 MSTORE PUSH1 0x20 ADD SWAP1 DUP2 MSTORE PUSH1 0x20 ADD PUSH1 0x0 KECCAK256 PUSH1 0x0 SWAP1 SLOAD SWAP1 PUSH2 0x100 EXP SWAP1 DIV PUSH20 0xFFFFFFFFFFFFFFFFFFFFFFFFFFFFFFFFFFFFFFFF AND PUSH20 0xFFFFFFFFFFFFFFFFFFFFFFFFFFFFFFFFFFFFFFFF AND DUP4 PUSH20 0xFFFFFFFFFFFFFFFFFFFFFFFFFFFFFFFFFFFFFFFF AND EQ JUMPDEST SWAP1 POP SWAP4 SWAP3 POP POP POP JUMP JUMPDEST PUSH1 0x0 PUSH1 0x9 PUSH1 0x0 DUP4 PUSH20 0xFFFFFFFFFFFFFFFFFFFFFFFFFFFFFFFFFFFFFFFF AND PUSH20 0xFFFFFFFFFFFFFFFFFFFFFFFFFFFFFFFFFFFFFFFF AND DUP2 MSTORE PUSH1 0x20 ADD SWAP1 DUP2 MSTORE PUSH1 0x20 ADD PUSH1 0x0 KECCAK256 PUSH1 0x0 DUP5 DUP2 MSTORE PUSH1 0x20 ADD SWAP1 DUP2 MSTORE PUSH1 0x20 ADD PUSH1 0x0 KECCAK256 SLOAD SWAP1 POP PUSH1 0x0 PUSH1 0x8 PUSH1 0x0 DUP5 PUSH20 0xFFFFFFFFFFFFFFFFFFFFFFFFFFFFFFFFFFFFFFFF AND PUSH20 0xFFFFFFFFFFFFFFFFFFFFFFFFFFFFFFFFFFFFFFFF AND DUP2 MSTORE PUSH1 0x20 ADD SWAP1 DUP2 MSTORE PUSH1 0x20 ADD PUSH1 0x0 KECCAK256 DUP1 SLOAD SWAP1 POP SWAP1 POP PUSH1 0x1 DUP2 SUB PUSH2 0x1838 JUMPI PUSH1 0x8 PUSH1 0x0 DUP5 PUSH20 0xFFFFFFFFFFFFFFFFFFFFFFFFFFFFFFFFFFFFFFFF AND PUSH20 0xFFFFFFFFFFFFFFFFFFFFFFFFFFFFFFFFFFFFFFFF AND DUP2 MSTORE PUSH1 0x20 ADD SWAP1 DUP2 MSTORE PUSH1 0x20 ADD PUSH1 0x0 KECCAK256 PUSH1 0x0 PUSH2 0x17DD SWAP2 SWAP1 PUSH2 0x1E5F JUMP JUMPDEST PUSH1 0x0 PUSH1 0x9 PUSH1 0x0 DUP6 PUSH20 0xFFFFFFFFFFFFFFFFFFFFFFFFFFFFFFFFFFFFFFFF AND PUSH20 0xFFFFFFFFFFFFFFFFFFFFFFFFFFFFFFFFFFFFFFFF AND DUP2 MSTORE PUSH1 0x20 ADD SWAP1 DUP2 MSTORE PUSH1 0x20 ADD PUSH1 0x0 KECCAK256 PUSH1 0x0 DUP7 DUP2 MSTORE PUSH1 0x20 ADD SWAP1 DUP2 MSTORE PUSH1 0x20 ADD PUSH1 0x0 KECCAK256 DUP2 SWAP1 SSTORE POP PUSH2 0x1A7D JUMP JUMPDEST PUSH1 0x0 PUSH1 0x8 PUSH1 0x0 DUP6 PUSH20 0xFFFFFFFFFFFFFFFFFFFFFFFFFFFFFFFFFFFFFFFF AND PUSH20 0xFFFFFFFFFFFFFFFFFFFFFFFFFFFFFFFFFFFFFFFF AND DUP2 MSTORE PUSH1 0x20 ADD SWAP1 DUP2 MSTORE PUSH1 0x20 ADD PUSH1 0x0 KECCAK256 PUSH1 0x1 DUP4 PUSH2 0x1886 SWAP2 SWAP1 PUSH2 0x2708 JUMP JUMPDEST DUP2 SLOAD DUP2 LT PUSH2 0x1897 JUMPI PUSH2 0x1896 PUSH2 0x29DE JUMP JUMPDEST JUMPDEST SWAP1 PUSH1 0x0 MSTORE PUSH1 0x20 PUSH1 0x0 KECCAK256 ADD SLOAD SWAP1 POP PUSH1 0x8 PUSH1 0x0 DUP6 PUSH20 0xFFFFFFFFFFFFFFFFFFFFFFFFFFFFFFFFFFFFFFFF AND PUSH20 0xFFFFFFFFFFFFFFFFFFFFFFFFFFFFFFFFFFFFFFFF AND DUP2 MSTORE PUSH1 0x20 ADD SWAP1 DUP2 MSTORE PUSH1 0x20 ADD PUSH1 0x0 KECCAK256 PUSH1 0x1 DUP4 PUSH2 0x18F0 SWAP2 SWAP1 PUSH2 0x2708 JUMP JUMPDEST DUP2 SLOAD DUP2 LT PUSH2 0x1901 JUMPI PUSH2 0x1900 PUSH2 0x29DE JUMP JUMPDEST JUMPDEST SWAP1 PUSH1 0x0 MSTORE PUSH1 0x20 PUSH1 0x0 KECCAK256 ADD SLOAD PUSH1 0x8 PUSH1 0x0 DUP7 PUSH20 0xFFFFFFFFFFFFFFFFFFFFFFFFFFFFFFFFFFFFFFFF AND PUSH20 0xFFFFFFFFFFFFFFFFFFFFFFFFFFFFFFFFFFFFFFFF AND DUP2 MSTORE PUSH1 0x20 ADD SWAP1 DUP2 MSTORE PUSH1 0x20 ADD PUSH1 0x0 KECCAK256 DUP5 DUP2 SLOAD DUP2 LT PUSH2 0x195D JUMPI PUSH2 0x195C PUSH2 0x29DE JUMP JUMPDEST JUMPDEST SWAP1 PUSH1 0x0 MSTORE PUSH1 0x20 PUSH1 0x0 KECCAK256 ADD DUP2 SWAP1 SSTORE POP PUSH1 0x8 PUSH1 0x0 DUP6 PUSH20 0xFFFFFFFFFFFFFFFFFFFFFFFFFFFFFFFFFFFFFFFF AND PUSH20 0xFFFFFFFFFFFFFFFFFFFFFFFFFFFFFFFFFFFFFFFF AND DUP2 MSTORE PUSH1 0x20 ADD SWAP1 DUP2 MSTORE PUSH1 0x20 ADD PUSH1 0x0 KECCAK256 DUP1 SLOAD DUP1 PUSH2 0x19BA JUMPI PUSH2 0x19B9 PUSH2 0x2A0D JUMP JUMPDEST JUMPDEST PUSH1 0x1 SWAP1 SUB DUP2 DUP2 SWAP1 PUSH1 0x0 MSTORE PUSH1 0x20 PUSH1 0x0 KECCAK256 ADD PUSH1 0x0 SWAP1 SSTORE SWAP1 SSTORE DUP3 PUSH1 0x9 PUSH1 0x0 DUP7 PUSH20 0xFFFFFFFFFFFFFFFFFFFFFFFFFFFFFFFFFFFFFFFF AND PUSH20 0xFFFFFFFFFFFFFFFFFFFFFFFFFFFFFFFFFFFFFFFF AND DUP2 MSTORE PUSH1 0x20 ADD SWAP1 DUP2 MSTORE PUSH1 0x20 ADD PUSH1 0x0 KECCAK256 PUSH1 0x0 DUP4 DUP2 MSTORE PUSH1 0x20 ADD SWAP1 DUP2 MSTORE PUSH1 0x20 ADD PUSH1 0x0 KECCAK256 DUP2 SWAP1 SSTORE POP PUSH1 0x0 PUSH1 0x9 PUSH1 0x0 DUP7 PUSH20 0xFFFFFFFFFFFFFFFFFFFFFFFFFFFFFFFFFFFFFFFF AND PUSH20 0xFFFFFFFFFFFFFFFFFFFFFFFFFFFFFFFFFFFFFFFF AND DUP2 MSTORE PUSH1 0x20 ADD SWAP1 DUP2 MSTORE PUSH1 0x20 ADD PUSH1 0x0 KECCAK256 PUSH1 0x0 DUP8 DUP2 MSTORE PUSH1 0x20 ADD SWAP1 DUP2 MSTORE PUSH1 0x20 ADD PUSH1 0x0 KECCAK256 DUP2 SWAP1 SSTORE POP POP JUMPDEST POP POP POP POP JUMP JUMPDEST PUSH1 0x0 PUSH20 0xFFFFFFFFFFFFFFFFFFFFFFFFFFFFFFFFFFFFFFFF AND DUP3 PUSH20 0xFFFFFFFFFFFFFFFFFFFFFFFFFFFFFFFFFFFFFFFF AND SUB PUSH2 0x1AF2 JUMPI PUSH1 0x40 MLOAD PUSH32 0x8C379A000000000000000000000000000000000000000000000000000000000 DUP2 MSTORE PUSH1 0x4 ADD PUSH2 0x1AE9 SWAP1 PUSH2 0x2648 JUMP JUMPDEST PUSH1 0x40 MLOAD DUP1 SWAP2 SUB SWAP1 REVERT JUMPDEST PUSH1 0x0 PUSH20 0xFFFFFFFFFFFFFFFFFFFFFFFFFFFFFFFFFFFFFFFF AND PUSH1 0x0 DUP1 DUP4 DUP2 MSTORE PUSH1 0x20 ADD SWAP1 DUP2 MSTORE PUSH1 0x20 ADD PUSH1 0x0 KECCAK256 PUSH1 0x0 SWAP1 SLOAD SWAP1 PUSH2 0x100 EXP SWAP1 DIV PUSH20 0xFFFFFFFFFFFFFFFFFFFFFFFFFFFFFFFFFFFFFFFF AND PUSH20 0xFFFFFFFFFFFFFFFFFFFFFFFFFFFFFFFFFFFFFFFF AND EQ PUSH2 0x1B93 JUMPI PUSH1 0x40 MLOAD PUSH32 0x8C379A000000000000000000000000000000000000000000000000000000000 DUP2 MSTORE PUSH1 0x4 ADD PUSH2 0x1B8A SWAP1 PUSH2 0x2A88 JUMP JUMPDEST PUSH1 0x40 MLOAD DUP1 SWAP2 SUB SWAP1 REVERT JUMPDEST PUSH1 0x1 PUSH1 0x0 DUP4 PUSH20 0xFFFFFFFFFFFFFFFFFFFFFFFFFFFFFFFFFFFFFFFF AND PUSH20 0xFFFFFFFFFFFFFFFFFFFFFFFFFFFFFFFFFFFFFFFF AND DUP2 MSTORE PUSH1 0x20 ADD SWAP1 DUP2 MSTORE PUSH1 0x20 ADD PUSH1 0x0 KECCAK256 PUSH1 0x0 DUP2 SLOAD DUP1 SWAP3 SWAP2 SWAP1 PUSH2 0x1BE3 SWAP1 PUSH2 0x26C0 JUMP JUMPDEST SWAP2 SWAP1 POP SSTORE POP DUP2 PUSH1 0x0 DUP1 DUP4 DUP2 MSTORE PUSH1 0x20 ADD SWAP1 DUP2 MSTORE PUSH1 0x20 ADD PUSH1 0x0 KECCAK256 PUSH1 0x0 PUSH2 0x100 EXP DUP2 SLOAD DUP2 PUSH20 0xFFFFFFFFFFFFFFFFFFFFFFFFFFFFFFFFFFFFFFFF MUL NOT AND SWAP1 DUP4 PUSH20 0xFFFFFFFFFFFFFFFFFFFFFFFFFFFFFFFFFFFFFFFF AND MUL OR SWAP1 SSTORE POP DUP1 DUP3 PUSH20 0xFFFFFFFFFFFFFFFFFFFFFFFFFFFFFFFFFFFFFFFF AND PUSH1 0x0 PUSH20 0xFFFFFFFFFFFFFFFFFFFFFFFFFFFFFFFFFFFFFFFF AND PUSH32 0xDDF252AD1BE2C89B69C2B068FC378DAA952BA7F163C4A11628F55A4DF523B3EF PUSH1 0x40 MLOAD PUSH1 0x40 MLOAD DUP1 SWAP2 SUB SWAP1 LOG4 POP POP JUMP JUMPDEST PUSH1 0x0 DUP1 PUSH1 0x0 DUP4 DUP2 MSTORE PUSH1 0x20 ADD SWAP1 DUP2 MSTORE PUSH1 0x20 ADD PUSH1 0x0 KECCAK256 PUSH1 0x0 SWAP1 SLOAD SWAP1 PUSH2 0x100 EXP SWAP1 DIV PUSH20 0xFFFFFFFFFFFFFFFFFFFFFFFFFFFFFFFFFFFFFFFF AND SWAP1 POP PUSH1 0x0 PUSH20 0xFFFFFFFFFFFFFFFFFFFFFFFFFFFFFFFFFFFFFFFF AND DUP2 PUSH20 0xFFFFFFFFFFFFFFFFFFFFFFFFFFFFFFFFFFFFFFFF AND SUB PUSH2 0x1D3F JUMPI PUSH1 0x40 MLOAD PUSH32 0x8C379A000000000000000000000000000000000000000000000000000000000 DUP2 MSTORE PUSH1 0x4 ADD PUSH2 0x1D36 SWAP1 PUSH2 0x2AF4 JUMP JUMPDEST PUSH1 0x40 MLOAD DUP1 SWAP2 SUB SWAP1 REVERT JUMPDEST PUSH1 0x1 PUSH1 0x0 DUP3 PUSH20 0xFFFFFFFFFFFFFFFFFFFFFFFFFFFFFFFFFFFFFFFF AND PUSH20 0xFFFFFFFFFFFFFFFFFFFFFFFFFFFFFFFFFFFFFFFF AND DUP2 MSTORE PUSH1 0x20 ADD SWAP1 DUP2 MSTORE PUSH1 0x20 ADD PUSH1 0x0 KECCAK256 PUSH1 0x0 DUP2 SLOAD DUP1 SWAP3 SWAP2 SWAP1 PUSH2 0x1D8F SWAP1 PUSH2 0x2697 JUMP JUMPDEST SWAP2 SWAP1 POP SSTORE POP PUSH1 0x0 DUP1 DUP4 DUP2 MSTORE PUSH1 0x20 ADD SWAP1 DUP2 MSTORE PUSH1 0x20 ADD PUSH1 0x0 KECCAK256 PUSH1 0x0 PUSH2 0x100 EXP DUP2 SLOAD SWAP1 PUSH20 0xFFFFFFFFFFFFFFFFFFFFFFFFFFFFFFFFFFFFFFFF MUL NOT AND SWAP1 SSTORE PUSH1 0x2 PUSH1 0x0 DUP4 DUP2 MSTORE PUSH1 0x20 ADD SWAP1 DUP2 MSTORE PUSH1 0x20 ADD PUSH1 0x0 KECCAK256 PUSH1 0x0 PUSH2 0x100 EXP DUP2 SLOAD SWAP1 PUSH20 0xFFFFFFFFFFFFFFFFFFFFFFFFFFFFFFFFFFFFFFFF MUL NOT AND SWAP1 SSTORE DUP2 PUSH1 0x0 PUSH20 0xFFFFFFFFFFFFFFFFFFFFFFFFFFFFFFFFFFFFFFFF AND DUP3 PUSH20 0xFFFFFFFFFFFFFFFFFFFFFFFFFFFFFFFFFFFFFFFF AND PUSH32 0xDDF252AD1BE2C89B69C2B068FC378DAA952BA7F163C4A11628F55A4DF523B3EF PUSH1 0x40 MLOAD PUSH1 0x40 MLOAD DUP1 SWAP2 SUB SWAP1 LOG4 POP POP JUMP JUMPDEST POP DUP1 SLOAD PUSH1 0x0 DUP3 SSTORE SWAP1 PUSH1 0x0 MSTORE PUSH1 0x20 PUSH1 0x0 KECCAK256 SWAP1 DUP2 ADD SWAP1 PUSH2 0x1E7D SWAP2 SWAP1 PUSH2 0x1E80 JUMP JUMPDEST POP JUMP JUMPDEST JUMPDEST DUP1 DUP3 GT ISZERO PUSH2 0x1E99 JUMPI PUSH1 0x0 DUP2 PUSH1 0x0 SWAP1 SSTORE POP PUSH1 0x1 ADD PUSH2 0x1E81 JUMP JUMPDEST POP SWAP1 JUMP JUMPDEST PUSH1 0x0 DUP1 REVERT JUMPDEST PUSH1 0x0 DUP1 REVERT JUMPDEST PUSH1 0x0 PUSH32 0xFFFFFFFF00000000000000000000000000000000000000000000000000000000 DUP3 AND SWAP1 POP SWAP2 SWAP1 POP JUMP JUMPDEST PUSH2 0x1EDC DUP2 PUSH2 0x1EA7 JUMP JUMPDEST DUP2 EQ PUSH2 0x1EE7 JUMPI PUSH1 0x0 DUP1 REVERT JUMPDEST POP JUMP JUMPDEST PUSH1 0x0 DUP2 CALLDATALOAD SWAP1 POP PUSH2 0x1EF9 DUP2 PUSH2 0x1ED3 JUMP JUMPDEST SWAP3 SWAP2 POP POP JUMP JUMPDEST PUSH1 0x0 PUSH1 0x20 DUP3 DUP5 SUB SLT ISZERO PUSH2 0x1F15 JUMPI PUSH2 0x1F14 PUSH2 0x1E9D JUMP JUMPDEST JUMPDEST PUSH1 0x0 PUSH2 0x1F23 DUP5 DUP3 DUP6 ADD PUSH2 0x1EEA JUMP JUMPDEST SWAP2 POP POP SWAP3 SWAP2 POP POP JUMP JUMPDEST PUSH1 0x0 DUP2 ISZERO ISZERO SWAP1 POP SWAP2 SWAP1 POP JUMP JUMPDEST PUSH2 0x1F41 DUP2 PUSH2 0x1F2C JUMP JUMPDEST DUP3 MSTORE POP POP JUMP JUMPDEST PUSH1 0x0 PUSH1 0x20 DUP3 ADD SWAP1 POP PUSH2 0x1F5C PUSH1 0x0 DUP4 ADD DUP5 PUSH2 0x1F38 JUMP JUMPDEST SWAP3 SWAP2 POP POP JUMP JUMPDEST PUSH1 0x0 DUP2 SWAP1 POP SWAP2 SWAP1 POP JUMP JUMPDEST PUSH2 0x1F75 DUP2 PUSH2 0x1F62 JUMP JUMPDEST DUP2 EQ PUSH2 0x1F80 JUMPI PUSH1 0x0 DUP1 REVERT JUMPDEST POP JUMP JUMPDEST PUSH1 0x0 DUP2 CALLDATALOAD SWAP1 POP PUSH2 0x1F92 DUP2 PUSH2 0x1F6C JUMP JUMPDEST SWAP3 SWAP2 POP POP JUMP JUMPDEST PUSH1 0x0 PUSH1 0x20 DUP3 DUP5 SUB SLT ISZERO PUSH2 0x1FAE JUMPI PUSH2 0x1FAD PUSH2 0x1E9D JUMP JUMPDEST JUMPDEST PUSH1 0x0 PUSH2 0x1FBC DUP5 DUP3 DUP6 ADD PUSH2 0x1F83 JUMP JUMPDEST SWAP2 POP POP SWAP3 SWAP2 POP POP JUMP JUMPDEST PUSH1 0x0 PUSH20 0xFFFFFFFFFFFFFFFFFFFFFFFFFFFFFFFFFFFFFFFF DUP3 AND SWAP1 POP SWAP2 SWAP1 POP JUMP JUMPDEST PUSH1 0x0 PUSH2 0x1FF0 DUP3 PUSH2 0x1FC5 JUMP JUMPDEST SWAP1 POP SWAP2 SWAP1 POP JUMP JUMPDEST PUSH2 0x2000 DUP2 PUSH2 0x1FE5 JUMP JUMPDEST DUP3 MSTORE POP POP JUMP JUMPDEST PUSH1 0x0 PUSH1 0x20 DUP3 ADD SWAP1 POP PUSH2 0x201B PUSH1 0x0 DUP4 ADD DUP5 PUSH2 0x1FF7 JUMP JUMPDEST SWAP3 SWAP2 POP POP JUMP JUMPDEST PUSH2 0x202A DUP2 PUSH2 0x1FE5 JUMP JUMPDEST DUP2 EQ PUSH2 0x2035 JUMPI PUSH1 0x0 DUP1 REVERT JUMPDEST POP JUMP JUMPDEST PUSH1 0x0 DUP2 CALLDATALOAD SWAP1 POP PUSH2 0x2047 DUP2 PUSH2 0x2021 JUMP JUMPDEST SWAP3 SWAP2 POP POP JUMP JUMPDEST PUSH1 0x0 DUP1 PUSH1 0x40 DUP4 DUP6 SUB SLT ISZERO PUSH2 0x2064 JUMPI PUSH2 0x2063 PUSH2 0x1E9D JUMP JUMPDEST JUMPDEST PUSH1 0x0 PUSH2 0x2072 DUP6 DUP3 DUP7 ADD PUSH2 0x2038 JUMP JUMPDEST SWAP3 POP POP PUSH1 0x20 PUSH2 0x2083 DUP6 DUP3 DUP7 ADD PUSH2 0x1F83 JUMP JUMPDEST SWAP2 POP POP SWAP3 POP SWAP3 SWAP1 POP JUMP JUMPDEST PUSH1 0x0 DUP1 PUSH1 0x0 PUSH1 0x60 DUP5 DUP7 SUB SLT ISZERO PUSH2 0x20A6 JUMPI PUSH2 0x20A5 PUSH2 0x1E9D JUMP JUMPDEST JUMPDEST PUSH1 0x0 PUSH2 0x20B4 DUP7 DUP3 DUP8 ADD PUSH2 0x2038 JUMP JUMPDEST SWAP4 POP POP PUSH1 0x20 PUSH2 0x20C5 DUP7 DUP3 DUP8 ADD PUSH2 0x2038 JUMP JUMPDEST SWAP3 POP POP PUSH1 0x40 PUSH2 0x20D6 DUP7 DUP3 DUP8 ADD PUSH2 0x1F83 JUMP JUMPDEST SWAP2 POP POP SWAP3 POP SWAP3 POP SWAP3 JUMP JUMPDEST PUSH1 0x0 PUSH1 0x20 DUP3 DUP5 SUB SLT ISZERO PUSH2 0x20F6 JUMPI PUSH2 0x20F5 PUSH2 0x1E9D JUMP JUMPDEST JUMPDEST PUSH1 0x0 PUSH2 0x2104 DUP5 DUP3 DUP6 ADD PUSH2 0x2038 JUMP JUMPDEST SWAP2 POP POP SWAP3 SWAP2 POP POP JUMP JUMPDEST PUSH2 0x2116 DUP2 PUSH2 0x1F62 JUMP JUMPDEST DUP3 MSTORE POP POP JUMP JUMPDEST PUSH1 0x0 PUSH1 0x20 DUP3 ADD SWAP1 POP PUSH2 0x2131 PUSH1 0x0 DUP4 ADD DUP5 PUSH2 0x210D JUMP JUMPDEST SWAP3 SWAP2 POP POP JUMP JUMPDEST PUSH1 0x0 PUSH1 0xA0 DUP3 ADD SWAP1 POP PUSH2 0x214C PUSH1 0x0 DUP4 ADD DUP9 PUSH2 0x210D JUMP JUMPDEST PUSH2 0x2159 PUSH1 0x20 DUP4 ADD DUP8 PUSH2 0x1FF7 JUMP JUMPDEST PUSH2 0x2166 PUSH1 0x40 DUP4 ADD DUP7 PUSH2 0x1FF7 JUMP JUMPDEST PUSH2 0x2173 PUSH1 0x60 DUP4 ADD DUP6 PUSH2 0x1FF7 JUMP JUMPDEST PUSH2 0x2180 PUSH1 0x80 DUP4 ADD DUP5 PUSH2 0x210D JUMP JUMPDEST SWAP7 SWAP6 POP POP POP POP POP POP JUMP JUMPDEST PUSH2 0x2193 DUP2 PUSH2 0x1F2C JUMP JUMPDEST DUP2 EQ PUSH2 0x219E JUMPI PUSH1 0x0 DUP1 REVERT JUMPDEST POP JUMP JUMPDEST PUSH1 0x0 DUP2 CALLDATALOAD SWAP1 POP PUSH2 0x21B0 DUP2 PUSH2 0x218A JUMP JUMPDEST SWAP3 SWAP2 POP POP JUMP JUMPDEST PUSH1 0x0 DUP1 PUSH1 0x40 DUP4 DUP6 SUB SLT ISZERO PUSH2 0x21CD JUMPI PUSH2 0x21CC PUSH2 0x1E9D JUMP JUMPDEST JUMPDEST PUSH1 0x0 PUSH2 0x21DB DUP6 DUP3 DUP7 ADD PUSH2 0x2038 JUMP JUMPDEST SWAP3 POP POP PUSH1 0x20 PUSH2 0x21EC DUP6 DUP3 DUP7 ADD PUSH2 0x21A1 JUMP JUMPDEST SWAP2 POP POP SWAP3 POP SWAP3 SWAP1 POP JUMP JUMPDEST PUSH1 0x0 DUP1 REVERT JUMPDEST PUSH1 0x0 PUSH1 0xA0 DUP3 DUP5 SUB SLT ISZERO PUSH2 0x2211 JUMPI PUSH2 0x2210 PUSH2 0x21F6 JUMP JUMPDEST JUMPDEST DUP2 SWAP1 POP SWAP3 SWAP2 POP POP JUMP JUMPDEST PUSH1 0x0 DUP1 PUSH1 0xC0 DUP4 DUP6 SUB SLT ISZERO PUSH2 0x2231 JUMPI PUSH2 0x2230 PUSH2 0x1E9D JUMP JUMPDEST JUMPDEST PUSH1 0x0 PUSH2 0x223F DUP6 DUP3 DUP7 ADD PUSH2 0x2038 JUMP JUMPDEST SWAP3 POP POP PUSH1 0x20 PUSH2 0x2250 DUP6 DUP3 DUP7 ADD PUSH2 0x21FB JUMP JUMPDEST SWAP2 POP POP SWAP3 POP SWAP3 SWAP1 POP JUMP JUMPDEST PUSH1 0x0 DUP1 REVERT JUMPDEST PUSH1 0x0 DUP1 REVERT JUMPDEST PUSH1 0x0 DUP1 REVERT JUMPDEST PUSH1 0x0 DUP1 DUP4 PUSH1 0x1F DUP5 ADD SLT PUSH2 0x227F JUMPI PUSH2 0x227E PUSH2 0x225A JUMP JUMPDEST JUMPDEST DUP3 CALLDATALOAD SWAP1 POP PUSH8 0xFFFFFFFFFFFFFFFF DUP2 GT ISZERO PUSH2 0x229C JUMPI PUSH2 0x229B PUSH2 0x225F JUMP JUMPDEST JUMPDEST PUSH1 0x20 DUP4 ADD SWAP2 POP DUP4 PUSH1 0x1 DUP3 MUL DUP4 ADD GT ISZERO PUSH2 0x22B8 JUMPI PUSH2 0x22B7 PUSH2 0x2264 JUMP JUMPDEST JUMPDEST SWAP3 POP SWAP3 SWAP1 POP JUMP JUMPDEST PUSH1 0x0 DUP1 PUSH1 0x0 DUP1 PUSH1 0x0 PUSH1 0x80 DUP7 DUP9 SUB SLT ISZERO PUSH2 0x22DB JUMPI PUSH2 0x22DA PUSH2 0x1E9D JUMP JUMPDEST JUMPDEST PUSH1 0x0 PUSH2 0x22E9 DUP9 DUP3 DUP10 ADD PUSH2 0x2038 JUMP JUMPDEST SWAP6 POP POP PUSH1 0x20 PUSH2 0x22FA DUP9 DUP3 DUP10 ADD PUSH2 0x2038 JUMP JUMPDEST SWAP5 POP POP PUSH1 0x40 PUSH2 0x230B DUP9 DUP3 DUP10 ADD PUSH2 0x1F83 JUMP JUMPDEST SWAP4 POP POP PUSH1 0x60 DUP7 ADD CALLDATALOAD PUSH8 0xFFFFFFFFFFFFFFFF DUP2 GT ISZERO PUSH2 0x232C JUMPI PUSH2 0x232B PUSH2 0x1EA2 JUMP JUMPDEST JUMPDEST PUSH2 0x2338 DUP9 DUP3 DUP10 ADD PUSH2 0x2269 JUMP JUMPDEST SWAP3 POP SWAP3 POP POP SWAP3 SWAP6 POP SWAP3 SWAP6 SWAP1 SWAP4 POP JUMP JUMPDEST PUSH1 0x0 DUP2 MLOAD SWAP1 POP SWAP2 SWAP1 POP JUMP JUMPDEST PUSH1 0x0 DUP3 DUP3 MSTORE PUSH1 0x20 DUP3 ADD SWAP1 POP SWAP3 SWAP2 POP POP JUMP JUMPDEST PUSH1 0x0 DUP2 SWAP1 POP PUSH1 0x20 DUP3 ADD SWAP1 POP SWAP2 SWAP1 POP JUMP JUMPDEST PUSH2 0x237C DUP2 PUSH2 0x1F62 JUMP JUMPDEST DUP3 MSTORE POP POP JUMP JUMPDEST PUSH1 0x0 PUSH2 0x238E DUP4 DUP4 PUSH2 0x2373 JUMP JUMPDEST PUSH1 0x20 DUP4 ADD SWAP1 POP SWAP3 SWAP2 POP POP JUMP JUMPDEST PUSH1 0x0 PUSH1 0x20 DUP3 ADD SWAP1 POP SWAP2 SWAP1 POP JUMP JUMPDEST PUSH1 0x0 PUSH2 0x23B2 DUP3 PUSH2 0x2347 JUMP JUMPDEST PUSH2 0x23BC DUP2 DUP6 PUSH2 0x2352 JUMP JUMPDEST SWAP4 POP PUSH2 0x23C7 DUP4 PUSH2 0x2363 JUMP JUMPDEST DUP1 PUSH1 0x0 JUMPDEST DUP4 DUP2 LT ISZERO PUSH2 0x23F8 JUMPI DUP2 MLOAD PUSH2 0x23DF DUP9 DUP3 PUSH2 0x2382 JUMP JUMPDEST SWAP8 POP PUSH2 0x23EA DUP4 PUSH2 0x239A JUMP JUMPDEST SWAP3 POP POP PUSH1 0x1 DUP2 ADD SWAP1 POP PUSH2 0x23CB JUMP JUMPDEST POP DUP6 SWAP4 POP POP POP POP SWAP3 SWAP2 POP POP JUMP JUMPDEST PUSH1 0x0 PUSH1 0x20 DUP3 ADD SWAP1 POP DUP2 DUP2 SUB PUSH1 0x0 DUP4 ADD MSTORE PUSH2 0x241F DUP2 DUP5 PUSH2 0x23A7 JUMP JUMPDEST SWAP1 POP SWAP3 SWAP2 POP POP JUMP JUMPDEST PUSH1 0x0 DUP1 PUSH1 0x40 DUP4 DUP6 SUB SLT ISZERO PUSH2 0x243E JUMPI PUSH2 0x243D PUSH2 0x1E9D JUMP JUMPDEST JUMPDEST PUSH1 0x0 PUSH2 0x244C DUP6 DUP3 DUP7 ADD PUSH2 0x2038 JUMP JUMPDEST SWAP3 POP POP PUSH1 0x20 PUSH2 0x245D DUP6 DUP3 DUP7 ADD PUSH2 0x2038 JUMP JUMPDEST SWAP2 POP POP SWAP3 POP SWAP3 SWAP1 POP JUMP JUMPDEST PUSH1 0x0 DUP1 PUSH1 0x40 DUP4 DUP6 SUB SLT ISZERO PUSH2 0x247E JUMPI PUSH2 0x247D PUSH2 0x1E9D JUMP JUMPDEST JUMPDEST PUSH1 0x0 PUSH2 0x248C DUP6 DUP3 DUP7 ADD PUSH2 0x1F83 JUMP JUMPDEST SWAP3 POP POP PUSH1 0x20 PUSH2 0x249D DUP6 DUP3 DUP7 ADD PUSH2 0x2038 JUMP JUMPDEST SWAP2 POP POP SWAP3 POP SWAP3 SWAP1 POP JUMP JUMPDEST PUSH1 0x0 DUP3 DUP3 MSTORE PUSH1 0x20 DUP3 ADD SWAP1 POP SWAP3 SWAP2 POP POP JUMP JUMPDEST PUSH32 0x746F6B656E20646F657327742065786974730000000000000000000000000000 PUSH1 0x0 DUP3 ADD MSTORE POP JUMP JUMPDEST PUSH1 0x0 PUSH2 0x24EE PUSH1 0x12 DUP4 PUSH2 0x24A7 JUMP JUMPDEST SWAP2 POP PUSH2 0x24F9 DUP3 PUSH2 0x24B8 JUMP JUMPDEST PUSH1 0x20 DUP3 ADD SWAP1 POP SWAP2 SWAP1 POP JUMP JUMPDEST PUSH1 0x0 PUSH1 0x20 DUP3 ADD SWAP1 POP DUP2 DUP2 SUB PUSH1 0x0 DUP4 ADD MSTORE PUSH2 0x251D DUP2 PUSH2 0x24E1 JUMP JUMPDEST SWAP1 POP SWAP2 SWAP1 POP JUMP JUMPDEST PUSH32 0x6E6F7420617574686F72697A6564000000000000000000000000000000000000 PUSH1 0x0 DUP3 ADD MSTORE POP JUMP JUMPDEST PUSH1 0x0 PUSH2 0x255A PUSH1 0xE DUP4 PUSH2 0x24A7 JUMP JUMPDEST SWAP2 POP PUSH2 0x2565 DUP3 PUSH2 0x2524 JUMP JUMPDEST PUSH1 0x20 DUP3 ADD SWAP1 POP SWAP2 SWAP1 POP JUMP JUMPDEST PUSH1 0x0 PUSH1 0x20 DUP3 ADD SWAP1 POP DUP2 DUP2 SUB PUSH1 0x0 DUP4 ADD MSTORE PUSH2 0x2589 DUP2 PUSH2 0x254D JUMP JUMPDEST SWAP1 POP SWAP2 SWAP1 POP JUMP JUMPDEST PUSH32 0x66726F6D20213D206F776E657200000000000000000000000000000000000000 PUSH1 0x0 DUP3 ADD MSTORE POP JUMP JUMPDEST PUSH1 0x0 PUSH2 0x25C6 PUSH1 0xD DUP4 PUSH2 0x24A7 JUMP JUMPDEST SWAP2 POP PUSH2 0x25D1 DUP3 PUSH2 0x2590 JUMP JUMPDEST PUSH1 0x20 DUP3 ADD SWAP1 POP SWAP2 SWAP1 POP JUMP JUMPDEST PUSH1 0x0 PUSH1 0x20 DUP3 ADD SWAP1 POP DUP2 DUP2 SUB PUSH1 0x0 DUP4 ADD MSTORE PUSH2 0x25F5 DUP2 PUSH2 0x25B9 JUMP JUMPDEST SWAP1 POP SWAP2 SWAP1 POP JUMP JUMPDEST PUSH32 0x746F203D207A65726F2061646472657373000000000000000000000000000000 PUSH1 0x0 DUP3 ADD MSTORE POP JUMP JUMPDEST PUSH1 0x0 PUSH2 0x2632 PUSH1 0x11 DUP4 PUSH2 0x24A7 JUMP JUMPDEST SWAP2 POP PUSH2 0x263D DUP3 PUSH2 0x25FC JUMP JUMPDEST PUSH1 0x20 DUP3 ADD SWAP1 POP SWAP2 SWAP1 POP JUMP JUMPDEST PUSH1 0x0 PUSH1 0x20 DUP3 ADD SWAP1 POP DUP2 DUP2 SUB PUSH1 0x0 DUP4 ADD MSTORE PUSH2 0x2661 DUP2 PUSH2 0x2625 JUMP JUMPDEST SWAP1 POP SWAP2 SWAP1 POP JUMP JUMPDEST PUSH32 0x4E487B7100000000000000000000000000000000000000000000000000000000 PUSH1 0x0 MSTORE PUSH1 0x11 PUSH1 0x4 MSTORE PUSH1 0x24 PUSH1 0x0 REVERT JUMPDEST PUSH1 0x0 PUSH2 0x26A2 DUP3 PUSH2 0x1F62 JUMP JUMPDEST SWAP2 POP PUSH1 0x0 DUP3 SUB PUSH2 0x26B5 JUMPI PUSH2 0x26B4 PUSH2 0x2668 JUMP JUMPDEST JUMPDEST PUSH1 0x1 DUP3 SUB SWAP1 POP SWAP2 SWAP1 POP JUMP JUMPDEST PUSH1 0x0 PUSH2 0x26CB DUP3 PUSH2 0x1F62 JUMP JUMPDEST SWAP2 POP PUSH32 0xFFFFFFFFFFFFFFFFFFFFFFFFFFFFFFFFFFFFFFFFFFFFFFFFFFFFFFFFFFFFFFFF DUP3 SUB PUSH2 0x26FD JUMPI PUSH2 0x26FC PUSH2 0x2668 JUMP JUMPDEST JUMPDEST PUSH1 0x1 DUP3 ADD SWAP1 POP SWAP2 SWAP1 POP JUMP JUMPDEST PUSH1 0x0 PUSH2 0x2713 DUP3 PUSH2 0x1F62 JUMP JUMPDEST SWAP2 POP PUSH2 0x271E DUP4 PUSH2 0x1F62 JUMP JUMPDEST SWAP3 POP DUP3 DUP3 SUB SWAP1 POP DUP2 DUP2 GT ISZERO PUSH2 0x2736 JUMPI PUSH2 0x2735 PUSH2 0x2668 JUMP JUMPDEST JUMPDEST SWAP3 SWAP2 POP POP JUMP JUMPDEST PUSH1 0x0 DUP3 DUP3 MSTORE PUSH1 0x20 DUP3 ADD SWAP1 POP SWAP3 SWAP2 POP POP JUMP JUMPDEST POP JUMP JUMPDEST PUSH1 0x0 PUSH2 0x275D PUSH1 0x0 DUP4 PUSH2 0x273C JUMP JUMPDEST SWAP2 POP PUSH2 0x2768 DUP3 PUSH2 0x274D JUMP JUMPDEST PUSH1 0x0 DUP3 ADD SWAP1 POP SWAP2 SWAP1 POP JUMP JUMPDEST PUSH1 0x0 PUSH1 0x80 DUP3 ADD SWAP1 POP PUSH2 0x2788 PUSH1 0x0 DUP4 ADD DUP7 PUSH2 0x1FF7 JUMP JUMPDEST PUSH2 0x2795 PUSH1 0x20 DUP4 ADD DUP6 PUSH2 0x1FF7 JUMP JUMPDEST PUSH2 0x27A2 PUSH1 0x40 DUP4 ADD DUP5 PUSH2 0x210D JUMP JUMPDEST DUP2 DUP2 SUB PUSH1 0x60 DUP4 ADD MSTORE PUSH2 0x27B3 DUP2 PUSH2 0x2750 JUMP JUMPDEST SWAP1 POP SWAP5 SWAP4 POP POP POP POP JUMP JUMPDEST PUSH1 0x0 DUP2 MLOAD SWAP1 POP PUSH2 0x27CC DUP2 PUSH2 0x1ED3 JUMP JUMPDEST SWAP3 SWAP2 POP POP JUMP JUMPDEST PUSH1 0x0 PUSH1 0x20 DUP3 DUP5 SUB SLT ISZERO PUSH2 0x27E8 JUMPI PUSH2 0x27E7 PUSH2 0x1E9D JUMP JUMPDEST JUMPDEST PUSH1 0x0 PUSH2 0x27F6 DUP5 DUP3 DUP6 ADD PUSH2 0x27BD JUMP JUMPDEST SWAP2 POP POP SWAP3 SWAP2 POP POP JUMP JUMPDEST PUSH32 0x756E7361666520726563697069656E7400000000000000000000000000000000 PUSH1 0x0 DUP3 ADD MSTORE POP JUMP JUMPDEST PUSH1 0x0 PUSH2 0x2835 PUSH1 0x10 DUP4 PUSH2 0x24A7 JUMP JUMPDEST SWAP2 POP PUSH2 0x2840 DUP3 PUSH2 0x27FF JUMP JUMPDEST PUSH1 0x20 DUP3 ADD SWAP1 POP SWAP2 SWAP1 POP JUMP JUMPDEST PUSH1 0x0 PUSH1 0x20 DUP3 ADD SWAP1 POP DUP2 DUP2 SUB PUSH1 0x0 DUP4 ADD MSTORE PUSH2 0x2864 DUP2 PUSH2 0x2828 JUMP JUMPDEST SWAP1 POP SWAP2 SWAP1 POP JUMP JUMPDEST PUSH32 0x6F776E6572203D207A65726F2061646472657373000000000000000000000000 PUSH1 0x0 DUP3 ADD MSTORE POP JUMP JUMPDEST PUSH1 0x0 PUSH2 0x28A1 PUSH1 0x14 DUP4 PUSH2 0x24A7 JUMP JUMPDEST SWAP2 POP PUSH2 0x28AC DUP3 PUSH2 0x286B JUMP JUMPDEST PUSH1 0x20 DUP3 ADD SWAP1 POP SWAP2 SWAP1 POP JUMP JUMPDEST PUSH1 0x0 PUSH1 0x20 DUP3 ADD SWAP1 POP DUP2 DUP2 SUB PUSH1 0x0 DUP4 ADD MSTORE PUSH2 0x28D0 DUP2 PUSH2 0x2894 JUMP JUMPDEST SWAP1 POP SWAP2 SWAP1 POP JUMP JUMPDEST DUP3 DUP2 DUP4 CALLDATACOPY PUSH1 0x0 DUP4 DUP4 ADD MSTORE POP POP POP JUMP JUMPDEST PUSH1 0x0 PUSH1 0x1F NOT PUSH1 0x1F DUP4 ADD AND SWAP1 POP SWAP2 SWAP1 POP JUMP JUMPDEST PUSH1 0x0 PUSH2 0x2903 DUP4 DUP6 PUSH2 0x273C JUMP JUMPDEST SWAP4 POP PUSH2 0x2910 DUP4 DUP6 DUP5 PUSH2 0x28D7 JUMP JUMPDEST PUSH2 0x2919 DUP4 PUSH2 0x28E6 JUMP JUMPDEST DUP5 ADD SWAP1 POP SWAP4 SWAP3 POP POP POP JUMP JUMPDEST PUSH1 0x0 PUSH1 0x80 DUP3 ADD SWAP1 POP PUSH2 0x2939 PUSH1 0x0 DUP4 ADD DUP9 PUSH2 0x1FF7 JUMP JUMPDEST PUSH2 0x2946 PUSH1 0x20 DUP4 ADD DUP8 PUSH2 0x1FF7 JUMP JUMPDEST PUSH2 0x2953 PUSH1 0x40 DUP4 ADD DUP7 PUSH2 0x210D JUMP JUMPDEST DUP2 DUP2 SUB PUSH1 0x60 DUP4 ADD MSTORE PUSH2 0x2966 DUP2 DUP5 DUP7 PUSH2 0x28F7 JUMP JUMPDEST SWAP1 POP SWAP7 SWAP6 POP POP POP POP POP POP JUMP JUMPDEST PUSH32 0x6E6F74204F776E65720000000000000000000000000000000000000000000000 PUSH1 0x0 DUP3 ADD MSTORE POP JUMP JUMPDEST PUSH1 0x0 PUSH2 0x29A8 PUSH1 0x9 DUP4 PUSH2 0x24A7 JUMP JUMPDEST SWAP2 POP PUSH2 0x29B3 DUP3 PUSH2 0x2972 JUMP JUMPDEST PUSH1 0x20 DUP3 ADD SWAP1 POP SWAP2 SWAP1 POP JUMP JUMPDEST PUSH1 0x0 PUSH1 0x20 DUP3 ADD SWAP1 POP DUP2 DUP2 SUB PUSH1 0x0 DUP4 ADD MSTORE PUSH2 0x29D7 DUP2 PUSH2 0x299B JUMP JUMPDEST SWAP1 POP SWAP2 SWAP1 POP JUMP JUMPDEST PUSH32 0x4E487B7100000000000000000000000000000000000000000000000000000000 PUSH1 0x0 MSTORE PUSH1 0x32 PUSH1 0x4 MSTORE PUSH1 0x24 PUSH1 0x0 REVERT JUMPDEST PUSH32 0x4E487B7100000000000000000000000000000000000000000000000000000000 PUSH1 0x0 MSTORE PUSH1 0x31 PUSH1 0x4 MSTORE PUSH1 0x24 PUSH1 0x0 REVERT JUMPDEST PUSH32 0x746F6B656E206578697374730000000000000000000000000000000000000000 PUSH1 0x0 DUP3 ADD MSTORE POP JUMP JUMPDEST PUSH1 0x0 PUSH2 0x2A72 PUSH1 0xC DUP4 PUSH2 0x24A7 JUMP JUMPDEST SWAP2 POP PUSH2 0x2A7D DUP3 PUSH2 0x2A3C JUMP JUMPDEST PUSH1 0x20 DUP3 ADD SWAP1 POP SWAP2 SWAP1 POP JUMP JUMPDEST PUSH1 0x0 PUSH1 0x20 DUP3 ADD SWAP1 POP DUP2 DUP2 SUB PUSH1 0x0 DUP4 ADD MSTORE PUSH2 0x2AA1 DUP2 PUSH2 0x2A65 JUMP JUMPDEST SWAP1 POP SWAP2 SWAP1 POP JUMP JUMPDEST PUSH32 0x746F6B656E20646F6573206E6F74206578697473000000000000000000000000 PUSH1 0x0 DUP3 ADD MSTORE POP JUMP JUMPDEST PUSH1 0x0 PUSH2 0x2ADE PUSH1 0x14 DUP4 PUSH2 0x24A7 JUMP JUMPDEST SWAP2 POP PUSH2 0x2AE9 DUP3 PUSH2 0x2AA8 JUMP JUMPDEST PUSH1 0x20 DUP3 ADD SWAP1 POP SWAP2 SWAP1 POP JUMP JUMPDEST PUSH1 0x0 PUSH1 0x20 DUP3 ADD SWAP1 POP DUP2 DUP2 SUB PUSH1 0x0 DUP4 ADD MSTORE PUSH2 0x2B0D DUP2 PUSH2 0x2AD1 JUMP JUMPDEST SWAP1 POP SWAP2 SWAP1 POP JUMP INVALID LOG2 PUSH5 0x6970667358 0x22 SLT KECCAK256 GASLIMIT 0x22 CALLVALUE 0xE0 0xF6 SWAP7 PUSH22 0x625165166592AD1490EFBB44F1943B899CF2E009F276 0xD NOT BYTE PUSH5 0x736F6C6343 STOP ADDMOD SLT STOP CALLER "
				},
				"gasEstimates": {
					"creation": {
						"codeDepositCost": "2216400",
						"executionCost": "infinite",
						"totalCost": "infinite"
					},
					"external": {
						"approve(address,uint256)": "31562",
						"balanceOf(address)": "2965",
						"burnPosition(uint256,address)": "infinite",
						"getApproved(uint256)": "5160",
						"getOwnerNFT(address)": "infinite",
						"indexOfOwnerNFT(address,uint256)": "infinite",
						"isApprovalForAll(address,address)": "infinite",
						"mintPosition(address,(uint256,address,address,address,uint256))": "infinite",
						"ownerNFT(address,uint256)": "infinite",
						"ownerOf(uint256)": "3020",
						"positions(uint256)": "infinite",
						"safeTransferFrom(address,address,uint256)": "infinite",
						"safeTransferFrom(address,address,uint256,bytes)": "infinite",
						"setApprovalForAll(address,bool)": "infinite",
						"supportsInterface(bytes4)": "708",
						"tokenIdNext()": "2452",
						"transferFrom(address,address,uint256)": "infinite",
						"transferPosition(address,address,uint256)": "infinite"
					},
					"internal": {
						"_removeFromArray(uint256,address)": "infinite"
					}
				},
				"methodIdentifiers": {
					"approve(address,uint256)": "095ea7b3",
					"balanceOf(address)": "70a08231",
					"burnPosition(uint256,address)": "ec828722",
					"getApproved(uint256)": "081812fc",
					"getOwnerNFT(address)": "d942dc94",
					"indexOfOwnerNFT(address,uint256)": "7fcda073",
					"isApprovalForAll(address,address)": "ebd1d359",
					"mintPosition(address,(uint256,address,address,address,uint256))": "b11c7fd3",
					"ownerNFT(address,uint256)": "deeb79a3",
					"ownerOf(uint256)": "6352211e",
					"positions(uint256)": "99fbab88",
					"safeTransferFrom(address,address,uint256)": "42842e0e",
					"safeTransferFrom(address,address,uint256,bytes)": "b88d4fde",
					"setApprovalForAll(address,bool)": "a22cb465",
					"supportsInterface(bytes4)": "01ffc9a7",
					"tokenIdNext()": "8bbf58b3",
					"transferFrom(address,address,uint256)": "23b872dd",
					"transferPosition(address,address,uint256)": "26908fa1"
				}
			},
			"storageLayout": {
				"storage": [
					{
						"astId": 178,
						"contract": "TVNProject/TVNNFTPositioManager/TVNNFTPositionManager.sol:TVNNFTPositionManager",
						"label": "_ownerOf",
						"offset": 0,
						"slot": "0",
						"type": "t_mapping(t_uint256,t_address)"
					},
					{
						"astId": 182,
						"contract": "TVNProject/TVNNFTPositioManager/TVNNFTPositionManager.sol:TVNNFTPositionManager",
						"label": "_balanceOf",
						"offset": 0,
						"slot": "1",
						"type": "t_mapping(t_address,t_uint256)"
					},
					{
						"astId": 186,
						"contract": "TVNProject/TVNNFTPositioManager/TVNNFTPositionManager.sol:TVNNFTPositionManager",
						"label": "_approvals",
						"offset": 0,
						"slot": "2",
						"type": "t_mapping(t_uint256,t_address)"
					},
					{
						"astId": 192,
						"contract": "TVNProject/TVNNFTPositioManager/TVNNFTPositionManager.sol:TVNNFTPositionManager",
						"label": "isApprovalForAll",
						"offset": 0,
						"slot": "3",
						"type": "t_mapping(t_address,t_mapping(t_address,t_bool))"
					},
					{
						"astId": 630,
						"contract": "TVNProject/TVNNFTPositioManager/TVNNFTPositionManager.sol:TVNNFTPositionManager",
						"label": "name",
						"offset": 0,
						"slot": "4",
						"type": "t_string_storage"
					},
					{
						"astId": 632,
						"contract": "TVNProject/TVNNFTPositioManager/TVNNFTPositionManager.sol:TVNNFTPositionManager",
						"label": "symbol",
						"offset": 0,
						"slot": "5",
						"type": "t_string_storage"
					},
					{
						"astId": 635,
						"contract": "TVNProject/TVNNFTPositioManager/TVNNFTPositionManager.sol:TVNNFTPositionManager",
						"label": "tokenIdNext",
						"offset": 0,
						"slot": "6",
						"type": "t_uint256"
					},
					{
						"astId": 651,
						"contract": "TVNProject/TVNNFTPositioManager/TVNNFTPositionManager.sol:TVNNFTPositionManager",
						"label": "positions",
						"offset": 0,
						"slot": "7",
						"type": "t_mapping(t_uint256,t_struct(PositionInfo)646_storage)"
					},
					{
						"astId": 656,
						"contract": "TVNProject/TVNNFTPositioManager/TVNNFTPositionManager.sol:TVNNFTPositionManager",
						"label": "ownerNFT",
						"offset": 0,
						"slot": "8",
						"type": "t_mapping(t_address,t_array(t_uint256)dyn_storage)"
					},
					{
						"astId": 662,
						"contract": "TVNProject/TVNNFTPositioManager/TVNNFTPositionManager.sol:TVNNFTPositionManager",
						"label": "indexOfOwnerNFT",
						"offset": 0,
						"slot": "9",
						"type": "t_mapping(t_address,t_mapping(t_uint256,t_uint256))"
					}
				],
				"types": {
					"t_address": {
						"encoding": "inplace",
						"label": "address",
						"numberOfBytes": "20"
					},
					"t_array(t_uint256)dyn_storage": {
						"base": "t_uint256",
						"encoding": "dynamic_array",
						"label": "uint256[]",
						"numberOfBytes": "32"
					},
					"t_bool": {
						"encoding": "inplace",
						"label": "bool",
						"numberOfBytes": "1"
					},
					"t_mapping(t_address,t_array(t_uint256)dyn_storage)": {
						"encoding": "mapping",
						"key": "t_address",
						"label": "mapping(address => uint256[])",
						"numberOfBytes": "32",
						"value": "t_array(t_uint256)dyn_storage"
					},
					"t_mapping(t_address,t_bool)": {
						"encoding": "mapping",
						"key": "t_address",
						"label": "mapping(address => bool)",
						"numberOfBytes": "32",
						"value": "t_bool"
					},
					"t_mapping(t_address,t_mapping(t_address,t_bool))": {
						"encoding": "mapping",
						"key": "t_address",
						"label": "mapping(address => mapping(address => bool))",
						"numberOfBytes": "32",
						"value": "t_mapping(t_address,t_bool)"
					},
					"t_mapping(t_address,t_mapping(t_uint256,t_uint256))": {
						"encoding": "mapping",
						"key": "t_address",
						"label": "mapping(address => mapping(uint256 => uint256))",
						"numberOfBytes": "32",
						"value": "t_mapping(t_uint256,t_uint256)"
					},
					"t_mapping(t_address,t_uint256)": {
						"encoding": "mapping",
						"key": "t_address",
						"label": "mapping(address => uint256)",
						"numberOfBytes": "32",
						"value": "t_uint256"
					},
					"t_mapping(t_uint256,t_address)": {
						"encoding": "mapping",
						"key": "t_uint256",
						"label": "mapping(uint256 => address)",
						"numberOfBytes": "32",
						"value": "t_address"
					},
					"t_mapping(t_uint256,t_struct(PositionInfo)646_storage)": {
						"encoding": "mapping",
						"key": "t_uint256",
						"label": "mapping(uint256 => struct TVNNFTPositionManager.PositionInfo)",
						"numberOfBytes": "32",
						"value": "t_struct(PositionInfo)646_storage"
					},
					"t_mapping(t_uint256,t_uint256)": {
						"encoding": "mapping",
						"key": "t_uint256",
						"label": "mapping(uint256 => uint256)",
						"numberOfBytes": "32",
						"value": "t_uint256"
					},
					"t_string_storage": {
						"encoding": "bytes",
						"label": "string",
						"numberOfBytes": "32"
					},
					"t_struct(PositionInfo)646_storage": {
						"encoding": "inplace",
						"label": "struct TVNNFTPositionManager.PositionInfo",
						"members": [
							{
								"astId": 637,
								"contract": "TVNProject/TVNNFTPositioManager/TVNNFTPositionManager.sol:TVNNFTPositionManager",
								"label": "shares",
								"offset": 0,
								"slot": "0",
								"type": "t_uint256"
							},
							{
								"astId": 639,
								"contract": "TVNProject/TVNNFTPositioManager/TVNNFTPositionManager.sol:TVNNFTPositionManager",
								"label": "owner",
								"offset": 0,
								"slot": "1",
								"type": "t_address"
							},
							{
								"astId": 641,
								"contract": "TVNProject/TVNNFTPositioManager/TVNNFTPositionManager.sol:TVNNFTPositionManager",
								"label": "token0",
								"offset": 0,
								"slot": "2",
								"type": "t_address"
							},
							{
								"astId": 643,
								"contract": "TVNProject/TVNNFTPositioManager/TVNNFTPositionManager.sol:TVNNFTPositionManager",
								"label": "token1",
								"offset": 0,
								"slot": "3",
								"type": "t_address"
							},
							{
								"astId": 645,
								"contract": "TVNProject/TVNNFTPositioManager/TVNNFTPositionManager.sol:TVNNFTPositionManager",
								"label": "fee",
								"offset": 0,
								"slot": "4",
								"type": "t_uint256"
							}
						],
						"numberOfBytes": "160"
					},
					"t_uint256": {
						"encoding": "inplace",
						"label": "uint256",
						"numberOfBytes": "32"
					}
				}
			},
			"userdoc": {
				"kind": "user",
				"methods": {},
				"version": 1
			}
		}
	}
}