{
	"TVNProject/TVNNFTPositionManager/TVNNFTPositionManager.sol": {
		"TVNNFTPositionManager": {
			"abi": [
				{
					"inputs": [
						{
							"internalType": "string",
							"name": "_name",
							"type": "string"
						},
						{
							"internalType": "string",
							"name": "_symbol",
							"type": "string"
						}
					],
					"stateMutability": "nonpayable",
					"type": "constructor"
				},
				{
					"anonymous": false,
					"inputs": [
						{
							"indexed": true,
							"internalType": "address",
							"name": "owner",
							"type": "address"
						},
						{
							"indexed": true,
							"internalType": "address",
							"name": "spender",
							"type": "address"
						},
						{
							"indexed": true,
							"internalType": "uint256",
							"name": "id",
							"type": "uint256"
						}
					],
					"name": "Approval",
					"type": "event"
				},
				{
					"anonymous": false,
					"inputs": [
						{
							"indexed": true,
							"internalType": "address",
							"name": "owner",
							"type": "address"
						},
						{
							"indexed": true,
							"internalType": "address",
							"name": "operator",
							"type": "address"
						},
						{
							"indexed": false,
							"internalType": "bool",
							"name": "approved",
							"type": "bool"
						}
					],
					"name": "ApprovalForAll",
					"type": "event"
				},
				{
					"anonymous": false,
					"inputs": [
						{
							"indexed": true,
							"internalType": "address",
							"name": "from",
							"type": "address"
						},
						{
							"indexed": true,
							"internalType": "address",
							"name": "to",
							"type": "address"
						},
						{
							"indexed": true,
							"internalType": "uint256",
							"name": "id",
							"type": "uint256"
						}
					],
					"name": "Transfer",
					"type": "event"
				},
				{
					"inputs": [
						{
							"internalType": "address",
							"name": "to",
							"type": "address"
						},
						{
							"internalType": "uint256",
							"name": "tokenId",
							"type": "uint256"
						}
					],
					"name": "approve",
					"outputs": [],
					"stateMutability": "nonpayable",
					"type": "function"
				},
				{
					"inputs": [
						{
							"internalType": "address",
							"name": "owner",
							"type": "address"
						}
					],
					"name": "balanceOf",
					"outputs": [
						{
							"internalType": "uint256",
							"name": "balance",
							"type": "uint256"
						}
					],
					"stateMutability": "view",
					"type": "function"
				},
				{
					"inputs": [
						{
							"internalType": "uint256",
							"name": "_tokenId",
							"type": "uint256"
						},
						{
							"internalType": "address",
							"name": "_from",
							"type": "address"
						}
					],
					"name": "burnPosition",
					"outputs": [],
					"stateMutability": "nonpayable",
					"type": "function"
				},
				{
					"inputs": [
						{
							"internalType": "uint256",
							"name": "tokenId",
							"type": "uint256"
						}
					],
					"name": "getApproved",
					"outputs": [
						{
							"internalType": "address",
							"name": "operator",
							"type": "address"
						}
					],
					"stateMutability": "view",
					"type": "function"
				},
				{
					"inputs": [
						{
							"internalType": "address",
							"name": "_owner",
							"type": "address"
						}
					],
					"name": "getOwnerNFT",
					"outputs": [
						{
							"internalType": "uint256[]",
							"name": "",
							"type": "uint256[]"
						}
					],
					"stateMutability": "view",
					"type": "function"
				},
				{
					"inputs": [
						{
							"internalType": "address",
							"name": "",
							"type": "address"
						},
						{
							"internalType": "uint256",
							"name": "",
							"type": "uint256"
						}
					],
					"name": "indexOfOwnerNFT",
					"outputs": [
						{
							"internalType": "uint256",
							"name": "",
							"type": "uint256"
						}
					],
					"stateMutability": "view",
					"type": "function"
				},
				{
					"inputs": [
						{
							"internalType": "address",
							"name": "",
							"type": "address"
						},
						{
							"internalType": "address",
							"name": "",
							"type": "address"
						}
					],
					"name": "isApprovalForAll",
					"outputs": [
						{
							"internalType": "bool",
							"name": "",
							"type": "bool"
						}
					],
					"stateMutability": "view",
					"type": "function"
				},
				{
					"inputs": [
						{
							"internalType": "uint256",
							"name": "_shares",
							"type": "uint256"
						},
						{
							"internalType": "address",
							"name": "_owner",
							"type": "address"
						},
						{
							"internalType": "address",
							"name": "_token0",
							"type": "address"
						},
						{
							"internalType": "address",
							"name": "_token1",
							"type": "address"
						},
						{
							"internalType": "uint256",
							"name": "_fee",
							"type": "uint256"
						},
						{
							"internalType": "uint256",
							"name": "_amount0",
							"type": "uint256"
						},
						{
							"internalType": "uint256",
							"name": "_amount1",
							"type": "uint256"
						}
					],
					"name": "mintParams",
					"outputs": [
						{
							"components": [
								{
									"internalType": "uint256",
									"name": "shares",
									"type": "uint256"
								},
								{
									"internalType": "address",
									"name": "owner",
									"type": "address"
								},
								{
									"internalType": "address",
									"name": "token0",
									"type": "address"
								},
								{
									"internalType": "address",
									"name": "token1",
									"type": "address"
								},
								{
									"internalType": "uint256",
									"name": "fee",
									"type": "uint256"
								},
								{
									"internalType": "uint256",
									"name": "amount0",
									"type": "uint256"
								},
								{
									"internalType": "uint256",
									"name": "amount1",
									"type": "uint256"
								}
							],
							"internalType": "struct TVNNFTPositionManager.PositionInfo",
							"name": "",
							"type": "tuple"
						}
					],
					"stateMutability": "pure",
					"type": "function"
				},
				{
					"inputs": [
						{
							"internalType": "address",
							"name": "_to",
							"type": "address"
						},
						{
							"components": [
								{
									"internalType": "uint256",
									"name": "shares",
									"type": "uint256"
								},
								{
									"internalType": "address",
									"name": "owner",
									"type": "address"
								},
								{
									"internalType": "address",
									"name": "token0",
									"type": "address"
								},
								{
									"internalType": "address",
									"name": "token1",
									"type": "address"
								},
								{
									"internalType": "uint256",
									"name": "fee",
									"type": "uint256"
								},
								{
									"internalType": "uint256",
									"name": "amount0",
									"type": "uint256"
								},
								{
									"internalType": "uint256",
									"name": "amount1",
									"type": "uint256"
								}
							],
							"internalType": "struct TVNNFTPositionManager.PositionInfo",
							"name": "params",
							"type": "tuple"
						}
					],
					"name": "mintPosition",
					"outputs": [],
					"stateMutability": "nonpayable",
					"type": "function"
				},
				{
					"inputs": [
						{
							"internalType": "address",
							"name": "",
							"type": "address"
						},
						{
							"internalType": "uint256",
							"name": "",
							"type": "uint256"
						}
					],
					"name": "ownerNFT",
					"outputs": [
						{
							"internalType": "uint256",
							"name": "",
							"type": "uint256"
						}
					],
					"stateMutability": "view",
					"type": "function"
				},
				{
					"inputs": [
						{
							"internalType": "uint256",
							"name": "tokenId",
							"type": "uint256"
						}
					],
					"name": "ownerOf",
					"outputs": [
						{
							"internalType": "address",
							"name": "owner",
							"type": "address"
						}
					],
					"stateMutability": "view",
					"type": "function"
				},
				{
					"inputs": [
						{
							"internalType": "uint256",
							"name": "",
							"type": "uint256"
						}
					],
					"name": "positions",
					"outputs": [
						{
							"internalType": "uint256",
							"name": "shares",
							"type": "uint256"
						},
						{
							"internalType": "address",
							"name": "owner",
							"type": "address"
						},
						{
							"internalType": "address",
							"name": "token0",
							"type": "address"
						},
						{
							"internalType": "address",
							"name": "token1",
							"type": "address"
						},
						{
							"internalType": "uint256",
							"name": "fee",
							"type": "uint256"
						},
						{
							"internalType": "uint256",
							"name": "amount0",
							"type": "uint256"
						},
						{
							"internalType": "uint256",
							"name": "amount1",
							"type": "uint256"
						}
					],
					"stateMutability": "view",
					"type": "function"
				},
				{
					"inputs": [
						{
							"internalType": "address",
							"name": "from",
							"type": "address"
						},
						{
							"internalType": "address",
							"name": "to",
							"type": "address"
						},
						{
							"internalType": "uint256",
							"name": "tokenId",
							"type": "uint256"
						}
					],
					"name": "safeTransferFrom",
					"outputs": [],
					"stateMutability": "nonpayable",
					"type": "function"
				},
				{
					"inputs": [
						{
							"internalType": "address",
							"name": "from",
							"type": "address"
						},
						{
							"internalType": "address",
							"name": "to",
							"type": "address"
						},
						{
							"internalType": "uint256",
							"name": "tokenId",
							"type": "uint256"
						},
						{
							"internalType": "bytes",
							"name": "data",
							"type": "bytes"
						}
					],
					"name": "safeTransferFrom",
					"outputs": [],
					"stateMutability": "nonpayable",
					"type": "function"
				},
				{
					"inputs": [
						{
							"internalType": "address",
							"name": "operator",
							"type": "address"
						},
						{
							"internalType": "bool",
							"name": "_approved",
							"type": "bool"
						}
					],
					"name": "setApprovalForAll",
					"outputs": [],
					"stateMutability": "nonpayable",
					"type": "function"
				},
				{
					"inputs": [
						{
							"internalType": "bytes4",
							"name": "interfaceID",
							"type": "bytes4"
						}
					],
					"name": "supportsInterface",
					"outputs": [
						{
							"internalType": "bool",
							"name": "",
							"type": "bool"
						}
					],
					"stateMutability": "pure",
					"type": "function"
				},
				{
					"inputs": [],
					"name": "tokenIdNext",
					"outputs": [
						{
							"internalType": "uint256",
							"name": "",
							"type": "uint256"
						}
					],
					"stateMutability": "view",
					"type": "function"
				},
				{
					"inputs": [
						{
							"internalType": "address",
							"name": "from",
							"type": "address"
						},
						{
							"internalType": "address",
							"name": "to",
							"type": "address"
						},
						{
							"internalType": "uint256",
							"name": "tokenId",
							"type": "uint256"
						}
					],
					"name": "transferFrom",
					"outputs": [],
					"stateMutability": "nonpayable",
					"type": "function"
				},
				{
					"inputs": [
						{
							"internalType": "address",
							"name": "_from",
							"type": "address"
						},
						{
							"internalType": "address",
							"name": "_to",
							"type": "address"
						},
						{
							"internalType": "uint256",
							"name": "_tokenId",
							"type": "uint256"
						}
					],
					"name": "transferPosition",
					"outputs": [],
					"stateMutability": "nonpayable",
					"type": "function"
				}
			],
			"devdoc": {
				"kind": "dev",
				"methods": {},
				"version": 1
			},
			"evm": {
				"assembly": "    /* \"TVNProject/TVNNFTPositionManager/TVNNFTPositionManager.sol\":140:3235  contract TVNNFTPositionManager is ERC721 {... */\n  mstore(0x40, 0x80)\n    /* \"TVNProject/TVNNFTPositionManager/TVNNFTPositionManager.sol\":268:269  1 */\n  0x01\n    /* \"TVNProject/TVNNFTPositionManager/TVNNFTPositionManager.sol\":239:269  uint256 public tokenIdNext = 1 */\n  0x06\n  sstore\n    /* \"TVNProject/TVNNFTPositionManager/TVNNFTPositionManager.sol\":659:770  constructor(string memory _name, string memory _symbol) {... */\n  callvalue\n  dup1\n  iszero\n  tag_1\n  jumpi\n  0x00\n  dup1\n  revert\ntag_1:\n  pop\n  mload(0x40)\n  sub(codesize, bytecodeSize)\n  dup1\n  bytecodeSize\n  dup4\n  codecopy\n  dup2\n  dup2\n  add\n  0x40\n  mstore\n  dup2\n  add\n  swap1\n  tag_2\n  swap2\n  swap1\n  tag_3\n  jump\t// in\ntag_2:\n    /* \"TVNProject/TVNNFTPositionManager/TVNNFTPositionManager.sol\":732:737  _name */\n  dup2\n    /* \"TVNProject/TVNNFTPositionManager/TVNNFTPositionManager.sol\":725:729  name */\n  0x04\n    /* \"TVNProject/TVNNFTPositionManager/TVNNFTPositionManager.sol\":725:737  name = _name */\n  swap1\n  dup2\n  tag_6\n  swap2\n  swap1\n  tag_7\n  jump\t// in\ntag_6:\n  pop\n    /* \"TVNProject/TVNNFTPositionManager/TVNNFTPositionManager.sol\":756:763  _symbol */\n  dup1\n    /* \"TVNProject/TVNNFTPositionManager/TVNNFTPositionManager.sol\":747:753  symbol */\n  0x05\n    /* \"TVNProject/TVNNFTPositionManager/TVNNFTPositionManager.sol\":747:763  symbol = _symbol */\n  swap1\n  dup2\n  tag_8\n  swap2\n  swap1\n  tag_7\n  jump\t// in\ntag_8:\n  pop\n    /* \"TVNProject/TVNNFTPositionManager/TVNNFTPositionManager.sol\":659:770  constructor(string memory _name, string memory _symbol) {... */\n  pop\n  pop\n    /* \"TVNProject/TVNNFTPositionManager/TVNNFTPositionManager.sol\":140:3235  contract TVNNFTPositionManager is ERC721 {... */\n  jump(tag_9)\n    /* \"#utility.yul\":7:82   */\ntag_10:\n    /* \"#utility.yul\":40:46   */\n  0x00\n    /* \"#utility.yul\":73:75   */\n  0x40\n    /* \"#utility.yul\":67:76   */\n  mload\n    /* \"#utility.yul\":57:76   */\n  swap1\n  pop\n    /* \"#utility.yul\":7:82   */\n  swap1\n  jump\t// out\n    /* \"#utility.yul\":88:205   */\ntag_11:\n    /* \"#utility.yul\":197:198   */\n  0x00\n    /* \"#utility.yul\":194:195   */\n  dup1\n    /* \"#utility.yul\":187:199   */\n  revert\n    /* \"#utility.yul\":211:328   */\ntag_12:\n    /* \"#utility.yul\":320:321   */\n  0x00\n    /* \"#utility.yul\":317:318   */\n  dup1\n    /* \"#utility.yul\":310:322   */\n  revert\n    /* \"#utility.yul\":334:451   */\ntag_13:\n    /* \"#utility.yul\":443:444   */\n  0x00\n    /* \"#utility.yul\":440:441   */\n  dup1\n    /* \"#utility.yul\":433:445   */\n  revert\n    /* \"#utility.yul\":457:574   */\ntag_14:\n    /* \"#utility.yul\":566:567   */\n  0x00\n    /* \"#utility.yul\":563:564   */\n  dup1\n    /* \"#utility.yul\":556:568   */\n  revert\n    /* \"#utility.yul\":580:682   */\ntag_15:\n    /* \"#utility.yul\":621:627   */\n  0x00\n    /* \"#utility.yul\":672:674   */\n  0x1f\n    /* \"#utility.yul\":668:675   */\n  not\n    /* \"#utility.yul\":663:665   */\n  0x1f\n    /* \"#utility.yul\":656:661   */\n  dup4\n    /* \"#utility.yul\":652:666   */\n  add\n    /* \"#utility.yul\":648:676   */\n  and\n    /* \"#utility.yul\":638:676   */\n  swap1\n  pop\n    /* \"#utility.yul\":580:682   */\n  swap2\n  swap1\n  pop\n  jump\t// out\n    /* \"#utility.yul\":688:868   */\ntag_16:\n    /* \"#utility.yul\":736:813   */\n  0x4e487b7100000000000000000000000000000000000000000000000000000000\n    /* \"#utility.yul\":733:734   */\n  0x00\n    /* \"#utility.yul\":726:814   */\n  mstore\n    /* \"#utility.yul\":833:837   */\n  0x41\n    /* \"#utility.yul\":830:831   */\n  0x04\n    /* \"#utility.yul\":823:838   */\n  mstore\n    /* \"#utility.yul\":857:861   */\n  0x24\n    /* \"#utility.yul\":854:855   */\n  0x00\n    /* \"#utility.yul\":847:862   */\n  revert\n    /* \"#utility.yul\":874:1155   */\ntag_17:\n    /* \"#utility.yul\":957:984   */\n  tag_51\n    /* \"#utility.yul\":979:983   */\n  dup3\n    /* \"#utility.yul\":957:984   */\n  tag_15\n  jump\t// in\ntag_51:\n    /* \"#utility.yul\":949:955   */\n  dup2\n    /* \"#utility.yul\":945:985   */\n  add\n    /* \"#utility.yul\":1087:1093   */\n  dup2\n    /* \"#utility.yul\":1075:1085   */\n  dup2\n    /* \"#utility.yul\":1072:1094   */\n  lt\n    /* \"#utility.yul\":1051:1069   */\n  0xffffffffffffffff\n    /* \"#utility.yul\":1039:1049   */\n  dup3\n    /* \"#utility.yul\":1036:1070   */\n  gt\n    /* \"#utility.yul\":1033:1095   */\n  or\n    /* \"#utility.yul\":1030:1118   */\n  iszero\n  tag_52\n  jumpi\n    /* \"#utility.yul\":1098:1116   */\n  tag_53\n  tag_16\n  jump\t// in\ntag_53:\n    /* \"#utility.yul\":1030:1118   */\ntag_52:\n    /* \"#utility.yul\":1138:1148   */\n  dup1\n    /* \"#utility.yul\":1134:1136   */\n  0x40\n    /* \"#utility.yul\":1127:1149   */\n  mstore\n    /* \"#utility.yul\":917:1155   */\n  pop\n    /* \"#utility.yul\":874:1155   */\n  pop\n  pop\n  jump\t// out\n    /* \"#utility.yul\":1161:1290   */\ntag_18:\n    /* \"#utility.yul\":1195:1201   */\n  0x00\n    /* \"#utility.yul\":1222:1242   */\n  tag_55\n  tag_10\n  jump\t// in\ntag_55:\n    /* \"#utility.yul\":1212:1242   */\n  swap1\n  pop\n    /* \"#utility.yul\":1251:1284   */\n  tag_56\n    /* \"#utility.yul\":1279:1283   */\n  dup3\n    /* \"#utility.yul\":1271:1277   */\n  dup3\n    /* \"#utility.yul\":1251:1284   */\n  tag_17\n  jump\t// in\ntag_56:\n    /* \"#utility.yul\":1161:1290   */\n  swap2\n  swap1\n  pop\n  jump\t// out\n    /* \"#utility.yul\":1296:1604   */\ntag_19:\n    /* \"#utility.yul\":1358:1362   */\n  0x00\n    /* \"#utility.yul\":1448:1466   */\n  0xffffffffffffffff\n    /* \"#utility.yul\":1440:1446   */\n  dup3\n    /* \"#utility.yul\":1437:1467   */\n  gt\n    /* \"#utility.yul\":1434:1490   */\n  iszero\n  tag_58\n  jumpi\n    /* \"#utility.yul\":1470:1488   */\n  tag_59\n  tag_16\n  jump\t// in\ntag_59:\n    /* \"#utility.yul\":1434:1490   */\ntag_58:\n    /* \"#utility.yul\":1508:1537   */\n  tag_60\n    /* \"#utility.yul\":1530:1536   */\n  dup3\n    /* \"#utility.yul\":1508:1537   */\n  tag_15\n  jump\t// in\ntag_60:\n    /* \"#utility.yul\":1500:1537   */\n  swap1\n  pop\n    /* \"#utility.yul\":1592:1596   */\n  0x20\n    /* \"#utility.yul\":1586:1590   */\n  dup2\n    /* \"#utility.yul\":1582:1597   */\n  add\n    /* \"#utility.yul\":1574:1597   */\n  swap1\n  pop\n    /* \"#utility.yul\":1296:1604   */\n  swap2\n  swap1\n  pop\n  jump\t// out\n    /* \"#utility.yul\":1610:1856   */\ntag_20:\n    /* \"#utility.yul\":1691:1692   */\n  0x00\n    /* \"#utility.yul\":1701:1814   */\ntag_62:\n    /* \"#utility.yul\":1715:1721   */\n  dup4\n    /* \"#utility.yul\":1712:1713   */\n  dup2\n    /* \"#utility.yul\":1709:1722   */\n  lt\n    /* \"#utility.yul\":1701:1814   */\n  iszero\n  tag_64\n  jumpi\n    /* \"#utility.yul\":1800:1801   */\n  dup1\n    /* \"#utility.yul\":1795:1798   */\n  dup3\n    /* \"#utility.yul\":1791:1802   */\n  add\n    /* \"#utility.yul\":1785:1803   */\n  mload\n    /* \"#utility.yul\":1781:1782   */\n  dup2\n    /* \"#utility.yul\":1776:1779   */\n  dup5\n    /* \"#utility.yul\":1772:1783   */\n  add\n    /* \"#utility.yul\":1765:1804   */\n  mstore\n    /* \"#utility.yul\":1737:1739   */\n  0x20\n    /* \"#utility.yul\":1734:1735   */\n  dup2\n    /* \"#utility.yul\":1730:1740   */\n  add\n    /* \"#utility.yul\":1725:1740   */\n  swap1\n  pop\n    /* \"#utility.yul\":1701:1814   */\n  jump(tag_62)\ntag_64:\n    /* \"#utility.yul\":1848:1849   */\n  0x00\n    /* \"#utility.yul\":1839:1845   */\n  dup5\n    /* \"#utility.yul\":1834:1837   */\n  dup5\n    /* \"#utility.yul\":1830:1846   */\n  add\n    /* \"#utility.yul\":1823:1850   */\n  mstore\n    /* \"#utility.yul\":1672:1856   */\n  pop\n    /* \"#utility.yul\":1610:1856   */\n  pop\n  pop\n  pop\n  jump\t// out\n    /* \"#utility.yul\":1862:2296   */\ntag_21:\n    /* \"#utility.yul\":1951:1956   */\n  0x00\n    /* \"#utility.yul\":1976:2042   */\n  tag_66\n    /* \"#utility.yul\":1992:2041   */\n  tag_67\n    /* \"#utility.yul\":2034:2040   */\n  dup5\n    /* \"#utility.yul\":1992:2041   */\n  tag_19\n  jump\t// in\ntag_67:\n    /* \"#utility.yul\":1976:2042   */\n  tag_18\n  jump\t// in\ntag_66:\n    /* \"#utility.yul\":1967:2042   */\n  swap1\n  pop\n    /* \"#utility.yul\":2065:2071   */\n  dup3\n    /* \"#utility.yul\":2058:2063   */\n  dup2\n    /* \"#utility.yul\":2051:2072   */\n  mstore\n    /* \"#utility.yul\":2103:2107   */\n  0x20\n    /* \"#utility.yul\":2096:2101   */\n  dup2\n    /* \"#utility.yul\":2092:2108   */\n  add\n    /* \"#utility.yul\":2141:2144   */\n  dup5\n    /* \"#utility.yul\":2132:2138   */\n  dup5\n    /* \"#utility.yul\":2127:2130   */\n  dup5\n    /* \"#utility.yul\":2123:2139   */\n  add\n    /* \"#utility.yul\":2120:2145   */\n  gt\n    /* \"#utility.yul\":2117:2229   */\n  iszero\n  tag_68\n  jumpi\n    /* \"#utility.yul\":2148:2227   */\n  tag_69\n  tag_14\n  jump\t// in\ntag_69:\n    /* \"#utility.yul\":2117:2229   */\ntag_68:\n    /* \"#utility.yul\":2238:2290   */\n  tag_70\n    /* \"#utility.yul\":2283:2289   */\n  dup5\n    /* \"#utility.yul\":2278:2281   */\n  dup3\n    /* \"#utility.yul\":2273:2276   */\n  dup6\n    /* \"#utility.yul\":2238:2290   */\n  tag_20\n  jump\t// in\ntag_70:\n    /* \"#utility.yul\":1957:2296   */\n  pop\n    /* \"#utility.yul\":1862:2296   */\n  swap4\n  swap3\n  pop\n  pop\n  pop\n  jump\t// out\n    /* \"#utility.yul\":2316:2671   */\ntag_22:\n    /* \"#utility.yul\":2383:2388   */\n  0x00\n    /* \"#utility.yul\":2432:2435   */\n  dup3\n    /* \"#utility.yul\":2425:2429   */\n  0x1f\n    /* \"#utility.yul\":2417:2423   */\n  dup4\n    /* \"#utility.yul\":2413:2430   */\n  add\n    /* \"#utility.yul\":2409:2436   */\n  slt\n    /* \"#utility.yul\":2399:2521   */\n  tag_72\n  jumpi\n    /* \"#utility.yul\":2440:2519   */\n  tag_73\n  tag_13\n  jump\t// in\ntag_73:\n    /* \"#utility.yul\":2399:2521   */\ntag_72:\n    /* \"#utility.yul\":2550:2556   */\n  dup2\n    /* \"#utility.yul\":2544:2557   */\n  mload\n    /* \"#utility.yul\":2575:2665   */\n  tag_74\n    /* \"#utility.yul\":2661:2664   */\n  dup5\n    /* \"#utility.yul\":2653:2659   */\n  dup3\n    /* \"#utility.yul\":2646:2650   */\n  0x20\n    /* \"#utility.yul\":2638:2644   */\n  dup7\n    /* \"#utility.yul\":2634:2651   */\n  add\n    /* \"#utility.yul\":2575:2665   */\n  tag_21\n  jump\t// in\ntag_74:\n    /* \"#utility.yul\":2566:2665   */\n  swap2\n  pop\n    /* \"#utility.yul\":2389:2671   */\n  pop\n    /* \"#utility.yul\":2316:2671   */\n  swap3\n  swap2\n  pop\n  pop\n  jump\t// out\n    /* \"#utility.yul\":2677:3530   */\ntag_3:\n    /* \"#utility.yul\":2776:2782   */\n  0x00\n    /* \"#utility.yul\":2784:2790   */\n  dup1\n    /* \"#utility.yul\":2833:2835   */\n  0x40\n    /* \"#utility.yul\":2821:2830   */\n  dup4\n    /* \"#utility.yul\":2812:2819   */\n  dup6\n    /* \"#utility.yul\":2808:2831   */\n  sub\n    /* \"#utility.yul\":2804:2836   */\n  slt\n    /* \"#utility.yul\":2801:2920   */\n  iszero\n  tag_76\n  jumpi\n    /* \"#utility.yul\":2839:2918   */\n  tag_77\n  tag_11\n  jump\t// in\ntag_77:\n    /* \"#utility.yul\":2801:2920   */\ntag_76:\n    /* \"#utility.yul\":2980:2981   */\n  0x00\n    /* \"#utility.yul\":2969:2978   */\n  dup4\n    /* \"#utility.yul\":2965:2982   */\n  add\n    /* \"#utility.yul\":2959:2983   */\n  mload\n    /* \"#utility.yul\":3010:3028   */\n  0xffffffffffffffff\n    /* \"#utility.yul\":3002:3008   */\n  dup2\n    /* \"#utility.yul\":2999:3029   */\n  gt\n    /* \"#utility.yul\":2996:3113   */\n  iszero\n  tag_78\n  jumpi\n    /* \"#utility.yul\":3032:3111   */\n  tag_79\n  tag_12\n  jump\t// in\ntag_79:\n    /* \"#utility.yul\":2996:3113   */\ntag_78:\n    /* \"#utility.yul\":3137:3211   */\n  tag_80\n    /* \"#utility.yul\":3203:3210   */\n  dup6\n    /* \"#utility.yul\":3194:3200   */\n  dup3\n    /* \"#utility.yul\":3183:3192   */\n  dup7\n    /* \"#utility.yul\":3179:3201   */\n  add\n    /* \"#utility.yul\":3137:3211   */\n  tag_22\n  jump\t// in\ntag_80:\n    /* \"#utility.yul\":3127:3211   */\n  swap3\n  pop\n    /* \"#utility.yul\":2930:3221   */\n  pop\n    /* \"#utility.yul\":3281:3283   */\n  0x20\n    /* \"#utility.yul\":3270:3279   */\n  dup4\n    /* \"#utility.yul\":3266:3284   */\n  add\n    /* \"#utility.yul\":3260:3285   */\n  mload\n    /* \"#utility.yul\":3312:3330   */\n  0xffffffffffffffff\n    /* \"#utility.yul\":3304:3310   */\n  dup2\n    /* \"#utility.yul\":3301:3331   */\n  gt\n    /* \"#utility.yul\":3298:3415   */\n  iszero\n  tag_81\n  jumpi\n    /* \"#utility.yul\":3334:3413   */\n  tag_82\n  tag_12\n  jump\t// in\ntag_82:\n    /* \"#utility.yul\":3298:3415   */\ntag_81:\n    /* \"#utility.yul\":3439:3513   */\n  tag_83\n    /* \"#utility.yul\":3505:3512   */\n  dup6\n    /* \"#utility.yul\":3496:3502   */\n  dup3\n    /* \"#utility.yul\":3485:3494   */\n  dup7\n    /* \"#utility.yul\":3481:3503   */\n  add\n    /* \"#utility.yul\":3439:3513   */\n  tag_22\n  jump\t// in\ntag_83:\n    /* \"#utility.yul\":3429:3513   */\n  swap2\n  pop\n    /* \"#utility.yul\":3231:3523   */\n  pop\n    /* \"#utility.yul\":2677:3530   */\n  swap3\n  pop\n  swap3\n  swap1\n  pop\n  jump\t// out\n    /* \"#utility.yul\":3536:3635   */\ntag_23:\n    /* \"#utility.yul\":3588:3594   */\n  0x00\n    /* \"#utility.yul\":3622:3627   */\n  dup2\n    /* \"#utility.yul\":3616:3628   */\n  mload\n    /* \"#utility.yul\":3606:3628   */\n  swap1\n  pop\n    /* \"#utility.yul\":3536:3635   */\n  swap2\n  swap1\n  pop\n  jump\t// out\n    /* \"#utility.yul\":3641:3821   */\ntag_24:\n    /* \"#utility.yul\":3689:3766   */\n  0x4e487b7100000000000000000000000000000000000000000000000000000000\n    /* \"#utility.yul\":3686:3687   */\n  0x00\n    /* \"#utility.yul\":3679:3767   */\n  mstore\n    /* \"#utility.yul\":3786:3790   */\n  0x22\n    /* \"#utility.yul\":3783:3784   */\n  0x04\n    /* \"#utility.yul\":3776:3791   */\n  mstore\n    /* \"#utility.yul\":3810:3814   */\n  0x24\n    /* \"#utility.yul\":3807:3808   */\n  0x00\n    /* \"#utility.yul\":3800:3815   */\n  revert\n    /* \"#utility.yul\":3827:4147   */\ntag_25:\n    /* \"#utility.yul\":3871:3877   */\n  0x00\n    /* \"#utility.yul\":3908:3909   */\n  0x02\n    /* \"#utility.yul\":3902:3906   */\n  dup3\n    /* \"#utility.yul\":3898:3910   */\n  div\n    /* \"#utility.yul\":3888:3910   */\n  swap1\n  pop\n    /* \"#utility.yul\":3955:3956   */\n  0x01\n    /* \"#utility.yul\":3949:3953   */\n  dup3\n    /* \"#utility.yul\":3945:3957   */\n  and\n    /* \"#utility.yul\":3976:3994   */\n  dup1\n    /* \"#utility.yul\":3966:4047   */\n  tag_87\n  jumpi\n    /* \"#utility.yul\":4032:4036   */\n  0x7f\n    /* \"#utility.yul\":4024:4030   */\n  dup3\n    /* \"#utility.yul\":4020:4037   */\n  and\n    /* \"#utility.yul\":4010:4037   */\n  swap2\n  pop\n    /* \"#utility.yul\":3966:4047   */\ntag_87:\n    /* \"#utility.yul\":4094:4096   */\n  0x20\n    /* \"#utility.yul\":4086:4092   */\n  dup3\n    /* \"#utility.yul\":4083:4097   */\n  lt\n    /* \"#utility.yul\":4063:4081   */\n  dup2\n    /* \"#utility.yul\":4060:4098   */\n  sub\n    /* \"#utility.yul\":4057:4141   */\n  tag_88\n  jumpi\n    /* \"#utility.yul\":4113:4131   */\n  tag_89\n  tag_24\n  jump\t// in\ntag_89:\n    /* \"#utility.yul\":4057:4141   */\ntag_88:\n    /* \"#utility.yul\":3878:4147   */\n  pop\n    /* \"#utility.yul\":3827:4147   */\n  swap2\n  swap1\n  pop\n  jump\t// out\n    /* \"#utility.yul\":4153:4294   */\ntag_26:\n    /* \"#utility.yul\":4202:4206   */\n  0x00\n    /* \"#utility.yul\":4225:4228   */\n  dup2\n    /* \"#utility.yul\":4217:4228   */\n  swap1\n  pop\n    /* \"#utility.yul\":4248:4251   */\n  dup2\n    /* \"#utility.yul\":4245:4246   */\n  0x00\n    /* \"#utility.yul\":4238:4252   */\n  mstore\n    /* \"#utility.yul\":4282:4286   */\n  0x20\n    /* \"#utility.yul\":4279:4280   */\n  0x00\n    /* \"#utility.yul\":4269:4287   */\n  keccak256\n    /* \"#utility.yul\":4261:4287   */\n  swap1\n  pop\n    /* \"#utility.yul\":4153:4294   */\n  swap2\n  swap1\n  pop\n  jump\t// out\n    /* \"#utility.yul\":4300:4393   */\ntag_27:\n    /* \"#utility.yul\":4337:4343   */\n  0x00\n    /* \"#utility.yul\":4384:4386   */\n  0x20\n    /* \"#utility.yul\":4379:4381   */\n  0x1f\n    /* \"#utility.yul\":4372:4377   */\n  dup4\n    /* \"#utility.yul\":4368:4382   */\n  add\n    /* \"#utility.yul\":4364:4387   */\n  div\n    /* \"#utility.yul\":4354:4387   */\n  swap1\n  pop\n    /* \"#utility.yul\":4300:4393   */\n  swap2\n  swap1\n  pop\n  jump\t// out\n    /* \"#utility.yul\":4399:4506   */\ntag_28:\n    /* \"#utility.yul\":4443:4451   */\n  0x00\n    /* \"#utility.yul\":4493:4498   */\n  dup3\n    /* \"#utility.yul\":4487:4491   */\n  dup3\n    /* \"#utility.yul\":4483:4499   */\n  shl\n    /* \"#utility.yul\":4462:4499   */\n  swap1\n  pop\n    /* \"#utility.yul\":4399:4506   */\n  swap3\n  swap2\n  pop\n  pop\n  jump\t// out\n    /* \"#utility.yul\":4512:4905   */\ntag_29:\n    /* \"#utility.yul\":4581:4587   */\n  0x00\n    /* \"#utility.yul\":4631:4632   */\n  0x08\n    /* \"#utility.yul\":4619:4629   */\n  dup4\n    /* \"#utility.yul\":4615:4633   */\n  mul\n    /* \"#utility.yul\":4654:4751   */\n  tag_94\n    /* \"#utility.yul\":4684:4750   */\n  0xffffffffffffffffffffffffffffffffffffffffffffffffffffffffffffffff\n    /* \"#utility.yul\":4673:4682   */\n  dup3\n    /* \"#utility.yul\":4654:4751   */\n  tag_28\n  jump\t// in\ntag_94:\n    /* \"#utility.yul\":4772:4811   */\n  tag_95\n    /* \"#utility.yul\":4802:4810   */\n  dup7\n    /* \"#utility.yul\":4791:4800   */\n  dup4\n    /* \"#utility.yul\":4772:4811   */\n  tag_28\n  jump\t// in\ntag_95:\n    /* \"#utility.yul\":4760:4811   */\n  swap6\n  pop\n    /* \"#utility.yul\":4844:4848   */\n  dup1\n    /* \"#utility.yul\":4840:4849   */\n  not\n    /* \"#utility.yul\":4833:4838   */\n  dup5\n    /* \"#utility.yul\":4829:4850   */\n  and\n    /* \"#utility.yul\":4820:4850   */\n  swap4\n  pop\n    /* \"#utility.yul\":4893:4897   */\n  dup1\n    /* \"#utility.yul\":4883:4891   */\n  dup7\n    /* \"#utility.yul\":4879:4898   */\n  and\n    /* \"#utility.yul\":4872:4877   */\n  dup5\n    /* \"#utility.yul\":4869:4899   */\n  or\n    /* \"#utility.yul\":4859:4899   */\n  swap3\n  pop\n    /* \"#utility.yul\":4588:4905   */\n  pop\n  pop\n    /* \"#utility.yul\":4512:4905   */\n  swap4\n  swap3\n  pop\n  pop\n  pop\n  jump\t// out\n    /* \"#utility.yul\":4911:4988   */\ntag_30:\n    /* \"#utility.yul\":4948:4955   */\n  0x00\n    /* \"#utility.yul\":4977:4982   */\n  dup2\n    /* \"#utility.yul\":4966:4982   */\n  swap1\n  pop\n    /* \"#utility.yul\":4911:4988   */\n  swap2\n  swap1\n  pop\n  jump\t// out\n    /* \"#utility.yul\":4994:5054   */\ntag_31:\n    /* \"#utility.yul\":5022:5025   */\n  0x00\n    /* \"#utility.yul\":5043:5048   */\n  dup2\n    /* \"#utility.yul\":5036:5048   */\n  swap1\n  pop\n    /* \"#utility.yul\":4994:5054   */\n  swap2\n  swap1\n  pop\n  jump\t// out\n    /* \"#utility.yul\":5060:5202   */\ntag_32:\n    /* \"#utility.yul\":5110:5119   */\n  0x00\n    /* \"#utility.yul\":5143:5196   */\n  tag_99\n    /* \"#utility.yul\":5161:5195   */\n  tag_100\n    /* \"#utility.yul\":5170:5194   */\n  tag_101\n    /* \"#utility.yul\":5188:5193   */\n  dup5\n    /* \"#utility.yul\":5170:5194   */\n  tag_30\n  jump\t// in\ntag_101:\n    /* \"#utility.yul\":5161:5195   */\n  tag_31\n  jump\t// in\ntag_100:\n    /* \"#utility.yul\":5143:5196   */\n  tag_30\n  jump\t// in\ntag_99:\n    /* \"#utility.yul\":5130:5196   */\n  swap1\n  pop\n    /* \"#utility.yul\":5060:5202   */\n  swap2\n  swap1\n  pop\n  jump\t// out\n    /* \"#utility.yul\":5208:5283   */\ntag_33:\n    /* \"#utility.yul\":5251:5254   */\n  0x00\n    /* \"#utility.yul\":5272:5277   */\n  dup2\n    /* \"#utility.yul\":5265:5277   */\n  swap1\n  pop\n    /* \"#utility.yul\":5208:5283   */\n  swap2\n  swap1\n  pop\n  jump\t// out\n    /* \"#utility.yul\":5289:5558   */\ntag_34:\n    /* \"#utility.yul\":5399:5438   */\n  tag_104\n    /* \"#utility.yul\":5430:5437   */\n  dup4\n    /* \"#utility.yul\":5399:5438   */\n  tag_32\n  jump\t// in\ntag_104:\n    /* \"#utility.yul\":5460:5551   */\n  tag_105\n    /* \"#utility.yul\":5509:5550   */\n  tag_106\n    /* \"#utility.yul\":5533:5549   */\n  dup3\n    /* \"#utility.yul\":5509:5550   */\n  tag_33\n  jump\t// in\ntag_106:\n    /* \"#utility.yul\":5501:5507   */\n  dup5\n    /* \"#utility.yul\":5494:5498   */\n  dup5\n    /* \"#utility.yul\":5488:5499   */\n  sload\n    /* \"#utility.yul\":5460:5551   */\n  tag_29\n  jump\t// in\ntag_105:\n    /* \"#utility.yul\":5454:5458   */\n  dup3\n    /* \"#utility.yul\":5447:5552   */\n  sstore\n    /* \"#utility.yul\":5365:5558   */\n  pop\n    /* \"#utility.yul\":5289:5558   */\n  pop\n  pop\n  pop\n  jump\t// out\n    /* \"#utility.yul\":5564:5637   */\ntag_35:\n    /* \"#utility.yul\":5609:5612   */\n  0x00\n    /* \"#utility.yul\":5564:5637   */\n  swap1\n  jump\t// out\n    /* \"#utility.yul\":5643:5832   */\ntag_36:\n    /* \"#utility.yul\":5720:5752   */\n  tag_109\n  tag_35\n  jump\t// in\ntag_109:\n    /* \"#utility.yul\":5761:5826   */\n  tag_110\n    /* \"#utility.yul\":5819:5825   */\n  dup2\n    /* \"#utility.yul\":5811:5817   */\n  dup5\n    /* \"#utility.yul\":5805:5809   */\n  dup5\n    /* \"#utility.yul\":5761:5826   */\n  tag_34\n  jump\t// in\ntag_110:\n    /* \"#utility.yul\":5696:5832   */\n  pop\n    /* \"#utility.yul\":5643:5832   */\n  pop\n  pop\n  jump\t// out\n    /* \"#utility.yul\":5838:6024   */\ntag_37:\n    /* \"#utility.yul\":5898:6018   */\ntag_112:\n    /* \"#utility.yul\":5915:5918   */\n  dup2\n    /* \"#utility.yul\":5908:5913   */\n  dup2\n    /* \"#utility.yul\":5905:5919   */\n  lt\n    /* \"#utility.yul\":5898:6018   */\n  iszero\n  tag_114\n  jumpi\n    /* \"#utility.yul\":5969:6008   */\n  tag_115\n    /* \"#utility.yul\":6006:6007   */\n  0x00\n    /* \"#utility.yul\":5999:6004   */\n  dup3\n    /* \"#utility.yul\":5969:6008   */\n  tag_36\n  jump\t// in\ntag_115:\n    /* \"#utility.yul\":5942:5943   */\n  0x01\n    /* \"#utility.yul\":5935:5940   */\n  dup2\n    /* \"#utility.yul\":5931:5944   */\n  add\n    /* \"#utility.yul\":5922:5944   */\n  swap1\n  pop\n    /* \"#utility.yul\":5898:6018   */\n  jump(tag_112)\ntag_114:\n    /* \"#utility.yul\":5838:6024   */\n  pop\n  pop\n  jump\t// out\n    /* \"#utility.yul\":6030:6573   */\ntag_38:\n    /* \"#utility.yul\":6131:6133   */\n  0x1f\n    /* \"#utility.yul\":6126:6129   */\n  dup3\n    /* \"#utility.yul\":6123:6134   */\n  gt\n    /* \"#utility.yul\":6120:6566   */\n  iszero\n  tag_117\n  jumpi\n    /* \"#utility.yul\":6165:6203   */\n  tag_118\n    /* \"#utility.yul\":6197:6202   */\n  dup2\n    /* \"#utility.yul\":6165:6203   */\n  tag_26\n  jump\t// in\ntag_118:\n    /* \"#utility.yul\":6249:6278   */\n  tag_119\n    /* \"#utility.yul\":6267:6277   */\n  dup5\n    /* \"#utility.yul\":6249:6278   */\n  tag_27\n  jump\t// in\ntag_119:\n    /* \"#utility.yul\":6239:6247   */\n  dup2\n    /* \"#utility.yul\":6235:6279   */\n  add\n    /* \"#utility.yul\":6432:6434   */\n  0x20\n    /* \"#utility.yul\":6420:6430   */\n  dup6\n    /* \"#utility.yul\":6417:6435   */\n  lt\n    /* \"#utility.yul\":6414:6463   */\n  iszero\n  tag_120\n  jumpi\n    /* \"#utility.yul\":6453:6461   */\n  dup2\n    /* \"#utility.yul\":6438:6461   */\n  swap1\n  pop\n    /* \"#utility.yul\":6414:6463   */\ntag_120:\n    /* \"#utility.yul\":6476:6556   */\n  tag_121\n    /* \"#utility.yul\":6532:6554   */\n  tag_122\n    /* \"#utility.yul\":6550:6553   */\n  dup6\n    /* \"#utility.yul\":6532:6554   */\n  tag_27\n  jump\t// in\ntag_122:\n    /* \"#utility.yul\":6522:6530   */\n  dup4\n    /* \"#utility.yul\":6518:6555   */\n  add\n    /* \"#utility.yul\":6505:6516   */\n  dup3\n    /* \"#utility.yul\":6476:6556   */\n  tag_37\n  jump\t// in\ntag_121:\n    /* \"#utility.yul\":6135:6566   */\n  pop\n  pop\n    /* \"#utility.yul\":6120:6566   */\ntag_117:\n    /* \"#utility.yul\":6030:6573   */\n  pop\n  pop\n  pop\n  jump\t// out\n    /* \"#utility.yul\":6579:6696   */\ntag_39:\n    /* \"#utility.yul\":6633:6641   */\n  0x00\n    /* \"#utility.yul\":6683:6688   */\n  dup3\n    /* \"#utility.yul\":6677:6681   */\n  dup3\n    /* \"#utility.yul\":6673:6689   */\n  shr\n    /* \"#utility.yul\":6652:6689   */\n  swap1\n  pop\n    /* \"#utility.yul\":6579:6696   */\n  swap3\n  swap2\n  pop\n  pop\n  jump\t// out\n    /* \"#utility.yul\":6702:6871   */\ntag_40:\n    /* \"#utility.yul\":6746:6752   */\n  0x00\n    /* \"#utility.yul\":6779:6830   */\n  tag_125\n    /* \"#utility.yul\":6827:6828   */\n  0x00\n    /* \"#utility.yul\":6823:6829   */\n  not\n    /* \"#utility.yul\":6815:6820   */\n  dup5\n    /* \"#utility.yul\":6812:6813   */\n  0x08\n    /* \"#utility.yul\":6808:6821   */\n  mul\n    /* \"#utility.yul\":6779:6830   */\n  tag_39\n  jump\t// in\ntag_125:\n    /* \"#utility.yul\":6775:6831   */\n  not\n    /* \"#utility.yul\":6860:6864   */\n  dup1\n    /* \"#utility.yul\":6854:6858   */\n  dup4\n    /* \"#utility.yul\":6850:6865   */\n  and\n    /* \"#utility.yul\":6840:6865   */\n  swap2\n  pop\n    /* \"#utility.yul\":6753:6871   */\n  pop\n    /* \"#utility.yul\":6702:6871   */\n  swap3\n  swap2\n  pop\n  pop\n  jump\t// out\n    /* \"#utility.yul\":6876:7171   */\ntag_41:\n    /* \"#utility.yul\":6952:6956   */\n  0x00\n    /* \"#utility.yul\":7098:7127   */\n  tag_127\n    /* \"#utility.yul\":7123:7126   */\n  dup4\n    /* \"#utility.yul\":7117:7121   */\n  dup4\n    /* \"#utility.yul\":7098:7127   */\n  tag_40\n  jump\t// in\ntag_127:\n    /* \"#utility.yul\":7090:7127   */\n  swap2\n  pop\n    /* \"#utility.yul\":7160:7163   */\n  dup3\n    /* \"#utility.yul\":7157:7158   */\n  0x02\n    /* \"#utility.yul\":7153:7164   */\n  mul\n    /* \"#utility.yul\":7147:7151   */\n  dup3\n    /* \"#utility.yul\":7144:7165   */\n  or\n    /* \"#utility.yul\":7136:7165   */\n  swap1\n  pop\n    /* \"#utility.yul\":6876:7171   */\n  swap3\n  swap2\n  pop\n  pop\n  jump\t// out\n    /* \"#utility.yul\":7176:8571   */\ntag_7:\n    /* \"#utility.yul\":7293:7330   */\n  tag_129\n    /* \"#utility.yul\":7326:7329   */\n  dup3\n    /* \"#utility.yul\":7293:7330   */\n  tag_23\n  jump\t// in\ntag_129:\n    /* \"#utility.yul\":7395:7413   */\n  0xffffffffffffffff\n    /* \"#utility.yul\":7387:7393   */\n  dup2\n    /* \"#utility.yul\":7384:7414   */\n  gt\n    /* \"#utility.yul\":7381:7437   */\n  iszero\n  tag_130\n  jumpi\n    /* \"#utility.yul\":7417:7435   */\n  tag_131\n  tag_16\n  jump\t// in\ntag_131:\n    /* \"#utility.yul\":7381:7437   */\ntag_130:\n    /* \"#utility.yul\":7461:7499   */\n  tag_132\n    /* \"#utility.yul\":7493:7497   */\n  dup3\n    /* \"#utility.yul\":7487:7498   */\n  sload\n    /* \"#utility.yul\":7461:7499   */\n  tag_25\n  jump\t// in\ntag_132:\n    /* \"#utility.yul\":7546:7613   */\n  tag_133\n    /* \"#utility.yul\":7606:7612   */\n  dup3\n    /* \"#utility.yul\":7598:7604   */\n  dup3\n    /* \"#utility.yul\":7592:7596   */\n  dup6\n    /* \"#utility.yul\":7546:7613   */\n  tag_38\n  jump\t// in\ntag_133:\n    /* \"#utility.yul\":7640:7641   */\n  0x00\n    /* \"#utility.yul\":7664:7668   */\n  0x20\n    /* \"#utility.yul\":7651:7668   */\n  swap1\n  pop\n    /* \"#utility.yul\":7696:7698   */\n  0x1f\n    /* \"#utility.yul\":7688:7694   */\n  dup4\n    /* \"#utility.yul\":7685:7699   */\n  gt\n    /* \"#utility.yul\":7713:7714   */\n  0x01\n    /* \"#utility.yul\":7708:8326   */\n  dup2\n  eq\n  tag_135\n  jumpi\n    /* \"#utility.yul\":8370:8371   */\n  0x00\n    /* \"#utility.yul\":8387:8393   */\n  dup5\n    /* \"#utility.yul\":8384:8461   */\n  iszero\n  tag_136\n  jumpi\n    /* \"#utility.yul\":8436:8445   */\n  dup3\n    /* \"#utility.yul\":8431:8434   */\n  dup8\n    /* \"#utility.yul\":8427:8446   */\n  add\n    /* \"#utility.yul\":8421:8447   */\n  mload\n    /* \"#utility.yul\":8412:8447   */\n  swap1\n  pop\n    /* \"#utility.yul\":8384:8461   */\ntag_136:\n    /* \"#utility.yul\":8487:8554   */\n  tag_137\n    /* \"#utility.yul\":8547:8553   */\n  dup6\n    /* \"#utility.yul\":8540:8545   */\n  dup3\n    /* \"#utility.yul\":8487:8554   */\n  tag_41\n  jump\t// in\ntag_137:\n    /* \"#utility.yul\":8481:8485   */\n  dup7\n    /* \"#utility.yul\":8474:8555   */\n  sstore\n    /* \"#utility.yul\":8343:8565   */\n  pop\n    /* \"#utility.yul\":7678:8565   */\n  jump(tag_134)\n    /* \"#utility.yul\":7708:8326   */\ntag_135:\n    /* \"#utility.yul\":7760:7764   */\n  0x1f\n    /* \"#utility.yul\":7756:7765   */\n  not\n    /* \"#utility.yul\":7748:7754   */\n  dup5\n    /* \"#utility.yul\":7744:7766   */\n  and\n    /* \"#utility.yul\":7794:7831   */\n  tag_138\n    /* \"#utility.yul\":7826:7830   */\n  dup7\n    /* \"#utility.yul\":7794:7831   */\n  tag_26\n  jump\t// in\ntag_138:\n    /* \"#utility.yul\":7853:7854   */\n  0x00\n    /* \"#utility.yul\":7867:8075   */\ntag_139:\n    /* \"#utility.yul\":7881:7888   */\n  dup3\n    /* \"#utility.yul\":7878:7879   */\n  dup2\n    /* \"#utility.yul\":7875:7889   */\n  lt\n    /* \"#utility.yul\":7867:8075   */\n  iszero\n  tag_141\n  jumpi\n    /* \"#utility.yul\":7960:7969   */\n  dup5\n    /* \"#utility.yul\":7955:7958   */\n  dup10\n    /* \"#utility.yul\":7951:7970   */\n  add\n    /* \"#utility.yul\":7945:7971   */\n  mload\n    /* \"#utility.yul\":7937:7943   */\n  dup3\n    /* \"#utility.yul\":7930:7972   */\n  sstore\n    /* \"#utility.yul\":8011:8012   */\n  0x01\n    /* \"#utility.yul\":8003:8009   */\n  dup3\n    /* \"#utility.yul\":7999:8013   */\n  add\n    /* \"#utility.yul\":7989:8013   */\n  swap2\n  pop\n    /* \"#utility.yul\":8058:8060   */\n  0x20\n    /* \"#utility.yul\":8047:8056   */\n  dup6\n    /* \"#utility.yul\":8043:8061   */\n  add\n    /* \"#utility.yul\":8030:8061   */\n  swap5\n  pop\n    /* \"#utility.yul\":7904:7908   */\n  0x20\n    /* \"#utility.yul\":7901:7902   */\n  dup2\n    /* \"#utility.yul\":7897:7909   */\n  add\n    /* \"#utility.yul\":7892:7909   */\n  swap1\n  pop\n    /* \"#utility.yul\":7867:8075   */\n  jump(tag_139)\ntag_141:\n    /* \"#utility.yul\":8103:8109   */\n  dup7\n    /* \"#utility.yul\":8094:8101   */\n  dup4\n    /* \"#utility.yul\":8091:8110   */\n  lt\n    /* \"#utility.yul\":8088:8267   */\n  iszero\n  tag_142\n  jumpi\n    /* \"#utility.yul\":8161:8170   */\n  dup5\n    /* \"#utility.yul\":8156:8159   */\n  dup10\n    /* \"#utility.yul\":8152:8171   */\n  add\n    /* \"#utility.yul\":8146:8172   */\n  mload\n    /* \"#utility.yul\":8204:8252   */\n  tag_143\n    /* \"#utility.yul\":8246:8250   */\n  0x1f\n    /* \"#utility.yul\":8238:8244   */\n  dup10\n    /* \"#utility.yul\":8234:8251   */\n  and\n    /* \"#utility.yul\":8223:8232   */\n  dup3\n    /* \"#utility.yul\":8204:8252   */\n  tag_40\n  jump\t// in\ntag_143:\n    /* \"#utility.yul\":8196:8202   */\n  dup4\n    /* \"#utility.yul\":8189:8253   */\n  sstore\n    /* \"#utility.yul\":8111:8267   */\n  pop\n    /* \"#utility.yul\":8088:8267   */\ntag_142:\n    /* \"#utility.yul\":8313:8314   */\n  0x01\n    /* \"#utility.yul\":8309:8310   */\n  0x02\n    /* \"#utility.yul\":8301:8307   */\n  dup9\n    /* \"#utility.yul\":8297:8311   */\n  mul\n    /* \"#utility.yul\":8293:8315   */\n  add\n    /* \"#utility.yul\":8287:8291   */\n  dup9\n    /* \"#utility.yul\":8280:8316   */\n  sstore\n    /* \"#utility.yul\":7715:8326   */\n  pop\n  pop\n  pop\n    /* \"#utility.yul\":7678:8565   */\ntag_134:\n  pop\n    /* \"#utility.yul\":7268:8571   */\n  pop\n  pop\n  pop\n    /* \"#utility.yul\":7176:8571   */\n  pop\n  pop\n  jump\t// out\n    /* \"TVNProject/TVNNFTPositionManager/TVNNFTPositionManager.sol\":140:3235  contract TVNNFTPositionManager is ERC721 {... */\ntag_9:\n  dataSize(sub_0)\n  dup1\n  dataOffset(sub_0)\n  0x00\n  codecopy\n  0x00\n  return\nstop\n\nsub_0: assembly {\n        /* \"TVNProject/TVNNFTPositionManager/TVNNFTPositionManager.sol\":140:3235  contract TVNNFTPositionManager is ERC721 {... */\n      mstore(0x40, 0x80)\n      callvalue\n      dup1\n      iszero\n      tag_1\n      jumpi\n      0x00\n      dup1\n      revert\n    tag_1:\n      pop\n      jumpi(tag_2, lt(calldatasize, 0x04))\n      shr(0xe0, calldataload(0x00))\n      dup1\n      0x8b217878\n      gt\n      tag_22\n      jumpi\n      dup1\n      0xb88d4fde\n      gt\n      tag_23\n      jumpi\n      dup1\n      0xb88d4fde\n      eq\n      tag_17\n      jumpi\n      dup1\n      0xd942dc94\n      eq\n      tag_18\n      jumpi\n      dup1\n      0xdeeb79a3\n      eq\n      tag_19\n      jumpi\n      dup1\n      0xebd1d359\n      eq\n      tag_20\n      jumpi\n      dup1\n      0xec828722\n      eq\n      tag_21\n      jumpi\n      jump(tag_2)\n    tag_23:\n      dup1\n      0x8b217878\n      eq\n      tag_12\n      jumpi\n      dup1\n      0x8bbf58b3\n      eq\n      tag_13\n      jumpi\n      dup1\n      0x91cda3e7\n      eq\n      tag_14\n      jumpi\n      dup1\n      0x99fbab88\n      eq\n      tag_15\n      jumpi\n      dup1\n      0xa22cb465\n      eq\n      tag_16\n      jumpi\n      jump(tag_2)\n    tag_22:\n      dup1\n      0x26908fa1\n      gt\n      tag_24\n      jumpi\n      dup1\n      0x26908fa1\n      eq\n      tag_7\n      jumpi\n      dup1\n      0x42842e0e\n      eq\n      tag_8\n      jumpi\n      dup1\n      0x6352211e\n      eq\n      tag_9\n      jumpi\n      dup1\n      0x70a08231\n      eq\n      tag_10\n      jumpi\n      dup1\n      0x7fcda073\n      eq\n      tag_11\n      jumpi\n      jump(tag_2)\n    tag_24:\n      dup1\n      0x01ffc9a7\n      eq\n      tag_3\n      jumpi\n      dup1\n      0x081812fc\n      eq\n      tag_4\n      jumpi\n      dup1\n      0x095ea7b3\n      eq\n      tag_5\n      jumpi\n      dup1\n      0x23b872dd\n      eq\n      tag_6\n      jumpi\n    tag_2:\n      0x00\n      dup1\n      revert\n        /* \"LearnSolidity/ERC721/ERC721.sol\":857:1093  function supportsInterface(bytes4 interfaceID)... */\n    tag_3:\n      tag_25\n      0x04\n      dup1\n      calldatasize\n      sub\n      dup2\n      add\n      swap1\n      tag_26\n      swap2\n      swap1\n      tag_27\n      jump\t// in\n    tag_26:\n      tag_28\n      jump\t// in\n    tag_25:\n      mload(0x40)\n      tag_29\n      swap2\n      swap1\n      tag_30\n      jump\t// in\n    tag_29:\n      mload(0x40)\n      dup1\n      swap2\n      sub\n      swap1\n      return\n        /* \"LearnSolidity/ERC721/ERC721.sol\":1987:2209  function getApproved(uint256 tokenId)... */\n    tag_4:\n      tag_31\n      0x04\n      dup1\n      calldatasize\n      sub\n      dup2\n      add\n      swap1\n      tag_32\n      swap2\n      swap1\n      tag_33\n      jump\t// in\n    tag_32:\n      tag_34\n      jump\t// in\n    tag_31:\n      mload(0x40)\n      tag_35\n      swap2\n      swap1\n      tag_36\n      jump\t// in\n    tag_35:\n      mload(0x40)\n      dup1\n      swap2\n      sub\n      swap1\n      return\n        /* \"LearnSolidity/ERC721/ERC721.sol\":1669:1981  function approve(address to, uint256 tokenId) external {... */\n    tag_5:\n      tag_37\n      0x04\n      dup1\n      calldatasize\n      sub\n      dup2\n      add\n      swap1\n      tag_38\n      swap2\n      swap1\n      tag_39\n      jump\t// in\n    tag_38:\n      tag_40\n      jump\t// in\n    tag_37:\n      stop\n        /* \"LearnSolidity/ERC721/ERC721.sol\":2493:3000  function transferFrom(... */\n    tag_6:\n      tag_41\n      0x04\n      dup1\n      calldatasize\n      sub\n      dup2\n      add\n      swap1\n      tag_42\n      swap2\n      swap1\n      tag_43\n      jump\t// in\n    tag_42:\n      tag_44\n      jump\t// in\n    tag_41:\n      stop\n        /* \"TVNProject/TVNNFTPositionManager/TVNNFTPositionManager.sol\":2169:2484  function transferPosition(... */\n    tag_7:\n      tag_45\n      0x04\n      dup1\n      calldatasize\n      sub\n      dup2\n      add\n      swap1\n      tag_46\n      swap2\n      swap1\n      tag_43\n      jump\t// in\n    tag_46:\n      tag_47\n      jump\t// in\n    tag_45:\n      stop\n        /* \"LearnSolidity/ERC721/ERC721.sol\":3006:3500  function safeTransferFrom(... */\n    tag_8:\n      tag_48\n      0x04\n      dup1\n      calldatasize\n      sub\n      dup2\n      add\n      swap1\n      tag_49\n      swap2\n      swap1\n      tag_43\n      jump\t// in\n    tag_49:\n      tag_50\n      jump\t// in\n    tag_48:\n      stop\n        /* \"LearnSolidity/ERC721/ERC721.sol\":1282:1458  function ownerOf(uint256 tokenId) external view returns (address owner) {... */\n    tag_9:\n      tag_51\n      0x04\n      dup1\n      calldatasize\n      sub\n      dup2\n      add\n      swap1\n      tag_52\n      swap2\n      swap1\n      tag_33\n      jump\t// in\n    tag_52:\n      tag_53\n      jump\t// in\n    tag_51:\n      mload(0x40)\n      tag_54\n      swap2\n      swap1\n      tag_36\n      jump\t// in\n    tag_54:\n      mload(0x40)\n      dup1\n      swap2\n      sub\n      swap1\n      return\n        /* \"LearnSolidity/ERC721/ERC721.sol\":1099:1276  function balanceOf(address owner) external view returns (uint256 balance) {... */\n    tag_10:\n      tag_55\n      0x04\n      dup1\n      calldatasize\n      sub\n      dup2\n      add\n      swap1\n      tag_56\n      swap2\n      swap1\n      tag_57\n      jump\t// in\n    tag_56:\n      tag_58\n      jump\t// in\n    tag_55:\n      mload(0x40)\n      tag_59\n      swap2\n      swap1\n      tag_60\n      jump\t// in\n    tag_59:\n      mload(0x40)\n      dup1\n      swap2\n      sub\n      swap1\n      return\n        /* \"TVNProject/TVNNFTPositionManager/TVNNFTPositionManager.sol\":582:652  mapping(address => mapping(uint256 => uint256)) public indexOfOwnerNFT */\n    tag_11:\n      tag_61\n      0x04\n      dup1\n      calldatasize\n      sub\n      dup2\n      add\n      swap1\n      tag_62\n      swap2\n      swap1\n      tag_39\n      jump\t// in\n    tag_62:\n      tag_63\n      jump\t// in\n    tag_61:\n      mload(0x40)\n      tag_64\n      swap2\n      swap1\n      tag_60\n      jump\t// in\n    tag_64:\n      mload(0x40)\n      dup1\n      swap2\n      sub\n      swap1\n      return\n        /* \"TVNProject/TVNNFTPositionManager/TVNNFTPositionManager.sol\":776:1316  function mintParams(... */\n    tag_12:\n      tag_65\n      0x04\n      dup1\n      calldatasize\n      sub\n      dup2\n      add\n      swap1\n      tag_66\n      swap2\n      swap1\n      tag_67\n      jump\t// in\n    tag_66:\n      tag_68\n      jump\t// in\n    tag_65:\n      mload(0x40)\n      tag_69\n      swap2\n      swap1\n      tag_70\n      jump\t// in\n    tag_69:\n      mload(0x40)\n      dup1\n      swap2\n      sub\n      swap1\n      return\n        /* \"TVNProject/TVNNFTPositionManager/TVNNFTPositionManager.sol\":239:269  uint256 public tokenIdNext = 1 */\n    tag_13:\n      tag_71\n      tag_72\n      jump\t// in\n    tag_71:\n      mload(0x40)\n      tag_73\n      swap2\n      swap1\n      tag_60\n      jump\t// in\n    tag_73:\n      mload(0x40)\n      dup1\n      swap2\n      sub\n      swap1\n      return\n        /* \"TVNProject/TVNNFTPositionManager/TVNNFTPositionManager.sol\":1322:1921  function mintPosition(address _to, PositionInfo calldata params) external {... */\n    tag_14:\n      tag_74\n      0x04\n      dup1\n      calldatasize\n      sub\n      dup2\n      add\n      swap1\n      tag_75\n      swap2\n      swap1\n      tag_76\n      jump\t// in\n    tag_75:\n      tag_77\n      jump\t// in\n    tag_74:\n      stop\n        /* \"TVNProject/TVNNFTPositionManager/TVNNFTPositionManager.sol\":475:524  mapping(uint256 => PositionInfo) public positions */\n    tag_15:\n      tag_78\n      0x04\n      dup1\n      calldatasize\n      sub\n      dup2\n      add\n      swap1\n      tag_79\n      swap2\n      swap1\n      tag_33\n      jump\t// in\n    tag_79:\n      tag_80\n      jump\t// in\n    tag_78:\n      mload(0x40)\n      tag_81\n      swap8\n      swap7\n      swap6\n      swap5\n      swap4\n      swap3\n      swap2\n      swap1\n      tag_82\n      jump\t// in\n    tag_81:\n      mload(0x40)\n      dup1\n      swap2\n      sub\n      swap1\n      return\n        /* \"LearnSolidity/ERC721/ERC721.sol\":1464:1663  function setApprovalForAll(address operator, bool _approved) external {... */\n    tag_16:\n      tag_83\n      0x04\n      dup1\n      calldatasize\n      sub\n      dup2\n      add\n      swap1\n      tag_84\n      swap2\n      swap1\n      tag_85\n      jump\t// in\n    tag_84:\n      tag_86\n      jump\t// in\n    tag_83:\n      stop\n        /* \"LearnSolidity/ERC721/ERC721.sol\":3506:4031  function safeTransferFrom(... */\n    tag_17:\n      tag_87\n      0x04\n      dup1\n      calldatasize\n      sub\n      dup2\n      add\n      swap1\n      tag_88\n      swap2\n      swap1\n      tag_89\n      jump\t// in\n    tag_88:\n      tag_90\n      jump\t// in\n    tag_87:\n      stop\n        /* \"TVNProject/TVNNFTPositionManager/TVNNFTPositionManager.sol\":3089:3233  function getOwnerNFT(address _owner)... */\n    tag_18:\n      tag_91\n      0x04\n      dup1\n      calldatasize\n      sub\n      dup2\n      add\n      swap1\n      tag_92\n      swap2\n      swap1\n      tag_57\n      jump\t// in\n    tag_92:\n      tag_93\n      jump\t// in\n    tag_91:\n      mload(0x40)\n      tag_94\n      swap2\n      swap1\n      tag_95\n      jump\t// in\n    tag_94:\n      mload(0x40)\n      dup1\n      swap2\n      sub\n      swap1\n      return\n        /* \"TVNProject/TVNNFTPositionManager/TVNNFTPositionManager.sol\":531:576  mapping(address => uint256[]) public ownerNFT */\n    tag_19:\n      tag_96\n      0x04\n      dup1\n      calldatasize\n      sub\n      dup2\n      add\n      swap1\n      tag_97\n      swap2\n      swap1\n      tag_39\n      jump\t// in\n    tag_97:\n      tag_98\n      jump\t// in\n    tag_96:\n      mload(0x40)\n      tag_99\n      swap2\n      swap1\n      tag_60\n      jump\t// in\n    tag_99:\n      mload(0x40)\n      dup1\n      swap2\n      sub\n      swap1\n      return\n        /* \"LearnSolidity/ERC721/ERC721.sol\":782:850  mapping(address => mapping(address => bool)) public isApprovalForAll */\n    tag_20:\n      tag_100\n      0x04\n      dup1\n      calldatasize\n      sub\n      dup2\n      add\n      swap1\n      tag_101\n      swap2\n      swap1\n      tag_102\n      jump\t// in\n    tag_101:\n      tag_103\n      jump\t// in\n    tag_100:\n      mload(0x40)\n      tag_104\n      swap2\n      swap1\n      tag_30\n      jump\t// in\n    tag_104:\n      mload(0x40)\n      dup1\n      swap2\n      sub\n      swap1\n      return\n        /* \"TVNProject/TVNNFTPositionManager/TVNNFTPositionManager.sol\":1927:2163  function burnPosition(uint256 _tokenId, address _from) external {... */\n    tag_21:\n      tag_105\n      0x04\n      dup1\n      calldatasize\n      sub\n      dup2\n      add\n      swap1\n      tag_106\n      swap2\n      swap1\n      tag_107\n      jump\t// in\n    tag_106:\n      tag_108\n      jump\t// in\n    tag_105:\n      stop\n        /* \"LearnSolidity/ERC721/ERC721.sol\":857:1093  function supportsInterface(bytes4 interfaceID)... */\n    tag_28:\n        /* \"LearnSolidity/ERC721/ERC721.sol\":951:955  bool */\n      0x00\n        /* \"LearnSolidity/ERC721/ERC721.sol\":1005:1030  type(IERC721).interfaceId */\n      0x80ac58cd00000000000000000000000000000000000000000000000000000000\n        /* \"LearnSolidity/ERC721/ERC721.sol\":990:1030  interfaceID == type(IERC721).interfaceId */\n      not(0xffffffffffffffffffffffffffffffffffffffffffffffffffffffff)\n      and\n        /* \"LearnSolidity/ERC721/ERC721.sol\":990:1001  interfaceID */\n      dup3\n        /* \"LearnSolidity/ERC721/ERC721.sol\":990:1030  interfaceID == type(IERC721).interfaceId */\n      not(0xffffffffffffffffffffffffffffffffffffffffffffffffffffffff)\n      and\n      eq\n        /* \"LearnSolidity/ERC721/ERC721.sol\":990:1086  interfaceID == type(IERC721).interfaceId ||... */\n      dup1\n      tag_110\n      jumpi\n      pop\n        /* \"LearnSolidity/ERC721/ERC721.sol\":1061:1086  type(IERC165).interfaceId */\n      0x01ffc9a700000000000000000000000000000000000000000000000000000000\n        /* \"LearnSolidity/ERC721/ERC721.sol\":1046:1086  interfaceID == type(IERC165).interfaceId */\n      not(0xffffffffffffffffffffffffffffffffffffffffffffffffffffffff)\n      and\n        /* \"LearnSolidity/ERC721/ERC721.sol\":1046:1057  interfaceID */\n      dup3\n        /* \"LearnSolidity/ERC721/ERC721.sol\":1046:1086  interfaceID == type(IERC165).interfaceId */\n      not(0xffffffffffffffffffffffffffffffffffffffffffffffffffffffff)\n      and\n      eq\n        /* \"LearnSolidity/ERC721/ERC721.sol\":990:1086  interfaceID == type(IERC721).interfaceId ||... */\n    tag_110:\n        /* \"LearnSolidity/ERC721/ERC721.sol\":971:1086  return... */\n      swap1\n      pop\n        /* \"LearnSolidity/ERC721/ERC721.sol\":857:1093  function supportsInterface(bytes4 interfaceID)... */\n      swap2\n      swap1\n      pop\n      jump\t// out\n        /* \"LearnSolidity/ERC721/ERC721.sol\":1987:2209  function getApproved(uint256 tokenId)... */\n    tag_34:\n        /* \"LearnSolidity/ERC721/ERC721.sol\":2072:2088  address operator */\n      0x00\n        /* \"LearnSolidity/ERC721/ERC721.sol\":2141:2142  0 */\n      dup1\n        /* \"LearnSolidity/ERC721/ERC721.sol\":2112:2143  _ownerOf[tokenId] != address(0) */\n      0xffffffffffffffffffffffffffffffffffffffff\n      and\n        /* \"LearnSolidity/ERC721/ERC721.sol\":2112:2120  _ownerOf */\n      0x00\n        /* \"LearnSolidity/ERC721/ERC721.sol\":2112:2129  _ownerOf[tokenId] */\n      dup1\n        /* \"LearnSolidity/ERC721/ERC721.sol\":2121:2128  tokenId */\n      dup5\n        /* \"LearnSolidity/ERC721/ERC721.sol\":2112:2129  _ownerOf[tokenId] */\n      dup2\n      mstore\n      0x20\n      add\n      swap1\n      dup2\n      mstore\n      0x20\n      add\n      0x00\n      keccak256\n      0x00\n      swap1\n      sload\n      swap1\n      0x0100\n      exp\n      swap1\n      div\n      0xffffffffffffffffffffffffffffffffffffffff\n      and\n        /* \"LearnSolidity/ERC721/ERC721.sol\":2112:2143  _ownerOf[tokenId] != address(0) */\n      0xffffffffffffffffffffffffffffffffffffffff\n      and\n      sub\n        /* \"LearnSolidity/ERC721/ERC721.sol\":2104:2166  require(_ownerOf[tokenId] != address(0), \"token does't exits\") */\n      tag_112\n      jumpi\n      mload(0x40)\n      0x08c379a000000000000000000000000000000000000000000000000000000000\n      dup2\n      mstore\n      0x04\n      add\n      tag_113\n      swap1\n      tag_114\n      jump\t// in\n    tag_113:\n      mload(0x40)\n      dup1\n      swap2\n      sub\n      swap1\n      revert\n    tag_112:\n        /* \"LearnSolidity/ERC721/ERC721.sol\":2183:2193  _approvals */\n      0x02\n        /* \"LearnSolidity/ERC721/ERC721.sol\":2183:2202  _approvals[tokenId] */\n      0x00\n        /* \"LearnSolidity/ERC721/ERC721.sol\":2194:2201  tokenId */\n      dup4\n        /* \"LearnSolidity/ERC721/ERC721.sol\":2183:2202  _approvals[tokenId] */\n      dup2\n      mstore\n      0x20\n      add\n      swap1\n      dup2\n      mstore\n      0x20\n      add\n      0x00\n      keccak256\n      0x00\n      swap1\n      sload\n      swap1\n      0x0100\n      exp\n      swap1\n      div\n      0xffffffffffffffffffffffffffffffffffffffff\n      and\n        /* \"LearnSolidity/ERC721/ERC721.sol\":2176:2202  return _approvals[tokenId] */\n      swap1\n      pop\n        /* \"LearnSolidity/ERC721/ERC721.sol\":1987:2209  function getApproved(uint256 tokenId)... */\n      swap2\n      swap1\n      pop\n      jump\t// out\n        /* \"LearnSolidity/ERC721/ERC721.sol\":1669:1981  function approve(address to, uint256 tokenId) external {... */\n    tag_40:\n        /* \"LearnSolidity/ERC721/ERC721.sol\":1734:1747  address owner */\n      0x00\n        /* \"LearnSolidity/ERC721/ERC721.sol\":1750:1758  _ownerOf */\n      dup1\n        /* \"LearnSolidity/ERC721/ERC721.sol\":1750:1767  _ownerOf[tokenId] */\n      0x00\n        /* \"LearnSolidity/ERC721/ERC721.sol\":1759:1766  tokenId */\n      dup4\n        /* \"LearnSolidity/ERC721/ERC721.sol\":1750:1767  _ownerOf[tokenId] */\n      dup2\n      mstore\n      0x20\n      add\n      swap1\n      dup2\n      mstore\n      0x20\n      add\n      0x00\n      keccak256\n      0x00\n      swap1\n      sload\n      swap1\n      0x0100\n      exp\n      swap1\n      div\n      0xffffffffffffffffffffffffffffffffffffffff\n      and\n        /* \"LearnSolidity/ERC721/ERC721.sol\":1734:1767  address owner = _ownerOf[tokenId] */\n      swap1\n      pop\n        /* \"LearnSolidity/ERC721/ERC721.sol\":1812:1817  owner */\n      dup1\n        /* \"LearnSolidity/ERC721/ERC721.sol\":1798:1817  msg.sender == owner */\n      0xffffffffffffffffffffffffffffffffffffffff\n      and\n        /* \"LearnSolidity/ERC721/ERC721.sol\":1798:1808  msg.sender */\n      caller\n        /* \"LearnSolidity/ERC721/ERC721.sol\":1798:1817  msg.sender == owner */\n      0xffffffffffffffffffffffffffffffffffffffff\n      and\n      eq\n        /* \"LearnSolidity/ERC721/ERC721.sol\":1798:1856  msg.sender == owner || isApprovalForAll[owner][msg.sender] */\n      dup1\n      tag_116\n      jumpi\n      pop\n        /* \"LearnSolidity/ERC721/ERC721.sol\":1821:1837  isApprovalForAll */\n      0x03\n        /* \"LearnSolidity/ERC721/ERC721.sol\":1821:1844  isApprovalForAll[owner] */\n      0x00\n        /* \"LearnSolidity/ERC721/ERC721.sol\":1838:1843  owner */\n      dup3\n        /* \"LearnSolidity/ERC721/ERC721.sol\":1821:1844  isApprovalForAll[owner] */\n      0xffffffffffffffffffffffffffffffffffffffff\n      and\n      0xffffffffffffffffffffffffffffffffffffffff\n      and\n      dup2\n      mstore\n      0x20\n      add\n      swap1\n      dup2\n      mstore\n      0x20\n      add\n      0x00\n      keccak256\n        /* \"LearnSolidity/ERC721/ERC721.sol\":1821:1856  isApprovalForAll[owner][msg.sender] */\n      0x00\n        /* \"LearnSolidity/ERC721/ERC721.sol\":1845:1855  msg.sender */\n      caller\n        /* \"LearnSolidity/ERC721/ERC721.sol\":1821:1856  isApprovalForAll[owner][msg.sender] */\n      0xffffffffffffffffffffffffffffffffffffffff\n      and\n      0xffffffffffffffffffffffffffffffffffffffff\n      and\n      dup2\n      mstore\n      0x20\n      add\n      swap1\n      dup2\n      mstore\n      0x20\n      add\n      0x00\n      keccak256\n      0x00\n      swap1\n      sload\n      swap1\n      0x0100\n      exp\n      swap1\n      div\n      0xff\n      and\n        /* \"LearnSolidity/ERC721/ERC721.sol\":1798:1856  msg.sender == owner || isApprovalForAll[owner][msg.sender] */\n    tag_116:\n        /* \"LearnSolidity/ERC721/ERC721.sol\":1777:1896  require(... */\n      tag_117\n      jumpi\n      mload(0x40)\n      0x08c379a000000000000000000000000000000000000000000000000000000000\n      dup2\n      mstore\n      0x04\n      add\n      tag_118\n      swap1\n      tag_119\n      jump\t// in\n    tag_118:\n      mload(0x40)\n      dup1\n      swap2\n      sub\n      swap1\n      revert\n    tag_117:\n        /* \"LearnSolidity/ERC721/ERC721.sol\":1928:1930  to */\n      dup3\n        /* \"LearnSolidity/ERC721/ERC721.sol\":1906:1916  _approvals */\n      0x02\n        /* \"LearnSolidity/ERC721/ERC721.sol\":1906:1925  _approvals[tokenId] */\n      0x00\n        /* \"LearnSolidity/ERC721/ERC721.sol\":1917:1924  tokenId */\n      dup5\n        /* \"LearnSolidity/ERC721/ERC721.sol\":1906:1925  _approvals[tokenId] */\n      dup2\n      mstore\n      0x20\n      add\n      swap1\n      dup2\n      mstore\n      0x20\n      add\n      0x00\n      keccak256\n      0x00\n        /* \"LearnSolidity/ERC721/ERC721.sol\":1906:1930  _approvals[tokenId] = to */\n      0x0100\n      exp\n      dup2\n      sload\n      dup2\n      0xffffffffffffffffffffffffffffffffffffffff\n      mul\n      not\n      and\n      swap1\n      dup4\n      0xffffffffffffffffffffffffffffffffffffffff\n      and\n      mul\n      or\n      swap1\n      sstore\n      pop\n        /* \"LearnSolidity/ERC721/ERC721.sol\":1966:1973  tokenId */\n      dup2\n        /* \"LearnSolidity/ERC721/ERC721.sol\":1962:1964  to */\n      dup4\n        /* \"LearnSolidity/ERC721/ERC721.sol\":1946:1974  Approval(owner, to, tokenId) */\n      0xffffffffffffffffffffffffffffffffffffffff\n      and\n        /* \"LearnSolidity/ERC721/ERC721.sol\":1955:1960  owner */\n      dup3\n        /* \"LearnSolidity/ERC721/ERC721.sol\":1946:1974  Approval(owner, to, tokenId) */\n      0xffffffffffffffffffffffffffffffffffffffff\n      and\n      0x8c5be1e5ebec7d5bd14f71427d1e84f3dd0314c0f7b2291e5b200ac8c7c3b925\n      mload(0x40)\n      mload(0x40)\n      dup1\n      swap2\n      sub\n      swap1\n      log4\n        /* \"LearnSolidity/ERC721/ERC721.sol\":1724:1981  {... */\n      pop\n        /* \"LearnSolidity/ERC721/ERC721.sol\":1669:1981  function approve(address to, uint256 tokenId) external {... */\n      pop\n      pop\n      jump\t// out\n        /* \"LearnSolidity/ERC721/ERC721.sol\":2493:3000  function transferFrom(... */\n    tag_44:\n        /* \"LearnSolidity/ERC721/ERC721.sol\":2621:2629  _ownerOf */\n      0x00\n        /* \"LearnSolidity/ERC721/ERC721.sol\":2621:2638  _ownerOf[tokenId] */\n      dup1\n        /* \"LearnSolidity/ERC721/ERC721.sol\":2630:2637  tokenId */\n      dup3\n        /* \"LearnSolidity/ERC721/ERC721.sol\":2621:2638  _ownerOf[tokenId] */\n      dup2\n      mstore\n      0x20\n      add\n      swap1\n      dup2\n      mstore\n      0x20\n      add\n      0x00\n      keccak256\n      0x00\n      swap1\n      sload\n      swap1\n      0x0100\n      exp\n      swap1\n      div\n      0xffffffffffffffffffffffffffffffffffffffff\n      and\n        /* \"LearnSolidity/ERC721/ERC721.sol\":2613:2638  from == _ownerOf[tokenId] */\n      0xffffffffffffffffffffffffffffffffffffffff\n      and\n        /* \"LearnSolidity/ERC721/ERC721.sol\":2613:2617  from */\n      dup4\n        /* \"LearnSolidity/ERC721/ERC721.sol\":2613:2638  from == _ownerOf[tokenId] */\n      0xffffffffffffffffffffffffffffffffffffffff\n      and\n      eq\n        /* \"LearnSolidity/ERC721/ERC721.sol\":2605:2656  require(from == _ownerOf[tokenId], \"from != owner\") */\n      tag_121\n      jumpi\n      mload(0x40)\n      0x08c379a000000000000000000000000000000000000000000000000000000000\n      dup2\n      mstore\n      0x04\n      add\n      tag_122\n      swap1\n      tag_123\n      jump\t// in\n    tag_122:\n      mload(0x40)\n      dup1\n      swap2\n      sub\n      swap1\n      revert\n    tag_121:\n        /* \"LearnSolidity/ERC721/ERC721.sol\":2688:2689  0 */\n      0x00\n        /* \"LearnSolidity/ERC721/ERC721.sol\":2674:2690  to != address(0) */\n      0xffffffffffffffffffffffffffffffffffffffff\n      and\n        /* \"LearnSolidity/ERC721/ERC721.sol\":2674:2676  to */\n      dup3\n        /* \"LearnSolidity/ERC721/ERC721.sol\":2674:2690  to != address(0) */\n      0xffffffffffffffffffffffffffffffffffffffff\n      and\n      sub\n        /* \"LearnSolidity/ERC721/ERC721.sol\":2666:2712  require(to != address(0), \"to = zero address\") */\n      tag_124\n      jumpi\n      mload(0x40)\n      0x08c379a000000000000000000000000000000000000000000000000000000000\n      dup2\n      mstore\n      0x04\n      add\n      tag_125\n      swap1\n      tag_126\n      jump\t// in\n    tag_125:\n      mload(0x40)\n      dup1\n      swap2\n      sub\n      swap1\n      revert\n    tag_124:\n        /* \"LearnSolidity/ERC721/ERC721.sol\":2743:2788  _isApprovedOrOwner(from, msg.sender, tokenId) */\n      tag_127\n        /* \"LearnSolidity/ERC721/ERC721.sol\":2762:2766  from */\n      dup4\n        /* \"LearnSolidity/ERC721/ERC721.sol\":2768:2778  msg.sender */\n      caller\n        /* \"LearnSolidity/ERC721/ERC721.sol\":2780:2787  tokenId */\n      dup4\n        /* \"LearnSolidity/ERC721/ERC721.sol\":2743:2761  _isApprovedOrOwner */\n      tag_128\n        /* \"LearnSolidity/ERC721/ERC721.sol\":2743:2788  _isApprovedOrOwner(from, msg.sender, tokenId) */\n      jump\t// in\n    tag_127:\n        /* \"LearnSolidity/ERC721/ERC721.sol\":2722:2828  require(... */\n      tag_129\n      jumpi\n      mload(0x40)\n      0x08c379a000000000000000000000000000000000000000000000000000000000\n      dup2\n      mstore\n      0x04\n      add\n      tag_130\n      swap1\n      tag_119\n      jump\t// in\n    tag_130:\n      mload(0x40)\n      dup1\n      swap2\n      sub\n      swap1\n      revert\n    tag_129:\n        /* \"LearnSolidity/ERC721/ERC721.sol\":2838:2848  _balanceOf */\n      0x01\n        /* \"LearnSolidity/ERC721/ERC721.sol\":2838:2854  _balanceOf[from] */\n      0x00\n        /* \"LearnSolidity/ERC721/ERC721.sol\":2849:2853  from */\n      dup5\n        /* \"LearnSolidity/ERC721/ERC721.sol\":2838:2854  _balanceOf[from] */\n      0xffffffffffffffffffffffffffffffffffffffff\n      and\n      0xffffffffffffffffffffffffffffffffffffffff\n      and\n      dup2\n      mstore\n      0x20\n      add\n      swap1\n      dup2\n      mstore\n      0x20\n      add\n      0x00\n      keccak256\n      0x00\n        /* \"LearnSolidity/ERC721/ERC721.sol\":2838:2856  _balanceOf[from]-- */\n      dup2\n      sload\n      dup1\n      swap3\n      swap2\n      swap1\n      tag_131\n      swap1\n      tag_132\n      jump\t// in\n    tag_131:\n      swap2\n      swap1\n      pop\n      sstore\n      pop\n        /* \"LearnSolidity/ERC721/ERC721.sol\":2866:2876  _balanceOf */\n      0x01\n        /* \"LearnSolidity/ERC721/ERC721.sol\":2866:2880  _balanceOf[to] */\n      0x00\n        /* \"LearnSolidity/ERC721/ERC721.sol\":2877:2879  to */\n      dup4\n        /* \"LearnSolidity/ERC721/ERC721.sol\":2866:2880  _balanceOf[to] */\n      0xffffffffffffffffffffffffffffffffffffffff\n      and\n      0xffffffffffffffffffffffffffffffffffffffff\n      and\n      dup2\n      mstore\n      0x20\n      add\n      swap1\n      dup2\n      mstore\n      0x20\n      add\n      0x00\n      keccak256\n      0x00\n        /* \"LearnSolidity/ERC721/ERC721.sol\":2866:2882  _balanceOf[to]++ */\n      dup2\n      sload\n      dup1\n      swap3\n      swap2\n      swap1\n      tag_133\n      swap1\n      tag_134\n      jump\t// in\n    tag_133:\n      swap2\n      swap1\n      pop\n      sstore\n      pop\n        /* \"LearnSolidity/ERC721/ERC721.sol\":2912:2914  to */\n      dup2\n        /* \"LearnSolidity/ERC721/ERC721.sol\":2892:2900  _ownerOf */\n      0x00\n        /* \"LearnSolidity/ERC721/ERC721.sol\":2892:2909  _ownerOf[tokenId] */\n      dup1\n        /* \"LearnSolidity/ERC721/ERC721.sol\":2901:2908  tokenId */\n      dup4\n        /* \"LearnSolidity/ERC721/ERC721.sol\":2892:2909  _ownerOf[tokenId] */\n      dup2\n      mstore\n      0x20\n      add\n      swap1\n      dup2\n      mstore\n      0x20\n      add\n      0x00\n      keccak256\n      0x00\n        /* \"LearnSolidity/ERC721/ERC721.sol\":2892:2914  _ownerOf[tokenId] = to */\n      0x0100\n      exp\n      dup2\n      sload\n      dup2\n      0xffffffffffffffffffffffffffffffffffffffff\n      mul\n      not\n      and\n      swap1\n      dup4\n      0xffffffffffffffffffffffffffffffffffffffff\n      and\n      mul\n      or\n      swap1\n      sstore\n      pop\n        /* \"LearnSolidity/ERC721/ERC721.sol\":2932:2942  _approvals */\n      0x02\n        /* \"LearnSolidity/ERC721/ERC721.sol\":2932:2951  _approvals[tokenId] */\n      0x00\n        /* \"LearnSolidity/ERC721/ERC721.sol\":2943:2950  tokenId */\n      dup3\n        /* \"LearnSolidity/ERC721/ERC721.sol\":2932:2951  _approvals[tokenId] */\n      dup2\n      mstore\n      0x20\n      add\n      swap1\n      dup2\n      mstore\n      0x20\n      add\n      0x00\n      keccak256\n      0x00\n        /* \"LearnSolidity/ERC721/ERC721.sol\":2925:2951  delete _approvals[tokenId] */\n      0x0100\n      exp\n      dup2\n      sload\n      swap1\n      0xffffffffffffffffffffffffffffffffffffffff\n      mul\n      not\n      and\n      swap1\n      sstore\n        /* \"LearnSolidity/ERC721/ERC721.sol\":2985:2992  tokenId */\n      dup1\n        /* \"LearnSolidity/ERC721/ERC721.sol\":2981:2983  to */\n      dup3\n        /* \"LearnSolidity/ERC721/ERC721.sol\":2966:2993  Transfer(from, to, tokenId) */\n      0xffffffffffffffffffffffffffffffffffffffff\n      and\n        /* \"LearnSolidity/ERC721/ERC721.sol\":2975:2979  from */\n      dup5\n        /* \"LearnSolidity/ERC721/ERC721.sol\":2966:2993  Transfer(from, to, tokenId) */\n      0xffffffffffffffffffffffffffffffffffffffff\n      and\n      0xddf252ad1be2c89b69c2b068fc378daa952ba7f163c4a11628f55a4df523b3ef\n      mload(0x40)\n      mload(0x40)\n      dup1\n      swap2\n      sub\n      swap1\n      log4\n        /* \"LearnSolidity/ERC721/ERC721.sol\":2493:3000  function transferFrom(... */\n      pop\n      pop\n      pop\n      jump\t// out\n        /* \"TVNProject/TVNNFTPositionManager/TVNNFTPositionManager.sol\":2169:2484  function transferPosition(... */\n    tag_47:\n        /* \"TVNProject/TVNNFTPositionManager/TVNNFTPositionManager.sol\":2290:2324  transferFrom(_from, _to, _tokenId) */\n      tag_136\n        /* \"TVNProject/TVNNFTPositionManager/TVNNFTPositionManager.sol\":2303:2308  _from */\n      dup4\n        /* \"TVNProject/TVNNFTPositionManager/TVNNFTPositionManager.sol\":2310:2313  _to */\n      dup4\n        /* \"TVNProject/TVNNFTPositionManager/TVNNFTPositionManager.sol\":2315:2323  _tokenId */\n      dup4\n        /* \"TVNProject/TVNNFTPositionManager/TVNNFTPositionManager.sol\":2290:2302  transferFrom */\n      tag_44\n        /* \"TVNProject/TVNNFTPositionManager/TVNNFTPositionManager.sol\":2290:2324  transferFrom(_from, _to, _tokenId) */\n      jump\t// in\n    tag_136:\n        /* \"TVNProject/TVNNFTPositionManager/TVNNFTPositionManager.sol\":2335:2368  _removeFromArray(_tokenId, _from) */\n      tag_137\n        /* \"TVNProject/TVNNFTPositionManager/TVNNFTPositionManager.sol\":2352:2360  _tokenId */\n      dup2\n        /* \"TVNProject/TVNNFTPositionManager/TVNNFTPositionManager.sol\":2362:2367  _from */\n      dup5\n        /* \"TVNProject/TVNNFTPositionManager/TVNNFTPositionManager.sol\":2335:2351  _removeFromArray */\n      tag_138\n        /* \"TVNProject/TVNNFTPositionManager/TVNNFTPositionManager.sol\":2335:2368  _removeFromArray(_tokenId, _from) */\n      jump\t// in\n    tag_137:\n        /* \"TVNProject/TVNNFTPositionManager/TVNNFTPositionManager.sol\":2379:2387  ownerNFT */\n      0x08\n        /* \"TVNProject/TVNNFTPositionManager/TVNNFTPositionManager.sol\":2379:2392  ownerNFT[_to] */\n      0x00\n        /* \"TVNProject/TVNNFTPositionManager/TVNNFTPositionManager.sol\":2388:2391  _to */\n      dup4\n        /* \"TVNProject/TVNNFTPositionManager/TVNNFTPositionManager.sol\":2379:2392  ownerNFT[_to] */\n      0xffffffffffffffffffffffffffffffffffffffff\n      and\n      0xffffffffffffffffffffffffffffffffffffffff\n      and\n      dup2\n      mstore\n      0x20\n      add\n      swap1\n      dup2\n      mstore\n      0x20\n      add\n      0x00\n      keccak256\n        /* \"TVNProject/TVNNFTPositionManager/TVNNFTPositionManager.sol\":2398:2406  _tokenId */\n      dup2\n        /* \"TVNProject/TVNNFTPositionManager/TVNNFTPositionManager.sol\":2379:2407  ownerNFT[_to].push(_tokenId) */\n      swap1\n      dup1\n      0x01\n      dup2\n      sload\n      add\n      dup1\n      dup3\n      sstore\n      dup1\n      swap2\n      pop\n      pop\n      0x01\n      swap1\n      sub\n      swap1\n      0x00\n      mstore\n      keccak256(0x00, 0x20)\n      add\n      0x00\n      swap1\n      swap2\n      swap1\n      swap2\n      swap1\n      swap2\n      pop\n      sstore\n        /* \"TVNProject/TVNNFTPositionManager/TVNNFTPositionManager.sol\":2476:2477  1 */\n      0x01\n        /* \"TVNProject/TVNNFTPositionManager/TVNNFTPositionManager.sol\":2453:2461  ownerNFT */\n      0x08\n        /* \"TVNProject/TVNNFTPositionManager/TVNNFTPositionManager.sol\":2453:2466  ownerNFT[_to] */\n      0x00\n        /* \"TVNProject/TVNNFTPositionManager/TVNNFTPositionManager.sol\":2462:2465  _to */\n      dup5\n        /* \"TVNProject/TVNNFTPositionManager/TVNNFTPositionManager.sol\":2453:2466  ownerNFT[_to] */\n      0xffffffffffffffffffffffffffffffffffffffff\n      and\n      0xffffffffffffffffffffffffffffffffffffffff\n      and\n      dup2\n      mstore\n      0x20\n      add\n      swap1\n      dup2\n      mstore\n      0x20\n      add\n      0x00\n      keccak256\n        /* \"TVNProject/TVNNFTPositionManager/TVNNFTPositionManager.sol\":2453:2473  ownerNFT[_to].length */\n      dup1\n      sload\n      swap1\n      pop\n        /* \"TVNProject/TVNNFTPositionManager/TVNNFTPositionManager.sol\":2453:2477  ownerNFT[_to].length - 1 */\n      tag_140\n      swap2\n      swap1\n      tag_141\n      jump\t// in\n    tag_140:\n        /* \"TVNProject/TVNNFTPositionManager/TVNNFTPositionManager.sol\":2417:2432  indexOfOwnerNFT */\n      0x09\n        /* \"TVNProject/TVNNFTPositionManager/TVNNFTPositionManager.sol\":2417:2437  indexOfOwnerNFT[_to] */\n      0x00\n        /* \"TVNProject/TVNNFTPositionManager/TVNNFTPositionManager.sol\":2433:2436  _to */\n      dup5\n        /* \"TVNProject/TVNNFTPositionManager/TVNNFTPositionManager.sol\":2417:2437  indexOfOwnerNFT[_to] */\n      0xffffffffffffffffffffffffffffffffffffffff\n      and\n      0xffffffffffffffffffffffffffffffffffffffff\n      and\n      dup2\n      mstore\n      0x20\n      add\n      swap1\n      dup2\n      mstore\n      0x20\n      add\n      0x00\n      keccak256\n        /* \"TVNProject/TVNNFTPositionManager/TVNNFTPositionManager.sol\":2417:2450  indexOfOwnerNFT[_to][tokenIdNext] */\n      0x00\n        /* \"TVNProject/TVNNFTPositionManager/TVNNFTPositionManager.sol\":2438:2449  tokenIdNext */\n      sload(0x06)\n        /* \"TVNProject/TVNNFTPositionManager/TVNNFTPositionManager.sol\":2417:2450  indexOfOwnerNFT[_to][tokenIdNext] */\n      dup2\n      mstore\n      0x20\n      add\n      swap1\n      dup2\n      mstore\n      0x20\n      add\n      0x00\n      keccak256\n        /* \"TVNProject/TVNNFTPositionManager/TVNNFTPositionManager.sol\":2417:2477  indexOfOwnerNFT[_to][tokenIdNext] = ownerNFT[_to].length - 1 */\n      dup2\n      swap1\n      sstore\n      pop\n        /* \"TVNProject/TVNNFTPositionManager/TVNNFTPositionManager.sol\":2169:2484  function transferPosition(... */\n      pop\n      pop\n      pop\n      jump\t// out\n        /* \"LearnSolidity/ERC721/ERC721.sol\":3006:3500  function safeTransferFrom(... */\n    tag_50:\n        /* \"LearnSolidity/ERC721/ERC721.sol\":3124:3155  transferFrom(from, to, tokenId) */\n      tag_143\n        /* \"LearnSolidity/ERC721/ERC721.sol\":3137:3141  from */\n      dup4\n        /* \"LearnSolidity/ERC721/ERC721.sol\":3143:3145  to */\n      dup4\n        /* \"LearnSolidity/ERC721/ERC721.sol\":3147:3154  tokenId */\n      dup4\n        /* \"LearnSolidity/ERC721/ERC721.sol\":3124:3136  transferFrom */\n      tag_44\n        /* \"LearnSolidity/ERC721/ERC721.sol\":3124:3155  transferFrom(from, to, tokenId) */\n      jump\t// in\n    tag_143:\n        /* \"LearnSolidity/ERC721/ERC721.sol\":3204:3205  0 */\n      0x00\n        /* \"LearnSolidity/ERC721/ERC721.sol\":3186:3188  to */\n      dup3\n        /* \"LearnSolidity/ERC721/ERC721.sol\":3186:3200  to.code.length */\n      0xffffffffffffffffffffffffffffffffffffffff\n      and\n      extcodesize\n        /* \"LearnSolidity/ERC721/ERC721.sol\":3186:3205  to.code.length == 0 */\n      eq\n        /* \"LearnSolidity/ERC721/ERC721.sol\":3186:3451  to.code.length == 0 ||... */\n      dup1\n      tag_144\n      jumpi\n      pop\n        /* \"LearnSolidity/ERC721/ERC721.sol\":3410:3451  IERC721Receiver.onERC721Received.selector */\n      shl(0xe0, 0x150b7a02)\n        /* \"LearnSolidity/ERC721/ERC721.sol\":3225:3451  IERC721Receiver(to).onERC721Received(... */\n      not(0xffffffffffffffffffffffffffffffffffffffffffffffffffffffff)\n      and\n        /* \"LearnSolidity/ERC721/ERC721.sol\":3241:3243  to */\n      dup3\n        /* \"LearnSolidity/ERC721/ERC721.sol\":3225:3261  IERC721Receiver(to).onERC721Received */\n      0xffffffffffffffffffffffffffffffffffffffff\n      and\n      0x150b7a02\n        /* \"LearnSolidity/ERC721/ERC721.sol\":3283:3293  msg.sender */\n      caller\n        /* \"LearnSolidity/ERC721/ERC721.sol\":3315:3319  from */\n      dup7\n        /* \"LearnSolidity/ERC721/ERC721.sol\":3341:3348  tokenId */\n      dup6\n        /* \"LearnSolidity/ERC721/ERC721.sol\":3225:3390  IERC721Receiver(to).onERC721Received(... */\n      mload(0x40)\n      dup5\n      0xffffffff\n      and\n      0xe0\n      shl\n      dup2\n      mstore\n      0x04\n      add\n      tag_145\n      swap4\n      swap3\n      swap2\n      swap1\n      tag_146\n      jump\t// in\n    tag_145:\n      0x20\n      mload(0x40)\n      dup1\n      dup4\n      sub\n      dup2\n      0x00\n      dup8\n      gas\n      call\n      iszero\n      dup1\n      iszero\n      tag_148\n      jumpi\n      returndatasize\n      0x00\n      dup1\n      returndatacopy\n      revert(0x00, returndatasize)\n    tag_148:\n      pop\n      pop\n      pop\n      pop\n      mload(0x40)\n      returndatasize\n      not(0x1f)\n      0x1f\n      dup3\n      add\n      and\n      dup3\n      add\n      dup1\n      0x40\n      mstore\n      pop\n      dup2\n      add\n      swap1\n      tag_149\n      swap2\n      swap1\n      tag_150\n      jump\t// in\n    tag_149:\n        /* \"LearnSolidity/ERC721/ERC721.sol\":3225:3451  IERC721Receiver(to).onERC721Received(... */\n      not(0xffffffffffffffffffffffffffffffffffffffffffffffffffffffff)\n      and\n      eq\n        /* \"LearnSolidity/ERC721/ERC721.sol\":3186:3451  to.code.length == 0 ||... */\n    tag_144:\n        /* \"LearnSolidity/ERC721/ERC721.sol\":3165:3493  require(... */\n      tag_151\n      jumpi\n      mload(0x40)\n      0x08c379a000000000000000000000000000000000000000000000000000000000\n      dup2\n      mstore\n      0x04\n      add\n      tag_152\n      swap1\n      tag_153\n      jump\t// in\n    tag_152:\n      mload(0x40)\n      dup1\n      swap2\n      sub\n      swap1\n      revert\n    tag_151:\n        /* \"LearnSolidity/ERC721/ERC721.sol\":3006:3500  function safeTransferFrom(... */\n      pop\n      pop\n      pop\n      jump\t// out\n        /* \"LearnSolidity/ERC721/ERC721.sol\":1282:1458  function ownerOf(uint256 tokenId) external view returns (address owner) {... */\n    tag_53:\n        /* \"LearnSolidity/ERC721/ERC721.sol\":1339:1352  address owner */\n      0x00\n        /* \"LearnSolidity/ERC721/ERC721.sol\":1372:1380  _ownerOf */\n      dup1\n        /* \"LearnSolidity/ERC721/ERC721.sol\":1372:1389  _ownerOf[tokenId] */\n      0x00\n        /* \"LearnSolidity/ERC721/ERC721.sol\":1381:1388  tokenId */\n      dup4\n        /* \"LearnSolidity/ERC721/ERC721.sol\":1372:1389  _ownerOf[tokenId] */\n      dup2\n      mstore\n      0x20\n      add\n      swap1\n      dup2\n      mstore\n      0x20\n      add\n      0x00\n      keccak256\n      0x00\n      swap1\n      sload\n      swap1\n      0x0100\n      exp\n      swap1\n      div\n      0xffffffffffffffffffffffffffffffffffffffff\n      and\n        /* \"LearnSolidity/ERC721/ERC721.sol\":1364:1389  owner = _ownerOf[tokenId] */\n      swap1\n      pop\n        /* \"LearnSolidity/ERC721/ERC721.sol\":1424:1425  0 */\n      0x00\n        /* \"LearnSolidity/ERC721/ERC721.sol\":1407:1426  owner != address(0) */\n      0xffffffffffffffffffffffffffffffffffffffff\n      and\n        /* \"LearnSolidity/ERC721/ERC721.sol\":1407:1412  owner */\n      dup2\n        /* \"LearnSolidity/ERC721/ERC721.sol\":1407:1426  owner != address(0) */\n      0xffffffffffffffffffffffffffffffffffffffff\n      and\n      sub\n        /* \"LearnSolidity/ERC721/ERC721.sol\":1399:1451  require(owner != address(0), \"owner = zero address\") */\n      tag_155\n      jumpi\n      mload(0x40)\n      0x08c379a000000000000000000000000000000000000000000000000000000000\n      dup2\n      mstore\n      0x04\n      add\n      tag_156\n      swap1\n      tag_157\n      jump\t// in\n    tag_156:\n      mload(0x40)\n      dup1\n      swap2\n      sub\n      swap1\n      revert\n    tag_155:\n        /* \"LearnSolidity/ERC721/ERC721.sol\":1282:1458  function ownerOf(uint256 tokenId) external view returns (address owner) {... */\n      swap2\n      swap1\n      pop\n      jump\t// out\n        /* \"LearnSolidity/ERC721/ERC721.sol\":1099:1276  function balanceOf(address owner) external view returns (uint256 balance) {... */\n    tag_58:\n        /* \"LearnSolidity/ERC721/ERC721.sol\":1156:1171  uint256 balance */\n      0x00\n        /* \"LearnSolidity/ERC721/ERC721.sol\":1208:1209  0 */\n      dup1\n        /* \"LearnSolidity/ERC721/ERC721.sol\":1191:1210  owner != address(0) */\n      0xffffffffffffffffffffffffffffffffffffffff\n      and\n        /* \"LearnSolidity/ERC721/ERC721.sol\":1191:1196  owner */\n      dup3\n        /* \"LearnSolidity/ERC721/ERC721.sol\":1191:1210  owner != address(0) */\n      0xffffffffffffffffffffffffffffffffffffffff\n      and\n      sub\n        /* \"LearnSolidity/ERC721/ERC721.sol\":1183:1235  require(owner != address(0), \"owner = zero address\") */\n      tag_159\n      jumpi\n      mload(0x40)\n      0x08c379a000000000000000000000000000000000000000000000000000000000\n      dup2\n      mstore\n      0x04\n      add\n      tag_160\n      swap1\n      tag_157\n      jump\t// in\n    tag_160:\n      mload(0x40)\n      dup1\n      swap2\n      sub\n      swap1\n      revert\n    tag_159:\n        /* \"LearnSolidity/ERC721/ERC721.sol\":1252:1262  _balanceOf */\n      0x01\n        /* \"LearnSolidity/ERC721/ERC721.sol\":1252:1269  _balanceOf[owner] */\n      0x00\n        /* \"LearnSolidity/ERC721/ERC721.sol\":1263:1268  owner */\n      dup4\n        /* \"LearnSolidity/ERC721/ERC721.sol\":1252:1269  _balanceOf[owner] */\n      0xffffffffffffffffffffffffffffffffffffffff\n      and\n      0xffffffffffffffffffffffffffffffffffffffff\n      and\n      dup2\n      mstore\n      0x20\n      add\n      swap1\n      dup2\n      mstore\n      0x20\n      add\n      0x00\n      keccak256\n      sload\n        /* \"LearnSolidity/ERC721/ERC721.sol\":1245:1269  return _balanceOf[owner] */\n      swap1\n      pop\n        /* \"LearnSolidity/ERC721/ERC721.sol\":1099:1276  function balanceOf(address owner) external view returns (uint256 balance) {... */\n      swap2\n      swap1\n      pop\n      jump\t// out\n        /* \"TVNProject/TVNNFTPositionManager/TVNNFTPositionManager.sol\":582:652  mapping(address => mapping(uint256 => uint256)) public indexOfOwnerNFT */\n    tag_63:\n      mstore(0x20, 0x09)\n      dup2\n      0x00\n      mstore\n      mstore(0x20, keccak256(0x00, 0x40))\n      dup1\n      0x00\n      mstore\n      keccak256(0x00, 0x40)\n      0x00\n      swap2\n      pop\n      swap2\n      pop\n      pop\n      sload\n      dup2\n      jump\t// out\n        /* \"TVNProject/TVNNFTPositionManager/TVNNFTPositionManager.sol\":776:1316  function mintParams(... */\n    tag_68:\n        /* \"TVNProject/TVNNFTPositionManager/TVNNFTPositionManager.sol\":998:1017  PositionInfo memory */\n      tag_161\n      tag_162\n      jump\t// in\n    tag_161:\n        /* \"TVNProject/TVNNFTPositionManager/TVNNFTPositionManager.sol\":1029:1057  PositionInfo memory position */\n      0x00\n        /* \"TVNProject/TVNNFTPositionManager/TVNNFTPositionManager.sol\":1060:1283  PositionInfo({... */\n      mload(0x40)\n      dup1\n      0xe0\n      add\n      0x40\n      mstore\n      dup1\n        /* \"TVNProject/TVNNFTPositionManager/TVNNFTPositionManager.sol\":1095:1102  _shares */\n      dup11\n        /* \"TVNProject/TVNNFTPositionManager/TVNNFTPositionManager.sol\":1060:1283  PositionInfo({... */\n      dup2\n      mstore\n      0x20\n      add\n        /* \"TVNProject/TVNNFTPositionManager/TVNNFTPositionManager.sol\":1123:1129  _owner */\n      dup10\n        /* \"TVNProject/TVNNFTPositionManager/TVNNFTPositionManager.sol\":1060:1283  PositionInfo({... */\n      0xffffffffffffffffffffffffffffffffffffffff\n      and\n      dup2\n      mstore\n      0x20\n      add\n        /* \"TVNProject/TVNNFTPositionManager/TVNNFTPositionManager.sol\":1151:1158  _token0 */\n      dup9\n        /* \"TVNProject/TVNNFTPositionManager/TVNNFTPositionManager.sol\":1060:1283  PositionInfo({... */\n      0xffffffffffffffffffffffffffffffffffffffff\n      and\n      dup2\n      mstore\n      0x20\n      add\n        /* \"TVNProject/TVNNFTPositionManager/TVNNFTPositionManager.sol\":1180:1187  _token1 */\n      dup8\n        /* \"TVNProject/TVNNFTPositionManager/TVNNFTPositionManager.sol\":1060:1283  PositionInfo({... */\n      0xffffffffffffffffffffffffffffffffffffffff\n      and\n      dup2\n      mstore\n      0x20\n      add\n        /* \"TVNProject/TVNNFTPositionManager/TVNNFTPositionManager.sol\":1206:1210  _fee */\n      dup7\n        /* \"TVNProject/TVNNFTPositionManager/TVNNFTPositionManager.sol\":1060:1283  PositionInfo({... */\n      dup2\n      mstore\n      0x20\n      add\n        /* \"TVNProject/TVNNFTPositionManager/TVNNFTPositionManager.sol\":1233:1241  _amount0 */\n      dup6\n        /* \"TVNProject/TVNNFTPositionManager/TVNNFTPositionManager.sol\":1060:1283  PositionInfo({... */\n      dup2\n      mstore\n      0x20\n      add\n        /* \"TVNProject/TVNNFTPositionManager/TVNNFTPositionManager.sol\":1264:1272  _amount1 */\n      dup5\n        /* \"TVNProject/TVNNFTPositionManager/TVNNFTPositionManager.sol\":1060:1283  PositionInfo({... */\n      dup2\n      mstore\n      pop\n        /* \"TVNProject/TVNNFTPositionManager/TVNNFTPositionManager.sol\":1029:1283  PositionInfo memory position = PositionInfo({... */\n      swap1\n      pop\n        /* \"TVNProject/TVNNFTPositionManager/TVNNFTPositionManager.sol\":1301:1309  position */\n      dup1\n        /* \"TVNProject/TVNNFTPositionManager/TVNNFTPositionManager.sol\":1294:1309  return position */\n      swap2\n      pop\n      pop\n        /* \"TVNProject/TVNNFTPositionManager/TVNNFTPositionManager.sol\":776:1316  function mintParams(... */\n      swap8\n      swap7\n      pop\n      pop\n      pop\n      pop\n      pop\n      pop\n      pop\n      jump\t// out\n        /* \"TVNProject/TVNNFTPositionManager/TVNNFTPositionManager.sol\":239:269  uint256 public tokenIdNext = 1 */\n    tag_72:\n      sload(0x06)\n      dup2\n      jump\t// out\n        /* \"TVNProject/TVNNFTPositionManager/TVNNFTPositionManager.sol\":1322:1921  function mintPosition(address _to, PositionInfo calldata params) external {... */\n    tag_77:\n        /* \"TVNProject/TVNNFTPositionManager/TVNNFTPositionManager.sol\":1406:1429  _mint(_to, tokenIdNext) */\n      tag_165\n        /* \"TVNProject/TVNNFTPositionManager/TVNNFTPositionManager.sol\":1412:1415  _to */\n      dup3\n        /* \"TVNProject/TVNNFTPositionManager/TVNNFTPositionManager.sol\":1417:1428  tokenIdNext */\n      sload(0x06)\n        /* \"TVNProject/TVNNFTPositionManager/TVNNFTPositionManager.sol\":1406:1411  _mint */\n      tag_166\n        /* \"TVNProject/TVNNFTPositionManager/TVNNFTPositionManager.sol\":1406:1429  _mint(_to, tokenIdNext) */\n      jump\t// in\n    tag_165:\n        /* \"TVNProject/TVNNFTPositionManager/TVNNFTPositionManager.sol\":1440:1448  ownerNFT */\n      0x08\n        /* \"TVNProject/TVNNFTPositionManager/TVNNFTPositionManager.sol\":1440:1453  ownerNFT[_to] */\n      0x00\n        /* \"TVNProject/TVNNFTPositionManager/TVNNFTPositionManager.sol\":1449:1452  _to */\n      dup4\n        /* \"TVNProject/TVNNFTPositionManager/TVNNFTPositionManager.sol\":1440:1453  ownerNFT[_to] */\n      0xffffffffffffffffffffffffffffffffffffffff\n      and\n      0xffffffffffffffffffffffffffffffffffffffff\n      and\n      dup2\n      mstore\n      0x20\n      add\n      swap1\n      dup2\n      mstore\n      0x20\n      add\n      0x00\n      keccak256\n        /* \"TVNProject/TVNNFTPositionManager/TVNNFTPositionManager.sol\":1459:1470  tokenIdNext */\n      sload(0x06)\n        /* \"TVNProject/TVNNFTPositionManager/TVNNFTPositionManager.sol\":1440:1471  ownerNFT[_to].push(tokenIdNext) */\n      swap1\n      dup1\n      0x01\n      dup2\n      sload\n      add\n      dup1\n      dup3\n      sstore\n      dup1\n      swap2\n      pop\n      pop\n      0x01\n      swap1\n      sub\n      swap1\n      0x00\n      mstore\n      keccak256(0x00, 0x20)\n      add\n      0x00\n      swap1\n      swap2\n      swap1\n      swap2\n      swap1\n      swap2\n      pop\n      sstore\n        /* \"TVNProject/TVNNFTPositionManager/TVNNFTPositionManager.sol\":1540:1541  1 */\n      0x01\n        /* \"TVNProject/TVNNFTPositionManager/TVNNFTPositionManager.sol\":1517:1525  ownerNFT */\n      0x08\n        /* \"TVNProject/TVNNFTPositionManager/TVNNFTPositionManager.sol\":1517:1530  ownerNFT[_to] */\n      0x00\n        /* \"TVNProject/TVNNFTPositionManager/TVNNFTPositionManager.sol\":1526:1529  _to */\n      dup5\n        /* \"TVNProject/TVNNFTPositionManager/TVNNFTPositionManager.sol\":1517:1530  ownerNFT[_to] */\n      0xffffffffffffffffffffffffffffffffffffffff\n      and\n      0xffffffffffffffffffffffffffffffffffffffff\n      and\n      dup2\n      mstore\n      0x20\n      add\n      swap1\n      dup2\n      mstore\n      0x20\n      add\n      0x00\n      keccak256\n        /* \"TVNProject/TVNNFTPositionManager/TVNNFTPositionManager.sol\":1517:1537  ownerNFT[_to].length */\n      dup1\n      sload\n      swap1\n      pop\n        /* \"TVNProject/TVNNFTPositionManager/TVNNFTPositionManager.sol\":1517:1541  ownerNFT[_to].length - 1 */\n      tag_168\n      swap2\n      swap1\n      tag_141\n      jump\t// in\n    tag_168:\n        /* \"TVNProject/TVNNFTPositionManager/TVNNFTPositionManager.sol\":1481:1496  indexOfOwnerNFT */\n      0x09\n        /* \"TVNProject/TVNNFTPositionManager/TVNNFTPositionManager.sol\":1481:1501  indexOfOwnerNFT[_to] */\n      0x00\n        /* \"TVNProject/TVNNFTPositionManager/TVNNFTPositionManager.sol\":1497:1500  _to */\n      dup5\n        /* \"TVNProject/TVNNFTPositionManager/TVNNFTPositionManager.sol\":1481:1501  indexOfOwnerNFT[_to] */\n      0xffffffffffffffffffffffffffffffffffffffff\n      and\n      0xffffffffffffffffffffffffffffffffffffffff\n      and\n      dup2\n      mstore\n      0x20\n      add\n      swap1\n      dup2\n      mstore\n      0x20\n      add\n      0x00\n      keccak256\n        /* \"TVNProject/TVNNFTPositionManager/TVNNFTPositionManager.sol\":1481:1514  indexOfOwnerNFT[_to][tokenIdNext] */\n      0x00\n        /* \"TVNProject/TVNNFTPositionManager/TVNNFTPositionManager.sol\":1502:1513  tokenIdNext */\n      sload(0x06)\n        /* \"TVNProject/TVNNFTPositionManager/TVNNFTPositionManager.sol\":1481:1514  indexOfOwnerNFT[_to][tokenIdNext] */\n      dup2\n      mstore\n      0x20\n      add\n      swap1\n      dup2\n      mstore\n      0x20\n      add\n      0x00\n      keccak256\n        /* \"TVNProject/TVNNFTPositionManager/TVNNFTPositionManager.sol\":1481:1541  indexOfOwnerNFT[_to][tokenIdNext] = ownerNFT[_to].length - 1 */\n      dup2\n      swap1\n      sstore\n      pop\n        /* \"TVNProject/TVNNFTPositionManager/TVNNFTPositionManager.sol\":1552:1581  PositionInfo storage position */\n      0x00\n        /* \"TVNProject/TVNNFTPositionManager/TVNNFTPositionManager.sol\":1584:1593  positions */\n      0x07\n        /* \"TVNProject/TVNNFTPositionManager/TVNNFTPositionManager.sol\":1584:1606  positions[tokenIdNext] */\n      0x00\n        /* \"TVNProject/TVNNFTPositionManager/TVNNFTPositionManager.sol\":1594:1605  tokenIdNext */\n      sload(0x06)\n        /* \"TVNProject/TVNNFTPositionManager/TVNNFTPositionManager.sol\":1584:1606  positions[tokenIdNext] */\n      dup2\n      mstore\n      0x20\n      add\n      swap1\n      dup2\n      mstore\n      0x20\n      add\n      0x00\n      keccak256\n        /* \"TVNProject/TVNNFTPositionManager/TVNNFTPositionManager.sol\":1552:1606  PositionInfo storage position = positions[tokenIdNext] */\n      swap1\n      pop\n        /* \"TVNProject/TVNNFTPositionManager/TVNNFTPositionManager.sol\":1635:1641  params */\n      dup2\n        /* \"TVNProject/TVNNFTPositionManager/TVNNFTPositionManager.sol\":1635:1648  params.shares */\n      0x00\n      add\n      calldataload\n        /* \"TVNProject/TVNNFTPositionManager/TVNNFTPositionManager.sol\":1617:1625  position */\n      dup2\n        /* \"TVNProject/TVNNFTPositionManager/TVNNFTPositionManager.sol\":1617:1632  position.shares */\n      0x00\n      add\n        /* \"TVNProject/TVNNFTPositionManager/TVNNFTPositionManager.sol\":1617:1648  position.shares = params.shares */\n      dup2\n      swap1\n      sstore\n      pop\n        /* \"TVNProject/TVNNFTPositionManager/TVNNFTPositionManager.sol\":1675:1681  params */\n      dup2\n        /* \"TVNProject/TVNNFTPositionManager/TVNNFTPositionManager.sol\":1675:1687  params.owner */\n      0x20\n      add\n      0x20\n      dup2\n      add\n      swap1\n      tag_169\n      swap2\n      swap1\n      tag_57\n      jump\t// in\n    tag_169:\n        /* \"TVNProject/TVNNFTPositionManager/TVNNFTPositionManager.sol\":1658:1666  position */\n      dup2\n        /* \"TVNProject/TVNNFTPositionManager/TVNNFTPositionManager.sol\":1658:1672  position.owner */\n      0x01\n      add\n      0x00\n        /* \"TVNProject/TVNNFTPositionManager/TVNNFTPositionManager.sol\":1658:1687  position.owner = params.owner */\n      0x0100\n      exp\n      dup2\n      sload\n      dup2\n      0xffffffffffffffffffffffffffffffffffffffff\n      mul\n      not\n      and\n      swap1\n      dup4\n      0xffffffffffffffffffffffffffffffffffffffff\n      and\n      mul\n      or\n      swap1\n      sstore\n      pop\n        /* \"TVNProject/TVNNFTPositionManager/TVNNFTPositionManager.sol\":1715:1721  params */\n      dup2\n        /* \"TVNProject/TVNNFTPositionManager/TVNNFTPositionManager.sol\":1715:1728  params.token0 */\n      0x40\n      add\n      0x20\n      dup2\n      add\n      swap1\n      tag_170\n      swap2\n      swap1\n      tag_57\n      jump\t// in\n    tag_170:\n        /* \"TVNProject/TVNNFTPositionManager/TVNNFTPositionManager.sol\":1697:1705  position */\n      dup2\n        /* \"TVNProject/TVNNFTPositionManager/TVNNFTPositionManager.sol\":1697:1712  position.token0 */\n      0x02\n      add\n      0x00\n        /* \"TVNProject/TVNNFTPositionManager/TVNNFTPositionManager.sol\":1697:1728  position.token0 = params.token0 */\n      0x0100\n      exp\n      dup2\n      sload\n      dup2\n      0xffffffffffffffffffffffffffffffffffffffff\n      mul\n      not\n      and\n      swap1\n      dup4\n      0xffffffffffffffffffffffffffffffffffffffff\n      and\n      mul\n      or\n      swap1\n      sstore\n      pop\n        /* \"TVNProject/TVNNFTPositionManager/TVNNFTPositionManager.sol\":1756:1762  params */\n      dup2\n        /* \"TVNProject/TVNNFTPositionManager/TVNNFTPositionManager.sol\":1756:1769  params.token1 */\n      0x60\n      add\n      0x20\n      dup2\n      add\n      swap1\n      tag_171\n      swap2\n      swap1\n      tag_57\n      jump\t// in\n    tag_171:\n        /* \"TVNProject/TVNNFTPositionManager/TVNNFTPositionManager.sol\":1738:1746  position */\n      dup2\n        /* \"TVNProject/TVNNFTPositionManager/TVNNFTPositionManager.sol\":1738:1753  position.token1 */\n      0x03\n      add\n      0x00\n        /* \"TVNProject/TVNNFTPositionManager/TVNNFTPositionManager.sol\":1738:1769  position.token1 = params.token1 */\n      0x0100\n      exp\n      dup2\n      sload\n      dup2\n      0xffffffffffffffffffffffffffffffffffffffff\n      mul\n      not\n      and\n      swap1\n      dup4\n      0xffffffffffffffffffffffffffffffffffffffff\n      and\n      mul\n      or\n      swap1\n      sstore\n      pop\n        /* \"TVNProject/TVNNFTPositionManager/TVNNFTPositionManager.sol\":1794:1800  params */\n      dup2\n        /* \"TVNProject/TVNNFTPositionManager/TVNNFTPositionManager.sol\":1794:1804  params.fee */\n      0x80\n      add\n      calldataload\n        /* \"TVNProject/TVNNFTPositionManager/TVNNFTPositionManager.sol\":1779:1787  position */\n      dup2\n        /* \"TVNProject/TVNNFTPositionManager/TVNNFTPositionManager.sol\":1779:1791  position.fee */\n      0x04\n      add\n        /* \"TVNProject/TVNNFTPositionManager/TVNNFTPositionManager.sol\":1779:1804  position.fee = params.fee */\n      dup2\n      swap1\n      sstore\n      pop\n        /* \"TVNProject/TVNNFTPositionManager/TVNNFTPositionManager.sol\":1833:1839  params */\n      dup2\n        /* \"TVNProject/TVNNFTPositionManager/TVNNFTPositionManager.sol\":1833:1847  params.amount0 */\n      0xa0\n      add\n      calldataload\n        /* \"TVNProject/TVNNFTPositionManager/TVNNFTPositionManager.sol\":1814:1822  position */\n      dup2\n        /* \"TVNProject/TVNNFTPositionManager/TVNNFTPositionManager.sol\":1814:1830  position.amount0 */\n      0x05\n      add\n        /* \"TVNProject/TVNNFTPositionManager/TVNNFTPositionManager.sol\":1814:1847  position.amount0 = params.amount0 */\n      dup2\n      swap1\n      sstore\n      pop\n        /* \"TVNProject/TVNNFTPositionManager/TVNNFTPositionManager.sol\":1876:1882  params */\n      dup2\n        /* \"TVNProject/TVNNFTPositionManager/TVNNFTPositionManager.sol\":1876:1890  params.amount1 */\n      0xc0\n      add\n      calldataload\n        /* \"TVNProject/TVNNFTPositionManager/TVNNFTPositionManager.sol\":1857:1865  position */\n      dup2\n        /* \"TVNProject/TVNNFTPositionManager/TVNNFTPositionManager.sol\":1857:1873  position.amount1 */\n      0x06\n      add\n        /* \"TVNProject/TVNNFTPositionManager/TVNNFTPositionManager.sol\":1857:1890  position.amount1 = params.amount1 */\n      dup2\n      swap1\n      sstore\n      pop\n        /* \"TVNProject/TVNNFTPositionManager/TVNNFTPositionManager.sol\":1901:1912  tokenIdNext */\n      0x06\n      0x00\n        /* \"TVNProject/TVNNFTPositionManager/TVNNFTPositionManager.sol\":1901:1914  tokenIdNext++ */\n      dup2\n      sload\n      dup1\n      swap3\n      swap2\n      swap1\n      tag_172\n      swap1\n      tag_134\n      jump\t// in\n    tag_172:\n      swap2\n      swap1\n      pop\n      sstore\n      pop\n        /* \"TVNProject/TVNNFTPositionManager/TVNNFTPositionManager.sol\":1396:1921  {... */\n      pop\n        /* \"TVNProject/TVNNFTPositionManager/TVNNFTPositionManager.sol\":1322:1921  function mintPosition(address _to, PositionInfo calldata params) external {... */\n      pop\n      pop\n      jump\t// out\n        /* \"TVNProject/TVNNFTPositionManager/TVNNFTPositionManager.sol\":475:524  mapping(uint256 => PositionInfo) public positions */\n    tag_80:\n      mstore(0x20, 0x07)\n      dup1\n      0x00\n      mstore\n      keccak256(0x00, 0x40)\n      0x00\n      swap2\n      pop\n      swap1\n      pop\n      dup1\n      0x00\n      add\n      sload\n      swap1\n      dup1\n      0x01\n      add\n      0x00\n      swap1\n      sload\n      swap1\n      0x0100\n      exp\n      swap1\n      div\n      0xffffffffffffffffffffffffffffffffffffffff\n      and\n      swap1\n      dup1\n      0x02\n      add\n      0x00\n      swap1\n      sload\n      swap1\n      0x0100\n      exp\n      swap1\n      div\n      0xffffffffffffffffffffffffffffffffffffffff\n      and\n      swap1\n      dup1\n      0x03\n      add\n      0x00\n      swap1\n      sload\n      swap1\n      0x0100\n      exp\n      swap1\n      div\n      0xffffffffffffffffffffffffffffffffffffffff\n      and\n      swap1\n      dup1\n      0x04\n      add\n      sload\n      swap1\n      dup1\n      0x05\n      add\n      sload\n      swap1\n      dup1\n      0x06\n      add\n      sload\n      swap1\n      pop\n      dup8\n      jump\t// out\n        /* \"LearnSolidity/ERC721/ERC721.sol\":1464:1663  function setApprovalForAll(address operator, bool _approved) external {... */\n    tag_86:\n        /* \"LearnSolidity/ERC721/ERC721.sol\":1585:1594  _approved */\n      dup1\n        /* \"LearnSolidity/ERC721/ERC721.sol\":1544:1560  isApprovalForAll */\n      0x03\n        /* \"LearnSolidity/ERC721/ERC721.sol\":1544:1572  isApprovalForAll[msg.sender] */\n      0x00\n        /* \"LearnSolidity/ERC721/ERC721.sol\":1561:1571  msg.sender */\n      caller\n        /* \"LearnSolidity/ERC721/ERC721.sol\":1544:1572  isApprovalForAll[msg.sender] */\n      0xffffffffffffffffffffffffffffffffffffffff\n      and\n      0xffffffffffffffffffffffffffffffffffffffff\n      and\n      dup2\n      mstore\n      0x20\n      add\n      swap1\n      dup2\n      mstore\n      0x20\n      add\n      0x00\n      keccak256\n        /* \"LearnSolidity/ERC721/ERC721.sol\":1544:1582  isApprovalForAll[msg.sender][operator] */\n      0x00\n        /* \"LearnSolidity/ERC721/ERC721.sol\":1573:1581  operator */\n      dup5\n        /* \"LearnSolidity/ERC721/ERC721.sol\":1544:1582  isApprovalForAll[msg.sender][operator] */\n      0xffffffffffffffffffffffffffffffffffffffff\n      and\n      0xffffffffffffffffffffffffffffffffffffffff\n      and\n      dup2\n      mstore\n      0x20\n      add\n      swap1\n      dup2\n      mstore\n      0x20\n      add\n      0x00\n      keccak256\n      0x00\n        /* \"LearnSolidity/ERC721/ERC721.sol\":1544:1594  isApprovalForAll[msg.sender][operator] = _approved */\n      0x0100\n      exp\n      dup2\n      sload\n      dup2\n      0xff\n      mul\n      not\n      and\n      swap1\n      dup4\n      iszero\n      iszero\n      mul\n      or\n      swap1\n      sstore\n      pop\n        /* \"LearnSolidity/ERC721/ERC721.sol\":1636:1644  operator */\n      dup2\n        /* \"LearnSolidity/ERC721/ERC721.sol\":1609:1656  ApprovalForAll(msg.sender, operator, _approved) */\n      0xffffffffffffffffffffffffffffffffffffffff\n      and\n        /* \"LearnSolidity/ERC721/ERC721.sol\":1624:1634  msg.sender */\n      caller\n        /* \"LearnSolidity/ERC721/ERC721.sol\":1609:1656  ApprovalForAll(msg.sender, operator, _approved) */\n      0xffffffffffffffffffffffffffffffffffffffff\n      and\n      0x17307eab39ab6107e8899845ad3d59bd9653f200f220920489ca2b5937696c31\n        /* \"LearnSolidity/ERC721/ERC721.sol\":1646:1655  _approved */\n      dup4\n        /* \"LearnSolidity/ERC721/ERC721.sol\":1609:1656  ApprovalForAll(msg.sender, operator, _approved) */\n      mload(0x40)\n      tag_174\n      swap2\n      swap1\n      tag_30\n      jump\t// in\n    tag_174:\n      mload(0x40)\n      dup1\n      swap2\n      sub\n      swap1\n      log3\n        /* \"LearnSolidity/ERC721/ERC721.sol\":1464:1663  function setApprovalForAll(address operator, bool _approved) external {... */\n      pop\n      pop\n      jump\t// out\n        /* \"LearnSolidity/ERC721/ERC721.sol\":3506:4031  function safeTransferFrom(... */\n    tag_90:\n        /* \"LearnSolidity/ERC721/ERC721.sol\":3653:3684  transferFrom(from, to, tokenId) */\n      tag_176\n        /* \"LearnSolidity/ERC721/ERC721.sol\":3666:3670  from */\n      dup6\n        /* \"LearnSolidity/ERC721/ERC721.sol\":3672:3674  to */\n      dup6\n        /* \"LearnSolidity/ERC721/ERC721.sol\":3676:3683  tokenId */\n      dup6\n        /* \"LearnSolidity/ERC721/ERC721.sol\":3653:3665  transferFrom */\n      tag_44\n        /* \"LearnSolidity/ERC721/ERC721.sol\":3653:3684  transferFrom(from, to, tokenId) */\n      jump\t// in\n    tag_176:\n        /* \"LearnSolidity/ERC721/ERC721.sol\":3733:3734  0 */\n      0x00\n        /* \"LearnSolidity/ERC721/ERC721.sol\":3715:3717  to */\n      dup5\n        /* \"LearnSolidity/ERC721/ERC721.sol\":3715:3729  to.code.length */\n      0xffffffffffffffffffffffffffffffffffffffff\n      and\n      extcodesize\n        /* \"LearnSolidity/ERC721/ERC721.sol\":3715:3734  to.code.length == 0 */\n      eq\n        /* \"LearnSolidity/ERC721/ERC721.sol\":3715:3982  to.code.length == 0 ||... */\n      dup1\n      tag_177\n      jumpi\n      pop\n        /* \"LearnSolidity/ERC721/ERC721.sol\":3941:3982  IERC721Receiver.onERC721Received.selector */\n      shl(0xe0, 0x150b7a02)\n        /* \"LearnSolidity/ERC721/ERC721.sol\":3754:3982  IERC721Receiver(to).onERC721Received(... */\n      not(0xffffffffffffffffffffffffffffffffffffffffffffffffffffffff)\n      and\n        /* \"LearnSolidity/ERC721/ERC721.sol\":3770:3772  to */\n      dup5\n        /* \"LearnSolidity/ERC721/ERC721.sol\":3754:3790  IERC721Receiver(to).onERC721Received */\n      0xffffffffffffffffffffffffffffffffffffffff\n      and\n      0x150b7a02\n        /* \"LearnSolidity/ERC721/ERC721.sol\":3812:3822  msg.sender */\n      caller\n        /* \"LearnSolidity/ERC721/ERC721.sol\":3844:3848  from */\n      dup9\n        /* \"LearnSolidity/ERC721/ERC721.sol\":3870:3877  tokenId */\n      dup8\n        /* \"LearnSolidity/ERC721/ERC721.sol\":3899:3903  data */\n      dup8\n      dup8\n        /* \"LearnSolidity/ERC721/ERC721.sol\":3754:3921  IERC721Receiver(to).onERC721Received(... */\n      mload(0x40)\n      dup7\n      0xffffffff\n      and\n      0xe0\n      shl\n      dup2\n      mstore\n      0x04\n      add\n      tag_178\n      swap6\n      swap5\n      swap4\n      swap3\n      swap2\n      swap1\n      tag_179\n      jump\t// in\n    tag_178:\n      0x20\n      mload(0x40)\n      dup1\n      dup4\n      sub\n      dup2\n      0x00\n      dup8\n      gas\n      call\n      iszero\n      dup1\n      iszero\n      tag_181\n      jumpi\n      returndatasize\n      0x00\n      dup1\n      returndatacopy\n      revert(0x00, returndatasize)\n    tag_181:\n      pop\n      pop\n      pop\n      pop\n      mload(0x40)\n      returndatasize\n      not(0x1f)\n      0x1f\n      dup3\n      add\n      and\n      dup3\n      add\n      dup1\n      0x40\n      mstore\n      pop\n      dup2\n      add\n      swap1\n      tag_182\n      swap2\n      swap1\n      tag_150\n      jump\t// in\n    tag_182:\n        /* \"LearnSolidity/ERC721/ERC721.sol\":3754:3982  IERC721Receiver(to).onERC721Received(... */\n      not(0xffffffffffffffffffffffffffffffffffffffffffffffffffffffff)\n      and\n      eq\n        /* \"LearnSolidity/ERC721/ERC721.sol\":3715:3982  to.code.length == 0 ||... */\n    tag_177:\n        /* \"LearnSolidity/ERC721/ERC721.sol\":3694:4024  require(... */\n      tag_183\n      jumpi\n      mload(0x40)\n      0x08c379a000000000000000000000000000000000000000000000000000000000\n      dup2\n      mstore\n      0x04\n      add\n      tag_184\n      swap1\n      tag_153\n      jump\t// in\n    tag_184:\n      mload(0x40)\n      dup1\n      swap2\n      sub\n      swap1\n      revert\n    tag_183:\n        /* \"LearnSolidity/ERC721/ERC721.sol\":3506:4031  function safeTransferFrom(... */\n      pop\n      pop\n      pop\n      pop\n      pop\n      jump\t// out\n        /* \"TVNProject/TVNNFTPositionManager/TVNNFTPositionManager.sol\":3089:3233  function getOwnerNFT(address _owner)... */\n    tag_93:\n        /* \"TVNProject/TVNNFTPositionManager/TVNNFTPositionManager.sol\":3171:3187  uint256[] memory */\n      0x60\n        /* \"TVNProject/TVNNFTPositionManager/TVNNFTPositionManager.sol\":3210:3218  ownerNFT */\n      0x08\n        /* \"TVNProject/TVNNFTPositionManager/TVNNFTPositionManager.sol\":3210:3226  ownerNFT[_owner] */\n      0x00\n        /* \"TVNProject/TVNNFTPositionManager/TVNNFTPositionManager.sol\":3219:3225  _owner */\n      dup4\n        /* \"TVNProject/TVNNFTPositionManager/TVNNFTPositionManager.sol\":3210:3226  ownerNFT[_owner] */\n      0xffffffffffffffffffffffffffffffffffffffff\n      and\n      0xffffffffffffffffffffffffffffffffffffffff\n      and\n      dup2\n      mstore\n      0x20\n      add\n      swap1\n      dup2\n      mstore\n      0x20\n      add\n      0x00\n      keccak256\n        /* \"TVNProject/TVNNFTPositionManager/TVNNFTPositionManager.sol\":3203:3226  return ownerNFT[_owner] */\n      dup1\n      sload\n      dup1\n      0x20\n      mul\n      0x20\n      add\n      mload(0x40)\n      swap1\n      dup2\n      add\n      0x40\n      mstore\n      dup1\n      swap3\n      swap2\n      swap1\n      dup2\n      dup2\n      mstore\n      0x20\n      add\n      dup3\n      dup1\n      sload\n      dup1\n      iszero\n      tag_186\n      jumpi\n      0x20\n      mul\n      dup3\n      add\n      swap2\n      swap1\n      0x00\n      mstore\n      keccak256(0x00, 0x20)\n      swap1\n    tag_187:\n      dup2\n      sload\n      dup2\n      mstore\n      0x20\n      add\n      swap1\n      0x01\n      add\n      swap1\n      dup1\n      dup4\n      gt\n      tag_187\n      jumpi\n    tag_186:\n      pop\n      pop\n      pop\n      pop\n      pop\n      swap1\n      pop\n        /* \"TVNProject/TVNNFTPositionManager/TVNNFTPositionManager.sol\":3089:3233  function getOwnerNFT(address _owner)... */\n      swap2\n      swap1\n      pop\n      jump\t// out\n        /* \"TVNProject/TVNNFTPositionManager/TVNNFTPositionManager.sol\":531:576  mapping(address => uint256[]) public ownerNFT */\n    tag_98:\n      mstore(0x20, 0x08)\n      dup2\n      0x00\n      mstore\n      keccak256(0x00, 0x40)\n      dup2\n      dup2\n      sload\n      dup2\n      lt\n      tag_188\n      jumpi\n      0x00\n      dup1\n      revert\n    tag_188:\n      swap1\n      0x00\n      mstore\n      keccak256(0x00, 0x20)\n      add\n      0x00\n      swap2\n      pop\n      swap2\n      pop\n      pop\n      sload\n      dup2\n      jump\t// out\n        /* \"LearnSolidity/ERC721/ERC721.sol\":782:850  mapping(address => mapping(address => bool)) public isApprovalForAll */\n    tag_103:\n      mstore(0x20, 0x03)\n      dup2\n      0x00\n      mstore\n      mstore(0x20, keccak256(0x00, 0x40))\n      dup1\n      0x00\n      mstore\n      keccak256(0x00, 0x40)\n      0x00\n      swap2\n      pop\n      swap2\n      pop\n      swap1\n      sload\n      swap1\n      0x0100\n      exp\n      swap1\n      div\n      0xff\n      and\n      dup2\n      jump\t// out\n        /* \"TVNProject/TVNNFTPositionManager/TVNNFTPositionManager.sol\":1927:2163  function burnPosition(uint256 _tokenId, address _from) external {... */\n    tag_108:\n        /* \"TVNProject/TVNNFTPositionManager/TVNNFTPositionManager.sol\":2018:2026  _ownerOf */\n      0x00\n        /* \"TVNProject/TVNNFTPositionManager/TVNNFTPositionManager.sol\":2018:2036  _ownerOf[_tokenId] */\n      dup1\n        /* \"TVNProject/TVNNFTPositionManager/TVNNFTPositionManager.sol\":2027:2035  _tokenId */\n      dup4\n        /* \"TVNProject/TVNNFTPositionManager/TVNNFTPositionManager.sol\":2018:2036  _ownerOf[_tokenId] */\n      dup2\n      mstore\n      0x20\n      add\n      swap1\n      dup2\n      mstore\n      0x20\n      add\n      0x00\n      keccak256\n      0x00\n      swap1\n      sload\n      swap1\n      0x0100\n      exp\n      swap1\n      div\n      0xffffffffffffffffffffffffffffffffffffffff\n      and\n        /* \"TVNProject/TVNNFTPositionManager/TVNNFTPositionManager.sol\":2009:2036  _from == _ownerOf[_tokenId] */\n      0xffffffffffffffffffffffffffffffffffffffff\n      and\n        /* \"TVNProject/TVNNFTPositionManager/TVNNFTPositionManager.sol\":2009:2014  _from */\n      dup2\n        /* \"TVNProject/TVNNFTPositionManager/TVNNFTPositionManager.sol\":2009:2036  _from == _ownerOf[_tokenId] */\n      0xffffffffffffffffffffffffffffffffffffffff\n      and\n      eq\n        /* \"TVNProject/TVNNFTPositionManager/TVNNFTPositionManager.sol\":2001:2050  require(_from == _ownerOf[_tokenId], \"not Owner\") */\n      tag_191\n      jumpi\n      mload(0x40)\n      0x08c379a000000000000000000000000000000000000000000000000000000000\n      dup2\n      mstore\n      0x04\n      add\n      tag_192\n      swap1\n      tag_193\n      jump\t// in\n    tag_192:\n      mload(0x40)\n      dup1\n      swap2\n      sub\n      swap1\n      revert\n    tag_191:\n        /* \"TVNProject/TVNNFTPositionManager/TVNNFTPositionManager.sol\":2060:2075  _burn(_tokenId) */\n      tag_194\n        /* \"TVNProject/TVNNFTPositionManager/TVNNFTPositionManager.sol\":2066:2074  _tokenId */\n      dup3\n        /* \"TVNProject/TVNNFTPositionManager/TVNNFTPositionManager.sol\":2060:2065  _burn */\n      tag_195\n        /* \"TVNProject/TVNNFTPositionManager/TVNNFTPositionManager.sol\":2060:2075  _burn(_tokenId) */\n      jump\t// in\n    tag_194:\n        /* \"TVNProject/TVNNFTPositionManager/TVNNFTPositionManager.sol\":2086:2119  _removeFromArray(_tokenId, _from) */\n      tag_196\n        /* \"TVNProject/TVNNFTPositionManager/TVNNFTPositionManager.sol\":2103:2111  _tokenId */\n      dup3\n        /* \"TVNProject/TVNNFTPositionManager/TVNNFTPositionManager.sol\":2113:2118  _from */\n      dup3\n        /* \"TVNProject/TVNNFTPositionManager/TVNNFTPositionManager.sol\":2086:2102  _removeFromArray */\n      tag_138\n        /* \"TVNProject/TVNNFTPositionManager/TVNNFTPositionManager.sol\":2086:2119  _removeFromArray(_tokenId, _from) */\n      jump\t// in\n    tag_196:\n        /* \"TVNProject/TVNNFTPositionManager/TVNNFTPositionManager.sol\":2137:2146  positions */\n      0x07\n        /* \"TVNProject/TVNNFTPositionManager/TVNNFTPositionManager.sol\":2137:2156  positions[_tokenId] */\n      0x00\n        /* \"TVNProject/TVNNFTPositionManager/TVNNFTPositionManager.sol\":2147:2155  _tokenId */\n      dup4\n        /* \"TVNProject/TVNNFTPositionManager/TVNNFTPositionManager.sol\":2137:2156  positions[_tokenId] */\n      dup2\n      mstore\n      0x20\n      add\n      swap1\n      dup2\n      mstore\n      0x20\n      add\n      0x00\n      keccak256\n      0x00\n        /* \"TVNProject/TVNNFTPositionManager/TVNNFTPositionManager.sol\":2130:2156  delete positions[_tokenId] */\n      dup1\n      dup3\n      add\n      0x00\n      swap1\n      sstore\n      0x01\n      dup3\n      add\n      exp(0x0100, 0x00)\n      dup2\n      sload\n      swap1\n      0xffffffffffffffffffffffffffffffffffffffff\n      mul\n      not\n      and\n      swap1\n      sstore\n      0x02\n      dup3\n      add\n      exp(0x0100, 0x00)\n      dup2\n      sload\n      swap1\n      0xffffffffffffffffffffffffffffffffffffffff\n      mul\n      not\n      and\n      swap1\n      sstore\n      0x03\n      dup3\n      add\n      exp(0x0100, 0x00)\n      dup2\n      sload\n      swap1\n      0xffffffffffffffffffffffffffffffffffffffff\n      mul\n      not\n      and\n      swap1\n      sstore\n      0x04\n      dup3\n      add\n      0x00\n      swap1\n      sstore\n      0x05\n      dup3\n      add\n      0x00\n      swap1\n      sstore\n      0x06\n      dup3\n      add\n      0x00\n      swap1\n      sstore\n      pop\n      pop\n        /* \"TVNProject/TVNNFTPositionManager/TVNNFTPositionManager.sol\":1927:2163  function burnPosition(uint256 _tokenId, address _from) external {... */\n      pop\n      pop\n      jump\t// out\n        /* \"LearnSolidity/ERC721/ERC721.sol\":2215:2487  function _isApprovedOrOwner(... */\n    tag_128:\n        /* \"LearnSolidity/ERC721/ERC721.sol\":2345:2349  bool */\n      0x00\n        /* \"LearnSolidity/ERC721/ERC721.sol\":2380:2385  owner */\n      dup4\n        /* \"LearnSolidity/ERC721/ERC721.sol\":2369:2385  spender == owner */\n      0xffffffffffffffffffffffffffffffffffffffff\n      and\n        /* \"LearnSolidity/ERC721/ERC721.sol\":2369:2376  spender */\n      dup4\n        /* \"LearnSolidity/ERC721/ERC721.sol\":2369:2385  spender == owner */\n      0xffffffffffffffffffffffffffffffffffffffff\n      and\n      eq\n        /* \"LearnSolidity/ERC721/ERC721.sol\":2369:2433  spender == owner ||... */\n      dup1\n      tag_198\n      jumpi\n      pop\n        /* \"LearnSolidity/ERC721/ERC721.sol\":2401:2417  isApprovalForAll */\n      0x03\n        /* \"LearnSolidity/ERC721/ERC721.sol\":2401:2424  isApprovalForAll[owner] */\n      0x00\n        /* \"LearnSolidity/ERC721/ERC721.sol\":2418:2423  owner */\n      dup6\n        /* \"LearnSolidity/ERC721/ERC721.sol\":2401:2424  isApprovalForAll[owner] */\n      0xffffffffffffffffffffffffffffffffffffffff\n      and\n      0xffffffffffffffffffffffffffffffffffffffff\n      and\n      dup2\n      mstore\n      0x20\n      add\n      swap1\n      dup2\n      mstore\n      0x20\n      add\n      0x00\n      keccak256\n        /* \"LearnSolidity/ERC721/ERC721.sol\":2401:2433  isApprovalForAll[owner][spender] */\n      0x00\n        /* \"LearnSolidity/ERC721/ERC721.sol\":2425:2432  spender */\n      dup5\n        /* \"LearnSolidity/ERC721/ERC721.sol\":2401:2433  isApprovalForAll[owner][spender] */\n      0xffffffffffffffffffffffffffffffffffffffff\n      and\n      0xffffffffffffffffffffffffffffffffffffffff\n      and\n      dup2\n      mstore\n      0x20\n      add\n      swap1\n      dup2\n      mstore\n      0x20\n      add\n      0x00\n      keccak256\n      0x00\n      swap1\n      sload\n      swap1\n      0x0100\n      exp\n      swap1\n      div\n      0xff\n      and\n        /* \"LearnSolidity/ERC721/ERC721.sol\":2369:2433  spender == owner ||... */\n    tag_198:\n        /* \"LearnSolidity/ERC721/ERC721.sol\":2369:2479  spender == owner ||... */\n      dup1\n      tag_199\n      jumpi\n      pop\n        /* \"LearnSolidity/ERC721/ERC721.sol\":2460:2470  _approvals */\n      0x02\n        /* \"LearnSolidity/ERC721/ERC721.sol\":2460:2479  _approvals[tokenId] */\n      0x00\n        /* \"LearnSolidity/ERC721/ERC721.sol\":2471:2478  tokenId */\n      dup4\n        /* \"LearnSolidity/ERC721/ERC721.sol\":2460:2479  _approvals[tokenId] */\n      dup2\n      mstore\n      0x20\n      add\n      swap1\n      dup2\n      mstore\n      0x20\n      add\n      0x00\n      keccak256\n      0x00\n      swap1\n      sload\n      swap1\n      0x0100\n      exp\n      swap1\n      div\n      0xffffffffffffffffffffffffffffffffffffffff\n      and\n        /* \"LearnSolidity/ERC721/ERC721.sol\":2449:2479  spender == _approvals[tokenId] */\n      0xffffffffffffffffffffffffffffffffffffffff\n      and\n        /* \"LearnSolidity/ERC721/ERC721.sol\":2449:2456  spender */\n      dup4\n        /* \"LearnSolidity/ERC721/ERC721.sol\":2449:2479  spender == _approvals[tokenId] */\n      0xffffffffffffffffffffffffffffffffffffffff\n      and\n      eq\n        /* \"LearnSolidity/ERC721/ERC721.sol\":2369:2479  spender == owner ||... */\n    tag_199:\n        /* \"LearnSolidity/ERC721/ERC721.sol\":2361:2480  return (spender == owner ||... */\n      swap1\n      pop\n        /* \"LearnSolidity/ERC721/ERC721.sol\":2215:2487  function _isApprovedOrOwner(... */\n      swap4\n      swap3\n      pop\n      pop\n      pop\n      jump\t// out\n        /* \"TVNProject/TVNNFTPositionManager/TVNNFTPositionManager.sol\":2490:3083  function _removeFromArray(uint256 _tokenId, address _from) private {... */\n    tag_138:\n        /* \"TVNProject/TVNNFTPositionManager/TVNNFTPositionManager.sol\":2567:2580  uint256 index */\n      0x00\n        /* \"TVNProject/TVNNFTPositionManager/TVNNFTPositionManager.sol\":2583:2598  indexOfOwnerNFT */\n      0x09\n        /* \"TVNProject/TVNNFTPositionManager/TVNNFTPositionManager.sol\":2583:2605  indexOfOwnerNFT[_from] */\n      0x00\n        /* \"TVNProject/TVNNFTPositionManager/TVNNFTPositionManager.sol\":2599:2604  _from */\n      dup4\n        /* \"TVNProject/TVNNFTPositionManager/TVNNFTPositionManager.sol\":2583:2605  indexOfOwnerNFT[_from] */\n      0xffffffffffffffffffffffffffffffffffffffff\n      and\n      0xffffffffffffffffffffffffffffffffffffffff\n      and\n      dup2\n      mstore\n      0x20\n      add\n      swap1\n      dup2\n      mstore\n      0x20\n      add\n      0x00\n      keccak256\n        /* \"TVNProject/TVNNFTPositionManager/TVNNFTPositionManager.sol\":2583:2615  indexOfOwnerNFT[_from][_tokenId] */\n      0x00\n        /* \"TVNProject/TVNNFTPositionManager/TVNNFTPositionManager.sol\":2606:2614  _tokenId */\n      dup5\n        /* \"TVNProject/TVNNFTPositionManager/TVNNFTPositionManager.sol\":2583:2615  indexOfOwnerNFT[_from][_tokenId] */\n      dup2\n      mstore\n      0x20\n      add\n      swap1\n      dup2\n      mstore\n      0x20\n      add\n      0x00\n      keccak256\n      sload\n        /* \"TVNProject/TVNNFTPositionManager/TVNNFTPositionManager.sol\":2567:2615  uint256 index = indexOfOwnerNFT[_from][_tokenId] */\n      swap1\n      pop\n        /* \"TVNProject/TVNNFTPositionManager/TVNNFTPositionManager.sol\":2625:2639  uint256 length */\n      0x00\n        /* \"TVNProject/TVNNFTPositionManager/TVNNFTPositionManager.sol\":2642:2650  ownerNFT */\n      0x08\n        /* \"TVNProject/TVNNFTPositionManager/TVNNFTPositionManager.sol\":2642:2657  ownerNFT[_from] */\n      0x00\n        /* \"TVNProject/TVNNFTPositionManager/TVNNFTPositionManager.sol\":2651:2656  _from */\n      dup5\n        /* \"TVNProject/TVNNFTPositionManager/TVNNFTPositionManager.sol\":2642:2657  ownerNFT[_from] */\n      0xffffffffffffffffffffffffffffffffffffffff\n      and\n      0xffffffffffffffffffffffffffffffffffffffff\n      and\n      dup2\n      mstore\n      0x20\n      add\n      swap1\n      dup2\n      mstore\n      0x20\n      add\n      0x00\n      keccak256\n        /* \"TVNProject/TVNNFTPositionManager/TVNNFTPositionManager.sol\":2642:2664  ownerNFT[_from].length */\n      dup1\n      sload\n      swap1\n      pop\n        /* \"TVNProject/TVNNFTPositionManager/TVNNFTPositionManager.sol\":2625:2664  uint256 length = ownerNFT[_from].length */\n      swap1\n      pop\n        /* \"TVNProject/TVNNFTPositionManager/TVNNFTPositionManager.sol\":2689:2690  1 */\n      0x01\n        /* \"TVNProject/TVNNFTPositionManager/TVNNFTPositionManager.sol\":2679:2685  length */\n      dup2\n        /* \"TVNProject/TVNNFTPositionManager/TVNNFTPositionManager.sol\":2679:2690  length == 1 */\n      sub\n        /* \"TVNProject/TVNNFTPositionManager/TVNNFTPositionManager.sol\":2675:3077  if (length == 1) {... */\n      tag_201\n      jumpi\n        /* \"TVNProject/TVNNFTPositionManager/TVNNFTPositionManager.sol\":2713:2721  ownerNFT */\n      0x08\n        /* \"TVNProject/TVNNFTPositionManager/TVNNFTPositionManager.sol\":2713:2728  ownerNFT[_from] */\n      0x00\n        /* \"TVNProject/TVNNFTPositionManager/TVNNFTPositionManager.sol\":2722:2727  _from */\n      dup5\n        /* \"TVNProject/TVNNFTPositionManager/TVNNFTPositionManager.sol\":2713:2728  ownerNFT[_from] */\n      0xffffffffffffffffffffffffffffffffffffffff\n      and\n      0xffffffffffffffffffffffffffffffffffffffff\n      and\n      dup2\n      mstore\n      0x20\n      add\n      swap1\n      dup2\n      mstore\n      0x20\n      add\n      0x00\n      keccak256\n      0x00\n        /* \"TVNProject/TVNNFTPositionManager/TVNNFTPositionManager.sol\":2706:2728  delete ownerNFT[_from] */\n      tag_202\n      swap2\n      swap1\n      tag_203\n      jump\t// in\n    tag_202:\n        /* \"TVNProject/TVNNFTPositionManager/TVNNFTPositionManager.sol\":2777:2778  0 */\n      0x00\n        /* \"TVNProject/TVNNFTPositionManager/TVNNFTPositionManager.sol\":2742:2757  indexOfOwnerNFT */\n      0x09\n        /* \"TVNProject/TVNNFTPositionManager/TVNNFTPositionManager.sol\":2742:2764  indexOfOwnerNFT[_from] */\n      0x00\n        /* \"TVNProject/TVNNFTPositionManager/TVNNFTPositionManager.sol\":2758:2763  _from */\n      dup6\n        /* \"TVNProject/TVNNFTPositionManager/TVNNFTPositionManager.sol\":2742:2764  indexOfOwnerNFT[_from] */\n      0xffffffffffffffffffffffffffffffffffffffff\n      and\n      0xffffffffffffffffffffffffffffffffffffffff\n      and\n      dup2\n      mstore\n      0x20\n      add\n      swap1\n      dup2\n      mstore\n      0x20\n      add\n      0x00\n      keccak256\n        /* \"TVNProject/TVNNFTPositionManager/TVNNFTPositionManager.sol\":2742:2774  indexOfOwnerNFT[_from][_tokenId] */\n      0x00\n        /* \"TVNProject/TVNNFTPositionManager/TVNNFTPositionManager.sol\":2765:2773  _tokenId */\n      dup7\n        /* \"TVNProject/TVNNFTPositionManager/TVNNFTPositionManager.sol\":2742:2774  indexOfOwnerNFT[_from][_tokenId] */\n      dup2\n      mstore\n      0x20\n      add\n      swap1\n      dup2\n      mstore\n      0x20\n      add\n      0x00\n      keccak256\n        /* \"TVNProject/TVNNFTPositionManager/TVNNFTPositionManager.sol\":2742:2778  indexOfOwnerNFT[_from][_tokenId] = 0 */\n      dup2\n      swap1\n      sstore\n      pop\n        /* \"TVNProject/TVNNFTPositionManager/TVNNFTPositionManager.sol\":2675:3077  if (length == 1) {... */\n      jump(tag_204)\n    tag_201:\n        /* \"TVNProject/TVNNFTPositionManager/TVNNFTPositionManager.sol\":2809:2828  uint256 lastTokenId */\n      0x00\n        /* \"TVNProject/TVNNFTPositionManager/TVNNFTPositionManager.sol\":2831:2839  ownerNFT */\n      0x08\n        /* \"TVNProject/TVNNFTPositionManager/TVNNFTPositionManager.sol\":2831:2846  ownerNFT[_from] */\n      0x00\n        /* \"TVNProject/TVNNFTPositionManager/TVNNFTPositionManager.sol\":2840:2845  _from */\n      dup6\n        /* \"TVNProject/TVNNFTPositionManager/TVNNFTPositionManager.sol\":2831:2846  ownerNFT[_from] */\n      0xffffffffffffffffffffffffffffffffffffffff\n      and\n      0xffffffffffffffffffffffffffffffffffffffff\n      and\n      dup2\n      mstore\n      0x20\n      add\n      swap1\n      dup2\n      mstore\n      0x20\n      add\n      0x00\n      keccak256\n        /* \"TVNProject/TVNNFTPositionManager/TVNNFTPositionManager.sol\":2856:2857  1 */\n      0x01\n        /* \"TVNProject/TVNNFTPositionManager/TVNNFTPositionManager.sol\":2847:2853  length */\n      dup4\n        /* \"TVNProject/TVNNFTPositionManager/TVNNFTPositionManager.sol\":2847:2857  length - 1 */\n      tag_205\n      swap2\n      swap1\n      tag_141\n      jump\t// in\n    tag_205:\n        /* \"TVNProject/TVNNFTPositionManager/TVNNFTPositionManager.sol\":2831:2858  ownerNFT[_from][length - 1] */\n      dup2\n      sload\n      dup2\n      lt\n      tag_206\n      jumpi\n      tag_207\n      tag_208\n      jump\t// in\n    tag_207:\n    tag_206:\n      swap1\n      0x00\n      mstore\n      keccak256(0x00, 0x20)\n      add\n      sload\n        /* \"TVNProject/TVNNFTPositionManager/TVNNFTPositionManager.sol\":2809:2858  uint256 lastTokenId = ownerNFT[_from][length - 1] */\n      swap1\n      pop\n        /* \"TVNProject/TVNNFTPositionManager/TVNNFTPositionManager.sol\":2897:2905  ownerNFT */\n      0x08\n        /* \"TVNProject/TVNNFTPositionManager/TVNNFTPositionManager.sol\":2897:2912  ownerNFT[_from] */\n      0x00\n        /* \"TVNProject/TVNNFTPositionManager/TVNNFTPositionManager.sol\":2906:2911  _from */\n      dup6\n        /* \"TVNProject/TVNNFTPositionManager/TVNNFTPositionManager.sol\":2897:2912  ownerNFT[_from] */\n      0xffffffffffffffffffffffffffffffffffffffff\n      and\n      0xffffffffffffffffffffffffffffffffffffffff\n      and\n      dup2\n      mstore\n      0x20\n      add\n      swap1\n      dup2\n      mstore\n      0x20\n      add\n      0x00\n      keccak256\n        /* \"TVNProject/TVNNFTPositionManager/TVNNFTPositionManager.sol\":2922:2923  1 */\n      0x01\n        /* \"TVNProject/TVNNFTPositionManager/TVNNFTPositionManager.sol\":2913:2919  length */\n      dup4\n        /* \"TVNProject/TVNNFTPositionManager/TVNNFTPositionManager.sol\":2913:2923  length - 1 */\n      tag_210\n      swap2\n      swap1\n      tag_141\n      jump\t// in\n    tag_210:\n        /* \"TVNProject/TVNNFTPositionManager/TVNNFTPositionManager.sol\":2897:2924  ownerNFT[_from][length - 1] */\n      dup2\n      sload\n      dup2\n      lt\n      tag_211\n      jumpi\n      tag_212\n      tag_208\n      jump\t// in\n    tag_212:\n    tag_211:\n      swap1\n      0x00\n      mstore\n      keccak256(0x00, 0x20)\n      add\n      sload\n        /* \"TVNProject/TVNNFTPositionManager/TVNNFTPositionManager.sol\":2872:2880  ownerNFT */\n      0x08\n        /* \"TVNProject/TVNNFTPositionManager/TVNNFTPositionManager.sol\":2872:2887  ownerNFT[_from] */\n      0x00\n        /* \"TVNProject/TVNNFTPositionManager/TVNNFTPositionManager.sol\":2881:2886  _from */\n      dup7\n        /* \"TVNProject/TVNNFTPositionManager/TVNNFTPositionManager.sol\":2872:2887  ownerNFT[_from] */\n      0xffffffffffffffffffffffffffffffffffffffff\n      and\n      0xffffffffffffffffffffffffffffffffffffffff\n      and\n      dup2\n      mstore\n      0x20\n      add\n      swap1\n      dup2\n      mstore\n      0x20\n      add\n      0x00\n      keccak256\n        /* \"TVNProject/TVNNFTPositionManager/TVNNFTPositionManager.sol\":2888:2893  index */\n      dup5\n        /* \"TVNProject/TVNNFTPositionManager/TVNNFTPositionManager.sol\":2872:2894  ownerNFT[_from][index] */\n      dup2\n      sload\n      dup2\n      lt\n      tag_214\n      jumpi\n      tag_215\n      tag_208\n      jump\t// in\n    tag_215:\n    tag_214:\n      swap1\n      0x00\n      mstore\n      keccak256(0x00, 0x20)\n      add\n        /* \"TVNProject/TVNNFTPositionManager/TVNNFTPositionManager.sol\":2872:2924  ownerNFT[_from][index] = ownerNFT[_from][length - 1] */\n      dup2\n      swap1\n      sstore\n      pop\n        /* \"TVNProject/TVNNFTPositionManager/TVNNFTPositionManager.sol\":2938:2946  ownerNFT */\n      0x08\n        /* \"TVNProject/TVNNFTPositionManager/TVNNFTPositionManager.sol\":2938:2953  ownerNFT[_from] */\n      0x00\n        /* \"TVNProject/TVNNFTPositionManager/TVNNFTPositionManager.sol\":2947:2952  _from */\n      dup6\n        /* \"TVNProject/TVNNFTPositionManager/TVNNFTPositionManager.sol\":2938:2953  ownerNFT[_from] */\n      0xffffffffffffffffffffffffffffffffffffffff\n      and\n      0xffffffffffffffffffffffffffffffffffffffff\n      and\n      dup2\n      mstore\n      0x20\n      add\n      swap1\n      dup2\n      mstore\n      0x20\n      add\n      0x00\n      keccak256\n        /* \"TVNProject/TVNNFTPositionManager/TVNNFTPositionManager.sol\":2938:2959  ownerNFT[_from].pop() */\n      dup1\n      sload\n      dup1\n      tag_217\n      jumpi\n      tag_218\n      tag_219\n      jump\t// in\n    tag_218:\n    tag_217:\n      0x01\n      swap1\n      sub\n      dup2\n      dup2\n      swap1\n      0x00\n      mstore\n      keccak256(0x00, 0x20)\n      add\n      0x00\n      swap1\n      sstore\n      swap1\n      sstore\n        /* \"TVNProject/TVNNFTPositionManager/TVNNFTPositionManager.sol\":3011:3016  index */\n      dup3\n        /* \"TVNProject/TVNNFTPositionManager/TVNNFTPositionManager.sol\":2973:2988  indexOfOwnerNFT */\n      0x09\n        /* \"TVNProject/TVNNFTPositionManager/TVNNFTPositionManager.sol\":2973:2995  indexOfOwnerNFT[_from] */\n      0x00\n        /* \"TVNProject/TVNNFTPositionManager/TVNNFTPositionManager.sol\":2989:2994  _from */\n      dup7\n        /* \"TVNProject/TVNNFTPositionManager/TVNNFTPositionManager.sol\":2973:2995  indexOfOwnerNFT[_from] */\n      0xffffffffffffffffffffffffffffffffffffffff\n      and\n      0xffffffffffffffffffffffffffffffffffffffff\n      and\n      dup2\n      mstore\n      0x20\n      add\n      swap1\n      dup2\n      mstore\n      0x20\n      add\n      0x00\n      keccak256\n        /* \"TVNProject/TVNNFTPositionManager/TVNNFTPositionManager.sol\":2973:3008  indexOfOwnerNFT[_from][lastTokenId] */\n      0x00\n        /* \"TVNProject/TVNNFTPositionManager/TVNNFTPositionManager.sol\":2996:3007  lastTokenId */\n      dup4\n        /* \"TVNProject/TVNNFTPositionManager/TVNNFTPositionManager.sol\":2973:3008  indexOfOwnerNFT[_from][lastTokenId] */\n      dup2\n      mstore\n      0x20\n      add\n      swap1\n      dup2\n      mstore\n      0x20\n      add\n      0x00\n      keccak256\n        /* \"TVNProject/TVNNFTPositionManager/TVNNFTPositionManager.sol\":2973:3016  indexOfOwnerNFT[_from][lastTokenId] = index */\n      dup2\n      swap1\n      sstore\n      pop\n        /* \"TVNProject/TVNNFTPositionManager/TVNNFTPositionManager.sol\":3065:3066  0 */\n      0x00\n        /* \"TVNProject/TVNNFTPositionManager/TVNNFTPositionManager.sol\":3030:3045  indexOfOwnerNFT */\n      0x09\n        /* \"TVNProject/TVNNFTPositionManager/TVNNFTPositionManager.sol\":3030:3052  indexOfOwnerNFT[_from] */\n      0x00\n        /* \"TVNProject/TVNNFTPositionManager/TVNNFTPositionManager.sol\":3046:3051  _from */\n      dup7\n        /* \"TVNProject/TVNNFTPositionManager/TVNNFTPositionManager.sol\":3030:3052  indexOfOwnerNFT[_from] */\n      0xffffffffffffffffffffffffffffffffffffffff\n      and\n      0xffffffffffffffffffffffffffffffffffffffff\n      and\n      dup2\n      mstore\n      0x20\n      add\n      swap1\n      dup2\n      mstore\n      0x20\n      add\n      0x00\n      keccak256\n        /* \"TVNProject/TVNNFTPositionManager/TVNNFTPositionManager.sol\":3030:3062  indexOfOwnerNFT[_from][_tokenId] */\n      0x00\n        /* \"TVNProject/TVNNFTPositionManager/TVNNFTPositionManager.sol\":3053:3061  _tokenId */\n      dup8\n        /* \"TVNProject/TVNNFTPositionManager/TVNNFTPositionManager.sol\":3030:3062  indexOfOwnerNFT[_from][_tokenId] */\n      dup2\n      mstore\n      0x20\n      add\n      swap1\n      dup2\n      mstore\n      0x20\n      add\n      0x00\n      keccak256\n        /* \"TVNProject/TVNNFTPositionManager/TVNNFTPositionManager.sol\":3030:3066  indexOfOwnerNFT[_from][_tokenId] = 0 */\n      dup2\n      swap1\n      sstore\n      pop\n        /* \"TVNProject/TVNNFTPositionManager/TVNNFTPositionManager.sol\":2795:3077  {... */\n      pop\n        /* \"TVNProject/TVNNFTPositionManager/TVNNFTPositionManager.sol\":2675:3077  if (length == 1) {... */\n    tag_204:\n        /* \"TVNProject/TVNNFTPositionManager/TVNNFTPositionManager.sol\":2557:3083  {... */\n      pop\n      pop\n        /* \"TVNProject/TVNNFTPositionManager/TVNNFTPositionManager.sol\":2490:3083  function _removeFromArray(uint256 _tokenId, address _from) private {... */\n      pop\n      pop\n      jump\t// out\n        /* \"LearnSolidity/ERC721/ERC721.sol\":4037:4332  function _mint(address to, uint tokenId) internal {... */\n    tag_166:\n        /* \"LearnSolidity/ERC721/ERC721.sol\":4119:4120  0 */\n      0x00\n        /* \"LearnSolidity/ERC721/ERC721.sol\":4105:4121  to != address(0) */\n      0xffffffffffffffffffffffffffffffffffffffff\n      and\n        /* \"LearnSolidity/ERC721/ERC721.sol\":4105:4107  to */\n      dup3\n        /* \"LearnSolidity/ERC721/ERC721.sol\":4105:4121  to != address(0) */\n      0xffffffffffffffffffffffffffffffffffffffff\n      and\n      sub\n        /* \"LearnSolidity/ERC721/ERC721.sol\":4097:4143  require(to != address(0), \"to = zero address\") */\n      tag_222\n      jumpi\n      mload(0x40)\n      0x08c379a000000000000000000000000000000000000000000000000000000000\n      dup2\n      mstore\n      0x04\n      add\n      tag_223\n      swap1\n      tag_126\n      jump\t// in\n    tag_223:\n      mload(0x40)\n      dup1\n      swap2\n      sub\n      swap1\n      revert\n    tag_222:\n        /* \"LearnSolidity/ERC721/ERC721.sol\":4190:4191  0 */\n      0x00\n        /* \"LearnSolidity/ERC721/ERC721.sol\":4161:4192  _ownerOf[tokenId] == address(0) */\n      0xffffffffffffffffffffffffffffffffffffffff\n      and\n        /* \"LearnSolidity/ERC721/ERC721.sol\":4161:4169  _ownerOf */\n      0x00\n        /* \"LearnSolidity/ERC721/ERC721.sol\":4161:4178  _ownerOf[tokenId] */\n      dup1\n        /* \"LearnSolidity/ERC721/ERC721.sol\":4170:4177  tokenId */\n      dup4\n        /* \"LearnSolidity/ERC721/ERC721.sol\":4161:4178  _ownerOf[tokenId] */\n      dup2\n      mstore\n      0x20\n      add\n      swap1\n      dup2\n      mstore\n      0x20\n      add\n      0x00\n      keccak256\n      0x00\n      swap1\n      sload\n      swap1\n      0x0100\n      exp\n      swap1\n      div\n      0xffffffffffffffffffffffffffffffffffffffff\n      and\n        /* \"LearnSolidity/ERC721/ERC721.sol\":4161:4192  _ownerOf[tokenId] == address(0) */\n      0xffffffffffffffffffffffffffffffffffffffff\n      and\n      eq\n        /* \"LearnSolidity/ERC721/ERC721.sol\":4153:4209  require(_ownerOf[tokenId] == address(0), \"token exists\") */\n      tag_224\n      jumpi\n      mload(0x40)\n      0x08c379a000000000000000000000000000000000000000000000000000000000\n      dup2\n      mstore\n      0x04\n      add\n      tag_225\n      swap1\n      tag_226\n      jump\t// in\n    tag_225:\n      mload(0x40)\n      dup1\n      swap2\n      sub\n      swap1\n      revert\n    tag_224:\n        /* \"LearnSolidity/ERC721/ERC721.sol\":4220:4230  _balanceOf */\n      0x01\n        /* \"LearnSolidity/ERC721/ERC721.sol\":4220:4234  _balanceOf[to] */\n      0x00\n        /* \"LearnSolidity/ERC721/ERC721.sol\":4231:4233  to */\n      dup4\n        /* \"LearnSolidity/ERC721/ERC721.sol\":4220:4234  _balanceOf[to] */\n      0xffffffffffffffffffffffffffffffffffffffff\n      and\n      0xffffffffffffffffffffffffffffffffffffffff\n      and\n      dup2\n      mstore\n      0x20\n      add\n      swap1\n      dup2\n      mstore\n      0x20\n      add\n      0x00\n      keccak256\n      0x00\n        /* \"LearnSolidity/ERC721/ERC721.sol\":4220:4236  _balanceOf[to]++ */\n      dup2\n      sload\n      dup1\n      swap3\n      swap2\n      swap1\n      tag_227\n      swap1\n      tag_134\n      jump\t// in\n    tag_227:\n      swap2\n      swap1\n      pop\n      sstore\n      pop\n        /* \"LearnSolidity/ERC721/ERC721.sol\":4266:4268  to */\n      dup2\n        /* \"LearnSolidity/ERC721/ERC721.sol\":4246:4254  _ownerOf */\n      0x00\n        /* \"LearnSolidity/ERC721/ERC721.sol\":4246:4263  _ownerOf[tokenId] */\n      dup1\n        /* \"LearnSolidity/ERC721/ERC721.sol\":4255:4262  tokenId */\n      dup4\n        /* \"LearnSolidity/ERC721/ERC721.sol\":4246:4263  _ownerOf[tokenId] */\n      dup2\n      mstore\n      0x20\n      add\n      swap1\n      dup2\n      mstore\n      0x20\n      add\n      0x00\n      keccak256\n      0x00\n        /* \"LearnSolidity/ERC721/ERC721.sol\":4246:4268  _ownerOf[tokenId] = to */\n      0x0100\n      exp\n      dup2\n      sload\n      dup2\n      0xffffffffffffffffffffffffffffffffffffffff\n      mul\n      not\n      and\n      swap1\n      dup4\n      0xffffffffffffffffffffffffffffffffffffffff\n      and\n      mul\n      or\n      swap1\n      sstore\n      pop\n        /* \"LearnSolidity/ERC721/ERC721.sol\":4317:4324  tokenId */\n      dup1\n        /* \"LearnSolidity/ERC721/ERC721.sol\":4313:4315  to */\n      dup3\n        /* \"LearnSolidity/ERC721/ERC721.sol\":4292:4325  Transfer(address(0), to, tokenId) */\n      0xffffffffffffffffffffffffffffffffffffffff\n      and\n        /* \"LearnSolidity/ERC721/ERC721.sol\":4309:4310  0 */\n      0x00\n        /* \"LearnSolidity/ERC721/ERC721.sol\":4292:4325  Transfer(address(0), to, tokenId) */\n      0xffffffffffffffffffffffffffffffffffffffff\n      and\n      0xddf252ad1be2c89b69c2b068fc378daa952ba7f163c4a11628f55a4df523b3ef\n      mload(0x40)\n      mload(0x40)\n      dup1\n      swap2\n      sub\n      swap1\n      log4\n        /* \"LearnSolidity/ERC721/ERC721.sol\":4037:4332  function _mint(address to, uint tokenId) internal {... */\n      pop\n      pop\n      jump\t// out\n        /* \"LearnSolidity/ERC721/ERC721.sol\":4338:4640  function _burn(uint tokenId) internal {... */\n    tag_195:\n        /* \"LearnSolidity/ERC721/ERC721.sol\":4386:4399  address owner */\n      0x00\n        /* \"LearnSolidity/ERC721/ERC721.sol\":4402:4410  _ownerOf */\n      dup1\n        /* \"LearnSolidity/ERC721/ERC721.sol\":4402:4419  _ownerOf[tokenId] */\n      0x00\n        /* \"LearnSolidity/ERC721/ERC721.sol\":4411:4418  tokenId */\n      dup4\n        /* \"LearnSolidity/ERC721/ERC721.sol\":4402:4419  _ownerOf[tokenId] */\n      dup2\n      mstore\n      0x20\n      add\n      swap1\n      dup2\n      mstore\n      0x20\n      add\n      0x00\n      keccak256\n      0x00\n      swap1\n      sload\n      swap1\n      0x0100\n      exp\n      swap1\n      div\n      0xffffffffffffffffffffffffffffffffffffffff\n      and\n        /* \"LearnSolidity/ERC721/ERC721.sol\":4386:4419  address owner = _ownerOf[tokenId] */\n      swap1\n      pop\n        /* \"LearnSolidity/ERC721/ERC721.sol\":4454:4455  0 */\n      0x00\n        /* \"LearnSolidity/ERC721/ERC721.sol\":4437:4456  owner != address(0) */\n      0xffffffffffffffffffffffffffffffffffffffff\n      and\n        /* \"LearnSolidity/ERC721/ERC721.sol\":4437:4442  owner */\n      dup2\n        /* \"LearnSolidity/ERC721/ERC721.sol\":4437:4456  owner != address(0) */\n      0xffffffffffffffffffffffffffffffffffffffff\n      and\n      sub\n        /* \"LearnSolidity/ERC721/ERC721.sol\":4429:4481  require(owner != address(0), \"token does not exits\") */\n      tag_229\n      jumpi\n      mload(0x40)\n      0x08c379a000000000000000000000000000000000000000000000000000000000\n      dup2\n      mstore\n      0x04\n      add\n      tag_230\n      swap1\n      tag_231\n      jump\t// in\n    tag_230:\n      mload(0x40)\n      dup1\n      swap2\n      sub\n      swap1\n      revert\n    tag_229:\n        /* \"LearnSolidity/ERC721/ERC721.sol\":4492:4502  _balanceOf */\n      0x01\n        /* \"LearnSolidity/ERC721/ERC721.sol\":4492:4509  _balanceOf[owner] */\n      0x00\n        /* \"LearnSolidity/ERC721/ERC721.sol\":4503:4508  owner */\n      dup3\n        /* \"LearnSolidity/ERC721/ERC721.sol\":4492:4509  _balanceOf[owner] */\n      0xffffffffffffffffffffffffffffffffffffffff\n      and\n      0xffffffffffffffffffffffffffffffffffffffff\n      and\n      dup2\n      mstore\n      0x20\n      add\n      swap1\n      dup2\n      mstore\n      0x20\n      add\n      0x00\n      keccak256\n      0x00\n        /* \"LearnSolidity/ERC721/ERC721.sol\":4492:4511  _balanceOf[owner]-- */\n      dup2\n      sload\n      dup1\n      swap3\n      swap2\n      swap1\n      tag_232\n      swap1\n      tag_132\n      jump\t// in\n    tag_232:\n      swap2\n      swap1\n      pop\n      sstore\n      pop\n        /* \"LearnSolidity/ERC721/ERC721.sol\":4528:4536  _ownerOf */\n      0x00\n        /* \"LearnSolidity/ERC721/ERC721.sol\":4528:4545  _ownerOf[tokenId] */\n      dup1\n        /* \"LearnSolidity/ERC721/ERC721.sol\":4537:4544  tokenId */\n      dup4\n        /* \"LearnSolidity/ERC721/ERC721.sol\":4528:4545  _ownerOf[tokenId] */\n      dup2\n      mstore\n      0x20\n      add\n      swap1\n      dup2\n      mstore\n      0x20\n      add\n      0x00\n      keccak256\n      0x00\n        /* \"LearnSolidity/ERC721/ERC721.sol\":4521:4545  delete _ownerOf[tokenId] */\n      0x0100\n      exp\n      dup2\n      sload\n      swap1\n      0xffffffffffffffffffffffffffffffffffffffff\n      mul\n      not\n      and\n      swap1\n      sstore\n        /* \"LearnSolidity/ERC721/ERC721.sol\":4562:4572  _approvals */\n      0x02\n        /* \"LearnSolidity/ERC721/ERC721.sol\":4562:4581  _approvals[tokenId] */\n      0x00\n        /* \"LearnSolidity/ERC721/ERC721.sol\":4573:4580  tokenId */\n      dup4\n        /* \"LearnSolidity/ERC721/ERC721.sol\":4562:4581  _approvals[tokenId] */\n      dup2\n      mstore\n      0x20\n      add\n      swap1\n      dup2\n      mstore\n      0x20\n      add\n      0x00\n      keccak256\n      0x00\n        /* \"LearnSolidity/ERC721/ERC721.sol\":4555:4581  delete _approvals[tokenId] */\n      0x0100\n      exp\n      dup2\n      sload\n      swap1\n      0xffffffffffffffffffffffffffffffffffffffff\n      mul\n      not\n      and\n      swap1\n      sstore\n        /* \"LearnSolidity/ERC721/ERC721.sol\":4625:4632  tokenId */\n      dup2\n        /* \"LearnSolidity/ERC721/ERC721.sol\":4621:4622  0 */\n      0x00\n        /* \"LearnSolidity/ERC721/ERC721.sol\":4597:4633  Transfer(owner, address(0), tokenId) */\n      0xffffffffffffffffffffffffffffffffffffffff\n      and\n        /* \"LearnSolidity/ERC721/ERC721.sol\":4606:4611  owner */\n      dup3\n        /* \"LearnSolidity/ERC721/ERC721.sol\":4597:4633  Transfer(owner, address(0), tokenId) */\n      0xffffffffffffffffffffffffffffffffffffffff\n      and\n      0xddf252ad1be2c89b69c2b068fc378daa952ba7f163c4a11628f55a4df523b3ef\n      mload(0x40)\n      mload(0x40)\n      dup1\n      swap2\n      sub\n      swap1\n      log4\n        /* \"LearnSolidity/ERC721/ERC721.sol\":4376:4640  {... */\n      pop\n        /* \"LearnSolidity/ERC721/ERC721.sol\":4338:4640  function _burn(uint tokenId) internal {... */\n      pop\n      jump\t// out\n    tag_162:\n      mload(0x40)\n      dup1\n      0xe0\n      add\n      0x40\n      mstore\n      dup1\n      0x00\n      dup2\n      mstore\n      0x20\n      add\n      and(0xffffffffffffffffffffffffffffffffffffffff, 0x00)\n      dup2\n      mstore\n      0x20\n      add\n      and(0xffffffffffffffffffffffffffffffffffffffff, 0x00)\n      dup2\n      mstore\n      0x20\n      add\n      and(0xffffffffffffffffffffffffffffffffffffffff, 0x00)\n      dup2\n      mstore\n      0x20\n      add\n      0x00\n      dup2\n      mstore\n      0x20\n      add\n      0x00\n      dup2\n      mstore\n      0x20\n      add\n      0x00\n      dup2\n      mstore\n      pop\n      swap1\n      jump\t// out\n    tag_203:\n      pop\n      dup1\n      sload\n      0x00\n      dup3\n      sstore\n      swap1\n      0x00\n      mstore\n      keccak256(0x00, 0x20)\n      swap1\n      dup2\n      add\n      swap1\n      tag_234\n      swap2\n      swap1\n      tag_235\n      jump\t// in\n    tag_234:\n      pop\n      jump\t// out\n    tag_235:\n    tag_236:\n      dup1\n      dup3\n      gt\n      iszero\n      tag_237\n      jumpi\n      0x00\n      dup2\n      0x00\n      swap1\n      sstore\n      pop\n      0x01\n      add\n      jump(tag_236)\n    tag_237:\n      pop\n      swap1\n      jump\t// out\n        /* \"#utility.yul\":88:205   */\n    tag_239:\n        /* \"#utility.yul\":197:198   */\n      0x00\n        /* \"#utility.yul\":194:195   */\n      dup1\n        /* \"#utility.yul\":187:199   */\n      revert\n        /* \"#utility.yul\":211:328   */\n    tag_240:\n        /* \"#utility.yul\":320:321   */\n      0x00\n        /* \"#utility.yul\":317:318   */\n      dup1\n        /* \"#utility.yul\":310:322   */\n      revert\n        /* \"#utility.yul\":334:483   */\n    tag_241:\n        /* \"#utility.yul\":370:377   */\n      0x00\n        /* \"#utility.yul\":410:476   */\n      0xffffffff00000000000000000000000000000000000000000000000000000000\n        /* \"#utility.yul\":403:408   */\n      dup3\n        /* \"#utility.yul\":399:477   */\n      and\n        /* \"#utility.yul\":388:477   */\n      swap1\n      pop\n        /* \"#utility.yul\":334:483   */\n      swap2\n      swap1\n      pop\n      jump\t// out\n        /* \"#utility.yul\":489:609   */\n    tag_242:\n        /* \"#utility.yul\":561:584   */\n      tag_305\n        /* \"#utility.yul\":578:583   */\n      dup2\n        /* \"#utility.yul\":561:584   */\n      tag_241\n      jump\t// in\n    tag_305:\n        /* \"#utility.yul\":554:559   */\n      dup2\n        /* \"#utility.yul\":551:585   */\n      eq\n        /* \"#utility.yul\":541:603   */\n      tag_306\n      jumpi\n        /* \"#utility.yul\":599:600   */\n      0x00\n        /* \"#utility.yul\":596:597   */\n      dup1\n        /* \"#utility.yul\":589:601   */\n      revert\n        /* \"#utility.yul\":541:603   */\n    tag_306:\n        /* \"#utility.yul\":489:609   */\n      pop\n      jump\t// out\n        /* \"#utility.yul\":615:752   */\n    tag_243:\n        /* \"#utility.yul\":660:665   */\n      0x00\n        /* \"#utility.yul\":698:704   */\n      dup2\n        /* \"#utility.yul\":685:705   */\n      calldataload\n        /* \"#utility.yul\":676:705   */\n      swap1\n      pop\n        /* \"#utility.yul\":714:746   */\n      tag_308\n        /* \"#utility.yul\":740:745   */\n      dup2\n        /* \"#utility.yul\":714:746   */\n      tag_242\n      jump\t// in\n    tag_308:\n        /* \"#utility.yul\":615:752   */\n      swap3\n      swap2\n      pop\n      pop\n      jump\t// out\n        /* \"#utility.yul\":758:1085   */\n    tag_27:\n        /* \"#utility.yul\":816:822   */\n      0x00\n        /* \"#utility.yul\":865:867   */\n      0x20\n        /* \"#utility.yul\":853:862   */\n      dup3\n        /* \"#utility.yul\":844:851   */\n      dup5\n        /* \"#utility.yul\":840:863   */\n      sub\n        /* \"#utility.yul\":836:868   */\n      slt\n        /* \"#utility.yul\":833:952   */\n      iszero\n      tag_310\n      jumpi\n        /* \"#utility.yul\":871:950   */\n      tag_311\n      tag_239\n      jump\t// in\n    tag_311:\n        /* \"#utility.yul\":833:952   */\n    tag_310:\n        /* \"#utility.yul\":991:992   */\n      0x00\n        /* \"#utility.yul\":1016:1068   */\n      tag_312\n        /* \"#utility.yul\":1060:1067   */\n      dup5\n        /* \"#utility.yul\":1051:1057   */\n      dup3\n        /* \"#utility.yul\":1040:1049   */\n      dup6\n        /* \"#utility.yul\":1036:1058   */\n      add\n        /* \"#utility.yul\":1016:1068   */\n      tag_243\n      jump\t// in\n    tag_312:\n        /* \"#utility.yul\":1006:1068   */\n      swap2\n      pop\n        /* \"#utility.yul\":962:1078   */\n      pop\n        /* \"#utility.yul\":758:1085   */\n      swap3\n      swap2\n      pop\n      pop\n      jump\t// out\n        /* \"#utility.yul\":1091:1181   */\n    tag_244:\n        /* \"#utility.yul\":1125:1132   */\n      0x00\n        /* \"#utility.yul\":1168:1173   */\n      dup2\n        /* \"#utility.yul\":1161:1174   */\n      iszero\n        /* \"#utility.yul\":1154:1175   */\n      iszero\n        /* \"#utility.yul\":1143:1175   */\n      swap1\n      pop\n        /* \"#utility.yul\":1091:1181   */\n      swap2\n      swap1\n      pop\n      jump\t// out\n        /* \"#utility.yul\":1187:1296   */\n    tag_245:\n        /* \"#utility.yul\":1268:1289   */\n      tag_315\n        /* \"#utility.yul\":1283:1288   */\n      dup2\n        /* \"#utility.yul\":1268:1289   */\n      tag_244\n      jump\t// in\n    tag_315:\n        /* \"#utility.yul\":1263:1266   */\n      dup3\n        /* \"#utility.yul\":1256:1290   */\n      mstore\n        /* \"#utility.yul\":1187:1296   */\n      pop\n      pop\n      jump\t// out\n        /* \"#utility.yul\":1302:1512   */\n    tag_30:\n        /* \"#utility.yul\":1389:1393   */\n      0x00\n        /* \"#utility.yul\":1427:1429   */\n      0x20\n        /* \"#utility.yul\":1416:1425   */\n      dup3\n        /* \"#utility.yul\":1412:1430   */\n      add\n        /* \"#utility.yul\":1404:1430   */\n      swap1\n      pop\n        /* \"#utility.yul\":1440:1505   */\n      tag_317\n        /* \"#utility.yul\":1502:1503   */\n      0x00\n        /* \"#utility.yul\":1491:1500   */\n      dup4\n        /* \"#utility.yul\":1487:1504   */\n      add\n        /* \"#utility.yul\":1478:1484   */\n      dup5\n        /* \"#utility.yul\":1440:1505   */\n      tag_245\n      jump\t// in\n    tag_317:\n        /* \"#utility.yul\":1302:1512   */\n      swap3\n      swap2\n      pop\n      pop\n      jump\t// out\n        /* \"#utility.yul\":1518:1595   */\n    tag_246:\n        /* \"#utility.yul\":1555:1562   */\n      0x00\n        /* \"#utility.yul\":1584:1589   */\n      dup2\n        /* \"#utility.yul\":1573:1589   */\n      swap1\n      pop\n        /* \"#utility.yul\":1518:1595   */\n      swap2\n      swap1\n      pop\n      jump\t// out\n        /* \"#utility.yul\":1601:1723   */\n    tag_247:\n        /* \"#utility.yul\":1674:1698   */\n      tag_320\n        /* \"#utility.yul\":1692:1697   */\n      dup2\n        /* \"#utility.yul\":1674:1698   */\n      tag_246\n      jump\t// in\n    tag_320:\n        /* \"#utility.yul\":1667:1672   */\n      dup2\n        /* \"#utility.yul\":1664:1699   */\n      eq\n        /* \"#utility.yul\":1654:1717   */\n      tag_321\n      jumpi\n        /* \"#utility.yul\":1713:1714   */\n      0x00\n        /* \"#utility.yul\":1710:1711   */\n      dup1\n        /* \"#utility.yul\":1703:1715   */\n      revert\n        /* \"#utility.yul\":1654:1717   */\n    tag_321:\n        /* \"#utility.yul\":1601:1723   */\n      pop\n      jump\t// out\n        /* \"#utility.yul\":1729:1868   */\n    tag_248:\n        /* \"#utility.yul\":1775:1780   */\n      0x00\n        /* \"#utility.yul\":1813:1819   */\n      dup2\n        /* \"#utility.yul\":1800:1820   */\n      calldataload\n        /* \"#utility.yul\":1791:1820   */\n      swap1\n      pop\n        /* \"#utility.yul\":1829:1862   */\n      tag_323\n        /* \"#utility.yul\":1856:1861   */\n      dup2\n        /* \"#utility.yul\":1829:1862   */\n      tag_247\n      jump\t// in\n    tag_323:\n        /* \"#utility.yul\":1729:1868   */\n      swap3\n      swap2\n      pop\n      pop\n      jump\t// out\n        /* \"#utility.yul\":1874:2203   */\n    tag_33:\n        /* \"#utility.yul\":1933:1939   */\n      0x00\n        /* \"#utility.yul\":1982:1984   */\n      0x20\n        /* \"#utility.yul\":1970:1979   */\n      dup3\n        /* \"#utility.yul\":1961:1968   */\n      dup5\n        /* \"#utility.yul\":1957:1980   */\n      sub\n        /* \"#utility.yul\":1953:1985   */\n      slt\n        /* \"#utility.yul\":1950:2069   */\n      iszero\n      tag_325\n      jumpi\n        /* \"#utility.yul\":1988:2067   */\n      tag_326\n      tag_239\n      jump\t// in\n    tag_326:\n        /* \"#utility.yul\":1950:2069   */\n    tag_325:\n        /* \"#utility.yul\":2108:2109   */\n      0x00\n        /* \"#utility.yul\":2133:2186   */\n      tag_327\n        /* \"#utility.yul\":2178:2185   */\n      dup5\n        /* \"#utility.yul\":2169:2175   */\n      dup3\n        /* \"#utility.yul\":2158:2167   */\n      dup6\n        /* \"#utility.yul\":2154:2176   */\n      add\n        /* \"#utility.yul\":2133:2186   */\n      tag_248\n      jump\t// in\n    tag_327:\n        /* \"#utility.yul\":2123:2186   */\n      swap2\n      pop\n        /* \"#utility.yul\":2079:2196   */\n      pop\n        /* \"#utility.yul\":1874:2203   */\n      swap3\n      swap2\n      pop\n      pop\n      jump\t// out\n        /* \"#utility.yul\":2209:2335   */\n    tag_249:\n        /* \"#utility.yul\":2246:2253   */\n      0x00\n        /* \"#utility.yul\":2286:2328   */\n      0xffffffffffffffffffffffffffffffffffffffff\n        /* \"#utility.yul\":2279:2284   */\n      dup3\n        /* \"#utility.yul\":2275:2329   */\n      and\n        /* \"#utility.yul\":2264:2329   */\n      swap1\n      pop\n        /* \"#utility.yul\":2209:2335   */\n      swap2\n      swap1\n      pop\n      jump\t// out\n        /* \"#utility.yul\":2341:2437   */\n    tag_250:\n        /* \"#utility.yul\":2378:2385   */\n      0x00\n        /* \"#utility.yul\":2407:2431   */\n      tag_330\n        /* \"#utility.yul\":2425:2430   */\n      dup3\n        /* \"#utility.yul\":2407:2431   */\n      tag_249\n      jump\t// in\n    tag_330:\n        /* \"#utility.yul\":2396:2431   */\n      swap1\n      pop\n        /* \"#utility.yul\":2341:2437   */\n      swap2\n      swap1\n      pop\n      jump\t// out\n        /* \"#utility.yul\":2443:2561   */\n    tag_251:\n        /* \"#utility.yul\":2530:2554   */\n      tag_332\n        /* \"#utility.yul\":2548:2553   */\n      dup2\n        /* \"#utility.yul\":2530:2554   */\n      tag_250\n      jump\t// in\n    tag_332:\n        /* \"#utility.yul\":2525:2528   */\n      dup3\n        /* \"#utility.yul\":2518:2555   */\n      mstore\n        /* \"#utility.yul\":2443:2561   */\n      pop\n      pop\n      jump\t// out\n        /* \"#utility.yul\":2567:2789   */\n    tag_36:\n        /* \"#utility.yul\":2660:2664   */\n      0x00\n        /* \"#utility.yul\":2698:2700   */\n      0x20\n        /* \"#utility.yul\":2687:2696   */\n      dup3\n        /* \"#utility.yul\":2683:2701   */\n      add\n        /* \"#utility.yul\":2675:2701   */\n      swap1\n      pop\n        /* \"#utility.yul\":2711:2782   */\n      tag_334\n        /* \"#utility.yul\":2779:2780   */\n      0x00\n        /* \"#utility.yul\":2768:2777   */\n      dup4\n        /* \"#utility.yul\":2764:2781   */\n      add\n        /* \"#utility.yul\":2755:2761   */\n      dup5\n        /* \"#utility.yul\":2711:2782   */\n      tag_251\n      jump\t// in\n    tag_334:\n        /* \"#utility.yul\":2567:2789   */\n      swap3\n      swap2\n      pop\n      pop\n      jump\t// out\n        /* \"#utility.yul\":2795:2917   */\n    tag_252:\n        /* \"#utility.yul\":2868:2892   */\n      tag_336\n        /* \"#utility.yul\":2886:2891   */\n      dup2\n        /* \"#utility.yul\":2868:2892   */\n      tag_250\n      jump\t// in\n    tag_336:\n        /* \"#utility.yul\":2861:2866   */\n      dup2\n        /* \"#utility.yul\":2858:2893   */\n      eq\n        /* \"#utility.yul\":2848:2911   */\n      tag_337\n      jumpi\n        /* \"#utility.yul\":2907:2908   */\n      0x00\n        /* \"#utility.yul\":2904:2905   */\n      dup1\n        /* \"#utility.yul\":2897:2909   */\n      revert\n        /* \"#utility.yul\":2848:2911   */\n    tag_337:\n        /* \"#utility.yul\":2795:2917   */\n      pop\n      jump\t// out\n        /* \"#utility.yul\":2923:3062   */\n    tag_253:\n        /* \"#utility.yul\":2969:2974   */\n      0x00\n        /* \"#utility.yul\":3007:3013   */\n      dup2\n        /* \"#utility.yul\":2994:3014   */\n      calldataload\n        /* \"#utility.yul\":2985:3014   */\n      swap1\n      pop\n        /* \"#utility.yul\":3023:3056   */\n      tag_339\n        /* \"#utility.yul\":3050:3055   */\n      dup2\n        /* \"#utility.yul\":3023:3056   */\n      tag_252\n      jump\t// in\n    tag_339:\n        /* \"#utility.yul\":2923:3062   */\n      swap3\n      swap2\n      pop\n      pop\n      jump\t// out\n        /* \"#utility.yul\":3068:3542   */\n    tag_39:\n        /* \"#utility.yul\":3136:3142   */\n      0x00\n        /* \"#utility.yul\":3144:3150   */\n      dup1\n        /* \"#utility.yul\":3193:3195   */\n      0x40\n        /* \"#utility.yul\":3181:3190   */\n      dup4\n        /* \"#utility.yul\":3172:3179   */\n      dup6\n        /* \"#utility.yul\":3168:3191   */\n      sub\n        /* \"#utility.yul\":3164:3196   */\n      slt\n        /* \"#utility.yul\":3161:3280   */\n      iszero\n      tag_341\n      jumpi\n        /* \"#utility.yul\":3199:3278   */\n      tag_342\n      tag_239\n      jump\t// in\n    tag_342:\n        /* \"#utility.yul\":3161:3280   */\n    tag_341:\n        /* \"#utility.yul\":3319:3320   */\n      0x00\n        /* \"#utility.yul\":3344:3397   */\n      tag_343\n        /* \"#utility.yul\":3389:3396   */\n      dup6\n        /* \"#utility.yul\":3380:3386   */\n      dup3\n        /* \"#utility.yul\":3369:3378   */\n      dup7\n        /* \"#utility.yul\":3365:3387   */\n      add\n        /* \"#utility.yul\":3344:3397   */\n      tag_253\n      jump\t// in\n    tag_343:\n        /* \"#utility.yul\":3334:3397   */\n      swap3\n      pop\n        /* \"#utility.yul\":3290:3407   */\n      pop\n        /* \"#utility.yul\":3446:3448   */\n      0x20\n        /* \"#utility.yul\":3472:3525   */\n      tag_344\n        /* \"#utility.yul\":3517:3524   */\n      dup6\n        /* \"#utility.yul\":3508:3514   */\n      dup3\n        /* \"#utility.yul\":3497:3506   */\n      dup7\n        /* \"#utility.yul\":3493:3515   */\n      add\n        /* \"#utility.yul\":3472:3525   */\n      tag_248\n      jump\t// in\n    tag_344:\n        /* \"#utility.yul\":3462:3525   */\n      swap2\n      pop\n        /* \"#utility.yul\":3417:3535   */\n      pop\n        /* \"#utility.yul\":3068:3542   */\n      swap3\n      pop\n      swap3\n      swap1\n      pop\n      jump\t// out\n        /* \"#utility.yul\":3548:4167   */\n    tag_43:\n        /* \"#utility.yul\":3625:3631   */\n      0x00\n        /* \"#utility.yul\":3633:3639   */\n      dup1\n        /* \"#utility.yul\":3641:3647   */\n      0x00\n        /* \"#utility.yul\":3690:3692   */\n      0x60\n        /* \"#utility.yul\":3678:3687   */\n      dup5\n        /* \"#utility.yul\":3669:3676   */\n      dup7\n        /* \"#utility.yul\":3665:3688   */\n      sub\n        /* \"#utility.yul\":3661:3693   */\n      slt\n        /* \"#utility.yul\":3658:3777   */\n      iszero\n      tag_346\n      jumpi\n        /* \"#utility.yul\":3696:3775   */\n      tag_347\n      tag_239\n      jump\t// in\n    tag_347:\n        /* \"#utility.yul\":3658:3777   */\n    tag_346:\n        /* \"#utility.yul\":3816:3817   */\n      0x00\n        /* \"#utility.yul\":3841:3894   */\n      tag_348\n        /* \"#utility.yul\":3886:3893   */\n      dup7\n        /* \"#utility.yul\":3877:3883   */\n      dup3\n        /* \"#utility.yul\":3866:3875   */\n      dup8\n        /* \"#utility.yul\":3862:3884   */\n      add\n        /* \"#utility.yul\":3841:3894   */\n      tag_253\n      jump\t// in\n    tag_348:\n        /* \"#utility.yul\":3831:3894   */\n      swap4\n      pop\n        /* \"#utility.yul\":3787:3904   */\n      pop\n        /* \"#utility.yul\":3943:3945   */\n      0x20\n        /* \"#utility.yul\":3969:4022   */\n      tag_349\n        /* \"#utility.yul\":4014:4021   */\n      dup7\n        /* \"#utility.yul\":4005:4011   */\n      dup3\n        /* \"#utility.yul\":3994:4003   */\n      dup8\n        /* \"#utility.yul\":3990:4012   */\n      add\n        /* \"#utility.yul\":3969:4022   */\n      tag_253\n      jump\t// in\n    tag_349:\n        /* \"#utility.yul\":3959:4022   */\n      swap3\n      pop\n        /* \"#utility.yul\":3914:4032   */\n      pop\n        /* \"#utility.yul\":4071:4073   */\n      0x40\n        /* \"#utility.yul\":4097:4150   */\n      tag_350\n        /* \"#utility.yul\":4142:4149   */\n      dup7\n        /* \"#utility.yul\":4133:4139   */\n      dup3\n        /* \"#utility.yul\":4122:4131   */\n      dup8\n        /* \"#utility.yul\":4118:4140   */\n      add\n        /* \"#utility.yul\":4097:4150   */\n      tag_248\n      jump\t// in\n    tag_350:\n        /* \"#utility.yul\":4087:4150   */\n      swap2\n      pop\n        /* \"#utility.yul\":4042:4160   */\n      pop\n        /* \"#utility.yul\":3548:4167   */\n      swap3\n      pop\n      swap3\n      pop\n      swap3\n      jump\t// out\n        /* \"#utility.yul\":4173:4502   */\n    tag_57:\n        /* \"#utility.yul\":4232:4238   */\n      0x00\n        /* \"#utility.yul\":4281:4283   */\n      0x20\n        /* \"#utility.yul\":4269:4278   */\n      dup3\n        /* \"#utility.yul\":4260:4267   */\n      dup5\n        /* \"#utility.yul\":4256:4279   */\n      sub\n        /* \"#utility.yul\":4252:4284   */\n      slt\n        /* \"#utility.yul\":4249:4368   */\n      iszero\n      tag_352\n      jumpi\n        /* \"#utility.yul\":4287:4366   */\n      tag_353\n      tag_239\n      jump\t// in\n    tag_353:\n        /* \"#utility.yul\":4249:4368   */\n    tag_352:\n        /* \"#utility.yul\":4407:4408   */\n      0x00\n        /* \"#utility.yul\":4432:4485   */\n      tag_354\n        /* \"#utility.yul\":4477:4484   */\n      dup5\n        /* \"#utility.yul\":4468:4474   */\n      dup3\n        /* \"#utility.yul\":4457:4466   */\n      dup6\n        /* \"#utility.yul\":4453:4475   */\n      add\n        /* \"#utility.yul\":4432:4485   */\n      tag_253\n      jump\t// in\n    tag_354:\n        /* \"#utility.yul\":4422:4485   */\n      swap2\n      pop\n        /* \"#utility.yul\":4378:4495   */\n      pop\n        /* \"#utility.yul\":4173:4502   */\n      swap3\n      swap2\n      pop\n      pop\n      jump\t// out\n        /* \"#utility.yul\":4508:4626   */\n    tag_254:\n        /* \"#utility.yul\":4595:4619   */\n      tag_356\n        /* \"#utility.yul\":4613:4618   */\n      dup2\n        /* \"#utility.yul\":4595:4619   */\n      tag_246\n      jump\t// in\n    tag_356:\n        /* \"#utility.yul\":4590:4593   */\n      dup3\n        /* \"#utility.yul\":4583:4620   */\n      mstore\n        /* \"#utility.yul\":4508:4626   */\n      pop\n      pop\n      jump\t// out\n        /* \"#utility.yul\":4632:4854   */\n    tag_60:\n        /* \"#utility.yul\":4725:4729   */\n      0x00\n        /* \"#utility.yul\":4763:4765   */\n      0x20\n        /* \"#utility.yul\":4752:4761   */\n      dup3\n        /* \"#utility.yul\":4748:4766   */\n      add\n        /* \"#utility.yul\":4740:4766   */\n      swap1\n      pop\n        /* \"#utility.yul\":4776:4847   */\n      tag_358\n        /* \"#utility.yul\":4844:4845   */\n      0x00\n        /* \"#utility.yul\":4833:4842   */\n      dup4\n        /* \"#utility.yul\":4829:4846   */\n      add\n        /* \"#utility.yul\":4820:4826   */\n      dup5\n        /* \"#utility.yul\":4776:4847   */\n      tag_254\n      jump\t// in\n    tag_358:\n        /* \"#utility.yul\":4632:4854   */\n      swap3\n      swap2\n      pop\n      pop\n      jump\t// out\n        /* \"#utility.yul\":4860:6063   */\n    tag_67:\n        /* \"#utility.yul\":4973:4979   */\n      0x00\n        /* \"#utility.yul\":4981:4987   */\n      dup1\n        /* \"#utility.yul\":4989:4995   */\n      0x00\n        /* \"#utility.yul\":4997:5003   */\n      dup1\n        /* \"#utility.yul\":5005:5011   */\n      0x00\n        /* \"#utility.yul\":5013:5019   */\n      dup1\n        /* \"#utility.yul\":5021:5027   */\n      0x00\n        /* \"#utility.yul\":5070:5073   */\n      0xe0\n        /* \"#utility.yul\":5058:5067   */\n      dup9\n        /* \"#utility.yul\":5049:5056   */\n      dup11\n        /* \"#utility.yul\":5045:5068   */\n      sub\n        /* \"#utility.yul\":5041:5074   */\n      slt\n        /* \"#utility.yul\":5038:5158   */\n      iszero\n      tag_360\n      jumpi\n        /* \"#utility.yul\":5077:5156   */\n      tag_361\n      tag_239\n      jump\t// in\n    tag_361:\n        /* \"#utility.yul\":5038:5158   */\n    tag_360:\n        /* \"#utility.yul\":5197:5198   */\n      0x00\n        /* \"#utility.yul\":5222:5275   */\n      tag_362\n        /* \"#utility.yul\":5267:5274   */\n      dup11\n        /* \"#utility.yul\":5258:5264   */\n      dup3\n        /* \"#utility.yul\":5247:5256   */\n      dup12\n        /* \"#utility.yul\":5243:5265   */\n      add\n        /* \"#utility.yul\":5222:5275   */\n      tag_248\n      jump\t// in\n    tag_362:\n        /* \"#utility.yul\":5212:5275   */\n      swap8\n      pop\n        /* \"#utility.yul\":5168:5285   */\n      pop\n        /* \"#utility.yul\":5324:5326   */\n      0x20\n        /* \"#utility.yul\":5350:5403   */\n      tag_363\n        /* \"#utility.yul\":5395:5402   */\n      dup11\n        /* \"#utility.yul\":5386:5392   */\n      dup3\n        /* \"#utility.yul\":5375:5384   */\n      dup12\n        /* \"#utility.yul\":5371:5393   */\n      add\n        /* \"#utility.yul\":5350:5403   */\n      tag_253\n      jump\t// in\n    tag_363:\n        /* \"#utility.yul\":5340:5403   */\n      swap7\n      pop\n        /* \"#utility.yul\":5295:5413   */\n      pop\n        /* \"#utility.yul\":5452:5454   */\n      0x40\n        /* \"#utility.yul\":5478:5531   */\n      tag_364\n        /* \"#utility.yul\":5523:5530   */\n      dup11\n        /* \"#utility.yul\":5514:5520   */\n      dup3\n        /* \"#utility.yul\":5503:5512   */\n      dup12\n        /* \"#utility.yul\":5499:5521   */\n      add\n        /* \"#utility.yul\":5478:5531   */\n      tag_253\n      jump\t// in\n    tag_364:\n        /* \"#utility.yul\":5468:5531   */\n      swap6\n      pop\n        /* \"#utility.yul\":5423:5541   */\n      pop\n        /* \"#utility.yul\":5580:5582   */\n      0x60\n        /* \"#utility.yul\":5606:5659   */\n      tag_365\n        /* \"#utility.yul\":5651:5658   */\n      dup11\n        /* \"#utility.yul\":5642:5648   */\n      dup3\n        /* \"#utility.yul\":5631:5640   */\n      dup12\n        /* \"#utility.yul\":5627:5649   */\n      add\n        /* \"#utility.yul\":5606:5659   */\n      tag_253\n      jump\t// in\n    tag_365:\n        /* \"#utility.yul\":5596:5659   */\n      swap5\n      pop\n        /* \"#utility.yul\":5551:5669   */\n      pop\n        /* \"#utility.yul\":5708:5711   */\n      0x80\n        /* \"#utility.yul\":5735:5788   */\n      tag_366\n        /* \"#utility.yul\":5780:5787   */\n      dup11\n        /* \"#utility.yul\":5771:5777   */\n      dup3\n        /* \"#utility.yul\":5760:5769   */\n      dup12\n        /* \"#utility.yul\":5756:5778   */\n      add\n        /* \"#utility.yul\":5735:5788   */\n      tag_248\n      jump\t// in\n    tag_366:\n        /* \"#utility.yul\":5725:5788   */\n      swap4\n      pop\n        /* \"#utility.yul\":5679:5798   */\n      pop\n        /* \"#utility.yul\":5837:5840   */\n      0xa0\n        /* \"#utility.yul\":5864:5917   */\n      tag_367\n        /* \"#utility.yul\":5909:5916   */\n      dup11\n        /* \"#utility.yul\":5900:5906   */\n      dup3\n        /* \"#utility.yul\":5889:5898   */\n      dup12\n        /* \"#utility.yul\":5885:5907   */\n      add\n        /* \"#utility.yul\":5864:5917   */\n      tag_248\n      jump\t// in\n    tag_367:\n        /* \"#utility.yul\":5854:5917   */\n      swap3\n      pop\n        /* \"#utility.yul\":5808:5927   */\n      pop\n        /* \"#utility.yul\":5966:5969   */\n      0xc0\n        /* \"#utility.yul\":5993:6046   */\n      tag_368\n        /* \"#utility.yul\":6038:6045   */\n      dup11\n        /* \"#utility.yul\":6029:6035   */\n      dup3\n        /* \"#utility.yul\":6018:6027   */\n      dup12\n        /* \"#utility.yul\":6014:6036   */\n      add\n        /* \"#utility.yul\":5993:6046   */\n      tag_248\n      jump\t// in\n    tag_368:\n        /* \"#utility.yul\":5983:6046   */\n      swap2\n      pop\n        /* \"#utility.yul\":5937:6056   */\n      pop\n        /* \"#utility.yul\":4860:6063   */\n      swap3\n      swap6\n      swap9\n      swap2\n      swap5\n      swap8\n      pop\n      swap3\n      swap6\n      pop\n      jump\t// out\n        /* \"#utility.yul\":6069:6177   */\n    tag_255:\n        /* \"#utility.yul\":6146:6170   */\n      tag_370\n        /* \"#utility.yul\":6164:6169   */\n      dup2\n        /* \"#utility.yul\":6146:6170   */\n      tag_246\n      jump\t// in\n    tag_370:\n        /* \"#utility.yul\":6141:6144   */\n      dup3\n        /* \"#utility.yul\":6134:6171   */\n      mstore\n        /* \"#utility.yul\":6069:6177   */\n      pop\n      pop\n      jump\t// out\n        /* \"#utility.yul\":6183:6291   */\n    tag_256:\n        /* \"#utility.yul\":6260:6284   */\n      tag_372\n        /* \"#utility.yul\":6278:6283   */\n      dup2\n        /* \"#utility.yul\":6260:6284   */\n      tag_250\n      jump\t// in\n    tag_372:\n        /* \"#utility.yul\":6255:6258   */\n      dup3\n        /* \"#utility.yul\":6248:6285   */\n      mstore\n        /* \"#utility.yul\":6183:6291   */\n      pop\n      pop\n      jump\t// out\n        /* \"#utility.yul\":6391:7788   */\n    tag_257:\n        /* \"#utility.yul\":6546:6550   */\n      0xe0\n        /* \"#utility.yul\":6541:6544   */\n      dup3\n        /* \"#utility.yul\":6537:6551   */\n      add\n        /* \"#utility.yul\":6635:6639   */\n      0x00\n        /* \"#utility.yul\":6628:6633   */\n      dup3\n        /* \"#utility.yul\":6624:6640   */\n      add\n        /* \"#utility.yul\":6618:6641   */\n      mload\n        /* \"#utility.yul\":6654:6717   */\n      tag_374\n        /* \"#utility.yul\":6711:6715   */\n      0x00\n        /* \"#utility.yul\":6706:6709   */\n      dup6\n        /* \"#utility.yul\":6702:6716   */\n      add\n        /* \"#utility.yul\":6688:6700   */\n      dup3\n        /* \"#utility.yul\":6654:6717   */\n      tag_255\n      jump\t// in\n    tag_374:\n        /* \"#utility.yul\":6561:6727   */\n      pop\n        /* \"#utility.yul\":6810:6814   */\n      0x20\n        /* \"#utility.yul\":6803:6808   */\n      dup3\n        /* \"#utility.yul\":6799:6815   */\n      add\n        /* \"#utility.yul\":6793:6816   */\n      mload\n        /* \"#utility.yul\":6829:6892   */\n      tag_375\n        /* \"#utility.yul\":6886:6890   */\n      0x20\n        /* \"#utility.yul\":6881:6884   */\n      dup6\n        /* \"#utility.yul\":6877:6891   */\n      add\n        /* \"#utility.yul\":6863:6875   */\n      dup3\n        /* \"#utility.yul\":6829:6892   */\n      tag_256\n      jump\t// in\n    tag_375:\n        /* \"#utility.yul\":6737:6902   */\n      pop\n        /* \"#utility.yul\":6986:6990   */\n      0x40\n        /* \"#utility.yul\":6979:6984   */\n      dup3\n        /* \"#utility.yul\":6975:6991   */\n      add\n        /* \"#utility.yul\":6969:6992   */\n      mload\n        /* \"#utility.yul\":7005:7068   */\n      tag_376\n        /* \"#utility.yul\":7062:7066   */\n      0x40\n        /* \"#utility.yul\":7057:7060   */\n      dup6\n        /* \"#utility.yul\":7053:7067   */\n      add\n        /* \"#utility.yul\":7039:7051   */\n      dup3\n        /* \"#utility.yul\":7005:7068   */\n      tag_256\n      jump\t// in\n    tag_376:\n        /* \"#utility.yul\":6912:7078   */\n      pop\n        /* \"#utility.yul\":7162:7166   */\n      0x60\n        /* \"#utility.yul\":7155:7160   */\n      dup3\n        /* \"#utility.yul\":7151:7167   */\n      add\n        /* \"#utility.yul\":7145:7168   */\n      mload\n        /* \"#utility.yul\":7181:7244   */\n      tag_377\n        /* \"#utility.yul\":7238:7242   */\n      0x60\n        /* \"#utility.yul\":7233:7236   */\n      dup6\n        /* \"#utility.yul\":7229:7243   */\n      add\n        /* \"#utility.yul\":7215:7227   */\n      dup3\n        /* \"#utility.yul\":7181:7244   */\n      tag_256\n      jump\t// in\n    tag_377:\n        /* \"#utility.yul\":7088:7254   */\n      pop\n        /* \"#utility.yul\":7335:7339   */\n      0x80\n        /* \"#utility.yul\":7328:7333   */\n      dup3\n        /* \"#utility.yul\":7324:7340   */\n      add\n        /* \"#utility.yul\":7318:7341   */\n      mload\n        /* \"#utility.yul\":7354:7417   */\n      tag_378\n        /* \"#utility.yul\":7411:7415   */\n      0x80\n        /* \"#utility.yul\":7406:7409   */\n      dup6\n        /* \"#utility.yul\":7402:7416   */\n      add\n        /* \"#utility.yul\":7388:7400   */\n      dup3\n        /* \"#utility.yul\":7354:7417   */\n      tag_255\n      jump\t// in\n    tag_378:\n        /* \"#utility.yul\":7264:7427   */\n      pop\n        /* \"#utility.yul\":7512:7516   */\n      0xa0\n        /* \"#utility.yul\":7505:7510   */\n      dup3\n        /* \"#utility.yul\":7501:7517   */\n      add\n        /* \"#utility.yul\":7495:7518   */\n      mload\n        /* \"#utility.yul\":7531:7594   */\n      tag_379\n        /* \"#utility.yul\":7588:7592   */\n      0xa0\n        /* \"#utility.yul\":7583:7586   */\n      dup6\n        /* \"#utility.yul\":7579:7593   */\n      add\n        /* \"#utility.yul\":7565:7577   */\n      dup3\n        /* \"#utility.yul\":7531:7594   */\n      tag_255\n      jump\t// in\n    tag_379:\n        /* \"#utility.yul\":7437:7604   */\n      pop\n        /* \"#utility.yul\":7689:7693   */\n      0xc0\n        /* \"#utility.yul\":7682:7687   */\n      dup3\n        /* \"#utility.yul\":7678:7694   */\n      add\n        /* \"#utility.yul\":7672:7695   */\n      mload\n        /* \"#utility.yul\":7708:7771   */\n      tag_380\n        /* \"#utility.yul\":7765:7769   */\n      0xc0\n        /* \"#utility.yul\":7760:7763   */\n      dup6\n        /* \"#utility.yul\":7756:7770   */\n      add\n        /* \"#utility.yul\":7742:7754   */\n      dup3\n        /* \"#utility.yul\":7708:7771   */\n      tag_255\n      jump\t// in\n    tag_380:\n        /* \"#utility.yul\":7614:7781   */\n      pop\n        /* \"#utility.yul\":6515:7788   */\n      pop\n        /* \"#utility.yul\":6391:7788   */\n      pop\n      pop\n      jump\t// out\n        /* \"#utility.yul\":7794:8133   */\n    tag_70:\n        /* \"#utility.yul\":7945:7949   */\n      0x00\n        /* \"#utility.yul\":7983:7986   */\n      0xe0\n        /* \"#utility.yul\":7972:7981   */\n      dup3\n        /* \"#utility.yul\":7968:7987   */\n      add\n        /* \"#utility.yul\":7960:7987   */\n      swap1\n      pop\n        /* \"#utility.yul\":7997:8126   */\n      tag_382\n        /* \"#utility.yul\":8123:8124   */\n      0x00\n        /* \"#utility.yul\":8112:8121   */\n      dup4\n        /* \"#utility.yul\":8108:8125   */\n      add\n        /* \"#utility.yul\":8099:8105   */\n      dup5\n        /* \"#utility.yul\":7997:8126   */\n      tag_257\n      jump\t// in\n    tag_382:\n        /* \"#utility.yul\":7794:8133   */\n      swap3\n      swap2\n      pop\n      pop\n      jump\t// out\n        /* \"#utility.yul\":8139:8256   */\n    tag_258:\n        /* \"#utility.yul\":8248:8249   */\n      0x00\n        /* \"#utility.yul\":8245:8246   */\n      dup1\n        /* \"#utility.yul\":8238:8250   */\n      revert\n        /* \"#utility.yul\":8311:8547   */\n    tag_259:\n        /* \"#utility.yul\":8388:8393   */\n      0x00\n        /* \"#utility.yul\":8429:8432   */\n      0xe0\n        /* \"#utility.yul\":8420:8426   */\n      dup3\n        /* \"#utility.yul\":8415:8418   */\n      dup5\n        /* \"#utility.yul\":8411:8427   */\n      sub\n        /* \"#utility.yul\":8407:8433   */\n      slt\n        /* \"#utility.yul\":8404:8517   */\n      iszero\n      tag_385\n      jumpi\n        /* \"#utility.yul\":8436:8515   */\n      tag_386\n      tag_258\n      jump\t// in\n    tag_386:\n        /* \"#utility.yul\":8404:8517   */\n    tag_385:\n        /* \"#utility.yul\":8535:8541   */\n      dup2\n        /* \"#utility.yul\":8526:8541   */\n      swap1\n      pop\n        /* \"#utility.yul\":8311:8547   */\n      swap3\n      swap2\n      pop\n      pop\n      jump\t// out\n        /* \"#utility.yul\":8553:9090   */\n    tag_76:\n        /* \"#utility.yul\":8652:8658   */\n      0x00\n        /* \"#utility.yul\":8660:8666   */\n      dup1\n        /* \"#utility.yul\":8709:8712   */\n      0x0100\n        /* \"#utility.yul\":8697:8706   */\n      dup4\n        /* \"#utility.yul\":8688:8695   */\n      dup6\n        /* \"#utility.yul\":8684:8707   */\n      sub\n        /* \"#utility.yul\":8680:8713   */\n      slt\n        /* \"#utility.yul\":8677:8797   */\n      iszero\n      tag_388\n      jumpi\n        /* \"#utility.yul\":8716:8795   */\n      tag_389\n      tag_239\n      jump\t// in\n    tag_389:\n        /* \"#utility.yul\":8677:8797   */\n    tag_388:\n        /* \"#utility.yul\":8836:8837   */\n      0x00\n        /* \"#utility.yul\":8861:8914   */\n      tag_390\n        /* \"#utility.yul\":8906:8913   */\n      dup6\n        /* \"#utility.yul\":8897:8903   */\n      dup3\n        /* \"#utility.yul\":8886:8895   */\n      dup7\n        /* \"#utility.yul\":8882:8904   */\n      add\n        /* \"#utility.yul\":8861:8914   */\n      tag_253\n      jump\t// in\n    tag_390:\n        /* \"#utility.yul\":8851:8914   */\n      swap3\n      pop\n        /* \"#utility.yul\":8807:8924   */\n      pop\n        /* \"#utility.yul\":8963:8965   */\n      0x20\n        /* \"#utility.yul\":8989:9073   */\n      tag_391\n        /* \"#utility.yul\":9065:9072   */\n      dup6\n        /* \"#utility.yul\":9056:9062   */\n      dup3\n        /* \"#utility.yul\":9045:9054   */\n      dup7\n        /* \"#utility.yul\":9041:9063   */\n      add\n        /* \"#utility.yul\":8989:9073   */\n      tag_259\n      jump\t// in\n    tag_391:\n        /* \"#utility.yul\":8979:9073   */\n      swap2\n      pop\n        /* \"#utility.yul\":8934:9083   */\n      pop\n        /* \"#utility.yul\":8553:9090   */\n      swap3\n      pop\n      swap3\n      swap1\n      pop\n      jump\t// out\n        /* \"#utility.yul\":9096:9982   */\n    tag_82:\n        /* \"#utility.yul\":9357:9361   */\n      0x00\n        /* \"#utility.yul\":9395:9398   */\n      0xe0\n        /* \"#utility.yul\":9384:9393   */\n      dup3\n        /* \"#utility.yul\":9380:9399   */\n      add\n        /* \"#utility.yul\":9372:9399   */\n      swap1\n      pop\n        /* \"#utility.yul\":9409:9480   */\n      tag_393\n        /* \"#utility.yul\":9477:9478   */\n      0x00\n        /* \"#utility.yul\":9466:9475   */\n      dup4\n        /* \"#utility.yul\":9462:9479   */\n      add\n        /* \"#utility.yul\":9453:9459   */\n      dup11\n        /* \"#utility.yul\":9409:9480   */\n      tag_254\n      jump\t// in\n    tag_393:\n        /* \"#utility.yul\":9490:9562   */\n      tag_394\n        /* \"#utility.yul\":9558:9560   */\n      0x20\n        /* \"#utility.yul\":9547:9556   */\n      dup4\n        /* \"#utility.yul\":9543:9561   */\n      add\n        /* \"#utility.yul\":9534:9540   */\n      dup10\n        /* \"#utility.yul\":9490:9562   */\n      tag_251\n      jump\t// in\n    tag_394:\n        /* \"#utility.yul\":9572:9644   */\n      tag_395\n        /* \"#utility.yul\":9640:9642   */\n      0x40\n        /* \"#utility.yul\":9629:9638   */\n      dup4\n        /* \"#utility.yul\":9625:9643   */\n      add\n        /* \"#utility.yul\":9616:9622   */\n      dup9\n        /* \"#utility.yul\":9572:9644   */\n      tag_251\n      jump\t// in\n    tag_395:\n        /* \"#utility.yul\":9654:9726   */\n      tag_396\n        /* \"#utility.yul\":9722:9724   */\n      0x60\n        /* \"#utility.yul\":9711:9720   */\n      dup4\n        /* \"#utility.yul\":9707:9725   */\n      add\n        /* \"#utility.yul\":9698:9704   */\n      dup8\n        /* \"#utility.yul\":9654:9726   */\n      tag_251\n      jump\t// in\n    tag_396:\n        /* \"#utility.yul\":9736:9809   */\n      tag_397\n        /* \"#utility.yul\":9804:9807   */\n      0x80\n        /* \"#utility.yul\":9793:9802   */\n      dup4\n        /* \"#utility.yul\":9789:9808   */\n      add\n        /* \"#utility.yul\":9780:9786   */\n      dup7\n        /* \"#utility.yul\":9736:9809   */\n      tag_254\n      jump\t// in\n    tag_397:\n        /* \"#utility.yul\":9819:9892   */\n      tag_398\n        /* \"#utility.yul\":9887:9890   */\n      0xa0\n        /* \"#utility.yul\":9876:9885   */\n      dup4\n        /* \"#utility.yul\":9872:9891   */\n      add\n        /* \"#utility.yul\":9863:9869   */\n      dup6\n        /* \"#utility.yul\":9819:9892   */\n      tag_254\n      jump\t// in\n    tag_398:\n        /* \"#utility.yul\":9902:9975   */\n      tag_399\n        /* \"#utility.yul\":9970:9973   */\n      0xc0\n        /* \"#utility.yul\":9959:9968   */\n      dup4\n        /* \"#utility.yul\":9955:9974   */\n      add\n        /* \"#utility.yul\":9946:9952   */\n      dup5\n        /* \"#utility.yul\":9902:9975   */\n      tag_254\n      jump\t// in\n    tag_399:\n        /* \"#utility.yul\":9096:9982   */\n      swap9\n      swap8\n      pop\n      pop\n      pop\n      pop\n      pop\n      pop\n      pop\n      pop\n      jump\t// out\n        /* \"#utility.yul\":9988:10104   */\n    tag_260:\n        /* \"#utility.yul\":10058:10079   */\n      tag_401\n        /* \"#utility.yul\":10073:10078   */\n      dup2\n        /* \"#utility.yul\":10058:10079   */\n      tag_244\n      jump\t// in\n    tag_401:\n        /* \"#utility.yul\":10051:10056   */\n      dup2\n        /* \"#utility.yul\":10048:10080   */\n      eq\n        /* \"#utility.yul\":10038:10098   */\n      tag_402\n      jumpi\n        /* \"#utility.yul\":10094:10095   */\n      0x00\n        /* \"#utility.yul\":10091:10092   */\n      dup1\n        /* \"#utility.yul\":10084:10096   */\n      revert\n        /* \"#utility.yul\":10038:10098   */\n    tag_402:\n        /* \"#utility.yul\":9988:10104   */\n      pop\n      jump\t// out\n        /* \"#utility.yul\":10110:10243   */\n    tag_261:\n        /* \"#utility.yul\":10153:10158   */\n      0x00\n        /* \"#utility.yul\":10191:10197   */\n      dup2\n        /* \"#utility.yul\":10178:10198   */\n      calldataload\n        /* \"#utility.yul\":10169:10198   */\n      swap1\n      pop\n        /* \"#utility.yul\":10207:10237   */\n      tag_404\n        /* \"#utility.yul\":10231:10236   */\n      dup2\n        /* \"#utility.yul\":10207:10237   */\n      tag_260\n      jump\t// in\n    tag_404:\n        /* \"#utility.yul\":10110:10243   */\n      swap3\n      swap2\n      pop\n      pop\n      jump\t// out\n        /* \"#utility.yul\":10249:10717   */\n    tag_85:\n        /* \"#utility.yul\":10314:10320   */\n      0x00\n        /* \"#utility.yul\":10322:10328   */\n      dup1\n        /* \"#utility.yul\":10371:10373   */\n      0x40\n        /* \"#utility.yul\":10359:10368   */\n      dup4\n        /* \"#utility.yul\":10350:10357   */\n      dup6\n        /* \"#utility.yul\":10346:10369   */\n      sub\n        /* \"#utility.yul\":10342:10374   */\n      slt\n        /* \"#utility.yul\":10339:10458   */\n      iszero\n      tag_406\n      jumpi\n        /* \"#utility.yul\":10377:10456   */\n      tag_407\n      tag_239\n      jump\t// in\n    tag_407:\n        /* \"#utility.yul\":10339:10458   */\n    tag_406:\n        /* \"#utility.yul\":10497:10498   */\n      0x00\n        /* \"#utility.yul\":10522:10575   */\n      tag_408\n        /* \"#utility.yul\":10567:10574   */\n      dup6\n        /* \"#utility.yul\":10558:10564   */\n      dup3\n        /* \"#utility.yul\":10547:10556   */\n      dup7\n        /* \"#utility.yul\":10543:10565   */\n      add\n        /* \"#utility.yul\":10522:10575   */\n      tag_253\n      jump\t// in\n    tag_408:\n        /* \"#utility.yul\":10512:10575   */\n      swap3\n      pop\n        /* \"#utility.yul\":10468:10585   */\n      pop\n        /* \"#utility.yul\":10624:10626   */\n      0x20\n        /* \"#utility.yul\":10650:10700   */\n      tag_409\n        /* \"#utility.yul\":10692:10699   */\n      dup6\n        /* \"#utility.yul\":10683:10689   */\n      dup3\n        /* \"#utility.yul\":10672:10681   */\n      dup7\n        /* \"#utility.yul\":10668:10690   */\n      add\n        /* \"#utility.yul\":10650:10700   */\n      tag_261\n      jump\t// in\n    tag_409:\n        /* \"#utility.yul\":10640:10700   */\n      swap2\n      pop\n        /* \"#utility.yul\":10595:10710   */\n      pop\n        /* \"#utility.yul\":10249:10717   */\n      swap3\n      pop\n      swap3\n      swap1\n      pop\n      jump\t// out\n        /* \"#utility.yul\":10723:10840   */\n    tag_262:\n        /* \"#utility.yul\":10832:10833   */\n      0x00\n        /* \"#utility.yul\":10829:10830   */\n      dup1\n        /* \"#utility.yul\":10822:10834   */\n      revert\n        /* \"#utility.yul\":10846:10963   */\n    tag_263:\n        /* \"#utility.yul\":10955:10956   */\n      0x00\n        /* \"#utility.yul\":10952:10953   */\n      dup1\n        /* \"#utility.yul\":10945:10957   */\n      revert\n        /* \"#utility.yul\":10969:11086   */\n    tag_264:\n        /* \"#utility.yul\":11078:11079   */\n      0x00\n        /* \"#utility.yul\":11075:11076   */\n      dup1\n        /* \"#utility.yul\":11068:11080   */\n      revert\n        /* \"#utility.yul\":11105:11657   */\n    tag_265:\n        /* \"#utility.yul\":11162:11170   */\n      0x00\n        /* \"#utility.yul\":11172:11178   */\n      dup1\n        /* \"#utility.yul\":11222:11225   */\n      dup4\n        /* \"#utility.yul\":11215:11219   */\n      0x1f\n        /* \"#utility.yul\":11207:11213   */\n      dup5\n        /* \"#utility.yul\":11203:11220   */\n      add\n        /* \"#utility.yul\":11199:11226   */\n      slt\n        /* \"#utility.yul\":11189:11311   */\n      tag_414\n      jumpi\n        /* \"#utility.yul\":11230:11309   */\n      tag_415\n      tag_262\n      jump\t// in\n    tag_415:\n        /* \"#utility.yul\":11189:11311   */\n    tag_414:\n        /* \"#utility.yul\":11343:11349   */\n      dup3\n        /* \"#utility.yul\":11330:11350   */\n      calldataload\n        /* \"#utility.yul\":11320:11350   */\n      swap1\n      pop\n        /* \"#utility.yul\":11373:11391   */\n      0xffffffffffffffff\n        /* \"#utility.yul\":11365:11371   */\n      dup2\n        /* \"#utility.yul\":11362:11392   */\n      gt\n        /* \"#utility.yul\":11359:11476   */\n      iszero\n      tag_416\n      jumpi\n        /* \"#utility.yul\":11395:11474   */\n      tag_417\n      tag_263\n      jump\t// in\n    tag_417:\n        /* \"#utility.yul\":11359:11476   */\n    tag_416:\n        /* \"#utility.yul\":11509:11513   */\n      0x20\n        /* \"#utility.yul\":11501:11507   */\n      dup4\n        /* \"#utility.yul\":11497:11514   */\n      add\n        /* \"#utility.yul\":11485:11514   */\n      swap2\n      pop\n        /* \"#utility.yul\":11563:11566   */\n      dup4\n        /* \"#utility.yul\":11555:11559   */\n      0x01\n        /* \"#utility.yul\":11547:11553   */\n      dup3\n        /* \"#utility.yul\":11543:11560   */\n      mul\n        /* \"#utility.yul\":11533:11541   */\n      dup4\n        /* \"#utility.yul\":11529:11561   */\n      add\n        /* \"#utility.yul\":11526:11567   */\n      gt\n        /* \"#utility.yul\":11523:11651   */\n      iszero\n      tag_418\n      jumpi\n        /* \"#utility.yul\":11570:11649   */\n      tag_419\n      tag_264\n      jump\t// in\n    tag_419:\n        /* \"#utility.yul\":11523:11651   */\n    tag_418:\n        /* \"#utility.yul\":11105:11657   */\n      swap3\n      pop\n      swap3\n      swap1\n      pop\n      jump\t// out\n        /* \"#utility.yul\":11663:12626   */\n    tag_89:\n        /* \"#utility.yul\":11760:11766   */\n      0x00\n        /* \"#utility.yul\":11768:11774   */\n      dup1\n        /* \"#utility.yul\":11776:11782   */\n      0x00\n        /* \"#utility.yul\":11784:11790   */\n      dup1\n        /* \"#utility.yul\":11792:11798   */\n      0x00\n        /* \"#utility.yul\":11841:11844   */\n      0x80\n        /* \"#utility.yul\":11829:11838   */\n      dup7\n        /* \"#utility.yul\":11820:11827   */\n      dup9\n        /* \"#utility.yul\":11816:11839   */\n      sub\n        /* \"#utility.yul\":11812:11845   */\n      slt\n        /* \"#utility.yul\":11809:11929   */\n      iszero\n      tag_421\n      jumpi\n        /* \"#utility.yul\":11848:11927   */\n      tag_422\n      tag_239\n      jump\t// in\n    tag_422:\n        /* \"#utility.yul\":11809:11929   */\n    tag_421:\n        /* \"#utility.yul\":11968:11969   */\n      0x00\n        /* \"#utility.yul\":11993:12046   */\n      tag_423\n        /* \"#utility.yul\":12038:12045   */\n      dup9\n        /* \"#utility.yul\":12029:12035   */\n      dup3\n        /* \"#utility.yul\":12018:12027   */\n      dup10\n        /* \"#utility.yul\":12014:12036   */\n      add\n        /* \"#utility.yul\":11993:12046   */\n      tag_253\n      jump\t// in\n    tag_423:\n        /* \"#utility.yul\":11983:12046   */\n      swap6\n      pop\n        /* \"#utility.yul\":11939:12056   */\n      pop\n        /* \"#utility.yul\":12095:12097   */\n      0x20\n        /* \"#utility.yul\":12121:12174   */\n      tag_424\n        /* \"#utility.yul\":12166:12173   */\n      dup9\n        /* \"#utility.yul\":12157:12163   */\n      dup3\n        /* \"#utility.yul\":12146:12155   */\n      dup10\n        /* \"#utility.yul\":12142:12164   */\n      add\n        /* \"#utility.yul\":12121:12174   */\n      tag_253\n      jump\t// in\n    tag_424:\n        /* \"#utility.yul\":12111:12174   */\n      swap5\n      pop\n        /* \"#utility.yul\":12066:12184   */\n      pop\n        /* \"#utility.yul\":12223:12225   */\n      0x40\n        /* \"#utility.yul\":12249:12302   */\n      tag_425\n        /* \"#utility.yul\":12294:12301   */\n      dup9\n        /* \"#utility.yul\":12285:12291   */\n      dup3\n        /* \"#utility.yul\":12274:12283   */\n      dup10\n        /* \"#utility.yul\":12270:12292   */\n      add\n        /* \"#utility.yul\":12249:12302   */\n      tag_248\n      jump\t// in\n    tag_425:\n        /* \"#utility.yul\":12239:12302   */\n      swap4\n      pop\n        /* \"#utility.yul\":12194:12312   */\n      pop\n        /* \"#utility.yul\":12379:12381   */\n      0x60\n        /* \"#utility.yul\":12368:12377   */\n      dup7\n        /* \"#utility.yul\":12364:12382   */\n      add\n        /* \"#utility.yul\":12351:12383   */\n      calldataload\n        /* \"#utility.yul\":12410:12428   */\n      0xffffffffffffffff\n        /* \"#utility.yul\":12402:12408   */\n      dup2\n        /* \"#utility.yul\":12399:12429   */\n      gt\n        /* \"#utility.yul\":12396:12513   */\n      iszero\n      tag_426\n      jumpi\n        /* \"#utility.yul\":12432:12511   */\n      tag_427\n      tag_240\n      jump\t// in\n    tag_427:\n        /* \"#utility.yul\":12396:12513   */\n    tag_426:\n        /* \"#utility.yul\":12545:12609   */\n      tag_428\n        /* \"#utility.yul\":12601:12608   */\n      dup9\n        /* \"#utility.yul\":12592:12598   */\n      dup3\n        /* \"#utility.yul\":12581:12590   */\n      dup10\n        /* \"#utility.yul\":12577:12599   */\n      add\n        /* \"#utility.yul\":12545:12609   */\n      tag_265\n      jump\t// in\n    tag_428:\n        /* \"#utility.yul\":12527:12609   */\n      swap3\n      pop\n      swap3\n      pop\n        /* \"#utility.yul\":12322:12619   */\n      pop\n        /* \"#utility.yul\":11663:12626   */\n      swap3\n      swap6\n      pop\n      swap3\n      swap6\n      swap1\n      swap4\n      pop\n      jump\t// out\n        /* \"#utility.yul\":12632:12746   */\n    tag_266:\n        /* \"#utility.yul\":12699:12705   */\n      0x00\n        /* \"#utility.yul\":12733:12738   */\n      dup2\n        /* \"#utility.yul\":12727:12739   */\n      mload\n        /* \"#utility.yul\":12717:12739   */\n      swap1\n      pop\n        /* \"#utility.yul\":12632:12746   */\n      swap2\n      swap1\n      pop\n      jump\t// out\n        /* \"#utility.yul\":12752:12936   */\n    tag_267:\n        /* \"#utility.yul\":12851:12862   */\n      0x00\n        /* \"#utility.yul\":12885:12891   */\n      dup3\n        /* \"#utility.yul\":12880:12883   */\n      dup3\n        /* \"#utility.yul\":12873:12892   */\n      mstore\n        /* \"#utility.yul\":12925:12929   */\n      0x20\n        /* \"#utility.yul\":12920:12923   */\n      dup3\n        /* \"#utility.yul\":12916:12930   */\n      add\n        /* \"#utility.yul\":12901:12930   */\n      swap1\n      pop\n        /* \"#utility.yul\":12752:12936   */\n      swap3\n      swap2\n      pop\n      pop\n      jump\t// out\n        /* \"#utility.yul\":12942:13074   */\n    tag_268:\n        /* \"#utility.yul\":13009:13013   */\n      0x00\n        /* \"#utility.yul\":13032:13035   */\n      dup2\n        /* \"#utility.yul\":13024:13035   */\n      swap1\n      pop\n        /* \"#utility.yul\":13062:13066   */\n      0x20\n        /* \"#utility.yul\":13057:13060   */\n      dup3\n        /* \"#utility.yul\":13053:13067   */\n      add\n        /* \"#utility.yul\":13045:13067   */\n      swap1\n      pop\n        /* \"#utility.yul\":12942:13074   */\n      swap2\n      swap1\n      pop\n      jump\t// out\n        /* \"#utility.yul\":13080:13259   */\n    tag_269:\n        /* \"#utility.yul\":13149:13159   */\n      0x00\n        /* \"#utility.yul\":13170:13216   */\n      tag_433\n        /* \"#utility.yul\":13212:13215   */\n      dup4\n        /* \"#utility.yul\":13204:13210   */\n      dup4\n        /* \"#utility.yul\":13170:13216   */\n      tag_255\n      jump\t// in\n    tag_433:\n        /* \"#utility.yul\":13248:13252   */\n      0x20\n        /* \"#utility.yul\":13243:13246   */\n      dup4\n        /* \"#utility.yul\":13239:13253   */\n      add\n        /* \"#utility.yul\":13225:13253   */\n      swap1\n      pop\n        /* \"#utility.yul\":13080:13259   */\n      swap3\n      swap2\n      pop\n      pop\n      jump\t// out\n        /* \"#utility.yul\":13265:13378   */\n    tag_270:\n        /* \"#utility.yul\":13335:13339   */\n      0x00\n        /* \"#utility.yul\":13367:13371   */\n      0x20\n        /* \"#utility.yul\":13362:13365   */\n      dup3\n        /* \"#utility.yul\":13358:13372   */\n      add\n        /* \"#utility.yul\":13350:13372   */\n      swap1\n      pop\n        /* \"#utility.yul\":13265:13378   */\n      swap2\n      swap1\n      pop\n      jump\t// out\n        /* \"#utility.yul\":13414:14146   */\n    tag_271:\n        /* \"#utility.yul\":13533:13536   */\n      0x00\n        /* \"#utility.yul\":13562:13616   */\n      tag_436\n        /* \"#utility.yul\":13610:13615   */\n      dup3\n        /* \"#utility.yul\":13562:13616   */\n      tag_266\n      jump\t// in\n    tag_436:\n        /* \"#utility.yul\":13632:13718   */\n      tag_437\n        /* \"#utility.yul\":13711:13717   */\n      dup2\n        /* \"#utility.yul\":13706:13709   */\n      dup6\n        /* \"#utility.yul\":13632:13718   */\n      tag_267\n      jump\t// in\n    tag_437:\n        /* \"#utility.yul\":13625:13718   */\n      swap4\n      pop\n        /* \"#utility.yul\":13742:13798   */\n      tag_438\n        /* \"#utility.yul\":13792:13797   */\n      dup4\n        /* \"#utility.yul\":13742:13798   */\n      tag_268\n      jump\t// in\n    tag_438:\n        /* \"#utility.yul\":13821:13828   */\n      dup1\n        /* \"#utility.yul\":13852:13853   */\n      0x00\n        /* \"#utility.yul\":13837:14121   */\n    tag_439:\n        /* \"#utility.yul\":13862:13868   */\n      dup4\n        /* \"#utility.yul\":13859:13860   */\n      dup2\n        /* \"#utility.yul\":13856:13869   */\n      lt\n        /* \"#utility.yul\":13837:14121   */\n      iszero\n      tag_441\n      jumpi\n        /* \"#utility.yul\":13938:13944   */\n      dup2\n        /* \"#utility.yul\":13932:13945   */\n      mload\n        /* \"#utility.yul\":13965:14028   */\n      tag_442\n        /* \"#utility.yul\":14024:14027   */\n      dup9\n        /* \"#utility.yul\":14009:14022   */\n      dup3\n        /* \"#utility.yul\":13965:14028   */\n      tag_269\n      jump\t// in\n    tag_442:\n        /* \"#utility.yul\":13958:14028   */\n      swap8\n      pop\n        /* \"#utility.yul\":14051:14111   */\n      tag_443\n        /* \"#utility.yul\":14104:14110   */\n      dup4\n        /* \"#utility.yul\":14051:14111   */\n      tag_270\n      jump\t// in\n    tag_443:\n        /* \"#utility.yul\":14041:14111   */\n      swap3\n      pop\n        /* \"#utility.yul\":13897:14121   */\n      pop\n        /* \"#utility.yul\":13884:13885   */\n      0x01\n        /* \"#utility.yul\":13881:13882   */\n      dup2\n        /* \"#utility.yul\":13877:13886   */\n      add\n        /* \"#utility.yul\":13872:13886   */\n      swap1\n      pop\n        /* \"#utility.yul\":13837:14121   */\n      jump(tag_439)\n    tag_441:\n        /* \"#utility.yul\":13841:13855   */\n      pop\n        /* \"#utility.yul\":14137:14140   */\n      dup6\n        /* \"#utility.yul\":14130:14140   */\n      swap4\n      pop\n        /* \"#utility.yul\":13538:14146   */\n      pop\n      pop\n      pop\n        /* \"#utility.yul\":13414:14146   */\n      swap3\n      swap2\n      pop\n      pop\n      jump\t// out\n        /* \"#utility.yul\":14152:14525   */\n    tag_95:\n        /* \"#utility.yul\":14295:14299   */\n      0x00\n        /* \"#utility.yul\":14333:14335   */\n      0x20\n        /* \"#utility.yul\":14322:14331   */\n      dup3\n        /* \"#utility.yul\":14318:14336   */\n      add\n        /* \"#utility.yul\":14310:14336   */\n      swap1\n      pop\n        /* \"#utility.yul\":14382:14391   */\n      dup2\n        /* \"#utility.yul\":14376:14380   */\n      dup2\n        /* \"#utility.yul\":14372:14392   */\n      sub\n        /* \"#utility.yul\":14368:14369   */\n      0x00\n        /* \"#utility.yul\":14357:14366   */\n      dup4\n        /* \"#utility.yul\":14353:14370   */\n      add\n        /* \"#utility.yul\":14346:14393   */\n      mstore\n        /* \"#utility.yul\":14410:14518   */\n      tag_445\n        /* \"#utility.yul\":14513:14517   */\n      dup2\n        /* \"#utility.yul\":14504:14510   */\n      dup5\n        /* \"#utility.yul\":14410:14518   */\n      tag_271\n      jump\t// in\n    tag_445:\n        /* \"#utility.yul\":14402:14518   */\n      swap1\n      pop\n        /* \"#utility.yul\":14152:14525   */\n      swap3\n      swap2\n      pop\n      pop\n      jump\t// out\n        /* \"#utility.yul\":14531:15005   */\n    tag_102:\n        /* \"#utility.yul\":14599:14605   */\n      0x00\n        /* \"#utility.yul\":14607:14613   */\n      dup1\n        /* \"#utility.yul\":14656:14658   */\n      0x40\n        /* \"#utility.yul\":14644:14653   */\n      dup4\n        /* \"#utility.yul\":14635:14642   */\n      dup6\n        /* \"#utility.yul\":14631:14654   */\n      sub\n        /* \"#utility.yul\":14627:14659   */\n      slt\n        /* \"#utility.yul\":14624:14743   */\n      iszero\n      tag_447\n      jumpi\n        /* \"#utility.yul\":14662:14741   */\n      tag_448\n      tag_239\n      jump\t// in\n    tag_448:\n        /* \"#utility.yul\":14624:14743   */\n    tag_447:\n        /* \"#utility.yul\":14782:14783   */\n      0x00\n        /* \"#utility.yul\":14807:14860   */\n      tag_449\n        /* \"#utility.yul\":14852:14859   */\n      dup6\n        /* \"#utility.yul\":14843:14849   */\n      dup3\n        /* \"#utility.yul\":14832:14841   */\n      dup7\n        /* \"#utility.yul\":14828:14850   */\n      add\n        /* \"#utility.yul\":14807:14860   */\n      tag_253\n      jump\t// in\n    tag_449:\n        /* \"#utility.yul\":14797:14860   */\n      swap3\n      pop\n        /* \"#utility.yul\":14753:14870   */\n      pop\n        /* \"#utility.yul\":14909:14911   */\n      0x20\n        /* \"#utility.yul\":14935:14988   */\n      tag_450\n        /* \"#utility.yul\":14980:14987   */\n      dup6\n        /* \"#utility.yul\":14971:14977   */\n      dup3\n        /* \"#utility.yul\":14960:14969   */\n      dup7\n        /* \"#utility.yul\":14956:14978   */\n      add\n        /* \"#utility.yul\":14935:14988   */\n      tag_253\n      jump\t// in\n    tag_450:\n        /* \"#utility.yul\":14925:14988   */\n      swap2\n      pop\n        /* \"#utility.yul\":14880:14998   */\n      pop\n        /* \"#utility.yul\":14531:15005   */\n      swap3\n      pop\n      swap3\n      swap1\n      pop\n      jump\t// out\n        /* \"#utility.yul\":15011:15485   */\n    tag_107:\n        /* \"#utility.yul\":15079:15085   */\n      0x00\n        /* \"#utility.yul\":15087:15093   */\n      dup1\n        /* \"#utility.yul\":15136:15138   */\n      0x40\n        /* \"#utility.yul\":15124:15133   */\n      dup4\n        /* \"#utility.yul\":15115:15122   */\n      dup6\n        /* \"#utility.yul\":15111:15134   */\n      sub\n        /* \"#utility.yul\":15107:15139   */\n      slt\n        /* \"#utility.yul\":15104:15223   */\n      iszero\n      tag_452\n      jumpi\n        /* \"#utility.yul\":15142:15221   */\n      tag_453\n      tag_239\n      jump\t// in\n    tag_453:\n        /* \"#utility.yul\":15104:15223   */\n    tag_452:\n        /* \"#utility.yul\":15262:15263   */\n      0x00\n        /* \"#utility.yul\":15287:15340   */\n      tag_454\n        /* \"#utility.yul\":15332:15339   */\n      dup6\n        /* \"#utility.yul\":15323:15329   */\n      dup3\n        /* \"#utility.yul\":15312:15321   */\n      dup7\n        /* \"#utility.yul\":15308:15330   */\n      add\n        /* \"#utility.yul\":15287:15340   */\n      tag_248\n      jump\t// in\n    tag_454:\n        /* \"#utility.yul\":15277:15340   */\n      swap3\n      pop\n        /* \"#utility.yul\":15233:15350   */\n      pop\n        /* \"#utility.yul\":15389:15391   */\n      0x20\n        /* \"#utility.yul\":15415:15468   */\n      tag_455\n        /* \"#utility.yul\":15460:15467   */\n      dup6\n        /* \"#utility.yul\":15451:15457   */\n      dup3\n        /* \"#utility.yul\":15440:15449   */\n      dup7\n        /* \"#utility.yul\":15436:15458   */\n      add\n        /* \"#utility.yul\":15415:15468   */\n      tag_253\n      jump\t// in\n    tag_455:\n        /* \"#utility.yul\":15405:15468   */\n      swap2\n      pop\n        /* \"#utility.yul\":15360:15478   */\n      pop\n        /* \"#utility.yul\":15011:15485   */\n      swap3\n      pop\n      swap3\n      swap1\n      pop\n      jump\t// out\n        /* \"#utility.yul\":15491:15660   */\n    tag_272:\n        /* \"#utility.yul\":15575:15586   */\n      0x00\n        /* \"#utility.yul\":15609:15615   */\n      dup3\n        /* \"#utility.yul\":15604:15607   */\n      dup3\n        /* \"#utility.yul\":15597:15616   */\n      mstore\n        /* \"#utility.yul\":15649:15653   */\n      0x20\n        /* \"#utility.yul\":15644:15647   */\n      dup3\n        /* \"#utility.yul\":15640:15654   */\n      add\n        /* \"#utility.yul\":15625:15654   */\n      swap1\n      pop\n        /* \"#utility.yul\":15491:15660   */\n      swap3\n      swap2\n      pop\n      pop\n      jump\t// out\n        /* \"#utility.yul\":15666:15834   */\n    tag_273:\n        /* \"#utility.yul\":15806:15826   */\n      0x746f6b656e20646f657327742065786974730000000000000000000000000000\n        /* \"#utility.yul\":15802:15803   */\n      0x00\n        /* \"#utility.yul\":15794:15800   */\n      dup3\n        /* \"#utility.yul\":15790:15804   */\n      add\n        /* \"#utility.yul\":15783:15827   */\n      mstore\n        /* \"#utility.yul\":15666:15834   */\n      pop\n      jump\t// out\n        /* \"#utility.yul\":15840:16206   */\n    tag_274:\n        /* \"#utility.yul\":15982:15985   */\n      0x00\n        /* \"#utility.yul\":16003:16070   */\n      tag_459\n        /* \"#utility.yul\":16067:16069   */\n      0x12\n        /* \"#utility.yul\":16062:16065   */\n      dup4\n        /* \"#utility.yul\":16003:16070   */\n      tag_272\n      jump\t// in\n    tag_459:\n        /* \"#utility.yul\":15996:16070   */\n      swap2\n      pop\n        /* \"#utility.yul\":16079:16172   */\n      tag_460\n        /* \"#utility.yul\":16168:16171   */\n      dup3\n        /* \"#utility.yul\":16079:16172   */\n      tag_273\n      jump\t// in\n    tag_460:\n        /* \"#utility.yul\":16197:16199   */\n      0x20\n        /* \"#utility.yul\":16192:16195   */\n      dup3\n        /* \"#utility.yul\":16188:16200   */\n      add\n        /* \"#utility.yul\":16181:16200   */\n      swap1\n      pop\n        /* \"#utility.yul\":15840:16206   */\n      swap2\n      swap1\n      pop\n      jump\t// out\n        /* \"#utility.yul\":16212:16631   */\n    tag_114:\n        /* \"#utility.yul\":16378:16382   */\n      0x00\n        /* \"#utility.yul\":16416:16418   */\n      0x20\n        /* \"#utility.yul\":16405:16414   */\n      dup3\n        /* \"#utility.yul\":16401:16419   */\n      add\n        /* \"#utility.yul\":16393:16419   */\n      swap1\n      pop\n        /* \"#utility.yul\":16465:16474   */\n      dup2\n        /* \"#utility.yul\":16459:16463   */\n      dup2\n        /* \"#utility.yul\":16455:16475   */\n      sub\n        /* \"#utility.yul\":16451:16452   */\n      0x00\n        /* \"#utility.yul\":16440:16449   */\n      dup4\n        /* \"#utility.yul\":16436:16453   */\n      add\n        /* \"#utility.yul\":16429:16476   */\n      mstore\n        /* \"#utility.yul\":16493:16624   */\n      tag_462\n        /* \"#utility.yul\":16619:16623   */\n      dup2\n        /* \"#utility.yul\":16493:16624   */\n      tag_274\n      jump\t// in\n    tag_462:\n        /* \"#utility.yul\":16485:16624   */\n      swap1\n      pop\n        /* \"#utility.yul\":16212:16631   */\n      swap2\n      swap1\n      pop\n      jump\t// out\n        /* \"#utility.yul\":16637:16801   */\n    tag_275:\n        /* \"#utility.yul\":16777:16793   */\n      0x6e6f7420617574686f72697a6564000000000000000000000000000000000000\n        /* \"#utility.yul\":16773:16774   */\n      0x00\n        /* \"#utility.yul\":16765:16771   */\n      dup3\n        /* \"#utility.yul\":16761:16775   */\n      add\n        /* \"#utility.yul\":16754:16794   */\n      mstore\n        /* \"#utility.yul\":16637:16801   */\n      pop\n      jump\t// out\n        /* \"#utility.yul\":16807:17173   */\n    tag_276:\n        /* \"#utility.yul\":16949:16952   */\n      0x00\n        /* \"#utility.yul\":16970:17037   */\n      tag_465\n        /* \"#utility.yul\":17034:17036   */\n      0x0e\n        /* \"#utility.yul\":17029:17032   */\n      dup4\n        /* \"#utility.yul\":16970:17037   */\n      tag_272\n      jump\t// in\n    tag_465:\n        /* \"#utility.yul\":16963:17037   */\n      swap2\n      pop\n        /* \"#utility.yul\":17046:17139   */\n      tag_466\n        /* \"#utility.yul\":17135:17138   */\n      dup3\n        /* \"#utility.yul\":17046:17139   */\n      tag_275\n      jump\t// in\n    tag_466:\n        /* \"#utility.yul\":17164:17166   */\n      0x20\n        /* \"#utility.yul\":17159:17162   */\n      dup3\n        /* \"#utility.yul\":17155:17167   */\n      add\n        /* \"#utility.yul\":17148:17167   */\n      swap1\n      pop\n        /* \"#utility.yul\":16807:17173   */\n      swap2\n      swap1\n      pop\n      jump\t// out\n        /* \"#utility.yul\":17179:17598   */\n    tag_119:\n        /* \"#utility.yul\":17345:17349   */\n      0x00\n        /* \"#utility.yul\":17383:17385   */\n      0x20\n        /* \"#utility.yul\":17372:17381   */\n      dup3\n        /* \"#utility.yul\":17368:17386   */\n      add\n        /* \"#utility.yul\":17360:17386   */\n      swap1\n      pop\n        /* \"#utility.yul\":17432:17441   */\n      dup2\n        /* \"#utility.yul\":17426:17430   */\n      dup2\n        /* \"#utility.yul\":17422:17442   */\n      sub\n        /* \"#utility.yul\":17418:17419   */\n      0x00\n        /* \"#utility.yul\":17407:17416   */\n      dup4\n        /* \"#utility.yul\":17403:17420   */\n      add\n        /* \"#utility.yul\":17396:17443   */\n      mstore\n        /* \"#utility.yul\":17460:17591   */\n      tag_468\n        /* \"#utility.yul\":17586:17590   */\n      dup2\n        /* \"#utility.yul\":17460:17591   */\n      tag_276\n      jump\t// in\n    tag_468:\n        /* \"#utility.yul\":17452:17591   */\n      swap1\n      pop\n        /* \"#utility.yul\":17179:17598   */\n      swap2\n      swap1\n      pop\n      jump\t// out\n        /* \"#utility.yul\":17604:17767   */\n    tag_277:\n        /* \"#utility.yul\":17744:17759   */\n      0x66726f6d20213d206f776e657200000000000000000000000000000000000000\n        /* \"#utility.yul\":17740:17741   */\n      0x00\n        /* \"#utility.yul\":17732:17738   */\n      dup3\n        /* \"#utility.yul\":17728:17742   */\n      add\n        /* \"#utility.yul\":17721:17760   */\n      mstore\n        /* \"#utility.yul\":17604:17767   */\n      pop\n      jump\t// out\n        /* \"#utility.yul\":17773:18139   */\n    tag_278:\n        /* \"#utility.yul\":17915:17918   */\n      0x00\n        /* \"#utility.yul\":17936:18003   */\n      tag_471\n        /* \"#utility.yul\":18000:18002   */\n      0x0d\n        /* \"#utility.yul\":17995:17998   */\n      dup4\n        /* \"#utility.yul\":17936:18003   */\n      tag_272\n      jump\t// in\n    tag_471:\n        /* \"#utility.yul\":17929:18003   */\n      swap2\n      pop\n        /* \"#utility.yul\":18012:18105   */\n      tag_472\n        /* \"#utility.yul\":18101:18104   */\n      dup3\n        /* \"#utility.yul\":18012:18105   */\n      tag_277\n      jump\t// in\n    tag_472:\n        /* \"#utility.yul\":18130:18132   */\n      0x20\n        /* \"#utility.yul\":18125:18128   */\n      dup3\n        /* \"#utility.yul\":18121:18133   */\n      add\n        /* \"#utility.yul\":18114:18133   */\n      swap1\n      pop\n        /* \"#utility.yul\":17773:18139   */\n      swap2\n      swap1\n      pop\n      jump\t// out\n        /* \"#utility.yul\":18145:18564   */\n    tag_123:\n        /* \"#utility.yul\":18311:18315   */\n      0x00\n        /* \"#utility.yul\":18349:18351   */\n      0x20\n        /* \"#utility.yul\":18338:18347   */\n      dup3\n        /* \"#utility.yul\":18334:18352   */\n      add\n        /* \"#utility.yul\":18326:18352   */\n      swap1\n      pop\n        /* \"#utility.yul\":18398:18407   */\n      dup2\n        /* \"#utility.yul\":18392:18396   */\n      dup2\n        /* \"#utility.yul\":18388:18408   */\n      sub\n        /* \"#utility.yul\":18384:18385   */\n      0x00\n        /* \"#utility.yul\":18373:18382   */\n      dup4\n        /* \"#utility.yul\":18369:18386   */\n      add\n        /* \"#utility.yul\":18362:18409   */\n      mstore\n        /* \"#utility.yul\":18426:18557   */\n      tag_474\n        /* \"#utility.yul\":18552:18556   */\n      dup2\n        /* \"#utility.yul\":18426:18557   */\n      tag_278\n      jump\t// in\n    tag_474:\n        /* \"#utility.yul\":18418:18557   */\n      swap1\n      pop\n        /* \"#utility.yul\":18145:18564   */\n      swap2\n      swap1\n      pop\n      jump\t// out\n        /* \"#utility.yul\":18570:18737   */\n    tag_279:\n        /* \"#utility.yul\":18710:18729   */\n      0x746f203d207a65726f2061646472657373000000000000000000000000000000\n        /* \"#utility.yul\":18706:18707   */\n      0x00\n        /* \"#utility.yul\":18698:18704   */\n      dup3\n        /* \"#utility.yul\":18694:18708   */\n      add\n        /* \"#utility.yul\":18687:18730   */\n      mstore\n        /* \"#utility.yul\":18570:18737   */\n      pop\n      jump\t// out\n        /* \"#utility.yul\":18743:19109   */\n    tag_280:\n        /* \"#utility.yul\":18885:18888   */\n      0x00\n        /* \"#utility.yul\":18906:18973   */\n      tag_477\n        /* \"#utility.yul\":18970:18972   */\n      0x11\n        /* \"#utility.yul\":18965:18968   */\n      dup4\n        /* \"#utility.yul\":18906:18973   */\n      tag_272\n      jump\t// in\n    tag_477:\n        /* \"#utility.yul\":18899:18973   */\n      swap2\n      pop\n        /* \"#utility.yul\":18982:19075   */\n      tag_478\n        /* \"#utility.yul\":19071:19074   */\n      dup3\n        /* \"#utility.yul\":18982:19075   */\n      tag_279\n      jump\t// in\n    tag_478:\n        /* \"#utility.yul\":19100:19102   */\n      0x20\n        /* \"#utility.yul\":19095:19098   */\n      dup3\n        /* \"#utility.yul\":19091:19103   */\n      add\n        /* \"#utility.yul\":19084:19103   */\n      swap1\n      pop\n        /* \"#utility.yul\":18743:19109   */\n      swap2\n      swap1\n      pop\n      jump\t// out\n        /* \"#utility.yul\":19115:19534   */\n    tag_126:\n        /* \"#utility.yul\":19281:19285   */\n      0x00\n        /* \"#utility.yul\":19319:19321   */\n      0x20\n        /* \"#utility.yul\":19308:19317   */\n      dup3\n        /* \"#utility.yul\":19304:19322   */\n      add\n        /* \"#utility.yul\":19296:19322   */\n      swap1\n      pop\n        /* \"#utility.yul\":19368:19377   */\n      dup2\n        /* \"#utility.yul\":19362:19366   */\n      dup2\n        /* \"#utility.yul\":19358:19378   */\n      sub\n        /* \"#utility.yul\":19354:19355   */\n      0x00\n        /* \"#utility.yul\":19343:19352   */\n      dup4\n        /* \"#utility.yul\":19339:19356   */\n      add\n        /* \"#utility.yul\":19332:19379   */\n      mstore\n        /* \"#utility.yul\":19396:19527   */\n      tag_480\n        /* \"#utility.yul\":19522:19526   */\n      dup2\n        /* \"#utility.yul\":19396:19527   */\n      tag_280\n      jump\t// in\n    tag_480:\n        /* \"#utility.yul\":19388:19527   */\n      swap1\n      pop\n        /* \"#utility.yul\":19115:19534   */\n      swap2\n      swap1\n      pop\n      jump\t// out\n        /* \"#utility.yul\":19540:19720   */\n    tag_281:\n        /* \"#utility.yul\":19588:19665   */\n      0x4e487b7100000000000000000000000000000000000000000000000000000000\n        /* \"#utility.yul\":19585:19586   */\n      0x00\n        /* \"#utility.yul\":19578:19666   */\n      mstore\n        /* \"#utility.yul\":19685:19689   */\n      0x11\n        /* \"#utility.yul\":19682:19683   */\n      0x04\n        /* \"#utility.yul\":19675:19690   */\n      mstore\n        /* \"#utility.yul\":19709:19713   */\n      0x24\n        /* \"#utility.yul\":19706:19707   */\n      0x00\n        /* \"#utility.yul\":19699:19714   */\n      revert\n        /* \"#utility.yul\":19726:19897   */\n    tag_132:\n        /* \"#utility.yul\":19765:19768   */\n      0x00\n        /* \"#utility.yul\":19788:19812   */\n      tag_483\n        /* \"#utility.yul\":19806:19811   */\n      dup3\n        /* \"#utility.yul\":19788:19812   */\n      tag_246\n      jump\t// in\n    tag_483:\n        /* \"#utility.yul\":19779:19812   */\n      swap2\n      pop\n        /* \"#utility.yul\":19834:19838   */\n      0x00\n        /* \"#utility.yul\":19827:19832   */\n      dup3\n        /* \"#utility.yul\":19824:19839   */\n      sub\n        /* \"#utility.yul\":19821:19862   */\n      tag_484\n      jumpi\n        /* \"#utility.yul\":19842:19860   */\n      tag_485\n      tag_281\n      jump\t// in\n    tag_485:\n        /* \"#utility.yul\":19821:19862   */\n    tag_484:\n        /* \"#utility.yul\":19889:19890   */\n      0x01\n        /* \"#utility.yul\":19882:19887   */\n      dup3\n        /* \"#utility.yul\":19878:19891   */\n      sub\n        /* \"#utility.yul\":19871:19891   */\n      swap1\n      pop\n        /* \"#utility.yul\":19726:19897   */\n      swap2\n      swap1\n      pop\n      jump\t// out\n        /* \"#utility.yul\":19903:20136   */\n    tag_134:\n        /* \"#utility.yul\":19942:19945   */\n      0x00\n        /* \"#utility.yul\":19965:19989   */\n      tag_487\n        /* \"#utility.yul\":19983:19988   */\n      dup3\n        /* \"#utility.yul\":19965:19989   */\n      tag_246\n      jump\t// in\n    tag_487:\n        /* \"#utility.yul\":19956:19989   */\n      swap2\n      pop\n        /* \"#utility.yul\":20011:20077   */\n      0xffffffffffffffffffffffffffffffffffffffffffffffffffffffffffffffff\n        /* \"#utility.yul\":20004:20009   */\n      dup3\n        /* \"#utility.yul\":20001:20078   */\n      sub\n        /* \"#utility.yul\":19998:20101   */\n      tag_488\n      jumpi\n        /* \"#utility.yul\":20081:20099   */\n      tag_489\n      tag_281\n      jump\t// in\n    tag_489:\n        /* \"#utility.yul\":19998:20101   */\n    tag_488:\n        /* \"#utility.yul\":20128:20129   */\n      0x01\n        /* \"#utility.yul\":20121:20126   */\n      dup3\n        /* \"#utility.yul\":20117:20130   */\n      add\n        /* \"#utility.yul\":20110:20130   */\n      swap1\n      pop\n        /* \"#utility.yul\":19903:20136   */\n      swap2\n      swap1\n      pop\n      jump\t// out\n        /* \"#utility.yul\":20142:20336   */\n    tag_141:\n        /* \"#utility.yul\":20182:20186   */\n      0x00\n        /* \"#utility.yul\":20202:20222   */\n      tag_491\n        /* \"#utility.yul\":20220:20221   */\n      dup3\n        /* \"#utility.yul\":20202:20222   */\n      tag_246\n      jump\t// in\n    tag_491:\n        /* \"#utility.yul\":20197:20222   */\n      swap2\n      pop\n        /* \"#utility.yul\":20236:20256   */\n      tag_492\n        /* \"#utility.yul\":20254:20255   */\n      dup4\n        /* \"#utility.yul\":20236:20256   */\n      tag_246\n      jump\t// in\n    tag_492:\n        /* \"#utility.yul\":20231:20256   */\n      swap3\n      pop\n        /* \"#utility.yul\":20280:20281   */\n      dup3\n        /* \"#utility.yul\":20277:20278   */\n      dup3\n        /* \"#utility.yul\":20273:20282   */\n      sub\n        /* \"#utility.yul\":20265:20282   */\n      swap1\n      pop\n        /* \"#utility.yul\":20304:20305   */\n      dup2\n        /* \"#utility.yul\":20298:20302   */\n      dup2\n        /* \"#utility.yul\":20295:20306   */\n      gt\n        /* \"#utility.yul\":20292:20329   */\n      iszero\n      tag_493\n      jumpi\n        /* \"#utility.yul\":20309:20327   */\n      tag_494\n      tag_281\n      jump\t// in\n    tag_494:\n        /* \"#utility.yul\":20292:20329   */\n    tag_493:\n        /* \"#utility.yul\":20142:20336   */\n      swap3\n      swap2\n      pop\n      pop\n      jump\t// out\n        /* \"#utility.yul\":20342:20510   */\n    tag_282:\n        /* \"#utility.yul\":20425:20436   */\n      0x00\n        /* \"#utility.yul\":20459:20465   */\n      dup3\n        /* \"#utility.yul\":20454:20457   */\n      dup3\n        /* \"#utility.yul\":20447:20466   */\n      mstore\n        /* \"#utility.yul\":20499:20503   */\n      0x20\n        /* \"#utility.yul\":20494:20497   */\n      dup3\n        /* \"#utility.yul\":20490:20504   */\n      add\n        /* \"#utility.yul\":20475:20504   */\n      swap1\n      pop\n        /* \"#utility.yul\":20342:20510   */\n      swap3\n      swap2\n      pop\n      pop\n      jump\t// out\n        /* \"#utility.yul\":20516:20630   */\n    tag_283:\n      pop\n      jump\t// out\n        /* \"#utility.yul\":20636:20998   */\n    tag_284:\n        /* \"#utility.yul\":20777:20780   */\n      0x00\n        /* \"#utility.yul\":20798:20863   */\n      tag_498\n        /* \"#utility.yul\":20861:20862   */\n      0x00\n        /* \"#utility.yul\":20856:20859   */\n      dup4\n        /* \"#utility.yul\":20798:20863   */\n      tag_282\n      jump\t// in\n    tag_498:\n        /* \"#utility.yul\":20791:20863   */\n      swap2\n      pop\n        /* \"#utility.yul\":20872:20965   */\n      tag_499\n        /* \"#utility.yul\":20961:20964   */\n      dup3\n        /* \"#utility.yul\":20872:20965   */\n      tag_283\n      jump\t// in\n    tag_499:\n        /* \"#utility.yul\":20990:20991   */\n      0x00\n        /* \"#utility.yul\":20985:20988   */\n      dup3\n        /* \"#utility.yul\":20981:20992   */\n      add\n        /* \"#utility.yul\":20974:20992   */\n      swap1\n      pop\n        /* \"#utility.yul\":20636:20998   */\n      swap2\n      swap1\n      pop\n      jump\t// out\n        /* \"#utility.yul\":21004:21752   */\n    tag_146:\n        /* \"#utility.yul\":21253:21257   */\n      0x00\n        /* \"#utility.yul\":21291:21294   */\n      0x80\n        /* \"#utility.yul\":21280:21289   */\n      dup3\n        /* \"#utility.yul\":21276:21295   */\n      add\n        /* \"#utility.yul\":21268:21295   */\n      swap1\n      pop\n        /* \"#utility.yul\":21305:21376   */\n      tag_501\n        /* \"#utility.yul\":21373:21374   */\n      0x00\n        /* \"#utility.yul\":21362:21371   */\n      dup4\n        /* \"#utility.yul\":21358:21375   */\n      add\n        /* \"#utility.yul\":21349:21355   */\n      dup7\n        /* \"#utility.yul\":21305:21376   */\n      tag_251\n      jump\t// in\n    tag_501:\n        /* \"#utility.yul\":21386:21458   */\n      tag_502\n        /* \"#utility.yul\":21454:21456   */\n      0x20\n        /* \"#utility.yul\":21443:21452   */\n      dup4\n        /* \"#utility.yul\":21439:21457   */\n      add\n        /* \"#utility.yul\":21430:21436   */\n      dup6\n        /* \"#utility.yul\":21386:21458   */\n      tag_251\n      jump\t// in\n    tag_502:\n        /* \"#utility.yul\":21468:21540   */\n      tag_503\n        /* \"#utility.yul\":21536:21538   */\n      0x40\n        /* \"#utility.yul\":21525:21534   */\n      dup4\n        /* \"#utility.yul\":21521:21539   */\n      add\n        /* \"#utility.yul\":21512:21518   */\n      dup5\n        /* \"#utility.yul\":21468:21540   */\n      tag_254\n      jump\t// in\n    tag_503:\n        /* \"#utility.yul\":21587:21596   */\n      dup2\n        /* \"#utility.yul\":21581:21585   */\n      dup2\n        /* \"#utility.yul\":21577:21597   */\n      sub\n        /* \"#utility.yul\":21572:21574   */\n      0x60\n        /* \"#utility.yul\":21561:21570   */\n      dup4\n        /* \"#utility.yul\":21557:21575   */\n      add\n        /* \"#utility.yul\":21550:21598   */\n      mstore\n        /* \"#utility.yul\":21615:21745   */\n      tag_504\n        /* \"#utility.yul\":21740:21744   */\n      dup2\n        /* \"#utility.yul\":21615:21745   */\n      tag_284\n      jump\t// in\n    tag_504:\n        /* \"#utility.yul\":21607:21745   */\n      swap1\n      pop\n        /* \"#utility.yul\":21004:21752   */\n      swap5\n      swap4\n      pop\n      pop\n      pop\n      pop\n      jump\t// out\n        /* \"#utility.yul\":21758:21899   */\n    tag_285:\n        /* \"#utility.yul\":21814:21819   */\n      0x00\n        /* \"#utility.yul\":21845:21851   */\n      dup2\n        /* \"#utility.yul\":21839:21852   */\n      mload\n        /* \"#utility.yul\":21830:21852   */\n      swap1\n      pop\n        /* \"#utility.yul\":21861:21893   */\n      tag_506\n        /* \"#utility.yul\":21887:21892   */\n      dup2\n        /* \"#utility.yul\":21861:21893   */\n      tag_242\n      jump\t// in\n    tag_506:\n        /* \"#utility.yul\":21758:21899   */\n      swap3\n      swap2\n      pop\n      pop\n      jump\t// out\n        /* \"#utility.yul\":21905:22254   */\n    tag_150:\n        /* \"#utility.yul\":21974:21980   */\n      0x00\n        /* \"#utility.yul\":22023:22025   */\n      0x20\n        /* \"#utility.yul\":22011:22020   */\n      dup3\n        /* \"#utility.yul\":22002:22009   */\n      dup5\n        /* \"#utility.yul\":21998:22021   */\n      sub\n        /* \"#utility.yul\":21994:22026   */\n      slt\n        /* \"#utility.yul\":21991:22110   */\n      iszero\n      tag_508\n      jumpi\n        /* \"#utility.yul\":22029:22108   */\n      tag_509\n      tag_239\n      jump\t// in\n    tag_509:\n        /* \"#utility.yul\":21991:22110   */\n    tag_508:\n        /* \"#utility.yul\":22149:22150   */\n      0x00\n        /* \"#utility.yul\":22174:22237   */\n      tag_510\n        /* \"#utility.yul\":22229:22236   */\n      dup5\n        /* \"#utility.yul\":22220:22226   */\n      dup3\n        /* \"#utility.yul\":22209:22218   */\n      dup6\n        /* \"#utility.yul\":22205:22227   */\n      add\n        /* \"#utility.yul\":22174:22237   */\n      tag_285\n      jump\t// in\n    tag_510:\n        /* \"#utility.yul\":22164:22237   */\n      swap2\n      pop\n        /* \"#utility.yul\":22120:22247   */\n      pop\n        /* \"#utility.yul\":21905:22254   */\n      swap3\n      swap2\n      pop\n      pop\n      jump\t// out\n        /* \"#utility.yul\":22260:22426   */\n    tag_286:\n        /* \"#utility.yul\":22400:22418   */\n      0x756e7361666520726563697069656e7400000000000000000000000000000000\n        /* \"#utility.yul\":22396:22397   */\n      0x00\n        /* \"#utility.yul\":22388:22394   */\n      dup3\n        /* \"#utility.yul\":22384:22398   */\n      add\n        /* \"#utility.yul\":22377:22419   */\n      mstore\n        /* \"#utility.yul\":22260:22426   */\n      pop\n      jump\t// out\n        /* \"#utility.yul\":22432:22798   */\n    tag_287:\n        /* \"#utility.yul\":22574:22577   */\n      0x00\n        /* \"#utility.yul\":22595:22662   */\n      tag_513\n        /* \"#utility.yul\":22659:22661   */\n      0x10\n        /* \"#utility.yul\":22654:22657   */\n      dup4\n        /* \"#utility.yul\":22595:22662   */\n      tag_272\n      jump\t// in\n    tag_513:\n        /* \"#utility.yul\":22588:22662   */\n      swap2\n      pop\n        /* \"#utility.yul\":22671:22764   */\n      tag_514\n        /* \"#utility.yul\":22760:22763   */\n      dup3\n        /* \"#utility.yul\":22671:22764   */\n      tag_286\n      jump\t// in\n    tag_514:\n        /* \"#utility.yul\":22789:22791   */\n      0x20\n        /* \"#utility.yul\":22784:22787   */\n      dup3\n        /* \"#utility.yul\":22780:22792   */\n      add\n        /* \"#utility.yul\":22773:22792   */\n      swap1\n      pop\n        /* \"#utility.yul\":22432:22798   */\n      swap2\n      swap1\n      pop\n      jump\t// out\n        /* \"#utility.yul\":22804:23223   */\n    tag_153:\n        /* \"#utility.yul\":22970:22974   */\n      0x00\n        /* \"#utility.yul\":23008:23010   */\n      0x20\n        /* \"#utility.yul\":22997:23006   */\n      dup3\n        /* \"#utility.yul\":22993:23011   */\n      add\n        /* \"#utility.yul\":22985:23011   */\n      swap1\n      pop\n        /* \"#utility.yul\":23057:23066   */\n      dup2\n        /* \"#utility.yul\":23051:23055   */\n      dup2\n        /* \"#utility.yul\":23047:23067   */\n      sub\n        /* \"#utility.yul\":23043:23044   */\n      0x00\n        /* \"#utility.yul\":23032:23041   */\n      dup4\n        /* \"#utility.yul\":23028:23045   */\n      add\n        /* \"#utility.yul\":23021:23068   */\n      mstore\n        /* \"#utility.yul\":23085:23216   */\n      tag_516\n        /* \"#utility.yul\":23211:23215   */\n      dup2\n        /* \"#utility.yul\":23085:23216   */\n      tag_287\n      jump\t// in\n    tag_516:\n        /* \"#utility.yul\":23077:23216   */\n      swap1\n      pop\n        /* \"#utility.yul\":22804:23223   */\n      swap2\n      swap1\n      pop\n      jump\t// out\n        /* \"#utility.yul\":23229:23399   */\n    tag_288:\n        /* \"#utility.yul\":23369:23391   */\n      0x6f776e6572203d207a65726f2061646472657373000000000000000000000000\n        /* \"#utility.yul\":23365:23366   */\n      0x00\n        /* \"#utility.yul\":23357:23363   */\n      dup3\n        /* \"#utility.yul\":23353:23367   */\n      add\n        /* \"#utility.yul\":23346:23392   */\n      mstore\n        /* \"#utility.yul\":23229:23399   */\n      pop\n      jump\t// out\n        /* \"#utility.yul\":23405:23771   */\n    tag_289:\n        /* \"#utility.yul\":23547:23550   */\n      0x00\n        /* \"#utility.yul\":23568:23635   */\n      tag_519\n        /* \"#utility.yul\":23632:23634   */\n      0x14\n        /* \"#utility.yul\":23627:23630   */\n      dup4\n        /* \"#utility.yul\":23568:23635   */\n      tag_272\n      jump\t// in\n    tag_519:\n        /* \"#utility.yul\":23561:23635   */\n      swap2\n      pop\n        /* \"#utility.yul\":23644:23737   */\n      tag_520\n        /* \"#utility.yul\":23733:23736   */\n      dup3\n        /* \"#utility.yul\":23644:23737   */\n      tag_288\n      jump\t// in\n    tag_520:\n        /* \"#utility.yul\":23762:23764   */\n      0x20\n        /* \"#utility.yul\":23757:23760   */\n      dup3\n        /* \"#utility.yul\":23753:23765   */\n      add\n        /* \"#utility.yul\":23746:23765   */\n      swap1\n      pop\n        /* \"#utility.yul\":23405:23771   */\n      swap2\n      swap1\n      pop\n      jump\t// out\n        /* \"#utility.yul\":23777:24196   */\n    tag_157:\n        /* \"#utility.yul\":23943:23947   */\n      0x00\n        /* \"#utility.yul\":23981:23983   */\n      0x20\n        /* \"#utility.yul\":23970:23979   */\n      dup3\n        /* \"#utility.yul\":23966:23984   */\n      add\n        /* \"#utility.yul\":23958:23984   */\n      swap1\n      pop\n        /* \"#utility.yul\":24030:24039   */\n      dup2\n        /* \"#utility.yul\":24024:24028   */\n      dup2\n        /* \"#utility.yul\":24020:24040   */\n      sub\n        /* \"#utility.yul\":24016:24017   */\n      0x00\n        /* \"#utility.yul\":24005:24014   */\n      dup4\n        /* \"#utility.yul\":24001:24018   */\n      add\n        /* \"#utility.yul\":23994:24041   */\n      mstore\n        /* \"#utility.yul\":24058:24189   */\n      tag_522\n        /* \"#utility.yul\":24184:24188   */\n      dup2\n        /* \"#utility.yul\":24058:24189   */\n      tag_289\n      jump\t// in\n    tag_522:\n        /* \"#utility.yul\":24050:24189   */\n      swap1\n      pop\n        /* \"#utility.yul\":23777:24196   */\n      swap2\n      swap1\n      pop\n      jump\t// out\n        /* \"#utility.yul\":24202:24348   */\n    tag_290:\n        /* \"#utility.yul\":24299:24305   */\n      dup3\n        /* \"#utility.yul\":24294:24297   */\n      dup2\n        /* \"#utility.yul\":24289:24292   */\n      dup4\n        /* \"#utility.yul\":24276:24306   */\n      calldatacopy\n        /* \"#utility.yul\":24340:24341   */\n      0x00\n        /* \"#utility.yul\":24331:24337   */\n      dup4\n        /* \"#utility.yul\":24326:24329   */\n      dup4\n        /* \"#utility.yul\":24322:24338   */\n      add\n        /* \"#utility.yul\":24315:24342   */\n      mstore\n        /* \"#utility.yul\":24202:24348   */\n      pop\n      pop\n      pop\n      jump\t// out\n        /* \"#utility.yul\":24354:24456   */\n    tag_291:\n        /* \"#utility.yul\":24395:24401   */\n      0x00\n        /* \"#utility.yul\":24446:24448   */\n      0x1f\n        /* \"#utility.yul\":24442:24449   */\n      not\n        /* \"#utility.yul\":24437:24439   */\n      0x1f\n        /* \"#utility.yul\":24430:24435   */\n      dup4\n        /* \"#utility.yul\":24426:24440   */\n      add\n        /* \"#utility.yul\":24422:24450   */\n      and\n        /* \"#utility.yul\":24412:24450   */\n      swap1\n      pop\n        /* \"#utility.yul\":24354:24456   */\n      swap2\n      swap1\n      pop\n      jump\t// out\n        /* \"#utility.yul\":24484:24798   */\n    tag_292:\n        /* \"#utility.yul\":24580:24583   */\n      0x00\n        /* \"#utility.yul\":24601:24671   */\n      tag_526\n        /* \"#utility.yul\":24664:24670   */\n      dup4\n        /* \"#utility.yul\":24659:24662   */\n      dup6\n        /* \"#utility.yul\":24601:24671   */\n      tag_282\n      jump\t// in\n    tag_526:\n        /* \"#utility.yul\":24594:24671   */\n      swap4\n      pop\n        /* \"#utility.yul\":24681:24737   */\n      tag_527\n        /* \"#utility.yul\":24730:24736   */\n      dup4\n        /* \"#utility.yul\":24725:24728   */\n      dup6\n        /* \"#utility.yul\":24718:24723   */\n      dup5\n        /* \"#utility.yul\":24681:24737   */\n      tag_290\n      jump\t// in\n    tag_527:\n        /* \"#utility.yul\":24762:24791   */\n      tag_528\n        /* \"#utility.yul\":24784:24790   */\n      dup4\n        /* \"#utility.yul\":24762:24791   */\n      tag_291\n      jump\t// in\n    tag_528:\n        /* \"#utility.yul\":24757:24760   */\n      dup5\n        /* \"#utility.yul\":24753:24792   */\n      add\n        /* \"#utility.yul\":24746:24792   */\n      swap1\n      pop\n        /* \"#utility.yul\":24484:24798   */\n      swap4\n      swap3\n      pop\n      pop\n      pop\n      jump\t// out\n        /* \"#utility.yul\":24804:25464   */\n    tag_179:\n        /* \"#utility.yul\":25009:25013   */\n      0x00\n        /* \"#utility.yul\":25047:25050   */\n      0x80\n        /* \"#utility.yul\":25036:25045   */\n      dup3\n        /* \"#utility.yul\":25032:25051   */\n      add\n        /* \"#utility.yul\":25024:25051   */\n      swap1\n      pop\n        /* \"#utility.yul\":25061:25132   */\n      tag_530\n        /* \"#utility.yul\":25129:25130   */\n      0x00\n        /* \"#utility.yul\":25118:25127   */\n      dup4\n        /* \"#utility.yul\":25114:25131   */\n      add\n        /* \"#utility.yul\":25105:25111   */\n      dup9\n        /* \"#utility.yul\":25061:25132   */\n      tag_251\n      jump\t// in\n    tag_530:\n        /* \"#utility.yul\":25142:25214   */\n      tag_531\n        /* \"#utility.yul\":25210:25212   */\n      0x20\n        /* \"#utility.yul\":25199:25208   */\n      dup4\n        /* \"#utility.yul\":25195:25213   */\n      add\n        /* \"#utility.yul\":25186:25192   */\n      dup8\n        /* \"#utility.yul\":25142:25214   */\n      tag_251\n      jump\t// in\n    tag_531:\n        /* \"#utility.yul\":25224:25296   */\n      tag_532\n        /* \"#utility.yul\":25292:25294   */\n      0x40\n        /* \"#utility.yul\":25281:25290   */\n      dup4\n        /* \"#utility.yul\":25277:25295   */\n      add\n        /* \"#utility.yul\":25268:25274   */\n      dup7\n        /* \"#utility.yul\":25224:25296   */\n      tag_254\n      jump\t// in\n    tag_532:\n        /* \"#utility.yul\":25343:25352   */\n      dup2\n        /* \"#utility.yul\":25337:25341   */\n      dup2\n        /* \"#utility.yul\":25333:25353   */\n      sub\n        /* \"#utility.yul\":25328:25330   */\n      0x60\n        /* \"#utility.yul\":25317:25326   */\n      dup4\n        /* \"#utility.yul\":25313:25331   */\n      add\n        /* \"#utility.yul\":25306:25354   */\n      mstore\n        /* \"#utility.yul\":25371:25457   */\n      tag_533\n        /* \"#utility.yul\":25452:25456   */\n      dup2\n        /* \"#utility.yul\":25443:25449   */\n      dup5\n        /* \"#utility.yul\":25435:25441   */\n      dup7\n        /* \"#utility.yul\":25371:25457   */\n      tag_292\n      jump\t// in\n    tag_533:\n        /* \"#utility.yul\":25363:25457   */\n      swap1\n      pop\n        /* \"#utility.yul\":24804:25464   */\n      swap7\n      swap6\n      pop\n      pop\n      pop\n      pop\n      pop\n      pop\n      jump\t// out\n        /* \"#utility.yul\":25470:25629   */\n    tag_293:\n        /* \"#utility.yul\":25610:25621   */\n      0x6e6f74204f776e65720000000000000000000000000000000000000000000000\n        /* \"#utility.yul\":25606:25607   */\n      0x00\n        /* \"#utility.yul\":25598:25604   */\n      dup3\n        /* \"#utility.yul\":25594:25608   */\n      add\n        /* \"#utility.yul\":25587:25622   */\n      mstore\n        /* \"#utility.yul\":25470:25629   */\n      pop\n      jump\t// out\n        /* \"#utility.yul\":25635:26000   */\n    tag_294:\n        /* \"#utility.yul\":25777:25780   */\n      0x00\n        /* \"#utility.yul\":25798:25864   */\n      tag_536\n        /* \"#utility.yul\":25862:25863   */\n      0x09\n        /* \"#utility.yul\":25857:25860   */\n      dup4\n        /* \"#utility.yul\":25798:25864   */\n      tag_272\n      jump\t// in\n    tag_536:\n        /* \"#utility.yul\":25791:25864   */\n      swap2\n      pop\n        /* \"#utility.yul\":25873:25966   */\n      tag_537\n        /* \"#utility.yul\":25962:25965   */\n      dup3\n        /* \"#utility.yul\":25873:25966   */\n      tag_293\n      jump\t// in\n    tag_537:\n        /* \"#utility.yul\":25991:25993   */\n      0x20\n        /* \"#utility.yul\":25986:25989   */\n      dup3\n        /* \"#utility.yul\":25982:25994   */\n      add\n        /* \"#utility.yul\":25975:25994   */\n      swap1\n      pop\n        /* \"#utility.yul\":25635:26000   */\n      swap2\n      swap1\n      pop\n      jump\t// out\n        /* \"#utility.yul\":26006:26425   */\n    tag_193:\n        /* \"#utility.yul\":26172:26176   */\n      0x00\n        /* \"#utility.yul\":26210:26212   */\n      0x20\n        /* \"#utility.yul\":26199:26208   */\n      dup3\n        /* \"#utility.yul\":26195:26213   */\n      add\n        /* \"#utility.yul\":26187:26213   */\n      swap1\n      pop\n        /* \"#utility.yul\":26259:26268   */\n      dup2\n        /* \"#utility.yul\":26253:26257   */\n      dup2\n        /* \"#utility.yul\":26249:26269   */\n      sub\n        /* \"#utility.yul\":26245:26246   */\n      0x00\n        /* \"#utility.yul\":26234:26243   */\n      dup4\n        /* \"#utility.yul\":26230:26247   */\n      add\n        /* \"#utility.yul\":26223:26270   */\n      mstore\n        /* \"#utility.yul\":26287:26418   */\n      tag_539\n        /* \"#utility.yul\":26413:26417   */\n      dup2\n        /* \"#utility.yul\":26287:26418   */\n      tag_294\n      jump\t// in\n    tag_539:\n        /* \"#utility.yul\":26279:26418   */\n      swap1\n      pop\n        /* \"#utility.yul\":26006:26425   */\n      swap2\n      swap1\n      pop\n      jump\t// out\n        /* \"#utility.yul\":26431:26611   */\n    tag_208:\n        /* \"#utility.yul\":26479:26556   */\n      0x4e487b7100000000000000000000000000000000000000000000000000000000\n        /* \"#utility.yul\":26476:26477   */\n      0x00\n        /* \"#utility.yul\":26469:26557   */\n      mstore\n        /* \"#utility.yul\":26576:26580   */\n      0x32\n        /* \"#utility.yul\":26573:26574   */\n      0x04\n        /* \"#utility.yul\":26566:26581   */\n      mstore\n        /* \"#utility.yul\":26600:26604   */\n      0x24\n        /* \"#utility.yul\":26597:26598   */\n      0x00\n        /* \"#utility.yul\":26590:26605   */\n      revert\n        /* \"#utility.yul\":26617:26797   */\n    tag_219:\n        /* \"#utility.yul\":26665:26742   */\n      0x4e487b7100000000000000000000000000000000000000000000000000000000\n        /* \"#utility.yul\":26662:26663   */\n      0x00\n        /* \"#utility.yul\":26655:26743   */\n      mstore\n        /* \"#utility.yul\":26762:26766   */\n      0x31\n        /* \"#utility.yul\":26759:26760   */\n      0x04\n        /* \"#utility.yul\":26752:26767   */\n      mstore\n        /* \"#utility.yul\":26786:26790   */\n      0x24\n        /* \"#utility.yul\":26783:26784   */\n      0x00\n        /* \"#utility.yul\":26776:26791   */\n      revert\n        /* \"#utility.yul\":26803:26965   */\n    tag_295:\n        /* \"#utility.yul\":26943:26957   */\n      0x746f6b656e206578697374730000000000000000000000000000000000000000\n        /* \"#utility.yul\":26939:26940   */\n      0x00\n        /* \"#utility.yul\":26931:26937   */\n      dup3\n        /* \"#utility.yul\":26927:26941   */\n      add\n        /* \"#utility.yul\":26920:26958   */\n      mstore\n        /* \"#utility.yul\":26803:26965   */\n      pop\n      jump\t// out\n        /* \"#utility.yul\":26971:27337   */\n    tag_296:\n        /* \"#utility.yul\":27113:27116   */\n      0x00\n        /* \"#utility.yul\":27134:27201   */\n      tag_544\n        /* \"#utility.yul\":27198:27200   */\n      0x0c\n        /* \"#utility.yul\":27193:27196   */\n      dup4\n        /* \"#utility.yul\":27134:27201   */\n      tag_272\n      jump\t// in\n    tag_544:\n        /* \"#utility.yul\":27127:27201   */\n      swap2\n      pop\n        /* \"#utility.yul\":27210:27303   */\n      tag_545\n        /* \"#utility.yul\":27299:27302   */\n      dup3\n        /* \"#utility.yul\":27210:27303   */\n      tag_295\n      jump\t// in\n    tag_545:\n        /* \"#utility.yul\":27328:27330   */\n      0x20\n        /* \"#utility.yul\":27323:27326   */\n      dup3\n        /* \"#utility.yul\":27319:27331   */\n      add\n        /* \"#utility.yul\":27312:27331   */\n      swap1\n      pop\n        /* \"#utility.yul\":26971:27337   */\n      swap2\n      swap1\n      pop\n      jump\t// out\n        /* \"#utility.yul\":27343:27762   */\n    tag_226:\n        /* \"#utility.yul\":27509:27513   */\n      0x00\n        /* \"#utility.yul\":27547:27549   */\n      0x20\n        /* \"#utility.yul\":27536:27545   */\n      dup3\n        /* \"#utility.yul\":27532:27550   */\n      add\n        /* \"#utility.yul\":27524:27550   */\n      swap1\n      pop\n        /* \"#utility.yul\":27596:27605   */\n      dup2\n        /* \"#utility.yul\":27590:27594   */\n      dup2\n        /* \"#utility.yul\":27586:27606   */\n      sub\n        /* \"#utility.yul\":27582:27583   */\n      0x00\n        /* \"#utility.yul\":27571:27580   */\n      dup4\n        /* \"#utility.yul\":27567:27584   */\n      add\n        /* \"#utility.yul\":27560:27607   */\n      mstore\n        /* \"#utility.yul\":27624:27755   */\n      tag_547\n        /* \"#utility.yul\":27750:27754   */\n      dup2\n        /* \"#utility.yul\":27624:27755   */\n      tag_296\n      jump\t// in\n    tag_547:\n        /* \"#utility.yul\":27616:27755   */\n      swap1\n      pop\n        /* \"#utility.yul\":27343:27762   */\n      swap2\n      swap1\n      pop\n      jump\t// out\n        /* \"#utility.yul\":27768:27938   */\n    tag_297:\n        /* \"#utility.yul\":27908:27930   */\n      0x746f6b656e20646f6573206e6f74206578697473000000000000000000000000\n        /* \"#utility.yul\":27904:27905   */\n      0x00\n        /* \"#utility.yul\":27896:27902   */\n      dup3\n        /* \"#utility.yul\":27892:27906   */\n      add\n        /* \"#utility.yul\":27885:27931   */\n      mstore\n        /* \"#utility.yul\":27768:27938   */\n      pop\n      jump\t// out\n        /* \"#utility.yul\":27944:28310   */\n    tag_298:\n        /* \"#utility.yul\":28086:28089   */\n      0x00\n        /* \"#utility.yul\":28107:28174   */\n      tag_550\n        /* \"#utility.yul\":28171:28173   */\n      0x14\n        /* \"#utility.yul\":28166:28169   */\n      dup4\n        /* \"#utility.yul\":28107:28174   */\n      tag_272\n      jump\t// in\n    tag_550:\n        /* \"#utility.yul\":28100:28174   */\n      swap2\n      pop\n        /* \"#utility.yul\":28183:28276   */\n      tag_551\n        /* \"#utility.yul\":28272:28275   */\n      dup3\n        /* \"#utility.yul\":28183:28276   */\n      tag_297\n      jump\t// in\n    tag_551:\n        /* \"#utility.yul\":28301:28303   */\n      0x20\n        /* \"#utility.yul\":28296:28299   */\n      dup3\n        /* \"#utility.yul\":28292:28304   */\n      add\n        /* \"#utility.yul\":28285:28304   */\n      swap1\n      pop\n        /* \"#utility.yul\":27944:28310   */\n      swap2\n      swap1\n      pop\n      jump\t// out\n        /* \"#utility.yul\":28316:28735   */\n    tag_231:\n        /* \"#utility.yul\":28482:28486   */\n      0x00\n        /* \"#utility.yul\":28520:28522   */\n      0x20\n        /* \"#utility.yul\":28509:28518   */\n      dup3\n        /* \"#utility.yul\":28505:28523   */\n      add\n        /* \"#utility.yul\":28497:28523   */\n      swap1\n      pop\n        /* \"#utility.yul\":28569:28578   */\n      dup2\n        /* \"#utility.yul\":28563:28567   */\n      dup2\n        /* \"#utility.yul\":28559:28579   */\n      sub\n        /* \"#utility.yul\":28555:28556   */\n      0x00\n        /* \"#utility.yul\":28544:28553   */\n      dup4\n        /* \"#utility.yul\":28540:28557   */\n      add\n        /* \"#utility.yul\":28533:28580   */\n      mstore\n        /* \"#utility.yul\":28597:28728   */\n      tag_553\n        /* \"#utility.yul\":28723:28727   */\n      dup2\n        /* \"#utility.yul\":28597:28728   */\n      tag_298\n      jump\t// in\n    tag_553:\n        /* \"#utility.yul\":28589:28728   */\n      swap1\n      pop\n        /* \"#utility.yul\":28316:28735   */\n      swap2\n      swap1\n      pop\n      jump\t// out\n\n    auxdata: 0xa26469706673582212207f914aed238671b42fe24af19e44a36701b3cdcfb04f65a1b7670b7113dcf70164736f6c63430008120033\n}\n",
				"bytecode": {
					"linkReferences": {},
					"object": "608060405260016006553480156200001657600080fd5b50604051620034053803806200340583398181016040528101906200003c9190620001fb565b81600490816200004d9190620004cb565b5080600590816200005f9190620004cb565b505050620005b2565b6000604051905090565b600080fd5b600080fd5b600080fd5b600080fd5b6000601f19601f8301169050919050565b7f4e487b7100000000000000000000000000000000000000000000000000000000600052604160045260246000fd5b620000d18262000086565b810181811067ffffffffffffffff82111715620000f357620000f262000097565b5b80604052505050565b60006200010862000068565b9050620001168282620000c6565b919050565b600067ffffffffffffffff82111562000139576200013862000097565b5b620001448262000086565b9050602081019050919050565b60005b838110156200017157808201518184015260208101905062000154565b60008484015250505050565b6000620001946200018e846200011b565b620000fc565b905082815260208101848484011115620001b357620001b262000081565b5b620001c084828562000151565b509392505050565b600082601f830112620001e057620001df6200007c565b5b8151620001f28482602086016200017d565b91505092915050565b6000806040838503121562000215576200021462000072565b5b600083015167ffffffffffffffff81111562000236576200023562000077565b5b6200024485828601620001c8565b925050602083015167ffffffffffffffff81111562000268576200026762000077565b5b6200027685828601620001c8565b9150509250929050565b600081519050919050565b7f4e487b7100000000000000000000000000000000000000000000000000000000600052602260045260246000fd5b60006002820490506001821680620002d357607f821691505b602082108103620002e957620002e86200028b565b5b50919050565b60008190508160005260206000209050919050565b60006020601f8301049050919050565b600082821b905092915050565b600060088302620003537fffffffffffffffffffffffffffffffffffffffffffffffffffffffffffffffff8262000314565b6200035f868362000314565b95508019841693508086168417925050509392505050565b6000819050919050565b6000819050919050565b6000620003ac620003a6620003a08462000377565b62000381565b62000377565b9050919050565b6000819050919050565b620003c8836200038b565b620003e0620003d782620003b3565b84845462000321565b825550505050565b600090565b620003f7620003e8565b62000404818484620003bd565b505050565b5b818110156200042c5762000420600082620003ed565b6001810190506200040a565b5050565b601f8211156200047b576200044581620002ef565b620004508462000304565b8101602085101562000460578190505b620004786200046f8562000304565b83018262000409565b50505b505050565b600082821c905092915050565b6000620004a06000198460080262000480565b1980831691505092915050565b6000620004bb83836200048d565b9150826002028217905092915050565b620004d68262000280565b67ffffffffffffffff811115620004f257620004f162000097565b5b620004fe8254620002ba565b6200050b82828562000430565b600060209050601f8311600181146200054357600084156200052e578287015190505b6200053a8582620004ad565b865550620005aa565b601f1984166200055386620002ef565b60005b828110156200057d5784890151825560018201915060208501945060208101905062000556565b868310156200059d578489015162000599601f8916826200048d565b8355505b6001600288020188555050505b505050505050565b612e4380620005c26000396000f3fe608060405234801561001057600080fd5b50600436106101215760003560e01c80638b217878116100ad578063b88d4fde11610071578063b88d4fde14610342578063d942dc941461035e578063deeb79a31461038e578063ebd1d359146103be578063ec828722146103ee57610121565b80638b217878146102865780638bbf58b3146102b657806391cda3e7146102d457806399fbab88146102f0578063a22cb4651461032657610121565b806326908fa1116100f457806326908fa1146101be57806342842e0e146101da5780636352211e146101f657806370a08231146102265780637fcda0731461025657610121565b806301ffc9a714610126578063081812fc14610156578063095ea7b31461018657806323b872dd146101a2575b600080fd5b610140600480360381019061013b9190612081565b61040a565b60405161014d91906120c9565b60405180910390f35b610170600480360381019061016b919061211a565b6104dc565b60405161017d9190612188565b60405180910390f35b6101a0600480360381019061019b91906121cf565b6105b9565b005b6101bc60048036038101906101b7919061220f565b6107a1565b005b6101d860048036038101906101d3919061220f565b610a8b565b005b6101f460048036038101906101ef919061220f565b610bb0565b005b610210600480360381019061020b919061211a565b610ce8565b60405161021d9190612188565b60405180910390f35b610240600480360381019061023b9190612262565b610d93565b60405161024d919061229e565b60405180910390f35b610270600480360381019061026b91906121cf565b610e4a565b60405161027d919061229e565b60405180910390f35b6102a0600480360381019061029b91906122b9565b610e6f565b6040516102ad9190612407565b60405180910390f35b6102be610eff565b6040516102cb919061229e565b60405180910390f35b6102ee60048036038101906102e99190612446565b610f05565b005b61030a6004803603810190610305919061211a565b611187565b60405161031d9796959493929190612487565b60405180910390f35b610340600480360381019061033b9190612522565b611229565b005b61035c600480360381019061035791906125c7565b611326565b005b61037860048036038101906103739190612262565b611464565b60405161038591906126fe565b60405180910390f35b6103a860048036038101906103a391906121cf565b6114fb565b6040516103b5919061229e565b60405180910390f35b6103d860048036038101906103d39190612720565b61152c565b6040516103e591906120c9565b60405180910390f35b61040860048036038101906104039190612760565b61155b565b005b60007f80ac58cd000000000000000000000000000000000000000000000000000000007bffffffffffffffffffffffffffffffffffffffffffffffffffffffff1916827bffffffffffffffffffffffffffffffffffffffffffffffffffffffff191614806104d557507f01ffc9a7000000000000000000000000000000000000000000000000000000007bffffffffffffffffffffffffffffffffffffffffffffffffffffffff1916827bffffffffffffffffffffffffffffffffffffffffffffffffffffffff1916145b9050919050565b60008073ffffffffffffffffffffffffffffffffffffffff1660008084815260200190815260200160002060009054906101000a900473ffffffffffffffffffffffffffffffffffffffff1673ffffffffffffffffffffffffffffffffffffffff160361057e576040517f08c379a0000000000000000000000000000000000000000000000000000000008152600401610575906127fd565b60405180910390fd5b6002600083815260200190815260200160002060009054906101000a900473ffffffffffffffffffffffffffffffffffffffff169050919050565b600080600083815260200190815260200160002060009054906101000a900473ffffffffffffffffffffffffffffffffffffffff1690508073ffffffffffffffffffffffffffffffffffffffff163373ffffffffffffffffffffffffffffffffffffffff1614806106b05750600360008273ffffffffffffffffffffffffffffffffffffffff1673ffffffffffffffffffffffffffffffffffffffff16815260200190815260200160002060003373ffffffffffffffffffffffffffffffffffffffff1673ffffffffffffffffffffffffffffffffffffffff16815260200190815260200160002060009054906101000a900460ff165b6106ef576040517f08c379a00000000000000000000000000000000000000000000000000000000081526004016106e690612869565b60405180910390fd5b826002600084815260200190815260200160002060006101000a81548173ffffffffffffffffffffffffffffffffffffffff021916908373ffffffffffffffffffffffffffffffffffffffff160217905550818373ffffffffffffffffffffffffffffffffffffffff168273ffffffffffffffffffffffffffffffffffffffff167f8c5be1e5ebec7d5bd14f71427d1e84f3dd0314c0f7b2291e5b200ac8c7c3b92560405160405180910390a4505050565b60008082815260200190815260200160002060009054906101000a900473ffffffffffffffffffffffffffffffffffffffff1673ffffffffffffffffffffffffffffffffffffffff168373ffffffffffffffffffffffffffffffffffffffff1614610841576040517f08c379a0000000000000000000000000000000000000000000000000000000008152600401610838906128d5565b60405180910390fd5b600073ffffffffffffffffffffffffffffffffffffffff168273ffffffffffffffffffffffffffffffffffffffff16036108b0576040517f08c379a00000000000000000000000000000000000000000000000000000000081526004016108a790612941565b60405180910390fd5b6108bb8333836116bd565b6108fa576040517f08c379a00000000000000000000000000000000000000000000000000000000081526004016108f190612869565b60405180910390fd5b600160008473ffffffffffffffffffffffffffffffffffffffff1673ffffffffffffffffffffffffffffffffffffffff168152602001908152602001600020600081548092919061094a90612990565b9190505550600160008373ffffffffffffffffffffffffffffffffffffffff1673ffffffffffffffffffffffffffffffffffffffff168152602001908152602001600020600081548092919061099f906129b9565b91905055508160008083815260200190815260200160002060006101000a81548173ffffffffffffffffffffffffffffffffffffffff021916908373ffffffffffffffffffffffffffffffffffffffff1602179055506002600082815260200190815260200160002060006101000a81549073ffffffffffffffffffffffffffffffffffffffff0219169055808273ffffffffffffffffffffffffffffffffffffffff168473ffffffffffffffffffffffffffffffffffffffff167fddf252ad1be2c89b69c2b068fc378daa952ba7f163c4a11628f55a4df523b3ef60405160405180910390a4505050565b610a968383836107a1565b610aa081846117f1565b600860008373ffffffffffffffffffffffffffffffffffffffff1673ffffffffffffffffffffffffffffffffffffffff1681526020019081526020016000208190806001815401808255809150506001900390600052602060002001600090919091909150556001600860008473ffffffffffffffffffffffffffffffffffffffff1673ffffffffffffffffffffffffffffffffffffffff16815260200190815260200160002080549050610b559190612a01565b600960008473ffffffffffffffffffffffffffffffffffffffff1673ffffffffffffffffffffffffffffffffffffffff1681526020019081526020016000206000600654815260200190815260200160002081905550505050565b610bbb8383836107a1565b60008273ffffffffffffffffffffffffffffffffffffffff163b1480610ca4575063150b7a0260e01b7bffffffffffffffffffffffffffffffffffffffffffffffffffffffff19168273ffffffffffffffffffffffffffffffffffffffff1663150b7a023386856040518463ffffffff1660e01b8152600401610c4093929190612a6c565b6020604051808303816000875af1158015610c5f573d6000803e3d6000fd5b505050506040513d601f19601f82011682018060405250810190610c839190612acb565b7bffffffffffffffffffffffffffffffffffffffffffffffffffffffff1916145b610ce3576040517f08c379a0000000000000000000000000000000000000000000000000000000008152600401610cda90612b44565b60405180910390fd5b505050565b600080600083815260200190815260200160002060009054906101000a900473ffffffffffffffffffffffffffffffffffffffff169050600073ffffffffffffffffffffffffffffffffffffffff168173ffffffffffffffffffffffffffffffffffffffff1603610d8e576040517f08c379a0000000000000000000000000000000000000000000000000000000008152600401610d8590612bb0565b60405180910390fd5b919050565b60008073ffffffffffffffffffffffffffffffffffffffff168273ffffffffffffffffffffffffffffffffffffffff1603610e03576040517f08c379a0000000000000000000000000000000000000000000000000000000008152600401610dfa90612bb0565b60405180910390fd5b600160008373ffffffffffffffffffffffffffffffffffffffff1673ffffffffffffffffffffffffffffffffffffffff168152602001908152602001600020549050919050565b6009602052816000526040600020602052806000526040600020600091509150505481565b610e77611f62565b60006040518060e001604052808a81526020018973ffffffffffffffffffffffffffffffffffffffff1681526020018873ffffffffffffffffffffffffffffffffffffffff1681526020018773ffffffffffffffffffffffffffffffffffffffff16815260200186815260200185815260200184815250905080915050979650505050505050565b60065481565b610f1182600654611b86565b600860008373ffffffffffffffffffffffffffffffffffffffff1673ffffffffffffffffffffffffffffffffffffffff16815260200190815260200160002060065490806001815401808255809150506001900390600052602060002001600090919091909150556001600860008473ffffffffffffffffffffffffffffffffffffffff1673ffffffffffffffffffffffffffffffffffffffff16815260200190815260200160002080549050610fc89190612a01565b600960008473ffffffffffffffffffffffffffffffffffffffff1673ffffffffffffffffffffffffffffffffffffffff168152602001908152602001600020600060065481526020019081526020016000208190555060006007600060065481526020019081526020016000209050816000013581600001819055508160200160208101906110579190612262565b8160010160006101000a81548173ffffffffffffffffffffffffffffffffffffffff021916908373ffffffffffffffffffffffffffffffffffffffff1602179055508160400160208101906110ac9190612262565b8160020160006101000a81548173ffffffffffffffffffffffffffffffffffffffff021916908373ffffffffffffffffffffffffffffffffffffffff1602179055508160600160208101906111019190612262565b8160030160006101000a81548173ffffffffffffffffffffffffffffffffffffffff021916908373ffffffffffffffffffffffffffffffffffffffff160217905550816080013581600401819055508160a0013581600501819055508160c0013581600601819055506006600081548092919061117d906129b9565b9190505550505050565b60076020528060005260406000206000915090508060000154908060010160009054906101000a900473ffffffffffffffffffffffffffffffffffffffff16908060020160009054906101000a900473ffffffffffffffffffffffffffffffffffffffff16908060030160009054906101000a900473ffffffffffffffffffffffffffffffffffffffff16908060040154908060050154908060060154905087565b80600360003373ffffffffffffffffffffffffffffffffffffffff1673ffffffffffffffffffffffffffffffffffffffff16815260200190815260200160002060008473ffffffffffffffffffffffffffffffffffffffff1673ffffffffffffffffffffffffffffffffffffffff16815260200190815260200160002060006101000a81548160ff0219169083151502179055508173ffffffffffffffffffffffffffffffffffffffff163373ffffffffffffffffffffffffffffffffffffffff167f17307eab39ab6107e8899845ad3d59bd9653f200f220920489ca2b5937696c318360405161131a91906120c9565b60405180910390a35050565b6113318585856107a1565b60008473ffffffffffffffffffffffffffffffffffffffff163b148061141e575063150b7a0260e01b7bffffffffffffffffffffffffffffffffffffffffffffffffffffffff19168473ffffffffffffffffffffffffffffffffffffffff1663150b7a0233888787876040518663ffffffff1660e01b81526004016113ba959493929190612c1d565b6020604051808303816000875af11580156113d9573d6000803e3d6000fd5b505050506040513d601f19601f820116820180604052508101906113fd9190612acb565b7bffffffffffffffffffffffffffffffffffffffffffffffffffffffff1916145b61145d576040517f08c379a000000000000000000000000000000000000000000000000000000000815260040161145490612b44565b60405180910390fd5b5050505050565b6060600860008373ffffffffffffffffffffffffffffffffffffffff1673ffffffffffffffffffffffffffffffffffffffff1681526020019081526020016000208054806020026020016040519081016040528092919081815260200182805480156114ef57602002820191906000526020600020905b8154815260200190600101908083116114db575b50505050509050919050565b6008602052816000526040600020818154811061151757600080fd5b90600052602060002001600091509150505481565b60036020528160005260406000206020528060005260406000206000915091509054906101000a900460ff1681565b60008083815260200190815260200160002060009054906101000a900473ffffffffffffffffffffffffffffffffffffffff1673ffffffffffffffffffffffffffffffffffffffff168173ffffffffffffffffffffffffffffffffffffffff16146115fb576040517f08c379a00000000000000000000000000000000000000000000000000000000081526004016115f290612cb7565b60405180910390fd5b61160482611d9c565b61160e82826117f1565b600760008381526020019081526020016000206000808201600090556001820160006101000a81549073ffffffffffffffffffffffffffffffffffffffff02191690556002820160006101000a81549073ffffffffffffffffffffffffffffffffffffffff02191690556003820160006101000a81549073ffffffffffffffffffffffffffffffffffffffff021916905560048201600090556005820160009055600682016000905550505050565b60008373ffffffffffffffffffffffffffffffffffffffff168373ffffffffffffffffffffffffffffffffffffffff16148061177f5750600360008573ffffffffffffffffffffffffffffffffffffffff1673ffffffffffffffffffffffffffffffffffffffff16815260200190815260200160002060008473ffffffffffffffffffffffffffffffffffffffff1673ffffffffffffffffffffffffffffffffffffffff16815260200190815260200160002060009054906101000a900460ff165b806117e857506002600083815260200190815260200160002060009054906101000a900473ffffffffffffffffffffffffffffffffffffffff1673ffffffffffffffffffffffffffffffffffffffff168373ffffffffffffffffffffffffffffffffffffffff16145b90509392505050565b6000600960008373ffffffffffffffffffffffffffffffffffffffff1673ffffffffffffffffffffffffffffffffffffffff16815260200190815260200160002060008481526020019081526020016000205490506000600860008473ffffffffffffffffffffffffffffffffffffffff1673ffffffffffffffffffffffffffffffffffffffff1681526020019081526020016000208054905090506001810361193b57600860008473ffffffffffffffffffffffffffffffffffffffff1673ffffffffffffffffffffffffffffffffffffffff16815260200190815260200160002060006118e09190611fe1565b6000600960008573ffffffffffffffffffffffffffffffffffffffff1673ffffffffffffffffffffffffffffffffffffffff168152602001908152602001600020600086815260200190815260200160002081905550611b80565b6000600860008573ffffffffffffffffffffffffffffffffffffffff1673ffffffffffffffffffffffffffffffffffffffff1681526020019081526020016000206001836119899190612a01565b8154811061199a57611999612cd7565b5b90600052602060002001549050600860008573ffffffffffffffffffffffffffffffffffffffff1673ffffffffffffffffffffffffffffffffffffffff1681526020019081526020016000206001836119f39190612a01565b81548110611a0457611a03612cd7565b5b9060005260206000200154600860008673ffffffffffffffffffffffffffffffffffffffff1673ffffffffffffffffffffffffffffffffffffffff1681526020019081526020016000208481548110611a6057611a5f612cd7565b5b9060005260206000200181905550600860008573ffffffffffffffffffffffffffffffffffffffff1673ffffffffffffffffffffffffffffffffffffffff168152602001908152602001600020805480611abd57611abc612d06565b5b6001900381819060005260206000200160009055905582600960008673ffffffffffffffffffffffffffffffffffffffff1673ffffffffffffffffffffffffffffffffffffffff1681526020019081526020016000206000838152602001908152602001600020819055506000600960008673ffffffffffffffffffffffffffffffffffffffff1673ffffffffffffffffffffffffffffffffffffffff168152602001908152602001600020600087815260200190815260200160002081905550505b50505050565b600073ffffffffffffffffffffffffffffffffffffffff168273ffffffffffffffffffffffffffffffffffffffff1603611bf5576040517f08c379a0000000000000000000000000000000000000000000000000000000008152600401611bec90612941565b60405180910390fd5b600073ffffffffffffffffffffffffffffffffffffffff1660008083815260200190815260200160002060009054906101000a900473ffffffffffffffffffffffffffffffffffffffff1673ffffffffffffffffffffffffffffffffffffffff1614611c96576040517f08c379a0000000000000000000000000000000000000000000000000000000008152600401611c8d90612d81565b60405180910390fd5b600160008373ffffffffffffffffffffffffffffffffffffffff1673ffffffffffffffffffffffffffffffffffffffff1681526020019081526020016000206000815480929190611ce6906129b9565b91905055508160008083815260200190815260200160002060006101000a81548173ffffffffffffffffffffffffffffffffffffffff021916908373ffffffffffffffffffffffffffffffffffffffff160217905550808273ffffffffffffffffffffffffffffffffffffffff16600073ffffffffffffffffffffffffffffffffffffffff167fddf252ad1be2c89b69c2b068fc378daa952ba7f163c4a11628f55a4df523b3ef60405160405180910390a45050565b600080600083815260200190815260200160002060009054906101000a900473ffffffffffffffffffffffffffffffffffffffff169050600073ffffffffffffffffffffffffffffffffffffffff168173ffffffffffffffffffffffffffffffffffffffff1603611e42576040517f08c379a0000000000000000000000000000000000000000000000000000000008152600401611e3990612ded565b60405180910390fd5b600160008273ffffffffffffffffffffffffffffffffffffffff1673ffffffffffffffffffffffffffffffffffffffff1681526020019081526020016000206000815480929190611e9290612990565b919050555060008083815260200190815260200160002060006101000a81549073ffffffffffffffffffffffffffffffffffffffff02191690556002600083815260200190815260200160002060006101000a81549073ffffffffffffffffffffffffffffffffffffffff021916905581600073ffffffffffffffffffffffffffffffffffffffff168273ffffffffffffffffffffffffffffffffffffffff167fddf252ad1be2c89b69c2b068fc378daa952ba7f163c4a11628f55a4df523b3ef60405160405180910390a45050565b6040518060e0016040528060008152602001600073ffffffffffffffffffffffffffffffffffffffff168152602001600073ffffffffffffffffffffffffffffffffffffffff168152602001600073ffffffffffffffffffffffffffffffffffffffff1681526020016000815260200160008152602001600081525090565b5080546000825590600052602060002090810190611fff9190612002565b50565b5b8082111561201b576000816000905550600101612003565b5090565b600080fd5b600080fd5b60007fffffffff0000000000000000000000000000000000000000000000000000000082169050919050565b61205e81612029565b811461206957600080fd5b50565b60008135905061207b81612055565b92915050565b6000602082840312156120975761209661201f565b5b60006120a58482850161206c565b91505092915050565b60008115159050919050565b6120c3816120ae565b82525050565b60006020820190506120de60008301846120ba565b92915050565b6000819050919050565b6120f7816120e4565b811461210257600080fd5b50565b600081359050612114816120ee565b92915050565b6000602082840312156121305761212f61201f565b5b600061213e84828501612105565b91505092915050565b600073ffffffffffffffffffffffffffffffffffffffff82169050919050565b600061217282612147565b9050919050565b61218281612167565b82525050565b600060208201905061219d6000830184612179565b92915050565b6121ac81612167565b81146121b757600080fd5b50565b6000813590506121c9816121a3565b92915050565b600080604083850312156121e6576121e561201f565b5b60006121f4858286016121ba565b925050602061220585828601612105565b9150509250929050565b6000806000606084860312156122285761222761201f565b5b6000612236868287016121ba565b9350506020612247868287016121ba565b925050604061225886828701612105565b9150509250925092565b6000602082840312156122785761227761201f565b5b6000612286848285016121ba565b91505092915050565b612298816120e4565b82525050565b60006020820190506122b3600083018461228f565b92915050565b600080600080600080600060e0888a0312156122d8576122d761201f565b5b60006122e68a828b01612105565b97505060206122f78a828b016121ba565b96505060406123088a828b016121ba565b95505060606123198a828b016121ba565b945050608061232a8a828b01612105565b93505060a061233b8a828b01612105565b92505060c061234c8a828b01612105565b91505092959891949750929550565b612364816120e4565b82525050565b61237381612167565b82525050565b60e08201600082015161238f600085018261235b565b5060208201516123a2602085018261236a565b5060408201516123b5604085018261236a565b5060608201516123c8606085018261236a565b5060808201516123db608085018261235b565b5060a08201516123ee60a085018261235b565b5060c082015161240160c085018261235b565b50505050565b600060e08201905061241c6000830184612379565b92915050565b600080fd5b600060e0828403121561243d5761243c612422565b5b81905092915050565b600080610100838503121561245e5761245d61201f565b5b600061246c858286016121ba565b925050602061247d85828601612427565b9150509250929050565b600060e08201905061249c600083018a61228f565b6124a96020830189612179565b6124b66040830188612179565b6124c36060830187612179565b6124d0608083018661228f565b6124dd60a083018561228f565b6124ea60c083018461228f565b98975050505050505050565b6124ff816120ae565b811461250a57600080fd5b50565b60008135905061251c816124f6565b92915050565b600080604083850312156125395761253861201f565b5b6000612547858286016121ba565b92505060206125588582860161250d565b9150509250929050565b600080fd5b600080fd5b600080fd5b60008083601f84011261258757612586612562565b5b8235905067ffffffffffffffff8111156125a4576125a3612567565b5b6020830191508360018202830111156125c0576125bf61256c565b5b9250929050565b6000806000806000608086880312156125e3576125e261201f565b5b60006125f1888289016121ba565b9550506020612602888289016121ba565b945050604061261388828901612105565b935050606086013567ffffffffffffffff81111561263457612633612024565b5b61264088828901612571565b92509250509295509295909350565b600081519050919050565b600082825260208201905092915050565b6000819050602082019050919050565b6000612687838361235b565b60208301905092915050565b6000602082019050919050565b60006126ab8261264f565b6126b5818561265a565b93506126c08361266b565b8060005b838110156126f15781516126d8888261267b565b97506126e383612693565b9250506001810190506126c4565b5085935050505092915050565b6000602082019050818103600083015261271881846126a0565b905092915050565b600080604083850312156127375761273661201f565b5b6000612745858286016121ba565b9250506020612756858286016121ba565b9150509250929050565b600080604083850312156127775761277661201f565b5b600061278585828601612105565b9250506020612796858286016121ba565b9150509250929050565b600082825260208201905092915050565b7f746f6b656e20646f657327742065786974730000000000000000000000000000600082015250565b60006127e76012836127a0565b91506127f2826127b1565b602082019050919050565b60006020820190508181036000830152612816816127da565b9050919050565b7f6e6f7420617574686f72697a6564000000000000000000000000000000000000600082015250565b6000612853600e836127a0565b915061285e8261281d565b602082019050919050565b6000602082019050818103600083015261288281612846565b9050919050565b7f66726f6d20213d206f776e657200000000000000000000000000000000000000600082015250565b60006128bf600d836127a0565b91506128ca82612889565b602082019050919050565b600060208201905081810360008301526128ee816128b2565b9050919050565b7f746f203d207a65726f2061646472657373000000000000000000000000000000600082015250565b600061292b6011836127a0565b9150612936826128f5565b602082019050919050565b6000602082019050818103600083015261295a8161291e565b9050919050565b7f4e487b7100000000000000000000000000000000000000000000000000000000600052601160045260246000fd5b600061299b826120e4565b9150600082036129ae576129ad612961565b5b600182039050919050565b60006129c4826120e4565b91507fffffffffffffffffffffffffffffffffffffffffffffffffffffffffffffffff82036129f6576129f5612961565b5b600182019050919050565b6000612a0c826120e4565b9150612a17836120e4565b9250828203905081811115612a2f57612a2e612961565b5b92915050565b600082825260208201905092915050565b50565b6000612a56600083612a35565b9150612a6182612a46565b600082019050919050565b6000608082019050612a816000830186612179565b612a8e6020830185612179565b612a9b604083018461228f565b8181036060830152612aac81612a49565b9050949350505050565b600081519050612ac581612055565b92915050565b600060208284031215612ae157612ae061201f565b5b6000612aef84828501612ab6565b91505092915050565b7f756e7361666520726563697069656e7400000000000000000000000000000000600082015250565b6000612b2e6010836127a0565b9150612b3982612af8565b602082019050919050565b60006020820190508181036000830152612b5d81612b21565b9050919050565b7f6f776e6572203d207a65726f2061646472657373000000000000000000000000600082015250565b6000612b9a6014836127a0565b9150612ba582612b64565b602082019050919050565b60006020820190508181036000830152612bc981612b8d565b9050919050565b82818337600083830152505050565b6000601f19601f8301169050919050565b6000612bfc8385612a35565b9350612c09838584612bd0565b612c1283612bdf565b840190509392505050565b6000608082019050612c326000830188612179565b612c3f6020830187612179565b612c4c604083018661228f565b8181036060830152612c5f818486612bf0565b90509695505050505050565b7f6e6f74204f776e65720000000000000000000000000000000000000000000000600082015250565b6000612ca16009836127a0565b9150612cac82612c6b565b602082019050919050565b60006020820190508181036000830152612cd081612c94565b9050919050565b7f4e487b7100000000000000000000000000000000000000000000000000000000600052603260045260246000fd5b7f4e487b7100000000000000000000000000000000000000000000000000000000600052603160045260246000fd5b7f746f6b656e206578697374730000000000000000000000000000000000000000600082015250565b6000612d6b600c836127a0565b9150612d7682612d35565b602082019050919050565b60006020820190508181036000830152612d9a81612d5e565b9050919050565b7f746f6b656e20646f6573206e6f74206578697473000000000000000000000000600082015250565b6000612dd76014836127a0565b9150612de282612da1565b602082019050919050565b60006020820190508181036000830152612e0681612dca565b905091905056fea26469706673582212207f914aed238671b42fe24af19e44a36701b3cdcfb04f65a1b7670b7113dcf70164736f6c63430008120033",
					"opcodes": "PUSH1 0x80 PUSH1 0x40 MSTORE PUSH1 0x1 PUSH1 0x6 SSTORE CALLVALUE DUP1 ISZERO PUSH3 0x16 JUMPI PUSH1 0x0 DUP1 REVERT JUMPDEST POP PUSH1 0x40 MLOAD PUSH3 0x3405 CODESIZE SUB DUP1 PUSH3 0x3405 DUP4 CODECOPY DUP2 DUP2 ADD PUSH1 0x40 MSTORE DUP2 ADD SWAP1 PUSH3 0x3C SWAP2 SWAP1 PUSH3 0x1FB JUMP JUMPDEST DUP2 PUSH1 0x4 SWAP1 DUP2 PUSH3 0x4D SWAP2 SWAP1 PUSH3 0x4CB JUMP JUMPDEST POP DUP1 PUSH1 0x5 SWAP1 DUP2 PUSH3 0x5F SWAP2 SWAP1 PUSH3 0x4CB JUMP JUMPDEST POP POP POP PUSH3 0x5B2 JUMP JUMPDEST PUSH1 0x0 PUSH1 0x40 MLOAD SWAP1 POP SWAP1 JUMP JUMPDEST PUSH1 0x0 DUP1 REVERT JUMPDEST PUSH1 0x0 DUP1 REVERT JUMPDEST PUSH1 0x0 DUP1 REVERT JUMPDEST PUSH1 0x0 DUP1 REVERT JUMPDEST PUSH1 0x0 PUSH1 0x1F NOT PUSH1 0x1F DUP4 ADD AND SWAP1 POP SWAP2 SWAP1 POP JUMP JUMPDEST PUSH32 0x4E487B7100000000000000000000000000000000000000000000000000000000 PUSH1 0x0 MSTORE PUSH1 0x41 PUSH1 0x4 MSTORE PUSH1 0x24 PUSH1 0x0 REVERT JUMPDEST PUSH3 0xD1 DUP3 PUSH3 0x86 JUMP JUMPDEST DUP2 ADD DUP2 DUP2 LT PUSH8 0xFFFFFFFFFFFFFFFF DUP3 GT OR ISZERO PUSH3 0xF3 JUMPI PUSH3 0xF2 PUSH3 0x97 JUMP JUMPDEST JUMPDEST DUP1 PUSH1 0x40 MSTORE POP POP POP JUMP JUMPDEST PUSH1 0x0 PUSH3 0x108 PUSH3 0x68 JUMP JUMPDEST SWAP1 POP PUSH3 0x116 DUP3 DUP3 PUSH3 0xC6 JUMP JUMPDEST SWAP2 SWAP1 POP JUMP JUMPDEST PUSH1 0x0 PUSH8 0xFFFFFFFFFFFFFFFF DUP3 GT ISZERO PUSH3 0x139 JUMPI PUSH3 0x138 PUSH3 0x97 JUMP JUMPDEST JUMPDEST PUSH3 0x144 DUP3 PUSH3 0x86 JUMP JUMPDEST SWAP1 POP PUSH1 0x20 DUP2 ADD SWAP1 POP SWAP2 SWAP1 POP JUMP JUMPDEST PUSH1 0x0 JUMPDEST DUP4 DUP2 LT ISZERO PUSH3 0x171 JUMPI DUP1 DUP3 ADD MLOAD DUP2 DUP5 ADD MSTORE PUSH1 0x20 DUP2 ADD SWAP1 POP PUSH3 0x154 JUMP JUMPDEST PUSH1 0x0 DUP5 DUP5 ADD MSTORE POP POP POP POP JUMP JUMPDEST PUSH1 0x0 PUSH3 0x194 PUSH3 0x18E DUP5 PUSH3 0x11B JUMP JUMPDEST PUSH3 0xFC JUMP JUMPDEST SWAP1 POP DUP3 DUP2 MSTORE PUSH1 0x20 DUP2 ADD DUP5 DUP5 DUP5 ADD GT ISZERO PUSH3 0x1B3 JUMPI PUSH3 0x1B2 PUSH3 0x81 JUMP JUMPDEST JUMPDEST PUSH3 0x1C0 DUP5 DUP3 DUP6 PUSH3 0x151 JUMP JUMPDEST POP SWAP4 SWAP3 POP POP POP JUMP JUMPDEST PUSH1 0x0 DUP3 PUSH1 0x1F DUP4 ADD SLT PUSH3 0x1E0 JUMPI PUSH3 0x1DF PUSH3 0x7C JUMP JUMPDEST JUMPDEST DUP2 MLOAD PUSH3 0x1F2 DUP5 DUP3 PUSH1 0x20 DUP7 ADD PUSH3 0x17D JUMP JUMPDEST SWAP2 POP POP SWAP3 SWAP2 POP POP JUMP JUMPDEST PUSH1 0x0 DUP1 PUSH1 0x40 DUP4 DUP6 SUB SLT ISZERO PUSH3 0x215 JUMPI PUSH3 0x214 PUSH3 0x72 JUMP JUMPDEST JUMPDEST PUSH1 0x0 DUP4 ADD MLOAD PUSH8 0xFFFFFFFFFFFFFFFF DUP2 GT ISZERO PUSH3 0x236 JUMPI PUSH3 0x235 PUSH3 0x77 JUMP JUMPDEST JUMPDEST PUSH3 0x244 DUP6 DUP3 DUP7 ADD PUSH3 0x1C8 JUMP JUMPDEST SWAP3 POP POP PUSH1 0x20 DUP4 ADD MLOAD PUSH8 0xFFFFFFFFFFFFFFFF DUP2 GT ISZERO PUSH3 0x268 JUMPI PUSH3 0x267 PUSH3 0x77 JUMP JUMPDEST JUMPDEST PUSH3 0x276 DUP6 DUP3 DUP7 ADD PUSH3 0x1C8 JUMP JUMPDEST SWAP2 POP POP SWAP3 POP SWAP3 SWAP1 POP JUMP JUMPDEST PUSH1 0x0 DUP2 MLOAD SWAP1 POP SWAP2 SWAP1 POP JUMP JUMPDEST PUSH32 0x4E487B7100000000000000000000000000000000000000000000000000000000 PUSH1 0x0 MSTORE PUSH1 0x22 PUSH1 0x4 MSTORE PUSH1 0x24 PUSH1 0x0 REVERT JUMPDEST PUSH1 0x0 PUSH1 0x2 DUP3 DIV SWAP1 POP PUSH1 0x1 DUP3 AND DUP1 PUSH3 0x2D3 JUMPI PUSH1 0x7F DUP3 AND SWAP2 POP JUMPDEST PUSH1 0x20 DUP3 LT DUP2 SUB PUSH3 0x2E9 JUMPI PUSH3 0x2E8 PUSH3 0x28B JUMP JUMPDEST JUMPDEST POP SWAP2 SWAP1 POP JUMP JUMPDEST PUSH1 0x0 DUP2 SWAP1 POP DUP2 PUSH1 0x0 MSTORE PUSH1 0x20 PUSH1 0x0 KECCAK256 SWAP1 POP SWAP2 SWAP1 POP JUMP JUMPDEST PUSH1 0x0 PUSH1 0x20 PUSH1 0x1F DUP4 ADD DIV SWAP1 POP SWAP2 SWAP1 POP JUMP JUMPDEST PUSH1 0x0 DUP3 DUP3 SHL SWAP1 POP SWAP3 SWAP2 POP POP JUMP JUMPDEST PUSH1 0x0 PUSH1 0x8 DUP4 MUL PUSH3 0x353 PUSH32 0xFFFFFFFFFFFFFFFFFFFFFFFFFFFFFFFFFFFFFFFFFFFFFFFFFFFFFFFFFFFFFFFF DUP3 PUSH3 0x314 JUMP JUMPDEST PUSH3 0x35F DUP7 DUP4 PUSH3 0x314 JUMP JUMPDEST SWAP6 POP DUP1 NOT DUP5 AND SWAP4 POP DUP1 DUP7 AND DUP5 OR SWAP3 POP POP POP SWAP4 SWAP3 POP POP POP JUMP JUMPDEST PUSH1 0x0 DUP2 SWAP1 POP SWAP2 SWAP1 POP JUMP JUMPDEST PUSH1 0x0 DUP2 SWAP1 POP SWAP2 SWAP1 POP JUMP JUMPDEST PUSH1 0x0 PUSH3 0x3AC PUSH3 0x3A6 PUSH3 0x3A0 DUP5 PUSH3 0x377 JUMP JUMPDEST PUSH3 0x381 JUMP JUMPDEST PUSH3 0x377 JUMP JUMPDEST SWAP1 POP SWAP2 SWAP1 POP JUMP JUMPDEST PUSH1 0x0 DUP2 SWAP1 POP SWAP2 SWAP1 POP JUMP JUMPDEST PUSH3 0x3C8 DUP4 PUSH3 0x38B JUMP JUMPDEST PUSH3 0x3E0 PUSH3 0x3D7 DUP3 PUSH3 0x3B3 JUMP JUMPDEST DUP5 DUP5 SLOAD PUSH3 0x321 JUMP JUMPDEST DUP3 SSTORE POP POP POP POP JUMP JUMPDEST PUSH1 0x0 SWAP1 JUMP JUMPDEST PUSH3 0x3F7 PUSH3 0x3E8 JUMP JUMPDEST PUSH3 0x404 DUP2 DUP5 DUP5 PUSH3 0x3BD JUMP JUMPDEST POP POP POP JUMP JUMPDEST JUMPDEST DUP2 DUP2 LT ISZERO PUSH3 0x42C JUMPI PUSH3 0x420 PUSH1 0x0 DUP3 PUSH3 0x3ED JUMP JUMPDEST PUSH1 0x1 DUP2 ADD SWAP1 POP PUSH3 0x40A JUMP JUMPDEST POP POP JUMP JUMPDEST PUSH1 0x1F DUP3 GT ISZERO PUSH3 0x47B JUMPI PUSH3 0x445 DUP2 PUSH3 0x2EF JUMP JUMPDEST PUSH3 0x450 DUP5 PUSH3 0x304 JUMP JUMPDEST DUP2 ADD PUSH1 0x20 DUP6 LT ISZERO PUSH3 0x460 JUMPI DUP2 SWAP1 POP JUMPDEST PUSH3 0x478 PUSH3 0x46F DUP6 PUSH3 0x304 JUMP JUMPDEST DUP4 ADD DUP3 PUSH3 0x409 JUMP JUMPDEST POP POP JUMPDEST POP POP POP JUMP JUMPDEST PUSH1 0x0 DUP3 DUP3 SHR SWAP1 POP SWAP3 SWAP2 POP POP JUMP JUMPDEST PUSH1 0x0 PUSH3 0x4A0 PUSH1 0x0 NOT DUP5 PUSH1 0x8 MUL PUSH3 0x480 JUMP JUMPDEST NOT DUP1 DUP4 AND SWAP2 POP POP SWAP3 SWAP2 POP POP JUMP JUMPDEST PUSH1 0x0 PUSH3 0x4BB DUP4 DUP4 PUSH3 0x48D JUMP JUMPDEST SWAP2 POP DUP3 PUSH1 0x2 MUL DUP3 OR SWAP1 POP SWAP3 SWAP2 POP POP JUMP JUMPDEST PUSH3 0x4D6 DUP3 PUSH3 0x280 JUMP JUMPDEST PUSH8 0xFFFFFFFFFFFFFFFF DUP2 GT ISZERO PUSH3 0x4F2 JUMPI PUSH3 0x4F1 PUSH3 0x97 JUMP JUMPDEST JUMPDEST PUSH3 0x4FE DUP3 SLOAD PUSH3 0x2BA JUMP JUMPDEST PUSH3 0x50B DUP3 DUP3 DUP6 PUSH3 0x430 JUMP JUMPDEST PUSH1 0x0 PUSH1 0x20 SWAP1 POP PUSH1 0x1F DUP4 GT PUSH1 0x1 DUP2 EQ PUSH3 0x543 JUMPI PUSH1 0x0 DUP5 ISZERO PUSH3 0x52E JUMPI DUP3 DUP8 ADD MLOAD SWAP1 POP JUMPDEST PUSH3 0x53A DUP6 DUP3 PUSH3 0x4AD JUMP JUMPDEST DUP7 SSTORE POP PUSH3 0x5AA JUMP JUMPDEST PUSH1 0x1F NOT DUP5 AND PUSH3 0x553 DUP7 PUSH3 0x2EF JUMP JUMPDEST PUSH1 0x0 JUMPDEST DUP3 DUP2 LT ISZERO PUSH3 0x57D JUMPI DUP5 DUP10 ADD MLOAD DUP3 SSTORE PUSH1 0x1 DUP3 ADD SWAP2 POP PUSH1 0x20 DUP6 ADD SWAP5 POP PUSH1 0x20 DUP2 ADD SWAP1 POP PUSH3 0x556 JUMP JUMPDEST DUP7 DUP4 LT ISZERO PUSH3 0x59D JUMPI DUP5 DUP10 ADD MLOAD PUSH3 0x599 PUSH1 0x1F DUP10 AND DUP3 PUSH3 0x48D JUMP JUMPDEST DUP4 SSTORE POP JUMPDEST PUSH1 0x1 PUSH1 0x2 DUP9 MUL ADD DUP9 SSTORE POP POP POP JUMPDEST POP POP POP POP POP POP JUMP JUMPDEST PUSH2 0x2E43 DUP1 PUSH3 0x5C2 PUSH1 0x0 CODECOPY PUSH1 0x0 RETURN INVALID PUSH1 0x80 PUSH1 0x40 MSTORE CALLVALUE DUP1 ISZERO PUSH2 0x10 JUMPI PUSH1 0x0 DUP1 REVERT JUMPDEST POP PUSH1 0x4 CALLDATASIZE LT PUSH2 0x121 JUMPI PUSH1 0x0 CALLDATALOAD PUSH1 0xE0 SHR DUP1 PUSH4 0x8B217878 GT PUSH2 0xAD JUMPI DUP1 PUSH4 0xB88D4FDE GT PUSH2 0x71 JUMPI DUP1 PUSH4 0xB88D4FDE EQ PUSH2 0x342 JUMPI DUP1 PUSH4 0xD942DC94 EQ PUSH2 0x35E JUMPI DUP1 PUSH4 0xDEEB79A3 EQ PUSH2 0x38E JUMPI DUP1 PUSH4 0xEBD1D359 EQ PUSH2 0x3BE JUMPI DUP1 PUSH4 0xEC828722 EQ PUSH2 0x3EE JUMPI PUSH2 0x121 JUMP JUMPDEST DUP1 PUSH4 0x8B217878 EQ PUSH2 0x286 JUMPI DUP1 PUSH4 0x8BBF58B3 EQ PUSH2 0x2B6 JUMPI DUP1 PUSH4 0x91CDA3E7 EQ PUSH2 0x2D4 JUMPI DUP1 PUSH4 0x99FBAB88 EQ PUSH2 0x2F0 JUMPI DUP1 PUSH4 0xA22CB465 EQ PUSH2 0x326 JUMPI PUSH2 0x121 JUMP JUMPDEST DUP1 PUSH4 0x26908FA1 GT PUSH2 0xF4 JUMPI DUP1 PUSH4 0x26908FA1 EQ PUSH2 0x1BE JUMPI DUP1 PUSH4 0x42842E0E EQ PUSH2 0x1DA JUMPI DUP1 PUSH4 0x6352211E EQ PUSH2 0x1F6 JUMPI DUP1 PUSH4 0x70A08231 EQ PUSH2 0x226 JUMPI DUP1 PUSH4 0x7FCDA073 EQ PUSH2 0x256 JUMPI PUSH2 0x121 JUMP JUMPDEST DUP1 PUSH4 0x1FFC9A7 EQ PUSH2 0x126 JUMPI DUP1 PUSH4 0x81812FC EQ PUSH2 0x156 JUMPI DUP1 PUSH4 0x95EA7B3 EQ PUSH2 0x186 JUMPI DUP1 PUSH4 0x23B872DD EQ PUSH2 0x1A2 JUMPI JUMPDEST PUSH1 0x0 DUP1 REVERT JUMPDEST PUSH2 0x140 PUSH1 0x4 DUP1 CALLDATASIZE SUB DUP2 ADD SWAP1 PUSH2 0x13B SWAP2 SWAP1 PUSH2 0x2081 JUMP JUMPDEST PUSH2 0x40A JUMP JUMPDEST PUSH1 0x40 MLOAD PUSH2 0x14D SWAP2 SWAP1 PUSH2 0x20C9 JUMP JUMPDEST PUSH1 0x40 MLOAD DUP1 SWAP2 SUB SWAP1 RETURN JUMPDEST PUSH2 0x170 PUSH1 0x4 DUP1 CALLDATASIZE SUB DUP2 ADD SWAP1 PUSH2 0x16B SWAP2 SWAP1 PUSH2 0x211A JUMP JUMPDEST PUSH2 0x4DC JUMP JUMPDEST PUSH1 0x40 MLOAD PUSH2 0x17D SWAP2 SWAP1 PUSH2 0x2188 JUMP JUMPDEST PUSH1 0x40 MLOAD DUP1 SWAP2 SUB SWAP1 RETURN JUMPDEST PUSH2 0x1A0 PUSH1 0x4 DUP1 CALLDATASIZE SUB DUP2 ADD SWAP1 PUSH2 0x19B SWAP2 SWAP1 PUSH2 0x21CF JUMP JUMPDEST PUSH2 0x5B9 JUMP JUMPDEST STOP JUMPDEST PUSH2 0x1BC PUSH1 0x4 DUP1 CALLDATASIZE SUB DUP2 ADD SWAP1 PUSH2 0x1B7 SWAP2 SWAP1 PUSH2 0x220F JUMP JUMPDEST PUSH2 0x7A1 JUMP JUMPDEST STOP JUMPDEST PUSH2 0x1D8 PUSH1 0x4 DUP1 CALLDATASIZE SUB DUP2 ADD SWAP1 PUSH2 0x1D3 SWAP2 SWAP1 PUSH2 0x220F JUMP JUMPDEST PUSH2 0xA8B JUMP JUMPDEST STOP JUMPDEST PUSH2 0x1F4 PUSH1 0x4 DUP1 CALLDATASIZE SUB DUP2 ADD SWAP1 PUSH2 0x1EF SWAP2 SWAP1 PUSH2 0x220F JUMP JUMPDEST PUSH2 0xBB0 JUMP JUMPDEST STOP JUMPDEST PUSH2 0x210 PUSH1 0x4 DUP1 CALLDATASIZE SUB DUP2 ADD SWAP1 PUSH2 0x20B SWAP2 SWAP1 PUSH2 0x211A JUMP JUMPDEST PUSH2 0xCE8 JUMP JUMPDEST PUSH1 0x40 MLOAD PUSH2 0x21D SWAP2 SWAP1 PUSH2 0x2188 JUMP JUMPDEST PUSH1 0x40 MLOAD DUP1 SWAP2 SUB SWAP1 RETURN JUMPDEST PUSH2 0x240 PUSH1 0x4 DUP1 CALLDATASIZE SUB DUP2 ADD SWAP1 PUSH2 0x23B SWAP2 SWAP1 PUSH2 0x2262 JUMP JUMPDEST PUSH2 0xD93 JUMP JUMPDEST PUSH1 0x40 MLOAD PUSH2 0x24D SWAP2 SWAP1 PUSH2 0x229E JUMP JUMPDEST PUSH1 0x40 MLOAD DUP1 SWAP2 SUB SWAP1 RETURN JUMPDEST PUSH2 0x270 PUSH1 0x4 DUP1 CALLDATASIZE SUB DUP2 ADD SWAP1 PUSH2 0x26B SWAP2 SWAP1 PUSH2 0x21CF JUMP JUMPDEST PUSH2 0xE4A JUMP JUMPDEST PUSH1 0x40 MLOAD PUSH2 0x27D SWAP2 SWAP1 PUSH2 0x229E JUMP JUMPDEST PUSH1 0x40 MLOAD DUP1 SWAP2 SUB SWAP1 RETURN JUMPDEST PUSH2 0x2A0 PUSH1 0x4 DUP1 CALLDATASIZE SUB DUP2 ADD SWAP1 PUSH2 0x29B SWAP2 SWAP1 PUSH2 0x22B9 JUMP JUMPDEST PUSH2 0xE6F JUMP JUMPDEST PUSH1 0x40 MLOAD PUSH2 0x2AD SWAP2 SWAP1 PUSH2 0x2407 JUMP JUMPDEST PUSH1 0x40 MLOAD DUP1 SWAP2 SUB SWAP1 RETURN JUMPDEST PUSH2 0x2BE PUSH2 0xEFF JUMP JUMPDEST PUSH1 0x40 MLOAD PUSH2 0x2CB SWAP2 SWAP1 PUSH2 0x229E JUMP JUMPDEST PUSH1 0x40 MLOAD DUP1 SWAP2 SUB SWAP1 RETURN JUMPDEST PUSH2 0x2EE PUSH1 0x4 DUP1 CALLDATASIZE SUB DUP2 ADD SWAP1 PUSH2 0x2E9 SWAP2 SWAP1 PUSH2 0x2446 JUMP JUMPDEST PUSH2 0xF05 JUMP JUMPDEST STOP JUMPDEST PUSH2 0x30A PUSH1 0x4 DUP1 CALLDATASIZE SUB DUP2 ADD SWAP1 PUSH2 0x305 SWAP2 SWAP1 PUSH2 0x211A JUMP JUMPDEST PUSH2 0x1187 JUMP JUMPDEST PUSH1 0x40 MLOAD PUSH2 0x31D SWAP8 SWAP7 SWAP6 SWAP5 SWAP4 SWAP3 SWAP2 SWAP1 PUSH2 0x2487 JUMP JUMPDEST PUSH1 0x40 MLOAD DUP1 SWAP2 SUB SWAP1 RETURN JUMPDEST PUSH2 0x340 PUSH1 0x4 DUP1 CALLDATASIZE SUB DUP2 ADD SWAP1 PUSH2 0x33B SWAP2 SWAP1 PUSH2 0x2522 JUMP JUMPDEST PUSH2 0x1229 JUMP JUMPDEST STOP JUMPDEST PUSH2 0x35C PUSH1 0x4 DUP1 CALLDATASIZE SUB DUP2 ADD SWAP1 PUSH2 0x357 SWAP2 SWAP1 PUSH2 0x25C7 JUMP JUMPDEST PUSH2 0x1326 JUMP JUMPDEST STOP JUMPDEST PUSH2 0x378 PUSH1 0x4 DUP1 CALLDATASIZE SUB DUP2 ADD SWAP1 PUSH2 0x373 SWAP2 SWAP1 PUSH2 0x2262 JUMP JUMPDEST PUSH2 0x1464 JUMP JUMPDEST PUSH1 0x40 MLOAD PUSH2 0x385 SWAP2 SWAP1 PUSH2 0x26FE JUMP JUMPDEST PUSH1 0x40 MLOAD DUP1 SWAP2 SUB SWAP1 RETURN JUMPDEST PUSH2 0x3A8 PUSH1 0x4 DUP1 CALLDATASIZE SUB DUP2 ADD SWAP1 PUSH2 0x3A3 SWAP2 SWAP1 PUSH2 0x21CF JUMP JUMPDEST PUSH2 0x14FB JUMP JUMPDEST PUSH1 0x40 MLOAD PUSH2 0x3B5 SWAP2 SWAP1 PUSH2 0x229E JUMP JUMPDEST PUSH1 0x40 MLOAD DUP1 SWAP2 SUB SWAP1 RETURN JUMPDEST PUSH2 0x3D8 PUSH1 0x4 DUP1 CALLDATASIZE SUB DUP2 ADD SWAP1 PUSH2 0x3D3 SWAP2 SWAP1 PUSH2 0x2720 JUMP JUMPDEST PUSH2 0x152C JUMP JUMPDEST PUSH1 0x40 MLOAD PUSH2 0x3E5 SWAP2 SWAP1 PUSH2 0x20C9 JUMP JUMPDEST PUSH1 0x40 MLOAD DUP1 SWAP2 SUB SWAP1 RETURN JUMPDEST PUSH2 0x408 PUSH1 0x4 DUP1 CALLDATASIZE SUB DUP2 ADD SWAP1 PUSH2 0x403 SWAP2 SWAP1 PUSH2 0x2760 JUMP JUMPDEST PUSH2 0x155B JUMP JUMPDEST STOP JUMPDEST PUSH1 0x0 PUSH32 0x80AC58CD00000000000000000000000000000000000000000000000000000000 PUSH28 0xFFFFFFFFFFFFFFFFFFFFFFFFFFFFFFFFFFFFFFFFFFFFFFFFFFFFFFFF NOT AND DUP3 PUSH28 0xFFFFFFFFFFFFFFFFFFFFFFFFFFFFFFFFFFFFFFFFFFFFFFFFFFFFFFFF NOT AND EQ DUP1 PUSH2 0x4D5 JUMPI POP PUSH32 0x1FFC9A700000000000000000000000000000000000000000000000000000000 PUSH28 0xFFFFFFFFFFFFFFFFFFFFFFFFFFFFFFFFFFFFFFFFFFFFFFFFFFFFFFFF NOT AND DUP3 PUSH28 0xFFFFFFFFFFFFFFFFFFFFFFFFFFFFFFFFFFFFFFFFFFFFFFFFFFFFFFFF NOT AND EQ JUMPDEST SWAP1 POP SWAP2 SWAP1 POP JUMP JUMPDEST PUSH1 0x0 DUP1 PUSH20 0xFFFFFFFFFFFFFFFFFFFFFFFFFFFFFFFFFFFFFFFF AND PUSH1 0x0 DUP1 DUP5 DUP2 MSTORE PUSH1 0x20 ADD SWAP1 DUP2 MSTORE PUSH1 0x20 ADD PUSH1 0x0 KECCAK256 PUSH1 0x0 SWAP1 SLOAD SWAP1 PUSH2 0x100 EXP SWAP1 DIV PUSH20 0xFFFFFFFFFFFFFFFFFFFFFFFFFFFFFFFFFFFFFFFF AND PUSH20 0xFFFFFFFFFFFFFFFFFFFFFFFFFFFFFFFFFFFFFFFF AND SUB PUSH2 0x57E JUMPI PUSH1 0x40 MLOAD PUSH32 0x8C379A000000000000000000000000000000000000000000000000000000000 DUP2 MSTORE PUSH1 0x4 ADD PUSH2 0x575 SWAP1 PUSH2 0x27FD JUMP JUMPDEST PUSH1 0x40 MLOAD DUP1 SWAP2 SUB SWAP1 REVERT JUMPDEST PUSH1 0x2 PUSH1 0x0 DUP4 DUP2 MSTORE PUSH1 0x20 ADD SWAP1 DUP2 MSTORE PUSH1 0x20 ADD PUSH1 0x0 KECCAK256 PUSH1 0x0 SWAP1 SLOAD SWAP1 PUSH2 0x100 EXP SWAP1 DIV PUSH20 0xFFFFFFFFFFFFFFFFFFFFFFFFFFFFFFFFFFFFFFFF AND SWAP1 POP SWAP2 SWAP1 POP JUMP JUMPDEST PUSH1 0x0 DUP1 PUSH1 0x0 DUP4 DUP2 MSTORE PUSH1 0x20 ADD SWAP1 DUP2 MSTORE PUSH1 0x20 ADD PUSH1 0x0 KECCAK256 PUSH1 0x0 SWAP1 SLOAD SWAP1 PUSH2 0x100 EXP SWAP1 DIV PUSH20 0xFFFFFFFFFFFFFFFFFFFFFFFFFFFFFFFFFFFFFFFF AND SWAP1 POP DUP1 PUSH20 0xFFFFFFFFFFFFFFFFFFFFFFFFFFFFFFFFFFFFFFFF AND CALLER PUSH20 0xFFFFFFFFFFFFFFFFFFFFFFFFFFFFFFFFFFFFFFFF AND EQ DUP1 PUSH2 0x6B0 JUMPI POP PUSH1 0x3 PUSH1 0x0 DUP3 PUSH20 0xFFFFFFFFFFFFFFFFFFFFFFFFFFFFFFFFFFFFFFFF AND PUSH20 0xFFFFFFFFFFFFFFFFFFFFFFFFFFFFFFFFFFFFFFFF AND DUP2 MSTORE PUSH1 0x20 ADD SWAP1 DUP2 MSTORE PUSH1 0x20 ADD PUSH1 0x0 KECCAK256 PUSH1 0x0 CALLER PUSH20 0xFFFFFFFFFFFFFFFFFFFFFFFFFFFFFFFFFFFFFFFF AND PUSH20 0xFFFFFFFFFFFFFFFFFFFFFFFFFFFFFFFFFFFFFFFF AND DUP2 MSTORE PUSH1 0x20 ADD SWAP1 DUP2 MSTORE PUSH1 0x20 ADD PUSH1 0x0 KECCAK256 PUSH1 0x0 SWAP1 SLOAD SWAP1 PUSH2 0x100 EXP SWAP1 DIV PUSH1 0xFF AND JUMPDEST PUSH2 0x6EF JUMPI PUSH1 0x40 MLOAD PUSH32 0x8C379A000000000000000000000000000000000000000000000000000000000 DUP2 MSTORE PUSH1 0x4 ADD PUSH2 0x6E6 SWAP1 PUSH2 0x2869 JUMP JUMPDEST PUSH1 0x40 MLOAD DUP1 SWAP2 SUB SWAP1 REVERT JUMPDEST DUP3 PUSH1 0x2 PUSH1 0x0 DUP5 DUP2 MSTORE PUSH1 0x20 ADD SWAP1 DUP2 MSTORE PUSH1 0x20 ADD PUSH1 0x0 KECCAK256 PUSH1 0x0 PUSH2 0x100 EXP DUP2 SLOAD DUP2 PUSH20 0xFFFFFFFFFFFFFFFFFFFFFFFFFFFFFFFFFFFFFFFF MUL NOT AND SWAP1 DUP4 PUSH20 0xFFFFFFFFFFFFFFFFFFFFFFFFFFFFFFFFFFFFFFFF AND MUL OR SWAP1 SSTORE POP DUP2 DUP4 PUSH20 0xFFFFFFFFFFFFFFFFFFFFFFFFFFFFFFFFFFFFFFFF AND DUP3 PUSH20 0xFFFFFFFFFFFFFFFFFFFFFFFFFFFFFFFFFFFFFFFF AND PUSH32 0x8C5BE1E5EBEC7D5BD14F71427D1E84F3DD0314C0F7B2291E5B200AC8C7C3B925 PUSH1 0x40 MLOAD PUSH1 0x40 MLOAD DUP1 SWAP2 SUB SWAP1 LOG4 POP POP POP JUMP JUMPDEST PUSH1 0x0 DUP1 DUP3 DUP2 MSTORE PUSH1 0x20 ADD SWAP1 DUP2 MSTORE PUSH1 0x20 ADD PUSH1 0x0 KECCAK256 PUSH1 0x0 SWAP1 SLOAD SWAP1 PUSH2 0x100 EXP SWAP1 DIV PUSH20 0xFFFFFFFFFFFFFFFFFFFFFFFFFFFFFFFFFFFFFFFF AND PUSH20 0xFFFFFFFFFFFFFFFFFFFFFFFFFFFFFFFFFFFFFFFF AND DUP4 PUSH20 0xFFFFFFFFFFFFFFFFFFFFFFFFFFFFFFFFFFFFFFFF AND EQ PUSH2 0x841 JUMPI PUSH1 0x40 MLOAD PUSH32 0x8C379A000000000000000000000000000000000000000000000000000000000 DUP2 MSTORE PUSH1 0x4 ADD PUSH2 0x838 SWAP1 PUSH2 0x28D5 JUMP JUMPDEST PUSH1 0x40 MLOAD DUP1 SWAP2 SUB SWAP1 REVERT JUMPDEST PUSH1 0x0 PUSH20 0xFFFFFFFFFFFFFFFFFFFFFFFFFFFFFFFFFFFFFFFF AND DUP3 PUSH20 0xFFFFFFFFFFFFFFFFFFFFFFFFFFFFFFFFFFFFFFFF AND SUB PUSH2 0x8B0 JUMPI PUSH1 0x40 MLOAD PUSH32 0x8C379A000000000000000000000000000000000000000000000000000000000 DUP2 MSTORE PUSH1 0x4 ADD PUSH2 0x8A7 SWAP1 PUSH2 0x2941 JUMP JUMPDEST PUSH1 0x40 MLOAD DUP1 SWAP2 SUB SWAP1 REVERT JUMPDEST PUSH2 0x8BB DUP4 CALLER DUP4 PUSH2 0x16BD JUMP JUMPDEST PUSH2 0x8FA JUMPI PUSH1 0x40 MLOAD PUSH32 0x8C379A000000000000000000000000000000000000000000000000000000000 DUP2 MSTORE PUSH1 0x4 ADD PUSH2 0x8F1 SWAP1 PUSH2 0x2869 JUMP JUMPDEST PUSH1 0x40 MLOAD DUP1 SWAP2 SUB SWAP1 REVERT JUMPDEST PUSH1 0x1 PUSH1 0x0 DUP5 PUSH20 0xFFFFFFFFFFFFFFFFFFFFFFFFFFFFFFFFFFFFFFFF AND PUSH20 0xFFFFFFFFFFFFFFFFFFFFFFFFFFFFFFFFFFFFFFFF AND DUP2 MSTORE PUSH1 0x20 ADD SWAP1 DUP2 MSTORE PUSH1 0x20 ADD PUSH1 0x0 KECCAK256 PUSH1 0x0 DUP2 SLOAD DUP1 SWAP3 SWAP2 SWAP1 PUSH2 0x94A SWAP1 PUSH2 0x2990 JUMP JUMPDEST SWAP2 SWAP1 POP SSTORE POP PUSH1 0x1 PUSH1 0x0 DUP4 PUSH20 0xFFFFFFFFFFFFFFFFFFFFFFFFFFFFFFFFFFFFFFFF AND PUSH20 0xFFFFFFFFFFFFFFFFFFFFFFFFFFFFFFFFFFFFFFFF AND DUP2 MSTORE PUSH1 0x20 ADD SWAP1 DUP2 MSTORE PUSH1 0x20 ADD PUSH1 0x0 KECCAK256 PUSH1 0x0 DUP2 SLOAD DUP1 SWAP3 SWAP2 SWAP1 PUSH2 0x99F SWAP1 PUSH2 0x29B9 JUMP JUMPDEST SWAP2 SWAP1 POP SSTORE POP DUP2 PUSH1 0x0 DUP1 DUP4 DUP2 MSTORE PUSH1 0x20 ADD SWAP1 DUP2 MSTORE PUSH1 0x20 ADD PUSH1 0x0 KECCAK256 PUSH1 0x0 PUSH2 0x100 EXP DUP2 SLOAD DUP2 PUSH20 0xFFFFFFFFFFFFFFFFFFFFFFFFFFFFFFFFFFFFFFFF MUL NOT AND SWAP1 DUP4 PUSH20 0xFFFFFFFFFFFFFFFFFFFFFFFFFFFFFFFFFFFFFFFF AND MUL OR SWAP1 SSTORE POP PUSH1 0x2 PUSH1 0x0 DUP3 DUP2 MSTORE PUSH1 0x20 ADD SWAP1 DUP2 MSTORE PUSH1 0x20 ADD PUSH1 0x0 KECCAK256 PUSH1 0x0 PUSH2 0x100 EXP DUP2 SLOAD SWAP1 PUSH20 0xFFFFFFFFFFFFFFFFFFFFFFFFFFFFFFFFFFFFFFFF MUL NOT AND SWAP1 SSTORE DUP1 DUP3 PUSH20 0xFFFFFFFFFFFFFFFFFFFFFFFFFFFFFFFFFFFFFFFF AND DUP5 PUSH20 0xFFFFFFFFFFFFFFFFFFFFFFFFFFFFFFFFFFFFFFFF AND PUSH32 0xDDF252AD1BE2C89B69C2B068FC378DAA952BA7F163C4A11628F55A4DF523B3EF PUSH1 0x40 MLOAD PUSH1 0x40 MLOAD DUP1 SWAP2 SUB SWAP1 LOG4 POP POP POP JUMP JUMPDEST PUSH2 0xA96 DUP4 DUP4 DUP4 PUSH2 0x7A1 JUMP JUMPDEST PUSH2 0xAA0 DUP2 DUP5 PUSH2 0x17F1 JUMP JUMPDEST PUSH1 0x8 PUSH1 0x0 DUP4 PUSH20 0xFFFFFFFFFFFFFFFFFFFFFFFFFFFFFFFFFFFFFFFF AND PUSH20 0xFFFFFFFFFFFFFFFFFFFFFFFFFFFFFFFFFFFFFFFF AND DUP2 MSTORE PUSH1 0x20 ADD SWAP1 DUP2 MSTORE PUSH1 0x20 ADD PUSH1 0x0 KECCAK256 DUP2 SWAP1 DUP1 PUSH1 0x1 DUP2 SLOAD ADD DUP1 DUP3 SSTORE DUP1 SWAP2 POP POP PUSH1 0x1 SWAP1 SUB SWAP1 PUSH1 0x0 MSTORE PUSH1 0x20 PUSH1 0x0 KECCAK256 ADD PUSH1 0x0 SWAP1 SWAP2 SWAP1 SWAP2 SWAP1 SWAP2 POP SSTORE PUSH1 0x1 PUSH1 0x8 PUSH1 0x0 DUP5 PUSH20 0xFFFFFFFFFFFFFFFFFFFFFFFFFFFFFFFFFFFFFFFF AND PUSH20 0xFFFFFFFFFFFFFFFFFFFFFFFFFFFFFFFFFFFFFFFF AND DUP2 MSTORE PUSH1 0x20 ADD SWAP1 DUP2 MSTORE PUSH1 0x20 ADD PUSH1 0x0 KECCAK256 DUP1 SLOAD SWAP1 POP PUSH2 0xB55 SWAP2 SWAP1 PUSH2 0x2A01 JUMP JUMPDEST PUSH1 0x9 PUSH1 0x0 DUP5 PUSH20 0xFFFFFFFFFFFFFFFFFFFFFFFFFFFFFFFFFFFFFFFF AND PUSH20 0xFFFFFFFFFFFFFFFFFFFFFFFFFFFFFFFFFFFFFFFF AND DUP2 MSTORE PUSH1 0x20 ADD SWAP1 DUP2 MSTORE PUSH1 0x20 ADD PUSH1 0x0 KECCAK256 PUSH1 0x0 PUSH1 0x6 SLOAD DUP2 MSTORE PUSH1 0x20 ADD SWAP1 DUP2 MSTORE PUSH1 0x20 ADD PUSH1 0x0 KECCAK256 DUP2 SWAP1 SSTORE POP POP POP POP JUMP JUMPDEST PUSH2 0xBBB DUP4 DUP4 DUP4 PUSH2 0x7A1 JUMP JUMPDEST PUSH1 0x0 DUP3 PUSH20 0xFFFFFFFFFFFFFFFFFFFFFFFFFFFFFFFFFFFFFFFF AND EXTCODESIZE EQ DUP1 PUSH2 0xCA4 JUMPI POP PUSH4 0x150B7A02 PUSH1 0xE0 SHL PUSH28 0xFFFFFFFFFFFFFFFFFFFFFFFFFFFFFFFFFFFFFFFFFFFFFFFFFFFFFFFF NOT AND DUP3 PUSH20 0xFFFFFFFFFFFFFFFFFFFFFFFFFFFFFFFFFFFFFFFF AND PUSH4 0x150B7A02 CALLER DUP7 DUP6 PUSH1 0x40 MLOAD DUP5 PUSH4 0xFFFFFFFF AND PUSH1 0xE0 SHL DUP2 MSTORE PUSH1 0x4 ADD PUSH2 0xC40 SWAP4 SWAP3 SWAP2 SWAP1 PUSH2 0x2A6C JUMP JUMPDEST PUSH1 0x20 PUSH1 0x40 MLOAD DUP1 DUP4 SUB DUP2 PUSH1 0x0 DUP8 GAS CALL ISZERO DUP1 ISZERO PUSH2 0xC5F JUMPI RETURNDATASIZE PUSH1 0x0 DUP1 RETURNDATACOPY RETURNDATASIZE PUSH1 0x0 REVERT JUMPDEST POP POP POP POP PUSH1 0x40 MLOAD RETURNDATASIZE PUSH1 0x1F NOT PUSH1 0x1F DUP3 ADD AND DUP3 ADD DUP1 PUSH1 0x40 MSTORE POP DUP2 ADD SWAP1 PUSH2 0xC83 SWAP2 SWAP1 PUSH2 0x2ACB JUMP JUMPDEST PUSH28 0xFFFFFFFFFFFFFFFFFFFFFFFFFFFFFFFFFFFFFFFFFFFFFFFFFFFFFFFF NOT AND EQ JUMPDEST PUSH2 0xCE3 JUMPI PUSH1 0x40 MLOAD PUSH32 0x8C379A000000000000000000000000000000000000000000000000000000000 DUP2 MSTORE PUSH1 0x4 ADD PUSH2 0xCDA SWAP1 PUSH2 0x2B44 JUMP JUMPDEST PUSH1 0x40 MLOAD DUP1 SWAP2 SUB SWAP1 REVERT JUMPDEST POP POP POP JUMP JUMPDEST PUSH1 0x0 DUP1 PUSH1 0x0 DUP4 DUP2 MSTORE PUSH1 0x20 ADD SWAP1 DUP2 MSTORE PUSH1 0x20 ADD PUSH1 0x0 KECCAK256 PUSH1 0x0 SWAP1 SLOAD SWAP1 PUSH2 0x100 EXP SWAP1 DIV PUSH20 0xFFFFFFFFFFFFFFFFFFFFFFFFFFFFFFFFFFFFFFFF AND SWAP1 POP PUSH1 0x0 PUSH20 0xFFFFFFFFFFFFFFFFFFFFFFFFFFFFFFFFFFFFFFFF AND DUP2 PUSH20 0xFFFFFFFFFFFFFFFFFFFFFFFFFFFFFFFFFFFFFFFF AND SUB PUSH2 0xD8E JUMPI PUSH1 0x40 MLOAD PUSH32 0x8C379A000000000000000000000000000000000000000000000000000000000 DUP2 MSTORE PUSH1 0x4 ADD PUSH2 0xD85 SWAP1 PUSH2 0x2BB0 JUMP JUMPDEST PUSH1 0x40 MLOAD DUP1 SWAP2 SUB SWAP1 REVERT JUMPDEST SWAP2 SWAP1 POP JUMP JUMPDEST PUSH1 0x0 DUP1 PUSH20 0xFFFFFFFFFFFFFFFFFFFFFFFFFFFFFFFFFFFFFFFF AND DUP3 PUSH20 0xFFFFFFFFFFFFFFFFFFFFFFFFFFFFFFFFFFFFFFFF AND SUB PUSH2 0xE03 JUMPI PUSH1 0x40 MLOAD PUSH32 0x8C379A000000000000000000000000000000000000000000000000000000000 DUP2 MSTORE PUSH1 0x4 ADD PUSH2 0xDFA SWAP1 PUSH2 0x2BB0 JUMP JUMPDEST PUSH1 0x40 MLOAD DUP1 SWAP2 SUB SWAP1 REVERT JUMPDEST PUSH1 0x1 PUSH1 0x0 DUP4 PUSH20 0xFFFFFFFFFFFFFFFFFFFFFFFFFFFFFFFFFFFFFFFF AND PUSH20 0xFFFFFFFFFFFFFFFFFFFFFFFFFFFFFFFFFFFFFFFF AND DUP2 MSTORE PUSH1 0x20 ADD SWAP1 DUP2 MSTORE PUSH1 0x20 ADD PUSH1 0x0 KECCAK256 SLOAD SWAP1 POP SWAP2 SWAP1 POP JUMP JUMPDEST PUSH1 0x9 PUSH1 0x20 MSTORE DUP2 PUSH1 0x0 MSTORE PUSH1 0x40 PUSH1 0x0 KECCAK256 PUSH1 0x20 MSTORE DUP1 PUSH1 0x0 MSTORE PUSH1 0x40 PUSH1 0x0 KECCAK256 PUSH1 0x0 SWAP2 POP SWAP2 POP POP SLOAD DUP2 JUMP JUMPDEST PUSH2 0xE77 PUSH2 0x1F62 JUMP JUMPDEST PUSH1 0x0 PUSH1 0x40 MLOAD DUP1 PUSH1 0xE0 ADD PUSH1 0x40 MSTORE DUP1 DUP11 DUP2 MSTORE PUSH1 0x20 ADD DUP10 PUSH20 0xFFFFFFFFFFFFFFFFFFFFFFFFFFFFFFFFFFFFFFFF AND DUP2 MSTORE PUSH1 0x20 ADD DUP9 PUSH20 0xFFFFFFFFFFFFFFFFFFFFFFFFFFFFFFFFFFFFFFFF AND DUP2 MSTORE PUSH1 0x20 ADD DUP8 PUSH20 0xFFFFFFFFFFFFFFFFFFFFFFFFFFFFFFFFFFFFFFFF AND DUP2 MSTORE PUSH1 0x20 ADD DUP7 DUP2 MSTORE PUSH1 0x20 ADD DUP6 DUP2 MSTORE PUSH1 0x20 ADD DUP5 DUP2 MSTORE POP SWAP1 POP DUP1 SWAP2 POP POP SWAP8 SWAP7 POP POP POP POP POP POP POP JUMP JUMPDEST PUSH1 0x6 SLOAD DUP2 JUMP JUMPDEST PUSH2 0xF11 DUP3 PUSH1 0x6 SLOAD PUSH2 0x1B86 JUMP JUMPDEST PUSH1 0x8 PUSH1 0x0 DUP4 PUSH20 0xFFFFFFFFFFFFFFFFFFFFFFFFFFFFFFFFFFFFFFFF AND PUSH20 0xFFFFFFFFFFFFFFFFFFFFFFFFFFFFFFFFFFFFFFFF AND DUP2 MSTORE PUSH1 0x20 ADD SWAP1 DUP2 MSTORE PUSH1 0x20 ADD PUSH1 0x0 KECCAK256 PUSH1 0x6 SLOAD SWAP1 DUP1 PUSH1 0x1 DUP2 SLOAD ADD DUP1 DUP3 SSTORE DUP1 SWAP2 POP POP PUSH1 0x1 SWAP1 SUB SWAP1 PUSH1 0x0 MSTORE PUSH1 0x20 PUSH1 0x0 KECCAK256 ADD PUSH1 0x0 SWAP1 SWAP2 SWAP1 SWAP2 SWAP1 SWAP2 POP SSTORE PUSH1 0x1 PUSH1 0x8 PUSH1 0x0 DUP5 PUSH20 0xFFFFFFFFFFFFFFFFFFFFFFFFFFFFFFFFFFFFFFFF AND PUSH20 0xFFFFFFFFFFFFFFFFFFFFFFFFFFFFFFFFFFFFFFFF AND DUP2 MSTORE PUSH1 0x20 ADD SWAP1 DUP2 MSTORE PUSH1 0x20 ADD PUSH1 0x0 KECCAK256 DUP1 SLOAD SWAP1 POP PUSH2 0xFC8 SWAP2 SWAP1 PUSH2 0x2A01 JUMP JUMPDEST PUSH1 0x9 PUSH1 0x0 DUP5 PUSH20 0xFFFFFFFFFFFFFFFFFFFFFFFFFFFFFFFFFFFFFFFF AND PUSH20 0xFFFFFFFFFFFFFFFFFFFFFFFFFFFFFFFFFFFFFFFF AND DUP2 MSTORE PUSH1 0x20 ADD SWAP1 DUP2 MSTORE PUSH1 0x20 ADD PUSH1 0x0 KECCAK256 PUSH1 0x0 PUSH1 0x6 SLOAD DUP2 MSTORE PUSH1 0x20 ADD SWAP1 DUP2 MSTORE PUSH1 0x20 ADD PUSH1 0x0 KECCAK256 DUP2 SWAP1 SSTORE POP PUSH1 0x0 PUSH1 0x7 PUSH1 0x0 PUSH1 0x6 SLOAD DUP2 MSTORE PUSH1 0x20 ADD SWAP1 DUP2 MSTORE PUSH1 0x20 ADD PUSH1 0x0 KECCAK256 SWAP1 POP DUP2 PUSH1 0x0 ADD CALLDATALOAD DUP2 PUSH1 0x0 ADD DUP2 SWAP1 SSTORE POP DUP2 PUSH1 0x20 ADD PUSH1 0x20 DUP2 ADD SWAP1 PUSH2 0x1057 SWAP2 SWAP1 PUSH2 0x2262 JUMP JUMPDEST DUP2 PUSH1 0x1 ADD PUSH1 0x0 PUSH2 0x100 EXP DUP2 SLOAD DUP2 PUSH20 0xFFFFFFFFFFFFFFFFFFFFFFFFFFFFFFFFFFFFFFFF MUL NOT AND SWAP1 DUP4 PUSH20 0xFFFFFFFFFFFFFFFFFFFFFFFFFFFFFFFFFFFFFFFF AND MUL OR SWAP1 SSTORE POP DUP2 PUSH1 0x40 ADD PUSH1 0x20 DUP2 ADD SWAP1 PUSH2 0x10AC SWAP2 SWAP1 PUSH2 0x2262 JUMP JUMPDEST DUP2 PUSH1 0x2 ADD PUSH1 0x0 PUSH2 0x100 EXP DUP2 SLOAD DUP2 PUSH20 0xFFFFFFFFFFFFFFFFFFFFFFFFFFFFFFFFFFFFFFFF MUL NOT AND SWAP1 DUP4 PUSH20 0xFFFFFFFFFFFFFFFFFFFFFFFFFFFFFFFFFFFFFFFF AND MUL OR SWAP1 SSTORE POP DUP2 PUSH1 0x60 ADD PUSH1 0x20 DUP2 ADD SWAP1 PUSH2 0x1101 SWAP2 SWAP1 PUSH2 0x2262 JUMP JUMPDEST DUP2 PUSH1 0x3 ADD PUSH1 0x0 PUSH2 0x100 EXP DUP2 SLOAD DUP2 PUSH20 0xFFFFFFFFFFFFFFFFFFFFFFFFFFFFFFFFFFFFFFFF MUL NOT AND SWAP1 DUP4 PUSH20 0xFFFFFFFFFFFFFFFFFFFFFFFFFFFFFFFFFFFFFFFF AND MUL OR SWAP1 SSTORE POP DUP2 PUSH1 0x80 ADD CALLDATALOAD DUP2 PUSH1 0x4 ADD DUP2 SWAP1 SSTORE POP DUP2 PUSH1 0xA0 ADD CALLDATALOAD DUP2 PUSH1 0x5 ADD DUP2 SWAP1 SSTORE POP DUP2 PUSH1 0xC0 ADD CALLDATALOAD DUP2 PUSH1 0x6 ADD DUP2 SWAP1 SSTORE POP PUSH1 0x6 PUSH1 0x0 DUP2 SLOAD DUP1 SWAP3 SWAP2 SWAP1 PUSH2 0x117D SWAP1 PUSH2 0x29B9 JUMP JUMPDEST SWAP2 SWAP1 POP SSTORE POP POP POP POP JUMP JUMPDEST PUSH1 0x7 PUSH1 0x20 MSTORE DUP1 PUSH1 0x0 MSTORE PUSH1 0x40 PUSH1 0x0 KECCAK256 PUSH1 0x0 SWAP2 POP SWAP1 POP DUP1 PUSH1 0x0 ADD SLOAD SWAP1 DUP1 PUSH1 0x1 ADD PUSH1 0x0 SWAP1 SLOAD SWAP1 PUSH2 0x100 EXP SWAP1 DIV PUSH20 0xFFFFFFFFFFFFFFFFFFFFFFFFFFFFFFFFFFFFFFFF AND SWAP1 DUP1 PUSH1 0x2 ADD PUSH1 0x0 SWAP1 SLOAD SWAP1 PUSH2 0x100 EXP SWAP1 DIV PUSH20 0xFFFFFFFFFFFFFFFFFFFFFFFFFFFFFFFFFFFFFFFF AND SWAP1 DUP1 PUSH1 0x3 ADD PUSH1 0x0 SWAP1 SLOAD SWAP1 PUSH2 0x100 EXP SWAP1 DIV PUSH20 0xFFFFFFFFFFFFFFFFFFFFFFFFFFFFFFFFFFFFFFFF AND SWAP1 DUP1 PUSH1 0x4 ADD SLOAD SWAP1 DUP1 PUSH1 0x5 ADD SLOAD SWAP1 DUP1 PUSH1 0x6 ADD SLOAD SWAP1 POP DUP8 JUMP JUMPDEST DUP1 PUSH1 0x3 PUSH1 0x0 CALLER PUSH20 0xFFFFFFFFFFFFFFFFFFFFFFFFFFFFFFFFFFFFFFFF AND PUSH20 0xFFFFFFFFFFFFFFFFFFFFFFFFFFFFFFFFFFFFFFFF AND DUP2 MSTORE PUSH1 0x20 ADD SWAP1 DUP2 MSTORE PUSH1 0x20 ADD PUSH1 0x0 KECCAK256 PUSH1 0x0 DUP5 PUSH20 0xFFFFFFFFFFFFFFFFFFFFFFFFFFFFFFFFFFFFFFFF AND PUSH20 0xFFFFFFFFFFFFFFFFFFFFFFFFFFFFFFFFFFFFFFFF AND DUP2 MSTORE PUSH1 0x20 ADD SWAP1 DUP2 MSTORE PUSH1 0x20 ADD PUSH1 0x0 KECCAK256 PUSH1 0x0 PUSH2 0x100 EXP DUP2 SLOAD DUP2 PUSH1 0xFF MUL NOT AND SWAP1 DUP4 ISZERO ISZERO MUL OR SWAP1 SSTORE POP DUP2 PUSH20 0xFFFFFFFFFFFFFFFFFFFFFFFFFFFFFFFFFFFFFFFF AND CALLER PUSH20 0xFFFFFFFFFFFFFFFFFFFFFFFFFFFFFFFFFFFFFFFF AND PUSH32 0x17307EAB39AB6107E8899845AD3D59BD9653F200F220920489CA2B5937696C31 DUP4 PUSH1 0x40 MLOAD PUSH2 0x131A SWAP2 SWAP1 PUSH2 0x20C9 JUMP JUMPDEST PUSH1 0x40 MLOAD DUP1 SWAP2 SUB SWAP1 LOG3 POP POP JUMP JUMPDEST PUSH2 0x1331 DUP6 DUP6 DUP6 PUSH2 0x7A1 JUMP JUMPDEST PUSH1 0x0 DUP5 PUSH20 0xFFFFFFFFFFFFFFFFFFFFFFFFFFFFFFFFFFFFFFFF AND EXTCODESIZE EQ DUP1 PUSH2 0x141E JUMPI POP PUSH4 0x150B7A02 PUSH1 0xE0 SHL PUSH28 0xFFFFFFFFFFFFFFFFFFFFFFFFFFFFFFFFFFFFFFFFFFFFFFFFFFFFFFFF NOT AND DUP5 PUSH20 0xFFFFFFFFFFFFFFFFFFFFFFFFFFFFFFFFFFFFFFFF AND PUSH4 0x150B7A02 CALLER DUP9 DUP8 DUP8 DUP8 PUSH1 0x40 MLOAD DUP7 PUSH4 0xFFFFFFFF AND PUSH1 0xE0 SHL DUP2 MSTORE PUSH1 0x4 ADD PUSH2 0x13BA SWAP6 SWAP5 SWAP4 SWAP3 SWAP2 SWAP1 PUSH2 0x2C1D JUMP JUMPDEST PUSH1 0x20 PUSH1 0x40 MLOAD DUP1 DUP4 SUB DUP2 PUSH1 0x0 DUP8 GAS CALL ISZERO DUP1 ISZERO PUSH2 0x13D9 JUMPI RETURNDATASIZE PUSH1 0x0 DUP1 RETURNDATACOPY RETURNDATASIZE PUSH1 0x0 REVERT JUMPDEST POP POP POP POP PUSH1 0x40 MLOAD RETURNDATASIZE PUSH1 0x1F NOT PUSH1 0x1F DUP3 ADD AND DUP3 ADD DUP1 PUSH1 0x40 MSTORE POP DUP2 ADD SWAP1 PUSH2 0x13FD SWAP2 SWAP1 PUSH2 0x2ACB JUMP JUMPDEST PUSH28 0xFFFFFFFFFFFFFFFFFFFFFFFFFFFFFFFFFFFFFFFFFFFFFFFFFFFFFFFF NOT AND EQ JUMPDEST PUSH2 0x145D JUMPI PUSH1 0x40 MLOAD PUSH32 0x8C379A000000000000000000000000000000000000000000000000000000000 DUP2 MSTORE PUSH1 0x4 ADD PUSH2 0x1454 SWAP1 PUSH2 0x2B44 JUMP JUMPDEST PUSH1 0x40 MLOAD DUP1 SWAP2 SUB SWAP1 REVERT JUMPDEST POP POP POP POP POP JUMP JUMPDEST PUSH1 0x60 PUSH1 0x8 PUSH1 0x0 DUP4 PUSH20 0xFFFFFFFFFFFFFFFFFFFFFFFFFFFFFFFFFFFFFFFF AND PUSH20 0xFFFFFFFFFFFFFFFFFFFFFFFFFFFFFFFFFFFFFFFF AND DUP2 MSTORE PUSH1 0x20 ADD SWAP1 DUP2 MSTORE PUSH1 0x20 ADD PUSH1 0x0 KECCAK256 DUP1 SLOAD DUP1 PUSH1 0x20 MUL PUSH1 0x20 ADD PUSH1 0x40 MLOAD SWAP1 DUP2 ADD PUSH1 0x40 MSTORE DUP1 SWAP3 SWAP2 SWAP1 DUP2 DUP2 MSTORE PUSH1 0x20 ADD DUP3 DUP1 SLOAD DUP1 ISZERO PUSH2 0x14EF JUMPI PUSH1 0x20 MUL DUP3 ADD SWAP2 SWAP1 PUSH1 0x0 MSTORE PUSH1 0x20 PUSH1 0x0 KECCAK256 SWAP1 JUMPDEST DUP2 SLOAD DUP2 MSTORE PUSH1 0x20 ADD SWAP1 PUSH1 0x1 ADD SWAP1 DUP1 DUP4 GT PUSH2 0x14DB JUMPI JUMPDEST POP POP POP POP POP SWAP1 POP SWAP2 SWAP1 POP JUMP JUMPDEST PUSH1 0x8 PUSH1 0x20 MSTORE DUP2 PUSH1 0x0 MSTORE PUSH1 0x40 PUSH1 0x0 KECCAK256 DUP2 DUP2 SLOAD DUP2 LT PUSH2 0x1517 JUMPI PUSH1 0x0 DUP1 REVERT JUMPDEST SWAP1 PUSH1 0x0 MSTORE PUSH1 0x20 PUSH1 0x0 KECCAK256 ADD PUSH1 0x0 SWAP2 POP SWAP2 POP POP SLOAD DUP2 JUMP JUMPDEST PUSH1 0x3 PUSH1 0x20 MSTORE DUP2 PUSH1 0x0 MSTORE PUSH1 0x40 PUSH1 0x0 KECCAK256 PUSH1 0x20 MSTORE DUP1 PUSH1 0x0 MSTORE PUSH1 0x40 PUSH1 0x0 KECCAK256 PUSH1 0x0 SWAP2 POP SWAP2 POP SWAP1 SLOAD SWAP1 PUSH2 0x100 EXP SWAP1 DIV PUSH1 0xFF AND DUP2 JUMP JUMPDEST PUSH1 0x0 DUP1 DUP4 DUP2 MSTORE PUSH1 0x20 ADD SWAP1 DUP2 MSTORE PUSH1 0x20 ADD PUSH1 0x0 KECCAK256 PUSH1 0x0 SWAP1 SLOAD SWAP1 PUSH2 0x100 EXP SWAP1 DIV PUSH20 0xFFFFFFFFFFFFFFFFFFFFFFFFFFFFFFFFFFFFFFFF AND PUSH20 0xFFFFFFFFFFFFFFFFFFFFFFFFFFFFFFFFFFFFFFFF AND DUP2 PUSH20 0xFFFFFFFFFFFFFFFFFFFFFFFFFFFFFFFFFFFFFFFF AND EQ PUSH2 0x15FB JUMPI PUSH1 0x40 MLOAD PUSH32 0x8C379A000000000000000000000000000000000000000000000000000000000 DUP2 MSTORE PUSH1 0x4 ADD PUSH2 0x15F2 SWAP1 PUSH2 0x2CB7 JUMP JUMPDEST PUSH1 0x40 MLOAD DUP1 SWAP2 SUB SWAP1 REVERT JUMPDEST PUSH2 0x1604 DUP3 PUSH2 0x1D9C JUMP JUMPDEST PUSH2 0x160E DUP3 DUP3 PUSH2 0x17F1 JUMP JUMPDEST PUSH1 0x7 PUSH1 0x0 DUP4 DUP2 MSTORE PUSH1 0x20 ADD SWAP1 DUP2 MSTORE PUSH1 0x20 ADD PUSH1 0x0 KECCAK256 PUSH1 0x0 DUP1 DUP3 ADD PUSH1 0x0 SWAP1 SSTORE PUSH1 0x1 DUP3 ADD PUSH1 0x0 PUSH2 0x100 EXP DUP2 SLOAD SWAP1 PUSH20 0xFFFFFFFFFFFFFFFFFFFFFFFFFFFFFFFFFFFFFFFF MUL NOT AND SWAP1 SSTORE PUSH1 0x2 DUP3 ADD PUSH1 0x0 PUSH2 0x100 EXP DUP2 SLOAD SWAP1 PUSH20 0xFFFFFFFFFFFFFFFFFFFFFFFFFFFFFFFFFFFFFFFF MUL NOT AND SWAP1 SSTORE PUSH1 0x3 DUP3 ADD PUSH1 0x0 PUSH2 0x100 EXP DUP2 SLOAD SWAP1 PUSH20 0xFFFFFFFFFFFFFFFFFFFFFFFFFFFFFFFFFFFFFFFF MUL NOT AND SWAP1 SSTORE PUSH1 0x4 DUP3 ADD PUSH1 0x0 SWAP1 SSTORE PUSH1 0x5 DUP3 ADD PUSH1 0x0 SWAP1 SSTORE PUSH1 0x6 DUP3 ADD PUSH1 0x0 SWAP1 SSTORE POP POP POP POP JUMP JUMPDEST PUSH1 0x0 DUP4 PUSH20 0xFFFFFFFFFFFFFFFFFFFFFFFFFFFFFFFFFFFFFFFF AND DUP4 PUSH20 0xFFFFFFFFFFFFFFFFFFFFFFFFFFFFFFFFFFFFFFFF AND EQ DUP1 PUSH2 0x177F JUMPI POP PUSH1 0x3 PUSH1 0x0 DUP6 PUSH20 0xFFFFFFFFFFFFFFFFFFFFFFFFFFFFFFFFFFFFFFFF AND PUSH20 0xFFFFFFFFFFFFFFFFFFFFFFFFFFFFFFFFFFFFFFFF AND DUP2 MSTORE PUSH1 0x20 ADD SWAP1 DUP2 MSTORE PUSH1 0x20 ADD PUSH1 0x0 KECCAK256 PUSH1 0x0 DUP5 PUSH20 0xFFFFFFFFFFFFFFFFFFFFFFFFFFFFFFFFFFFFFFFF AND PUSH20 0xFFFFFFFFFFFFFFFFFFFFFFFFFFFFFFFFFFFFFFFF AND DUP2 MSTORE PUSH1 0x20 ADD SWAP1 DUP2 MSTORE PUSH1 0x20 ADD PUSH1 0x0 KECCAK256 PUSH1 0x0 SWAP1 SLOAD SWAP1 PUSH2 0x100 EXP SWAP1 DIV PUSH1 0xFF AND JUMPDEST DUP1 PUSH2 0x17E8 JUMPI POP PUSH1 0x2 PUSH1 0x0 DUP4 DUP2 MSTORE PUSH1 0x20 ADD SWAP1 DUP2 MSTORE PUSH1 0x20 ADD PUSH1 0x0 KECCAK256 PUSH1 0x0 SWAP1 SLOAD SWAP1 PUSH2 0x100 EXP SWAP1 DIV PUSH20 0xFFFFFFFFFFFFFFFFFFFFFFFFFFFFFFFFFFFFFFFF AND PUSH20 0xFFFFFFFFFFFFFFFFFFFFFFFFFFFFFFFFFFFFFFFF AND DUP4 PUSH20 0xFFFFFFFFFFFFFFFFFFFFFFFFFFFFFFFFFFFFFFFF AND EQ JUMPDEST SWAP1 POP SWAP4 SWAP3 POP POP POP JUMP JUMPDEST PUSH1 0x0 PUSH1 0x9 PUSH1 0x0 DUP4 PUSH20 0xFFFFFFFFFFFFFFFFFFFFFFFFFFFFFFFFFFFFFFFF AND PUSH20 0xFFFFFFFFFFFFFFFFFFFFFFFFFFFFFFFFFFFFFFFF AND DUP2 MSTORE PUSH1 0x20 ADD SWAP1 DUP2 MSTORE PUSH1 0x20 ADD PUSH1 0x0 KECCAK256 PUSH1 0x0 DUP5 DUP2 MSTORE PUSH1 0x20 ADD SWAP1 DUP2 MSTORE PUSH1 0x20 ADD PUSH1 0x0 KECCAK256 SLOAD SWAP1 POP PUSH1 0x0 PUSH1 0x8 PUSH1 0x0 DUP5 PUSH20 0xFFFFFFFFFFFFFFFFFFFFFFFFFFFFFFFFFFFFFFFF AND PUSH20 0xFFFFFFFFFFFFFFFFFFFFFFFFFFFFFFFFFFFFFFFF AND DUP2 MSTORE PUSH1 0x20 ADD SWAP1 DUP2 MSTORE PUSH1 0x20 ADD PUSH1 0x0 KECCAK256 DUP1 SLOAD SWAP1 POP SWAP1 POP PUSH1 0x1 DUP2 SUB PUSH2 0x193B JUMPI PUSH1 0x8 PUSH1 0x0 DUP5 PUSH20 0xFFFFFFFFFFFFFFFFFFFFFFFFFFFFFFFFFFFFFFFF AND PUSH20 0xFFFFFFFFFFFFFFFFFFFFFFFFFFFFFFFFFFFFFFFF AND DUP2 MSTORE PUSH1 0x20 ADD SWAP1 DUP2 MSTORE PUSH1 0x20 ADD PUSH1 0x0 KECCAK256 PUSH1 0x0 PUSH2 0x18E0 SWAP2 SWAP1 PUSH2 0x1FE1 JUMP JUMPDEST PUSH1 0x0 PUSH1 0x9 PUSH1 0x0 DUP6 PUSH20 0xFFFFFFFFFFFFFFFFFFFFFFFFFFFFFFFFFFFFFFFF AND PUSH20 0xFFFFFFFFFFFFFFFFFFFFFFFFFFFFFFFFFFFFFFFF AND DUP2 MSTORE PUSH1 0x20 ADD SWAP1 DUP2 MSTORE PUSH1 0x20 ADD PUSH1 0x0 KECCAK256 PUSH1 0x0 DUP7 DUP2 MSTORE PUSH1 0x20 ADD SWAP1 DUP2 MSTORE PUSH1 0x20 ADD PUSH1 0x0 KECCAK256 DUP2 SWAP1 SSTORE POP PUSH2 0x1B80 JUMP JUMPDEST PUSH1 0x0 PUSH1 0x8 PUSH1 0x0 DUP6 PUSH20 0xFFFFFFFFFFFFFFFFFFFFFFFFFFFFFFFFFFFFFFFF AND PUSH20 0xFFFFFFFFFFFFFFFFFFFFFFFFFFFFFFFFFFFFFFFF AND DUP2 MSTORE PUSH1 0x20 ADD SWAP1 DUP2 MSTORE PUSH1 0x20 ADD PUSH1 0x0 KECCAK256 PUSH1 0x1 DUP4 PUSH2 0x1989 SWAP2 SWAP1 PUSH2 0x2A01 JUMP JUMPDEST DUP2 SLOAD DUP2 LT PUSH2 0x199A JUMPI PUSH2 0x1999 PUSH2 0x2CD7 JUMP JUMPDEST JUMPDEST SWAP1 PUSH1 0x0 MSTORE PUSH1 0x20 PUSH1 0x0 KECCAK256 ADD SLOAD SWAP1 POP PUSH1 0x8 PUSH1 0x0 DUP6 PUSH20 0xFFFFFFFFFFFFFFFFFFFFFFFFFFFFFFFFFFFFFFFF AND PUSH20 0xFFFFFFFFFFFFFFFFFFFFFFFFFFFFFFFFFFFFFFFF AND DUP2 MSTORE PUSH1 0x20 ADD SWAP1 DUP2 MSTORE PUSH1 0x20 ADD PUSH1 0x0 KECCAK256 PUSH1 0x1 DUP4 PUSH2 0x19F3 SWAP2 SWAP1 PUSH2 0x2A01 JUMP JUMPDEST DUP2 SLOAD DUP2 LT PUSH2 0x1A04 JUMPI PUSH2 0x1A03 PUSH2 0x2CD7 JUMP JUMPDEST JUMPDEST SWAP1 PUSH1 0x0 MSTORE PUSH1 0x20 PUSH1 0x0 KECCAK256 ADD SLOAD PUSH1 0x8 PUSH1 0x0 DUP7 PUSH20 0xFFFFFFFFFFFFFFFFFFFFFFFFFFFFFFFFFFFFFFFF AND PUSH20 0xFFFFFFFFFFFFFFFFFFFFFFFFFFFFFFFFFFFFFFFF AND DUP2 MSTORE PUSH1 0x20 ADD SWAP1 DUP2 MSTORE PUSH1 0x20 ADD PUSH1 0x0 KECCAK256 DUP5 DUP2 SLOAD DUP2 LT PUSH2 0x1A60 JUMPI PUSH2 0x1A5F PUSH2 0x2CD7 JUMP JUMPDEST JUMPDEST SWAP1 PUSH1 0x0 MSTORE PUSH1 0x20 PUSH1 0x0 KECCAK256 ADD DUP2 SWAP1 SSTORE POP PUSH1 0x8 PUSH1 0x0 DUP6 PUSH20 0xFFFFFFFFFFFFFFFFFFFFFFFFFFFFFFFFFFFFFFFF AND PUSH20 0xFFFFFFFFFFFFFFFFFFFFFFFFFFFFFFFFFFFFFFFF AND DUP2 MSTORE PUSH1 0x20 ADD SWAP1 DUP2 MSTORE PUSH1 0x20 ADD PUSH1 0x0 KECCAK256 DUP1 SLOAD DUP1 PUSH2 0x1ABD JUMPI PUSH2 0x1ABC PUSH2 0x2D06 JUMP JUMPDEST JUMPDEST PUSH1 0x1 SWAP1 SUB DUP2 DUP2 SWAP1 PUSH1 0x0 MSTORE PUSH1 0x20 PUSH1 0x0 KECCAK256 ADD PUSH1 0x0 SWAP1 SSTORE SWAP1 SSTORE DUP3 PUSH1 0x9 PUSH1 0x0 DUP7 PUSH20 0xFFFFFFFFFFFFFFFFFFFFFFFFFFFFFFFFFFFFFFFF AND PUSH20 0xFFFFFFFFFFFFFFFFFFFFFFFFFFFFFFFFFFFFFFFF AND DUP2 MSTORE PUSH1 0x20 ADD SWAP1 DUP2 MSTORE PUSH1 0x20 ADD PUSH1 0x0 KECCAK256 PUSH1 0x0 DUP4 DUP2 MSTORE PUSH1 0x20 ADD SWAP1 DUP2 MSTORE PUSH1 0x20 ADD PUSH1 0x0 KECCAK256 DUP2 SWAP1 SSTORE POP PUSH1 0x0 PUSH1 0x9 PUSH1 0x0 DUP7 PUSH20 0xFFFFFFFFFFFFFFFFFFFFFFFFFFFFFFFFFFFFFFFF AND PUSH20 0xFFFFFFFFFFFFFFFFFFFFFFFFFFFFFFFFFFFFFFFF AND DUP2 MSTORE PUSH1 0x20 ADD SWAP1 DUP2 MSTORE PUSH1 0x20 ADD PUSH1 0x0 KECCAK256 PUSH1 0x0 DUP8 DUP2 MSTORE PUSH1 0x20 ADD SWAP1 DUP2 MSTORE PUSH1 0x20 ADD PUSH1 0x0 KECCAK256 DUP2 SWAP1 SSTORE POP POP JUMPDEST POP POP POP POP JUMP JUMPDEST PUSH1 0x0 PUSH20 0xFFFFFFFFFFFFFFFFFFFFFFFFFFFFFFFFFFFFFFFF AND DUP3 PUSH20 0xFFFFFFFFFFFFFFFFFFFFFFFFFFFFFFFFFFFFFFFF AND SUB PUSH2 0x1BF5 JUMPI PUSH1 0x40 MLOAD PUSH32 0x8C379A000000000000000000000000000000000000000000000000000000000 DUP2 MSTORE PUSH1 0x4 ADD PUSH2 0x1BEC SWAP1 PUSH2 0x2941 JUMP JUMPDEST PUSH1 0x40 MLOAD DUP1 SWAP2 SUB SWAP1 REVERT JUMPDEST PUSH1 0x0 PUSH20 0xFFFFFFFFFFFFFFFFFFFFFFFFFFFFFFFFFFFFFFFF AND PUSH1 0x0 DUP1 DUP4 DUP2 MSTORE PUSH1 0x20 ADD SWAP1 DUP2 MSTORE PUSH1 0x20 ADD PUSH1 0x0 KECCAK256 PUSH1 0x0 SWAP1 SLOAD SWAP1 PUSH2 0x100 EXP SWAP1 DIV PUSH20 0xFFFFFFFFFFFFFFFFFFFFFFFFFFFFFFFFFFFFFFFF AND PUSH20 0xFFFFFFFFFFFFFFFFFFFFFFFFFFFFFFFFFFFFFFFF AND EQ PUSH2 0x1C96 JUMPI PUSH1 0x40 MLOAD PUSH32 0x8C379A000000000000000000000000000000000000000000000000000000000 DUP2 MSTORE PUSH1 0x4 ADD PUSH2 0x1C8D SWAP1 PUSH2 0x2D81 JUMP JUMPDEST PUSH1 0x40 MLOAD DUP1 SWAP2 SUB SWAP1 REVERT JUMPDEST PUSH1 0x1 PUSH1 0x0 DUP4 PUSH20 0xFFFFFFFFFFFFFFFFFFFFFFFFFFFFFFFFFFFFFFFF AND PUSH20 0xFFFFFFFFFFFFFFFFFFFFFFFFFFFFFFFFFFFFFFFF AND DUP2 MSTORE PUSH1 0x20 ADD SWAP1 DUP2 MSTORE PUSH1 0x20 ADD PUSH1 0x0 KECCAK256 PUSH1 0x0 DUP2 SLOAD DUP1 SWAP3 SWAP2 SWAP1 PUSH2 0x1CE6 SWAP1 PUSH2 0x29B9 JUMP JUMPDEST SWAP2 SWAP1 POP SSTORE POP DUP2 PUSH1 0x0 DUP1 DUP4 DUP2 MSTORE PUSH1 0x20 ADD SWAP1 DUP2 MSTORE PUSH1 0x20 ADD PUSH1 0x0 KECCAK256 PUSH1 0x0 PUSH2 0x100 EXP DUP2 SLOAD DUP2 PUSH20 0xFFFFFFFFFFFFFFFFFFFFFFFFFFFFFFFFFFFFFFFF MUL NOT AND SWAP1 DUP4 PUSH20 0xFFFFFFFFFFFFFFFFFFFFFFFFFFFFFFFFFFFFFFFF AND MUL OR SWAP1 SSTORE POP DUP1 DUP3 PUSH20 0xFFFFFFFFFFFFFFFFFFFFFFFFFFFFFFFFFFFFFFFF AND PUSH1 0x0 PUSH20 0xFFFFFFFFFFFFFFFFFFFFFFFFFFFFFFFFFFFFFFFF AND PUSH32 0xDDF252AD1BE2C89B69C2B068FC378DAA952BA7F163C4A11628F55A4DF523B3EF PUSH1 0x40 MLOAD PUSH1 0x40 MLOAD DUP1 SWAP2 SUB SWAP1 LOG4 POP POP JUMP JUMPDEST PUSH1 0x0 DUP1 PUSH1 0x0 DUP4 DUP2 MSTORE PUSH1 0x20 ADD SWAP1 DUP2 MSTORE PUSH1 0x20 ADD PUSH1 0x0 KECCAK256 PUSH1 0x0 SWAP1 SLOAD SWAP1 PUSH2 0x100 EXP SWAP1 DIV PUSH20 0xFFFFFFFFFFFFFFFFFFFFFFFFFFFFFFFFFFFFFFFF AND SWAP1 POP PUSH1 0x0 PUSH20 0xFFFFFFFFFFFFFFFFFFFFFFFFFFFFFFFFFFFFFFFF AND DUP2 PUSH20 0xFFFFFFFFFFFFFFFFFFFFFFFFFFFFFFFFFFFFFFFF AND SUB PUSH2 0x1E42 JUMPI PUSH1 0x40 MLOAD PUSH32 0x8C379A000000000000000000000000000000000000000000000000000000000 DUP2 MSTORE PUSH1 0x4 ADD PUSH2 0x1E39 SWAP1 PUSH2 0x2DED JUMP JUMPDEST PUSH1 0x40 MLOAD DUP1 SWAP2 SUB SWAP1 REVERT JUMPDEST PUSH1 0x1 PUSH1 0x0 DUP3 PUSH20 0xFFFFFFFFFFFFFFFFFFFFFFFFFFFFFFFFFFFFFFFF AND PUSH20 0xFFFFFFFFFFFFFFFFFFFFFFFFFFFFFFFFFFFFFFFF AND DUP2 MSTORE PUSH1 0x20 ADD SWAP1 DUP2 MSTORE PUSH1 0x20 ADD PUSH1 0x0 KECCAK256 PUSH1 0x0 DUP2 SLOAD DUP1 SWAP3 SWAP2 SWAP1 PUSH2 0x1E92 SWAP1 PUSH2 0x2990 JUMP JUMPDEST SWAP2 SWAP1 POP SSTORE POP PUSH1 0x0 DUP1 DUP4 DUP2 MSTORE PUSH1 0x20 ADD SWAP1 DUP2 MSTORE PUSH1 0x20 ADD PUSH1 0x0 KECCAK256 PUSH1 0x0 PUSH2 0x100 EXP DUP2 SLOAD SWAP1 PUSH20 0xFFFFFFFFFFFFFFFFFFFFFFFFFFFFFFFFFFFFFFFF MUL NOT AND SWAP1 SSTORE PUSH1 0x2 PUSH1 0x0 DUP4 DUP2 MSTORE PUSH1 0x20 ADD SWAP1 DUP2 MSTORE PUSH1 0x20 ADD PUSH1 0x0 KECCAK256 PUSH1 0x0 PUSH2 0x100 EXP DUP2 SLOAD SWAP1 PUSH20 0xFFFFFFFFFFFFFFFFFFFFFFFFFFFFFFFFFFFFFFFF MUL NOT AND SWAP1 SSTORE DUP2 PUSH1 0x0 PUSH20 0xFFFFFFFFFFFFFFFFFFFFFFFFFFFFFFFFFFFFFFFF AND DUP3 PUSH20 0xFFFFFFFFFFFFFFFFFFFFFFFFFFFFFFFFFFFFFFFF AND PUSH32 0xDDF252AD1BE2C89B69C2B068FC378DAA952BA7F163C4A11628F55A4DF523B3EF PUSH1 0x40 MLOAD PUSH1 0x40 MLOAD DUP1 SWAP2 SUB SWAP1 LOG4 POP POP JUMP JUMPDEST PUSH1 0x40 MLOAD DUP1 PUSH1 0xE0 ADD PUSH1 0x40 MSTORE DUP1 PUSH1 0x0 DUP2 MSTORE PUSH1 0x20 ADD PUSH1 0x0 PUSH20 0xFFFFFFFFFFFFFFFFFFFFFFFFFFFFFFFFFFFFFFFF AND DUP2 MSTORE PUSH1 0x20 ADD PUSH1 0x0 PUSH20 0xFFFFFFFFFFFFFFFFFFFFFFFFFFFFFFFFFFFFFFFF AND DUP2 MSTORE PUSH1 0x20 ADD PUSH1 0x0 PUSH20 0xFFFFFFFFFFFFFFFFFFFFFFFFFFFFFFFFFFFFFFFF AND DUP2 MSTORE PUSH1 0x20 ADD PUSH1 0x0 DUP2 MSTORE PUSH1 0x20 ADD PUSH1 0x0 DUP2 MSTORE PUSH1 0x20 ADD PUSH1 0x0 DUP2 MSTORE POP SWAP1 JUMP JUMPDEST POP DUP1 SLOAD PUSH1 0x0 DUP3 SSTORE SWAP1 PUSH1 0x0 MSTORE PUSH1 0x20 PUSH1 0x0 KECCAK256 SWAP1 DUP2 ADD SWAP1 PUSH2 0x1FFF SWAP2 SWAP1 PUSH2 0x2002 JUMP JUMPDEST POP JUMP JUMPDEST JUMPDEST DUP1 DUP3 GT ISZERO PUSH2 0x201B JUMPI PUSH1 0x0 DUP2 PUSH1 0x0 SWAP1 SSTORE POP PUSH1 0x1 ADD PUSH2 0x2003 JUMP JUMPDEST POP SWAP1 JUMP JUMPDEST PUSH1 0x0 DUP1 REVERT JUMPDEST PUSH1 0x0 DUP1 REVERT JUMPDEST PUSH1 0x0 PUSH32 0xFFFFFFFF00000000000000000000000000000000000000000000000000000000 DUP3 AND SWAP1 POP SWAP2 SWAP1 POP JUMP JUMPDEST PUSH2 0x205E DUP2 PUSH2 0x2029 JUMP JUMPDEST DUP2 EQ PUSH2 0x2069 JUMPI PUSH1 0x0 DUP1 REVERT JUMPDEST POP JUMP JUMPDEST PUSH1 0x0 DUP2 CALLDATALOAD SWAP1 POP PUSH2 0x207B DUP2 PUSH2 0x2055 JUMP JUMPDEST SWAP3 SWAP2 POP POP JUMP JUMPDEST PUSH1 0x0 PUSH1 0x20 DUP3 DUP5 SUB SLT ISZERO PUSH2 0x2097 JUMPI PUSH2 0x2096 PUSH2 0x201F JUMP JUMPDEST JUMPDEST PUSH1 0x0 PUSH2 0x20A5 DUP5 DUP3 DUP6 ADD PUSH2 0x206C JUMP JUMPDEST SWAP2 POP POP SWAP3 SWAP2 POP POP JUMP JUMPDEST PUSH1 0x0 DUP2 ISZERO ISZERO SWAP1 POP SWAP2 SWAP1 POP JUMP JUMPDEST PUSH2 0x20C3 DUP2 PUSH2 0x20AE JUMP JUMPDEST DUP3 MSTORE POP POP JUMP JUMPDEST PUSH1 0x0 PUSH1 0x20 DUP3 ADD SWAP1 POP PUSH2 0x20DE PUSH1 0x0 DUP4 ADD DUP5 PUSH2 0x20BA JUMP JUMPDEST SWAP3 SWAP2 POP POP JUMP JUMPDEST PUSH1 0x0 DUP2 SWAP1 POP SWAP2 SWAP1 POP JUMP JUMPDEST PUSH2 0x20F7 DUP2 PUSH2 0x20E4 JUMP JUMPDEST DUP2 EQ PUSH2 0x2102 JUMPI PUSH1 0x0 DUP1 REVERT JUMPDEST POP JUMP JUMPDEST PUSH1 0x0 DUP2 CALLDATALOAD SWAP1 POP PUSH2 0x2114 DUP2 PUSH2 0x20EE JUMP JUMPDEST SWAP3 SWAP2 POP POP JUMP JUMPDEST PUSH1 0x0 PUSH1 0x20 DUP3 DUP5 SUB SLT ISZERO PUSH2 0x2130 JUMPI PUSH2 0x212F PUSH2 0x201F JUMP JUMPDEST JUMPDEST PUSH1 0x0 PUSH2 0x213E DUP5 DUP3 DUP6 ADD PUSH2 0x2105 JUMP JUMPDEST SWAP2 POP POP SWAP3 SWAP2 POP POP JUMP JUMPDEST PUSH1 0x0 PUSH20 0xFFFFFFFFFFFFFFFFFFFFFFFFFFFFFFFFFFFFFFFF DUP3 AND SWAP1 POP SWAP2 SWAP1 POP JUMP JUMPDEST PUSH1 0x0 PUSH2 0x2172 DUP3 PUSH2 0x2147 JUMP JUMPDEST SWAP1 POP SWAP2 SWAP1 POP JUMP JUMPDEST PUSH2 0x2182 DUP2 PUSH2 0x2167 JUMP JUMPDEST DUP3 MSTORE POP POP JUMP JUMPDEST PUSH1 0x0 PUSH1 0x20 DUP3 ADD SWAP1 POP PUSH2 0x219D PUSH1 0x0 DUP4 ADD DUP5 PUSH2 0x2179 JUMP JUMPDEST SWAP3 SWAP2 POP POP JUMP JUMPDEST PUSH2 0x21AC DUP2 PUSH2 0x2167 JUMP JUMPDEST DUP2 EQ PUSH2 0x21B7 JUMPI PUSH1 0x0 DUP1 REVERT JUMPDEST POP JUMP JUMPDEST PUSH1 0x0 DUP2 CALLDATALOAD SWAP1 POP PUSH2 0x21C9 DUP2 PUSH2 0x21A3 JUMP JUMPDEST SWAP3 SWAP2 POP POP JUMP JUMPDEST PUSH1 0x0 DUP1 PUSH1 0x40 DUP4 DUP6 SUB SLT ISZERO PUSH2 0x21E6 JUMPI PUSH2 0x21E5 PUSH2 0x201F JUMP JUMPDEST JUMPDEST PUSH1 0x0 PUSH2 0x21F4 DUP6 DUP3 DUP7 ADD PUSH2 0x21BA JUMP JUMPDEST SWAP3 POP POP PUSH1 0x20 PUSH2 0x2205 DUP6 DUP3 DUP7 ADD PUSH2 0x2105 JUMP JUMPDEST SWAP2 POP POP SWAP3 POP SWAP3 SWAP1 POP JUMP JUMPDEST PUSH1 0x0 DUP1 PUSH1 0x0 PUSH1 0x60 DUP5 DUP7 SUB SLT ISZERO PUSH2 0x2228 JUMPI PUSH2 0x2227 PUSH2 0x201F JUMP JUMPDEST JUMPDEST PUSH1 0x0 PUSH2 0x2236 DUP7 DUP3 DUP8 ADD PUSH2 0x21BA JUMP JUMPDEST SWAP4 POP POP PUSH1 0x20 PUSH2 0x2247 DUP7 DUP3 DUP8 ADD PUSH2 0x21BA JUMP JUMPDEST SWAP3 POP POP PUSH1 0x40 PUSH2 0x2258 DUP7 DUP3 DUP8 ADD PUSH2 0x2105 JUMP JUMPDEST SWAP2 POP POP SWAP3 POP SWAP3 POP SWAP3 JUMP JUMPDEST PUSH1 0x0 PUSH1 0x20 DUP3 DUP5 SUB SLT ISZERO PUSH2 0x2278 JUMPI PUSH2 0x2277 PUSH2 0x201F JUMP JUMPDEST JUMPDEST PUSH1 0x0 PUSH2 0x2286 DUP5 DUP3 DUP6 ADD PUSH2 0x21BA JUMP JUMPDEST SWAP2 POP POP SWAP3 SWAP2 POP POP JUMP JUMPDEST PUSH2 0x2298 DUP2 PUSH2 0x20E4 JUMP JUMPDEST DUP3 MSTORE POP POP JUMP JUMPDEST PUSH1 0x0 PUSH1 0x20 DUP3 ADD SWAP1 POP PUSH2 0x22B3 PUSH1 0x0 DUP4 ADD DUP5 PUSH2 0x228F JUMP JUMPDEST SWAP3 SWAP2 POP POP JUMP JUMPDEST PUSH1 0x0 DUP1 PUSH1 0x0 DUP1 PUSH1 0x0 DUP1 PUSH1 0x0 PUSH1 0xE0 DUP9 DUP11 SUB SLT ISZERO PUSH2 0x22D8 JUMPI PUSH2 0x22D7 PUSH2 0x201F JUMP JUMPDEST JUMPDEST PUSH1 0x0 PUSH2 0x22E6 DUP11 DUP3 DUP12 ADD PUSH2 0x2105 JUMP JUMPDEST SWAP8 POP POP PUSH1 0x20 PUSH2 0x22F7 DUP11 DUP3 DUP12 ADD PUSH2 0x21BA JUMP JUMPDEST SWAP7 POP POP PUSH1 0x40 PUSH2 0x2308 DUP11 DUP3 DUP12 ADD PUSH2 0x21BA JUMP JUMPDEST SWAP6 POP POP PUSH1 0x60 PUSH2 0x2319 DUP11 DUP3 DUP12 ADD PUSH2 0x21BA JUMP JUMPDEST SWAP5 POP POP PUSH1 0x80 PUSH2 0x232A DUP11 DUP3 DUP12 ADD PUSH2 0x2105 JUMP JUMPDEST SWAP4 POP POP PUSH1 0xA0 PUSH2 0x233B DUP11 DUP3 DUP12 ADD PUSH2 0x2105 JUMP JUMPDEST SWAP3 POP POP PUSH1 0xC0 PUSH2 0x234C DUP11 DUP3 DUP12 ADD PUSH2 0x2105 JUMP JUMPDEST SWAP2 POP POP SWAP3 SWAP6 SWAP9 SWAP2 SWAP5 SWAP8 POP SWAP3 SWAP6 POP JUMP JUMPDEST PUSH2 0x2364 DUP2 PUSH2 0x20E4 JUMP JUMPDEST DUP3 MSTORE POP POP JUMP JUMPDEST PUSH2 0x2373 DUP2 PUSH2 0x2167 JUMP JUMPDEST DUP3 MSTORE POP POP JUMP JUMPDEST PUSH1 0xE0 DUP3 ADD PUSH1 0x0 DUP3 ADD MLOAD PUSH2 0x238F PUSH1 0x0 DUP6 ADD DUP3 PUSH2 0x235B JUMP JUMPDEST POP PUSH1 0x20 DUP3 ADD MLOAD PUSH2 0x23A2 PUSH1 0x20 DUP6 ADD DUP3 PUSH2 0x236A JUMP JUMPDEST POP PUSH1 0x40 DUP3 ADD MLOAD PUSH2 0x23B5 PUSH1 0x40 DUP6 ADD DUP3 PUSH2 0x236A JUMP JUMPDEST POP PUSH1 0x60 DUP3 ADD MLOAD PUSH2 0x23C8 PUSH1 0x60 DUP6 ADD DUP3 PUSH2 0x236A JUMP JUMPDEST POP PUSH1 0x80 DUP3 ADD MLOAD PUSH2 0x23DB PUSH1 0x80 DUP6 ADD DUP3 PUSH2 0x235B JUMP JUMPDEST POP PUSH1 0xA0 DUP3 ADD MLOAD PUSH2 0x23EE PUSH1 0xA0 DUP6 ADD DUP3 PUSH2 0x235B JUMP JUMPDEST POP PUSH1 0xC0 DUP3 ADD MLOAD PUSH2 0x2401 PUSH1 0xC0 DUP6 ADD DUP3 PUSH2 0x235B JUMP JUMPDEST POP POP POP POP JUMP JUMPDEST PUSH1 0x0 PUSH1 0xE0 DUP3 ADD SWAP1 POP PUSH2 0x241C PUSH1 0x0 DUP4 ADD DUP5 PUSH2 0x2379 JUMP JUMPDEST SWAP3 SWAP2 POP POP JUMP JUMPDEST PUSH1 0x0 DUP1 REVERT JUMPDEST PUSH1 0x0 PUSH1 0xE0 DUP3 DUP5 SUB SLT ISZERO PUSH2 0x243D JUMPI PUSH2 0x243C PUSH2 0x2422 JUMP JUMPDEST JUMPDEST DUP2 SWAP1 POP SWAP3 SWAP2 POP POP JUMP JUMPDEST PUSH1 0x0 DUP1 PUSH2 0x100 DUP4 DUP6 SUB SLT ISZERO PUSH2 0x245E JUMPI PUSH2 0x245D PUSH2 0x201F JUMP JUMPDEST JUMPDEST PUSH1 0x0 PUSH2 0x246C DUP6 DUP3 DUP7 ADD PUSH2 0x21BA JUMP JUMPDEST SWAP3 POP POP PUSH1 0x20 PUSH2 0x247D DUP6 DUP3 DUP7 ADD PUSH2 0x2427 JUMP JUMPDEST SWAP2 POP POP SWAP3 POP SWAP3 SWAP1 POP JUMP JUMPDEST PUSH1 0x0 PUSH1 0xE0 DUP3 ADD SWAP1 POP PUSH2 0x249C PUSH1 0x0 DUP4 ADD DUP11 PUSH2 0x228F JUMP JUMPDEST PUSH2 0x24A9 PUSH1 0x20 DUP4 ADD DUP10 PUSH2 0x2179 JUMP JUMPDEST PUSH2 0x24B6 PUSH1 0x40 DUP4 ADD DUP9 PUSH2 0x2179 JUMP JUMPDEST PUSH2 0x24C3 PUSH1 0x60 DUP4 ADD DUP8 PUSH2 0x2179 JUMP JUMPDEST PUSH2 0x24D0 PUSH1 0x80 DUP4 ADD DUP7 PUSH2 0x228F JUMP JUMPDEST PUSH2 0x24DD PUSH1 0xA0 DUP4 ADD DUP6 PUSH2 0x228F JUMP JUMPDEST PUSH2 0x24EA PUSH1 0xC0 DUP4 ADD DUP5 PUSH2 0x228F JUMP JUMPDEST SWAP9 SWAP8 POP POP POP POP POP POP POP POP JUMP JUMPDEST PUSH2 0x24FF DUP2 PUSH2 0x20AE JUMP JUMPDEST DUP2 EQ PUSH2 0x250A JUMPI PUSH1 0x0 DUP1 REVERT JUMPDEST POP JUMP JUMPDEST PUSH1 0x0 DUP2 CALLDATALOAD SWAP1 POP PUSH2 0x251C DUP2 PUSH2 0x24F6 JUMP JUMPDEST SWAP3 SWAP2 POP POP JUMP JUMPDEST PUSH1 0x0 DUP1 PUSH1 0x40 DUP4 DUP6 SUB SLT ISZERO PUSH2 0x2539 JUMPI PUSH2 0x2538 PUSH2 0x201F JUMP JUMPDEST JUMPDEST PUSH1 0x0 PUSH2 0x2547 DUP6 DUP3 DUP7 ADD PUSH2 0x21BA JUMP JUMPDEST SWAP3 POP POP PUSH1 0x20 PUSH2 0x2558 DUP6 DUP3 DUP7 ADD PUSH2 0x250D JUMP JUMPDEST SWAP2 POP POP SWAP3 POP SWAP3 SWAP1 POP JUMP JUMPDEST PUSH1 0x0 DUP1 REVERT JUMPDEST PUSH1 0x0 DUP1 REVERT JUMPDEST PUSH1 0x0 DUP1 REVERT JUMPDEST PUSH1 0x0 DUP1 DUP4 PUSH1 0x1F DUP5 ADD SLT PUSH2 0x2587 JUMPI PUSH2 0x2586 PUSH2 0x2562 JUMP JUMPDEST JUMPDEST DUP3 CALLDATALOAD SWAP1 POP PUSH8 0xFFFFFFFFFFFFFFFF DUP2 GT ISZERO PUSH2 0x25A4 JUMPI PUSH2 0x25A3 PUSH2 0x2567 JUMP JUMPDEST JUMPDEST PUSH1 0x20 DUP4 ADD SWAP2 POP DUP4 PUSH1 0x1 DUP3 MUL DUP4 ADD GT ISZERO PUSH2 0x25C0 JUMPI PUSH2 0x25BF PUSH2 0x256C JUMP JUMPDEST JUMPDEST SWAP3 POP SWAP3 SWAP1 POP JUMP JUMPDEST PUSH1 0x0 DUP1 PUSH1 0x0 DUP1 PUSH1 0x0 PUSH1 0x80 DUP7 DUP9 SUB SLT ISZERO PUSH2 0x25E3 JUMPI PUSH2 0x25E2 PUSH2 0x201F JUMP JUMPDEST JUMPDEST PUSH1 0x0 PUSH2 0x25F1 DUP9 DUP3 DUP10 ADD PUSH2 0x21BA JUMP JUMPDEST SWAP6 POP POP PUSH1 0x20 PUSH2 0x2602 DUP9 DUP3 DUP10 ADD PUSH2 0x21BA JUMP JUMPDEST SWAP5 POP POP PUSH1 0x40 PUSH2 0x2613 DUP9 DUP3 DUP10 ADD PUSH2 0x2105 JUMP JUMPDEST SWAP4 POP POP PUSH1 0x60 DUP7 ADD CALLDATALOAD PUSH8 0xFFFFFFFFFFFFFFFF DUP2 GT ISZERO PUSH2 0x2634 JUMPI PUSH2 0x2633 PUSH2 0x2024 JUMP JUMPDEST JUMPDEST PUSH2 0x2640 DUP9 DUP3 DUP10 ADD PUSH2 0x2571 JUMP JUMPDEST SWAP3 POP SWAP3 POP POP SWAP3 SWAP6 POP SWAP3 SWAP6 SWAP1 SWAP4 POP JUMP JUMPDEST PUSH1 0x0 DUP2 MLOAD SWAP1 POP SWAP2 SWAP1 POP JUMP JUMPDEST PUSH1 0x0 DUP3 DUP3 MSTORE PUSH1 0x20 DUP3 ADD SWAP1 POP SWAP3 SWAP2 POP POP JUMP JUMPDEST PUSH1 0x0 DUP2 SWAP1 POP PUSH1 0x20 DUP3 ADD SWAP1 POP SWAP2 SWAP1 POP JUMP JUMPDEST PUSH1 0x0 PUSH2 0x2687 DUP4 DUP4 PUSH2 0x235B JUMP JUMPDEST PUSH1 0x20 DUP4 ADD SWAP1 POP SWAP3 SWAP2 POP POP JUMP JUMPDEST PUSH1 0x0 PUSH1 0x20 DUP3 ADD SWAP1 POP SWAP2 SWAP1 POP JUMP JUMPDEST PUSH1 0x0 PUSH2 0x26AB DUP3 PUSH2 0x264F JUMP JUMPDEST PUSH2 0x26B5 DUP2 DUP6 PUSH2 0x265A JUMP JUMPDEST SWAP4 POP PUSH2 0x26C0 DUP4 PUSH2 0x266B JUMP JUMPDEST DUP1 PUSH1 0x0 JUMPDEST DUP4 DUP2 LT ISZERO PUSH2 0x26F1 JUMPI DUP2 MLOAD PUSH2 0x26D8 DUP9 DUP3 PUSH2 0x267B JUMP JUMPDEST SWAP8 POP PUSH2 0x26E3 DUP4 PUSH2 0x2693 JUMP JUMPDEST SWAP3 POP POP PUSH1 0x1 DUP2 ADD SWAP1 POP PUSH2 0x26C4 JUMP JUMPDEST POP DUP6 SWAP4 POP POP POP POP SWAP3 SWAP2 POP POP JUMP JUMPDEST PUSH1 0x0 PUSH1 0x20 DUP3 ADD SWAP1 POP DUP2 DUP2 SUB PUSH1 0x0 DUP4 ADD MSTORE PUSH2 0x2718 DUP2 DUP5 PUSH2 0x26A0 JUMP JUMPDEST SWAP1 POP SWAP3 SWAP2 POP POP JUMP JUMPDEST PUSH1 0x0 DUP1 PUSH1 0x40 DUP4 DUP6 SUB SLT ISZERO PUSH2 0x2737 JUMPI PUSH2 0x2736 PUSH2 0x201F JUMP JUMPDEST JUMPDEST PUSH1 0x0 PUSH2 0x2745 DUP6 DUP3 DUP7 ADD PUSH2 0x21BA JUMP JUMPDEST SWAP3 POP POP PUSH1 0x20 PUSH2 0x2756 DUP6 DUP3 DUP7 ADD PUSH2 0x21BA JUMP JUMPDEST SWAP2 POP POP SWAP3 POP SWAP3 SWAP1 POP JUMP JUMPDEST PUSH1 0x0 DUP1 PUSH1 0x40 DUP4 DUP6 SUB SLT ISZERO PUSH2 0x2777 JUMPI PUSH2 0x2776 PUSH2 0x201F JUMP JUMPDEST JUMPDEST PUSH1 0x0 PUSH2 0x2785 DUP6 DUP3 DUP7 ADD PUSH2 0x2105 JUMP JUMPDEST SWAP3 POP POP PUSH1 0x20 PUSH2 0x2796 DUP6 DUP3 DUP7 ADD PUSH2 0x21BA JUMP JUMPDEST SWAP2 POP POP SWAP3 POP SWAP3 SWAP1 POP JUMP JUMPDEST PUSH1 0x0 DUP3 DUP3 MSTORE PUSH1 0x20 DUP3 ADD SWAP1 POP SWAP3 SWAP2 POP POP JUMP JUMPDEST PUSH32 0x746F6B656E20646F657327742065786974730000000000000000000000000000 PUSH1 0x0 DUP3 ADD MSTORE POP JUMP JUMPDEST PUSH1 0x0 PUSH2 0x27E7 PUSH1 0x12 DUP4 PUSH2 0x27A0 JUMP JUMPDEST SWAP2 POP PUSH2 0x27F2 DUP3 PUSH2 0x27B1 JUMP JUMPDEST PUSH1 0x20 DUP3 ADD SWAP1 POP SWAP2 SWAP1 POP JUMP JUMPDEST PUSH1 0x0 PUSH1 0x20 DUP3 ADD SWAP1 POP DUP2 DUP2 SUB PUSH1 0x0 DUP4 ADD MSTORE PUSH2 0x2816 DUP2 PUSH2 0x27DA JUMP JUMPDEST SWAP1 POP SWAP2 SWAP1 POP JUMP JUMPDEST PUSH32 0x6E6F7420617574686F72697A6564000000000000000000000000000000000000 PUSH1 0x0 DUP3 ADD MSTORE POP JUMP JUMPDEST PUSH1 0x0 PUSH2 0x2853 PUSH1 0xE DUP4 PUSH2 0x27A0 JUMP JUMPDEST SWAP2 POP PUSH2 0x285E DUP3 PUSH2 0x281D JUMP JUMPDEST PUSH1 0x20 DUP3 ADD SWAP1 POP SWAP2 SWAP1 POP JUMP JUMPDEST PUSH1 0x0 PUSH1 0x20 DUP3 ADD SWAP1 POP DUP2 DUP2 SUB PUSH1 0x0 DUP4 ADD MSTORE PUSH2 0x2882 DUP2 PUSH2 0x2846 JUMP JUMPDEST SWAP1 POP SWAP2 SWAP1 POP JUMP JUMPDEST PUSH32 0x66726F6D20213D206F776E657200000000000000000000000000000000000000 PUSH1 0x0 DUP3 ADD MSTORE POP JUMP JUMPDEST PUSH1 0x0 PUSH2 0x28BF PUSH1 0xD DUP4 PUSH2 0x27A0 JUMP JUMPDEST SWAP2 POP PUSH2 0x28CA DUP3 PUSH2 0x2889 JUMP JUMPDEST PUSH1 0x20 DUP3 ADD SWAP1 POP SWAP2 SWAP1 POP JUMP JUMPDEST PUSH1 0x0 PUSH1 0x20 DUP3 ADD SWAP1 POP DUP2 DUP2 SUB PUSH1 0x0 DUP4 ADD MSTORE PUSH2 0x28EE DUP2 PUSH2 0x28B2 JUMP JUMPDEST SWAP1 POP SWAP2 SWAP1 POP JUMP JUMPDEST PUSH32 0x746F203D207A65726F2061646472657373000000000000000000000000000000 PUSH1 0x0 DUP3 ADD MSTORE POP JUMP JUMPDEST PUSH1 0x0 PUSH2 0x292B PUSH1 0x11 DUP4 PUSH2 0x27A0 JUMP JUMPDEST SWAP2 POP PUSH2 0x2936 DUP3 PUSH2 0x28F5 JUMP JUMPDEST PUSH1 0x20 DUP3 ADD SWAP1 POP SWAP2 SWAP1 POP JUMP JUMPDEST PUSH1 0x0 PUSH1 0x20 DUP3 ADD SWAP1 POP DUP2 DUP2 SUB PUSH1 0x0 DUP4 ADD MSTORE PUSH2 0x295A DUP2 PUSH2 0x291E JUMP JUMPDEST SWAP1 POP SWAP2 SWAP1 POP JUMP JUMPDEST PUSH32 0x4E487B7100000000000000000000000000000000000000000000000000000000 PUSH1 0x0 MSTORE PUSH1 0x11 PUSH1 0x4 MSTORE PUSH1 0x24 PUSH1 0x0 REVERT JUMPDEST PUSH1 0x0 PUSH2 0x299B DUP3 PUSH2 0x20E4 JUMP JUMPDEST SWAP2 POP PUSH1 0x0 DUP3 SUB PUSH2 0x29AE JUMPI PUSH2 0x29AD PUSH2 0x2961 JUMP JUMPDEST JUMPDEST PUSH1 0x1 DUP3 SUB SWAP1 POP SWAP2 SWAP1 POP JUMP JUMPDEST PUSH1 0x0 PUSH2 0x29C4 DUP3 PUSH2 0x20E4 JUMP JUMPDEST SWAP2 POP PUSH32 0xFFFFFFFFFFFFFFFFFFFFFFFFFFFFFFFFFFFFFFFFFFFFFFFFFFFFFFFFFFFFFFFF DUP3 SUB PUSH2 0x29F6 JUMPI PUSH2 0x29F5 PUSH2 0x2961 JUMP JUMPDEST JUMPDEST PUSH1 0x1 DUP3 ADD SWAP1 POP SWAP2 SWAP1 POP JUMP JUMPDEST PUSH1 0x0 PUSH2 0x2A0C DUP3 PUSH2 0x20E4 JUMP JUMPDEST SWAP2 POP PUSH2 0x2A17 DUP4 PUSH2 0x20E4 JUMP JUMPDEST SWAP3 POP DUP3 DUP3 SUB SWAP1 POP DUP2 DUP2 GT ISZERO PUSH2 0x2A2F JUMPI PUSH2 0x2A2E PUSH2 0x2961 JUMP JUMPDEST JUMPDEST SWAP3 SWAP2 POP POP JUMP JUMPDEST PUSH1 0x0 DUP3 DUP3 MSTORE PUSH1 0x20 DUP3 ADD SWAP1 POP SWAP3 SWAP2 POP POP JUMP JUMPDEST POP JUMP JUMPDEST PUSH1 0x0 PUSH2 0x2A56 PUSH1 0x0 DUP4 PUSH2 0x2A35 JUMP JUMPDEST SWAP2 POP PUSH2 0x2A61 DUP3 PUSH2 0x2A46 JUMP JUMPDEST PUSH1 0x0 DUP3 ADD SWAP1 POP SWAP2 SWAP1 POP JUMP JUMPDEST PUSH1 0x0 PUSH1 0x80 DUP3 ADD SWAP1 POP PUSH2 0x2A81 PUSH1 0x0 DUP4 ADD DUP7 PUSH2 0x2179 JUMP JUMPDEST PUSH2 0x2A8E PUSH1 0x20 DUP4 ADD DUP6 PUSH2 0x2179 JUMP JUMPDEST PUSH2 0x2A9B PUSH1 0x40 DUP4 ADD DUP5 PUSH2 0x228F JUMP JUMPDEST DUP2 DUP2 SUB PUSH1 0x60 DUP4 ADD MSTORE PUSH2 0x2AAC DUP2 PUSH2 0x2A49 JUMP JUMPDEST SWAP1 POP SWAP5 SWAP4 POP POP POP POP JUMP JUMPDEST PUSH1 0x0 DUP2 MLOAD SWAP1 POP PUSH2 0x2AC5 DUP2 PUSH2 0x2055 JUMP JUMPDEST SWAP3 SWAP2 POP POP JUMP JUMPDEST PUSH1 0x0 PUSH1 0x20 DUP3 DUP5 SUB SLT ISZERO PUSH2 0x2AE1 JUMPI PUSH2 0x2AE0 PUSH2 0x201F JUMP JUMPDEST JUMPDEST PUSH1 0x0 PUSH2 0x2AEF DUP5 DUP3 DUP6 ADD PUSH2 0x2AB6 JUMP JUMPDEST SWAP2 POP POP SWAP3 SWAP2 POP POP JUMP JUMPDEST PUSH32 0x756E7361666520726563697069656E7400000000000000000000000000000000 PUSH1 0x0 DUP3 ADD MSTORE POP JUMP JUMPDEST PUSH1 0x0 PUSH2 0x2B2E PUSH1 0x10 DUP4 PUSH2 0x27A0 JUMP JUMPDEST SWAP2 POP PUSH2 0x2B39 DUP3 PUSH2 0x2AF8 JUMP JUMPDEST PUSH1 0x20 DUP3 ADD SWAP1 POP SWAP2 SWAP1 POP JUMP JUMPDEST PUSH1 0x0 PUSH1 0x20 DUP3 ADD SWAP1 POP DUP2 DUP2 SUB PUSH1 0x0 DUP4 ADD MSTORE PUSH2 0x2B5D DUP2 PUSH2 0x2B21 JUMP JUMPDEST SWAP1 POP SWAP2 SWAP1 POP JUMP JUMPDEST PUSH32 0x6F776E6572203D207A65726F2061646472657373000000000000000000000000 PUSH1 0x0 DUP3 ADD MSTORE POP JUMP JUMPDEST PUSH1 0x0 PUSH2 0x2B9A PUSH1 0x14 DUP4 PUSH2 0x27A0 JUMP JUMPDEST SWAP2 POP PUSH2 0x2BA5 DUP3 PUSH2 0x2B64 JUMP JUMPDEST PUSH1 0x20 DUP3 ADD SWAP1 POP SWAP2 SWAP1 POP JUMP JUMPDEST PUSH1 0x0 PUSH1 0x20 DUP3 ADD SWAP1 POP DUP2 DUP2 SUB PUSH1 0x0 DUP4 ADD MSTORE PUSH2 0x2BC9 DUP2 PUSH2 0x2B8D JUMP JUMPDEST SWAP1 POP SWAP2 SWAP1 POP JUMP JUMPDEST DUP3 DUP2 DUP4 CALLDATACOPY PUSH1 0x0 DUP4 DUP4 ADD MSTORE POP POP POP JUMP JUMPDEST PUSH1 0x0 PUSH1 0x1F NOT PUSH1 0x1F DUP4 ADD AND SWAP1 POP SWAP2 SWAP1 POP JUMP JUMPDEST PUSH1 0x0 PUSH2 0x2BFC DUP4 DUP6 PUSH2 0x2A35 JUMP JUMPDEST SWAP4 POP PUSH2 0x2C09 DUP4 DUP6 DUP5 PUSH2 0x2BD0 JUMP JUMPDEST PUSH2 0x2C12 DUP4 PUSH2 0x2BDF JUMP JUMPDEST DUP5 ADD SWAP1 POP SWAP4 SWAP3 POP POP POP JUMP JUMPDEST PUSH1 0x0 PUSH1 0x80 DUP3 ADD SWAP1 POP PUSH2 0x2C32 PUSH1 0x0 DUP4 ADD DUP9 PUSH2 0x2179 JUMP JUMPDEST PUSH2 0x2C3F PUSH1 0x20 DUP4 ADD DUP8 PUSH2 0x2179 JUMP JUMPDEST PUSH2 0x2C4C PUSH1 0x40 DUP4 ADD DUP7 PUSH2 0x228F JUMP JUMPDEST DUP2 DUP2 SUB PUSH1 0x60 DUP4 ADD MSTORE PUSH2 0x2C5F DUP2 DUP5 DUP7 PUSH2 0x2BF0 JUMP JUMPDEST SWAP1 POP SWAP7 SWAP6 POP POP POP POP POP POP JUMP JUMPDEST PUSH32 0x6E6F74204F776E65720000000000000000000000000000000000000000000000 PUSH1 0x0 DUP3 ADD MSTORE POP JUMP JUMPDEST PUSH1 0x0 PUSH2 0x2CA1 PUSH1 0x9 DUP4 PUSH2 0x27A0 JUMP JUMPDEST SWAP2 POP PUSH2 0x2CAC DUP3 PUSH2 0x2C6B JUMP JUMPDEST PUSH1 0x20 DUP3 ADD SWAP1 POP SWAP2 SWAP1 POP JUMP JUMPDEST PUSH1 0x0 PUSH1 0x20 DUP3 ADD SWAP1 POP DUP2 DUP2 SUB PUSH1 0x0 DUP4 ADD MSTORE PUSH2 0x2CD0 DUP2 PUSH2 0x2C94 JUMP JUMPDEST SWAP1 POP SWAP2 SWAP1 POP JUMP JUMPDEST PUSH32 0x4E487B7100000000000000000000000000000000000000000000000000000000 PUSH1 0x0 MSTORE PUSH1 0x32 PUSH1 0x4 MSTORE PUSH1 0x24 PUSH1 0x0 REVERT JUMPDEST PUSH32 0x4E487B7100000000000000000000000000000000000000000000000000000000 PUSH1 0x0 MSTORE PUSH1 0x31 PUSH1 0x4 MSTORE PUSH1 0x24 PUSH1 0x0 REVERT JUMPDEST PUSH32 0x746F6B656E206578697374730000000000000000000000000000000000000000 PUSH1 0x0 DUP3 ADD MSTORE POP JUMP JUMPDEST PUSH1 0x0 PUSH2 0x2D6B PUSH1 0xC DUP4 PUSH2 0x27A0 JUMP JUMPDEST SWAP2 POP PUSH2 0x2D76 DUP3 PUSH2 0x2D35 JUMP JUMPDEST PUSH1 0x20 DUP3 ADD SWAP1 POP SWAP2 SWAP1 POP JUMP JUMPDEST PUSH1 0x0 PUSH1 0x20 DUP3 ADD SWAP1 POP DUP2 DUP2 SUB PUSH1 0x0 DUP4 ADD MSTORE PUSH2 0x2D9A DUP2 PUSH2 0x2D5E JUMP JUMPDEST SWAP1 POP SWAP2 SWAP1 POP JUMP JUMPDEST PUSH32 0x746F6B656E20646F6573206E6F74206578697473000000000000000000000000 PUSH1 0x0 DUP3 ADD MSTORE POP JUMP JUMPDEST PUSH1 0x0 PUSH2 0x2DD7 PUSH1 0x14 DUP4 PUSH2 0x27A0 JUMP JUMPDEST SWAP2 POP PUSH2 0x2DE2 DUP3 PUSH2 0x2DA1 JUMP JUMPDEST PUSH1 0x20 DUP3 ADD SWAP1 POP SWAP2 SWAP1 POP JUMP JUMPDEST PUSH1 0x0 PUSH1 0x20 DUP3 ADD SWAP1 POP DUP2 DUP2 SUB PUSH1 0x0 DUP4 ADD MSTORE PUSH2 0x2E06 DUP2 PUSH2 0x2DCA JUMP JUMPDEST SWAP1 POP SWAP2 SWAP1 POP JUMP INVALID LOG2 PUSH5 0x6970667358 0x22 SLT KECCAK256 PUSH32 0x914AED238671B42FE24AF19E44A36701B3CDCFB04F65A1B7670B7113DCF70164 PUSH20 0x6F6C634300081200330000000000000000000000 "
				},
				"gasEstimates": {
					"creation": {
						"codeDepositCost": "2368600",
						"executionCost": "infinite",
						"totalCost": "infinite"
					},
					"external": {
						"approve(address,uint256)": "31562",
						"balanceOf(address)": "2965",
						"burnPosition(uint256,address)": "infinite",
						"getApproved(uint256)": "5160",
						"getOwnerNFT(address)": "infinite",
						"indexOfOwnerNFT(address,uint256)": "infinite",
						"isApprovalForAll(address,address)": "infinite",
						"mintParams(uint256,address,address,address,uint256,uint256,uint256)": "infinite",
						"mintPosition(address,(uint256,address,address,address,uint256,uint256,uint256))": "infinite",
						"ownerNFT(address,uint256)": "infinite",
						"ownerOf(uint256)": "3020",
						"positions(uint256)": "infinite",
						"safeTransferFrom(address,address,uint256)": "infinite",
						"safeTransferFrom(address,address,uint256,bytes)": "infinite",
						"setApprovalForAll(address,bool)": "infinite",
						"supportsInterface(bytes4)": "708",
						"tokenIdNext()": "2474",
						"transferFrom(address,address,uint256)": "infinite",
						"transferPosition(address,address,uint256)": "infinite"
					},
					"internal": {
						"_removeFromArray(uint256,address)": "infinite"
					}
				},
				"methodIdentifiers": {
					"approve(address,uint256)": "095ea7b3",
					"balanceOf(address)": "70a08231",
					"burnPosition(uint256,address)": "ec828722",
					"getApproved(uint256)": "081812fc",
					"getOwnerNFT(address)": "d942dc94",
					"indexOfOwnerNFT(address,uint256)": "7fcda073",
					"isApprovalForAll(address,address)": "ebd1d359",
					"mintParams(uint256,address,address,address,uint256,uint256,uint256)": "8b217878",
					"mintPosition(address,(uint256,address,address,address,uint256,uint256,uint256))": "91cda3e7",
					"ownerNFT(address,uint256)": "deeb79a3",
					"ownerOf(uint256)": "6352211e",
					"positions(uint256)": "99fbab88",
					"safeTransferFrom(address,address,uint256)": "42842e0e",
					"safeTransferFrom(address,address,uint256,bytes)": "b88d4fde",
					"setApprovalForAll(address,bool)": "a22cb465",
					"supportsInterface(bytes4)": "01ffc9a7",
					"tokenIdNext()": "8bbf58b3",
					"transferFrom(address,address,uint256)": "23b872dd",
					"transferPosition(address,address,uint256)": "26908fa1"
				}
			},
			"storageLayout": {
				"storage": [
					{
						"astId": 178,
						"contract": "TVNProject/TVNNFTPositionManager/TVNNFTPositionManager.sol:TVNNFTPositionManager",
						"label": "_ownerOf",
						"offset": 0,
						"slot": "0",
						"type": "t_mapping(t_uint256,t_address)"
					},
					{
						"astId": 182,
						"contract": "TVNProject/TVNNFTPositionManager/TVNNFTPositionManager.sol:TVNNFTPositionManager",
						"label": "_balanceOf",
						"offset": 0,
						"slot": "1",
						"type": "t_mapping(t_address,t_uint256)"
					},
					{
						"astId": 186,
						"contract": "TVNProject/TVNNFTPositionManager/TVNNFTPositionManager.sol:TVNNFTPositionManager",
						"label": "_approvals",
						"offset": 0,
						"slot": "2",
						"type": "t_mapping(t_uint256,t_address)"
					},
					{
						"astId": 192,
						"contract": "TVNProject/TVNNFTPositionManager/TVNNFTPositionManager.sol:TVNNFTPositionManager",
						"label": "isApprovalForAll",
						"offset": 0,
						"slot": "3",
						"type": "t_mapping(t_address,t_mapping(t_address,t_bool))"
					},
					{
						"astId": 701,
						"contract": "TVNProject/TVNNFTPositionManager/TVNNFTPositionManager.sol:TVNNFTPositionManager",
						"label": "name",
						"offset": 0,
						"slot": "4",
						"type": "t_string_storage"
					},
					{
						"astId": 703,
						"contract": "TVNProject/TVNNFTPositionManager/TVNNFTPositionManager.sol:TVNNFTPositionManager",
						"label": "symbol",
						"offset": 0,
						"slot": "5",
						"type": "t_string_storage"
					},
					{
						"astId": 706,
						"contract": "TVNProject/TVNNFTPositionManager/TVNNFTPositionManager.sol:TVNNFTPositionManager",
						"label": "tokenIdNext",
						"offset": 0,
						"slot": "6",
						"type": "t_uint256"
					},
					{
						"astId": 726,
						"contract": "TVNProject/TVNNFTPositionManager/TVNNFTPositionManager.sol:TVNNFTPositionManager",
						"label": "positions",
						"offset": 0,
						"slot": "7",
						"type": "t_mapping(t_uint256,t_struct(PositionInfo)721_storage)"
					},
					{
						"astId": 731,
						"contract": "TVNProject/TVNNFTPositionManager/TVNNFTPositionManager.sol:TVNNFTPositionManager",
						"label": "ownerNFT",
						"offset": 0,
						"slot": "8",
						"type": "t_mapping(t_address,t_array(t_uint256)dyn_storage)"
					},
					{
						"astId": 737,
						"contract": "TVNProject/TVNNFTPositionManager/TVNNFTPositionManager.sol:TVNNFTPositionManager",
						"label": "indexOfOwnerNFT",
						"offset": 0,
						"slot": "9",
						"type": "t_mapping(t_address,t_mapping(t_uint256,t_uint256))"
					}
				],
				"types": {
					"t_address": {
						"encoding": "inplace",
						"label": "address",
						"numberOfBytes": "20"
					},
					"t_array(t_uint256)dyn_storage": {
						"base": "t_uint256",
						"encoding": "dynamic_array",
						"label": "uint256[]",
						"numberOfBytes": "32"
					},
					"t_bool": {
						"encoding": "inplace",
						"label": "bool",
						"numberOfBytes": "1"
					},
					"t_mapping(t_address,t_array(t_uint256)dyn_storage)": {
						"encoding": "mapping",
						"key": "t_address",
						"label": "mapping(address => uint256[])",
						"numberOfBytes": "32",
						"value": "t_array(t_uint256)dyn_storage"
					},
					"t_mapping(t_address,t_bool)": {
						"encoding": "mapping",
						"key": "t_address",
						"label": "mapping(address => bool)",
						"numberOfBytes": "32",
						"value": "t_bool"
					},
					"t_mapping(t_address,t_mapping(t_address,t_bool))": {
						"encoding": "mapping",
						"key": "t_address",
						"label": "mapping(address => mapping(address => bool))",
						"numberOfBytes": "32",
						"value": "t_mapping(t_address,t_bool)"
					},
					"t_mapping(t_address,t_mapping(t_uint256,t_uint256))": {
						"encoding": "mapping",
						"key": "t_address",
						"label": "mapping(address => mapping(uint256 => uint256))",
						"numberOfBytes": "32",
						"value": "t_mapping(t_uint256,t_uint256)"
					},
					"t_mapping(t_address,t_uint256)": {
						"encoding": "mapping",
						"key": "t_address",
						"label": "mapping(address => uint256)",
						"numberOfBytes": "32",
						"value": "t_uint256"
					},
					"t_mapping(t_uint256,t_address)": {
						"encoding": "mapping",
						"key": "t_uint256",
						"label": "mapping(uint256 => address)",
						"numberOfBytes": "32",
						"value": "t_address"
					},
					"t_mapping(t_uint256,t_struct(PositionInfo)721_storage)": {
						"encoding": "mapping",
						"key": "t_uint256",
						"label": "mapping(uint256 => struct TVNNFTPositionManager.PositionInfo)",
						"numberOfBytes": "32",
						"value": "t_struct(PositionInfo)721_storage"
					},
					"t_mapping(t_uint256,t_uint256)": {
						"encoding": "mapping",
						"key": "t_uint256",
						"label": "mapping(uint256 => uint256)",
						"numberOfBytes": "32",
						"value": "t_uint256"
					},
					"t_string_storage": {
						"encoding": "bytes",
						"label": "string",
						"numberOfBytes": "32"
					},
					"t_struct(PositionInfo)721_storage": {
						"encoding": "inplace",
						"label": "struct TVNNFTPositionManager.PositionInfo",
						"members": [
							{
								"astId": 708,
								"contract": "TVNProject/TVNNFTPositionManager/TVNNFTPositionManager.sol:TVNNFTPositionManager",
								"label": "shares",
								"offset": 0,
								"slot": "0",
								"type": "t_uint256"
							},
							{
								"astId": 710,
								"contract": "TVNProject/TVNNFTPositionManager/TVNNFTPositionManager.sol:TVNNFTPositionManager",
								"label": "owner",
								"offset": 0,
								"slot": "1",
								"type": "t_address"
							},
							{
								"astId": 712,
								"contract": "TVNProject/TVNNFTPositionManager/TVNNFTPositionManager.sol:TVNNFTPositionManager",
								"label": "token0",
								"offset": 0,
								"slot": "2",
								"type": "t_address"
							},
							{
								"astId": 714,
								"contract": "TVNProject/TVNNFTPositionManager/TVNNFTPositionManager.sol:TVNNFTPositionManager",
								"label": "token1",
								"offset": 0,
								"slot": "3",
								"type": "t_address"
							},
							{
								"astId": 716,
								"contract": "TVNProject/TVNNFTPositionManager/TVNNFTPositionManager.sol:TVNNFTPositionManager",
								"label": "fee",
								"offset": 0,
								"slot": "4",
								"type": "t_uint256"
							},
							{
								"astId": 718,
								"contract": "TVNProject/TVNNFTPositionManager/TVNNFTPositionManager.sol:TVNNFTPositionManager",
								"label": "amount0",
								"offset": 0,
								"slot": "5",
								"type": "t_uint256"
							},
							{
								"astId": 720,
								"contract": "TVNProject/TVNNFTPositionManager/TVNNFTPositionManager.sol:TVNNFTPositionManager",
								"label": "amount1",
								"offset": 0,
								"slot": "6",
								"type": "t_uint256"
							}
						],
						"numberOfBytes": "224"
					},
					"t_uint256": {
						"encoding": "inplace",
						"label": "uint256",
						"numberOfBytes": "32"
					}
				}
			},
			"userdoc": {
				"kind": "user",
				"methods": {},
				"version": 1
			}
		}
	}
}