{
	"TVNProject/TVNStakingPool/TVNStakingPool.sol": {
		"TVNStakingPool": {
			"abi": [
				{
					"inputs": [
						{
							"internalType": "address",
							"name": "_stakingNFT",
							"type": "address"
						},
						{
							"internalType": "address",
							"name": "_rewardsToken",
							"type": "address"
						}
					],
					"stateMutability": "nonpayable",
					"type": "constructor"
				},
				{
					"inputs": [
						{
							"internalType": "uint256",
							"name": "",
							"type": "uint256"
						}
					],
					"name": "NFTIndex",
					"outputs": [
						{
							"internalType": "uint256",
							"name": "",
							"type": "uint256"
						}
					],
					"stateMutability": "view",
					"type": "function"
				},
				{
					"inputs": [
						{
							"internalType": "string",
							"name": "_func",
							"type": "string"
						},
						{
							"internalType": "uint256",
							"name": "_tokenId",
							"type": "uint256"
						}
					],
					"name": "_getABIEncodedForHarvest",
					"outputs": [
						{
							"internalType": "bytes",
							"name": "",
							"type": "bytes"
						}
					],
					"stateMutability": "pure",
					"type": "function"
				},
				{
					"inputs": [
						{
							"internalType": "uint256",
							"name": "",
							"type": "uint256"
						}
					],
					"name": "allNFT",
					"outputs": [
						{
							"internalType": "uint256",
							"name": "",
							"type": "uint256"
						}
					],
					"stateMutability": "view",
					"type": "function"
				},
				{
					"inputs": [
						{
							"internalType": "uint256",
							"name": "",
							"type": "uint256"
						}
					],
					"name": "balanceOf",
					"outputs": [
						{
							"internalType": "uint256",
							"name": "",
							"type": "uint256"
						}
					],
					"stateMutability": "view",
					"type": "function"
				},
				{
					"inputs": [],
					"name": "duration",
					"outputs": [
						{
							"internalType": "uint256",
							"name": "",
							"type": "uint256"
						}
					],
					"stateMutability": "view",
					"type": "function"
				},
				{
					"inputs": [
						{
							"internalType": "uint256",
							"name": "_tokenId",
							"type": "uint256"
						}
					],
					"name": "earned",
					"outputs": [
						{
							"internalType": "uint256",
							"name": "",
							"type": "uint256"
						}
					],
					"stateMutability": "view",
					"type": "function"
				},
				{
					"inputs": [],
					"name": "finishAt",
					"outputs": [
						{
							"internalType": "uint256",
							"name": "",
							"type": "uint256"
						}
					],
					"stateMutability": "view",
					"type": "function"
				},
				{
					"inputs": [],
					"name": "getAllNFTStaking",
					"outputs": [
						{
							"internalType": "uint256[]",
							"name": "",
							"type": "uint256[]"
						}
					],
					"stateMutability": "view",
					"type": "function"
				},
				{
					"inputs": [],
					"name": "getOwnedStakingNFT",
					"outputs": [
						{
							"internalType": "uint256[]",
							"name": "",
							"type": "uint256[]"
						}
					],
					"stateMutability": "view",
					"type": "function"
				},
				{
					"inputs": [
						{
							"internalType": "uint256",
							"name": "_tokenId",
							"type": "uint256"
						}
					],
					"name": "getReward",
					"outputs": [],
					"stateMutability": "nonpayable",
					"type": "function"
				},
				{
					"inputs": [
						{
							"internalType": "address",
							"name": "",
							"type": "address"
						},
						{
							"internalType": "uint256",
							"name": "",
							"type": "uint256"
						}
					],
					"name": "indexForOwnedStakingNFT",
					"outputs": [
						{
							"internalType": "uint256",
							"name": "",
							"type": "uint256"
						}
					],
					"stateMutability": "view",
					"type": "function"
				},
				{
					"inputs": [],
					"name": "lastTimeRewardApplicable",
					"outputs": [
						{
							"internalType": "uint256",
							"name": "",
							"type": "uint256"
						}
					],
					"stateMutability": "view",
					"type": "function"
				},
				{
					"inputs": [
						{
							"internalType": "uint256",
							"name": "_amount",
							"type": "uint256"
						}
					],
					"name": "notifyRewardAmount",
					"outputs": [],
					"stateMutability": "nonpayable",
					"type": "function"
				},
				{
					"inputs": [
						{
							"internalType": "address",
							"name": "",
							"type": "address"
						},
						{
							"internalType": "address",
							"name": "",
							"type": "address"
						},
						{
							"internalType": "uint256",
							"name": "",
							"type": "uint256"
						},
						{
							"internalType": "bytes",
							"name": "",
							"type": "bytes"
						}
					],
					"name": "onERC721Received",
					"outputs": [
						{
							"internalType": "bytes4",
							"name": "",
							"type": "bytes4"
						}
					],
					"stateMutability": "view",
					"type": "function"
				},
				{
					"inputs": [
						{
							"internalType": "address",
							"name": "",
							"type": "address"
						},
						{
							"internalType": "uint256",
							"name": "",
							"type": "uint256"
						}
					],
					"name": "ownedStakingNFT",
					"outputs": [
						{
							"internalType": "uint256",
							"name": "",
							"type": "uint256"
						}
					],
					"stateMutability": "view",
					"type": "function"
				},
				{
					"inputs": [],
					"name": "owner",
					"outputs": [
						{
							"internalType": "address",
							"name": "",
							"type": "address"
						}
					],
					"stateMutability": "view",
					"type": "function"
				},
				{
					"inputs": [],
					"name": "rewardPerToken",
					"outputs": [
						{
							"internalType": "uint256",
							"name": "",
							"type": "uint256"
						}
					],
					"stateMutability": "view",
					"type": "function"
				},
				{
					"inputs": [],
					"name": "rewardPertokenStored",
					"outputs": [
						{
							"internalType": "uint256",
							"name": "",
							"type": "uint256"
						}
					],
					"stateMutability": "view",
					"type": "function"
				},
				{
					"inputs": [],
					"name": "rewardRate",
					"outputs": [
						{
							"internalType": "uint256",
							"name": "",
							"type": "uint256"
						}
					],
					"stateMutability": "view",
					"type": "function"
				},
				{
					"inputs": [
						{
							"internalType": "uint256",
							"name": "",
							"type": "uint256"
						}
					],
					"name": "rewards",
					"outputs": [
						{
							"internalType": "uint256",
							"name": "",
							"type": "uint256"
						}
					],
					"stateMutability": "view",
					"type": "function"
				},
				{
					"inputs": [],
					"name": "rewardsToken",
					"outputs": [
						{
							"internalType": "contract IERC20",
							"name": "",
							"type": "address"
						}
					],
					"stateMutability": "view",
					"type": "function"
				},
				{
					"inputs": [
						{
							"internalType": "uint256",
							"name": "_duration",
							"type": "uint256"
						}
					],
					"name": "setRewardsDuration",
					"outputs": [],
					"stateMutability": "nonpayable",
					"type": "function"
				},
				{
					"inputs": [
						{
							"internalType": "uint256",
							"name": "_tokenId",
							"type": "uint256"
						}
					],
					"name": "stake",
					"outputs": [],
					"stateMutability": "nonpayable",
					"type": "function"
				},
				{
					"inputs": [],
					"name": "stakingNFT",
					"outputs": [
						{
							"internalType": "contract IPositionManager",
							"name": "",
							"type": "address"
						}
					],
					"stateMutability": "view",
					"type": "function"
				},
				{
					"inputs": [
						{
							"internalType": "bytes4",
							"name": "interfaceID",
							"type": "bytes4"
						}
					],
					"name": "supportsInterface",
					"outputs": [
						{
							"internalType": "bool",
							"name": "",
							"type": "bool"
						}
					],
					"stateMutability": "pure",
					"type": "function"
				},
				{
					"inputs": [],
					"name": "totalSupply",
					"outputs": [
						{
							"internalType": "uint256",
							"name": "",
							"type": "uint256"
						}
					],
					"stateMutability": "view",
					"type": "function"
				},
				{
					"inputs": [
						{
							"internalType": "uint256",
							"name": "_tokenId",
							"type": "uint256"
						}
					],
					"name": "unstake",
					"outputs": [],
					"stateMutability": "nonpayable",
					"type": "function"
				},
				{
					"inputs": [],
					"name": "updateAt",
					"outputs": [
						{
							"internalType": "uint256",
							"name": "",
							"type": "uint256"
						}
					],
					"stateMutability": "view",
					"type": "function"
				},
				{
					"inputs": [
						{
							"internalType": "uint256",
							"name": "",
							"type": "uint256"
						}
					],
					"name": "userRewardPerTokenPaid",
					"outputs": [
						{
							"internalType": "uint256",
							"name": "",
							"type": "uint256"
						}
					],
					"stateMutability": "view",
					"type": "function"
				}
			],
			"devdoc": {
				"kind": "dev",
				"methods": {},
				"version": 1
			},
			"evm": {
				"assembly": "    /* \"TVNProject/TVNStakingPool/TVNStakingPool.sol\":364:7005  contract TVNStakingPool {... */\n  mstore(0x40, 0xc0)\n    /* \"TVNProject/TVNStakingPool/TVNStakingPool.sol\":1618:1807  constructor(address _stakingNFT, address _rewardsToken) {... */\n  callvalue\n  dup1\n  iszero\n  tag_1\n  jumpi\n  0x00\n  dup1\n  revert\ntag_1:\n  pop\n  mload(0x40)\n  sub(codesize, bytecodeSize)\n  dup1\n  bytecodeSize\n  dup4\n  codecopy\n  dup2\n  dup2\n  add\n  0x40\n  mstore\n  dup2\n  add\n  swap1\n  tag_2\n  swap2\n  swap1\n  tag_3\n  jump\t// in\ntag_2:\n    /* \"TVNProject/TVNStakingPool/TVNStakingPool.sol\":1692:1702  msg.sender */\n  caller\n    /* \"TVNProject/TVNStakingPool/TVNStakingPool.sol\":1684:1689  owner */\n  0x00\n  dup1\n    /* \"TVNProject/TVNStakingPool/TVNStakingPool.sol\":1684:1702  owner = msg.sender */\n  0x0100\n  exp\n  dup2\n  sload\n  dup2\n  0xffffffffffffffffffffffffffffffffffffffff\n  mul\n  not\n  and\n  swap1\n  dup4\n  0xffffffffffffffffffffffffffffffffffffffff\n  and\n  mul\n  or\n  swap1\n  sstore\n  pop\n    /* \"TVNProject/TVNStakingPool/TVNStakingPool.sol\":1742:1753  _stakingNFT */\n  dup2\n    /* \"TVNProject/TVNStakingPool/TVNStakingPool.sol\":1712:1754  stakingNFT = IPositionManager(_stakingNFT) */\n  0xffffffffffffffffffffffffffffffffffffffff\n  and\n  0x80\n  dup2\n  0xffffffffffffffffffffffffffffffffffffffff\n  and\n  dup2\n  mstore\n  pop\n  pop\n    /* \"TVNProject/TVNStakingPool/TVNStakingPool.sol\":1786:1799  _rewardsToken */\n  dup1\n    /* \"TVNProject/TVNStakingPool/TVNStakingPool.sol\":1764:1800  rewardsToken = IERC20(_rewardsToken) */\n  0xffffffffffffffffffffffffffffffffffffffff\n  and\n  0xa0\n  dup2\n  0xffffffffffffffffffffffffffffffffffffffff\n  and\n  dup2\n  mstore\n  pop\n  pop\n    /* \"TVNProject/TVNStakingPool/TVNStakingPool.sol\":1618:1807  constructor(address _stakingNFT, address _rewardsToken) {... */\n  pop\n  pop\n    /* \"TVNProject/TVNStakingPool/TVNStakingPool.sol\":364:7005  contract TVNStakingPool {... */\n  jump(tag_6)\n    /* \"#utility.yul\":88:205   */\ntag_8:\n    /* \"#utility.yul\":197:198   */\n  0x00\n    /* \"#utility.yul\":194:195   */\n  dup1\n    /* \"#utility.yul\":187:199   */\n  revert\n    /* \"#utility.yul\":334:460   */\ntag_10:\n    /* \"#utility.yul\":371:378   */\n  0x00\n    /* \"#utility.yul\":411:453   */\n  0xffffffffffffffffffffffffffffffffffffffff\n    /* \"#utility.yul\":404:409   */\n  dup3\n    /* \"#utility.yul\":400:454   */\n  and\n    /* \"#utility.yul\":389:454   */\n  swap1\n  pop\n    /* \"#utility.yul\":334:460   */\n  swap2\n  swap1\n  pop\n  jump\t// out\n    /* \"#utility.yul\":466:562   */\ntag_11:\n    /* \"#utility.yul\":503:510   */\n  0x00\n    /* \"#utility.yul\":532:556   */\n  tag_20\n    /* \"#utility.yul\":550:555   */\n  dup3\n    /* \"#utility.yul\":532:556   */\n  tag_10\n  jump\t// in\ntag_20:\n    /* \"#utility.yul\":521:556   */\n  swap1\n  pop\n    /* \"#utility.yul\":466:562   */\n  swap2\n  swap1\n  pop\n  jump\t// out\n    /* \"#utility.yul\":568:690   */\ntag_12:\n    /* \"#utility.yul\":641:665   */\n  tag_22\n    /* \"#utility.yul\":659:664   */\n  dup2\n    /* \"#utility.yul\":641:665   */\n  tag_11\n  jump\t// in\ntag_22:\n    /* \"#utility.yul\":634:639   */\n  dup2\n    /* \"#utility.yul\":631:666   */\n  eq\n    /* \"#utility.yul\":621:684   */\n  tag_23\n  jumpi\n    /* \"#utility.yul\":680:681   */\n  0x00\n    /* \"#utility.yul\":677:678   */\n  dup1\n    /* \"#utility.yul\":670:682   */\n  revert\n    /* \"#utility.yul\":621:684   */\ntag_23:\n    /* \"#utility.yul\":568:690   */\n  pop\n  jump\t// out\n    /* \"#utility.yul\":696:839   */\ntag_13:\n    /* \"#utility.yul\":753:758   */\n  0x00\n    /* \"#utility.yul\":784:790   */\n  dup2\n    /* \"#utility.yul\":778:791   */\n  mload\n    /* \"#utility.yul\":769:791   */\n  swap1\n  pop\n    /* \"#utility.yul\":800:833   */\n  tag_25\n    /* \"#utility.yul\":827:832   */\n  dup2\n    /* \"#utility.yul\":800:833   */\n  tag_12\n  jump\t// in\ntag_25:\n    /* \"#utility.yul\":696:839   */\n  swap3\n  swap2\n  pop\n  pop\n  jump\t// out\n    /* \"#utility.yul\":845:1352   */\ntag_3:\n    /* \"#utility.yul\":924:930   */\n  0x00\n    /* \"#utility.yul\":932:938   */\n  dup1\n    /* \"#utility.yul\":981:983   */\n  0x40\n    /* \"#utility.yul\":969:978   */\n  dup4\n    /* \"#utility.yul\":960:967   */\n  dup6\n    /* \"#utility.yul\":956:979   */\n  sub\n    /* \"#utility.yul\":952:984   */\n  slt\n    /* \"#utility.yul\":949:1068   */\n  iszero\n  tag_27\n  jumpi\n    /* \"#utility.yul\":987:1066   */\n  tag_28\n  tag_8\n  jump\t// in\ntag_28:\n    /* \"#utility.yul\":949:1068   */\ntag_27:\n    /* \"#utility.yul\":1107:1108   */\n  0x00\n    /* \"#utility.yul\":1132:1196   */\n  tag_29\n    /* \"#utility.yul\":1188:1195   */\n  dup6\n    /* \"#utility.yul\":1179:1185   */\n  dup3\n    /* \"#utility.yul\":1168:1177   */\n  dup7\n    /* \"#utility.yul\":1164:1186   */\n  add\n    /* \"#utility.yul\":1132:1196   */\n  tag_13\n  jump\t// in\ntag_29:\n    /* \"#utility.yul\":1122:1196   */\n  swap3\n  pop\n    /* \"#utility.yul\":1078:1206   */\n  pop\n    /* \"#utility.yul\":1245:1247   */\n  0x20\n    /* \"#utility.yul\":1271:1335   */\n  tag_30\n    /* \"#utility.yul\":1327:1334   */\n  dup6\n    /* \"#utility.yul\":1318:1324   */\n  dup3\n    /* \"#utility.yul\":1307:1316   */\n  dup7\n    /* \"#utility.yul\":1303:1325   */\n  add\n    /* \"#utility.yul\":1271:1335   */\n  tag_13\n  jump\t// in\ntag_30:\n    /* \"#utility.yul\":1261:1335   */\n  swap2\n  pop\n    /* \"#utility.yul\":1216:1345   */\n  pop\n    /* \"#utility.yul\":845:1352   */\n  swap3\n  pop\n  swap3\n  swap1\n  pop\n  jump\t// out\n    /* \"TVNProject/TVNStakingPool/TVNStakingPool.sol\":364:7005  contract TVNStakingPool {... */\ntag_6:\n  mload(0x80)\n  mload(0xa0)\n  codecopy(0x00, dataOffset(sub_0), dataSize(sub_0))\n  0x00\n  assignImmutable(\"0x41e56607cad04c134e4e470c9fce76566c1848af363d3617ff5ce2939142f7f3\")\n  0x00\n  assignImmutable(\"0xe9d2e5d7dcf681fb037cdc034b01f1fe792271e130f784f84f54ff4ae7a73679\")\n  return(0x00, dataSize(sub_0))\nstop\n\nsub_0: assembly {\n        /* \"TVNProject/TVNStakingPool/TVNStakingPool.sol\":364:7005  contract TVNStakingPool {... */\n      mstore(0x40, 0x80)\n      callvalue\n      dup1\n      iszero\n      tag_1\n      jumpi\n      0x00\n      dup1\n      revert\n    tag_1:\n      pop\n      jumpi(tag_2, lt(calldatasize, 0x04))\n      shr(0xe0, calldataload(0x00))\n      dup1\n      0x7b0a47ee\n      gt\n      tag_32\n      jumpi\n      dup1\n      0xc1a489df\n      gt\n      tag_33\n      jumpi\n      dup1\n      0xd1af0c7d\n      gt\n      tag_34\n      jumpi\n      dup1\n      0xd1af0c7d\n      eq\n      tag_28\n      jumpi\n      dup1\n      0xd60d4067\n      eq\n      tag_29\n      jumpi\n      dup1\n      0xe743752b\n      eq\n      tag_30\n      jumpi\n      dup1\n      0xf301af42\n      eq\n      tag_31\n      jumpi\n      jump(tag_2)\n    tag_34:\n      dup1\n      0xc1a489df\n      eq\n      tag_24\n      jumpi\n      dup1\n      0xc964f585\n      eq\n      tag_25\n      jumpi\n      dup1\n      0xcc1a378f\n      eq\n      tag_26\n      jumpi\n      dup1\n      0xcd3daf9d\n      eq\n      tag_27\n      jumpi\n      jump(tag_2)\n    tag_33:\n      dup1\n      0x8da5cb5b\n      gt\n      tag_35\n      jumpi\n      dup1\n      0x8da5cb5b\n      eq\n      tag_20\n      jumpi\n      dup1\n      0x9cc7f708\n      eq\n      tag_21\n      jumpi\n      dup1\n      0xa694fc3a\n      eq\n      tag_22\n      jumpi\n      dup1\n      0xb8206e7a\n      eq\n      tag_23\n      jumpi\n      jump(tag_2)\n    tag_35:\n      dup1\n      0x7b0a47ee\n      eq\n      tag_17\n      jumpi\n      dup1\n      0x802c981d\n      eq\n      tag_18\n      jumpi\n      dup1\n      0x80faa57d\n      eq\n      tag_19\n      jumpi\n      jump(tag_2)\n    tag_32:\n      dup1\n      0x1c4b774b\n      gt\n      tag_36\n      jumpi\n      dup1\n      0x3c6b16ab\n      gt\n      tag_37\n      jumpi\n      dup1\n      0x3c6b16ab\n      eq\n      tag_13\n      jumpi\n      dup1\n      0x4d6ed8c4\n      eq\n      tag_14\n      jumpi\n      dup1\n      0x67d3b488\n      eq\n      tag_15\n      jumpi\n      dup1\n      0x6c6f858b\n      eq\n      tag_16\n      jumpi\n      jump(tag_2)\n    tag_37:\n      dup1\n      0x1c4b774b\n      eq\n      tag_10\n      jumpi\n      dup1\n      0x2e17de78\n      eq\n      tag_11\n      jumpi\n      dup1\n      0x2ef64fc5\n      eq\n      tag_12\n      jumpi\n      jump(tag_2)\n    tag_36:\n      dup1\n      0x0ce71e32\n      gt\n      tag_38\n      jumpi\n      dup1\n      0x0ce71e32\n      eq\n      tag_6\n      jumpi\n      dup1\n      0x0fb5a6b4\n      eq\n      tag_7\n      jumpi\n      dup1\n      0x150b7a02\n      eq\n      tag_8\n      jumpi\n      dup1\n      0x18160ddd\n      eq\n      tag_9\n      jumpi\n      jump(tag_2)\n    tag_38:\n      dup1\n      0x01ffc9a7\n      eq\n      tag_3\n      jumpi\n      dup1\n      0x0889bdc8\n      eq\n      tag_4\n      jumpi\n      dup1\n      0x08e73cc1\n      eq\n      tag_5\n      jumpi\n    tag_2:\n      0x00\n      dup1\n      revert\n        /* \"TVNProject/TVNStakingPool/TVNStakingPool.sol\":5408:5644  function supportsInterface(bytes4 interfaceID)... */\n    tag_3:\n      tag_39\n      0x04\n      dup1\n      calldatasize\n      sub\n      dup2\n      add\n      swap1\n      tag_40\n      swap2\n      swap1\n      tag_41\n      jump\t// in\n    tag_40:\n      tag_42\n      jump\t// in\n    tag_39:\n      mload(0x40)\n      tag_43\n      swap2\n      swap1\n      tag_44\n      jump\t// in\n    tag_43:\n      mload(0x40)\n      dup1\n      swap2\n      sub\n      swap1\n      return\n        /* \"TVNProject/TVNStakingPool/TVNStakingPool.sol\":981:1067  mapping(address => mapping(uint256 => uint256))... */\n    tag_4:\n      tag_45\n      0x04\n      dup1\n      calldatasize\n      sub\n      dup2\n      add\n      swap1\n      tag_46\n      swap2\n      swap1\n      tag_47\n      jump\t// in\n    tag_46:\n      tag_48\n      jump\t// in\n    tag_45:\n      mload(0x40)\n      tag_49\n      swap2\n      swap1\n      tag_50\n      jump\t// in\n    tag_49:\n      mload(0x40)\n      dup1\n      swap2\n      sub\n      swap1\n      return\n        /* \"TVNProject/TVNStakingPool/TVNStakingPool.sol\":923:975  mapping(address => uint256[]) public ownedStakingNFT */\n    tag_5:\n      tag_51\n      0x04\n      dup1\n      calldatasize\n      sub\n      dup2\n      add\n      swap1\n      tag_52\n      swap2\n      swap1\n      tag_47\n      jump\t// in\n    tag_52:\n      tag_53\n      jump\t// in\n    tag_51:\n      mload(0x40)\n      tag_54\n      swap2\n      swap1\n      tag_50\n      jump\t// in\n    tag_54:\n      mload(0x40)\n      dup1\n      swap2\n      sub\n      swap1\n      return\n        /* \"TVNProject/TVNStakingPool/TVNStakingPool.sol\":394:438  IPositionManager public immutable stakingNFT */\n    tag_6:\n      tag_55\n      tag_56\n      jump\t// in\n    tag_55:\n      mload(0x40)\n      tag_57\n      swap2\n      swap1\n      tag_58\n      jump\t// in\n    tag_57:\n      mload(0x40)\n      dup1\n      swap2\n      sub\n      swap1\n      return\n        /* \"TVNProject/TVNStakingPool/TVNStakingPool.sol\":514:537  uint256 public duration */\n    tag_7:\n      tag_59\n      tag_60\n      jump\t// in\n    tag_59:\n      mload(0x40)\n      tag_61\n      swap2\n      swap1\n      tag_50\n      jump\t// in\n    tag_61:\n      mload(0x40)\n      dup1\n      swap2\n      sub\n      swap1\n      return\n        /* \"TVNProject/TVNStakingPool/TVNStakingPool.sol\":5210:5402  function onERC721Received(... */\n    tag_8:\n      tag_62\n      0x04\n      dup1\n      calldatasize\n      sub\n      dup2\n      add\n      swap1\n      tag_63\n      swap2\n      swap1\n      tag_64\n      jump\t// in\n    tag_63:\n      tag_65\n      jump\t// in\n    tag_62:\n      mload(0x40)\n      tag_66\n      swap2\n      swap1\n      tag_67\n      jump\t// in\n    tag_66:\n      mload(0x40)\n      dup1\n      swap2\n      sub\n      swap1\n      return\n        /* \"TVNProject/TVNStakingPool/TVNStakingPool.sol\":873:899  uint256 public totalSupply */\n    tag_9:\n      tag_68\n      tag_69\n      jump\t// in\n    tag_68:\n      mload(0x40)\n      tag_70\n      swap2\n      swap1\n      tag_50\n      jump\t// in\n    tag_70:\n      mload(0x40)\n      dup1\n      swap2\n      sub\n      swap1\n      return\n        /* \"TVNProject/TVNStakingPool/TVNStakingPool.sol\":4557:4861  function getReward(uint256 _tokenId) public updateReward(_tokenId) {... */\n    tag_10:\n      tag_71\n      0x04\n      dup1\n      calldatasize\n      sub\n      dup2\n      add\n      swap1\n      tag_72\n      swap2\n      swap1\n      tag_73\n      jump\t// in\n    tag_72:\n      tag_74\n      jump\t// in\n    tag_71:\n      stop\n        /* \"TVNProject/TVNStakingPool/TVNStakingPool.sol\":3403:3846  function unstake(uint256 _tokenId) external updateReward(_tokenId) {... */\n    tag_11:\n      tag_75\n      0x04\n      dup1\n      calldatasize\n      sub\n      dup2\n      add\n      swap1\n      tag_76\n      swap2\n      swap1\n      tag_73\n      jump\t// in\n    tag_76:\n      tag_77\n      jump\t// in\n    tag_75:\n      stop\n        /* \"TVNProject/TVNStakingPool/TVNStakingPool.sol\":6801:7003  function _getABIEncodedForHarvest(string memory _func, uint256 _tokenId)... */\n    tag_12:\n      tag_78\n      0x04\n      dup1\n      calldatasize\n      sub\n      dup2\n      add\n      swap1\n      tag_79\n      swap2\n      swap1\n      tag_80\n      jump\t// in\n    tag_79:\n      tag_81\n      jump\t// in\n    tag_78:\n      mload(0x40)\n      tag_82\n      swap2\n      swap1\n      tag_83\n      jump\t// in\n    tag_82:\n      mload(0x40)\n      dup1\n      swap2\n      sub\n      swap1\n      return\n        /* \"TVNProject/TVNStakingPool/TVNStakingPool.sol\":2060:2713  function notifyRewardAmount(uint256 _amount)... */\n    tag_13:\n      tag_84\n      0x04\n      dup1\n      calldatasize\n      sub\n      dup2\n      add\n      swap1\n      tag_85\n      swap2\n      swap1\n      tag_73\n      jump\t// in\n    tag_85:\n      tag_86\n      jump\t// in\n    tag_84:\n      stop\n        /* \"TVNProject/TVNStakingPool/TVNStakingPool.sol\":4317:4551  function earned(uint256 _tokenId) public view returns (uint256) {... */\n    tag_14:\n      tag_87\n      0x04\n      dup1\n      calldatasize\n      sub\n      dup2\n      add\n      swap1\n      tag_88\n      swap2\n      swap1\n      tag_73\n      jump\t// in\n    tag_88:\n      tag_89\n      jump\t// in\n    tag_87:\n      mload(0x40)\n      tag_90\n      swap2\n      swap1\n      tag_50\n      jump\t// in\n    tag_90:\n      mload(0x40)\n      dup1\n      swap2\n      sub\n      swap1\n      return\n        /* \"TVNProject/TVNStakingPool/TVNStakingPool.sol\":543:566  uint256 public finishAt */\n    tag_15:\n      tag_91\n      tag_92\n      jump\t// in\n    tag_91:\n      mload(0x40)\n      tag_93\n      swap2\n      swap1\n      tag_50\n      jump\t// in\n    tag_93:\n      mload(0x40)\n      dup1\n      swap2\n      sub\n      swap1\n      return\n        /* \"TVNProject/TVNStakingPool/TVNStakingPool.sol\":711:768  mapping(uint256 => uint256) public userRewardPerTokenPaid */\n    tag_16:\n      tag_94\n      0x04\n      dup1\n      calldatasize\n      sub\n      dup2\n      add\n      swap1\n      tag_95\n      swap2\n      swap1\n      tag_73\n      jump\t// in\n    tag_95:\n      tag_96\n      jump\t// in\n    tag_94:\n      mload(0x40)\n      tag_97\n      swap2\n      swap1\n      tag_50\n      jump\t// in\n    tag_97:\n      mload(0x40)\n      dup1\n      swap2\n      sub\n      swap1\n      return\n        /* \"TVNProject/TVNStakingPool/TVNStakingPool.sol\":601:626  uint256 public rewardRate */\n    tag_17:\n      tag_98\n      tag_99\n      jump\t// in\n    tag_98:\n      mload(0x40)\n      tag_100\n      swap2\n      swap1\n      tag_50\n      jump\t// in\n    tag_100:\n      mload(0x40)\n      dup1\n      swap2\n      sub\n      swap1\n      return\n        /* \"TVNProject/TVNStakingPool/TVNStakingPool.sol\":632:667  uint256 public rewardPertokenStored */\n    tag_18:\n      tag_101\n      tag_102\n      jump\t// in\n    tag_101:\n      mload(0x40)\n      tag_103\n      swap2\n      swap1\n      tag_50\n      jump\t// in\n    tag_103:\n      mload(0x40)\n      dup1\n      swap2\n      sub\n      swap1\n      return\n        /* \"TVNProject/TVNStakingPool/TVNStakingPool.sol\":3852:3973  function lastTimeRewardApplicable() public view returns (uint256) {... */\n    tag_19:\n      tag_104\n      tag_105\n      jump\t// in\n    tag_104:\n      mload(0x40)\n      tag_106\n      swap2\n      swap1\n      tag_50\n      jump\t// in\n    tag_106:\n      mload(0x40)\n      dup1\n      swap2\n      sub\n      swap1\n      return\n        /* \"TVNProject/TVNStakingPool/TVNStakingPool.sol\":487:507  address public owner */\n    tag_20:\n      tag_107\n      tag_108\n      jump\t// in\n    tag_107:\n      mload(0x40)\n      tag_109\n      swap2\n      swap1\n      tag_110\n      jump\t// in\n    tag_109:\n      mload(0x40)\n      dup1\n      swap2\n      sub\n      swap1\n      return\n        /* \"TVNProject/TVNStakingPool/TVNStakingPool.sol\":822:866  mapping(uint256 => uint256) public balanceOf */\n    tag_21:\n      tag_111\n      0x04\n      dup1\n      calldatasize\n      sub\n      dup2\n      add\n      swap1\n      tag_112\n      swap2\n      swap1\n      tag_73\n      jump\t// in\n    tag_112:\n      tag_113\n      jump\t// in\n    tag_111:\n      mload(0x40)\n      tag_114\n      swap2\n      swap1\n      tag_50\n      jump\t// in\n    tag_114:\n      mload(0x40)\n      dup1\n      swap2\n      sub\n      swap1\n      return\n        /* \"TVNProject/TVNStakingPool/TVNStakingPool.sol\":2719:3397  function stake(uint256 _tokenId) external updateReward(_tokenId) {... */\n    tag_22:\n      tag_115\n      0x04\n      dup1\n      calldatasize\n      sub\n      dup2\n      add\n      swap1\n      tag_116\n      swap2\n      swap1\n      tag_73\n      jump\t// in\n    tag_116:\n      tag_117\n      jump\t// in\n    tag_115:\n      stop\n        /* \"TVNProject/TVNStakingPool/TVNStakingPool.sol\":4867:4989  function getOwnedStakingNFT() external view returns (uint256[] memory) {... */\n    tag_23:\n      tag_118\n      tag_119\n      jump\t// in\n    tag_118:\n      mload(0x40)\n      tag_120\n      swap2\n      swap1\n      tag_121\n      jump\t// in\n    tag_120:\n      mload(0x40)\n      dup1\n      swap2\n      sub\n      swap1\n      return\n        /* \"TVNProject/TVNStakingPool/TVNStakingPool.sol\":1153:1196  mapping(uint256 => uint256) public NFTIndex */\n    tag_24:\n      tag_122\n      0x04\n      dup1\n      calldatasize\n      sub\n      dup2\n      add\n      swap1\n      tag_123\n      swap2\n      swap1\n      tag_73\n      jump\t// in\n    tag_123:\n      tag_124\n      jump\t// in\n    tag_122:\n      mload(0x40)\n      tag_125\n      swap2\n      swap1\n      tag_50\n      jump\t// in\n    tag_125:\n      mload(0x40)\n      dup1\n      swap2\n      sub\n      swap1\n      return\n        /* \"TVNProject/TVNStakingPool/TVNStakingPool.sol\":572:595  uint256 public updateAt */\n    tag_25:\n      tag_126\n      tag_127\n      jump\t// in\n    tag_126:\n      mload(0x40)\n      tag_128\n      swap2\n      swap1\n      tag_50\n      jump\t// in\n    tag_128:\n      mload(0x40)\n      dup1\n      swap2\n      sub\n      swap1\n      return\n        /* \"TVNProject/TVNStakingPool/TVNStakingPool.sol\":1813:1993  function setRewardsDuration(uint256 _duration) external onlyOwner {... */\n    tag_26:\n      tag_129\n      0x04\n      dup1\n      calldatasize\n      sub\n      dup2\n      add\n      swap1\n      tag_130\n      swap2\n      swap1\n      tag_73\n      jump\t// in\n    tag_130:\n      tag_131\n      jump\t// in\n    tag_129:\n      stop\n        /* \"TVNProject/TVNStakingPool/TVNStakingPool.sol\":3979:4276  function rewardPerToken() public view returns (uint256) {... */\n    tag_27:\n      tag_132\n      tag_133\n      jump\t// in\n    tag_132:\n      mload(0x40)\n      tag_134\n      swap2\n      swap1\n      tag_50\n      jump\t// in\n    tag_134:\n      mload(0x40)\n      dup1\n      swap2\n      sub\n      swap1\n      return\n        /* \"TVNProject/TVNStakingPool/TVNStakingPool.sol\":444:480  IERC20 public immutable rewardsToken */\n    tag_28:\n      tag_135\n      tag_136\n      jump\t// in\n    tag_135:\n      mload(0x40)\n      tag_137\n      swap2\n      swap1\n      tag_138\n      jump\t// in\n    tag_137:\n      mload(0x40)\n      dup1\n      swap2\n      sub\n      swap1\n      return\n        /* \"TVNProject/TVNStakingPool/TVNStakingPool.sol\":4995:5094  function getAllNFTStaking() external view returns (uint256[] memory) {... */\n    tag_29:\n      tag_139\n      tag_140\n      jump\t// in\n    tag_139:\n      mload(0x40)\n      tag_141\n      swap2\n      swap1\n      tag_121\n      jump\t// in\n    tag_141:\n      mload(0x40)\n      dup1\n      swap2\n      sub\n      swap1\n      return\n        /* \"TVNProject/TVNStakingPool/TVNStakingPool.sol\":1124:1147  uint256[] public allNFT */\n    tag_30:\n      tag_142\n      0x04\n      dup1\n      calldatasize\n      sub\n      dup2\n      add\n      swap1\n      tag_143\n      swap2\n      swap1\n      tag_73\n      jump\t// in\n    tag_143:\n      tag_144\n      jump\t// in\n    tag_142:\n      mload(0x40)\n      tag_145\n      swap2\n      swap1\n      tag_50\n      jump\t// in\n    tag_145:\n      mload(0x40)\n      dup1\n      swap2\n      sub\n      swap1\n      return\n        /* \"TVNProject/TVNStakingPool/TVNStakingPool.sol\":774:816  mapping(uint256 => uint256) public rewards */\n    tag_31:\n      tag_146\n      0x04\n      dup1\n      calldatasize\n      sub\n      dup2\n      add\n      swap1\n      tag_147\n      swap2\n      swap1\n      tag_73\n      jump\t// in\n    tag_147:\n      tag_148\n      jump\t// in\n    tag_146:\n      mload(0x40)\n      tag_149\n      swap2\n      swap1\n      tag_50\n      jump\t// in\n    tag_149:\n      mload(0x40)\n      dup1\n      swap2\n      sub\n      swap1\n      return\n        /* \"TVNProject/TVNStakingPool/TVNStakingPool.sol\":5408:5644  function supportsInterface(bytes4 interfaceID)... */\n    tag_42:\n        /* \"TVNProject/TVNStakingPool/TVNStakingPool.sol\":5502:5506  bool */\n      0x00\n        /* \"TVNProject/TVNStakingPool/TVNStakingPool.sol\":5556:5581  type(IERC721).interfaceId */\n      0x80ac58cd00000000000000000000000000000000000000000000000000000000\n        /* \"TVNProject/TVNStakingPool/TVNStakingPool.sol\":5541:5581  interfaceID == type(IERC721).interfaceId */\n      not(0xffffffffffffffffffffffffffffffffffffffffffffffffffffffff)\n      and\n        /* \"TVNProject/TVNStakingPool/TVNStakingPool.sol\":5541:5552  interfaceID */\n      dup3\n        /* \"TVNProject/TVNStakingPool/TVNStakingPool.sol\":5541:5581  interfaceID == type(IERC721).interfaceId */\n      not(0xffffffffffffffffffffffffffffffffffffffffffffffffffffffff)\n      and\n      eq\n        /* \"TVNProject/TVNStakingPool/TVNStakingPool.sol\":5541:5637  interfaceID == type(IERC721).interfaceId ||... */\n      dup1\n      tag_151\n      jumpi\n      pop\n        /* \"TVNProject/TVNStakingPool/TVNStakingPool.sol\":5612:5637  type(IERC165).interfaceId */\n      0x01ffc9a700000000000000000000000000000000000000000000000000000000\n        /* \"TVNProject/TVNStakingPool/TVNStakingPool.sol\":5597:5637  interfaceID == type(IERC165).interfaceId */\n      not(0xffffffffffffffffffffffffffffffffffffffffffffffffffffffff)\n      and\n        /* \"TVNProject/TVNStakingPool/TVNStakingPool.sol\":5597:5608  interfaceID */\n      dup3\n        /* \"TVNProject/TVNStakingPool/TVNStakingPool.sol\":5597:5637  interfaceID == type(IERC165).interfaceId */\n      not(0xffffffffffffffffffffffffffffffffffffffffffffffffffffffff)\n      and\n      eq\n        /* \"TVNProject/TVNStakingPool/TVNStakingPool.sol\":5541:5637  interfaceID == type(IERC721).interfaceId ||... */\n    tag_151:\n        /* \"TVNProject/TVNStakingPool/TVNStakingPool.sol\":5522:5637  return... */\n      swap1\n      pop\n        /* \"TVNProject/TVNStakingPool/TVNStakingPool.sol\":5408:5644  function supportsInterface(bytes4 interfaceID)... */\n      swap2\n      swap1\n      pop\n      jump\t// out\n        /* \"TVNProject/TVNStakingPool/TVNStakingPool.sol\":981:1067  mapping(address => mapping(uint256 => uint256))... */\n    tag_48:\n      mstore(0x20, 0x0b)\n      dup2\n      0x00\n      mstore\n      mstore(0x20, keccak256(0x00, 0x40))\n      dup1\n      0x00\n      mstore\n      keccak256(0x00, 0x40)\n      0x00\n      swap2\n      pop\n      swap2\n      pop\n      pop\n      sload\n      dup2\n      jump\t// out\n        /* \"TVNProject/TVNStakingPool/TVNStakingPool.sol\":923:975  mapping(address => uint256[]) public ownedStakingNFT */\n    tag_53:\n      mstore(0x20, 0x0a)\n      dup2\n      0x00\n      mstore\n      keccak256(0x00, 0x40)\n      dup2\n      dup2\n      sload\n      dup2\n      lt\n      tag_152\n      jumpi\n      0x00\n      dup1\n      revert\n    tag_152:\n      swap1\n      0x00\n      mstore\n      keccak256(0x00, 0x20)\n      add\n      0x00\n      swap2\n      pop\n      swap2\n      pop\n      pop\n      sload\n      dup2\n      jump\t// out\n        /* \"TVNProject/TVNStakingPool/TVNStakingPool.sol\":394:438  IPositionManager public immutable stakingNFT */\n    tag_56:\n      immutable(\"0xe9d2e5d7dcf681fb037cdc034b01f1fe792271e130f784f84f54ff4ae7a73679\")\n      dup2\n      jump\t// out\n        /* \"TVNProject/TVNStakingPool/TVNStakingPool.sol\":514:537  uint256 public duration */\n    tag_60:\n      sload(0x01)\n      dup2\n      jump\t// out\n        /* \"TVNProject/TVNStakingPool/TVNStakingPool.sol\":5210:5402  function onERC721Received(... */\n    tag_65:\n        /* \"TVNProject/TVNStakingPool/TVNStakingPool.sol\":5340:5346  bytes4 */\n      0x00\n        /* \"TVNProject/TVNStakingPool/TVNStakingPool.sol\":5365:5395  this.onERC721Received.selector */\n      shl(0xe0, 0x150b7a02)\n        /* \"TVNProject/TVNStakingPool/TVNStakingPool.sol\":5358:5395  return this.onERC721Received.selector */\n      swap1\n      pop\n        /* \"TVNProject/TVNStakingPool/TVNStakingPool.sol\":5210:5402  function onERC721Received(... */\n      swap6\n      swap5\n      pop\n      pop\n      pop\n      pop\n      pop\n      jump\t// out\n        /* \"TVNProject/TVNStakingPool/TVNStakingPool.sol\":873:899  uint256 public totalSupply */\n    tag_69:\n      sload(0x09)\n      dup2\n      jump\t// out\n        /* \"TVNProject/TVNStakingPool/TVNStakingPool.sol\":4557:4861  function getReward(uint256 _tokenId) public updateReward(_tokenId) {... */\n    tag_74:\n        /* \"TVNProject/TVNStakingPool/TVNStakingPool.sol\":4614:4622  _tokenId */\n      dup1\n        /* \"TVNProject/TVNStakingPool/TVNStakingPool.sol\":1372:1388  rewardPerToken() */\n      tag_156\n        /* \"TVNProject/TVNStakingPool/TVNStakingPool.sol\":1372:1386  rewardPerToken */\n      tag_133\n        /* \"TVNProject/TVNStakingPool/TVNStakingPool.sol\":1372:1388  rewardPerToken() */\n      jump\t// in\n    tag_156:\n        /* \"TVNProject/TVNStakingPool/TVNStakingPool.sol\":1349:1369  rewardPertokenStored */\n      0x05\n        /* \"TVNProject/TVNStakingPool/TVNStakingPool.sol\":1349:1388  rewardPertokenStored = rewardPerToken() */\n      dup2\n      swap1\n      sstore\n      pop\n        /* \"TVNProject/TVNStakingPool/TVNStakingPool.sol\":1409:1435  lastTimeRewardApplicable() */\n      tag_157\n        /* \"TVNProject/TVNStakingPool/TVNStakingPool.sol\":1409:1433  lastTimeRewardApplicable */\n      tag_105\n        /* \"TVNProject/TVNStakingPool/TVNStakingPool.sol\":1409:1435  lastTimeRewardApplicable() */\n      jump\t// in\n    tag_157:\n        /* \"TVNProject/TVNStakingPool/TVNStakingPool.sol\":1398:1406  updateAt */\n      0x03\n        /* \"TVNProject/TVNStakingPool/TVNStakingPool.sol\":1398:1435  updateAt = lastTimeRewardApplicable() */\n      dup2\n      swap1\n      sstore\n      pop\n        /* \"TVNProject/TVNStakingPool/TVNStakingPool.sol\":1462:1463  0 */\n      0x00\n        /* \"TVNProject/TVNStakingPool/TVNStakingPool.sol\":1450:1458  _tokenId */\n      dup2\n        /* \"TVNProject/TVNStakingPool/TVNStakingPool.sol\":1450:1463  _tokenId != 0 */\n      eq\n        /* \"TVNProject/TVNStakingPool/TVNStakingPool.sol\":1446:1595  if (_tokenId != 0) {... */\n      tag_158\n      jumpi\n        /* \"TVNProject/TVNStakingPool/TVNStakingPool.sol\":1499:1515  earned(_tokenId) */\n      tag_159\n        /* \"TVNProject/TVNStakingPool/TVNStakingPool.sol\":1506:1514  _tokenId */\n      dup2\n        /* \"TVNProject/TVNStakingPool/TVNStakingPool.sol\":1499:1505  earned */\n      tag_89\n        /* \"TVNProject/TVNStakingPool/TVNStakingPool.sol\":1499:1515  earned(_tokenId) */\n      jump\t// in\n    tag_159:\n        /* \"TVNProject/TVNStakingPool/TVNStakingPool.sol\":1479:1486  rewards */\n      0x07\n        /* \"TVNProject/TVNStakingPool/TVNStakingPool.sol\":1479:1496  rewards[_tokenId] */\n      0x00\n        /* \"TVNProject/TVNStakingPool/TVNStakingPool.sol\":1487:1495  _tokenId */\n      dup4\n        /* \"TVNProject/TVNStakingPool/TVNStakingPool.sol\":1479:1496  rewards[_tokenId] */\n      dup2\n      mstore\n      0x20\n      add\n      swap1\n      dup2\n      mstore\n      0x20\n      add\n      0x00\n      keccak256\n        /* \"TVNProject/TVNStakingPool/TVNStakingPool.sol\":1479:1515  rewards[_tokenId] = earned(_tokenId) */\n      dup2\n      swap1\n      sstore\n      pop\n        /* \"TVNProject/TVNStakingPool/TVNStakingPool.sol\":1564:1584  rewardPertokenStored */\n      sload(0x05)\n        /* \"TVNProject/TVNStakingPool/TVNStakingPool.sol\":1529:1551  userRewardPerTokenPaid */\n      0x06\n        /* \"TVNProject/TVNStakingPool/TVNStakingPool.sol\":1529:1561  userRewardPerTokenPaid[_tokenId] */\n      0x00\n        /* \"TVNProject/TVNStakingPool/TVNStakingPool.sol\":1552:1560  _tokenId */\n      dup4\n        /* \"TVNProject/TVNStakingPool/TVNStakingPool.sol\":1529:1561  userRewardPerTokenPaid[_tokenId] */\n      dup2\n      mstore\n      0x20\n      add\n      swap1\n      dup2\n      mstore\n      0x20\n      add\n      0x00\n      keccak256\n        /* \"TVNProject/TVNStakingPool/TVNStakingPool.sol\":1529:1584  userRewardPerTokenPaid[_tokenId] = rewardPertokenStored */\n      dup2\n      swap1\n      sstore\n      pop\n        /* \"TVNProject/TVNStakingPool/TVNStakingPool.sol\":1446:1595  if (_tokenId != 0) {... */\n    tag_158:\n        /* \"TVNProject/TVNStakingPool/TVNStakingPool.sol\":4634:4648  uint256 reward */\n      0x00\n        /* \"TVNProject/TVNStakingPool/TVNStakingPool.sol\":4651:4658  rewards */\n      0x07\n        /* \"TVNProject/TVNStakingPool/TVNStakingPool.sol\":4651:4668  rewards[_tokenId] */\n      0x00\n        /* \"TVNProject/TVNStakingPool/TVNStakingPool.sol\":4659:4667  _tokenId */\n      dup5\n        /* \"TVNProject/TVNStakingPool/TVNStakingPool.sol\":4651:4668  rewards[_tokenId] */\n      dup2\n      mstore\n      0x20\n      add\n      swap1\n      dup2\n      mstore\n      0x20\n      add\n      0x00\n      keccak256\n      sload\n        /* \"TVNProject/TVNStakingPool/TVNStakingPool.sol\":4634:4668  uint256 reward = rewards[_tokenId] */\n      swap1\n      pop\n        /* \"TVNProject/TVNStakingPool/TVNStakingPool.sol\":4678:4692  address staker */\n      0x00\n        /* \"TVNProject/TVNStakingPool/TVNStakingPool.sol\":4695:4705  stakingNFT */\n      immutable(\"0xe9d2e5d7dcf681fb037cdc034b01f1fe792271e130f784f84f54ff4ae7a73679\")\n        /* \"TVNProject/TVNStakingPool/TVNStakingPool.sol\":4695:4715  stakingNFT.positions */\n      0xffffffffffffffffffffffffffffffffffffffff\n      and\n      0x99fbab88\n        /* \"TVNProject/TVNStakingPool/TVNStakingPool.sol\":4716:4724  _tokenId */\n      dup6\n        /* \"TVNProject/TVNStakingPool/TVNStakingPool.sol\":4695:4725  stakingNFT.positions(_tokenId) */\n      mload(0x40)\n      dup3\n      0xffffffff\n      and\n      0xe0\n      shl\n      dup2\n      mstore\n      0x04\n      add\n      tag_161\n      swap2\n      swap1\n      tag_50\n      jump\t// in\n    tag_161:\n      0xe0\n      mload(0x40)\n      dup1\n      dup4\n      sub\n      dup2\n      0x00\n      dup8\n      gas\n      call\n      iszero\n      dup1\n      iszero\n      tag_163\n      jumpi\n      returndatasize\n      0x00\n      dup1\n      returndatacopy\n      revert(0x00, returndatasize)\n    tag_163:\n      pop\n      pop\n      pop\n      pop\n      mload(0x40)\n      returndatasize\n      not(0x1f)\n      0x1f\n      dup3\n      add\n      and\n      dup3\n      add\n      dup1\n      0x40\n      mstore\n      pop\n      dup2\n      add\n      swap1\n      tag_164\n      swap2\n      swap1\n      tag_165\n      jump\t// in\n    tag_164:\n        /* \"TVNProject/TVNStakingPool/TVNStakingPool.sol\":4695:4731  stakingNFT.positions(_tokenId).owner */\n      0x20\n      add\n      mload\n        /* \"TVNProject/TVNStakingPool/TVNStakingPool.sol\":4678:4731  address staker = stakingNFT.positions(_tokenId).owner */\n      swap1\n      pop\n        /* \"TVNProject/TVNStakingPool/TVNStakingPool.sol\":4755:4756  0 */\n      0x00\n        /* \"TVNProject/TVNStakingPool/TVNStakingPool.sol\":4746:4752  reward */\n      dup3\n        /* \"TVNProject/TVNStakingPool/TVNStakingPool.sol\":4746:4756  reward > 0 */\n      gt\n        /* \"TVNProject/TVNStakingPool/TVNStakingPool.sol\":4742:4855  if (reward > 0) {... */\n      iszero\n      tag_166\n      jumpi\n        /* \"TVNProject/TVNStakingPool/TVNStakingPool.sol\":4792:4793  0 */\n      0x00\n        /* \"TVNProject/TVNStakingPool/TVNStakingPool.sol\":4772:4779  rewards */\n      0x07\n        /* \"TVNProject/TVNStakingPool/TVNStakingPool.sol\":4772:4789  rewards[_tokenId] */\n      0x00\n        /* \"TVNProject/TVNStakingPool/TVNStakingPool.sol\":4780:4788  _tokenId */\n      dup7\n        /* \"TVNProject/TVNStakingPool/TVNStakingPool.sol\":4772:4789  rewards[_tokenId] */\n      dup2\n      mstore\n      0x20\n      add\n      swap1\n      dup2\n      mstore\n      0x20\n      add\n      0x00\n      keccak256\n        /* \"TVNProject/TVNStakingPool/TVNStakingPool.sol\":4772:4793  rewards[_tokenId] = 0 */\n      dup2\n      swap1\n      sstore\n      pop\n        /* \"TVNProject/TVNStakingPool/TVNStakingPool.sol\":4807:4819  rewardsToken */\n      immutable(\"0x41e56607cad04c134e4e470c9fce76566c1848af363d3617ff5ce2939142f7f3\")\n        /* \"TVNProject/TVNStakingPool/TVNStakingPool.sol\":4807:4828  rewardsToken.transfer */\n      0xffffffffffffffffffffffffffffffffffffffff\n      and\n      0xa9059cbb\n        /* \"TVNProject/TVNStakingPool/TVNStakingPool.sol\":4829:4835  staker */\n      dup3\n        /* \"TVNProject/TVNStakingPool/TVNStakingPool.sol\":4837:4843  reward */\n      dup5\n        /* \"TVNProject/TVNStakingPool/TVNStakingPool.sol\":4807:4844  rewardsToken.transfer(staker, reward) */\n      mload(0x40)\n      dup4\n      0xffffffff\n      and\n      0xe0\n      shl\n      dup2\n      mstore\n      0x04\n      add\n      tag_167\n      swap3\n      swap2\n      swap1\n      tag_168\n      jump\t// in\n    tag_167:\n      0x20\n      mload(0x40)\n      dup1\n      dup4\n      sub\n      dup2\n      0x00\n      dup8\n      gas\n      call\n      iszero\n      dup1\n      iszero\n      tag_170\n      jumpi\n      returndatasize\n      0x00\n      dup1\n      returndatacopy\n      revert(0x00, returndatasize)\n    tag_170:\n      pop\n      pop\n      pop\n      pop\n      mload(0x40)\n      returndatasize\n      not(0x1f)\n      0x1f\n      dup3\n      add\n      and\n      dup3\n      add\n      dup1\n      0x40\n      mstore\n      pop\n      dup2\n      add\n      swap1\n      tag_171\n      swap2\n      swap1\n      tag_172\n      jump\t// in\n    tag_171:\n      pop\n        /* \"TVNProject/TVNStakingPool/TVNStakingPool.sol\":4742:4855  if (reward > 0) {... */\n    tag_166:\n        /* \"TVNProject/TVNStakingPool/TVNStakingPool.sol\":4624:4861  {... */\n      pop\n      pop\n        /* \"TVNProject/TVNStakingPool/TVNStakingPool.sol\":4557:4861  function getReward(uint256 _tokenId) public updateReward(_tokenId) {... */\n      pop\n      pop\n      jump\t// out\n        /* \"TVNProject/TVNStakingPool/TVNStakingPool.sol\":3403:3846  function unstake(uint256 _tokenId) external updateReward(_tokenId) {... */\n    tag_77:\n        /* \"TVNProject/TVNStakingPool/TVNStakingPool.sol\":3460:3468  _tokenId */\n      dup1\n        /* \"TVNProject/TVNStakingPool/TVNStakingPool.sol\":1372:1388  rewardPerToken() */\n      tag_174\n        /* \"TVNProject/TVNStakingPool/TVNStakingPool.sol\":1372:1386  rewardPerToken */\n      tag_133\n        /* \"TVNProject/TVNStakingPool/TVNStakingPool.sol\":1372:1388  rewardPerToken() */\n      jump\t// in\n    tag_174:\n        /* \"TVNProject/TVNStakingPool/TVNStakingPool.sol\":1349:1369  rewardPertokenStored */\n      0x05\n        /* \"TVNProject/TVNStakingPool/TVNStakingPool.sol\":1349:1388  rewardPertokenStored = rewardPerToken() */\n      dup2\n      swap1\n      sstore\n      pop\n        /* \"TVNProject/TVNStakingPool/TVNStakingPool.sol\":1409:1435  lastTimeRewardApplicable() */\n      tag_175\n        /* \"TVNProject/TVNStakingPool/TVNStakingPool.sol\":1409:1433  lastTimeRewardApplicable */\n      tag_105\n        /* \"TVNProject/TVNStakingPool/TVNStakingPool.sol\":1409:1435  lastTimeRewardApplicable() */\n      jump\t// in\n    tag_175:\n        /* \"TVNProject/TVNStakingPool/TVNStakingPool.sol\":1398:1406  updateAt */\n      0x03\n        /* \"TVNProject/TVNStakingPool/TVNStakingPool.sol\":1398:1435  updateAt = lastTimeRewardApplicable() */\n      dup2\n      swap1\n      sstore\n      pop\n        /* \"TVNProject/TVNStakingPool/TVNStakingPool.sol\":1462:1463  0 */\n      0x00\n        /* \"TVNProject/TVNStakingPool/TVNStakingPool.sol\":1450:1458  _tokenId */\n      dup2\n        /* \"TVNProject/TVNStakingPool/TVNStakingPool.sol\":1450:1463  _tokenId != 0 */\n      eq\n        /* \"TVNProject/TVNStakingPool/TVNStakingPool.sol\":1446:1595  if (_tokenId != 0) {... */\n      tag_176\n      jumpi\n        /* \"TVNProject/TVNStakingPool/TVNStakingPool.sol\":1499:1515  earned(_tokenId) */\n      tag_177\n        /* \"TVNProject/TVNStakingPool/TVNStakingPool.sol\":1506:1514  _tokenId */\n      dup2\n        /* \"TVNProject/TVNStakingPool/TVNStakingPool.sol\":1499:1505  earned */\n      tag_89\n        /* \"TVNProject/TVNStakingPool/TVNStakingPool.sol\":1499:1515  earned(_tokenId) */\n      jump\t// in\n    tag_177:\n        /* \"TVNProject/TVNStakingPool/TVNStakingPool.sol\":1479:1486  rewards */\n      0x07\n        /* \"TVNProject/TVNStakingPool/TVNStakingPool.sol\":1479:1496  rewards[_tokenId] */\n      0x00\n        /* \"TVNProject/TVNStakingPool/TVNStakingPool.sol\":1487:1495  _tokenId */\n      dup4\n        /* \"TVNProject/TVNStakingPool/TVNStakingPool.sol\":1479:1496  rewards[_tokenId] */\n      dup2\n      mstore\n      0x20\n      add\n      swap1\n      dup2\n      mstore\n      0x20\n      add\n      0x00\n      keccak256\n        /* \"TVNProject/TVNStakingPool/TVNStakingPool.sol\":1479:1515  rewards[_tokenId] = earned(_tokenId) */\n      dup2\n      swap1\n      sstore\n      pop\n        /* \"TVNProject/TVNStakingPool/TVNStakingPool.sol\":1564:1584  rewardPertokenStored */\n      sload(0x05)\n        /* \"TVNProject/TVNStakingPool/TVNStakingPool.sol\":1529:1551  userRewardPerTokenPaid */\n      0x06\n        /* \"TVNProject/TVNStakingPool/TVNStakingPool.sol\":1529:1561  userRewardPerTokenPaid[_tokenId] */\n      0x00\n        /* \"TVNProject/TVNStakingPool/TVNStakingPool.sol\":1552:1560  _tokenId */\n      dup4\n        /* \"TVNProject/TVNStakingPool/TVNStakingPool.sol\":1529:1561  userRewardPerTokenPaid[_tokenId] */\n      dup2\n      mstore\n      0x20\n      add\n      swap1\n      dup2\n      mstore\n      0x20\n      add\n      0x00\n      keccak256\n        /* \"TVNProject/TVNStakingPool/TVNStakingPool.sol\":1529:1584  userRewardPerTokenPaid[_tokenId] = rewardPertokenStored */\n      dup2\n      swap1\n      sstore\n      pop\n        /* \"TVNProject/TVNStakingPool/TVNStakingPool.sol\":1446:1595  if (_tokenId != 0) {... */\n    tag_176:\n        /* \"TVNProject/TVNStakingPool/TVNStakingPool.sol\":3499:3500  0 */\n      0x00\n        /* \"TVNProject/TVNStakingPool/TVNStakingPool.sol\":3488:3496  _tokenId */\n      dup3\n        /* \"TVNProject/TVNStakingPool/TVNStakingPool.sol\":3488:3500  _tokenId > 0 */\n      gt\n        /* \"TVNProject/TVNStakingPool/TVNStakingPool.sol\":3480:3516  require(_tokenId > 0, \"tokenId = 0\") */\n      tag_179\n      jumpi\n      mload(0x40)\n      0x08c379a000000000000000000000000000000000000000000000000000000000\n      dup2\n      mstore\n      0x04\n      add\n      tag_180\n      swap1\n      tag_181\n      jump\t// in\n    tag_180:\n      mload(0x40)\n      dup1\n      swap2\n      sub\n      swap1\n      revert\n    tag_179:\n        /* \"TVNProject/TVNStakingPool/TVNStakingPool.sol\":3550:3560  stakingNFT */\n      immutable(\"0xe9d2e5d7dcf681fb037cdc034b01f1fe792271e130f784f84f54ff4ae7a73679\")\n        /* \"TVNProject/TVNStakingPool/TVNStakingPool.sol\":3550:3570  stakingNFT.positions */\n      0xffffffffffffffffffffffffffffffffffffffff\n      and\n      0x99fbab88\n        /* \"TVNProject/TVNStakingPool/TVNStakingPool.sol\":3571:3579  _tokenId */\n      dup4\n        /* \"TVNProject/TVNStakingPool/TVNStakingPool.sol\":3550:3580  stakingNFT.positions(_tokenId) */\n      mload(0x40)\n      dup3\n      0xffffffff\n      and\n      0xe0\n      shl\n      dup2\n      mstore\n      0x04\n      add\n      tag_182\n      swap2\n      swap1\n      tag_50\n      jump\t// in\n    tag_182:\n      0xe0\n      mload(0x40)\n      dup1\n      dup4\n      sub\n      dup2\n      0x00\n      dup8\n      gas\n      call\n      iszero\n      dup1\n      iszero\n      tag_184\n      jumpi\n      returndatasize\n      0x00\n      dup1\n      returndatacopy\n      revert(0x00, returndatasize)\n    tag_184:\n      pop\n      pop\n      pop\n      pop\n      mload(0x40)\n      returndatasize\n      not(0x1f)\n      0x1f\n      dup3\n      add\n      and\n      dup3\n      add\n      dup1\n      0x40\n      mstore\n      pop\n      dup2\n      add\n      swap1\n      tag_185\n      swap2\n      swap1\n      tag_165\n      jump\t// in\n    tag_185:\n        /* \"TVNProject/TVNStakingPool/TVNStakingPool.sol\":3550:3587  stakingNFT.positions(_tokenId).shares */\n      0x00\n      add\n      mload\n        /* \"TVNProject/TVNStakingPool/TVNStakingPool.sol\":3527:3536  balanceOf */\n      0x08\n        /* \"TVNProject/TVNStakingPool/TVNStakingPool.sol\":3527:3546  balanceOf[_tokenId] */\n      0x00\n        /* \"TVNProject/TVNStakingPool/TVNStakingPool.sol\":3537:3545  _tokenId */\n      dup5\n        /* \"TVNProject/TVNStakingPool/TVNStakingPool.sol\":3527:3546  balanceOf[_tokenId] */\n      dup2\n      mstore\n      0x20\n      add\n      swap1\n      dup2\n      mstore\n      0x20\n      add\n      0x00\n      keccak256\n      0x00\n        /* \"TVNProject/TVNStakingPool/TVNStakingPool.sol\":3527:3587  balanceOf[_tokenId] -= stakingNFT.positions(_tokenId).shares */\n      dup3\n      dup3\n      sload\n      tag_186\n      swap2\n      swap1\n      tag_187\n      jump\t// in\n    tag_186:\n      swap3\n      pop\n      pop\n      dup2\n      swap1\n      sstore\n      pop\n        /* \"TVNProject/TVNStakingPool/TVNStakingPool.sol\":3612:3622  stakingNFT */\n      immutable(\"0xe9d2e5d7dcf681fb037cdc034b01f1fe792271e130f784f84f54ff4ae7a73679\")\n        /* \"TVNProject/TVNStakingPool/TVNStakingPool.sol\":3612:3632  stakingNFT.positions */\n      0xffffffffffffffffffffffffffffffffffffffff\n      and\n      0x99fbab88\n        /* \"TVNProject/TVNStakingPool/TVNStakingPool.sol\":3633:3641  _tokenId */\n      dup4\n        /* \"TVNProject/TVNStakingPool/TVNStakingPool.sol\":3612:3642  stakingNFT.positions(_tokenId) */\n      mload(0x40)\n      dup3\n      0xffffffff\n      and\n      0xe0\n      shl\n      dup2\n      mstore\n      0x04\n      add\n      tag_188\n      swap2\n      swap1\n      tag_50\n      jump\t// in\n    tag_188:\n      0xe0\n      mload(0x40)\n      dup1\n      dup4\n      sub\n      dup2\n      0x00\n      dup8\n      gas\n      call\n      iszero\n      dup1\n      iszero\n      tag_190\n      jumpi\n      returndatasize\n      0x00\n      dup1\n      returndatacopy\n      revert(0x00, returndatasize)\n    tag_190:\n      pop\n      pop\n      pop\n      pop\n      mload(0x40)\n      returndatasize\n      not(0x1f)\n      0x1f\n      dup3\n      add\n      and\n      dup3\n      add\n      dup1\n      0x40\n      mstore\n      pop\n      dup2\n      add\n      swap1\n      tag_191\n      swap2\n      swap1\n      tag_165\n      jump\t// in\n    tag_191:\n        /* \"TVNProject/TVNStakingPool/TVNStakingPool.sol\":3612:3649  stakingNFT.positions(_tokenId).shares */\n      0x00\n      add\n      mload\n        /* \"TVNProject/TVNStakingPool/TVNStakingPool.sol\":3597:3608  totalSupply */\n      0x09\n      0x00\n        /* \"TVNProject/TVNStakingPool/TVNStakingPool.sol\":3597:3649  totalSupply -= stakingNFT.positions(_tokenId).shares */\n      dup3\n      dup3\n      sload\n      tag_192\n      swap2\n      swap1\n      tag_187\n      jump\t// in\n    tag_192:\n      swap3\n      pop\n      pop\n      dup2\n      swap1\n      sstore\n      pop\n        /* \"TVNProject/TVNStakingPool/TVNStakingPool.sol\":3660:3670  stakingNFT */\n      immutable(\"0xe9d2e5d7dcf681fb037cdc034b01f1fe792271e130f784f84f54ff4ae7a73679\")\n        /* \"TVNProject/TVNStakingPool/TVNStakingPool.sol\":3660:3687  stakingNFT.transferPosition */\n      0xffffffffffffffffffffffffffffffffffffffff\n      and\n      0x26908fa1\n        /* \"TVNProject/TVNStakingPool/TVNStakingPool.sol\":3696:3700  this */\n      address\n        /* \"TVNProject/TVNStakingPool/TVNStakingPool.sol\":3703:3713  msg.sender */\n      caller\n        /* \"TVNProject/TVNStakingPool/TVNStakingPool.sol\":3715:3723  _tokenId */\n      dup6\n        /* \"TVNProject/TVNStakingPool/TVNStakingPool.sol\":3660:3724  stakingNFT.transferPosition(address(this), msg.sender, _tokenId) */\n      mload(0x40)\n      dup5\n      0xffffffff\n      and\n      0xe0\n      shl\n      dup2\n      mstore\n      0x04\n      add\n      tag_193\n      swap4\n      swap3\n      swap2\n      swap1\n      tag_194\n      jump\t// in\n    tag_193:\n      0x00\n      mload(0x40)\n      dup1\n      dup4\n      sub\n      dup2\n      0x00\n      dup8\n      dup1\n      extcodesize\n      iszero\n      dup1\n      iszero\n      tag_195\n      jumpi\n      0x00\n      dup1\n      revert\n    tag_195:\n      pop\n      gas\n      call\n      iszero\n      dup1\n      iszero\n      tag_197\n      jumpi\n      returndatasize\n      0x00\n      dup1\n      returndatacopy\n      revert(0x00, returndatasize)\n    tag_197:\n      pop\n      pop\n      pop\n      pop\n        /* \"TVNProject/TVNStakingPool/TVNStakingPool.sol\":3735:3754  getReward(_tokenId) */\n      tag_198\n        /* \"TVNProject/TVNStakingPool/TVNStakingPool.sol\":3745:3753  _tokenId */\n      dup3\n        /* \"TVNProject/TVNStakingPool/TVNStakingPool.sol\":3735:3744  getReward */\n      tag_74\n        /* \"TVNProject/TVNStakingPool/TVNStakingPool.sol\":3735:3754  getReward(_tokenId) */\n      jump\t// in\n    tag_198:\n        /* \"TVNProject/TVNStakingPool/TVNStakingPool.sol\":3764:3802  _removeFromArray(_tokenId, msg.sender) */\n      tag_199\n        /* \"TVNProject/TVNStakingPool/TVNStakingPool.sol\":3781:3789  _tokenId */\n      dup3\n        /* \"TVNProject/TVNStakingPool/TVNStakingPool.sol\":3791:3801  msg.sender */\n      caller\n        /* \"TVNProject/TVNStakingPool/TVNStakingPool.sol\":3764:3780  _removeFromArray */\n      tag_200\n        /* \"TVNProject/TVNStakingPool/TVNStakingPool.sol\":3764:3802  _removeFromArray(_tokenId, msg.sender) */\n      jump\t// in\n    tag_199:\n        /* \"TVNProject/TVNStakingPool/TVNStakingPool.sol\":3812:3839  _removeNFTTokenId(_tokenId) */\n      tag_201\n        /* \"TVNProject/TVNStakingPool/TVNStakingPool.sol\":3830:3838  _tokenId */\n      dup3\n        /* \"TVNProject/TVNStakingPool/TVNStakingPool.sol\":3812:3829  _removeNFTTokenId */\n      tag_202\n        /* \"TVNProject/TVNStakingPool/TVNStakingPool.sol\":3812:3839  _removeNFTTokenId(_tokenId) */\n      jump\t// in\n    tag_201:\n        /* \"TVNProject/TVNStakingPool/TVNStakingPool.sol\":3403:3846  function unstake(uint256 _tokenId) external updateReward(_tokenId) {... */\n      pop\n      pop\n      jump\t// out\n        /* \"TVNProject/TVNStakingPool/TVNStakingPool.sol\":6801:7003  function _getABIEncodedForHarvest(string memory _func, uint256 _tokenId)... */\n    tag_81:\n        /* \"TVNProject/TVNStakingPool/TVNStakingPool.sol\":6921:6933  bytes memory */\n      0x60\n        /* \"TVNProject/TVNStakingPool/TVNStakingPool.sol\":6980:6985  _func */\n      dup3\n        /* \"TVNProject/TVNStakingPool/TVNStakingPool.sol\":6987:6995  _tokenId */\n      dup3\n        /* \"TVNProject/TVNStakingPool/TVNStakingPool.sol\":6956:6996  abi.encodeWithSignature(_func, _tokenId) */\n      add(0x24, mload(0x40))\n      tag_204\n      swap2\n      swap1\n      tag_50\n      jump\t// in\n    tag_204:\n      mload(0x40)\n      0x20\n      dup2\n      dup4\n      sub\n      sub\n      dup2\n      mstore\n      swap1\n      0x40\n      mstore\n      swap1\n      mload(0x40)\n      tag_205\n      swap2\n      swap1\n      tag_206\n      jump\t// in\n    tag_205:\n      mload(0x40)\n      dup1\n      swap2\n      sub\n      swap1\n      keccak256\n      not(0xffffffffffffffffffffffffffffffffffffffffffffffffffffffff)\n      and\n      0x20\n      dup3\n      add\n      dup1\n      mload\n      0xffffffffffffffffffffffffffffffffffffffffffffffffffffffff\n      dup4\n      dup2\n      dup4\n      and\n      or\n      dup4\n      mstore\n      pop\n      pop\n      pop\n      pop\n        /* \"TVNProject/TVNStakingPool/TVNStakingPool.sol\":6949:6996  return abi.encodeWithSignature(_func, _tokenId) */\n      swap1\n      pop\n        /* \"TVNProject/TVNStakingPool/TVNStakingPool.sol\":6801:7003  function _getABIEncodedForHarvest(string memory _func, uint256 _tokenId)... */\n      swap3\n      swap2\n      pop\n      pop\n      jump\t// out\n        /* \"TVNProject/TVNStakingPool/TVNStakingPool.sol\":2060:2713  function notifyRewardAmount(uint256 _amount)... */\n    tag_86:\n        /* \"TVNProject/TVNStakingPool/TVNStakingPool.sol\":1256:1261  owner */\n      0x00\n      dup1\n      sload\n      swap1\n      0x0100\n      exp\n      swap1\n      div\n      0xffffffffffffffffffffffffffffffffffffffff\n      and\n        /* \"TVNProject/TVNStakingPool/TVNStakingPool.sol\":1242:1261  msg.sender == owner */\n      0xffffffffffffffffffffffffffffffffffffffff\n      and\n        /* \"TVNProject/TVNStakingPool/TVNStakingPool.sol\":1242:1252  msg.sender */\n      caller\n        /* \"TVNProject/TVNStakingPool/TVNStakingPool.sol\":1242:1261  msg.sender == owner */\n      0xffffffffffffffffffffffffffffffffffffffff\n      and\n      eq\n        /* \"TVNProject/TVNStakingPool/TVNStakingPool.sol\":1234:1275  require(msg.sender == owner, \"not owner\") */\n      tag_208\n      jumpi\n      mload(0x40)\n      0x08c379a000000000000000000000000000000000000000000000000000000000\n      dup2\n      mstore\n      0x04\n      add\n      tag_209\n      swap1\n      tag_210\n      jump\t// in\n    tag_209:\n      mload(0x40)\n      dup1\n      swap2\n      sub\n      swap1\n      revert\n    tag_208:\n        /* \"TVNProject/TVNStakingPool/TVNStakingPool.sol\":2161:2162  0 */\n      0x00\n        /* \"TVNProject/TVNStakingPool/TVNStakingPool.sol\":1372:1388  rewardPerToken() */\n      tag_212\n        /* \"TVNProject/TVNStakingPool/TVNStakingPool.sol\":1372:1386  rewardPerToken */\n      tag_133\n        /* \"TVNProject/TVNStakingPool/TVNStakingPool.sol\":1372:1388  rewardPerToken() */\n      jump\t// in\n    tag_212:\n        /* \"TVNProject/TVNStakingPool/TVNStakingPool.sol\":1349:1369  rewardPertokenStored */\n      0x05\n        /* \"TVNProject/TVNStakingPool/TVNStakingPool.sol\":1349:1388  rewardPertokenStored = rewardPerToken() */\n      dup2\n      swap1\n      sstore\n      pop\n        /* \"TVNProject/TVNStakingPool/TVNStakingPool.sol\":1409:1435  lastTimeRewardApplicable() */\n      tag_213\n        /* \"TVNProject/TVNStakingPool/TVNStakingPool.sol\":1409:1433  lastTimeRewardApplicable */\n      tag_105\n        /* \"TVNProject/TVNStakingPool/TVNStakingPool.sol\":1409:1435  lastTimeRewardApplicable() */\n      jump\t// in\n    tag_213:\n        /* \"TVNProject/TVNStakingPool/TVNStakingPool.sol\":1398:1406  updateAt */\n      0x03\n        /* \"TVNProject/TVNStakingPool/TVNStakingPool.sol\":1398:1435  updateAt = lastTimeRewardApplicable() */\n      dup2\n      swap1\n      sstore\n      pop\n        /* \"TVNProject/TVNStakingPool/TVNStakingPool.sol\":1462:1463  0 */\n      0x00\n        /* \"TVNProject/TVNStakingPool/TVNStakingPool.sol\":1450:1458  _tokenId */\n      dup2\n        /* \"TVNProject/TVNStakingPool/TVNStakingPool.sol\":1450:1463  _tokenId != 0 */\n      eq\n        /* \"TVNProject/TVNStakingPool/TVNStakingPool.sol\":1446:1595  if (_tokenId != 0) {... */\n      tag_214\n      jumpi\n        /* \"TVNProject/TVNStakingPool/TVNStakingPool.sol\":1499:1515  earned(_tokenId) */\n      tag_215\n        /* \"TVNProject/TVNStakingPool/TVNStakingPool.sol\":1506:1514  _tokenId */\n      dup2\n        /* \"TVNProject/TVNStakingPool/TVNStakingPool.sol\":1499:1505  earned */\n      tag_89\n        /* \"TVNProject/TVNStakingPool/TVNStakingPool.sol\":1499:1515  earned(_tokenId) */\n      jump\t// in\n    tag_215:\n        /* \"TVNProject/TVNStakingPool/TVNStakingPool.sol\":1479:1486  rewards */\n      0x07\n        /* \"TVNProject/TVNStakingPool/TVNStakingPool.sol\":1479:1496  rewards[_tokenId] */\n      0x00\n        /* \"TVNProject/TVNStakingPool/TVNStakingPool.sol\":1487:1495  _tokenId */\n      dup4\n        /* \"TVNProject/TVNStakingPool/TVNStakingPool.sol\":1479:1496  rewards[_tokenId] */\n      dup2\n      mstore\n      0x20\n      add\n      swap1\n      dup2\n      mstore\n      0x20\n      add\n      0x00\n      keccak256\n        /* \"TVNProject/TVNStakingPool/TVNStakingPool.sol\":1479:1515  rewards[_tokenId] = earned(_tokenId) */\n      dup2\n      swap1\n      sstore\n      pop\n        /* \"TVNProject/TVNStakingPool/TVNStakingPool.sol\":1564:1584  rewardPertokenStored */\n      sload(0x05)\n        /* \"TVNProject/TVNStakingPool/TVNStakingPool.sol\":1529:1551  userRewardPerTokenPaid */\n      0x06\n        /* \"TVNProject/TVNStakingPool/TVNStakingPool.sol\":1529:1561  userRewardPerTokenPaid[_tokenId] */\n      0x00\n        /* \"TVNProject/TVNStakingPool/TVNStakingPool.sol\":1552:1560  _tokenId */\n      dup4\n        /* \"TVNProject/TVNStakingPool/TVNStakingPool.sol\":1529:1561  userRewardPerTokenPaid[_tokenId] */\n      dup2\n      mstore\n      0x20\n      add\n      swap1\n      dup2\n      mstore\n      0x20\n      add\n      0x00\n      keccak256\n        /* \"TVNProject/TVNStakingPool/TVNStakingPool.sol\":1529:1584  userRewardPerTokenPaid[_tokenId] = rewardPertokenStored */\n      dup2\n      swap1\n      sstore\n      pop\n        /* \"TVNProject/TVNStakingPool/TVNStakingPool.sol\":1446:1595  if (_tokenId != 0) {... */\n    tag_214:\n        /* \"TVNProject/TVNStakingPool/TVNStakingPool.sol\":2200:2208  finishAt */\n      sload(0x02)\n        /* \"TVNProject/TVNStakingPool/TVNStakingPool.sol\":2182:2197  block.timestamp */\n      timestamp\n        /* \"TVNProject/TVNStakingPool/TVNStakingPool.sol\":2182:2208  block.timestamp > finishAt */\n      gt\n        /* \"TVNProject/TVNStakingPool/TVNStakingPool.sol\":2178:2429  if (block.timestamp > finishAt) {... */\n      iszero\n      tag_217\n      jumpi\n        /* \"TVNProject/TVNStakingPool/TVNStakingPool.sol\":2247:2255  duration */\n      sload(0x01)\n        /* \"TVNProject/TVNStakingPool/TVNStakingPool.sol\":2237:2244  _amount */\n      dup3\n        /* \"TVNProject/TVNStakingPool/TVNStakingPool.sol\":2237:2255  _amount / duration */\n      tag_218\n      swap2\n      swap1\n      tag_219\n      jump\t// in\n    tag_218:\n        /* \"TVNProject/TVNStakingPool/TVNStakingPool.sol\":2224:2234  rewardRate */\n      0x04\n        /* \"TVNProject/TVNStakingPool/TVNStakingPool.sol\":2224:2255  rewardRate = _amount / duration */\n      dup2\n      swap1\n      sstore\n      pop\n        /* \"TVNProject/TVNStakingPool/TVNStakingPool.sol\":2178:2429  if (block.timestamp > finishAt) {... */\n      jump(tag_220)\n    tag_217:\n        /* \"TVNProject/TVNStakingPool/TVNStakingPool.sol\":2286:2309  uint256 remainingReward */\n      0x00\n        /* \"TVNProject/TVNStakingPool/TVNStakingPool.sol\":2337:2352  block.timestamp */\n      timestamp\n        /* \"TVNProject/TVNStakingPool/TVNStakingPool.sol\":2326:2334  finishAt */\n      sload(0x02)\n        /* \"TVNProject/TVNStakingPool/TVNStakingPool.sol\":2326:2352  finishAt - block.timestamp */\n      tag_221\n      swap2\n      swap1\n      tag_187\n      jump\t// in\n    tag_221:\n        /* \"TVNProject/TVNStakingPool/TVNStakingPool.sol\":2312:2322  rewardRate */\n      sload(0x04)\n        /* \"TVNProject/TVNStakingPool/TVNStakingPool.sol\":2312:2353  rewardRate * (finishAt - block.timestamp) */\n      tag_222\n      swap2\n      swap1\n      tag_223\n      jump\t// in\n    tag_222:\n        /* \"TVNProject/TVNStakingPool/TVNStakingPool.sol\":2286:2353  uint256 remainingReward = rewardRate * (finishAt - block.timestamp) */\n      swap1\n      pop\n        /* \"TVNProject/TVNStakingPool/TVNStakingPool.sol\":2410:2418  duration */\n      sload(0x01)\n        /* \"TVNProject/TVNStakingPool/TVNStakingPool.sol\":2399:2406  _amount */\n      dup4\n        /* \"TVNProject/TVNStakingPool/TVNStakingPool.sol\":2381:2396  remainingReward */\n      dup3\n        /* \"TVNProject/TVNStakingPool/TVNStakingPool.sol\":2381:2406  remainingReward + _amount */\n      tag_224\n      swap2\n      swap1\n      tag_225\n      jump\t// in\n    tag_224:\n        /* \"TVNProject/TVNStakingPool/TVNStakingPool.sol\":2380:2418  (remainingReward + _amount) / duration */\n      tag_226\n      swap2\n      swap1\n      tag_219\n      jump\t// in\n    tag_226:\n        /* \"TVNProject/TVNStakingPool/TVNStakingPool.sol\":2367:2377  rewardRate */\n      0x04\n        /* \"TVNProject/TVNStakingPool/TVNStakingPool.sol\":2367:2418  rewardRate = (remainingReward + _amount) / duration */\n      dup2\n      swap1\n      sstore\n      pop\n        /* \"TVNProject/TVNStakingPool/TVNStakingPool.sol\":2272:2429  {... */\n      pop\n        /* \"TVNProject/TVNStakingPool/TVNStakingPool.sol\":2178:2429  if (block.timestamp > finishAt) {... */\n    tag_220:\n        /* \"TVNProject/TVNStakingPool/TVNStakingPool.sol\":2460:2461  0 */\n      0x00\n        /* \"TVNProject/TVNStakingPool/TVNStakingPool.sol\":2447:2457  rewardRate */\n      sload(0x04)\n        /* \"TVNProject/TVNStakingPool/TVNStakingPool.sol\":2447:2461  rewardRate > 0 */\n      gt\n        /* \"TVNProject/TVNStakingPool/TVNStakingPool.sol\":2439:2481  require(rewardRate > 0, \"reward rate = 0\") */\n      tag_227\n      jumpi\n      mload(0x40)\n      0x08c379a000000000000000000000000000000000000000000000000000000000\n      dup2\n      mstore\n      0x04\n      add\n      tag_228\n      swap1\n      tag_229\n      jump\t// in\n    tag_228:\n      mload(0x40)\n      dup1\n      swap2\n      sub\n      swap1\n      revert\n    tag_227:\n        /* \"TVNProject/TVNStakingPool/TVNStakingPool.sol\":2536:2548  rewardsToken */\n      immutable(\"0x41e56607cad04c134e4e470c9fce76566c1848af363d3617ff5ce2939142f7f3\")\n        /* \"TVNProject/TVNStakingPool/TVNStakingPool.sol\":2536:2558  rewardsToken.balanceOf */\n      0xffffffffffffffffffffffffffffffffffffffff\n      and\n      0x70a08231\n        /* \"TVNProject/TVNStakingPool/TVNStakingPool.sol\":2567:2571  this */\n      address\n        /* \"TVNProject/TVNStakingPool/TVNStakingPool.sol\":2536:2573  rewardsToken.balanceOf(address(this)) */\n      mload(0x40)\n      dup3\n      0xffffffff\n      and\n      0xe0\n      shl\n      dup2\n      mstore\n      0x04\n      add\n      tag_230\n      swap2\n      swap1\n      tag_110\n      jump\t// in\n    tag_230:\n      0x20\n      mload(0x40)\n      dup1\n      dup4\n      sub\n      dup2\n      dup7\n      gas\n      staticcall\n      iszero\n      dup1\n      iszero\n      tag_232\n      jumpi\n      returndatasize\n      0x00\n      dup1\n      returndatacopy\n      revert(0x00, returndatasize)\n    tag_232:\n      pop\n      pop\n      pop\n      pop\n      mload(0x40)\n      returndatasize\n      not(0x1f)\n      0x1f\n      dup3\n      add\n      and\n      dup3\n      add\n      dup1\n      0x40\n      mstore\n      pop\n      dup2\n      add\n      swap1\n      tag_233\n      swap2\n      swap1\n      tag_234\n      jump\t// in\n    tag_233:\n        /* \"TVNProject/TVNStakingPool/TVNStakingPool.sol\":2525:2533  duration */\n      sload(0x01)\n        /* \"TVNProject/TVNStakingPool/TVNStakingPool.sol\":2512:2522  rewardRate */\n      sload(0x04)\n        /* \"TVNProject/TVNStakingPool/TVNStakingPool.sol\":2512:2533  rewardRate * duration */\n      tag_235\n      swap2\n      swap1\n      tag_223\n      jump\t// in\n    tag_235:\n        /* \"TVNProject/TVNStakingPool/TVNStakingPool.sol\":2512:2573  rewardRate * duration < rewardsToken.balanceOf(address(this)) */\n      lt\n        /* \"TVNProject/TVNStakingPool/TVNStakingPool.sol\":2491:2622  require(... */\n      tag_236\n      jumpi\n      mload(0x40)\n      0x08c379a000000000000000000000000000000000000000000000000000000000\n      dup2\n      mstore\n      0x04\n      add\n      tag_237\n      swap1\n      tag_238\n      jump\t// in\n    tag_237:\n      mload(0x40)\n      dup1\n      swap2\n      sub\n      swap1\n      revert\n    tag_236:\n        /* \"TVNProject/TVNStakingPool/TVNStakingPool.sol\":2662:2670  duration */\n      sload(0x01)\n        /* \"TVNProject/TVNStakingPool/TVNStakingPool.sol\":2644:2659  block.timestamp */\n      timestamp\n        /* \"TVNProject/TVNStakingPool/TVNStakingPool.sol\":2644:2670  block.timestamp + duration */\n      tag_239\n      swap2\n      swap1\n      tag_225\n      jump\t// in\n    tag_239:\n        /* \"TVNProject/TVNStakingPool/TVNStakingPool.sol\":2633:2641  finishAt */\n      0x02\n        /* \"TVNProject/TVNStakingPool/TVNStakingPool.sol\":2633:2670  finishAt = block.timestamp + duration */\n      dup2\n      swap1\n      sstore\n      pop\n        /* \"TVNProject/TVNStakingPool/TVNStakingPool.sol\":2691:2706  block.timestamp */\n      timestamp\n        /* \"TVNProject/TVNStakingPool/TVNStakingPool.sol\":2680:2688  updateAt */\n      0x03\n        /* \"TVNProject/TVNStakingPool/TVNStakingPool.sol\":2680:2706  updateAt = block.timestamp */\n      dup2\n      swap1\n      sstore\n      pop\n        /* \"TVNProject/TVNStakingPool/TVNStakingPool.sol\":1285:1286  _ */\n      pop\n        /* \"TVNProject/TVNStakingPool/TVNStakingPool.sol\":2060:2713  function notifyRewardAmount(uint256 _amount)... */\n      pop\n      jump\t// out\n        /* \"TVNProject/TVNStakingPool/TVNStakingPool.sol\":4317:4551  function earned(uint256 _tokenId) public view returns (uint256) {... */\n    tag_89:\n        /* \"TVNProject/TVNStakingPool/TVNStakingPool.sol\":4372:4379  uint256 */\n      0x00\n        /* \"TVNProject/TVNStakingPool/TVNStakingPool.sol\":4527:4534  rewards */\n      0x07\n        /* \"TVNProject/TVNStakingPool/TVNStakingPool.sol\":4527:4544  rewards[_tokenId] */\n      0x00\n        /* \"TVNProject/TVNStakingPool/TVNStakingPool.sol\":4535:4543  _tokenId */\n      dup4\n        /* \"TVNProject/TVNStakingPool/TVNStakingPool.sol\":4527:4544  rewards[_tokenId] */\n      dup2\n      mstore\n      0x20\n      add\n      swap1\n      dup2\n      mstore\n      0x20\n      add\n      0x00\n      keccak256\n      sload\n        /* \"TVNProject/TVNStakingPool/TVNStakingPool.sol\":4507:4511  1e18 */\n      0x0de0b6b3a7640000\n        /* \"TVNProject/TVNStakingPool/TVNStakingPool.sol\":4470:4492  userRewardPerTokenPaid */\n      0x06\n        /* \"TVNProject/TVNStakingPool/TVNStakingPool.sol\":4470:4502  userRewardPerTokenPaid[_tokenId] */\n      0x00\n        /* \"TVNProject/TVNStakingPool/TVNStakingPool.sol\":4493:4501  _tokenId */\n      dup6\n        /* \"TVNProject/TVNStakingPool/TVNStakingPool.sol\":4470:4502  userRewardPerTokenPaid[_tokenId] */\n      dup2\n      mstore\n      0x20\n      add\n      swap1\n      dup2\n      mstore\n      0x20\n      add\n      0x00\n      keccak256\n      sload\n        /* \"TVNProject/TVNStakingPool/TVNStakingPool.sol\":4451:4467  rewardPerToken() */\n      tag_241\n        /* \"TVNProject/TVNStakingPool/TVNStakingPool.sol\":4451:4465  rewardPerToken */\n      tag_133\n        /* \"TVNProject/TVNStakingPool/TVNStakingPool.sol\":4451:4467  rewardPerToken() */\n      jump\t// in\n    tag_241:\n        /* \"TVNProject/TVNStakingPool/TVNStakingPool.sol\":4451:4502  rewardPerToken() - userRewardPerTokenPaid[_tokenId] */\n      tag_242\n      swap2\n      swap1\n      tag_187\n      jump\t// in\n    tag_242:\n        /* \"TVNProject/TVNStakingPool/TVNStakingPool.sol\":4412:4421  balanceOf */\n      0x08\n        /* \"TVNProject/TVNStakingPool/TVNStakingPool.sol\":4412:4431  balanceOf[_tokenId] */\n      0x00\n        /* \"TVNProject/TVNStakingPool/TVNStakingPool.sol\":4422:4430  _tokenId */\n      dup7\n        /* \"TVNProject/TVNStakingPool/TVNStakingPool.sol\":4412:4431  balanceOf[_tokenId] */\n      dup2\n      mstore\n      0x20\n      add\n      swap1\n      dup2\n      mstore\n      0x20\n      add\n      0x00\n      keccak256\n      sload\n        /* \"TVNProject/TVNStakingPool/TVNStakingPool.sol\":4412:4503  balanceOf[_tokenId] *... */\n      tag_243\n      swap2\n      swap1\n      tag_223\n      jump\t// in\n    tag_243:\n        /* \"TVNProject/TVNStakingPool/TVNStakingPool.sol\":4411:4511  (balanceOf[_tokenId] *... */\n      tag_244\n      swap2\n      swap1\n      tag_219\n      jump\t// in\n    tag_244:\n        /* \"TVNProject/TVNStakingPool/TVNStakingPool.sol\":4410:4544  ((balanceOf[_tokenId] *... */\n      tag_245\n      swap2\n      swap1\n      tag_225\n      jump\t// in\n    tag_245:\n        /* \"TVNProject/TVNStakingPool/TVNStakingPool.sol\":4391:4544  return... */\n      swap1\n      pop\n        /* \"TVNProject/TVNStakingPool/TVNStakingPool.sol\":4317:4551  function earned(uint256 _tokenId) public view returns (uint256) {... */\n      swap2\n      swap1\n      pop\n      jump\t// out\n        /* \"TVNProject/TVNStakingPool/TVNStakingPool.sol\":543:566  uint256 public finishAt */\n    tag_92:\n      sload(0x02)\n      dup2\n      jump\t// out\n        /* \"TVNProject/TVNStakingPool/TVNStakingPool.sol\":711:768  mapping(uint256 => uint256) public userRewardPerTokenPaid */\n    tag_96:\n      mstore(0x20, 0x06)\n      dup1\n      0x00\n      mstore\n      keccak256(0x00, 0x40)\n      0x00\n      swap2\n      pop\n      swap1\n      pop\n      sload\n      dup2\n      jump\t// out\n        /* \"TVNProject/TVNStakingPool/TVNStakingPool.sol\":601:626  uint256 public rewardRate */\n    tag_99:\n      sload(0x04)\n      dup2\n      jump\t// out\n        /* \"TVNProject/TVNStakingPool/TVNStakingPool.sol\":632:667  uint256 public rewardPertokenStored */\n    tag_102:\n      sload(0x05)\n      dup2\n      jump\t// out\n        /* \"TVNProject/TVNStakingPool/TVNStakingPool.sol\":3852:3973  function lastTimeRewardApplicable() public view returns (uint256) {... */\n    tag_105:\n        /* \"TVNProject/TVNStakingPool/TVNStakingPool.sol\":3909:3916  uint256 */\n      0x00\n        /* \"TVNProject/TVNStakingPool/TVNStakingPool.sol\":3935:3966  _min(block.timestamp, finishAt) */\n      tag_247\n        /* \"TVNProject/TVNStakingPool/TVNStakingPool.sol\":3940:3955  block.timestamp */\n      timestamp\n        /* \"TVNProject/TVNStakingPool/TVNStakingPool.sol\":3957:3965  finishAt */\n      sload(0x02)\n        /* \"TVNProject/TVNStakingPool/TVNStakingPool.sol\":3935:3939  _min */\n      tag_248\n        /* \"TVNProject/TVNStakingPool/TVNStakingPool.sol\":3935:3966  _min(block.timestamp, finishAt) */\n      jump\t// in\n    tag_247:\n        /* \"TVNProject/TVNStakingPool/TVNStakingPool.sol\":3928:3966  return _min(block.timestamp, finishAt) */\n      swap1\n      pop\n        /* \"TVNProject/TVNStakingPool/TVNStakingPool.sol\":3852:3973  function lastTimeRewardApplicable() public view returns (uint256) {... */\n      swap1\n      jump\t// out\n        /* \"TVNProject/TVNStakingPool/TVNStakingPool.sol\":487:507  address public owner */\n    tag_108:\n      0x00\n      dup1\n      sload\n      swap1\n      0x0100\n      exp\n      swap1\n      div\n      0xffffffffffffffffffffffffffffffffffffffff\n      and\n      dup2\n      jump\t// out\n        /* \"TVNProject/TVNStakingPool/TVNStakingPool.sol\":822:866  mapping(uint256 => uint256) public balanceOf */\n    tag_113:\n      mstore(0x20, 0x08)\n      dup1\n      0x00\n      mstore\n      keccak256(0x00, 0x40)\n      0x00\n      swap2\n      pop\n      swap1\n      pop\n      sload\n      dup2\n      jump\t// out\n        /* \"TVNProject/TVNStakingPool/TVNStakingPool.sol\":2719:3397  function stake(uint256 _tokenId) external updateReward(_tokenId) {... */\n    tag_117:\n        /* \"TVNProject/TVNStakingPool/TVNStakingPool.sol\":2774:2782  _tokenId */\n      dup1\n        /* \"TVNProject/TVNStakingPool/TVNStakingPool.sol\":1372:1388  rewardPerToken() */\n      tag_250\n        /* \"TVNProject/TVNStakingPool/TVNStakingPool.sol\":1372:1386  rewardPerToken */\n      tag_133\n        /* \"TVNProject/TVNStakingPool/TVNStakingPool.sol\":1372:1388  rewardPerToken() */\n      jump\t// in\n    tag_250:\n        /* \"TVNProject/TVNStakingPool/TVNStakingPool.sol\":1349:1369  rewardPertokenStored */\n      0x05\n        /* \"TVNProject/TVNStakingPool/TVNStakingPool.sol\":1349:1388  rewardPertokenStored = rewardPerToken() */\n      dup2\n      swap1\n      sstore\n      pop\n        /* \"TVNProject/TVNStakingPool/TVNStakingPool.sol\":1409:1435  lastTimeRewardApplicable() */\n      tag_251\n        /* \"TVNProject/TVNStakingPool/TVNStakingPool.sol\":1409:1433  lastTimeRewardApplicable */\n      tag_105\n        /* \"TVNProject/TVNStakingPool/TVNStakingPool.sol\":1409:1435  lastTimeRewardApplicable() */\n      jump\t// in\n    tag_251:\n        /* \"TVNProject/TVNStakingPool/TVNStakingPool.sol\":1398:1406  updateAt */\n      0x03\n        /* \"TVNProject/TVNStakingPool/TVNStakingPool.sol\":1398:1435  updateAt = lastTimeRewardApplicable() */\n      dup2\n      swap1\n      sstore\n      pop\n        /* \"TVNProject/TVNStakingPool/TVNStakingPool.sol\":1462:1463  0 */\n      0x00\n        /* \"TVNProject/TVNStakingPool/TVNStakingPool.sol\":1450:1458  _tokenId */\n      dup2\n        /* \"TVNProject/TVNStakingPool/TVNStakingPool.sol\":1450:1463  _tokenId != 0 */\n      eq\n        /* \"TVNProject/TVNStakingPool/TVNStakingPool.sol\":1446:1595  if (_tokenId != 0) {... */\n      tag_252\n      jumpi\n        /* \"TVNProject/TVNStakingPool/TVNStakingPool.sol\":1499:1515  earned(_tokenId) */\n      tag_253\n        /* \"TVNProject/TVNStakingPool/TVNStakingPool.sol\":1506:1514  _tokenId */\n      dup2\n        /* \"TVNProject/TVNStakingPool/TVNStakingPool.sol\":1499:1505  earned */\n      tag_89\n        /* \"TVNProject/TVNStakingPool/TVNStakingPool.sol\":1499:1515  earned(_tokenId) */\n      jump\t// in\n    tag_253:\n        /* \"TVNProject/TVNStakingPool/TVNStakingPool.sol\":1479:1486  rewards */\n      0x07\n        /* \"TVNProject/TVNStakingPool/TVNStakingPool.sol\":1479:1496  rewards[_tokenId] */\n      0x00\n        /* \"TVNProject/TVNStakingPool/TVNStakingPool.sol\":1487:1495  _tokenId */\n      dup4\n        /* \"TVNProject/TVNStakingPool/TVNStakingPool.sol\":1479:1496  rewards[_tokenId] */\n      dup2\n      mstore\n      0x20\n      add\n      swap1\n      dup2\n      mstore\n      0x20\n      add\n      0x00\n      keccak256\n        /* \"TVNProject/TVNStakingPool/TVNStakingPool.sol\":1479:1515  rewards[_tokenId] = earned(_tokenId) */\n      dup2\n      swap1\n      sstore\n      pop\n        /* \"TVNProject/TVNStakingPool/TVNStakingPool.sol\":1564:1584  rewardPertokenStored */\n      sload(0x05)\n        /* \"TVNProject/TVNStakingPool/TVNStakingPool.sol\":1529:1551  userRewardPerTokenPaid */\n      0x06\n        /* \"TVNProject/TVNStakingPool/TVNStakingPool.sol\":1529:1561  userRewardPerTokenPaid[_tokenId] */\n      0x00\n        /* \"TVNProject/TVNStakingPool/TVNStakingPool.sol\":1552:1560  _tokenId */\n      dup4\n        /* \"TVNProject/TVNStakingPool/TVNStakingPool.sol\":1529:1561  userRewardPerTokenPaid[_tokenId] */\n      dup2\n      mstore\n      0x20\n      add\n      swap1\n      dup2\n      mstore\n      0x20\n      add\n      0x00\n      keccak256\n        /* \"TVNProject/TVNStakingPool/TVNStakingPool.sol\":1529:1584  userRewardPerTokenPaid[_tokenId] = rewardPertokenStored */\n      dup2\n      swap1\n      sstore\n      pop\n        /* \"TVNProject/TVNStakingPool/TVNStakingPool.sol\":1446:1595  if (_tokenId != 0) {... */\n    tag_252:\n        /* \"TVNProject/TVNStakingPool/TVNStakingPool.sol\":2813:2814  0 */\n      0x00\n        /* \"TVNProject/TVNStakingPool/TVNStakingPool.sol\":2802:2810  _tokenId */\n      dup3\n        /* \"TVNProject/TVNStakingPool/TVNStakingPool.sol\":2802:2814  _tokenId > 0 */\n      gt\n        /* \"TVNProject/TVNStakingPool/TVNStakingPool.sol\":2794:2830  require(_tokenId > 0, \"tokenId = 0\") */\n      tag_255\n      jumpi\n      mload(0x40)\n      0x08c379a000000000000000000000000000000000000000000000000000000000\n      dup2\n      mstore\n      0x04\n      add\n      tag_256\n      swap1\n      tag_181\n      jump\t// in\n    tag_256:\n      mload(0x40)\n      dup1\n      swap2\n      sub\n      swap1\n      revert\n    tag_255:\n        /* \"TVNProject/TVNStakingPool/TVNStakingPool.sol\":2840:2850  stakingNFT */\n      immutable(\"0xe9d2e5d7dcf681fb037cdc034b01f1fe792271e130f784f84f54ff4ae7a73679\")\n        /* \"TVNProject/TVNStakingPool/TVNStakingPool.sol\":2840:2867  stakingNFT.transferPosition */\n      0xffffffffffffffffffffffffffffffffffffffff\n      and\n      0x26908fa1\n        /* \"TVNProject/TVNStakingPool/TVNStakingPool.sol\":2868:2878  msg.sender */\n      caller\n        /* \"TVNProject/TVNStakingPool/TVNStakingPool.sol\":2888:2892  this */\n      address\n        /* \"TVNProject/TVNStakingPool/TVNStakingPool.sol\":2895:2903  _tokenId */\n      dup6\n        /* \"TVNProject/TVNStakingPool/TVNStakingPool.sol\":2840:2904  stakingNFT.transferPosition(msg.sender, address(this), _tokenId) */\n      mload(0x40)\n      dup5\n      0xffffffff\n      and\n      0xe0\n      shl\n      dup2\n      mstore\n      0x04\n      add\n      tag_257\n      swap4\n      swap3\n      swap2\n      swap1\n      tag_194\n      jump\t// in\n    tag_257:\n      0x00\n      mload(0x40)\n      dup1\n      dup4\n      sub\n      dup2\n      0x00\n      dup8\n      dup1\n      extcodesize\n      iszero\n      dup1\n      iszero\n      tag_258\n      jumpi\n      0x00\n      dup1\n      revert\n    tag_258:\n      pop\n      gas\n      call\n      iszero\n      dup1\n      iszero\n      tag_260\n      jumpi\n      returndatasize\n      0x00\n      dup1\n      returndatacopy\n      revert(0x00, returndatasize)\n    tag_260:\n      pop\n      pop\n      pop\n      pop\n        /* \"TVNProject/TVNStakingPool/TVNStakingPool.sol\":2915:2930  ownedStakingNFT */\n      0x0a\n        /* \"TVNProject/TVNStakingPool/TVNStakingPool.sol\":2915:2942  ownedStakingNFT[msg.sender] */\n      0x00\n        /* \"TVNProject/TVNStakingPool/TVNStakingPool.sol\":2931:2941  msg.sender */\n      caller\n        /* \"TVNProject/TVNStakingPool/TVNStakingPool.sol\":2915:2942  ownedStakingNFT[msg.sender] */\n      0xffffffffffffffffffffffffffffffffffffffff\n      and\n      0xffffffffffffffffffffffffffffffffffffffff\n      and\n      dup2\n      mstore\n      0x20\n      add\n      swap1\n      dup2\n      mstore\n      0x20\n      add\n      0x00\n      keccak256\n        /* \"TVNProject/TVNStakingPool/TVNStakingPool.sol\":2948:2956  _tokenId */\n      dup3\n        /* \"TVNProject/TVNStakingPool/TVNStakingPool.sol\":2915:2957  ownedStakingNFT[msg.sender].push(_tokenId) */\n      swap1\n      dup1\n      0x01\n      dup2\n      sload\n      add\n      dup1\n      dup3\n      sstore\n      dup1\n      swap2\n      pop\n      pop\n      0x01\n      swap1\n      sub\n      swap1\n      0x00\n      mstore\n      keccak256(0x00, 0x20)\n      add\n      0x00\n      swap1\n      swap2\n      swap1\n      swap2\n      swap1\n      swap2\n      pop\n      sstore\n        /* \"TVNProject/TVNStakingPool/TVNStakingPool.sol\":3076:3077  1 */\n      0x01\n        /* \"TVNProject/TVNStakingPool/TVNStakingPool.sol\":3027:3042  ownedStakingNFT */\n      0x0a\n        /* \"TVNProject/TVNStakingPool/TVNStakingPool.sol\":3027:3054  ownedStakingNFT[msg.sender] */\n      0x00\n        /* \"TVNProject/TVNStakingPool/TVNStakingPool.sol\":3043:3053  msg.sender */\n      caller\n        /* \"TVNProject/TVNStakingPool/TVNStakingPool.sol\":3027:3054  ownedStakingNFT[msg.sender] */\n      0xffffffffffffffffffffffffffffffffffffffff\n      and\n      0xffffffffffffffffffffffffffffffffffffffff\n      and\n      dup2\n      mstore\n      0x20\n      add\n      swap1\n      dup2\n      mstore\n      0x20\n      add\n      0x00\n      keccak256\n        /* \"TVNProject/TVNStakingPool/TVNStakingPool.sol\":3027:3061  ownedStakingNFT[msg.sender].length */\n      dup1\n      sload\n      swap1\n      pop\n        /* \"TVNProject/TVNStakingPool/TVNStakingPool.sol\":3027:3077  ownedStakingNFT[msg.sender].length -... */\n      tag_262\n      swap2\n      swap1\n      tag_187\n      jump\t// in\n    tag_262:\n        /* \"TVNProject/TVNStakingPool/TVNStakingPool.sol\":2967:2990  indexForOwnedStakingNFT */\n      0x0b\n        /* \"TVNProject/TVNStakingPool/TVNStakingPool.sol\":2967:3002  indexForOwnedStakingNFT[msg.sender] */\n      0x00\n        /* \"TVNProject/TVNStakingPool/TVNStakingPool.sol\":2991:3001  msg.sender */\n      caller\n        /* \"TVNProject/TVNStakingPool/TVNStakingPool.sol\":2967:3002  indexForOwnedStakingNFT[msg.sender] */\n      0xffffffffffffffffffffffffffffffffffffffff\n      and\n      0xffffffffffffffffffffffffffffffffffffffff\n      and\n      dup2\n      mstore\n      0x20\n      add\n      swap1\n      dup2\n      mstore\n      0x20\n      add\n      0x00\n      keccak256\n        /* \"TVNProject/TVNStakingPool/TVNStakingPool.sol\":2967:3012  indexForOwnedStakingNFT[msg.sender][_tokenId] */\n      0x00\n        /* \"TVNProject/TVNStakingPool/TVNStakingPool.sol\":3003:3011  _tokenId */\n      dup5\n        /* \"TVNProject/TVNStakingPool/TVNStakingPool.sol\":2967:3012  indexForOwnedStakingNFT[msg.sender][_tokenId] */\n      dup2\n      mstore\n      0x20\n      add\n      swap1\n      dup2\n      mstore\n      0x20\n      add\n      0x00\n      keccak256\n        /* \"TVNProject/TVNStakingPool/TVNStakingPool.sol\":2967:3077  indexForOwnedStakingNFT[msg.sender][_tokenId] =... */\n      dup2\n      swap1\n      sstore\n      pop\n        /* \"TVNProject/TVNStakingPool/TVNStakingPool.sol\":3111:3121  stakingNFT */\n      immutable(\"0xe9d2e5d7dcf681fb037cdc034b01f1fe792271e130f784f84f54ff4ae7a73679\")\n        /* \"TVNProject/TVNStakingPool/TVNStakingPool.sol\":3111:3131  stakingNFT.positions */\n      0xffffffffffffffffffffffffffffffffffffffff\n      and\n      0x99fbab88\n        /* \"TVNProject/TVNStakingPool/TVNStakingPool.sol\":3132:3140  _tokenId */\n      dup4\n        /* \"TVNProject/TVNStakingPool/TVNStakingPool.sol\":3111:3141  stakingNFT.positions(_tokenId) */\n      mload(0x40)\n      dup3\n      0xffffffff\n      and\n      0xe0\n      shl\n      dup2\n      mstore\n      0x04\n      add\n      tag_263\n      swap2\n      swap1\n      tag_50\n      jump\t// in\n    tag_263:\n      0xe0\n      mload(0x40)\n      dup1\n      dup4\n      sub\n      dup2\n      0x00\n      dup8\n      gas\n      call\n      iszero\n      dup1\n      iszero\n      tag_265\n      jumpi\n      returndatasize\n      0x00\n      dup1\n      returndatacopy\n      revert(0x00, returndatasize)\n    tag_265:\n      pop\n      pop\n      pop\n      pop\n      mload(0x40)\n      returndatasize\n      not(0x1f)\n      0x1f\n      dup3\n      add\n      and\n      dup3\n      add\n      dup1\n      0x40\n      mstore\n      pop\n      dup2\n      add\n      swap1\n      tag_266\n      swap2\n      swap1\n      tag_165\n      jump\t// in\n    tag_266:\n        /* \"TVNProject/TVNStakingPool/TVNStakingPool.sol\":3111:3148  stakingNFT.positions(_tokenId).shares */\n      0x00\n      add\n      mload\n        /* \"TVNProject/TVNStakingPool/TVNStakingPool.sol\":3088:3097  balanceOf */\n      0x08\n        /* \"TVNProject/TVNStakingPool/TVNStakingPool.sol\":3088:3107  balanceOf[_tokenId] */\n      0x00\n        /* \"TVNProject/TVNStakingPool/TVNStakingPool.sol\":3098:3106  _tokenId */\n      dup5\n        /* \"TVNProject/TVNStakingPool/TVNStakingPool.sol\":3088:3107  balanceOf[_tokenId] */\n      dup2\n      mstore\n      0x20\n      add\n      swap1\n      dup2\n      mstore\n      0x20\n      add\n      0x00\n      keccak256\n      0x00\n        /* \"TVNProject/TVNStakingPool/TVNStakingPool.sol\":3088:3148  balanceOf[_tokenId] += stakingNFT.positions(_tokenId).shares */\n      dup3\n      dup3\n      sload\n      tag_267\n      swap2\n      swap1\n      tag_225\n      jump\t// in\n    tag_267:\n      swap3\n      pop\n      pop\n      dup2\n      swap1\n      sstore\n      pop\n        /* \"TVNProject/TVNStakingPool/TVNStakingPool.sol\":3223:3233  stakingNFT */\n      immutable(\"0xe9d2e5d7dcf681fb037cdc034b01f1fe792271e130f784f84f54ff4ae7a73679\")\n        /* \"TVNProject/TVNStakingPool/TVNStakingPool.sol\":3223:3243  stakingNFT.positions */\n      0xffffffffffffffffffffffffffffffffffffffff\n      and\n      0x99fbab88\n        /* \"TVNProject/TVNStakingPool/TVNStakingPool.sol\":3244:3252  _tokenId */\n      dup4\n        /* \"TVNProject/TVNStakingPool/TVNStakingPool.sol\":3223:3253  stakingNFT.positions(_tokenId) */\n      mload(0x40)\n      dup3\n      0xffffffff\n      and\n      0xe0\n      shl\n      dup2\n      mstore\n      0x04\n      add\n      tag_268\n      swap2\n      swap1\n      tag_50\n      jump\t// in\n    tag_268:\n      0xe0\n      mload(0x40)\n      dup1\n      dup4\n      sub\n      dup2\n      0x00\n      dup8\n      gas\n      call\n      iszero\n      dup1\n      iszero\n      tag_270\n      jumpi\n      returndatasize\n      0x00\n      dup1\n      returndatacopy\n      revert(0x00, returndatasize)\n    tag_270:\n      pop\n      pop\n      pop\n      pop\n      mload(0x40)\n      returndatasize\n      not(0x1f)\n      0x1f\n      dup3\n      add\n      and\n      dup3\n      add\n      dup1\n      0x40\n      mstore\n      pop\n      dup2\n      add\n      swap1\n      tag_271\n      swap2\n      swap1\n      tag_165\n      jump\t// in\n    tag_271:\n        /* \"TVNProject/TVNStakingPool/TVNStakingPool.sol\":3223:3260  stakingNFT.positions(_tokenId).shares */\n      0x00\n      add\n      mload\n        /* \"TVNProject/TVNStakingPool/TVNStakingPool.sol\":3208:3219  totalSupply */\n      0x09\n      0x00\n        /* \"TVNProject/TVNStakingPool/TVNStakingPool.sol\":3208:3260  totalSupply += stakingNFT.positions(_tokenId).shares */\n      dup3\n      dup3\n      sload\n      tag_272\n      swap2\n      swap1\n      tag_225\n      jump\t// in\n    tag_272:\n      swap3\n      pop\n      pop\n      dup2\n      swap1\n      sstore\n      pop\n        /* \"TVNProject/TVNStakingPool/TVNStakingPool.sol\":3321:3327  allNFT */\n      0x0c\n        /* \"TVNProject/TVNStakingPool/TVNStakingPool.sol\":3333:3341  _tokenId */\n      dup3\n        /* \"TVNProject/TVNStakingPool/TVNStakingPool.sol\":3321:3342  allNFT.push(_tokenId) */\n      swap1\n      dup1\n      0x01\n      dup2\n      sload\n      add\n      dup1\n      dup3\n      sstore\n      dup1\n      swap2\n      pop\n      pop\n      0x01\n      swap1\n      sub\n      swap1\n      0x00\n      mstore\n      keccak256(0x00, 0x20)\n      add\n      0x00\n      swap1\n      swap2\n      swap1\n      swap2\n      swap1\n      swap2\n      pop\n      sstore\n        /* \"TVNProject/TVNStakingPool/TVNStakingPool.sol\":3389:3390  1 */\n      0x01\n        /* \"TVNProject/TVNStakingPool/TVNStakingPool.sol\":3373:3379  allNFT */\n      0x0c\n        /* \"TVNProject/TVNStakingPool/TVNStakingPool.sol\":3373:3386  allNFT.length */\n      dup1\n      sload\n      swap1\n      pop\n        /* \"TVNProject/TVNStakingPool/TVNStakingPool.sol\":3373:3390  allNFT.length - 1 */\n      tag_274\n      swap2\n      swap1\n      tag_187\n      jump\t// in\n    tag_274:\n        /* \"TVNProject/TVNStakingPool/TVNStakingPool.sol\":3352:3360  NFTIndex */\n      0x0d\n        /* \"TVNProject/TVNStakingPool/TVNStakingPool.sol\":3352:3370  NFTIndex[_tokenId] */\n      0x00\n        /* \"TVNProject/TVNStakingPool/TVNStakingPool.sol\":3361:3369  _tokenId */\n      dup5\n        /* \"TVNProject/TVNStakingPool/TVNStakingPool.sol\":3352:3370  NFTIndex[_tokenId] */\n      dup2\n      mstore\n      0x20\n      add\n      swap1\n      dup2\n      mstore\n      0x20\n      add\n      0x00\n      keccak256\n        /* \"TVNProject/TVNStakingPool/TVNStakingPool.sol\":3352:3390  NFTIndex[_tokenId] = allNFT.length - 1 */\n      dup2\n      swap1\n      sstore\n      pop\n        /* \"TVNProject/TVNStakingPool/TVNStakingPool.sol\":2719:3397  function stake(uint256 _tokenId) external updateReward(_tokenId) {... */\n      pop\n      pop\n      jump\t// out\n        /* \"TVNProject/TVNStakingPool/TVNStakingPool.sol\":4867:4989  function getOwnedStakingNFT() external view returns (uint256[] memory) {... */\n    tag_119:\n        /* \"TVNProject/TVNStakingPool/TVNStakingPool.sol\":4920:4936  uint256[] memory */\n      0x60\n        /* \"TVNProject/TVNStakingPool/TVNStakingPool.sol\":4955:4970  ownedStakingNFT */\n      0x0a\n        /* \"TVNProject/TVNStakingPool/TVNStakingPool.sol\":4955:4982  ownedStakingNFT[msg.sender] */\n      0x00\n        /* \"TVNProject/TVNStakingPool/TVNStakingPool.sol\":4971:4981  msg.sender */\n      caller\n        /* \"TVNProject/TVNStakingPool/TVNStakingPool.sol\":4955:4982  ownedStakingNFT[msg.sender] */\n      0xffffffffffffffffffffffffffffffffffffffff\n      and\n      0xffffffffffffffffffffffffffffffffffffffff\n      and\n      dup2\n      mstore\n      0x20\n      add\n      swap1\n      dup2\n      mstore\n      0x20\n      add\n      0x00\n      keccak256\n        /* \"TVNProject/TVNStakingPool/TVNStakingPool.sol\":4948:4982  return ownedStakingNFT[msg.sender] */\n      dup1\n      sload\n      dup1\n      0x20\n      mul\n      0x20\n      add\n      mload(0x40)\n      swap1\n      dup2\n      add\n      0x40\n      mstore\n      dup1\n      swap3\n      swap2\n      swap1\n      dup2\n      dup2\n      mstore\n      0x20\n      add\n      dup3\n      dup1\n      sload\n      dup1\n      iszero\n      tag_276\n      jumpi\n      0x20\n      mul\n      dup3\n      add\n      swap2\n      swap1\n      0x00\n      mstore\n      keccak256(0x00, 0x20)\n      swap1\n    tag_277:\n      dup2\n      sload\n      dup2\n      mstore\n      0x20\n      add\n      swap1\n      0x01\n      add\n      swap1\n      dup1\n      dup4\n      gt\n      tag_277\n      jumpi\n    tag_276:\n      pop\n      pop\n      pop\n      pop\n      pop\n      swap1\n      pop\n        /* \"TVNProject/TVNStakingPool/TVNStakingPool.sol\":4867:4989  function getOwnedStakingNFT() external view returns (uint256[] memory) {... */\n      swap1\n      jump\t// out\n        /* \"TVNProject/TVNStakingPool/TVNStakingPool.sol\":1153:1196  mapping(uint256 => uint256) public NFTIndex */\n    tag_124:\n      mstore(0x20, 0x0d)\n      dup1\n      0x00\n      mstore\n      keccak256(0x00, 0x40)\n      0x00\n      swap2\n      pop\n      swap1\n      pop\n      sload\n      dup2\n      jump\t// out\n        /* \"TVNProject/TVNStakingPool/TVNStakingPool.sol\":572:595  uint256 public updateAt */\n    tag_127:\n      sload(0x03)\n      dup2\n      jump\t// out\n        /* \"TVNProject/TVNStakingPool/TVNStakingPool.sol\":1813:1993  function setRewardsDuration(uint256 _duration) external onlyOwner {... */\n    tag_131:\n        /* \"TVNProject/TVNStakingPool/TVNStakingPool.sol\":1256:1261  owner */\n      0x00\n      dup1\n      sload\n      swap1\n      0x0100\n      exp\n      swap1\n      div\n      0xffffffffffffffffffffffffffffffffffffffff\n      and\n        /* \"TVNProject/TVNStakingPool/TVNStakingPool.sol\":1242:1261  msg.sender == owner */\n      0xffffffffffffffffffffffffffffffffffffffff\n      and\n        /* \"TVNProject/TVNStakingPool/TVNStakingPool.sol\":1242:1252  msg.sender */\n      caller\n        /* \"TVNProject/TVNStakingPool/TVNStakingPool.sol\":1242:1261  msg.sender == owner */\n      0xffffffffffffffffffffffffffffffffffffffff\n      and\n      eq\n        /* \"TVNProject/TVNStakingPool/TVNStakingPool.sol\":1234:1275  require(msg.sender == owner, \"not owner\") */\n      tag_279\n      jumpi\n      mload(0x40)\n      0x08c379a000000000000000000000000000000000000000000000000000000000\n      dup2\n      mstore\n      0x04\n      add\n      tag_280\n      swap1\n      tag_210\n      jump\t// in\n    tag_280:\n      mload(0x40)\n      dup1\n      swap2\n      sub\n      swap1\n      revert\n    tag_279:\n        /* \"TVNProject/TVNStakingPool/TVNStakingPool.sol\":1908:1923  block.timestamp */\n      timestamp\n        /* \"TVNProject/TVNStakingPool/TVNStakingPool.sol\":1897:1905  finishAt */\n      sload(0x02)\n        /* \"TVNProject/TVNStakingPool/TVNStakingPool.sol\":1897:1923  finishAt < block.timestamp */\n      lt\n        /* \"TVNProject/TVNStakingPool/TVNStakingPool.sol\":1889:1956  require(finishAt < block.timestamp, \"reward duration not finished\") */\n      tag_282\n      jumpi\n      mload(0x40)\n      0x08c379a000000000000000000000000000000000000000000000000000000000\n      dup2\n      mstore\n      0x04\n      add\n      tag_283\n      swap1\n      tag_284\n      jump\t// in\n    tag_283:\n      mload(0x40)\n      dup1\n      swap2\n      sub\n      swap1\n      revert\n    tag_282:\n        /* \"TVNProject/TVNStakingPool/TVNStakingPool.sol\":1977:1986  _duration */\n      dup1\n        /* \"TVNProject/TVNStakingPool/TVNStakingPool.sol\":1966:1974  duration */\n      0x01\n        /* \"TVNProject/TVNStakingPool/TVNStakingPool.sol\":1966:1986  duration = _duration */\n      dup2\n      swap1\n      sstore\n      pop\n        /* \"TVNProject/TVNStakingPool/TVNStakingPool.sol\":1813:1993  function setRewardsDuration(uint256 _duration) external onlyOwner {... */\n      pop\n      jump\t// out\n        /* \"TVNProject/TVNStakingPool/TVNStakingPool.sol\":3979:4276  function rewardPerToken() public view returns (uint256) {... */\n    tag_133:\n        /* \"TVNProject/TVNStakingPool/TVNStakingPool.sol\":4026:4033  uint256 */\n      0x00\n        /* \"TVNProject/TVNStakingPool/TVNStakingPool.sol\":4064:4065  0 */\n      dup1\n        /* \"TVNProject/TVNStakingPool/TVNStakingPool.sol\":4049:4060  totalSupply */\n      sload(0x09)\n        /* \"TVNProject/TVNStakingPool/TVNStakingPool.sol\":4049:4065  totalSupply == 0 */\n      sub\n        /* \"TVNProject/TVNStakingPool/TVNStakingPool.sol\":4045:4119  if (totalSupply == 0) {... */\n      tag_286\n      jumpi\n        /* \"TVNProject/TVNStakingPool/TVNStakingPool.sol\":4088:4108  rewardPertokenStored */\n      sload(0x05)\n        /* \"TVNProject/TVNStakingPool/TVNStakingPool.sol\":4081:4108  return rewardPertokenStored */\n      swap1\n      pop\n      jump(tag_285)\n        /* \"TVNProject/TVNStakingPool/TVNStakingPool.sol\":4045:4119  if (totalSupply == 0) {... */\n    tag_286:\n        /* \"TVNProject/TVNStakingPool/TVNStakingPool.sol\":4258:4269  totalSupply */\n      sload(0x09)\n        /* \"TVNProject/TVNStakingPool/TVNStakingPool.sol\":4238:4242  1e18 */\n      0x0de0b6b3a7640000\n        /* \"TVNProject/TVNStakingPool/TVNStakingPool.sol\":4226:4234  updateAt */\n      sload(0x03)\n        /* \"TVNProject/TVNStakingPool/TVNStakingPool.sol\":4197:4223  lastTimeRewardApplicable() */\n      tag_287\n        /* \"TVNProject/TVNStakingPool/TVNStakingPool.sol\":4197:4221  lastTimeRewardApplicable */\n      tag_105\n        /* \"TVNProject/TVNStakingPool/TVNStakingPool.sol\":4197:4223  lastTimeRewardApplicable() */\n      jump\t// in\n    tag_287:\n        /* \"TVNProject/TVNStakingPool/TVNStakingPool.sol\":4197:4234  lastTimeRewardApplicable() - updateAt */\n      tag_288\n      swap2\n      swap1\n      tag_187\n      jump\t// in\n    tag_288:\n        /* \"TVNProject/TVNStakingPool/TVNStakingPool.sol\":4183:4193  rewardRate */\n      sload(0x04)\n        /* \"TVNProject/TVNStakingPool/TVNStakingPool.sol\":4183:4235  rewardRate * (lastTimeRewardApplicable() - updateAt) */\n      tag_289\n      swap2\n      swap1\n      tag_223\n      jump\t// in\n    tag_289:\n        /* \"TVNProject/TVNStakingPool/TVNStakingPool.sol\":4183:4242  rewardRate * (lastTimeRewardApplicable() - updateAt) * 1e18 */\n      tag_290\n      swap2\n      swap1\n      tag_223\n      jump\t// in\n    tag_290:\n        /* \"TVNProject/TVNStakingPool/TVNStakingPool.sol\":4182:4269  (rewardRate * (lastTimeRewardApplicable() - updateAt) * 1e18) /... */\n      tag_291\n      swap2\n      swap1\n      tag_219\n      jump\t// in\n    tag_291:\n        /* \"TVNProject/TVNStakingPool/TVNStakingPool.sol\":4147:4167  rewardPertokenStored */\n      sload(0x05)\n        /* \"TVNProject/TVNStakingPool/TVNStakingPool.sol\":4147:4269  rewardPertokenStored +... */\n      tag_292\n      swap2\n      swap1\n      tag_225\n      jump\t// in\n    tag_292:\n        /* \"TVNProject/TVNStakingPool/TVNStakingPool.sol\":4128:4269  return... */\n      swap1\n      pop\n        /* \"TVNProject/TVNStakingPool/TVNStakingPool.sol\":3979:4276  function rewardPerToken() public view returns (uint256) {... */\n    tag_285:\n      swap1\n      jump\t// out\n        /* \"TVNProject/TVNStakingPool/TVNStakingPool.sol\":444:480  IERC20 public immutable rewardsToken */\n    tag_136:\n      immutable(\"0x41e56607cad04c134e4e470c9fce76566c1848af363d3617ff5ce2939142f7f3\")\n      dup2\n      jump\t// out\n        /* \"TVNProject/TVNStakingPool/TVNStakingPool.sol\":4995:5094  function getAllNFTStaking() external view returns (uint256[] memory) {... */\n    tag_140:\n        /* \"TVNProject/TVNStakingPool/TVNStakingPool.sol\":5046:5062  uint256[] memory */\n      0x60\n        /* \"TVNProject/TVNStakingPool/TVNStakingPool.sol\":5081:5087  allNFT */\n      0x0c\n        /* \"TVNProject/TVNStakingPool/TVNStakingPool.sol\":5074:5087  return allNFT */\n      dup1\n      sload\n      dup1\n      0x20\n      mul\n      0x20\n      add\n      mload(0x40)\n      swap1\n      dup2\n      add\n      0x40\n      mstore\n      dup1\n      swap3\n      swap2\n      swap1\n      dup2\n      dup2\n      mstore\n      0x20\n      add\n      dup3\n      dup1\n      sload\n      dup1\n      iszero\n      tag_294\n      jumpi\n      0x20\n      mul\n      dup3\n      add\n      swap2\n      swap1\n      0x00\n      mstore\n      keccak256(0x00, 0x20)\n      swap1\n    tag_295:\n      dup2\n      sload\n      dup2\n      mstore\n      0x20\n      add\n      swap1\n      0x01\n      add\n      swap1\n      dup1\n      dup4\n      gt\n      tag_295\n      jumpi\n    tag_294:\n      pop\n      pop\n      pop\n      pop\n      pop\n      swap1\n      pop\n        /* \"TVNProject/TVNStakingPool/TVNStakingPool.sol\":4995:5094  function getAllNFTStaking() external view returns (uint256[] memory) {... */\n      swap1\n      jump\t// out\n        /* \"TVNProject/TVNStakingPool/TVNStakingPool.sol\":1124:1147  uint256[] public allNFT */\n    tag_144:\n      0x0c\n      dup2\n      dup2\n      sload\n      dup2\n      lt\n      tag_296\n      jumpi\n      0x00\n      dup1\n      revert\n    tag_296:\n      swap1\n      0x00\n      mstore\n      keccak256(0x00, 0x20)\n      add\n      0x00\n      swap2\n      pop\n      swap1\n      pop\n      sload\n      dup2\n      jump\t// out\n        /* \"TVNProject/TVNStakingPool/TVNStakingPool.sol\":774:816  mapping(uint256 => uint256) public rewards */\n    tag_148:\n      mstore(0x20, 0x07)\n      dup1\n      0x00\n      mstore\n      keccak256(0x00, 0x40)\n      0x00\n      swap2\n      pop\n      swap1\n      pop\n      sload\n      dup2\n      jump\t// out\n        /* \"TVNProject/TVNStakingPool/TVNStakingPool.sol\":5650:6317  function _removeFromArray(uint256 _tokenId, address _from) private {... */\n    tag_200:\n        /* \"TVNProject/TVNStakingPool/TVNStakingPool.sol\":5727:5740  uint256 index */\n      0x00\n        /* \"TVNProject/TVNStakingPool/TVNStakingPool.sol\":5743:5766  indexForOwnedStakingNFT */\n      0x0b\n        /* \"TVNProject/TVNStakingPool/TVNStakingPool.sol\":5743:5773  indexForOwnedStakingNFT[_from] */\n      0x00\n        /* \"TVNProject/TVNStakingPool/TVNStakingPool.sol\":5767:5772  _from */\n      dup4\n        /* \"TVNProject/TVNStakingPool/TVNStakingPool.sol\":5743:5773  indexForOwnedStakingNFT[_from] */\n      0xffffffffffffffffffffffffffffffffffffffff\n      and\n      0xffffffffffffffffffffffffffffffffffffffff\n      and\n      dup2\n      mstore\n      0x20\n      add\n      swap1\n      dup2\n      mstore\n      0x20\n      add\n      0x00\n      keccak256\n        /* \"TVNProject/TVNStakingPool/TVNStakingPool.sol\":5743:5783  indexForOwnedStakingNFT[_from][_tokenId] */\n      0x00\n        /* \"TVNProject/TVNStakingPool/TVNStakingPool.sol\":5774:5782  _tokenId */\n      dup5\n        /* \"TVNProject/TVNStakingPool/TVNStakingPool.sol\":5743:5783  indexForOwnedStakingNFT[_from][_tokenId] */\n      dup2\n      mstore\n      0x20\n      add\n      swap1\n      dup2\n      mstore\n      0x20\n      add\n      0x00\n      keccak256\n      sload\n        /* \"TVNProject/TVNStakingPool/TVNStakingPool.sol\":5727:5783  uint256 index = indexForOwnedStakingNFT[_from][_tokenId] */\n      swap1\n      pop\n        /* \"TVNProject/TVNStakingPool/TVNStakingPool.sol\":5793:5807  uint256 length */\n      0x00\n        /* \"TVNProject/TVNStakingPool/TVNStakingPool.sol\":5810:5825  ownedStakingNFT */\n      0x0a\n        /* \"TVNProject/TVNStakingPool/TVNStakingPool.sol\":5810:5832  ownedStakingNFT[_from] */\n      0x00\n        /* \"TVNProject/TVNStakingPool/TVNStakingPool.sol\":5826:5831  _from */\n      dup5\n        /* \"TVNProject/TVNStakingPool/TVNStakingPool.sol\":5810:5832  ownedStakingNFT[_from] */\n      0xffffffffffffffffffffffffffffffffffffffff\n      and\n      0xffffffffffffffffffffffffffffffffffffffff\n      and\n      dup2\n      mstore\n      0x20\n      add\n      swap1\n      dup2\n      mstore\n      0x20\n      add\n      0x00\n      keccak256\n        /* \"TVNProject/TVNStakingPool/TVNStakingPool.sol\":5810:5839  ownedStakingNFT[_from].length */\n      dup1\n      sload\n      swap1\n      pop\n        /* \"TVNProject/TVNStakingPool/TVNStakingPool.sol\":5793:5839  uint256 length = ownedStakingNFT[_from].length */\n      swap1\n      pop\n        /* \"TVNProject/TVNStakingPool/TVNStakingPool.sol\":5864:5865  1 */\n      0x01\n        /* \"TVNProject/TVNStakingPool/TVNStakingPool.sol\":5854:5860  length */\n      dup2\n        /* \"TVNProject/TVNStakingPool/TVNStakingPool.sol\":5854:5865  length == 1 */\n      sub\n        /* \"TVNProject/TVNStakingPool/TVNStakingPool.sol\":5850:6311  if (length == 1) {... */\n      tag_299\n      jumpi\n        /* \"TVNProject/TVNStakingPool/TVNStakingPool.sol\":5888:5903  ownedStakingNFT */\n      0x0a\n        /* \"TVNProject/TVNStakingPool/TVNStakingPool.sol\":5888:5910  ownedStakingNFT[_from] */\n      0x00\n        /* \"TVNProject/TVNStakingPool/TVNStakingPool.sol\":5904:5909  _from */\n      dup5\n        /* \"TVNProject/TVNStakingPool/TVNStakingPool.sol\":5888:5910  ownedStakingNFT[_from] */\n      0xffffffffffffffffffffffffffffffffffffffff\n      and\n      0xffffffffffffffffffffffffffffffffffffffff\n      and\n      dup2\n      mstore\n      0x20\n      add\n      swap1\n      dup2\n      mstore\n      0x20\n      add\n      0x00\n      keccak256\n      0x00\n        /* \"TVNProject/TVNStakingPool/TVNStakingPool.sol\":5881:5910  delete ownedStakingNFT[_from] */\n      tag_300\n      swap2\n      swap1\n      tag_301\n      jump\t// in\n    tag_300:\n        /* \"TVNProject/TVNStakingPool/TVNStakingPool.sol\":5967:5968  0 */\n      0x00\n        /* \"TVNProject/TVNStakingPool/TVNStakingPool.sol\":5924:5947  indexForOwnedStakingNFT */\n      0x0b\n        /* \"TVNProject/TVNStakingPool/TVNStakingPool.sol\":5924:5954  indexForOwnedStakingNFT[_from] */\n      0x00\n        /* \"TVNProject/TVNStakingPool/TVNStakingPool.sol\":5948:5953  _from */\n      dup6\n        /* \"TVNProject/TVNStakingPool/TVNStakingPool.sol\":5924:5954  indexForOwnedStakingNFT[_from] */\n      0xffffffffffffffffffffffffffffffffffffffff\n      and\n      0xffffffffffffffffffffffffffffffffffffffff\n      and\n      dup2\n      mstore\n      0x20\n      add\n      swap1\n      dup2\n      mstore\n      0x20\n      add\n      0x00\n      keccak256\n        /* \"TVNProject/TVNStakingPool/TVNStakingPool.sol\":5924:5964  indexForOwnedStakingNFT[_from][_tokenId] */\n      0x00\n        /* \"TVNProject/TVNStakingPool/TVNStakingPool.sol\":5955:5963  _tokenId */\n      dup7\n        /* \"TVNProject/TVNStakingPool/TVNStakingPool.sol\":5924:5964  indexForOwnedStakingNFT[_from][_tokenId] */\n      dup2\n      mstore\n      0x20\n      add\n      swap1\n      dup2\n      mstore\n      0x20\n      add\n      0x00\n      keccak256\n        /* \"TVNProject/TVNStakingPool/TVNStakingPool.sol\":5924:5968  indexForOwnedStakingNFT[_from][_tokenId] = 0 */\n      dup2\n      swap1\n      sstore\n      pop\n        /* \"TVNProject/TVNStakingPool/TVNStakingPool.sol\":5850:6311  if (length == 1) {... */\n      jump(tag_302)\n    tag_299:\n        /* \"TVNProject/TVNStakingPool/TVNStakingPool.sol\":5999:6018  uint256 lastTokenId */\n      0x00\n        /* \"TVNProject/TVNStakingPool/TVNStakingPool.sol\":6021:6036  ownedStakingNFT */\n      0x0a\n        /* \"TVNProject/TVNStakingPool/TVNStakingPool.sol\":6021:6043  ownedStakingNFT[_from] */\n      0x00\n        /* \"TVNProject/TVNStakingPool/TVNStakingPool.sol\":6037:6042  _from */\n      dup6\n        /* \"TVNProject/TVNStakingPool/TVNStakingPool.sol\":6021:6043  ownedStakingNFT[_from] */\n      0xffffffffffffffffffffffffffffffffffffffff\n      and\n      0xffffffffffffffffffffffffffffffffffffffff\n      and\n      dup2\n      mstore\n      0x20\n      add\n      swap1\n      dup2\n      mstore\n      0x20\n      add\n      0x00\n      keccak256\n        /* \"TVNProject/TVNStakingPool/TVNStakingPool.sol\":6053:6054  1 */\n      0x01\n        /* \"TVNProject/TVNStakingPool/TVNStakingPool.sol\":6044:6050  length */\n      dup4\n        /* \"TVNProject/TVNStakingPool/TVNStakingPool.sol\":6044:6054  length - 1 */\n      tag_303\n      swap2\n      swap1\n      tag_187\n      jump\t// in\n    tag_303:\n        /* \"TVNProject/TVNStakingPool/TVNStakingPool.sol\":6021:6055  ownedStakingNFT[_from][length - 1] */\n      dup2\n      sload\n      dup2\n      lt\n      tag_304\n      jumpi\n      tag_305\n      tag_306\n      jump\t// in\n    tag_305:\n    tag_304:\n      swap1\n      0x00\n      mstore\n      keccak256(0x00, 0x20)\n      add\n      sload\n        /* \"TVNProject/TVNStakingPool/TVNStakingPool.sol\":5999:6055  uint256 lastTokenId = ownedStakingNFT[_from][length - 1] */\n      swap1\n      pop\n        /* \"TVNProject/TVNStakingPool/TVNStakingPool.sol\":6101:6116  ownedStakingNFT */\n      0x0a\n        /* \"TVNProject/TVNStakingPool/TVNStakingPool.sol\":6101:6123  ownedStakingNFT[_from] */\n      0x00\n        /* \"TVNProject/TVNStakingPool/TVNStakingPool.sol\":6117:6122  _from */\n      dup6\n        /* \"TVNProject/TVNStakingPool/TVNStakingPool.sol\":6101:6123  ownedStakingNFT[_from] */\n      0xffffffffffffffffffffffffffffffffffffffff\n      and\n      0xffffffffffffffffffffffffffffffffffffffff\n      and\n      dup2\n      mstore\n      0x20\n      add\n      swap1\n      dup2\n      mstore\n      0x20\n      add\n      0x00\n      keccak256\n        /* \"TVNProject/TVNStakingPool/TVNStakingPool.sol\":6133:6134  1 */\n      0x01\n        /* \"TVNProject/TVNStakingPool/TVNStakingPool.sol\":6124:6130  length */\n      dup4\n        /* \"TVNProject/TVNStakingPool/TVNStakingPool.sol\":6124:6134  length - 1 */\n      tag_308\n      swap2\n      swap1\n      tag_187\n      jump\t// in\n    tag_308:\n        /* \"TVNProject/TVNStakingPool/TVNStakingPool.sol\":6101:6135  ownedStakingNFT[_from][length - 1] */\n      dup2\n      sload\n      dup2\n      lt\n      tag_309\n      jumpi\n      tag_310\n      tag_306\n      jump\t// in\n    tag_310:\n    tag_309:\n      swap1\n      0x00\n      mstore\n      keccak256(0x00, 0x20)\n      add\n      sload\n        /* \"TVNProject/TVNStakingPool/TVNStakingPool.sol\":6069:6084  ownedStakingNFT */\n      0x0a\n        /* \"TVNProject/TVNStakingPool/TVNStakingPool.sol\":6069:6091  ownedStakingNFT[_from] */\n      0x00\n        /* \"TVNProject/TVNStakingPool/TVNStakingPool.sol\":6085:6090  _from */\n      dup7\n        /* \"TVNProject/TVNStakingPool/TVNStakingPool.sol\":6069:6091  ownedStakingNFT[_from] */\n      0xffffffffffffffffffffffffffffffffffffffff\n      and\n      0xffffffffffffffffffffffffffffffffffffffff\n      and\n      dup2\n      mstore\n      0x20\n      add\n      swap1\n      dup2\n      mstore\n      0x20\n      add\n      0x00\n      keccak256\n        /* \"TVNProject/TVNStakingPool/TVNStakingPool.sol\":6092:6097  index */\n      dup5\n        /* \"TVNProject/TVNStakingPool/TVNStakingPool.sol\":6069:6098  ownedStakingNFT[_from][index] */\n      dup2\n      sload\n      dup2\n      lt\n      tag_312\n      jumpi\n      tag_313\n      tag_306\n      jump\t// in\n    tag_313:\n    tag_312:\n      swap1\n      0x00\n      mstore\n      keccak256(0x00, 0x20)\n      add\n        /* \"TVNProject/TVNStakingPool/TVNStakingPool.sol\":6069:6135  ownedStakingNFT[_from][index] = ownedStakingNFT[_from][length - 1] */\n      dup2\n      swap1\n      sstore\n      pop\n        /* \"TVNProject/TVNStakingPool/TVNStakingPool.sol\":6149:6164  ownedStakingNFT */\n      0x0a\n        /* \"TVNProject/TVNStakingPool/TVNStakingPool.sol\":6149:6171  ownedStakingNFT[_from] */\n      0x00\n        /* \"TVNProject/TVNStakingPool/TVNStakingPool.sol\":6165:6170  _from */\n      dup6\n        /* \"TVNProject/TVNStakingPool/TVNStakingPool.sol\":6149:6171  ownedStakingNFT[_from] */\n      0xffffffffffffffffffffffffffffffffffffffff\n      and\n      0xffffffffffffffffffffffffffffffffffffffff\n      and\n      dup2\n      mstore\n      0x20\n      add\n      swap1\n      dup2\n      mstore\n      0x20\n      add\n      0x00\n      keccak256\n        /* \"TVNProject/TVNStakingPool/TVNStakingPool.sol\":6149:6177  ownedStakingNFT[_from].pop() */\n      dup1\n      sload\n      dup1\n      tag_315\n      jumpi\n      tag_316\n      tag_317\n      jump\t// in\n    tag_316:\n    tag_315:\n      0x01\n      swap1\n      sub\n      dup2\n      dup2\n      swap1\n      0x00\n      mstore\n      keccak256(0x00, 0x20)\n      add\n      0x00\n      swap1\n      sstore\n      swap1\n      sstore\n        /* \"TVNProject/TVNStakingPool/TVNStakingPool.sol\":6237:6242  index */\n      dup3\n        /* \"TVNProject/TVNStakingPool/TVNStakingPool.sol\":6191:6214  indexForOwnedStakingNFT */\n      0x0b\n        /* \"TVNProject/TVNStakingPool/TVNStakingPool.sol\":6191:6221  indexForOwnedStakingNFT[_from] */\n      0x00\n        /* \"TVNProject/TVNStakingPool/TVNStakingPool.sol\":6215:6220  _from */\n      dup7\n        /* \"TVNProject/TVNStakingPool/TVNStakingPool.sol\":6191:6221  indexForOwnedStakingNFT[_from] */\n      0xffffffffffffffffffffffffffffffffffffffff\n      and\n      0xffffffffffffffffffffffffffffffffffffffff\n      and\n      dup2\n      mstore\n      0x20\n      add\n      swap1\n      dup2\n      mstore\n      0x20\n      add\n      0x00\n      keccak256\n        /* \"TVNProject/TVNStakingPool/TVNStakingPool.sol\":6191:6234  indexForOwnedStakingNFT[_from][lastTokenId] */\n      0x00\n        /* \"TVNProject/TVNStakingPool/TVNStakingPool.sol\":6222:6233  lastTokenId */\n      dup4\n        /* \"TVNProject/TVNStakingPool/TVNStakingPool.sol\":6191:6234  indexForOwnedStakingNFT[_from][lastTokenId] */\n      dup2\n      mstore\n      0x20\n      add\n      swap1\n      dup2\n      mstore\n      0x20\n      add\n      0x00\n      keccak256\n        /* \"TVNProject/TVNStakingPool/TVNStakingPool.sol\":6191:6242  indexForOwnedStakingNFT[_from][lastTokenId] = index */\n      dup2\n      swap1\n      sstore\n      pop\n        /* \"TVNProject/TVNStakingPool/TVNStakingPool.sol\":6299:6300  0 */\n      0x00\n        /* \"TVNProject/TVNStakingPool/TVNStakingPool.sol\":6256:6279  indexForOwnedStakingNFT */\n      0x0b\n        /* \"TVNProject/TVNStakingPool/TVNStakingPool.sol\":6256:6286  indexForOwnedStakingNFT[_from] */\n      0x00\n        /* \"TVNProject/TVNStakingPool/TVNStakingPool.sol\":6280:6285  _from */\n      dup7\n        /* \"TVNProject/TVNStakingPool/TVNStakingPool.sol\":6256:6286  indexForOwnedStakingNFT[_from] */\n      0xffffffffffffffffffffffffffffffffffffffff\n      and\n      0xffffffffffffffffffffffffffffffffffffffff\n      and\n      dup2\n      mstore\n      0x20\n      add\n      swap1\n      dup2\n      mstore\n      0x20\n      add\n      0x00\n      keccak256\n        /* \"TVNProject/TVNStakingPool/TVNStakingPool.sol\":6256:6296  indexForOwnedStakingNFT[_from][_tokenId] */\n      0x00\n        /* \"TVNProject/TVNStakingPool/TVNStakingPool.sol\":6287:6295  _tokenId */\n      dup8\n        /* \"TVNProject/TVNStakingPool/TVNStakingPool.sol\":6256:6296  indexForOwnedStakingNFT[_from][_tokenId] */\n      dup2\n      mstore\n      0x20\n      add\n      swap1\n      dup2\n      mstore\n      0x20\n      add\n      0x00\n      keccak256\n        /* \"TVNProject/TVNStakingPool/TVNStakingPool.sol\":6256:6300  indexForOwnedStakingNFT[_from][_tokenId] = 0 */\n      dup2\n      swap1\n      sstore\n      pop\n        /* \"TVNProject/TVNStakingPool/TVNStakingPool.sol\":5985:6311  {... */\n      pop\n        /* \"TVNProject/TVNStakingPool/TVNStakingPool.sol\":5850:6311  if (length == 1) {... */\n    tag_302:\n        /* \"TVNProject/TVNStakingPool/TVNStakingPool.sol\":5717:6317  {... */\n      pop\n      pop\n        /* \"TVNProject/TVNStakingPool/TVNStakingPool.sol\":5650:6317  function _removeFromArray(uint256 _tokenId, address _from) private {... */\n      pop\n      pop\n      jump\t// out\n        /* \"TVNProject/TVNStakingPool/TVNStakingPool.sol\":6323:6795  function _removeNFTTokenId(uint256 _tokenId) private {... */\n    tag_202:\n        /* \"TVNProject/TVNStakingPool/TVNStakingPool.sol\":6386:6399  uint256 index */\n      0x00\n        /* \"TVNProject/TVNStakingPool/TVNStakingPool.sol\":6402:6410  NFTIndex */\n      0x0d\n        /* \"TVNProject/TVNStakingPool/TVNStakingPool.sol\":6402:6420  NFTIndex[_tokenId] */\n      0x00\n        /* \"TVNProject/TVNStakingPool/TVNStakingPool.sol\":6411:6419  _tokenId */\n      dup4\n        /* \"TVNProject/TVNStakingPool/TVNStakingPool.sol\":6402:6420  NFTIndex[_tokenId] */\n      dup2\n      mstore\n      0x20\n      add\n      swap1\n      dup2\n      mstore\n      0x20\n      add\n      0x00\n      keccak256\n      sload\n        /* \"TVNProject/TVNStakingPool/TVNStakingPool.sol\":6386:6420  uint256 index = NFTIndex[_tokenId] */\n      swap1\n      pop\n        /* \"TVNProject/TVNStakingPool/TVNStakingPool.sol\":6430:6444  uint256 length */\n      0x00\n        /* \"TVNProject/TVNStakingPool/TVNStakingPool.sol\":6447:6453  allNFT */\n      0x0c\n        /* \"TVNProject/TVNStakingPool/TVNStakingPool.sol\":6447:6460  allNFT.length */\n      dup1\n      sload\n      swap1\n      pop\n        /* \"TVNProject/TVNStakingPool/TVNStakingPool.sol\":6430:6460  uint256 length = allNFT.length */\n      swap1\n      pop\n        /* \"TVNProject/TVNStakingPool/TVNStakingPool.sol\":6485:6486  1 */\n      0x01\n        /* \"TVNProject/TVNStakingPool/TVNStakingPool.sol\":6475:6481  length */\n      dup2\n        /* \"TVNProject/TVNStakingPool/TVNStakingPool.sol\":6475:6486  length == 1 */\n      sub\n        /* \"TVNProject/TVNStakingPool/TVNStakingPool.sol\":6471:6789  if (length == 1) {... */\n      tag_320\n      jumpi\n        /* \"TVNProject/TVNStakingPool/TVNStakingPool.sol\":6509:6515  allNFT */\n      0x0c\n        /* \"TVNProject/TVNStakingPool/TVNStakingPool.sol\":6516:6517  0 */\n      0x00\n        /* \"TVNProject/TVNStakingPool/TVNStakingPool.sol\":6509:6518  allNFT[0] */\n      dup2\n      sload\n      dup2\n      lt\n      tag_321\n      jumpi\n      tag_322\n      tag_306\n      jump\t// in\n    tag_322:\n    tag_321:\n      swap1\n      0x00\n      mstore\n      keccak256(0x00, 0x20)\n      add\n        /* \"TVNProject/TVNStakingPool/TVNStakingPool.sol\":6502:6518  delete allNFT[0] */\n      0x00\n      swap1\n      sstore\n        /* \"TVNProject/TVNStakingPool/TVNStakingPool.sol\":6553:6554  0 */\n      0x00\n        /* \"TVNProject/TVNStakingPool/TVNStakingPool.sol\":6532:6540  NFTIndex */\n      0x0d\n        /* \"TVNProject/TVNStakingPool/TVNStakingPool.sol\":6532:6550  NFTIndex[_tokenId] */\n      0x00\n        /* \"TVNProject/TVNStakingPool/TVNStakingPool.sol\":6541:6549  _tokenId */\n      dup6\n        /* \"TVNProject/TVNStakingPool/TVNStakingPool.sol\":6532:6550  NFTIndex[_tokenId] */\n      dup2\n      mstore\n      0x20\n      add\n      swap1\n      dup2\n      mstore\n      0x20\n      add\n      0x00\n      keccak256\n        /* \"TVNProject/TVNStakingPool/TVNStakingPool.sol\":6532:6554  NFTIndex[_tokenId] = 0 */\n      dup2\n      swap1\n      sstore\n      pop\n        /* \"TVNProject/TVNStakingPool/TVNStakingPool.sol\":6471:6789  if (length == 1) {... */\n      jump(tag_324)\n    tag_320:\n        /* \"TVNProject/TVNStakingPool/TVNStakingPool.sol\":6585:6604  uint256 lastTokenId */\n      0x00\n        /* \"TVNProject/TVNStakingPool/TVNStakingPool.sol\":6607:6613  allNFT */\n      0x0c\n        /* \"TVNProject/TVNStakingPool/TVNStakingPool.sol\":6623:6624  1 */\n      0x01\n        /* \"TVNProject/TVNStakingPool/TVNStakingPool.sol\":6614:6620  length */\n      dup4\n        /* \"TVNProject/TVNStakingPool/TVNStakingPool.sol\":6614:6624  length - 1 */\n      tag_325\n      swap2\n      swap1\n      tag_187\n      jump\t// in\n    tag_325:\n        /* \"TVNProject/TVNStakingPool/TVNStakingPool.sol\":6607:6625  allNFT[length - 1] */\n      dup2\n      sload\n      dup2\n      lt\n      tag_326\n      jumpi\n      tag_327\n      tag_306\n      jump\t// in\n    tag_327:\n    tag_326:\n      swap1\n      0x00\n      mstore\n      keccak256(0x00, 0x20)\n      add\n      sload\n        /* \"TVNProject/TVNStakingPool/TVNStakingPool.sol\":6585:6625  uint256 lastTokenId = allNFT[length - 1] */\n      swap1\n      pop\n        /* \"TVNProject/TVNStakingPool/TVNStakingPool.sol\":6655:6661  allNFT */\n      0x0c\n        /* \"TVNProject/TVNStakingPool/TVNStakingPool.sol\":6671:6672  1 */\n      0x01\n        /* \"TVNProject/TVNStakingPool/TVNStakingPool.sol\":6662:6668  length */\n      dup4\n        /* \"TVNProject/TVNStakingPool/TVNStakingPool.sol\":6662:6672  length - 1 */\n      tag_329\n      swap2\n      swap1\n      tag_187\n      jump\t// in\n    tag_329:\n        /* \"TVNProject/TVNStakingPool/TVNStakingPool.sol\":6655:6673  allNFT[length - 1] */\n      dup2\n      sload\n      dup2\n      lt\n      tag_330\n      jumpi\n      tag_331\n      tag_306\n      jump\t// in\n    tag_331:\n    tag_330:\n      swap1\n      0x00\n      mstore\n      keccak256(0x00, 0x20)\n      add\n      sload\n        /* \"TVNProject/TVNStakingPool/TVNStakingPool.sol\":6639:6645  allNFT */\n      0x0c\n        /* \"TVNProject/TVNStakingPool/TVNStakingPool.sol\":6646:6651  index */\n      dup5\n        /* \"TVNProject/TVNStakingPool/TVNStakingPool.sol\":6639:6652  allNFT[index] */\n      dup2\n      sload\n      dup2\n      lt\n      tag_333\n      jumpi\n      tag_334\n      tag_306\n      jump\t// in\n    tag_334:\n    tag_333:\n      swap1\n      0x00\n      mstore\n      keccak256(0x00, 0x20)\n      add\n        /* \"TVNProject/TVNStakingPool/TVNStakingPool.sol\":6639:6673  allNFT[index] = allNFT[length - 1] */\n      dup2\n      swap1\n      sstore\n      pop\n        /* \"TVNProject/TVNStakingPool/TVNStakingPool.sol\":6687:6693  allNFT */\n      0x0c\n        /* \"TVNProject/TVNStakingPool/TVNStakingPool.sol\":6687:6699  allNFT.pop() */\n      dup1\n      sload\n      dup1\n      tag_336\n      jumpi\n      tag_337\n      tag_317\n      jump\t// in\n    tag_337:\n    tag_336:\n      0x01\n      swap1\n      sub\n      dup2\n      dup2\n      swap1\n      0x00\n      mstore\n      keccak256(0x00, 0x20)\n      add\n      0x00\n      swap1\n      sstore\n      swap1\n      sstore\n        /* \"TVNProject/TVNStakingPool/TVNStakingPool.sol\":6737:6742  index */\n      dup3\n        /* \"TVNProject/TVNStakingPool/TVNStakingPool.sol\":6713:6721  NFTIndex */\n      0x0d\n        /* \"TVNProject/TVNStakingPool/TVNStakingPool.sol\":6713:6734  NFTIndex[lastTokenId] */\n      0x00\n        /* \"TVNProject/TVNStakingPool/TVNStakingPool.sol\":6722:6733  lastTokenId */\n      dup4\n        /* \"TVNProject/TVNStakingPool/TVNStakingPool.sol\":6713:6734  NFTIndex[lastTokenId] */\n      dup2\n      mstore\n      0x20\n      add\n      swap1\n      dup2\n      mstore\n      0x20\n      add\n      0x00\n      keccak256\n        /* \"TVNProject/TVNStakingPool/TVNStakingPool.sol\":6713:6742  NFTIndex[lastTokenId] = index */\n      dup2\n      swap1\n      sstore\n      pop\n        /* \"TVNProject/TVNStakingPool/TVNStakingPool.sol\":6777:6778  0 */\n      0x00\n        /* \"TVNProject/TVNStakingPool/TVNStakingPool.sol\":6756:6764  NFTIndex */\n      0x0d\n        /* \"TVNProject/TVNStakingPool/TVNStakingPool.sol\":6756:6774  NFTIndex[_tokenId] */\n      0x00\n        /* \"TVNProject/TVNStakingPool/TVNStakingPool.sol\":6765:6773  _tokenId */\n      dup7\n        /* \"TVNProject/TVNStakingPool/TVNStakingPool.sol\":6756:6774  NFTIndex[_tokenId] */\n      dup2\n      mstore\n      0x20\n      add\n      swap1\n      dup2\n      mstore\n      0x20\n      add\n      0x00\n      keccak256\n        /* \"TVNProject/TVNStakingPool/TVNStakingPool.sol\":6756:6778  NFTIndex[_tokenId] = 0 */\n      dup2\n      swap1\n      sstore\n      pop\n        /* \"TVNProject/TVNStakingPool/TVNStakingPool.sol\":6571:6789  {... */\n      pop\n        /* \"TVNProject/TVNStakingPool/TVNStakingPool.sol\":6471:6789  if (length == 1) {... */\n    tag_324:\n        /* \"TVNProject/TVNStakingPool/TVNStakingPool.sol\":6376:6795  {... */\n      pop\n      pop\n        /* \"TVNProject/TVNStakingPool/TVNStakingPool.sol\":6323:6795  function _removeNFTTokenId(uint256 _tokenId) private {... */\n      pop\n      jump\t// out\n        /* \"TVNProject/TVNStakingPool/TVNStakingPool.sol\":5100:5204  function _min(uint256 x, uint256 y) private pure returns (uint256) {... */\n    tag_248:\n        /* \"TVNProject/TVNStakingPool/TVNStakingPool.sol\":5158:5165  uint256 */\n      0x00\n        /* \"TVNProject/TVNStakingPool/TVNStakingPool.sol\":5188:5189  y */\n      dup2\n        /* \"TVNProject/TVNStakingPool/TVNStakingPool.sol\":5184:5185  x */\n      dup4\n        /* \"TVNProject/TVNStakingPool/TVNStakingPool.sol\":5184:5189  x > y */\n      gt\n        /* \"TVNProject/TVNStakingPool/TVNStakingPool.sol\":5184:5197  x > y ? y : x */\n      tag_340\n      jumpi\n        /* \"TVNProject/TVNStakingPool/TVNStakingPool.sol\":5196:5197  x */\n      dup3\n        /* \"TVNProject/TVNStakingPool/TVNStakingPool.sol\":5184:5197  x > y ? y : x */\n      jump(tag_341)\n    tag_340:\n        /* \"TVNProject/TVNStakingPool/TVNStakingPool.sol\":5192:5193  y */\n      dup2\n        /* \"TVNProject/TVNStakingPool/TVNStakingPool.sol\":5184:5197  x > y ? y : x */\n    tag_341:\n        /* \"TVNProject/TVNStakingPool/TVNStakingPool.sol\":5177:5197  return x > y ? y : x */\n      swap1\n      pop\n        /* \"TVNProject/TVNStakingPool/TVNStakingPool.sol\":5100:5204  function _min(uint256 x, uint256 y) private pure returns (uint256) {... */\n      swap3\n      swap2\n      pop\n      pop\n      jump\t// out\n    tag_301:\n      pop\n      dup1\n      sload\n      0x00\n      dup3\n      sstore\n      swap1\n      0x00\n      mstore\n      keccak256(0x00, 0x20)\n      swap1\n      dup2\n      add\n      swap1\n      tag_343\n      swap2\n      swap1\n      tag_344\n      jump\t// in\n    tag_343:\n      pop\n      jump\t// out\n    tag_344:\n    tag_345:\n      dup1\n      dup3\n      gt\n      iszero\n      tag_346\n      jumpi\n      0x00\n      dup2\n      0x00\n      swap1\n      sstore\n      pop\n      0x01\n      add\n      jump(tag_345)\n    tag_346:\n      pop\n      swap1\n      jump\t// out\n        /* \"#utility.yul\":7:82   */\n    tag_347:\n        /* \"#utility.yul\":40:46   */\n      0x00\n        /* \"#utility.yul\":73:75   */\n      0x40\n        /* \"#utility.yul\":67:76   */\n      mload\n        /* \"#utility.yul\":57:76   */\n      swap1\n      pop\n        /* \"#utility.yul\":7:82   */\n      swap1\n      jump\t// out\n        /* \"#utility.yul\":88:205   */\n    tag_348:\n        /* \"#utility.yul\":197:198   */\n      0x00\n        /* \"#utility.yul\":194:195   */\n      dup1\n        /* \"#utility.yul\":187:199   */\n      revert\n        /* \"#utility.yul\":211:328   */\n    tag_349:\n        /* \"#utility.yul\":320:321   */\n      0x00\n        /* \"#utility.yul\":317:318   */\n      dup1\n        /* \"#utility.yul\":310:322   */\n      revert\n        /* \"#utility.yul\":334:483   */\n    tag_350:\n        /* \"#utility.yul\":370:377   */\n      0x00\n        /* \"#utility.yul\":410:476   */\n      0xffffffff00000000000000000000000000000000000000000000000000000000\n        /* \"#utility.yul\":403:408   */\n      dup3\n        /* \"#utility.yul\":399:477   */\n      and\n        /* \"#utility.yul\":388:477   */\n      swap1\n      pop\n        /* \"#utility.yul\":334:483   */\n      swap2\n      swap1\n      pop\n      jump\t// out\n        /* \"#utility.yul\":489:609   */\n    tag_351:\n        /* \"#utility.yul\":561:584   */\n      tag_425\n        /* \"#utility.yul\":578:583   */\n      dup2\n        /* \"#utility.yul\":561:584   */\n      tag_350\n      jump\t// in\n    tag_425:\n        /* \"#utility.yul\":554:559   */\n      dup2\n        /* \"#utility.yul\":551:585   */\n      eq\n        /* \"#utility.yul\":541:603   */\n      tag_426\n      jumpi\n        /* \"#utility.yul\":599:600   */\n      0x00\n        /* \"#utility.yul\":596:597   */\n      dup1\n        /* \"#utility.yul\":589:601   */\n      revert\n        /* \"#utility.yul\":541:603   */\n    tag_426:\n        /* \"#utility.yul\":489:609   */\n      pop\n      jump\t// out\n        /* \"#utility.yul\":615:752   */\n    tag_352:\n        /* \"#utility.yul\":660:665   */\n      0x00\n        /* \"#utility.yul\":698:704   */\n      dup2\n        /* \"#utility.yul\":685:705   */\n      calldataload\n        /* \"#utility.yul\":676:705   */\n      swap1\n      pop\n        /* \"#utility.yul\":714:746   */\n      tag_428\n        /* \"#utility.yul\":740:745   */\n      dup2\n        /* \"#utility.yul\":714:746   */\n      tag_351\n      jump\t// in\n    tag_428:\n        /* \"#utility.yul\":615:752   */\n      swap3\n      swap2\n      pop\n      pop\n      jump\t// out\n        /* \"#utility.yul\":758:1085   */\n    tag_41:\n        /* \"#utility.yul\":816:822   */\n      0x00\n        /* \"#utility.yul\":865:867   */\n      0x20\n        /* \"#utility.yul\":853:862   */\n      dup3\n        /* \"#utility.yul\":844:851   */\n      dup5\n        /* \"#utility.yul\":840:863   */\n      sub\n        /* \"#utility.yul\":836:868   */\n      slt\n        /* \"#utility.yul\":833:952   */\n      iszero\n      tag_430\n      jumpi\n        /* \"#utility.yul\":871:950   */\n      tag_431\n      tag_348\n      jump\t// in\n    tag_431:\n        /* \"#utility.yul\":833:952   */\n    tag_430:\n        /* \"#utility.yul\":991:992   */\n      0x00\n        /* \"#utility.yul\":1016:1068   */\n      tag_432\n        /* \"#utility.yul\":1060:1067   */\n      dup5\n        /* \"#utility.yul\":1051:1057   */\n      dup3\n        /* \"#utility.yul\":1040:1049   */\n      dup6\n        /* \"#utility.yul\":1036:1058   */\n      add\n        /* \"#utility.yul\":1016:1068   */\n      tag_352\n      jump\t// in\n    tag_432:\n        /* \"#utility.yul\":1006:1068   */\n      swap2\n      pop\n        /* \"#utility.yul\":962:1078   */\n      pop\n        /* \"#utility.yul\":758:1085   */\n      swap3\n      swap2\n      pop\n      pop\n      jump\t// out\n        /* \"#utility.yul\":1091:1181   */\n    tag_353:\n        /* \"#utility.yul\":1125:1132   */\n      0x00\n        /* \"#utility.yul\":1168:1173   */\n      dup2\n        /* \"#utility.yul\":1161:1174   */\n      iszero\n        /* \"#utility.yul\":1154:1175   */\n      iszero\n        /* \"#utility.yul\":1143:1175   */\n      swap1\n      pop\n        /* \"#utility.yul\":1091:1181   */\n      swap2\n      swap1\n      pop\n      jump\t// out\n        /* \"#utility.yul\":1187:1296   */\n    tag_354:\n        /* \"#utility.yul\":1268:1289   */\n      tag_435\n        /* \"#utility.yul\":1283:1288   */\n      dup2\n        /* \"#utility.yul\":1268:1289   */\n      tag_353\n      jump\t// in\n    tag_435:\n        /* \"#utility.yul\":1263:1266   */\n      dup3\n        /* \"#utility.yul\":1256:1290   */\n      mstore\n        /* \"#utility.yul\":1187:1296   */\n      pop\n      pop\n      jump\t// out\n        /* \"#utility.yul\":1302:1512   */\n    tag_44:\n        /* \"#utility.yul\":1389:1393   */\n      0x00\n        /* \"#utility.yul\":1427:1429   */\n      0x20\n        /* \"#utility.yul\":1416:1425   */\n      dup3\n        /* \"#utility.yul\":1412:1430   */\n      add\n        /* \"#utility.yul\":1404:1430   */\n      swap1\n      pop\n        /* \"#utility.yul\":1440:1505   */\n      tag_437\n        /* \"#utility.yul\":1502:1503   */\n      0x00\n        /* \"#utility.yul\":1491:1500   */\n      dup4\n        /* \"#utility.yul\":1487:1504   */\n      add\n        /* \"#utility.yul\":1478:1484   */\n      dup5\n        /* \"#utility.yul\":1440:1505   */\n      tag_354\n      jump\t// in\n    tag_437:\n        /* \"#utility.yul\":1302:1512   */\n      swap3\n      swap2\n      pop\n      pop\n      jump\t// out\n        /* \"#utility.yul\":1518:1644   */\n    tag_355:\n        /* \"#utility.yul\":1555:1562   */\n      0x00\n        /* \"#utility.yul\":1595:1637   */\n      0xffffffffffffffffffffffffffffffffffffffff\n        /* \"#utility.yul\":1588:1593   */\n      dup3\n        /* \"#utility.yul\":1584:1638   */\n      and\n        /* \"#utility.yul\":1573:1638   */\n      swap1\n      pop\n        /* \"#utility.yul\":1518:1644   */\n      swap2\n      swap1\n      pop\n      jump\t// out\n        /* \"#utility.yul\":1650:1746   */\n    tag_356:\n        /* \"#utility.yul\":1687:1694   */\n      0x00\n        /* \"#utility.yul\":1716:1740   */\n      tag_440\n        /* \"#utility.yul\":1734:1739   */\n      dup3\n        /* \"#utility.yul\":1716:1740   */\n      tag_355\n      jump\t// in\n    tag_440:\n        /* \"#utility.yul\":1705:1740   */\n      swap1\n      pop\n        /* \"#utility.yul\":1650:1746   */\n      swap2\n      swap1\n      pop\n      jump\t// out\n        /* \"#utility.yul\":1752:1874   */\n    tag_357:\n        /* \"#utility.yul\":1825:1849   */\n      tag_442\n        /* \"#utility.yul\":1843:1848   */\n      dup2\n        /* \"#utility.yul\":1825:1849   */\n      tag_356\n      jump\t// in\n    tag_442:\n        /* \"#utility.yul\":1818:1823   */\n      dup2\n        /* \"#utility.yul\":1815:1850   */\n      eq\n        /* \"#utility.yul\":1805:1868   */\n      tag_443\n      jumpi\n        /* \"#utility.yul\":1864:1865   */\n      0x00\n        /* \"#utility.yul\":1861:1862   */\n      dup1\n        /* \"#utility.yul\":1854:1866   */\n      revert\n        /* \"#utility.yul\":1805:1868   */\n    tag_443:\n        /* \"#utility.yul\":1752:1874   */\n      pop\n      jump\t// out\n        /* \"#utility.yul\":1880:2019   */\n    tag_358:\n        /* \"#utility.yul\":1926:1931   */\n      0x00\n        /* \"#utility.yul\":1964:1970   */\n      dup2\n        /* \"#utility.yul\":1951:1971   */\n      calldataload\n        /* \"#utility.yul\":1942:1971   */\n      swap1\n      pop\n        /* \"#utility.yul\":1980:2013   */\n      tag_445\n        /* \"#utility.yul\":2007:2012   */\n      dup2\n        /* \"#utility.yul\":1980:2013   */\n      tag_357\n      jump\t// in\n    tag_445:\n        /* \"#utility.yul\":1880:2019   */\n      swap3\n      swap2\n      pop\n      pop\n      jump\t// out\n        /* \"#utility.yul\":2025:2102   */\n    tag_359:\n        /* \"#utility.yul\":2062:2069   */\n      0x00\n        /* \"#utility.yul\":2091:2096   */\n      dup2\n        /* \"#utility.yul\":2080:2096   */\n      swap1\n      pop\n        /* \"#utility.yul\":2025:2102   */\n      swap2\n      swap1\n      pop\n      jump\t// out\n        /* \"#utility.yul\":2108:2230   */\n    tag_360:\n        /* \"#utility.yul\":2181:2205   */\n      tag_448\n        /* \"#utility.yul\":2199:2204   */\n      dup2\n        /* \"#utility.yul\":2181:2205   */\n      tag_359\n      jump\t// in\n    tag_448:\n        /* \"#utility.yul\":2174:2179   */\n      dup2\n        /* \"#utility.yul\":2171:2206   */\n      eq\n        /* \"#utility.yul\":2161:2224   */\n      tag_449\n      jumpi\n        /* \"#utility.yul\":2220:2221   */\n      0x00\n        /* \"#utility.yul\":2217:2218   */\n      dup1\n        /* \"#utility.yul\":2210:2222   */\n      revert\n        /* \"#utility.yul\":2161:2224   */\n    tag_449:\n        /* \"#utility.yul\":2108:2230   */\n      pop\n      jump\t// out\n        /* \"#utility.yul\":2236:2375   */\n    tag_361:\n        /* \"#utility.yul\":2282:2287   */\n      0x00\n        /* \"#utility.yul\":2320:2326   */\n      dup2\n        /* \"#utility.yul\":2307:2327   */\n      calldataload\n        /* \"#utility.yul\":2298:2327   */\n      swap1\n      pop\n        /* \"#utility.yul\":2336:2369   */\n      tag_451\n        /* \"#utility.yul\":2363:2368   */\n      dup2\n        /* \"#utility.yul\":2336:2369   */\n      tag_360\n      jump\t// in\n    tag_451:\n        /* \"#utility.yul\":2236:2375   */\n      swap3\n      swap2\n      pop\n      pop\n      jump\t// out\n        /* \"#utility.yul\":2381:2855   */\n    tag_47:\n        /* \"#utility.yul\":2449:2455   */\n      0x00\n        /* \"#utility.yul\":2457:2463   */\n      dup1\n        /* \"#utility.yul\":2506:2508   */\n      0x40\n        /* \"#utility.yul\":2494:2503   */\n      dup4\n        /* \"#utility.yul\":2485:2492   */\n      dup6\n        /* \"#utility.yul\":2481:2504   */\n      sub\n        /* \"#utility.yul\":2477:2509   */\n      slt\n        /* \"#utility.yul\":2474:2593   */\n      iszero\n      tag_453\n      jumpi\n        /* \"#utility.yul\":2512:2591   */\n      tag_454\n      tag_348\n      jump\t// in\n    tag_454:\n        /* \"#utility.yul\":2474:2593   */\n    tag_453:\n        /* \"#utility.yul\":2632:2633   */\n      0x00\n        /* \"#utility.yul\":2657:2710   */\n      tag_455\n        /* \"#utility.yul\":2702:2709   */\n      dup6\n        /* \"#utility.yul\":2693:2699   */\n      dup3\n        /* \"#utility.yul\":2682:2691   */\n      dup7\n        /* \"#utility.yul\":2678:2700   */\n      add\n        /* \"#utility.yul\":2657:2710   */\n      tag_358\n      jump\t// in\n    tag_455:\n        /* \"#utility.yul\":2647:2710   */\n      swap3\n      pop\n        /* \"#utility.yul\":2603:2720   */\n      pop\n        /* \"#utility.yul\":2759:2761   */\n      0x20\n        /* \"#utility.yul\":2785:2838   */\n      tag_456\n        /* \"#utility.yul\":2830:2837   */\n      dup6\n        /* \"#utility.yul\":2821:2827   */\n      dup3\n        /* \"#utility.yul\":2810:2819   */\n      dup7\n        /* \"#utility.yul\":2806:2828   */\n      add\n        /* \"#utility.yul\":2785:2838   */\n      tag_361\n      jump\t// in\n    tag_456:\n        /* \"#utility.yul\":2775:2838   */\n      swap2\n      pop\n        /* \"#utility.yul\":2730:2848   */\n      pop\n        /* \"#utility.yul\":2381:2855   */\n      swap3\n      pop\n      swap3\n      swap1\n      pop\n      jump\t// out\n        /* \"#utility.yul\":2861:2979   */\n    tag_362:\n        /* \"#utility.yul\":2948:2972   */\n      tag_458\n        /* \"#utility.yul\":2966:2971   */\n      dup2\n        /* \"#utility.yul\":2948:2972   */\n      tag_359\n      jump\t// in\n    tag_458:\n        /* \"#utility.yul\":2943:2946   */\n      dup3\n        /* \"#utility.yul\":2936:2973   */\n      mstore\n        /* \"#utility.yul\":2861:2979   */\n      pop\n      pop\n      jump\t// out\n        /* \"#utility.yul\":2985:3207   */\n    tag_50:\n        /* \"#utility.yul\":3078:3082   */\n      0x00\n        /* \"#utility.yul\":3116:3118   */\n      0x20\n        /* \"#utility.yul\":3105:3114   */\n      dup3\n        /* \"#utility.yul\":3101:3119   */\n      add\n        /* \"#utility.yul\":3093:3119   */\n      swap1\n      pop\n        /* \"#utility.yul\":3129:3200   */\n      tag_460\n        /* \"#utility.yul\":3197:3198   */\n      0x00\n        /* \"#utility.yul\":3186:3195   */\n      dup4\n        /* \"#utility.yul\":3182:3199   */\n      add\n        /* \"#utility.yul\":3173:3179   */\n      dup5\n        /* \"#utility.yul\":3129:3200   */\n      tag_362\n      jump\t// in\n    tag_460:\n        /* \"#utility.yul\":2985:3207   */\n      swap3\n      swap2\n      pop\n      pop\n      jump\t// out\n        /* \"#utility.yul\":3213:3273   */\n    tag_363:\n        /* \"#utility.yul\":3241:3244   */\n      0x00\n        /* \"#utility.yul\":3262:3267   */\n      dup2\n        /* \"#utility.yul\":3255:3267   */\n      swap1\n      pop\n        /* \"#utility.yul\":3213:3273   */\n      swap2\n      swap1\n      pop\n      jump\t// out\n        /* \"#utility.yul\":3279:3421   */\n    tag_364:\n        /* \"#utility.yul\":3329:3338   */\n      0x00\n        /* \"#utility.yul\":3362:3415   */\n      tag_463\n        /* \"#utility.yul\":3380:3414   */\n      tag_464\n        /* \"#utility.yul\":3389:3413   */\n      tag_465\n        /* \"#utility.yul\":3407:3412   */\n      dup5\n        /* \"#utility.yul\":3389:3413   */\n      tag_355\n      jump\t// in\n    tag_465:\n        /* \"#utility.yul\":3380:3414   */\n      tag_363\n      jump\t// in\n    tag_464:\n        /* \"#utility.yul\":3362:3415   */\n      tag_355\n      jump\t// in\n    tag_463:\n        /* \"#utility.yul\":3349:3415   */\n      swap1\n      pop\n        /* \"#utility.yul\":3279:3421   */\n      swap2\n      swap1\n      pop\n      jump\t// out\n        /* \"#utility.yul\":3427:3553   */\n    tag_365:\n        /* \"#utility.yul\":3477:3486   */\n      0x00\n        /* \"#utility.yul\":3510:3547   */\n      tag_467\n        /* \"#utility.yul\":3541:3546   */\n      dup3\n        /* \"#utility.yul\":3510:3547   */\n      tag_364\n      jump\t// in\n    tag_467:\n        /* \"#utility.yul\":3497:3547   */\n      swap1\n      pop\n        /* \"#utility.yul\":3427:3553   */\n      swap2\n      swap1\n      pop\n      jump\t// out\n        /* \"#utility.yul\":3559:3709   */\n    tag_366:\n        /* \"#utility.yul\":3633:3642   */\n      0x00\n        /* \"#utility.yul\":3666:3703   */\n      tag_469\n        /* \"#utility.yul\":3697:3702   */\n      dup3\n        /* \"#utility.yul\":3666:3703   */\n      tag_365\n      jump\t// in\n    tag_469:\n        /* \"#utility.yul\":3653:3703   */\n      swap1\n      pop\n        /* \"#utility.yul\":3559:3709   */\n      swap2\n      swap1\n      pop\n      jump\t// out\n        /* \"#utility.yul\":3715:3894   */\n    tag_367:\n        /* \"#utility.yul\":3826:3887   */\n      tag_471\n        /* \"#utility.yul\":3881:3886   */\n      dup2\n        /* \"#utility.yul\":3826:3887   */\n      tag_366\n      jump\t// in\n    tag_471:\n        /* \"#utility.yul\":3821:3824   */\n      dup3\n        /* \"#utility.yul\":3814:3888   */\n      mstore\n        /* \"#utility.yul\":3715:3894   */\n      pop\n      pop\n      jump\t// out\n        /* \"#utility.yul\":3900:4170   */\n    tag_58:\n        /* \"#utility.yul\":4017:4021   */\n      0x00\n        /* \"#utility.yul\":4055:4057   */\n      0x20\n        /* \"#utility.yul\":4044:4053   */\n      dup3\n        /* \"#utility.yul\":4040:4058   */\n      add\n        /* \"#utility.yul\":4032:4058   */\n      swap1\n      pop\n        /* \"#utility.yul\":4068:4163   */\n      tag_473\n        /* \"#utility.yul\":4160:4161   */\n      0x00\n        /* \"#utility.yul\":4149:4158   */\n      dup4\n        /* \"#utility.yul\":4145:4162   */\n      add\n        /* \"#utility.yul\":4136:4142   */\n      dup5\n        /* \"#utility.yul\":4068:4163   */\n      tag_367\n      jump\t// in\n    tag_473:\n        /* \"#utility.yul\":3900:4170   */\n      swap3\n      swap2\n      pop\n      pop\n      jump\t// out\n        /* \"#utility.yul\":4176:4293   */\n    tag_368:\n        /* \"#utility.yul\":4285:4286   */\n      0x00\n        /* \"#utility.yul\":4282:4283   */\n      dup1\n        /* \"#utility.yul\":4275:4287   */\n      revert\n        /* \"#utility.yul\":4299:4416   */\n    tag_369:\n        /* \"#utility.yul\":4408:4409   */\n      0x00\n        /* \"#utility.yul\":4405:4406   */\n      dup1\n        /* \"#utility.yul\":4398:4410   */\n      revert\n        /* \"#utility.yul\":4422:4539   */\n    tag_370:\n        /* \"#utility.yul\":4531:4532   */\n      0x00\n        /* \"#utility.yul\":4528:4529   */\n      dup1\n        /* \"#utility.yul\":4521:4533   */\n      revert\n        /* \"#utility.yul\":4558:5110   */\n    tag_371:\n        /* \"#utility.yul\":4615:4623   */\n      0x00\n        /* \"#utility.yul\":4625:4631   */\n      dup1\n        /* \"#utility.yul\":4675:4678   */\n      dup4\n        /* \"#utility.yul\":4668:4672   */\n      0x1f\n        /* \"#utility.yul\":4660:4666   */\n      dup5\n        /* \"#utility.yul\":4656:4673   */\n      add\n        /* \"#utility.yul\":4652:4679   */\n      slt\n        /* \"#utility.yul\":4642:4764   */\n      tag_478\n      jumpi\n        /* \"#utility.yul\":4683:4762   */\n      tag_479\n      tag_368\n      jump\t// in\n    tag_479:\n        /* \"#utility.yul\":4642:4764   */\n    tag_478:\n        /* \"#utility.yul\":4796:4802   */\n      dup3\n        /* \"#utility.yul\":4783:4803   */\n      calldataload\n        /* \"#utility.yul\":4773:4803   */\n      swap1\n      pop\n        /* \"#utility.yul\":4826:4844   */\n      0xffffffffffffffff\n        /* \"#utility.yul\":4818:4824   */\n      dup2\n        /* \"#utility.yul\":4815:4845   */\n      gt\n        /* \"#utility.yul\":4812:4929   */\n      iszero\n      tag_480\n      jumpi\n        /* \"#utility.yul\":4848:4927   */\n      tag_481\n      tag_369\n      jump\t// in\n    tag_481:\n        /* \"#utility.yul\":4812:4929   */\n    tag_480:\n        /* \"#utility.yul\":4962:4966   */\n      0x20\n        /* \"#utility.yul\":4954:4960   */\n      dup4\n        /* \"#utility.yul\":4950:4967   */\n      add\n        /* \"#utility.yul\":4938:4967   */\n      swap2\n      pop\n        /* \"#utility.yul\":5016:5019   */\n      dup4\n        /* \"#utility.yul\":5008:5012   */\n      0x01\n        /* \"#utility.yul\":5000:5006   */\n      dup3\n        /* \"#utility.yul\":4996:5013   */\n      mul\n        /* \"#utility.yul\":4986:4994   */\n      dup4\n        /* \"#utility.yul\":4982:5014   */\n      add\n        /* \"#utility.yul\":4979:5020   */\n      gt\n        /* \"#utility.yul\":4976:5104   */\n      iszero\n      tag_482\n      jumpi\n        /* \"#utility.yul\":5023:5102   */\n      tag_483\n      tag_370\n      jump\t// in\n    tag_483:\n        /* \"#utility.yul\":4976:5104   */\n    tag_482:\n        /* \"#utility.yul\":4558:5110   */\n      swap3\n      pop\n      swap3\n      swap1\n      pop\n      jump\t// out\n        /* \"#utility.yul\":5116:6079   */\n    tag_64:\n        /* \"#utility.yul\":5213:5219   */\n      0x00\n        /* \"#utility.yul\":5221:5227   */\n      dup1\n        /* \"#utility.yul\":5229:5235   */\n      0x00\n        /* \"#utility.yul\":5237:5243   */\n      dup1\n        /* \"#utility.yul\":5245:5251   */\n      0x00\n        /* \"#utility.yul\":5294:5297   */\n      0x80\n        /* \"#utility.yul\":5282:5291   */\n      dup7\n        /* \"#utility.yul\":5273:5280   */\n      dup9\n        /* \"#utility.yul\":5269:5292   */\n      sub\n        /* \"#utility.yul\":5265:5298   */\n      slt\n        /* \"#utility.yul\":5262:5382   */\n      iszero\n      tag_485\n      jumpi\n        /* \"#utility.yul\":5301:5380   */\n      tag_486\n      tag_348\n      jump\t// in\n    tag_486:\n        /* \"#utility.yul\":5262:5382   */\n    tag_485:\n        /* \"#utility.yul\":5421:5422   */\n      0x00\n        /* \"#utility.yul\":5446:5499   */\n      tag_487\n        /* \"#utility.yul\":5491:5498   */\n      dup9\n        /* \"#utility.yul\":5482:5488   */\n      dup3\n        /* \"#utility.yul\":5471:5480   */\n      dup10\n        /* \"#utility.yul\":5467:5489   */\n      add\n        /* \"#utility.yul\":5446:5499   */\n      tag_358\n      jump\t// in\n    tag_487:\n        /* \"#utility.yul\":5436:5499   */\n      swap6\n      pop\n        /* \"#utility.yul\":5392:5509   */\n      pop\n        /* \"#utility.yul\":5548:5550   */\n      0x20\n        /* \"#utility.yul\":5574:5627   */\n      tag_488\n        /* \"#utility.yul\":5619:5626   */\n      dup9\n        /* \"#utility.yul\":5610:5616   */\n      dup3\n        /* \"#utility.yul\":5599:5608   */\n      dup10\n        /* \"#utility.yul\":5595:5617   */\n      add\n        /* \"#utility.yul\":5574:5627   */\n      tag_358\n      jump\t// in\n    tag_488:\n        /* \"#utility.yul\":5564:5627   */\n      swap5\n      pop\n        /* \"#utility.yul\":5519:5637   */\n      pop\n        /* \"#utility.yul\":5676:5678   */\n      0x40\n        /* \"#utility.yul\":5702:5755   */\n      tag_489\n        /* \"#utility.yul\":5747:5754   */\n      dup9\n        /* \"#utility.yul\":5738:5744   */\n      dup3\n        /* \"#utility.yul\":5727:5736   */\n      dup10\n        /* \"#utility.yul\":5723:5745   */\n      add\n        /* \"#utility.yul\":5702:5755   */\n      tag_361\n      jump\t// in\n    tag_489:\n        /* \"#utility.yul\":5692:5755   */\n      swap4\n      pop\n        /* \"#utility.yul\":5647:5765   */\n      pop\n        /* \"#utility.yul\":5832:5834   */\n      0x60\n        /* \"#utility.yul\":5821:5830   */\n      dup7\n        /* \"#utility.yul\":5817:5835   */\n      add\n        /* \"#utility.yul\":5804:5836   */\n      calldataload\n        /* \"#utility.yul\":5863:5881   */\n      0xffffffffffffffff\n        /* \"#utility.yul\":5855:5861   */\n      dup2\n        /* \"#utility.yul\":5852:5882   */\n      gt\n        /* \"#utility.yul\":5849:5966   */\n      iszero\n      tag_490\n      jumpi\n        /* \"#utility.yul\":5885:5964   */\n      tag_491\n      tag_349\n      jump\t// in\n    tag_491:\n        /* \"#utility.yul\":5849:5966   */\n    tag_490:\n        /* \"#utility.yul\":5998:6062   */\n      tag_492\n        /* \"#utility.yul\":6054:6061   */\n      dup9\n        /* \"#utility.yul\":6045:6051   */\n      dup3\n        /* \"#utility.yul\":6034:6043   */\n      dup10\n        /* \"#utility.yul\":6030:6052   */\n      add\n        /* \"#utility.yul\":5998:6062   */\n      tag_371\n      jump\t// in\n    tag_492:\n        /* \"#utility.yul\":5980:6062   */\n      swap3\n      pop\n      swap3\n      pop\n        /* \"#utility.yul\":5775:6072   */\n      pop\n        /* \"#utility.yul\":5116:6079   */\n      swap3\n      swap6\n      pop\n      swap3\n      swap6\n      swap1\n      swap4\n      pop\n      jump\t// out\n        /* \"#utility.yul\":6085:6200   */\n    tag_372:\n        /* \"#utility.yul\":6170:6193   */\n      tag_494\n        /* \"#utility.yul\":6187:6192   */\n      dup2\n        /* \"#utility.yul\":6170:6193   */\n      tag_350\n      jump\t// in\n    tag_494:\n        /* \"#utility.yul\":6165:6168   */\n      dup3\n        /* \"#utility.yul\":6158:6194   */\n      mstore\n        /* \"#utility.yul\":6085:6200   */\n      pop\n      pop\n      jump\t// out\n        /* \"#utility.yul\":6206:6424   */\n    tag_67:\n        /* \"#utility.yul\":6297:6301   */\n      0x00\n        /* \"#utility.yul\":6335:6337   */\n      0x20\n        /* \"#utility.yul\":6324:6333   */\n      dup3\n        /* \"#utility.yul\":6320:6338   */\n      add\n        /* \"#utility.yul\":6312:6338   */\n      swap1\n      pop\n        /* \"#utility.yul\":6348:6417   */\n      tag_496\n        /* \"#utility.yul\":6414:6415   */\n      0x00\n        /* \"#utility.yul\":6403:6412   */\n      dup4\n        /* \"#utility.yul\":6399:6416   */\n      add\n        /* \"#utility.yul\":6390:6396   */\n      dup5\n        /* \"#utility.yul\":6348:6417   */\n      tag_372\n      jump\t// in\n    tag_496:\n        /* \"#utility.yul\":6206:6424   */\n      swap3\n      swap2\n      pop\n      pop\n      jump\t// out\n        /* \"#utility.yul\":6430:6759   */\n    tag_73:\n        /* \"#utility.yul\":6489:6495   */\n      0x00\n        /* \"#utility.yul\":6538:6540   */\n      0x20\n        /* \"#utility.yul\":6526:6535   */\n      dup3\n        /* \"#utility.yul\":6517:6524   */\n      dup5\n        /* \"#utility.yul\":6513:6536   */\n      sub\n        /* \"#utility.yul\":6509:6541   */\n      slt\n        /* \"#utility.yul\":6506:6625   */\n      iszero\n      tag_498\n      jumpi\n        /* \"#utility.yul\":6544:6623   */\n      tag_499\n      tag_348\n      jump\t// in\n    tag_499:\n        /* \"#utility.yul\":6506:6625   */\n    tag_498:\n        /* \"#utility.yul\":6664:6665   */\n      0x00\n        /* \"#utility.yul\":6689:6742   */\n      tag_500\n        /* \"#utility.yul\":6734:6741   */\n      dup5\n        /* \"#utility.yul\":6725:6731   */\n      dup3\n        /* \"#utility.yul\":6714:6723   */\n      dup6\n        /* \"#utility.yul\":6710:6732   */\n      add\n        /* \"#utility.yul\":6689:6742   */\n      tag_361\n      jump\t// in\n    tag_500:\n        /* \"#utility.yul\":6679:6742   */\n      swap2\n      pop\n        /* \"#utility.yul\":6635:6752   */\n      pop\n        /* \"#utility.yul\":6430:6759   */\n      swap3\n      swap2\n      pop\n      pop\n      jump\t// out\n        /* \"#utility.yul\":6765:6882   */\n    tag_373:\n        /* \"#utility.yul\":6874:6875   */\n      0x00\n        /* \"#utility.yul\":6871:6872   */\n      dup1\n        /* \"#utility.yul\":6864:6876   */\n      revert\n        /* \"#utility.yul\":6888:6990   */\n    tag_374:\n        /* \"#utility.yul\":6929:6935   */\n      0x00\n        /* \"#utility.yul\":6980:6982   */\n      0x1f\n        /* \"#utility.yul\":6976:6983   */\n      not\n        /* \"#utility.yul\":6971:6973   */\n      0x1f\n        /* \"#utility.yul\":6964:6969   */\n      dup4\n        /* \"#utility.yul\":6960:6974   */\n      add\n        /* \"#utility.yul\":6956:6984   */\n      and\n        /* \"#utility.yul\":6946:6984   */\n      swap1\n      pop\n        /* \"#utility.yul\":6888:6990   */\n      swap2\n      swap1\n      pop\n      jump\t// out\n        /* \"#utility.yul\":6996:7176   */\n    tag_375:\n        /* \"#utility.yul\":7044:7121   */\n      0x4e487b7100000000000000000000000000000000000000000000000000000000\n        /* \"#utility.yul\":7041:7042   */\n      0x00\n        /* \"#utility.yul\":7034:7122   */\n      mstore\n        /* \"#utility.yul\":7141:7145   */\n      0x41\n        /* \"#utility.yul\":7138:7139   */\n      0x04\n        /* \"#utility.yul\":7131:7146   */\n      mstore\n        /* \"#utility.yul\":7165:7169   */\n      0x24\n        /* \"#utility.yul\":7162:7163   */\n      0x00\n        /* \"#utility.yul\":7155:7170   */\n      revert\n        /* \"#utility.yul\":7182:7463   */\n    tag_376:\n        /* \"#utility.yul\":7265:7292   */\n      tag_505\n        /* \"#utility.yul\":7287:7291   */\n      dup3\n        /* \"#utility.yul\":7265:7292   */\n      tag_374\n      jump\t// in\n    tag_505:\n        /* \"#utility.yul\":7257:7263   */\n      dup2\n        /* \"#utility.yul\":7253:7293   */\n      add\n        /* \"#utility.yul\":7395:7401   */\n      dup2\n        /* \"#utility.yul\":7383:7393   */\n      dup2\n        /* \"#utility.yul\":7380:7402   */\n      lt\n        /* \"#utility.yul\":7359:7377   */\n      0xffffffffffffffff\n        /* \"#utility.yul\":7347:7357   */\n      dup3\n        /* \"#utility.yul\":7344:7378   */\n      gt\n        /* \"#utility.yul\":7341:7403   */\n      or\n        /* \"#utility.yul\":7338:7426   */\n      iszero\n      tag_506\n      jumpi\n        /* \"#utility.yul\":7406:7424   */\n      tag_507\n      tag_375\n      jump\t// in\n    tag_507:\n        /* \"#utility.yul\":7338:7426   */\n    tag_506:\n        /* \"#utility.yul\":7446:7456   */\n      dup1\n        /* \"#utility.yul\":7442:7444   */\n      0x40\n        /* \"#utility.yul\":7435:7457   */\n      mstore\n        /* \"#utility.yul\":7225:7463   */\n      pop\n        /* \"#utility.yul\":7182:7463   */\n      pop\n      pop\n      jump\t// out\n        /* \"#utility.yul\":7469:7598   */\n    tag_377:\n        /* \"#utility.yul\":7503:7509   */\n      0x00\n        /* \"#utility.yul\":7530:7550   */\n      tag_509\n      tag_347\n      jump\t// in\n    tag_509:\n        /* \"#utility.yul\":7520:7550   */\n      swap1\n      pop\n        /* \"#utility.yul\":7559:7592   */\n      tag_510\n        /* \"#utility.yul\":7587:7591   */\n      dup3\n        /* \"#utility.yul\":7579:7585   */\n      dup3\n        /* \"#utility.yul\":7559:7592   */\n      tag_376\n      jump\t// in\n    tag_510:\n        /* \"#utility.yul\":7469:7598   */\n      swap2\n      swap1\n      pop\n      jump\t// out\n        /* \"#utility.yul\":7604:7912   */\n    tag_378:\n        /* \"#utility.yul\":7666:7670   */\n      0x00\n        /* \"#utility.yul\":7756:7774   */\n      0xffffffffffffffff\n        /* \"#utility.yul\":7748:7754   */\n      dup3\n        /* \"#utility.yul\":7745:7775   */\n      gt\n        /* \"#utility.yul\":7742:7798   */\n      iszero\n      tag_512\n      jumpi\n        /* \"#utility.yul\":7778:7796   */\n      tag_513\n      tag_375\n      jump\t// in\n    tag_513:\n        /* \"#utility.yul\":7742:7798   */\n    tag_512:\n        /* \"#utility.yul\":7816:7845   */\n      tag_514\n        /* \"#utility.yul\":7838:7844   */\n      dup3\n        /* \"#utility.yul\":7816:7845   */\n      tag_374\n      jump\t// in\n    tag_514:\n        /* \"#utility.yul\":7808:7845   */\n      swap1\n      pop\n        /* \"#utility.yul\":7900:7904   */\n      0x20\n        /* \"#utility.yul\":7894:7898   */\n      dup2\n        /* \"#utility.yul\":7890:7905   */\n      add\n        /* \"#utility.yul\":7882:7905   */\n      swap1\n      pop\n        /* \"#utility.yul\":7604:7912   */\n      swap2\n      swap1\n      pop\n      jump\t// out\n        /* \"#utility.yul\":7918:8064   */\n    tag_379:\n        /* \"#utility.yul\":8015:8021   */\n      dup3\n        /* \"#utility.yul\":8010:8013   */\n      dup2\n        /* \"#utility.yul\":8005:8008   */\n      dup4\n        /* \"#utility.yul\":7992:8022   */\n      calldatacopy\n        /* \"#utility.yul\":8056:8057   */\n      0x00\n        /* \"#utility.yul\":8047:8053   */\n      dup4\n        /* \"#utility.yul\":8042:8045   */\n      dup4\n        /* \"#utility.yul\":8038:8054   */\n      add\n        /* \"#utility.yul\":8031:8058   */\n      mstore\n        /* \"#utility.yul\":7918:8064   */\n      pop\n      pop\n      pop\n      jump\t// out\n        /* \"#utility.yul\":8070:8495   */\n    tag_380:\n        /* \"#utility.yul\":8148:8153   */\n      0x00\n        /* \"#utility.yul\":8173:8239   */\n      tag_517\n        /* \"#utility.yul\":8189:8238   */\n      tag_518\n        /* \"#utility.yul\":8231:8237   */\n      dup5\n        /* \"#utility.yul\":8189:8238   */\n      tag_378\n      jump\t// in\n    tag_518:\n        /* \"#utility.yul\":8173:8239   */\n      tag_377\n      jump\t// in\n    tag_517:\n        /* \"#utility.yul\":8164:8239   */\n      swap1\n      pop\n        /* \"#utility.yul\":8262:8268   */\n      dup3\n        /* \"#utility.yul\":8255:8260   */\n      dup2\n        /* \"#utility.yul\":8248:8269   */\n      mstore\n        /* \"#utility.yul\":8300:8304   */\n      0x20\n        /* \"#utility.yul\":8293:8298   */\n      dup2\n        /* \"#utility.yul\":8289:8305   */\n      add\n        /* \"#utility.yul\":8338:8341   */\n      dup5\n        /* \"#utility.yul\":8329:8335   */\n      dup5\n        /* \"#utility.yul\":8324:8327   */\n      dup5\n        /* \"#utility.yul\":8320:8336   */\n      add\n        /* \"#utility.yul\":8317:8342   */\n      gt\n        /* \"#utility.yul\":8314:8426   */\n      iszero\n      tag_519\n      jumpi\n        /* \"#utility.yul\":8345:8424   */\n      tag_520\n      tag_373\n      jump\t// in\n    tag_520:\n        /* \"#utility.yul\":8314:8426   */\n    tag_519:\n        /* \"#utility.yul\":8435:8489   */\n      tag_521\n        /* \"#utility.yul\":8482:8488   */\n      dup5\n        /* \"#utility.yul\":8477:8480   */\n      dup3\n        /* \"#utility.yul\":8472:8475   */\n      dup6\n        /* \"#utility.yul\":8435:8489   */\n      tag_379\n      jump\t// in\n    tag_521:\n        /* \"#utility.yul\":8154:8495   */\n      pop\n        /* \"#utility.yul\":8070:8495   */\n      swap4\n      swap3\n      pop\n      pop\n      pop\n      jump\t// out\n        /* \"#utility.yul\":8515:8855   */\n    tag_381:\n        /* \"#utility.yul\":8571:8576   */\n      0x00\n        /* \"#utility.yul\":8620:8623   */\n      dup3\n        /* \"#utility.yul\":8613:8617   */\n      0x1f\n        /* \"#utility.yul\":8605:8611   */\n      dup4\n        /* \"#utility.yul\":8601:8618   */\n      add\n        /* \"#utility.yul\":8597:8624   */\n      slt\n        /* \"#utility.yul\":8587:8709   */\n      tag_523\n      jumpi\n        /* \"#utility.yul\":8628:8707   */\n      tag_524\n      tag_368\n      jump\t// in\n    tag_524:\n        /* \"#utility.yul\":8587:8709   */\n    tag_523:\n        /* \"#utility.yul\":8745:8751   */\n      dup2\n        /* \"#utility.yul\":8732:8752   */\n      calldataload\n        /* \"#utility.yul\":8770:8849   */\n      tag_525\n        /* \"#utility.yul\":8845:8848   */\n      dup5\n        /* \"#utility.yul\":8837:8843   */\n      dup3\n        /* \"#utility.yul\":8830:8834   */\n      0x20\n        /* \"#utility.yul\":8822:8828   */\n      dup7\n        /* \"#utility.yul\":8818:8835   */\n      add\n        /* \"#utility.yul\":8770:8849   */\n      tag_380\n      jump\t// in\n    tag_525:\n        /* \"#utility.yul\":8761:8849   */\n      swap2\n      pop\n        /* \"#utility.yul\":8577:8855   */\n      pop\n        /* \"#utility.yul\":8515:8855   */\n      swap3\n      swap2\n      pop\n      pop\n      jump\t// out\n        /* \"#utility.yul\":8861:9515   */\n    tag_80:\n        /* \"#utility.yul\":8939:8945   */\n      0x00\n        /* \"#utility.yul\":8947:8953   */\n      dup1\n        /* \"#utility.yul\":8996:8998   */\n      0x40\n        /* \"#utility.yul\":8984:8993   */\n      dup4\n        /* \"#utility.yul\":8975:8982   */\n      dup6\n        /* \"#utility.yul\":8971:8994   */\n      sub\n        /* \"#utility.yul\":8967:8999   */\n      slt\n        /* \"#utility.yul\":8964:9083   */\n      iszero\n      tag_527\n      jumpi\n        /* \"#utility.yul\":9002:9081   */\n      tag_528\n      tag_348\n      jump\t// in\n    tag_528:\n        /* \"#utility.yul\":8964:9083   */\n    tag_527:\n        /* \"#utility.yul\":9150:9151   */\n      0x00\n        /* \"#utility.yul\":9139:9148   */\n      dup4\n        /* \"#utility.yul\":9135:9152   */\n      add\n        /* \"#utility.yul\":9122:9153   */\n      calldataload\n        /* \"#utility.yul\":9180:9198   */\n      0xffffffffffffffff\n        /* \"#utility.yul\":9172:9178   */\n      dup2\n        /* \"#utility.yul\":9169:9199   */\n      gt\n        /* \"#utility.yul\":9166:9283   */\n      iszero\n      tag_529\n      jumpi\n        /* \"#utility.yul\":9202:9281   */\n      tag_530\n      tag_349\n      jump\t// in\n    tag_530:\n        /* \"#utility.yul\":9166:9283   */\n    tag_529:\n        /* \"#utility.yul\":9307:9370   */\n      tag_531\n        /* \"#utility.yul\":9362:9369   */\n      dup6\n        /* \"#utility.yul\":9353:9359   */\n      dup3\n        /* \"#utility.yul\":9342:9351   */\n      dup7\n        /* \"#utility.yul\":9338:9360   */\n      add\n        /* \"#utility.yul\":9307:9370   */\n      tag_381\n      jump\t// in\n    tag_531:\n        /* \"#utility.yul\":9297:9370   */\n      swap3\n      pop\n        /* \"#utility.yul\":9093:9380   */\n      pop\n        /* \"#utility.yul\":9419:9421   */\n      0x20\n        /* \"#utility.yul\":9445:9498   */\n      tag_532\n        /* \"#utility.yul\":9490:9497   */\n      dup6\n        /* \"#utility.yul\":9481:9487   */\n      dup3\n        /* \"#utility.yul\":9470:9479   */\n      dup7\n        /* \"#utility.yul\":9466:9488   */\n      add\n        /* \"#utility.yul\":9445:9498   */\n      tag_361\n      jump\t// in\n    tag_532:\n        /* \"#utility.yul\":9435:9498   */\n      swap2\n      pop\n        /* \"#utility.yul\":9390:9508   */\n      pop\n        /* \"#utility.yul\":8861:9515   */\n      swap3\n      pop\n      swap3\n      swap1\n      pop\n      jump\t// out\n        /* \"#utility.yul\":9521:9619   */\n    tag_382:\n        /* \"#utility.yul\":9572:9578   */\n      0x00\n        /* \"#utility.yul\":9606:9611   */\n      dup2\n        /* \"#utility.yul\":9600:9612   */\n      mload\n        /* \"#utility.yul\":9590:9612   */\n      swap1\n      pop\n        /* \"#utility.yul\":9521:9619   */\n      swap2\n      swap1\n      pop\n      jump\t// out\n        /* \"#utility.yul\":9625:9793   */\n    tag_383:\n        /* \"#utility.yul\":9708:9719   */\n      0x00\n        /* \"#utility.yul\":9742:9748   */\n      dup3\n        /* \"#utility.yul\":9737:9740   */\n      dup3\n        /* \"#utility.yul\":9730:9749   */\n      mstore\n        /* \"#utility.yul\":9782:9786   */\n      0x20\n        /* \"#utility.yul\":9777:9780   */\n      dup3\n        /* \"#utility.yul\":9773:9787   */\n      add\n        /* \"#utility.yul\":9758:9787   */\n      swap1\n      pop\n        /* \"#utility.yul\":9625:9793   */\n      swap3\n      swap2\n      pop\n      pop\n      jump\t// out\n        /* \"#utility.yul\":9799:10045   */\n    tag_384:\n        /* \"#utility.yul\":9880:9881   */\n      0x00\n        /* \"#utility.yul\":9890:10003   */\n    tag_536:\n        /* \"#utility.yul\":9904:9910   */\n      dup4\n        /* \"#utility.yul\":9901:9902   */\n      dup2\n        /* \"#utility.yul\":9898:9911   */\n      lt\n        /* \"#utility.yul\":9890:10003   */\n      iszero\n      tag_538\n      jumpi\n        /* \"#utility.yul\":9989:9990   */\n      dup1\n        /* \"#utility.yul\":9984:9987   */\n      dup3\n        /* \"#utility.yul\":9980:9991   */\n      add\n        /* \"#utility.yul\":9974:9992   */\n      mload\n        /* \"#utility.yul\":9970:9971   */\n      dup2\n        /* \"#utility.yul\":9965:9968   */\n      dup5\n        /* \"#utility.yul\":9961:9972   */\n      add\n        /* \"#utility.yul\":9954:9993   */\n      mstore\n        /* \"#utility.yul\":9926:9928   */\n      0x20\n        /* \"#utility.yul\":9923:9924   */\n      dup2\n        /* \"#utility.yul\":9919:9929   */\n      add\n        /* \"#utility.yul\":9914:9929   */\n      swap1\n      pop\n        /* \"#utility.yul\":9890:10003   */\n      jump(tag_536)\n    tag_538:\n        /* \"#utility.yul\":10037:10038   */\n      0x00\n        /* \"#utility.yul\":10028:10034   */\n      dup5\n        /* \"#utility.yul\":10023:10026   */\n      dup5\n        /* \"#utility.yul\":10019:10035   */\n      add\n        /* \"#utility.yul\":10012:10039   */\n      mstore\n        /* \"#utility.yul\":9861:10045   */\n      pop\n        /* \"#utility.yul\":9799:10045   */\n      pop\n      pop\n      pop\n      jump\t// out\n        /* \"#utility.yul\":10051:10424   */\n    tag_385:\n        /* \"#utility.yul\":10137:10140   */\n      0x00\n        /* \"#utility.yul\":10165:10203   */\n      tag_540\n        /* \"#utility.yul\":10197:10202   */\n      dup3\n        /* \"#utility.yul\":10165:10203   */\n      tag_382\n      jump\t// in\n    tag_540:\n        /* \"#utility.yul\":10219:10289   */\n      tag_541\n        /* \"#utility.yul\":10282:10288   */\n      dup2\n        /* \"#utility.yul\":10277:10280   */\n      dup6\n        /* \"#utility.yul\":10219:10289   */\n      tag_383\n      jump\t// in\n    tag_541:\n        /* \"#utility.yul\":10212:10289   */\n      swap4\n      pop\n        /* \"#utility.yul\":10298:10363   */\n      tag_542\n        /* \"#utility.yul\":10356:10362   */\n      dup2\n        /* \"#utility.yul\":10351:10354   */\n      dup6\n        /* \"#utility.yul\":10344:10348   */\n      0x20\n        /* \"#utility.yul\":10337:10342   */\n      dup7\n        /* \"#utility.yul\":10333:10349   */\n      add\n        /* \"#utility.yul\":10298:10363   */\n      tag_384\n      jump\t// in\n    tag_542:\n        /* \"#utility.yul\":10388:10417   */\n      tag_543\n        /* \"#utility.yul\":10410:10416   */\n      dup2\n        /* \"#utility.yul\":10388:10417   */\n      tag_374\n      jump\t// in\n    tag_543:\n        /* \"#utility.yul\":10383:10386   */\n      dup5\n        /* \"#utility.yul\":10379:10418   */\n      add\n        /* \"#utility.yul\":10372:10418   */\n      swap2\n      pop\n        /* \"#utility.yul\":10141:10424   */\n      pop\n        /* \"#utility.yul\":10051:10424   */\n      swap3\n      swap2\n      pop\n      pop\n      jump\t// out\n        /* \"#utility.yul\":10430:10739   */\n    tag_83:\n        /* \"#utility.yul\":10541:10545   */\n      0x00\n        /* \"#utility.yul\":10579:10581   */\n      0x20\n        /* \"#utility.yul\":10568:10577   */\n      dup3\n        /* \"#utility.yul\":10564:10582   */\n      add\n        /* \"#utility.yul\":10556:10582   */\n      swap1\n      pop\n        /* \"#utility.yul\":10628:10637   */\n      dup2\n        /* \"#utility.yul\":10622:10626   */\n      dup2\n        /* \"#utility.yul\":10618:10638   */\n      sub\n        /* \"#utility.yul\":10614:10615   */\n      0x00\n        /* \"#utility.yul\":10603:10612   */\n      dup4\n        /* \"#utility.yul\":10599:10616   */\n      add\n        /* \"#utility.yul\":10592:10639   */\n      mstore\n        /* \"#utility.yul\":10656:10732   */\n      tag_545\n        /* \"#utility.yul\":10727:10731   */\n      dup2\n        /* \"#utility.yul\":10718:10724   */\n      dup5\n        /* \"#utility.yul\":10656:10732   */\n      tag_385\n      jump\t// in\n    tag_545:\n        /* \"#utility.yul\":10648:10732   */\n      swap1\n      pop\n        /* \"#utility.yul\":10430:10739   */\n      swap3\n      swap2\n      pop\n      pop\n      jump\t// out\n        /* \"#utility.yul\":10745:10863   */\n    tag_386:\n        /* \"#utility.yul\":10832:10856   */\n      tag_547\n        /* \"#utility.yul\":10850:10855   */\n      dup2\n        /* \"#utility.yul\":10832:10856   */\n      tag_356\n      jump\t// in\n    tag_547:\n        /* \"#utility.yul\":10827:10830   */\n      dup3\n        /* \"#utility.yul\":10820:10857   */\n      mstore\n        /* \"#utility.yul\":10745:10863   */\n      pop\n      pop\n      jump\t// out\n        /* \"#utility.yul\":10869:11091   */\n    tag_110:\n        /* \"#utility.yul\":10962:10966   */\n      0x00\n        /* \"#utility.yul\":11000:11002   */\n      0x20\n        /* \"#utility.yul\":10989:10998   */\n      dup3\n        /* \"#utility.yul\":10985:11003   */\n      add\n        /* \"#utility.yul\":10977:11003   */\n      swap1\n      pop\n        /* \"#utility.yul\":11013:11084   */\n      tag_549\n        /* \"#utility.yul\":11081:11082   */\n      0x00\n        /* \"#utility.yul\":11070:11079   */\n      dup4\n        /* \"#utility.yul\":11066:11083   */\n      add\n        /* \"#utility.yul\":11057:11063   */\n      dup5\n        /* \"#utility.yul\":11013:11084   */\n      tag_386\n      jump\t// in\n    tag_549:\n        /* \"#utility.yul\":10869:11091   */\n      swap3\n      swap2\n      pop\n      pop\n      jump\t// out\n        /* \"#utility.yul\":11097:11211   */\n    tag_387:\n        /* \"#utility.yul\":11164:11170   */\n      0x00\n        /* \"#utility.yul\":11198:11203   */\n      dup2\n        /* \"#utility.yul\":11192:11204   */\n      mload\n        /* \"#utility.yul\":11182:11204   */\n      swap1\n      pop\n        /* \"#utility.yul\":11097:11211   */\n      swap2\n      swap1\n      pop\n      jump\t// out\n        /* \"#utility.yul\":11217:11401   */\n    tag_388:\n        /* \"#utility.yul\":11316:11327   */\n      0x00\n        /* \"#utility.yul\":11350:11356   */\n      dup3\n        /* \"#utility.yul\":11345:11348   */\n      dup3\n        /* \"#utility.yul\":11338:11357   */\n      mstore\n        /* \"#utility.yul\":11390:11394   */\n      0x20\n        /* \"#utility.yul\":11385:11388   */\n      dup3\n        /* \"#utility.yul\":11381:11395   */\n      add\n        /* \"#utility.yul\":11366:11395   */\n      swap1\n      pop\n        /* \"#utility.yul\":11217:11401   */\n      swap3\n      swap2\n      pop\n      pop\n      jump\t// out\n        /* \"#utility.yul\":11407:11539   */\n    tag_389:\n        /* \"#utility.yul\":11474:11478   */\n      0x00\n        /* \"#utility.yul\":11497:11500   */\n      dup2\n        /* \"#utility.yul\":11489:11500   */\n      swap1\n      pop\n        /* \"#utility.yul\":11527:11531   */\n      0x20\n        /* \"#utility.yul\":11522:11525   */\n      dup3\n        /* \"#utility.yul\":11518:11532   */\n      add\n        /* \"#utility.yul\":11510:11532   */\n      swap1\n      pop\n        /* \"#utility.yul\":11407:11539   */\n      swap2\n      swap1\n      pop\n      jump\t// out\n        /* \"#utility.yul\":11545:11653   */\n    tag_390:\n        /* \"#utility.yul\":11622:11646   */\n      tag_554\n        /* \"#utility.yul\":11640:11645   */\n      dup2\n        /* \"#utility.yul\":11622:11646   */\n      tag_359\n      jump\t// in\n    tag_554:\n        /* \"#utility.yul\":11617:11620   */\n      dup3\n        /* \"#utility.yul\":11610:11647   */\n      mstore\n        /* \"#utility.yul\":11545:11653   */\n      pop\n      pop\n      jump\t// out\n        /* \"#utility.yul\":11659:11838   */\n    tag_391:\n        /* \"#utility.yul\":11728:11738   */\n      0x00\n        /* \"#utility.yul\":11749:11795   */\n      tag_556\n        /* \"#utility.yul\":11791:11794   */\n      dup4\n        /* \"#utility.yul\":11783:11789   */\n      dup4\n        /* \"#utility.yul\":11749:11795   */\n      tag_390\n      jump\t// in\n    tag_556:\n        /* \"#utility.yul\":11827:11831   */\n      0x20\n        /* \"#utility.yul\":11822:11825   */\n      dup4\n        /* \"#utility.yul\":11818:11832   */\n      add\n        /* \"#utility.yul\":11804:11832   */\n      swap1\n      pop\n        /* \"#utility.yul\":11659:11838   */\n      swap3\n      swap2\n      pop\n      pop\n      jump\t// out\n        /* \"#utility.yul\":11844:11957   */\n    tag_392:\n        /* \"#utility.yul\":11914:11918   */\n      0x00\n        /* \"#utility.yul\":11946:11950   */\n      0x20\n        /* \"#utility.yul\":11941:11944   */\n      dup3\n        /* \"#utility.yul\":11937:11951   */\n      add\n        /* \"#utility.yul\":11929:11951   */\n      swap1\n      pop\n        /* \"#utility.yul\":11844:11957   */\n      swap2\n      swap1\n      pop\n      jump\t// out\n        /* \"#utility.yul\":11993:12725   */\n    tag_393:\n        /* \"#utility.yul\":12112:12115   */\n      0x00\n        /* \"#utility.yul\":12141:12195   */\n      tag_559\n        /* \"#utility.yul\":12189:12194   */\n      dup3\n        /* \"#utility.yul\":12141:12195   */\n      tag_387\n      jump\t// in\n    tag_559:\n        /* \"#utility.yul\":12211:12297   */\n      tag_560\n        /* \"#utility.yul\":12290:12296   */\n      dup2\n        /* \"#utility.yul\":12285:12288   */\n      dup6\n        /* \"#utility.yul\":12211:12297   */\n      tag_388\n      jump\t// in\n    tag_560:\n        /* \"#utility.yul\":12204:12297   */\n      swap4\n      pop\n        /* \"#utility.yul\":12321:12377   */\n      tag_561\n        /* \"#utility.yul\":12371:12376   */\n      dup4\n        /* \"#utility.yul\":12321:12377   */\n      tag_389\n      jump\t// in\n    tag_561:\n        /* \"#utility.yul\":12400:12407   */\n      dup1\n        /* \"#utility.yul\":12431:12432   */\n      0x00\n        /* \"#utility.yul\":12416:12700   */\n    tag_562:\n        /* \"#utility.yul\":12441:12447   */\n      dup4\n        /* \"#utility.yul\":12438:12439   */\n      dup2\n        /* \"#utility.yul\":12435:12448   */\n      lt\n        /* \"#utility.yul\":12416:12700   */\n      iszero\n      tag_564\n      jumpi\n        /* \"#utility.yul\":12517:12523   */\n      dup2\n        /* \"#utility.yul\":12511:12524   */\n      mload\n        /* \"#utility.yul\":12544:12607   */\n      tag_565\n        /* \"#utility.yul\":12603:12606   */\n      dup9\n        /* \"#utility.yul\":12588:12601   */\n      dup3\n        /* \"#utility.yul\":12544:12607   */\n      tag_391\n      jump\t// in\n    tag_565:\n        /* \"#utility.yul\":12537:12607   */\n      swap8\n      pop\n        /* \"#utility.yul\":12630:12690   */\n      tag_566\n        /* \"#utility.yul\":12683:12689   */\n      dup4\n        /* \"#utility.yul\":12630:12690   */\n      tag_392\n      jump\t// in\n    tag_566:\n        /* \"#utility.yul\":12620:12690   */\n      swap3\n      pop\n        /* \"#utility.yul\":12476:12700   */\n      pop\n        /* \"#utility.yul\":12463:12464   */\n      0x01\n        /* \"#utility.yul\":12460:12461   */\n      dup2\n        /* \"#utility.yul\":12456:12465   */\n      add\n        /* \"#utility.yul\":12451:12465   */\n      swap1\n      pop\n        /* \"#utility.yul\":12416:12700   */\n      jump(tag_562)\n    tag_564:\n        /* \"#utility.yul\":12420:12434   */\n      pop\n        /* \"#utility.yul\":12716:12719   */\n      dup6\n        /* \"#utility.yul\":12709:12719   */\n      swap4\n      pop\n        /* \"#utility.yul\":12117:12725   */\n      pop\n      pop\n      pop\n        /* \"#utility.yul\":11993:12725   */\n      swap3\n      swap2\n      pop\n      pop\n      jump\t// out\n        /* \"#utility.yul\":12731:13104   */\n    tag_121:\n        /* \"#utility.yul\":12874:12878   */\n      0x00\n        /* \"#utility.yul\":12912:12914   */\n      0x20\n        /* \"#utility.yul\":12901:12910   */\n      dup3\n        /* \"#utility.yul\":12897:12915   */\n      add\n        /* \"#utility.yul\":12889:12915   */\n      swap1\n      pop\n        /* \"#utility.yul\":12961:12970   */\n      dup2\n        /* \"#utility.yul\":12955:12959   */\n      dup2\n        /* \"#utility.yul\":12951:12971   */\n      sub\n        /* \"#utility.yul\":12947:12948   */\n      0x00\n        /* \"#utility.yul\":12936:12945   */\n      dup4\n        /* \"#utility.yul\":12932:12949   */\n      add\n        /* \"#utility.yul\":12925:12972   */\n      mstore\n        /* \"#utility.yul\":12989:13097   */\n      tag_568\n        /* \"#utility.yul\":13092:13096   */\n      dup2\n        /* \"#utility.yul\":13083:13089   */\n      dup5\n        /* \"#utility.yul\":12989:13097   */\n      tag_393\n      jump\t// in\n    tag_568:\n        /* \"#utility.yul\":12981:13097   */\n      swap1\n      pop\n        /* \"#utility.yul\":12731:13104   */\n      swap3\n      swap2\n      pop\n      pop\n      jump\t// out\n        /* \"#utility.yul\":13110:13249   */\n    tag_394:\n        /* \"#utility.yul\":13173:13182   */\n      0x00\n        /* \"#utility.yul\":13206:13243   */\n      tag_570\n        /* \"#utility.yul\":13237:13242   */\n      dup3\n        /* \"#utility.yul\":13206:13243   */\n      tag_365\n      jump\t// in\n    tag_570:\n        /* \"#utility.yul\":13193:13243   */\n      swap1\n      pop\n        /* \"#utility.yul\":13110:13249   */\n      swap2\n      swap1\n      pop\n      jump\t// out\n        /* \"#utility.yul\":13255:13412   */\n    tag_395:\n        /* \"#utility.yul\":13355:13405   */\n      tag_572\n        /* \"#utility.yul\":13399:13404   */\n      dup2\n        /* \"#utility.yul\":13355:13405   */\n      tag_394\n      jump\t// in\n    tag_572:\n        /* \"#utility.yul\":13350:13353   */\n      dup3\n        /* \"#utility.yul\":13343:13406   */\n      mstore\n        /* \"#utility.yul\":13255:13412   */\n      pop\n      pop\n      jump\t// out\n        /* \"#utility.yul\":13418:13666   */\n    tag_138:\n        /* \"#utility.yul\":13524:13528   */\n      0x00\n        /* \"#utility.yul\":13562:13564   */\n      0x20\n        /* \"#utility.yul\":13551:13560   */\n      dup3\n        /* \"#utility.yul\":13547:13565   */\n      add\n        /* \"#utility.yul\":13539:13565   */\n      swap1\n      pop\n        /* \"#utility.yul\":13575:13659   */\n      tag_574\n        /* \"#utility.yul\":13656:13657   */\n      0x00\n        /* \"#utility.yul\":13645:13654   */\n      dup4\n        /* \"#utility.yul\":13641:13658   */\n      add\n        /* \"#utility.yul\":13632:13638   */\n      dup5\n        /* \"#utility.yul\":13575:13659   */\n      tag_395\n      jump\t// in\n    tag_574:\n        /* \"#utility.yul\":13418:13666   */\n      swap3\n      swap2\n      pop\n      pop\n      jump\t// out\n        /* \"#utility.yul\":13672:13789   */\n    tag_396:\n        /* \"#utility.yul\":13781:13782   */\n      0x00\n        /* \"#utility.yul\":13778:13779   */\n      dup1\n        /* \"#utility.yul\":13771:13783   */\n      revert\n        /* \"#utility.yul\":13918:14061   */\n    tag_398:\n        /* \"#utility.yul\":13975:13980   */\n      0x00\n        /* \"#utility.yul\":14006:14012   */\n      dup2\n        /* \"#utility.yul\":14000:14013   */\n      mload\n        /* \"#utility.yul\":13991:14013   */\n      swap1\n      pop\n        /* \"#utility.yul\":14022:14055   */\n      tag_578\n        /* \"#utility.yul\":14049:14054   */\n      dup2\n        /* \"#utility.yul\":14022:14055   */\n      tag_360\n      jump\t// in\n    tag_578:\n        /* \"#utility.yul\":13918:14061   */\n      swap3\n      swap2\n      pop\n      pop\n      jump\t// out\n        /* \"#utility.yul\":14067:14210   */\n    tag_399:\n        /* \"#utility.yul\":14124:14129   */\n      0x00\n        /* \"#utility.yul\":14155:14161   */\n      dup2\n        /* \"#utility.yul\":14149:14162   */\n      mload\n        /* \"#utility.yul\":14140:14162   */\n      swap1\n      pop\n        /* \"#utility.yul\":14171:14204   */\n      tag_580\n        /* \"#utility.yul\":14198:14203   */\n      dup2\n        /* \"#utility.yul\":14171:14204   */\n      tag_357\n      jump\t// in\n    tag_580:\n        /* \"#utility.yul\":14067:14210   */\n      swap3\n      swap2\n      pop\n      pop\n      jump\t// out\n        /* \"#utility.yul\":14260:15746   */\n    tag_400:\n        /* \"#utility.yul\":14349:14354   */\n      0x00\n        /* \"#utility.yul\":14393:14397   */\n      0xe0\n        /* \"#utility.yul\":14381:14390   */\n      dup3\n        /* \"#utility.yul\":14376:14379   */\n      dup5\n        /* \"#utility.yul\":14372:14391   */\n      sub\n        /* \"#utility.yul\":14368:14398   */\n      slt\n        /* \"#utility.yul\":14365:14482   */\n      iszero\n      tag_582\n      jumpi\n        /* \"#utility.yul\":14401:14480   */\n      tag_583\n      tag_396\n      jump\t// in\n    tag_583:\n        /* \"#utility.yul\":14365:14482   */\n    tag_582:\n        /* \"#utility.yul\":14500:14521   */\n      tag_584\n        /* \"#utility.yul\":14516:14520   */\n      0xe0\n        /* \"#utility.yul\":14500:14521   */\n      tag_377\n      jump\t// in\n    tag_584:\n        /* \"#utility.yul\":14491:14521   */\n      swap1\n      pop\n        /* \"#utility.yul\":14582:14583   */\n      0x00\n        /* \"#utility.yul\":14622:14682   */\n      tag_585\n        /* \"#utility.yul\":14678:14681   */\n      dup5\n        /* \"#utility.yul\":14669:14675   */\n      dup3\n        /* \"#utility.yul\":14658:14667   */\n      dup6\n        /* \"#utility.yul\":14654:14676   */\n      add\n        /* \"#utility.yul\":14622:14682   */\n      tag_398\n      jump\t// in\n    tag_585:\n        /* \"#utility.yul\":14615:14619   */\n      0x00\n        /* \"#utility.yul\":14608:14613   */\n      dup4\n        /* \"#utility.yul\":14604:14620   */\n      add\n        /* \"#utility.yul\":14597:14683   */\n      mstore\n        /* \"#utility.yul\":14531:14694   */\n      pop\n        /* \"#utility.yul\":14754:14756   */\n      0x20\n        /* \"#utility.yul\":14795:14855   */\n      tag_586\n        /* \"#utility.yul\":14851:14854   */\n      dup5\n        /* \"#utility.yul\":14842:14848   */\n      dup3\n        /* \"#utility.yul\":14831:14840   */\n      dup6\n        /* \"#utility.yul\":14827:14849   */\n      add\n        /* \"#utility.yul\":14795:14855   */\n      tag_399\n      jump\t// in\n    tag_586:\n        /* \"#utility.yul\":14788:14792   */\n      0x20\n        /* \"#utility.yul\":14781:14786   */\n      dup4\n        /* \"#utility.yul\":14777:14793   */\n      add\n        /* \"#utility.yul\":14770:14856   */\n      mstore\n        /* \"#utility.yul\":14704:14867   */\n      pop\n        /* \"#utility.yul\":14928:14930   */\n      0x40\n        /* \"#utility.yul\":14969:15029   */\n      tag_587\n        /* \"#utility.yul\":15025:15028   */\n      dup5\n        /* \"#utility.yul\":15016:15022   */\n      dup3\n        /* \"#utility.yul\":15005:15014   */\n      dup6\n        /* \"#utility.yul\":15001:15023   */\n      add\n        /* \"#utility.yul\":14969:15029   */\n      tag_399\n      jump\t// in\n    tag_587:\n        /* \"#utility.yul\":14962:14966   */\n      0x40\n        /* \"#utility.yul\":14955:14960   */\n      dup4\n        /* \"#utility.yul\":14951:14967   */\n      add\n        /* \"#utility.yul\":14944:15030   */\n      mstore\n        /* \"#utility.yul\":14877:15041   */\n      pop\n        /* \"#utility.yul\":15102:15104   */\n      0x60\n        /* \"#utility.yul\":15143:15203   */\n      tag_588\n        /* \"#utility.yul\":15199:15202   */\n      dup5\n        /* \"#utility.yul\":15190:15196   */\n      dup3\n        /* \"#utility.yul\":15179:15188   */\n      dup6\n        /* \"#utility.yul\":15175:15197   */\n      add\n        /* \"#utility.yul\":15143:15203   */\n      tag_399\n      jump\t// in\n    tag_588:\n        /* \"#utility.yul\":15136:15140   */\n      0x60\n        /* \"#utility.yul\":15129:15134   */\n      dup4\n        /* \"#utility.yul\":15125:15141   */\n      add\n        /* \"#utility.yul\":15118:15204   */\n      mstore\n        /* \"#utility.yul\":15051:15215   */\n      pop\n        /* \"#utility.yul\":15273:15276   */\n      0x80\n        /* \"#utility.yul\":15315:15375   */\n      tag_589\n        /* \"#utility.yul\":15371:15374   */\n      dup5\n        /* \"#utility.yul\":15362:15368   */\n      dup3\n        /* \"#utility.yul\":15351:15360   */\n      dup6\n        /* \"#utility.yul\":15347:15369   */\n      add\n        /* \"#utility.yul\":15315:15375   */\n      tag_398\n      jump\t// in\n    tag_589:\n        /* \"#utility.yul\":15308:15312   */\n      0x80\n        /* \"#utility.yul\":15301:15306   */\n      dup4\n        /* \"#utility.yul\":15297:15313   */\n      add\n        /* \"#utility.yul\":15290:15376   */\n      mstore\n        /* \"#utility.yul\":15225:15387   */\n      pop\n        /* \"#utility.yul\":15449:15452   */\n      0xa0\n        /* \"#utility.yul\":15491:15551   */\n      tag_590\n        /* \"#utility.yul\":15547:15550   */\n      dup5\n        /* \"#utility.yul\":15538:15544   */\n      dup3\n        /* \"#utility.yul\":15527:15536   */\n      dup6\n        /* \"#utility.yul\":15523:15545   */\n      add\n        /* \"#utility.yul\":15491:15551   */\n      tag_398\n      jump\t// in\n    tag_590:\n        /* \"#utility.yul\":15484:15488   */\n      0xa0\n        /* \"#utility.yul\":15477:15482   */\n      dup4\n        /* \"#utility.yul\":15473:15489   */\n      add\n        /* \"#utility.yul\":15466:15552   */\n      mstore\n        /* \"#utility.yul\":15397:15563   */\n      pop\n        /* \"#utility.yul\":15625:15628   */\n      0xc0\n        /* \"#utility.yul\":15667:15727   */\n      tag_591\n        /* \"#utility.yul\":15723:15726   */\n      dup5\n        /* \"#utility.yul\":15714:15720   */\n      dup3\n        /* \"#utility.yul\":15703:15712   */\n      dup6\n        /* \"#utility.yul\":15699:15721   */\n      add\n        /* \"#utility.yul\":15667:15727   */\n      tag_398\n      jump\t// in\n    tag_591:\n        /* \"#utility.yul\":15660:15664   */\n      0xc0\n        /* \"#utility.yul\":15653:15658   */\n      dup4\n        /* \"#utility.yul\":15649:15665   */\n      add\n        /* \"#utility.yul\":15642:15728   */\n      mstore\n        /* \"#utility.yul\":15573:15739   */\n      pop\n        /* \"#utility.yul\":14260:15746   */\n      swap3\n      swap2\n      pop\n      pop\n      jump\t// out\n        /* \"#utility.yul\":15752:16162   */\n    tag_165:\n        /* \"#utility.yul\":15851:15857   */\n      0x00\n        /* \"#utility.yul\":15900:15903   */\n      0xe0\n        /* \"#utility.yul\":15888:15897   */\n      dup3\n        /* \"#utility.yul\":15879:15886   */\n      dup5\n        /* \"#utility.yul\":15875:15898   */\n      sub\n        /* \"#utility.yul\":15871:15904   */\n      slt\n        /* \"#utility.yul\":15868:15988   */\n      iszero\n      tag_593\n      jumpi\n        /* \"#utility.yul\":15907:15986   */\n      tag_594\n      tag_348\n      jump\t// in\n    tag_594:\n        /* \"#utility.yul\":15868:15988   */\n    tag_593:\n        /* \"#utility.yul\":16027:16028   */\n      0x00\n        /* \"#utility.yul\":16052:16145   */\n      tag_595\n        /* \"#utility.yul\":16137:16144   */\n      dup5\n        /* \"#utility.yul\":16128:16134   */\n      dup3\n        /* \"#utility.yul\":16117:16126   */\n      dup6\n        /* \"#utility.yul\":16113:16135   */\n      add\n        /* \"#utility.yul\":16052:16145   */\n      tag_400\n      jump\t// in\n    tag_595:\n        /* \"#utility.yul\":16042:16145   */\n      swap2\n      pop\n        /* \"#utility.yul\":15998:16155   */\n      pop\n        /* \"#utility.yul\":15752:16162   */\n      swap3\n      swap2\n      pop\n      pop\n      jump\t// out\n        /* \"#utility.yul\":16168:16500   */\n    tag_168:\n        /* \"#utility.yul\":16289:16293   */\n      0x00\n        /* \"#utility.yul\":16327:16329   */\n      0x40\n        /* \"#utility.yul\":16316:16325   */\n      dup3\n        /* \"#utility.yul\":16312:16330   */\n      add\n        /* \"#utility.yul\":16304:16330   */\n      swap1\n      pop\n        /* \"#utility.yul\":16340:16411   */\n      tag_597\n        /* \"#utility.yul\":16408:16409   */\n      0x00\n        /* \"#utility.yul\":16397:16406   */\n      dup4\n        /* \"#utility.yul\":16393:16410   */\n      add\n        /* \"#utility.yul\":16384:16390   */\n      dup6\n        /* \"#utility.yul\":16340:16411   */\n      tag_386\n      jump\t// in\n    tag_597:\n        /* \"#utility.yul\":16421:16493   */\n      tag_598\n        /* \"#utility.yul\":16489:16491   */\n      0x20\n        /* \"#utility.yul\":16478:16487   */\n      dup4\n        /* \"#utility.yul\":16474:16492   */\n      add\n        /* \"#utility.yul\":16465:16471   */\n      dup5\n        /* \"#utility.yul\":16421:16493   */\n      tag_362\n      jump\t// in\n    tag_598:\n        /* \"#utility.yul\":16168:16500   */\n      swap4\n      swap3\n      pop\n      pop\n      pop\n      jump\t// out\n        /* \"#utility.yul\":16506:16622   */\n    tag_401:\n        /* \"#utility.yul\":16576:16597   */\n      tag_600\n        /* \"#utility.yul\":16591:16596   */\n      dup2\n        /* \"#utility.yul\":16576:16597   */\n      tag_353\n      jump\t// in\n    tag_600:\n        /* \"#utility.yul\":16569:16574   */\n      dup2\n        /* \"#utility.yul\":16566:16598   */\n      eq\n        /* \"#utility.yul\":16556:16616   */\n      tag_601\n      jumpi\n        /* \"#utility.yul\":16612:16613   */\n      0x00\n        /* \"#utility.yul\":16609:16610   */\n      dup1\n        /* \"#utility.yul\":16602:16614   */\n      revert\n        /* \"#utility.yul\":16556:16616   */\n    tag_601:\n        /* \"#utility.yul\":16506:16622   */\n      pop\n      jump\t// out\n        /* \"#utility.yul\":16628:16765   */\n    tag_402:\n        /* \"#utility.yul\":16682:16687   */\n      0x00\n        /* \"#utility.yul\":16713:16719   */\n      dup2\n        /* \"#utility.yul\":16707:16720   */\n      mload\n        /* \"#utility.yul\":16698:16720   */\n      swap1\n      pop\n        /* \"#utility.yul\":16729:16759   */\n      tag_603\n        /* \"#utility.yul\":16753:16758   */\n      dup2\n        /* \"#utility.yul\":16729:16759   */\n      tag_401\n      jump\t// in\n    tag_603:\n        /* \"#utility.yul\":16628:16765   */\n      swap3\n      swap2\n      pop\n      pop\n      jump\t// out\n        /* \"#utility.yul\":16771:17116   */\n    tag_172:\n        /* \"#utility.yul\":16838:16844   */\n      0x00\n        /* \"#utility.yul\":16887:16889   */\n      0x20\n        /* \"#utility.yul\":16875:16884   */\n      dup3\n        /* \"#utility.yul\":16866:16873   */\n      dup5\n        /* \"#utility.yul\":16862:16885   */\n      sub\n        /* \"#utility.yul\":16858:16890   */\n      slt\n        /* \"#utility.yul\":16855:16974   */\n      iszero\n      tag_605\n      jumpi\n        /* \"#utility.yul\":16893:16972   */\n      tag_606\n      tag_348\n      jump\t// in\n    tag_606:\n        /* \"#utility.yul\":16855:16974   */\n    tag_605:\n        /* \"#utility.yul\":17013:17014   */\n      0x00\n        /* \"#utility.yul\":17038:17099   */\n      tag_607\n        /* \"#utility.yul\":17091:17098   */\n      dup5\n        /* \"#utility.yul\":17082:17088   */\n      dup3\n        /* \"#utility.yul\":17071:17080   */\n      dup6\n        /* \"#utility.yul\":17067:17089   */\n      add\n        /* \"#utility.yul\":17038:17099   */\n      tag_402\n      jump\t// in\n    tag_607:\n        /* \"#utility.yul\":17028:17099   */\n      swap2\n      pop\n        /* \"#utility.yul\":16984:17109   */\n      pop\n        /* \"#utility.yul\":16771:17116   */\n      swap3\n      swap2\n      pop\n      pop\n      jump\t// out\n        /* \"#utility.yul\":17122:17291   */\n    tag_403:\n        /* \"#utility.yul\":17206:17217   */\n      0x00\n        /* \"#utility.yul\":17240:17246   */\n      dup3\n        /* \"#utility.yul\":17235:17238   */\n      dup3\n        /* \"#utility.yul\":17228:17247   */\n      mstore\n        /* \"#utility.yul\":17280:17284   */\n      0x20\n        /* \"#utility.yul\":17275:17278   */\n      dup3\n        /* \"#utility.yul\":17271:17285   */\n      add\n        /* \"#utility.yul\":17256:17285   */\n      swap1\n      pop\n        /* \"#utility.yul\":17122:17291   */\n      swap3\n      swap2\n      pop\n      pop\n      jump\t// out\n        /* \"#utility.yul\":17297:17458   */\n    tag_404:\n        /* \"#utility.yul\":17437:17450   */\n      0x746f6b656e4964203d2030000000000000000000000000000000000000000000\n        /* \"#utility.yul\":17433:17434   */\n      0x00\n        /* \"#utility.yul\":17425:17431   */\n      dup3\n        /* \"#utility.yul\":17421:17435   */\n      add\n        /* \"#utility.yul\":17414:17451   */\n      mstore\n        /* \"#utility.yul\":17297:17458   */\n      pop\n      jump\t// out\n        /* \"#utility.yul\":17464:17830   */\n    tag_405:\n        /* \"#utility.yul\":17606:17609   */\n      0x00\n        /* \"#utility.yul\":17627:17694   */\n      tag_611\n        /* \"#utility.yul\":17691:17693   */\n      0x0b\n        /* \"#utility.yul\":17686:17689   */\n      dup4\n        /* \"#utility.yul\":17627:17694   */\n      tag_403\n      jump\t// in\n    tag_611:\n        /* \"#utility.yul\":17620:17694   */\n      swap2\n      pop\n        /* \"#utility.yul\":17703:17796   */\n      tag_612\n        /* \"#utility.yul\":17792:17795   */\n      dup3\n        /* \"#utility.yul\":17703:17796   */\n      tag_404\n      jump\t// in\n    tag_612:\n        /* \"#utility.yul\":17821:17823   */\n      0x20\n        /* \"#utility.yul\":17816:17819   */\n      dup3\n        /* \"#utility.yul\":17812:17824   */\n      add\n        /* \"#utility.yul\":17805:17824   */\n      swap1\n      pop\n        /* \"#utility.yul\":17464:17830   */\n      swap2\n      swap1\n      pop\n      jump\t// out\n        /* \"#utility.yul\":17836:18255   */\n    tag_181:\n        /* \"#utility.yul\":18002:18006   */\n      0x00\n        /* \"#utility.yul\":18040:18042   */\n      0x20\n        /* \"#utility.yul\":18029:18038   */\n      dup3\n        /* \"#utility.yul\":18025:18043   */\n      add\n        /* \"#utility.yul\":18017:18043   */\n      swap1\n      pop\n        /* \"#utility.yul\":18089:18098   */\n      dup2\n        /* \"#utility.yul\":18083:18087   */\n      dup2\n        /* \"#utility.yul\":18079:18099   */\n      sub\n        /* \"#utility.yul\":18075:18076   */\n      0x00\n        /* \"#utility.yul\":18064:18073   */\n      dup4\n        /* \"#utility.yul\":18060:18077   */\n      add\n        /* \"#utility.yul\":18053:18100   */\n      mstore\n        /* \"#utility.yul\":18117:18248   */\n      tag_614\n        /* \"#utility.yul\":18243:18247   */\n      dup2\n        /* \"#utility.yul\":18117:18248   */\n      tag_405\n      jump\t// in\n    tag_614:\n        /* \"#utility.yul\":18109:18248   */\n      swap1\n      pop\n        /* \"#utility.yul\":17836:18255   */\n      swap2\n      swap1\n      pop\n      jump\t// out\n        /* \"#utility.yul\":18261:18441   */\n    tag_406:\n        /* \"#utility.yul\":18309:18386   */\n      0x4e487b7100000000000000000000000000000000000000000000000000000000\n        /* \"#utility.yul\":18306:18307   */\n      0x00\n        /* \"#utility.yul\":18299:18387   */\n      mstore\n        /* \"#utility.yul\":18406:18410   */\n      0x11\n        /* \"#utility.yul\":18403:18404   */\n      0x04\n        /* \"#utility.yul\":18396:18411   */\n      mstore\n        /* \"#utility.yul\":18430:18434   */\n      0x24\n        /* \"#utility.yul\":18427:18428   */\n      0x00\n        /* \"#utility.yul\":18420:18435   */\n      revert\n        /* \"#utility.yul\":18447:18641   */\n    tag_187:\n        /* \"#utility.yul\":18487:18491   */\n      0x00\n        /* \"#utility.yul\":18507:18527   */\n      tag_617\n        /* \"#utility.yul\":18525:18526   */\n      dup3\n        /* \"#utility.yul\":18507:18527   */\n      tag_359\n      jump\t// in\n    tag_617:\n        /* \"#utility.yul\":18502:18527   */\n      swap2\n      pop\n        /* \"#utility.yul\":18541:18561   */\n      tag_618\n        /* \"#utility.yul\":18559:18560   */\n      dup4\n        /* \"#utility.yul\":18541:18561   */\n      tag_359\n      jump\t// in\n    tag_618:\n        /* \"#utility.yul\":18536:18561   */\n      swap3\n      pop\n        /* \"#utility.yul\":18585:18586   */\n      dup3\n        /* \"#utility.yul\":18582:18583   */\n      dup3\n        /* \"#utility.yul\":18578:18587   */\n      sub\n        /* \"#utility.yul\":18570:18587   */\n      swap1\n      pop\n        /* \"#utility.yul\":18609:18610   */\n      dup2\n        /* \"#utility.yul\":18603:18607   */\n      dup2\n        /* \"#utility.yul\":18600:18611   */\n      gt\n        /* \"#utility.yul\":18597:18634   */\n      iszero\n      tag_619\n      jumpi\n        /* \"#utility.yul\":18614:18632   */\n      tag_620\n      tag_406\n      jump\t// in\n    tag_620:\n        /* \"#utility.yul\":18597:18634   */\n    tag_619:\n        /* \"#utility.yul\":18447:18641   */\n      swap3\n      swap2\n      pop\n      pop\n      jump\t// out\n        /* \"#utility.yul\":18647:19089   */\n    tag_194:\n        /* \"#utility.yul\":18796:18800   */\n      0x00\n        /* \"#utility.yul\":18834:18836   */\n      0x60\n        /* \"#utility.yul\":18823:18832   */\n      dup3\n        /* \"#utility.yul\":18819:18837   */\n      add\n        /* \"#utility.yul\":18811:18837   */\n      swap1\n      pop\n        /* \"#utility.yul\":18847:18918   */\n      tag_622\n        /* \"#utility.yul\":18915:18916   */\n      0x00\n        /* \"#utility.yul\":18904:18913   */\n      dup4\n        /* \"#utility.yul\":18900:18917   */\n      add\n        /* \"#utility.yul\":18891:18897   */\n      dup7\n        /* \"#utility.yul\":18847:18918   */\n      tag_386\n      jump\t// in\n    tag_622:\n        /* \"#utility.yul\":18928:19000   */\n      tag_623\n        /* \"#utility.yul\":18996:18998   */\n      0x20\n        /* \"#utility.yul\":18985:18994   */\n      dup4\n        /* \"#utility.yul\":18981:18999   */\n      add\n        /* \"#utility.yul\":18972:18978   */\n      dup6\n        /* \"#utility.yul\":18928:19000   */\n      tag_386\n      jump\t// in\n    tag_623:\n        /* \"#utility.yul\":19010:19082   */\n      tag_624\n        /* \"#utility.yul\":19078:19080   */\n      0x40\n        /* \"#utility.yul\":19067:19076   */\n      dup4\n        /* \"#utility.yul\":19063:19081   */\n      add\n        /* \"#utility.yul\":19054:19060   */\n      dup5\n        /* \"#utility.yul\":19010:19082   */\n      tag_362\n      jump\t// in\n    tag_624:\n        /* \"#utility.yul\":18647:19089   */\n      swap5\n      swap4\n      pop\n      pop\n      pop\n      pop\n      jump\t// out\n        /* \"#utility.yul\":19095:19194   */\n    tag_407:\n        /* \"#utility.yul\":19147:19153   */\n      0x00\n        /* \"#utility.yul\":19181:19186   */\n      dup2\n        /* \"#utility.yul\":19175:19187   */\n      mload\n        /* \"#utility.yul\":19165:19187   */\n      swap1\n      pop\n        /* \"#utility.yul\":19095:19194   */\n      swap2\n      swap1\n      pop\n      jump\t// out\n        /* \"#utility.yul\":19200:19348   */\n    tag_408:\n        /* \"#utility.yul\":19302:19313   */\n      0x00\n        /* \"#utility.yul\":19339:19342   */\n      dup2\n        /* \"#utility.yul\":19324:19342   */\n      swap1\n      pop\n        /* \"#utility.yul\":19200:19348   */\n      swap3\n      swap2\n      pop\n      pop\n      jump\t// out\n        /* \"#utility.yul\":19354:19744   */\n    tag_409:\n        /* \"#utility.yul\":19460:19463   */\n      0x00\n        /* \"#utility.yul\":19488:19527   */\n      tag_628\n        /* \"#utility.yul\":19521:19526   */\n      dup3\n        /* \"#utility.yul\":19488:19527   */\n      tag_407\n      jump\t// in\n    tag_628:\n        /* \"#utility.yul\":19543:19632   */\n      tag_629\n        /* \"#utility.yul\":19625:19631   */\n      dup2\n        /* \"#utility.yul\":19620:19623   */\n      dup6\n        /* \"#utility.yul\":19543:19632   */\n      tag_408\n      jump\t// in\n    tag_629:\n        /* \"#utility.yul\":19536:19632   */\n      swap4\n      pop\n        /* \"#utility.yul\":19641:19706   */\n      tag_630\n        /* \"#utility.yul\":19699:19705   */\n      dup2\n        /* \"#utility.yul\":19694:19697   */\n      dup6\n        /* \"#utility.yul\":19687:19691   */\n      0x20\n        /* \"#utility.yul\":19680:19685   */\n      dup7\n        /* \"#utility.yul\":19676:19692   */\n      add\n        /* \"#utility.yul\":19641:19706   */\n      tag_384\n      jump\t// in\n    tag_630:\n        /* \"#utility.yul\":19731:19737   */\n      dup1\n        /* \"#utility.yul\":19726:19729   */\n      dup5\n        /* \"#utility.yul\":19722:19738   */\n      add\n        /* \"#utility.yul\":19715:19738   */\n      swap2\n      pop\n        /* \"#utility.yul\":19464:19744   */\n      pop\n        /* \"#utility.yul\":19354:19744   */\n      swap3\n      swap2\n      pop\n      pop\n      jump\t// out\n        /* \"#utility.yul\":19750:20025   */\n    tag_206:\n        /* \"#utility.yul\":19882:19885   */\n      0x00\n        /* \"#utility.yul\":19904:19999   */\n      tag_632\n        /* \"#utility.yul\":19995:19998   */\n      dup3\n        /* \"#utility.yul\":19986:19992   */\n      dup5\n        /* \"#utility.yul\":19904:19999   */\n      tag_409\n      jump\t// in\n    tag_632:\n        /* \"#utility.yul\":19897:19999   */\n      swap2\n      pop\n        /* \"#utility.yul\":20016:20019   */\n      dup2\n        /* \"#utility.yul\":20009:20019   */\n      swap1\n      pop\n        /* \"#utility.yul\":19750:20025   */\n      swap3\n      swap2\n      pop\n      pop\n      jump\t// out\n        /* \"#utility.yul\":20031:20190   */\n    tag_410:\n        /* \"#utility.yul\":20171:20182   */\n      0x6e6f74206f776e65720000000000000000000000000000000000000000000000\n        /* \"#utility.yul\":20167:20168   */\n      0x00\n        /* \"#utility.yul\":20159:20165   */\n      dup3\n        /* \"#utility.yul\":20155:20169   */\n      add\n        /* \"#utility.yul\":20148:20183   */\n      mstore\n        /* \"#utility.yul\":20031:20190   */\n      pop\n      jump\t// out\n        /* \"#utility.yul\":20196:20561   */\n    tag_411:\n        /* \"#utility.yul\":20338:20341   */\n      0x00\n        /* \"#utility.yul\":20359:20425   */\n      tag_635\n        /* \"#utility.yul\":20423:20424   */\n      0x09\n        /* \"#utility.yul\":20418:20421   */\n      dup4\n        /* \"#utility.yul\":20359:20425   */\n      tag_403\n      jump\t// in\n    tag_635:\n        /* \"#utility.yul\":20352:20425   */\n      swap2\n      pop\n        /* \"#utility.yul\":20434:20527   */\n      tag_636\n        /* \"#utility.yul\":20523:20526   */\n      dup3\n        /* \"#utility.yul\":20434:20527   */\n      tag_410\n      jump\t// in\n    tag_636:\n        /* \"#utility.yul\":20552:20554   */\n      0x20\n        /* \"#utility.yul\":20547:20550   */\n      dup3\n        /* \"#utility.yul\":20543:20555   */\n      add\n        /* \"#utility.yul\":20536:20555   */\n      swap1\n      pop\n        /* \"#utility.yul\":20196:20561   */\n      swap2\n      swap1\n      pop\n      jump\t// out\n        /* \"#utility.yul\":20567:20986   */\n    tag_210:\n        /* \"#utility.yul\":20733:20737   */\n      0x00\n        /* \"#utility.yul\":20771:20773   */\n      0x20\n        /* \"#utility.yul\":20760:20769   */\n      dup3\n        /* \"#utility.yul\":20756:20774   */\n      add\n        /* \"#utility.yul\":20748:20774   */\n      swap1\n      pop\n        /* \"#utility.yul\":20820:20829   */\n      dup2\n        /* \"#utility.yul\":20814:20818   */\n      dup2\n        /* \"#utility.yul\":20810:20830   */\n      sub\n        /* \"#utility.yul\":20806:20807   */\n      0x00\n        /* \"#utility.yul\":20795:20804   */\n      dup4\n        /* \"#utility.yul\":20791:20808   */\n      add\n        /* \"#utility.yul\":20784:20831   */\n      mstore\n        /* \"#utility.yul\":20848:20979   */\n      tag_638\n        /* \"#utility.yul\":20974:20978   */\n      dup2\n        /* \"#utility.yul\":20848:20979   */\n      tag_411\n      jump\t// in\n    tag_638:\n        /* \"#utility.yul\":20840:20979   */\n      swap1\n      pop\n        /* \"#utility.yul\":20567:20986   */\n      swap2\n      swap1\n      pop\n      jump\t// out\n        /* \"#utility.yul\":20992:21172   */\n    tag_412:\n        /* \"#utility.yul\":21040:21117   */\n      0x4e487b7100000000000000000000000000000000000000000000000000000000\n        /* \"#utility.yul\":21037:21038   */\n      0x00\n        /* \"#utility.yul\":21030:21118   */\n      mstore\n        /* \"#utility.yul\":21137:21141   */\n      0x12\n        /* \"#utility.yul\":21134:21135   */\n      0x04\n        /* \"#utility.yul\":21127:21142   */\n      mstore\n        /* \"#utility.yul\":21161:21165   */\n      0x24\n        /* \"#utility.yul\":21158:21159   */\n      0x00\n        /* \"#utility.yul\":21151:21166   */\n      revert\n        /* \"#utility.yul\":21178:21363   */\n    tag_219:\n        /* \"#utility.yul\":21218:21219   */\n      0x00\n        /* \"#utility.yul\":21235:21255   */\n      tag_641\n        /* \"#utility.yul\":21253:21254   */\n      dup3\n        /* \"#utility.yul\":21235:21255   */\n      tag_359\n      jump\t// in\n    tag_641:\n        /* \"#utility.yul\":21230:21255   */\n      swap2\n      pop\n        /* \"#utility.yul\":21269:21289   */\n      tag_642\n        /* \"#utility.yul\":21287:21288   */\n      dup4\n        /* \"#utility.yul\":21269:21289   */\n      tag_359\n      jump\t// in\n    tag_642:\n        /* \"#utility.yul\":21264:21289   */\n      swap3\n      pop\n        /* \"#utility.yul\":21308:21309   */\n      dup3\n        /* \"#utility.yul\":21298:21333   */\n      tag_643\n      jumpi\n        /* \"#utility.yul\":21313:21331   */\n      tag_644\n      tag_412\n      jump\t// in\n    tag_644:\n        /* \"#utility.yul\":21298:21333   */\n    tag_643:\n        /* \"#utility.yul\":21355:21356   */\n      dup3\n        /* \"#utility.yul\":21352:21353   */\n      dup3\n        /* \"#utility.yul\":21348:21357   */\n      div\n        /* \"#utility.yul\":21343:21357   */\n      swap1\n      pop\n        /* \"#utility.yul\":21178:21363   */\n      swap3\n      swap2\n      pop\n      pop\n      jump\t// out\n        /* \"#utility.yul\":21369:21779   */\n    tag_223:\n        /* \"#utility.yul\":21409:21416   */\n      0x00\n        /* \"#utility.yul\":21432:21452   */\n      tag_646\n        /* \"#utility.yul\":21450:21451   */\n      dup3\n        /* \"#utility.yul\":21432:21452   */\n      tag_359\n      jump\t// in\n    tag_646:\n        /* \"#utility.yul\":21427:21452   */\n      swap2\n      pop\n        /* \"#utility.yul\":21466:21486   */\n      tag_647\n        /* \"#utility.yul\":21484:21485   */\n      dup4\n        /* \"#utility.yul\":21466:21486   */\n      tag_359\n      jump\t// in\n    tag_647:\n        /* \"#utility.yul\":21461:21486   */\n      swap3\n      pop\n        /* \"#utility.yul\":21521:21522   */\n      dup3\n        /* \"#utility.yul\":21518:21519   */\n      dup3\n        /* \"#utility.yul\":21514:21523   */\n      mul\n        /* \"#utility.yul\":21543:21573   */\n      tag_648\n        /* \"#utility.yul\":21561:21572   */\n      dup2\n        /* \"#utility.yul\":21543:21573   */\n      tag_359\n      jump\t// in\n    tag_648:\n        /* \"#utility.yul\":21532:21573   */\n      swap2\n      pop\n        /* \"#utility.yul\":21722:21723   */\n      dup3\n        /* \"#utility.yul\":21713:21720   */\n      dup3\n        /* \"#utility.yul\":21709:21724   */\n      div\n        /* \"#utility.yul\":21706:21707   */\n      dup5\n        /* \"#utility.yul\":21703:21725   */\n      eq\n        /* \"#utility.yul\":21683:21684   */\n      dup4\n        /* \"#utility.yul\":21676:21685   */\n      iszero\n        /* \"#utility.yul\":21656:21739   */\n      or\n        /* \"#utility.yul\":21633:21772   */\n      tag_649\n      jumpi\n        /* \"#utility.yul\":21752:21770   */\n      tag_650\n      tag_406\n      jump\t// in\n    tag_650:\n        /* \"#utility.yul\":21633:21772   */\n    tag_649:\n        /* \"#utility.yul\":21417:21779   */\n      pop\n        /* \"#utility.yul\":21369:21779   */\n      swap3\n      swap2\n      pop\n      pop\n      jump\t// out\n        /* \"#utility.yul\":21785:21976   */\n    tag_225:\n        /* \"#utility.yul\":21825:21828   */\n      0x00\n        /* \"#utility.yul\":21844:21864   */\n      tag_652\n        /* \"#utility.yul\":21862:21863   */\n      dup3\n        /* \"#utility.yul\":21844:21864   */\n      tag_359\n      jump\t// in\n    tag_652:\n        /* \"#utility.yul\":21839:21864   */\n      swap2\n      pop\n        /* \"#utility.yul\":21878:21898   */\n      tag_653\n        /* \"#utility.yul\":21896:21897   */\n      dup4\n        /* \"#utility.yul\":21878:21898   */\n      tag_359\n      jump\t// in\n    tag_653:\n        /* \"#utility.yul\":21873:21898   */\n      swap3\n      pop\n        /* \"#utility.yul\":21921:21922   */\n      dup3\n        /* \"#utility.yul\":21918:21919   */\n      dup3\n        /* \"#utility.yul\":21914:21923   */\n      add\n        /* \"#utility.yul\":21907:21923   */\n      swap1\n      pop\n        /* \"#utility.yul\":21942:21945   */\n      dup1\n        /* \"#utility.yul\":21939:21940   */\n      dup3\n        /* \"#utility.yul\":21936:21946   */\n      gt\n        /* \"#utility.yul\":21933:21969   */\n      iszero\n      tag_654\n      jumpi\n        /* \"#utility.yul\":21949:21967   */\n      tag_655\n      tag_406\n      jump\t// in\n    tag_655:\n        /* \"#utility.yul\":21933:21969   */\n    tag_654:\n        /* \"#utility.yul\":21785:21976   */\n      swap3\n      swap2\n      pop\n      pop\n      jump\t// out\n        /* \"#utility.yul\":21982:22147   */\n    tag_413:\n        /* \"#utility.yul\":22122:22139   */\n      0x7265776172642072617465203d20300000000000000000000000000000000000\n        /* \"#utility.yul\":22118:22119   */\n      0x00\n        /* \"#utility.yul\":22110:22116   */\n      dup3\n        /* \"#utility.yul\":22106:22120   */\n      add\n        /* \"#utility.yul\":22099:22140   */\n      mstore\n        /* \"#utility.yul\":21982:22147   */\n      pop\n      jump\t// out\n        /* \"#utility.yul\":22153:22519   */\n    tag_414:\n        /* \"#utility.yul\":22295:22298   */\n      0x00\n        /* \"#utility.yul\":22316:22383   */\n      tag_658\n        /* \"#utility.yul\":22380:22382   */\n      0x0f\n        /* \"#utility.yul\":22375:22378   */\n      dup4\n        /* \"#utility.yul\":22316:22383   */\n      tag_403\n      jump\t// in\n    tag_658:\n        /* \"#utility.yul\":22309:22383   */\n      swap2\n      pop\n        /* \"#utility.yul\":22392:22485   */\n      tag_659\n        /* \"#utility.yul\":22481:22484   */\n      dup3\n        /* \"#utility.yul\":22392:22485   */\n      tag_413\n      jump\t// in\n    tag_659:\n        /* \"#utility.yul\":22510:22512   */\n      0x20\n        /* \"#utility.yul\":22505:22508   */\n      dup3\n        /* \"#utility.yul\":22501:22513   */\n      add\n        /* \"#utility.yul\":22494:22513   */\n      swap1\n      pop\n        /* \"#utility.yul\":22153:22519   */\n      swap2\n      swap1\n      pop\n      jump\t// out\n        /* \"#utility.yul\":22525:22944   */\n    tag_229:\n        /* \"#utility.yul\":22691:22695   */\n      0x00\n        /* \"#utility.yul\":22729:22731   */\n      0x20\n        /* \"#utility.yul\":22718:22727   */\n      dup3\n        /* \"#utility.yul\":22714:22732   */\n      add\n        /* \"#utility.yul\":22706:22732   */\n      swap1\n      pop\n        /* \"#utility.yul\":22778:22787   */\n      dup2\n        /* \"#utility.yul\":22772:22776   */\n      dup2\n        /* \"#utility.yul\":22768:22788   */\n      sub\n        /* \"#utility.yul\":22764:22765   */\n      0x00\n        /* \"#utility.yul\":22753:22762   */\n      dup4\n        /* \"#utility.yul\":22749:22766   */\n      add\n        /* \"#utility.yul\":22742:22789   */\n      mstore\n        /* \"#utility.yul\":22806:22937   */\n      tag_661\n        /* \"#utility.yul\":22932:22936   */\n      dup2\n        /* \"#utility.yul\":22806:22937   */\n      tag_414\n      jump\t// in\n    tag_661:\n        /* \"#utility.yul\":22798:22937   */\n      swap1\n      pop\n        /* \"#utility.yul\":22525:22944   */\n      swap2\n      swap1\n      pop\n      jump\t// out\n        /* \"#utility.yul\":22950:23301   */\n    tag_234:\n        /* \"#utility.yul\":23020:23026   */\n      0x00\n        /* \"#utility.yul\":23069:23071   */\n      0x20\n        /* \"#utility.yul\":23057:23066   */\n      dup3\n        /* \"#utility.yul\":23048:23055   */\n      dup5\n        /* \"#utility.yul\":23044:23067   */\n      sub\n        /* \"#utility.yul\":23040:23072   */\n      slt\n        /* \"#utility.yul\":23037:23156   */\n      iszero\n      tag_663\n      jumpi\n        /* \"#utility.yul\":23075:23154   */\n      tag_664\n      tag_348\n      jump\t// in\n    tag_664:\n        /* \"#utility.yul\":23037:23156   */\n    tag_663:\n        /* \"#utility.yul\":23195:23196   */\n      0x00\n        /* \"#utility.yul\":23220:23284   */\n      tag_665\n        /* \"#utility.yul\":23276:23283   */\n      dup5\n        /* \"#utility.yul\":23267:23273   */\n      dup3\n        /* \"#utility.yul\":23256:23265   */\n      dup6\n        /* \"#utility.yul\":23252:23274   */\n      add\n        /* \"#utility.yul\":23220:23284   */\n      tag_398\n      jump\t// in\n    tag_665:\n        /* \"#utility.yul\":23210:23284   */\n      swap2\n      pop\n        /* \"#utility.yul\":23166:23294   */\n      pop\n        /* \"#utility.yul\":22950:23301   */\n      swap3\n      swap2\n      pop\n      pop\n      jump\t// out\n        /* \"#utility.yul\":23307:23480   */\n    tag_415:\n        /* \"#utility.yul\":23447:23472   */\n      0x72657761726420616d6f756e74203e2062616c616e6365000000000000000000\n        /* \"#utility.yul\":23443:23444   */\n      0x00\n        /* \"#utility.yul\":23435:23441   */\n      dup3\n        /* \"#utility.yul\":23431:23445   */\n      add\n        /* \"#utility.yul\":23424:23473   */\n      mstore\n        /* \"#utility.yul\":23307:23480   */\n      pop\n      jump\t// out\n        /* \"#utility.yul\":23486:23852   */\n    tag_416:\n        /* \"#utility.yul\":23628:23631   */\n      0x00\n        /* \"#utility.yul\":23649:23716   */\n      tag_668\n        /* \"#utility.yul\":23713:23715   */\n      0x17\n        /* \"#utility.yul\":23708:23711   */\n      dup4\n        /* \"#utility.yul\":23649:23716   */\n      tag_403\n      jump\t// in\n    tag_668:\n        /* \"#utility.yul\":23642:23716   */\n      swap2\n      pop\n        /* \"#utility.yul\":23725:23818   */\n      tag_669\n        /* \"#utility.yul\":23814:23817   */\n      dup3\n        /* \"#utility.yul\":23725:23818   */\n      tag_415\n      jump\t// in\n    tag_669:\n        /* \"#utility.yul\":23843:23845   */\n      0x20\n        /* \"#utility.yul\":23838:23841   */\n      dup3\n        /* \"#utility.yul\":23834:23846   */\n      add\n        /* \"#utility.yul\":23827:23846   */\n      swap1\n      pop\n        /* \"#utility.yul\":23486:23852   */\n      swap2\n      swap1\n      pop\n      jump\t// out\n        /* \"#utility.yul\":23858:24277   */\n    tag_238:\n        /* \"#utility.yul\":24024:24028   */\n      0x00\n        /* \"#utility.yul\":24062:24064   */\n      0x20\n        /* \"#utility.yul\":24051:24060   */\n      dup3\n        /* \"#utility.yul\":24047:24065   */\n      add\n        /* \"#utility.yul\":24039:24065   */\n      swap1\n      pop\n        /* \"#utility.yul\":24111:24120   */\n      dup2\n        /* \"#utility.yul\":24105:24109   */\n      dup2\n        /* \"#utility.yul\":24101:24121   */\n      sub\n        /* \"#utility.yul\":24097:24098   */\n      0x00\n        /* \"#utility.yul\":24086:24095   */\n      dup4\n        /* \"#utility.yul\":24082:24099   */\n      add\n        /* \"#utility.yul\":24075:24122   */\n      mstore\n        /* \"#utility.yul\":24139:24270   */\n      tag_671\n        /* \"#utility.yul\":24265:24269   */\n      dup2\n        /* \"#utility.yul\":24139:24270   */\n      tag_416\n      jump\t// in\n    tag_671:\n        /* \"#utility.yul\":24131:24270   */\n      swap1\n      pop\n        /* \"#utility.yul\":23858:24277   */\n      swap2\n      swap1\n      pop\n      jump\t// out\n        /* \"#utility.yul\":24283:24461   */\n    tag_417:\n        /* \"#utility.yul\":24423:24453   */\n      0x726577617264206475726174696f6e206e6f742066696e697368656400000000\n        /* \"#utility.yul\":24419:24420   */\n      0x00\n        /* \"#utility.yul\":24411:24417   */\n      dup3\n        /* \"#utility.yul\":24407:24421   */\n      add\n        /* \"#utility.yul\":24400:24454   */\n      mstore\n        /* \"#utility.yul\":24283:24461   */\n      pop\n      jump\t// out\n        /* \"#utility.yul\":24467:24833   */\n    tag_418:\n        /* \"#utility.yul\":24609:24612   */\n      0x00\n        /* \"#utility.yul\":24630:24697   */\n      tag_674\n        /* \"#utility.yul\":24694:24696   */\n      0x1c\n        /* \"#utility.yul\":24689:24692   */\n      dup4\n        /* \"#utility.yul\":24630:24697   */\n      tag_403\n      jump\t// in\n    tag_674:\n        /* \"#utility.yul\":24623:24697   */\n      swap2\n      pop\n        /* \"#utility.yul\":24706:24799   */\n      tag_675\n        /* \"#utility.yul\":24795:24798   */\n      dup3\n        /* \"#utility.yul\":24706:24799   */\n      tag_417\n      jump\t// in\n    tag_675:\n        /* \"#utility.yul\":24824:24826   */\n      0x20\n        /* \"#utility.yul\":24819:24822   */\n      dup3\n        /* \"#utility.yul\":24815:24827   */\n      add\n        /* \"#utility.yul\":24808:24827   */\n      swap1\n      pop\n        /* \"#utility.yul\":24467:24833   */\n      swap2\n      swap1\n      pop\n      jump\t// out\n        /* \"#utility.yul\":24839:25258   */\n    tag_284:\n        /* \"#utility.yul\":25005:25009   */\n      0x00\n        /* \"#utility.yul\":25043:25045   */\n      0x20\n        /* \"#utility.yul\":25032:25041   */\n      dup3\n        /* \"#utility.yul\":25028:25046   */\n      add\n        /* \"#utility.yul\":25020:25046   */\n      swap1\n      pop\n        /* \"#utility.yul\":25092:25101   */\n      dup2\n        /* \"#utility.yul\":25086:25090   */\n      dup2\n        /* \"#utility.yul\":25082:25102   */\n      sub\n        /* \"#utility.yul\":25078:25079   */\n      0x00\n        /* \"#utility.yul\":25067:25076   */\n      dup4\n        /* \"#utility.yul\":25063:25080   */\n      add\n        /* \"#utility.yul\":25056:25103   */\n      mstore\n        /* \"#utility.yul\":25120:25251   */\n      tag_677\n        /* \"#utility.yul\":25246:25250   */\n      dup2\n        /* \"#utility.yul\":25120:25251   */\n      tag_418\n      jump\t// in\n    tag_677:\n        /* \"#utility.yul\":25112:25251   */\n      swap1\n      pop\n        /* \"#utility.yul\":24839:25258   */\n      swap2\n      swap1\n      pop\n      jump\t// out\n        /* \"#utility.yul\":25264:25444   */\n    tag_306:\n        /* \"#utility.yul\":25312:25389   */\n      0x4e487b7100000000000000000000000000000000000000000000000000000000\n        /* \"#utility.yul\":25309:25310   */\n      0x00\n        /* \"#utility.yul\":25302:25390   */\n      mstore\n        /* \"#utility.yul\":25409:25413   */\n      0x32\n        /* \"#utility.yul\":25406:25407   */\n      0x04\n        /* \"#utility.yul\":25399:25414   */\n      mstore\n        /* \"#utility.yul\":25433:25437   */\n      0x24\n        /* \"#utility.yul\":25430:25431   */\n      0x00\n        /* \"#utility.yul\":25423:25438   */\n      revert\n        /* \"#utility.yul\":25450:25630   */\n    tag_317:\n        /* \"#utility.yul\":25498:25575   */\n      0x4e487b7100000000000000000000000000000000000000000000000000000000\n        /* \"#utility.yul\":25495:25496   */\n      0x00\n        /* \"#utility.yul\":25488:25576   */\n      mstore\n        /* \"#utility.yul\":25595:25599   */\n      0x31\n        /* \"#utility.yul\":25592:25593   */\n      0x04\n        /* \"#utility.yul\":25585:25600   */\n      mstore\n        /* \"#utility.yul\":25619:25623   */\n      0x24\n        /* \"#utility.yul\":25616:25617   */\n      0x00\n        /* \"#utility.yul\":25609:25624   */\n      revert\n\n    auxdata: 0xa2646970667358221220e7298c9c6130636373635b910eb8c35cc800171e32d7926e3990abe1e15bdab364736f6c63430008120033\n}\n",
				"bytecode": {
					"linkReferences": {},
					"object": "60c06040523480156200001157600080fd5b5060405162002b8f38038062002b8f833981810160405281019062000037919062000151565b336000806101000a81548173ffffffffffffffffffffffffffffffffffffffff021916908373ffffffffffffffffffffffffffffffffffffffff1602179055508173ffffffffffffffffffffffffffffffffffffffff1660808173ffffffffffffffffffffffffffffffffffffffff16815250508073ffffffffffffffffffffffffffffffffffffffff1660a08173ffffffffffffffffffffffffffffffffffffffff1681525050505062000198565b600080fd5b600073ffffffffffffffffffffffffffffffffffffffff82169050919050565b60006200011982620000ec565b9050919050565b6200012b816200010c565b81146200013757600080fd5b50565b6000815190506200014b8162000120565b92915050565b600080604083850312156200016b576200016a620000e7565b5b60006200017b858286016200013a565b92505060206200018e858286016200013a565b9150509250929050565b60805160a051612992620001fd600039600081816108a301528181610e41015261164c015260008181610720015281816107df015281816109ec01528181610ab501528181610b6d015281816110e40152818161127c015261134501526129926000f3fe608060405234801561001057600080fd5b50600436106101cf5760003560e01c80637b0a47ee11610104578063c1a489df116100a2578063d1af0c7d11610071578063d1af0c7d1461055a578063d60d406714610578578063e743752b14610596578063f301af42146105c6576101cf565b8063c1a489df146104d2578063c964f58514610502578063cc1a378f14610520578063cd3daf9d1461053c576101cf565b80638da5cb5b116100de5780638da5cb5b1461044a5780639cc7f70814610468578063a694fc3a14610498578063b8206e7a146104b4576101cf565b80637b0a47ee146103f0578063802c981d1461040e57806380faa57d1461042c576101cf565b80631c4b774b116101715780633c6b16ab1161014b5780633c6b16ab146103565780634d6ed8c41461037257806367d3b488146103a25780636c6f858b146103c0576101cf565b80631c4b774b146102ee5780632e17de781461030a5780632ef64fc514610326576101cf565b80630ce71e32116101ad5780630ce71e32146102645780630fb5a6b414610282578063150b7a02146102a057806318160ddd146102d0576101cf565b806301ffc9a7146101d45780630889bdc81461020457806308e73cc114610234575b600080fd5b6101ee60048036038101906101e99190611ca1565b6105f6565b6040516101fb9190611ce9565b60405180910390f35b61021e60048036038101906102199190611d98565b6106c8565b60405161022b9190611de7565b60405180910390f35b61024e60048036038101906102499190611d98565b6106ed565b60405161025b9190611de7565b60405180910390f35b61026c61071e565b6040516102799190611e61565b60405180910390f35b61028a610742565b6040516102979190611de7565b60405180910390f35b6102ba60048036038101906102b59190611ee1565b610748565b6040516102c79190611f78565b60405180910390f35b6102d861075d565b6040516102e59190611de7565b60405180910390f35b61030860048036038101906103039190611f93565b610763565b005b610324600480360381019061031f9190611f93565b610947565b005b610340600480360381019061033b9190612101565b610c1a565b60405161034d91906121dc565b60405180910390f35b610370600480360381019061036b9190611f93565b610ca8565b005b61038c60048036038101906103879190611f93565b610f48565b6040516103999190611de7565b60405180910390f35b6103aa610fc6565b6040516103b79190611de7565b60405180910390f35b6103da60048036038101906103d59190611f93565b610fcc565b6040516103e79190611de7565b60405180910390f35b6103f8610fe4565b6040516104059190611de7565b60405180910390f35b610416610fea565b6040516104239190611de7565b60405180910390f35b610434610ff0565b6040516104419190611de7565b60405180910390f35b610452611003565b60405161045f919061220d565b60405180910390f35b610482600480360381019061047d9190611f93565b611027565b60405161048f9190611de7565b60405180910390f35b6104b260048036038101906104ad9190611f93565b61103f565b005b6104bc611451565b6040516104c991906122e6565b60405180910390f35b6104ec60048036038101906104e79190611f93565b6114e6565b6040516104f99190611de7565b60405180910390f35b61050a6114fe565b6040516105179190611de7565b60405180910390f35b61053a60048036038101906105359190611f93565b611504565b005b6105446115e0565b6040516105519190611de7565b60405180910390f35b61056261164a565b60405161056f9190612329565b60405180910390f35b61058061166e565b60405161058d91906122e6565b60405180910390f35b6105b060048036038101906105ab9190611f93565b6116c6565b6040516105bd9190611de7565b60405180910390f35b6105e060048036038101906105db9190611f93565b6116ea565b6040516105ed9190611de7565b60405180910390f35b60007f80ac58cd000000000000000000000000000000000000000000000000000000007bffffffffffffffffffffffffffffffffffffffffffffffffffffffff1916827bffffffffffffffffffffffffffffffffffffffffffffffffffffffff191614806106c157507f01ffc9a7000000000000000000000000000000000000000000000000000000007bffffffffffffffffffffffffffffffffffffffffffffffffffffffff1916827bffffffffffffffffffffffffffffffffffffffffffffffffffffffff1916145b9050919050565b600b602052816000526040600020602052806000526040600020600091509150505481565b600a602052816000526040600020818154811061070957600080fd5b90600052602060002001600091509150505481565b7f000000000000000000000000000000000000000000000000000000000000000081565b60015481565b600063150b7a0260e01b905095945050505050565b60095481565b8061076c6115e0565b60058190555061077a610ff0565b600381905550600081146107c35761079181610f48565b600760008381526020019081526020016000208190555060055460066000838152602001908152602001600020819055505b60006007600084815260200190815260200160002054905060007f000000000000000000000000000000000000000000000000000000000000000073ffffffffffffffffffffffffffffffffffffffff166399fbab88856040518263ffffffff1660e01b81526004016108369190611de7565b60e0604051808303816000875af1158015610855573d6000803e3d6000fd5b505050506040513d601f19601f820116820180604052508101906108799190612427565b602001519050600082111561094157600060076000868152602001908152602001600020819055507f000000000000000000000000000000000000000000000000000000000000000073ffffffffffffffffffffffffffffffffffffffff1663a9059cbb82846040518363ffffffff1660e01b81526004016108fc929190612454565b6020604051808303816000875af115801561091b573d6000803e3d6000fd5b505050506040513d601f19601f8201168201806040525081019061093f91906124a9565b505b50505050565b806109506115e0565b60058190555061095e610ff0565b600381905550600081146109a75761097581610f48565b600760008381526020019081526020016000208190555060055460066000838152602001908152602001600020819055505b600082116109ea576040517f08c379a00000000000000000000000000000000000000000000000000000000081526004016109e190612533565b60405180910390fd5b7f000000000000000000000000000000000000000000000000000000000000000073ffffffffffffffffffffffffffffffffffffffff166399fbab88836040518263ffffffff1660e01b8152600401610a439190611de7565b60e0604051808303816000875af1158015610a62573d6000803e3d6000fd5b505050506040513d601f19601f82011682018060405250810190610a869190612427565b60000151600860008481526020019081526020016000206000828254610aac9190612582565b925050819055507f000000000000000000000000000000000000000000000000000000000000000073ffffffffffffffffffffffffffffffffffffffff166399fbab88836040518263ffffffff1660e01b8152600401610b0c9190611de7565b60e0604051808303816000875af1158015610b2b573d6000803e3d6000fd5b505050506040513d601f19601f82011682018060405250810190610b4f9190612427565b6000015160096000828254610b649190612582565b925050819055507f000000000000000000000000000000000000000000000000000000000000000073ffffffffffffffffffffffffffffffffffffffff166326908fa13033856040518463ffffffff1660e01b8152600401610bc8939291906125b6565b600060405180830381600087803b158015610be257600080fd5b505af1158015610bf6573d6000803e3d6000fd5b50505050610c0382610763565b610c0d8233611702565b610c1682611a97565b5050565b60608282604051602401610c2e9190611de7565b60405160208183030381529060405290604051610c4b9190612634565b60405180910390207bffffffffffffffffffffffffffffffffffffffffffffffffffffffff19166020820180517bffffffffffffffffffffffffffffffffffffffffffffffffffffffff8381831617835250505050905092915050565b60008054906101000a900473ffffffffffffffffffffffffffffffffffffffff1673ffffffffffffffffffffffffffffffffffffffff163373ffffffffffffffffffffffffffffffffffffffff1614610d36576040517f08c379a0000000000000000000000000000000000000000000000000000000008152600401610d2d90612697565b60405180910390fd5b6000610d406115e0565b600581905550610d4e610ff0565b60038190555060008114610d9757610d6581610f48565b600760008381526020019081526020016000208190555060055460066000838152602001908152602001600020819055505b600254421115610dba5760015482610daf91906126e6565b600481905550610dfa565b600042600254610dca9190612582565b600454610dd79190612717565b90506001548382610de89190612759565b610df291906126e6565b600481905550505b600060045411610e3f576040517f08c379a0000000000000000000000000000000000000000000000000000000008152600401610e36906127d9565b60405180910390fd5b7f000000000000000000000000000000000000000000000000000000000000000073ffffffffffffffffffffffffffffffffffffffff166370a08231306040518263ffffffff1660e01b8152600401610e98919061220d565b602060405180830381865afa158015610eb5573d6000803e3d6000fd5b505050506040513d601f19601f82011682018060405250810190610ed991906127f9565b600154600454610ee99190612717565b10610f29576040517f08c379a0000000000000000000000000000000000000000000000000000000008152600401610f2090612872565b60405180910390fd5b60015442610f379190612759565b600281905550426003819055505050565b60006007600083815260200190815260200160002054670de0b6b3a76400006006600085815260200190815260200160002054610f836115e0565b610f8d9190612582565b6008600086815260200190815260200160002054610fab9190612717565b610fb591906126e6565b610fbf9190612759565b9050919050565b60025481565b60066020528060005260406000206000915090505481565b60045481565b60055481565b6000610ffe42600254611bde565b905090565b60008054906101000a900473ffffffffffffffffffffffffffffffffffffffff1681565b60086020528060005260406000206000915090505481565b806110486115e0565b600581905550611056610ff0565b6003819055506000811461109f5761106d81610f48565b600760008381526020019081526020016000208190555060055460066000838152602001908152602001600020819055505b600082116110e2576040517f08c379a00000000000000000000000000000000000000000000000000000000081526004016110d990612533565b60405180910390fd5b7f000000000000000000000000000000000000000000000000000000000000000073ffffffffffffffffffffffffffffffffffffffff166326908fa13330856040518463ffffffff1660e01b815260040161113f939291906125b6565b600060405180830381600087803b15801561115957600080fd5b505af115801561116d573d6000803e3d6000fd5b50505050600a60003373ffffffffffffffffffffffffffffffffffffffff1673ffffffffffffffffffffffffffffffffffffffff1681526020019081526020016000208290806001815401808255809150506001900390600052602060002001600090919091909150556001600a60003373ffffffffffffffffffffffffffffffffffffffff1673ffffffffffffffffffffffffffffffffffffffff168152602001908152602001600020805490506112269190612582565b600b60003373ffffffffffffffffffffffffffffffffffffffff1673ffffffffffffffffffffffffffffffffffffffff1681526020019081526020016000206000848152602001908152602001600020819055507f000000000000000000000000000000000000000000000000000000000000000073ffffffffffffffffffffffffffffffffffffffff166399fbab88836040518263ffffffff1660e01b81526004016112d39190611de7565b60e0604051808303816000875af11580156112f2573d6000803e3d6000fd5b505050506040513d601f19601f820116820180604052508101906113169190612427565b6000015160086000848152602001908152602001600020600082825461133c9190612759565b925050819055507f000000000000000000000000000000000000000000000000000000000000000073ffffffffffffffffffffffffffffffffffffffff166399fbab88836040518263ffffffff1660e01b815260040161139c9190611de7565b60e0604051808303816000875af11580156113bb573d6000803e3d6000fd5b505050506040513d601f19601f820116820180604052508101906113df9190612427565b60000151600960008282546113f49190612759565b92505081905550600c8290806001815401808255809150506001900390600052602060002001600090919091909150556001600c805490506114369190612582565b600d6000848152602001908152602001600020819055505050565b6060600a60003373ffffffffffffffffffffffffffffffffffffffff1673ffffffffffffffffffffffffffffffffffffffff1681526020019081526020016000208054806020026020016040519081016040528092919081815260200182805480156114dc57602002820191906000526020600020905b8154815260200190600101908083116114c8575b5050505050905090565b600d6020528060005260406000206000915090505481565b60035481565b60008054906101000a900473ffffffffffffffffffffffffffffffffffffffff1673ffffffffffffffffffffffffffffffffffffffff163373ffffffffffffffffffffffffffffffffffffffff1614611592576040517f08c379a000000000000000000000000000000000000000000000000000000000815260040161158990612697565b60405180910390fd5b42600254106115d6576040517f08c379a00000000000000000000000000000000000000000000000000000000081526004016115cd906128de565b60405180910390fd5b8060018190555050565b600080600954036115f5576005549050611647565b600954670de0b6b3a764000060035461160c610ff0565b6116169190612582565b6004546116239190612717565b61162d9190612717565b61163791906126e6565b6005546116449190612759565b90505b90565b7f000000000000000000000000000000000000000000000000000000000000000081565b6060600c8054806020026020016040519081016040528092919081815260200182805480156116bc57602002820191906000526020600020905b8154815260200190600101908083116116a8575b5050505050905090565b600c81815481106116d657600080fd5b906000526020600020016000915090505481565b60076020528060005260406000206000915090505481565b6000600b60008373ffffffffffffffffffffffffffffffffffffffff1673ffffffffffffffffffffffffffffffffffffffff16815260200190815260200160002060008481526020019081526020016000205490506000600a60008473ffffffffffffffffffffffffffffffffffffffff1673ffffffffffffffffffffffffffffffffffffffff1681526020019081526020016000208054905090506001810361184c57600a60008473ffffffffffffffffffffffffffffffffffffffff1673ffffffffffffffffffffffffffffffffffffffff16815260200190815260200160002060006117f19190611bf7565b6000600b60008573ffffffffffffffffffffffffffffffffffffffff1673ffffffffffffffffffffffffffffffffffffffff168152602001908152602001600020600086815260200190815260200160002081905550611a91565b6000600a60008573ffffffffffffffffffffffffffffffffffffffff1673ffffffffffffffffffffffffffffffffffffffff16815260200190815260200160002060018361189a9190612582565b815481106118ab576118aa6128fe565b5b90600052602060002001549050600a60008573ffffffffffffffffffffffffffffffffffffffff1673ffffffffffffffffffffffffffffffffffffffff1681526020019081526020016000206001836119049190612582565b81548110611915576119146128fe565b5b9060005260206000200154600a60008673ffffffffffffffffffffffffffffffffffffffff1673ffffffffffffffffffffffffffffffffffffffff1681526020019081526020016000208481548110611971576119706128fe565b5b9060005260206000200181905550600a60008573ffffffffffffffffffffffffffffffffffffffff1673ffffffffffffffffffffffffffffffffffffffff1681526020019081526020016000208054806119ce576119cd61292d565b5b6001900381819060005260206000200160009055905582600b60008673ffffffffffffffffffffffffffffffffffffffff1673ffffffffffffffffffffffffffffffffffffffff1681526020019081526020016000206000838152602001908152602001600020819055506000600b60008673ffffffffffffffffffffffffffffffffffffffff1673ffffffffffffffffffffffffffffffffffffffff168152602001908152602001600020600087815260200190815260200160002081905550505b50505050565b6000600d60008381526020019081526020016000205490506000600c80549050905060018103611b0257600c600081548110611ad657611ad56128fe565b5b90600052602060002001600090556000600d600085815260200190815260200160002081905550611bd9565b6000600c600183611b139190612582565b81548110611b2457611b236128fe565b5b90600052602060002001549050600c600183611b409190612582565b81548110611b5157611b506128fe565b5b9060005260206000200154600c8481548110611b7057611b6f6128fe565b5b9060005260206000200181905550600c805480611b9057611b8f61292d565b5b6001900381819060005260206000200160009055905582600d6000838152602001908152602001600020819055506000600d600086815260200190815260200160002081905550505b505050565b6000818311611bed5782611bef565b815b905092915050565b5080546000825590600052602060002090810190611c159190611c18565b50565b5b80821115611c31576000816000905550600101611c19565b5090565b6000604051905090565b600080fd5b600080fd5b60007fffffffff0000000000000000000000000000000000000000000000000000000082169050919050565b611c7e81611c49565b8114611c8957600080fd5b50565b600081359050611c9b81611c75565b92915050565b600060208284031215611cb757611cb6611c3f565b5b6000611cc584828501611c8c565b91505092915050565b60008115159050919050565b611ce381611cce565b82525050565b6000602082019050611cfe6000830184611cda565b92915050565b600073ffffffffffffffffffffffffffffffffffffffff82169050919050565b6000611d2f82611d04565b9050919050565b611d3f81611d24565b8114611d4a57600080fd5b50565b600081359050611d5c81611d36565b92915050565b6000819050919050565b611d7581611d62565b8114611d8057600080fd5b50565b600081359050611d9281611d6c565b92915050565b60008060408385031215611daf57611dae611c3f565b5b6000611dbd85828601611d4d565b9250506020611dce85828601611d83565b9150509250929050565b611de181611d62565b82525050565b6000602082019050611dfc6000830184611dd8565b92915050565b6000819050919050565b6000611e27611e22611e1d84611d04565b611e02565b611d04565b9050919050565b6000611e3982611e0c565b9050919050565b6000611e4b82611e2e565b9050919050565b611e5b81611e40565b82525050565b6000602082019050611e766000830184611e52565b92915050565b600080fd5b600080fd5b600080fd5b60008083601f840112611ea157611ea0611e7c565b5b8235905067ffffffffffffffff811115611ebe57611ebd611e81565b5b602083019150836001820283011115611eda57611ed9611e86565b5b9250929050565b600080600080600060808688031215611efd57611efc611c3f565b5b6000611f0b88828901611d4d565b9550506020611f1c88828901611d4d565b9450506040611f2d88828901611d83565b935050606086013567ffffffffffffffff811115611f4e57611f4d611c44565b5b611f5a88828901611e8b565b92509250509295509295909350565b611f7281611c49565b82525050565b6000602082019050611f8d6000830184611f69565b92915050565b600060208284031215611fa957611fa8611c3f565b5b6000611fb784828501611d83565b91505092915050565b600080fd5b6000601f19601f8301169050919050565b7f4e487b7100000000000000000000000000000000000000000000000000000000600052604160045260246000fd5b61200e82611fc5565b810181811067ffffffffffffffff8211171561202d5761202c611fd6565b5b80604052505050565b6000612040611c35565b905061204c8282612005565b919050565b600067ffffffffffffffff82111561206c5761206b611fd6565b5b61207582611fc5565b9050602081019050919050565b82818337600083830152505050565b60006120a461209f84612051565b612036565b9050828152602081018484840111156120c0576120bf611fc0565b5b6120cb848285612082565b509392505050565b600082601f8301126120e8576120e7611e7c565b5b81356120f8848260208601612091565b91505092915050565b6000806040838503121561211857612117611c3f565b5b600083013567ffffffffffffffff81111561213657612135611c44565b5b612142858286016120d3565b925050602061215385828601611d83565b9150509250929050565b600081519050919050565b600082825260208201905092915050565b60005b8381101561219757808201518184015260208101905061217c565b60008484015250505050565b60006121ae8261215d565b6121b88185612168565b93506121c8818560208601612179565b6121d181611fc5565b840191505092915050565b600060208201905081810360008301526121f681846121a3565b905092915050565b61220781611d24565b82525050565b600060208201905061222260008301846121fe565b92915050565b600081519050919050565b600082825260208201905092915050565b6000819050602082019050919050565b61225d81611d62565b82525050565b600061226f8383612254565b60208301905092915050565b6000602082019050919050565b600061229382612228565b61229d8185612233565b93506122a883612244565b8060005b838110156122d95781516122c08882612263565b97506122cb8361227b565b9250506001810190506122ac565b5085935050505092915050565b600060208201905081810360008301526123008184612288565b905092915050565b600061231382611e2e565b9050919050565b61232381612308565b82525050565b600060208201905061233e600083018461231a565b92915050565b600080fd5b60008151905061235881611d6c565b92915050565b60008151905061236d81611d36565b92915050565b600060e0828403121561238957612388612344565b5b61239360e0612036565b905060006123a384828501612349565b60008301525060206123b78482850161235e565b60208301525060406123cb8482850161235e565b60408301525060606123df8482850161235e565b60608301525060806123f384828501612349565b60808301525060a061240784828501612349565b60a08301525060c061241b84828501612349565b60c08301525092915050565b600060e0828403121561243d5761243c611c3f565b5b600061244b84828501612373565b91505092915050565b600060408201905061246960008301856121fe565b6124766020830184611dd8565b9392505050565b61248681611cce565b811461249157600080fd5b50565b6000815190506124a38161247d565b92915050565b6000602082840312156124bf576124be611c3f565b5b60006124cd84828501612494565b91505092915050565b600082825260208201905092915050565b7f746f6b656e4964203d2030000000000000000000000000000000000000000000600082015250565b600061251d600b836124d6565b9150612528826124e7565b602082019050919050565b6000602082019050818103600083015261254c81612510565b9050919050565b7f4e487b7100000000000000000000000000000000000000000000000000000000600052601160045260246000fd5b600061258d82611d62565b915061259883611d62565b92508282039050818111156125b0576125af612553565b5b92915050565b60006060820190506125cb60008301866121fe565b6125d860208301856121fe565b6125e56040830184611dd8565b949350505050565b600081519050919050565b600081905092915050565b600061260e826125ed565b61261881856125f8565b9350612628818560208601612179565b80840191505092915050565b60006126408284612603565b915081905092915050565b7f6e6f74206f776e65720000000000000000000000000000000000000000000000600082015250565b60006126816009836124d6565b915061268c8261264b565b602082019050919050565b600060208201905081810360008301526126b081612674565b9050919050565b7f4e487b7100000000000000000000000000000000000000000000000000000000600052601260045260246000fd5b60006126f182611d62565b91506126fc83611d62565b92508261270c5761270b6126b7565b5b828204905092915050565b600061272282611d62565b915061272d83611d62565b925082820261273b81611d62565b9150828204841483151761275257612751612553565b5b5092915050565b600061276482611d62565b915061276f83611d62565b925082820190508082111561278757612786612553565b5b92915050565b7f7265776172642072617465203d20300000000000000000000000000000000000600082015250565b60006127c3600f836124d6565b91506127ce8261278d565b602082019050919050565b600060208201905081810360008301526127f2816127b6565b9050919050565b60006020828403121561280f5761280e611c3f565b5b600061281d84828501612349565b91505092915050565b7f72657761726420616d6f756e74203e2062616c616e6365000000000000000000600082015250565b600061285c6017836124d6565b915061286782612826565b602082019050919050565b6000602082019050818103600083015261288b8161284f565b9050919050565b7f726577617264206475726174696f6e206e6f742066696e697368656400000000600082015250565b60006128c8601c836124d6565b91506128d382612892565b602082019050919050565b600060208201905081810360008301526128f7816128bb565b9050919050565b7f4e487b7100000000000000000000000000000000000000000000000000000000600052603260045260246000fd5b7f4e487b7100000000000000000000000000000000000000000000000000000000600052603160045260246000fdfea2646970667358221220e7298c9c6130636373635b910eb8c35cc800171e32d7926e3990abe1e15bdab364736f6c63430008120033",
					"opcodes": "PUSH1 0xC0 PUSH1 0x40 MSTORE CALLVALUE DUP1 ISZERO PUSH3 0x11 JUMPI PUSH1 0x0 DUP1 REVERT JUMPDEST POP PUSH1 0x40 MLOAD PUSH3 0x2B8F CODESIZE SUB DUP1 PUSH3 0x2B8F DUP4 CODECOPY DUP2 DUP2 ADD PUSH1 0x40 MSTORE DUP2 ADD SWAP1 PUSH3 0x37 SWAP2 SWAP1 PUSH3 0x151 JUMP JUMPDEST CALLER PUSH1 0x0 DUP1 PUSH2 0x100 EXP DUP2 SLOAD DUP2 PUSH20 0xFFFFFFFFFFFFFFFFFFFFFFFFFFFFFFFFFFFFFFFF MUL NOT AND SWAP1 DUP4 PUSH20 0xFFFFFFFFFFFFFFFFFFFFFFFFFFFFFFFFFFFFFFFF AND MUL OR SWAP1 SSTORE POP DUP2 PUSH20 0xFFFFFFFFFFFFFFFFFFFFFFFFFFFFFFFFFFFFFFFF AND PUSH1 0x80 DUP2 PUSH20 0xFFFFFFFFFFFFFFFFFFFFFFFFFFFFFFFFFFFFFFFF AND DUP2 MSTORE POP POP DUP1 PUSH20 0xFFFFFFFFFFFFFFFFFFFFFFFFFFFFFFFFFFFFFFFF AND PUSH1 0xA0 DUP2 PUSH20 0xFFFFFFFFFFFFFFFFFFFFFFFFFFFFFFFFFFFFFFFF AND DUP2 MSTORE POP POP POP POP PUSH3 0x198 JUMP JUMPDEST PUSH1 0x0 DUP1 REVERT JUMPDEST PUSH1 0x0 PUSH20 0xFFFFFFFFFFFFFFFFFFFFFFFFFFFFFFFFFFFFFFFF DUP3 AND SWAP1 POP SWAP2 SWAP1 POP JUMP JUMPDEST PUSH1 0x0 PUSH3 0x119 DUP3 PUSH3 0xEC JUMP JUMPDEST SWAP1 POP SWAP2 SWAP1 POP JUMP JUMPDEST PUSH3 0x12B DUP2 PUSH3 0x10C JUMP JUMPDEST DUP2 EQ PUSH3 0x137 JUMPI PUSH1 0x0 DUP1 REVERT JUMPDEST POP JUMP JUMPDEST PUSH1 0x0 DUP2 MLOAD SWAP1 POP PUSH3 0x14B DUP2 PUSH3 0x120 JUMP JUMPDEST SWAP3 SWAP2 POP POP JUMP JUMPDEST PUSH1 0x0 DUP1 PUSH1 0x40 DUP4 DUP6 SUB SLT ISZERO PUSH3 0x16B JUMPI PUSH3 0x16A PUSH3 0xE7 JUMP JUMPDEST JUMPDEST PUSH1 0x0 PUSH3 0x17B DUP6 DUP3 DUP7 ADD PUSH3 0x13A JUMP JUMPDEST SWAP3 POP POP PUSH1 0x20 PUSH3 0x18E DUP6 DUP3 DUP7 ADD PUSH3 0x13A JUMP JUMPDEST SWAP2 POP POP SWAP3 POP SWAP3 SWAP1 POP JUMP JUMPDEST PUSH1 0x80 MLOAD PUSH1 0xA0 MLOAD PUSH2 0x2992 PUSH3 0x1FD PUSH1 0x0 CODECOPY PUSH1 0x0 DUP2 DUP2 PUSH2 0x8A3 ADD MSTORE DUP2 DUP2 PUSH2 0xE41 ADD MSTORE PUSH2 0x164C ADD MSTORE PUSH1 0x0 DUP2 DUP2 PUSH2 0x720 ADD MSTORE DUP2 DUP2 PUSH2 0x7DF ADD MSTORE DUP2 DUP2 PUSH2 0x9EC ADD MSTORE DUP2 DUP2 PUSH2 0xAB5 ADD MSTORE DUP2 DUP2 PUSH2 0xB6D ADD MSTORE DUP2 DUP2 PUSH2 0x10E4 ADD MSTORE DUP2 DUP2 PUSH2 0x127C ADD MSTORE PUSH2 0x1345 ADD MSTORE PUSH2 0x2992 PUSH1 0x0 RETURN INVALID PUSH1 0x80 PUSH1 0x40 MSTORE CALLVALUE DUP1 ISZERO PUSH2 0x10 JUMPI PUSH1 0x0 DUP1 REVERT JUMPDEST POP PUSH1 0x4 CALLDATASIZE LT PUSH2 0x1CF JUMPI PUSH1 0x0 CALLDATALOAD PUSH1 0xE0 SHR DUP1 PUSH4 0x7B0A47EE GT PUSH2 0x104 JUMPI DUP1 PUSH4 0xC1A489DF GT PUSH2 0xA2 JUMPI DUP1 PUSH4 0xD1AF0C7D GT PUSH2 0x71 JUMPI DUP1 PUSH4 0xD1AF0C7D EQ PUSH2 0x55A JUMPI DUP1 PUSH4 0xD60D4067 EQ PUSH2 0x578 JUMPI DUP1 PUSH4 0xE743752B EQ PUSH2 0x596 JUMPI DUP1 PUSH4 0xF301AF42 EQ PUSH2 0x5C6 JUMPI PUSH2 0x1CF JUMP JUMPDEST DUP1 PUSH4 0xC1A489DF EQ PUSH2 0x4D2 JUMPI DUP1 PUSH4 0xC964F585 EQ PUSH2 0x502 JUMPI DUP1 PUSH4 0xCC1A378F EQ PUSH2 0x520 JUMPI DUP1 PUSH4 0xCD3DAF9D EQ PUSH2 0x53C JUMPI PUSH2 0x1CF JUMP JUMPDEST DUP1 PUSH4 0x8DA5CB5B GT PUSH2 0xDE JUMPI DUP1 PUSH4 0x8DA5CB5B EQ PUSH2 0x44A JUMPI DUP1 PUSH4 0x9CC7F708 EQ PUSH2 0x468 JUMPI DUP1 PUSH4 0xA694FC3A EQ PUSH2 0x498 JUMPI DUP1 PUSH4 0xB8206E7A EQ PUSH2 0x4B4 JUMPI PUSH2 0x1CF JUMP JUMPDEST DUP1 PUSH4 0x7B0A47EE EQ PUSH2 0x3F0 JUMPI DUP1 PUSH4 0x802C981D EQ PUSH2 0x40E JUMPI DUP1 PUSH4 0x80FAA57D EQ PUSH2 0x42C JUMPI PUSH2 0x1CF JUMP JUMPDEST DUP1 PUSH4 0x1C4B774B GT PUSH2 0x171 JUMPI DUP1 PUSH4 0x3C6B16AB GT PUSH2 0x14B JUMPI DUP1 PUSH4 0x3C6B16AB EQ PUSH2 0x356 JUMPI DUP1 PUSH4 0x4D6ED8C4 EQ PUSH2 0x372 JUMPI DUP1 PUSH4 0x67D3B488 EQ PUSH2 0x3A2 JUMPI DUP1 PUSH4 0x6C6F858B EQ PUSH2 0x3C0 JUMPI PUSH2 0x1CF JUMP JUMPDEST DUP1 PUSH4 0x1C4B774B EQ PUSH2 0x2EE JUMPI DUP1 PUSH4 0x2E17DE78 EQ PUSH2 0x30A JUMPI DUP1 PUSH4 0x2EF64FC5 EQ PUSH2 0x326 JUMPI PUSH2 0x1CF JUMP JUMPDEST DUP1 PUSH4 0xCE71E32 GT PUSH2 0x1AD JUMPI DUP1 PUSH4 0xCE71E32 EQ PUSH2 0x264 JUMPI DUP1 PUSH4 0xFB5A6B4 EQ PUSH2 0x282 JUMPI DUP1 PUSH4 0x150B7A02 EQ PUSH2 0x2A0 JUMPI DUP1 PUSH4 0x18160DDD EQ PUSH2 0x2D0 JUMPI PUSH2 0x1CF JUMP JUMPDEST DUP1 PUSH4 0x1FFC9A7 EQ PUSH2 0x1D4 JUMPI DUP1 PUSH4 0x889BDC8 EQ PUSH2 0x204 JUMPI DUP1 PUSH4 0x8E73CC1 EQ PUSH2 0x234 JUMPI JUMPDEST PUSH1 0x0 DUP1 REVERT JUMPDEST PUSH2 0x1EE PUSH1 0x4 DUP1 CALLDATASIZE SUB DUP2 ADD SWAP1 PUSH2 0x1E9 SWAP2 SWAP1 PUSH2 0x1CA1 JUMP JUMPDEST PUSH2 0x5F6 JUMP JUMPDEST PUSH1 0x40 MLOAD PUSH2 0x1FB SWAP2 SWAP1 PUSH2 0x1CE9 JUMP JUMPDEST PUSH1 0x40 MLOAD DUP1 SWAP2 SUB SWAP1 RETURN JUMPDEST PUSH2 0x21E PUSH1 0x4 DUP1 CALLDATASIZE SUB DUP2 ADD SWAP1 PUSH2 0x219 SWAP2 SWAP1 PUSH2 0x1D98 JUMP JUMPDEST PUSH2 0x6C8 JUMP JUMPDEST PUSH1 0x40 MLOAD PUSH2 0x22B SWAP2 SWAP1 PUSH2 0x1DE7 JUMP JUMPDEST PUSH1 0x40 MLOAD DUP1 SWAP2 SUB SWAP1 RETURN JUMPDEST PUSH2 0x24E PUSH1 0x4 DUP1 CALLDATASIZE SUB DUP2 ADD SWAP1 PUSH2 0x249 SWAP2 SWAP1 PUSH2 0x1D98 JUMP JUMPDEST PUSH2 0x6ED JUMP JUMPDEST PUSH1 0x40 MLOAD PUSH2 0x25B SWAP2 SWAP1 PUSH2 0x1DE7 JUMP JUMPDEST PUSH1 0x40 MLOAD DUP1 SWAP2 SUB SWAP1 RETURN JUMPDEST PUSH2 0x26C PUSH2 0x71E JUMP JUMPDEST PUSH1 0x40 MLOAD PUSH2 0x279 SWAP2 SWAP1 PUSH2 0x1E61 JUMP JUMPDEST PUSH1 0x40 MLOAD DUP1 SWAP2 SUB SWAP1 RETURN JUMPDEST PUSH2 0x28A PUSH2 0x742 JUMP JUMPDEST PUSH1 0x40 MLOAD PUSH2 0x297 SWAP2 SWAP1 PUSH2 0x1DE7 JUMP JUMPDEST PUSH1 0x40 MLOAD DUP1 SWAP2 SUB SWAP1 RETURN JUMPDEST PUSH2 0x2BA PUSH1 0x4 DUP1 CALLDATASIZE SUB DUP2 ADD SWAP1 PUSH2 0x2B5 SWAP2 SWAP1 PUSH2 0x1EE1 JUMP JUMPDEST PUSH2 0x748 JUMP JUMPDEST PUSH1 0x40 MLOAD PUSH2 0x2C7 SWAP2 SWAP1 PUSH2 0x1F78 JUMP JUMPDEST PUSH1 0x40 MLOAD DUP1 SWAP2 SUB SWAP1 RETURN JUMPDEST PUSH2 0x2D8 PUSH2 0x75D JUMP JUMPDEST PUSH1 0x40 MLOAD PUSH2 0x2E5 SWAP2 SWAP1 PUSH2 0x1DE7 JUMP JUMPDEST PUSH1 0x40 MLOAD DUP1 SWAP2 SUB SWAP1 RETURN JUMPDEST PUSH2 0x308 PUSH1 0x4 DUP1 CALLDATASIZE SUB DUP2 ADD SWAP1 PUSH2 0x303 SWAP2 SWAP1 PUSH2 0x1F93 JUMP JUMPDEST PUSH2 0x763 JUMP JUMPDEST STOP JUMPDEST PUSH2 0x324 PUSH1 0x4 DUP1 CALLDATASIZE SUB DUP2 ADD SWAP1 PUSH2 0x31F SWAP2 SWAP1 PUSH2 0x1F93 JUMP JUMPDEST PUSH2 0x947 JUMP JUMPDEST STOP JUMPDEST PUSH2 0x340 PUSH1 0x4 DUP1 CALLDATASIZE SUB DUP2 ADD SWAP1 PUSH2 0x33B SWAP2 SWAP1 PUSH2 0x2101 JUMP JUMPDEST PUSH2 0xC1A JUMP JUMPDEST PUSH1 0x40 MLOAD PUSH2 0x34D SWAP2 SWAP1 PUSH2 0x21DC JUMP JUMPDEST PUSH1 0x40 MLOAD DUP1 SWAP2 SUB SWAP1 RETURN JUMPDEST PUSH2 0x370 PUSH1 0x4 DUP1 CALLDATASIZE SUB DUP2 ADD SWAP1 PUSH2 0x36B SWAP2 SWAP1 PUSH2 0x1F93 JUMP JUMPDEST PUSH2 0xCA8 JUMP JUMPDEST STOP JUMPDEST PUSH2 0x38C PUSH1 0x4 DUP1 CALLDATASIZE SUB DUP2 ADD SWAP1 PUSH2 0x387 SWAP2 SWAP1 PUSH2 0x1F93 JUMP JUMPDEST PUSH2 0xF48 JUMP JUMPDEST PUSH1 0x40 MLOAD PUSH2 0x399 SWAP2 SWAP1 PUSH2 0x1DE7 JUMP JUMPDEST PUSH1 0x40 MLOAD DUP1 SWAP2 SUB SWAP1 RETURN JUMPDEST PUSH2 0x3AA PUSH2 0xFC6 JUMP JUMPDEST PUSH1 0x40 MLOAD PUSH2 0x3B7 SWAP2 SWAP1 PUSH2 0x1DE7 JUMP JUMPDEST PUSH1 0x40 MLOAD DUP1 SWAP2 SUB SWAP1 RETURN JUMPDEST PUSH2 0x3DA PUSH1 0x4 DUP1 CALLDATASIZE SUB DUP2 ADD SWAP1 PUSH2 0x3D5 SWAP2 SWAP1 PUSH2 0x1F93 JUMP JUMPDEST PUSH2 0xFCC JUMP JUMPDEST PUSH1 0x40 MLOAD PUSH2 0x3E7 SWAP2 SWAP1 PUSH2 0x1DE7 JUMP JUMPDEST PUSH1 0x40 MLOAD DUP1 SWAP2 SUB SWAP1 RETURN JUMPDEST PUSH2 0x3F8 PUSH2 0xFE4 JUMP JUMPDEST PUSH1 0x40 MLOAD PUSH2 0x405 SWAP2 SWAP1 PUSH2 0x1DE7 JUMP JUMPDEST PUSH1 0x40 MLOAD DUP1 SWAP2 SUB SWAP1 RETURN JUMPDEST PUSH2 0x416 PUSH2 0xFEA JUMP JUMPDEST PUSH1 0x40 MLOAD PUSH2 0x423 SWAP2 SWAP1 PUSH2 0x1DE7 JUMP JUMPDEST PUSH1 0x40 MLOAD DUP1 SWAP2 SUB SWAP1 RETURN JUMPDEST PUSH2 0x434 PUSH2 0xFF0 JUMP JUMPDEST PUSH1 0x40 MLOAD PUSH2 0x441 SWAP2 SWAP1 PUSH2 0x1DE7 JUMP JUMPDEST PUSH1 0x40 MLOAD DUP1 SWAP2 SUB SWAP1 RETURN JUMPDEST PUSH2 0x452 PUSH2 0x1003 JUMP JUMPDEST PUSH1 0x40 MLOAD PUSH2 0x45F SWAP2 SWAP1 PUSH2 0x220D JUMP JUMPDEST PUSH1 0x40 MLOAD DUP1 SWAP2 SUB SWAP1 RETURN JUMPDEST PUSH2 0x482 PUSH1 0x4 DUP1 CALLDATASIZE SUB DUP2 ADD SWAP1 PUSH2 0x47D SWAP2 SWAP1 PUSH2 0x1F93 JUMP JUMPDEST PUSH2 0x1027 JUMP JUMPDEST PUSH1 0x40 MLOAD PUSH2 0x48F SWAP2 SWAP1 PUSH2 0x1DE7 JUMP JUMPDEST PUSH1 0x40 MLOAD DUP1 SWAP2 SUB SWAP1 RETURN JUMPDEST PUSH2 0x4B2 PUSH1 0x4 DUP1 CALLDATASIZE SUB DUP2 ADD SWAP1 PUSH2 0x4AD SWAP2 SWAP1 PUSH2 0x1F93 JUMP JUMPDEST PUSH2 0x103F JUMP JUMPDEST STOP JUMPDEST PUSH2 0x4BC PUSH2 0x1451 JUMP JUMPDEST PUSH1 0x40 MLOAD PUSH2 0x4C9 SWAP2 SWAP1 PUSH2 0x22E6 JUMP JUMPDEST PUSH1 0x40 MLOAD DUP1 SWAP2 SUB SWAP1 RETURN JUMPDEST PUSH2 0x4EC PUSH1 0x4 DUP1 CALLDATASIZE SUB DUP2 ADD SWAP1 PUSH2 0x4E7 SWAP2 SWAP1 PUSH2 0x1F93 JUMP JUMPDEST PUSH2 0x14E6 JUMP JUMPDEST PUSH1 0x40 MLOAD PUSH2 0x4F9 SWAP2 SWAP1 PUSH2 0x1DE7 JUMP JUMPDEST PUSH1 0x40 MLOAD DUP1 SWAP2 SUB SWAP1 RETURN JUMPDEST PUSH2 0x50A PUSH2 0x14FE JUMP JUMPDEST PUSH1 0x40 MLOAD PUSH2 0x517 SWAP2 SWAP1 PUSH2 0x1DE7 JUMP JUMPDEST PUSH1 0x40 MLOAD DUP1 SWAP2 SUB SWAP1 RETURN JUMPDEST PUSH2 0x53A PUSH1 0x4 DUP1 CALLDATASIZE SUB DUP2 ADD SWAP1 PUSH2 0x535 SWAP2 SWAP1 PUSH2 0x1F93 JUMP JUMPDEST PUSH2 0x1504 JUMP JUMPDEST STOP JUMPDEST PUSH2 0x544 PUSH2 0x15E0 JUMP JUMPDEST PUSH1 0x40 MLOAD PUSH2 0x551 SWAP2 SWAP1 PUSH2 0x1DE7 JUMP JUMPDEST PUSH1 0x40 MLOAD DUP1 SWAP2 SUB SWAP1 RETURN JUMPDEST PUSH2 0x562 PUSH2 0x164A JUMP JUMPDEST PUSH1 0x40 MLOAD PUSH2 0x56F SWAP2 SWAP1 PUSH2 0x2329 JUMP JUMPDEST PUSH1 0x40 MLOAD DUP1 SWAP2 SUB SWAP1 RETURN JUMPDEST PUSH2 0x580 PUSH2 0x166E JUMP JUMPDEST PUSH1 0x40 MLOAD PUSH2 0x58D SWAP2 SWAP1 PUSH2 0x22E6 JUMP JUMPDEST PUSH1 0x40 MLOAD DUP1 SWAP2 SUB SWAP1 RETURN JUMPDEST PUSH2 0x5B0 PUSH1 0x4 DUP1 CALLDATASIZE SUB DUP2 ADD SWAP1 PUSH2 0x5AB SWAP2 SWAP1 PUSH2 0x1F93 JUMP JUMPDEST PUSH2 0x16C6 JUMP JUMPDEST PUSH1 0x40 MLOAD PUSH2 0x5BD SWAP2 SWAP1 PUSH2 0x1DE7 JUMP JUMPDEST PUSH1 0x40 MLOAD DUP1 SWAP2 SUB SWAP1 RETURN JUMPDEST PUSH2 0x5E0 PUSH1 0x4 DUP1 CALLDATASIZE SUB DUP2 ADD SWAP1 PUSH2 0x5DB SWAP2 SWAP1 PUSH2 0x1F93 JUMP JUMPDEST PUSH2 0x16EA JUMP JUMPDEST PUSH1 0x40 MLOAD PUSH2 0x5ED SWAP2 SWAP1 PUSH2 0x1DE7 JUMP JUMPDEST PUSH1 0x40 MLOAD DUP1 SWAP2 SUB SWAP1 RETURN JUMPDEST PUSH1 0x0 PUSH32 0x80AC58CD00000000000000000000000000000000000000000000000000000000 PUSH28 0xFFFFFFFFFFFFFFFFFFFFFFFFFFFFFFFFFFFFFFFFFFFFFFFFFFFFFFFF NOT AND DUP3 PUSH28 0xFFFFFFFFFFFFFFFFFFFFFFFFFFFFFFFFFFFFFFFFFFFFFFFFFFFFFFFF NOT AND EQ DUP1 PUSH2 0x6C1 JUMPI POP PUSH32 0x1FFC9A700000000000000000000000000000000000000000000000000000000 PUSH28 0xFFFFFFFFFFFFFFFFFFFFFFFFFFFFFFFFFFFFFFFFFFFFFFFFFFFFFFFF NOT AND DUP3 PUSH28 0xFFFFFFFFFFFFFFFFFFFFFFFFFFFFFFFFFFFFFFFFFFFFFFFFFFFFFFFF NOT AND EQ JUMPDEST SWAP1 POP SWAP2 SWAP1 POP JUMP JUMPDEST PUSH1 0xB PUSH1 0x20 MSTORE DUP2 PUSH1 0x0 MSTORE PUSH1 0x40 PUSH1 0x0 KECCAK256 PUSH1 0x20 MSTORE DUP1 PUSH1 0x0 MSTORE PUSH1 0x40 PUSH1 0x0 KECCAK256 PUSH1 0x0 SWAP2 POP SWAP2 POP POP SLOAD DUP2 JUMP JUMPDEST PUSH1 0xA PUSH1 0x20 MSTORE DUP2 PUSH1 0x0 MSTORE PUSH1 0x40 PUSH1 0x0 KECCAK256 DUP2 DUP2 SLOAD DUP2 LT PUSH2 0x709 JUMPI PUSH1 0x0 DUP1 REVERT JUMPDEST SWAP1 PUSH1 0x0 MSTORE PUSH1 0x20 PUSH1 0x0 KECCAK256 ADD PUSH1 0x0 SWAP2 POP SWAP2 POP POP SLOAD DUP2 JUMP JUMPDEST PUSH32 0x0 DUP2 JUMP JUMPDEST PUSH1 0x1 SLOAD DUP2 JUMP JUMPDEST PUSH1 0x0 PUSH4 0x150B7A02 PUSH1 0xE0 SHL SWAP1 POP SWAP6 SWAP5 POP POP POP POP POP JUMP JUMPDEST PUSH1 0x9 SLOAD DUP2 JUMP JUMPDEST DUP1 PUSH2 0x76C PUSH2 0x15E0 JUMP JUMPDEST PUSH1 0x5 DUP2 SWAP1 SSTORE POP PUSH2 0x77A PUSH2 0xFF0 JUMP JUMPDEST PUSH1 0x3 DUP2 SWAP1 SSTORE POP PUSH1 0x0 DUP2 EQ PUSH2 0x7C3 JUMPI PUSH2 0x791 DUP2 PUSH2 0xF48 JUMP JUMPDEST PUSH1 0x7 PUSH1 0x0 DUP4 DUP2 MSTORE PUSH1 0x20 ADD SWAP1 DUP2 MSTORE PUSH1 0x20 ADD PUSH1 0x0 KECCAK256 DUP2 SWAP1 SSTORE POP PUSH1 0x5 SLOAD PUSH1 0x6 PUSH1 0x0 DUP4 DUP2 MSTORE PUSH1 0x20 ADD SWAP1 DUP2 MSTORE PUSH1 0x20 ADD PUSH1 0x0 KECCAK256 DUP2 SWAP1 SSTORE POP JUMPDEST PUSH1 0x0 PUSH1 0x7 PUSH1 0x0 DUP5 DUP2 MSTORE PUSH1 0x20 ADD SWAP1 DUP2 MSTORE PUSH1 0x20 ADD PUSH1 0x0 KECCAK256 SLOAD SWAP1 POP PUSH1 0x0 PUSH32 0x0 PUSH20 0xFFFFFFFFFFFFFFFFFFFFFFFFFFFFFFFFFFFFFFFF AND PUSH4 0x99FBAB88 DUP6 PUSH1 0x40 MLOAD DUP3 PUSH4 0xFFFFFFFF AND PUSH1 0xE0 SHL DUP2 MSTORE PUSH1 0x4 ADD PUSH2 0x836 SWAP2 SWAP1 PUSH2 0x1DE7 JUMP JUMPDEST PUSH1 0xE0 PUSH1 0x40 MLOAD DUP1 DUP4 SUB DUP2 PUSH1 0x0 DUP8 GAS CALL ISZERO DUP1 ISZERO PUSH2 0x855 JUMPI RETURNDATASIZE PUSH1 0x0 DUP1 RETURNDATACOPY RETURNDATASIZE PUSH1 0x0 REVERT JUMPDEST POP POP POP POP PUSH1 0x40 MLOAD RETURNDATASIZE PUSH1 0x1F NOT PUSH1 0x1F DUP3 ADD AND DUP3 ADD DUP1 PUSH1 0x40 MSTORE POP DUP2 ADD SWAP1 PUSH2 0x879 SWAP2 SWAP1 PUSH2 0x2427 JUMP JUMPDEST PUSH1 0x20 ADD MLOAD SWAP1 POP PUSH1 0x0 DUP3 GT ISZERO PUSH2 0x941 JUMPI PUSH1 0x0 PUSH1 0x7 PUSH1 0x0 DUP7 DUP2 MSTORE PUSH1 0x20 ADD SWAP1 DUP2 MSTORE PUSH1 0x20 ADD PUSH1 0x0 KECCAK256 DUP2 SWAP1 SSTORE POP PUSH32 0x0 PUSH20 0xFFFFFFFFFFFFFFFFFFFFFFFFFFFFFFFFFFFFFFFF AND PUSH4 0xA9059CBB DUP3 DUP5 PUSH1 0x40 MLOAD DUP4 PUSH4 0xFFFFFFFF AND PUSH1 0xE0 SHL DUP2 MSTORE PUSH1 0x4 ADD PUSH2 0x8FC SWAP3 SWAP2 SWAP1 PUSH2 0x2454 JUMP JUMPDEST PUSH1 0x20 PUSH1 0x40 MLOAD DUP1 DUP4 SUB DUP2 PUSH1 0x0 DUP8 GAS CALL ISZERO DUP1 ISZERO PUSH2 0x91B JUMPI RETURNDATASIZE PUSH1 0x0 DUP1 RETURNDATACOPY RETURNDATASIZE PUSH1 0x0 REVERT JUMPDEST POP POP POP POP PUSH1 0x40 MLOAD RETURNDATASIZE PUSH1 0x1F NOT PUSH1 0x1F DUP3 ADD AND DUP3 ADD DUP1 PUSH1 0x40 MSTORE POP DUP2 ADD SWAP1 PUSH2 0x93F SWAP2 SWAP1 PUSH2 0x24A9 JUMP JUMPDEST POP JUMPDEST POP POP POP POP JUMP JUMPDEST DUP1 PUSH2 0x950 PUSH2 0x15E0 JUMP JUMPDEST PUSH1 0x5 DUP2 SWAP1 SSTORE POP PUSH2 0x95E PUSH2 0xFF0 JUMP JUMPDEST PUSH1 0x3 DUP2 SWAP1 SSTORE POP PUSH1 0x0 DUP2 EQ PUSH2 0x9A7 JUMPI PUSH2 0x975 DUP2 PUSH2 0xF48 JUMP JUMPDEST PUSH1 0x7 PUSH1 0x0 DUP4 DUP2 MSTORE PUSH1 0x20 ADD SWAP1 DUP2 MSTORE PUSH1 0x20 ADD PUSH1 0x0 KECCAK256 DUP2 SWAP1 SSTORE POP PUSH1 0x5 SLOAD PUSH1 0x6 PUSH1 0x0 DUP4 DUP2 MSTORE PUSH1 0x20 ADD SWAP1 DUP2 MSTORE PUSH1 0x20 ADD PUSH1 0x0 KECCAK256 DUP2 SWAP1 SSTORE POP JUMPDEST PUSH1 0x0 DUP3 GT PUSH2 0x9EA JUMPI PUSH1 0x40 MLOAD PUSH32 0x8C379A000000000000000000000000000000000000000000000000000000000 DUP2 MSTORE PUSH1 0x4 ADD PUSH2 0x9E1 SWAP1 PUSH2 0x2533 JUMP JUMPDEST PUSH1 0x40 MLOAD DUP1 SWAP2 SUB SWAP1 REVERT JUMPDEST PUSH32 0x0 PUSH20 0xFFFFFFFFFFFFFFFFFFFFFFFFFFFFFFFFFFFFFFFF AND PUSH4 0x99FBAB88 DUP4 PUSH1 0x40 MLOAD DUP3 PUSH4 0xFFFFFFFF AND PUSH1 0xE0 SHL DUP2 MSTORE PUSH1 0x4 ADD PUSH2 0xA43 SWAP2 SWAP1 PUSH2 0x1DE7 JUMP JUMPDEST PUSH1 0xE0 PUSH1 0x40 MLOAD DUP1 DUP4 SUB DUP2 PUSH1 0x0 DUP8 GAS CALL ISZERO DUP1 ISZERO PUSH2 0xA62 JUMPI RETURNDATASIZE PUSH1 0x0 DUP1 RETURNDATACOPY RETURNDATASIZE PUSH1 0x0 REVERT JUMPDEST POP POP POP POP PUSH1 0x40 MLOAD RETURNDATASIZE PUSH1 0x1F NOT PUSH1 0x1F DUP3 ADD AND DUP3 ADD DUP1 PUSH1 0x40 MSTORE POP DUP2 ADD SWAP1 PUSH2 0xA86 SWAP2 SWAP1 PUSH2 0x2427 JUMP JUMPDEST PUSH1 0x0 ADD MLOAD PUSH1 0x8 PUSH1 0x0 DUP5 DUP2 MSTORE PUSH1 0x20 ADD SWAP1 DUP2 MSTORE PUSH1 0x20 ADD PUSH1 0x0 KECCAK256 PUSH1 0x0 DUP3 DUP3 SLOAD PUSH2 0xAAC SWAP2 SWAP1 PUSH2 0x2582 JUMP JUMPDEST SWAP3 POP POP DUP2 SWAP1 SSTORE POP PUSH32 0x0 PUSH20 0xFFFFFFFFFFFFFFFFFFFFFFFFFFFFFFFFFFFFFFFF AND PUSH4 0x99FBAB88 DUP4 PUSH1 0x40 MLOAD DUP3 PUSH4 0xFFFFFFFF AND PUSH1 0xE0 SHL DUP2 MSTORE PUSH1 0x4 ADD PUSH2 0xB0C SWAP2 SWAP1 PUSH2 0x1DE7 JUMP JUMPDEST PUSH1 0xE0 PUSH1 0x40 MLOAD DUP1 DUP4 SUB DUP2 PUSH1 0x0 DUP8 GAS CALL ISZERO DUP1 ISZERO PUSH2 0xB2B JUMPI RETURNDATASIZE PUSH1 0x0 DUP1 RETURNDATACOPY RETURNDATASIZE PUSH1 0x0 REVERT JUMPDEST POP POP POP POP PUSH1 0x40 MLOAD RETURNDATASIZE PUSH1 0x1F NOT PUSH1 0x1F DUP3 ADD AND DUP3 ADD DUP1 PUSH1 0x40 MSTORE POP DUP2 ADD SWAP1 PUSH2 0xB4F SWAP2 SWAP1 PUSH2 0x2427 JUMP JUMPDEST PUSH1 0x0 ADD MLOAD PUSH1 0x9 PUSH1 0x0 DUP3 DUP3 SLOAD PUSH2 0xB64 SWAP2 SWAP1 PUSH2 0x2582 JUMP JUMPDEST SWAP3 POP POP DUP2 SWAP1 SSTORE POP PUSH32 0x0 PUSH20 0xFFFFFFFFFFFFFFFFFFFFFFFFFFFFFFFFFFFFFFFF AND PUSH4 0x26908FA1 ADDRESS CALLER DUP6 PUSH1 0x40 MLOAD DUP5 PUSH4 0xFFFFFFFF AND PUSH1 0xE0 SHL DUP2 MSTORE PUSH1 0x4 ADD PUSH2 0xBC8 SWAP4 SWAP3 SWAP2 SWAP1 PUSH2 0x25B6 JUMP JUMPDEST PUSH1 0x0 PUSH1 0x40 MLOAD DUP1 DUP4 SUB DUP2 PUSH1 0x0 DUP8 DUP1 EXTCODESIZE ISZERO DUP1 ISZERO PUSH2 0xBE2 JUMPI PUSH1 0x0 DUP1 REVERT JUMPDEST POP GAS CALL ISZERO DUP1 ISZERO PUSH2 0xBF6 JUMPI RETURNDATASIZE PUSH1 0x0 DUP1 RETURNDATACOPY RETURNDATASIZE PUSH1 0x0 REVERT JUMPDEST POP POP POP POP PUSH2 0xC03 DUP3 PUSH2 0x763 JUMP JUMPDEST PUSH2 0xC0D DUP3 CALLER PUSH2 0x1702 JUMP JUMPDEST PUSH2 0xC16 DUP3 PUSH2 0x1A97 JUMP JUMPDEST POP POP JUMP JUMPDEST PUSH1 0x60 DUP3 DUP3 PUSH1 0x40 MLOAD PUSH1 0x24 ADD PUSH2 0xC2E SWAP2 SWAP1 PUSH2 0x1DE7 JUMP JUMPDEST PUSH1 0x40 MLOAD PUSH1 0x20 DUP2 DUP4 SUB SUB DUP2 MSTORE SWAP1 PUSH1 0x40 MSTORE SWAP1 PUSH1 0x40 MLOAD PUSH2 0xC4B SWAP2 SWAP1 PUSH2 0x2634 JUMP JUMPDEST PUSH1 0x40 MLOAD DUP1 SWAP2 SUB SWAP1 KECCAK256 PUSH28 0xFFFFFFFFFFFFFFFFFFFFFFFFFFFFFFFFFFFFFFFFFFFFFFFFFFFFFFFF NOT AND PUSH1 0x20 DUP3 ADD DUP1 MLOAD PUSH28 0xFFFFFFFFFFFFFFFFFFFFFFFFFFFFFFFFFFFFFFFFFFFFFFFFFFFFFFFF DUP4 DUP2 DUP4 AND OR DUP4 MSTORE POP POP POP POP SWAP1 POP SWAP3 SWAP2 POP POP JUMP JUMPDEST PUSH1 0x0 DUP1 SLOAD SWAP1 PUSH2 0x100 EXP SWAP1 DIV PUSH20 0xFFFFFFFFFFFFFFFFFFFFFFFFFFFFFFFFFFFFFFFF AND PUSH20 0xFFFFFFFFFFFFFFFFFFFFFFFFFFFFFFFFFFFFFFFF AND CALLER PUSH20 0xFFFFFFFFFFFFFFFFFFFFFFFFFFFFFFFFFFFFFFFF AND EQ PUSH2 0xD36 JUMPI PUSH1 0x40 MLOAD PUSH32 0x8C379A000000000000000000000000000000000000000000000000000000000 DUP2 MSTORE PUSH1 0x4 ADD PUSH2 0xD2D SWAP1 PUSH2 0x2697 JUMP JUMPDEST PUSH1 0x40 MLOAD DUP1 SWAP2 SUB SWAP1 REVERT JUMPDEST PUSH1 0x0 PUSH2 0xD40 PUSH2 0x15E0 JUMP JUMPDEST PUSH1 0x5 DUP2 SWAP1 SSTORE POP PUSH2 0xD4E PUSH2 0xFF0 JUMP JUMPDEST PUSH1 0x3 DUP2 SWAP1 SSTORE POP PUSH1 0x0 DUP2 EQ PUSH2 0xD97 JUMPI PUSH2 0xD65 DUP2 PUSH2 0xF48 JUMP JUMPDEST PUSH1 0x7 PUSH1 0x0 DUP4 DUP2 MSTORE PUSH1 0x20 ADD SWAP1 DUP2 MSTORE PUSH1 0x20 ADD PUSH1 0x0 KECCAK256 DUP2 SWAP1 SSTORE POP PUSH1 0x5 SLOAD PUSH1 0x6 PUSH1 0x0 DUP4 DUP2 MSTORE PUSH1 0x20 ADD SWAP1 DUP2 MSTORE PUSH1 0x20 ADD PUSH1 0x0 KECCAK256 DUP2 SWAP1 SSTORE POP JUMPDEST PUSH1 0x2 SLOAD TIMESTAMP GT ISZERO PUSH2 0xDBA JUMPI PUSH1 0x1 SLOAD DUP3 PUSH2 0xDAF SWAP2 SWAP1 PUSH2 0x26E6 JUMP JUMPDEST PUSH1 0x4 DUP2 SWAP1 SSTORE POP PUSH2 0xDFA JUMP JUMPDEST PUSH1 0x0 TIMESTAMP PUSH1 0x2 SLOAD PUSH2 0xDCA SWAP2 SWAP1 PUSH2 0x2582 JUMP JUMPDEST PUSH1 0x4 SLOAD PUSH2 0xDD7 SWAP2 SWAP1 PUSH2 0x2717 JUMP JUMPDEST SWAP1 POP PUSH1 0x1 SLOAD DUP4 DUP3 PUSH2 0xDE8 SWAP2 SWAP1 PUSH2 0x2759 JUMP JUMPDEST PUSH2 0xDF2 SWAP2 SWAP1 PUSH2 0x26E6 JUMP JUMPDEST PUSH1 0x4 DUP2 SWAP1 SSTORE POP POP JUMPDEST PUSH1 0x0 PUSH1 0x4 SLOAD GT PUSH2 0xE3F JUMPI PUSH1 0x40 MLOAD PUSH32 0x8C379A000000000000000000000000000000000000000000000000000000000 DUP2 MSTORE PUSH1 0x4 ADD PUSH2 0xE36 SWAP1 PUSH2 0x27D9 JUMP JUMPDEST PUSH1 0x40 MLOAD DUP1 SWAP2 SUB SWAP1 REVERT JUMPDEST PUSH32 0x0 PUSH20 0xFFFFFFFFFFFFFFFFFFFFFFFFFFFFFFFFFFFFFFFF AND PUSH4 0x70A08231 ADDRESS PUSH1 0x40 MLOAD DUP3 PUSH4 0xFFFFFFFF AND PUSH1 0xE0 SHL DUP2 MSTORE PUSH1 0x4 ADD PUSH2 0xE98 SWAP2 SWAP1 PUSH2 0x220D JUMP JUMPDEST PUSH1 0x20 PUSH1 0x40 MLOAD DUP1 DUP4 SUB DUP2 DUP7 GAS STATICCALL ISZERO DUP1 ISZERO PUSH2 0xEB5 JUMPI RETURNDATASIZE PUSH1 0x0 DUP1 RETURNDATACOPY RETURNDATASIZE PUSH1 0x0 REVERT JUMPDEST POP POP POP POP PUSH1 0x40 MLOAD RETURNDATASIZE PUSH1 0x1F NOT PUSH1 0x1F DUP3 ADD AND DUP3 ADD DUP1 PUSH1 0x40 MSTORE POP DUP2 ADD SWAP1 PUSH2 0xED9 SWAP2 SWAP1 PUSH2 0x27F9 JUMP JUMPDEST PUSH1 0x1 SLOAD PUSH1 0x4 SLOAD PUSH2 0xEE9 SWAP2 SWAP1 PUSH2 0x2717 JUMP JUMPDEST LT PUSH2 0xF29 JUMPI PUSH1 0x40 MLOAD PUSH32 0x8C379A000000000000000000000000000000000000000000000000000000000 DUP2 MSTORE PUSH1 0x4 ADD PUSH2 0xF20 SWAP1 PUSH2 0x2872 JUMP JUMPDEST PUSH1 0x40 MLOAD DUP1 SWAP2 SUB SWAP1 REVERT JUMPDEST PUSH1 0x1 SLOAD TIMESTAMP PUSH2 0xF37 SWAP2 SWAP1 PUSH2 0x2759 JUMP JUMPDEST PUSH1 0x2 DUP2 SWAP1 SSTORE POP TIMESTAMP PUSH1 0x3 DUP2 SWAP1 SSTORE POP POP POP JUMP JUMPDEST PUSH1 0x0 PUSH1 0x7 PUSH1 0x0 DUP4 DUP2 MSTORE PUSH1 0x20 ADD SWAP1 DUP2 MSTORE PUSH1 0x20 ADD PUSH1 0x0 KECCAK256 SLOAD PUSH8 0xDE0B6B3A7640000 PUSH1 0x6 PUSH1 0x0 DUP6 DUP2 MSTORE PUSH1 0x20 ADD SWAP1 DUP2 MSTORE PUSH1 0x20 ADD PUSH1 0x0 KECCAK256 SLOAD PUSH2 0xF83 PUSH2 0x15E0 JUMP JUMPDEST PUSH2 0xF8D SWAP2 SWAP1 PUSH2 0x2582 JUMP JUMPDEST PUSH1 0x8 PUSH1 0x0 DUP7 DUP2 MSTORE PUSH1 0x20 ADD SWAP1 DUP2 MSTORE PUSH1 0x20 ADD PUSH1 0x0 KECCAK256 SLOAD PUSH2 0xFAB SWAP2 SWAP1 PUSH2 0x2717 JUMP JUMPDEST PUSH2 0xFB5 SWAP2 SWAP1 PUSH2 0x26E6 JUMP JUMPDEST PUSH2 0xFBF SWAP2 SWAP1 PUSH2 0x2759 JUMP JUMPDEST SWAP1 POP SWAP2 SWAP1 POP JUMP JUMPDEST PUSH1 0x2 SLOAD DUP2 JUMP JUMPDEST PUSH1 0x6 PUSH1 0x20 MSTORE DUP1 PUSH1 0x0 MSTORE PUSH1 0x40 PUSH1 0x0 KECCAK256 PUSH1 0x0 SWAP2 POP SWAP1 POP SLOAD DUP2 JUMP JUMPDEST PUSH1 0x4 SLOAD DUP2 JUMP JUMPDEST PUSH1 0x5 SLOAD DUP2 JUMP JUMPDEST PUSH1 0x0 PUSH2 0xFFE TIMESTAMP PUSH1 0x2 SLOAD PUSH2 0x1BDE JUMP JUMPDEST SWAP1 POP SWAP1 JUMP JUMPDEST PUSH1 0x0 DUP1 SLOAD SWAP1 PUSH2 0x100 EXP SWAP1 DIV PUSH20 0xFFFFFFFFFFFFFFFFFFFFFFFFFFFFFFFFFFFFFFFF AND DUP2 JUMP JUMPDEST PUSH1 0x8 PUSH1 0x20 MSTORE DUP1 PUSH1 0x0 MSTORE PUSH1 0x40 PUSH1 0x0 KECCAK256 PUSH1 0x0 SWAP2 POP SWAP1 POP SLOAD DUP2 JUMP JUMPDEST DUP1 PUSH2 0x1048 PUSH2 0x15E0 JUMP JUMPDEST PUSH1 0x5 DUP2 SWAP1 SSTORE POP PUSH2 0x1056 PUSH2 0xFF0 JUMP JUMPDEST PUSH1 0x3 DUP2 SWAP1 SSTORE POP PUSH1 0x0 DUP2 EQ PUSH2 0x109F JUMPI PUSH2 0x106D DUP2 PUSH2 0xF48 JUMP JUMPDEST PUSH1 0x7 PUSH1 0x0 DUP4 DUP2 MSTORE PUSH1 0x20 ADD SWAP1 DUP2 MSTORE PUSH1 0x20 ADD PUSH1 0x0 KECCAK256 DUP2 SWAP1 SSTORE POP PUSH1 0x5 SLOAD PUSH1 0x6 PUSH1 0x0 DUP4 DUP2 MSTORE PUSH1 0x20 ADD SWAP1 DUP2 MSTORE PUSH1 0x20 ADD PUSH1 0x0 KECCAK256 DUP2 SWAP1 SSTORE POP JUMPDEST PUSH1 0x0 DUP3 GT PUSH2 0x10E2 JUMPI PUSH1 0x40 MLOAD PUSH32 0x8C379A000000000000000000000000000000000000000000000000000000000 DUP2 MSTORE PUSH1 0x4 ADD PUSH2 0x10D9 SWAP1 PUSH2 0x2533 JUMP JUMPDEST PUSH1 0x40 MLOAD DUP1 SWAP2 SUB SWAP1 REVERT JUMPDEST PUSH32 0x0 PUSH20 0xFFFFFFFFFFFFFFFFFFFFFFFFFFFFFFFFFFFFFFFF AND PUSH4 0x26908FA1 CALLER ADDRESS DUP6 PUSH1 0x40 MLOAD DUP5 PUSH4 0xFFFFFFFF AND PUSH1 0xE0 SHL DUP2 MSTORE PUSH1 0x4 ADD PUSH2 0x113F SWAP4 SWAP3 SWAP2 SWAP1 PUSH2 0x25B6 JUMP JUMPDEST PUSH1 0x0 PUSH1 0x40 MLOAD DUP1 DUP4 SUB DUP2 PUSH1 0x0 DUP8 DUP1 EXTCODESIZE ISZERO DUP1 ISZERO PUSH2 0x1159 JUMPI PUSH1 0x0 DUP1 REVERT JUMPDEST POP GAS CALL ISZERO DUP1 ISZERO PUSH2 0x116D JUMPI RETURNDATASIZE PUSH1 0x0 DUP1 RETURNDATACOPY RETURNDATASIZE PUSH1 0x0 REVERT JUMPDEST POP POP POP POP PUSH1 0xA PUSH1 0x0 CALLER PUSH20 0xFFFFFFFFFFFFFFFFFFFFFFFFFFFFFFFFFFFFFFFF AND PUSH20 0xFFFFFFFFFFFFFFFFFFFFFFFFFFFFFFFFFFFFFFFF AND DUP2 MSTORE PUSH1 0x20 ADD SWAP1 DUP2 MSTORE PUSH1 0x20 ADD PUSH1 0x0 KECCAK256 DUP3 SWAP1 DUP1 PUSH1 0x1 DUP2 SLOAD ADD DUP1 DUP3 SSTORE DUP1 SWAP2 POP POP PUSH1 0x1 SWAP1 SUB SWAP1 PUSH1 0x0 MSTORE PUSH1 0x20 PUSH1 0x0 KECCAK256 ADD PUSH1 0x0 SWAP1 SWAP2 SWAP1 SWAP2 SWAP1 SWAP2 POP SSTORE PUSH1 0x1 PUSH1 0xA PUSH1 0x0 CALLER PUSH20 0xFFFFFFFFFFFFFFFFFFFFFFFFFFFFFFFFFFFFFFFF AND PUSH20 0xFFFFFFFFFFFFFFFFFFFFFFFFFFFFFFFFFFFFFFFF AND DUP2 MSTORE PUSH1 0x20 ADD SWAP1 DUP2 MSTORE PUSH1 0x20 ADD PUSH1 0x0 KECCAK256 DUP1 SLOAD SWAP1 POP PUSH2 0x1226 SWAP2 SWAP1 PUSH2 0x2582 JUMP JUMPDEST PUSH1 0xB PUSH1 0x0 CALLER PUSH20 0xFFFFFFFFFFFFFFFFFFFFFFFFFFFFFFFFFFFFFFFF AND PUSH20 0xFFFFFFFFFFFFFFFFFFFFFFFFFFFFFFFFFFFFFFFF AND DUP2 MSTORE PUSH1 0x20 ADD SWAP1 DUP2 MSTORE PUSH1 0x20 ADD PUSH1 0x0 KECCAK256 PUSH1 0x0 DUP5 DUP2 MSTORE PUSH1 0x20 ADD SWAP1 DUP2 MSTORE PUSH1 0x20 ADD PUSH1 0x0 KECCAK256 DUP2 SWAP1 SSTORE POP PUSH32 0x0 PUSH20 0xFFFFFFFFFFFFFFFFFFFFFFFFFFFFFFFFFFFFFFFF AND PUSH4 0x99FBAB88 DUP4 PUSH1 0x40 MLOAD DUP3 PUSH4 0xFFFFFFFF AND PUSH1 0xE0 SHL DUP2 MSTORE PUSH1 0x4 ADD PUSH2 0x12D3 SWAP2 SWAP1 PUSH2 0x1DE7 JUMP JUMPDEST PUSH1 0xE0 PUSH1 0x40 MLOAD DUP1 DUP4 SUB DUP2 PUSH1 0x0 DUP8 GAS CALL ISZERO DUP1 ISZERO PUSH2 0x12F2 JUMPI RETURNDATASIZE PUSH1 0x0 DUP1 RETURNDATACOPY RETURNDATASIZE PUSH1 0x0 REVERT JUMPDEST POP POP POP POP PUSH1 0x40 MLOAD RETURNDATASIZE PUSH1 0x1F NOT PUSH1 0x1F DUP3 ADD AND DUP3 ADD DUP1 PUSH1 0x40 MSTORE POP DUP2 ADD SWAP1 PUSH2 0x1316 SWAP2 SWAP1 PUSH2 0x2427 JUMP JUMPDEST PUSH1 0x0 ADD MLOAD PUSH1 0x8 PUSH1 0x0 DUP5 DUP2 MSTORE PUSH1 0x20 ADD SWAP1 DUP2 MSTORE PUSH1 0x20 ADD PUSH1 0x0 KECCAK256 PUSH1 0x0 DUP3 DUP3 SLOAD PUSH2 0x133C SWAP2 SWAP1 PUSH2 0x2759 JUMP JUMPDEST SWAP3 POP POP DUP2 SWAP1 SSTORE POP PUSH32 0x0 PUSH20 0xFFFFFFFFFFFFFFFFFFFFFFFFFFFFFFFFFFFFFFFF AND PUSH4 0x99FBAB88 DUP4 PUSH1 0x40 MLOAD DUP3 PUSH4 0xFFFFFFFF AND PUSH1 0xE0 SHL DUP2 MSTORE PUSH1 0x4 ADD PUSH2 0x139C SWAP2 SWAP1 PUSH2 0x1DE7 JUMP JUMPDEST PUSH1 0xE0 PUSH1 0x40 MLOAD DUP1 DUP4 SUB DUP2 PUSH1 0x0 DUP8 GAS CALL ISZERO DUP1 ISZERO PUSH2 0x13BB JUMPI RETURNDATASIZE PUSH1 0x0 DUP1 RETURNDATACOPY RETURNDATASIZE PUSH1 0x0 REVERT JUMPDEST POP POP POP POP PUSH1 0x40 MLOAD RETURNDATASIZE PUSH1 0x1F NOT PUSH1 0x1F DUP3 ADD AND DUP3 ADD DUP1 PUSH1 0x40 MSTORE POP DUP2 ADD SWAP1 PUSH2 0x13DF SWAP2 SWAP1 PUSH2 0x2427 JUMP JUMPDEST PUSH1 0x0 ADD MLOAD PUSH1 0x9 PUSH1 0x0 DUP3 DUP3 SLOAD PUSH2 0x13F4 SWAP2 SWAP1 PUSH2 0x2759 JUMP JUMPDEST SWAP3 POP POP DUP2 SWAP1 SSTORE POP PUSH1 0xC DUP3 SWAP1 DUP1 PUSH1 0x1 DUP2 SLOAD ADD DUP1 DUP3 SSTORE DUP1 SWAP2 POP POP PUSH1 0x1 SWAP1 SUB SWAP1 PUSH1 0x0 MSTORE PUSH1 0x20 PUSH1 0x0 KECCAK256 ADD PUSH1 0x0 SWAP1 SWAP2 SWAP1 SWAP2 SWAP1 SWAP2 POP SSTORE PUSH1 0x1 PUSH1 0xC DUP1 SLOAD SWAP1 POP PUSH2 0x1436 SWAP2 SWAP1 PUSH2 0x2582 JUMP JUMPDEST PUSH1 0xD PUSH1 0x0 DUP5 DUP2 MSTORE PUSH1 0x20 ADD SWAP1 DUP2 MSTORE PUSH1 0x20 ADD PUSH1 0x0 KECCAK256 DUP2 SWAP1 SSTORE POP POP POP JUMP JUMPDEST PUSH1 0x60 PUSH1 0xA PUSH1 0x0 CALLER PUSH20 0xFFFFFFFFFFFFFFFFFFFFFFFFFFFFFFFFFFFFFFFF AND PUSH20 0xFFFFFFFFFFFFFFFFFFFFFFFFFFFFFFFFFFFFFFFF AND DUP2 MSTORE PUSH1 0x20 ADD SWAP1 DUP2 MSTORE PUSH1 0x20 ADD PUSH1 0x0 KECCAK256 DUP1 SLOAD DUP1 PUSH1 0x20 MUL PUSH1 0x20 ADD PUSH1 0x40 MLOAD SWAP1 DUP2 ADD PUSH1 0x40 MSTORE DUP1 SWAP3 SWAP2 SWAP1 DUP2 DUP2 MSTORE PUSH1 0x20 ADD DUP3 DUP1 SLOAD DUP1 ISZERO PUSH2 0x14DC JUMPI PUSH1 0x20 MUL DUP3 ADD SWAP2 SWAP1 PUSH1 0x0 MSTORE PUSH1 0x20 PUSH1 0x0 KECCAK256 SWAP1 JUMPDEST DUP2 SLOAD DUP2 MSTORE PUSH1 0x20 ADD SWAP1 PUSH1 0x1 ADD SWAP1 DUP1 DUP4 GT PUSH2 0x14C8 JUMPI JUMPDEST POP POP POP POP POP SWAP1 POP SWAP1 JUMP JUMPDEST PUSH1 0xD PUSH1 0x20 MSTORE DUP1 PUSH1 0x0 MSTORE PUSH1 0x40 PUSH1 0x0 KECCAK256 PUSH1 0x0 SWAP2 POP SWAP1 POP SLOAD DUP2 JUMP JUMPDEST PUSH1 0x3 SLOAD DUP2 JUMP JUMPDEST PUSH1 0x0 DUP1 SLOAD SWAP1 PUSH2 0x100 EXP SWAP1 DIV PUSH20 0xFFFFFFFFFFFFFFFFFFFFFFFFFFFFFFFFFFFFFFFF AND PUSH20 0xFFFFFFFFFFFFFFFFFFFFFFFFFFFFFFFFFFFFFFFF AND CALLER PUSH20 0xFFFFFFFFFFFFFFFFFFFFFFFFFFFFFFFFFFFFFFFF AND EQ PUSH2 0x1592 JUMPI PUSH1 0x40 MLOAD PUSH32 0x8C379A000000000000000000000000000000000000000000000000000000000 DUP2 MSTORE PUSH1 0x4 ADD PUSH2 0x1589 SWAP1 PUSH2 0x2697 JUMP JUMPDEST PUSH1 0x40 MLOAD DUP1 SWAP2 SUB SWAP1 REVERT JUMPDEST TIMESTAMP PUSH1 0x2 SLOAD LT PUSH2 0x15D6 JUMPI PUSH1 0x40 MLOAD PUSH32 0x8C379A000000000000000000000000000000000000000000000000000000000 DUP2 MSTORE PUSH1 0x4 ADD PUSH2 0x15CD SWAP1 PUSH2 0x28DE JUMP JUMPDEST PUSH1 0x40 MLOAD DUP1 SWAP2 SUB SWAP1 REVERT JUMPDEST DUP1 PUSH1 0x1 DUP2 SWAP1 SSTORE POP POP JUMP JUMPDEST PUSH1 0x0 DUP1 PUSH1 0x9 SLOAD SUB PUSH2 0x15F5 JUMPI PUSH1 0x5 SLOAD SWAP1 POP PUSH2 0x1647 JUMP JUMPDEST PUSH1 0x9 SLOAD PUSH8 0xDE0B6B3A7640000 PUSH1 0x3 SLOAD PUSH2 0x160C PUSH2 0xFF0 JUMP JUMPDEST PUSH2 0x1616 SWAP2 SWAP1 PUSH2 0x2582 JUMP JUMPDEST PUSH1 0x4 SLOAD PUSH2 0x1623 SWAP2 SWAP1 PUSH2 0x2717 JUMP JUMPDEST PUSH2 0x162D SWAP2 SWAP1 PUSH2 0x2717 JUMP JUMPDEST PUSH2 0x1637 SWAP2 SWAP1 PUSH2 0x26E6 JUMP JUMPDEST PUSH1 0x5 SLOAD PUSH2 0x1644 SWAP2 SWAP1 PUSH2 0x2759 JUMP JUMPDEST SWAP1 POP JUMPDEST SWAP1 JUMP JUMPDEST PUSH32 0x0 DUP2 JUMP JUMPDEST PUSH1 0x60 PUSH1 0xC DUP1 SLOAD DUP1 PUSH1 0x20 MUL PUSH1 0x20 ADD PUSH1 0x40 MLOAD SWAP1 DUP2 ADD PUSH1 0x40 MSTORE DUP1 SWAP3 SWAP2 SWAP1 DUP2 DUP2 MSTORE PUSH1 0x20 ADD DUP3 DUP1 SLOAD DUP1 ISZERO PUSH2 0x16BC JUMPI PUSH1 0x20 MUL DUP3 ADD SWAP2 SWAP1 PUSH1 0x0 MSTORE PUSH1 0x20 PUSH1 0x0 KECCAK256 SWAP1 JUMPDEST DUP2 SLOAD DUP2 MSTORE PUSH1 0x20 ADD SWAP1 PUSH1 0x1 ADD SWAP1 DUP1 DUP4 GT PUSH2 0x16A8 JUMPI JUMPDEST POP POP POP POP POP SWAP1 POP SWAP1 JUMP JUMPDEST PUSH1 0xC DUP2 DUP2 SLOAD DUP2 LT PUSH2 0x16D6 JUMPI PUSH1 0x0 DUP1 REVERT JUMPDEST SWAP1 PUSH1 0x0 MSTORE PUSH1 0x20 PUSH1 0x0 KECCAK256 ADD PUSH1 0x0 SWAP2 POP SWAP1 POP SLOAD DUP2 JUMP JUMPDEST PUSH1 0x7 PUSH1 0x20 MSTORE DUP1 PUSH1 0x0 MSTORE PUSH1 0x40 PUSH1 0x0 KECCAK256 PUSH1 0x0 SWAP2 POP SWAP1 POP SLOAD DUP2 JUMP JUMPDEST PUSH1 0x0 PUSH1 0xB PUSH1 0x0 DUP4 PUSH20 0xFFFFFFFFFFFFFFFFFFFFFFFFFFFFFFFFFFFFFFFF AND PUSH20 0xFFFFFFFFFFFFFFFFFFFFFFFFFFFFFFFFFFFFFFFF AND DUP2 MSTORE PUSH1 0x20 ADD SWAP1 DUP2 MSTORE PUSH1 0x20 ADD PUSH1 0x0 KECCAK256 PUSH1 0x0 DUP5 DUP2 MSTORE PUSH1 0x20 ADD SWAP1 DUP2 MSTORE PUSH1 0x20 ADD PUSH1 0x0 KECCAK256 SLOAD SWAP1 POP PUSH1 0x0 PUSH1 0xA PUSH1 0x0 DUP5 PUSH20 0xFFFFFFFFFFFFFFFFFFFFFFFFFFFFFFFFFFFFFFFF AND PUSH20 0xFFFFFFFFFFFFFFFFFFFFFFFFFFFFFFFFFFFFFFFF AND DUP2 MSTORE PUSH1 0x20 ADD SWAP1 DUP2 MSTORE PUSH1 0x20 ADD PUSH1 0x0 KECCAK256 DUP1 SLOAD SWAP1 POP SWAP1 POP PUSH1 0x1 DUP2 SUB PUSH2 0x184C JUMPI PUSH1 0xA PUSH1 0x0 DUP5 PUSH20 0xFFFFFFFFFFFFFFFFFFFFFFFFFFFFFFFFFFFFFFFF AND PUSH20 0xFFFFFFFFFFFFFFFFFFFFFFFFFFFFFFFFFFFFFFFF AND DUP2 MSTORE PUSH1 0x20 ADD SWAP1 DUP2 MSTORE PUSH1 0x20 ADD PUSH1 0x0 KECCAK256 PUSH1 0x0 PUSH2 0x17F1 SWAP2 SWAP1 PUSH2 0x1BF7 JUMP JUMPDEST PUSH1 0x0 PUSH1 0xB PUSH1 0x0 DUP6 PUSH20 0xFFFFFFFFFFFFFFFFFFFFFFFFFFFFFFFFFFFFFFFF AND PUSH20 0xFFFFFFFFFFFFFFFFFFFFFFFFFFFFFFFFFFFFFFFF AND DUP2 MSTORE PUSH1 0x20 ADD SWAP1 DUP2 MSTORE PUSH1 0x20 ADD PUSH1 0x0 KECCAK256 PUSH1 0x0 DUP7 DUP2 MSTORE PUSH1 0x20 ADD SWAP1 DUP2 MSTORE PUSH1 0x20 ADD PUSH1 0x0 KECCAK256 DUP2 SWAP1 SSTORE POP PUSH2 0x1A91 JUMP JUMPDEST PUSH1 0x0 PUSH1 0xA PUSH1 0x0 DUP6 PUSH20 0xFFFFFFFFFFFFFFFFFFFFFFFFFFFFFFFFFFFFFFFF AND PUSH20 0xFFFFFFFFFFFFFFFFFFFFFFFFFFFFFFFFFFFFFFFF AND DUP2 MSTORE PUSH1 0x20 ADD SWAP1 DUP2 MSTORE PUSH1 0x20 ADD PUSH1 0x0 KECCAK256 PUSH1 0x1 DUP4 PUSH2 0x189A SWAP2 SWAP1 PUSH2 0x2582 JUMP JUMPDEST DUP2 SLOAD DUP2 LT PUSH2 0x18AB JUMPI PUSH2 0x18AA PUSH2 0x28FE JUMP JUMPDEST JUMPDEST SWAP1 PUSH1 0x0 MSTORE PUSH1 0x20 PUSH1 0x0 KECCAK256 ADD SLOAD SWAP1 POP PUSH1 0xA PUSH1 0x0 DUP6 PUSH20 0xFFFFFFFFFFFFFFFFFFFFFFFFFFFFFFFFFFFFFFFF AND PUSH20 0xFFFFFFFFFFFFFFFFFFFFFFFFFFFFFFFFFFFFFFFF AND DUP2 MSTORE PUSH1 0x20 ADD SWAP1 DUP2 MSTORE PUSH1 0x20 ADD PUSH1 0x0 KECCAK256 PUSH1 0x1 DUP4 PUSH2 0x1904 SWAP2 SWAP1 PUSH2 0x2582 JUMP JUMPDEST DUP2 SLOAD DUP2 LT PUSH2 0x1915 JUMPI PUSH2 0x1914 PUSH2 0x28FE JUMP JUMPDEST JUMPDEST SWAP1 PUSH1 0x0 MSTORE PUSH1 0x20 PUSH1 0x0 KECCAK256 ADD SLOAD PUSH1 0xA PUSH1 0x0 DUP7 PUSH20 0xFFFFFFFFFFFFFFFFFFFFFFFFFFFFFFFFFFFFFFFF AND PUSH20 0xFFFFFFFFFFFFFFFFFFFFFFFFFFFFFFFFFFFFFFFF AND DUP2 MSTORE PUSH1 0x20 ADD SWAP1 DUP2 MSTORE PUSH1 0x20 ADD PUSH1 0x0 KECCAK256 DUP5 DUP2 SLOAD DUP2 LT PUSH2 0x1971 JUMPI PUSH2 0x1970 PUSH2 0x28FE JUMP JUMPDEST JUMPDEST SWAP1 PUSH1 0x0 MSTORE PUSH1 0x20 PUSH1 0x0 KECCAK256 ADD DUP2 SWAP1 SSTORE POP PUSH1 0xA PUSH1 0x0 DUP6 PUSH20 0xFFFFFFFFFFFFFFFFFFFFFFFFFFFFFFFFFFFFFFFF AND PUSH20 0xFFFFFFFFFFFFFFFFFFFFFFFFFFFFFFFFFFFFFFFF AND DUP2 MSTORE PUSH1 0x20 ADD SWAP1 DUP2 MSTORE PUSH1 0x20 ADD PUSH1 0x0 KECCAK256 DUP1 SLOAD DUP1 PUSH2 0x19CE JUMPI PUSH2 0x19CD PUSH2 0x292D JUMP JUMPDEST JUMPDEST PUSH1 0x1 SWAP1 SUB DUP2 DUP2 SWAP1 PUSH1 0x0 MSTORE PUSH1 0x20 PUSH1 0x0 KECCAK256 ADD PUSH1 0x0 SWAP1 SSTORE SWAP1 SSTORE DUP3 PUSH1 0xB PUSH1 0x0 DUP7 PUSH20 0xFFFFFFFFFFFFFFFFFFFFFFFFFFFFFFFFFFFFFFFF AND PUSH20 0xFFFFFFFFFFFFFFFFFFFFFFFFFFFFFFFFFFFFFFFF AND DUP2 MSTORE PUSH1 0x20 ADD SWAP1 DUP2 MSTORE PUSH1 0x20 ADD PUSH1 0x0 KECCAK256 PUSH1 0x0 DUP4 DUP2 MSTORE PUSH1 0x20 ADD SWAP1 DUP2 MSTORE PUSH1 0x20 ADD PUSH1 0x0 KECCAK256 DUP2 SWAP1 SSTORE POP PUSH1 0x0 PUSH1 0xB PUSH1 0x0 DUP7 PUSH20 0xFFFFFFFFFFFFFFFFFFFFFFFFFFFFFFFFFFFFFFFF AND PUSH20 0xFFFFFFFFFFFFFFFFFFFFFFFFFFFFFFFFFFFFFFFF AND DUP2 MSTORE PUSH1 0x20 ADD SWAP1 DUP2 MSTORE PUSH1 0x20 ADD PUSH1 0x0 KECCAK256 PUSH1 0x0 DUP8 DUP2 MSTORE PUSH1 0x20 ADD SWAP1 DUP2 MSTORE PUSH1 0x20 ADD PUSH1 0x0 KECCAK256 DUP2 SWAP1 SSTORE POP POP JUMPDEST POP POP POP POP JUMP JUMPDEST PUSH1 0x0 PUSH1 0xD PUSH1 0x0 DUP4 DUP2 MSTORE PUSH1 0x20 ADD SWAP1 DUP2 MSTORE PUSH1 0x20 ADD PUSH1 0x0 KECCAK256 SLOAD SWAP1 POP PUSH1 0x0 PUSH1 0xC DUP1 SLOAD SWAP1 POP SWAP1 POP PUSH1 0x1 DUP2 SUB PUSH2 0x1B02 JUMPI PUSH1 0xC PUSH1 0x0 DUP2 SLOAD DUP2 LT PUSH2 0x1AD6 JUMPI PUSH2 0x1AD5 PUSH2 0x28FE JUMP JUMPDEST JUMPDEST SWAP1 PUSH1 0x0 MSTORE PUSH1 0x20 PUSH1 0x0 KECCAK256 ADD PUSH1 0x0 SWAP1 SSTORE PUSH1 0x0 PUSH1 0xD PUSH1 0x0 DUP6 DUP2 MSTORE PUSH1 0x20 ADD SWAP1 DUP2 MSTORE PUSH1 0x20 ADD PUSH1 0x0 KECCAK256 DUP2 SWAP1 SSTORE POP PUSH2 0x1BD9 JUMP JUMPDEST PUSH1 0x0 PUSH1 0xC PUSH1 0x1 DUP4 PUSH2 0x1B13 SWAP2 SWAP1 PUSH2 0x2582 JUMP JUMPDEST DUP2 SLOAD DUP2 LT PUSH2 0x1B24 JUMPI PUSH2 0x1B23 PUSH2 0x28FE JUMP JUMPDEST JUMPDEST SWAP1 PUSH1 0x0 MSTORE PUSH1 0x20 PUSH1 0x0 KECCAK256 ADD SLOAD SWAP1 POP PUSH1 0xC PUSH1 0x1 DUP4 PUSH2 0x1B40 SWAP2 SWAP1 PUSH2 0x2582 JUMP JUMPDEST DUP2 SLOAD DUP2 LT PUSH2 0x1B51 JUMPI PUSH2 0x1B50 PUSH2 0x28FE JUMP JUMPDEST JUMPDEST SWAP1 PUSH1 0x0 MSTORE PUSH1 0x20 PUSH1 0x0 KECCAK256 ADD SLOAD PUSH1 0xC DUP5 DUP2 SLOAD DUP2 LT PUSH2 0x1B70 JUMPI PUSH2 0x1B6F PUSH2 0x28FE JUMP JUMPDEST JUMPDEST SWAP1 PUSH1 0x0 MSTORE PUSH1 0x20 PUSH1 0x0 KECCAK256 ADD DUP2 SWAP1 SSTORE POP PUSH1 0xC DUP1 SLOAD DUP1 PUSH2 0x1B90 JUMPI PUSH2 0x1B8F PUSH2 0x292D JUMP JUMPDEST JUMPDEST PUSH1 0x1 SWAP1 SUB DUP2 DUP2 SWAP1 PUSH1 0x0 MSTORE PUSH1 0x20 PUSH1 0x0 KECCAK256 ADD PUSH1 0x0 SWAP1 SSTORE SWAP1 SSTORE DUP3 PUSH1 0xD PUSH1 0x0 DUP4 DUP2 MSTORE PUSH1 0x20 ADD SWAP1 DUP2 MSTORE PUSH1 0x20 ADD PUSH1 0x0 KECCAK256 DUP2 SWAP1 SSTORE POP PUSH1 0x0 PUSH1 0xD PUSH1 0x0 DUP7 DUP2 MSTORE PUSH1 0x20 ADD SWAP1 DUP2 MSTORE PUSH1 0x20 ADD PUSH1 0x0 KECCAK256 DUP2 SWAP1 SSTORE POP POP JUMPDEST POP POP POP JUMP JUMPDEST PUSH1 0x0 DUP2 DUP4 GT PUSH2 0x1BED JUMPI DUP3 PUSH2 0x1BEF JUMP JUMPDEST DUP2 JUMPDEST SWAP1 POP SWAP3 SWAP2 POP POP JUMP JUMPDEST POP DUP1 SLOAD PUSH1 0x0 DUP3 SSTORE SWAP1 PUSH1 0x0 MSTORE PUSH1 0x20 PUSH1 0x0 KECCAK256 SWAP1 DUP2 ADD SWAP1 PUSH2 0x1C15 SWAP2 SWAP1 PUSH2 0x1C18 JUMP JUMPDEST POP JUMP JUMPDEST JUMPDEST DUP1 DUP3 GT ISZERO PUSH2 0x1C31 JUMPI PUSH1 0x0 DUP2 PUSH1 0x0 SWAP1 SSTORE POP PUSH1 0x1 ADD PUSH2 0x1C19 JUMP JUMPDEST POP SWAP1 JUMP JUMPDEST PUSH1 0x0 PUSH1 0x40 MLOAD SWAP1 POP SWAP1 JUMP JUMPDEST PUSH1 0x0 DUP1 REVERT JUMPDEST PUSH1 0x0 DUP1 REVERT JUMPDEST PUSH1 0x0 PUSH32 0xFFFFFFFF00000000000000000000000000000000000000000000000000000000 DUP3 AND SWAP1 POP SWAP2 SWAP1 POP JUMP JUMPDEST PUSH2 0x1C7E DUP2 PUSH2 0x1C49 JUMP JUMPDEST DUP2 EQ PUSH2 0x1C89 JUMPI PUSH1 0x0 DUP1 REVERT JUMPDEST POP JUMP JUMPDEST PUSH1 0x0 DUP2 CALLDATALOAD SWAP1 POP PUSH2 0x1C9B DUP2 PUSH2 0x1C75 JUMP JUMPDEST SWAP3 SWAP2 POP POP JUMP JUMPDEST PUSH1 0x0 PUSH1 0x20 DUP3 DUP5 SUB SLT ISZERO PUSH2 0x1CB7 JUMPI PUSH2 0x1CB6 PUSH2 0x1C3F JUMP JUMPDEST JUMPDEST PUSH1 0x0 PUSH2 0x1CC5 DUP5 DUP3 DUP6 ADD PUSH2 0x1C8C JUMP JUMPDEST SWAP2 POP POP SWAP3 SWAP2 POP POP JUMP JUMPDEST PUSH1 0x0 DUP2 ISZERO ISZERO SWAP1 POP SWAP2 SWAP1 POP JUMP JUMPDEST PUSH2 0x1CE3 DUP2 PUSH2 0x1CCE JUMP JUMPDEST DUP3 MSTORE POP POP JUMP JUMPDEST PUSH1 0x0 PUSH1 0x20 DUP3 ADD SWAP1 POP PUSH2 0x1CFE PUSH1 0x0 DUP4 ADD DUP5 PUSH2 0x1CDA JUMP JUMPDEST SWAP3 SWAP2 POP POP JUMP JUMPDEST PUSH1 0x0 PUSH20 0xFFFFFFFFFFFFFFFFFFFFFFFFFFFFFFFFFFFFFFFF DUP3 AND SWAP1 POP SWAP2 SWAP1 POP JUMP JUMPDEST PUSH1 0x0 PUSH2 0x1D2F DUP3 PUSH2 0x1D04 JUMP JUMPDEST SWAP1 POP SWAP2 SWAP1 POP JUMP JUMPDEST PUSH2 0x1D3F DUP2 PUSH2 0x1D24 JUMP JUMPDEST DUP2 EQ PUSH2 0x1D4A JUMPI PUSH1 0x0 DUP1 REVERT JUMPDEST POP JUMP JUMPDEST PUSH1 0x0 DUP2 CALLDATALOAD SWAP1 POP PUSH2 0x1D5C DUP2 PUSH2 0x1D36 JUMP JUMPDEST SWAP3 SWAP2 POP POP JUMP JUMPDEST PUSH1 0x0 DUP2 SWAP1 POP SWAP2 SWAP1 POP JUMP JUMPDEST PUSH2 0x1D75 DUP2 PUSH2 0x1D62 JUMP JUMPDEST DUP2 EQ PUSH2 0x1D80 JUMPI PUSH1 0x0 DUP1 REVERT JUMPDEST POP JUMP JUMPDEST PUSH1 0x0 DUP2 CALLDATALOAD SWAP1 POP PUSH2 0x1D92 DUP2 PUSH2 0x1D6C JUMP JUMPDEST SWAP3 SWAP2 POP POP JUMP JUMPDEST PUSH1 0x0 DUP1 PUSH1 0x40 DUP4 DUP6 SUB SLT ISZERO PUSH2 0x1DAF JUMPI PUSH2 0x1DAE PUSH2 0x1C3F JUMP JUMPDEST JUMPDEST PUSH1 0x0 PUSH2 0x1DBD DUP6 DUP3 DUP7 ADD PUSH2 0x1D4D JUMP JUMPDEST SWAP3 POP POP PUSH1 0x20 PUSH2 0x1DCE DUP6 DUP3 DUP7 ADD PUSH2 0x1D83 JUMP JUMPDEST SWAP2 POP POP SWAP3 POP SWAP3 SWAP1 POP JUMP JUMPDEST PUSH2 0x1DE1 DUP2 PUSH2 0x1D62 JUMP JUMPDEST DUP3 MSTORE POP POP JUMP JUMPDEST PUSH1 0x0 PUSH1 0x20 DUP3 ADD SWAP1 POP PUSH2 0x1DFC PUSH1 0x0 DUP4 ADD DUP5 PUSH2 0x1DD8 JUMP JUMPDEST SWAP3 SWAP2 POP POP JUMP JUMPDEST PUSH1 0x0 DUP2 SWAP1 POP SWAP2 SWAP1 POP JUMP JUMPDEST PUSH1 0x0 PUSH2 0x1E27 PUSH2 0x1E22 PUSH2 0x1E1D DUP5 PUSH2 0x1D04 JUMP JUMPDEST PUSH2 0x1E02 JUMP JUMPDEST PUSH2 0x1D04 JUMP JUMPDEST SWAP1 POP SWAP2 SWAP1 POP JUMP JUMPDEST PUSH1 0x0 PUSH2 0x1E39 DUP3 PUSH2 0x1E0C JUMP JUMPDEST SWAP1 POP SWAP2 SWAP1 POP JUMP JUMPDEST PUSH1 0x0 PUSH2 0x1E4B DUP3 PUSH2 0x1E2E JUMP JUMPDEST SWAP1 POP SWAP2 SWAP1 POP JUMP JUMPDEST PUSH2 0x1E5B DUP2 PUSH2 0x1E40 JUMP JUMPDEST DUP3 MSTORE POP POP JUMP JUMPDEST PUSH1 0x0 PUSH1 0x20 DUP3 ADD SWAP1 POP PUSH2 0x1E76 PUSH1 0x0 DUP4 ADD DUP5 PUSH2 0x1E52 JUMP JUMPDEST SWAP3 SWAP2 POP POP JUMP JUMPDEST PUSH1 0x0 DUP1 REVERT JUMPDEST PUSH1 0x0 DUP1 REVERT JUMPDEST PUSH1 0x0 DUP1 REVERT JUMPDEST PUSH1 0x0 DUP1 DUP4 PUSH1 0x1F DUP5 ADD SLT PUSH2 0x1EA1 JUMPI PUSH2 0x1EA0 PUSH2 0x1E7C JUMP JUMPDEST JUMPDEST DUP3 CALLDATALOAD SWAP1 POP PUSH8 0xFFFFFFFFFFFFFFFF DUP2 GT ISZERO PUSH2 0x1EBE JUMPI PUSH2 0x1EBD PUSH2 0x1E81 JUMP JUMPDEST JUMPDEST PUSH1 0x20 DUP4 ADD SWAP2 POP DUP4 PUSH1 0x1 DUP3 MUL DUP4 ADD GT ISZERO PUSH2 0x1EDA JUMPI PUSH2 0x1ED9 PUSH2 0x1E86 JUMP JUMPDEST JUMPDEST SWAP3 POP SWAP3 SWAP1 POP JUMP JUMPDEST PUSH1 0x0 DUP1 PUSH1 0x0 DUP1 PUSH1 0x0 PUSH1 0x80 DUP7 DUP9 SUB SLT ISZERO PUSH2 0x1EFD JUMPI PUSH2 0x1EFC PUSH2 0x1C3F JUMP JUMPDEST JUMPDEST PUSH1 0x0 PUSH2 0x1F0B DUP9 DUP3 DUP10 ADD PUSH2 0x1D4D JUMP JUMPDEST SWAP6 POP POP PUSH1 0x20 PUSH2 0x1F1C DUP9 DUP3 DUP10 ADD PUSH2 0x1D4D JUMP JUMPDEST SWAP5 POP POP PUSH1 0x40 PUSH2 0x1F2D DUP9 DUP3 DUP10 ADD PUSH2 0x1D83 JUMP JUMPDEST SWAP4 POP POP PUSH1 0x60 DUP7 ADD CALLDATALOAD PUSH8 0xFFFFFFFFFFFFFFFF DUP2 GT ISZERO PUSH2 0x1F4E JUMPI PUSH2 0x1F4D PUSH2 0x1C44 JUMP JUMPDEST JUMPDEST PUSH2 0x1F5A DUP9 DUP3 DUP10 ADD PUSH2 0x1E8B JUMP JUMPDEST SWAP3 POP SWAP3 POP POP SWAP3 SWAP6 POP SWAP3 SWAP6 SWAP1 SWAP4 POP JUMP JUMPDEST PUSH2 0x1F72 DUP2 PUSH2 0x1C49 JUMP JUMPDEST DUP3 MSTORE POP POP JUMP JUMPDEST PUSH1 0x0 PUSH1 0x20 DUP3 ADD SWAP1 POP PUSH2 0x1F8D PUSH1 0x0 DUP4 ADD DUP5 PUSH2 0x1F69 JUMP JUMPDEST SWAP3 SWAP2 POP POP JUMP JUMPDEST PUSH1 0x0 PUSH1 0x20 DUP3 DUP5 SUB SLT ISZERO PUSH2 0x1FA9 JUMPI PUSH2 0x1FA8 PUSH2 0x1C3F JUMP JUMPDEST JUMPDEST PUSH1 0x0 PUSH2 0x1FB7 DUP5 DUP3 DUP6 ADD PUSH2 0x1D83 JUMP JUMPDEST SWAP2 POP POP SWAP3 SWAP2 POP POP JUMP JUMPDEST PUSH1 0x0 DUP1 REVERT JUMPDEST PUSH1 0x0 PUSH1 0x1F NOT PUSH1 0x1F DUP4 ADD AND SWAP1 POP SWAP2 SWAP1 POP JUMP JUMPDEST PUSH32 0x4E487B7100000000000000000000000000000000000000000000000000000000 PUSH1 0x0 MSTORE PUSH1 0x41 PUSH1 0x4 MSTORE PUSH1 0x24 PUSH1 0x0 REVERT JUMPDEST PUSH2 0x200E DUP3 PUSH2 0x1FC5 JUMP JUMPDEST DUP2 ADD DUP2 DUP2 LT PUSH8 0xFFFFFFFFFFFFFFFF DUP3 GT OR ISZERO PUSH2 0x202D JUMPI PUSH2 0x202C PUSH2 0x1FD6 JUMP JUMPDEST JUMPDEST DUP1 PUSH1 0x40 MSTORE POP POP POP JUMP JUMPDEST PUSH1 0x0 PUSH2 0x2040 PUSH2 0x1C35 JUMP JUMPDEST SWAP1 POP PUSH2 0x204C DUP3 DUP3 PUSH2 0x2005 JUMP JUMPDEST SWAP2 SWAP1 POP JUMP JUMPDEST PUSH1 0x0 PUSH8 0xFFFFFFFFFFFFFFFF DUP3 GT ISZERO PUSH2 0x206C JUMPI PUSH2 0x206B PUSH2 0x1FD6 JUMP JUMPDEST JUMPDEST PUSH2 0x2075 DUP3 PUSH2 0x1FC5 JUMP JUMPDEST SWAP1 POP PUSH1 0x20 DUP2 ADD SWAP1 POP SWAP2 SWAP1 POP JUMP JUMPDEST DUP3 DUP2 DUP4 CALLDATACOPY PUSH1 0x0 DUP4 DUP4 ADD MSTORE POP POP POP JUMP JUMPDEST PUSH1 0x0 PUSH2 0x20A4 PUSH2 0x209F DUP5 PUSH2 0x2051 JUMP JUMPDEST PUSH2 0x2036 JUMP JUMPDEST SWAP1 POP DUP3 DUP2 MSTORE PUSH1 0x20 DUP2 ADD DUP5 DUP5 DUP5 ADD GT ISZERO PUSH2 0x20C0 JUMPI PUSH2 0x20BF PUSH2 0x1FC0 JUMP JUMPDEST JUMPDEST PUSH2 0x20CB DUP5 DUP3 DUP6 PUSH2 0x2082 JUMP JUMPDEST POP SWAP4 SWAP3 POP POP POP JUMP JUMPDEST PUSH1 0x0 DUP3 PUSH1 0x1F DUP4 ADD SLT PUSH2 0x20E8 JUMPI PUSH2 0x20E7 PUSH2 0x1E7C JUMP JUMPDEST JUMPDEST DUP2 CALLDATALOAD PUSH2 0x20F8 DUP5 DUP3 PUSH1 0x20 DUP7 ADD PUSH2 0x2091 JUMP JUMPDEST SWAP2 POP POP SWAP3 SWAP2 POP POP JUMP JUMPDEST PUSH1 0x0 DUP1 PUSH1 0x40 DUP4 DUP6 SUB SLT ISZERO PUSH2 0x2118 JUMPI PUSH2 0x2117 PUSH2 0x1C3F JUMP JUMPDEST JUMPDEST PUSH1 0x0 DUP4 ADD CALLDATALOAD PUSH8 0xFFFFFFFFFFFFFFFF DUP2 GT ISZERO PUSH2 0x2136 JUMPI PUSH2 0x2135 PUSH2 0x1C44 JUMP JUMPDEST JUMPDEST PUSH2 0x2142 DUP6 DUP3 DUP7 ADD PUSH2 0x20D3 JUMP JUMPDEST SWAP3 POP POP PUSH1 0x20 PUSH2 0x2153 DUP6 DUP3 DUP7 ADD PUSH2 0x1D83 JUMP JUMPDEST SWAP2 POP POP SWAP3 POP SWAP3 SWAP1 POP JUMP JUMPDEST PUSH1 0x0 DUP2 MLOAD SWAP1 POP SWAP2 SWAP1 POP JUMP JUMPDEST PUSH1 0x0 DUP3 DUP3 MSTORE PUSH1 0x20 DUP3 ADD SWAP1 POP SWAP3 SWAP2 POP POP JUMP JUMPDEST PUSH1 0x0 JUMPDEST DUP4 DUP2 LT ISZERO PUSH2 0x2197 JUMPI DUP1 DUP3 ADD MLOAD DUP2 DUP5 ADD MSTORE PUSH1 0x20 DUP2 ADD SWAP1 POP PUSH2 0x217C JUMP JUMPDEST PUSH1 0x0 DUP5 DUP5 ADD MSTORE POP POP POP POP JUMP JUMPDEST PUSH1 0x0 PUSH2 0x21AE DUP3 PUSH2 0x215D JUMP JUMPDEST PUSH2 0x21B8 DUP2 DUP6 PUSH2 0x2168 JUMP JUMPDEST SWAP4 POP PUSH2 0x21C8 DUP2 DUP6 PUSH1 0x20 DUP7 ADD PUSH2 0x2179 JUMP JUMPDEST PUSH2 0x21D1 DUP2 PUSH2 0x1FC5 JUMP JUMPDEST DUP5 ADD SWAP2 POP POP SWAP3 SWAP2 POP POP JUMP JUMPDEST PUSH1 0x0 PUSH1 0x20 DUP3 ADD SWAP1 POP DUP2 DUP2 SUB PUSH1 0x0 DUP4 ADD MSTORE PUSH2 0x21F6 DUP2 DUP5 PUSH2 0x21A3 JUMP JUMPDEST SWAP1 POP SWAP3 SWAP2 POP POP JUMP JUMPDEST PUSH2 0x2207 DUP2 PUSH2 0x1D24 JUMP JUMPDEST DUP3 MSTORE POP POP JUMP JUMPDEST PUSH1 0x0 PUSH1 0x20 DUP3 ADD SWAP1 POP PUSH2 0x2222 PUSH1 0x0 DUP4 ADD DUP5 PUSH2 0x21FE JUMP JUMPDEST SWAP3 SWAP2 POP POP JUMP JUMPDEST PUSH1 0x0 DUP2 MLOAD SWAP1 POP SWAP2 SWAP1 POP JUMP JUMPDEST PUSH1 0x0 DUP3 DUP3 MSTORE PUSH1 0x20 DUP3 ADD SWAP1 POP SWAP3 SWAP2 POP POP JUMP JUMPDEST PUSH1 0x0 DUP2 SWAP1 POP PUSH1 0x20 DUP3 ADD SWAP1 POP SWAP2 SWAP1 POP JUMP JUMPDEST PUSH2 0x225D DUP2 PUSH2 0x1D62 JUMP JUMPDEST DUP3 MSTORE POP POP JUMP JUMPDEST PUSH1 0x0 PUSH2 0x226F DUP4 DUP4 PUSH2 0x2254 JUMP JUMPDEST PUSH1 0x20 DUP4 ADD SWAP1 POP SWAP3 SWAP2 POP POP JUMP JUMPDEST PUSH1 0x0 PUSH1 0x20 DUP3 ADD SWAP1 POP SWAP2 SWAP1 POP JUMP JUMPDEST PUSH1 0x0 PUSH2 0x2293 DUP3 PUSH2 0x2228 JUMP JUMPDEST PUSH2 0x229D DUP2 DUP6 PUSH2 0x2233 JUMP JUMPDEST SWAP4 POP PUSH2 0x22A8 DUP4 PUSH2 0x2244 JUMP JUMPDEST DUP1 PUSH1 0x0 JUMPDEST DUP4 DUP2 LT ISZERO PUSH2 0x22D9 JUMPI DUP2 MLOAD PUSH2 0x22C0 DUP9 DUP3 PUSH2 0x2263 JUMP JUMPDEST SWAP8 POP PUSH2 0x22CB DUP4 PUSH2 0x227B JUMP JUMPDEST SWAP3 POP POP PUSH1 0x1 DUP2 ADD SWAP1 POP PUSH2 0x22AC JUMP JUMPDEST POP DUP6 SWAP4 POP POP POP POP SWAP3 SWAP2 POP POP JUMP JUMPDEST PUSH1 0x0 PUSH1 0x20 DUP3 ADD SWAP1 POP DUP2 DUP2 SUB PUSH1 0x0 DUP4 ADD MSTORE PUSH2 0x2300 DUP2 DUP5 PUSH2 0x2288 JUMP JUMPDEST SWAP1 POP SWAP3 SWAP2 POP POP JUMP JUMPDEST PUSH1 0x0 PUSH2 0x2313 DUP3 PUSH2 0x1E2E JUMP JUMPDEST SWAP1 POP SWAP2 SWAP1 POP JUMP JUMPDEST PUSH2 0x2323 DUP2 PUSH2 0x2308 JUMP JUMPDEST DUP3 MSTORE POP POP JUMP JUMPDEST PUSH1 0x0 PUSH1 0x20 DUP3 ADD SWAP1 POP PUSH2 0x233E PUSH1 0x0 DUP4 ADD DUP5 PUSH2 0x231A JUMP JUMPDEST SWAP3 SWAP2 POP POP JUMP JUMPDEST PUSH1 0x0 DUP1 REVERT JUMPDEST PUSH1 0x0 DUP2 MLOAD SWAP1 POP PUSH2 0x2358 DUP2 PUSH2 0x1D6C JUMP JUMPDEST SWAP3 SWAP2 POP POP JUMP JUMPDEST PUSH1 0x0 DUP2 MLOAD SWAP1 POP PUSH2 0x236D DUP2 PUSH2 0x1D36 JUMP JUMPDEST SWAP3 SWAP2 POP POP JUMP JUMPDEST PUSH1 0x0 PUSH1 0xE0 DUP3 DUP5 SUB SLT ISZERO PUSH2 0x2389 JUMPI PUSH2 0x2388 PUSH2 0x2344 JUMP JUMPDEST JUMPDEST PUSH2 0x2393 PUSH1 0xE0 PUSH2 0x2036 JUMP JUMPDEST SWAP1 POP PUSH1 0x0 PUSH2 0x23A3 DUP5 DUP3 DUP6 ADD PUSH2 0x2349 JUMP JUMPDEST PUSH1 0x0 DUP4 ADD MSTORE POP PUSH1 0x20 PUSH2 0x23B7 DUP5 DUP3 DUP6 ADD PUSH2 0x235E JUMP JUMPDEST PUSH1 0x20 DUP4 ADD MSTORE POP PUSH1 0x40 PUSH2 0x23CB DUP5 DUP3 DUP6 ADD PUSH2 0x235E JUMP JUMPDEST PUSH1 0x40 DUP4 ADD MSTORE POP PUSH1 0x60 PUSH2 0x23DF DUP5 DUP3 DUP6 ADD PUSH2 0x235E JUMP JUMPDEST PUSH1 0x60 DUP4 ADD MSTORE POP PUSH1 0x80 PUSH2 0x23F3 DUP5 DUP3 DUP6 ADD PUSH2 0x2349 JUMP JUMPDEST PUSH1 0x80 DUP4 ADD MSTORE POP PUSH1 0xA0 PUSH2 0x2407 DUP5 DUP3 DUP6 ADD PUSH2 0x2349 JUMP JUMPDEST PUSH1 0xA0 DUP4 ADD MSTORE POP PUSH1 0xC0 PUSH2 0x241B DUP5 DUP3 DUP6 ADD PUSH2 0x2349 JUMP JUMPDEST PUSH1 0xC0 DUP4 ADD MSTORE POP SWAP3 SWAP2 POP POP JUMP JUMPDEST PUSH1 0x0 PUSH1 0xE0 DUP3 DUP5 SUB SLT ISZERO PUSH2 0x243D JUMPI PUSH2 0x243C PUSH2 0x1C3F JUMP JUMPDEST JUMPDEST PUSH1 0x0 PUSH2 0x244B DUP5 DUP3 DUP6 ADD PUSH2 0x2373 JUMP JUMPDEST SWAP2 POP POP SWAP3 SWAP2 POP POP JUMP JUMPDEST PUSH1 0x0 PUSH1 0x40 DUP3 ADD SWAP1 POP PUSH2 0x2469 PUSH1 0x0 DUP4 ADD DUP6 PUSH2 0x21FE JUMP JUMPDEST PUSH2 0x2476 PUSH1 0x20 DUP4 ADD DUP5 PUSH2 0x1DD8 JUMP JUMPDEST SWAP4 SWAP3 POP POP POP JUMP JUMPDEST PUSH2 0x2486 DUP2 PUSH2 0x1CCE JUMP JUMPDEST DUP2 EQ PUSH2 0x2491 JUMPI PUSH1 0x0 DUP1 REVERT JUMPDEST POP JUMP JUMPDEST PUSH1 0x0 DUP2 MLOAD SWAP1 POP PUSH2 0x24A3 DUP2 PUSH2 0x247D JUMP JUMPDEST SWAP3 SWAP2 POP POP JUMP JUMPDEST PUSH1 0x0 PUSH1 0x20 DUP3 DUP5 SUB SLT ISZERO PUSH2 0x24BF JUMPI PUSH2 0x24BE PUSH2 0x1C3F JUMP JUMPDEST JUMPDEST PUSH1 0x0 PUSH2 0x24CD DUP5 DUP3 DUP6 ADD PUSH2 0x2494 JUMP JUMPDEST SWAP2 POP POP SWAP3 SWAP2 POP POP JUMP JUMPDEST PUSH1 0x0 DUP3 DUP3 MSTORE PUSH1 0x20 DUP3 ADD SWAP1 POP SWAP3 SWAP2 POP POP JUMP JUMPDEST PUSH32 0x746F6B656E4964203D2030000000000000000000000000000000000000000000 PUSH1 0x0 DUP3 ADD MSTORE POP JUMP JUMPDEST PUSH1 0x0 PUSH2 0x251D PUSH1 0xB DUP4 PUSH2 0x24D6 JUMP JUMPDEST SWAP2 POP PUSH2 0x2528 DUP3 PUSH2 0x24E7 JUMP JUMPDEST PUSH1 0x20 DUP3 ADD SWAP1 POP SWAP2 SWAP1 POP JUMP JUMPDEST PUSH1 0x0 PUSH1 0x20 DUP3 ADD SWAP1 POP DUP2 DUP2 SUB PUSH1 0x0 DUP4 ADD MSTORE PUSH2 0x254C DUP2 PUSH2 0x2510 JUMP JUMPDEST SWAP1 POP SWAP2 SWAP1 POP JUMP JUMPDEST PUSH32 0x4E487B7100000000000000000000000000000000000000000000000000000000 PUSH1 0x0 MSTORE PUSH1 0x11 PUSH1 0x4 MSTORE PUSH1 0x24 PUSH1 0x0 REVERT JUMPDEST PUSH1 0x0 PUSH2 0x258D DUP3 PUSH2 0x1D62 JUMP JUMPDEST SWAP2 POP PUSH2 0x2598 DUP4 PUSH2 0x1D62 JUMP JUMPDEST SWAP3 POP DUP3 DUP3 SUB SWAP1 POP DUP2 DUP2 GT ISZERO PUSH2 0x25B0 JUMPI PUSH2 0x25AF PUSH2 0x2553 JUMP JUMPDEST JUMPDEST SWAP3 SWAP2 POP POP JUMP JUMPDEST PUSH1 0x0 PUSH1 0x60 DUP3 ADD SWAP1 POP PUSH2 0x25CB PUSH1 0x0 DUP4 ADD DUP7 PUSH2 0x21FE JUMP JUMPDEST PUSH2 0x25D8 PUSH1 0x20 DUP4 ADD DUP6 PUSH2 0x21FE JUMP JUMPDEST PUSH2 0x25E5 PUSH1 0x40 DUP4 ADD DUP5 PUSH2 0x1DD8 JUMP JUMPDEST SWAP5 SWAP4 POP POP POP POP JUMP JUMPDEST PUSH1 0x0 DUP2 MLOAD SWAP1 POP SWAP2 SWAP1 POP JUMP JUMPDEST PUSH1 0x0 DUP2 SWAP1 POP SWAP3 SWAP2 POP POP JUMP JUMPDEST PUSH1 0x0 PUSH2 0x260E DUP3 PUSH2 0x25ED JUMP JUMPDEST PUSH2 0x2618 DUP2 DUP6 PUSH2 0x25F8 JUMP JUMPDEST SWAP4 POP PUSH2 0x2628 DUP2 DUP6 PUSH1 0x20 DUP7 ADD PUSH2 0x2179 JUMP JUMPDEST DUP1 DUP5 ADD SWAP2 POP POP SWAP3 SWAP2 POP POP JUMP JUMPDEST PUSH1 0x0 PUSH2 0x2640 DUP3 DUP5 PUSH2 0x2603 JUMP JUMPDEST SWAP2 POP DUP2 SWAP1 POP SWAP3 SWAP2 POP POP JUMP JUMPDEST PUSH32 0x6E6F74206F776E65720000000000000000000000000000000000000000000000 PUSH1 0x0 DUP3 ADD MSTORE POP JUMP JUMPDEST PUSH1 0x0 PUSH2 0x2681 PUSH1 0x9 DUP4 PUSH2 0x24D6 JUMP JUMPDEST SWAP2 POP PUSH2 0x268C DUP3 PUSH2 0x264B JUMP JUMPDEST PUSH1 0x20 DUP3 ADD SWAP1 POP SWAP2 SWAP1 POP JUMP JUMPDEST PUSH1 0x0 PUSH1 0x20 DUP3 ADD SWAP1 POP DUP2 DUP2 SUB PUSH1 0x0 DUP4 ADD MSTORE PUSH2 0x26B0 DUP2 PUSH2 0x2674 JUMP JUMPDEST SWAP1 POP SWAP2 SWAP1 POP JUMP JUMPDEST PUSH32 0x4E487B7100000000000000000000000000000000000000000000000000000000 PUSH1 0x0 MSTORE PUSH1 0x12 PUSH1 0x4 MSTORE PUSH1 0x24 PUSH1 0x0 REVERT JUMPDEST PUSH1 0x0 PUSH2 0x26F1 DUP3 PUSH2 0x1D62 JUMP JUMPDEST SWAP2 POP PUSH2 0x26FC DUP4 PUSH2 0x1D62 JUMP JUMPDEST SWAP3 POP DUP3 PUSH2 0x270C JUMPI PUSH2 0x270B PUSH2 0x26B7 JUMP JUMPDEST JUMPDEST DUP3 DUP3 DIV SWAP1 POP SWAP3 SWAP2 POP POP JUMP JUMPDEST PUSH1 0x0 PUSH2 0x2722 DUP3 PUSH2 0x1D62 JUMP JUMPDEST SWAP2 POP PUSH2 0x272D DUP4 PUSH2 0x1D62 JUMP JUMPDEST SWAP3 POP DUP3 DUP3 MUL PUSH2 0x273B DUP2 PUSH2 0x1D62 JUMP JUMPDEST SWAP2 POP DUP3 DUP3 DIV DUP5 EQ DUP4 ISZERO OR PUSH2 0x2752 JUMPI PUSH2 0x2751 PUSH2 0x2553 JUMP JUMPDEST JUMPDEST POP SWAP3 SWAP2 POP POP JUMP JUMPDEST PUSH1 0x0 PUSH2 0x2764 DUP3 PUSH2 0x1D62 JUMP JUMPDEST SWAP2 POP PUSH2 0x276F DUP4 PUSH2 0x1D62 JUMP JUMPDEST SWAP3 POP DUP3 DUP3 ADD SWAP1 POP DUP1 DUP3 GT ISZERO PUSH2 0x2787 JUMPI PUSH2 0x2786 PUSH2 0x2553 JUMP JUMPDEST JUMPDEST SWAP3 SWAP2 POP POP JUMP JUMPDEST PUSH32 0x7265776172642072617465203D20300000000000000000000000000000000000 PUSH1 0x0 DUP3 ADD MSTORE POP JUMP JUMPDEST PUSH1 0x0 PUSH2 0x27C3 PUSH1 0xF DUP4 PUSH2 0x24D6 JUMP JUMPDEST SWAP2 POP PUSH2 0x27CE DUP3 PUSH2 0x278D JUMP JUMPDEST PUSH1 0x20 DUP3 ADD SWAP1 POP SWAP2 SWAP1 POP JUMP JUMPDEST PUSH1 0x0 PUSH1 0x20 DUP3 ADD SWAP1 POP DUP2 DUP2 SUB PUSH1 0x0 DUP4 ADD MSTORE PUSH2 0x27F2 DUP2 PUSH2 0x27B6 JUMP JUMPDEST SWAP1 POP SWAP2 SWAP1 POP JUMP JUMPDEST PUSH1 0x0 PUSH1 0x20 DUP3 DUP5 SUB SLT ISZERO PUSH2 0x280F JUMPI PUSH2 0x280E PUSH2 0x1C3F JUMP JUMPDEST JUMPDEST PUSH1 0x0 PUSH2 0x281D DUP5 DUP3 DUP6 ADD PUSH2 0x2349 JUMP JUMPDEST SWAP2 POP POP SWAP3 SWAP2 POP POP JUMP JUMPDEST PUSH32 0x72657761726420616D6F756E74203E2062616C616E6365000000000000000000 PUSH1 0x0 DUP3 ADD MSTORE POP JUMP JUMPDEST PUSH1 0x0 PUSH2 0x285C PUSH1 0x17 DUP4 PUSH2 0x24D6 JUMP JUMPDEST SWAP2 POP PUSH2 0x2867 DUP3 PUSH2 0x2826 JUMP JUMPDEST PUSH1 0x20 DUP3 ADD SWAP1 POP SWAP2 SWAP1 POP JUMP JUMPDEST PUSH1 0x0 PUSH1 0x20 DUP3 ADD SWAP1 POP DUP2 DUP2 SUB PUSH1 0x0 DUP4 ADD MSTORE PUSH2 0x288B DUP2 PUSH2 0x284F JUMP JUMPDEST SWAP1 POP SWAP2 SWAP1 POP JUMP JUMPDEST PUSH32 0x726577617264206475726174696F6E206E6F742066696E697368656400000000 PUSH1 0x0 DUP3 ADD MSTORE POP JUMP JUMPDEST PUSH1 0x0 PUSH2 0x28C8 PUSH1 0x1C DUP4 PUSH2 0x24D6 JUMP JUMPDEST SWAP2 POP PUSH2 0x28D3 DUP3 PUSH2 0x2892 JUMP JUMPDEST PUSH1 0x20 DUP3 ADD SWAP1 POP SWAP2 SWAP1 POP JUMP JUMPDEST PUSH1 0x0 PUSH1 0x20 DUP3 ADD SWAP1 POP DUP2 DUP2 SUB PUSH1 0x0 DUP4 ADD MSTORE PUSH2 0x28F7 DUP2 PUSH2 0x28BB JUMP JUMPDEST SWAP1 POP SWAP2 SWAP1 POP JUMP JUMPDEST PUSH32 0x4E487B7100000000000000000000000000000000000000000000000000000000 PUSH1 0x0 MSTORE PUSH1 0x32 PUSH1 0x4 MSTORE PUSH1 0x24 PUSH1 0x0 REVERT JUMPDEST PUSH32 0x4E487B7100000000000000000000000000000000000000000000000000000000 PUSH1 0x0 MSTORE PUSH1 0x31 PUSH1 0x4 MSTORE PUSH1 0x24 PUSH1 0x0 REVERT INVALID LOG2 PUSH5 0x6970667358 0x22 SLT KECCAK256 0xE7 0x29 DUP13 SWAP13 PUSH2 0x3063 PUSH4 0x73635B91 0xE 0xB8 0xC3 0x5C 0xC8 STOP OR 0x1E ORIGIN 0xD7 SWAP3 PUSH15 0x3990ABE1E15BDAB364736F6C634300 ADDMOD SLT STOP CALLER "
				},
				"gasEstimates": {
					"creation": {
						"codeDepositCost": "2128400",
						"executionCost": "infinite",
						"totalCost": "infinite"
					},
					"external": {
						"NFTIndex(uint256)": "infinite",
						"_getABIEncodedForHarvest(string,uint256)": "infinite",
						"allNFT(uint256)": "infinite",
						"balanceOf(uint256)": "infinite",
						"duration()": "2497",
						"earned(uint256)": "infinite",
						"finishAt()": "2518",
						"getAllNFTStaking()": "infinite",
						"getOwnedStakingNFT()": "infinite",
						"getReward(uint256)": "infinite",
						"indexForOwnedStakingNFT(address,uint256)": "infinite",
						"lastTimeRewardApplicable()": "2608",
						"notifyRewardAmount(uint256)": "infinite",
						"onERC721Received(address,address,uint256,bytes)": "infinite",
						"ownedStakingNFT(address,uint256)": "infinite",
						"owner()": "2556",
						"rewardPerToken()": "infinite",
						"rewardPertokenStored()": "2497",
						"rewardRate()": "2475",
						"rewards(uint256)": "infinite",
						"rewardsToken()": "infinite",
						"setRewardsDuration(uint256)": "26898",
						"stake(uint256)": "infinite",
						"stakingNFT()": "infinite",
						"supportsInterface(bytes4)": "731",
						"totalSupply()": "2541",
						"unstake(uint256)": "infinite",
						"updateAt()": "2496",
						"userRewardPerTokenPaid(uint256)": "infinite"
					},
					"internal": {
						"_min(uint256,uint256)": "64",
						"_removeFromArray(uint256,address)": "infinite",
						"_removeNFTTokenId(uint256)": "infinite"
					}
				},
				"methodIdentifiers": {
					"NFTIndex(uint256)": "c1a489df",
					"_getABIEncodedForHarvest(string,uint256)": "2ef64fc5",
					"allNFT(uint256)": "e743752b",
					"balanceOf(uint256)": "9cc7f708",
					"duration()": "0fb5a6b4",
					"earned(uint256)": "4d6ed8c4",
					"finishAt()": "67d3b488",
					"getAllNFTStaking()": "d60d4067",
					"getOwnedStakingNFT()": "b8206e7a",
					"getReward(uint256)": "1c4b774b",
					"indexForOwnedStakingNFT(address,uint256)": "0889bdc8",
					"lastTimeRewardApplicable()": "80faa57d",
					"notifyRewardAmount(uint256)": "3c6b16ab",
					"onERC721Received(address,address,uint256,bytes)": "150b7a02",
					"ownedStakingNFT(address,uint256)": "08e73cc1",
					"owner()": "8da5cb5b",
					"rewardPerToken()": "cd3daf9d",
					"rewardPertokenStored()": "802c981d",
					"rewardRate()": "7b0a47ee",
					"rewards(uint256)": "f301af42",
					"rewardsToken()": "d1af0c7d",
					"setRewardsDuration(uint256)": "cc1a378f",
					"stake(uint256)": "a694fc3a",
					"stakingNFT()": "0ce71e32",
					"supportsInterface(bytes4)": "01ffc9a7",
					"totalSupply()": "18160ddd",
					"unstake(uint256)": "2e17de78",
					"updateAt()": "c964f585",
					"userRewardPerTokenPaid(uint256)": "6c6f858b"
				}
			},
			"storageLayout": {
				"storage": [
					{
						"astId": 308,
						"contract": "TVNProject/TVNStakingPool/TVNStakingPool.sol:TVNStakingPool",
						"label": "owner",
						"offset": 0,
						"slot": "0",
						"type": "t_address"
					},
					{
						"astId": 310,
						"contract": "TVNProject/TVNStakingPool/TVNStakingPool.sol:TVNStakingPool",
						"label": "duration",
						"offset": 0,
						"slot": "1",
						"type": "t_uint256"
					},
					{
						"astId": 312,
						"contract": "TVNProject/TVNStakingPool/TVNStakingPool.sol:TVNStakingPool",
						"label": "finishAt",
						"offset": 0,
						"slot": "2",
						"type": "t_uint256"
					},
					{
						"astId": 314,
						"contract": "TVNProject/TVNStakingPool/TVNStakingPool.sol:TVNStakingPool",
						"label": "updateAt",
						"offset": 0,
						"slot": "3",
						"type": "t_uint256"
					},
					{
						"astId": 316,
						"contract": "TVNProject/TVNStakingPool/TVNStakingPool.sol:TVNStakingPool",
						"label": "rewardRate",
						"offset": 0,
						"slot": "4",
						"type": "t_uint256"
					},
					{
						"astId": 318,
						"contract": "TVNProject/TVNStakingPool/TVNStakingPool.sol:TVNStakingPool",
						"label": "rewardPertokenStored",
						"offset": 0,
						"slot": "5",
						"type": "t_uint256"
					},
					{
						"astId": 322,
						"contract": "TVNProject/TVNStakingPool/TVNStakingPool.sol:TVNStakingPool",
						"label": "userRewardPerTokenPaid",
						"offset": 0,
						"slot": "6",
						"type": "t_mapping(t_uint256,t_uint256)"
					},
					{
						"astId": 326,
						"contract": "TVNProject/TVNStakingPool/TVNStakingPool.sol:TVNStakingPool",
						"label": "rewards",
						"offset": 0,
						"slot": "7",
						"type": "t_mapping(t_uint256,t_uint256)"
					},
					{
						"astId": 330,
						"contract": "TVNProject/TVNStakingPool/TVNStakingPool.sol:TVNStakingPool",
						"label": "balanceOf",
						"offset": 0,
						"slot": "8",
						"type": "t_mapping(t_uint256,t_uint256)"
					},
					{
						"astId": 332,
						"contract": "TVNProject/TVNStakingPool/TVNStakingPool.sol:TVNStakingPool",
						"label": "totalSupply",
						"offset": 0,
						"slot": "9",
						"type": "t_uint256"
					},
					{
						"astId": 337,
						"contract": "TVNProject/TVNStakingPool/TVNStakingPool.sol:TVNStakingPool",
						"label": "ownedStakingNFT",
						"offset": 0,
						"slot": "10",
						"type": "t_mapping(t_address,t_array(t_uint256)dyn_storage)"
					},
					{
						"astId": 343,
						"contract": "TVNProject/TVNStakingPool/TVNStakingPool.sol:TVNStakingPool",
						"label": "indexForOwnedStakingNFT",
						"offset": 0,
						"slot": "11",
						"type": "t_mapping(t_address,t_mapping(t_uint256,t_uint256))"
					},
					{
						"astId": 346,
						"contract": "TVNProject/TVNStakingPool/TVNStakingPool.sol:TVNStakingPool",
						"label": "allNFT",
						"offset": 0,
						"slot": "12",
						"type": "t_array(t_uint256)dyn_storage"
					},
					{
						"astId": 350,
						"contract": "TVNProject/TVNStakingPool/TVNStakingPool.sol:TVNStakingPool",
						"label": "NFTIndex",
						"offset": 0,
						"slot": "13",
						"type": "t_mapping(t_uint256,t_uint256)"
					}
				],
				"types": {
					"t_address": {
						"encoding": "inplace",
						"label": "address",
						"numberOfBytes": "20"
					},
					"t_array(t_uint256)dyn_storage": {
						"base": "t_uint256",
						"encoding": "dynamic_array",
						"label": "uint256[]",
						"numberOfBytes": "32"
					},
					"t_mapping(t_address,t_array(t_uint256)dyn_storage)": {
						"encoding": "mapping",
						"key": "t_address",
						"label": "mapping(address => uint256[])",
						"numberOfBytes": "32",
						"value": "t_array(t_uint256)dyn_storage"
					},
					"t_mapping(t_address,t_mapping(t_uint256,t_uint256))": {
						"encoding": "mapping",
						"key": "t_address",
						"label": "mapping(address => mapping(uint256 => uint256))",
						"numberOfBytes": "32",
						"value": "t_mapping(t_uint256,t_uint256)"
					},
					"t_mapping(t_uint256,t_uint256)": {
						"encoding": "mapping",
						"key": "t_uint256",
						"label": "mapping(uint256 => uint256)",
						"numberOfBytes": "32",
						"value": "t_uint256"
					},
					"t_uint256": {
						"encoding": "inplace",
						"label": "uint256",
						"numberOfBytes": "32"
					}
				}
			},
			"userdoc": {
				"kind": "user",
				"methods": {},
				"version": 1
			}
		}
	}
}