{
	"LmPool Ver3.0/TVNNFTPositionManager.sol": {
		"TVNNFTPositionManager": {
			"abi": [
				{
					"inputs": [
						{
							"internalType": "string",
							"name": "_name",
							"type": "string"
						},
						{
							"internalType": "string",
							"name": "_symbol",
							"type": "string"
						}
					],
					"stateMutability": "nonpayable",
					"type": "constructor"
				},
				{
					"anonymous": false,
					"inputs": [
						{
							"indexed": true,
							"internalType": "address",
							"name": "owner",
							"type": "address"
						},
						{
							"indexed": true,
							"internalType": "address",
							"name": "spender",
							"type": "address"
						},
						{
							"indexed": true,
							"internalType": "uint256",
							"name": "id",
							"type": "uint256"
						}
					],
					"name": "Approval",
					"type": "event"
				},
				{
					"anonymous": false,
					"inputs": [
						{
							"indexed": true,
							"internalType": "address",
							"name": "owner",
							"type": "address"
						},
						{
							"indexed": true,
							"internalType": "address",
							"name": "operator",
							"type": "address"
						},
						{
							"indexed": false,
							"internalType": "bool",
							"name": "approved",
							"type": "bool"
						}
					],
					"name": "ApprovalForAll",
					"type": "event"
				},
				{
					"anonymous": false,
					"inputs": [
						{
							"indexed": true,
							"internalType": "address",
							"name": "from",
							"type": "address"
						},
						{
							"indexed": true,
							"internalType": "address",
							"name": "to",
							"type": "address"
						},
						{
							"indexed": true,
							"internalType": "uint256",
							"name": "id",
							"type": "uint256"
						}
					],
					"name": "Transfer",
					"type": "event"
				},
				{
					"inputs": [
						{
							"internalType": "address",
							"name": "to",
							"type": "address"
						},
						{
							"internalType": "uint256",
							"name": "tokenId",
							"type": "uint256"
						}
					],
					"name": "approve",
					"outputs": [],
					"stateMutability": "nonpayable",
					"type": "function"
				},
				{
					"inputs": [
						{
							"internalType": "address",
							"name": "owner",
							"type": "address"
						}
					],
					"name": "balanceOf",
					"outputs": [
						{
							"internalType": "uint256",
							"name": "balance",
							"type": "uint256"
						}
					],
					"stateMutability": "view",
					"type": "function"
				},
				{
					"inputs": [
						{
							"internalType": "uint256",
							"name": "_tokenId",
							"type": "uint256"
						},
						{
							"internalType": "address",
							"name": "_from",
							"type": "address"
						}
					],
					"name": "burnPosition",
					"outputs": [],
					"stateMutability": "nonpayable",
					"type": "function"
				},
				{
					"inputs": [
						{
							"internalType": "uint256",
							"name": "tokenId",
							"type": "uint256"
						}
					],
					"name": "getApproved",
					"outputs": [
						{
							"internalType": "address",
							"name": "operator",
							"type": "address"
						}
					],
					"stateMutability": "view",
					"type": "function"
				},
				{
					"inputs": [
						{
							"internalType": "address",
							"name": "_owner",
							"type": "address"
						}
					],
					"name": "getOwnerNFT",
					"outputs": [
						{
							"internalType": "uint256[]",
							"name": "",
							"type": "uint256[]"
						}
					],
					"stateMutability": "view",
					"type": "function"
				},
				{
					"inputs": [
						{
							"internalType": "address",
							"name": "",
							"type": "address"
						},
						{
							"internalType": "uint256",
							"name": "",
							"type": "uint256"
						}
					],
					"name": "indexOfOwnerNFT",
					"outputs": [
						{
							"internalType": "uint256",
							"name": "",
							"type": "uint256"
						}
					],
					"stateMutability": "view",
					"type": "function"
				},
				{
					"inputs": [
						{
							"internalType": "address",
							"name": "",
							"type": "address"
						},
						{
							"internalType": "address",
							"name": "",
							"type": "address"
						}
					],
					"name": "isApprovalForAll",
					"outputs": [
						{
							"internalType": "bool",
							"name": "",
							"type": "bool"
						}
					],
					"stateMutability": "view",
					"type": "function"
				},
				{
					"inputs": [
						{
							"internalType": "uint256",
							"name": "_shares",
							"type": "uint256"
						},
						{
							"internalType": "address",
							"name": "_owner",
							"type": "address"
						},
						{
							"internalType": "address",
							"name": "_token0",
							"type": "address"
						},
						{
							"internalType": "address",
							"name": "_token1",
							"type": "address"
						},
						{
							"internalType": "uint256",
							"name": "_fee",
							"type": "uint256"
						},
						{
							"internalType": "uint256",
							"name": "_amount0",
							"type": "uint256"
						},
						{
							"internalType": "uint256",
							"name": "_amount1",
							"type": "uint256"
						},
						{
							"internalType": "uint160",
							"name": "_upperTick",
							"type": "uint160"
						},
						{
							"internalType": "uint160",
							"name": "_lowerTick",
							"type": "uint160"
						},
						{
							"internalType": "uint128",
							"name": "_deltaLiquidity",
							"type": "uint128"
						}
					],
					"name": "mintParams",
					"outputs": [
						{
							"components": [
								{
									"internalType": "uint256",
									"name": "shares",
									"type": "uint256"
								},
								{
									"internalType": "address",
									"name": "owner",
									"type": "address"
								},
								{
									"internalType": "address",
									"name": "token0",
									"type": "address"
								},
								{
									"internalType": "address",
									"name": "token1",
									"type": "address"
								},
								{
									"internalType": "uint256",
									"name": "fee",
									"type": "uint256"
								},
								{
									"internalType": "uint256",
									"name": "amount0",
									"type": "uint256"
								},
								{
									"internalType": "uint256",
									"name": "amount1",
									"type": "uint256"
								},
								{
									"internalType": "uint160",
									"name": "upperTick",
									"type": "uint160"
								},
								{
									"internalType": "uint160",
									"name": "lowerTick",
									"type": "uint160"
								},
								{
									"internalType": "uint128",
									"name": "deltaLiquidity",
									"type": "uint128"
								}
							],
							"internalType": "struct TVNNFTPositionManager.PositionInfo",
							"name": "",
							"type": "tuple"
						}
					],
					"stateMutability": "pure",
					"type": "function"
				},
				{
					"inputs": [
						{
							"internalType": "address",
							"name": "_to",
							"type": "address"
						},
						{
							"components": [
								{
									"internalType": "uint256",
									"name": "shares",
									"type": "uint256"
								},
								{
									"internalType": "address",
									"name": "owner",
									"type": "address"
								},
								{
									"internalType": "address",
									"name": "token0",
									"type": "address"
								},
								{
									"internalType": "address",
									"name": "token1",
									"type": "address"
								},
								{
									"internalType": "uint256",
									"name": "fee",
									"type": "uint256"
								},
								{
									"internalType": "uint256",
									"name": "amount0",
									"type": "uint256"
								},
								{
									"internalType": "uint256",
									"name": "amount1",
									"type": "uint256"
								},
								{
									"internalType": "uint160",
									"name": "upperTick",
									"type": "uint160"
								},
								{
									"internalType": "uint160",
									"name": "lowerTick",
									"type": "uint160"
								},
								{
									"internalType": "uint128",
									"name": "deltaLiquidity",
									"type": "uint128"
								}
							],
							"internalType": "struct TVNNFTPositionManager.PositionInfo",
							"name": "params",
							"type": "tuple"
						}
					],
					"name": "mintPosition",
					"outputs": [],
					"stateMutability": "nonpayable",
					"type": "function"
				},
				{
					"inputs": [
						{
							"internalType": "address",
							"name": "",
							"type": "address"
						},
						{
							"internalType": "uint256",
							"name": "",
							"type": "uint256"
						}
					],
					"name": "ownerNFT",
					"outputs": [
						{
							"internalType": "uint256",
							"name": "",
							"type": "uint256"
						}
					],
					"stateMutability": "view",
					"type": "function"
				},
				{
					"inputs": [
						{
							"internalType": "uint256",
							"name": "tokenId",
							"type": "uint256"
						}
					],
					"name": "ownerOf",
					"outputs": [
						{
							"internalType": "address",
							"name": "owner",
							"type": "address"
						}
					],
					"stateMutability": "view",
					"type": "function"
				},
				{
					"inputs": [
						{
							"internalType": "uint256",
							"name": "",
							"type": "uint256"
						}
					],
					"name": "positions",
					"outputs": [
						{
							"internalType": "uint256",
							"name": "shares",
							"type": "uint256"
						},
						{
							"internalType": "address",
							"name": "owner",
							"type": "address"
						},
						{
							"internalType": "address",
							"name": "token0",
							"type": "address"
						},
						{
							"internalType": "address",
							"name": "token1",
							"type": "address"
						},
						{
							"internalType": "uint256",
							"name": "fee",
							"type": "uint256"
						},
						{
							"internalType": "uint256",
							"name": "amount0",
							"type": "uint256"
						},
						{
							"internalType": "uint256",
							"name": "amount1",
							"type": "uint256"
						},
						{
							"internalType": "uint160",
							"name": "upperTick",
							"type": "uint160"
						},
						{
							"internalType": "uint160",
							"name": "lowerTick",
							"type": "uint160"
						},
						{
							"internalType": "uint128",
							"name": "deltaLiquidity",
							"type": "uint128"
						}
					],
					"stateMutability": "view",
					"type": "function"
				},
				{
					"inputs": [
						{
							"internalType": "address",
							"name": "from",
							"type": "address"
						},
						{
							"internalType": "address",
							"name": "to",
							"type": "address"
						},
						{
							"internalType": "uint256",
							"name": "tokenId",
							"type": "uint256"
						}
					],
					"name": "safeTransferFrom",
					"outputs": [],
					"stateMutability": "nonpayable",
					"type": "function"
				},
				{
					"inputs": [
						{
							"internalType": "address",
							"name": "from",
							"type": "address"
						},
						{
							"internalType": "address",
							"name": "to",
							"type": "address"
						},
						{
							"internalType": "uint256",
							"name": "tokenId",
							"type": "uint256"
						},
						{
							"internalType": "bytes",
							"name": "data",
							"type": "bytes"
						}
					],
					"name": "safeTransferFrom",
					"outputs": [],
					"stateMutability": "nonpayable",
					"type": "function"
				},
				{
					"inputs": [
						{
							"internalType": "address",
							"name": "operator",
							"type": "address"
						},
						{
							"internalType": "bool",
							"name": "_approved",
							"type": "bool"
						}
					],
					"name": "setApprovalForAll",
					"outputs": [],
					"stateMutability": "nonpayable",
					"type": "function"
				},
				{
					"inputs": [
						{
							"internalType": "bytes4",
							"name": "interfaceID",
							"type": "bytes4"
						}
					],
					"name": "supportsInterface",
					"outputs": [
						{
							"internalType": "bool",
							"name": "",
							"type": "bool"
						}
					],
					"stateMutability": "pure",
					"type": "function"
				},
				{
					"inputs": [],
					"name": "tokenIdNext",
					"outputs": [
						{
							"internalType": "uint256",
							"name": "",
							"type": "uint256"
						}
					],
					"stateMutability": "view",
					"type": "function"
				},
				{
					"inputs": [
						{
							"internalType": "address",
							"name": "from",
							"type": "address"
						},
						{
							"internalType": "address",
							"name": "to",
							"type": "address"
						},
						{
							"internalType": "uint256",
							"name": "tokenId",
							"type": "uint256"
						}
					],
					"name": "transferFrom",
					"outputs": [],
					"stateMutability": "nonpayable",
					"type": "function"
				},
				{
					"inputs": [
						{
							"internalType": "address",
							"name": "_from",
							"type": "address"
						},
						{
							"internalType": "address",
							"name": "_to",
							"type": "address"
						},
						{
							"internalType": "uint256",
							"name": "_tokenId",
							"type": "uint256"
						}
					],
					"name": "transferPosition",
					"outputs": [],
					"stateMutability": "nonpayable",
					"type": "function"
				}
			],
			"devdoc": {
				"kind": "dev",
				"methods": {},
				"version": 1
			},
			"evm": {
				"assembly": "    /* \"LmPool Ver3.0/TVNNFTPositionManager.sol\":115:3628  contract TVNNFTPositionManager is ERC721 {... */\n  mstore(0x40, 0x80)\n    /* \"LmPool Ver3.0/TVNNFTPositionManager.sol\":243:244  1 */\n  0x01\n    /* \"LmPool Ver3.0/TVNNFTPositionManager.sol\":214:244  uint256 public tokenIdNext = 1 */\n  0x06\n  sstore\n    /* \"LmPool Ver3.0/TVNNFTPositionManager.sol\":720:831  constructor(string memory _name, string memory _symbol) {... */\n  callvalue\n  dup1\n  iszero\n  tag_1\n  jumpi\n  0x00\n  dup1\n  revert\ntag_1:\n  pop\n  mload(0x40)\n  sub(codesize, bytecodeSize)\n  dup1\n  bytecodeSize\n  dup4\n  codecopy\n  dup2\n  dup2\n  add\n  0x40\n  mstore\n  dup2\n  add\n  swap1\n  tag_2\n  swap2\n  swap1\n  tag_3\n  jump\t// in\ntag_2:\n    /* \"LmPool Ver3.0/TVNNFTPositionManager.sol\":793:798  _name */\n  dup2\n    /* \"LmPool Ver3.0/TVNNFTPositionManager.sol\":786:790  name */\n  0x04\n    /* \"LmPool Ver3.0/TVNNFTPositionManager.sol\":786:798  name = _name */\n  swap1\n  dup2\n  tag_6\n  swap2\n  swap1\n  tag_7\n  jump\t// in\ntag_6:\n  pop\n    /* \"LmPool Ver3.0/TVNNFTPositionManager.sol\":817:824  _symbol */\n  dup1\n    /* \"LmPool Ver3.0/TVNNFTPositionManager.sol\":808:814  symbol */\n  0x05\n    /* \"LmPool Ver3.0/TVNNFTPositionManager.sol\":808:824  symbol = _symbol */\n  swap1\n  dup2\n  tag_8\n  swap2\n  swap1\n  tag_7\n  jump\t// in\ntag_8:\n  pop\n    /* \"LmPool Ver3.0/TVNNFTPositionManager.sol\":720:831  constructor(string memory _name, string memory _symbol) {... */\n  pop\n  pop\n    /* \"LmPool Ver3.0/TVNNFTPositionManager.sol\":115:3628  contract TVNNFTPositionManager is ERC721 {... */\n  jump(tag_9)\n    /* \"#utility.yul\":7:82   */\ntag_10:\n    /* \"#utility.yul\":40:46   */\n  0x00\n    /* \"#utility.yul\":73:75   */\n  0x40\n    /* \"#utility.yul\":67:76   */\n  mload\n    /* \"#utility.yul\":57:76   */\n  swap1\n  pop\n    /* \"#utility.yul\":7:82   */\n  swap1\n  jump\t// out\n    /* \"#utility.yul\":88:205   */\ntag_11:\n    /* \"#utility.yul\":197:198   */\n  0x00\n    /* \"#utility.yul\":194:195   */\n  dup1\n    /* \"#utility.yul\":187:199   */\n  revert\n    /* \"#utility.yul\":211:328   */\ntag_12:\n    /* \"#utility.yul\":320:321   */\n  0x00\n    /* \"#utility.yul\":317:318   */\n  dup1\n    /* \"#utility.yul\":310:322   */\n  revert\n    /* \"#utility.yul\":334:451   */\ntag_13:\n    /* \"#utility.yul\":443:444   */\n  0x00\n    /* \"#utility.yul\":440:441   */\n  dup1\n    /* \"#utility.yul\":433:445   */\n  revert\n    /* \"#utility.yul\":457:574   */\ntag_14:\n    /* \"#utility.yul\":566:567   */\n  0x00\n    /* \"#utility.yul\":563:564   */\n  dup1\n    /* \"#utility.yul\":556:568   */\n  revert\n    /* \"#utility.yul\":580:682   */\ntag_15:\n    /* \"#utility.yul\":621:627   */\n  0x00\n    /* \"#utility.yul\":672:674   */\n  0x1f\n    /* \"#utility.yul\":668:675   */\n  not\n    /* \"#utility.yul\":663:665   */\n  0x1f\n    /* \"#utility.yul\":656:661   */\n  dup4\n    /* \"#utility.yul\":652:666   */\n  add\n    /* \"#utility.yul\":648:676   */\n  and\n    /* \"#utility.yul\":638:676   */\n  swap1\n  pop\n    /* \"#utility.yul\":580:682   */\n  swap2\n  swap1\n  pop\n  jump\t// out\n    /* \"#utility.yul\":688:868   */\ntag_16:\n    /* \"#utility.yul\":736:813   */\n  0x4e487b7100000000000000000000000000000000000000000000000000000000\n    /* \"#utility.yul\":733:734   */\n  0x00\n    /* \"#utility.yul\":726:814   */\n  mstore\n    /* \"#utility.yul\":833:837   */\n  0x41\n    /* \"#utility.yul\":830:831   */\n  0x04\n    /* \"#utility.yul\":823:838   */\n  mstore\n    /* \"#utility.yul\":857:861   */\n  0x24\n    /* \"#utility.yul\":854:855   */\n  0x00\n    /* \"#utility.yul\":847:862   */\n  revert\n    /* \"#utility.yul\":874:1155   */\ntag_17:\n    /* \"#utility.yul\":957:984   */\n  tag_51\n    /* \"#utility.yul\":979:983   */\n  dup3\n    /* \"#utility.yul\":957:984   */\n  tag_15\n  jump\t// in\ntag_51:\n    /* \"#utility.yul\":949:955   */\n  dup2\n    /* \"#utility.yul\":945:985   */\n  add\n    /* \"#utility.yul\":1087:1093   */\n  dup2\n    /* \"#utility.yul\":1075:1085   */\n  dup2\n    /* \"#utility.yul\":1072:1094   */\n  lt\n    /* \"#utility.yul\":1051:1069   */\n  0xffffffffffffffff\n    /* \"#utility.yul\":1039:1049   */\n  dup3\n    /* \"#utility.yul\":1036:1070   */\n  gt\n    /* \"#utility.yul\":1033:1095   */\n  or\n    /* \"#utility.yul\":1030:1118   */\n  iszero\n  tag_52\n  jumpi\n    /* \"#utility.yul\":1098:1116   */\n  tag_53\n  tag_16\n  jump\t// in\ntag_53:\n    /* \"#utility.yul\":1030:1118   */\ntag_52:\n    /* \"#utility.yul\":1138:1148   */\n  dup1\n    /* \"#utility.yul\":1134:1136   */\n  0x40\n    /* \"#utility.yul\":1127:1149   */\n  mstore\n    /* \"#utility.yul\":917:1155   */\n  pop\n    /* \"#utility.yul\":874:1155   */\n  pop\n  pop\n  jump\t// out\n    /* \"#utility.yul\":1161:1290   */\ntag_18:\n    /* \"#utility.yul\":1195:1201   */\n  0x00\n    /* \"#utility.yul\":1222:1242   */\n  tag_55\n  tag_10\n  jump\t// in\ntag_55:\n    /* \"#utility.yul\":1212:1242   */\n  swap1\n  pop\n    /* \"#utility.yul\":1251:1284   */\n  tag_56\n    /* \"#utility.yul\":1279:1283   */\n  dup3\n    /* \"#utility.yul\":1271:1277   */\n  dup3\n    /* \"#utility.yul\":1251:1284   */\n  tag_17\n  jump\t// in\ntag_56:\n    /* \"#utility.yul\":1161:1290   */\n  swap2\n  swap1\n  pop\n  jump\t// out\n    /* \"#utility.yul\":1296:1604   */\ntag_19:\n    /* \"#utility.yul\":1358:1362   */\n  0x00\n    /* \"#utility.yul\":1448:1466   */\n  0xffffffffffffffff\n    /* \"#utility.yul\":1440:1446   */\n  dup3\n    /* \"#utility.yul\":1437:1467   */\n  gt\n    /* \"#utility.yul\":1434:1490   */\n  iszero\n  tag_58\n  jumpi\n    /* \"#utility.yul\":1470:1488   */\n  tag_59\n  tag_16\n  jump\t// in\ntag_59:\n    /* \"#utility.yul\":1434:1490   */\ntag_58:\n    /* \"#utility.yul\":1508:1537   */\n  tag_60\n    /* \"#utility.yul\":1530:1536   */\n  dup3\n    /* \"#utility.yul\":1508:1537   */\n  tag_15\n  jump\t// in\ntag_60:\n    /* \"#utility.yul\":1500:1537   */\n  swap1\n  pop\n    /* \"#utility.yul\":1592:1596   */\n  0x20\n    /* \"#utility.yul\":1586:1590   */\n  dup2\n    /* \"#utility.yul\":1582:1597   */\n  add\n    /* \"#utility.yul\":1574:1597   */\n  swap1\n  pop\n    /* \"#utility.yul\":1296:1604   */\n  swap2\n  swap1\n  pop\n  jump\t// out\n    /* \"#utility.yul\":1610:1856   */\ntag_20:\n    /* \"#utility.yul\":1691:1692   */\n  0x00\n    /* \"#utility.yul\":1701:1814   */\ntag_62:\n    /* \"#utility.yul\":1715:1721   */\n  dup4\n    /* \"#utility.yul\":1712:1713   */\n  dup2\n    /* \"#utility.yul\":1709:1722   */\n  lt\n    /* \"#utility.yul\":1701:1814   */\n  iszero\n  tag_64\n  jumpi\n    /* \"#utility.yul\":1800:1801   */\n  dup1\n    /* \"#utility.yul\":1795:1798   */\n  dup3\n    /* \"#utility.yul\":1791:1802   */\n  add\n    /* \"#utility.yul\":1785:1803   */\n  mload\n    /* \"#utility.yul\":1781:1782   */\n  dup2\n    /* \"#utility.yul\":1776:1779   */\n  dup5\n    /* \"#utility.yul\":1772:1783   */\n  add\n    /* \"#utility.yul\":1765:1804   */\n  mstore\n    /* \"#utility.yul\":1737:1739   */\n  0x20\n    /* \"#utility.yul\":1734:1735   */\n  dup2\n    /* \"#utility.yul\":1730:1740   */\n  add\n    /* \"#utility.yul\":1725:1740   */\n  swap1\n  pop\n    /* \"#utility.yul\":1701:1814   */\n  jump(tag_62)\ntag_64:\n    /* \"#utility.yul\":1848:1849   */\n  0x00\n    /* \"#utility.yul\":1839:1845   */\n  dup5\n    /* \"#utility.yul\":1834:1837   */\n  dup5\n    /* \"#utility.yul\":1830:1846   */\n  add\n    /* \"#utility.yul\":1823:1850   */\n  mstore\n    /* \"#utility.yul\":1672:1856   */\n  pop\n    /* \"#utility.yul\":1610:1856   */\n  pop\n  pop\n  pop\n  jump\t// out\n    /* \"#utility.yul\":1862:2296   */\ntag_21:\n    /* \"#utility.yul\":1951:1956   */\n  0x00\n    /* \"#utility.yul\":1976:2042   */\n  tag_66\n    /* \"#utility.yul\":1992:2041   */\n  tag_67\n    /* \"#utility.yul\":2034:2040   */\n  dup5\n    /* \"#utility.yul\":1992:2041   */\n  tag_19\n  jump\t// in\ntag_67:\n    /* \"#utility.yul\":1976:2042   */\n  tag_18\n  jump\t// in\ntag_66:\n    /* \"#utility.yul\":1967:2042   */\n  swap1\n  pop\n    /* \"#utility.yul\":2065:2071   */\n  dup3\n    /* \"#utility.yul\":2058:2063   */\n  dup2\n    /* \"#utility.yul\":2051:2072   */\n  mstore\n    /* \"#utility.yul\":2103:2107   */\n  0x20\n    /* \"#utility.yul\":2096:2101   */\n  dup2\n    /* \"#utility.yul\":2092:2108   */\n  add\n    /* \"#utility.yul\":2141:2144   */\n  dup5\n    /* \"#utility.yul\":2132:2138   */\n  dup5\n    /* \"#utility.yul\":2127:2130   */\n  dup5\n    /* \"#utility.yul\":2123:2139   */\n  add\n    /* \"#utility.yul\":2120:2145   */\n  gt\n    /* \"#utility.yul\":2117:2229   */\n  iszero\n  tag_68\n  jumpi\n    /* \"#utility.yul\":2148:2227   */\n  tag_69\n  tag_14\n  jump\t// in\ntag_69:\n    /* \"#utility.yul\":2117:2229   */\ntag_68:\n    /* \"#utility.yul\":2238:2290   */\n  tag_70\n    /* \"#utility.yul\":2283:2289   */\n  dup5\n    /* \"#utility.yul\":2278:2281   */\n  dup3\n    /* \"#utility.yul\":2273:2276   */\n  dup6\n    /* \"#utility.yul\":2238:2290   */\n  tag_20\n  jump\t// in\ntag_70:\n    /* \"#utility.yul\":1957:2296   */\n  pop\n    /* \"#utility.yul\":1862:2296   */\n  swap4\n  swap3\n  pop\n  pop\n  pop\n  jump\t// out\n    /* \"#utility.yul\":2316:2671   */\ntag_22:\n    /* \"#utility.yul\":2383:2388   */\n  0x00\n    /* \"#utility.yul\":2432:2435   */\n  dup3\n    /* \"#utility.yul\":2425:2429   */\n  0x1f\n    /* \"#utility.yul\":2417:2423   */\n  dup4\n    /* \"#utility.yul\":2413:2430   */\n  add\n    /* \"#utility.yul\":2409:2436   */\n  slt\n    /* \"#utility.yul\":2399:2521   */\n  tag_72\n  jumpi\n    /* \"#utility.yul\":2440:2519   */\n  tag_73\n  tag_13\n  jump\t// in\ntag_73:\n    /* \"#utility.yul\":2399:2521   */\ntag_72:\n    /* \"#utility.yul\":2550:2556   */\n  dup2\n    /* \"#utility.yul\":2544:2557   */\n  mload\n    /* \"#utility.yul\":2575:2665   */\n  tag_74\n    /* \"#utility.yul\":2661:2664   */\n  dup5\n    /* \"#utility.yul\":2653:2659   */\n  dup3\n    /* \"#utility.yul\":2646:2650   */\n  0x20\n    /* \"#utility.yul\":2638:2644   */\n  dup7\n    /* \"#utility.yul\":2634:2651   */\n  add\n    /* \"#utility.yul\":2575:2665   */\n  tag_21\n  jump\t// in\ntag_74:\n    /* \"#utility.yul\":2566:2665   */\n  swap2\n  pop\n    /* \"#utility.yul\":2389:2671   */\n  pop\n    /* \"#utility.yul\":2316:2671   */\n  swap3\n  swap2\n  pop\n  pop\n  jump\t// out\n    /* \"#utility.yul\":2677:3530   */\ntag_3:\n    /* \"#utility.yul\":2776:2782   */\n  0x00\n    /* \"#utility.yul\":2784:2790   */\n  dup1\n    /* \"#utility.yul\":2833:2835   */\n  0x40\n    /* \"#utility.yul\":2821:2830   */\n  dup4\n    /* \"#utility.yul\":2812:2819   */\n  dup6\n    /* \"#utility.yul\":2808:2831   */\n  sub\n    /* \"#utility.yul\":2804:2836   */\n  slt\n    /* \"#utility.yul\":2801:2920   */\n  iszero\n  tag_76\n  jumpi\n    /* \"#utility.yul\":2839:2918   */\n  tag_77\n  tag_11\n  jump\t// in\ntag_77:\n    /* \"#utility.yul\":2801:2920   */\ntag_76:\n    /* \"#utility.yul\":2980:2981   */\n  0x00\n    /* \"#utility.yul\":2969:2978   */\n  dup4\n    /* \"#utility.yul\":2965:2982   */\n  add\n    /* \"#utility.yul\":2959:2983   */\n  mload\n    /* \"#utility.yul\":3010:3028   */\n  0xffffffffffffffff\n    /* \"#utility.yul\":3002:3008   */\n  dup2\n    /* \"#utility.yul\":2999:3029   */\n  gt\n    /* \"#utility.yul\":2996:3113   */\n  iszero\n  tag_78\n  jumpi\n    /* \"#utility.yul\":3032:3111   */\n  tag_79\n  tag_12\n  jump\t// in\ntag_79:\n    /* \"#utility.yul\":2996:3113   */\ntag_78:\n    /* \"#utility.yul\":3137:3211   */\n  tag_80\n    /* \"#utility.yul\":3203:3210   */\n  dup6\n    /* \"#utility.yul\":3194:3200   */\n  dup3\n    /* \"#utility.yul\":3183:3192   */\n  dup7\n    /* \"#utility.yul\":3179:3201   */\n  add\n    /* \"#utility.yul\":3137:3211   */\n  tag_22\n  jump\t// in\ntag_80:\n    /* \"#utility.yul\":3127:3211   */\n  swap3\n  pop\n    /* \"#utility.yul\":2930:3221   */\n  pop\n    /* \"#utility.yul\":3281:3283   */\n  0x20\n    /* \"#utility.yul\":3270:3279   */\n  dup4\n    /* \"#utility.yul\":3266:3284   */\n  add\n    /* \"#utility.yul\":3260:3285   */\n  mload\n    /* \"#utility.yul\":3312:3330   */\n  0xffffffffffffffff\n    /* \"#utility.yul\":3304:3310   */\n  dup2\n    /* \"#utility.yul\":3301:3331   */\n  gt\n    /* \"#utility.yul\":3298:3415   */\n  iszero\n  tag_81\n  jumpi\n    /* \"#utility.yul\":3334:3413   */\n  tag_82\n  tag_12\n  jump\t// in\ntag_82:\n    /* \"#utility.yul\":3298:3415   */\ntag_81:\n    /* \"#utility.yul\":3439:3513   */\n  tag_83\n    /* \"#utility.yul\":3505:3512   */\n  dup6\n    /* \"#utility.yul\":3496:3502   */\n  dup3\n    /* \"#utility.yul\":3485:3494   */\n  dup7\n    /* \"#utility.yul\":3481:3503   */\n  add\n    /* \"#utility.yul\":3439:3513   */\n  tag_22\n  jump\t// in\ntag_83:\n    /* \"#utility.yul\":3429:3513   */\n  swap2\n  pop\n    /* \"#utility.yul\":3231:3523   */\n  pop\n    /* \"#utility.yul\":2677:3530   */\n  swap3\n  pop\n  swap3\n  swap1\n  pop\n  jump\t// out\n    /* \"#utility.yul\":3536:3635   */\ntag_23:\n    /* \"#utility.yul\":3588:3594   */\n  0x00\n    /* \"#utility.yul\":3622:3627   */\n  dup2\n    /* \"#utility.yul\":3616:3628   */\n  mload\n    /* \"#utility.yul\":3606:3628   */\n  swap1\n  pop\n    /* \"#utility.yul\":3536:3635   */\n  swap2\n  swap1\n  pop\n  jump\t// out\n    /* \"#utility.yul\":3641:3821   */\ntag_24:\n    /* \"#utility.yul\":3689:3766   */\n  0x4e487b7100000000000000000000000000000000000000000000000000000000\n    /* \"#utility.yul\":3686:3687   */\n  0x00\n    /* \"#utility.yul\":3679:3767   */\n  mstore\n    /* \"#utility.yul\":3786:3790   */\n  0x22\n    /* \"#utility.yul\":3783:3784   */\n  0x04\n    /* \"#utility.yul\":3776:3791   */\n  mstore\n    /* \"#utility.yul\":3810:3814   */\n  0x24\n    /* \"#utility.yul\":3807:3808   */\n  0x00\n    /* \"#utility.yul\":3800:3815   */\n  revert\n    /* \"#utility.yul\":3827:4147   */\ntag_25:\n    /* \"#utility.yul\":3871:3877   */\n  0x00\n    /* \"#utility.yul\":3908:3909   */\n  0x02\n    /* \"#utility.yul\":3902:3906   */\n  dup3\n    /* \"#utility.yul\":3898:3910   */\n  div\n    /* \"#utility.yul\":3888:3910   */\n  swap1\n  pop\n    /* \"#utility.yul\":3955:3956   */\n  0x01\n    /* \"#utility.yul\":3949:3953   */\n  dup3\n    /* \"#utility.yul\":3945:3957   */\n  and\n    /* \"#utility.yul\":3976:3994   */\n  dup1\n    /* \"#utility.yul\":3966:4047   */\n  tag_87\n  jumpi\n    /* \"#utility.yul\":4032:4036   */\n  0x7f\n    /* \"#utility.yul\":4024:4030   */\n  dup3\n    /* \"#utility.yul\":4020:4037   */\n  and\n    /* \"#utility.yul\":4010:4037   */\n  swap2\n  pop\n    /* \"#utility.yul\":3966:4047   */\ntag_87:\n    /* \"#utility.yul\":4094:4096   */\n  0x20\n    /* \"#utility.yul\":4086:4092   */\n  dup3\n    /* \"#utility.yul\":4083:4097   */\n  lt\n    /* \"#utility.yul\":4063:4081   */\n  dup2\n    /* \"#utility.yul\":4060:4098   */\n  sub\n    /* \"#utility.yul\":4057:4141   */\n  tag_88\n  jumpi\n    /* \"#utility.yul\":4113:4131   */\n  tag_89\n  tag_24\n  jump\t// in\ntag_89:\n    /* \"#utility.yul\":4057:4141   */\ntag_88:\n    /* \"#utility.yul\":3878:4147   */\n  pop\n    /* \"#utility.yul\":3827:4147   */\n  swap2\n  swap1\n  pop\n  jump\t// out\n    /* \"#utility.yul\":4153:4294   */\ntag_26:\n    /* \"#utility.yul\":4202:4206   */\n  0x00\n    /* \"#utility.yul\":4225:4228   */\n  dup2\n    /* \"#utility.yul\":4217:4228   */\n  swap1\n  pop\n    /* \"#utility.yul\":4248:4251   */\n  dup2\n    /* \"#utility.yul\":4245:4246   */\n  0x00\n    /* \"#utility.yul\":4238:4252   */\n  mstore\n    /* \"#utility.yul\":4282:4286   */\n  0x20\n    /* \"#utility.yul\":4279:4280   */\n  0x00\n    /* \"#utility.yul\":4269:4287   */\n  keccak256\n    /* \"#utility.yul\":4261:4287   */\n  swap1\n  pop\n    /* \"#utility.yul\":4153:4294   */\n  swap2\n  swap1\n  pop\n  jump\t// out\n    /* \"#utility.yul\":4300:4393   */\ntag_27:\n    /* \"#utility.yul\":4337:4343   */\n  0x00\n    /* \"#utility.yul\":4384:4386   */\n  0x20\n    /* \"#utility.yul\":4379:4381   */\n  0x1f\n    /* \"#utility.yul\":4372:4377   */\n  dup4\n    /* \"#utility.yul\":4368:4382   */\n  add\n    /* \"#utility.yul\":4364:4387   */\n  div\n    /* \"#utility.yul\":4354:4387   */\n  swap1\n  pop\n    /* \"#utility.yul\":4300:4393   */\n  swap2\n  swap1\n  pop\n  jump\t// out\n    /* \"#utility.yul\":4399:4506   */\ntag_28:\n    /* \"#utility.yul\":4443:4451   */\n  0x00\n    /* \"#utility.yul\":4493:4498   */\n  dup3\n    /* \"#utility.yul\":4487:4491   */\n  dup3\n    /* \"#utility.yul\":4483:4499   */\n  shl\n    /* \"#utility.yul\":4462:4499   */\n  swap1\n  pop\n    /* \"#utility.yul\":4399:4506   */\n  swap3\n  swap2\n  pop\n  pop\n  jump\t// out\n    /* \"#utility.yul\":4512:4905   */\ntag_29:\n    /* \"#utility.yul\":4581:4587   */\n  0x00\n    /* \"#utility.yul\":4631:4632   */\n  0x08\n    /* \"#utility.yul\":4619:4629   */\n  dup4\n    /* \"#utility.yul\":4615:4633   */\n  mul\n    /* \"#utility.yul\":4654:4751   */\n  tag_94\n    /* \"#utility.yul\":4684:4750   */\n  0xffffffffffffffffffffffffffffffffffffffffffffffffffffffffffffffff\n    /* \"#utility.yul\":4673:4682   */\n  dup3\n    /* \"#utility.yul\":4654:4751   */\n  tag_28\n  jump\t// in\ntag_94:\n    /* \"#utility.yul\":4772:4811   */\n  tag_95\n    /* \"#utility.yul\":4802:4810   */\n  dup7\n    /* \"#utility.yul\":4791:4800   */\n  dup4\n    /* \"#utility.yul\":4772:4811   */\n  tag_28\n  jump\t// in\ntag_95:\n    /* \"#utility.yul\":4760:4811   */\n  swap6\n  pop\n    /* \"#utility.yul\":4844:4848   */\n  dup1\n    /* \"#utility.yul\":4840:4849   */\n  not\n    /* \"#utility.yul\":4833:4838   */\n  dup5\n    /* \"#utility.yul\":4829:4850   */\n  and\n    /* \"#utility.yul\":4820:4850   */\n  swap4\n  pop\n    /* \"#utility.yul\":4893:4897   */\n  dup1\n    /* \"#utility.yul\":4883:4891   */\n  dup7\n    /* \"#utility.yul\":4879:4898   */\n  and\n    /* \"#utility.yul\":4872:4877   */\n  dup5\n    /* \"#utility.yul\":4869:4899   */\n  or\n    /* \"#utility.yul\":4859:4899   */\n  swap3\n  pop\n    /* \"#utility.yul\":4588:4905   */\n  pop\n  pop\n    /* \"#utility.yul\":4512:4905   */\n  swap4\n  swap3\n  pop\n  pop\n  pop\n  jump\t// out\n    /* \"#utility.yul\":4911:4988   */\ntag_30:\n    /* \"#utility.yul\":4948:4955   */\n  0x00\n    /* \"#utility.yul\":4977:4982   */\n  dup2\n    /* \"#utility.yul\":4966:4982   */\n  swap1\n  pop\n    /* \"#utility.yul\":4911:4988   */\n  swap2\n  swap1\n  pop\n  jump\t// out\n    /* \"#utility.yul\":4994:5054   */\ntag_31:\n    /* \"#utility.yul\":5022:5025   */\n  0x00\n    /* \"#utility.yul\":5043:5048   */\n  dup2\n    /* \"#utility.yul\":5036:5048   */\n  swap1\n  pop\n    /* \"#utility.yul\":4994:5054   */\n  swap2\n  swap1\n  pop\n  jump\t// out\n    /* \"#utility.yul\":5060:5202   */\ntag_32:\n    /* \"#utility.yul\":5110:5119   */\n  0x00\n    /* \"#utility.yul\":5143:5196   */\n  tag_99\n    /* \"#utility.yul\":5161:5195   */\n  tag_100\n    /* \"#utility.yul\":5170:5194   */\n  tag_101\n    /* \"#utility.yul\":5188:5193   */\n  dup5\n    /* \"#utility.yul\":5170:5194   */\n  tag_30\n  jump\t// in\ntag_101:\n    /* \"#utility.yul\":5161:5195   */\n  tag_31\n  jump\t// in\ntag_100:\n    /* \"#utility.yul\":5143:5196   */\n  tag_30\n  jump\t// in\ntag_99:\n    /* \"#utility.yul\":5130:5196   */\n  swap1\n  pop\n    /* \"#utility.yul\":5060:5202   */\n  swap2\n  swap1\n  pop\n  jump\t// out\n    /* \"#utility.yul\":5208:5283   */\ntag_33:\n    /* \"#utility.yul\":5251:5254   */\n  0x00\n    /* \"#utility.yul\":5272:5277   */\n  dup2\n    /* \"#utility.yul\":5265:5277   */\n  swap1\n  pop\n    /* \"#utility.yul\":5208:5283   */\n  swap2\n  swap1\n  pop\n  jump\t// out\n    /* \"#utility.yul\":5289:5558   */\ntag_34:\n    /* \"#utility.yul\":5399:5438   */\n  tag_104\n    /* \"#utility.yul\":5430:5437   */\n  dup4\n    /* \"#utility.yul\":5399:5438   */\n  tag_32\n  jump\t// in\ntag_104:\n    /* \"#utility.yul\":5460:5551   */\n  tag_105\n    /* \"#utility.yul\":5509:5550   */\n  tag_106\n    /* \"#utility.yul\":5533:5549   */\n  dup3\n    /* \"#utility.yul\":5509:5550   */\n  tag_33\n  jump\t// in\ntag_106:\n    /* \"#utility.yul\":5501:5507   */\n  dup5\n    /* \"#utility.yul\":5494:5498   */\n  dup5\n    /* \"#utility.yul\":5488:5499   */\n  sload\n    /* \"#utility.yul\":5460:5551   */\n  tag_29\n  jump\t// in\ntag_105:\n    /* \"#utility.yul\":5454:5458   */\n  dup3\n    /* \"#utility.yul\":5447:5552   */\n  sstore\n    /* \"#utility.yul\":5365:5558   */\n  pop\n    /* \"#utility.yul\":5289:5558   */\n  pop\n  pop\n  pop\n  jump\t// out\n    /* \"#utility.yul\":5564:5637   */\ntag_35:\n    /* \"#utility.yul\":5609:5612   */\n  0x00\n    /* \"#utility.yul\":5564:5637   */\n  swap1\n  jump\t// out\n    /* \"#utility.yul\":5643:5832   */\ntag_36:\n    /* \"#utility.yul\":5720:5752   */\n  tag_109\n  tag_35\n  jump\t// in\ntag_109:\n    /* \"#utility.yul\":5761:5826   */\n  tag_110\n    /* \"#utility.yul\":5819:5825   */\n  dup2\n    /* \"#utility.yul\":5811:5817   */\n  dup5\n    /* \"#utility.yul\":5805:5809   */\n  dup5\n    /* \"#utility.yul\":5761:5826   */\n  tag_34\n  jump\t// in\ntag_110:\n    /* \"#utility.yul\":5696:5832   */\n  pop\n    /* \"#utility.yul\":5643:5832   */\n  pop\n  pop\n  jump\t// out\n    /* \"#utility.yul\":5838:6024   */\ntag_37:\n    /* \"#utility.yul\":5898:6018   */\ntag_112:\n    /* \"#utility.yul\":5915:5918   */\n  dup2\n    /* \"#utility.yul\":5908:5913   */\n  dup2\n    /* \"#utility.yul\":5905:5919   */\n  lt\n    /* \"#utility.yul\":5898:6018   */\n  iszero\n  tag_114\n  jumpi\n    /* \"#utility.yul\":5969:6008   */\n  tag_115\n    /* \"#utility.yul\":6006:6007   */\n  0x00\n    /* \"#utility.yul\":5999:6004   */\n  dup3\n    /* \"#utility.yul\":5969:6008   */\n  tag_36\n  jump\t// in\ntag_115:\n    /* \"#utility.yul\":5942:5943   */\n  0x01\n    /* \"#utility.yul\":5935:5940   */\n  dup2\n    /* \"#utility.yul\":5931:5944   */\n  add\n    /* \"#utility.yul\":5922:5944   */\n  swap1\n  pop\n    /* \"#utility.yul\":5898:6018   */\n  jump(tag_112)\ntag_114:\n    /* \"#utility.yul\":5838:6024   */\n  pop\n  pop\n  jump\t// out\n    /* \"#utility.yul\":6030:6573   */\ntag_38:\n    /* \"#utility.yul\":6131:6133   */\n  0x1f\n    /* \"#utility.yul\":6126:6129   */\n  dup3\n    /* \"#utility.yul\":6123:6134   */\n  gt\n    /* \"#utility.yul\":6120:6566   */\n  iszero\n  tag_117\n  jumpi\n    /* \"#utility.yul\":6165:6203   */\n  tag_118\n    /* \"#utility.yul\":6197:6202   */\n  dup2\n    /* \"#utility.yul\":6165:6203   */\n  tag_26\n  jump\t// in\ntag_118:\n    /* \"#utility.yul\":6249:6278   */\n  tag_119\n    /* \"#utility.yul\":6267:6277   */\n  dup5\n    /* \"#utility.yul\":6249:6278   */\n  tag_27\n  jump\t// in\ntag_119:\n    /* \"#utility.yul\":6239:6247   */\n  dup2\n    /* \"#utility.yul\":6235:6279   */\n  add\n    /* \"#utility.yul\":6432:6434   */\n  0x20\n    /* \"#utility.yul\":6420:6430   */\n  dup6\n    /* \"#utility.yul\":6417:6435   */\n  lt\n    /* \"#utility.yul\":6414:6463   */\n  iszero\n  tag_120\n  jumpi\n    /* \"#utility.yul\":6453:6461   */\n  dup2\n    /* \"#utility.yul\":6438:6461   */\n  swap1\n  pop\n    /* \"#utility.yul\":6414:6463   */\ntag_120:\n    /* \"#utility.yul\":6476:6556   */\n  tag_121\n    /* \"#utility.yul\":6532:6554   */\n  tag_122\n    /* \"#utility.yul\":6550:6553   */\n  dup6\n    /* \"#utility.yul\":6532:6554   */\n  tag_27\n  jump\t// in\ntag_122:\n    /* \"#utility.yul\":6522:6530   */\n  dup4\n    /* \"#utility.yul\":6518:6555   */\n  add\n    /* \"#utility.yul\":6505:6516   */\n  dup3\n    /* \"#utility.yul\":6476:6556   */\n  tag_37\n  jump\t// in\ntag_121:\n    /* \"#utility.yul\":6135:6566   */\n  pop\n  pop\n    /* \"#utility.yul\":6120:6566   */\ntag_117:\n    /* \"#utility.yul\":6030:6573   */\n  pop\n  pop\n  pop\n  jump\t// out\n    /* \"#utility.yul\":6579:6696   */\ntag_39:\n    /* \"#utility.yul\":6633:6641   */\n  0x00\n    /* \"#utility.yul\":6683:6688   */\n  dup3\n    /* \"#utility.yul\":6677:6681   */\n  dup3\n    /* \"#utility.yul\":6673:6689   */\n  shr\n    /* \"#utility.yul\":6652:6689   */\n  swap1\n  pop\n    /* \"#utility.yul\":6579:6696   */\n  swap3\n  swap2\n  pop\n  pop\n  jump\t// out\n    /* \"#utility.yul\":6702:6871   */\ntag_40:\n    /* \"#utility.yul\":6746:6752   */\n  0x00\n    /* \"#utility.yul\":6779:6830   */\n  tag_125\n    /* \"#utility.yul\":6827:6828   */\n  0x00\n    /* \"#utility.yul\":6823:6829   */\n  not\n    /* \"#utility.yul\":6815:6820   */\n  dup5\n    /* \"#utility.yul\":6812:6813   */\n  0x08\n    /* \"#utility.yul\":6808:6821   */\n  mul\n    /* \"#utility.yul\":6779:6830   */\n  tag_39\n  jump\t// in\ntag_125:\n    /* \"#utility.yul\":6775:6831   */\n  not\n    /* \"#utility.yul\":6860:6864   */\n  dup1\n    /* \"#utility.yul\":6854:6858   */\n  dup4\n    /* \"#utility.yul\":6850:6865   */\n  and\n    /* \"#utility.yul\":6840:6865   */\n  swap2\n  pop\n    /* \"#utility.yul\":6753:6871   */\n  pop\n    /* \"#utility.yul\":6702:6871   */\n  swap3\n  swap2\n  pop\n  pop\n  jump\t// out\n    /* \"#utility.yul\":6876:7171   */\ntag_41:\n    /* \"#utility.yul\":6952:6956   */\n  0x00\n    /* \"#utility.yul\":7098:7127   */\n  tag_127\n    /* \"#utility.yul\":7123:7126   */\n  dup4\n    /* \"#utility.yul\":7117:7121   */\n  dup4\n    /* \"#utility.yul\":7098:7127   */\n  tag_40\n  jump\t// in\ntag_127:\n    /* \"#utility.yul\":7090:7127   */\n  swap2\n  pop\n    /* \"#utility.yul\":7160:7163   */\n  dup3\n    /* \"#utility.yul\":7157:7158   */\n  0x02\n    /* \"#utility.yul\":7153:7164   */\n  mul\n    /* \"#utility.yul\":7147:7151   */\n  dup3\n    /* \"#utility.yul\":7144:7165   */\n  or\n    /* \"#utility.yul\":7136:7165   */\n  swap1\n  pop\n    /* \"#utility.yul\":6876:7171   */\n  swap3\n  swap2\n  pop\n  pop\n  jump\t// out\n    /* \"#utility.yul\":7176:8571   */\ntag_7:\n    /* \"#utility.yul\":7293:7330   */\n  tag_129\n    /* \"#utility.yul\":7326:7329   */\n  dup3\n    /* \"#utility.yul\":7293:7330   */\n  tag_23\n  jump\t// in\ntag_129:\n    /* \"#utility.yul\":7395:7413   */\n  0xffffffffffffffff\n    /* \"#utility.yul\":7387:7393   */\n  dup2\n    /* \"#utility.yul\":7384:7414   */\n  gt\n    /* \"#utility.yul\":7381:7437   */\n  iszero\n  tag_130\n  jumpi\n    /* \"#utility.yul\":7417:7435   */\n  tag_131\n  tag_16\n  jump\t// in\ntag_131:\n    /* \"#utility.yul\":7381:7437   */\ntag_130:\n    /* \"#utility.yul\":7461:7499   */\n  tag_132\n    /* \"#utility.yul\":7493:7497   */\n  dup3\n    /* \"#utility.yul\":7487:7498   */\n  sload\n    /* \"#utility.yul\":7461:7499   */\n  tag_25\n  jump\t// in\ntag_132:\n    /* \"#utility.yul\":7546:7613   */\n  tag_133\n    /* \"#utility.yul\":7606:7612   */\n  dup3\n    /* \"#utility.yul\":7598:7604   */\n  dup3\n    /* \"#utility.yul\":7592:7596   */\n  dup6\n    /* \"#utility.yul\":7546:7613   */\n  tag_38\n  jump\t// in\ntag_133:\n    /* \"#utility.yul\":7640:7641   */\n  0x00\n    /* \"#utility.yul\":7664:7668   */\n  0x20\n    /* \"#utility.yul\":7651:7668   */\n  swap1\n  pop\n    /* \"#utility.yul\":7696:7698   */\n  0x1f\n    /* \"#utility.yul\":7688:7694   */\n  dup4\n    /* \"#utility.yul\":7685:7699   */\n  gt\n    /* \"#utility.yul\":7713:7714   */\n  0x01\n    /* \"#utility.yul\":7708:8326   */\n  dup2\n  eq\n  tag_135\n  jumpi\n    /* \"#utility.yul\":8370:8371   */\n  0x00\n    /* \"#utility.yul\":8387:8393   */\n  dup5\n    /* \"#utility.yul\":8384:8461   */\n  iszero\n  tag_136\n  jumpi\n    /* \"#utility.yul\":8436:8445   */\n  dup3\n    /* \"#utility.yul\":8431:8434   */\n  dup8\n    /* \"#utility.yul\":8427:8446   */\n  add\n    /* \"#utility.yul\":8421:8447   */\n  mload\n    /* \"#utility.yul\":8412:8447   */\n  swap1\n  pop\n    /* \"#utility.yul\":8384:8461   */\ntag_136:\n    /* \"#utility.yul\":8487:8554   */\n  tag_137\n    /* \"#utility.yul\":8547:8553   */\n  dup6\n    /* \"#utility.yul\":8540:8545   */\n  dup3\n    /* \"#utility.yul\":8487:8554   */\n  tag_41\n  jump\t// in\ntag_137:\n    /* \"#utility.yul\":8481:8485   */\n  dup7\n    /* \"#utility.yul\":8474:8555   */\n  sstore\n    /* \"#utility.yul\":8343:8565   */\n  pop\n    /* \"#utility.yul\":7678:8565   */\n  jump(tag_134)\n    /* \"#utility.yul\":7708:8326   */\ntag_135:\n    /* \"#utility.yul\":7760:7764   */\n  0x1f\n    /* \"#utility.yul\":7756:7765   */\n  not\n    /* \"#utility.yul\":7748:7754   */\n  dup5\n    /* \"#utility.yul\":7744:7766   */\n  and\n    /* \"#utility.yul\":7794:7831   */\n  tag_138\n    /* \"#utility.yul\":7826:7830   */\n  dup7\n    /* \"#utility.yul\":7794:7831   */\n  tag_26\n  jump\t// in\ntag_138:\n    /* \"#utility.yul\":7853:7854   */\n  0x00\n    /* \"#utility.yul\":7867:8075   */\ntag_139:\n    /* \"#utility.yul\":7881:7888   */\n  dup3\n    /* \"#utility.yul\":7878:7879   */\n  dup2\n    /* \"#utility.yul\":7875:7889   */\n  lt\n    /* \"#utility.yul\":7867:8075   */\n  iszero\n  tag_141\n  jumpi\n    /* \"#utility.yul\":7960:7969   */\n  dup5\n    /* \"#utility.yul\":7955:7958   */\n  dup10\n    /* \"#utility.yul\":7951:7970   */\n  add\n    /* \"#utility.yul\":7945:7971   */\n  mload\n    /* \"#utility.yul\":7937:7943   */\n  dup3\n    /* \"#utility.yul\":7930:7972   */\n  sstore\n    /* \"#utility.yul\":8011:8012   */\n  0x01\n    /* \"#utility.yul\":8003:8009   */\n  dup3\n    /* \"#utility.yul\":7999:8013   */\n  add\n    /* \"#utility.yul\":7989:8013   */\n  swap2\n  pop\n    /* \"#utility.yul\":8058:8060   */\n  0x20\n    /* \"#utility.yul\":8047:8056   */\n  dup6\n    /* \"#utility.yul\":8043:8061   */\n  add\n    /* \"#utility.yul\":8030:8061   */\n  swap5\n  pop\n    /* \"#utility.yul\":7904:7908   */\n  0x20\n    /* \"#utility.yul\":7901:7902   */\n  dup2\n    /* \"#utility.yul\":7897:7909   */\n  add\n    /* \"#utility.yul\":7892:7909   */\n  swap1\n  pop\n    /* \"#utility.yul\":7867:8075   */\n  jump(tag_139)\ntag_141:\n    /* \"#utility.yul\":8103:8109   */\n  dup7\n    /* \"#utility.yul\":8094:8101   */\n  dup4\n    /* \"#utility.yul\":8091:8110   */\n  lt\n    /* \"#utility.yul\":8088:8267   */\n  iszero\n  tag_142\n  jumpi\n    /* \"#utility.yul\":8161:8170   */\n  dup5\n    /* \"#utility.yul\":8156:8159   */\n  dup10\n    /* \"#utility.yul\":8152:8171   */\n  add\n    /* \"#utility.yul\":8146:8172   */\n  mload\n    /* \"#utility.yul\":8204:8252   */\n  tag_143\n    /* \"#utility.yul\":8246:8250   */\n  0x1f\n    /* \"#utility.yul\":8238:8244   */\n  dup10\n    /* \"#utility.yul\":8234:8251   */\n  and\n    /* \"#utility.yul\":8223:8232   */\n  dup3\n    /* \"#utility.yul\":8204:8252   */\n  tag_40\n  jump\t// in\ntag_143:\n    /* \"#utility.yul\":8196:8202   */\n  dup4\n    /* \"#utility.yul\":8189:8253   */\n  sstore\n    /* \"#utility.yul\":8111:8267   */\n  pop\n    /* \"#utility.yul\":8088:8267   */\ntag_142:\n    /* \"#utility.yul\":8313:8314   */\n  0x01\n    /* \"#utility.yul\":8309:8310   */\n  0x02\n    /* \"#utility.yul\":8301:8307   */\n  dup9\n    /* \"#utility.yul\":8297:8311   */\n  mul\n    /* \"#utility.yul\":8293:8315   */\n  add\n    /* \"#utility.yul\":8287:8291   */\n  dup9\n    /* \"#utility.yul\":8280:8316   */\n  sstore\n    /* \"#utility.yul\":7715:8326   */\n  pop\n  pop\n  pop\n    /* \"#utility.yul\":7678:8565   */\ntag_134:\n  pop\n    /* \"#utility.yul\":7268:8571   */\n  pop\n  pop\n  pop\n    /* \"#utility.yul\":7176:8571   */\n  pop\n  pop\n  jump\t// out\n    /* \"LmPool Ver3.0/TVNNFTPositionManager.sol\":115:3628  contract TVNNFTPositionManager is ERC721 {... */\ntag_9:\n  dataSize(sub_0)\n  dup1\n  dataOffset(sub_0)\n  0x00\n  codecopy\n  0x00\n  return\nstop\n\nsub_0: assembly {\n        /* \"LmPool Ver3.0/TVNNFTPositionManager.sol\":115:3628  contract TVNNFTPositionManager is ERC721 {... */\n      mstore(0x40, 0x80)\n      callvalue\n      dup1\n      iszero\n      tag_1\n      jumpi\n      0x00\n      dup1\n      revert\n    tag_1:\n      pop\n      jumpi(tag_2, lt(calldatasize, 0x04))\n      shr(0xe0, calldataload(0x00))\n      dup1\n      0x7fcda073\n      gt\n      tag_22\n      jumpi\n      dup1\n      0xd942dc94\n      gt\n      tag_23\n      jumpi\n      dup1\n      0xd942dc94\n      eq\n      tag_17\n      jumpi\n      dup1\n      0xdeeb79a3\n      eq\n      tag_18\n      jumpi\n      dup1\n      0xebd1d359\n      eq\n      tag_19\n      jumpi\n      dup1\n      0xec828722\n      eq\n      tag_20\n      jumpi\n      dup1\n      0xf94be2cb\n      eq\n      tag_21\n      jumpi\n      jump(tag_2)\n    tag_23:\n      dup1\n      0x7fcda073\n      eq\n      tag_12\n      jumpi\n      dup1\n      0x8bbf58b3\n      eq\n      tag_13\n      jumpi\n      dup1\n      0x99fbab88\n      eq\n      tag_14\n      jumpi\n      dup1\n      0xa22cb465\n      eq\n      tag_15\n      jumpi\n      dup1\n      0xb88d4fde\n      eq\n      tag_16\n      jumpi\n      jump(tag_2)\n    tag_22:\n      dup1\n      0x26908fa1\n      gt\n      tag_24\n      jumpi\n      dup1\n      0x26908fa1\n      eq\n      tag_7\n      jumpi\n      dup1\n      0x389c89b3\n      eq\n      tag_8\n      jumpi\n      dup1\n      0x42842e0e\n      eq\n      tag_9\n      jumpi\n      dup1\n      0x6352211e\n      eq\n      tag_10\n      jumpi\n      dup1\n      0x70a08231\n      eq\n      tag_11\n      jumpi\n      jump(tag_2)\n    tag_24:\n      dup1\n      0x01ffc9a7\n      eq\n      tag_3\n      jumpi\n      dup1\n      0x081812fc\n      eq\n      tag_4\n      jumpi\n      dup1\n      0x095ea7b3\n      eq\n      tag_5\n      jumpi\n      dup1\n      0x23b872dd\n      eq\n      tag_6\n      jumpi\n    tag_2:\n      0x00\n      dup1\n      revert\n        /* \"LmPool Ver3.0/ERC721.sol\":857:1093  function supportsInterface(bytes4 interfaceID)... */\n    tag_3:\n      tag_25\n      0x04\n      dup1\n      calldatasize\n      sub\n      dup2\n      add\n      swap1\n      tag_26\n      swap2\n      swap1\n      tag_27\n      jump\t// in\n    tag_26:\n      tag_28\n      jump\t// in\n    tag_25:\n      mload(0x40)\n      tag_29\n      swap2\n      swap1\n      tag_30\n      jump\t// in\n    tag_29:\n      mload(0x40)\n      dup1\n      swap2\n      sub\n      swap1\n      return\n        /* \"LmPool Ver3.0/ERC721.sol\":1987:2209  function getApproved(uint256 tokenId)... */\n    tag_4:\n      tag_31\n      0x04\n      dup1\n      calldatasize\n      sub\n      dup2\n      add\n      swap1\n      tag_32\n      swap2\n      swap1\n      tag_33\n      jump\t// in\n    tag_32:\n      tag_34\n      jump\t// in\n    tag_31:\n      mload(0x40)\n      tag_35\n      swap2\n      swap1\n      tag_36\n      jump\t// in\n    tag_35:\n      mload(0x40)\n      dup1\n      swap2\n      sub\n      swap1\n      return\n        /* \"LmPool Ver3.0/ERC721.sol\":1669:1981  function approve(address to, uint256 tokenId) external {... */\n    tag_5:\n      tag_37\n      0x04\n      dup1\n      calldatasize\n      sub\n      dup2\n      add\n      swap1\n      tag_38\n      swap2\n      swap1\n      tag_39\n      jump\t// in\n    tag_38:\n      tag_40\n      jump\t// in\n    tag_37:\n      stop\n        /* \"LmPool Ver3.0/ERC721.sol\":2493:3000  function transferFrom(... */\n    tag_6:\n      tag_41\n      0x04\n      dup1\n      calldatasize\n      sub\n      dup2\n      add\n      swap1\n      tag_42\n      swap2\n      swap1\n      tag_43\n      jump\t// in\n    tag_42:\n      tag_44\n      jump\t// in\n    tag_41:\n      stop\n        /* \"LmPool Ver3.0/TVNNFTPositionManager.sol\":2581:2889  function transferPosition(... */\n    tag_7:\n      tag_45\n      0x04\n      dup1\n      calldatasize\n      sub\n      dup2\n      add\n      swap1\n      tag_46\n      swap2\n      swap1\n      tag_43\n      jump\t// in\n    tag_46:\n      tag_47\n      jump\t// in\n    tag_45:\n      stop\n        /* \"LmPool Ver3.0/TVNNFTPositionManager.sol\":1587:2333  function mintPosition(address _to, PositionInfo calldata params) external {... */\n    tag_8:\n      tag_48\n      0x04\n      dup1\n      calldatasize\n      sub\n      dup2\n      add\n      swap1\n      tag_49\n      swap2\n      swap1\n      tag_50\n      jump\t// in\n    tag_49:\n      tag_51\n      jump\t// in\n    tag_48:\n      stop\n        /* \"LmPool Ver3.0/ERC721.sol\":3006:3500  function safeTransferFrom(... */\n    tag_9:\n      tag_52\n      0x04\n      dup1\n      calldatasize\n      sub\n      dup2\n      add\n      swap1\n      tag_53\n      swap2\n      swap1\n      tag_43\n      jump\t// in\n    tag_53:\n      tag_54\n      jump\t// in\n    tag_52:\n      stop\n        /* \"LmPool Ver3.0/ERC721.sol\":1282:1458  function ownerOf(uint256 tokenId) external view returns (address owner) {... */\n    tag_10:\n      tag_55\n      0x04\n      dup1\n      calldatasize\n      sub\n      dup2\n      add\n      swap1\n      tag_56\n      swap2\n      swap1\n      tag_33\n      jump\t// in\n    tag_56:\n      tag_57\n      jump\t// in\n    tag_55:\n      mload(0x40)\n      tag_58\n      swap2\n      swap1\n      tag_36\n      jump\t// in\n    tag_58:\n      mload(0x40)\n      dup1\n      swap2\n      sub\n      swap1\n      return\n        /* \"LmPool Ver3.0/ERC721.sol\":1099:1276  function balanceOf(address owner) external view returns (uint256 balance) {... */\n    tag_11:\n      tag_59\n      0x04\n      dup1\n      calldatasize\n      sub\n      dup2\n      add\n      swap1\n      tag_60\n      swap2\n      swap1\n      tag_61\n      jump\t// in\n    tag_60:\n      tag_62\n      jump\t// in\n    tag_59:\n      mload(0x40)\n      tag_63\n      swap2\n      swap1\n      tag_64\n      jump\t// in\n    tag_63:\n      mload(0x40)\n      dup1\n      swap2\n      sub\n      swap1\n      return\n        /* \"LmPool Ver3.0/TVNNFTPositionManager.sol\":643:713  mapping(address => mapping(uint256 => uint256)) public indexOfOwnerNFT */\n    tag_12:\n      tag_65\n      0x04\n      dup1\n      calldatasize\n      sub\n      dup2\n      add\n      swap1\n      tag_66\n      swap2\n      swap1\n      tag_39\n      jump\t// in\n    tag_66:\n      tag_67\n      jump\t// in\n    tag_65:\n      mload(0x40)\n      tag_68\n      swap2\n      swap1\n      tag_64\n      jump\t// in\n    tag_68:\n      mload(0x40)\n      dup1\n      swap2\n      sub\n      swap1\n      return\n        /* \"LmPool Ver3.0/TVNNFTPositionManager.sol\":214:244  uint256 public tokenIdNext = 1 */\n    tag_13:\n      tag_69\n      tag_70\n      jump\t// in\n    tag_69:\n      mload(0x40)\n      tag_71\n      swap2\n      swap1\n      tag_64\n      jump\t// in\n    tag_71:\n      mload(0x40)\n      dup1\n      swap2\n      sub\n      swap1\n      return\n        /* \"LmPool Ver3.0/TVNNFTPositionManager.sol\":536:585  mapping(uint256 => PositionInfo) public positions */\n    tag_14:\n      tag_72\n      0x04\n      dup1\n      calldatasize\n      sub\n      dup2\n      add\n      swap1\n      tag_73\n      swap2\n      swap1\n      tag_33\n      jump\t// in\n    tag_73:\n      tag_74\n      jump\t// in\n    tag_72:\n      mload(0x40)\n      tag_75\n      swap11\n      swap10\n      swap9\n      swap8\n      swap7\n      swap6\n      swap5\n      swap4\n      swap3\n      swap2\n      swap1\n      tag_76\n      jump\t// in\n    tag_75:\n      mload(0x40)\n      dup1\n      swap2\n      sub\n      swap1\n      return\n        /* \"LmPool Ver3.0/ERC721.sol\":1464:1663  function setApprovalForAll(address operator, bool _approved) external {... */\n    tag_15:\n      tag_77\n      0x04\n      dup1\n      calldatasize\n      sub\n      dup2\n      add\n      swap1\n      tag_78\n      swap2\n      swap1\n      tag_79\n      jump\t// in\n    tag_78:\n      tag_80\n      jump\t// in\n    tag_77:\n      stop\n        /* \"LmPool Ver3.0/ERC721.sol\":3506:4031  function safeTransferFrom(... */\n    tag_16:\n      tag_81\n      0x04\n      dup1\n      calldatasize\n      sub\n      dup2\n      add\n      swap1\n      tag_82\n      swap2\n      swap1\n      tag_83\n      jump\t// in\n    tag_82:\n      tag_84\n      jump\t// in\n    tag_81:\n      stop\n        /* \"LmPool Ver3.0/TVNNFTPositionManager.sol\":3482:3626  function getOwnerNFT(address _owner)... */\n    tag_17:\n      tag_85\n      0x04\n      dup1\n      calldatasize\n      sub\n      dup2\n      add\n      swap1\n      tag_86\n      swap2\n      swap1\n      tag_61\n      jump\t// in\n    tag_86:\n      tag_87\n      jump\t// in\n    tag_85:\n      mload(0x40)\n      tag_88\n      swap2\n      swap1\n      tag_89\n      jump\t// in\n    tag_88:\n      mload(0x40)\n      dup1\n      swap2\n      sub\n      swap1\n      return\n        /* \"LmPool Ver3.0/TVNNFTPositionManager.sol\":592:637  mapping(address => uint256[]) public ownerNFT */\n    tag_18:\n      tag_90\n      0x04\n      dup1\n      calldatasize\n      sub\n      dup2\n      add\n      swap1\n      tag_91\n      swap2\n      swap1\n      tag_39\n      jump\t// in\n    tag_91:\n      tag_92\n      jump\t// in\n    tag_90:\n      mload(0x40)\n      tag_93\n      swap2\n      swap1\n      tag_64\n      jump\t// in\n    tag_93:\n      mload(0x40)\n      dup1\n      swap2\n      sub\n      swap1\n      return\n        /* \"LmPool Ver3.0/ERC721.sol\":782:850  mapping(address => mapping(address => bool)) public isApprovalForAll */\n    tag_19:\n      tag_94\n      0x04\n      dup1\n      calldatasize\n      sub\n      dup2\n      add\n      swap1\n      tag_95\n      swap2\n      swap1\n      tag_96\n      jump\t// in\n    tag_95:\n      tag_97\n      jump\t// in\n    tag_94:\n      mload(0x40)\n      tag_98\n      swap2\n      swap1\n      tag_30\n      jump\t// in\n    tag_98:\n      mload(0x40)\n      dup1\n      swap2\n      sub\n      swap1\n      return\n        /* \"LmPool Ver3.0/TVNNFTPositionManager.sol\":2339:2575  function burnPosition(uint256 _tokenId, address _from) external {... */\n    tag_20:\n      tag_99\n      0x04\n      dup1\n      calldatasize\n      sub\n      dup2\n      add\n      swap1\n      tag_100\n      swap2\n      swap1\n      tag_101\n      jump\t// in\n    tag_100:\n      tag_102\n      jump\t// in\n    tag_99:\n      stop\n        /* \"LmPool Ver3.0/TVNNFTPositionManager.sol\":837:1581  function mintParams(... */\n    tag_21:\n      tag_103\n      0x04\n      dup1\n      calldatasize\n      sub\n      dup2\n      add\n      swap1\n      tag_104\n      swap2\n      swap1\n      tag_105\n      jump\t// in\n    tag_104:\n      tag_106\n      jump\t// in\n    tag_103:\n      mload(0x40)\n      tag_107\n      swap2\n      swap1\n      tag_108\n      jump\t// in\n    tag_107:\n      mload(0x40)\n      dup1\n      swap2\n      sub\n      swap1\n      return\n        /* \"LmPool Ver3.0/ERC721.sol\":857:1093  function supportsInterface(bytes4 interfaceID)... */\n    tag_28:\n        /* \"LmPool Ver3.0/ERC721.sol\":951:955  bool */\n      0x00\n        /* \"LmPool Ver3.0/ERC721.sol\":1005:1030  type(IERC721).interfaceId */\n      0x80ac58cd00000000000000000000000000000000000000000000000000000000\n        /* \"LmPool Ver3.0/ERC721.sol\":990:1030  interfaceID == type(IERC721).interfaceId */\n      not(0xffffffffffffffffffffffffffffffffffffffffffffffffffffffff)\n      and\n        /* \"LmPool Ver3.0/ERC721.sol\":990:1001  interfaceID */\n      dup3\n        /* \"LmPool Ver3.0/ERC721.sol\":990:1030  interfaceID == type(IERC721).interfaceId */\n      not(0xffffffffffffffffffffffffffffffffffffffffffffffffffffffff)\n      and\n      eq\n        /* \"LmPool Ver3.0/ERC721.sol\":990:1086  interfaceID == type(IERC721).interfaceId ||... */\n      dup1\n      tag_110\n      jumpi\n      pop\n        /* \"LmPool Ver3.0/ERC721.sol\":1061:1086  type(IERC165).interfaceId */\n      0x01ffc9a700000000000000000000000000000000000000000000000000000000\n        /* \"LmPool Ver3.0/ERC721.sol\":1046:1086  interfaceID == type(IERC165).interfaceId */\n      not(0xffffffffffffffffffffffffffffffffffffffffffffffffffffffff)\n      and\n        /* \"LmPool Ver3.0/ERC721.sol\":1046:1057  interfaceID */\n      dup3\n        /* \"LmPool Ver3.0/ERC721.sol\":1046:1086  interfaceID == type(IERC165).interfaceId */\n      not(0xffffffffffffffffffffffffffffffffffffffffffffffffffffffff)\n      and\n      eq\n        /* \"LmPool Ver3.0/ERC721.sol\":990:1086  interfaceID == type(IERC721).interfaceId ||... */\n    tag_110:\n        /* \"LmPool Ver3.0/ERC721.sol\":971:1086  return... */\n      swap1\n      pop\n        /* \"LmPool Ver3.0/ERC721.sol\":857:1093  function supportsInterface(bytes4 interfaceID)... */\n      swap2\n      swap1\n      pop\n      jump\t// out\n        /* \"LmPool Ver3.0/ERC721.sol\":1987:2209  function getApproved(uint256 tokenId)... */\n    tag_34:\n        /* \"LmPool Ver3.0/ERC721.sol\":2072:2088  address operator */\n      0x00\n        /* \"LmPool Ver3.0/ERC721.sol\":2141:2142  0 */\n      dup1\n        /* \"LmPool Ver3.0/ERC721.sol\":2112:2143  _ownerOf[tokenId] != address(0) */\n      0xffffffffffffffffffffffffffffffffffffffff\n      and\n        /* \"LmPool Ver3.0/ERC721.sol\":2112:2120  _ownerOf */\n      0x00\n        /* \"LmPool Ver3.0/ERC721.sol\":2112:2129  _ownerOf[tokenId] */\n      dup1\n        /* \"LmPool Ver3.0/ERC721.sol\":2121:2128  tokenId */\n      dup5\n        /* \"LmPool Ver3.0/ERC721.sol\":2112:2129  _ownerOf[tokenId] */\n      dup2\n      mstore\n      0x20\n      add\n      swap1\n      dup2\n      mstore\n      0x20\n      add\n      0x00\n      keccak256\n      0x00\n      swap1\n      sload\n      swap1\n      0x0100\n      exp\n      swap1\n      div\n      0xffffffffffffffffffffffffffffffffffffffff\n      and\n        /* \"LmPool Ver3.0/ERC721.sol\":2112:2143  _ownerOf[tokenId] != address(0) */\n      0xffffffffffffffffffffffffffffffffffffffff\n      and\n      sub\n        /* \"LmPool Ver3.0/ERC721.sol\":2104:2166  require(_ownerOf[tokenId] != address(0), \"token does't exits\") */\n      tag_112\n      jumpi\n      mload(0x40)\n      0x08c379a000000000000000000000000000000000000000000000000000000000\n      dup2\n      mstore\n      0x04\n      add\n      tag_113\n      swap1\n      tag_114\n      jump\t// in\n    tag_113:\n      mload(0x40)\n      dup1\n      swap2\n      sub\n      swap1\n      revert\n    tag_112:\n        /* \"LmPool Ver3.0/ERC721.sol\":2183:2193  _approvals */\n      0x02\n        /* \"LmPool Ver3.0/ERC721.sol\":2183:2202  _approvals[tokenId] */\n      0x00\n        /* \"LmPool Ver3.0/ERC721.sol\":2194:2201  tokenId */\n      dup4\n        /* \"LmPool Ver3.0/ERC721.sol\":2183:2202  _approvals[tokenId] */\n      dup2\n      mstore\n      0x20\n      add\n      swap1\n      dup2\n      mstore\n      0x20\n      add\n      0x00\n      keccak256\n      0x00\n      swap1\n      sload\n      swap1\n      0x0100\n      exp\n      swap1\n      div\n      0xffffffffffffffffffffffffffffffffffffffff\n      and\n        /* \"LmPool Ver3.0/ERC721.sol\":2176:2202  return _approvals[tokenId] */\n      swap1\n      pop\n        /* \"LmPool Ver3.0/ERC721.sol\":1987:2209  function getApproved(uint256 tokenId)... */\n      swap2\n      swap1\n      pop\n      jump\t// out\n        /* \"LmPool Ver3.0/ERC721.sol\":1669:1981  function approve(address to, uint256 tokenId) external {... */\n    tag_40:\n        /* \"LmPool Ver3.0/ERC721.sol\":1734:1747  address owner */\n      0x00\n        /* \"LmPool Ver3.0/ERC721.sol\":1750:1758  _ownerOf */\n      dup1\n        /* \"LmPool Ver3.0/ERC721.sol\":1750:1767  _ownerOf[tokenId] */\n      0x00\n        /* \"LmPool Ver3.0/ERC721.sol\":1759:1766  tokenId */\n      dup4\n        /* \"LmPool Ver3.0/ERC721.sol\":1750:1767  _ownerOf[tokenId] */\n      dup2\n      mstore\n      0x20\n      add\n      swap1\n      dup2\n      mstore\n      0x20\n      add\n      0x00\n      keccak256\n      0x00\n      swap1\n      sload\n      swap1\n      0x0100\n      exp\n      swap1\n      div\n      0xffffffffffffffffffffffffffffffffffffffff\n      and\n        /* \"LmPool Ver3.0/ERC721.sol\":1734:1767  address owner = _ownerOf[tokenId] */\n      swap1\n      pop\n        /* \"LmPool Ver3.0/ERC721.sol\":1812:1817  owner */\n      dup1\n        /* \"LmPool Ver3.0/ERC721.sol\":1798:1817  msg.sender == owner */\n      0xffffffffffffffffffffffffffffffffffffffff\n      and\n        /* \"LmPool Ver3.0/ERC721.sol\":1798:1808  msg.sender */\n      caller\n        /* \"LmPool Ver3.0/ERC721.sol\":1798:1817  msg.sender == owner */\n      0xffffffffffffffffffffffffffffffffffffffff\n      and\n      eq\n        /* \"LmPool Ver3.0/ERC721.sol\":1798:1856  msg.sender == owner || isApprovalForAll[owner][msg.sender] */\n      dup1\n      tag_116\n      jumpi\n      pop\n        /* \"LmPool Ver3.0/ERC721.sol\":1821:1837  isApprovalForAll */\n      0x03\n        /* \"LmPool Ver3.0/ERC721.sol\":1821:1844  isApprovalForAll[owner] */\n      0x00\n        /* \"LmPool Ver3.0/ERC721.sol\":1838:1843  owner */\n      dup3\n        /* \"LmPool Ver3.0/ERC721.sol\":1821:1844  isApprovalForAll[owner] */\n      0xffffffffffffffffffffffffffffffffffffffff\n      and\n      0xffffffffffffffffffffffffffffffffffffffff\n      and\n      dup2\n      mstore\n      0x20\n      add\n      swap1\n      dup2\n      mstore\n      0x20\n      add\n      0x00\n      keccak256\n        /* \"LmPool Ver3.0/ERC721.sol\":1821:1856  isApprovalForAll[owner][msg.sender] */\n      0x00\n        /* \"LmPool Ver3.0/ERC721.sol\":1845:1855  msg.sender */\n      caller\n        /* \"LmPool Ver3.0/ERC721.sol\":1821:1856  isApprovalForAll[owner][msg.sender] */\n      0xffffffffffffffffffffffffffffffffffffffff\n      and\n      0xffffffffffffffffffffffffffffffffffffffff\n      and\n      dup2\n      mstore\n      0x20\n      add\n      swap1\n      dup2\n      mstore\n      0x20\n      add\n      0x00\n      keccak256\n      0x00\n      swap1\n      sload\n      swap1\n      0x0100\n      exp\n      swap1\n      div\n      0xff\n      and\n        /* \"LmPool Ver3.0/ERC721.sol\":1798:1856  msg.sender == owner || isApprovalForAll[owner][msg.sender] */\n    tag_116:\n        /* \"LmPool Ver3.0/ERC721.sol\":1777:1896  require(... */\n      tag_117\n      jumpi\n      mload(0x40)\n      0x08c379a000000000000000000000000000000000000000000000000000000000\n      dup2\n      mstore\n      0x04\n      add\n      tag_118\n      swap1\n      tag_119\n      jump\t// in\n    tag_118:\n      mload(0x40)\n      dup1\n      swap2\n      sub\n      swap1\n      revert\n    tag_117:\n        /* \"LmPool Ver3.0/ERC721.sol\":1928:1930  to */\n      dup3\n        /* \"LmPool Ver3.0/ERC721.sol\":1906:1916  _approvals */\n      0x02\n        /* \"LmPool Ver3.0/ERC721.sol\":1906:1925  _approvals[tokenId] */\n      0x00\n        /* \"LmPool Ver3.0/ERC721.sol\":1917:1924  tokenId */\n      dup5\n        /* \"LmPool Ver3.0/ERC721.sol\":1906:1925  _approvals[tokenId] */\n      dup2\n      mstore\n      0x20\n      add\n      swap1\n      dup2\n      mstore\n      0x20\n      add\n      0x00\n      keccak256\n      0x00\n        /* \"LmPool Ver3.0/ERC721.sol\":1906:1930  _approvals[tokenId] = to */\n      0x0100\n      exp\n      dup2\n      sload\n      dup2\n      0xffffffffffffffffffffffffffffffffffffffff\n      mul\n      not\n      and\n      swap1\n      dup4\n      0xffffffffffffffffffffffffffffffffffffffff\n      and\n      mul\n      or\n      swap1\n      sstore\n      pop\n        /* \"LmPool Ver3.0/ERC721.sol\":1966:1973  tokenId */\n      dup2\n        /* \"LmPool Ver3.0/ERC721.sol\":1962:1964  to */\n      dup4\n        /* \"LmPool Ver3.0/ERC721.sol\":1946:1974  Approval(owner, to, tokenId) */\n      0xffffffffffffffffffffffffffffffffffffffff\n      and\n        /* \"LmPool Ver3.0/ERC721.sol\":1955:1960  owner */\n      dup3\n        /* \"LmPool Ver3.0/ERC721.sol\":1946:1974  Approval(owner, to, tokenId) */\n      0xffffffffffffffffffffffffffffffffffffffff\n      and\n      0x8c5be1e5ebec7d5bd14f71427d1e84f3dd0314c0f7b2291e5b200ac8c7c3b925\n      mload(0x40)\n      mload(0x40)\n      dup1\n      swap2\n      sub\n      swap1\n      log4\n        /* \"LmPool Ver3.0/ERC721.sol\":1724:1981  {... */\n      pop\n        /* \"LmPool Ver3.0/ERC721.sol\":1669:1981  function approve(address to, uint256 tokenId) external {... */\n      pop\n      pop\n      jump\t// out\n        /* \"LmPool Ver3.0/ERC721.sol\":2493:3000  function transferFrom(... */\n    tag_44:\n        /* \"LmPool Ver3.0/ERC721.sol\":2621:2629  _ownerOf */\n      0x00\n        /* \"LmPool Ver3.0/ERC721.sol\":2621:2638  _ownerOf[tokenId] */\n      dup1\n        /* \"LmPool Ver3.0/ERC721.sol\":2630:2637  tokenId */\n      dup3\n        /* \"LmPool Ver3.0/ERC721.sol\":2621:2638  _ownerOf[tokenId] */\n      dup2\n      mstore\n      0x20\n      add\n      swap1\n      dup2\n      mstore\n      0x20\n      add\n      0x00\n      keccak256\n      0x00\n      swap1\n      sload\n      swap1\n      0x0100\n      exp\n      swap1\n      div\n      0xffffffffffffffffffffffffffffffffffffffff\n      and\n        /* \"LmPool Ver3.0/ERC721.sol\":2613:2638  from == _ownerOf[tokenId] */\n      0xffffffffffffffffffffffffffffffffffffffff\n      and\n        /* \"LmPool Ver3.0/ERC721.sol\":2613:2617  from */\n      dup4\n        /* \"LmPool Ver3.0/ERC721.sol\":2613:2638  from == _ownerOf[tokenId] */\n      0xffffffffffffffffffffffffffffffffffffffff\n      and\n      eq\n        /* \"LmPool Ver3.0/ERC721.sol\":2605:2656  require(from == _ownerOf[tokenId], \"from != owner\") */\n      tag_121\n      jumpi\n      mload(0x40)\n      0x08c379a000000000000000000000000000000000000000000000000000000000\n      dup2\n      mstore\n      0x04\n      add\n      tag_122\n      swap1\n      tag_123\n      jump\t// in\n    tag_122:\n      mload(0x40)\n      dup1\n      swap2\n      sub\n      swap1\n      revert\n    tag_121:\n        /* \"LmPool Ver3.0/ERC721.sol\":2688:2689  0 */\n      0x00\n        /* \"LmPool Ver3.0/ERC721.sol\":2674:2690  to != address(0) */\n      0xffffffffffffffffffffffffffffffffffffffff\n      and\n        /* \"LmPool Ver3.0/ERC721.sol\":2674:2676  to */\n      dup3\n        /* \"LmPool Ver3.0/ERC721.sol\":2674:2690  to != address(0) */\n      0xffffffffffffffffffffffffffffffffffffffff\n      and\n      sub\n        /* \"LmPool Ver3.0/ERC721.sol\":2666:2712  require(to != address(0), \"to = zero address\") */\n      tag_124\n      jumpi\n      mload(0x40)\n      0x08c379a000000000000000000000000000000000000000000000000000000000\n      dup2\n      mstore\n      0x04\n      add\n      tag_125\n      swap1\n      tag_126\n      jump\t// in\n    tag_125:\n      mload(0x40)\n      dup1\n      swap2\n      sub\n      swap1\n      revert\n    tag_124:\n        /* \"LmPool Ver3.0/ERC721.sol\":2743:2788  _isApprovedOrOwner(from, msg.sender, tokenId) */\n      tag_127\n        /* \"LmPool Ver3.0/ERC721.sol\":2762:2766  from */\n      dup4\n        /* \"LmPool Ver3.0/ERC721.sol\":2768:2778  msg.sender */\n      caller\n        /* \"LmPool Ver3.0/ERC721.sol\":2780:2787  tokenId */\n      dup4\n        /* \"LmPool Ver3.0/ERC721.sol\":2743:2761  _isApprovedOrOwner */\n      tag_128\n        /* \"LmPool Ver3.0/ERC721.sol\":2743:2788  _isApprovedOrOwner(from, msg.sender, tokenId) */\n      jump\t// in\n    tag_127:\n        /* \"LmPool Ver3.0/ERC721.sol\":2722:2828  require(... */\n      tag_129\n      jumpi\n      mload(0x40)\n      0x08c379a000000000000000000000000000000000000000000000000000000000\n      dup2\n      mstore\n      0x04\n      add\n      tag_130\n      swap1\n      tag_119\n      jump\t// in\n    tag_130:\n      mload(0x40)\n      dup1\n      swap2\n      sub\n      swap1\n      revert\n    tag_129:\n        /* \"LmPool Ver3.0/ERC721.sol\":2838:2848  _balanceOf */\n      0x01\n        /* \"LmPool Ver3.0/ERC721.sol\":2838:2854  _balanceOf[from] */\n      0x00\n        /* \"LmPool Ver3.0/ERC721.sol\":2849:2853  from */\n      dup5\n        /* \"LmPool Ver3.0/ERC721.sol\":2838:2854  _balanceOf[from] */\n      0xffffffffffffffffffffffffffffffffffffffff\n      and\n      0xffffffffffffffffffffffffffffffffffffffff\n      and\n      dup2\n      mstore\n      0x20\n      add\n      swap1\n      dup2\n      mstore\n      0x20\n      add\n      0x00\n      keccak256\n      0x00\n        /* \"LmPool Ver3.0/ERC721.sol\":2838:2856  _balanceOf[from]-- */\n      dup2\n      sload\n      dup1\n      swap3\n      swap2\n      swap1\n      tag_131\n      swap1\n      tag_132\n      jump\t// in\n    tag_131:\n      swap2\n      swap1\n      pop\n      sstore\n      pop\n        /* \"LmPool Ver3.0/ERC721.sol\":2866:2876  _balanceOf */\n      0x01\n        /* \"LmPool Ver3.0/ERC721.sol\":2866:2880  _balanceOf[to] */\n      0x00\n        /* \"LmPool Ver3.0/ERC721.sol\":2877:2879  to */\n      dup4\n        /* \"LmPool Ver3.0/ERC721.sol\":2866:2880  _balanceOf[to] */\n      0xffffffffffffffffffffffffffffffffffffffff\n      and\n      0xffffffffffffffffffffffffffffffffffffffff\n      and\n      dup2\n      mstore\n      0x20\n      add\n      swap1\n      dup2\n      mstore\n      0x20\n      add\n      0x00\n      keccak256\n      0x00\n        /* \"LmPool Ver3.0/ERC721.sol\":2866:2882  _balanceOf[to]++ */\n      dup2\n      sload\n      dup1\n      swap3\n      swap2\n      swap1\n      tag_133\n      swap1\n      tag_134\n      jump\t// in\n    tag_133:\n      swap2\n      swap1\n      pop\n      sstore\n      pop\n        /* \"LmPool Ver3.0/ERC721.sol\":2912:2914  to */\n      dup2\n        /* \"LmPool Ver3.0/ERC721.sol\":2892:2900  _ownerOf */\n      0x00\n        /* \"LmPool Ver3.0/ERC721.sol\":2892:2909  _ownerOf[tokenId] */\n      dup1\n        /* \"LmPool Ver3.0/ERC721.sol\":2901:2908  tokenId */\n      dup4\n        /* \"LmPool Ver3.0/ERC721.sol\":2892:2909  _ownerOf[tokenId] */\n      dup2\n      mstore\n      0x20\n      add\n      swap1\n      dup2\n      mstore\n      0x20\n      add\n      0x00\n      keccak256\n      0x00\n        /* \"LmPool Ver3.0/ERC721.sol\":2892:2914  _ownerOf[tokenId] = to */\n      0x0100\n      exp\n      dup2\n      sload\n      dup2\n      0xffffffffffffffffffffffffffffffffffffffff\n      mul\n      not\n      and\n      swap1\n      dup4\n      0xffffffffffffffffffffffffffffffffffffffff\n      and\n      mul\n      or\n      swap1\n      sstore\n      pop\n        /* \"LmPool Ver3.0/ERC721.sol\":2932:2942  _approvals */\n      0x02\n        /* \"LmPool Ver3.0/ERC721.sol\":2932:2951  _approvals[tokenId] */\n      0x00\n        /* \"LmPool Ver3.0/ERC721.sol\":2943:2950  tokenId */\n      dup3\n        /* \"LmPool Ver3.0/ERC721.sol\":2932:2951  _approvals[tokenId] */\n      dup2\n      mstore\n      0x20\n      add\n      swap1\n      dup2\n      mstore\n      0x20\n      add\n      0x00\n      keccak256\n      0x00\n        /* \"LmPool Ver3.0/ERC721.sol\":2925:2951  delete _approvals[tokenId] */\n      0x0100\n      exp\n      dup2\n      sload\n      swap1\n      0xffffffffffffffffffffffffffffffffffffffff\n      mul\n      not\n      and\n      swap1\n      sstore\n        /* \"LmPool Ver3.0/ERC721.sol\":2985:2992  tokenId */\n      dup1\n        /* \"LmPool Ver3.0/ERC721.sol\":2981:2983  to */\n      dup3\n        /* \"LmPool Ver3.0/ERC721.sol\":2966:2993  Transfer(from, to, tokenId) */\n      0xffffffffffffffffffffffffffffffffffffffff\n      and\n        /* \"LmPool Ver3.0/ERC721.sol\":2975:2979  from */\n      dup5\n        /* \"LmPool Ver3.0/ERC721.sol\":2966:2993  Transfer(from, to, tokenId) */\n      0xffffffffffffffffffffffffffffffffffffffff\n      and\n      0xddf252ad1be2c89b69c2b068fc378daa952ba7f163c4a11628f55a4df523b3ef\n      mload(0x40)\n      mload(0x40)\n      dup1\n      swap2\n      sub\n      swap1\n      log4\n        /* \"LmPool Ver3.0/ERC721.sol\":2493:3000  function transferFrom(... */\n      pop\n      pop\n      pop\n      jump\t// out\n        /* \"LmPool Ver3.0/TVNNFTPositionManager.sol\":2581:2889  function transferPosition(... */\n    tag_47:\n        /* \"LmPool Ver3.0/TVNNFTPositionManager.sol\":2702:2736  transferFrom(_from, _to, _tokenId) */\n      tag_136\n        /* \"LmPool Ver3.0/TVNNFTPositionManager.sol\":2715:2720  _from */\n      dup4\n        /* \"LmPool Ver3.0/TVNNFTPositionManager.sol\":2722:2725  _to */\n      dup4\n        /* \"LmPool Ver3.0/TVNNFTPositionManager.sol\":2727:2735  _tokenId */\n      dup4\n        /* \"LmPool Ver3.0/TVNNFTPositionManager.sol\":2702:2714  transferFrom */\n      tag_44\n        /* \"LmPool Ver3.0/TVNNFTPositionManager.sol\":2702:2736  transferFrom(_from, _to, _tokenId) */\n      jump\t// in\n    tag_136:\n        /* \"LmPool Ver3.0/TVNNFTPositionManager.sol\":2747:2780  _removeFromArray(_tokenId, _from) */\n      tag_137\n        /* \"LmPool Ver3.0/TVNNFTPositionManager.sol\":2764:2772  _tokenId */\n      dup2\n        /* \"LmPool Ver3.0/TVNNFTPositionManager.sol\":2774:2779  _from */\n      dup5\n        /* \"LmPool Ver3.0/TVNNFTPositionManager.sol\":2747:2763  _removeFromArray */\n      tag_138\n        /* \"LmPool Ver3.0/TVNNFTPositionManager.sol\":2747:2780  _removeFromArray(_tokenId, _from) */\n      jump\t// in\n    tag_137:\n        /* \"LmPool Ver3.0/TVNNFTPositionManager.sol\":2791:2799  ownerNFT */\n      0x08\n        /* \"LmPool Ver3.0/TVNNFTPositionManager.sol\":2791:2804  ownerNFT[_to] */\n      0x00\n        /* \"LmPool Ver3.0/TVNNFTPositionManager.sol\":2800:2803  _to */\n      dup4\n        /* \"LmPool Ver3.0/TVNNFTPositionManager.sol\":2791:2804  ownerNFT[_to] */\n      0xffffffffffffffffffffffffffffffffffffffff\n      and\n      0xffffffffffffffffffffffffffffffffffffffff\n      and\n      dup2\n      mstore\n      0x20\n      add\n      swap1\n      dup2\n      mstore\n      0x20\n      add\n      0x00\n      keccak256\n        /* \"LmPool Ver3.0/TVNNFTPositionManager.sol\":2810:2818  _tokenId */\n      dup2\n        /* \"LmPool Ver3.0/TVNNFTPositionManager.sol\":2791:2819  ownerNFT[_to].push(_tokenId) */\n      swap1\n      dup1\n      0x01\n      dup2\n      sload\n      add\n      dup1\n      dup3\n      sstore\n      dup1\n      swap2\n      pop\n      pop\n      0x01\n      swap1\n      sub\n      swap1\n      0x00\n      mstore\n      keccak256(0x00, 0x20)\n      add\n      0x00\n      swap1\n      swap2\n      swap1\n      swap2\n      swap1\n      swap2\n      pop\n      sstore\n        /* \"LmPool Ver3.0/TVNNFTPositionManager.sol\":2862:2870  ownerNFT */\n      0x08\n        /* \"LmPool Ver3.0/TVNNFTPositionManager.sol\":2862:2875  ownerNFT[_to] */\n      0x00\n        /* \"LmPool Ver3.0/TVNNFTPositionManager.sol\":2871:2874  _to */\n      dup4\n        /* \"LmPool Ver3.0/TVNNFTPositionManager.sol\":2862:2875  ownerNFT[_to] */\n      0xffffffffffffffffffffffffffffffffffffffff\n      and\n      0xffffffffffffffffffffffffffffffffffffffff\n      and\n      dup2\n      mstore\n      0x20\n      add\n      swap1\n      dup2\n      mstore\n      0x20\n      add\n      0x00\n      keccak256\n        /* \"LmPool Ver3.0/TVNNFTPositionManager.sol\":2862:2882  ownerNFT[_to].length */\n      dup1\n      sload\n      swap1\n      pop\n        /* \"LmPool Ver3.0/TVNNFTPositionManager.sol\":2829:2844  indexOfOwnerNFT */\n      0x09\n        /* \"LmPool Ver3.0/TVNNFTPositionManager.sol\":2829:2849  indexOfOwnerNFT[_to] */\n      0x00\n        /* \"LmPool Ver3.0/TVNNFTPositionManager.sol\":2845:2848  _to */\n      dup5\n        /* \"LmPool Ver3.0/TVNNFTPositionManager.sol\":2829:2849  indexOfOwnerNFT[_to] */\n      0xffffffffffffffffffffffffffffffffffffffff\n      and\n      0xffffffffffffffffffffffffffffffffffffffff\n      and\n      dup2\n      mstore\n      0x20\n      add\n      swap1\n      dup2\n      mstore\n      0x20\n      add\n      0x00\n      keccak256\n        /* \"LmPool Ver3.0/TVNNFTPositionManager.sol\":2829:2859  indexOfOwnerNFT[_to][_tokenId] */\n      0x00\n        /* \"LmPool Ver3.0/TVNNFTPositionManager.sol\":2850:2858  _tokenId */\n      dup4\n        /* \"LmPool Ver3.0/TVNNFTPositionManager.sol\":2829:2859  indexOfOwnerNFT[_to][_tokenId] */\n      dup2\n      mstore\n      0x20\n      add\n      swap1\n      dup2\n      mstore\n      0x20\n      add\n      0x00\n      keccak256\n        /* \"LmPool Ver3.0/TVNNFTPositionManager.sol\":2829:2882  indexOfOwnerNFT[_to][_tokenId] = ownerNFT[_to].length */\n      dup2\n      swap1\n      sstore\n      pop\n        /* \"LmPool Ver3.0/TVNNFTPositionManager.sol\":2581:2889  function transferPosition(... */\n      pop\n      pop\n      pop\n      jump\t// out\n        /* \"LmPool Ver3.0/TVNNFTPositionManager.sol\":1587:2333  function mintPosition(address _to, PositionInfo calldata params) external {... */\n    tag_51:\n        /* \"LmPool Ver3.0/TVNNFTPositionManager.sol\":1671:1694  _mint(_to, tokenIdNext) */\n      tag_141\n        /* \"LmPool Ver3.0/TVNNFTPositionManager.sol\":1677:1680  _to */\n      dup3\n        /* \"LmPool Ver3.0/TVNNFTPositionManager.sol\":1682:1693  tokenIdNext */\n      sload(0x06)\n        /* \"LmPool Ver3.0/TVNNFTPositionManager.sol\":1671:1676  _mint */\n      tag_142\n        /* \"LmPool Ver3.0/TVNNFTPositionManager.sol\":1671:1694  _mint(_to, tokenIdNext) */\n      jump\t// in\n    tag_141:\n        /* \"LmPool Ver3.0/TVNNFTPositionManager.sol\":1705:1713  ownerNFT */\n      0x08\n        /* \"LmPool Ver3.0/TVNNFTPositionManager.sol\":1705:1718  ownerNFT[_to] */\n      0x00\n        /* \"LmPool Ver3.0/TVNNFTPositionManager.sol\":1714:1717  _to */\n      dup4\n        /* \"LmPool Ver3.0/TVNNFTPositionManager.sol\":1705:1718  ownerNFT[_to] */\n      0xffffffffffffffffffffffffffffffffffffffff\n      and\n      0xffffffffffffffffffffffffffffffffffffffff\n      and\n      dup2\n      mstore\n      0x20\n      add\n      swap1\n      dup2\n      mstore\n      0x20\n      add\n      0x00\n      keccak256\n        /* \"LmPool Ver3.0/TVNNFTPositionManager.sol\":1724:1735  tokenIdNext */\n      sload(0x06)\n        /* \"LmPool Ver3.0/TVNNFTPositionManager.sol\":1705:1736  ownerNFT[_to].push(tokenIdNext) */\n      swap1\n      dup1\n      0x01\n      dup2\n      sload\n      add\n      dup1\n      dup3\n      sstore\n      dup1\n      swap2\n      pop\n      pop\n      0x01\n      swap1\n      sub\n      swap1\n      0x00\n      mstore\n      keccak256(0x00, 0x20)\n      add\n      0x00\n      swap1\n      swap2\n      swap1\n      swap2\n      swap1\n      swap2\n      pop\n      sstore\n        /* \"LmPool Ver3.0/TVNNFTPositionManager.sol\":1782:1790  ownerNFT */\n      0x08\n        /* \"LmPool Ver3.0/TVNNFTPositionManager.sol\":1782:1795  ownerNFT[_to] */\n      0x00\n        /* \"LmPool Ver3.0/TVNNFTPositionManager.sol\":1791:1794  _to */\n      dup4\n        /* \"LmPool Ver3.0/TVNNFTPositionManager.sol\":1782:1795  ownerNFT[_to] */\n      0xffffffffffffffffffffffffffffffffffffffff\n      and\n      0xffffffffffffffffffffffffffffffffffffffff\n      and\n      dup2\n      mstore\n      0x20\n      add\n      swap1\n      dup2\n      mstore\n      0x20\n      add\n      0x00\n      keccak256\n        /* \"LmPool Ver3.0/TVNNFTPositionManager.sol\":1782:1802  ownerNFT[_to].length */\n      dup1\n      sload\n      swap1\n      pop\n        /* \"LmPool Ver3.0/TVNNFTPositionManager.sol\":1746:1761  indexOfOwnerNFT */\n      0x09\n        /* \"LmPool Ver3.0/TVNNFTPositionManager.sol\":1746:1766  indexOfOwnerNFT[_to] */\n      0x00\n        /* \"LmPool Ver3.0/TVNNFTPositionManager.sol\":1762:1765  _to */\n      dup5\n        /* \"LmPool Ver3.0/TVNNFTPositionManager.sol\":1746:1766  indexOfOwnerNFT[_to] */\n      0xffffffffffffffffffffffffffffffffffffffff\n      and\n      0xffffffffffffffffffffffffffffffffffffffff\n      and\n      dup2\n      mstore\n      0x20\n      add\n      swap1\n      dup2\n      mstore\n      0x20\n      add\n      0x00\n      keccak256\n        /* \"LmPool Ver3.0/TVNNFTPositionManager.sol\":1746:1779  indexOfOwnerNFT[_to][tokenIdNext] */\n      0x00\n        /* \"LmPool Ver3.0/TVNNFTPositionManager.sol\":1767:1778  tokenIdNext */\n      sload(0x06)\n        /* \"LmPool Ver3.0/TVNNFTPositionManager.sol\":1746:1779  indexOfOwnerNFT[_to][tokenIdNext] */\n      dup2\n      mstore\n      0x20\n      add\n      swap1\n      dup2\n      mstore\n      0x20\n      add\n      0x00\n      keccak256\n        /* \"LmPool Ver3.0/TVNNFTPositionManager.sol\":1746:1802  indexOfOwnerNFT[_to][tokenIdNext] = ownerNFT[_to].length */\n      dup2\n      swap1\n      sstore\n      pop\n        /* \"LmPool Ver3.0/TVNNFTPositionManager.sol\":1813:1842  PositionInfo storage position */\n      0x00\n        /* \"LmPool Ver3.0/TVNNFTPositionManager.sol\":1845:1854  positions */\n      0x07\n        /* \"LmPool Ver3.0/TVNNFTPositionManager.sol\":1845:1867  positions[tokenIdNext] */\n      0x00\n        /* \"LmPool Ver3.0/TVNNFTPositionManager.sol\":1855:1866  tokenIdNext */\n      sload(0x06)\n        /* \"LmPool Ver3.0/TVNNFTPositionManager.sol\":1845:1867  positions[tokenIdNext] */\n      dup2\n      mstore\n      0x20\n      add\n      swap1\n      dup2\n      mstore\n      0x20\n      add\n      0x00\n      keccak256\n        /* \"LmPool Ver3.0/TVNNFTPositionManager.sol\":1813:1867  PositionInfo storage position = positions[tokenIdNext] */\n      swap1\n      pop\n        /* \"LmPool Ver3.0/TVNNFTPositionManager.sol\":1896:1902  params */\n      dup2\n        /* \"LmPool Ver3.0/TVNNFTPositionManager.sol\":1896:1909  params.shares */\n      0x00\n      add\n      calldataload\n        /* \"LmPool Ver3.0/TVNNFTPositionManager.sol\":1878:1886  position */\n      dup2\n        /* \"LmPool Ver3.0/TVNNFTPositionManager.sol\":1878:1893  position.shares */\n      0x00\n      add\n        /* \"LmPool Ver3.0/TVNNFTPositionManager.sol\":1878:1909  position.shares = params.shares */\n      dup2\n      swap1\n      sstore\n      pop\n        /* \"LmPool Ver3.0/TVNNFTPositionManager.sol\":1936:1942  params */\n      dup2\n        /* \"LmPool Ver3.0/TVNNFTPositionManager.sol\":1936:1948  params.owner */\n      0x20\n      add\n      0x20\n      dup2\n      add\n      swap1\n      tag_144\n      swap2\n      swap1\n      tag_61\n      jump\t// in\n    tag_144:\n        /* \"LmPool Ver3.0/TVNNFTPositionManager.sol\":1919:1927  position */\n      dup2\n        /* \"LmPool Ver3.0/TVNNFTPositionManager.sol\":1919:1933  position.owner */\n      0x01\n      add\n      0x00\n        /* \"LmPool Ver3.0/TVNNFTPositionManager.sol\":1919:1948  position.owner = params.owner */\n      0x0100\n      exp\n      dup2\n      sload\n      dup2\n      0xffffffffffffffffffffffffffffffffffffffff\n      mul\n      not\n      and\n      swap1\n      dup4\n      0xffffffffffffffffffffffffffffffffffffffff\n      and\n      mul\n      or\n      swap1\n      sstore\n      pop\n        /* \"LmPool Ver3.0/TVNNFTPositionManager.sol\":1976:1982  params */\n      dup2\n        /* \"LmPool Ver3.0/TVNNFTPositionManager.sol\":1976:1989  params.token0 */\n      0x40\n      add\n      0x20\n      dup2\n      add\n      swap1\n      tag_145\n      swap2\n      swap1\n      tag_61\n      jump\t// in\n    tag_145:\n        /* \"LmPool Ver3.0/TVNNFTPositionManager.sol\":1958:1966  position */\n      dup2\n        /* \"LmPool Ver3.0/TVNNFTPositionManager.sol\":1958:1973  position.token0 */\n      0x02\n      add\n      0x00\n        /* \"LmPool Ver3.0/TVNNFTPositionManager.sol\":1958:1989  position.token0 = params.token0 */\n      0x0100\n      exp\n      dup2\n      sload\n      dup2\n      0xffffffffffffffffffffffffffffffffffffffff\n      mul\n      not\n      and\n      swap1\n      dup4\n      0xffffffffffffffffffffffffffffffffffffffff\n      and\n      mul\n      or\n      swap1\n      sstore\n      pop\n        /* \"LmPool Ver3.0/TVNNFTPositionManager.sol\":2017:2023  params */\n      dup2\n        /* \"LmPool Ver3.0/TVNNFTPositionManager.sol\":2017:2030  params.token1 */\n      0x60\n      add\n      0x20\n      dup2\n      add\n      swap1\n      tag_146\n      swap2\n      swap1\n      tag_61\n      jump\t// in\n    tag_146:\n        /* \"LmPool Ver3.0/TVNNFTPositionManager.sol\":1999:2007  position */\n      dup2\n        /* \"LmPool Ver3.0/TVNNFTPositionManager.sol\":1999:2014  position.token1 */\n      0x03\n      add\n      0x00\n        /* \"LmPool Ver3.0/TVNNFTPositionManager.sol\":1999:2030  position.token1 = params.token1 */\n      0x0100\n      exp\n      dup2\n      sload\n      dup2\n      0xffffffffffffffffffffffffffffffffffffffff\n      mul\n      not\n      and\n      swap1\n      dup4\n      0xffffffffffffffffffffffffffffffffffffffff\n      and\n      mul\n      or\n      swap1\n      sstore\n      pop\n        /* \"LmPool Ver3.0/TVNNFTPositionManager.sol\":2055:2061  params */\n      dup2\n        /* \"LmPool Ver3.0/TVNNFTPositionManager.sol\":2055:2065  params.fee */\n      0x80\n      add\n      calldataload\n        /* \"LmPool Ver3.0/TVNNFTPositionManager.sol\":2040:2048  position */\n      dup2\n        /* \"LmPool Ver3.0/TVNNFTPositionManager.sol\":2040:2052  position.fee */\n      0x04\n      add\n        /* \"LmPool Ver3.0/TVNNFTPositionManager.sol\":2040:2065  position.fee = params.fee */\n      dup2\n      swap1\n      sstore\n      pop\n        /* \"LmPool Ver3.0/TVNNFTPositionManager.sol\":2094:2100  params */\n      dup2\n        /* \"LmPool Ver3.0/TVNNFTPositionManager.sol\":2094:2108  params.amount0 */\n      0xa0\n      add\n      calldataload\n        /* \"LmPool Ver3.0/TVNNFTPositionManager.sol\":2075:2083  position */\n      dup2\n        /* \"LmPool Ver3.0/TVNNFTPositionManager.sol\":2075:2091  position.amount0 */\n      0x05\n      add\n        /* \"LmPool Ver3.0/TVNNFTPositionManager.sol\":2075:2108  position.amount0 = params.amount0 */\n      dup2\n      swap1\n      sstore\n      pop\n        /* \"LmPool Ver3.0/TVNNFTPositionManager.sol\":2137:2143  params */\n      dup2\n        /* \"LmPool Ver3.0/TVNNFTPositionManager.sol\":2137:2151  params.amount1 */\n      0xc0\n      add\n      calldataload\n        /* \"LmPool Ver3.0/TVNNFTPositionManager.sol\":2118:2126  position */\n      dup2\n        /* \"LmPool Ver3.0/TVNNFTPositionManager.sol\":2118:2134  position.amount1 */\n      0x06\n      add\n        /* \"LmPool Ver3.0/TVNNFTPositionManager.sol\":2118:2151  position.amount1 = params.amount1 */\n      dup2\n      swap1\n      sstore\n      pop\n        /* \"LmPool Ver3.0/TVNNFTPositionManager.sol\":2182:2188  params */\n      dup2\n        /* \"LmPool Ver3.0/TVNNFTPositionManager.sol\":2182:2198  params.upperTick */\n      0xe0\n      add\n      0x20\n      dup2\n      add\n      swap1\n      tag_147\n      swap2\n      swap1\n      tag_148\n      jump\t// in\n    tag_147:\n        /* \"LmPool Ver3.0/TVNNFTPositionManager.sol\":2161:2169  position */\n      dup2\n        /* \"LmPool Ver3.0/TVNNFTPositionManager.sol\":2161:2179  position.upperTick */\n      0x07\n      add\n      0x00\n        /* \"LmPool Ver3.0/TVNNFTPositionManager.sol\":2161:2198  position.upperTick = params.upperTick */\n      0x0100\n      exp\n      dup2\n      sload\n      dup2\n      0xffffffffffffffffffffffffffffffffffffffff\n      mul\n      not\n      and\n      swap1\n      dup4\n      0xffffffffffffffffffffffffffffffffffffffff\n      and\n      mul\n      or\n      swap1\n      sstore\n      pop\n        /* \"LmPool Ver3.0/TVNNFTPositionManager.sol\":2229:2235  params */\n      dup2\n        /* \"LmPool Ver3.0/TVNNFTPositionManager.sol\":2229:2245  params.lowerTick */\n      0x0100\n      add\n      0x20\n      dup2\n      add\n      swap1\n      tag_149\n      swap2\n      swap1\n      tag_148\n      jump\t// in\n    tag_149:\n        /* \"LmPool Ver3.0/TVNNFTPositionManager.sol\":2208:2216  position */\n      dup2\n        /* \"LmPool Ver3.0/TVNNFTPositionManager.sol\":2208:2226  position.lowerTick */\n      0x08\n      add\n      0x00\n        /* \"LmPool Ver3.0/TVNNFTPositionManager.sol\":2208:2245  position.lowerTick = params.lowerTick */\n      0x0100\n      exp\n      dup2\n      sload\n      dup2\n      0xffffffffffffffffffffffffffffffffffffffff\n      mul\n      not\n      and\n      swap1\n      dup4\n      0xffffffffffffffffffffffffffffffffffffffff\n      and\n      mul\n      or\n      swap1\n      sstore\n      pop\n        /* \"LmPool Ver3.0/TVNNFTPositionManager.sol\":2281:2287  params */\n      dup2\n        /* \"LmPool Ver3.0/TVNNFTPositionManager.sol\":2281:2302  params.deltaLiquidity */\n      0x0120\n      add\n      0x20\n      dup2\n      add\n      swap1\n      tag_150\n      swap2\n      swap1\n      tag_151\n      jump\t// in\n    tag_150:\n        /* \"LmPool Ver3.0/TVNNFTPositionManager.sol\":2255:2263  position */\n      dup2\n        /* \"LmPool Ver3.0/TVNNFTPositionManager.sol\":2255:2278  position.deltaLiquidity */\n      0x09\n      add\n      0x00\n        /* \"LmPool Ver3.0/TVNNFTPositionManager.sol\":2255:2302  position.deltaLiquidity = params.deltaLiquidity */\n      0x0100\n      exp\n      dup2\n      sload\n      dup2\n      0xffffffffffffffffffffffffffffffff\n      mul\n      not\n      and\n      swap1\n      dup4\n      0xffffffffffffffffffffffffffffffff\n      and\n      mul\n      or\n      swap1\n      sstore\n      pop\n        /* \"LmPool Ver3.0/TVNNFTPositionManager.sol\":2313:2324  tokenIdNext */\n      0x06\n      0x00\n        /* \"LmPool Ver3.0/TVNNFTPositionManager.sol\":2313:2326  tokenIdNext++ */\n      dup2\n      sload\n      dup1\n      swap3\n      swap2\n      swap1\n      tag_152\n      swap1\n      tag_134\n      jump\t// in\n    tag_152:\n      swap2\n      swap1\n      pop\n      sstore\n      pop\n        /* \"LmPool Ver3.0/TVNNFTPositionManager.sol\":1661:2333  {... */\n      pop\n        /* \"LmPool Ver3.0/TVNNFTPositionManager.sol\":1587:2333  function mintPosition(address _to, PositionInfo calldata params) external {... */\n      pop\n      pop\n      jump\t// out\n        /* \"LmPool Ver3.0/ERC721.sol\":3006:3500  function safeTransferFrom(... */\n    tag_54:\n        /* \"LmPool Ver3.0/ERC721.sol\":3124:3155  transferFrom(from, to, tokenId) */\n      tag_154\n        /* \"LmPool Ver3.0/ERC721.sol\":3137:3141  from */\n      dup4\n        /* \"LmPool Ver3.0/ERC721.sol\":3143:3145  to */\n      dup4\n        /* \"LmPool Ver3.0/ERC721.sol\":3147:3154  tokenId */\n      dup4\n        /* \"LmPool Ver3.0/ERC721.sol\":3124:3136  transferFrom */\n      tag_44\n        /* \"LmPool Ver3.0/ERC721.sol\":3124:3155  transferFrom(from, to, tokenId) */\n      jump\t// in\n    tag_154:\n        /* \"LmPool Ver3.0/ERC721.sol\":3204:3205  0 */\n      0x00\n        /* \"LmPool Ver3.0/ERC721.sol\":3186:3188  to */\n      dup3\n        /* \"LmPool Ver3.0/ERC721.sol\":3186:3200  to.code.length */\n      0xffffffffffffffffffffffffffffffffffffffff\n      and\n      extcodesize\n        /* \"LmPool Ver3.0/ERC721.sol\":3186:3205  to.code.length == 0 */\n      eq\n        /* \"LmPool Ver3.0/ERC721.sol\":3186:3451  to.code.length == 0 ||... */\n      dup1\n      tag_155\n      jumpi\n      pop\n        /* \"LmPool Ver3.0/ERC721.sol\":3410:3451  IERC721Receiver.onERC721Received.selector */\n      shl(0xe0, 0x150b7a02)\n        /* \"LmPool Ver3.0/ERC721.sol\":3225:3451  IERC721Receiver(to).onERC721Received(... */\n      not(0xffffffffffffffffffffffffffffffffffffffffffffffffffffffff)\n      and\n        /* \"LmPool Ver3.0/ERC721.sol\":3241:3243  to */\n      dup3\n        /* \"LmPool Ver3.0/ERC721.sol\":3225:3261  IERC721Receiver(to).onERC721Received */\n      0xffffffffffffffffffffffffffffffffffffffff\n      and\n      0x150b7a02\n        /* \"LmPool Ver3.0/ERC721.sol\":3283:3293  msg.sender */\n      caller\n        /* \"LmPool Ver3.0/ERC721.sol\":3315:3319  from */\n      dup7\n        /* \"LmPool Ver3.0/ERC721.sol\":3341:3348  tokenId */\n      dup6\n        /* \"LmPool Ver3.0/ERC721.sol\":3225:3390  IERC721Receiver(to).onERC721Received(... */\n      mload(0x40)\n      dup5\n      0xffffffff\n      and\n      0xe0\n      shl\n      dup2\n      mstore\n      0x04\n      add\n      tag_156\n      swap4\n      swap3\n      swap2\n      swap1\n      tag_157\n      jump\t// in\n    tag_156:\n      0x20\n      mload(0x40)\n      dup1\n      dup4\n      sub\n      dup2\n      0x00\n      dup8\n      gas\n      call\n      iszero\n      dup1\n      iszero\n      tag_159\n      jumpi\n      returndatasize\n      0x00\n      dup1\n      returndatacopy\n      revert(0x00, returndatasize)\n    tag_159:\n      pop\n      pop\n      pop\n      pop\n      mload(0x40)\n      returndatasize\n      not(0x1f)\n      0x1f\n      dup3\n      add\n      and\n      dup3\n      add\n      dup1\n      0x40\n      mstore\n      pop\n      dup2\n      add\n      swap1\n      tag_160\n      swap2\n      swap1\n      tag_161\n      jump\t// in\n    tag_160:\n        /* \"LmPool Ver3.0/ERC721.sol\":3225:3451  IERC721Receiver(to).onERC721Received(... */\n      not(0xffffffffffffffffffffffffffffffffffffffffffffffffffffffff)\n      and\n      eq\n        /* \"LmPool Ver3.0/ERC721.sol\":3186:3451  to.code.length == 0 ||... */\n    tag_155:\n        /* \"LmPool Ver3.0/ERC721.sol\":3165:3493  require(... */\n      tag_162\n      jumpi\n      mload(0x40)\n      0x08c379a000000000000000000000000000000000000000000000000000000000\n      dup2\n      mstore\n      0x04\n      add\n      tag_163\n      swap1\n      tag_164\n      jump\t// in\n    tag_163:\n      mload(0x40)\n      dup1\n      swap2\n      sub\n      swap1\n      revert\n    tag_162:\n        /* \"LmPool Ver3.0/ERC721.sol\":3006:3500  function safeTransferFrom(... */\n      pop\n      pop\n      pop\n      jump\t// out\n        /* \"LmPool Ver3.0/ERC721.sol\":1282:1458  function ownerOf(uint256 tokenId) external view returns (address owner) {... */\n    tag_57:\n        /* \"LmPool Ver3.0/ERC721.sol\":1339:1352  address owner */\n      0x00\n        /* \"LmPool Ver3.0/ERC721.sol\":1372:1380  _ownerOf */\n      dup1\n        /* \"LmPool Ver3.0/ERC721.sol\":1372:1389  _ownerOf[tokenId] */\n      0x00\n        /* \"LmPool Ver3.0/ERC721.sol\":1381:1388  tokenId */\n      dup4\n        /* \"LmPool Ver3.0/ERC721.sol\":1372:1389  _ownerOf[tokenId] */\n      dup2\n      mstore\n      0x20\n      add\n      swap1\n      dup2\n      mstore\n      0x20\n      add\n      0x00\n      keccak256\n      0x00\n      swap1\n      sload\n      swap1\n      0x0100\n      exp\n      swap1\n      div\n      0xffffffffffffffffffffffffffffffffffffffff\n      and\n        /* \"LmPool Ver3.0/ERC721.sol\":1364:1389  owner = _ownerOf[tokenId] */\n      swap1\n      pop\n        /* \"LmPool Ver3.0/ERC721.sol\":1424:1425  0 */\n      0x00\n        /* \"LmPool Ver3.0/ERC721.sol\":1407:1426  owner != address(0) */\n      0xffffffffffffffffffffffffffffffffffffffff\n      and\n        /* \"LmPool Ver3.0/ERC721.sol\":1407:1412  owner */\n      dup2\n        /* \"LmPool Ver3.0/ERC721.sol\":1407:1426  owner != address(0) */\n      0xffffffffffffffffffffffffffffffffffffffff\n      and\n      sub\n        /* \"LmPool Ver3.0/ERC721.sol\":1399:1451  require(owner != address(0), \"owner = zero address\") */\n      tag_166\n      jumpi\n      mload(0x40)\n      0x08c379a000000000000000000000000000000000000000000000000000000000\n      dup2\n      mstore\n      0x04\n      add\n      tag_167\n      swap1\n      tag_168\n      jump\t// in\n    tag_167:\n      mload(0x40)\n      dup1\n      swap2\n      sub\n      swap1\n      revert\n    tag_166:\n        /* \"LmPool Ver3.0/ERC721.sol\":1282:1458  function ownerOf(uint256 tokenId) external view returns (address owner) {... */\n      swap2\n      swap1\n      pop\n      jump\t// out\n        /* \"LmPool Ver3.0/ERC721.sol\":1099:1276  function balanceOf(address owner) external view returns (uint256 balance) {... */\n    tag_62:\n        /* \"LmPool Ver3.0/ERC721.sol\":1156:1171  uint256 balance */\n      0x00\n        /* \"LmPool Ver3.0/ERC721.sol\":1208:1209  0 */\n      dup1\n        /* \"LmPool Ver3.0/ERC721.sol\":1191:1210  owner != address(0) */\n      0xffffffffffffffffffffffffffffffffffffffff\n      and\n        /* \"LmPool Ver3.0/ERC721.sol\":1191:1196  owner */\n      dup3\n        /* \"LmPool Ver3.0/ERC721.sol\":1191:1210  owner != address(0) */\n      0xffffffffffffffffffffffffffffffffffffffff\n      and\n      sub\n        /* \"LmPool Ver3.0/ERC721.sol\":1183:1235  require(owner != address(0), \"owner = zero address\") */\n      tag_170\n      jumpi\n      mload(0x40)\n      0x08c379a000000000000000000000000000000000000000000000000000000000\n      dup2\n      mstore\n      0x04\n      add\n      tag_171\n      swap1\n      tag_168\n      jump\t// in\n    tag_171:\n      mload(0x40)\n      dup1\n      swap2\n      sub\n      swap1\n      revert\n    tag_170:\n        /* \"LmPool Ver3.0/ERC721.sol\":1252:1262  _balanceOf */\n      0x01\n        /* \"LmPool Ver3.0/ERC721.sol\":1252:1269  _balanceOf[owner] */\n      0x00\n        /* \"LmPool Ver3.0/ERC721.sol\":1263:1268  owner */\n      dup4\n        /* \"LmPool Ver3.0/ERC721.sol\":1252:1269  _balanceOf[owner] */\n      0xffffffffffffffffffffffffffffffffffffffff\n      and\n      0xffffffffffffffffffffffffffffffffffffffff\n      and\n      dup2\n      mstore\n      0x20\n      add\n      swap1\n      dup2\n      mstore\n      0x20\n      add\n      0x00\n      keccak256\n      sload\n        /* \"LmPool Ver3.0/ERC721.sol\":1245:1269  return _balanceOf[owner] */\n      swap1\n      pop\n        /* \"LmPool Ver3.0/ERC721.sol\":1099:1276  function balanceOf(address owner) external view returns (uint256 balance) {... */\n      swap2\n      swap1\n      pop\n      jump\t// out\n        /* \"LmPool Ver3.0/TVNNFTPositionManager.sol\":643:713  mapping(address => mapping(uint256 => uint256)) public indexOfOwnerNFT */\n    tag_67:\n      mstore(0x20, 0x09)\n      dup2\n      0x00\n      mstore\n      mstore(0x20, keccak256(0x00, 0x40))\n      dup1\n      0x00\n      mstore\n      keccak256(0x00, 0x40)\n      0x00\n      swap2\n      pop\n      swap2\n      pop\n      pop\n      sload\n      dup2\n      jump\t// out\n        /* \"LmPool Ver3.0/TVNNFTPositionManager.sol\":214:244  uint256 public tokenIdNext = 1 */\n    tag_70:\n      sload(0x06)\n      dup2\n      jump\t// out\n        /* \"LmPool Ver3.0/TVNNFTPositionManager.sol\":536:585  mapping(uint256 => PositionInfo) public positions */\n    tag_74:\n      mstore(0x20, 0x07)\n      dup1\n      0x00\n      mstore\n      keccak256(0x00, 0x40)\n      0x00\n      swap2\n      pop\n      swap1\n      pop\n      dup1\n      0x00\n      add\n      sload\n      swap1\n      dup1\n      0x01\n      add\n      0x00\n      swap1\n      sload\n      swap1\n      0x0100\n      exp\n      swap1\n      div\n      0xffffffffffffffffffffffffffffffffffffffff\n      and\n      swap1\n      dup1\n      0x02\n      add\n      0x00\n      swap1\n      sload\n      swap1\n      0x0100\n      exp\n      swap1\n      div\n      0xffffffffffffffffffffffffffffffffffffffff\n      and\n      swap1\n      dup1\n      0x03\n      add\n      0x00\n      swap1\n      sload\n      swap1\n      0x0100\n      exp\n      swap1\n      div\n      0xffffffffffffffffffffffffffffffffffffffff\n      and\n      swap1\n      dup1\n      0x04\n      add\n      sload\n      swap1\n      dup1\n      0x05\n      add\n      sload\n      swap1\n      dup1\n      0x06\n      add\n      sload\n      swap1\n      dup1\n      0x07\n      add\n      0x00\n      swap1\n      sload\n      swap1\n      0x0100\n      exp\n      swap1\n      div\n      0xffffffffffffffffffffffffffffffffffffffff\n      and\n      swap1\n      dup1\n      0x08\n      add\n      0x00\n      swap1\n      sload\n      swap1\n      0x0100\n      exp\n      swap1\n      div\n      0xffffffffffffffffffffffffffffffffffffffff\n      and\n      swap1\n      dup1\n      0x09\n      add\n      0x00\n      swap1\n      sload\n      swap1\n      0x0100\n      exp\n      swap1\n      div\n      0xffffffffffffffffffffffffffffffff\n      and\n      swap1\n      pop\n      dup11\n      jump\t// out\n        /* \"LmPool Ver3.0/ERC721.sol\":1464:1663  function setApprovalForAll(address operator, bool _approved) external {... */\n    tag_80:\n        /* \"LmPool Ver3.0/ERC721.sol\":1585:1594  _approved */\n      dup1\n        /* \"LmPool Ver3.0/ERC721.sol\":1544:1560  isApprovalForAll */\n      0x03\n        /* \"LmPool Ver3.0/ERC721.sol\":1544:1572  isApprovalForAll[msg.sender] */\n      0x00\n        /* \"LmPool Ver3.0/ERC721.sol\":1561:1571  msg.sender */\n      caller\n        /* \"LmPool Ver3.0/ERC721.sol\":1544:1572  isApprovalForAll[msg.sender] */\n      0xffffffffffffffffffffffffffffffffffffffff\n      and\n      0xffffffffffffffffffffffffffffffffffffffff\n      and\n      dup2\n      mstore\n      0x20\n      add\n      swap1\n      dup2\n      mstore\n      0x20\n      add\n      0x00\n      keccak256\n        /* \"LmPool Ver3.0/ERC721.sol\":1544:1582  isApprovalForAll[msg.sender][operator] */\n      0x00\n        /* \"LmPool Ver3.0/ERC721.sol\":1573:1581  operator */\n      dup5\n        /* \"LmPool Ver3.0/ERC721.sol\":1544:1582  isApprovalForAll[msg.sender][operator] */\n      0xffffffffffffffffffffffffffffffffffffffff\n      and\n      0xffffffffffffffffffffffffffffffffffffffff\n      and\n      dup2\n      mstore\n      0x20\n      add\n      swap1\n      dup2\n      mstore\n      0x20\n      add\n      0x00\n      keccak256\n      0x00\n        /* \"LmPool Ver3.0/ERC721.sol\":1544:1594  isApprovalForAll[msg.sender][operator] = _approved */\n      0x0100\n      exp\n      dup2\n      sload\n      dup2\n      0xff\n      mul\n      not\n      and\n      swap1\n      dup4\n      iszero\n      iszero\n      mul\n      or\n      swap1\n      sstore\n      pop\n        /* \"LmPool Ver3.0/ERC721.sol\":1636:1644  operator */\n      dup2\n        /* \"LmPool Ver3.0/ERC721.sol\":1609:1656  ApprovalForAll(msg.sender, operator, _approved) */\n      0xffffffffffffffffffffffffffffffffffffffff\n      and\n        /* \"LmPool Ver3.0/ERC721.sol\":1624:1634  msg.sender */\n      caller\n        /* \"LmPool Ver3.0/ERC721.sol\":1609:1656  ApprovalForAll(msg.sender, operator, _approved) */\n      0xffffffffffffffffffffffffffffffffffffffff\n      and\n      0x17307eab39ab6107e8899845ad3d59bd9653f200f220920489ca2b5937696c31\n        /* \"LmPool Ver3.0/ERC721.sol\":1646:1655  _approved */\n      dup4\n        /* \"LmPool Ver3.0/ERC721.sol\":1609:1656  ApprovalForAll(msg.sender, operator, _approved) */\n      mload(0x40)\n      tag_173\n      swap2\n      swap1\n      tag_30\n      jump\t// in\n    tag_173:\n      mload(0x40)\n      dup1\n      swap2\n      sub\n      swap1\n      log3\n        /* \"LmPool Ver3.0/ERC721.sol\":1464:1663  function setApprovalForAll(address operator, bool _approved) external {... */\n      pop\n      pop\n      jump\t// out\n        /* \"LmPool Ver3.0/ERC721.sol\":3506:4031  function safeTransferFrom(... */\n    tag_84:\n        /* \"LmPool Ver3.0/ERC721.sol\":3653:3684  transferFrom(from, to, tokenId) */\n      tag_175\n        /* \"LmPool Ver3.0/ERC721.sol\":3666:3670  from */\n      dup6\n        /* \"LmPool Ver3.0/ERC721.sol\":3672:3674  to */\n      dup6\n        /* \"LmPool Ver3.0/ERC721.sol\":3676:3683  tokenId */\n      dup6\n        /* \"LmPool Ver3.0/ERC721.sol\":3653:3665  transferFrom */\n      tag_44\n        /* \"LmPool Ver3.0/ERC721.sol\":3653:3684  transferFrom(from, to, tokenId) */\n      jump\t// in\n    tag_175:\n        /* \"LmPool Ver3.0/ERC721.sol\":3733:3734  0 */\n      0x00\n        /* \"LmPool Ver3.0/ERC721.sol\":3715:3717  to */\n      dup5\n        /* \"LmPool Ver3.0/ERC721.sol\":3715:3729  to.code.length */\n      0xffffffffffffffffffffffffffffffffffffffff\n      and\n      extcodesize\n        /* \"LmPool Ver3.0/ERC721.sol\":3715:3734  to.code.length == 0 */\n      eq\n        /* \"LmPool Ver3.0/ERC721.sol\":3715:3982  to.code.length == 0 ||... */\n      dup1\n      tag_176\n      jumpi\n      pop\n        /* \"LmPool Ver3.0/ERC721.sol\":3941:3982  IERC721Receiver.onERC721Received.selector */\n      shl(0xe0, 0x150b7a02)\n        /* \"LmPool Ver3.0/ERC721.sol\":3754:3982  IERC721Receiver(to).onERC721Received(... */\n      not(0xffffffffffffffffffffffffffffffffffffffffffffffffffffffff)\n      and\n        /* \"LmPool Ver3.0/ERC721.sol\":3770:3772  to */\n      dup5\n        /* \"LmPool Ver3.0/ERC721.sol\":3754:3790  IERC721Receiver(to).onERC721Received */\n      0xffffffffffffffffffffffffffffffffffffffff\n      and\n      0x150b7a02\n        /* \"LmPool Ver3.0/ERC721.sol\":3812:3822  msg.sender */\n      caller\n        /* \"LmPool Ver3.0/ERC721.sol\":3844:3848  from */\n      dup9\n        /* \"LmPool Ver3.0/ERC721.sol\":3870:3877  tokenId */\n      dup8\n        /* \"LmPool Ver3.0/ERC721.sol\":3899:3903  data */\n      dup8\n      dup8\n        /* \"LmPool Ver3.0/ERC721.sol\":3754:3921  IERC721Receiver(to).onERC721Received(... */\n      mload(0x40)\n      dup7\n      0xffffffff\n      and\n      0xe0\n      shl\n      dup2\n      mstore\n      0x04\n      add\n      tag_177\n      swap6\n      swap5\n      swap4\n      swap3\n      swap2\n      swap1\n      tag_178\n      jump\t// in\n    tag_177:\n      0x20\n      mload(0x40)\n      dup1\n      dup4\n      sub\n      dup2\n      0x00\n      dup8\n      gas\n      call\n      iszero\n      dup1\n      iszero\n      tag_180\n      jumpi\n      returndatasize\n      0x00\n      dup1\n      returndatacopy\n      revert(0x00, returndatasize)\n    tag_180:\n      pop\n      pop\n      pop\n      pop\n      mload(0x40)\n      returndatasize\n      not(0x1f)\n      0x1f\n      dup3\n      add\n      and\n      dup3\n      add\n      dup1\n      0x40\n      mstore\n      pop\n      dup2\n      add\n      swap1\n      tag_181\n      swap2\n      swap1\n      tag_161\n      jump\t// in\n    tag_181:\n        /* \"LmPool Ver3.0/ERC721.sol\":3754:3982  IERC721Receiver(to).onERC721Received(... */\n      not(0xffffffffffffffffffffffffffffffffffffffffffffffffffffffff)\n      and\n      eq\n        /* \"LmPool Ver3.0/ERC721.sol\":3715:3982  to.code.length == 0 ||... */\n    tag_176:\n        /* \"LmPool Ver3.0/ERC721.sol\":3694:4024  require(... */\n      tag_182\n      jumpi\n      mload(0x40)\n      0x08c379a000000000000000000000000000000000000000000000000000000000\n      dup2\n      mstore\n      0x04\n      add\n      tag_183\n      swap1\n      tag_164\n      jump\t// in\n    tag_183:\n      mload(0x40)\n      dup1\n      swap2\n      sub\n      swap1\n      revert\n    tag_182:\n        /* \"LmPool Ver3.0/ERC721.sol\":3506:4031  function safeTransferFrom(... */\n      pop\n      pop\n      pop\n      pop\n      pop\n      jump\t// out\n        /* \"LmPool Ver3.0/TVNNFTPositionManager.sol\":3482:3626  function getOwnerNFT(address _owner)... */\n    tag_87:\n        /* \"LmPool Ver3.0/TVNNFTPositionManager.sol\":3564:3580  uint256[] memory */\n      0x60\n        /* \"LmPool Ver3.0/TVNNFTPositionManager.sol\":3603:3611  ownerNFT */\n      0x08\n        /* \"LmPool Ver3.0/TVNNFTPositionManager.sol\":3603:3619  ownerNFT[_owner] */\n      0x00\n        /* \"LmPool Ver3.0/TVNNFTPositionManager.sol\":3612:3618  _owner */\n      dup4\n        /* \"LmPool Ver3.0/TVNNFTPositionManager.sol\":3603:3619  ownerNFT[_owner] */\n      0xffffffffffffffffffffffffffffffffffffffff\n      and\n      0xffffffffffffffffffffffffffffffffffffffff\n      and\n      dup2\n      mstore\n      0x20\n      add\n      swap1\n      dup2\n      mstore\n      0x20\n      add\n      0x00\n      keccak256\n        /* \"LmPool Ver3.0/TVNNFTPositionManager.sol\":3596:3619  return ownerNFT[_owner] */\n      dup1\n      sload\n      dup1\n      0x20\n      mul\n      0x20\n      add\n      mload(0x40)\n      swap1\n      dup2\n      add\n      0x40\n      mstore\n      dup1\n      swap3\n      swap2\n      swap1\n      dup2\n      dup2\n      mstore\n      0x20\n      add\n      dup3\n      dup1\n      sload\n      dup1\n      iszero\n      tag_185\n      jumpi\n      0x20\n      mul\n      dup3\n      add\n      swap2\n      swap1\n      0x00\n      mstore\n      keccak256(0x00, 0x20)\n      swap1\n    tag_186:\n      dup2\n      sload\n      dup2\n      mstore\n      0x20\n      add\n      swap1\n      0x01\n      add\n      swap1\n      dup1\n      dup4\n      gt\n      tag_186\n      jumpi\n    tag_185:\n      pop\n      pop\n      pop\n      pop\n      pop\n      swap1\n      pop\n        /* \"LmPool Ver3.0/TVNNFTPositionManager.sol\":3482:3626  function getOwnerNFT(address _owner)... */\n      swap2\n      swap1\n      pop\n      jump\t// out\n        /* \"LmPool Ver3.0/TVNNFTPositionManager.sol\":592:637  mapping(address => uint256[]) public ownerNFT */\n    tag_92:\n      mstore(0x20, 0x08)\n      dup2\n      0x00\n      mstore\n      keccak256(0x00, 0x40)\n      dup2\n      dup2\n      sload\n      dup2\n      lt\n      tag_187\n      jumpi\n      0x00\n      dup1\n      revert\n    tag_187:\n      swap1\n      0x00\n      mstore\n      keccak256(0x00, 0x20)\n      add\n      0x00\n      swap2\n      pop\n      swap2\n      pop\n      pop\n      sload\n      dup2\n      jump\t// out\n        /* \"LmPool Ver3.0/ERC721.sol\":782:850  mapping(address => mapping(address => bool)) public isApprovalForAll */\n    tag_97:\n      mstore(0x20, 0x03)\n      dup2\n      0x00\n      mstore\n      mstore(0x20, keccak256(0x00, 0x40))\n      dup1\n      0x00\n      mstore\n      keccak256(0x00, 0x40)\n      0x00\n      swap2\n      pop\n      swap2\n      pop\n      swap1\n      sload\n      swap1\n      0x0100\n      exp\n      swap1\n      div\n      0xff\n      and\n      dup2\n      jump\t// out\n        /* \"LmPool Ver3.0/TVNNFTPositionManager.sol\":2339:2575  function burnPosition(uint256 _tokenId, address _from) external {... */\n    tag_102:\n        /* \"LmPool Ver3.0/TVNNFTPositionManager.sol\":2430:2438  _ownerOf */\n      0x00\n        /* \"LmPool Ver3.0/TVNNFTPositionManager.sol\":2430:2448  _ownerOf[_tokenId] */\n      dup1\n        /* \"LmPool Ver3.0/TVNNFTPositionManager.sol\":2439:2447  _tokenId */\n      dup4\n        /* \"LmPool Ver3.0/TVNNFTPositionManager.sol\":2430:2448  _ownerOf[_tokenId] */\n      dup2\n      mstore\n      0x20\n      add\n      swap1\n      dup2\n      mstore\n      0x20\n      add\n      0x00\n      keccak256\n      0x00\n      swap1\n      sload\n      swap1\n      0x0100\n      exp\n      swap1\n      div\n      0xffffffffffffffffffffffffffffffffffffffff\n      and\n        /* \"LmPool Ver3.0/TVNNFTPositionManager.sol\":2421:2448  _from == _ownerOf[_tokenId] */\n      0xffffffffffffffffffffffffffffffffffffffff\n      and\n        /* \"LmPool Ver3.0/TVNNFTPositionManager.sol\":2421:2426  _from */\n      dup2\n        /* \"LmPool Ver3.0/TVNNFTPositionManager.sol\":2421:2448  _from == _ownerOf[_tokenId] */\n      0xffffffffffffffffffffffffffffffffffffffff\n      and\n      eq\n        /* \"LmPool Ver3.0/TVNNFTPositionManager.sol\":2413:2462  require(_from == _ownerOf[_tokenId], \"not Owner\") */\n      tag_190\n      jumpi\n      mload(0x40)\n      0x08c379a000000000000000000000000000000000000000000000000000000000\n      dup2\n      mstore\n      0x04\n      add\n      tag_191\n      swap1\n      tag_192\n      jump\t// in\n    tag_191:\n      mload(0x40)\n      dup1\n      swap2\n      sub\n      swap1\n      revert\n    tag_190:\n        /* \"LmPool Ver3.0/TVNNFTPositionManager.sol\":2472:2487  _burn(_tokenId) */\n      tag_193\n        /* \"LmPool Ver3.0/TVNNFTPositionManager.sol\":2478:2486  _tokenId */\n      dup3\n        /* \"LmPool Ver3.0/TVNNFTPositionManager.sol\":2472:2477  _burn */\n      tag_194\n        /* \"LmPool Ver3.0/TVNNFTPositionManager.sol\":2472:2487  _burn(_tokenId) */\n      jump\t// in\n    tag_193:\n        /* \"LmPool Ver3.0/TVNNFTPositionManager.sol\":2498:2531  _removeFromArray(_tokenId, _from) */\n      tag_195\n        /* \"LmPool Ver3.0/TVNNFTPositionManager.sol\":2515:2523  _tokenId */\n      dup3\n        /* \"LmPool Ver3.0/TVNNFTPositionManager.sol\":2525:2530  _from */\n      dup3\n        /* \"LmPool Ver3.0/TVNNFTPositionManager.sol\":2498:2514  _removeFromArray */\n      tag_138\n        /* \"LmPool Ver3.0/TVNNFTPositionManager.sol\":2498:2531  _removeFromArray(_tokenId, _from) */\n      jump\t// in\n    tag_195:\n        /* \"LmPool Ver3.0/TVNNFTPositionManager.sol\":2549:2558  positions */\n      0x07\n        /* \"LmPool Ver3.0/TVNNFTPositionManager.sol\":2549:2568  positions[_tokenId] */\n      0x00\n        /* \"LmPool Ver3.0/TVNNFTPositionManager.sol\":2559:2567  _tokenId */\n      dup4\n        /* \"LmPool Ver3.0/TVNNFTPositionManager.sol\":2549:2568  positions[_tokenId] */\n      dup2\n      mstore\n      0x20\n      add\n      swap1\n      dup2\n      mstore\n      0x20\n      add\n      0x00\n      keccak256\n      0x00\n        /* \"LmPool Ver3.0/TVNNFTPositionManager.sol\":2542:2568  delete positions[_tokenId] */\n      dup1\n      dup3\n      add\n      0x00\n      swap1\n      sstore\n      0x01\n      dup3\n      add\n      exp(0x0100, 0x00)\n      dup2\n      sload\n      swap1\n      0xffffffffffffffffffffffffffffffffffffffff\n      mul\n      not\n      and\n      swap1\n      sstore\n      0x02\n      dup3\n      add\n      exp(0x0100, 0x00)\n      dup2\n      sload\n      swap1\n      0xffffffffffffffffffffffffffffffffffffffff\n      mul\n      not\n      and\n      swap1\n      sstore\n      0x03\n      dup3\n      add\n      exp(0x0100, 0x00)\n      dup2\n      sload\n      swap1\n      0xffffffffffffffffffffffffffffffffffffffff\n      mul\n      not\n      and\n      swap1\n      sstore\n      0x04\n      dup3\n      add\n      0x00\n      swap1\n      sstore\n      0x05\n      dup3\n      add\n      0x00\n      swap1\n      sstore\n      0x06\n      dup3\n      add\n      0x00\n      swap1\n      sstore\n      0x07\n      dup3\n      add\n      exp(0x0100, 0x00)\n      dup2\n      sload\n      swap1\n      0xffffffffffffffffffffffffffffffffffffffff\n      mul\n      not\n      and\n      swap1\n      sstore\n      0x08\n      dup3\n      add\n      exp(0x0100, 0x00)\n      dup2\n      sload\n      swap1\n      0xffffffffffffffffffffffffffffffffffffffff\n      mul\n      not\n      and\n      swap1\n      sstore\n      0x09\n      dup3\n      add\n      exp(0x0100, 0x00)\n      dup2\n      sload\n      swap1\n      0xffffffffffffffffffffffffffffffff\n      mul\n      not\n      and\n      swap1\n      sstore\n      pop\n      pop\n        /* \"LmPool Ver3.0/TVNNFTPositionManager.sol\":2339:2575  function burnPosition(uint256 _tokenId, address _from) external {... */\n      pop\n      pop\n      jump\t// out\n        /* \"LmPool Ver3.0/TVNNFTPositionManager.sol\":837:1581  function mintParams(... */\n    tag_106:\n        /* \"LmPool Ver3.0/TVNNFTPositionManager.sol\":1148:1167  PositionInfo memory */\n      tag_196\n      tag_197\n      jump\t// in\n    tag_196:\n        /* \"LmPool Ver3.0/TVNNFTPositionManager.sol\":1179:1207  PositionInfo memory position */\n      0x00\n        /* \"LmPool Ver3.0/TVNNFTPositionManager.sol\":1210:1548  PositionInfo({... */\n      mload(0x40)\n      dup1\n      0x0140\n      add\n      0x40\n      mstore\n      dup1\n        /* \"LmPool Ver3.0/TVNNFTPositionManager.sol\":1245:1252  _shares */\n      dup14\n        /* \"LmPool Ver3.0/TVNNFTPositionManager.sol\":1210:1548  PositionInfo({... */\n      dup2\n      mstore\n      0x20\n      add\n        /* \"LmPool Ver3.0/TVNNFTPositionManager.sol\":1273:1279  _owner */\n      dup13\n        /* \"LmPool Ver3.0/TVNNFTPositionManager.sol\":1210:1548  PositionInfo({... */\n      0xffffffffffffffffffffffffffffffffffffffff\n      and\n      dup2\n      mstore\n      0x20\n      add\n        /* \"LmPool Ver3.0/TVNNFTPositionManager.sol\":1301:1308  _token0 */\n      dup12\n        /* \"LmPool Ver3.0/TVNNFTPositionManager.sol\":1210:1548  PositionInfo({... */\n      0xffffffffffffffffffffffffffffffffffffffff\n      and\n      dup2\n      mstore\n      0x20\n      add\n        /* \"LmPool Ver3.0/TVNNFTPositionManager.sol\":1330:1337  _token1 */\n      dup11\n        /* \"LmPool Ver3.0/TVNNFTPositionManager.sol\":1210:1548  PositionInfo({... */\n      0xffffffffffffffffffffffffffffffffffffffff\n      and\n      dup2\n      mstore\n      0x20\n      add\n        /* \"LmPool Ver3.0/TVNNFTPositionManager.sol\":1356:1360  _fee */\n      dup10\n        /* \"LmPool Ver3.0/TVNNFTPositionManager.sol\":1210:1548  PositionInfo({... */\n      dup2\n      mstore\n      0x20\n      add\n        /* \"LmPool Ver3.0/TVNNFTPositionManager.sol\":1383:1391  _amount0 */\n      dup9\n        /* \"LmPool Ver3.0/TVNNFTPositionManager.sol\":1210:1548  PositionInfo({... */\n      dup2\n      mstore\n      0x20\n      add\n        /* \"LmPool Ver3.0/TVNNFTPositionManager.sol\":1414:1422  _amount1 */\n      dup8\n        /* \"LmPool Ver3.0/TVNNFTPositionManager.sol\":1210:1548  PositionInfo({... */\n      dup2\n      mstore\n      0x20\n      add\n        /* \"LmPool Ver3.0/TVNNFTPositionManager.sol\":1447:1457  _upperTick */\n      dup7\n        /* \"LmPool Ver3.0/TVNNFTPositionManager.sol\":1210:1548  PositionInfo({... */\n      0xffffffffffffffffffffffffffffffffffffffff\n      and\n      dup2\n      mstore\n      0x20\n      add\n        /* \"LmPool Ver3.0/TVNNFTPositionManager.sol\":1482:1492  _lowerTick */\n      dup6\n        /* \"LmPool Ver3.0/TVNNFTPositionManager.sol\":1210:1548  PositionInfo({... */\n      0xffffffffffffffffffffffffffffffffffffffff\n      and\n      dup2\n      mstore\n      0x20\n      add\n        /* \"LmPool Ver3.0/TVNNFTPositionManager.sol\":1522:1537  _deltaLiquidity */\n      dup5\n        /* \"LmPool Ver3.0/TVNNFTPositionManager.sol\":1210:1548  PositionInfo({... */\n      0xffffffffffffffffffffffffffffffff\n      and\n      dup2\n      mstore\n      pop\n        /* \"LmPool Ver3.0/TVNNFTPositionManager.sol\":1179:1548  PositionInfo memory position = PositionInfo({... */\n      swap1\n      pop\n        /* \"LmPool Ver3.0/TVNNFTPositionManager.sol\":1566:1574  position */\n      dup1\n        /* \"LmPool Ver3.0/TVNNFTPositionManager.sol\":1559:1574  return position */\n      swap2\n      pop\n      pop\n        /* \"LmPool Ver3.0/TVNNFTPositionManager.sol\":837:1581  function mintParams(... */\n      swap11\n      swap10\n      pop\n      pop\n      pop\n      pop\n      pop\n      pop\n      pop\n      pop\n      pop\n      pop\n      jump\t// out\n        /* \"LmPool Ver3.0/ERC721.sol\":2215:2487  function _isApprovedOrOwner(... */\n    tag_128:\n        /* \"LmPool Ver3.0/ERC721.sol\":2345:2349  bool */\n      0x00\n        /* \"LmPool Ver3.0/ERC721.sol\":2380:2385  owner */\n      dup4\n        /* \"LmPool Ver3.0/ERC721.sol\":2369:2385  spender == owner */\n      0xffffffffffffffffffffffffffffffffffffffff\n      and\n        /* \"LmPool Ver3.0/ERC721.sol\":2369:2376  spender */\n      dup4\n        /* \"LmPool Ver3.0/ERC721.sol\":2369:2385  spender == owner */\n      0xffffffffffffffffffffffffffffffffffffffff\n      and\n      eq\n        /* \"LmPool Ver3.0/ERC721.sol\":2369:2433  spender == owner ||... */\n      dup1\n      tag_200\n      jumpi\n      pop\n        /* \"LmPool Ver3.0/ERC721.sol\":2401:2417  isApprovalForAll */\n      0x03\n        /* \"LmPool Ver3.0/ERC721.sol\":2401:2424  isApprovalForAll[owner] */\n      0x00\n        /* \"LmPool Ver3.0/ERC721.sol\":2418:2423  owner */\n      dup6\n        /* \"LmPool Ver3.0/ERC721.sol\":2401:2424  isApprovalForAll[owner] */\n      0xffffffffffffffffffffffffffffffffffffffff\n      and\n      0xffffffffffffffffffffffffffffffffffffffff\n      and\n      dup2\n      mstore\n      0x20\n      add\n      swap1\n      dup2\n      mstore\n      0x20\n      add\n      0x00\n      keccak256\n        /* \"LmPool Ver3.0/ERC721.sol\":2401:2433  isApprovalForAll[owner][spender] */\n      0x00\n        /* \"LmPool Ver3.0/ERC721.sol\":2425:2432  spender */\n      dup5\n        /* \"LmPool Ver3.0/ERC721.sol\":2401:2433  isApprovalForAll[owner][spender] */\n      0xffffffffffffffffffffffffffffffffffffffff\n      and\n      0xffffffffffffffffffffffffffffffffffffffff\n      and\n      dup2\n      mstore\n      0x20\n      add\n      swap1\n      dup2\n      mstore\n      0x20\n      add\n      0x00\n      keccak256\n      0x00\n      swap1\n      sload\n      swap1\n      0x0100\n      exp\n      swap1\n      div\n      0xff\n      and\n        /* \"LmPool Ver3.0/ERC721.sol\":2369:2433  spender == owner ||... */\n    tag_200:\n        /* \"LmPool Ver3.0/ERC721.sol\":2369:2479  spender == owner ||... */\n      dup1\n      tag_201\n      jumpi\n      pop\n        /* \"LmPool Ver3.0/ERC721.sol\":2460:2470  _approvals */\n      0x02\n        /* \"LmPool Ver3.0/ERC721.sol\":2460:2479  _approvals[tokenId] */\n      0x00\n        /* \"LmPool Ver3.0/ERC721.sol\":2471:2478  tokenId */\n      dup4\n        /* \"LmPool Ver3.0/ERC721.sol\":2460:2479  _approvals[tokenId] */\n      dup2\n      mstore\n      0x20\n      add\n      swap1\n      dup2\n      mstore\n      0x20\n      add\n      0x00\n      keccak256\n      0x00\n      swap1\n      sload\n      swap1\n      0x0100\n      exp\n      swap1\n      div\n      0xffffffffffffffffffffffffffffffffffffffff\n      and\n        /* \"LmPool Ver3.0/ERC721.sol\":2449:2479  spender == _approvals[tokenId] */\n      0xffffffffffffffffffffffffffffffffffffffff\n      and\n        /* \"LmPool Ver3.0/ERC721.sol\":2449:2456  spender */\n      dup4\n        /* \"LmPool Ver3.0/ERC721.sol\":2449:2479  spender == _approvals[tokenId] */\n      0xffffffffffffffffffffffffffffffffffffffff\n      and\n      eq\n        /* \"LmPool Ver3.0/ERC721.sol\":2369:2479  spender == owner ||... */\n    tag_201:\n        /* \"LmPool Ver3.0/ERC721.sol\":2361:2480  return (spender == owner ||... */\n      swap1\n      pop\n        /* \"LmPool Ver3.0/ERC721.sol\":2215:2487  function _isApprovedOrOwner(... */\n      swap4\n      swap3\n      pop\n      pop\n      pop\n      jump\t// out\n        /* \"LmPool Ver3.0/TVNNFTPositionManager.sol\":2895:3476  function _removeFromArray(uint256 _tokenId, address _from) private {... */\n    tag_138:\n        /* \"LmPool Ver3.0/TVNNFTPositionManager.sol\":2972:2985  uint256 index */\n      0x00\n        /* \"LmPool Ver3.0/TVNNFTPositionManager.sol\":2988:3003  indexOfOwnerNFT */\n      0x09\n        /* \"LmPool Ver3.0/TVNNFTPositionManager.sol\":2988:3010  indexOfOwnerNFT[_from] */\n      0x00\n        /* \"LmPool Ver3.0/TVNNFTPositionManager.sol\":3004:3009  _from */\n      dup4\n        /* \"LmPool Ver3.0/TVNNFTPositionManager.sol\":2988:3010  indexOfOwnerNFT[_from] */\n      0xffffffffffffffffffffffffffffffffffffffff\n      and\n      0xffffffffffffffffffffffffffffffffffffffff\n      and\n      dup2\n      mstore\n      0x20\n      add\n      swap1\n      dup2\n      mstore\n      0x20\n      add\n      0x00\n      keccak256\n        /* \"LmPool Ver3.0/TVNNFTPositionManager.sol\":2988:3020  indexOfOwnerNFT[_from][_tokenId] */\n      0x00\n        /* \"LmPool Ver3.0/TVNNFTPositionManager.sol\":3011:3019  _tokenId */\n      dup5\n        /* \"LmPool Ver3.0/TVNNFTPositionManager.sol\":2988:3020  indexOfOwnerNFT[_from][_tokenId] */\n      dup2\n      mstore\n      0x20\n      add\n      swap1\n      dup2\n      mstore\n      0x20\n      add\n      0x00\n      keccak256\n      sload\n        /* \"LmPool Ver3.0/TVNNFTPositionManager.sol\":2972:3020  uint256 index = indexOfOwnerNFT[_from][_tokenId] */\n      swap1\n      pop\n        /* \"LmPool Ver3.0/TVNNFTPositionManager.sol\":3030:3044  uint256 length */\n      0x00\n        /* \"LmPool Ver3.0/TVNNFTPositionManager.sol\":3047:3055  ownerNFT */\n      0x08\n        /* \"LmPool Ver3.0/TVNNFTPositionManager.sol\":3047:3062  ownerNFT[_from] */\n      0x00\n        /* \"LmPool Ver3.0/TVNNFTPositionManager.sol\":3056:3061  _from */\n      dup5\n        /* \"LmPool Ver3.0/TVNNFTPositionManager.sol\":3047:3062  ownerNFT[_from] */\n      0xffffffffffffffffffffffffffffffffffffffff\n      and\n      0xffffffffffffffffffffffffffffffffffffffff\n      and\n      dup2\n      mstore\n      0x20\n      add\n      swap1\n      dup2\n      mstore\n      0x20\n      add\n      0x00\n      keccak256\n        /* \"LmPool Ver3.0/TVNNFTPositionManager.sol\":3047:3069  ownerNFT[_from].length */\n      dup1\n      sload\n      swap1\n      pop\n        /* \"LmPool Ver3.0/TVNNFTPositionManager.sol\":3030:3069  uint256 length = ownerNFT[_from].length */\n      swap1\n      pop\n        /* \"LmPool Ver3.0/TVNNFTPositionManager.sol\":3094:3095  1 */\n      0x01\n        /* \"LmPool Ver3.0/TVNNFTPositionManager.sol\":3084:3090  length */\n      dup2\n        /* \"LmPool Ver3.0/TVNNFTPositionManager.sol\":3084:3095  length == 1 */\n      sub\n        /* \"LmPool Ver3.0/TVNNFTPositionManager.sol\":3080:3470  if (length == 1) {... */\n      tag_203\n      jumpi\n        /* \"LmPool Ver3.0/TVNNFTPositionManager.sol\":3118:3126  ownerNFT */\n      0x08\n        /* \"LmPool Ver3.0/TVNNFTPositionManager.sol\":3118:3133  ownerNFT[_from] */\n      0x00\n        /* \"LmPool Ver3.0/TVNNFTPositionManager.sol\":3127:3132  _from */\n      dup5\n        /* \"LmPool Ver3.0/TVNNFTPositionManager.sol\":3118:3133  ownerNFT[_from] */\n      0xffffffffffffffffffffffffffffffffffffffff\n      and\n      0xffffffffffffffffffffffffffffffffffffffff\n      and\n      dup2\n      mstore\n      0x20\n      add\n      swap1\n      dup2\n      mstore\n      0x20\n      add\n      0x00\n      keccak256\n      0x00\n        /* \"LmPool Ver3.0/TVNNFTPositionManager.sol\":3111:3133  delete ownerNFT[_from] */\n      tag_204\n      swap2\n      swap1\n      tag_205\n      jump\t// in\n    tag_204:\n        /* \"LmPool Ver3.0/TVNNFTPositionManager.sol\":3182:3183  0 */\n      0x00\n        /* \"LmPool Ver3.0/TVNNFTPositionManager.sol\":3147:3162  indexOfOwnerNFT */\n      0x09\n        /* \"LmPool Ver3.0/TVNNFTPositionManager.sol\":3147:3169  indexOfOwnerNFT[_from] */\n      0x00\n        /* \"LmPool Ver3.0/TVNNFTPositionManager.sol\":3163:3168  _from */\n      dup6\n        /* \"LmPool Ver3.0/TVNNFTPositionManager.sol\":3147:3169  indexOfOwnerNFT[_from] */\n      0xffffffffffffffffffffffffffffffffffffffff\n      and\n      0xffffffffffffffffffffffffffffffffffffffff\n      and\n      dup2\n      mstore\n      0x20\n      add\n      swap1\n      dup2\n      mstore\n      0x20\n      add\n      0x00\n      keccak256\n        /* \"LmPool Ver3.0/TVNNFTPositionManager.sol\":3147:3179  indexOfOwnerNFT[_from][_tokenId] */\n      0x00\n        /* \"LmPool Ver3.0/TVNNFTPositionManager.sol\":3170:3178  _tokenId */\n      dup7\n        /* \"LmPool Ver3.0/TVNNFTPositionManager.sol\":3147:3179  indexOfOwnerNFT[_from][_tokenId] */\n      dup2\n      mstore\n      0x20\n      add\n      swap1\n      dup2\n      mstore\n      0x20\n      add\n      0x00\n      keccak256\n        /* \"LmPool Ver3.0/TVNNFTPositionManager.sol\":3147:3183  indexOfOwnerNFT[_from][_tokenId] = 0 */\n      dup2\n      swap1\n      sstore\n      pop\n        /* \"LmPool Ver3.0/TVNNFTPositionManager.sol\":3080:3470  if (length == 1) {... */\n      jump(tag_206)\n    tag_203:\n        /* \"LmPool Ver3.0/TVNNFTPositionManager.sol\":3214:3233  uint256 lastTokenId */\n      0x00\n        /* \"LmPool Ver3.0/TVNNFTPositionManager.sol\":3236:3244  ownerNFT */\n      0x08\n        /* \"LmPool Ver3.0/TVNNFTPositionManager.sol\":3236:3251  ownerNFT[_from] */\n      0x00\n        /* \"LmPool Ver3.0/TVNNFTPositionManager.sol\":3245:3250  _from */\n      dup6\n        /* \"LmPool Ver3.0/TVNNFTPositionManager.sol\":3236:3251  ownerNFT[_from] */\n      0xffffffffffffffffffffffffffffffffffffffff\n      and\n      0xffffffffffffffffffffffffffffffffffffffff\n      and\n      dup2\n      mstore\n      0x20\n      add\n      swap1\n      dup2\n      mstore\n      0x20\n      add\n      0x00\n      keccak256\n        /* \"LmPool Ver3.0/TVNNFTPositionManager.sol\":3261:3262  1 */\n      0x01\n        /* \"LmPool Ver3.0/TVNNFTPositionManager.sol\":3252:3258  length */\n      dup4\n        /* \"LmPool Ver3.0/TVNNFTPositionManager.sol\":3252:3262  length - 1 */\n      tag_207\n      swap2\n      swap1\n      tag_208\n      jump\t// in\n    tag_207:\n        /* \"LmPool Ver3.0/TVNNFTPositionManager.sol\":3236:3263  ownerNFT[_from][length - 1] */\n      dup2\n      sload\n      dup2\n      lt\n      tag_209\n      jumpi\n      tag_210\n      tag_211\n      jump\t// in\n    tag_210:\n    tag_209:\n      swap1\n      0x00\n      mstore\n      keccak256(0x00, 0x20)\n      add\n      sload\n        /* \"LmPool Ver3.0/TVNNFTPositionManager.sol\":3214:3263  uint256 lastTokenId = ownerNFT[_from][length - 1] */\n      swap1\n      pop\n        /* \"LmPool Ver3.0/TVNNFTPositionManager.sol\":3306:3317  lastTokenId */\n      dup1\n        /* \"LmPool Ver3.0/TVNNFTPositionManager.sol\":3277:3285  ownerNFT */\n      0x08\n        /* \"LmPool Ver3.0/TVNNFTPositionManager.sol\":3277:3292  ownerNFT[_from] */\n      0x00\n        /* \"LmPool Ver3.0/TVNNFTPositionManager.sol\":3286:3291  _from */\n      dup7\n        /* \"LmPool Ver3.0/TVNNFTPositionManager.sol\":3277:3292  ownerNFT[_from] */\n      0xffffffffffffffffffffffffffffffffffffffff\n      and\n      0xffffffffffffffffffffffffffffffffffffffff\n      and\n      dup2\n      mstore\n      0x20\n      add\n      swap1\n      dup2\n      mstore\n      0x20\n      add\n      0x00\n      keccak256\n        /* \"LmPool Ver3.0/TVNNFTPositionManager.sol\":3301:3302  1 */\n      0x01\n        /* \"LmPool Ver3.0/TVNNFTPositionManager.sol\":3293:3298  index */\n      dup6\n        /* \"LmPool Ver3.0/TVNNFTPositionManager.sol\":3293:3302  index - 1 */\n      tag_213\n      swap2\n      swap1\n      tag_208\n      jump\t// in\n    tag_213:\n        /* \"LmPool Ver3.0/TVNNFTPositionManager.sol\":3277:3303  ownerNFT[_from][index - 1] */\n      dup2\n      sload\n      dup2\n      lt\n      tag_214\n      jumpi\n      tag_215\n      tag_211\n      jump\t// in\n    tag_215:\n    tag_214:\n      swap1\n      0x00\n      mstore\n      keccak256(0x00, 0x20)\n      add\n        /* \"LmPool Ver3.0/TVNNFTPositionManager.sol\":3277:3317  ownerNFT[_from][index - 1] = lastTokenId */\n      dup2\n      swap1\n      sstore\n      pop\n        /* \"LmPool Ver3.0/TVNNFTPositionManager.sol\":3331:3339  ownerNFT */\n      0x08\n        /* \"LmPool Ver3.0/TVNNFTPositionManager.sol\":3331:3346  ownerNFT[_from] */\n      0x00\n        /* \"LmPool Ver3.0/TVNNFTPositionManager.sol\":3340:3345  _from */\n      dup6\n        /* \"LmPool Ver3.0/TVNNFTPositionManager.sol\":3331:3346  ownerNFT[_from] */\n      0xffffffffffffffffffffffffffffffffffffffff\n      and\n      0xffffffffffffffffffffffffffffffffffffffff\n      and\n      dup2\n      mstore\n      0x20\n      add\n      swap1\n      dup2\n      mstore\n      0x20\n      add\n      0x00\n      keccak256\n        /* \"LmPool Ver3.0/TVNNFTPositionManager.sol\":3331:3352  ownerNFT[_from].pop() */\n      dup1\n      sload\n      dup1\n      tag_217\n      jumpi\n      tag_218\n      tag_219\n      jump\t// in\n    tag_218:\n    tag_217:\n      0x01\n      swap1\n      sub\n      dup2\n      dup2\n      swap1\n      0x00\n      mstore\n      keccak256(0x00, 0x20)\n      add\n      0x00\n      swap1\n      sstore\n      swap1\n      sstore\n        /* \"LmPool Ver3.0/TVNNFTPositionManager.sol\":3404:3409  index */\n      dup3\n        /* \"LmPool Ver3.0/TVNNFTPositionManager.sol\":3366:3381  indexOfOwnerNFT */\n      0x09\n        /* \"LmPool Ver3.0/TVNNFTPositionManager.sol\":3366:3388  indexOfOwnerNFT[_from] */\n      0x00\n        /* \"LmPool Ver3.0/TVNNFTPositionManager.sol\":3382:3387  _from */\n      dup7\n        /* \"LmPool Ver3.0/TVNNFTPositionManager.sol\":3366:3388  indexOfOwnerNFT[_from] */\n      0xffffffffffffffffffffffffffffffffffffffff\n      and\n      0xffffffffffffffffffffffffffffffffffffffff\n      and\n      dup2\n      mstore\n      0x20\n      add\n      swap1\n      dup2\n      mstore\n      0x20\n      add\n      0x00\n      keccak256\n        /* \"LmPool Ver3.0/TVNNFTPositionManager.sol\":3366:3401  indexOfOwnerNFT[_from][lastTokenId] */\n      0x00\n        /* \"LmPool Ver3.0/TVNNFTPositionManager.sol\":3389:3400  lastTokenId */\n      dup4\n        /* \"LmPool Ver3.0/TVNNFTPositionManager.sol\":3366:3401  indexOfOwnerNFT[_from][lastTokenId] */\n      dup2\n      mstore\n      0x20\n      add\n      swap1\n      dup2\n      mstore\n      0x20\n      add\n      0x00\n      keccak256\n        /* \"LmPool Ver3.0/TVNNFTPositionManager.sol\":3366:3409  indexOfOwnerNFT[_from][lastTokenId] = index */\n      dup2\n      swap1\n      sstore\n      pop\n        /* \"LmPool Ver3.0/TVNNFTPositionManager.sol\":3458:3459  0 */\n      0x00\n        /* \"LmPool Ver3.0/TVNNFTPositionManager.sol\":3423:3438  indexOfOwnerNFT */\n      0x09\n        /* \"LmPool Ver3.0/TVNNFTPositionManager.sol\":3423:3445  indexOfOwnerNFT[_from] */\n      0x00\n        /* \"LmPool Ver3.0/TVNNFTPositionManager.sol\":3439:3444  _from */\n      dup7\n        /* \"LmPool Ver3.0/TVNNFTPositionManager.sol\":3423:3445  indexOfOwnerNFT[_from] */\n      0xffffffffffffffffffffffffffffffffffffffff\n      and\n      0xffffffffffffffffffffffffffffffffffffffff\n      and\n      dup2\n      mstore\n      0x20\n      add\n      swap1\n      dup2\n      mstore\n      0x20\n      add\n      0x00\n      keccak256\n        /* \"LmPool Ver3.0/TVNNFTPositionManager.sol\":3423:3455  indexOfOwnerNFT[_from][_tokenId] */\n      0x00\n        /* \"LmPool Ver3.0/TVNNFTPositionManager.sol\":3446:3454  _tokenId */\n      dup8\n        /* \"LmPool Ver3.0/TVNNFTPositionManager.sol\":3423:3455  indexOfOwnerNFT[_from][_tokenId] */\n      dup2\n      mstore\n      0x20\n      add\n      swap1\n      dup2\n      mstore\n      0x20\n      add\n      0x00\n      keccak256\n        /* \"LmPool Ver3.0/TVNNFTPositionManager.sol\":3423:3459  indexOfOwnerNFT[_from][_tokenId] = 0 */\n      dup2\n      swap1\n      sstore\n      pop\n        /* \"LmPool Ver3.0/TVNNFTPositionManager.sol\":3200:3470  {... */\n      pop\n        /* \"LmPool Ver3.0/TVNNFTPositionManager.sol\":3080:3470  if (length == 1) {... */\n    tag_206:\n        /* \"LmPool Ver3.0/TVNNFTPositionManager.sol\":2962:3476  {... */\n      pop\n      pop\n        /* \"LmPool Ver3.0/TVNNFTPositionManager.sol\":2895:3476  function _removeFromArray(uint256 _tokenId, address _from) private {... */\n      pop\n      pop\n      jump\t// out\n        /* \"LmPool Ver3.0/ERC721.sol\":4037:4332  function _mint(address to, uint tokenId) internal {... */\n    tag_142:\n        /* \"LmPool Ver3.0/ERC721.sol\":4119:4120  0 */\n      0x00\n        /* \"LmPool Ver3.0/ERC721.sol\":4105:4121  to != address(0) */\n      0xffffffffffffffffffffffffffffffffffffffff\n      and\n        /* \"LmPool Ver3.0/ERC721.sol\":4105:4107  to */\n      dup3\n        /* \"LmPool Ver3.0/ERC721.sol\":4105:4121  to != address(0) */\n      0xffffffffffffffffffffffffffffffffffffffff\n      and\n      sub\n        /* \"LmPool Ver3.0/ERC721.sol\":4097:4143  require(to != address(0), \"to = zero address\") */\n      tag_222\n      jumpi\n      mload(0x40)\n      0x08c379a000000000000000000000000000000000000000000000000000000000\n      dup2\n      mstore\n      0x04\n      add\n      tag_223\n      swap1\n      tag_126\n      jump\t// in\n    tag_223:\n      mload(0x40)\n      dup1\n      swap2\n      sub\n      swap1\n      revert\n    tag_222:\n        /* \"LmPool Ver3.0/ERC721.sol\":4190:4191  0 */\n      0x00\n        /* \"LmPool Ver3.0/ERC721.sol\":4161:4192  _ownerOf[tokenId] == address(0) */\n      0xffffffffffffffffffffffffffffffffffffffff\n      and\n        /* \"LmPool Ver3.0/ERC721.sol\":4161:4169  _ownerOf */\n      0x00\n        /* \"LmPool Ver3.0/ERC721.sol\":4161:4178  _ownerOf[tokenId] */\n      dup1\n        /* \"LmPool Ver3.0/ERC721.sol\":4170:4177  tokenId */\n      dup4\n        /* \"LmPool Ver3.0/ERC721.sol\":4161:4178  _ownerOf[tokenId] */\n      dup2\n      mstore\n      0x20\n      add\n      swap1\n      dup2\n      mstore\n      0x20\n      add\n      0x00\n      keccak256\n      0x00\n      swap1\n      sload\n      swap1\n      0x0100\n      exp\n      swap1\n      div\n      0xffffffffffffffffffffffffffffffffffffffff\n      and\n        /* \"LmPool Ver3.0/ERC721.sol\":4161:4192  _ownerOf[tokenId] == address(0) */\n      0xffffffffffffffffffffffffffffffffffffffff\n      and\n      eq\n        /* \"LmPool Ver3.0/ERC721.sol\":4153:4209  require(_ownerOf[tokenId] == address(0), \"token exists\") */\n      tag_224\n      jumpi\n      mload(0x40)\n      0x08c379a000000000000000000000000000000000000000000000000000000000\n      dup2\n      mstore\n      0x04\n      add\n      tag_225\n      swap1\n      tag_226\n      jump\t// in\n    tag_225:\n      mload(0x40)\n      dup1\n      swap2\n      sub\n      swap1\n      revert\n    tag_224:\n        /* \"LmPool Ver3.0/ERC721.sol\":4220:4230  _balanceOf */\n      0x01\n        /* \"LmPool Ver3.0/ERC721.sol\":4220:4234  _balanceOf[to] */\n      0x00\n        /* \"LmPool Ver3.0/ERC721.sol\":4231:4233  to */\n      dup4\n        /* \"LmPool Ver3.0/ERC721.sol\":4220:4234  _balanceOf[to] */\n      0xffffffffffffffffffffffffffffffffffffffff\n      and\n      0xffffffffffffffffffffffffffffffffffffffff\n      and\n      dup2\n      mstore\n      0x20\n      add\n      swap1\n      dup2\n      mstore\n      0x20\n      add\n      0x00\n      keccak256\n      0x00\n        /* \"LmPool Ver3.0/ERC721.sol\":4220:4236  _balanceOf[to]++ */\n      dup2\n      sload\n      dup1\n      swap3\n      swap2\n      swap1\n      tag_227\n      swap1\n      tag_134\n      jump\t// in\n    tag_227:\n      swap2\n      swap1\n      pop\n      sstore\n      pop\n        /* \"LmPool Ver3.0/ERC721.sol\":4266:4268  to */\n      dup2\n        /* \"LmPool Ver3.0/ERC721.sol\":4246:4254  _ownerOf */\n      0x00\n        /* \"LmPool Ver3.0/ERC721.sol\":4246:4263  _ownerOf[tokenId] */\n      dup1\n        /* \"LmPool Ver3.0/ERC721.sol\":4255:4262  tokenId */\n      dup4\n        /* \"LmPool Ver3.0/ERC721.sol\":4246:4263  _ownerOf[tokenId] */\n      dup2\n      mstore\n      0x20\n      add\n      swap1\n      dup2\n      mstore\n      0x20\n      add\n      0x00\n      keccak256\n      0x00\n        /* \"LmPool Ver3.0/ERC721.sol\":4246:4268  _ownerOf[tokenId] = to */\n      0x0100\n      exp\n      dup2\n      sload\n      dup2\n      0xffffffffffffffffffffffffffffffffffffffff\n      mul\n      not\n      and\n      swap1\n      dup4\n      0xffffffffffffffffffffffffffffffffffffffff\n      and\n      mul\n      or\n      swap1\n      sstore\n      pop\n        /* \"LmPool Ver3.0/ERC721.sol\":4317:4324  tokenId */\n      dup1\n        /* \"LmPool Ver3.0/ERC721.sol\":4313:4315  to */\n      dup3\n        /* \"LmPool Ver3.0/ERC721.sol\":4292:4325  Transfer(address(0), to, tokenId) */\n      0xffffffffffffffffffffffffffffffffffffffff\n      and\n        /* \"LmPool Ver3.0/ERC721.sol\":4309:4310  0 */\n      0x00\n        /* \"LmPool Ver3.0/ERC721.sol\":4292:4325  Transfer(address(0), to, tokenId) */\n      0xffffffffffffffffffffffffffffffffffffffff\n      and\n      0xddf252ad1be2c89b69c2b068fc378daa952ba7f163c4a11628f55a4df523b3ef\n      mload(0x40)\n      mload(0x40)\n      dup1\n      swap2\n      sub\n      swap1\n      log4\n        /* \"LmPool Ver3.0/ERC721.sol\":4037:4332  function _mint(address to, uint tokenId) internal {... */\n      pop\n      pop\n      jump\t// out\n        /* \"LmPool Ver3.0/ERC721.sol\":4338:4640  function _burn(uint tokenId) internal {... */\n    tag_194:\n        /* \"LmPool Ver3.0/ERC721.sol\":4386:4399  address owner */\n      0x00\n        /* \"LmPool Ver3.0/ERC721.sol\":4402:4410  _ownerOf */\n      dup1\n        /* \"LmPool Ver3.0/ERC721.sol\":4402:4419  _ownerOf[tokenId] */\n      0x00\n        /* \"LmPool Ver3.0/ERC721.sol\":4411:4418  tokenId */\n      dup4\n        /* \"LmPool Ver3.0/ERC721.sol\":4402:4419  _ownerOf[tokenId] */\n      dup2\n      mstore\n      0x20\n      add\n      swap1\n      dup2\n      mstore\n      0x20\n      add\n      0x00\n      keccak256\n      0x00\n      swap1\n      sload\n      swap1\n      0x0100\n      exp\n      swap1\n      div\n      0xffffffffffffffffffffffffffffffffffffffff\n      and\n        /* \"LmPool Ver3.0/ERC721.sol\":4386:4419  address owner = _ownerOf[tokenId] */\n      swap1\n      pop\n        /* \"LmPool Ver3.0/ERC721.sol\":4454:4455  0 */\n      0x00\n        /* \"LmPool Ver3.0/ERC721.sol\":4437:4456  owner != address(0) */\n      0xffffffffffffffffffffffffffffffffffffffff\n      and\n        /* \"LmPool Ver3.0/ERC721.sol\":4437:4442  owner */\n      dup2\n        /* \"LmPool Ver3.0/ERC721.sol\":4437:4456  owner != address(0) */\n      0xffffffffffffffffffffffffffffffffffffffff\n      and\n      sub\n        /* \"LmPool Ver3.0/ERC721.sol\":4429:4481  require(owner != address(0), \"token does not exits\") */\n      tag_229\n      jumpi\n      mload(0x40)\n      0x08c379a000000000000000000000000000000000000000000000000000000000\n      dup2\n      mstore\n      0x04\n      add\n      tag_230\n      swap1\n      tag_231\n      jump\t// in\n    tag_230:\n      mload(0x40)\n      dup1\n      swap2\n      sub\n      swap1\n      revert\n    tag_229:\n        /* \"LmPool Ver3.0/ERC721.sol\":4492:4502  _balanceOf */\n      0x01\n        /* \"LmPool Ver3.0/ERC721.sol\":4492:4509  _balanceOf[owner] */\n      0x00\n        /* \"LmPool Ver3.0/ERC721.sol\":4503:4508  owner */\n      dup3\n        /* \"LmPool Ver3.0/ERC721.sol\":4492:4509  _balanceOf[owner] */\n      0xffffffffffffffffffffffffffffffffffffffff\n      and\n      0xffffffffffffffffffffffffffffffffffffffff\n      and\n      dup2\n      mstore\n      0x20\n      add\n      swap1\n      dup2\n      mstore\n      0x20\n      add\n      0x00\n      keccak256\n      0x00\n        /* \"LmPool Ver3.0/ERC721.sol\":4492:4511  _balanceOf[owner]-- */\n      dup2\n      sload\n      dup1\n      swap3\n      swap2\n      swap1\n      tag_232\n      swap1\n      tag_132\n      jump\t// in\n    tag_232:\n      swap2\n      swap1\n      pop\n      sstore\n      pop\n        /* \"LmPool Ver3.0/ERC721.sol\":4528:4536  _ownerOf */\n      0x00\n        /* \"LmPool Ver3.0/ERC721.sol\":4528:4545  _ownerOf[tokenId] */\n      dup1\n        /* \"LmPool Ver3.0/ERC721.sol\":4537:4544  tokenId */\n      dup4\n        /* \"LmPool Ver3.0/ERC721.sol\":4528:4545  _ownerOf[tokenId] */\n      dup2\n      mstore\n      0x20\n      add\n      swap1\n      dup2\n      mstore\n      0x20\n      add\n      0x00\n      keccak256\n      0x00\n        /* \"LmPool Ver3.0/ERC721.sol\":4521:4545  delete _ownerOf[tokenId] */\n      0x0100\n      exp\n      dup2\n      sload\n      swap1\n      0xffffffffffffffffffffffffffffffffffffffff\n      mul\n      not\n      and\n      swap1\n      sstore\n        /* \"LmPool Ver3.0/ERC721.sol\":4562:4572  _approvals */\n      0x02\n        /* \"LmPool Ver3.0/ERC721.sol\":4562:4581  _approvals[tokenId] */\n      0x00\n        /* \"LmPool Ver3.0/ERC721.sol\":4573:4580  tokenId */\n      dup4\n        /* \"LmPool Ver3.0/ERC721.sol\":4562:4581  _approvals[tokenId] */\n      dup2\n      mstore\n      0x20\n      add\n      swap1\n      dup2\n      mstore\n      0x20\n      add\n      0x00\n      keccak256\n      0x00\n        /* \"LmPool Ver3.0/ERC721.sol\":4555:4581  delete _approvals[tokenId] */\n      0x0100\n      exp\n      dup2\n      sload\n      swap1\n      0xffffffffffffffffffffffffffffffffffffffff\n      mul\n      not\n      and\n      swap1\n      sstore\n        /* \"LmPool Ver3.0/ERC721.sol\":4625:4632  tokenId */\n      dup2\n        /* \"LmPool Ver3.0/ERC721.sol\":4621:4622  0 */\n      0x00\n        /* \"LmPool Ver3.0/ERC721.sol\":4597:4633  Transfer(owner, address(0), tokenId) */\n      0xffffffffffffffffffffffffffffffffffffffff\n      and\n        /* \"LmPool Ver3.0/ERC721.sol\":4606:4611  owner */\n      dup3\n        /* \"LmPool Ver3.0/ERC721.sol\":4597:4633  Transfer(owner, address(0), tokenId) */\n      0xffffffffffffffffffffffffffffffffffffffff\n      and\n      0xddf252ad1be2c89b69c2b068fc378daa952ba7f163c4a11628f55a4df523b3ef\n      mload(0x40)\n      mload(0x40)\n      dup1\n      swap2\n      sub\n      swap1\n      log4\n        /* \"LmPool Ver3.0/ERC721.sol\":4376:4640  {... */\n      pop\n        /* \"LmPool Ver3.0/ERC721.sol\":4338:4640  function _burn(uint tokenId) internal {... */\n      pop\n      jump\t// out\n    tag_197:\n      mload(0x40)\n      dup1\n      0x0140\n      add\n      0x40\n      mstore\n      dup1\n      0x00\n      dup2\n      mstore\n      0x20\n      add\n      and(0xffffffffffffffffffffffffffffffffffffffff, 0x00)\n      dup2\n      mstore\n      0x20\n      add\n      and(0xffffffffffffffffffffffffffffffffffffffff, 0x00)\n      dup2\n      mstore\n      0x20\n      add\n      and(0xffffffffffffffffffffffffffffffffffffffff, 0x00)\n      dup2\n      mstore\n      0x20\n      add\n      0x00\n      dup2\n      mstore\n      0x20\n      add\n      0x00\n      dup2\n      mstore\n      0x20\n      add\n      0x00\n      dup2\n      mstore\n      0x20\n      add\n      and(0xffffffffffffffffffffffffffffffffffffffff, 0x00)\n      dup2\n      mstore\n      0x20\n      add\n      and(0xffffffffffffffffffffffffffffffffffffffff, 0x00)\n      dup2\n      mstore\n      0x20\n      add\n      and(0xffffffffffffffffffffffffffffffff, 0x00)\n      dup2\n      mstore\n      pop\n      swap1\n      jump\t// out\n    tag_205:\n      pop\n      dup1\n      sload\n      0x00\n      dup3\n      sstore\n      swap1\n      0x00\n      mstore\n      keccak256(0x00, 0x20)\n      swap1\n      dup2\n      add\n      swap1\n      tag_234\n      swap2\n      swap1\n      tag_235\n      jump\t// in\n    tag_234:\n      pop\n      jump\t// out\n    tag_235:\n    tag_236:\n      dup1\n      dup3\n      gt\n      iszero\n      tag_237\n      jumpi\n      0x00\n      dup2\n      0x00\n      swap1\n      sstore\n      pop\n      0x01\n      add\n      jump(tag_236)\n    tag_237:\n      pop\n      swap1\n      jump\t// out\n        /* \"#utility.yul\":88:205   */\n    tag_239:\n        /* \"#utility.yul\":197:198   */\n      0x00\n        /* \"#utility.yul\":194:195   */\n      dup1\n        /* \"#utility.yul\":187:199   */\n      revert\n        /* \"#utility.yul\":211:328   */\n    tag_240:\n        /* \"#utility.yul\":320:321   */\n      0x00\n        /* \"#utility.yul\":317:318   */\n      dup1\n        /* \"#utility.yul\":310:322   */\n      revert\n        /* \"#utility.yul\":334:483   */\n    tag_241:\n        /* \"#utility.yul\":370:377   */\n      0x00\n        /* \"#utility.yul\":410:476   */\n      0xffffffff00000000000000000000000000000000000000000000000000000000\n        /* \"#utility.yul\":403:408   */\n      dup3\n        /* \"#utility.yul\":399:477   */\n      and\n        /* \"#utility.yul\":388:477   */\n      swap1\n      pop\n        /* \"#utility.yul\":334:483   */\n      swap2\n      swap1\n      pop\n      jump\t// out\n        /* \"#utility.yul\":489:609   */\n    tag_242:\n        /* \"#utility.yul\":561:584   */\n      tag_314\n        /* \"#utility.yul\":578:583   */\n      dup2\n        /* \"#utility.yul\":561:584   */\n      tag_241\n      jump\t// in\n    tag_314:\n        /* \"#utility.yul\":554:559   */\n      dup2\n        /* \"#utility.yul\":551:585   */\n      eq\n        /* \"#utility.yul\":541:603   */\n      tag_315\n      jumpi\n        /* \"#utility.yul\":599:600   */\n      0x00\n        /* \"#utility.yul\":596:597   */\n      dup1\n        /* \"#utility.yul\":589:601   */\n      revert\n        /* \"#utility.yul\":541:603   */\n    tag_315:\n        /* \"#utility.yul\":489:609   */\n      pop\n      jump\t// out\n        /* \"#utility.yul\":615:752   */\n    tag_243:\n        /* \"#utility.yul\":660:665   */\n      0x00\n        /* \"#utility.yul\":698:704   */\n      dup2\n        /* \"#utility.yul\":685:705   */\n      calldataload\n        /* \"#utility.yul\":676:705   */\n      swap1\n      pop\n        /* \"#utility.yul\":714:746   */\n      tag_317\n        /* \"#utility.yul\":740:745   */\n      dup2\n        /* \"#utility.yul\":714:746   */\n      tag_242\n      jump\t// in\n    tag_317:\n        /* \"#utility.yul\":615:752   */\n      swap3\n      swap2\n      pop\n      pop\n      jump\t// out\n        /* \"#utility.yul\":758:1085   */\n    tag_27:\n        /* \"#utility.yul\":816:822   */\n      0x00\n        /* \"#utility.yul\":865:867   */\n      0x20\n        /* \"#utility.yul\":853:862   */\n      dup3\n        /* \"#utility.yul\":844:851   */\n      dup5\n        /* \"#utility.yul\":840:863   */\n      sub\n        /* \"#utility.yul\":836:868   */\n      slt\n        /* \"#utility.yul\":833:952   */\n      iszero\n      tag_319\n      jumpi\n        /* \"#utility.yul\":871:950   */\n      tag_320\n      tag_239\n      jump\t// in\n    tag_320:\n        /* \"#utility.yul\":833:952   */\n    tag_319:\n        /* \"#utility.yul\":991:992   */\n      0x00\n        /* \"#utility.yul\":1016:1068   */\n      tag_321\n        /* \"#utility.yul\":1060:1067   */\n      dup5\n        /* \"#utility.yul\":1051:1057   */\n      dup3\n        /* \"#utility.yul\":1040:1049   */\n      dup6\n        /* \"#utility.yul\":1036:1058   */\n      add\n        /* \"#utility.yul\":1016:1068   */\n      tag_243\n      jump\t// in\n    tag_321:\n        /* \"#utility.yul\":1006:1068   */\n      swap2\n      pop\n        /* \"#utility.yul\":962:1078   */\n      pop\n        /* \"#utility.yul\":758:1085   */\n      swap3\n      swap2\n      pop\n      pop\n      jump\t// out\n        /* \"#utility.yul\":1091:1181   */\n    tag_244:\n        /* \"#utility.yul\":1125:1132   */\n      0x00\n        /* \"#utility.yul\":1168:1173   */\n      dup2\n        /* \"#utility.yul\":1161:1174   */\n      iszero\n        /* \"#utility.yul\":1154:1175   */\n      iszero\n        /* \"#utility.yul\":1143:1175   */\n      swap1\n      pop\n        /* \"#utility.yul\":1091:1181   */\n      swap2\n      swap1\n      pop\n      jump\t// out\n        /* \"#utility.yul\":1187:1296   */\n    tag_245:\n        /* \"#utility.yul\":1268:1289   */\n      tag_324\n        /* \"#utility.yul\":1283:1288   */\n      dup2\n        /* \"#utility.yul\":1268:1289   */\n      tag_244\n      jump\t// in\n    tag_324:\n        /* \"#utility.yul\":1263:1266   */\n      dup3\n        /* \"#utility.yul\":1256:1290   */\n      mstore\n        /* \"#utility.yul\":1187:1296   */\n      pop\n      pop\n      jump\t// out\n        /* \"#utility.yul\":1302:1512   */\n    tag_30:\n        /* \"#utility.yul\":1389:1393   */\n      0x00\n        /* \"#utility.yul\":1427:1429   */\n      0x20\n        /* \"#utility.yul\":1416:1425   */\n      dup3\n        /* \"#utility.yul\":1412:1430   */\n      add\n        /* \"#utility.yul\":1404:1430   */\n      swap1\n      pop\n        /* \"#utility.yul\":1440:1505   */\n      tag_326\n        /* \"#utility.yul\":1502:1503   */\n      0x00\n        /* \"#utility.yul\":1491:1500   */\n      dup4\n        /* \"#utility.yul\":1487:1504   */\n      add\n        /* \"#utility.yul\":1478:1484   */\n      dup5\n        /* \"#utility.yul\":1440:1505   */\n      tag_245\n      jump\t// in\n    tag_326:\n        /* \"#utility.yul\":1302:1512   */\n      swap3\n      swap2\n      pop\n      pop\n      jump\t// out\n        /* \"#utility.yul\":1518:1595   */\n    tag_246:\n        /* \"#utility.yul\":1555:1562   */\n      0x00\n        /* \"#utility.yul\":1584:1589   */\n      dup2\n        /* \"#utility.yul\":1573:1589   */\n      swap1\n      pop\n        /* \"#utility.yul\":1518:1595   */\n      swap2\n      swap1\n      pop\n      jump\t// out\n        /* \"#utility.yul\":1601:1723   */\n    tag_247:\n        /* \"#utility.yul\":1674:1698   */\n      tag_329\n        /* \"#utility.yul\":1692:1697   */\n      dup2\n        /* \"#utility.yul\":1674:1698   */\n      tag_246\n      jump\t// in\n    tag_329:\n        /* \"#utility.yul\":1667:1672   */\n      dup2\n        /* \"#utility.yul\":1664:1699   */\n      eq\n        /* \"#utility.yul\":1654:1717   */\n      tag_330\n      jumpi\n        /* \"#utility.yul\":1713:1714   */\n      0x00\n        /* \"#utility.yul\":1710:1711   */\n      dup1\n        /* \"#utility.yul\":1703:1715   */\n      revert\n        /* \"#utility.yul\":1654:1717   */\n    tag_330:\n        /* \"#utility.yul\":1601:1723   */\n      pop\n      jump\t// out\n        /* \"#utility.yul\":1729:1868   */\n    tag_248:\n        /* \"#utility.yul\":1775:1780   */\n      0x00\n        /* \"#utility.yul\":1813:1819   */\n      dup2\n        /* \"#utility.yul\":1800:1820   */\n      calldataload\n        /* \"#utility.yul\":1791:1820   */\n      swap1\n      pop\n        /* \"#utility.yul\":1829:1862   */\n      tag_332\n        /* \"#utility.yul\":1856:1861   */\n      dup2\n        /* \"#utility.yul\":1829:1862   */\n      tag_247\n      jump\t// in\n    tag_332:\n        /* \"#utility.yul\":1729:1868   */\n      swap3\n      swap2\n      pop\n      pop\n      jump\t// out\n        /* \"#utility.yul\":1874:2203   */\n    tag_33:\n        /* \"#utility.yul\":1933:1939   */\n      0x00\n        /* \"#utility.yul\":1982:1984   */\n      0x20\n        /* \"#utility.yul\":1970:1979   */\n      dup3\n        /* \"#utility.yul\":1961:1968   */\n      dup5\n        /* \"#utility.yul\":1957:1980   */\n      sub\n        /* \"#utility.yul\":1953:1985   */\n      slt\n        /* \"#utility.yul\":1950:2069   */\n      iszero\n      tag_334\n      jumpi\n        /* \"#utility.yul\":1988:2067   */\n      tag_335\n      tag_239\n      jump\t// in\n    tag_335:\n        /* \"#utility.yul\":1950:2069   */\n    tag_334:\n        /* \"#utility.yul\":2108:2109   */\n      0x00\n        /* \"#utility.yul\":2133:2186   */\n      tag_336\n        /* \"#utility.yul\":2178:2185   */\n      dup5\n        /* \"#utility.yul\":2169:2175   */\n      dup3\n        /* \"#utility.yul\":2158:2167   */\n      dup6\n        /* \"#utility.yul\":2154:2176   */\n      add\n        /* \"#utility.yul\":2133:2186   */\n      tag_248\n      jump\t// in\n    tag_336:\n        /* \"#utility.yul\":2123:2186   */\n      swap2\n      pop\n        /* \"#utility.yul\":2079:2196   */\n      pop\n        /* \"#utility.yul\":1874:2203   */\n      swap3\n      swap2\n      pop\n      pop\n      jump\t// out\n        /* \"#utility.yul\":2209:2335   */\n    tag_249:\n        /* \"#utility.yul\":2246:2253   */\n      0x00\n        /* \"#utility.yul\":2286:2328   */\n      0xffffffffffffffffffffffffffffffffffffffff\n        /* \"#utility.yul\":2279:2284   */\n      dup3\n        /* \"#utility.yul\":2275:2329   */\n      and\n        /* \"#utility.yul\":2264:2329   */\n      swap1\n      pop\n        /* \"#utility.yul\":2209:2335   */\n      swap2\n      swap1\n      pop\n      jump\t// out\n        /* \"#utility.yul\":2341:2437   */\n    tag_250:\n        /* \"#utility.yul\":2378:2385   */\n      0x00\n        /* \"#utility.yul\":2407:2431   */\n      tag_339\n        /* \"#utility.yul\":2425:2430   */\n      dup3\n        /* \"#utility.yul\":2407:2431   */\n      tag_249\n      jump\t// in\n    tag_339:\n        /* \"#utility.yul\":2396:2431   */\n      swap1\n      pop\n        /* \"#utility.yul\":2341:2437   */\n      swap2\n      swap1\n      pop\n      jump\t// out\n        /* \"#utility.yul\":2443:2561   */\n    tag_251:\n        /* \"#utility.yul\":2530:2554   */\n      tag_341\n        /* \"#utility.yul\":2548:2553   */\n      dup2\n        /* \"#utility.yul\":2530:2554   */\n      tag_250\n      jump\t// in\n    tag_341:\n        /* \"#utility.yul\":2525:2528   */\n      dup3\n        /* \"#utility.yul\":2518:2555   */\n      mstore\n        /* \"#utility.yul\":2443:2561   */\n      pop\n      pop\n      jump\t// out\n        /* \"#utility.yul\":2567:2789   */\n    tag_36:\n        /* \"#utility.yul\":2660:2664   */\n      0x00\n        /* \"#utility.yul\":2698:2700   */\n      0x20\n        /* \"#utility.yul\":2687:2696   */\n      dup3\n        /* \"#utility.yul\":2683:2701   */\n      add\n        /* \"#utility.yul\":2675:2701   */\n      swap1\n      pop\n        /* \"#utility.yul\":2711:2782   */\n      tag_343\n        /* \"#utility.yul\":2779:2780   */\n      0x00\n        /* \"#utility.yul\":2768:2777   */\n      dup4\n        /* \"#utility.yul\":2764:2781   */\n      add\n        /* \"#utility.yul\":2755:2761   */\n      dup5\n        /* \"#utility.yul\":2711:2782   */\n      tag_251\n      jump\t// in\n    tag_343:\n        /* \"#utility.yul\":2567:2789   */\n      swap3\n      swap2\n      pop\n      pop\n      jump\t// out\n        /* \"#utility.yul\":2795:2917   */\n    tag_252:\n        /* \"#utility.yul\":2868:2892   */\n      tag_345\n        /* \"#utility.yul\":2886:2891   */\n      dup2\n        /* \"#utility.yul\":2868:2892   */\n      tag_250\n      jump\t// in\n    tag_345:\n        /* \"#utility.yul\":2861:2866   */\n      dup2\n        /* \"#utility.yul\":2858:2893   */\n      eq\n        /* \"#utility.yul\":2848:2911   */\n      tag_346\n      jumpi\n        /* \"#utility.yul\":2907:2908   */\n      0x00\n        /* \"#utility.yul\":2904:2905   */\n      dup1\n        /* \"#utility.yul\":2897:2909   */\n      revert\n        /* \"#utility.yul\":2848:2911   */\n    tag_346:\n        /* \"#utility.yul\":2795:2917   */\n      pop\n      jump\t// out\n        /* \"#utility.yul\":2923:3062   */\n    tag_253:\n        /* \"#utility.yul\":2969:2974   */\n      0x00\n        /* \"#utility.yul\":3007:3013   */\n      dup2\n        /* \"#utility.yul\":2994:3014   */\n      calldataload\n        /* \"#utility.yul\":2985:3014   */\n      swap1\n      pop\n        /* \"#utility.yul\":3023:3056   */\n      tag_348\n        /* \"#utility.yul\":3050:3055   */\n      dup2\n        /* \"#utility.yul\":3023:3056   */\n      tag_252\n      jump\t// in\n    tag_348:\n        /* \"#utility.yul\":2923:3062   */\n      swap3\n      swap2\n      pop\n      pop\n      jump\t// out\n        /* \"#utility.yul\":3068:3542   */\n    tag_39:\n        /* \"#utility.yul\":3136:3142   */\n      0x00\n        /* \"#utility.yul\":3144:3150   */\n      dup1\n        /* \"#utility.yul\":3193:3195   */\n      0x40\n        /* \"#utility.yul\":3181:3190   */\n      dup4\n        /* \"#utility.yul\":3172:3179   */\n      dup6\n        /* \"#utility.yul\":3168:3191   */\n      sub\n        /* \"#utility.yul\":3164:3196   */\n      slt\n        /* \"#utility.yul\":3161:3280   */\n      iszero\n      tag_350\n      jumpi\n        /* \"#utility.yul\":3199:3278   */\n      tag_351\n      tag_239\n      jump\t// in\n    tag_351:\n        /* \"#utility.yul\":3161:3280   */\n    tag_350:\n        /* \"#utility.yul\":3319:3320   */\n      0x00\n        /* \"#utility.yul\":3344:3397   */\n      tag_352\n        /* \"#utility.yul\":3389:3396   */\n      dup6\n        /* \"#utility.yul\":3380:3386   */\n      dup3\n        /* \"#utility.yul\":3369:3378   */\n      dup7\n        /* \"#utility.yul\":3365:3387   */\n      add\n        /* \"#utility.yul\":3344:3397   */\n      tag_253\n      jump\t// in\n    tag_352:\n        /* \"#utility.yul\":3334:3397   */\n      swap3\n      pop\n        /* \"#utility.yul\":3290:3407   */\n      pop\n        /* \"#utility.yul\":3446:3448   */\n      0x20\n        /* \"#utility.yul\":3472:3525   */\n      tag_353\n        /* \"#utility.yul\":3517:3524   */\n      dup6\n        /* \"#utility.yul\":3508:3514   */\n      dup3\n        /* \"#utility.yul\":3497:3506   */\n      dup7\n        /* \"#utility.yul\":3493:3515   */\n      add\n        /* \"#utility.yul\":3472:3525   */\n      tag_248\n      jump\t// in\n    tag_353:\n        /* \"#utility.yul\":3462:3525   */\n      swap2\n      pop\n        /* \"#utility.yul\":3417:3535   */\n      pop\n        /* \"#utility.yul\":3068:3542   */\n      swap3\n      pop\n      swap3\n      swap1\n      pop\n      jump\t// out\n        /* \"#utility.yul\":3548:4167   */\n    tag_43:\n        /* \"#utility.yul\":3625:3631   */\n      0x00\n        /* \"#utility.yul\":3633:3639   */\n      dup1\n        /* \"#utility.yul\":3641:3647   */\n      0x00\n        /* \"#utility.yul\":3690:3692   */\n      0x60\n        /* \"#utility.yul\":3678:3687   */\n      dup5\n        /* \"#utility.yul\":3669:3676   */\n      dup7\n        /* \"#utility.yul\":3665:3688   */\n      sub\n        /* \"#utility.yul\":3661:3693   */\n      slt\n        /* \"#utility.yul\":3658:3777   */\n      iszero\n      tag_355\n      jumpi\n        /* \"#utility.yul\":3696:3775   */\n      tag_356\n      tag_239\n      jump\t// in\n    tag_356:\n        /* \"#utility.yul\":3658:3777   */\n    tag_355:\n        /* \"#utility.yul\":3816:3817   */\n      0x00\n        /* \"#utility.yul\":3841:3894   */\n      tag_357\n        /* \"#utility.yul\":3886:3893   */\n      dup7\n        /* \"#utility.yul\":3877:3883   */\n      dup3\n        /* \"#utility.yul\":3866:3875   */\n      dup8\n        /* \"#utility.yul\":3862:3884   */\n      add\n        /* \"#utility.yul\":3841:3894   */\n      tag_253\n      jump\t// in\n    tag_357:\n        /* \"#utility.yul\":3831:3894   */\n      swap4\n      pop\n        /* \"#utility.yul\":3787:3904   */\n      pop\n        /* \"#utility.yul\":3943:3945   */\n      0x20\n        /* \"#utility.yul\":3969:4022   */\n      tag_358\n        /* \"#utility.yul\":4014:4021   */\n      dup7\n        /* \"#utility.yul\":4005:4011   */\n      dup3\n        /* \"#utility.yul\":3994:4003   */\n      dup8\n        /* \"#utility.yul\":3990:4012   */\n      add\n        /* \"#utility.yul\":3969:4022   */\n      tag_253\n      jump\t// in\n    tag_358:\n        /* \"#utility.yul\":3959:4022   */\n      swap3\n      pop\n        /* \"#utility.yul\":3914:4032   */\n      pop\n        /* \"#utility.yul\":4071:4073   */\n      0x40\n        /* \"#utility.yul\":4097:4150   */\n      tag_359\n        /* \"#utility.yul\":4142:4149   */\n      dup7\n        /* \"#utility.yul\":4133:4139   */\n      dup3\n        /* \"#utility.yul\":4122:4131   */\n      dup8\n        /* \"#utility.yul\":4118:4140   */\n      add\n        /* \"#utility.yul\":4097:4150   */\n      tag_248\n      jump\t// in\n    tag_359:\n        /* \"#utility.yul\":4087:4150   */\n      swap2\n      pop\n        /* \"#utility.yul\":4042:4160   */\n      pop\n        /* \"#utility.yul\":3548:4167   */\n      swap3\n      pop\n      swap3\n      pop\n      swap3\n      jump\t// out\n        /* \"#utility.yul\":4173:4290   */\n    tag_254:\n        /* \"#utility.yul\":4282:4283   */\n      0x00\n        /* \"#utility.yul\":4279:4280   */\n      dup1\n        /* \"#utility.yul\":4272:4284   */\n      revert\n        /* \"#utility.yul\":4345:4581   */\n    tag_255:\n        /* \"#utility.yul\":4422:4427   */\n      0x00\n        /* \"#utility.yul\":4463:4466   */\n      0x0140\n        /* \"#utility.yul\":4454:4460   */\n      dup3\n        /* \"#utility.yul\":4449:4452   */\n      dup5\n        /* \"#utility.yul\":4445:4461   */\n      sub\n        /* \"#utility.yul\":4441:4467   */\n      slt\n        /* \"#utility.yul\":4438:4551   */\n      iszero\n      tag_362\n      jumpi\n        /* \"#utility.yul\":4470:4549   */\n      tag_363\n      tag_254\n      jump\t// in\n    tag_363:\n        /* \"#utility.yul\":4438:4551   */\n    tag_362:\n        /* \"#utility.yul\":4569:4575   */\n      dup2\n        /* \"#utility.yul\":4560:4575   */\n      swap1\n      pop\n        /* \"#utility.yul\":4345:4581   */\n      swap3\n      swap2\n      pop\n      pop\n      jump\t// out\n        /* \"#utility.yul\":4587:5124   */\n    tag_50:\n        /* \"#utility.yul\":4686:4692   */\n      0x00\n        /* \"#utility.yul\":4694:4700   */\n      dup1\n        /* \"#utility.yul\":4743:4746   */\n      0x0160\n        /* \"#utility.yul\":4731:4740   */\n      dup4\n        /* \"#utility.yul\":4722:4729   */\n      dup6\n        /* \"#utility.yul\":4718:4741   */\n      sub\n        /* \"#utility.yul\":4714:4747   */\n      slt\n        /* \"#utility.yul\":4711:4831   */\n      iszero\n      tag_365\n      jumpi\n        /* \"#utility.yul\":4750:4829   */\n      tag_366\n      tag_239\n      jump\t// in\n    tag_366:\n        /* \"#utility.yul\":4711:4831   */\n    tag_365:\n        /* \"#utility.yul\":4870:4871   */\n      0x00\n        /* \"#utility.yul\":4895:4948   */\n      tag_367\n        /* \"#utility.yul\":4940:4947   */\n      dup6\n        /* \"#utility.yul\":4931:4937   */\n      dup3\n        /* \"#utility.yul\":4920:4929   */\n      dup7\n        /* \"#utility.yul\":4916:4938   */\n      add\n        /* \"#utility.yul\":4895:4948   */\n      tag_253\n      jump\t// in\n    tag_367:\n        /* \"#utility.yul\":4885:4948   */\n      swap3\n      pop\n        /* \"#utility.yul\":4841:4958   */\n      pop\n        /* \"#utility.yul\":4997:4999   */\n      0x20\n        /* \"#utility.yul\":5023:5107   */\n      tag_368\n        /* \"#utility.yul\":5099:5106   */\n      dup6\n        /* \"#utility.yul\":5090:5096   */\n      dup3\n        /* \"#utility.yul\":5079:5088   */\n      dup7\n        /* \"#utility.yul\":5075:5097   */\n      add\n        /* \"#utility.yul\":5023:5107   */\n      tag_255\n      jump\t// in\n    tag_368:\n        /* \"#utility.yul\":5013:5107   */\n      swap2\n      pop\n        /* \"#utility.yul\":4968:5117   */\n      pop\n        /* \"#utility.yul\":4587:5124   */\n      swap3\n      pop\n      swap3\n      swap1\n      pop\n      jump\t// out\n        /* \"#utility.yul\":5130:5459   */\n    tag_61:\n        /* \"#utility.yul\":5189:5195   */\n      0x00\n        /* \"#utility.yul\":5238:5240   */\n      0x20\n        /* \"#utility.yul\":5226:5235   */\n      dup3\n        /* \"#utility.yul\":5217:5224   */\n      dup5\n        /* \"#utility.yul\":5213:5236   */\n      sub\n        /* \"#utility.yul\":5209:5241   */\n      slt\n        /* \"#utility.yul\":5206:5325   */\n      iszero\n      tag_370\n      jumpi\n        /* \"#utility.yul\":5244:5323   */\n      tag_371\n      tag_239\n      jump\t// in\n    tag_371:\n        /* \"#utility.yul\":5206:5325   */\n    tag_370:\n        /* \"#utility.yul\":5364:5365   */\n      0x00\n        /* \"#utility.yul\":5389:5442   */\n      tag_372\n        /* \"#utility.yul\":5434:5441   */\n      dup5\n        /* \"#utility.yul\":5425:5431   */\n      dup3\n        /* \"#utility.yul\":5414:5423   */\n      dup6\n        /* \"#utility.yul\":5410:5432   */\n      add\n        /* \"#utility.yul\":5389:5442   */\n      tag_253\n      jump\t// in\n    tag_372:\n        /* \"#utility.yul\":5379:5442   */\n      swap2\n      pop\n        /* \"#utility.yul\":5335:5452   */\n      pop\n        /* \"#utility.yul\":5130:5459   */\n      swap3\n      swap2\n      pop\n      pop\n      jump\t// out\n        /* \"#utility.yul\":5465:5583   */\n    tag_256:\n        /* \"#utility.yul\":5552:5576   */\n      tag_374\n        /* \"#utility.yul\":5570:5575   */\n      dup2\n        /* \"#utility.yul\":5552:5576   */\n      tag_246\n      jump\t// in\n    tag_374:\n        /* \"#utility.yul\":5547:5550   */\n      dup3\n        /* \"#utility.yul\":5540:5577   */\n      mstore\n        /* \"#utility.yul\":5465:5583   */\n      pop\n      pop\n      jump\t// out\n        /* \"#utility.yul\":5589:5811   */\n    tag_64:\n        /* \"#utility.yul\":5682:5686   */\n      0x00\n        /* \"#utility.yul\":5720:5722   */\n      0x20\n        /* \"#utility.yul\":5709:5718   */\n      dup3\n        /* \"#utility.yul\":5705:5723   */\n      add\n        /* \"#utility.yul\":5697:5723   */\n      swap1\n      pop\n        /* \"#utility.yul\":5733:5804   */\n      tag_376\n        /* \"#utility.yul\":5801:5802   */\n      0x00\n        /* \"#utility.yul\":5790:5799   */\n      dup4\n        /* \"#utility.yul\":5786:5803   */\n      add\n        /* \"#utility.yul\":5777:5783   */\n      dup5\n        /* \"#utility.yul\":5733:5804   */\n      tag_256\n      jump\t// in\n    tag_376:\n        /* \"#utility.yul\":5589:5811   */\n      swap3\n      swap2\n      pop\n      pop\n      jump\t// out\n        /* \"#utility.yul\":5817:5935   */\n    tag_257:\n        /* \"#utility.yul\":5904:5928   */\n      tag_378\n        /* \"#utility.yul\":5922:5927   */\n      dup2\n        /* \"#utility.yul\":5904:5928   */\n      tag_249\n      jump\t// in\n    tag_378:\n        /* \"#utility.yul\":5899:5902   */\n      dup3\n        /* \"#utility.yul\":5892:5929   */\n      mstore\n        /* \"#utility.yul\":5817:5935   */\n      pop\n      pop\n      jump\t// out\n        /* \"#utility.yul\":5941:6059   */\n    tag_258:\n        /* \"#utility.yul\":5978:5985   */\n      0x00\n        /* \"#utility.yul\":6018:6052   */\n      0xffffffffffffffffffffffffffffffff\n        /* \"#utility.yul\":6011:6016   */\n      dup3\n        /* \"#utility.yul\":6007:6053   */\n      and\n        /* \"#utility.yul\":5996:6053   */\n      swap1\n      pop\n        /* \"#utility.yul\":5941:6059   */\n      swap2\n      swap1\n      pop\n      jump\t// out\n        /* \"#utility.yul\":6065:6183   */\n    tag_259:\n        /* \"#utility.yul\":6152:6176   */\n      tag_381\n        /* \"#utility.yul\":6170:6175   */\n      dup2\n        /* \"#utility.yul\":6152:6176   */\n      tag_258\n      jump\t// in\n    tag_381:\n        /* \"#utility.yul\":6147:6150   */\n      dup3\n        /* \"#utility.yul\":6140:6177   */\n      mstore\n        /* \"#utility.yul\":6065:6183   */\n      pop\n      pop\n      jump\t// out\n        /* \"#utility.yul\":6189:7408   */\n    tag_76:\n        /* \"#utility.yul\":6534:6538   */\n      0x00\n        /* \"#utility.yul\":6572:6575   */\n      0x0140\n        /* \"#utility.yul\":6561:6570   */\n      dup3\n        /* \"#utility.yul\":6557:6576   */\n      add\n        /* \"#utility.yul\":6549:6576   */\n      swap1\n      pop\n        /* \"#utility.yul\":6586:6657   */\n      tag_383\n        /* \"#utility.yul\":6654:6655   */\n      0x00\n        /* \"#utility.yul\":6643:6652   */\n      dup4\n        /* \"#utility.yul\":6639:6656   */\n      add\n        /* \"#utility.yul\":6630:6636   */\n      dup14\n        /* \"#utility.yul\":6586:6657   */\n      tag_256\n      jump\t// in\n    tag_383:\n        /* \"#utility.yul\":6667:6739   */\n      tag_384\n        /* \"#utility.yul\":6735:6737   */\n      0x20\n        /* \"#utility.yul\":6724:6733   */\n      dup4\n        /* \"#utility.yul\":6720:6738   */\n      add\n        /* \"#utility.yul\":6711:6717   */\n      dup13\n        /* \"#utility.yul\":6667:6739   */\n      tag_251\n      jump\t// in\n    tag_384:\n        /* \"#utility.yul\":6749:6821   */\n      tag_385\n        /* \"#utility.yul\":6817:6819   */\n      0x40\n        /* \"#utility.yul\":6806:6815   */\n      dup4\n        /* \"#utility.yul\":6802:6820   */\n      add\n        /* \"#utility.yul\":6793:6799   */\n      dup12\n        /* \"#utility.yul\":6749:6821   */\n      tag_251\n      jump\t// in\n    tag_385:\n        /* \"#utility.yul\":6831:6903   */\n      tag_386\n        /* \"#utility.yul\":6899:6901   */\n      0x60\n        /* \"#utility.yul\":6888:6897   */\n      dup4\n        /* \"#utility.yul\":6884:6902   */\n      add\n        /* \"#utility.yul\":6875:6881   */\n      dup11\n        /* \"#utility.yul\":6831:6903   */\n      tag_251\n      jump\t// in\n    tag_386:\n        /* \"#utility.yul\":6913:6986   */\n      tag_387\n        /* \"#utility.yul\":6981:6984   */\n      0x80\n        /* \"#utility.yul\":6970:6979   */\n      dup4\n        /* \"#utility.yul\":6966:6985   */\n      add\n        /* \"#utility.yul\":6957:6963   */\n      dup10\n        /* \"#utility.yul\":6913:6986   */\n      tag_256\n      jump\t// in\n    tag_387:\n        /* \"#utility.yul\":6996:7069   */\n      tag_388\n        /* \"#utility.yul\":7064:7067   */\n      0xa0\n        /* \"#utility.yul\":7053:7062   */\n      dup4\n        /* \"#utility.yul\":7049:7068   */\n      add\n        /* \"#utility.yul\":7040:7046   */\n      dup9\n        /* \"#utility.yul\":6996:7069   */\n      tag_256\n      jump\t// in\n    tag_388:\n        /* \"#utility.yul\":7079:7152   */\n      tag_389\n        /* \"#utility.yul\":7147:7150   */\n      0xc0\n        /* \"#utility.yul\":7136:7145   */\n      dup4\n        /* \"#utility.yul\":7132:7151   */\n      add\n        /* \"#utility.yul\":7123:7129   */\n      dup8\n        /* \"#utility.yul\":7079:7152   */\n      tag_256\n      jump\t// in\n    tag_389:\n        /* \"#utility.yul\":7162:7235   */\n      tag_390\n        /* \"#utility.yul\":7230:7233   */\n      0xe0\n        /* \"#utility.yul\":7219:7228   */\n      dup4\n        /* \"#utility.yul\":7215:7234   */\n      add\n        /* \"#utility.yul\":7206:7212   */\n      dup7\n        /* \"#utility.yul\":7162:7235   */\n      tag_257\n      jump\t// in\n    tag_390:\n        /* \"#utility.yul\":7245:7318   */\n      tag_391\n        /* \"#utility.yul\":7313:7316   */\n      0x0100\n        /* \"#utility.yul\":7302:7311   */\n      dup4\n        /* \"#utility.yul\":7298:7317   */\n      add\n        /* \"#utility.yul\":7289:7295   */\n      dup6\n        /* \"#utility.yul\":7245:7318   */\n      tag_257\n      jump\t// in\n    tag_391:\n        /* \"#utility.yul\":7328:7401   */\n      tag_392\n        /* \"#utility.yul\":7396:7399   */\n      0x0120\n        /* \"#utility.yul\":7385:7394   */\n      dup4\n        /* \"#utility.yul\":7381:7400   */\n      add\n        /* \"#utility.yul\":7372:7378   */\n      dup5\n        /* \"#utility.yul\":7328:7401   */\n      tag_259\n      jump\t// in\n    tag_392:\n        /* \"#utility.yul\":6189:7408   */\n      swap12\n      swap11\n      pop\n      pop\n      pop\n      pop\n      pop\n      pop\n      pop\n      pop\n      pop\n      pop\n      pop\n      jump\t// out\n        /* \"#utility.yul\":7414:7530   */\n    tag_260:\n        /* \"#utility.yul\":7484:7505   */\n      tag_394\n        /* \"#utility.yul\":7499:7504   */\n      dup2\n        /* \"#utility.yul\":7484:7505   */\n      tag_244\n      jump\t// in\n    tag_394:\n        /* \"#utility.yul\":7477:7482   */\n      dup2\n        /* \"#utility.yul\":7474:7506   */\n      eq\n        /* \"#utility.yul\":7464:7524   */\n      tag_395\n      jumpi\n        /* \"#utility.yul\":7520:7521   */\n      0x00\n        /* \"#utility.yul\":7517:7518   */\n      dup1\n        /* \"#utility.yul\":7510:7522   */\n      revert\n        /* \"#utility.yul\":7464:7524   */\n    tag_395:\n        /* \"#utility.yul\":7414:7530   */\n      pop\n      jump\t// out\n        /* \"#utility.yul\":7536:7669   */\n    tag_261:\n        /* \"#utility.yul\":7579:7584   */\n      0x00\n        /* \"#utility.yul\":7617:7623   */\n      dup2\n        /* \"#utility.yul\":7604:7624   */\n      calldataload\n        /* \"#utility.yul\":7595:7624   */\n      swap1\n      pop\n        /* \"#utility.yul\":7633:7663   */\n      tag_397\n        /* \"#utility.yul\":7657:7662   */\n      dup2\n        /* \"#utility.yul\":7633:7663   */\n      tag_260\n      jump\t// in\n    tag_397:\n        /* \"#utility.yul\":7536:7669   */\n      swap3\n      swap2\n      pop\n      pop\n      jump\t// out\n        /* \"#utility.yul\":7675:8143   */\n    tag_79:\n        /* \"#utility.yul\":7740:7746   */\n      0x00\n        /* \"#utility.yul\":7748:7754   */\n      dup1\n        /* \"#utility.yul\":7797:7799   */\n      0x40\n        /* \"#utility.yul\":7785:7794   */\n      dup4\n        /* \"#utility.yul\":7776:7783   */\n      dup6\n        /* \"#utility.yul\":7772:7795   */\n      sub\n        /* \"#utility.yul\":7768:7800   */\n      slt\n        /* \"#utility.yul\":7765:7884   */\n      iszero\n      tag_399\n      jumpi\n        /* \"#utility.yul\":7803:7882   */\n      tag_400\n      tag_239\n      jump\t// in\n    tag_400:\n        /* \"#utility.yul\":7765:7884   */\n    tag_399:\n        /* \"#utility.yul\":7923:7924   */\n      0x00\n        /* \"#utility.yul\":7948:8001   */\n      tag_401\n        /* \"#utility.yul\":7993:8000   */\n      dup6\n        /* \"#utility.yul\":7984:7990   */\n      dup3\n        /* \"#utility.yul\":7973:7982   */\n      dup7\n        /* \"#utility.yul\":7969:7991   */\n      add\n        /* \"#utility.yul\":7948:8001   */\n      tag_253\n      jump\t// in\n    tag_401:\n        /* \"#utility.yul\":7938:8001   */\n      swap3\n      pop\n        /* \"#utility.yul\":7894:8011   */\n      pop\n        /* \"#utility.yul\":8050:8052   */\n      0x20\n        /* \"#utility.yul\":8076:8126   */\n      tag_402\n        /* \"#utility.yul\":8118:8125   */\n      dup6\n        /* \"#utility.yul\":8109:8115   */\n      dup3\n        /* \"#utility.yul\":8098:8107   */\n      dup7\n        /* \"#utility.yul\":8094:8116   */\n      add\n        /* \"#utility.yul\":8076:8126   */\n      tag_261\n      jump\t// in\n    tag_402:\n        /* \"#utility.yul\":8066:8126   */\n      swap2\n      pop\n        /* \"#utility.yul\":8021:8136   */\n      pop\n        /* \"#utility.yul\":7675:8143   */\n      swap3\n      pop\n      swap3\n      swap1\n      pop\n      jump\t// out\n        /* \"#utility.yul\":8149:8266   */\n    tag_262:\n        /* \"#utility.yul\":8258:8259   */\n      0x00\n        /* \"#utility.yul\":8255:8256   */\n      dup1\n        /* \"#utility.yul\":8248:8260   */\n      revert\n        /* \"#utility.yul\":8272:8389   */\n    tag_263:\n        /* \"#utility.yul\":8381:8382   */\n      0x00\n        /* \"#utility.yul\":8378:8379   */\n      dup1\n        /* \"#utility.yul\":8371:8383   */\n      revert\n        /* \"#utility.yul\":8395:8512   */\n    tag_264:\n        /* \"#utility.yul\":8504:8505   */\n      0x00\n        /* \"#utility.yul\":8501:8502   */\n      dup1\n        /* \"#utility.yul\":8494:8506   */\n      revert\n        /* \"#utility.yul\":8531:9083   */\n    tag_265:\n        /* \"#utility.yul\":8588:8596   */\n      0x00\n        /* \"#utility.yul\":8598:8604   */\n      dup1\n        /* \"#utility.yul\":8648:8651   */\n      dup4\n        /* \"#utility.yul\":8641:8645   */\n      0x1f\n        /* \"#utility.yul\":8633:8639   */\n      dup5\n        /* \"#utility.yul\":8629:8646   */\n      add\n        /* \"#utility.yul\":8625:8652   */\n      slt\n        /* \"#utility.yul\":8615:8737   */\n      tag_407\n      jumpi\n        /* \"#utility.yul\":8656:8735   */\n      tag_408\n      tag_262\n      jump\t// in\n    tag_408:\n        /* \"#utility.yul\":8615:8737   */\n    tag_407:\n        /* \"#utility.yul\":8769:8775   */\n      dup3\n        /* \"#utility.yul\":8756:8776   */\n      calldataload\n        /* \"#utility.yul\":8746:8776   */\n      swap1\n      pop\n        /* \"#utility.yul\":8799:8817   */\n      0xffffffffffffffff\n        /* \"#utility.yul\":8791:8797   */\n      dup2\n        /* \"#utility.yul\":8788:8818   */\n      gt\n        /* \"#utility.yul\":8785:8902   */\n      iszero\n      tag_409\n      jumpi\n        /* \"#utility.yul\":8821:8900   */\n      tag_410\n      tag_263\n      jump\t// in\n    tag_410:\n        /* \"#utility.yul\":8785:8902   */\n    tag_409:\n        /* \"#utility.yul\":8935:8939   */\n      0x20\n        /* \"#utility.yul\":8927:8933   */\n      dup4\n        /* \"#utility.yul\":8923:8940   */\n      add\n        /* \"#utility.yul\":8911:8940   */\n      swap2\n      pop\n        /* \"#utility.yul\":8989:8992   */\n      dup4\n        /* \"#utility.yul\":8981:8985   */\n      0x01\n        /* \"#utility.yul\":8973:8979   */\n      dup3\n        /* \"#utility.yul\":8969:8986   */\n      mul\n        /* \"#utility.yul\":8959:8967   */\n      dup4\n        /* \"#utility.yul\":8955:8987   */\n      add\n        /* \"#utility.yul\":8952:8993   */\n      gt\n        /* \"#utility.yul\":8949:9077   */\n      iszero\n      tag_411\n      jumpi\n        /* \"#utility.yul\":8996:9075   */\n      tag_412\n      tag_264\n      jump\t// in\n    tag_412:\n        /* \"#utility.yul\":8949:9077   */\n    tag_411:\n        /* \"#utility.yul\":8531:9083   */\n      swap3\n      pop\n      swap3\n      swap1\n      pop\n      jump\t// out\n        /* \"#utility.yul\":9089:10052   */\n    tag_83:\n        /* \"#utility.yul\":9186:9192   */\n      0x00\n        /* \"#utility.yul\":9194:9200   */\n      dup1\n        /* \"#utility.yul\":9202:9208   */\n      0x00\n        /* \"#utility.yul\":9210:9216   */\n      dup1\n        /* \"#utility.yul\":9218:9224   */\n      0x00\n        /* \"#utility.yul\":9267:9270   */\n      0x80\n        /* \"#utility.yul\":9255:9264   */\n      dup7\n        /* \"#utility.yul\":9246:9253   */\n      dup9\n        /* \"#utility.yul\":9242:9265   */\n      sub\n        /* \"#utility.yul\":9238:9271   */\n      slt\n        /* \"#utility.yul\":9235:9355   */\n      iszero\n      tag_414\n      jumpi\n        /* \"#utility.yul\":9274:9353   */\n      tag_415\n      tag_239\n      jump\t// in\n    tag_415:\n        /* \"#utility.yul\":9235:9355   */\n    tag_414:\n        /* \"#utility.yul\":9394:9395   */\n      0x00\n        /* \"#utility.yul\":9419:9472   */\n      tag_416\n        /* \"#utility.yul\":9464:9471   */\n      dup9\n        /* \"#utility.yul\":9455:9461   */\n      dup3\n        /* \"#utility.yul\":9444:9453   */\n      dup10\n        /* \"#utility.yul\":9440:9462   */\n      add\n        /* \"#utility.yul\":9419:9472   */\n      tag_253\n      jump\t// in\n    tag_416:\n        /* \"#utility.yul\":9409:9472   */\n      swap6\n      pop\n        /* \"#utility.yul\":9365:9482   */\n      pop\n        /* \"#utility.yul\":9521:9523   */\n      0x20\n        /* \"#utility.yul\":9547:9600   */\n      tag_417\n        /* \"#utility.yul\":9592:9599   */\n      dup9\n        /* \"#utility.yul\":9583:9589   */\n      dup3\n        /* \"#utility.yul\":9572:9581   */\n      dup10\n        /* \"#utility.yul\":9568:9590   */\n      add\n        /* \"#utility.yul\":9547:9600   */\n      tag_253\n      jump\t// in\n    tag_417:\n        /* \"#utility.yul\":9537:9600   */\n      swap5\n      pop\n        /* \"#utility.yul\":9492:9610   */\n      pop\n        /* \"#utility.yul\":9649:9651   */\n      0x40\n        /* \"#utility.yul\":9675:9728   */\n      tag_418\n        /* \"#utility.yul\":9720:9727   */\n      dup9\n        /* \"#utility.yul\":9711:9717   */\n      dup3\n        /* \"#utility.yul\":9700:9709   */\n      dup10\n        /* \"#utility.yul\":9696:9718   */\n      add\n        /* \"#utility.yul\":9675:9728   */\n      tag_248\n      jump\t// in\n    tag_418:\n        /* \"#utility.yul\":9665:9728   */\n      swap4\n      pop\n        /* \"#utility.yul\":9620:9738   */\n      pop\n        /* \"#utility.yul\":9805:9807   */\n      0x60\n        /* \"#utility.yul\":9794:9803   */\n      dup7\n        /* \"#utility.yul\":9790:9808   */\n      add\n        /* \"#utility.yul\":9777:9809   */\n      calldataload\n        /* \"#utility.yul\":9836:9854   */\n      0xffffffffffffffff\n        /* \"#utility.yul\":9828:9834   */\n      dup2\n        /* \"#utility.yul\":9825:9855   */\n      gt\n        /* \"#utility.yul\":9822:9939   */\n      iszero\n      tag_419\n      jumpi\n        /* \"#utility.yul\":9858:9937   */\n      tag_420\n      tag_240\n      jump\t// in\n    tag_420:\n        /* \"#utility.yul\":9822:9939   */\n    tag_419:\n        /* \"#utility.yul\":9971:10035   */\n      tag_421\n        /* \"#utility.yul\":10027:10034   */\n      dup9\n        /* \"#utility.yul\":10018:10024   */\n      dup3\n        /* \"#utility.yul\":10007:10016   */\n      dup10\n        /* \"#utility.yul\":10003:10025   */\n      add\n        /* \"#utility.yul\":9971:10035   */\n      tag_265\n      jump\t// in\n    tag_421:\n        /* \"#utility.yul\":9953:10035   */\n      swap3\n      pop\n      swap3\n      pop\n        /* \"#utility.yul\":9748:10045   */\n      pop\n        /* \"#utility.yul\":9089:10052   */\n      swap3\n      swap6\n      pop\n      swap3\n      swap6\n      swap1\n      swap4\n      pop\n      jump\t// out\n        /* \"#utility.yul\":10058:10172   */\n    tag_266:\n        /* \"#utility.yul\":10125:10131   */\n      0x00\n        /* \"#utility.yul\":10159:10164   */\n      dup2\n        /* \"#utility.yul\":10153:10165   */\n      mload\n        /* \"#utility.yul\":10143:10165   */\n      swap1\n      pop\n        /* \"#utility.yul\":10058:10172   */\n      swap2\n      swap1\n      pop\n      jump\t// out\n        /* \"#utility.yul\":10178:10362   */\n    tag_267:\n        /* \"#utility.yul\":10277:10288   */\n      0x00\n        /* \"#utility.yul\":10311:10317   */\n      dup3\n        /* \"#utility.yul\":10306:10309   */\n      dup3\n        /* \"#utility.yul\":10299:10318   */\n      mstore\n        /* \"#utility.yul\":10351:10355   */\n      0x20\n        /* \"#utility.yul\":10346:10349   */\n      dup3\n        /* \"#utility.yul\":10342:10356   */\n      add\n        /* \"#utility.yul\":10327:10356   */\n      swap1\n      pop\n        /* \"#utility.yul\":10178:10362   */\n      swap3\n      swap2\n      pop\n      pop\n      jump\t// out\n        /* \"#utility.yul\":10368:10500   */\n    tag_268:\n        /* \"#utility.yul\":10435:10439   */\n      0x00\n        /* \"#utility.yul\":10458:10461   */\n      dup2\n        /* \"#utility.yul\":10450:10461   */\n      swap1\n      pop\n        /* \"#utility.yul\":10488:10492   */\n      0x20\n        /* \"#utility.yul\":10483:10486   */\n      dup3\n        /* \"#utility.yul\":10479:10493   */\n      add\n        /* \"#utility.yul\":10471:10493   */\n      swap1\n      pop\n        /* \"#utility.yul\":10368:10500   */\n      swap2\n      swap1\n      pop\n      jump\t// out\n        /* \"#utility.yul\":10506:10614   */\n    tag_269:\n        /* \"#utility.yul\":10583:10607   */\n      tag_426\n        /* \"#utility.yul\":10601:10606   */\n      dup2\n        /* \"#utility.yul\":10583:10607   */\n      tag_246\n      jump\t// in\n    tag_426:\n        /* \"#utility.yul\":10578:10581   */\n      dup3\n        /* \"#utility.yul\":10571:10608   */\n      mstore\n        /* \"#utility.yul\":10506:10614   */\n      pop\n      pop\n      jump\t// out\n        /* \"#utility.yul\":10620:10799   */\n    tag_270:\n        /* \"#utility.yul\":10689:10699   */\n      0x00\n        /* \"#utility.yul\":10710:10756   */\n      tag_428\n        /* \"#utility.yul\":10752:10755   */\n      dup4\n        /* \"#utility.yul\":10744:10750   */\n      dup4\n        /* \"#utility.yul\":10710:10756   */\n      tag_269\n      jump\t// in\n    tag_428:\n        /* \"#utility.yul\":10788:10792   */\n      0x20\n        /* \"#utility.yul\":10783:10786   */\n      dup4\n        /* \"#utility.yul\":10779:10793   */\n      add\n        /* \"#utility.yul\":10765:10793   */\n      swap1\n      pop\n        /* \"#utility.yul\":10620:10799   */\n      swap3\n      swap2\n      pop\n      pop\n      jump\t// out\n        /* \"#utility.yul\":10805:10918   */\n    tag_271:\n        /* \"#utility.yul\":10875:10879   */\n      0x00\n        /* \"#utility.yul\":10907:10911   */\n      0x20\n        /* \"#utility.yul\":10902:10905   */\n      dup3\n        /* \"#utility.yul\":10898:10912   */\n      add\n        /* \"#utility.yul\":10890:10912   */\n      swap1\n      pop\n        /* \"#utility.yul\":10805:10918   */\n      swap2\n      swap1\n      pop\n      jump\t// out\n        /* \"#utility.yul\":10954:11686   */\n    tag_272:\n        /* \"#utility.yul\":11073:11076   */\n      0x00\n        /* \"#utility.yul\":11102:11156   */\n      tag_431\n        /* \"#utility.yul\":11150:11155   */\n      dup3\n        /* \"#utility.yul\":11102:11156   */\n      tag_266\n      jump\t// in\n    tag_431:\n        /* \"#utility.yul\":11172:11258   */\n      tag_432\n        /* \"#utility.yul\":11251:11257   */\n      dup2\n        /* \"#utility.yul\":11246:11249   */\n      dup6\n        /* \"#utility.yul\":11172:11258   */\n      tag_267\n      jump\t// in\n    tag_432:\n        /* \"#utility.yul\":11165:11258   */\n      swap4\n      pop\n        /* \"#utility.yul\":11282:11338   */\n      tag_433\n        /* \"#utility.yul\":11332:11337   */\n      dup4\n        /* \"#utility.yul\":11282:11338   */\n      tag_268\n      jump\t// in\n    tag_433:\n        /* \"#utility.yul\":11361:11368   */\n      dup1\n        /* \"#utility.yul\":11392:11393   */\n      0x00\n        /* \"#utility.yul\":11377:11661   */\n    tag_434:\n        /* \"#utility.yul\":11402:11408   */\n      dup4\n        /* \"#utility.yul\":11399:11400   */\n      dup2\n        /* \"#utility.yul\":11396:11409   */\n      lt\n        /* \"#utility.yul\":11377:11661   */\n      iszero\n      tag_436\n      jumpi\n        /* \"#utility.yul\":11478:11484   */\n      dup2\n        /* \"#utility.yul\":11472:11485   */\n      mload\n        /* \"#utility.yul\":11505:11568   */\n      tag_437\n        /* \"#utility.yul\":11564:11567   */\n      dup9\n        /* \"#utility.yul\":11549:11562   */\n      dup3\n        /* \"#utility.yul\":11505:11568   */\n      tag_270\n      jump\t// in\n    tag_437:\n        /* \"#utility.yul\":11498:11568   */\n      swap8\n      pop\n        /* \"#utility.yul\":11591:11651   */\n      tag_438\n        /* \"#utility.yul\":11644:11650   */\n      dup4\n        /* \"#utility.yul\":11591:11651   */\n      tag_271\n      jump\t// in\n    tag_438:\n        /* \"#utility.yul\":11581:11651   */\n      swap3\n      pop\n        /* \"#utility.yul\":11437:11661   */\n      pop\n        /* \"#utility.yul\":11424:11425   */\n      0x01\n        /* \"#utility.yul\":11421:11422   */\n      dup2\n        /* \"#utility.yul\":11417:11426   */\n      add\n        /* \"#utility.yul\":11412:11426   */\n      swap1\n      pop\n        /* \"#utility.yul\":11377:11661   */\n      jump(tag_434)\n    tag_436:\n        /* \"#utility.yul\":11381:11395   */\n      pop\n        /* \"#utility.yul\":11677:11680   */\n      dup6\n        /* \"#utility.yul\":11670:11680   */\n      swap4\n      pop\n        /* \"#utility.yul\":11078:11686   */\n      pop\n      pop\n      pop\n        /* \"#utility.yul\":10954:11686   */\n      swap3\n      swap2\n      pop\n      pop\n      jump\t// out\n        /* \"#utility.yul\":11692:12065   */\n    tag_89:\n        /* \"#utility.yul\":11835:11839   */\n      0x00\n        /* \"#utility.yul\":11873:11875   */\n      0x20\n        /* \"#utility.yul\":11862:11871   */\n      dup3\n        /* \"#utility.yul\":11858:11876   */\n      add\n        /* \"#utility.yul\":11850:11876   */\n      swap1\n      pop\n        /* \"#utility.yul\":11922:11931   */\n      dup2\n        /* \"#utility.yul\":11916:11920   */\n      dup2\n        /* \"#utility.yul\":11912:11932   */\n      sub\n        /* \"#utility.yul\":11908:11909   */\n      0x00\n        /* \"#utility.yul\":11897:11906   */\n      dup4\n        /* \"#utility.yul\":11893:11910   */\n      add\n        /* \"#utility.yul\":11886:11933   */\n      mstore\n        /* \"#utility.yul\":11950:12058   */\n      tag_440\n        /* \"#utility.yul\":12053:12057   */\n      dup2\n        /* \"#utility.yul\":12044:12050   */\n      dup5\n        /* \"#utility.yul\":11950:12058   */\n      tag_272\n      jump\t// in\n    tag_440:\n        /* \"#utility.yul\":11942:12058   */\n      swap1\n      pop\n        /* \"#utility.yul\":11692:12065   */\n      swap3\n      swap2\n      pop\n      pop\n      jump\t// out\n        /* \"#utility.yul\":12071:12545   */\n    tag_96:\n        /* \"#utility.yul\":12139:12145   */\n      0x00\n        /* \"#utility.yul\":12147:12153   */\n      dup1\n        /* \"#utility.yul\":12196:12198   */\n      0x40\n        /* \"#utility.yul\":12184:12193   */\n      dup4\n        /* \"#utility.yul\":12175:12182   */\n      dup6\n        /* \"#utility.yul\":12171:12194   */\n      sub\n        /* \"#utility.yul\":12167:12199   */\n      slt\n        /* \"#utility.yul\":12164:12283   */\n      iszero\n      tag_442\n      jumpi\n        /* \"#utility.yul\":12202:12281   */\n      tag_443\n      tag_239\n      jump\t// in\n    tag_443:\n        /* \"#utility.yul\":12164:12283   */\n    tag_442:\n        /* \"#utility.yul\":12322:12323   */\n      0x00\n        /* \"#utility.yul\":12347:12400   */\n      tag_444\n        /* \"#utility.yul\":12392:12399   */\n      dup6\n        /* \"#utility.yul\":12383:12389   */\n      dup3\n        /* \"#utility.yul\":12372:12381   */\n      dup7\n        /* \"#utility.yul\":12368:12390   */\n      add\n        /* \"#utility.yul\":12347:12400   */\n      tag_253\n      jump\t// in\n    tag_444:\n        /* \"#utility.yul\":12337:12400   */\n      swap3\n      pop\n        /* \"#utility.yul\":12293:12410   */\n      pop\n        /* \"#utility.yul\":12449:12451   */\n      0x20\n        /* \"#utility.yul\":12475:12528   */\n      tag_445\n        /* \"#utility.yul\":12520:12527   */\n      dup6\n        /* \"#utility.yul\":12511:12517   */\n      dup3\n        /* \"#utility.yul\":12500:12509   */\n      dup7\n        /* \"#utility.yul\":12496:12518   */\n      add\n        /* \"#utility.yul\":12475:12528   */\n      tag_253\n      jump\t// in\n    tag_445:\n        /* \"#utility.yul\":12465:12528   */\n      swap2\n      pop\n        /* \"#utility.yul\":12420:12538   */\n      pop\n        /* \"#utility.yul\":12071:12545   */\n      swap3\n      pop\n      swap3\n      swap1\n      pop\n      jump\t// out\n        /* \"#utility.yul\":12551:13025   */\n    tag_101:\n        /* \"#utility.yul\":12619:12625   */\n      0x00\n        /* \"#utility.yul\":12627:12633   */\n      dup1\n        /* \"#utility.yul\":12676:12678   */\n      0x40\n        /* \"#utility.yul\":12664:12673   */\n      dup4\n        /* \"#utility.yul\":12655:12662   */\n      dup6\n        /* \"#utility.yul\":12651:12674   */\n      sub\n        /* \"#utility.yul\":12647:12679   */\n      slt\n        /* \"#utility.yul\":12644:12763   */\n      iszero\n      tag_447\n      jumpi\n        /* \"#utility.yul\":12682:12761   */\n      tag_448\n      tag_239\n      jump\t// in\n    tag_448:\n        /* \"#utility.yul\":12644:12763   */\n    tag_447:\n        /* \"#utility.yul\":12802:12803   */\n      0x00\n        /* \"#utility.yul\":12827:12880   */\n      tag_449\n        /* \"#utility.yul\":12872:12879   */\n      dup6\n        /* \"#utility.yul\":12863:12869   */\n      dup3\n        /* \"#utility.yul\":12852:12861   */\n      dup7\n        /* \"#utility.yul\":12848:12870   */\n      add\n        /* \"#utility.yul\":12827:12880   */\n      tag_248\n      jump\t// in\n    tag_449:\n        /* \"#utility.yul\":12817:12880   */\n      swap3\n      pop\n        /* \"#utility.yul\":12773:12890   */\n      pop\n        /* \"#utility.yul\":12929:12931   */\n      0x20\n        /* \"#utility.yul\":12955:13008   */\n      tag_450\n        /* \"#utility.yul\":13000:13007   */\n      dup6\n        /* \"#utility.yul\":12991:12997   */\n      dup3\n        /* \"#utility.yul\":12980:12989   */\n      dup7\n        /* \"#utility.yul\":12976:12998   */\n      add\n        /* \"#utility.yul\":12955:13008   */\n      tag_253\n      jump\t// in\n    tag_450:\n        /* \"#utility.yul\":12945:13008   */\n      swap2\n      pop\n        /* \"#utility.yul\":12900:13018   */\n      pop\n        /* \"#utility.yul\":12551:13025   */\n      swap3\n      pop\n      swap3\n      swap1\n      pop\n      jump\t// out\n        /* \"#utility.yul\":13031:13153   */\n    tag_273:\n        /* \"#utility.yul\":13104:13128   */\n      tag_452\n        /* \"#utility.yul\":13122:13127   */\n      dup2\n        /* \"#utility.yul\":13104:13128   */\n      tag_249\n      jump\t// in\n    tag_452:\n        /* \"#utility.yul\":13097:13102   */\n      dup2\n        /* \"#utility.yul\":13094:13129   */\n      eq\n        /* \"#utility.yul\":13084:13147   */\n      tag_453\n      jumpi\n        /* \"#utility.yul\":13143:13144   */\n      0x00\n        /* \"#utility.yul\":13140:13141   */\n      dup1\n        /* \"#utility.yul\":13133:13145   */\n      revert\n        /* \"#utility.yul\":13084:13147   */\n    tag_453:\n        /* \"#utility.yul\":13031:13153   */\n      pop\n      jump\t// out\n        /* \"#utility.yul\":13159:13298   */\n    tag_274:\n        /* \"#utility.yul\":13205:13210   */\n      0x00\n        /* \"#utility.yul\":13243:13249   */\n      dup2\n        /* \"#utility.yul\":13230:13250   */\n      calldataload\n        /* \"#utility.yul\":13221:13250   */\n      swap1\n      pop\n        /* \"#utility.yul\":13259:13292   */\n      tag_455\n        /* \"#utility.yul\":13286:13291   */\n      dup2\n        /* \"#utility.yul\":13259:13292   */\n      tag_273\n      jump\t// in\n    tag_455:\n        /* \"#utility.yul\":13159:13298   */\n      swap3\n      swap2\n      pop\n      pop\n      jump\t// out\n        /* \"#utility.yul\":13304:13426   */\n    tag_275:\n        /* \"#utility.yul\":13377:13401   */\n      tag_457\n        /* \"#utility.yul\":13395:13400   */\n      dup2\n        /* \"#utility.yul\":13377:13401   */\n      tag_258\n      jump\t// in\n    tag_457:\n        /* \"#utility.yul\":13370:13375   */\n      dup2\n        /* \"#utility.yul\":13367:13402   */\n      eq\n        /* \"#utility.yul\":13357:13420   */\n      tag_458\n      jumpi\n        /* \"#utility.yul\":13416:13417   */\n      0x00\n        /* \"#utility.yul\":13413:13414   */\n      dup1\n        /* \"#utility.yul\":13406:13418   */\n      revert\n        /* \"#utility.yul\":13357:13420   */\n    tag_458:\n        /* \"#utility.yul\":13304:13426   */\n      pop\n      jump\t// out\n        /* \"#utility.yul\":13432:13571   */\n    tag_276:\n        /* \"#utility.yul\":13478:13483   */\n      0x00\n        /* \"#utility.yul\":13516:13522   */\n      dup2\n        /* \"#utility.yul\":13503:13523   */\n      calldataload\n        /* \"#utility.yul\":13494:13523   */\n      swap1\n      pop\n        /* \"#utility.yul\":13532:13565   */\n      tag_460\n        /* \"#utility.yul\":13559:13564   */\n      dup2\n        /* \"#utility.yul\":13532:13565   */\n      tag_275\n      jump\t// in\n    tag_460:\n        /* \"#utility.yul\":13432:13571   */\n      swap3\n      swap2\n      pop\n      pop\n      jump\t// out\n        /* \"#utility.yul\":13577:15218   */\n    tag_105:\n        /* \"#utility.yul\":13717:13723   */\n      0x00\n        /* \"#utility.yul\":13725:13731   */\n      dup1\n        /* \"#utility.yul\":13733:13739   */\n      0x00\n        /* \"#utility.yul\":13741:13747   */\n      dup1\n        /* \"#utility.yul\":13749:13755   */\n      0x00\n        /* \"#utility.yul\":13757:13763   */\n      dup1\n        /* \"#utility.yul\":13765:13771   */\n      0x00\n        /* \"#utility.yul\":13773:13779   */\n      dup1\n        /* \"#utility.yul\":13781:13787   */\n      0x00\n        /* \"#utility.yul\":13789:13795   */\n      dup1\n        /* \"#utility.yul\":13838:13841   */\n      0x0140\n        /* \"#utility.yul\":13826:13835   */\n      dup12\n        /* \"#utility.yul\":13817:13824   */\n      dup14\n        /* \"#utility.yul\":13813:13836   */\n      sub\n        /* \"#utility.yul\":13809:13842   */\n      slt\n        /* \"#utility.yul\":13806:13926   */\n      iszero\n      tag_462\n      jumpi\n        /* \"#utility.yul\":13845:13924   */\n      tag_463\n      tag_239\n      jump\t// in\n    tag_463:\n        /* \"#utility.yul\":13806:13926   */\n    tag_462:\n        /* \"#utility.yul\":13965:13966   */\n      0x00\n        /* \"#utility.yul\":13990:14043   */\n      tag_464\n        /* \"#utility.yul\":14035:14042   */\n      dup14\n        /* \"#utility.yul\":14026:14032   */\n      dup3\n        /* \"#utility.yul\":14015:14024   */\n      dup15\n        /* \"#utility.yul\":14011:14033   */\n      add\n        /* \"#utility.yul\":13990:14043   */\n      tag_248\n      jump\t// in\n    tag_464:\n        /* \"#utility.yul\":13980:14043   */\n      swap11\n      pop\n        /* \"#utility.yul\":13936:14053   */\n      pop\n        /* \"#utility.yul\":14092:14094   */\n      0x20\n        /* \"#utility.yul\":14118:14171   */\n      tag_465\n        /* \"#utility.yul\":14163:14170   */\n      dup14\n        /* \"#utility.yul\":14154:14160   */\n      dup3\n        /* \"#utility.yul\":14143:14152   */\n      dup15\n        /* \"#utility.yul\":14139:14161   */\n      add\n        /* \"#utility.yul\":14118:14171   */\n      tag_253\n      jump\t// in\n    tag_465:\n        /* \"#utility.yul\":14108:14171   */\n      swap10\n      pop\n        /* \"#utility.yul\":14063:14181   */\n      pop\n        /* \"#utility.yul\":14220:14222   */\n      0x40\n        /* \"#utility.yul\":14246:14299   */\n      tag_466\n        /* \"#utility.yul\":14291:14298   */\n      dup14\n        /* \"#utility.yul\":14282:14288   */\n      dup3\n        /* \"#utility.yul\":14271:14280   */\n      dup15\n        /* \"#utility.yul\":14267:14289   */\n      add\n        /* \"#utility.yul\":14246:14299   */\n      tag_253\n      jump\t// in\n    tag_466:\n        /* \"#utility.yul\":14236:14299   */\n      swap9\n      pop\n        /* \"#utility.yul\":14191:14309   */\n      pop\n        /* \"#utility.yul\":14348:14350   */\n      0x60\n        /* \"#utility.yul\":14374:14427   */\n      tag_467\n        /* \"#utility.yul\":14419:14426   */\n      dup14\n        /* \"#utility.yul\":14410:14416   */\n      dup3\n        /* \"#utility.yul\":14399:14408   */\n      dup15\n        /* \"#utility.yul\":14395:14417   */\n      add\n        /* \"#utility.yul\":14374:14427   */\n      tag_253\n      jump\t// in\n    tag_467:\n        /* \"#utility.yul\":14364:14427   */\n      swap8\n      pop\n        /* \"#utility.yul\":14319:14437   */\n      pop\n        /* \"#utility.yul\":14476:14479   */\n      0x80\n        /* \"#utility.yul\":14503:14556   */\n      tag_468\n        /* \"#utility.yul\":14548:14555   */\n      dup14\n        /* \"#utility.yul\":14539:14545   */\n      dup3\n        /* \"#utility.yul\":14528:14537   */\n      dup15\n        /* \"#utility.yul\":14524:14546   */\n      add\n        /* \"#utility.yul\":14503:14556   */\n      tag_248\n      jump\t// in\n    tag_468:\n        /* \"#utility.yul\":14493:14556   */\n      swap7\n      pop\n        /* \"#utility.yul\":14447:14566   */\n      pop\n        /* \"#utility.yul\":14605:14608   */\n      0xa0\n        /* \"#utility.yul\":14632:14685   */\n      tag_469\n        /* \"#utility.yul\":14677:14684   */\n      dup14\n        /* \"#utility.yul\":14668:14674   */\n      dup3\n        /* \"#utility.yul\":14657:14666   */\n      dup15\n        /* \"#utility.yul\":14653:14675   */\n      add\n        /* \"#utility.yul\":14632:14685   */\n      tag_248\n      jump\t// in\n    tag_469:\n        /* \"#utility.yul\":14622:14685   */\n      swap6\n      pop\n        /* \"#utility.yul\":14576:14695   */\n      pop\n        /* \"#utility.yul\":14734:14737   */\n      0xc0\n        /* \"#utility.yul\":14761:14814   */\n      tag_470\n        /* \"#utility.yul\":14806:14813   */\n      dup14\n        /* \"#utility.yul\":14797:14803   */\n      dup3\n        /* \"#utility.yul\":14786:14795   */\n      dup15\n        /* \"#utility.yul\":14782:14804   */\n      add\n        /* \"#utility.yul\":14761:14814   */\n      tag_248\n      jump\t// in\n    tag_470:\n        /* \"#utility.yul\":14751:14814   */\n      swap5\n      pop\n        /* \"#utility.yul\":14705:14824   */\n      pop\n        /* \"#utility.yul\":14863:14866   */\n      0xe0\n        /* \"#utility.yul\":14890:14943   */\n      tag_471\n        /* \"#utility.yul\":14935:14942   */\n      dup14\n        /* \"#utility.yul\":14926:14932   */\n      dup3\n        /* \"#utility.yul\":14915:14924   */\n      dup15\n        /* \"#utility.yul\":14911:14933   */\n      add\n        /* \"#utility.yul\":14890:14943   */\n      tag_274\n      jump\t// in\n    tag_471:\n        /* \"#utility.yul\":14880:14943   */\n      swap4\n      pop\n        /* \"#utility.yul\":14834:14953   */\n      pop\n        /* \"#utility.yul\":14992:14995   */\n      0x0100\n        /* \"#utility.yul\":15019:15072   */\n      tag_472\n        /* \"#utility.yul\":15064:15071   */\n      dup14\n        /* \"#utility.yul\":15055:15061   */\n      dup3\n        /* \"#utility.yul\":15044:15053   */\n      dup15\n        /* \"#utility.yul\":15040:15062   */\n      add\n        /* \"#utility.yul\":15019:15072   */\n      tag_274\n      jump\t// in\n    tag_472:\n        /* \"#utility.yul\":15009:15072   */\n      swap3\n      pop\n        /* \"#utility.yul\":14963:15082   */\n      pop\n        /* \"#utility.yul\":15121:15124   */\n      0x0120\n        /* \"#utility.yul\":15148:15201   */\n      tag_473\n        /* \"#utility.yul\":15193:15200   */\n      dup14\n        /* \"#utility.yul\":15184:15190   */\n      dup3\n        /* \"#utility.yul\":15173:15182   */\n      dup15\n        /* \"#utility.yul\":15169:15191   */\n      add\n        /* \"#utility.yul\":15148:15201   */\n      tag_276\n      jump\t// in\n    tag_473:\n        /* \"#utility.yul\":15138:15201   */\n      swap2\n      pop\n        /* \"#utility.yul\":15092:15211   */\n      pop\n        /* \"#utility.yul\":13577:15218   */\n      swap3\n      swap6\n      swap9\n      swap12\n      swap2\n      swap5\n      swap8\n      swap11\n      pop\n      swap3\n      swap6\n      swap9\n      pop\n      jump\t// out\n        /* \"#utility.yul\":15224:15332   */\n    tag_277:\n        /* \"#utility.yul\":15301:15325   */\n      tag_475\n        /* \"#utility.yul\":15319:15324   */\n      dup2\n        /* \"#utility.yul\":15301:15325   */\n      tag_250\n      jump\t// in\n    tag_475:\n        /* \"#utility.yul\":15296:15299   */\n      dup3\n        /* \"#utility.yul\":15289:15326   */\n      mstore\n        /* \"#utility.yul\":15224:15332   */\n      pop\n      pop\n      jump\t// out\n        /* \"#utility.yul\":15338:15446   */\n    tag_278:\n        /* \"#utility.yul\":15415:15439   */\n      tag_477\n        /* \"#utility.yul\":15433:15438   */\n      dup2\n        /* \"#utility.yul\":15415:15439   */\n      tag_249\n      jump\t// in\n    tag_477:\n        /* \"#utility.yul\":15410:15413   */\n      dup3\n        /* \"#utility.yul\":15403:15440   */\n      mstore\n        /* \"#utility.yul\":15338:15446   */\n      pop\n      pop\n      jump\t// out\n        /* \"#utility.yul\":15452:15560   */\n    tag_279:\n        /* \"#utility.yul\":15529:15553   */\n      tag_479\n        /* \"#utility.yul\":15547:15552   */\n      dup2\n        /* \"#utility.yul\":15529:15553   */\n      tag_258\n      jump\t// in\n    tag_479:\n        /* \"#utility.yul\":15524:15527   */\n      dup3\n        /* \"#utility.yul\":15517:15554   */\n      mstore\n        /* \"#utility.yul\":15452:15560   */\n      pop\n      pop\n      jump\t// out\n        /* \"#utility.yul\":15660:17609   */\n    tag_280:\n        /* \"#utility.yul\":15815:15821   */\n      0x0140\n        /* \"#utility.yul\":15810:15813   */\n      dup3\n        /* \"#utility.yul\":15806:15822   */\n      add\n        /* \"#utility.yul\":15906:15910   */\n      0x00\n        /* \"#utility.yul\":15899:15904   */\n      dup3\n        /* \"#utility.yul\":15895:15911   */\n      add\n        /* \"#utility.yul\":15889:15912   */\n      mload\n        /* \"#utility.yul\":15925:15988   */\n      tag_481\n        /* \"#utility.yul\":15982:15986   */\n      0x00\n        /* \"#utility.yul\":15977:15980   */\n      dup6\n        /* \"#utility.yul\":15973:15987   */\n      add\n        /* \"#utility.yul\":15959:15971   */\n      dup3\n        /* \"#utility.yul\":15925:15988   */\n      tag_269\n      jump\t// in\n    tag_481:\n        /* \"#utility.yul\":15832:15998   */\n      pop\n        /* \"#utility.yul\":16081:16085   */\n      0x20\n        /* \"#utility.yul\":16074:16079   */\n      dup3\n        /* \"#utility.yul\":16070:16086   */\n      add\n        /* \"#utility.yul\":16064:16087   */\n      mload\n        /* \"#utility.yul\":16100:16163   */\n      tag_482\n        /* \"#utility.yul\":16157:16161   */\n      0x20\n        /* \"#utility.yul\":16152:16155   */\n      dup6\n        /* \"#utility.yul\":16148:16162   */\n      add\n        /* \"#utility.yul\":16134:16146   */\n      dup3\n        /* \"#utility.yul\":16100:16163   */\n      tag_277\n      jump\t// in\n    tag_482:\n        /* \"#utility.yul\":16008:16173   */\n      pop\n        /* \"#utility.yul\":16257:16261   */\n      0x40\n        /* \"#utility.yul\":16250:16255   */\n      dup3\n        /* \"#utility.yul\":16246:16262   */\n      add\n        /* \"#utility.yul\":16240:16263   */\n      mload\n        /* \"#utility.yul\":16276:16339   */\n      tag_483\n        /* \"#utility.yul\":16333:16337   */\n      0x40\n        /* \"#utility.yul\":16328:16331   */\n      dup6\n        /* \"#utility.yul\":16324:16338   */\n      add\n        /* \"#utility.yul\":16310:16322   */\n      dup3\n        /* \"#utility.yul\":16276:16339   */\n      tag_277\n      jump\t// in\n    tag_483:\n        /* \"#utility.yul\":16183:16349   */\n      pop\n        /* \"#utility.yul\":16433:16437   */\n      0x60\n        /* \"#utility.yul\":16426:16431   */\n      dup3\n        /* \"#utility.yul\":16422:16438   */\n      add\n        /* \"#utility.yul\":16416:16439   */\n      mload\n        /* \"#utility.yul\":16452:16515   */\n      tag_484\n        /* \"#utility.yul\":16509:16513   */\n      0x60\n        /* \"#utility.yul\":16504:16507   */\n      dup6\n        /* \"#utility.yul\":16500:16514   */\n      add\n        /* \"#utility.yul\":16486:16498   */\n      dup3\n        /* \"#utility.yul\":16452:16515   */\n      tag_277\n      jump\t// in\n    tag_484:\n        /* \"#utility.yul\":16359:16525   */\n      pop\n        /* \"#utility.yul\":16606:16610   */\n      0x80\n        /* \"#utility.yul\":16599:16604   */\n      dup3\n        /* \"#utility.yul\":16595:16611   */\n      add\n        /* \"#utility.yul\":16589:16612   */\n      mload\n        /* \"#utility.yul\":16625:16688   */\n      tag_485\n        /* \"#utility.yul\":16682:16686   */\n      0x80\n        /* \"#utility.yul\":16677:16680   */\n      dup6\n        /* \"#utility.yul\":16673:16687   */\n      add\n        /* \"#utility.yul\":16659:16671   */\n      dup3\n        /* \"#utility.yul\":16625:16688   */\n      tag_269\n      jump\t// in\n    tag_485:\n        /* \"#utility.yul\":16535:16698   */\n      pop\n        /* \"#utility.yul\":16783:16787   */\n      0xa0\n        /* \"#utility.yul\":16776:16781   */\n      dup3\n        /* \"#utility.yul\":16772:16788   */\n      add\n        /* \"#utility.yul\":16766:16789   */\n      mload\n        /* \"#utility.yul\":16802:16865   */\n      tag_486\n        /* \"#utility.yul\":16859:16863   */\n      0xa0\n        /* \"#utility.yul\":16854:16857   */\n      dup6\n        /* \"#utility.yul\":16850:16864   */\n      add\n        /* \"#utility.yul\":16836:16848   */\n      dup3\n        /* \"#utility.yul\":16802:16865   */\n      tag_269\n      jump\t// in\n    tag_486:\n        /* \"#utility.yul\":16708:16875   */\n      pop\n        /* \"#utility.yul\":16960:16964   */\n      0xc0\n        /* \"#utility.yul\":16953:16958   */\n      dup3\n        /* \"#utility.yul\":16949:16965   */\n      add\n        /* \"#utility.yul\":16943:16966   */\n      mload\n        /* \"#utility.yul\":16979:17042   */\n      tag_487\n        /* \"#utility.yul\":17036:17040   */\n      0xc0\n        /* \"#utility.yul\":17031:17034   */\n      dup6\n        /* \"#utility.yul\":17027:17041   */\n      add\n        /* \"#utility.yul\":17013:17025   */\n      dup3\n        /* \"#utility.yul\":16979:17042   */\n      tag_269\n      jump\t// in\n    tag_487:\n        /* \"#utility.yul\":16885:17052   */\n      pop\n        /* \"#utility.yul\":17139:17143   */\n      0xe0\n        /* \"#utility.yul\":17132:17137   */\n      dup3\n        /* \"#utility.yul\":17128:17144   */\n      add\n        /* \"#utility.yul\":17122:17145   */\n      mload\n        /* \"#utility.yul\":17158:17221   */\n      tag_488\n        /* \"#utility.yul\":17215:17219   */\n      0xe0\n        /* \"#utility.yul\":17210:17213   */\n      dup6\n        /* \"#utility.yul\":17206:17220   */\n      add\n        /* \"#utility.yul\":17192:17204   */\n      dup3\n        /* \"#utility.yul\":17158:17221   */\n      tag_278\n      jump\t// in\n    tag_488:\n        /* \"#utility.yul\":17062:17231   */\n      pop\n        /* \"#utility.yul\":17318:17324   */\n      0x0100\n        /* \"#utility.yul\":17311:17316   */\n      dup3\n        /* \"#utility.yul\":17307:17325   */\n      add\n        /* \"#utility.yul\":17301:17326   */\n      mload\n        /* \"#utility.yul\":17339:17404   */\n      tag_489\n        /* \"#utility.yul\":17396:17402   */\n      0x0100\n        /* \"#utility.yul\":17391:17394   */\n      dup6\n        /* \"#utility.yul\":17387:17403   */\n      add\n        /* \"#utility.yul\":17373:17385   */\n      dup3\n        /* \"#utility.yul\":17339:17404   */\n      tag_278\n      jump\t// in\n    tag_489:\n        /* \"#utility.yul\":17241:17414   */\n      pop\n        /* \"#utility.yul\":17506:17512   */\n      0x0120\n        /* \"#utility.yul\":17499:17504   */\n      dup3\n        /* \"#utility.yul\":17495:17513   */\n      add\n        /* \"#utility.yul\":17489:17514   */\n      mload\n        /* \"#utility.yul\":17527:17592   */\n      tag_490\n        /* \"#utility.yul\":17584:17590   */\n      0x0120\n        /* \"#utility.yul\":17579:17582   */\n      dup6\n        /* \"#utility.yul\":17575:17591   */\n      add\n        /* \"#utility.yul\":17561:17573   */\n      dup3\n        /* \"#utility.yul\":17527:17592   */\n      tag_279\n      jump\t// in\n    tag_490:\n        /* \"#utility.yul\":17424:17602   */\n      pop\n        /* \"#utility.yul\":15784:17609   */\n      pop\n        /* \"#utility.yul\":15660:17609   */\n      pop\n      pop\n      jump\t// out\n        /* \"#utility.yul\":17615:17954   */\n    tag_108:\n        /* \"#utility.yul\":17766:17770   */\n      0x00\n        /* \"#utility.yul\":17804:17807   */\n      0x0140\n        /* \"#utility.yul\":17793:17802   */\n      dup3\n        /* \"#utility.yul\":17789:17808   */\n      add\n        /* \"#utility.yul\":17781:17808   */\n      swap1\n      pop\n        /* \"#utility.yul\":17818:17947   */\n      tag_492\n        /* \"#utility.yul\":17944:17945   */\n      0x00\n        /* \"#utility.yul\":17933:17942   */\n      dup4\n        /* \"#utility.yul\":17929:17946   */\n      add\n        /* \"#utility.yul\":17920:17926   */\n      dup5\n        /* \"#utility.yul\":17818:17947   */\n      tag_280\n      jump\t// in\n    tag_492:\n        /* \"#utility.yul\":17615:17954   */\n      swap3\n      swap2\n      pop\n      pop\n      jump\t// out\n        /* \"#utility.yul\":17960:18129   */\n    tag_281:\n        /* \"#utility.yul\":18044:18055   */\n      0x00\n        /* \"#utility.yul\":18078:18084   */\n      dup3\n        /* \"#utility.yul\":18073:18076   */\n      dup3\n        /* \"#utility.yul\":18066:18085   */\n      mstore\n        /* \"#utility.yul\":18118:18122   */\n      0x20\n        /* \"#utility.yul\":18113:18116   */\n      dup3\n        /* \"#utility.yul\":18109:18123   */\n      add\n        /* \"#utility.yul\":18094:18123   */\n      swap1\n      pop\n        /* \"#utility.yul\":17960:18129   */\n      swap3\n      swap2\n      pop\n      pop\n      jump\t// out\n        /* \"#utility.yul\":18135:18303   */\n    tag_282:\n        /* \"#utility.yul\":18275:18295   */\n      0x746f6b656e20646f657327742065786974730000000000000000000000000000\n        /* \"#utility.yul\":18271:18272   */\n      0x00\n        /* \"#utility.yul\":18263:18269   */\n      dup3\n        /* \"#utility.yul\":18259:18273   */\n      add\n        /* \"#utility.yul\":18252:18296   */\n      mstore\n        /* \"#utility.yul\":18135:18303   */\n      pop\n      jump\t// out\n        /* \"#utility.yul\":18309:18675   */\n    tag_283:\n        /* \"#utility.yul\":18451:18454   */\n      0x00\n        /* \"#utility.yul\":18472:18539   */\n      tag_496\n        /* \"#utility.yul\":18536:18538   */\n      0x12\n        /* \"#utility.yul\":18531:18534   */\n      dup4\n        /* \"#utility.yul\":18472:18539   */\n      tag_281\n      jump\t// in\n    tag_496:\n        /* \"#utility.yul\":18465:18539   */\n      swap2\n      pop\n        /* \"#utility.yul\":18548:18641   */\n      tag_497\n        /* \"#utility.yul\":18637:18640   */\n      dup3\n        /* \"#utility.yul\":18548:18641   */\n      tag_282\n      jump\t// in\n    tag_497:\n        /* \"#utility.yul\":18666:18668   */\n      0x20\n        /* \"#utility.yul\":18661:18664   */\n      dup3\n        /* \"#utility.yul\":18657:18669   */\n      add\n        /* \"#utility.yul\":18650:18669   */\n      swap1\n      pop\n        /* \"#utility.yul\":18309:18675   */\n      swap2\n      swap1\n      pop\n      jump\t// out\n        /* \"#utility.yul\":18681:19100   */\n    tag_114:\n        /* \"#utility.yul\":18847:18851   */\n      0x00\n        /* \"#utility.yul\":18885:18887   */\n      0x20\n        /* \"#utility.yul\":18874:18883   */\n      dup3\n        /* \"#utility.yul\":18870:18888   */\n      add\n        /* \"#utility.yul\":18862:18888   */\n      swap1\n      pop\n        /* \"#utility.yul\":18934:18943   */\n      dup2\n        /* \"#utility.yul\":18928:18932   */\n      dup2\n        /* \"#utility.yul\":18924:18944   */\n      sub\n        /* \"#utility.yul\":18920:18921   */\n      0x00\n        /* \"#utility.yul\":18909:18918   */\n      dup4\n        /* \"#utility.yul\":18905:18922   */\n      add\n        /* \"#utility.yul\":18898:18945   */\n      mstore\n        /* \"#utility.yul\":18962:19093   */\n      tag_499\n        /* \"#utility.yul\":19088:19092   */\n      dup2\n        /* \"#utility.yul\":18962:19093   */\n      tag_283\n      jump\t// in\n    tag_499:\n        /* \"#utility.yul\":18954:19093   */\n      swap1\n      pop\n        /* \"#utility.yul\":18681:19100   */\n      swap2\n      swap1\n      pop\n      jump\t// out\n        /* \"#utility.yul\":19106:19270   */\n    tag_284:\n        /* \"#utility.yul\":19246:19262   */\n      0x6e6f7420617574686f72697a6564000000000000000000000000000000000000\n        /* \"#utility.yul\":19242:19243   */\n      0x00\n        /* \"#utility.yul\":19234:19240   */\n      dup3\n        /* \"#utility.yul\":19230:19244   */\n      add\n        /* \"#utility.yul\":19223:19263   */\n      mstore\n        /* \"#utility.yul\":19106:19270   */\n      pop\n      jump\t// out\n        /* \"#utility.yul\":19276:19642   */\n    tag_285:\n        /* \"#utility.yul\":19418:19421   */\n      0x00\n        /* \"#utility.yul\":19439:19506   */\n      tag_502\n        /* \"#utility.yul\":19503:19505   */\n      0x0e\n        /* \"#utility.yul\":19498:19501   */\n      dup4\n        /* \"#utility.yul\":19439:19506   */\n      tag_281\n      jump\t// in\n    tag_502:\n        /* \"#utility.yul\":19432:19506   */\n      swap2\n      pop\n        /* \"#utility.yul\":19515:19608   */\n      tag_503\n        /* \"#utility.yul\":19604:19607   */\n      dup3\n        /* \"#utility.yul\":19515:19608   */\n      tag_284\n      jump\t// in\n    tag_503:\n        /* \"#utility.yul\":19633:19635   */\n      0x20\n        /* \"#utility.yul\":19628:19631   */\n      dup3\n        /* \"#utility.yul\":19624:19636   */\n      add\n        /* \"#utility.yul\":19617:19636   */\n      swap1\n      pop\n        /* \"#utility.yul\":19276:19642   */\n      swap2\n      swap1\n      pop\n      jump\t// out\n        /* \"#utility.yul\":19648:20067   */\n    tag_119:\n        /* \"#utility.yul\":19814:19818   */\n      0x00\n        /* \"#utility.yul\":19852:19854   */\n      0x20\n        /* \"#utility.yul\":19841:19850   */\n      dup3\n        /* \"#utility.yul\":19837:19855   */\n      add\n        /* \"#utility.yul\":19829:19855   */\n      swap1\n      pop\n        /* \"#utility.yul\":19901:19910   */\n      dup2\n        /* \"#utility.yul\":19895:19899   */\n      dup2\n        /* \"#utility.yul\":19891:19911   */\n      sub\n        /* \"#utility.yul\":19887:19888   */\n      0x00\n        /* \"#utility.yul\":19876:19885   */\n      dup4\n        /* \"#utility.yul\":19872:19889   */\n      add\n        /* \"#utility.yul\":19865:19912   */\n      mstore\n        /* \"#utility.yul\":19929:20060   */\n      tag_505\n        /* \"#utility.yul\":20055:20059   */\n      dup2\n        /* \"#utility.yul\":19929:20060   */\n      tag_285\n      jump\t// in\n    tag_505:\n        /* \"#utility.yul\":19921:20060   */\n      swap1\n      pop\n        /* \"#utility.yul\":19648:20067   */\n      swap2\n      swap1\n      pop\n      jump\t// out\n        /* \"#utility.yul\":20073:20236   */\n    tag_286:\n        /* \"#utility.yul\":20213:20228   */\n      0x66726f6d20213d206f776e657200000000000000000000000000000000000000\n        /* \"#utility.yul\":20209:20210   */\n      0x00\n        /* \"#utility.yul\":20201:20207   */\n      dup3\n        /* \"#utility.yul\":20197:20211   */\n      add\n        /* \"#utility.yul\":20190:20229   */\n      mstore\n        /* \"#utility.yul\":20073:20236   */\n      pop\n      jump\t// out\n        /* \"#utility.yul\":20242:20608   */\n    tag_287:\n        /* \"#utility.yul\":20384:20387   */\n      0x00\n        /* \"#utility.yul\":20405:20472   */\n      tag_508\n        /* \"#utility.yul\":20469:20471   */\n      0x0d\n        /* \"#utility.yul\":20464:20467   */\n      dup4\n        /* \"#utility.yul\":20405:20472   */\n      tag_281\n      jump\t// in\n    tag_508:\n        /* \"#utility.yul\":20398:20472   */\n      swap2\n      pop\n        /* \"#utility.yul\":20481:20574   */\n      tag_509\n        /* \"#utility.yul\":20570:20573   */\n      dup3\n        /* \"#utility.yul\":20481:20574   */\n      tag_286\n      jump\t// in\n    tag_509:\n        /* \"#utility.yul\":20599:20601   */\n      0x20\n        /* \"#utility.yul\":20594:20597   */\n      dup3\n        /* \"#utility.yul\":20590:20602   */\n      add\n        /* \"#utility.yul\":20583:20602   */\n      swap1\n      pop\n        /* \"#utility.yul\":20242:20608   */\n      swap2\n      swap1\n      pop\n      jump\t// out\n        /* \"#utility.yul\":20614:21033   */\n    tag_123:\n        /* \"#utility.yul\":20780:20784   */\n      0x00\n        /* \"#utility.yul\":20818:20820   */\n      0x20\n        /* \"#utility.yul\":20807:20816   */\n      dup3\n        /* \"#utility.yul\":20803:20821   */\n      add\n        /* \"#utility.yul\":20795:20821   */\n      swap1\n      pop\n        /* \"#utility.yul\":20867:20876   */\n      dup2\n        /* \"#utility.yul\":20861:20865   */\n      dup2\n        /* \"#utility.yul\":20857:20877   */\n      sub\n        /* \"#utility.yul\":20853:20854   */\n      0x00\n        /* \"#utility.yul\":20842:20851   */\n      dup4\n        /* \"#utility.yul\":20838:20855   */\n      add\n        /* \"#utility.yul\":20831:20878   */\n      mstore\n        /* \"#utility.yul\":20895:21026   */\n      tag_511\n        /* \"#utility.yul\":21021:21025   */\n      dup2\n        /* \"#utility.yul\":20895:21026   */\n      tag_287\n      jump\t// in\n    tag_511:\n        /* \"#utility.yul\":20887:21026   */\n      swap1\n      pop\n        /* \"#utility.yul\":20614:21033   */\n      swap2\n      swap1\n      pop\n      jump\t// out\n        /* \"#utility.yul\":21039:21206   */\n    tag_288:\n        /* \"#utility.yul\":21179:21198   */\n      0x746f203d207a65726f2061646472657373000000000000000000000000000000\n        /* \"#utility.yul\":21175:21176   */\n      0x00\n        /* \"#utility.yul\":21167:21173   */\n      dup3\n        /* \"#utility.yul\":21163:21177   */\n      add\n        /* \"#utility.yul\":21156:21199   */\n      mstore\n        /* \"#utility.yul\":21039:21206   */\n      pop\n      jump\t// out\n        /* \"#utility.yul\":21212:21578   */\n    tag_289:\n        /* \"#utility.yul\":21354:21357   */\n      0x00\n        /* \"#utility.yul\":21375:21442   */\n      tag_514\n        /* \"#utility.yul\":21439:21441   */\n      0x11\n        /* \"#utility.yul\":21434:21437   */\n      dup4\n        /* \"#utility.yul\":21375:21442   */\n      tag_281\n      jump\t// in\n    tag_514:\n        /* \"#utility.yul\":21368:21442   */\n      swap2\n      pop\n        /* \"#utility.yul\":21451:21544   */\n      tag_515\n        /* \"#utility.yul\":21540:21543   */\n      dup3\n        /* \"#utility.yul\":21451:21544   */\n      tag_288\n      jump\t// in\n    tag_515:\n        /* \"#utility.yul\":21569:21571   */\n      0x20\n        /* \"#utility.yul\":21564:21567   */\n      dup3\n        /* \"#utility.yul\":21560:21572   */\n      add\n        /* \"#utility.yul\":21553:21572   */\n      swap1\n      pop\n        /* \"#utility.yul\":21212:21578   */\n      swap2\n      swap1\n      pop\n      jump\t// out\n        /* \"#utility.yul\":21584:22003   */\n    tag_126:\n        /* \"#utility.yul\":21750:21754   */\n      0x00\n        /* \"#utility.yul\":21788:21790   */\n      0x20\n        /* \"#utility.yul\":21777:21786   */\n      dup3\n        /* \"#utility.yul\":21773:21791   */\n      add\n        /* \"#utility.yul\":21765:21791   */\n      swap1\n      pop\n        /* \"#utility.yul\":21837:21846   */\n      dup2\n        /* \"#utility.yul\":21831:21835   */\n      dup2\n        /* \"#utility.yul\":21827:21847   */\n      sub\n        /* \"#utility.yul\":21823:21824   */\n      0x00\n        /* \"#utility.yul\":21812:21821   */\n      dup4\n        /* \"#utility.yul\":21808:21825   */\n      add\n        /* \"#utility.yul\":21801:21848   */\n      mstore\n        /* \"#utility.yul\":21865:21996   */\n      tag_517\n        /* \"#utility.yul\":21991:21995   */\n      dup2\n        /* \"#utility.yul\":21865:21996   */\n      tag_289\n      jump\t// in\n    tag_517:\n        /* \"#utility.yul\":21857:21996   */\n      swap1\n      pop\n        /* \"#utility.yul\":21584:22003   */\n      swap2\n      swap1\n      pop\n      jump\t// out\n        /* \"#utility.yul\":22009:22189   */\n    tag_290:\n        /* \"#utility.yul\":22057:22134   */\n      0x4e487b7100000000000000000000000000000000000000000000000000000000\n        /* \"#utility.yul\":22054:22055   */\n      0x00\n        /* \"#utility.yul\":22047:22135   */\n      mstore\n        /* \"#utility.yul\":22154:22158   */\n      0x11\n        /* \"#utility.yul\":22151:22152   */\n      0x04\n        /* \"#utility.yul\":22144:22159   */\n      mstore\n        /* \"#utility.yul\":22178:22182   */\n      0x24\n        /* \"#utility.yul\":22175:22176   */\n      0x00\n        /* \"#utility.yul\":22168:22183   */\n      revert\n        /* \"#utility.yul\":22195:22366   */\n    tag_132:\n        /* \"#utility.yul\":22234:22237   */\n      0x00\n        /* \"#utility.yul\":22257:22281   */\n      tag_520\n        /* \"#utility.yul\":22275:22280   */\n      dup3\n        /* \"#utility.yul\":22257:22281   */\n      tag_246\n      jump\t// in\n    tag_520:\n        /* \"#utility.yul\":22248:22281   */\n      swap2\n      pop\n        /* \"#utility.yul\":22303:22307   */\n      0x00\n        /* \"#utility.yul\":22296:22301   */\n      dup3\n        /* \"#utility.yul\":22293:22308   */\n      sub\n        /* \"#utility.yul\":22290:22331   */\n      tag_521\n      jumpi\n        /* \"#utility.yul\":22311:22329   */\n      tag_522\n      tag_290\n      jump\t// in\n    tag_522:\n        /* \"#utility.yul\":22290:22331   */\n    tag_521:\n        /* \"#utility.yul\":22358:22359   */\n      0x01\n        /* \"#utility.yul\":22351:22356   */\n      dup3\n        /* \"#utility.yul\":22347:22360   */\n      sub\n        /* \"#utility.yul\":22340:22360   */\n      swap1\n      pop\n        /* \"#utility.yul\":22195:22366   */\n      swap2\n      swap1\n      pop\n      jump\t// out\n        /* \"#utility.yul\":22372:22605   */\n    tag_134:\n        /* \"#utility.yul\":22411:22414   */\n      0x00\n        /* \"#utility.yul\":22434:22458   */\n      tag_524\n        /* \"#utility.yul\":22452:22457   */\n      dup3\n        /* \"#utility.yul\":22434:22458   */\n      tag_246\n      jump\t// in\n    tag_524:\n        /* \"#utility.yul\":22425:22458   */\n      swap2\n      pop\n        /* \"#utility.yul\":22480:22546   */\n      0xffffffffffffffffffffffffffffffffffffffffffffffffffffffffffffffff\n        /* \"#utility.yul\":22473:22478   */\n      dup3\n        /* \"#utility.yul\":22470:22547   */\n      sub\n        /* \"#utility.yul\":22467:22570   */\n      tag_525\n      jumpi\n        /* \"#utility.yul\":22550:22568   */\n      tag_526\n      tag_290\n      jump\t// in\n    tag_526:\n        /* \"#utility.yul\":22467:22570   */\n    tag_525:\n        /* \"#utility.yul\":22597:22598   */\n      0x01\n        /* \"#utility.yul\":22590:22595   */\n      dup3\n        /* \"#utility.yul\":22586:22599   */\n      add\n        /* \"#utility.yul\":22579:22599   */\n      swap1\n      pop\n        /* \"#utility.yul\":22372:22605   */\n      swap2\n      swap1\n      pop\n      jump\t// out\n        /* \"#utility.yul\":22611:22940   */\n    tag_148:\n        /* \"#utility.yul\":22670:22676   */\n      0x00\n        /* \"#utility.yul\":22719:22721   */\n      0x20\n        /* \"#utility.yul\":22707:22716   */\n      dup3\n        /* \"#utility.yul\":22698:22705   */\n      dup5\n        /* \"#utility.yul\":22694:22717   */\n      sub\n        /* \"#utility.yul\":22690:22722   */\n      slt\n        /* \"#utility.yul\":22687:22806   */\n      iszero\n      tag_528\n      jumpi\n        /* \"#utility.yul\":22725:22804   */\n      tag_529\n      tag_239\n      jump\t// in\n    tag_529:\n        /* \"#utility.yul\":22687:22806   */\n    tag_528:\n        /* \"#utility.yul\":22845:22846   */\n      0x00\n        /* \"#utility.yul\":22870:22923   */\n      tag_530\n        /* \"#utility.yul\":22915:22922   */\n      dup5\n        /* \"#utility.yul\":22906:22912   */\n      dup3\n        /* \"#utility.yul\":22895:22904   */\n      dup6\n        /* \"#utility.yul\":22891:22913   */\n      add\n        /* \"#utility.yul\":22870:22923   */\n      tag_274\n      jump\t// in\n    tag_530:\n        /* \"#utility.yul\":22860:22923   */\n      swap2\n      pop\n        /* \"#utility.yul\":22816:22933   */\n      pop\n        /* \"#utility.yul\":22611:22940   */\n      swap3\n      swap2\n      pop\n      pop\n      jump\t// out\n        /* \"#utility.yul\":22946:23275   */\n    tag_151:\n        /* \"#utility.yul\":23005:23011   */\n      0x00\n        /* \"#utility.yul\":23054:23056   */\n      0x20\n        /* \"#utility.yul\":23042:23051   */\n      dup3\n        /* \"#utility.yul\":23033:23040   */\n      dup5\n        /* \"#utility.yul\":23029:23052   */\n      sub\n        /* \"#utility.yul\":23025:23057   */\n      slt\n        /* \"#utility.yul\":23022:23141   */\n      iszero\n      tag_532\n      jumpi\n        /* \"#utility.yul\":23060:23139   */\n      tag_533\n      tag_239\n      jump\t// in\n    tag_533:\n        /* \"#utility.yul\":23022:23141   */\n    tag_532:\n        /* \"#utility.yul\":23180:23181   */\n      0x00\n        /* \"#utility.yul\":23205:23258   */\n      tag_534\n        /* \"#utility.yul\":23250:23257   */\n      dup5\n        /* \"#utility.yul\":23241:23247   */\n      dup3\n        /* \"#utility.yul\":23230:23239   */\n      dup6\n        /* \"#utility.yul\":23226:23248   */\n      add\n        /* \"#utility.yul\":23205:23258   */\n      tag_276\n      jump\t// in\n    tag_534:\n        /* \"#utility.yul\":23195:23258   */\n      swap2\n      pop\n        /* \"#utility.yul\":23151:23268   */\n      pop\n        /* \"#utility.yul\":22946:23275   */\n      swap3\n      swap2\n      pop\n      pop\n      jump\t// out\n        /* \"#utility.yul\":23281:23449   */\n    tag_291:\n        /* \"#utility.yul\":23364:23375   */\n      0x00\n        /* \"#utility.yul\":23398:23404   */\n      dup3\n        /* \"#utility.yul\":23393:23396   */\n      dup3\n        /* \"#utility.yul\":23386:23405   */\n      mstore\n        /* \"#utility.yul\":23438:23442   */\n      0x20\n        /* \"#utility.yul\":23433:23436   */\n      dup3\n        /* \"#utility.yul\":23429:23443   */\n      add\n        /* \"#utility.yul\":23414:23443   */\n      swap1\n      pop\n        /* \"#utility.yul\":23281:23449   */\n      swap3\n      swap2\n      pop\n      pop\n      jump\t// out\n        /* \"#utility.yul\":23455:23569   */\n    tag_292:\n      pop\n      jump\t// out\n        /* \"#utility.yul\":23575:23937   */\n    tag_293:\n        /* \"#utility.yul\":23716:23719   */\n      0x00\n        /* \"#utility.yul\":23737:23802   */\n      tag_538\n        /* \"#utility.yul\":23800:23801   */\n      0x00\n        /* \"#utility.yul\":23795:23798   */\n      dup4\n        /* \"#utility.yul\":23737:23802   */\n      tag_291\n      jump\t// in\n    tag_538:\n        /* \"#utility.yul\":23730:23802   */\n      swap2\n      pop\n        /* \"#utility.yul\":23811:23904   */\n      tag_539\n        /* \"#utility.yul\":23900:23903   */\n      dup3\n        /* \"#utility.yul\":23811:23904   */\n      tag_292\n      jump\t// in\n    tag_539:\n        /* \"#utility.yul\":23929:23930   */\n      0x00\n        /* \"#utility.yul\":23924:23927   */\n      dup3\n        /* \"#utility.yul\":23920:23931   */\n      add\n        /* \"#utility.yul\":23913:23931   */\n      swap1\n      pop\n        /* \"#utility.yul\":23575:23937   */\n      swap2\n      swap1\n      pop\n      jump\t// out\n        /* \"#utility.yul\":23943:24691   */\n    tag_157:\n        /* \"#utility.yul\":24192:24196   */\n      0x00\n        /* \"#utility.yul\":24230:24233   */\n      0x80\n        /* \"#utility.yul\":24219:24228   */\n      dup3\n        /* \"#utility.yul\":24215:24234   */\n      add\n        /* \"#utility.yul\":24207:24234   */\n      swap1\n      pop\n        /* \"#utility.yul\":24244:24315   */\n      tag_541\n        /* \"#utility.yul\":24312:24313   */\n      0x00\n        /* \"#utility.yul\":24301:24310   */\n      dup4\n        /* \"#utility.yul\":24297:24314   */\n      add\n        /* \"#utility.yul\":24288:24294   */\n      dup7\n        /* \"#utility.yul\":24244:24315   */\n      tag_251\n      jump\t// in\n    tag_541:\n        /* \"#utility.yul\":24325:24397   */\n      tag_542\n        /* \"#utility.yul\":24393:24395   */\n      0x20\n        /* \"#utility.yul\":24382:24391   */\n      dup4\n        /* \"#utility.yul\":24378:24396   */\n      add\n        /* \"#utility.yul\":24369:24375   */\n      dup6\n        /* \"#utility.yul\":24325:24397   */\n      tag_251\n      jump\t// in\n    tag_542:\n        /* \"#utility.yul\":24407:24479   */\n      tag_543\n        /* \"#utility.yul\":24475:24477   */\n      0x40\n        /* \"#utility.yul\":24464:24473   */\n      dup4\n        /* \"#utility.yul\":24460:24478   */\n      add\n        /* \"#utility.yul\":24451:24457   */\n      dup5\n        /* \"#utility.yul\":24407:24479   */\n      tag_256\n      jump\t// in\n    tag_543:\n        /* \"#utility.yul\":24526:24535   */\n      dup2\n        /* \"#utility.yul\":24520:24524   */\n      dup2\n        /* \"#utility.yul\":24516:24536   */\n      sub\n        /* \"#utility.yul\":24511:24513   */\n      0x60\n        /* \"#utility.yul\":24500:24509   */\n      dup4\n        /* \"#utility.yul\":24496:24514   */\n      add\n        /* \"#utility.yul\":24489:24537   */\n      mstore\n        /* \"#utility.yul\":24554:24684   */\n      tag_544\n        /* \"#utility.yul\":24679:24683   */\n      dup2\n        /* \"#utility.yul\":24554:24684   */\n      tag_293\n      jump\t// in\n    tag_544:\n        /* \"#utility.yul\":24546:24684   */\n      swap1\n      pop\n        /* \"#utility.yul\":23943:24691   */\n      swap5\n      swap4\n      pop\n      pop\n      pop\n      pop\n      jump\t// out\n        /* \"#utility.yul\":24697:24838   */\n    tag_294:\n        /* \"#utility.yul\":24753:24758   */\n      0x00\n        /* \"#utility.yul\":24784:24790   */\n      dup2\n        /* \"#utility.yul\":24778:24791   */\n      mload\n        /* \"#utility.yul\":24769:24791   */\n      swap1\n      pop\n        /* \"#utility.yul\":24800:24832   */\n      tag_546\n        /* \"#utility.yul\":24826:24831   */\n      dup2\n        /* \"#utility.yul\":24800:24832   */\n      tag_242\n      jump\t// in\n    tag_546:\n        /* \"#utility.yul\":24697:24838   */\n      swap3\n      swap2\n      pop\n      pop\n      jump\t// out\n        /* \"#utility.yul\":24844:25193   */\n    tag_161:\n        /* \"#utility.yul\":24913:24919   */\n      0x00\n        /* \"#utility.yul\":24962:24964   */\n      0x20\n        /* \"#utility.yul\":24950:24959   */\n      dup3\n        /* \"#utility.yul\":24941:24948   */\n      dup5\n        /* \"#utility.yul\":24937:24960   */\n      sub\n        /* \"#utility.yul\":24933:24965   */\n      slt\n        /* \"#utility.yul\":24930:25049   */\n      iszero\n      tag_548\n      jumpi\n        /* \"#utility.yul\":24968:25047   */\n      tag_549\n      tag_239\n      jump\t// in\n    tag_549:\n        /* \"#utility.yul\":24930:25049   */\n    tag_548:\n        /* \"#utility.yul\":25088:25089   */\n      0x00\n        /* \"#utility.yul\":25113:25176   */\n      tag_550\n        /* \"#utility.yul\":25168:25175   */\n      dup5\n        /* \"#utility.yul\":25159:25165   */\n      dup3\n        /* \"#utility.yul\":25148:25157   */\n      dup6\n        /* \"#utility.yul\":25144:25166   */\n      add\n        /* \"#utility.yul\":25113:25176   */\n      tag_294\n      jump\t// in\n    tag_550:\n        /* \"#utility.yul\":25103:25176   */\n      swap2\n      pop\n        /* \"#utility.yul\":25059:25186   */\n      pop\n        /* \"#utility.yul\":24844:25193   */\n      swap3\n      swap2\n      pop\n      pop\n      jump\t// out\n        /* \"#utility.yul\":25199:25365   */\n    tag_295:\n        /* \"#utility.yul\":25339:25357   */\n      0x756e7361666520726563697069656e7400000000000000000000000000000000\n        /* \"#utility.yul\":25335:25336   */\n      0x00\n        /* \"#utility.yul\":25327:25333   */\n      dup3\n        /* \"#utility.yul\":25323:25337   */\n      add\n        /* \"#utility.yul\":25316:25358   */\n      mstore\n        /* \"#utility.yul\":25199:25365   */\n      pop\n      jump\t// out\n        /* \"#utility.yul\":25371:25737   */\n    tag_296:\n        /* \"#utility.yul\":25513:25516   */\n      0x00\n        /* \"#utility.yul\":25534:25601   */\n      tag_553\n        /* \"#utility.yul\":25598:25600   */\n      0x10\n        /* \"#utility.yul\":25593:25596   */\n      dup4\n        /* \"#utility.yul\":25534:25601   */\n      tag_281\n      jump\t// in\n    tag_553:\n        /* \"#utility.yul\":25527:25601   */\n      swap2\n      pop\n        /* \"#utility.yul\":25610:25703   */\n      tag_554\n        /* \"#utility.yul\":25699:25702   */\n      dup3\n        /* \"#utility.yul\":25610:25703   */\n      tag_295\n      jump\t// in\n    tag_554:\n        /* \"#utility.yul\":25728:25730   */\n      0x20\n        /* \"#utility.yul\":25723:25726   */\n      dup3\n        /* \"#utility.yul\":25719:25731   */\n      add\n        /* \"#utility.yul\":25712:25731   */\n      swap1\n      pop\n        /* \"#utility.yul\":25371:25737   */\n      swap2\n      swap1\n      pop\n      jump\t// out\n        /* \"#utility.yul\":25743:26162   */\n    tag_164:\n        /* \"#utility.yul\":25909:25913   */\n      0x00\n        /* \"#utility.yul\":25947:25949   */\n      0x20\n        /* \"#utility.yul\":25936:25945   */\n      dup3\n        /* \"#utility.yul\":25932:25950   */\n      add\n        /* \"#utility.yul\":25924:25950   */\n      swap1\n      pop\n        /* \"#utility.yul\":25996:26005   */\n      dup2\n        /* \"#utility.yul\":25990:25994   */\n      dup2\n        /* \"#utility.yul\":25986:26006   */\n      sub\n        /* \"#utility.yul\":25982:25983   */\n      0x00\n        /* \"#utility.yul\":25971:25980   */\n      dup4\n        /* \"#utility.yul\":25967:25984   */\n      add\n        /* \"#utility.yul\":25960:26007   */\n      mstore\n        /* \"#utility.yul\":26024:26155   */\n      tag_556\n        /* \"#utility.yul\":26150:26154   */\n      dup2\n        /* \"#utility.yul\":26024:26155   */\n      tag_296\n      jump\t// in\n    tag_556:\n        /* \"#utility.yul\":26016:26155   */\n      swap1\n      pop\n        /* \"#utility.yul\":25743:26162   */\n      swap2\n      swap1\n      pop\n      jump\t// out\n        /* \"#utility.yul\":26168:26338   */\n    tag_297:\n        /* \"#utility.yul\":26308:26330   */\n      0x6f776e6572203d207a65726f2061646472657373000000000000000000000000\n        /* \"#utility.yul\":26304:26305   */\n      0x00\n        /* \"#utility.yul\":26296:26302   */\n      dup3\n        /* \"#utility.yul\":26292:26306   */\n      add\n        /* \"#utility.yul\":26285:26331   */\n      mstore\n        /* \"#utility.yul\":26168:26338   */\n      pop\n      jump\t// out\n        /* \"#utility.yul\":26344:26710   */\n    tag_298:\n        /* \"#utility.yul\":26486:26489   */\n      0x00\n        /* \"#utility.yul\":26507:26574   */\n      tag_559\n        /* \"#utility.yul\":26571:26573   */\n      0x14\n        /* \"#utility.yul\":26566:26569   */\n      dup4\n        /* \"#utility.yul\":26507:26574   */\n      tag_281\n      jump\t// in\n    tag_559:\n        /* \"#utility.yul\":26500:26574   */\n      swap2\n      pop\n        /* \"#utility.yul\":26583:26676   */\n      tag_560\n        /* \"#utility.yul\":26672:26675   */\n      dup3\n        /* \"#utility.yul\":26583:26676   */\n      tag_297\n      jump\t// in\n    tag_560:\n        /* \"#utility.yul\":26701:26703   */\n      0x20\n        /* \"#utility.yul\":26696:26699   */\n      dup3\n        /* \"#utility.yul\":26692:26704   */\n      add\n        /* \"#utility.yul\":26685:26704   */\n      swap1\n      pop\n        /* \"#utility.yul\":26344:26710   */\n      swap2\n      swap1\n      pop\n      jump\t// out\n        /* \"#utility.yul\":26716:27135   */\n    tag_168:\n        /* \"#utility.yul\":26882:26886   */\n      0x00\n        /* \"#utility.yul\":26920:26922   */\n      0x20\n        /* \"#utility.yul\":26909:26918   */\n      dup3\n        /* \"#utility.yul\":26905:26923   */\n      add\n        /* \"#utility.yul\":26897:26923   */\n      swap1\n      pop\n        /* \"#utility.yul\":26969:26978   */\n      dup2\n        /* \"#utility.yul\":26963:26967   */\n      dup2\n        /* \"#utility.yul\":26959:26979   */\n      sub\n        /* \"#utility.yul\":26955:26956   */\n      0x00\n        /* \"#utility.yul\":26944:26953   */\n      dup4\n        /* \"#utility.yul\":26940:26957   */\n      add\n        /* \"#utility.yul\":26933:26980   */\n      mstore\n        /* \"#utility.yul\":26997:27128   */\n      tag_562\n        /* \"#utility.yul\":27123:27127   */\n      dup2\n        /* \"#utility.yul\":26997:27128   */\n      tag_298\n      jump\t// in\n    tag_562:\n        /* \"#utility.yul\":26989:27128   */\n      swap1\n      pop\n        /* \"#utility.yul\":26716:27135   */\n      swap2\n      swap1\n      pop\n      jump\t// out\n        /* \"#utility.yul\":27141:27287   */\n    tag_299:\n        /* \"#utility.yul\":27238:27244   */\n      dup3\n        /* \"#utility.yul\":27233:27236   */\n      dup2\n        /* \"#utility.yul\":27228:27231   */\n      dup4\n        /* \"#utility.yul\":27215:27245   */\n      calldatacopy\n        /* \"#utility.yul\":27279:27280   */\n      0x00\n        /* \"#utility.yul\":27270:27276   */\n      dup4\n        /* \"#utility.yul\":27265:27268   */\n      dup4\n        /* \"#utility.yul\":27261:27277   */\n      add\n        /* \"#utility.yul\":27254:27281   */\n      mstore\n        /* \"#utility.yul\":27141:27287   */\n      pop\n      pop\n      pop\n      jump\t// out\n        /* \"#utility.yul\":27293:27395   */\n    tag_300:\n        /* \"#utility.yul\":27334:27340   */\n      0x00\n        /* \"#utility.yul\":27385:27387   */\n      0x1f\n        /* \"#utility.yul\":27381:27388   */\n      not\n        /* \"#utility.yul\":27376:27378   */\n      0x1f\n        /* \"#utility.yul\":27369:27374   */\n      dup4\n        /* \"#utility.yul\":27365:27379   */\n      add\n        /* \"#utility.yul\":27361:27389   */\n      and\n        /* \"#utility.yul\":27351:27389   */\n      swap1\n      pop\n        /* \"#utility.yul\":27293:27395   */\n      swap2\n      swap1\n      pop\n      jump\t// out\n        /* \"#utility.yul\":27423:27737   */\n    tag_301:\n        /* \"#utility.yul\":27519:27522   */\n      0x00\n        /* \"#utility.yul\":27540:27610   */\n      tag_566\n        /* \"#utility.yul\":27603:27609   */\n      dup4\n        /* \"#utility.yul\":27598:27601   */\n      dup6\n        /* \"#utility.yul\":27540:27610   */\n      tag_291\n      jump\t// in\n    tag_566:\n        /* \"#utility.yul\":27533:27610   */\n      swap4\n      pop\n        /* \"#utility.yul\":27620:27676   */\n      tag_567\n        /* \"#utility.yul\":27669:27675   */\n      dup4\n        /* \"#utility.yul\":27664:27667   */\n      dup6\n        /* \"#utility.yul\":27657:27662   */\n      dup5\n        /* \"#utility.yul\":27620:27676   */\n      tag_299\n      jump\t// in\n    tag_567:\n        /* \"#utility.yul\":27701:27730   */\n      tag_568\n        /* \"#utility.yul\":27723:27729   */\n      dup4\n        /* \"#utility.yul\":27701:27730   */\n      tag_300\n      jump\t// in\n    tag_568:\n        /* \"#utility.yul\":27696:27699   */\n      dup5\n        /* \"#utility.yul\":27692:27731   */\n      add\n        /* \"#utility.yul\":27685:27731   */\n      swap1\n      pop\n        /* \"#utility.yul\":27423:27737   */\n      swap4\n      swap3\n      pop\n      pop\n      pop\n      jump\t// out\n        /* \"#utility.yul\":27743:28403   */\n    tag_178:\n        /* \"#utility.yul\":27948:27952   */\n      0x00\n        /* \"#utility.yul\":27986:27989   */\n      0x80\n        /* \"#utility.yul\":27975:27984   */\n      dup3\n        /* \"#utility.yul\":27971:27990   */\n      add\n        /* \"#utility.yul\":27963:27990   */\n      swap1\n      pop\n        /* \"#utility.yul\":28000:28071   */\n      tag_570\n        /* \"#utility.yul\":28068:28069   */\n      0x00\n        /* \"#utility.yul\":28057:28066   */\n      dup4\n        /* \"#utility.yul\":28053:28070   */\n      add\n        /* \"#utility.yul\":28044:28050   */\n      dup9\n        /* \"#utility.yul\":28000:28071   */\n      tag_251\n      jump\t// in\n    tag_570:\n        /* \"#utility.yul\":28081:28153   */\n      tag_571\n        /* \"#utility.yul\":28149:28151   */\n      0x20\n        /* \"#utility.yul\":28138:28147   */\n      dup4\n        /* \"#utility.yul\":28134:28152   */\n      add\n        /* \"#utility.yul\":28125:28131   */\n      dup8\n        /* \"#utility.yul\":28081:28153   */\n      tag_251\n      jump\t// in\n    tag_571:\n        /* \"#utility.yul\":28163:28235   */\n      tag_572\n        /* \"#utility.yul\":28231:28233   */\n      0x40\n        /* \"#utility.yul\":28220:28229   */\n      dup4\n        /* \"#utility.yul\":28216:28234   */\n      add\n        /* \"#utility.yul\":28207:28213   */\n      dup7\n        /* \"#utility.yul\":28163:28235   */\n      tag_256\n      jump\t// in\n    tag_572:\n        /* \"#utility.yul\":28282:28291   */\n      dup2\n        /* \"#utility.yul\":28276:28280   */\n      dup2\n        /* \"#utility.yul\":28272:28292   */\n      sub\n        /* \"#utility.yul\":28267:28269   */\n      0x60\n        /* \"#utility.yul\":28256:28265   */\n      dup4\n        /* \"#utility.yul\":28252:28270   */\n      add\n        /* \"#utility.yul\":28245:28293   */\n      mstore\n        /* \"#utility.yul\":28310:28396   */\n      tag_573\n        /* \"#utility.yul\":28391:28395   */\n      dup2\n        /* \"#utility.yul\":28382:28388   */\n      dup5\n        /* \"#utility.yul\":28374:28380   */\n      dup7\n        /* \"#utility.yul\":28310:28396   */\n      tag_301\n      jump\t// in\n    tag_573:\n        /* \"#utility.yul\":28302:28396   */\n      swap1\n      pop\n        /* \"#utility.yul\":27743:28403   */\n      swap7\n      swap6\n      pop\n      pop\n      pop\n      pop\n      pop\n      pop\n      jump\t// out\n        /* \"#utility.yul\":28409:28568   */\n    tag_302:\n        /* \"#utility.yul\":28549:28560   */\n      0x6e6f74204f776e65720000000000000000000000000000000000000000000000\n        /* \"#utility.yul\":28545:28546   */\n      0x00\n        /* \"#utility.yul\":28537:28543   */\n      dup3\n        /* \"#utility.yul\":28533:28547   */\n      add\n        /* \"#utility.yul\":28526:28561   */\n      mstore\n        /* \"#utility.yul\":28409:28568   */\n      pop\n      jump\t// out\n        /* \"#utility.yul\":28574:28939   */\n    tag_303:\n        /* \"#utility.yul\":28716:28719   */\n      0x00\n        /* \"#utility.yul\":28737:28803   */\n      tag_576\n        /* \"#utility.yul\":28801:28802   */\n      0x09\n        /* \"#utility.yul\":28796:28799   */\n      dup4\n        /* \"#utility.yul\":28737:28803   */\n      tag_281\n      jump\t// in\n    tag_576:\n        /* \"#utility.yul\":28730:28803   */\n      swap2\n      pop\n        /* \"#utility.yul\":28812:28905   */\n      tag_577\n        /* \"#utility.yul\":28901:28904   */\n      dup3\n        /* \"#utility.yul\":28812:28905   */\n      tag_302\n      jump\t// in\n    tag_577:\n        /* \"#utility.yul\":28930:28932   */\n      0x20\n        /* \"#utility.yul\":28925:28928   */\n      dup3\n        /* \"#utility.yul\":28921:28933   */\n      add\n        /* \"#utility.yul\":28914:28933   */\n      swap1\n      pop\n        /* \"#utility.yul\":28574:28939   */\n      swap2\n      swap1\n      pop\n      jump\t// out\n        /* \"#utility.yul\":28945:29364   */\n    tag_192:\n        /* \"#utility.yul\":29111:29115   */\n      0x00\n        /* \"#utility.yul\":29149:29151   */\n      0x20\n        /* \"#utility.yul\":29138:29147   */\n      dup3\n        /* \"#utility.yul\":29134:29152   */\n      add\n        /* \"#utility.yul\":29126:29152   */\n      swap1\n      pop\n        /* \"#utility.yul\":29198:29207   */\n      dup2\n        /* \"#utility.yul\":29192:29196   */\n      dup2\n        /* \"#utility.yul\":29188:29208   */\n      sub\n        /* \"#utility.yul\":29184:29185   */\n      0x00\n        /* \"#utility.yul\":29173:29182   */\n      dup4\n        /* \"#utility.yul\":29169:29186   */\n      add\n        /* \"#utility.yul\":29162:29209   */\n      mstore\n        /* \"#utility.yul\":29226:29357   */\n      tag_579\n        /* \"#utility.yul\":29352:29356   */\n      dup2\n        /* \"#utility.yul\":29226:29357   */\n      tag_303\n      jump\t// in\n    tag_579:\n        /* \"#utility.yul\":29218:29357   */\n      swap1\n      pop\n        /* \"#utility.yul\":28945:29364   */\n      swap2\n      swap1\n      pop\n      jump\t// out\n        /* \"#utility.yul\":29370:29564   */\n    tag_208:\n        /* \"#utility.yul\":29410:29414   */\n      0x00\n        /* \"#utility.yul\":29430:29450   */\n      tag_581\n        /* \"#utility.yul\":29448:29449   */\n      dup3\n        /* \"#utility.yul\":29430:29450   */\n      tag_246\n      jump\t// in\n    tag_581:\n        /* \"#utility.yul\":29425:29450   */\n      swap2\n      pop\n        /* \"#utility.yul\":29464:29484   */\n      tag_582\n        /* \"#utility.yul\":29482:29483   */\n      dup4\n        /* \"#utility.yul\":29464:29484   */\n      tag_246\n      jump\t// in\n    tag_582:\n        /* \"#utility.yul\":29459:29484   */\n      swap3\n      pop\n        /* \"#utility.yul\":29508:29509   */\n      dup3\n        /* \"#utility.yul\":29505:29506   */\n      dup3\n        /* \"#utility.yul\":29501:29510   */\n      sub\n        /* \"#utility.yul\":29493:29510   */\n      swap1\n      pop\n        /* \"#utility.yul\":29532:29533   */\n      dup2\n        /* \"#utility.yul\":29526:29530   */\n      dup2\n        /* \"#utility.yul\":29523:29534   */\n      gt\n        /* \"#utility.yul\":29520:29557   */\n      iszero\n      tag_583\n      jumpi\n        /* \"#utility.yul\":29537:29555   */\n      tag_584\n      tag_290\n      jump\t// in\n    tag_584:\n        /* \"#utility.yul\":29520:29557   */\n    tag_583:\n        /* \"#utility.yul\":29370:29564   */\n      swap3\n      swap2\n      pop\n      pop\n      jump\t// out\n        /* \"#utility.yul\":29570:29750   */\n    tag_211:\n        /* \"#utility.yul\":29618:29695   */\n      0x4e487b7100000000000000000000000000000000000000000000000000000000\n        /* \"#utility.yul\":29615:29616   */\n      0x00\n        /* \"#utility.yul\":29608:29696   */\n      mstore\n        /* \"#utility.yul\":29715:29719   */\n      0x32\n        /* \"#utility.yul\":29712:29713   */\n      0x04\n        /* \"#utility.yul\":29705:29720   */\n      mstore\n        /* \"#utility.yul\":29739:29743   */\n      0x24\n        /* \"#utility.yul\":29736:29737   */\n      0x00\n        /* \"#utility.yul\":29729:29744   */\n      revert\n        /* \"#utility.yul\":29756:29936   */\n    tag_219:\n        /* \"#utility.yul\":29804:29881   */\n      0x4e487b7100000000000000000000000000000000000000000000000000000000\n        /* \"#utility.yul\":29801:29802   */\n      0x00\n        /* \"#utility.yul\":29794:29882   */\n      mstore\n        /* \"#utility.yul\":29901:29905   */\n      0x31\n        /* \"#utility.yul\":29898:29899   */\n      0x04\n        /* \"#utility.yul\":29891:29906   */\n      mstore\n        /* \"#utility.yul\":29925:29929   */\n      0x24\n        /* \"#utility.yul\":29922:29923   */\n      0x00\n        /* \"#utility.yul\":29915:29930   */\n      revert\n        /* \"#utility.yul\":29942:30104   */\n    tag_304:\n        /* \"#utility.yul\":30082:30096   */\n      0x746f6b656e206578697374730000000000000000000000000000000000000000\n        /* \"#utility.yul\":30078:30079   */\n      0x00\n        /* \"#utility.yul\":30070:30076   */\n      dup3\n        /* \"#utility.yul\":30066:30080   */\n      add\n        /* \"#utility.yul\":30059:30097   */\n      mstore\n        /* \"#utility.yul\":29942:30104   */\n      pop\n      jump\t// out\n        /* \"#utility.yul\":30110:30476   */\n    tag_305:\n        /* \"#utility.yul\":30252:30255   */\n      0x00\n        /* \"#utility.yul\":30273:30340   */\n      tag_589\n        /* \"#utility.yul\":30337:30339   */\n      0x0c\n        /* \"#utility.yul\":30332:30335   */\n      dup4\n        /* \"#utility.yul\":30273:30340   */\n      tag_281\n      jump\t// in\n    tag_589:\n        /* \"#utility.yul\":30266:30340   */\n      swap2\n      pop\n        /* \"#utility.yul\":30349:30442   */\n      tag_590\n        /* \"#utility.yul\":30438:30441   */\n      dup3\n        /* \"#utility.yul\":30349:30442   */\n      tag_304\n      jump\t// in\n    tag_590:\n        /* \"#utility.yul\":30467:30469   */\n      0x20\n        /* \"#utility.yul\":30462:30465   */\n      dup3\n        /* \"#utility.yul\":30458:30470   */\n      add\n        /* \"#utility.yul\":30451:30470   */\n      swap1\n      pop\n        /* \"#utility.yul\":30110:30476   */\n      swap2\n      swap1\n      pop\n      jump\t// out\n        /* \"#utility.yul\":30482:30901   */\n    tag_226:\n        /* \"#utility.yul\":30648:30652   */\n      0x00\n        /* \"#utility.yul\":30686:30688   */\n      0x20\n        /* \"#utility.yul\":30675:30684   */\n      dup3\n        /* \"#utility.yul\":30671:30689   */\n      add\n        /* \"#utility.yul\":30663:30689   */\n      swap1\n      pop\n        /* \"#utility.yul\":30735:30744   */\n      dup2\n        /* \"#utility.yul\":30729:30733   */\n      dup2\n        /* \"#utility.yul\":30725:30745   */\n      sub\n        /* \"#utility.yul\":30721:30722   */\n      0x00\n        /* \"#utility.yul\":30710:30719   */\n      dup4\n        /* \"#utility.yul\":30706:30723   */\n      add\n        /* \"#utility.yul\":30699:30746   */\n      mstore\n        /* \"#utility.yul\":30763:30894   */\n      tag_592\n        /* \"#utility.yul\":30889:30893   */\n      dup2\n        /* \"#utility.yul\":30763:30894   */\n      tag_305\n      jump\t// in\n    tag_592:\n        /* \"#utility.yul\":30755:30894   */\n      swap1\n      pop\n        /* \"#utility.yul\":30482:30901   */\n      swap2\n      swap1\n      pop\n      jump\t// out\n        /* \"#utility.yul\":30907:31077   */\n    tag_306:\n        /* \"#utility.yul\":31047:31069   */\n      0x746f6b656e20646f6573206e6f74206578697473000000000000000000000000\n        /* \"#utility.yul\":31043:31044   */\n      0x00\n        /* \"#utility.yul\":31035:31041   */\n      dup3\n        /* \"#utility.yul\":31031:31045   */\n      add\n        /* \"#utility.yul\":31024:31070   */\n      mstore\n        /* \"#utility.yul\":30907:31077   */\n      pop\n      jump\t// out\n        /* \"#utility.yul\":31083:31449   */\n    tag_307:\n        /* \"#utility.yul\":31225:31228   */\n      0x00\n        /* \"#utility.yul\":31246:31313   */\n      tag_595\n        /* \"#utility.yul\":31310:31312   */\n      0x14\n        /* \"#utility.yul\":31305:31308   */\n      dup4\n        /* \"#utility.yul\":31246:31313   */\n      tag_281\n      jump\t// in\n    tag_595:\n        /* \"#utility.yul\":31239:31313   */\n      swap2\n      pop\n        /* \"#utility.yul\":31322:31415   */\n      tag_596\n        /* \"#utility.yul\":31411:31414   */\n      dup3\n        /* \"#utility.yul\":31322:31415   */\n      tag_306\n      jump\t// in\n    tag_596:\n        /* \"#utility.yul\":31440:31442   */\n      0x20\n        /* \"#utility.yul\":31435:31438   */\n      dup3\n        /* \"#utility.yul\":31431:31443   */\n      add\n        /* \"#utility.yul\":31424:31443   */\n      swap1\n      pop\n        /* \"#utility.yul\":31083:31449   */\n      swap2\n      swap1\n      pop\n      jump\t// out\n        /* \"#utility.yul\":31455:31874   */\n    tag_231:\n        /* \"#utility.yul\":31621:31625   */\n      0x00\n        /* \"#utility.yul\":31659:31661   */\n      0x20\n        /* \"#utility.yul\":31648:31657   */\n      dup3\n        /* \"#utility.yul\":31644:31662   */\n      add\n        /* \"#utility.yul\":31636:31662   */\n      swap1\n      pop\n        /* \"#utility.yul\":31708:31717   */\n      dup2\n        /* \"#utility.yul\":31702:31706   */\n      dup2\n        /* \"#utility.yul\":31698:31718   */\n      sub\n        /* \"#utility.yul\":31694:31695   */\n      0x00\n        /* \"#utility.yul\":31683:31692   */\n      dup4\n        /* \"#utility.yul\":31679:31696   */\n      add\n        /* \"#utility.yul\":31672:31719   */\n      mstore\n        /* \"#utility.yul\":31736:31867   */\n      tag_598\n        /* \"#utility.yul\":31862:31866   */\n      dup2\n        /* \"#utility.yul\":31736:31867   */\n      tag_307\n      jump\t// in\n    tag_598:\n        /* \"#utility.yul\":31728:31867   */\n      swap1\n      pop\n        /* \"#utility.yul\":31455:31874   */\n      swap2\n      swap1\n      pop\n      jump\t// out\n\n    auxdata: 0xa26469706673582212208444013218439da0afee8ac6a81d067d56bbd15cd456ab23b7aa260110a0395f64736f6c63430008120033\n}\n",
				"bytecode": {
					"linkReferences": {},
					"object": "608060405260016006553480156200001657600080fd5b50604051620037c7380380620037c783398181016040528101906200003c9190620001fb565b81600490816200004d9190620004cb565b5080600590816200005f9190620004cb565b505050620005b2565b6000604051905090565b600080fd5b600080fd5b600080fd5b600080fd5b6000601f19601f8301169050919050565b7f4e487b7100000000000000000000000000000000000000000000000000000000600052604160045260246000fd5b620000d18262000086565b810181811067ffffffffffffffff82111715620000f357620000f262000097565b5b80604052505050565b60006200010862000068565b9050620001168282620000c6565b919050565b600067ffffffffffffffff82111562000139576200013862000097565b5b620001448262000086565b9050602081019050919050565b60005b838110156200017157808201518184015260208101905062000154565b60008484015250505050565b6000620001946200018e846200011b565b620000fc565b905082815260208101848484011115620001b357620001b262000081565b5b620001c084828562000151565b509392505050565b600082601f830112620001e057620001df6200007c565b5b8151620001f28482602086016200017d565b91505092915050565b6000806040838503121562000215576200021462000072565b5b600083015167ffffffffffffffff81111562000236576200023562000077565b5b6200024485828601620001c8565b925050602083015167ffffffffffffffff81111562000268576200026762000077565b5b6200027685828601620001c8565b9150509250929050565b600081519050919050565b7f4e487b7100000000000000000000000000000000000000000000000000000000600052602260045260246000fd5b60006002820490506001821680620002d357607f821691505b602082108103620002e957620002e86200028b565b5b50919050565b60008190508160005260206000209050919050565b60006020601f8301049050919050565b600082821b905092915050565b600060088302620003537fffffffffffffffffffffffffffffffffffffffffffffffffffffffffffffffff8262000314565b6200035f868362000314565b95508019841693508086168417925050509392505050565b6000819050919050565b6000819050919050565b6000620003ac620003a6620003a08462000377565b62000381565b62000377565b9050919050565b6000819050919050565b620003c8836200038b565b620003e0620003d782620003b3565b84845462000321565b825550505050565b600090565b620003f7620003e8565b62000404818484620003bd565b505050565b5b818110156200042c5762000420600082620003ed565b6001810190506200040a565b5050565b601f8211156200047b576200044581620002ef565b620004508462000304565b8101602085101562000460578190505b620004786200046f8562000304565b83018262000409565b50505b505050565b600082821c905092915050565b6000620004a06000198460080262000480565b1980831691505092915050565b6000620004bb83836200048d565b9150826002028217905092915050565b620004d68262000280565b67ffffffffffffffff811115620004f257620004f162000097565b5b620004fe8254620002ba565b6200050b82828562000430565b600060209050601f8311600181146200054357600084156200052e578287015190505b6200053a8582620004ad565b865550620005aa565b601f1984166200055386620002ef565b60005b828110156200057d5784890151825560018201915060208501945060208101905062000556565b868310156200059d578489015162000599601f8916826200048d565b8355505b6001600288020188555050505b505050505050565b61320580620005c26000396000f3fe608060405234801561001057600080fd5b50600436106101215760003560e01c80637fcda073116100ad578063d942dc9411610071578063d942dc9414610331578063deeb79a314610361578063ebd1d35914610391578063ec828722146103c1578063f94be2cb146103dd57610121565b80637fcda073146102725780638bbf58b3146102a257806399fbab88146102c0578063a22cb465146102f9578063b88d4fde1461031557610121565b806326908fa1116100f457806326908fa1146101be578063389c89b3146101da57806342842e0e146101f65780636352211e1461021257806370a082311461024257610121565b806301ffc9a714610126578063081812fc14610156578063095ea7b31461018657806323b872dd146101a2575b600080fd5b610140600480360381019061013b919061228f565b61040d565b60405161014d91906122d7565b60405180910390f35b610170600480360381019061016b9190612328565b6104df565b60405161017d9190612396565b60405180910390f35b6101a0600480360381019061019b91906123dd565b6105bc565b005b6101bc60048036038101906101b7919061241d565b6107a4565b005b6101d860048036038101906101d3919061241d565b610a8e565b005b6101f460048036038101906101ef9190612495565b610ba5565b005b610210600480360381019061020b919061241d565b610f14565b005b61022c60048036038101906102279190612328565b61104c565b6040516102399190612396565b60405180910390f35b61025c600480360381019061025791906124d6565b6110f7565b6040516102699190612512565b60405180910390f35b61028c600480360381019061028791906123dd565b6111ae565b6040516102999190612512565b60405180910390f35b6102aa6111d3565b6040516102b79190612512565b60405180910390f35b6102da60048036038101906102d59190612328565b6111d9565b6040516102f09a99989796959493929190612567565b60405180910390f35b610313600480360381019061030e919061262f565b6112e9565b005b61032f600480360381019061032a91906126d4565b6113e6565b005b61034b600480360381019061034691906124d6565b611524565b604051610358919061281a565b60405180910390f35b61037b600480360381019061037691906123dd565b6115bb565b6040516103889190612512565b60405180910390f35b6103ab60048036038101906103a6919061283c565b6115ec565b6040516103b891906122d7565b60405180910390f35b6103db60048036038101906103d6919061287c565b61161b565b005b6103f760048036038101906103f29190612914565b6117ee565b6040516104049190612aec565b60405180910390f35b60007f80ac58cd000000000000000000000000000000000000000000000000000000007bffffffffffffffffffffffffffffffffffffffffffffffffffffffff1916827bffffffffffffffffffffffffffffffffffffffffffffffffffffffff191614806104d857507f01ffc9a7000000000000000000000000000000000000000000000000000000007bffffffffffffffffffffffffffffffffffffffffffffffffffffffff1916827bffffffffffffffffffffffffffffffffffffffffffffffffffffffff1916145b9050919050565b60008073ffffffffffffffffffffffffffffffffffffffff1660008084815260200190815260200160002060009054906101000a900473ffffffffffffffffffffffffffffffffffffffff1673ffffffffffffffffffffffffffffffffffffffff1603610581576040517f08c379a000000000000000000000000000000000000000000000000000000000815260040161057890612b65565b60405180910390fd5b6002600083815260200190815260200160002060009054906101000a900473ffffffffffffffffffffffffffffffffffffffff169050919050565b600080600083815260200190815260200160002060009054906101000a900473ffffffffffffffffffffffffffffffffffffffff1690508073ffffffffffffffffffffffffffffffffffffffff163373ffffffffffffffffffffffffffffffffffffffff1614806106b35750600360008273ffffffffffffffffffffffffffffffffffffffff1673ffffffffffffffffffffffffffffffffffffffff16815260200190815260200160002060003373ffffffffffffffffffffffffffffffffffffffff1673ffffffffffffffffffffffffffffffffffffffff16815260200190815260200160002060009054906101000a900460ff165b6106f2576040517f08c379a00000000000000000000000000000000000000000000000000000000081526004016106e990612bd1565b60405180910390fd5b826002600084815260200190815260200160002060006101000a81548173ffffffffffffffffffffffffffffffffffffffff021916908373ffffffffffffffffffffffffffffffffffffffff160217905550818373ffffffffffffffffffffffffffffffffffffffff168273ffffffffffffffffffffffffffffffffffffffff167f8c5be1e5ebec7d5bd14f71427d1e84f3dd0314c0f7b2291e5b200ac8c7c3b92560405160405180910390a4505050565b60008082815260200190815260200160002060009054906101000a900473ffffffffffffffffffffffffffffffffffffffff1673ffffffffffffffffffffffffffffffffffffffff168373ffffffffffffffffffffffffffffffffffffffff1614610844576040517f08c379a000000000000000000000000000000000000000000000000000000000815260040161083b90612c3d565b60405180910390fd5b600073ffffffffffffffffffffffffffffffffffffffff168273ffffffffffffffffffffffffffffffffffffffff16036108b3576040517f08c379a00000000000000000000000000000000000000000000000000000000081526004016108aa90612ca9565b60405180910390fd5b6108be8333836118d2565b6108fd576040517f08c379a00000000000000000000000000000000000000000000000000000000081526004016108f490612bd1565b60405180910390fd5b600160008473ffffffffffffffffffffffffffffffffffffffff1673ffffffffffffffffffffffffffffffffffffffff168152602001908152602001600020600081548092919061094d90612cf8565b9190505550600160008373ffffffffffffffffffffffffffffffffffffffff1673ffffffffffffffffffffffffffffffffffffffff16815260200190815260200160002060008154809291906109a290612d21565b91905055508160008083815260200190815260200160002060006101000a81548173ffffffffffffffffffffffffffffffffffffffff021916908373ffffffffffffffffffffffffffffffffffffffff1602179055506002600082815260200190815260200160002060006101000a81549073ffffffffffffffffffffffffffffffffffffffff0219169055808273ffffffffffffffffffffffffffffffffffffffff168473ffffffffffffffffffffffffffffffffffffffff167fddf252ad1be2c89b69c2b068fc378daa952ba7f163c4a11628f55a4df523b3ef60405160405180910390a4505050565b610a998383836107a4565b610aa38184611a06565b600860008373ffffffffffffffffffffffffffffffffffffffff1673ffffffffffffffffffffffffffffffffffffffff168152602001908152602001600020819080600181540180825580915050600190039060005260206000200160009091909190915055600860008373ffffffffffffffffffffffffffffffffffffffff1673ffffffffffffffffffffffffffffffffffffffff16815260200190815260200160002080549050600960008473ffffffffffffffffffffffffffffffffffffffff1673ffffffffffffffffffffffffffffffffffffffff168152602001908152602001600020600083815260200190815260200160002081905550505050565b610bb182600654611d40565b600860008373ffffffffffffffffffffffffffffffffffffffff1673ffffffffffffffffffffffffffffffffffffffff1681526020019081526020016000206006549080600181540180825580915050600190039060005260206000200160009091909190915055600860008373ffffffffffffffffffffffffffffffffffffffff1673ffffffffffffffffffffffffffffffffffffffff16815260200190815260200160002080549050600960008473ffffffffffffffffffffffffffffffffffffffff1673ffffffffffffffffffffffffffffffffffffffff16815260200190815260200160002060006006548152602001908152602001600020819055506000600760006006548152602001908152602001600020905081600001358160000181905550816020016020810190610ceb91906124d6565b8160010160006101000a81548173ffffffffffffffffffffffffffffffffffffffff021916908373ffffffffffffffffffffffffffffffffffffffff160217905550816040016020810190610d4091906124d6565b8160020160006101000a81548173ffffffffffffffffffffffffffffffffffffffff021916908373ffffffffffffffffffffffffffffffffffffffff160217905550816060016020810190610d9591906124d6565b8160030160006101000a81548173ffffffffffffffffffffffffffffffffffffffff021916908373ffffffffffffffffffffffffffffffffffffffff160217905550816080013581600401819055508160a0013581600501819055508160c0013581600601819055508160e0016020810190610e119190612d69565b8160070160006101000a81548173ffffffffffffffffffffffffffffffffffffffff021916908373ffffffffffffffffffffffffffffffffffffffff16021790555081610100016020810190610e679190612d69565b8160080160006101000a81548173ffffffffffffffffffffffffffffffffffffffff021916908373ffffffffffffffffffffffffffffffffffffffff16021790555081610120016020810190610ebd9190612d96565b8160090160006101000a8154816fffffffffffffffffffffffffffffffff02191690836fffffffffffffffffffffffffffffffff16021790555060066000815480929190610f0a90612d21565b9190505550505050565b610f1f8383836107a4565b60008273ffffffffffffffffffffffffffffffffffffffff163b1480611008575063150b7a0260e01b7bffffffffffffffffffffffffffffffffffffffffffffffffffffffff19168273ffffffffffffffffffffffffffffffffffffffff1663150b7a023386856040518463ffffffff1660e01b8152600401610fa493929190612dfa565b6020604051808303816000875af1158015610fc3573d6000803e3d6000fd5b505050506040513d601f19601f82011682018060405250810190610fe79190612e59565b7bffffffffffffffffffffffffffffffffffffffffffffffffffffffff1916145b611047576040517f08c379a000000000000000000000000000000000000000000000000000000000815260040161103e90612ed2565b60405180910390fd5b505050565b600080600083815260200190815260200160002060009054906101000a900473ffffffffffffffffffffffffffffffffffffffff169050600073ffffffffffffffffffffffffffffffffffffffff168173ffffffffffffffffffffffffffffffffffffffff16036110f2576040517f08c379a00000000000000000000000000000000000000000000000000000000081526004016110e990612f3e565b60405180910390fd5b919050565b60008073ffffffffffffffffffffffffffffffffffffffff168273ffffffffffffffffffffffffffffffffffffffff1603611167576040517f08c379a000000000000000000000000000000000000000000000000000000000815260040161115e90612f3e565b60405180910390fd5b600160008373ffffffffffffffffffffffffffffffffffffffff1673ffffffffffffffffffffffffffffffffffffffff168152602001908152602001600020549050919050565b6009602052816000526040600020602052806000526040600020600091509150505481565b60065481565b60076020528060005260406000206000915090508060000154908060010160009054906101000a900473ffffffffffffffffffffffffffffffffffffffff16908060020160009054906101000a900473ffffffffffffffffffffffffffffffffffffffff16908060030160009054906101000a900473ffffffffffffffffffffffffffffffffffffffff16908060040154908060050154908060060154908060070160009054906101000a900473ffffffffffffffffffffffffffffffffffffffff16908060080160009054906101000a900473ffffffffffffffffffffffffffffffffffffffff16908060090160009054906101000a90046fffffffffffffffffffffffffffffffff1690508a565b80600360003373ffffffffffffffffffffffffffffffffffffffff1673ffffffffffffffffffffffffffffffffffffffff16815260200190815260200160002060008473ffffffffffffffffffffffffffffffffffffffff1673ffffffffffffffffffffffffffffffffffffffff16815260200190815260200160002060006101000a81548160ff0219169083151502179055508173ffffffffffffffffffffffffffffffffffffffff163373ffffffffffffffffffffffffffffffffffffffff167f17307eab39ab6107e8899845ad3d59bd9653f200f220920489ca2b5937696c31836040516113da91906122d7565b60405180910390a35050565b6113f18585856107a4565b60008473ffffffffffffffffffffffffffffffffffffffff163b14806114de575063150b7a0260e01b7bffffffffffffffffffffffffffffffffffffffffffffffffffffffff19168473ffffffffffffffffffffffffffffffffffffffff1663150b7a0233888787876040518663ffffffff1660e01b815260040161147a959493929190612fab565b6020604051808303816000875af1158015611499573d6000803e3d6000fd5b505050506040513d601f19601f820116820180604052508101906114bd9190612e59565b7bffffffffffffffffffffffffffffffffffffffffffffffffffffffff1916145b61151d576040517f08c379a000000000000000000000000000000000000000000000000000000000815260040161151490612ed2565b60405180910390fd5b5050505050565b6060600860008373ffffffffffffffffffffffffffffffffffffffff1673ffffffffffffffffffffffffffffffffffffffff1681526020019081526020016000208054806020026020016040519081016040528092919081815260200182805480156115af57602002820191906000526020600020905b81548152602001906001019080831161159b575b50505050509050919050565b600860205281600052604060002081815481106115d757600080fd5b90600052602060002001600091509150505481565b60036020528160005260406000206020528060005260406000206000915091509054906101000a900460ff1681565b60008083815260200190815260200160002060009054906101000a900473ffffffffffffffffffffffffffffffffffffffff1673ffffffffffffffffffffffffffffffffffffffff168173ffffffffffffffffffffffffffffffffffffffff16146116bb576040517f08c379a00000000000000000000000000000000000000000000000000000000081526004016116b290613045565b60405180910390fd5b6116c482611f56565b6116ce8282611a06565b600760008381526020019081526020016000206000808201600090556001820160006101000a81549073ffffffffffffffffffffffffffffffffffffffff02191690556002820160006101000a81549073ffffffffffffffffffffffffffffffffffffffff02191690556003820160006101000a81549073ffffffffffffffffffffffffffffffffffffffff02191690556004820160009055600582016000905560068201600090556007820160006101000a81549073ffffffffffffffffffffffffffffffffffffffff02191690556008820160006101000a81549073ffffffffffffffffffffffffffffffffffffffff02191690556009820160006101000a8154906fffffffffffffffffffffffffffffffff021916905550505050565b6117f661211c565b60006040518061014001604052808d81526020018c73ffffffffffffffffffffffffffffffffffffffff1681526020018b73ffffffffffffffffffffffffffffffffffffffff1681526020018a73ffffffffffffffffffffffffffffffffffffffff1681526020018981526020018881526020018781526020018673ffffffffffffffffffffffffffffffffffffffff1681526020018573ffffffffffffffffffffffffffffffffffffffff168152602001846fffffffffffffffffffffffffffffffff168152509050809150509a9950505050505050505050565b60008373ffffffffffffffffffffffffffffffffffffffff168373ffffffffffffffffffffffffffffffffffffffff1614806119945750600360008573ffffffffffffffffffffffffffffffffffffffff1673ffffffffffffffffffffffffffffffffffffffff16815260200190815260200160002060008473ffffffffffffffffffffffffffffffffffffffff1673ffffffffffffffffffffffffffffffffffffffff16815260200190815260200160002060009054906101000a900460ff165b806119fd57506002600083815260200190815260200160002060009054906101000a900473ffffffffffffffffffffffffffffffffffffffff1673ffffffffffffffffffffffffffffffffffffffff168373ffffffffffffffffffffffffffffffffffffffff16145b90509392505050565b6000600960008373ffffffffffffffffffffffffffffffffffffffff1673ffffffffffffffffffffffffffffffffffffffff16815260200190815260200160002060008481526020019081526020016000205490506000600860008473ffffffffffffffffffffffffffffffffffffffff1673ffffffffffffffffffffffffffffffffffffffff16815260200190815260200160002080549050905060018103611b5057600860008473ffffffffffffffffffffffffffffffffffffffff1673ffffffffffffffffffffffffffffffffffffffff1681526020019081526020016000206000611af591906121ef565b6000600960008573ffffffffffffffffffffffffffffffffffffffff1673ffffffffffffffffffffffffffffffffffffffff168152602001908152602001600020600086815260200190815260200160002081905550611d3a565b6000600860008573ffffffffffffffffffffffffffffffffffffffff1673ffffffffffffffffffffffffffffffffffffffff168152602001908152602001600020600183611b9e9190613065565b81548110611baf57611bae613099565b5b9060005260206000200154905080600860008673ffffffffffffffffffffffffffffffffffffffff1673ffffffffffffffffffffffffffffffffffffffff168152602001908152602001600020600185611c099190613065565b81548110611c1a57611c19613099565b5b9060005260206000200181905550600860008573ffffffffffffffffffffffffffffffffffffffff1673ffffffffffffffffffffffffffffffffffffffff168152602001908152602001600020805480611c7757611c766130c8565b5b6001900381819060005260206000200160009055905582600960008673ffffffffffffffffffffffffffffffffffffffff1673ffffffffffffffffffffffffffffffffffffffff1681526020019081526020016000206000838152602001908152602001600020819055506000600960008673ffffffffffffffffffffffffffffffffffffffff1673ffffffffffffffffffffffffffffffffffffffff168152602001908152602001600020600087815260200190815260200160002081905550505b50505050565b600073ffffffffffffffffffffffffffffffffffffffff168273ffffffffffffffffffffffffffffffffffffffff1603611daf576040517f08c379a0000000000000000000000000000000000000000000000000000000008152600401611da690612ca9565b60405180910390fd5b600073ffffffffffffffffffffffffffffffffffffffff1660008083815260200190815260200160002060009054906101000a900473ffffffffffffffffffffffffffffffffffffffff1673ffffffffffffffffffffffffffffffffffffffff1614611e50576040517f08c379a0000000000000000000000000000000000000000000000000000000008152600401611e4790613143565b60405180910390fd5b600160008373ffffffffffffffffffffffffffffffffffffffff1673ffffffffffffffffffffffffffffffffffffffff1681526020019081526020016000206000815480929190611ea090612d21565b91905055508160008083815260200190815260200160002060006101000a81548173ffffffffffffffffffffffffffffffffffffffff021916908373ffffffffffffffffffffffffffffffffffffffff160217905550808273ffffffffffffffffffffffffffffffffffffffff16600073ffffffffffffffffffffffffffffffffffffffff167fddf252ad1be2c89b69c2b068fc378daa952ba7f163c4a11628f55a4df523b3ef60405160405180910390a45050565b600080600083815260200190815260200160002060009054906101000a900473ffffffffffffffffffffffffffffffffffffffff169050600073ffffffffffffffffffffffffffffffffffffffff168173ffffffffffffffffffffffffffffffffffffffff1603611ffc576040517f08c379a0000000000000000000000000000000000000000000000000000000008152600401611ff3906131af565b60405180910390fd5b600160008273ffffffffffffffffffffffffffffffffffffffff1673ffffffffffffffffffffffffffffffffffffffff168152602001908152602001600020600081548092919061204c90612cf8565b919050555060008083815260200190815260200160002060006101000a81549073ffffffffffffffffffffffffffffffffffffffff02191690556002600083815260200190815260200160002060006101000a81549073ffffffffffffffffffffffffffffffffffffffff021916905581600073ffffffffffffffffffffffffffffffffffffffff168273ffffffffffffffffffffffffffffffffffffffff167fddf252ad1be2c89b69c2b068fc378daa952ba7f163c4a11628f55a4df523b3ef60405160405180910390a45050565b60405180610140016040528060008152602001600073ffffffffffffffffffffffffffffffffffffffff168152602001600073ffffffffffffffffffffffffffffffffffffffff168152602001600073ffffffffffffffffffffffffffffffffffffffff168152602001600081526020016000815260200160008152602001600073ffffffffffffffffffffffffffffffffffffffff168152602001600073ffffffffffffffffffffffffffffffffffffffff16815260200160006fffffffffffffffffffffffffffffffff1681525090565b508054600082559060005260206000209081019061220d9190612210565b50565b5b80821115612229576000816000905550600101612211565b5090565b600080fd5b600080fd5b60007fffffffff0000000000000000000000000000000000000000000000000000000082169050919050565b61226c81612237565b811461227757600080fd5b50565b60008135905061228981612263565b92915050565b6000602082840312156122a5576122a461222d565b5b60006122b38482850161227a565b91505092915050565b60008115159050919050565b6122d1816122bc565b82525050565b60006020820190506122ec60008301846122c8565b92915050565b6000819050919050565b612305816122f2565b811461231057600080fd5b50565b600081359050612322816122fc565b92915050565b60006020828403121561233e5761233d61222d565b5b600061234c84828501612313565b91505092915050565b600073ffffffffffffffffffffffffffffffffffffffff82169050919050565b600061238082612355565b9050919050565b61239081612375565b82525050565b60006020820190506123ab6000830184612387565b92915050565b6123ba81612375565b81146123c557600080fd5b50565b6000813590506123d7816123b1565b92915050565b600080604083850312156123f4576123f361222d565b5b6000612402858286016123c8565b925050602061241385828601612313565b9150509250929050565b6000806000606084860312156124365761243561222d565b5b6000612444868287016123c8565b9350506020612455868287016123c8565b925050604061246686828701612313565b9150509250925092565b600080fd5b6000610140828403121561248c5761248b612470565b5b81905092915050565b60008061016083850312156124ad576124ac61222d565b5b60006124bb858286016123c8565b92505060206124cc85828601612475565b9150509250929050565b6000602082840312156124ec576124eb61222d565b5b60006124fa848285016123c8565b91505092915050565b61250c816122f2565b82525050565b60006020820190506125276000830184612503565b92915050565b61253681612355565b82525050565b60006fffffffffffffffffffffffffffffffff82169050919050565b6125618161253c565b82525050565b60006101408201905061257d600083018d612503565b61258a602083018c612387565b612597604083018b612387565b6125a4606083018a612387565b6125b16080830189612503565b6125be60a0830188612503565b6125cb60c0830187612503565b6125d860e083018661252d565b6125e661010083018561252d565b6125f4610120830184612558565b9b9a5050505050505050505050565b61260c816122bc565b811461261757600080fd5b50565b60008135905061262981612603565b92915050565b600080604083850312156126465761264561222d565b5b6000612654858286016123c8565b92505060206126658582860161261a565b9150509250929050565b600080fd5b600080fd5b600080fd5b60008083601f8401126126945761269361266f565b5b8235905067ffffffffffffffff8111156126b1576126b0612674565b5b6020830191508360018202830111156126cd576126cc612679565b5b9250929050565b6000806000806000608086880312156126f0576126ef61222d565b5b60006126fe888289016123c8565b955050602061270f888289016123c8565b945050604061272088828901612313565b935050606086013567ffffffffffffffff81111561274157612740612232565b5b61274d8882890161267e565b92509250509295509295909350565b600081519050919050565b600082825260208201905092915050565b6000819050602082019050919050565b612791816122f2565b82525050565b60006127a38383612788565b60208301905092915050565b6000602082019050919050565b60006127c78261275c565b6127d18185612767565b93506127dc83612778565b8060005b8381101561280d5781516127f48882612797565b97506127ff836127af565b9250506001810190506127e0565b5085935050505092915050565b6000602082019050818103600083015261283481846127bc565b905092915050565b600080604083850312156128535761285261222d565b5b6000612861858286016123c8565b9250506020612872858286016123c8565b9150509250929050565b600080604083850312156128935761289261222d565b5b60006128a185828601612313565b92505060206128b2858286016123c8565b9150509250929050565b6128c581612355565b81146128d057600080fd5b50565b6000813590506128e2816128bc565b92915050565b6128f18161253c565b81146128fc57600080fd5b50565b60008135905061290e816128e8565b92915050565b6000806000806000806000806000806101408b8d0312156129385761293761222d565b5b60006129468d828e01612313565b9a505060206129578d828e016123c8565b99505060406129688d828e016123c8565b98505060606129798d828e016123c8565b975050608061298a8d828e01612313565b96505060a061299b8d828e01612313565b95505060c06129ac8d828e01612313565b94505060e06129bd8d828e016128d3565b9350506101006129cf8d828e016128d3565b9250506101206129e18d828e016128ff565b9150509295989b9194979a5092959850565b6129fc81612375565b82525050565b612a0b81612355565b82525050565b612a1a8161253c565b82525050565b61014082016000820151612a376000850182612788565b506020820151612a4a60208501826129f3565b506040820151612a5d60408501826129f3565b506060820151612a7060608501826129f3565b506080820151612a836080850182612788565b5060a0820151612a9660a0850182612788565b5060c0820151612aa960c0850182612788565b5060e0820151612abc60e0850182612a02565b50610100820151612ad1610100850182612a02565b50610120820151612ae6610120850182612a11565b50505050565b600061014082019050612b026000830184612a20565b92915050565b600082825260208201905092915050565b7f746f6b656e20646f657327742065786974730000000000000000000000000000600082015250565b6000612b4f601283612b08565b9150612b5a82612b19565b602082019050919050565b60006020820190508181036000830152612b7e81612b42565b9050919050565b7f6e6f7420617574686f72697a6564000000000000000000000000000000000000600082015250565b6000612bbb600e83612b08565b9150612bc682612b85565b602082019050919050565b60006020820190508181036000830152612bea81612bae565b9050919050565b7f66726f6d20213d206f776e657200000000000000000000000000000000000000600082015250565b6000612c27600d83612b08565b9150612c3282612bf1565b602082019050919050565b60006020820190508181036000830152612c5681612c1a565b9050919050565b7f746f203d207a65726f2061646472657373000000000000000000000000000000600082015250565b6000612c93601183612b08565b9150612c9e82612c5d565b602082019050919050565b60006020820190508181036000830152612cc281612c86565b9050919050565b7f4e487b7100000000000000000000000000000000000000000000000000000000600052601160045260246000fd5b6000612d03826122f2565b915060008203612d1657612d15612cc9565b5b600182039050919050565b6000612d2c826122f2565b91507fffffffffffffffffffffffffffffffffffffffffffffffffffffffffffffffff8203612d5e57612d5d612cc9565b5b600182019050919050565b600060208284031215612d7f57612d7e61222d565b5b6000612d8d848285016128d3565b91505092915050565b600060208284031215612dac57612dab61222d565b5b6000612dba848285016128ff565b91505092915050565b600082825260208201905092915050565b50565b6000612de4600083612dc3565b9150612def82612dd4565b600082019050919050565b6000608082019050612e0f6000830186612387565b612e1c6020830185612387565b612e296040830184612503565b8181036060830152612e3a81612dd7565b9050949350505050565b600081519050612e5381612263565b92915050565b600060208284031215612e6f57612e6e61222d565b5b6000612e7d84828501612e44565b91505092915050565b7f756e7361666520726563697069656e7400000000000000000000000000000000600082015250565b6000612ebc601083612b08565b9150612ec782612e86565b602082019050919050565b60006020820190508181036000830152612eeb81612eaf565b9050919050565b7f6f776e6572203d207a65726f2061646472657373000000000000000000000000600082015250565b6000612f28601483612b08565b9150612f3382612ef2565b602082019050919050565b60006020820190508181036000830152612f5781612f1b565b9050919050565b82818337600083830152505050565b6000601f19601f8301169050919050565b6000612f8a8385612dc3565b9350612f97838584612f5e565b612fa083612f6d565b840190509392505050565b6000608082019050612fc06000830188612387565b612fcd6020830187612387565b612fda6040830186612503565b8181036060830152612fed818486612f7e565b90509695505050505050565b7f6e6f74204f776e65720000000000000000000000000000000000000000000000600082015250565b600061302f600983612b08565b915061303a82612ff9565b602082019050919050565b6000602082019050818103600083015261305e81613022565b9050919050565b6000613070826122f2565b915061307b836122f2565b925082820390508181111561309357613092612cc9565b5b92915050565b7f4e487b7100000000000000000000000000000000000000000000000000000000600052603260045260246000fd5b7f4e487b7100000000000000000000000000000000000000000000000000000000600052603160045260246000fd5b7f746f6b656e206578697374730000000000000000000000000000000000000000600082015250565b600061312d600c83612b08565b9150613138826130f7565b602082019050919050565b6000602082019050818103600083015261315c81613120565b9050919050565b7f746f6b656e20646f6573206e6f74206578697473000000000000000000000000600082015250565b6000613199601483612b08565b91506131a482613163565b602082019050919050565b600060208201905081810360008301526131c88161318c565b905091905056fea26469706673582212208444013218439da0afee8ac6a81d067d56bbd15cd456ab23b7aa260110a0395f64736f6c63430008120033",
					"opcodes": "PUSH1 0x80 PUSH1 0x40 MSTORE PUSH1 0x1 PUSH1 0x6 SSTORE CALLVALUE DUP1 ISZERO PUSH3 0x16 JUMPI PUSH1 0x0 DUP1 REVERT JUMPDEST POP PUSH1 0x40 MLOAD PUSH3 0x37C7 CODESIZE SUB DUP1 PUSH3 0x37C7 DUP4 CODECOPY DUP2 DUP2 ADD PUSH1 0x40 MSTORE DUP2 ADD SWAP1 PUSH3 0x3C SWAP2 SWAP1 PUSH3 0x1FB JUMP JUMPDEST DUP2 PUSH1 0x4 SWAP1 DUP2 PUSH3 0x4D SWAP2 SWAP1 PUSH3 0x4CB JUMP JUMPDEST POP DUP1 PUSH1 0x5 SWAP1 DUP2 PUSH3 0x5F SWAP2 SWAP1 PUSH3 0x4CB JUMP JUMPDEST POP POP POP PUSH3 0x5B2 JUMP JUMPDEST PUSH1 0x0 PUSH1 0x40 MLOAD SWAP1 POP SWAP1 JUMP JUMPDEST PUSH1 0x0 DUP1 REVERT JUMPDEST PUSH1 0x0 DUP1 REVERT JUMPDEST PUSH1 0x0 DUP1 REVERT JUMPDEST PUSH1 0x0 DUP1 REVERT JUMPDEST PUSH1 0x0 PUSH1 0x1F NOT PUSH1 0x1F DUP4 ADD AND SWAP1 POP SWAP2 SWAP1 POP JUMP JUMPDEST PUSH32 0x4E487B7100000000000000000000000000000000000000000000000000000000 PUSH1 0x0 MSTORE PUSH1 0x41 PUSH1 0x4 MSTORE PUSH1 0x24 PUSH1 0x0 REVERT JUMPDEST PUSH3 0xD1 DUP3 PUSH3 0x86 JUMP JUMPDEST DUP2 ADD DUP2 DUP2 LT PUSH8 0xFFFFFFFFFFFFFFFF DUP3 GT OR ISZERO PUSH3 0xF3 JUMPI PUSH3 0xF2 PUSH3 0x97 JUMP JUMPDEST JUMPDEST DUP1 PUSH1 0x40 MSTORE POP POP POP JUMP JUMPDEST PUSH1 0x0 PUSH3 0x108 PUSH3 0x68 JUMP JUMPDEST SWAP1 POP PUSH3 0x116 DUP3 DUP3 PUSH3 0xC6 JUMP JUMPDEST SWAP2 SWAP1 POP JUMP JUMPDEST PUSH1 0x0 PUSH8 0xFFFFFFFFFFFFFFFF DUP3 GT ISZERO PUSH3 0x139 JUMPI PUSH3 0x138 PUSH3 0x97 JUMP JUMPDEST JUMPDEST PUSH3 0x144 DUP3 PUSH3 0x86 JUMP JUMPDEST SWAP1 POP PUSH1 0x20 DUP2 ADD SWAP1 POP SWAP2 SWAP1 POP JUMP JUMPDEST PUSH1 0x0 JUMPDEST DUP4 DUP2 LT ISZERO PUSH3 0x171 JUMPI DUP1 DUP3 ADD MLOAD DUP2 DUP5 ADD MSTORE PUSH1 0x20 DUP2 ADD SWAP1 POP PUSH3 0x154 JUMP JUMPDEST PUSH1 0x0 DUP5 DUP5 ADD MSTORE POP POP POP POP JUMP JUMPDEST PUSH1 0x0 PUSH3 0x194 PUSH3 0x18E DUP5 PUSH3 0x11B JUMP JUMPDEST PUSH3 0xFC JUMP JUMPDEST SWAP1 POP DUP3 DUP2 MSTORE PUSH1 0x20 DUP2 ADD DUP5 DUP5 DUP5 ADD GT ISZERO PUSH3 0x1B3 JUMPI PUSH3 0x1B2 PUSH3 0x81 JUMP JUMPDEST JUMPDEST PUSH3 0x1C0 DUP5 DUP3 DUP6 PUSH3 0x151 JUMP JUMPDEST POP SWAP4 SWAP3 POP POP POP JUMP JUMPDEST PUSH1 0x0 DUP3 PUSH1 0x1F DUP4 ADD SLT PUSH3 0x1E0 JUMPI PUSH3 0x1DF PUSH3 0x7C JUMP JUMPDEST JUMPDEST DUP2 MLOAD PUSH3 0x1F2 DUP5 DUP3 PUSH1 0x20 DUP7 ADD PUSH3 0x17D JUMP JUMPDEST SWAP2 POP POP SWAP3 SWAP2 POP POP JUMP JUMPDEST PUSH1 0x0 DUP1 PUSH1 0x40 DUP4 DUP6 SUB SLT ISZERO PUSH3 0x215 JUMPI PUSH3 0x214 PUSH3 0x72 JUMP JUMPDEST JUMPDEST PUSH1 0x0 DUP4 ADD MLOAD PUSH8 0xFFFFFFFFFFFFFFFF DUP2 GT ISZERO PUSH3 0x236 JUMPI PUSH3 0x235 PUSH3 0x77 JUMP JUMPDEST JUMPDEST PUSH3 0x244 DUP6 DUP3 DUP7 ADD PUSH3 0x1C8 JUMP JUMPDEST SWAP3 POP POP PUSH1 0x20 DUP4 ADD MLOAD PUSH8 0xFFFFFFFFFFFFFFFF DUP2 GT ISZERO PUSH3 0x268 JUMPI PUSH3 0x267 PUSH3 0x77 JUMP JUMPDEST JUMPDEST PUSH3 0x276 DUP6 DUP3 DUP7 ADD PUSH3 0x1C8 JUMP JUMPDEST SWAP2 POP POP SWAP3 POP SWAP3 SWAP1 POP JUMP JUMPDEST PUSH1 0x0 DUP2 MLOAD SWAP1 POP SWAP2 SWAP1 POP JUMP JUMPDEST PUSH32 0x4E487B7100000000000000000000000000000000000000000000000000000000 PUSH1 0x0 MSTORE PUSH1 0x22 PUSH1 0x4 MSTORE PUSH1 0x24 PUSH1 0x0 REVERT JUMPDEST PUSH1 0x0 PUSH1 0x2 DUP3 DIV SWAP1 POP PUSH1 0x1 DUP3 AND DUP1 PUSH3 0x2D3 JUMPI PUSH1 0x7F DUP3 AND SWAP2 POP JUMPDEST PUSH1 0x20 DUP3 LT DUP2 SUB PUSH3 0x2E9 JUMPI PUSH3 0x2E8 PUSH3 0x28B JUMP JUMPDEST JUMPDEST POP SWAP2 SWAP1 POP JUMP JUMPDEST PUSH1 0x0 DUP2 SWAP1 POP DUP2 PUSH1 0x0 MSTORE PUSH1 0x20 PUSH1 0x0 KECCAK256 SWAP1 POP SWAP2 SWAP1 POP JUMP JUMPDEST PUSH1 0x0 PUSH1 0x20 PUSH1 0x1F DUP4 ADD DIV SWAP1 POP SWAP2 SWAP1 POP JUMP JUMPDEST PUSH1 0x0 DUP3 DUP3 SHL SWAP1 POP SWAP3 SWAP2 POP POP JUMP JUMPDEST PUSH1 0x0 PUSH1 0x8 DUP4 MUL PUSH3 0x353 PUSH32 0xFFFFFFFFFFFFFFFFFFFFFFFFFFFFFFFFFFFFFFFFFFFFFFFFFFFFFFFFFFFFFFFF DUP3 PUSH3 0x314 JUMP JUMPDEST PUSH3 0x35F DUP7 DUP4 PUSH3 0x314 JUMP JUMPDEST SWAP6 POP DUP1 NOT DUP5 AND SWAP4 POP DUP1 DUP7 AND DUP5 OR SWAP3 POP POP POP SWAP4 SWAP3 POP POP POP JUMP JUMPDEST PUSH1 0x0 DUP2 SWAP1 POP SWAP2 SWAP1 POP JUMP JUMPDEST PUSH1 0x0 DUP2 SWAP1 POP SWAP2 SWAP1 POP JUMP JUMPDEST PUSH1 0x0 PUSH3 0x3AC PUSH3 0x3A6 PUSH3 0x3A0 DUP5 PUSH3 0x377 JUMP JUMPDEST PUSH3 0x381 JUMP JUMPDEST PUSH3 0x377 JUMP JUMPDEST SWAP1 POP SWAP2 SWAP1 POP JUMP JUMPDEST PUSH1 0x0 DUP2 SWAP1 POP SWAP2 SWAP1 POP JUMP JUMPDEST PUSH3 0x3C8 DUP4 PUSH3 0x38B JUMP JUMPDEST PUSH3 0x3E0 PUSH3 0x3D7 DUP3 PUSH3 0x3B3 JUMP JUMPDEST DUP5 DUP5 SLOAD PUSH3 0x321 JUMP JUMPDEST DUP3 SSTORE POP POP POP POP JUMP JUMPDEST PUSH1 0x0 SWAP1 JUMP JUMPDEST PUSH3 0x3F7 PUSH3 0x3E8 JUMP JUMPDEST PUSH3 0x404 DUP2 DUP5 DUP5 PUSH3 0x3BD JUMP JUMPDEST POP POP POP JUMP JUMPDEST JUMPDEST DUP2 DUP2 LT ISZERO PUSH3 0x42C JUMPI PUSH3 0x420 PUSH1 0x0 DUP3 PUSH3 0x3ED JUMP JUMPDEST PUSH1 0x1 DUP2 ADD SWAP1 POP PUSH3 0x40A JUMP JUMPDEST POP POP JUMP JUMPDEST PUSH1 0x1F DUP3 GT ISZERO PUSH3 0x47B JUMPI PUSH3 0x445 DUP2 PUSH3 0x2EF JUMP JUMPDEST PUSH3 0x450 DUP5 PUSH3 0x304 JUMP JUMPDEST DUP2 ADD PUSH1 0x20 DUP6 LT ISZERO PUSH3 0x460 JUMPI DUP2 SWAP1 POP JUMPDEST PUSH3 0x478 PUSH3 0x46F DUP6 PUSH3 0x304 JUMP JUMPDEST DUP4 ADD DUP3 PUSH3 0x409 JUMP JUMPDEST POP POP JUMPDEST POP POP POP JUMP JUMPDEST PUSH1 0x0 DUP3 DUP3 SHR SWAP1 POP SWAP3 SWAP2 POP POP JUMP JUMPDEST PUSH1 0x0 PUSH3 0x4A0 PUSH1 0x0 NOT DUP5 PUSH1 0x8 MUL PUSH3 0x480 JUMP JUMPDEST NOT DUP1 DUP4 AND SWAP2 POP POP SWAP3 SWAP2 POP POP JUMP JUMPDEST PUSH1 0x0 PUSH3 0x4BB DUP4 DUP4 PUSH3 0x48D JUMP JUMPDEST SWAP2 POP DUP3 PUSH1 0x2 MUL DUP3 OR SWAP1 POP SWAP3 SWAP2 POP POP JUMP JUMPDEST PUSH3 0x4D6 DUP3 PUSH3 0x280 JUMP JUMPDEST PUSH8 0xFFFFFFFFFFFFFFFF DUP2 GT ISZERO PUSH3 0x4F2 JUMPI PUSH3 0x4F1 PUSH3 0x97 JUMP JUMPDEST JUMPDEST PUSH3 0x4FE DUP3 SLOAD PUSH3 0x2BA JUMP JUMPDEST PUSH3 0x50B DUP3 DUP3 DUP6 PUSH3 0x430 JUMP JUMPDEST PUSH1 0x0 PUSH1 0x20 SWAP1 POP PUSH1 0x1F DUP4 GT PUSH1 0x1 DUP2 EQ PUSH3 0x543 JUMPI PUSH1 0x0 DUP5 ISZERO PUSH3 0x52E JUMPI DUP3 DUP8 ADD MLOAD SWAP1 POP JUMPDEST PUSH3 0x53A DUP6 DUP3 PUSH3 0x4AD JUMP JUMPDEST DUP7 SSTORE POP PUSH3 0x5AA JUMP JUMPDEST PUSH1 0x1F NOT DUP5 AND PUSH3 0x553 DUP7 PUSH3 0x2EF JUMP JUMPDEST PUSH1 0x0 JUMPDEST DUP3 DUP2 LT ISZERO PUSH3 0x57D JUMPI DUP5 DUP10 ADD MLOAD DUP3 SSTORE PUSH1 0x1 DUP3 ADD SWAP2 POP PUSH1 0x20 DUP6 ADD SWAP5 POP PUSH1 0x20 DUP2 ADD SWAP1 POP PUSH3 0x556 JUMP JUMPDEST DUP7 DUP4 LT ISZERO PUSH3 0x59D JUMPI DUP5 DUP10 ADD MLOAD PUSH3 0x599 PUSH1 0x1F DUP10 AND DUP3 PUSH3 0x48D JUMP JUMPDEST DUP4 SSTORE POP JUMPDEST PUSH1 0x1 PUSH1 0x2 DUP9 MUL ADD DUP9 SSTORE POP POP POP JUMPDEST POP POP POP POP POP POP JUMP JUMPDEST PUSH2 0x3205 DUP1 PUSH3 0x5C2 PUSH1 0x0 CODECOPY PUSH1 0x0 RETURN INVALID PUSH1 0x80 PUSH1 0x40 MSTORE CALLVALUE DUP1 ISZERO PUSH2 0x10 JUMPI PUSH1 0x0 DUP1 REVERT JUMPDEST POP PUSH1 0x4 CALLDATASIZE LT PUSH2 0x121 JUMPI PUSH1 0x0 CALLDATALOAD PUSH1 0xE0 SHR DUP1 PUSH4 0x7FCDA073 GT PUSH2 0xAD JUMPI DUP1 PUSH4 0xD942DC94 GT PUSH2 0x71 JUMPI DUP1 PUSH4 0xD942DC94 EQ PUSH2 0x331 JUMPI DUP1 PUSH4 0xDEEB79A3 EQ PUSH2 0x361 JUMPI DUP1 PUSH4 0xEBD1D359 EQ PUSH2 0x391 JUMPI DUP1 PUSH4 0xEC828722 EQ PUSH2 0x3C1 JUMPI DUP1 PUSH4 0xF94BE2CB EQ PUSH2 0x3DD JUMPI PUSH2 0x121 JUMP JUMPDEST DUP1 PUSH4 0x7FCDA073 EQ PUSH2 0x272 JUMPI DUP1 PUSH4 0x8BBF58B3 EQ PUSH2 0x2A2 JUMPI DUP1 PUSH4 0x99FBAB88 EQ PUSH2 0x2C0 JUMPI DUP1 PUSH4 0xA22CB465 EQ PUSH2 0x2F9 JUMPI DUP1 PUSH4 0xB88D4FDE EQ PUSH2 0x315 JUMPI PUSH2 0x121 JUMP JUMPDEST DUP1 PUSH4 0x26908FA1 GT PUSH2 0xF4 JUMPI DUP1 PUSH4 0x26908FA1 EQ PUSH2 0x1BE JUMPI DUP1 PUSH4 0x389C89B3 EQ PUSH2 0x1DA JUMPI DUP1 PUSH4 0x42842E0E EQ PUSH2 0x1F6 JUMPI DUP1 PUSH4 0x6352211E EQ PUSH2 0x212 JUMPI DUP1 PUSH4 0x70A08231 EQ PUSH2 0x242 JUMPI PUSH2 0x121 JUMP JUMPDEST DUP1 PUSH4 0x1FFC9A7 EQ PUSH2 0x126 JUMPI DUP1 PUSH4 0x81812FC EQ PUSH2 0x156 JUMPI DUP1 PUSH4 0x95EA7B3 EQ PUSH2 0x186 JUMPI DUP1 PUSH4 0x23B872DD EQ PUSH2 0x1A2 JUMPI JUMPDEST PUSH1 0x0 DUP1 REVERT JUMPDEST PUSH2 0x140 PUSH1 0x4 DUP1 CALLDATASIZE SUB DUP2 ADD SWAP1 PUSH2 0x13B SWAP2 SWAP1 PUSH2 0x228F JUMP JUMPDEST PUSH2 0x40D JUMP JUMPDEST PUSH1 0x40 MLOAD PUSH2 0x14D SWAP2 SWAP1 PUSH2 0x22D7 JUMP JUMPDEST PUSH1 0x40 MLOAD DUP1 SWAP2 SUB SWAP1 RETURN JUMPDEST PUSH2 0x170 PUSH1 0x4 DUP1 CALLDATASIZE SUB DUP2 ADD SWAP1 PUSH2 0x16B SWAP2 SWAP1 PUSH2 0x2328 JUMP JUMPDEST PUSH2 0x4DF JUMP JUMPDEST PUSH1 0x40 MLOAD PUSH2 0x17D SWAP2 SWAP1 PUSH2 0x2396 JUMP JUMPDEST PUSH1 0x40 MLOAD DUP1 SWAP2 SUB SWAP1 RETURN JUMPDEST PUSH2 0x1A0 PUSH1 0x4 DUP1 CALLDATASIZE SUB DUP2 ADD SWAP1 PUSH2 0x19B SWAP2 SWAP1 PUSH2 0x23DD JUMP JUMPDEST PUSH2 0x5BC JUMP JUMPDEST STOP JUMPDEST PUSH2 0x1BC PUSH1 0x4 DUP1 CALLDATASIZE SUB DUP2 ADD SWAP1 PUSH2 0x1B7 SWAP2 SWAP1 PUSH2 0x241D JUMP JUMPDEST PUSH2 0x7A4 JUMP JUMPDEST STOP JUMPDEST PUSH2 0x1D8 PUSH1 0x4 DUP1 CALLDATASIZE SUB DUP2 ADD SWAP1 PUSH2 0x1D3 SWAP2 SWAP1 PUSH2 0x241D JUMP JUMPDEST PUSH2 0xA8E JUMP JUMPDEST STOP JUMPDEST PUSH2 0x1F4 PUSH1 0x4 DUP1 CALLDATASIZE SUB DUP2 ADD SWAP1 PUSH2 0x1EF SWAP2 SWAP1 PUSH2 0x2495 JUMP JUMPDEST PUSH2 0xBA5 JUMP JUMPDEST STOP JUMPDEST PUSH2 0x210 PUSH1 0x4 DUP1 CALLDATASIZE SUB DUP2 ADD SWAP1 PUSH2 0x20B SWAP2 SWAP1 PUSH2 0x241D JUMP JUMPDEST PUSH2 0xF14 JUMP JUMPDEST STOP JUMPDEST PUSH2 0x22C PUSH1 0x4 DUP1 CALLDATASIZE SUB DUP2 ADD SWAP1 PUSH2 0x227 SWAP2 SWAP1 PUSH2 0x2328 JUMP JUMPDEST PUSH2 0x104C JUMP JUMPDEST PUSH1 0x40 MLOAD PUSH2 0x239 SWAP2 SWAP1 PUSH2 0x2396 JUMP JUMPDEST PUSH1 0x40 MLOAD DUP1 SWAP2 SUB SWAP1 RETURN JUMPDEST PUSH2 0x25C PUSH1 0x4 DUP1 CALLDATASIZE SUB DUP2 ADD SWAP1 PUSH2 0x257 SWAP2 SWAP1 PUSH2 0x24D6 JUMP JUMPDEST PUSH2 0x10F7 JUMP JUMPDEST PUSH1 0x40 MLOAD PUSH2 0x269 SWAP2 SWAP1 PUSH2 0x2512 JUMP JUMPDEST PUSH1 0x40 MLOAD DUP1 SWAP2 SUB SWAP1 RETURN JUMPDEST PUSH2 0x28C PUSH1 0x4 DUP1 CALLDATASIZE SUB DUP2 ADD SWAP1 PUSH2 0x287 SWAP2 SWAP1 PUSH2 0x23DD JUMP JUMPDEST PUSH2 0x11AE JUMP JUMPDEST PUSH1 0x40 MLOAD PUSH2 0x299 SWAP2 SWAP1 PUSH2 0x2512 JUMP JUMPDEST PUSH1 0x40 MLOAD DUP1 SWAP2 SUB SWAP1 RETURN JUMPDEST PUSH2 0x2AA PUSH2 0x11D3 JUMP JUMPDEST PUSH1 0x40 MLOAD PUSH2 0x2B7 SWAP2 SWAP1 PUSH2 0x2512 JUMP JUMPDEST PUSH1 0x40 MLOAD DUP1 SWAP2 SUB SWAP1 RETURN JUMPDEST PUSH2 0x2DA PUSH1 0x4 DUP1 CALLDATASIZE SUB DUP2 ADD SWAP1 PUSH2 0x2D5 SWAP2 SWAP1 PUSH2 0x2328 JUMP JUMPDEST PUSH2 0x11D9 JUMP JUMPDEST PUSH1 0x40 MLOAD PUSH2 0x2F0 SWAP11 SWAP10 SWAP9 SWAP8 SWAP7 SWAP6 SWAP5 SWAP4 SWAP3 SWAP2 SWAP1 PUSH2 0x2567 JUMP JUMPDEST PUSH1 0x40 MLOAD DUP1 SWAP2 SUB SWAP1 RETURN JUMPDEST PUSH2 0x313 PUSH1 0x4 DUP1 CALLDATASIZE SUB DUP2 ADD SWAP1 PUSH2 0x30E SWAP2 SWAP1 PUSH2 0x262F JUMP JUMPDEST PUSH2 0x12E9 JUMP JUMPDEST STOP JUMPDEST PUSH2 0x32F PUSH1 0x4 DUP1 CALLDATASIZE SUB DUP2 ADD SWAP1 PUSH2 0x32A SWAP2 SWAP1 PUSH2 0x26D4 JUMP JUMPDEST PUSH2 0x13E6 JUMP JUMPDEST STOP JUMPDEST PUSH2 0x34B PUSH1 0x4 DUP1 CALLDATASIZE SUB DUP2 ADD SWAP1 PUSH2 0x346 SWAP2 SWAP1 PUSH2 0x24D6 JUMP JUMPDEST PUSH2 0x1524 JUMP JUMPDEST PUSH1 0x40 MLOAD PUSH2 0x358 SWAP2 SWAP1 PUSH2 0x281A JUMP JUMPDEST PUSH1 0x40 MLOAD DUP1 SWAP2 SUB SWAP1 RETURN JUMPDEST PUSH2 0x37B PUSH1 0x4 DUP1 CALLDATASIZE SUB DUP2 ADD SWAP1 PUSH2 0x376 SWAP2 SWAP1 PUSH2 0x23DD JUMP JUMPDEST PUSH2 0x15BB JUMP JUMPDEST PUSH1 0x40 MLOAD PUSH2 0x388 SWAP2 SWAP1 PUSH2 0x2512 JUMP JUMPDEST PUSH1 0x40 MLOAD DUP1 SWAP2 SUB SWAP1 RETURN JUMPDEST PUSH2 0x3AB PUSH1 0x4 DUP1 CALLDATASIZE SUB DUP2 ADD SWAP1 PUSH2 0x3A6 SWAP2 SWAP1 PUSH2 0x283C JUMP JUMPDEST PUSH2 0x15EC JUMP JUMPDEST PUSH1 0x40 MLOAD PUSH2 0x3B8 SWAP2 SWAP1 PUSH2 0x22D7 JUMP JUMPDEST PUSH1 0x40 MLOAD DUP1 SWAP2 SUB SWAP1 RETURN JUMPDEST PUSH2 0x3DB PUSH1 0x4 DUP1 CALLDATASIZE SUB DUP2 ADD SWAP1 PUSH2 0x3D6 SWAP2 SWAP1 PUSH2 0x287C JUMP JUMPDEST PUSH2 0x161B JUMP JUMPDEST STOP JUMPDEST PUSH2 0x3F7 PUSH1 0x4 DUP1 CALLDATASIZE SUB DUP2 ADD SWAP1 PUSH2 0x3F2 SWAP2 SWAP1 PUSH2 0x2914 JUMP JUMPDEST PUSH2 0x17EE JUMP JUMPDEST PUSH1 0x40 MLOAD PUSH2 0x404 SWAP2 SWAP1 PUSH2 0x2AEC JUMP JUMPDEST PUSH1 0x40 MLOAD DUP1 SWAP2 SUB SWAP1 RETURN JUMPDEST PUSH1 0x0 PUSH32 0x80AC58CD00000000000000000000000000000000000000000000000000000000 PUSH28 0xFFFFFFFFFFFFFFFFFFFFFFFFFFFFFFFFFFFFFFFFFFFFFFFFFFFFFFFF NOT AND DUP3 PUSH28 0xFFFFFFFFFFFFFFFFFFFFFFFFFFFFFFFFFFFFFFFFFFFFFFFFFFFFFFFF NOT AND EQ DUP1 PUSH2 0x4D8 JUMPI POP PUSH32 0x1FFC9A700000000000000000000000000000000000000000000000000000000 PUSH28 0xFFFFFFFFFFFFFFFFFFFFFFFFFFFFFFFFFFFFFFFFFFFFFFFFFFFFFFFF NOT AND DUP3 PUSH28 0xFFFFFFFFFFFFFFFFFFFFFFFFFFFFFFFFFFFFFFFFFFFFFFFFFFFFFFFF NOT AND EQ JUMPDEST SWAP1 POP SWAP2 SWAP1 POP JUMP JUMPDEST PUSH1 0x0 DUP1 PUSH20 0xFFFFFFFFFFFFFFFFFFFFFFFFFFFFFFFFFFFFFFFF AND PUSH1 0x0 DUP1 DUP5 DUP2 MSTORE PUSH1 0x20 ADD SWAP1 DUP2 MSTORE PUSH1 0x20 ADD PUSH1 0x0 KECCAK256 PUSH1 0x0 SWAP1 SLOAD SWAP1 PUSH2 0x100 EXP SWAP1 DIV PUSH20 0xFFFFFFFFFFFFFFFFFFFFFFFFFFFFFFFFFFFFFFFF AND PUSH20 0xFFFFFFFFFFFFFFFFFFFFFFFFFFFFFFFFFFFFFFFF AND SUB PUSH2 0x581 JUMPI PUSH1 0x40 MLOAD PUSH32 0x8C379A000000000000000000000000000000000000000000000000000000000 DUP2 MSTORE PUSH1 0x4 ADD PUSH2 0x578 SWAP1 PUSH2 0x2B65 JUMP JUMPDEST PUSH1 0x40 MLOAD DUP1 SWAP2 SUB SWAP1 REVERT JUMPDEST PUSH1 0x2 PUSH1 0x0 DUP4 DUP2 MSTORE PUSH1 0x20 ADD SWAP1 DUP2 MSTORE PUSH1 0x20 ADD PUSH1 0x0 KECCAK256 PUSH1 0x0 SWAP1 SLOAD SWAP1 PUSH2 0x100 EXP SWAP1 DIV PUSH20 0xFFFFFFFFFFFFFFFFFFFFFFFFFFFFFFFFFFFFFFFF AND SWAP1 POP SWAP2 SWAP1 POP JUMP JUMPDEST PUSH1 0x0 DUP1 PUSH1 0x0 DUP4 DUP2 MSTORE PUSH1 0x20 ADD SWAP1 DUP2 MSTORE PUSH1 0x20 ADD PUSH1 0x0 KECCAK256 PUSH1 0x0 SWAP1 SLOAD SWAP1 PUSH2 0x100 EXP SWAP1 DIV PUSH20 0xFFFFFFFFFFFFFFFFFFFFFFFFFFFFFFFFFFFFFFFF AND SWAP1 POP DUP1 PUSH20 0xFFFFFFFFFFFFFFFFFFFFFFFFFFFFFFFFFFFFFFFF AND CALLER PUSH20 0xFFFFFFFFFFFFFFFFFFFFFFFFFFFFFFFFFFFFFFFF AND EQ DUP1 PUSH2 0x6B3 JUMPI POP PUSH1 0x3 PUSH1 0x0 DUP3 PUSH20 0xFFFFFFFFFFFFFFFFFFFFFFFFFFFFFFFFFFFFFFFF AND PUSH20 0xFFFFFFFFFFFFFFFFFFFFFFFFFFFFFFFFFFFFFFFF AND DUP2 MSTORE PUSH1 0x20 ADD SWAP1 DUP2 MSTORE PUSH1 0x20 ADD PUSH1 0x0 KECCAK256 PUSH1 0x0 CALLER PUSH20 0xFFFFFFFFFFFFFFFFFFFFFFFFFFFFFFFFFFFFFFFF AND PUSH20 0xFFFFFFFFFFFFFFFFFFFFFFFFFFFFFFFFFFFFFFFF AND DUP2 MSTORE PUSH1 0x20 ADD SWAP1 DUP2 MSTORE PUSH1 0x20 ADD PUSH1 0x0 KECCAK256 PUSH1 0x0 SWAP1 SLOAD SWAP1 PUSH2 0x100 EXP SWAP1 DIV PUSH1 0xFF AND JUMPDEST PUSH2 0x6F2 JUMPI PUSH1 0x40 MLOAD PUSH32 0x8C379A000000000000000000000000000000000000000000000000000000000 DUP2 MSTORE PUSH1 0x4 ADD PUSH2 0x6E9 SWAP1 PUSH2 0x2BD1 JUMP JUMPDEST PUSH1 0x40 MLOAD DUP1 SWAP2 SUB SWAP1 REVERT JUMPDEST DUP3 PUSH1 0x2 PUSH1 0x0 DUP5 DUP2 MSTORE PUSH1 0x20 ADD SWAP1 DUP2 MSTORE PUSH1 0x20 ADD PUSH1 0x0 KECCAK256 PUSH1 0x0 PUSH2 0x100 EXP DUP2 SLOAD DUP2 PUSH20 0xFFFFFFFFFFFFFFFFFFFFFFFFFFFFFFFFFFFFFFFF MUL NOT AND SWAP1 DUP4 PUSH20 0xFFFFFFFFFFFFFFFFFFFFFFFFFFFFFFFFFFFFFFFF AND MUL OR SWAP1 SSTORE POP DUP2 DUP4 PUSH20 0xFFFFFFFFFFFFFFFFFFFFFFFFFFFFFFFFFFFFFFFF AND DUP3 PUSH20 0xFFFFFFFFFFFFFFFFFFFFFFFFFFFFFFFFFFFFFFFF AND PUSH32 0x8C5BE1E5EBEC7D5BD14F71427D1E84F3DD0314C0F7B2291E5B200AC8C7C3B925 PUSH1 0x40 MLOAD PUSH1 0x40 MLOAD DUP1 SWAP2 SUB SWAP1 LOG4 POP POP POP JUMP JUMPDEST PUSH1 0x0 DUP1 DUP3 DUP2 MSTORE PUSH1 0x20 ADD SWAP1 DUP2 MSTORE PUSH1 0x20 ADD PUSH1 0x0 KECCAK256 PUSH1 0x0 SWAP1 SLOAD SWAP1 PUSH2 0x100 EXP SWAP1 DIV PUSH20 0xFFFFFFFFFFFFFFFFFFFFFFFFFFFFFFFFFFFFFFFF AND PUSH20 0xFFFFFFFFFFFFFFFFFFFFFFFFFFFFFFFFFFFFFFFF AND DUP4 PUSH20 0xFFFFFFFFFFFFFFFFFFFFFFFFFFFFFFFFFFFFFFFF AND EQ PUSH2 0x844 JUMPI PUSH1 0x40 MLOAD PUSH32 0x8C379A000000000000000000000000000000000000000000000000000000000 DUP2 MSTORE PUSH1 0x4 ADD PUSH2 0x83B SWAP1 PUSH2 0x2C3D JUMP JUMPDEST PUSH1 0x40 MLOAD DUP1 SWAP2 SUB SWAP1 REVERT JUMPDEST PUSH1 0x0 PUSH20 0xFFFFFFFFFFFFFFFFFFFFFFFFFFFFFFFFFFFFFFFF AND DUP3 PUSH20 0xFFFFFFFFFFFFFFFFFFFFFFFFFFFFFFFFFFFFFFFF AND SUB PUSH2 0x8B3 JUMPI PUSH1 0x40 MLOAD PUSH32 0x8C379A000000000000000000000000000000000000000000000000000000000 DUP2 MSTORE PUSH1 0x4 ADD PUSH2 0x8AA SWAP1 PUSH2 0x2CA9 JUMP JUMPDEST PUSH1 0x40 MLOAD DUP1 SWAP2 SUB SWAP1 REVERT JUMPDEST PUSH2 0x8BE DUP4 CALLER DUP4 PUSH2 0x18D2 JUMP JUMPDEST PUSH2 0x8FD JUMPI PUSH1 0x40 MLOAD PUSH32 0x8C379A000000000000000000000000000000000000000000000000000000000 DUP2 MSTORE PUSH1 0x4 ADD PUSH2 0x8F4 SWAP1 PUSH2 0x2BD1 JUMP JUMPDEST PUSH1 0x40 MLOAD DUP1 SWAP2 SUB SWAP1 REVERT JUMPDEST PUSH1 0x1 PUSH1 0x0 DUP5 PUSH20 0xFFFFFFFFFFFFFFFFFFFFFFFFFFFFFFFFFFFFFFFF AND PUSH20 0xFFFFFFFFFFFFFFFFFFFFFFFFFFFFFFFFFFFFFFFF AND DUP2 MSTORE PUSH1 0x20 ADD SWAP1 DUP2 MSTORE PUSH1 0x20 ADD PUSH1 0x0 KECCAK256 PUSH1 0x0 DUP2 SLOAD DUP1 SWAP3 SWAP2 SWAP1 PUSH2 0x94D SWAP1 PUSH2 0x2CF8 JUMP JUMPDEST SWAP2 SWAP1 POP SSTORE POP PUSH1 0x1 PUSH1 0x0 DUP4 PUSH20 0xFFFFFFFFFFFFFFFFFFFFFFFFFFFFFFFFFFFFFFFF AND PUSH20 0xFFFFFFFFFFFFFFFFFFFFFFFFFFFFFFFFFFFFFFFF AND DUP2 MSTORE PUSH1 0x20 ADD SWAP1 DUP2 MSTORE PUSH1 0x20 ADD PUSH1 0x0 KECCAK256 PUSH1 0x0 DUP2 SLOAD DUP1 SWAP3 SWAP2 SWAP1 PUSH2 0x9A2 SWAP1 PUSH2 0x2D21 JUMP JUMPDEST SWAP2 SWAP1 POP SSTORE POP DUP2 PUSH1 0x0 DUP1 DUP4 DUP2 MSTORE PUSH1 0x20 ADD SWAP1 DUP2 MSTORE PUSH1 0x20 ADD PUSH1 0x0 KECCAK256 PUSH1 0x0 PUSH2 0x100 EXP DUP2 SLOAD DUP2 PUSH20 0xFFFFFFFFFFFFFFFFFFFFFFFFFFFFFFFFFFFFFFFF MUL NOT AND SWAP1 DUP4 PUSH20 0xFFFFFFFFFFFFFFFFFFFFFFFFFFFFFFFFFFFFFFFF AND MUL OR SWAP1 SSTORE POP PUSH1 0x2 PUSH1 0x0 DUP3 DUP2 MSTORE PUSH1 0x20 ADD SWAP1 DUP2 MSTORE PUSH1 0x20 ADD PUSH1 0x0 KECCAK256 PUSH1 0x0 PUSH2 0x100 EXP DUP2 SLOAD SWAP1 PUSH20 0xFFFFFFFFFFFFFFFFFFFFFFFFFFFFFFFFFFFFFFFF MUL NOT AND SWAP1 SSTORE DUP1 DUP3 PUSH20 0xFFFFFFFFFFFFFFFFFFFFFFFFFFFFFFFFFFFFFFFF AND DUP5 PUSH20 0xFFFFFFFFFFFFFFFFFFFFFFFFFFFFFFFFFFFFFFFF AND PUSH32 0xDDF252AD1BE2C89B69C2B068FC378DAA952BA7F163C4A11628F55A4DF523B3EF PUSH1 0x40 MLOAD PUSH1 0x40 MLOAD DUP1 SWAP2 SUB SWAP1 LOG4 POP POP POP JUMP JUMPDEST PUSH2 0xA99 DUP4 DUP4 DUP4 PUSH2 0x7A4 JUMP JUMPDEST PUSH2 0xAA3 DUP2 DUP5 PUSH2 0x1A06 JUMP JUMPDEST PUSH1 0x8 PUSH1 0x0 DUP4 PUSH20 0xFFFFFFFFFFFFFFFFFFFFFFFFFFFFFFFFFFFFFFFF AND PUSH20 0xFFFFFFFFFFFFFFFFFFFFFFFFFFFFFFFFFFFFFFFF AND DUP2 MSTORE PUSH1 0x20 ADD SWAP1 DUP2 MSTORE PUSH1 0x20 ADD PUSH1 0x0 KECCAK256 DUP2 SWAP1 DUP1 PUSH1 0x1 DUP2 SLOAD ADD DUP1 DUP3 SSTORE DUP1 SWAP2 POP POP PUSH1 0x1 SWAP1 SUB SWAP1 PUSH1 0x0 MSTORE PUSH1 0x20 PUSH1 0x0 KECCAK256 ADD PUSH1 0x0 SWAP1 SWAP2 SWAP1 SWAP2 SWAP1 SWAP2 POP SSTORE PUSH1 0x8 PUSH1 0x0 DUP4 PUSH20 0xFFFFFFFFFFFFFFFFFFFFFFFFFFFFFFFFFFFFFFFF AND PUSH20 0xFFFFFFFFFFFFFFFFFFFFFFFFFFFFFFFFFFFFFFFF AND DUP2 MSTORE PUSH1 0x20 ADD SWAP1 DUP2 MSTORE PUSH1 0x20 ADD PUSH1 0x0 KECCAK256 DUP1 SLOAD SWAP1 POP PUSH1 0x9 PUSH1 0x0 DUP5 PUSH20 0xFFFFFFFFFFFFFFFFFFFFFFFFFFFFFFFFFFFFFFFF AND PUSH20 0xFFFFFFFFFFFFFFFFFFFFFFFFFFFFFFFFFFFFFFFF AND DUP2 MSTORE PUSH1 0x20 ADD SWAP1 DUP2 MSTORE PUSH1 0x20 ADD PUSH1 0x0 KECCAK256 PUSH1 0x0 DUP4 DUP2 MSTORE PUSH1 0x20 ADD SWAP1 DUP2 MSTORE PUSH1 0x20 ADD PUSH1 0x0 KECCAK256 DUP2 SWAP1 SSTORE POP POP POP POP JUMP JUMPDEST PUSH2 0xBB1 DUP3 PUSH1 0x6 SLOAD PUSH2 0x1D40 JUMP JUMPDEST PUSH1 0x8 PUSH1 0x0 DUP4 PUSH20 0xFFFFFFFFFFFFFFFFFFFFFFFFFFFFFFFFFFFFFFFF AND PUSH20 0xFFFFFFFFFFFFFFFFFFFFFFFFFFFFFFFFFFFFFFFF AND DUP2 MSTORE PUSH1 0x20 ADD SWAP1 DUP2 MSTORE PUSH1 0x20 ADD PUSH1 0x0 KECCAK256 PUSH1 0x6 SLOAD SWAP1 DUP1 PUSH1 0x1 DUP2 SLOAD ADD DUP1 DUP3 SSTORE DUP1 SWAP2 POP POP PUSH1 0x1 SWAP1 SUB SWAP1 PUSH1 0x0 MSTORE PUSH1 0x20 PUSH1 0x0 KECCAK256 ADD PUSH1 0x0 SWAP1 SWAP2 SWAP1 SWAP2 SWAP1 SWAP2 POP SSTORE PUSH1 0x8 PUSH1 0x0 DUP4 PUSH20 0xFFFFFFFFFFFFFFFFFFFFFFFFFFFFFFFFFFFFFFFF AND PUSH20 0xFFFFFFFFFFFFFFFFFFFFFFFFFFFFFFFFFFFFFFFF AND DUP2 MSTORE PUSH1 0x20 ADD SWAP1 DUP2 MSTORE PUSH1 0x20 ADD PUSH1 0x0 KECCAK256 DUP1 SLOAD SWAP1 POP PUSH1 0x9 PUSH1 0x0 DUP5 PUSH20 0xFFFFFFFFFFFFFFFFFFFFFFFFFFFFFFFFFFFFFFFF AND PUSH20 0xFFFFFFFFFFFFFFFFFFFFFFFFFFFFFFFFFFFFFFFF AND DUP2 MSTORE PUSH1 0x20 ADD SWAP1 DUP2 MSTORE PUSH1 0x20 ADD PUSH1 0x0 KECCAK256 PUSH1 0x0 PUSH1 0x6 SLOAD DUP2 MSTORE PUSH1 0x20 ADD SWAP1 DUP2 MSTORE PUSH1 0x20 ADD PUSH1 0x0 KECCAK256 DUP2 SWAP1 SSTORE POP PUSH1 0x0 PUSH1 0x7 PUSH1 0x0 PUSH1 0x6 SLOAD DUP2 MSTORE PUSH1 0x20 ADD SWAP1 DUP2 MSTORE PUSH1 0x20 ADD PUSH1 0x0 KECCAK256 SWAP1 POP DUP2 PUSH1 0x0 ADD CALLDATALOAD DUP2 PUSH1 0x0 ADD DUP2 SWAP1 SSTORE POP DUP2 PUSH1 0x20 ADD PUSH1 0x20 DUP2 ADD SWAP1 PUSH2 0xCEB SWAP2 SWAP1 PUSH2 0x24D6 JUMP JUMPDEST DUP2 PUSH1 0x1 ADD PUSH1 0x0 PUSH2 0x100 EXP DUP2 SLOAD DUP2 PUSH20 0xFFFFFFFFFFFFFFFFFFFFFFFFFFFFFFFFFFFFFFFF MUL NOT AND SWAP1 DUP4 PUSH20 0xFFFFFFFFFFFFFFFFFFFFFFFFFFFFFFFFFFFFFFFF AND MUL OR SWAP1 SSTORE POP DUP2 PUSH1 0x40 ADD PUSH1 0x20 DUP2 ADD SWAP1 PUSH2 0xD40 SWAP2 SWAP1 PUSH2 0x24D6 JUMP JUMPDEST DUP2 PUSH1 0x2 ADD PUSH1 0x0 PUSH2 0x100 EXP DUP2 SLOAD DUP2 PUSH20 0xFFFFFFFFFFFFFFFFFFFFFFFFFFFFFFFFFFFFFFFF MUL NOT AND SWAP1 DUP4 PUSH20 0xFFFFFFFFFFFFFFFFFFFFFFFFFFFFFFFFFFFFFFFF AND MUL OR SWAP1 SSTORE POP DUP2 PUSH1 0x60 ADD PUSH1 0x20 DUP2 ADD SWAP1 PUSH2 0xD95 SWAP2 SWAP1 PUSH2 0x24D6 JUMP JUMPDEST DUP2 PUSH1 0x3 ADD PUSH1 0x0 PUSH2 0x100 EXP DUP2 SLOAD DUP2 PUSH20 0xFFFFFFFFFFFFFFFFFFFFFFFFFFFFFFFFFFFFFFFF MUL NOT AND SWAP1 DUP4 PUSH20 0xFFFFFFFFFFFFFFFFFFFFFFFFFFFFFFFFFFFFFFFF AND MUL OR SWAP1 SSTORE POP DUP2 PUSH1 0x80 ADD CALLDATALOAD DUP2 PUSH1 0x4 ADD DUP2 SWAP1 SSTORE POP DUP2 PUSH1 0xA0 ADD CALLDATALOAD DUP2 PUSH1 0x5 ADD DUP2 SWAP1 SSTORE POP DUP2 PUSH1 0xC0 ADD CALLDATALOAD DUP2 PUSH1 0x6 ADD DUP2 SWAP1 SSTORE POP DUP2 PUSH1 0xE0 ADD PUSH1 0x20 DUP2 ADD SWAP1 PUSH2 0xE11 SWAP2 SWAP1 PUSH2 0x2D69 JUMP JUMPDEST DUP2 PUSH1 0x7 ADD PUSH1 0x0 PUSH2 0x100 EXP DUP2 SLOAD DUP2 PUSH20 0xFFFFFFFFFFFFFFFFFFFFFFFFFFFFFFFFFFFFFFFF MUL NOT AND SWAP1 DUP4 PUSH20 0xFFFFFFFFFFFFFFFFFFFFFFFFFFFFFFFFFFFFFFFF AND MUL OR SWAP1 SSTORE POP DUP2 PUSH2 0x100 ADD PUSH1 0x20 DUP2 ADD SWAP1 PUSH2 0xE67 SWAP2 SWAP1 PUSH2 0x2D69 JUMP JUMPDEST DUP2 PUSH1 0x8 ADD PUSH1 0x0 PUSH2 0x100 EXP DUP2 SLOAD DUP2 PUSH20 0xFFFFFFFFFFFFFFFFFFFFFFFFFFFFFFFFFFFFFFFF MUL NOT AND SWAP1 DUP4 PUSH20 0xFFFFFFFFFFFFFFFFFFFFFFFFFFFFFFFFFFFFFFFF AND MUL OR SWAP1 SSTORE POP DUP2 PUSH2 0x120 ADD PUSH1 0x20 DUP2 ADD SWAP1 PUSH2 0xEBD SWAP2 SWAP1 PUSH2 0x2D96 JUMP JUMPDEST DUP2 PUSH1 0x9 ADD PUSH1 0x0 PUSH2 0x100 EXP DUP2 SLOAD DUP2 PUSH16 0xFFFFFFFFFFFFFFFFFFFFFFFFFFFFFFFF MUL NOT AND SWAP1 DUP4 PUSH16 0xFFFFFFFFFFFFFFFFFFFFFFFFFFFFFFFF AND MUL OR SWAP1 SSTORE POP PUSH1 0x6 PUSH1 0x0 DUP2 SLOAD DUP1 SWAP3 SWAP2 SWAP1 PUSH2 0xF0A SWAP1 PUSH2 0x2D21 JUMP JUMPDEST SWAP2 SWAP1 POP SSTORE POP POP POP POP JUMP JUMPDEST PUSH2 0xF1F DUP4 DUP4 DUP4 PUSH2 0x7A4 JUMP JUMPDEST PUSH1 0x0 DUP3 PUSH20 0xFFFFFFFFFFFFFFFFFFFFFFFFFFFFFFFFFFFFFFFF AND EXTCODESIZE EQ DUP1 PUSH2 0x1008 JUMPI POP PUSH4 0x150B7A02 PUSH1 0xE0 SHL PUSH28 0xFFFFFFFFFFFFFFFFFFFFFFFFFFFFFFFFFFFFFFFFFFFFFFFFFFFFFFFF NOT AND DUP3 PUSH20 0xFFFFFFFFFFFFFFFFFFFFFFFFFFFFFFFFFFFFFFFF AND PUSH4 0x150B7A02 CALLER DUP7 DUP6 PUSH1 0x40 MLOAD DUP5 PUSH4 0xFFFFFFFF AND PUSH1 0xE0 SHL DUP2 MSTORE PUSH1 0x4 ADD PUSH2 0xFA4 SWAP4 SWAP3 SWAP2 SWAP1 PUSH2 0x2DFA JUMP JUMPDEST PUSH1 0x20 PUSH1 0x40 MLOAD DUP1 DUP4 SUB DUP2 PUSH1 0x0 DUP8 GAS CALL ISZERO DUP1 ISZERO PUSH2 0xFC3 JUMPI RETURNDATASIZE PUSH1 0x0 DUP1 RETURNDATACOPY RETURNDATASIZE PUSH1 0x0 REVERT JUMPDEST POP POP POP POP PUSH1 0x40 MLOAD RETURNDATASIZE PUSH1 0x1F NOT PUSH1 0x1F DUP3 ADD AND DUP3 ADD DUP1 PUSH1 0x40 MSTORE POP DUP2 ADD SWAP1 PUSH2 0xFE7 SWAP2 SWAP1 PUSH2 0x2E59 JUMP JUMPDEST PUSH28 0xFFFFFFFFFFFFFFFFFFFFFFFFFFFFFFFFFFFFFFFFFFFFFFFFFFFFFFFF NOT AND EQ JUMPDEST PUSH2 0x1047 JUMPI PUSH1 0x40 MLOAD PUSH32 0x8C379A000000000000000000000000000000000000000000000000000000000 DUP2 MSTORE PUSH1 0x4 ADD PUSH2 0x103E SWAP1 PUSH2 0x2ED2 JUMP JUMPDEST PUSH1 0x40 MLOAD DUP1 SWAP2 SUB SWAP1 REVERT JUMPDEST POP POP POP JUMP JUMPDEST PUSH1 0x0 DUP1 PUSH1 0x0 DUP4 DUP2 MSTORE PUSH1 0x20 ADD SWAP1 DUP2 MSTORE PUSH1 0x20 ADD PUSH1 0x0 KECCAK256 PUSH1 0x0 SWAP1 SLOAD SWAP1 PUSH2 0x100 EXP SWAP1 DIV PUSH20 0xFFFFFFFFFFFFFFFFFFFFFFFFFFFFFFFFFFFFFFFF AND SWAP1 POP PUSH1 0x0 PUSH20 0xFFFFFFFFFFFFFFFFFFFFFFFFFFFFFFFFFFFFFFFF AND DUP2 PUSH20 0xFFFFFFFFFFFFFFFFFFFFFFFFFFFFFFFFFFFFFFFF AND SUB PUSH2 0x10F2 JUMPI PUSH1 0x40 MLOAD PUSH32 0x8C379A000000000000000000000000000000000000000000000000000000000 DUP2 MSTORE PUSH1 0x4 ADD PUSH2 0x10E9 SWAP1 PUSH2 0x2F3E JUMP JUMPDEST PUSH1 0x40 MLOAD DUP1 SWAP2 SUB SWAP1 REVERT JUMPDEST SWAP2 SWAP1 POP JUMP JUMPDEST PUSH1 0x0 DUP1 PUSH20 0xFFFFFFFFFFFFFFFFFFFFFFFFFFFFFFFFFFFFFFFF AND DUP3 PUSH20 0xFFFFFFFFFFFFFFFFFFFFFFFFFFFFFFFFFFFFFFFF AND SUB PUSH2 0x1167 JUMPI PUSH1 0x40 MLOAD PUSH32 0x8C379A000000000000000000000000000000000000000000000000000000000 DUP2 MSTORE PUSH1 0x4 ADD PUSH2 0x115E SWAP1 PUSH2 0x2F3E JUMP JUMPDEST PUSH1 0x40 MLOAD DUP1 SWAP2 SUB SWAP1 REVERT JUMPDEST PUSH1 0x1 PUSH1 0x0 DUP4 PUSH20 0xFFFFFFFFFFFFFFFFFFFFFFFFFFFFFFFFFFFFFFFF AND PUSH20 0xFFFFFFFFFFFFFFFFFFFFFFFFFFFFFFFFFFFFFFFF AND DUP2 MSTORE PUSH1 0x20 ADD SWAP1 DUP2 MSTORE PUSH1 0x20 ADD PUSH1 0x0 KECCAK256 SLOAD SWAP1 POP SWAP2 SWAP1 POP JUMP JUMPDEST PUSH1 0x9 PUSH1 0x20 MSTORE DUP2 PUSH1 0x0 MSTORE PUSH1 0x40 PUSH1 0x0 KECCAK256 PUSH1 0x20 MSTORE DUP1 PUSH1 0x0 MSTORE PUSH1 0x40 PUSH1 0x0 KECCAK256 PUSH1 0x0 SWAP2 POP SWAP2 POP POP SLOAD DUP2 JUMP JUMPDEST PUSH1 0x6 SLOAD DUP2 JUMP JUMPDEST PUSH1 0x7 PUSH1 0x20 MSTORE DUP1 PUSH1 0x0 MSTORE PUSH1 0x40 PUSH1 0x0 KECCAK256 PUSH1 0x0 SWAP2 POP SWAP1 POP DUP1 PUSH1 0x0 ADD SLOAD SWAP1 DUP1 PUSH1 0x1 ADD PUSH1 0x0 SWAP1 SLOAD SWAP1 PUSH2 0x100 EXP SWAP1 DIV PUSH20 0xFFFFFFFFFFFFFFFFFFFFFFFFFFFFFFFFFFFFFFFF AND SWAP1 DUP1 PUSH1 0x2 ADD PUSH1 0x0 SWAP1 SLOAD SWAP1 PUSH2 0x100 EXP SWAP1 DIV PUSH20 0xFFFFFFFFFFFFFFFFFFFFFFFFFFFFFFFFFFFFFFFF AND SWAP1 DUP1 PUSH1 0x3 ADD PUSH1 0x0 SWAP1 SLOAD SWAP1 PUSH2 0x100 EXP SWAP1 DIV PUSH20 0xFFFFFFFFFFFFFFFFFFFFFFFFFFFFFFFFFFFFFFFF AND SWAP1 DUP1 PUSH1 0x4 ADD SLOAD SWAP1 DUP1 PUSH1 0x5 ADD SLOAD SWAP1 DUP1 PUSH1 0x6 ADD SLOAD SWAP1 DUP1 PUSH1 0x7 ADD PUSH1 0x0 SWAP1 SLOAD SWAP1 PUSH2 0x100 EXP SWAP1 DIV PUSH20 0xFFFFFFFFFFFFFFFFFFFFFFFFFFFFFFFFFFFFFFFF AND SWAP1 DUP1 PUSH1 0x8 ADD PUSH1 0x0 SWAP1 SLOAD SWAP1 PUSH2 0x100 EXP SWAP1 DIV PUSH20 0xFFFFFFFFFFFFFFFFFFFFFFFFFFFFFFFFFFFFFFFF AND SWAP1 DUP1 PUSH1 0x9 ADD PUSH1 0x0 SWAP1 SLOAD SWAP1 PUSH2 0x100 EXP SWAP1 DIV PUSH16 0xFFFFFFFFFFFFFFFFFFFFFFFFFFFFFFFF AND SWAP1 POP DUP11 JUMP JUMPDEST DUP1 PUSH1 0x3 PUSH1 0x0 CALLER PUSH20 0xFFFFFFFFFFFFFFFFFFFFFFFFFFFFFFFFFFFFFFFF AND PUSH20 0xFFFFFFFFFFFFFFFFFFFFFFFFFFFFFFFFFFFFFFFF AND DUP2 MSTORE PUSH1 0x20 ADD SWAP1 DUP2 MSTORE PUSH1 0x20 ADD PUSH1 0x0 KECCAK256 PUSH1 0x0 DUP5 PUSH20 0xFFFFFFFFFFFFFFFFFFFFFFFFFFFFFFFFFFFFFFFF AND PUSH20 0xFFFFFFFFFFFFFFFFFFFFFFFFFFFFFFFFFFFFFFFF AND DUP2 MSTORE PUSH1 0x20 ADD SWAP1 DUP2 MSTORE PUSH1 0x20 ADD PUSH1 0x0 KECCAK256 PUSH1 0x0 PUSH2 0x100 EXP DUP2 SLOAD DUP2 PUSH1 0xFF MUL NOT AND SWAP1 DUP4 ISZERO ISZERO MUL OR SWAP1 SSTORE POP DUP2 PUSH20 0xFFFFFFFFFFFFFFFFFFFFFFFFFFFFFFFFFFFFFFFF AND CALLER PUSH20 0xFFFFFFFFFFFFFFFFFFFFFFFFFFFFFFFFFFFFFFFF AND PUSH32 0x17307EAB39AB6107E8899845AD3D59BD9653F200F220920489CA2B5937696C31 DUP4 PUSH1 0x40 MLOAD PUSH2 0x13DA SWAP2 SWAP1 PUSH2 0x22D7 JUMP JUMPDEST PUSH1 0x40 MLOAD DUP1 SWAP2 SUB SWAP1 LOG3 POP POP JUMP JUMPDEST PUSH2 0x13F1 DUP6 DUP6 DUP6 PUSH2 0x7A4 JUMP JUMPDEST PUSH1 0x0 DUP5 PUSH20 0xFFFFFFFFFFFFFFFFFFFFFFFFFFFFFFFFFFFFFFFF AND EXTCODESIZE EQ DUP1 PUSH2 0x14DE JUMPI POP PUSH4 0x150B7A02 PUSH1 0xE0 SHL PUSH28 0xFFFFFFFFFFFFFFFFFFFFFFFFFFFFFFFFFFFFFFFFFFFFFFFFFFFFFFFF NOT AND DUP5 PUSH20 0xFFFFFFFFFFFFFFFFFFFFFFFFFFFFFFFFFFFFFFFF AND PUSH4 0x150B7A02 CALLER DUP9 DUP8 DUP8 DUP8 PUSH1 0x40 MLOAD DUP7 PUSH4 0xFFFFFFFF AND PUSH1 0xE0 SHL DUP2 MSTORE PUSH1 0x4 ADD PUSH2 0x147A SWAP6 SWAP5 SWAP4 SWAP3 SWAP2 SWAP1 PUSH2 0x2FAB JUMP JUMPDEST PUSH1 0x20 PUSH1 0x40 MLOAD DUP1 DUP4 SUB DUP2 PUSH1 0x0 DUP8 GAS CALL ISZERO DUP1 ISZERO PUSH2 0x1499 JUMPI RETURNDATASIZE PUSH1 0x0 DUP1 RETURNDATACOPY RETURNDATASIZE PUSH1 0x0 REVERT JUMPDEST POP POP POP POP PUSH1 0x40 MLOAD RETURNDATASIZE PUSH1 0x1F NOT PUSH1 0x1F DUP3 ADD AND DUP3 ADD DUP1 PUSH1 0x40 MSTORE POP DUP2 ADD SWAP1 PUSH2 0x14BD SWAP2 SWAP1 PUSH2 0x2E59 JUMP JUMPDEST PUSH28 0xFFFFFFFFFFFFFFFFFFFFFFFFFFFFFFFFFFFFFFFFFFFFFFFFFFFFFFFF NOT AND EQ JUMPDEST PUSH2 0x151D JUMPI PUSH1 0x40 MLOAD PUSH32 0x8C379A000000000000000000000000000000000000000000000000000000000 DUP2 MSTORE PUSH1 0x4 ADD PUSH2 0x1514 SWAP1 PUSH2 0x2ED2 JUMP JUMPDEST PUSH1 0x40 MLOAD DUP1 SWAP2 SUB SWAP1 REVERT JUMPDEST POP POP POP POP POP JUMP JUMPDEST PUSH1 0x60 PUSH1 0x8 PUSH1 0x0 DUP4 PUSH20 0xFFFFFFFFFFFFFFFFFFFFFFFFFFFFFFFFFFFFFFFF AND PUSH20 0xFFFFFFFFFFFFFFFFFFFFFFFFFFFFFFFFFFFFFFFF AND DUP2 MSTORE PUSH1 0x20 ADD SWAP1 DUP2 MSTORE PUSH1 0x20 ADD PUSH1 0x0 KECCAK256 DUP1 SLOAD DUP1 PUSH1 0x20 MUL PUSH1 0x20 ADD PUSH1 0x40 MLOAD SWAP1 DUP2 ADD PUSH1 0x40 MSTORE DUP1 SWAP3 SWAP2 SWAP1 DUP2 DUP2 MSTORE PUSH1 0x20 ADD DUP3 DUP1 SLOAD DUP1 ISZERO PUSH2 0x15AF JUMPI PUSH1 0x20 MUL DUP3 ADD SWAP2 SWAP1 PUSH1 0x0 MSTORE PUSH1 0x20 PUSH1 0x0 KECCAK256 SWAP1 JUMPDEST DUP2 SLOAD DUP2 MSTORE PUSH1 0x20 ADD SWAP1 PUSH1 0x1 ADD SWAP1 DUP1 DUP4 GT PUSH2 0x159B JUMPI JUMPDEST POP POP POP POP POP SWAP1 POP SWAP2 SWAP1 POP JUMP JUMPDEST PUSH1 0x8 PUSH1 0x20 MSTORE DUP2 PUSH1 0x0 MSTORE PUSH1 0x40 PUSH1 0x0 KECCAK256 DUP2 DUP2 SLOAD DUP2 LT PUSH2 0x15D7 JUMPI PUSH1 0x0 DUP1 REVERT JUMPDEST SWAP1 PUSH1 0x0 MSTORE PUSH1 0x20 PUSH1 0x0 KECCAK256 ADD PUSH1 0x0 SWAP2 POP SWAP2 POP POP SLOAD DUP2 JUMP JUMPDEST PUSH1 0x3 PUSH1 0x20 MSTORE DUP2 PUSH1 0x0 MSTORE PUSH1 0x40 PUSH1 0x0 KECCAK256 PUSH1 0x20 MSTORE DUP1 PUSH1 0x0 MSTORE PUSH1 0x40 PUSH1 0x0 KECCAK256 PUSH1 0x0 SWAP2 POP SWAP2 POP SWAP1 SLOAD SWAP1 PUSH2 0x100 EXP SWAP1 DIV PUSH1 0xFF AND DUP2 JUMP JUMPDEST PUSH1 0x0 DUP1 DUP4 DUP2 MSTORE PUSH1 0x20 ADD SWAP1 DUP2 MSTORE PUSH1 0x20 ADD PUSH1 0x0 KECCAK256 PUSH1 0x0 SWAP1 SLOAD SWAP1 PUSH2 0x100 EXP SWAP1 DIV PUSH20 0xFFFFFFFFFFFFFFFFFFFFFFFFFFFFFFFFFFFFFFFF AND PUSH20 0xFFFFFFFFFFFFFFFFFFFFFFFFFFFFFFFFFFFFFFFF AND DUP2 PUSH20 0xFFFFFFFFFFFFFFFFFFFFFFFFFFFFFFFFFFFFFFFF AND EQ PUSH2 0x16BB JUMPI PUSH1 0x40 MLOAD PUSH32 0x8C379A000000000000000000000000000000000000000000000000000000000 DUP2 MSTORE PUSH1 0x4 ADD PUSH2 0x16B2 SWAP1 PUSH2 0x3045 JUMP JUMPDEST PUSH1 0x40 MLOAD DUP1 SWAP2 SUB SWAP1 REVERT JUMPDEST PUSH2 0x16C4 DUP3 PUSH2 0x1F56 JUMP JUMPDEST PUSH2 0x16CE DUP3 DUP3 PUSH2 0x1A06 JUMP JUMPDEST PUSH1 0x7 PUSH1 0x0 DUP4 DUP2 MSTORE PUSH1 0x20 ADD SWAP1 DUP2 MSTORE PUSH1 0x20 ADD PUSH1 0x0 KECCAK256 PUSH1 0x0 DUP1 DUP3 ADD PUSH1 0x0 SWAP1 SSTORE PUSH1 0x1 DUP3 ADD PUSH1 0x0 PUSH2 0x100 EXP DUP2 SLOAD SWAP1 PUSH20 0xFFFFFFFFFFFFFFFFFFFFFFFFFFFFFFFFFFFFFFFF MUL NOT AND SWAP1 SSTORE PUSH1 0x2 DUP3 ADD PUSH1 0x0 PUSH2 0x100 EXP DUP2 SLOAD SWAP1 PUSH20 0xFFFFFFFFFFFFFFFFFFFFFFFFFFFFFFFFFFFFFFFF MUL NOT AND SWAP1 SSTORE PUSH1 0x3 DUP3 ADD PUSH1 0x0 PUSH2 0x100 EXP DUP2 SLOAD SWAP1 PUSH20 0xFFFFFFFFFFFFFFFFFFFFFFFFFFFFFFFFFFFFFFFF MUL NOT AND SWAP1 SSTORE PUSH1 0x4 DUP3 ADD PUSH1 0x0 SWAP1 SSTORE PUSH1 0x5 DUP3 ADD PUSH1 0x0 SWAP1 SSTORE PUSH1 0x6 DUP3 ADD PUSH1 0x0 SWAP1 SSTORE PUSH1 0x7 DUP3 ADD PUSH1 0x0 PUSH2 0x100 EXP DUP2 SLOAD SWAP1 PUSH20 0xFFFFFFFFFFFFFFFFFFFFFFFFFFFFFFFFFFFFFFFF MUL NOT AND SWAP1 SSTORE PUSH1 0x8 DUP3 ADD PUSH1 0x0 PUSH2 0x100 EXP DUP2 SLOAD SWAP1 PUSH20 0xFFFFFFFFFFFFFFFFFFFFFFFFFFFFFFFFFFFFFFFF MUL NOT AND SWAP1 SSTORE PUSH1 0x9 DUP3 ADD PUSH1 0x0 PUSH2 0x100 EXP DUP2 SLOAD SWAP1 PUSH16 0xFFFFFFFFFFFFFFFFFFFFFFFFFFFFFFFF MUL NOT AND SWAP1 SSTORE POP POP POP POP JUMP JUMPDEST PUSH2 0x17F6 PUSH2 0x211C JUMP JUMPDEST PUSH1 0x0 PUSH1 0x40 MLOAD DUP1 PUSH2 0x140 ADD PUSH1 0x40 MSTORE DUP1 DUP14 DUP2 MSTORE PUSH1 0x20 ADD DUP13 PUSH20 0xFFFFFFFFFFFFFFFFFFFFFFFFFFFFFFFFFFFFFFFF AND DUP2 MSTORE PUSH1 0x20 ADD DUP12 PUSH20 0xFFFFFFFFFFFFFFFFFFFFFFFFFFFFFFFFFFFFFFFF AND DUP2 MSTORE PUSH1 0x20 ADD DUP11 PUSH20 0xFFFFFFFFFFFFFFFFFFFFFFFFFFFFFFFFFFFFFFFF AND DUP2 MSTORE PUSH1 0x20 ADD DUP10 DUP2 MSTORE PUSH1 0x20 ADD DUP9 DUP2 MSTORE PUSH1 0x20 ADD DUP8 DUP2 MSTORE PUSH1 0x20 ADD DUP7 PUSH20 0xFFFFFFFFFFFFFFFFFFFFFFFFFFFFFFFFFFFFFFFF AND DUP2 MSTORE PUSH1 0x20 ADD DUP6 PUSH20 0xFFFFFFFFFFFFFFFFFFFFFFFFFFFFFFFFFFFFFFFF AND DUP2 MSTORE PUSH1 0x20 ADD DUP5 PUSH16 0xFFFFFFFFFFFFFFFFFFFFFFFFFFFFFFFF AND DUP2 MSTORE POP SWAP1 POP DUP1 SWAP2 POP POP SWAP11 SWAP10 POP POP POP POP POP POP POP POP POP POP JUMP JUMPDEST PUSH1 0x0 DUP4 PUSH20 0xFFFFFFFFFFFFFFFFFFFFFFFFFFFFFFFFFFFFFFFF AND DUP4 PUSH20 0xFFFFFFFFFFFFFFFFFFFFFFFFFFFFFFFFFFFFFFFF AND EQ DUP1 PUSH2 0x1994 JUMPI POP PUSH1 0x3 PUSH1 0x0 DUP6 PUSH20 0xFFFFFFFFFFFFFFFFFFFFFFFFFFFFFFFFFFFFFFFF AND PUSH20 0xFFFFFFFFFFFFFFFFFFFFFFFFFFFFFFFFFFFFFFFF AND DUP2 MSTORE PUSH1 0x20 ADD SWAP1 DUP2 MSTORE PUSH1 0x20 ADD PUSH1 0x0 KECCAK256 PUSH1 0x0 DUP5 PUSH20 0xFFFFFFFFFFFFFFFFFFFFFFFFFFFFFFFFFFFFFFFF AND PUSH20 0xFFFFFFFFFFFFFFFFFFFFFFFFFFFFFFFFFFFFFFFF AND DUP2 MSTORE PUSH1 0x20 ADD SWAP1 DUP2 MSTORE PUSH1 0x20 ADD PUSH1 0x0 KECCAK256 PUSH1 0x0 SWAP1 SLOAD SWAP1 PUSH2 0x100 EXP SWAP1 DIV PUSH1 0xFF AND JUMPDEST DUP1 PUSH2 0x19FD JUMPI POP PUSH1 0x2 PUSH1 0x0 DUP4 DUP2 MSTORE PUSH1 0x20 ADD SWAP1 DUP2 MSTORE PUSH1 0x20 ADD PUSH1 0x0 KECCAK256 PUSH1 0x0 SWAP1 SLOAD SWAP1 PUSH2 0x100 EXP SWAP1 DIV PUSH20 0xFFFFFFFFFFFFFFFFFFFFFFFFFFFFFFFFFFFFFFFF AND PUSH20 0xFFFFFFFFFFFFFFFFFFFFFFFFFFFFFFFFFFFFFFFF AND DUP4 PUSH20 0xFFFFFFFFFFFFFFFFFFFFFFFFFFFFFFFFFFFFFFFF AND EQ JUMPDEST SWAP1 POP SWAP4 SWAP3 POP POP POP JUMP JUMPDEST PUSH1 0x0 PUSH1 0x9 PUSH1 0x0 DUP4 PUSH20 0xFFFFFFFFFFFFFFFFFFFFFFFFFFFFFFFFFFFFFFFF AND PUSH20 0xFFFFFFFFFFFFFFFFFFFFFFFFFFFFFFFFFFFFFFFF AND DUP2 MSTORE PUSH1 0x20 ADD SWAP1 DUP2 MSTORE PUSH1 0x20 ADD PUSH1 0x0 KECCAK256 PUSH1 0x0 DUP5 DUP2 MSTORE PUSH1 0x20 ADD SWAP1 DUP2 MSTORE PUSH1 0x20 ADD PUSH1 0x0 KECCAK256 SLOAD SWAP1 POP PUSH1 0x0 PUSH1 0x8 PUSH1 0x0 DUP5 PUSH20 0xFFFFFFFFFFFFFFFFFFFFFFFFFFFFFFFFFFFFFFFF AND PUSH20 0xFFFFFFFFFFFFFFFFFFFFFFFFFFFFFFFFFFFFFFFF AND DUP2 MSTORE PUSH1 0x20 ADD SWAP1 DUP2 MSTORE PUSH1 0x20 ADD PUSH1 0x0 KECCAK256 DUP1 SLOAD SWAP1 POP SWAP1 POP PUSH1 0x1 DUP2 SUB PUSH2 0x1B50 JUMPI PUSH1 0x8 PUSH1 0x0 DUP5 PUSH20 0xFFFFFFFFFFFFFFFFFFFFFFFFFFFFFFFFFFFFFFFF AND PUSH20 0xFFFFFFFFFFFFFFFFFFFFFFFFFFFFFFFFFFFFFFFF AND DUP2 MSTORE PUSH1 0x20 ADD SWAP1 DUP2 MSTORE PUSH1 0x20 ADD PUSH1 0x0 KECCAK256 PUSH1 0x0 PUSH2 0x1AF5 SWAP2 SWAP1 PUSH2 0x21EF JUMP JUMPDEST PUSH1 0x0 PUSH1 0x9 PUSH1 0x0 DUP6 PUSH20 0xFFFFFFFFFFFFFFFFFFFFFFFFFFFFFFFFFFFFFFFF AND PUSH20 0xFFFFFFFFFFFFFFFFFFFFFFFFFFFFFFFFFFFFFFFF AND DUP2 MSTORE PUSH1 0x20 ADD SWAP1 DUP2 MSTORE PUSH1 0x20 ADD PUSH1 0x0 KECCAK256 PUSH1 0x0 DUP7 DUP2 MSTORE PUSH1 0x20 ADD SWAP1 DUP2 MSTORE PUSH1 0x20 ADD PUSH1 0x0 KECCAK256 DUP2 SWAP1 SSTORE POP PUSH2 0x1D3A JUMP JUMPDEST PUSH1 0x0 PUSH1 0x8 PUSH1 0x0 DUP6 PUSH20 0xFFFFFFFFFFFFFFFFFFFFFFFFFFFFFFFFFFFFFFFF AND PUSH20 0xFFFFFFFFFFFFFFFFFFFFFFFFFFFFFFFFFFFFFFFF AND DUP2 MSTORE PUSH1 0x20 ADD SWAP1 DUP2 MSTORE PUSH1 0x20 ADD PUSH1 0x0 KECCAK256 PUSH1 0x1 DUP4 PUSH2 0x1B9E SWAP2 SWAP1 PUSH2 0x3065 JUMP JUMPDEST DUP2 SLOAD DUP2 LT PUSH2 0x1BAF JUMPI PUSH2 0x1BAE PUSH2 0x3099 JUMP JUMPDEST JUMPDEST SWAP1 PUSH1 0x0 MSTORE PUSH1 0x20 PUSH1 0x0 KECCAK256 ADD SLOAD SWAP1 POP DUP1 PUSH1 0x8 PUSH1 0x0 DUP7 PUSH20 0xFFFFFFFFFFFFFFFFFFFFFFFFFFFFFFFFFFFFFFFF AND PUSH20 0xFFFFFFFFFFFFFFFFFFFFFFFFFFFFFFFFFFFFFFFF AND DUP2 MSTORE PUSH1 0x20 ADD SWAP1 DUP2 MSTORE PUSH1 0x20 ADD PUSH1 0x0 KECCAK256 PUSH1 0x1 DUP6 PUSH2 0x1C09 SWAP2 SWAP1 PUSH2 0x3065 JUMP JUMPDEST DUP2 SLOAD DUP2 LT PUSH2 0x1C1A JUMPI PUSH2 0x1C19 PUSH2 0x3099 JUMP JUMPDEST JUMPDEST SWAP1 PUSH1 0x0 MSTORE PUSH1 0x20 PUSH1 0x0 KECCAK256 ADD DUP2 SWAP1 SSTORE POP PUSH1 0x8 PUSH1 0x0 DUP6 PUSH20 0xFFFFFFFFFFFFFFFFFFFFFFFFFFFFFFFFFFFFFFFF AND PUSH20 0xFFFFFFFFFFFFFFFFFFFFFFFFFFFFFFFFFFFFFFFF AND DUP2 MSTORE PUSH1 0x20 ADD SWAP1 DUP2 MSTORE PUSH1 0x20 ADD PUSH1 0x0 KECCAK256 DUP1 SLOAD DUP1 PUSH2 0x1C77 JUMPI PUSH2 0x1C76 PUSH2 0x30C8 JUMP JUMPDEST JUMPDEST PUSH1 0x1 SWAP1 SUB DUP2 DUP2 SWAP1 PUSH1 0x0 MSTORE PUSH1 0x20 PUSH1 0x0 KECCAK256 ADD PUSH1 0x0 SWAP1 SSTORE SWAP1 SSTORE DUP3 PUSH1 0x9 PUSH1 0x0 DUP7 PUSH20 0xFFFFFFFFFFFFFFFFFFFFFFFFFFFFFFFFFFFFFFFF AND PUSH20 0xFFFFFFFFFFFFFFFFFFFFFFFFFFFFFFFFFFFFFFFF AND DUP2 MSTORE PUSH1 0x20 ADD SWAP1 DUP2 MSTORE PUSH1 0x20 ADD PUSH1 0x0 KECCAK256 PUSH1 0x0 DUP4 DUP2 MSTORE PUSH1 0x20 ADD SWAP1 DUP2 MSTORE PUSH1 0x20 ADD PUSH1 0x0 KECCAK256 DUP2 SWAP1 SSTORE POP PUSH1 0x0 PUSH1 0x9 PUSH1 0x0 DUP7 PUSH20 0xFFFFFFFFFFFFFFFFFFFFFFFFFFFFFFFFFFFFFFFF AND PUSH20 0xFFFFFFFFFFFFFFFFFFFFFFFFFFFFFFFFFFFFFFFF AND DUP2 MSTORE PUSH1 0x20 ADD SWAP1 DUP2 MSTORE PUSH1 0x20 ADD PUSH1 0x0 KECCAK256 PUSH1 0x0 DUP8 DUP2 MSTORE PUSH1 0x20 ADD SWAP1 DUP2 MSTORE PUSH1 0x20 ADD PUSH1 0x0 KECCAK256 DUP2 SWAP1 SSTORE POP POP JUMPDEST POP POP POP POP JUMP JUMPDEST PUSH1 0x0 PUSH20 0xFFFFFFFFFFFFFFFFFFFFFFFFFFFFFFFFFFFFFFFF AND DUP3 PUSH20 0xFFFFFFFFFFFFFFFFFFFFFFFFFFFFFFFFFFFFFFFF AND SUB PUSH2 0x1DAF JUMPI PUSH1 0x40 MLOAD PUSH32 0x8C379A000000000000000000000000000000000000000000000000000000000 DUP2 MSTORE PUSH1 0x4 ADD PUSH2 0x1DA6 SWAP1 PUSH2 0x2CA9 JUMP JUMPDEST PUSH1 0x40 MLOAD DUP1 SWAP2 SUB SWAP1 REVERT JUMPDEST PUSH1 0x0 PUSH20 0xFFFFFFFFFFFFFFFFFFFFFFFFFFFFFFFFFFFFFFFF AND PUSH1 0x0 DUP1 DUP4 DUP2 MSTORE PUSH1 0x20 ADD SWAP1 DUP2 MSTORE PUSH1 0x20 ADD PUSH1 0x0 KECCAK256 PUSH1 0x0 SWAP1 SLOAD SWAP1 PUSH2 0x100 EXP SWAP1 DIV PUSH20 0xFFFFFFFFFFFFFFFFFFFFFFFFFFFFFFFFFFFFFFFF AND PUSH20 0xFFFFFFFFFFFFFFFFFFFFFFFFFFFFFFFFFFFFFFFF AND EQ PUSH2 0x1E50 JUMPI PUSH1 0x40 MLOAD PUSH32 0x8C379A000000000000000000000000000000000000000000000000000000000 DUP2 MSTORE PUSH1 0x4 ADD PUSH2 0x1E47 SWAP1 PUSH2 0x3143 JUMP JUMPDEST PUSH1 0x40 MLOAD DUP1 SWAP2 SUB SWAP1 REVERT JUMPDEST PUSH1 0x1 PUSH1 0x0 DUP4 PUSH20 0xFFFFFFFFFFFFFFFFFFFFFFFFFFFFFFFFFFFFFFFF AND PUSH20 0xFFFFFFFFFFFFFFFFFFFFFFFFFFFFFFFFFFFFFFFF AND DUP2 MSTORE PUSH1 0x20 ADD SWAP1 DUP2 MSTORE PUSH1 0x20 ADD PUSH1 0x0 KECCAK256 PUSH1 0x0 DUP2 SLOAD DUP1 SWAP3 SWAP2 SWAP1 PUSH2 0x1EA0 SWAP1 PUSH2 0x2D21 JUMP JUMPDEST SWAP2 SWAP1 POP SSTORE POP DUP2 PUSH1 0x0 DUP1 DUP4 DUP2 MSTORE PUSH1 0x20 ADD SWAP1 DUP2 MSTORE PUSH1 0x20 ADD PUSH1 0x0 KECCAK256 PUSH1 0x0 PUSH2 0x100 EXP DUP2 SLOAD DUP2 PUSH20 0xFFFFFFFFFFFFFFFFFFFFFFFFFFFFFFFFFFFFFFFF MUL NOT AND SWAP1 DUP4 PUSH20 0xFFFFFFFFFFFFFFFFFFFFFFFFFFFFFFFFFFFFFFFF AND MUL OR SWAP1 SSTORE POP DUP1 DUP3 PUSH20 0xFFFFFFFFFFFFFFFFFFFFFFFFFFFFFFFFFFFFFFFF AND PUSH1 0x0 PUSH20 0xFFFFFFFFFFFFFFFFFFFFFFFFFFFFFFFFFFFFFFFF AND PUSH32 0xDDF252AD1BE2C89B69C2B068FC378DAA952BA7F163C4A11628F55A4DF523B3EF PUSH1 0x40 MLOAD PUSH1 0x40 MLOAD DUP1 SWAP2 SUB SWAP1 LOG4 POP POP JUMP JUMPDEST PUSH1 0x0 DUP1 PUSH1 0x0 DUP4 DUP2 MSTORE PUSH1 0x20 ADD SWAP1 DUP2 MSTORE PUSH1 0x20 ADD PUSH1 0x0 KECCAK256 PUSH1 0x0 SWAP1 SLOAD SWAP1 PUSH2 0x100 EXP SWAP1 DIV PUSH20 0xFFFFFFFFFFFFFFFFFFFFFFFFFFFFFFFFFFFFFFFF AND SWAP1 POP PUSH1 0x0 PUSH20 0xFFFFFFFFFFFFFFFFFFFFFFFFFFFFFFFFFFFFFFFF AND DUP2 PUSH20 0xFFFFFFFFFFFFFFFFFFFFFFFFFFFFFFFFFFFFFFFF AND SUB PUSH2 0x1FFC JUMPI PUSH1 0x40 MLOAD PUSH32 0x8C379A000000000000000000000000000000000000000000000000000000000 DUP2 MSTORE PUSH1 0x4 ADD PUSH2 0x1FF3 SWAP1 PUSH2 0x31AF JUMP JUMPDEST PUSH1 0x40 MLOAD DUP1 SWAP2 SUB SWAP1 REVERT JUMPDEST PUSH1 0x1 PUSH1 0x0 DUP3 PUSH20 0xFFFFFFFFFFFFFFFFFFFFFFFFFFFFFFFFFFFFFFFF AND PUSH20 0xFFFFFFFFFFFFFFFFFFFFFFFFFFFFFFFFFFFFFFFF AND DUP2 MSTORE PUSH1 0x20 ADD SWAP1 DUP2 MSTORE PUSH1 0x20 ADD PUSH1 0x0 KECCAK256 PUSH1 0x0 DUP2 SLOAD DUP1 SWAP3 SWAP2 SWAP1 PUSH2 0x204C SWAP1 PUSH2 0x2CF8 JUMP JUMPDEST SWAP2 SWAP1 POP SSTORE POP PUSH1 0x0 DUP1 DUP4 DUP2 MSTORE PUSH1 0x20 ADD SWAP1 DUP2 MSTORE PUSH1 0x20 ADD PUSH1 0x0 KECCAK256 PUSH1 0x0 PUSH2 0x100 EXP DUP2 SLOAD SWAP1 PUSH20 0xFFFFFFFFFFFFFFFFFFFFFFFFFFFFFFFFFFFFFFFF MUL NOT AND SWAP1 SSTORE PUSH1 0x2 PUSH1 0x0 DUP4 DUP2 MSTORE PUSH1 0x20 ADD SWAP1 DUP2 MSTORE PUSH1 0x20 ADD PUSH1 0x0 KECCAK256 PUSH1 0x0 PUSH2 0x100 EXP DUP2 SLOAD SWAP1 PUSH20 0xFFFFFFFFFFFFFFFFFFFFFFFFFFFFFFFFFFFFFFFF MUL NOT AND SWAP1 SSTORE DUP2 PUSH1 0x0 PUSH20 0xFFFFFFFFFFFFFFFFFFFFFFFFFFFFFFFFFFFFFFFF AND DUP3 PUSH20 0xFFFFFFFFFFFFFFFFFFFFFFFFFFFFFFFFFFFFFFFF AND PUSH32 0xDDF252AD1BE2C89B69C2B068FC378DAA952BA7F163C4A11628F55A4DF523B3EF PUSH1 0x40 MLOAD PUSH1 0x40 MLOAD DUP1 SWAP2 SUB SWAP1 LOG4 POP POP JUMP JUMPDEST PUSH1 0x40 MLOAD DUP1 PUSH2 0x140 ADD PUSH1 0x40 MSTORE DUP1 PUSH1 0x0 DUP2 MSTORE PUSH1 0x20 ADD PUSH1 0x0 PUSH20 0xFFFFFFFFFFFFFFFFFFFFFFFFFFFFFFFFFFFFFFFF AND DUP2 MSTORE PUSH1 0x20 ADD PUSH1 0x0 PUSH20 0xFFFFFFFFFFFFFFFFFFFFFFFFFFFFFFFFFFFFFFFF AND DUP2 MSTORE PUSH1 0x20 ADD PUSH1 0x0 PUSH20 0xFFFFFFFFFFFFFFFFFFFFFFFFFFFFFFFFFFFFFFFF AND DUP2 MSTORE PUSH1 0x20 ADD PUSH1 0x0 DUP2 MSTORE PUSH1 0x20 ADD PUSH1 0x0 DUP2 MSTORE PUSH1 0x20 ADD PUSH1 0x0 DUP2 MSTORE PUSH1 0x20 ADD PUSH1 0x0 PUSH20 0xFFFFFFFFFFFFFFFFFFFFFFFFFFFFFFFFFFFFFFFF AND DUP2 MSTORE PUSH1 0x20 ADD PUSH1 0x0 PUSH20 0xFFFFFFFFFFFFFFFFFFFFFFFFFFFFFFFFFFFFFFFF AND DUP2 MSTORE PUSH1 0x20 ADD PUSH1 0x0 PUSH16 0xFFFFFFFFFFFFFFFFFFFFFFFFFFFFFFFF AND DUP2 MSTORE POP SWAP1 JUMP JUMPDEST POP DUP1 SLOAD PUSH1 0x0 DUP3 SSTORE SWAP1 PUSH1 0x0 MSTORE PUSH1 0x20 PUSH1 0x0 KECCAK256 SWAP1 DUP2 ADD SWAP1 PUSH2 0x220D SWAP2 SWAP1 PUSH2 0x2210 JUMP JUMPDEST POP JUMP JUMPDEST JUMPDEST DUP1 DUP3 GT ISZERO PUSH2 0x2229 JUMPI PUSH1 0x0 DUP2 PUSH1 0x0 SWAP1 SSTORE POP PUSH1 0x1 ADD PUSH2 0x2211 JUMP JUMPDEST POP SWAP1 JUMP JUMPDEST PUSH1 0x0 DUP1 REVERT JUMPDEST PUSH1 0x0 DUP1 REVERT JUMPDEST PUSH1 0x0 PUSH32 0xFFFFFFFF00000000000000000000000000000000000000000000000000000000 DUP3 AND SWAP1 POP SWAP2 SWAP1 POP JUMP JUMPDEST PUSH2 0x226C DUP2 PUSH2 0x2237 JUMP JUMPDEST DUP2 EQ PUSH2 0x2277 JUMPI PUSH1 0x0 DUP1 REVERT JUMPDEST POP JUMP JUMPDEST PUSH1 0x0 DUP2 CALLDATALOAD SWAP1 POP PUSH2 0x2289 DUP2 PUSH2 0x2263 JUMP JUMPDEST SWAP3 SWAP2 POP POP JUMP JUMPDEST PUSH1 0x0 PUSH1 0x20 DUP3 DUP5 SUB SLT ISZERO PUSH2 0x22A5 JUMPI PUSH2 0x22A4 PUSH2 0x222D JUMP JUMPDEST JUMPDEST PUSH1 0x0 PUSH2 0x22B3 DUP5 DUP3 DUP6 ADD PUSH2 0x227A JUMP JUMPDEST SWAP2 POP POP SWAP3 SWAP2 POP POP JUMP JUMPDEST PUSH1 0x0 DUP2 ISZERO ISZERO SWAP1 POP SWAP2 SWAP1 POP JUMP JUMPDEST PUSH2 0x22D1 DUP2 PUSH2 0x22BC JUMP JUMPDEST DUP3 MSTORE POP POP JUMP JUMPDEST PUSH1 0x0 PUSH1 0x20 DUP3 ADD SWAP1 POP PUSH2 0x22EC PUSH1 0x0 DUP4 ADD DUP5 PUSH2 0x22C8 JUMP JUMPDEST SWAP3 SWAP2 POP POP JUMP JUMPDEST PUSH1 0x0 DUP2 SWAP1 POP SWAP2 SWAP1 POP JUMP JUMPDEST PUSH2 0x2305 DUP2 PUSH2 0x22F2 JUMP JUMPDEST DUP2 EQ PUSH2 0x2310 JUMPI PUSH1 0x0 DUP1 REVERT JUMPDEST POP JUMP JUMPDEST PUSH1 0x0 DUP2 CALLDATALOAD SWAP1 POP PUSH2 0x2322 DUP2 PUSH2 0x22FC JUMP JUMPDEST SWAP3 SWAP2 POP POP JUMP JUMPDEST PUSH1 0x0 PUSH1 0x20 DUP3 DUP5 SUB SLT ISZERO PUSH2 0x233E JUMPI PUSH2 0x233D PUSH2 0x222D JUMP JUMPDEST JUMPDEST PUSH1 0x0 PUSH2 0x234C DUP5 DUP3 DUP6 ADD PUSH2 0x2313 JUMP JUMPDEST SWAP2 POP POP SWAP3 SWAP2 POP POP JUMP JUMPDEST PUSH1 0x0 PUSH20 0xFFFFFFFFFFFFFFFFFFFFFFFFFFFFFFFFFFFFFFFF DUP3 AND SWAP1 POP SWAP2 SWAP1 POP JUMP JUMPDEST PUSH1 0x0 PUSH2 0x2380 DUP3 PUSH2 0x2355 JUMP JUMPDEST SWAP1 POP SWAP2 SWAP1 POP JUMP JUMPDEST PUSH2 0x2390 DUP2 PUSH2 0x2375 JUMP JUMPDEST DUP3 MSTORE POP POP JUMP JUMPDEST PUSH1 0x0 PUSH1 0x20 DUP3 ADD SWAP1 POP PUSH2 0x23AB PUSH1 0x0 DUP4 ADD DUP5 PUSH2 0x2387 JUMP JUMPDEST SWAP3 SWAP2 POP POP JUMP JUMPDEST PUSH2 0x23BA DUP2 PUSH2 0x2375 JUMP JUMPDEST DUP2 EQ PUSH2 0x23C5 JUMPI PUSH1 0x0 DUP1 REVERT JUMPDEST POP JUMP JUMPDEST PUSH1 0x0 DUP2 CALLDATALOAD SWAP1 POP PUSH2 0x23D7 DUP2 PUSH2 0x23B1 JUMP JUMPDEST SWAP3 SWAP2 POP POP JUMP JUMPDEST PUSH1 0x0 DUP1 PUSH1 0x40 DUP4 DUP6 SUB SLT ISZERO PUSH2 0x23F4 JUMPI PUSH2 0x23F3 PUSH2 0x222D JUMP JUMPDEST JUMPDEST PUSH1 0x0 PUSH2 0x2402 DUP6 DUP3 DUP7 ADD PUSH2 0x23C8 JUMP JUMPDEST SWAP3 POP POP PUSH1 0x20 PUSH2 0x2413 DUP6 DUP3 DUP7 ADD PUSH2 0x2313 JUMP JUMPDEST SWAP2 POP POP SWAP3 POP SWAP3 SWAP1 POP JUMP JUMPDEST PUSH1 0x0 DUP1 PUSH1 0x0 PUSH1 0x60 DUP5 DUP7 SUB SLT ISZERO PUSH2 0x2436 JUMPI PUSH2 0x2435 PUSH2 0x222D JUMP JUMPDEST JUMPDEST PUSH1 0x0 PUSH2 0x2444 DUP7 DUP3 DUP8 ADD PUSH2 0x23C8 JUMP JUMPDEST SWAP4 POP POP PUSH1 0x20 PUSH2 0x2455 DUP7 DUP3 DUP8 ADD PUSH2 0x23C8 JUMP JUMPDEST SWAP3 POP POP PUSH1 0x40 PUSH2 0x2466 DUP7 DUP3 DUP8 ADD PUSH2 0x2313 JUMP JUMPDEST SWAP2 POP POP SWAP3 POP SWAP3 POP SWAP3 JUMP JUMPDEST PUSH1 0x0 DUP1 REVERT JUMPDEST PUSH1 0x0 PUSH2 0x140 DUP3 DUP5 SUB SLT ISZERO PUSH2 0x248C JUMPI PUSH2 0x248B PUSH2 0x2470 JUMP JUMPDEST JUMPDEST DUP2 SWAP1 POP SWAP3 SWAP2 POP POP JUMP JUMPDEST PUSH1 0x0 DUP1 PUSH2 0x160 DUP4 DUP6 SUB SLT ISZERO PUSH2 0x24AD JUMPI PUSH2 0x24AC PUSH2 0x222D JUMP JUMPDEST JUMPDEST PUSH1 0x0 PUSH2 0x24BB DUP6 DUP3 DUP7 ADD PUSH2 0x23C8 JUMP JUMPDEST SWAP3 POP POP PUSH1 0x20 PUSH2 0x24CC DUP6 DUP3 DUP7 ADD PUSH2 0x2475 JUMP JUMPDEST SWAP2 POP POP SWAP3 POP SWAP3 SWAP1 POP JUMP JUMPDEST PUSH1 0x0 PUSH1 0x20 DUP3 DUP5 SUB SLT ISZERO PUSH2 0x24EC JUMPI PUSH2 0x24EB PUSH2 0x222D JUMP JUMPDEST JUMPDEST PUSH1 0x0 PUSH2 0x24FA DUP5 DUP3 DUP6 ADD PUSH2 0x23C8 JUMP JUMPDEST SWAP2 POP POP SWAP3 SWAP2 POP POP JUMP JUMPDEST PUSH2 0x250C DUP2 PUSH2 0x22F2 JUMP JUMPDEST DUP3 MSTORE POP POP JUMP JUMPDEST PUSH1 0x0 PUSH1 0x20 DUP3 ADD SWAP1 POP PUSH2 0x2527 PUSH1 0x0 DUP4 ADD DUP5 PUSH2 0x2503 JUMP JUMPDEST SWAP3 SWAP2 POP POP JUMP JUMPDEST PUSH2 0x2536 DUP2 PUSH2 0x2355 JUMP JUMPDEST DUP3 MSTORE POP POP JUMP JUMPDEST PUSH1 0x0 PUSH16 0xFFFFFFFFFFFFFFFFFFFFFFFFFFFFFFFF DUP3 AND SWAP1 POP SWAP2 SWAP1 POP JUMP JUMPDEST PUSH2 0x2561 DUP2 PUSH2 0x253C JUMP JUMPDEST DUP3 MSTORE POP POP JUMP JUMPDEST PUSH1 0x0 PUSH2 0x140 DUP3 ADD SWAP1 POP PUSH2 0x257D PUSH1 0x0 DUP4 ADD DUP14 PUSH2 0x2503 JUMP JUMPDEST PUSH2 0x258A PUSH1 0x20 DUP4 ADD DUP13 PUSH2 0x2387 JUMP JUMPDEST PUSH2 0x2597 PUSH1 0x40 DUP4 ADD DUP12 PUSH2 0x2387 JUMP JUMPDEST PUSH2 0x25A4 PUSH1 0x60 DUP4 ADD DUP11 PUSH2 0x2387 JUMP JUMPDEST PUSH2 0x25B1 PUSH1 0x80 DUP4 ADD DUP10 PUSH2 0x2503 JUMP JUMPDEST PUSH2 0x25BE PUSH1 0xA0 DUP4 ADD DUP9 PUSH2 0x2503 JUMP JUMPDEST PUSH2 0x25CB PUSH1 0xC0 DUP4 ADD DUP8 PUSH2 0x2503 JUMP JUMPDEST PUSH2 0x25D8 PUSH1 0xE0 DUP4 ADD DUP7 PUSH2 0x252D JUMP JUMPDEST PUSH2 0x25E6 PUSH2 0x100 DUP4 ADD DUP6 PUSH2 0x252D JUMP JUMPDEST PUSH2 0x25F4 PUSH2 0x120 DUP4 ADD DUP5 PUSH2 0x2558 JUMP JUMPDEST SWAP12 SWAP11 POP POP POP POP POP POP POP POP POP POP POP JUMP JUMPDEST PUSH2 0x260C DUP2 PUSH2 0x22BC JUMP JUMPDEST DUP2 EQ PUSH2 0x2617 JUMPI PUSH1 0x0 DUP1 REVERT JUMPDEST POP JUMP JUMPDEST PUSH1 0x0 DUP2 CALLDATALOAD SWAP1 POP PUSH2 0x2629 DUP2 PUSH2 0x2603 JUMP JUMPDEST SWAP3 SWAP2 POP POP JUMP JUMPDEST PUSH1 0x0 DUP1 PUSH1 0x40 DUP4 DUP6 SUB SLT ISZERO PUSH2 0x2646 JUMPI PUSH2 0x2645 PUSH2 0x222D JUMP JUMPDEST JUMPDEST PUSH1 0x0 PUSH2 0x2654 DUP6 DUP3 DUP7 ADD PUSH2 0x23C8 JUMP JUMPDEST SWAP3 POP POP PUSH1 0x20 PUSH2 0x2665 DUP6 DUP3 DUP7 ADD PUSH2 0x261A JUMP JUMPDEST SWAP2 POP POP SWAP3 POP SWAP3 SWAP1 POP JUMP JUMPDEST PUSH1 0x0 DUP1 REVERT JUMPDEST PUSH1 0x0 DUP1 REVERT JUMPDEST PUSH1 0x0 DUP1 REVERT JUMPDEST PUSH1 0x0 DUP1 DUP4 PUSH1 0x1F DUP5 ADD SLT PUSH2 0x2694 JUMPI PUSH2 0x2693 PUSH2 0x266F JUMP JUMPDEST JUMPDEST DUP3 CALLDATALOAD SWAP1 POP PUSH8 0xFFFFFFFFFFFFFFFF DUP2 GT ISZERO PUSH2 0x26B1 JUMPI PUSH2 0x26B0 PUSH2 0x2674 JUMP JUMPDEST JUMPDEST PUSH1 0x20 DUP4 ADD SWAP2 POP DUP4 PUSH1 0x1 DUP3 MUL DUP4 ADD GT ISZERO PUSH2 0x26CD JUMPI PUSH2 0x26CC PUSH2 0x2679 JUMP JUMPDEST JUMPDEST SWAP3 POP SWAP3 SWAP1 POP JUMP JUMPDEST PUSH1 0x0 DUP1 PUSH1 0x0 DUP1 PUSH1 0x0 PUSH1 0x80 DUP7 DUP9 SUB SLT ISZERO PUSH2 0x26F0 JUMPI PUSH2 0x26EF PUSH2 0x222D JUMP JUMPDEST JUMPDEST PUSH1 0x0 PUSH2 0x26FE DUP9 DUP3 DUP10 ADD PUSH2 0x23C8 JUMP JUMPDEST SWAP6 POP POP PUSH1 0x20 PUSH2 0x270F DUP9 DUP3 DUP10 ADD PUSH2 0x23C8 JUMP JUMPDEST SWAP5 POP POP PUSH1 0x40 PUSH2 0x2720 DUP9 DUP3 DUP10 ADD PUSH2 0x2313 JUMP JUMPDEST SWAP4 POP POP PUSH1 0x60 DUP7 ADD CALLDATALOAD PUSH8 0xFFFFFFFFFFFFFFFF DUP2 GT ISZERO PUSH2 0x2741 JUMPI PUSH2 0x2740 PUSH2 0x2232 JUMP JUMPDEST JUMPDEST PUSH2 0x274D DUP9 DUP3 DUP10 ADD PUSH2 0x267E JUMP JUMPDEST SWAP3 POP SWAP3 POP POP SWAP3 SWAP6 POP SWAP3 SWAP6 SWAP1 SWAP4 POP JUMP JUMPDEST PUSH1 0x0 DUP2 MLOAD SWAP1 POP SWAP2 SWAP1 POP JUMP JUMPDEST PUSH1 0x0 DUP3 DUP3 MSTORE PUSH1 0x20 DUP3 ADD SWAP1 POP SWAP3 SWAP2 POP POP JUMP JUMPDEST PUSH1 0x0 DUP2 SWAP1 POP PUSH1 0x20 DUP3 ADD SWAP1 POP SWAP2 SWAP1 POP JUMP JUMPDEST PUSH2 0x2791 DUP2 PUSH2 0x22F2 JUMP JUMPDEST DUP3 MSTORE POP POP JUMP JUMPDEST PUSH1 0x0 PUSH2 0x27A3 DUP4 DUP4 PUSH2 0x2788 JUMP JUMPDEST PUSH1 0x20 DUP4 ADD SWAP1 POP SWAP3 SWAP2 POP POP JUMP JUMPDEST PUSH1 0x0 PUSH1 0x20 DUP3 ADD SWAP1 POP SWAP2 SWAP1 POP JUMP JUMPDEST PUSH1 0x0 PUSH2 0x27C7 DUP3 PUSH2 0x275C JUMP JUMPDEST PUSH2 0x27D1 DUP2 DUP6 PUSH2 0x2767 JUMP JUMPDEST SWAP4 POP PUSH2 0x27DC DUP4 PUSH2 0x2778 JUMP JUMPDEST DUP1 PUSH1 0x0 JUMPDEST DUP4 DUP2 LT ISZERO PUSH2 0x280D JUMPI DUP2 MLOAD PUSH2 0x27F4 DUP9 DUP3 PUSH2 0x2797 JUMP JUMPDEST SWAP8 POP PUSH2 0x27FF DUP4 PUSH2 0x27AF JUMP JUMPDEST SWAP3 POP POP PUSH1 0x1 DUP2 ADD SWAP1 POP PUSH2 0x27E0 JUMP JUMPDEST POP DUP6 SWAP4 POP POP POP POP SWAP3 SWAP2 POP POP JUMP JUMPDEST PUSH1 0x0 PUSH1 0x20 DUP3 ADD SWAP1 POP DUP2 DUP2 SUB PUSH1 0x0 DUP4 ADD MSTORE PUSH2 0x2834 DUP2 DUP5 PUSH2 0x27BC JUMP JUMPDEST SWAP1 POP SWAP3 SWAP2 POP POP JUMP JUMPDEST PUSH1 0x0 DUP1 PUSH1 0x40 DUP4 DUP6 SUB SLT ISZERO PUSH2 0x2853 JUMPI PUSH2 0x2852 PUSH2 0x222D JUMP JUMPDEST JUMPDEST PUSH1 0x0 PUSH2 0x2861 DUP6 DUP3 DUP7 ADD PUSH2 0x23C8 JUMP JUMPDEST SWAP3 POP POP PUSH1 0x20 PUSH2 0x2872 DUP6 DUP3 DUP7 ADD PUSH2 0x23C8 JUMP JUMPDEST SWAP2 POP POP SWAP3 POP SWAP3 SWAP1 POP JUMP JUMPDEST PUSH1 0x0 DUP1 PUSH1 0x40 DUP4 DUP6 SUB SLT ISZERO PUSH2 0x2893 JUMPI PUSH2 0x2892 PUSH2 0x222D JUMP JUMPDEST JUMPDEST PUSH1 0x0 PUSH2 0x28A1 DUP6 DUP3 DUP7 ADD PUSH2 0x2313 JUMP JUMPDEST SWAP3 POP POP PUSH1 0x20 PUSH2 0x28B2 DUP6 DUP3 DUP7 ADD PUSH2 0x23C8 JUMP JUMPDEST SWAP2 POP POP SWAP3 POP SWAP3 SWAP1 POP JUMP JUMPDEST PUSH2 0x28C5 DUP2 PUSH2 0x2355 JUMP JUMPDEST DUP2 EQ PUSH2 0x28D0 JUMPI PUSH1 0x0 DUP1 REVERT JUMPDEST POP JUMP JUMPDEST PUSH1 0x0 DUP2 CALLDATALOAD SWAP1 POP PUSH2 0x28E2 DUP2 PUSH2 0x28BC JUMP JUMPDEST SWAP3 SWAP2 POP POP JUMP JUMPDEST PUSH2 0x28F1 DUP2 PUSH2 0x253C JUMP JUMPDEST DUP2 EQ PUSH2 0x28FC JUMPI PUSH1 0x0 DUP1 REVERT JUMPDEST POP JUMP JUMPDEST PUSH1 0x0 DUP2 CALLDATALOAD SWAP1 POP PUSH2 0x290E DUP2 PUSH2 0x28E8 JUMP JUMPDEST SWAP3 SWAP2 POP POP JUMP JUMPDEST PUSH1 0x0 DUP1 PUSH1 0x0 DUP1 PUSH1 0x0 DUP1 PUSH1 0x0 DUP1 PUSH1 0x0 DUP1 PUSH2 0x140 DUP12 DUP14 SUB SLT ISZERO PUSH2 0x2938 JUMPI PUSH2 0x2937 PUSH2 0x222D JUMP JUMPDEST JUMPDEST PUSH1 0x0 PUSH2 0x2946 DUP14 DUP3 DUP15 ADD PUSH2 0x2313 JUMP JUMPDEST SWAP11 POP POP PUSH1 0x20 PUSH2 0x2957 DUP14 DUP3 DUP15 ADD PUSH2 0x23C8 JUMP JUMPDEST SWAP10 POP POP PUSH1 0x40 PUSH2 0x2968 DUP14 DUP3 DUP15 ADD PUSH2 0x23C8 JUMP JUMPDEST SWAP9 POP POP PUSH1 0x60 PUSH2 0x2979 DUP14 DUP3 DUP15 ADD PUSH2 0x23C8 JUMP JUMPDEST SWAP8 POP POP PUSH1 0x80 PUSH2 0x298A DUP14 DUP3 DUP15 ADD PUSH2 0x2313 JUMP JUMPDEST SWAP7 POP POP PUSH1 0xA0 PUSH2 0x299B DUP14 DUP3 DUP15 ADD PUSH2 0x2313 JUMP JUMPDEST SWAP6 POP POP PUSH1 0xC0 PUSH2 0x29AC DUP14 DUP3 DUP15 ADD PUSH2 0x2313 JUMP JUMPDEST SWAP5 POP POP PUSH1 0xE0 PUSH2 0x29BD DUP14 DUP3 DUP15 ADD PUSH2 0x28D3 JUMP JUMPDEST SWAP4 POP POP PUSH2 0x100 PUSH2 0x29CF DUP14 DUP3 DUP15 ADD PUSH2 0x28D3 JUMP JUMPDEST SWAP3 POP POP PUSH2 0x120 PUSH2 0x29E1 DUP14 DUP3 DUP15 ADD PUSH2 0x28FF JUMP JUMPDEST SWAP2 POP POP SWAP3 SWAP6 SWAP9 SWAP12 SWAP2 SWAP5 SWAP8 SWAP11 POP SWAP3 SWAP6 SWAP9 POP JUMP JUMPDEST PUSH2 0x29FC DUP2 PUSH2 0x2375 JUMP JUMPDEST DUP3 MSTORE POP POP JUMP JUMPDEST PUSH2 0x2A0B DUP2 PUSH2 0x2355 JUMP JUMPDEST DUP3 MSTORE POP POP JUMP JUMPDEST PUSH2 0x2A1A DUP2 PUSH2 0x253C JUMP JUMPDEST DUP3 MSTORE POP POP JUMP JUMPDEST PUSH2 0x140 DUP3 ADD PUSH1 0x0 DUP3 ADD MLOAD PUSH2 0x2A37 PUSH1 0x0 DUP6 ADD DUP3 PUSH2 0x2788 JUMP JUMPDEST POP PUSH1 0x20 DUP3 ADD MLOAD PUSH2 0x2A4A PUSH1 0x20 DUP6 ADD DUP3 PUSH2 0x29F3 JUMP JUMPDEST POP PUSH1 0x40 DUP3 ADD MLOAD PUSH2 0x2A5D PUSH1 0x40 DUP6 ADD DUP3 PUSH2 0x29F3 JUMP JUMPDEST POP PUSH1 0x60 DUP3 ADD MLOAD PUSH2 0x2A70 PUSH1 0x60 DUP6 ADD DUP3 PUSH2 0x29F3 JUMP JUMPDEST POP PUSH1 0x80 DUP3 ADD MLOAD PUSH2 0x2A83 PUSH1 0x80 DUP6 ADD DUP3 PUSH2 0x2788 JUMP JUMPDEST POP PUSH1 0xA0 DUP3 ADD MLOAD PUSH2 0x2A96 PUSH1 0xA0 DUP6 ADD DUP3 PUSH2 0x2788 JUMP JUMPDEST POP PUSH1 0xC0 DUP3 ADD MLOAD PUSH2 0x2AA9 PUSH1 0xC0 DUP6 ADD DUP3 PUSH2 0x2788 JUMP JUMPDEST POP PUSH1 0xE0 DUP3 ADD MLOAD PUSH2 0x2ABC PUSH1 0xE0 DUP6 ADD DUP3 PUSH2 0x2A02 JUMP JUMPDEST POP PUSH2 0x100 DUP3 ADD MLOAD PUSH2 0x2AD1 PUSH2 0x100 DUP6 ADD DUP3 PUSH2 0x2A02 JUMP JUMPDEST POP PUSH2 0x120 DUP3 ADD MLOAD PUSH2 0x2AE6 PUSH2 0x120 DUP6 ADD DUP3 PUSH2 0x2A11 JUMP JUMPDEST POP POP POP POP JUMP JUMPDEST PUSH1 0x0 PUSH2 0x140 DUP3 ADD SWAP1 POP PUSH2 0x2B02 PUSH1 0x0 DUP4 ADD DUP5 PUSH2 0x2A20 JUMP JUMPDEST SWAP3 SWAP2 POP POP JUMP JUMPDEST PUSH1 0x0 DUP3 DUP3 MSTORE PUSH1 0x20 DUP3 ADD SWAP1 POP SWAP3 SWAP2 POP POP JUMP JUMPDEST PUSH32 0x746F6B656E20646F657327742065786974730000000000000000000000000000 PUSH1 0x0 DUP3 ADD MSTORE POP JUMP JUMPDEST PUSH1 0x0 PUSH2 0x2B4F PUSH1 0x12 DUP4 PUSH2 0x2B08 JUMP JUMPDEST SWAP2 POP PUSH2 0x2B5A DUP3 PUSH2 0x2B19 JUMP JUMPDEST PUSH1 0x20 DUP3 ADD SWAP1 POP SWAP2 SWAP1 POP JUMP JUMPDEST PUSH1 0x0 PUSH1 0x20 DUP3 ADD SWAP1 POP DUP2 DUP2 SUB PUSH1 0x0 DUP4 ADD MSTORE PUSH2 0x2B7E DUP2 PUSH2 0x2B42 JUMP JUMPDEST SWAP1 POP SWAP2 SWAP1 POP JUMP JUMPDEST PUSH32 0x6E6F7420617574686F72697A6564000000000000000000000000000000000000 PUSH1 0x0 DUP3 ADD MSTORE POP JUMP JUMPDEST PUSH1 0x0 PUSH2 0x2BBB PUSH1 0xE DUP4 PUSH2 0x2B08 JUMP JUMPDEST SWAP2 POP PUSH2 0x2BC6 DUP3 PUSH2 0x2B85 JUMP JUMPDEST PUSH1 0x20 DUP3 ADD SWAP1 POP SWAP2 SWAP1 POP JUMP JUMPDEST PUSH1 0x0 PUSH1 0x20 DUP3 ADD SWAP1 POP DUP2 DUP2 SUB PUSH1 0x0 DUP4 ADD MSTORE PUSH2 0x2BEA DUP2 PUSH2 0x2BAE JUMP JUMPDEST SWAP1 POP SWAP2 SWAP1 POP JUMP JUMPDEST PUSH32 0x66726F6D20213D206F776E657200000000000000000000000000000000000000 PUSH1 0x0 DUP3 ADD MSTORE POP JUMP JUMPDEST PUSH1 0x0 PUSH2 0x2C27 PUSH1 0xD DUP4 PUSH2 0x2B08 JUMP JUMPDEST SWAP2 POP PUSH2 0x2C32 DUP3 PUSH2 0x2BF1 JUMP JUMPDEST PUSH1 0x20 DUP3 ADD SWAP1 POP SWAP2 SWAP1 POP JUMP JUMPDEST PUSH1 0x0 PUSH1 0x20 DUP3 ADD SWAP1 POP DUP2 DUP2 SUB PUSH1 0x0 DUP4 ADD MSTORE PUSH2 0x2C56 DUP2 PUSH2 0x2C1A JUMP JUMPDEST SWAP1 POP SWAP2 SWAP1 POP JUMP JUMPDEST PUSH32 0x746F203D207A65726F2061646472657373000000000000000000000000000000 PUSH1 0x0 DUP3 ADD MSTORE POP JUMP JUMPDEST PUSH1 0x0 PUSH2 0x2C93 PUSH1 0x11 DUP4 PUSH2 0x2B08 JUMP JUMPDEST SWAP2 POP PUSH2 0x2C9E DUP3 PUSH2 0x2C5D JUMP JUMPDEST PUSH1 0x20 DUP3 ADD SWAP1 POP SWAP2 SWAP1 POP JUMP JUMPDEST PUSH1 0x0 PUSH1 0x20 DUP3 ADD SWAP1 POP DUP2 DUP2 SUB PUSH1 0x0 DUP4 ADD MSTORE PUSH2 0x2CC2 DUP2 PUSH2 0x2C86 JUMP JUMPDEST SWAP1 POP SWAP2 SWAP1 POP JUMP JUMPDEST PUSH32 0x4E487B7100000000000000000000000000000000000000000000000000000000 PUSH1 0x0 MSTORE PUSH1 0x11 PUSH1 0x4 MSTORE PUSH1 0x24 PUSH1 0x0 REVERT JUMPDEST PUSH1 0x0 PUSH2 0x2D03 DUP3 PUSH2 0x22F2 JUMP JUMPDEST SWAP2 POP PUSH1 0x0 DUP3 SUB PUSH2 0x2D16 JUMPI PUSH2 0x2D15 PUSH2 0x2CC9 JUMP JUMPDEST JUMPDEST PUSH1 0x1 DUP3 SUB SWAP1 POP SWAP2 SWAP1 POP JUMP JUMPDEST PUSH1 0x0 PUSH2 0x2D2C DUP3 PUSH2 0x22F2 JUMP JUMPDEST SWAP2 POP PUSH32 0xFFFFFFFFFFFFFFFFFFFFFFFFFFFFFFFFFFFFFFFFFFFFFFFFFFFFFFFFFFFFFFFF DUP3 SUB PUSH2 0x2D5E JUMPI PUSH2 0x2D5D PUSH2 0x2CC9 JUMP JUMPDEST JUMPDEST PUSH1 0x1 DUP3 ADD SWAP1 POP SWAP2 SWAP1 POP JUMP JUMPDEST PUSH1 0x0 PUSH1 0x20 DUP3 DUP5 SUB SLT ISZERO PUSH2 0x2D7F JUMPI PUSH2 0x2D7E PUSH2 0x222D JUMP JUMPDEST JUMPDEST PUSH1 0x0 PUSH2 0x2D8D DUP5 DUP3 DUP6 ADD PUSH2 0x28D3 JUMP JUMPDEST SWAP2 POP POP SWAP3 SWAP2 POP POP JUMP JUMPDEST PUSH1 0x0 PUSH1 0x20 DUP3 DUP5 SUB SLT ISZERO PUSH2 0x2DAC JUMPI PUSH2 0x2DAB PUSH2 0x222D JUMP JUMPDEST JUMPDEST PUSH1 0x0 PUSH2 0x2DBA DUP5 DUP3 DUP6 ADD PUSH2 0x28FF JUMP JUMPDEST SWAP2 POP POP SWAP3 SWAP2 POP POP JUMP JUMPDEST PUSH1 0x0 DUP3 DUP3 MSTORE PUSH1 0x20 DUP3 ADD SWAP1 POP SWAP3 SWAP2 POP POP JUMP JUMPDEST POP JUMP JUMPDEST PUSH1 0x0 PUSH2 0x2DE4 PUSH1 0x0 DUP4 PUSH2 0x2DC3 JUMP JUMPDEST SWAP2 POP PUSH2 0x2DEF DUP3 PUSH2 0x2DD4 JUMP JUMPDEST PUSH1 0x0 DUP3 ADD SWAP1 POP SWAP2 SWAP1 POP JUMP JUMPDEST PUSH1 0x0 PUSH1 0x80 DUP3 ADD SWAP1 POP PUSH2 0x2E0F PUSH1 0x0 DUP4 ADD DUP7 PUSH2 0x2387 JUMP JUMPDEST PUSH2 0x2E1C PUSH1 0x20 DUP4 ADD DUP6 PUSH2 0x2387 JUMP JUMPDEST PUSH2 0x2E29 PUSH1 0x40 DUP4 ADD DUP5 PUSH2 0x2503 JUMP JUMPDEST DUP2 DUP2 SUB PUSH1 0x60 DUP4 ADD MSTORE PUSH2 0x2E3A DUP2 PUSH2 0x2DD7 JUMP JUMPDEST SWAP1 POP SWAP5 SWAP4 POP POP POP POP JUMP JUMPDEST PUSH1 0x0 DUP2 MLOAD SWAP1 POP PUSH2 0x2E53 DUP2 PUSH2 0x2263 JUMP JUMPDEST SWAP3 SWAP2 POP POP JUMP JUMPDEST PUSH1 0x0 PUSH1 0x20 DUP3 DUP5 SUB SLT ISZERO PUSH2 0x2E6F JUMPI PUSH2 0x2E6E PUSH2 0x222D JUMP JUMPDEST JUMPDEST PUSH1 0x0 PUSH2 0x2E7D DUP5 DUP3 DUP6 ADD PUSH2 0x2E44 JUMP JUMPDEST SWAP2 POP POP SWAP3 SWAP2 POP POP JUMP JUMPDEST PUSH32 0x756E7361666520726563697069656E7400000000000000000000000000000000 PUSH1 0x0 DUP3 ADD MSTORE POP JUMP JUMPDEST PUSH1 0x0 PUSH2 0x2EBC PUSH1 0x10 DUP4 PUSH2 0x2B08 JUMP JUMPDEST SWAP2 POP PUSH2 0x2EC7 DUP3 PUSH2 0x2E86 JUMP JUMPDEST PUSH1 0x20 DUP3 ADD SWAP1 POP SWAP2 SWAP1 POP JUMP JUMPDEST PUSH1 0x0 PUSH1 0x20 DUP3 ADD SWAP1 POP DUP2 DUP2 SUB PUSH1 0x0 DUP4 ADD MSTORE PUSH2 0x2EEB DUP2 PUSH2 0x2EAF JUMP JUMPDEST SWAP1 POP SWAP2 SWAP1 POP JUMP JUMPDEST PUSH32 0x6F776E6572203D207A65726F2061646472657373000000000000000000000000 PUSH1 0x0 DUP3 ADD MSTORE POP JUMP JUMPDEST PUSH1 0x0 PUSH2 0x2F28 PUSH1 0x14 DUP4 PUSH2 0x2B08 JUMP JUMPDEST SWAP2 POP PUSH2 0x2F33 DUP3 PUSH2 0x2EF2 JUMP JUMPDEST PUSH1 0x20 DUP3 ADD SWAP1 POP SWAP2 SWAP1 POP JUMP JUMPDEST PUSH1 0x0 PUSH1 0x20 DUP3 ADD SWAP1 POP DUP2 DUP2 SUB PUSH1 0x0 DUP4 ADD MSTORE PUSH2 0x2F57 DUP2 PUSH2 0x2F1B JUMP JUMPDEST SWAP1 POP SWAP2 SWAP1 POP JUMP JUMPDEST DUP3 DUP2 DUP4 CALLDATACOPY PUSH1 0x0 DUP4 DUP4 ADD MSTORE POP POP POP JUMP JUMPDEST PUSH1 0x0 PUSH1 0x1F NOT PUSH1 0x1F DUP4 ADD AND SWAP1 POP SWAP2 SWAP1 POP JUMP JUMPDEST PUSH1 0x0 PUSH2 0x2F8A DUP4 DUP6 PUSH2 0x2DC3 JUMP JUMPDEST SWAP4 POP PUSH2 0x2F97 DUP4 DUP6 DUP5 PUSH2 0x2F5E JUMP JUMPDEST PUSH2 0x2FA0 DUP4 PUSH2 0x2F6D JUMP JUMPDEST DUP5 ADD SWAP1 POP SWAP4 SWAP3 POP POP POP JUMP JUMPDEST PUSH1 0x0 PUSH1 0x80 DUP3 ADD SWAP1 POP PUSH2 0x2FC0 PUSH1 0x0 DUP4 ADD DUP9 PUSH2 0x2387 JUMP JUMPDEST PUSH2 0x2FCD PUSH1 0x20 DUP4 ADD DUP8 PUSH2 0x2387 JUMP JUMPDEST PUSH2 0x2FDA PUSH1 0x40 DUP4 ADD DUP7 PUSH2 0x2503 JUMP JUMPDEST DUP2 DUP2 SUB PUSH1 0x60 DUP4 ADD MSTORE PUSH2 0x2FED DUP2 DUP5 DUP7 PUSH2 0x2F7E JUMP JUMPDEST SWAP1 POP SWAP7 SWAP6 POP POP POP POP POP POP JUMP JUMPDEST PUSH32 0x6E6F74204F776E65720000000000000000000000000000000000000000000000 PUSH1 0x0 DUP3 ADD MSTORE POP JUMP JUMPDEST PUSH1 0x0 PUSH2 0x302F PUSH1 0x9 DUP4 PUSH2 0x2B08 JUMP JUMPDEST SWAP2 POP PUSH2 0x303A DUP3 PUSH2 0x2FF9 JUMP JUMPDEST PUSH1 0x20 DUP3 ADD SWAP1 POP SWAP2 SWAP1 POP JUMP JUMPDEST PUSH1 0x0 PUSH1 0x20 DUP3 ADD SWAP1 POP DUP2 DUP2 SUB PUSH1 0x0 DUP4 ADD MSTORE PUSH2 0x305E DUP2 PUSH2 0x3022 JUMP JUMPDEST SWAP1 POP SWAP2 SWAP1 POP JUMP JUMPDEST PUSH1 0x0 PUSH2 0x3070 DUP3 PUSH2 0x22F2 JUMP JUMPDEST SWAP2 POP PUSH2 0x307B DUP4 PUSH2 0x22F2 JUMP JUMPDEST SWAP3 POP DUP3 DUP3 SUB SWAP1 POP DUP2 DUP2 GT ISZERO PUSH2 0x3093 JUMPI PUSH2 0x3092 PUSH2 0x2CC9 JUMP JUMPDEST JUMPDEST SWAP3 SWAP2 POP POP JUMP JUMPDEST PUSH32 0x4E487B7100000000000000000000000000000000000000000000000000000000 PUSH1 0x0 MSTORE PUSH1 0x32 PUSH1 0x4 MSTORE PUSH1 0x24 PUSH1 0x0 REVERT JUMPDEST PUSH32 0x4E487B7100000000000000000000000000000000000000000000000000000000 PUSH1 0x0 MSTORE PUSH1 0x31 PUSH1 0x4 MSTORE PUSH1 0x24 PUSH1 0x0 REVERT JUMPDEST PUSH32 0x746F6B656E206578697374730000000000000000000000000000000000000000 PUSH1 0x0 DUP3 ADD MSTORE POP JUMP JUMPDEST PUSH1 0x0 PUSH2 0x312D PUSH1 0xC DUP4 PUSH2 0x2B08 JUMP JUMPDEST SWAP2 POP PUSH2 0x3138 DUP3 PUSH2 0x30F7 JUMP JUMPDEST PUSH1 0x20 DUP3 ADD SWAP1 POP SWAP2 SWAP1 POP JUMP JUMPDEST PUSH1 0x0 PUSH1 0x20 DUP3 ADD SWAP1 POP DUP2 DUP2 SUB PUSH1 0x0 DUP4 ADD MSTORE PUSH2 0x315C DUP2 PUSH2 0x3120 JUMP JUMPDEST SWAP1 POP SWAP2 SWAP1 POP JUMP JUMPDEST PUSH32 0x746F6B656E20646F6573206E6F74206578697473000000000000000000000000 PUSH1 0x0 DUP3 ADD MSTORE POP JUMP JUMPDEST PUSH1 0x0 PUSH2 0x3199 PUSH1 0x14 DUP4 PUSH2 0x2B08 JUMP JUMPDEST SWAP2 POP PUSH2 0x31A4 DUP3 PUSH2 0x3163 JUMP JUMPDEST PUSH1 0x20 DUP3 ADD SWAP1 POP SWAP2 SWAP1 POP JUMP JUMPDEST PUSH1 0x0 PUSH1 0x20 DUP3 ADD SWAP1 POP DUP2 DUP2 SUB PUSH1 0x0 DUP4 ADD MSTORE PUSH2 0x31C8 DUP2 PUSH2 0x318C JUMP JUMPDEST SWAP1 POP SWAP2 SWAP1 POP JUMP INVALID LOG2 PUSH5 0x6970667358 0x22 SLT KECCAK256 DUP5 PREVRANDAO ADD ORIGIN XOR NUMBER SWAP14 LOG0 0xAF 0xEE DUP11 0xC6 0xA8 SAR MOD PUSH30 0x56BBD15CD456AB23B7AA260110A0395F64736F6C63430008120033000000 "
				},
				"gasEstimates": {
					"creation": {
						"codeDepositCost": "2561000",
						"executionCost": "infinite",
						"totalCost": "infinite"
					},
					"external": {
						"approve(address,uint256)": "31562",
						"balanceOf(address)": "2987",
						"burnPosition(uint256,address)": "infinite",
						"getApproved(uint256)": "5160",
						"getOwnerNFT(address)": "infinite",
						"indexOfOwnerNFT(address,uint256)": "infinite",
						"isApprovalForAll(address,address)": "infinite",
						"mintParams(uint256,address,address,address,uint256,uint256,uint256,uint160,uint160,uint128)": "infinite",
						"mintPosition(address,(uint256,address,address,address,uint256,uint256,uint256,uint160,uint160,uint128))": "infinite",
						"ownerNFT(address,uint256)": "infinite",
						"ownerOf(uint256)": "3042",
						"positions(uint256)": "infinite",
						"safeTransferFrom(address,address,uint256)": "infinite",
						"safeTransferFrom(address,address,uint256,bytes)": "infinite",
						"setApprovalForAll(address,bool)": "infinite",
						"supportsInterface(bytes4)": "708",
						"tokenIdNext()": "2474",
						"transferFrom(address,address,uint256)": "infinite",
						"transferPosition(address,address,uint256)": "infinite"
					},
					"internal": {
						"_removeFromArray(uint256,address)": "infinite"
					}
				},
				"methodIdentifiers": {
					"approve(address,uint256)": "095ea7b3",
					"balanceOf(address)": "70a08231",
					"burnPosition(uint256,address)": "ec828722",
					"getApproved(uint256)": "081812fc",
					"getOwnerNFT(address)": "d942dc94",
					"indexOfOwnerNFT(address,uint256)": "7fcda073",
					"isApprovalForAll(address,address)": "ebd1d359",
					"mintParams(uint256,address,address,address,uint256,uint256,uint256,uint160,uint160,uint128)": "f94be2cb",
					"mintPosition(address,(uint256,address,address,address,uint256,uint256,uint256,uint160,uint160,uint128))": "389c89b3",
					"ownerNFT(address,uint256)": "deeb79a3",
					"ownerOf(uint256)": "6352211e",
					"positions(uint256)": "99fbab88",
					"safeTransferFrom(address,address,uint256)": "42842e0e",
					"safeTransferFrom(address,address,uint256,bytes)": "b88d4fde",
					"setApprovalForAll(address,bool)": "a22cb465",
					"supportsInterface(bytes4)": "01ffc9a7",
					"tokenIdNext()": "8bbf58b3",
					"transferFrom(address,address,uint256)": "23b872dd",
					"transferPosition(address,address,uint256)": "26908fa1"
				}
			},
			"storageLayout": {
				"storage": [
					{
						"astId": 178,
						"contract": "LmPool Ver3.0/TVNNFTPositionManager.sol:TVNNFTPositionManager",
						"label": "_ownerOf",
						"offset": 0,
						"slot": "0",
						"type": "t_mapping(t_uint256,t_address)"
					},
					{
						"astId": 182,
						"contract": "LmPool Ver3.0/TVNNFTPositionManager.sol:TVNNFTPositionManager",
						"label": "_balanceOf",
						"offset": 0,
						"slot": "1",
						"type": "t_mapping(t_address,t_uint256)"
					},
					{
						"astId": 186,
						"contract": "LmPool Ver3.0/TVNNFTPositionManager.sol:TVNNFTPositionManager",
						"label": "_approvals",
						"offset": 0,
						"slot": "2",
						"type": "t_mapping(t_uint256,t_address)"
					},
					{
						"astId": 192,
						"contract": "LmPool Ver3.0/TVNNFTPositionManager.sol:TVNNFTPositionManager",
						"label": "isApprovalForAll",
						"offset": 0,
						"slot": "3",
						"type": "t_mapping(t_address,t_mapping(t_address,t_bool))"
					},
					{
						"astId": 713,
						"contract": "LmPool Ver3.0/TVNNFTPositionManager.sol:TVNNFTPositionManager",
						"label": "name",
						"offset": 0,
						"slot": "4",
						"type": "t_string_storage"
					},
					{
						"astId": 715,
						"contract": "LmPool Ver3.0/TVNNFTPositionManager.sol:TVNNFTPositionManager",
						"label": "symbol",
						"offset": 0,
						"slot": "5",
						"type": "t_string_storage"
					},
					{
						"astId": 718,
						"contract": "LmPool Ver3.0/TVNNFTPositionManager.sol:TVNNFTPositionManager",
						"label": "tokenIdNext",
						"offset": 0,
						"slot": "6",
						"type": "t_uint256"
					},
					{
						"astId": 744,
						"contract": "LmPool Ver3.0/TVNNFTPositionManager.sol:TVNNFTPositionManager",
						"label": "positions",
						"offset": 0,
						"slot": "7",
						"type": "t_mapping(t_uint256,t_struct(PositionInfo)739_storage)"
					},
					{
						"astId": 749,
						"contract": "LmPool Ver3.0/TVNNFTPositionManager.sol:TVNNFTPositionManager",
						"label": "ownerNFT",
						"offset": 0,
						"slot": "8",
						"type": "t_mapping(t_address,t_array(t_uint256)dyn_storage)"
					},
					{
						"astId": 755,
						"contract": "LmPool Ver3.0/TVNNFTPositionManager.sol:TVNNFTPositionManager",
						"label": "indexOfOwnerNFT",
						"offset": 0,
						"slot": "9",
						"type": "t_mapping(t_address,t_mapping(t_uint256,t_uint256))"
					}
				],
				"types": {
					"t_address": {
						"encoding": "inplace",
						"label": "address",
						"numberOfBytes": "20"
					},
					"t_array(t_uint256)dyn_storage": {
						"base": "t_uint256",
						"encoding": "dynamic_array",
						"label": "uint256[]",
						"numberOfBytes": "32"
					},
					"t_bool": {
						"encoding": "inplace",
						"label": "bool",
						"numberOfBytes": "1"
					},
					"t_mapping(t_address,t_array(t_uint256)dyn_storage)": {
						"encoding": "mapping",
						"key": "t_address",
						"label": "mapping(address => uint256[])",
						"numberOfBytes": "32",
						"value": "t_array(t_uint256)dyn_storage"
					},
					"t_mapping(t_address,t_bool)": {
						"encoding": "mapping",
						"key": "t_address",
						"label": "mapping(address => bool)",
						"numberOfBytes": "32",
						"value": "t_bool"
					},
					"t_mapping(t_address,t_mapping(t_address,t_bool))": {
						"encoding": "mapping",
						"key": "t_address",
						"label": "mapping(address => mapping(address => bool))",
						"numberOfBytes": "32",
						"value": "t_mapping(t_address,t_bool)"
					},
					"t_mapping(t_address,t_mapping(t_uint256,t_uint256))": {
						"encoding": "mapping",
						"key": "t_address",
						"label": "mapping(address => mapping(uint256 => uint256))",
						"numberOfBytes": "32",
						"value": "t_mapping(t_uint256,t_uint256)"
					},
					"t_mapping(t_address,t_uint256)": {
						"encoding": "mapping",
						"key": "t_address",
						"label": "mapping(address => uint256)",
						"numberOfBytes": "32",
						"value": "t_uint256"
					},
					"t_mapping(t_uint256,t_address)": {
						"encoding": "mapping",
						"key": "t_uint256",
						"label": "mapping(uint256 => address)",
						"numberOfBytes": "32",
						"value": "t_address"
					},
					"t_mapping(t_uint256,t_struct(PositionInfo)739_storage)": {
						"encoding": "mapping",
						"key": "t_uint256",
						"label": "mapping(uint256 => struct TVNNFTPositionManager.PositionInfo)",
						"numberOfBytes": "32",
						"value": "t_struct(PositionInfo)739_storage"
					},
					"t_mapping(t_uint256,t_uint256)": {
						"encoding": "mapping",
						"key": "t_uint256",
						"label": "mapping(uint256 => uint256)",
						"numberOfBytes": "32",
						"value": "t_uint256"
					},
					"t_string_storage": {
						"encoding": "bytes",
						"label": "string",
						"numberOfBytes": "32"
					},
					"t_struct(PositionInfo)739_storage": {
						"encoding": "inplace",
						"label": "struct TVNNFTPositionManager.PositionInfo",
						"members": [
							{
								"astId": 720,
								"contract": "LmPool Ver3.0/TVNNFTPositionManager.sol:TVNNFTPositionManager",
								"label": "shares",
								"offset": 0,
								"slot": "0",
								"type": "t_uint256"
							},
							{
								"astId": 722,
								"contract": "LmPool Ver3.0/TVNNFTPositionManager.sol:TVNNFTPositionManager",
								"label": "owner",
								"offset": 0,
								"slot": "1",
								"type": "t_address"
							},
							{
								"astId": 724,
								"contract": "LmPool Ver3.0/TVNNFTPositionManager.sol:TVNNFTPositionManager",
								"label": "token0",
								"offset": 0,
								"slot": "2",
								"type": "t_address"
							},
							{
								"astId": 726,
								"contract": "LmPool Ver3.0/TVNNFTPositionManager.sol:TVNNFTPositionManager",
								"label": "token1",
								"offset": 0,
								"slot": "3",
								"type": "t_address"
							},
							{
								"astId": 728,
								"contract": "LmPool Ver3.0/TVNNFTPositionManager.sol:TVNNFTPositionManager",
								"label": "fee",
								"offset": 0,
								"slot": "4",
								"type": "t_uint256"
							},
							{
								"astId": 730,
								"contract": "LmPool Ver3.0/TVNNFTPositionManager.sol:TVNNFTPositionManager",
								"label": "amount0",
								"offset": 0,
								"slot": "5",
								"type": "t_uint256"
							},
							{
								"astId": 732,
								"contract": "LmPool Ver3.0/TVNNFTPositionManager.sol:TVNNFTPositionManager",
								"label": "amount1",
								"offset": 0,
								"slot": "6",
								"type": "t_uint256"
							},
							{
								"astId": 734,
								"contract": "LmPool Ver3.0/TVNNFTPositionManager.sol:TVNNFTPositionManager",
								"label": "upperTick",
								"offset": 0,
								"slot": "7",
								"type": "t_uint160"
							},
							{
								"astId": 736,
								"contract": "LmPool Ver3.0/TVNNFTPositionManager.sol:TVNNFTPositionManager",
								"label": "lowerTick",
								"offset": 0,
								"slot": "8",
								"type": "t_uint160"
							},
							{
								"astId": 738,
								"contract": "LmPool Ver3.0/TVNNFTPositionManager.sol:TVNNFTPositionManager",
								"label": "deltaLiquidity",
								"offset": 0,
								"slot": "9",
								"type": "t_uint128"
							}
						],
						"numberOfBytes": "320"
					},
					"t_uint128": {
						"encoding": "inplace",
						"label": "uint128",
						"numberOfBytes": "16"
					},
					"t_uint160": {
						"encoding": "inplace",
						"label": "uint160",
						"numberOfBytes": "20"
					},
					"t_uint256": {
						"encoding": "inplace",
						"label": "uint256",
						"numberOfBytes": "32"
					}
				}
			},
			"userdoc": {
				"kind": "user",
				"methods": {},
				"version": 1
			}
		}
	}
}