{
	"LmPool Ver3.0/ERC721.sol": {
		"ERC721": {
			"abi": [
				{
					"anonymous": false,
					"inputs": [
						{
							"indexed": true,
							"internalType": "address",
							"name": "owner",
							"type": "address"
						},
						{
							"indexed": true,
							"internalType": "address",
							"name": "spender",
							"type": "address"
						},
						{
							"indexed": true,
							"internalType": "uint256",
							"name": "id",
							"type": "uint256"
						}
					],
					"name": "Approval",
					"type": "event"
				},
				{
					"anonymous": false,
					"inputs": [
						{
							"indexed": true,
							"internalType": "address",
							"name": "owner",
							"type": "address"
						},
						{
							"indexed": true,
							"internalType": "address",
							"name": "operator",
							"type": "address"
						},
						{
							"indexed": false,
							"internalType": "bool",
							"name": "approved",
							"type": "bool"
						}
					],
					"name": "ApprovalForAll",
					"type": "event"
				},
				{
					"anonymous": false,
					"inputs": [
						{
							"indexed": true,
							"internalType": "address",
							"name": "from",
							"type": "address"
						},
						{
							"indexed": true,
							"internalType": "address",
							"name": "to",
							"type": "address"
						},
						{
							"indexed": true,
							"internalType": "uint256",
							"name": "id",
							"type": "uint256"
						}
					],
					"name": "Transfer",
					"type": "event"
				},
				{
					"inputs": [
						{
							"internalType": "address",
							"name": "to",
							"type": "address"
						},
						{
							"internalType": "uint256",
							"name": "tokenId",
							"type": "uint256"
						}
					],
					"name": "approve",
					"outputs": [],
					"stateMutability": "nonpayable",
					"type": "function"
				},
				{
					"inputs": [
						{
							"internalType": "address",
							"name": "owner",
							"type": "address"
						}
					],
					"name": "balanceOf",
					"outputs": [
						{
							"internalType": "uint256",
							"name": "balance",
							"type": "uint256"
						}
					],
					"stateMutability": "view",
					"type": "function"
				},
				{
					"inputs": [
						{
							"internalType": "uint256",
							"name": "tokenId",
							"type": "uint256"
						}
					],
					"name": "getApproved",
					"outputs": [
						{
							"internalType": "address",
							"name": "operator",
							"type": "address"
						}
					],
					"stateMutability": "view",
					"type": "function"
				},
				{
					"inputs": [
						{
							"internalType": "address",
							"name": "",
							"type": "address"
						},
						{
							"internalType": "address",
							"name": "",
							"type": "address"
						}
					],
					"name": "isApprovalForAll",
					"outputs": [
						{
							"internalType": "bool",
							"name": "",
							"type": "bool"
						}
					],
					"stateMutability": "view",
					"type": "function"
				},
				{
					"inputs": [
						{
							"internalType": "uint256",
							"name": "tokenId",
							"type": "uint256"
						}
					],
					"name": "ownerOf",
					"outputs": [
						{
							"internalType": "address",
							"name": "owner",
							"type": "address"
						}
					],
					"stateMutability": "view",
					"type": "function"
				},
				{
					"inputs": [
						{
							"internalType": "address",
							"name": "from",
							"type": "address"
						},
						{
							"internalType": "address",
							"name": "to",
							"type": "address"
						},
						{
							"internalType": "uint256",
							"name": "tokenId",
							"type": "uint256"
						}
					],
					"name": "safeTransferFrom",
					"outputs": [],
					"stateMutability": "nonpayable",
					"type": "function"
				},
				{
					"inputs": [
						{
							"internalType": "address",
							"name": "from",
							"type": "address"
						},
						{
							"internalType": "address",
							"name": "to",
							"type": "address"
						},
						{
							"internalType": "uint256",
							"name": "tokenId",
							"type": "uint256"
						},
						{
							"internalType": "bytes",
							"name": "data",
							"type": "bytes"
						}
					],
					"name": "safeTransferFrom",
					"outputs": [],
					"stateMutability": "nonpayable",
					"type": "function"
				},
				{
					"inputs": [
						{
							"internalType": "address",
							"name": "operator",
							"type": "address"
						},
						{
							"internalType": "bool",
							"name": "_approved",
							"type": "bool"
						}
					],
					"name": "setApprovalForAll",
					"outputs": [],
					"stateMutability": "nonpayable",
					"type": "function"
				},
				{
					"inputs": [
						{
							"internalType": "bytes4",
							"name": "interfaceID",
							"type": "bytes4"
						}
					],
					"name": "supportsInterface",
					"outputs": [
						{
							"internalType": "bool",
							"name": "",
							"type": "bool"
						}
					],
					"stateMutability": "pure",
					"type": "function"
				},
				{
					"inputs": [
						{
							"internalType": "address",
							"name": "from",
							"type": "address"
						},
						{
							"internalType": "address",
							"name": "to",
							"type": "address"
						},
						{
							"internalType": "uint256",
							"name": "tokenId",
							"type": "uint256"
						}
					],
					"name": "transferFrom",
					"outputs": [],
					"stateMutability": "nonpayable",
					"type": "function"
				}
			],
			"devdoc": {
				"kind": "dev",
				"methods": {},
				"version": 1
			},
			"evm": {
				"assembly": "    /* \"LmPool Ver3.0/ERC721.sol\":251:4642  contract ERC721  {... */\n  mstore(0x40, 0x80)\n  callvalue\n  dup1\n  iszero\n  tag_1\n  jumpi\n  0x00\n  dup1\n  revert\ntag_1:\n  pop\n  dataSize(sub_0)\n  dup1\n  dataOffset(sub_0)\n  0x00\n  codecopy\n  0x00\n  return\nstop\n\nsub_0: assembly {\n        /* \"LmPool Ver3.0/ERC721.sol\":251:4642  contract ERC721  {... */\n      mstore(0x40, 0x80)\n      callvalue\n      dup1\n      iszero\n      tag_1\n      jumpi\n      0x00\n      dup1\n      revert\n    tag_1:\n      pop\n      jumpi(tag_2, lt(calldatasize, 0x04))\n      shr(0xe0, calldataload(0x00))\n      dup1\n      0x6352211e\n      gt\n      tag_13\n      jumpi\n      dup1\n      0x6352211e\n      eq\n      tag_8\n      jumpi\n      dup1\n      0x70a08231\n      eq\n      tag_9\n      jumpi\n      dup1\n      0xa22cb465\n      eq\n      tag_10\n      jumpi\n      dup1\n      0xb88d4fde\n      eq\n      tag_11\n      jumpi\n      dup1\n      0xebd1d359\n      eq\n      tag_12\n      jumpi\n      jump(tag_2)\n    tag_13:\n      dup1\n      0x01ffc9a7\n      eq\n      tag_3\n      jumpi\n      dup1\n      0x081812fc\n      eq\n      tag_4\n      jumpi\n      dup1\n      0x095ea7b3\n      eq\n      tag_5\n      jumpi\n      dup1\n      0x23b872dd\n      eq\n      tag_6\n      jumpi\n      dup1\n      0x42842e0e\n      eq\n      tag_7\n      jumpi\n    tag_2:\n      0x00\n      dup1\n      revert\n        /* \"LmPool Ver3.0/ERC721.sol\":857:1093  function supportsInterface(bytes4 interfaceID)... */\n    tag_3:\n      tag_14\n      0x04\n      dup1\n      calldatasize\n      sub\n      dup2\n      add\n      swap1\n      tag_15\n      swap2\n      swap1\n      tag_16\n      jump\t// in\n    tag_15:\n      tag_17\n      jump\t// in\n    tag_14:\n      mload(0x40)\n      tag_18\n      swap2\n      swap1\n      tag_19\n      jump\t// in\n    tag_18:\n      mload(0x40)\n      dup1\n      swap2\n      sub\n      swap1\n      return\n        /* \"LmPool Ver3.0/ERC721.sol\":1987:2209  function getApproved(uint256 tokenId)... */\n    tag_4:\n      tag_20\n      0x04\n      dup1\n      calldatasize\n      sub\n      dup2\n      add\n      swap1\n      tag_21\n      swap2\n      swap1\n      tag_22\n      jump\t// in\n    tag_21:\n      tag_23\n      jump\t// in\n    tag_20:\n      mload(0x40)\n      tag_24\n      swap2\n      swap1\n      tag_25\n      jump\t// in\n    tag_24:\n      mload(0x40)\n      dup1\n      swap2\n      sub\n      swap1\n      return\n        /* \"LmPool Ver3.0/ERC721.sol\":1669:1981  function approve(address to, uint256 tokenId) external {... */\n    tag_5:\n      tag_26\n      0x04\n      dup1\n      calldatasize\n      sub\n      dup2\n      add\n      swap1\n      tag_27\n      swap2\n      swap1\n      tag_28\n      jump\t// in\n    tag_27:\n      tag_29\n      jump\t// in\n    tag_26:\n      stop\n        /* \"LmPool Ver3.0/ERC721.sol\":2493:3000  function transferFrom(... */\n    tag_6:\n      tag_30\n      0x04\n      dup1\n      calldatasize\n      sub\n      dup2\n      add\n      swap1\n      tag_31\n      swap2\n      swap1\n      tag_32\n      jump\t// in\n    tag_31:\n      tag_33\n      jump\t// in\n    tag_30:\n      stop\n        /* \"LmPool Ver3.0/ERC721.sol\":3006:3500  function safeTransferFrom(... */\n    tag_7:\n      tag_34\n      0x04\n      dup1\n      calldatasize\n      sub\n      dup2\n      add\n      swap1\n      tag_35\n      swap2\n      swap1\n      tag_32\n      jump\t// in\n    tag_35:\n      tag_36\n      jump\t// in\n    tag_34:\n      stop\n        /* \"LmPool Ver3.0/ERC721.sol\":1282:1458  function ownerOf(uint256 tokenId) external view returns (address owner) {... */\n    tag_8:\n      tag_37\n      0x04\n      dup1\n      calldatasize\n      sub\n      dup2\n      add\n      swap1\n      tag_38\n      swap2\n      swap1\n      tag_22\n      jump\t// in\n    tag_38:\n      tag_39\n      jump\t// in\n    tag_37:\n      mload(0x40)\n      tag_40\n      swap2\n      swap1\n      tag_25\n      jump\t// in\n    tag_40:\n      mload(0x40)\n      dup1\n      swap2\n      sub\n      swap1\n      return\n        /* \"LmPool Ver3.0/ERC721.sol\":1099:1276  function balanceOf(address owner) external view returns (uint256 balance) {... */\n    tag_9:\n      tag_41\n      0x04\n      dup1\n      calldatasize\n      sub\n      dup2\n      add\n      swap1\n      tag_42\n      swap2\n      swap1\n      tag_43\n      jump\t// in\n    tag_42:\n      tag_44\n      jump\t// in\n    tag_41:\n      mload(0x40)\n      tag_45\n      swap2\n      swap1\n      tag_46\n      jump\t// in\n    tag_45:\n      mload(0x40)\n      dup1\n      swap2\n      sub\n      swap1\n      return\n        /* \"LmPool Ver3.0/ERC721.sol\":1464:1663  function setApprovalForAll(address operator, bool _approved) external {... */\n    tag_10:\n      tag_47\n      0x04\n      dup1\n      calldatasize\n      sub\n      dup2\n      add\n      swap1\n      tag_48\n      swap2\n      swap1\n      tag_49\n      jump\t// in\n    tag_48:\n      tag_50\n      jump\t// in\n    tag_47:\n      stop\n        /* \"LmPool Ver3.0/ERC721.sol\":3506:4031  function safeTransferFrom(... */\n    tag_11:\n      tag_51\n      0x04\n      dup1\n      calldatasize\n      sub\n      dup2\n      add\n      swap1\n      tag_52\n      swap2\n      swap1\n      tag_53\n      jump\t// in\n    tag_52:\n      tag_54\n      jump\t// in\n    tag_51:\n      stop\n        /* \"LmPool Ver3.0/ERC721.sol\":782:850  mapping(address => mapping(address => bool)) public isApprovalForAll */\n    tag_12:\n      tag_55\n      0x04\n      dup1\n      calldatasize\n      sub\n      dup2\n      add\n      swap1\n      tag_56\n      swap2\n      swap1\n      tag_57\n      jump\t// in\n    tag_56:\n      tag_58\n      jump\t// in\n    tag_55:\n      mload(0x40)\n      tag_59\n      swap2\n      swap1\n      tag_19\n      jump\t// in\n    tag_59:\n      mload(0x40)\n      dup1\n      swap2\n      sub\n      swap1\n      return\n        /* \"LmPool Ver3.0/ERC721.sol\":857:1093  function supportsInterface(bytes4 interfaceID)... */\n    tag_17:\n        /* \"LmPool Ver3.0/ERC721.sol\":951:955  bool */\n      0x00\n        /* \"LmPool Ver3.0/ERC721.sol\":1005:1030  type(IERC721).interfaceId */\n      0x80ac58cd00000000000000000000000000000000000000000000000000000000\n        /* \"LmPool Ver3.0/ERC721.sol\":990:1030  interfaceID == type(IERC721).interfaceId */\n      not(0xffffffffffffffffffffffffffffffffffffffffffffffffffffffff)\n      and\n        /* \"LmPool Ver3.0/ERC721.sol\":990:1001  interfaceID */\n      dup3\n        /* \"LmPool Ver3.0/ERC721.sol\":990:1030  interfaceID == type(IERC721).interfaceId */\n      not(0xffffffffffffffffffffffffffffffffffffffffffffffffffffffff)\n      and\n      eq\n        /* \"LmPool Ver3.0/ERC721.sol\":990:1086  interfaceID == type(IERC721).interfaceId ||... */\n      dup1\n      tag_61\n      jumpi\n      pop\n        /* \"LmPool Ver3.0/ERC721.sol\":1061:1086  type(IERC165).interfaceId */\n      0x01ffc9a700000000000000000000000000000000000000000000000000000000\n        /* \"LmPool Ver3.0/ERC721.sol\":1046:1086  interfaceID == type(IERC165).interfaceId */\n      not(0xffffffffffffffffffffffffffffffffffffffffffffffffffffffff)\n      and\n        /* \"LmPool Ver3.0/ERC721.sol\":1046:1057  interfaceID */\n      dup3\n        /* \"LmPool Ver3.0/ERC721.sol\":1046:1086  interfaceID == type(IERC165).interfaceId */\n      not(0xffffffffffffffffffffffffffffffffffffffffffffffffffffffff)\n      and\n      eq\n        /* \"LmPool Ver3.0/ERC721.sol\":990:1086  interfaceID == type(IERC721).interfaceId ||... */\n    tag_61:\n        /* \"LmPool Ver3.0/ERC721.sol\":971:1086  return... */\n      swap1\n      pop\n        /* \"LmPool Ver3.0/ERC721.sol\":857:1093  function supportsInterface(bytes4 interfaceID)... */\n      swap2\n      swap1\n      pop\n      jump\t// out\n        /* \"LmPool Ver3.0/ERC721.sol\":1987:2209  function getApproved(uint256 tokenId)... */\n    tag_23:\n        /* \"LmPool Ver3.0/ERC721.sol\":2072:2088  address operator */\n      0x00\n        /* \"LmPool Ver3.0/ERC721.sol\":2141:2142  0 */\n      dup1\n        /* \"LmPool Ver3.0/ERC721.sol\":2112:2143  _ownerOf[tokenId] != address(0) */\n      0xffffffffffffffffffffffffffffffffffffffff\n      and\n        /* \"LmPool Ver3.0/ERC721.sol\":2112:2120  _ownerOf */\n      0x00\n        /* \"LmPool Ver3.0/ERC721.sol\":2112:2129  _ownerOf[tokenId] */\n      dup1\n        /* \"LmPool Ver3.0/ERC721.sol\":2121:2128  tokenId */\n      dup5\n        /* \"LmPool Ver3.0/ERC721.sol\":2112:2129  _ownerOf[tokenId] */\n      dup2\n      mstore\n      0x20\n      add\n      swap1\n      dup2\n      mstore\n      0x20\n      add\n      0x00\n      keccak256\n      0x00\n      swap1\n      sload\n      swap1\n      0x0100\n      exp\n      swap1\n      div\n      0xffffffffffffffffffffffffffffffffffffffff\n      and\n        /* \"LmPool Ver3.0/ERC721.sol\":2112:2143  _ownerOf[tokenId] != address(0) */\n      0xffffffffffffffffffffffffffffffffffffffff\n      and\n      sub\n        /* \"LmPool Ver3.0/ERC721.sol\":2104:2166  require(_ownerOf[tokenId] != address(0), \"token does't exits\") */\n      tag_63\n      jumpi\n      mload(0x40)\n      0x08c379a000000000000000000000000000000000000000000000000000000000\n      dup2\n      mstore\n      0x04\n      add\n      tag_64\n      swap1\n      tag_65\n      jump\t// in\n    tag_64:\n      mload(0x40)\n      dup1\n      swap2\n      sub\n      swap1\n      revert\n    tag_63:\n        /* \"LmPool Ver3.0/ERC721.sol\":2183:2193  _approvals */\n      0x02\n        /* \"LmPool Ver3.0/ERC721.sol\":2183:2202  _approvals[tokenId] */\n      0x00\n        /* \"LmPool Ver3.0/ERC721.sol\":2194:2201  tokenId */\n      dup4\n        /* \"LmPool Ver3.0/ERC721.sol\":2183:2202  _approvals[tokenId] */\n      dup2\n      mstore\n      0x20\n      add\n      swap1\n      dup2\n      mstore\n      0x20\n      add\n      0x00\n      keccak256\n      0x00\n      swap1\n      sload\n      swap1\n      0x0100\n      exp\n      swap1\n      div\n      0xffffffffffffffffffffffffffffffffffffffff\n      and\n        /* \"LmPool Ver3.0/ERC721.sol\":2176:2202  return _approvals[tokenId] */\n      swap1\n      pop\n        /* \"LmPool Ver3.0/ERC721.sol\":1987:2209  function getApproved(uint256 tokenId)... */\n      swap2\n      swap1\n      pop\n      jump\t// out\n        /* \"LmPool Ver3.0/ERC721.sol\":1669:1981  function approve(address to, uint256 tokenId) external {... */\n    tag_29:\n        /* \"LmPool Ver3.0/ERC721.sol\":1734:1747  address owner */\n      0x00\n        /* \"LmPool Ver3.0/ERC721.sol\":1750:1758  _ownerOf */\n      dup1\n        /* \"LmPool Ver3.0/ERC721.sol\":1750:1767  _ownerOf[tokenId] */\n      0x00\n        /* \"LmPool Ver3.0/ERC721.sol\":1759:1766  tokenId */\n      dup4\n        /* \"LmPool Ver3.0/ERC721.sol\":1750:1767  _ownerOf[tokenId] */\n      dup2\n      mstore\n      0x20\n      add\n      swap1\n      dup2\n      mstore\n      0x20\n      add\n      0x00\n      keccak256\n      0x00\n      swap1\n      sload\n      swap1\n      0x0100\n      exp\n      swap1\n      div\n      0xffffffffffffffffffffffffffffffffffffffff\n      and\n        /* \"LmPool Ver3.0/ERC721.sol\":1734:1767  address owner = _ownerOf[tokenId] */\n      swap1\n      pop\n        /* \"LmPool Ver3.0/ERC721.sol\":1812:1817  owner */\n      dup1\n        /* \"LmPool Ver3.0/ERC721.sol\":1798:1817  msg.sender == owner */\n      0xffffffffffffffffffffffffffffffffffffffff\n      and\n        /* \"LmPool Ver3.0/ERC721.sol\":1798:1808  msg.sender */\n      caller\n        /* \"LmPool Ver3.0/ERC721.sol\":1798:1817  msg.sender == owner */\n      0xffffffffffffffffffffffffffffffffffffffff\n      and\n      eq\n        /* \"LmPool Ver3.0/ERC721.sol\":1798:1856  msg.sender == owner || isApprovalForAll[owner][msg.sender] */\n      dup1\n      tag_67\n      jumpi\n      pop\n        /* \"LmPool Ver3.0/ERC721.sol\":1821:1837  isApprovalForAll */\n      0x03\n        /* \"LmPool Ver3.0/ERC721.sol\":1821:1844  isApprovalForAll[owner] */\n      0x00\n        /* \"LmPool Ver3.0/ERC721.sol\":1838:1843  owner */\n      dup3\n        /* \"LmPool Ver3.0/ERC721.sol\":1821:1844  isApprovalForAll[owner] */\n      0xffffffffffffffffffffffffffffffffffffffff\n      and\n      0xffffffffffffffffffffffffffffffffffffffff\n      and\n      dup2\n      mstore\n      0x20\n      add\n      swap1\n      dup2\n      mstore\n      0x20\n      add\n      0x00\n      keccak256\n        /* \"LmPool Ver3.0/ERC721.sol\":1821:1856  isApprovalForAll[owner][msg.sender] */\n      0x00\n        /* \"LmPool Ver3.0/ERC721.sol\":1845:1855  msg.sender */\n      caller\n        /* \"LmPool Ver3.0/ERC721.sol\":1821:1856  isApprovalForAll[owner][msg.sender] */\n      0xffffffffffffffffffffffffffffffffffffffff\n      and\n      0xffffffffffffffffffffffffffffffffffffffff\n      and\n      dup2\n      mstore\n      0x20\n      add\n      swap1\n      dup2\n      mstore\n      0x20\n      add\n      0x00\n      keccak256\n      0x00\n      swap1\n      sload\n      swap1\n      0x0100\n      exp\n      swap1\n      div\n      0xff\n      and\n        /* \"LmPool Ver3.0/ERC721.sol\":1798:1856  msg.sender == owner || isApprovalForAll[owner][msg.sender] */\n    tag_67:\n        /* \"LmPool Ver3.0/ERC721.sol\":1777:1896  require(... */\n      tag_68\n      jumpi\n      mload(0x40)\n      0x08c379a000000000000000000000000000000000000000000000000000000000\n      dup2\n      mstore\n      0x04\n      add\n      tag_69\n      swap1\n      tag_70\n      jump\t// in\n    tag_69:\n      mload(0x40)\n      dup1\n      swap2\n      sub\n      swap1\n      revert\n    tag_68:\n        /* \"LmPool Ver3.0/ERC721.sol\":1928:1930  to */\n      dup3\n        /* \"LmPool Ver3.0/ERC721.sol\":1906:1916  _approvals */\n      0x02\n        /* \"LmPool Ver3.0/ERC721.sol\":1906:1925  _approvals[tokenId] */\n      0x00\n        /* \"LmPool Ver3.0/ERC721.sol\":1917:1924  tokenId */\n      dup5\n        /* \"LmPool Ver3.0/ERC721.sol\":1906:1925  _approvals[tokenId] */\n      dup2\n      mstore\n      0x20\n      add\n      swap1\n      dup2\n      mstore\n      0x20\n      add\n      0x00\n      keccak256\n      0x00\n        /* \"LmPool Ver3.0/ERC721.sol\":1906:1930  _approvals[tokenId] = to */\n      0x0100\n      exp\n      dup2\n      sload\n      dup2\n      0xffffffffffffffffffffffffffffffffffffffff\n      mul\n      not\n      and\n      swap1\n      dup4\n      0xffffffffffffffffffffffffffffffffffffffff\n      and\n      mul\n      or\n      swap1\n      sstore\n      pop\n        /* \"LmPool Ver3.0/ERC721.sol\":1966:1973  tokenId */\n      dup2\n        /* \"LmPool Ver3.0/ERC721.sol\":1962:1964  to */\n      dup4\n        /* \"LmPool Ver3.0/ERC721.sol\":1946:1974  Approval(owner, to, tokenId) */\n      0xffffffffffffffffffffffffffffffffffffffff\n      and\n        /* \"LmPool Ver3.0/ERC721.sol\":1955:1960  owner */\n      dup3\n        /* \"LmPool Ver3.0/ERC721.sol\":1946:1974  Approval(owner, to, tokenId) */\n      0xffffffffffffffffffffffffffffffffffffffff\n      and\n      0x8c5be1e5ebec7d5bd14f71427d1e84f3dd0314c0f7b2291e5b200ac8c7c3b925\n      mload(0x40)\n      mload(0x40)\n      dup1\n      swap2\n      sub\n      swap1\n      log4\n        /* \"LmPool Ver3.0/ERC721.sol\":1724:1981  {... */\n      pop\n        /* \"LmPool Ver3.0/ERC721.sol\":1669:1981  function approve(address to, uint256 tokenId) external {... */\n      pop\n      pop\n      jump\t// out\n        /* \"LmPool Ver3.0/ERC721.sol\":2493:3000  function transferFrom(... */\n    tag_33:\n        /* \"LmPool Ver3.0/ERC721.sol\":2621:2629  _ownerOf */\n      0x00\n        /* \"LmPool Ver3.0/ERC721.sol\":2621:2638  _ownerOf[tokenId] */\n      dup1\n        /* \"LmPool Ver3.0/ERC721.sol\":2630:2637  tokenId */\n      dup3\n        /* \"LmPool Ver3.0/ERC721.sol\":2621:2638  _ownerOf[tokenId] */\n      dup2\n      mstore\n      0x20\n      add\n      swap1\n      dup2\n      mstore\n      0x20\n      add\n      0x00\n      keccak256\n      0x00\n      swap1\n      sload\n      swap1\n      0x0100\n      exp\n      swap1\n      div\n      0xffffffffffffffffffffffffffffffffffffffff\n      and\n        /* \"LmPool Ver3.0/ERC721.sol\":2613:2638  from == _ownerOf[tokenId] */\n      0xffffffffffffffffffffffffffffffffffffffff\n      and\n        /* \"LmPool Ver3.0/ERC721.sol\":2613:2617  from */\n      dup4\n        /* \"LmPool Ver3.0/ERC721.sol\":2613:2638  from == _ownerOf[tokenId] */\n      0xffffffffffffffffffffffffffffffffffffffff\n      and\n      eq\n        /* \"LmPool Ver3.0/ERC721.sol\":2605:2656  require(from == _ownerOf[tokenId], \"from != owner\") */\n      tag_72\n      jumpi\n      mload(0x40)\n      0x08c379a000000000000000000000000000000000000000000000000000000000\n      dup2\n      mstore\n      0x04\n      add\n      tag_73\n      swap1\n      tag_74\n      jump\t// in\n    tag_73:\n      mload(0x40)\n      dup1\n      swap2\n      sub\n      swap1\n      revert\n    tag_72:\n        /* \"LmPool Ver3.0/ERC721.sol\":2688:2689  0 */\n      0x00\n        /* \"LmPool Ver3.0/ERC721.sol\":2674:2690  to != address(0) */\n      0xffffffffffffffffffffffffffffffffffffffff\n      and\n        /* \"LmPool Ver3.0/ERC721.sol\":2674:2676  to */\n      dup3\n        /* \"LmPool Ver3.0/ERC721.sol\":2674:2690  to != address(0) */\n      0xffffffffffffffffffffffffffffffffffffffff\n      and\n      sub\n        /* \"LmPool Ver3.0/ERC721.sol\":2666:2712  require(to != address(0), \"to = zero address\") */\n      tag_75\n      jumpi\n      mload(0x40)\n      0x08c379a000000000000000000000000000000000000000000000000000000000\n      dup2\n      mstore\n      0x04\n      add\n      tag_76\n      swap1\n      tag_77\n      jump\t// in\n    tag_76:\n      mload(0x40)\n      dup1\n      swap2\n      sub\n      swap1\n      revert\n    tag_75:\n        /* \"LmPool Ver3.0/ERC721.sol\":2743:2788  _isApprovedOrOwner(from, msg.sender, tokenId) */\n      tag_78\n        /* \"LmPool Ver3.0/ERC721.sol\":2762:2766  from */\n      dup4\n        /* \"LmPool Ver3.0/ERC721.sol\":2768:2778  msg.sender */\n      caller\n        /* \"LmPool Ver3.0/ERC721.sol\":2780:2787  tokenId */\n      dup4\n        /* \"LmPool Ver3.0/ERC721.sol\":2743:2761  _isApprovedOrOwner */\n      tag_79\n        /* \"LmPool Ver3.0/ERC721.sol\":2743:2788  _isApprovedOrOwner(from, msg.sender, tokenId) */\n      jump\t// in\n    tag_78:\n        /* \"LmPool Ver3.0/ERC721.sol\":2722:2828  require(... */\n      tag_80\n      jumpi\n      mload(0x40)\n      0x08c379a000000000000000000000000000000000000000000000000000000000\n      dup2\n      mstore\n      0x04\n      add\n      tag_81\n      swap1\n      tag_70\n      jump\t// in\n    tag_81:\n      mload(0x40)\n      dup1\n      swap2\n      sub\n      swap1\n      revert\n    tag_80:\n        /* \"LmPool Ver3.0/ERC721.sol\":2838:2848  _balanceOf */\n      0x01\n        /* \"LmPool Ver3.0/ERC721.sol\":2838:2854  _balanceOf[from] */\n      0x00\n        /* \"LmPool Ver3.0/ERC721.sol\":2849:2853  from */\n      dup5\n        /* \"LmPool Ver3.0/ERC721.sol\":2838:2854  _balanceOf[from] */\n      0xffffffffffffffffffffffffffffffffffffffff\n      and\n      0xffffffffffffffffffffffffffffffffffffffff\n      and\n      dup2\n      mstore\n      0x20\n      add\n      swap1\n      dup2\n      mstore\n      0x20\n      add\n      0x00\n      keccak256\n      0x00\n        /* \"LmPool Ver3.0/ERC721.sol\":2838:2856  _balanceOf[from]-- */\n      dup2\n      sload\n      dup1\n      swap3\n      swap2\n      swap1\n      tag_82\n      swap1\n      tag_83\n      jump\t// in\n    tag_82:\n      swap2\n      swap1\n      pop\n      sstore\n      pop\n        /* \"LmPool Ver3.0/ERC721.sol\":2866:2876  _balanceOf */\n      0x01\n        /* \"LmPool Ver3.0/ERC721.sol\":2866:2880  _balanceOf[to] */\n      0x00\n        /* \"LmPool Ver3.0/ERC721.sol\":2877:2879  to */\n      dup4\n        /* \"LmPool Ver3.0/ERC721.sol\":2866:2880  _balanceOf[to] */\n      0xffffffffffffffffffffffffffffffffffffffff\n      and\n      0xffffffffffffffffffffffffffffffffffffffff\n      and\n      dup2\n      mstore\n      0x20\n      add\n      swap1\n      dup2\n      mstore\n      0x20\n      add\n      0x00\n      keccak256\n      0x00\n        /* \"LmPool Ver3.0/ERC721.sol\":2866:2882  _balanceOf[to]++ */\n      dup2\n      sload\n      dup1\n      swap3\n      swap2\n      swap1\n      tag_84\n      swap1\n      tag_85\n      jump\t// in\n    tag_84:\n      swap2\n      swap1\n      pop\n      sstore\n      pop\n        /* \"LmPool Ver3.0/ERC721.sol\":2912:2914  to */\n      dup2\n        /* \"LmPool Ver3.0/ERC721.sol\":2892:2900  _ownerOf */\n      0x00\n        /* \"LmPool Ver3.0/ERC721.sol\":2892:2909  _ownerOf[tokenId] */\n      dup1\n        /* \"LmPool Ver3.0/ERC721.sol\":2901:2908  tokenId */\n      dup4\n        /* \"LmPool Ver3.0/ERC721.sol\":2892:2909  _ownerOf[tokenId] */\n      dup2\n      mstore\n      0x20\n      add\n      swap1\n      dup2\n      mstore\n      0x20\n      add\n      0x00\n      keccak256\n      0x00\n        /* \"LmPool Ver3.0/ERC721.sol\":2892:2914  _ownerOf[tokenId] = to */\n      0x0100\n      exp\n      dup2\n      sload\n      dup2\n      0xffffffffffffffffffffffffffffffffffffffff\n      mul\n      not\n      and\n      swap1\n      dup4\n      0xffffffffffffffffffffffffffffffffffffffff\n      and\n      mul\n      or\n      swap1\n      sstore\n      pop\n        /* \"LmPool Ver3.0/ERC721.sol\":2932:2942  _approvals */\n      0x02\n        /* \"LmPool Ver3.0/ERC721.sol\":2932:2951  _approvals[tokenId] */\n      0x00\n        /* \"LmPool Ver3.0/ERC721.sol\":2943:2950  tokenId */\n      dup3\n        /* \"LmPool Ver3.0/ERC721.sol\":2932:2951  _approvals[tokenId] */\n      dup2\n      mstore\n      0x20\n      add\n      swap1\n      dup2\n      mstore\n      0x20\n      add\n      0x00\n      keccak256\n      0x00\n        /* \"LmPool Ver3.0/ERC721.sol\":2925:2951  delete _approvals[tokenId] */\n      0x0100\n      exp\n      dup2\n      sload\n      swap1\n      0xffffffffffffffffffffffffffffffffffffffff\n      mul\n      not\n      and\n      swap1\n      sstore\n        /* \"LmPool Ver3.0/ERC721.sol\":2985:2992  tokenId */\n      dup1\n        /* \"LmPool Ver3.0/ERC721.sol\":2981:2983  to */\n      dup3\n        /* \"LmPool Ver3.0/ERC721.sol\":2966:2993  Transfer(from, to, tokenId) */\n      0xffffffffffffffffffffffffffffffffffffffff\n      and\n        /* \"LmPool Ver3.0/ERC721.sol\":2975:2979  from */\n      dup5\n        /* \"LmPool Ver3.0/ERC721.sol\":2966:2993  Transfer(from, to, tokenId) */\n      0xffffffffffffffffffffffffffffffffffffffff\n      and\n      0xddf252ad1be2c89b69c2b068fc378daa952ba7f163c4a11628f55a4df523b3ef\n      mload(0x40)\n      mload(0x40)\n      dup1\n      swap2\n      sub\n      swap1\n      log4\n        /* \"LmPool Ver3.0/ERC721.sol\":2493:3000  function transferFrom(... */\n      pop\n      pop\n      pop\n      jump\t// out\n        /* \"LmPool Ver3.0/ERC721.sol\":3006:3500  function safeTransferFrom(... */\n    tag_36:\n        /* \"LmPool Ver3.0/ERC721.sol\":3124:3155  transferFrom(from, to, tokenId) */\n      tag_87\n        /* \"LmPool Ver3.0/ERC721.sol\":3137:3141  from */\n      dup4\n        /* \"LmPool Ver3.0/ERC721.sol\":3143:3145  to */\n      dup4\n        /* \"LmPool Ver3.0/ERC721.sol\":3147:3154  tokenId */\n      dup4\n        /* \"LmPool Ver3.0/ERC721.sol\":3124:3136  transferFrom */\n      tag_33\n        /* \"LmPool Ver3.0/ERC721.sol\":3124:3155  transferFrom(from, to, tokenId) */\n      jump\t// in\n    tag_87:\n        /* \"LmPool Ver3.0/ERC721.sol\":3204:3205  0 */\n      0x00\n        /* \"LmPool Ver3.0/ERC721.sol\":3186:3188  to */\n      dup3\n        /* \"LmPool Ver3.0/ERC721.sol\":3186:3200  to.code.length */\n      0xffffffffffffffffffffffffffffffffffffffff\n      and\n      extcodesize\n        /* \"LmPool Ver3.0/ERC721.sol\":3186:3205  to.code.length == 0 */\n      eq\n        /* \"LmPool Ver3.0/ERC721.sol\":3186:3451  to.code.length == 0 ||... */\n      dup1\n      tag_88\n      jumpi\n      pop\n        /* \"LmPool Ver3.0/ERC721.sol\":3410:3451  IERC721Receiver.onERC721Received.selector */\n      shl(0xe0, 0x150b7a02)\n        /* \"LmPool Ver3.0/ERC721.sol\":3225:3451  IERC721Receiver(to).onERC721Received(... */\n      not(0xffffffffffffffffffffffffffffffffffffffffffffffffffffffff)\n      and\n        /* \"LmPool Ver3.0/ERC721.sol\":3241:3243  to */\n      dup3\n        /* \"LmPool Ver3.0/ERC721.sol\":3225:3261  IERC721Receiver(to).onERC721Received */\n      0xffffffffffffffffffffffffffffffffffffffff\n      and\n      0x150b7a02\n        /* \"LmPool Ver3.0/ERC721.sol\":3283:3293  msg.sender */\n      caller\n        /* \"LmPool Ver3.0/ERC721.sol\":3315:3319  from */\n      dup7\n        /* \"LmPool Ver3.0/ERC721.sol\":3341:3348  tokenId */\n      dup6\n        /* \"LmPool Ver3.0/ERC721.sol\":3225:3390  IERC721Receiver(to).onERC721Received(... */\n      mload(0x40)\n      dup5\n      0xffffffff\n      and\n      0xe0\n      shl\n      dup2\n      mstore\n      0x04\n      add\n      tag_89\n      swap4\n      swap3\n      swap2\n      swap1\n      tag_90\n      jump\t// in\n    tag_89:\n      0x20\n      mload(0x40)\n      dup1\n      dup4\n      sub\n      dup2\n      0x00\n      dup8\n      gas\n      call\n      iszero\n      dup1\n      iszero\n      tag_92\n      jumpi\n      returndatasize\n      0x00\n      dup1\n      returndatacopy\n      revert(0x00, returndatasize)\n    tag_92:\n      pop\n      pop\n      pop\n      pop\n      mload(0x40)\n      returndatasize\n      not(0x1f)\n      0x1f\n      dup3\n      add\n      and\n      dup3\n      add\n      dup1\n      0x40\n      mstore\n      pop\n      dup2\n      add\n      swap1\n      tag_93\n      swap2\n      swap1\n      tag_94\n      jump\t// in\n    tag_93:\n        /* \"LmPool Ver3.0/ERC721.sol\":3225:3451  IERC721Receiver(to).onERC721Received(... */\n      not(0xffffffffffffffffffffffffffffffffffffffffffffffffffffffff)\n      and\n      eq\n        /* \"LmPool Ver3.0/ERC721.sol\":3186:3451  to.code.length == 0 ||... */\n    tag_88:\n        /* \"LmPool Ver3.0/ERC721.sol\":3165:3493  require(... */\n      tag_95\n      jumpi\n      mload(0x40)\n      0x08c379a000000000000000000000000000000000000000000000000000000000\n      dup2\n      mstore\n      0x04\n      add\n      tag_96\n      swap1\n      tag_97\n      jump\t// in\n    tag_96:\n      mload(0x40)\n      dup1\n      swap2\n      sub\n      swap1\n      revert\n    tag_95:\n        /* \"LmPool Ver3.0/ERC721.sol\":3006:3500  function safeTransferFrom(... */\n      pop\n      pop\n      pop\n      jump\t// out\n        /* \"LmPool Ver3.0/ERC721.sol\":1282:1458  function ownerOf(uint256 tokenId) external view returns (address owner) {... */\n    tag_39:\n        /* \"LmPool Ver3.0/ERC721.sol\":1339:1352  address owner */\n      0x00\n        /* \"LmPool Ver3.0/ERC721.sol\":1372:1380  _ownerOf */\n      dup1\n        /* \"LmPool Ver3.0/ERC721.sol\":1372:1389  _ownerOf[tokenId] */\n      0x00\n        /* \"LmPool Ver3.0/ERC721.sol\":1381:1388  tokenId */\n      dup4\n        /* \"LmPool Ver3.0/ERC721.sol\":1372:1389  _ownerOf[tokenId] */\n      dup2\n      mstore\n      0x20\n      add\n      swap1\n      dup2\n      mstore\n      0x20\n      add\n      0x00\n      keccak256\n      0x00\n      swap1\n      sload\n      swap1\n      0x0100\n      exp\n      swap1\n      div\n      0xffffffffffffffffffffffffffffffffffffffff\n      and\n        /* \"LmPool Ver3.0/ERC721.sol\":1364:1389  owner = _ownerOf[tokenId] */\n      swap1\n      pop\n        /* \"LmPool Ver3.0/ERC721.sol\":1424:1425  0 */\n      0x00\n        /* \"LmPool Ver3.0/ERC721.sol\":1407:1426  owner != address(0) */\n      0xffffffffffffffffffffffffffffffffffffffff\n      and\n        /* \"LmPool Ver3.0/ERC721.sol\":1407:1412  owner */\n      dup2\n        /* \"LmPool Ver3.0/ERC721.sol\":1407:1426  owner != address(0) */\n      0xffffffffffffffffffffffffffffffffffffffff\n      and\n      sub\n        /* \"LmPool Ver3.0/ERC721.sol\":1399:1451  require(owner != address(0), \"owner = zero address\") */\n      tag_99\n      jumpi\n      mload(0x40)\n      0x08c379a000000000000000000000000000000000000000000000000000000000\n      dup2\n      mstore\n      0x04\n      add\n      tag_100\n      swap1\n      tag_101\n      jump\t// in\n    tag_100:\n      mload(0x40)\n      dup1\n      swap2\n      sub\n      swap1\n      revert\n    tag_99:\n        /* \"LmPool Ver3.0/ERC721.sol\":1282:1458  function ownerOf(uint256 tokenId) external view returns (address owner) {... */\n      swap2\n      swap1\n      pop\n      jump\t// out\n        /* \"LmPool Ver3.0/ERC721.sol\":1099:1276  function balanceOf(address owner) external view returns (uint256 balance) {... */\n    tag_44:\n        /* \"LmPool Ver3.0/ERC721.sol\":1156:1171  uint256 balance */\n      0x00\n        /* \"LmPool Ver3.0/ERC721.sol\":1208:1209  0 */\n      dup1\n        /* \"LmPool Ver3.0/ERC721.sol\":1191:1210  owner != address(0) */\n      0xffffffffffffffffffffffffffffffffffffffff\n      and\n        /* \"LmPool Ver3.0/ERC721.sol\":1191:1196  owner */\n      dup3\n        /* \"LmPool Ver3.0/ERC721.sol\":1191:1210  owner != address(0) */\n      0xffffffffffffffffffffffffffffffffffffffff\n      and\n      sub\n        /* \"LmPool Ver3.0/ERC721.sol\":1183:1235  require(owner != address(0), \"owner = zero address\") */\n      tag_103\n      jumpi\n      mload(0x40)\n      0x08c379a000000000000000000000000000000000000000000000000000000000\n      dup2\n      mstore\n      0x04\n      add\n      tag_104\n      swap1\n      tag_101\n      jump\t// in\n    tag_104:\n      mload(0x40)\n      dup1\n      swap2\n      sub\n      swap1\n      revert\n    tag_103:\n        /* \"LmPool Ver3.0/ERC721.sol\":1252:1262  _balanceOf */\n      0x01\n        /* \"LmPool Ver3.0/ERC721.sol\":1252:1269  _balanceOf[owner] */\n      0x00\n        /* \"LmPool Ver3.0/ERC721.sol\":1263:1268  owner */\n      dup4\n        /* \"LmPool Ver3.0/ERC721.sol\":1252:1269  _balanceOf[owner] */\n      0xffffffffffffffffffffffffffffffffffffffff\n      and\n      0xffffffffffffffffffffffffffffffffffffffff\n      and\n      dup2\n      mstore\n      0x20\n      add\n      swap1\n      dup2\n      mstore\n      0x20\n      add\n      0x00\n      keccak256\n      sload\n        /* \"LmPool Ver3.0/ERC721.sol\":1245:1269  return _balanceOf[owner] */\n      swap1\n      pop\n        /* \"LmPool Ver3.0/ERC721.sol\":1099:1276  function balanceOf(address owner) external view returns (uint256 balance) {... */\n      swap2\n      swap1\n      pop\n      jump\t// out\n        /* \"LmPool Ver3.0/ERC721.sol\":1464:1663  function setApprovalForAll(address operator, bool _approved) external {... */\n    tag_50:\n        /* \"LmPool Ver3.0/ERC721.sol\":1585:1594  _approved */\n      dup1\n        /* \"LmPool Ver3.0/ERC721.sol\":1544:1560  isApprovalForAll */\n      0x03\n        /* \"LmPool Ver3.0/ERC721.sol\":1544:1572  isApprovalForAll[msg.sender] */\n      0x00\n        /* \"LmPool Ver3.0/ERC721.sol\":1561:1571  msg.sender */\n      caller\n        /* \"LmPool Ver3.0/ERC721.sol\":1544:1572  isApprovalForAll[msg.sender] */\n      0xffffffffffffffffffffffffffffffffffffffff\n      and\n      0xffffffffffffffffffffffffffffffffffffffff\n      and\n      dup2\n      mstore\n      0x20\n      add\n      swap1\n      dup2\n      mstore\n      0x20\n      add\n      0x00\n      keccak256\n        /* \"LmPool Ver3.0/ERC721.sol\":1544:1582  isApprovalForAll[msg.sender][operator] */\n      0x00\n        /* \"LmPool Ver3.0/ERC721.sol\":1573:1581  operator */\n      dup5\n        /* \"LmPool Ver3.0/ERC721.sol\":1544:1582  isApprovalForAll[msg.sender][operator] */\n      0xffffffffffffffffffffffffffffffffffffffff\n      and\n      0xffffffffffffffffffffffffffffffffffffffff\n      and\n      dup2\n      mstore\n      0x20\n      add\n      swap1\n      dup2\n      mstore\n      0x20\n      add\n      0x00\n      keccak256\n      0x00\n        /* \"LmPool Ver3.0/ERC721.sol\":1544:1594  isApprovalForAll[msg.sender][operator] = _approved */\n      0x0100\n      exp\n      dup2\n      sload\n      dup2\n      0xff\n      mul\n      not\n      and\n      swap1\n      dup4\n      iszero\n      iszero\n      mul\n      or\n      swap1\n      sstore\n      pop\n        /* \"LmPool Ver3.0/ERC721.sol\":1636:1644  operator */\n      dup2\n        /* \"LmPool Ver3.0/ERC721.sol\":1609:1656  ApprovalForAll(msg.sender, operator, _approved) */\n      0xffffffffffffffffffffffffffffffffffffffff\n      and\n        /* \"LmPool Ver3.0/ERC721.sol\":1624:1634  msg.sender */\n      caller\n        /* \"LmPool Ver3.0/ERC721.sol\":1609:1656  ApprovalForAll(msg.sender, operator, _approved) */\n      0xffffffffffffffffffffffffffffffffffffffff\n      and\n      0x17307eab39ab6107e8899845ad3d59bd9653f200f220920489ca2b5937696c31\n        /* \"LmPool Ver3.0/ERC721.sol\":1646:1655  _approved */\n      dup4\n        /* \"LmPool Ver3.0/ERC721.sol\":1609:1656  ApprovalForAll(msg.sender, operator, _approved) */\n      mload(0x40)\n      tag_106\n      swap2\n      swap1\n      tag_19\n      jump\t// in\n    tag_106:\n      mload(0x40)\n      dup1\n      swap2\n      sub\n      swap1\n      log3\n        /* \"LmPool Ver3.0/ERC721.sol\":1464:1663  function setApprovalForAll(address operator, bool _approved) external {... */\n      pop\n      pop\n      jump\t// out\n        /* \"LmPool Ver3.0/ERC721.sol\":3506:4031  function safeTransferFrom(... */\n    tag_54:\n        /* \"LmPool Ver3.0/ERC721.sol\":3653:3684  transferFrom(from, to, tokenId) */\n      tag_108\n        /* \"LmPool Ver3.0/ERC721.sol\":3666:3670  from */\n      dup6\n        /* \"LmPool Ver3.0/ERC721.sol\":3672:3674  to */\n      dup6\n        /* \"LmPool Ver3.0/ERC721.sol\":3676:3683  tokenId */\n      dup6\n        /* \"LmPool Ver3.0/ERC721.sol\":3653:3665  transferFrom */\n      tag_33\n        /* \"LmPool Ver3.0/ERC721.sol\":3653:3684  transferFrom(from, to, tokenId) */\n      jump\t// in\n    tag_108:\n        /* \"LmPool Ver3.0/ERC721.sol\":3733:3734  0 */\n      0x00\n        /* \"LmPool Ver3.0/ERC721.sol\":3715:3717  to */\n      dup5\n        /* \"LmPool Ver3.0/ERC721.sol\":3715:3729  to.code.length */\n      0xffffffffffffffffffffffffffffffffffffffff\n      and\n      extcodesize\n        /* \"LmPool Ver3.0/ERC721.sol\":3715:3734  to.code.length == 0 */\n      eq\n        /* \"LmPool Ver3.0/ERC721.sol\":3715:3982  to.code.length == 0 ||... */\n      dup1\n      tag_109\n      jumpi\n      pop\n        /* \"LmPool Ver3.0/ERC721.sol\":3941:3982  IERC721Receiver.onERC721Received.selector */\n      shl(0xe0, 0x150b7a02)\n        /* \"LmPool Ver3.0/ERC721.sol\":3754:3982  IERC721Receiver(to).onERC721Received(... */\n      not(0xffffffffffffffffffffffffffffffffffffffffffffffffffffffff)\n      and\n        /* \"LmPool Ver3.0/ERC721.sol\":3770:3772  to */\n      dup5\n        /* \"LmPool Ver3.0/ERC721.sol\":3754:3790  IERC721Receiver(to).onERC721Received */\n      0xffffffffffffffffffffffffffffffffffffffff\n      and\n      0x150b7a02\n        /* \"LmPool Ver3.0/ERC721.sol\":3812:3822  msg.sender */\n      caller\n        /* \"LmPool Ver3.0/ERC721.sol\":3844:3848  from */\n      dup9\n        /* \"LmPool Ver3.0/ERC721.sol\":3870:3877  tokenId */\n      dup8\n        /* \"LmPool Ver3.0/ERC721.sol\":3899:3903  data */\n      dup8\n      dup8\n        /* \"LmPool Ver3.0/ERC721.sol\":3754:3921  IERC721Receiver(to).onERC721Received(... */\n      mload(0x40)\n      dup7\n      0xffffffff\n      and\n      0xe0\n      shl\n      dup2\n      mstore\n      0x04\n      add\n      tag_110\n      swap6\n      swap5\n      swap4\n      swap3\n      swap2\n      swap1\n      tag_111\n      jump\t// in\n    tag_110:\n      0x20\n      mload(0x40)\n      dup1\n      dup4\n      sub\n      dup2\n      0x00\n      dup8\n      gas\n      call\n      iszero\n      dup1\n      iszero\n      tag_113\n      jumpi\n      returndatasize\n      0x00\n      dup1\n      returndatacopy\n      revert(0x00, returndatasize)\n    tag_113:\n      pop\n      pop\n      pop\n      pop\n      mload(0x40)\n      returndatasize\n      not(0x1f)\n      0x1f\n      dup3\n      add\n      and\n      dup3\n      add\n      dup1\n      0x40\n      mstore\n      pop\n      dup2\n      add\n      swap1\n      tag_114\n      swap2\n      swap1\n      tag_94\n      jump\t// in\n    tag_114:\n        /* \"LmPool Ver3.0/ERC721.sol\":3754:3982  IERC721Receiver(to).onERC721Received(... */\n      not(0xffffffffffffffffffffffffffffffffffffffffffffffffffffffff)\n      and\n      eq\n        /* \"LmPool Ver3.0/ERC721.sol\":3715:3982  to.code.length == 0 ||... */\n    tag_109:\n        /* \"LmPool Ver3.0/ERC721.sol\":3694:4024  require(... */\n      tag_115\n      jumpi\n      mload(0x40)\n      0x08c379a000000000000000000000000000000000000000000000000000000000\n      dup2\n      mstore\n      0x04\n      add\n      tag_116\n      swap1\n      tag_97\n      jump\t// in\n    tag_116:\n      mload(0x40)\n      dup1\n      swap2\n      sub\n      swap1\n      revert\n    tag_115:\n        /* \"LmPool Ver3.0/ERC721.sol\":3506:4031  function safeTransferFrom(... */\n      pop\n      pop\n      pop\n      pop\n      pop\n      jump\t// out\n        /* \"LmPool Ver3.0/ERC721.sol\":782:850  mapping(address => mapping(address => bool)) public isApprovalForAll */\n    tag_58:\n      mstore(0x20, 0x03)\n      dup2\n      0x00\n      mstore\n      mstore(0x20, keccak256(0x00, 0x40))\n      dup1\n      0x00\n      mstore\n      keccak256(0x00, 0x40)\n      0x00\n      swap2\n      pop\n      swap2\n      pop\n      swap1\n      sload\n      swap1\n      0x0100\n      exp\n      swap1\n      div\n      0xff\n      and\n      dup2\n      jump\t// out\n        /* \"LmPool Ver3.0/ERC721.sol\":2215:2487  function _isApprovedOrOwner(... */\n    tag_79:\n        /* \"LmPool Ver3.0/ERC721.sol\":2345:2349  bool */\n      0x00\n        /* \"LmPool Ver3.0/ERC721.sol\":2380:2385  owner */\n      dup4\n        /* \"LmPool Ver3.0/ERC721.sol\":2369:2385  spender == owner */\n      0xffffffffffffffffffffffffffffffffffffffff\n      and\n        /* \"LmPool Ver3.0/ERC721.sol\":2369:2376  spender */\n      dup4\n        /* \"LmPool Ver3.0/ERC721.sol\":2369:2385  spender == owner */\n      0xffffffffffffffffffffffffffffffffffffffff\n      and\n      eq\n        /* \"LmPool Ver3.0/ERC721.sol\":2369:2433  spender == owner ||... */\n      dup1\n      tag_118\n      jumpi\n      pop\n        /* \"LmPool Ver3.0/ERC721.sol\":2401:2417  isApprovalForAll */\n      0x03\n        /* \"LmPool Ver3.0/ERC721.sol\":2401:2424  isApprovalForAll[owner] */\n      0x00\n        /* \"LmPool Ver3.0/ERC721.sol\":2418:2423  owner */\n      dup6\n        /* \"LmPool Ver3.0/ERC721.sol\":2401:2424  isApprovalForAll[owner] */\n      0xffffffffffffffffffffffffffffffffffffffff\n      and\n      0xffffffffffffffffffffffffffffffffffffffff\n      and\n      dup2\n      mstore\n      0x20\n      add\n      swap1\n      dup2\n      mstore\n      0x20\n      add\n      0x00\n      keccak256\n        /* \"LmPool Ver3.0/ERC721.sol\":2401:2433  isApprovalForAll[owner][spender] */\n      0x00\n        /* \"LmPool Ver3.0/ERC721.sol\":2425:2432  spender */\n      dup5\n        /* \"LmPool Ver3.0/ERC721.sol\":2401:2433  isApprovalForAll[owner][spender] */\n      0xffffffffffffffffffffffffffffffffffffffff\n      and\n      0xffffffffffffffffffffffffffffffffffffffff\n      and\n      dup2\n      mstore\n      0x20\n      add\n      swap1\n      dup2\n      mstore\n      0x20\n      add\n      0x00\n      keccak256\n      0x00\n      swap1\n      sload\n      swap1\n      0x0100\n      exp\n      swap1\n      div\n      0xff\n      and\n        /* \"LmPool Ver3.0/ERC721.sol\":2369:2433  spender == owner ||... */\n    tag_118:\n        /* \"LmPool Ver3.0/ERC721.sol\":2369:2479  spender == owner ||... */\n      dup1\n      tag_119\n      jumpi\n      pop\n        /* \"LmPool Ver3.0/ERC721.sol\":2460:2470  _approvals */\n      0x02\n        /* \"LmPool Ver3.0/ERC721.sol\":2460:2479  _approvals[tokenId] */\n      0x00\n        /* \"LmPool Ver3.0/ERC721.sol\":2471:2478  tokenId */\n      dup4\n        /* \"LmPool Ver3.0/ERC721.sol\":2460:2479  _approvals[tokenId] */\n      dup2\n      mstore\n      0x20\n      add\n      swap1\n      dup2\n      mstore\n      0x20\n      add\n      0x00\n      keccak256\n      0x00\n      swap1\n      sload\n      swap1\n      0x0100\n      exp\n      swap1\n      div\n      0xffffffffffffffffffffffffffffffffffffffff\n      and\n        /* \"LmPool Ver3.0/ERC721.sol\":2449:2479  spender == _approvals[tokenId] */\n      0xffffffffffffffffffffffffffffffffffffffff\n      and\n        /* \"LmPool Ver3.0/ERC721.sol\":2449:2456  spender */\n      dup4\n        /* \"LmPool Ver3.0/ERC721.sol\":2449:2479  spender == _approvals[tokenId] */\n      0xffffffffffffffffffffffffffffffffffffffff\n      and\n      eq\n        /* \"LmPool Ver3.0/ERC721.sol\":2369:2479  spender == owner ||... */\n    tag_119:\n        /* \"LmPool Ver3.0/ERC721.sol\":2361:2480  return (spender == owner ||... */\n      swap1\n      pop\n        /* \"LmPool Ver3.0/ERC721.sol\":2215:2487  function _isApprovedOrOwner(... */\n      swap4\n      swap3\n      pop\n      pop\n      pop\n      jump\t// out\n        /* \"#utility.yul\":88:205   */\n    tag_121:\n        /* \"#utility.yul\":197:198   */\n      0x00\n        /* \"#utility.yul\":194:195   */\n      dup1\n        /* \"#utility.yul\":187:199   */\n      revert\n        /* \"#utility.yul\":211:328   */\n    tag_122:\n        /* \"#utility.yul\":320:321   */\n      0x00\n        /* \"#utility.yul\":317:318   */\n      dup1\n        /* \"#utility.yul\":310:322   */\n      revert\n        /* \"#utility.yul\":334:483   */\n    tag_123:\n        /* \"#utility.yul\":370:377   */\n      0x00\n        /* \"#utility.yul\":410:476   */\n      0xffffffff00000000000000000000000000000000000000000000000000000000\n        /* \"#utility.yul\":403:408   */\n      dup3\n        /* \"#utility.yul\":399:477   */\n      and\n        /* \"#utility.yul\":388:477   */\n      swap1\n      pop\n        /* \"#utility.yul\":334:483   */\n      swap2\n      swap1\n      pop\n      jump\t// out\n        /* \"#utility.yul\":489:609   */\n    tag_124:\n        /* \"#utility.yul\":561:584   */\n      tag_170\n        /* \"#utility.yul\":578:583   */\n      dup2\n        /* \"#utility.yul\":561:584   */\n      tag_123\n      jump\t// in\n    tag_170:\n        /* \"#utility.yul\":554:559   */\n      dup2\n        /* \"#utility.yul\":551:585   */\n      eq\n        /* \"#utility.yul\":541:603   */\n      tag_171\n      jumpi\n        /* \"#utility.yul\":599:600   */\n      0x00\n        /* \"#utility.yul\":596:597   */\n      dup1\n        /* \"#utility.yul\":589:601   */\n      revert\n        /* \"#utility.yul\":541:603   */\n    tag_171:\n        /* \"#utility.yul\":489:609   */\n      pop\n      jump\t// out\n        /* \"#utility.yul\":615:752   */\n    tag_125:\n        /* \"#utility.yul\":660:665   */\n      0x00\n        /* \"#utility.yul\":698:704   */\n      dup2\n        /* \"#utility.yul\":685:705   */\n      calldataload\n        /* \"#utility.yul\":676:705   */\n      swap1\n      pop\n        /* \"#utility.yul\":714:746   */\n      tag_173\n        /* \"#utility.yul\":740:745   */\n      dup2\n        /* \"#utility.yul\":714:746   */\n      tag_124\n      jump\t// in\n    tag_173:\n        /* \"#utility.yul\":615:752   */\n      swap3\n      swap2\n      pop\n      pop\n      jump\t// out\n        /* \"#utility.yul\":758:1085   */\n    tag_16:\n        /* \"#utility.yul\":816:822   */\n      0x00\n        /* \"#utility.yul\":865:867   */\n      0x20\n        /* \"#utility.yul\":853:862   */\n      dup3\n        /* \"#utility.yul\":844:851   */\n      dup5\n        /* \"#utility.yul\":840:863   */\n      sub\n        /* \"#utility.yul\":836:868   */\n      slt\n        /* \"#utility.yul\":833:952   */\n      iszero\n      tag_175\n      jumpi\n        /* \"#utility.yul\":871:950   */\n      tag_176\n      tag_121\n      jump\t// in\n    tag_176:\n        /* \"#utility.yul\":833:952   */\n    tag_175:\n        /* \"#utility.yul\":991:992   */\n      0x00\n        /* \"#utility.yul\":1016:1068   */\n      tag_177\n        /* \"#utility.yul\":1060:1067   */\n      dup5\n        /* \"#utility.yul\":1051:1057   */\n      dup3\n        /* \"#utility.yul\":1040:1049   */\n      dup6\n        /* \"#utility.yul\":1036:1058   */\n      add\n        /* \"#utility.yul\":1016:1068   */\n      tag_125\n      jump\t// in\n    tag_177:\n        /* \"#utility.yul\":1006:1068   */\n      swap2\n      pop\n        /* \"#utility.yul\":962:1078   */\n      pop\n        /* \"#utility.yul\":758:1085   */\n      swap3\n      swap2\n      pop\n      pop\n      jump\t// out\n        /* \"#utility.yul\":1091:1181   */\n    tag_126:\n        /* \"#utility.yul\":1125:1132   */\n      0x00\n        /* \"#utility.yul\":1168:1173   */\n      dup2\n        /* \"#utility.yul\":1161:1174   */\n      iszero\n        /* \"#utility.yul\":1154:1175   */\n      iszero\n        /* \"#utility.yul\":1143:1175   */\n      swap1\n      pop\n        /* \"#utility.yul\":1091:1181   */\n      swap2\n      swap1\n      pop\n      jump\t// out\n        /* \"#utility.yul\":1187:1296   */\n    tag_127:\n        /* \"#utility.yul\":1268:1289   */\n      tag_180\n        /* \"#utility.yul\":1283:1288   */\n      dup2\n        /* \"#utility.yul\":1268:1289   */\n      tag_126\n      jump\t// in\n    tag_180:\n        /* \"#utility.yul\":1263:1266   */\n      dup3\n        /* \"#utility.yul\":1256:1290   */\n      mstore\n        /* \"#utility.yul\":1187:1296   */\n      pop\n      pop\n      jump\t// out\n        /* \"#utility.yul\":1302:1512   */\n    tag_19:\n        /* \"#utility.yul\":1389:1393   */\n      0x00\n        /* \"#utility.yul\":1427:1429   */\n      0x20\n        /* \"#utility.yul\":1416:1425   */\n      dup3\n        /* \"#utility.yul\":1412:1430   */\n      add\n        /* \"#utility.yul\":1404:1430   */\n      swap1\n      pop\n        /* \"#utility.yul\":1440:1505   */\n      tag_182\n        /* \"#utility.yul\":1502:1503   */\n      0x00\n        /* \"#utility.yul\":1491:1500   */\n      dup4\n        /* \"#utility.yul\":1487:1504   */\n      add\n        /* \"#utility.yul\":1478:1484   */\n      dup5\n        /* \"#utility.yul\":1440:1505   */\n      tag_127\n      jump\t// in\n    tag_182:\n        /* \"#utility.yul\":1302:1512   */\n      swap3\n      swap2\n      pop\n      pop\n      jump\t// out\n        /* \"#utility.yul\":1518:1595   */\n    tag_128:\n        /* \"#utility.yul\":1555:1562   */\n      0x00\n        /* \"#utility.yul\":1584:1589   */\n      dup2\n        /* \"#utility.yul\":1573:1589   */\n      swap1\n      pop\n        /* \"#utility.yul\":1518:1595   */\n      swap2\n      swap1\n      pop\n      jump\t// out\n        /* \"#utility.yul\":1601:1723   */\n    tag_129:\n        /* \"#utility.yul\":1674:1698   */\n      tag_185\n        /* \"#utility.yul\":1692:1697   */\n      dup2\n        /* \"#utility.yul\":1674:1698   */\n      tag_128\n      jump\t// in\n    tag_185:\n        /* \"#utility.yul\":1667:1672   */\n      dup2\n        /* \"#utility.yul\":1664:1699   */\n      eq\n        /* \"#utility.yul\":1654:1717   */\n      tag_186\n      jumpi\n        /* \"#utility.yul\":1713:1714   */\n      0x00\n        /* \"#utility.yul\":1710:1711   */\n      dup1\n        /* \"#utility.yul\":1703:1715   */\n      revert\n        /* \"#utility.yul\":1654:1717   */\n    tag_186:\n        /* \"#utility.yul\":1601:1723   */\n      pop\n      jump\t// out\n        /* \"#utility.yul\":1729:1868   */\n    tag_130:\n        /* \"#utility.yul\":1775:1780   */\n      0x00\n        /* \"#utility.yul\":1813:1819   */\n      dup2\n        /* \"#utility.yul\":1800:1820   */\n      calldataload\n        /* \"#utility.yul\":1791:1820   */\n      swap1\n      pop\n        /* \"#utility.yul\":1829:1862   */\n      tag_188\n        /* \"#utility.yul\":1856:1861   */\n      dup2\n        /* \"#utility.yul\":1829:1862   */\n      tag_129\n      jump\t// in\n    tag_188:\n        /* \"#utility.yul\":1729:1868   */\n      swap3\n      swap2\n      pop\n      pop\n      jump\t// out\n        /* \"#utility.yul\":1874:2203   */\n    tag_22:\n        /* \"#utility.yul\":1933:1939   */\n      0x00\n        /* \"#utility.yul\":1982:1984   */\n      0x20\n        /* \"#utility.yul\":1970:1979   */\n      dup3\n        /* \"#utility.yul\":1961:1968   */\n      dup5\n        /* \"#utility.yul\":1957:1980   */\n      sub\n        /* \"#utility.yul\":1953:1985   */\n      slt\n        /* \"#utility.yul\":1950:2069   */\n      iszero\n      tag_190\n      jumpi\n        /* \"#utility.yul\":1988:2067   */\n      tag_191\n      tag_121\n      jump\t// in\n    tag_191:\n        /* \"#utility.yul\":1950:2069   */\n    tag_190:\n        /* \"#utility.yul\":2108:2109   */\n      0x00\n        /* \"#utility.yul\":2133:2186   */\n      tag_192\n        /* \"#utility.yul\":2178:2185   */\n      dup5\n        /* \"#utility.yul\":2169:2175   */\n      dup3\n        /* \"#utility.yul\":2158:2167   */\n      dup6\n        /* \"#utility.yul\":2154:2176   */\n      add\n        /* \"#utility.yul\":2133:2186   */\n      tag_130\n      jump\t// in\n    tag_192:\n        /* \"#utility.yul\":2123:2186   */\n      swap2\n      pop\n        /* \"#utility.yul\":2079:2196   */\n      pop\n        /* \"#utility.yul\":1874:2203   */\n      swap3\n      swap2\n      pop\n      pop\n      jump\t// out\n        /* \"#utility.yul\":2209:2335   */\n    tag_131:\n        /* \"#utility.yul\":2246:2253   */\n      0x00\n        /* \"#utility.yul\":2286:2328   */\n      0xffffffffffffffffffffffffffffffffffffffff\n        /* \"#utility.yul\":2279:2284   */\n      dup3\n        /* \"#utility.yul\":2275:2329   */\n      and\n        /* \"#utility.yul\":2264:2329   */\n      swap1\n      pop\n        /* \"#utility.yul\":2209:2335   */\n      swap2\n      swap1\n      pop\n      jump\t// out\n        /* \"#utility.yul\":2341:2437   */\n    tag_132:\n        /* \"#utility.yul\":2378:2385   */\n      0x00\n        /* \"#utility.yul\":2407:2431   */\n      tag_195\n        /* \"#utility.yul\":2425:2430   */\n      dup3\n        /* \"#utility.yul\":2407:2431   */\n      tag_131\n      jump\t// in\n    tag_195:\n        /* \"#utility.yul\":2396:2431   */\n      swap1\n      pop\n        /* \"#utility.yul\":2341:2437   */\n      swap2\n      swap1\n      pop\n      jump\t// out\n        /* \"#utility.yul\":2443:2561   */\n    tag_133:\n        /* \"#utility.yul\":2530:2554   */\n      tag_197\n        /* \"#utility.yul\":2548:2553   */\n      dup2\n        /* \"#utility.yul\":2530:2554   */\n      tag_132\n      jump\t// in\n    tag_197:\n        /* \"#utility.yul\":2525:2528   */\n      dup3\n        /* \"#utility.yul\":2518:2555   */\n      mstore\n        /* \"#utility.yul\":2443:2561   */\n      pop\n      pop\n      jump\t// out\n        /* \"#utility.yul\":2567:2789   */\n    tag_25:\n        /* \"#utility.yul\":2660:2664   */\n      0x00\n        /* \"#utility.yul\":2698:2700   */\n      0x20\n        /* \"#utility.yul\":2687:2696   */\n      dup3\n        /* \"#utility.yul\":2683:2701   */\n      add\n        /* \"#utility.yul\":2675:2701   */\n      swap1\n      pop\n        /* \"#utility.yul\":2711:2782   */\n      tag_199\n        /* \"#utility.yul\":2779:2780   */\n      0x00\n        /* \"#utility.yul\":2768:2777   */\n      dup4\n        /* \"#utility.yul\":2764:2781   */\n      add\n        /* \"#utility.yul\":2755:2761   */\n      dup5\n        /* \"#utility.yul\":2711:2782   */\n      tag_133\n      jump\t// in\n    tag_199:\n        /* \"#utility.yul\":2567:2789   */\n      swap3\n      swap2\n      pop\n      pop\n      jump\t// out\n        /* \"#utility.yul\":2795:2917   */\n    tag_134:\n        /* \"#utility.yul\":2868:2892   */\n      tag_201\n        /* \"#utility.yul\":2886:2891   */\n      dup2\n        /* \"#utility.yul\":2868:2892   */\n      tag_132\n      jump\t// in\n    tag_201:\n        /* \"#utility.yul\":2861:2866   */\n      dup2\n        /* \"#utility.yul\":2858:2893   */\n      eq\n        /* \"#utility.yul\":2848:2911   */\n      tag_202\n      jumpi\n        /* \"#utility.yul\":2907:2908   */\n      0x00\n        /* \"#utility.yul\":2904:2905   */\n      dup1\n        /* \"#utility.yul\":2897:2909   */\n      revert\n        /* \"#utility.yul\":2848:2911   */\n    tag_202:\n        /* \"#utility.yul\":2795:2917   */\n      pop\n      jump\t// out\n        /* \"#utility.yul\":2923:3062   */\n    tag_135:\n        /* \"#utility.yul\":2969:2974   */\n      0x00\n        /* \"#utility.yul\":3007:3013   */\n      dup2\n        /* \"#utility.yul\":2994:3014   */\n      calldataload\n        /* \"#utility.yul\":2985:3014   */\n      swap1\n      pop\n        /* \"#utility.yul\":3023:3056   */\n      tag_204\n        /* \"#utility.yul\":3050:3055   */\n      dup2\n        /* \"#utility.yul\":3023:3056   */\n      tag_134\n      jump\t// in\n    tag_204:\n        /* \"#utility.yul\":2923:3062   */\n      swap3\n      swap2\n      pop\n      pop\n      jump\t// out\n        /* \"#utility.yul\":3068:3542   */\n    tag_28:\n        /* \"#utility.yul\":3136:3142   */\n      0x00\n        /* \"#utility.yul\":3144:3150   */\n      dup1\n        /* \"#utility.yul\":3193:3195   */\n      0x40\n        /* \"#utility.yul\":3181:3190   */\n      dup4\n        /* \"#utility.yul\":3172:3179   */\n      dup6\n        /* \"#utility.yul\":3168:3191   */\n      sub\n        /* \"#utility.yul\":3164:3196   */\n      slt\n        /* \"#utility.yul\":3161:3280   */\n      iszero\n      tag_206\n      jumpi\n        /* \"#utility.yul\":3199:3278   */\n      tag_207\n      tag_121\n      jump\t// in\n    tag_207:\n        /* \"#utility.yul\":3161:3280   */\n    tag_206:\n        /* \"#utility.yul\":3319:3320   */\n      0x00\n        /* \"#utility.yul\":3344:3397   */\n      tag_208\n        /* \"#utility.yul\":3389:3396   */\n      dup6\n        /* \"#utility.yul\":3380:3386   */\n      dup3\n        /* \"#utility.yul\":3369:3378   */\n      dup7\n        /* \"#utility.yul\":3365:3387   */\n      add\n        /* \"#utility.yul\":3344:3397   */\n      tag_135\n      jump\t// in\n    tag_208:\n        /* \"#utility.yul\":3334:3397   */\n      swap3\n      pop\n        /* \"#utility.yul\":3290:3407   */\n      pop\n        /* \"#utility.yul\":3446:3448   */\n      0x20\n        /* \"#utility.yul\":3472:3525   */\n      tag_209\n        /* \"#utility.yul\":3517:3524   */\n      dup6\n        /* \"#utility.yul\":3508:3514   */\n      dup3\n        /* \"#utility.yul\":3497:3506   */\n      dup7\n        /* \"#utility.yul\":3493:3515   */\n      add\n        /* \"#utility.yul\":3472:3525   */\n      tag_130\n      jump\t// in\n    tag_209:\n        /* \"#utility.yul\":3462:3525   */\n      swap2\n      pop\n        /* \"#utility.yul\":3417:3535   */\n      pop\n        /* \"#utility.yul\":3068:3542   */\n      swap3\n      pop\n      swap3\n      swap1\n      pop\n      jump\t// out\n        /* \"#utility.yul\":3548:4167   */\n    tag_32:\n        /* \"#utility.yul\":3625:3631   */\n      0x00\n        /* \"#utility.yul\":3633:3639   */\n      dup1\n        /* \"#utility.yul\":3641:3647   */\n      0x00\n        /* \"#utility.yul\":3690:3692   */\n      0x60\n        /* \"#utility.yul\":3678:3687   */\n      dup5\n        /* \"#utility.yul\":3669:3676   */\n      dup7\n        /* \"#utility.yul\":3665:3688   */\n      sub\n        /* \"#utility.yul\":3661:3693   */\n      slt\n        /* \"#utility.yul\":3658:3777   */\n      iszero\n      tag_211\n      jumpi\n        /* \"#utility.yul\":3696:3775   */\n      tag_212\n      tag_121\n      jump\t// in\n    tag_212:\n        /* \"#utility.yul\":3658:3777   */\n    tag_211:\n        /* \"#utility.yul\":3816:3817   */\n      0x00\n        /* \"#utility.yul\":3841:3894   */\n      tag_213\n        /* \"#utility.yul\":3886:3893   */\n      dup7\n        /* \"#utility.yul\":3877:3883   */\n      dup3\n        /* \"#utility.yul\":3866:3875   */\n      dup8\n        /* \"#utility.yul\":3862:3884   */\n      add\n        /* \"#utility.yul\":3841:3894   */\n      tag_135\n      jump\t// in\n    tag_213:\n        /* \"#utility.yul\":3831:3894   */\n      swap4\n      pop\n        /* \"#utility.yul\":3787:3904   */\n      pop\n        /* \"#utility.yul\":3943:3945   */\n      0x20\n        /* \"#utility.yul\":3969:4022   */\n      tag_214\n        /* \"#utility.yul\":4014:4021   */\n      dup7\n        /* \"#utility.yul\":4005:4011   */\n      dup3\n        /* \"#utility.yul\":3994:4003   */\n      dup8\n        /* \"#utility.yul\":3990:4012   */\n      add\n        /* \"#utility.yul\":3969:4022   */\n      tag_135\n      jump\t// in\n    tag_214:\n        /* \"#utility.yul\":3959:4022   */\n      swap3\n      pop\n        /* \"#utility.yul\":3914:4032   */\n      pop\n        /* \"#utility.yul\":4071:4073   */\n      0x40\n        /* \"#utility.yul\":4097:4150   */\n      tag_215\n        /* \"#utility.yul\":4142:4149   */\n      dup7\n        /* \"#utility.yul\":4133:4139   */\n      dup3\n        /* \"#utility.yul\":4122:4131   */\n      dup8\n        /* \"#utility.yul\":4118:4140   */\n      add\n        /* \"#utility.yul\":4097:4150   */\n      tag_130\n      jump\t// in\n    tag_215:\n        /* \"#utility.yul\":4087:4150   */\n      swap2\n      pop\n        /* \"#utility.yul\":4042:4160   */\n      pop\n        /* \"#utility.yul\":3548:4167   */\n      swap3\n      pop\n      swap3\n      pop\n      swap3\n      jump\t// out\n        /* \"#utility.yul\":4173:4502   */\n    tag_43:\n        /* \"#utility.yul\":4232:4238   */\n      0x00\n        /* \"#utility.yul\":4281:4283   */\n      0x20\n        /* \"#utility.yul\":4269:4278   */\n      dup3\n        /* \"#utility.yul\":4260:4267   */\n      dup5\n        /* \"#utility.yul\":4256:4279   */\n      sub\n        /* \"#utility.yul\":4252:4284   */\n      slt\n        /* \"#utility.yul\":4249:4368   */\n      iszero\n      tag_217\n      jumpi\n        /* \"#utility.yul\":4287:4366   */\n      tag_218\n      tag_121\n      jump\t// in\n    tag_218:\n        /* \"#utility.yul\":4249:4368   */\n    tag_217:\n        /* \"#utility.yul\":4407:4408   */\n      0x00\n        /* \"#utility.yul\":4432:4485   */\n      tag_219\n        /* \"#utility.yul\":4477:4484   */\n      dup5\n        /* \"#utility.yul\":4468:4474   */\n      dup3\n        /* \"#utility.yul\":4457:4466   */\n      dup6\n        /* \"#utility.yul\":4453:4475   */\n      add\n        /* \"#utility.yul\":4432:4485   */\n      tag_135\n      jump\t// in\n    tag_219:\n        /* \"#utility.yul\":4422:4485   */\n      swap2\n      pop\n        /* \"#utility.yul\":4378:4495   */\n      pop\n        /* \"#utility.yul\":4173:4502   */\n      swap3\n      swap2\n      pop\n      pop\n      jump\t// out\n        /* \"#utility.yul\":4508:4626   */\n    tag_136:\n        /* \"#utility.yul\":4595:4619   */\n      tag_221\n        /* \"#utility.yul\":4613:4618   */\n      dup2\n        /* \"#utility.yul\":4595:4619   */\n      tag_128\n      jump\t// in\n    tag_221:\n        /* \"#utility.yul\":4590:4593   */\n      dup3\n        /* \"#utility.yul\":4583:4620   */\n      mstore\n        /* \"#utility.yul\":4508:4626   */\n      pop\n      pop\n      jump\t// out\n        /* \"#utility.yul\":4632:4854   */\n    tag_46:\n        /* \"#utility.yul\":4725:4729   */\n      0x00\n        /* \"#utility.yul\":4763:4765   */\n      0x20\n        /* \"#utility.yul\":4752:4761   */\n      dup3\n        /* \"#utility.yul\":4748:4766   */\n      add\n        /* \"#utility.yul\":4740:4766   */\n      swap1\n      pop\n        /* \"#utility.yul\":4776:4847   */\n      tag_223\n        /* \"#utility.yul\":4844:4845   */\n      0x00\n        /* \"#utility.yul\":4833:4842   */\n      dup4\n        /* \"#utility.yul\":4829:4846   */\n      add\n        /* \"#utility.yul\":4820:4826   */\n      dup5\n        /* \"#utility.yul\":4776:4847   */\n      tag_136\n      jump\t// in\n    tag_223:\n        /* \"#utility.yul\":4632:4854   */\n      swap3\n      swap2\n      pop\n      pop\n      jump\t// out\n        /* \"#utility.yul\":4860:4976   */\n    tag_137:\n        /* \"#utility.yul\":4930:4951   */\n      tag_225\n        /* \"#utility.yul\":4945:4950   */\n      dup2\n        /* \"#utility.yul\":4930:4951   */\n      tag_126\n      jump\t// in\n    tag_225:\n        /* \"#utility.yul\":4923:4928   */\n      dup2\n        /* \"#utility.yul\":4920:4952   */\n      eq\n        /* \"#utility.yul\":4910:4970   */\n      tag_226\n      jumpi\n        /* \"#utility.yul\":4966:4967   */\n      0x00\n        /* \"#utility.yul\":4963:4964   */\n      dup1\n        /* \"#utility.yul\":4956:4968   */\n      revert\n        /* \"#utility.yul\":4910:4970   */\n    tag_226:\n        /* \"#utility.yul\":4860:4976   */\n      pop\n      jump\t// out\n        /* \"#utility.yul\":4982:5115   */\n    tag_138:\n        /* \"#utility.yul\":5025:5030   */\n      0x00\n        /* \"#utility.yul\":5063:5069   */\n      dup2\n        /* \"#utility.yul\":5050:5070   */\n      calldataload\n        /* \"#utility.yul\":5041:5070   */\n      swap1\n      pop\n        /* \"#utility.yul\":5079:5109   */\n      tag_228\n        /* \"#utility.yul\":5103:5108   */\n      dup2\n        /* \"#utility.yul\":5079:5109   */\n      tag_137\n      jump\t// in\n    tag_228:\n        /* \"#utility.yul\":4982:5115   */\n      swap3\n      swap2\n      pop\n      pop\n      jump\t// out\n        /* \"#utility.yul\":5121:5589   */\n    tag_49:\n        /* \"#utility.yul\":5186:5192   */\n      0x00\n        /* \"#utility.yul\":5194:5200   */\n      dup1\n        /* \"#utility.yul\":5243:5245   */\n      0x40\n        /* \"#utility.yul\":5231:5240   */\n      dup4\n        /* \"#utility.yul\":5222:5229   */\n      dup6\n        /* \"#utility.yul\":5218:5241   */\n      sub\n        /* \"#utility.yul\":5214:5246   */\n      slt\n        /* \"#utility.yul\":5211:5330   */\n      iszero\n      tag_230\n      jumpi\n        /* \"#utility.yul\":5249:5328   */\n      tag_231\n      tag_121\n      jump\t// in\n    tag_231:\n        /* \"#utility.yul\":5211:5330   */\n    tag_230:\n        /* \"#utility.yul\":5369:5370   */\n      0x00\n        /* \"#utility.yul\":5394:5447   */\n      tag_232\n        /* \"#utility.yul\":5439:5446   */\n      dup6\n        /* \"#utility.yul\":5430:5436   */\n      dup3\n        /* \"#utility.yul\":5419:5428   */\n      dup7\n        /* \"#utility.yul\":5415:5437   */\n      add\n        /* \"#utility.yul\":5394:5447   */\n      tag_135\n      jump\t// in\n    tag_232:\n        /* \"#utility.yul\":5384:5447   */\n      swap3\n      pop\n        /* \"#utility.yul\":5340:5457   */\n      pop\n        /* \"#utility.yul\":5496:5498   */\n      0x20\n        /* \"#utility.yul\":5522:5572   */\n      tag_233\n        /* \"#utility.yul\":5564:5571   */\n      dup6\n        /* \"#utility.yul\":5555:5561   */\n      dup3\n        /* \"#utility.yul\":5544:5553   */\n      dup7\n        /* \"#utility.yul\":5540:5562   */\n      add\n        /* \"#utility.yul\":5522:5572   */\n      tag_138\n      jump\t// in\n    tag_233:\n        /* \"#utility.yul\":5512:5572   */\n      swap2\n      pop\n        /* \"#utility.yul\":5467:5582   */\n      pop\n        /* \"#utility.yul\":5121:5589   */\n      swap3\n      pop\n      swap3\n      swap1\n      pop\n      jump\t// out\n        /* \"#utility.yul\":5595:5712   */\n    tag_139:\n        /* \"#utility.yul\":5704:5705   */\n      0x00\n        /* \"#utility.yul\":5701:5702   */\n      dup1\n        /* \"#utility.yul\":5694:5706   */\n      revert\n        /* \"#utility.yul\":5718:5835   */\n    tag_140:\n        /* \"#utility.yul\":5827:5828   */\n      0x00\n        /* \"#utility.yul\":5824:5825   */\n      dup1\n        /* \"#utility.yul\":5817:5829   */\n      revert\n        /* \"#utility.yul\":5841:5958   */\n    tag_141:\n        /* \"#utility.yul\":5950:5951   */\n      0x00\n        /* \"#utility.yul\":5947:5948   */\n      dup1\n        /* \"#utility.yul\":5940:5952   */\n      revert\n        /* \"#utility.yul\":5977:6529   */\n    tag_142:\n        /* \"#utility.yul\":6034:6042   */\n      0x00\n        /* \"#utility.yul\":6044:6050   */\n      dup1\n        /* \"#utility.yul\":6094:6097   */\n      dup4\n        /* \"#utility.yul\":6087:6091   */\n      0x1f\n        /* \"#utility.yul\":6079:6085   */\n      dup5\n        /* \"#utility.yul\":6075:6092   */\n      add\n        /* \"#utility.yul\":6071:6098   */\n      slt\n        /* \"#utility.yul\":6061:6183   */\n      tag_238\n      jumpi\n        /* \"#utility.yul\":6102:6181   */\n      tag_239\n      tag_139\n      jump\t// in\n    tag_239:\n        /* \"#utility.yul\":6061:6183   */\n    tag_238:\n        /* \"#utility.yul\":6215:6221   */\n      dup3\n        /* \"#utility.yul\":6202:6222   */\n      calldataload\n        /* \"#utility.yul\":6192:6222   */\n      swap1\n      pop\n        /* \"#utility.yul\":6245:6263   */\n      0xffffffffffffffff\n        /* \"#utility.yul\":6237:6243   */\n      dup2\n        /* \"#utility.yul\":6234:6264   */\n      gt\n        /* \"#utility.yul\":6231:6348   */\n      iszero\n      tag_240\n      jumpi\n        /* \"#utility.yul\":6267:6346   */\n      tag_241\n      tag_140\n      jump\t// in\n    tag_241:\n        /* \"#utility.yul\":6231:6348   */\n    tag_240:\n        /* \"#utility.yul\":6381:6385   */\n      0x20\n        /* \"#utility.yul\":6373:6379   */\n      dup4\n        /* \"#utility.yul\":6369:6386   */\n      add\n        /* \"#utility.yul\":6357:6386   */\n      swap2\n      pop\n        /* \"#utility.yul\":6435:6438   */\n      dup4\n        /* \"#utility.yul\":6427:6431   */\n      0x01\n        /* \"#utility.yul\":6419:6425   */\n      dup3\n        /* \"#utility.yul\":6415:6432   */\n      mul\n        /* \"#utility.yul\":6405:6413   */\n      dup4\n        /* \"#utility.yul\":6401:6433   */\n      add\n        /* \"#utility.yul\":6398:6439   */\n      gt\n        /* \"#utility.yul\":6395:6523   */\n      iszero\n      tag_242\n      jumpi\n        /* \"#utility.yul\":6442:6521   */\n      tag_243\n      tag_141\n      jump\t// in\n    tag_243:\n        /* \"#utility.yul\":6395:6523   */\n    tag_242:\n        /* \"#utility.yul\":5977:6529   */\n      swap3\n      pop\n      swap3\n      swap1\n      pop\n      jump\t// out\n        /* \"#utility.yul\":6535:7498   */\n    tag_53:\n        /* \"#utility.yul\":6632:6638   */\n      0x00\n        /* \"#utility.yul\":6640:6646   */\n      dup1\n        /* \"#utility.yul\":6648:6654   */\n      0x00\n        /* \"#utility.yul\":6656:6662   */\n      dup1\n        /* \"#utility.yul\":6664:6670   */\n      0x00\n        /* \"#utility.yul\":6713:6716   */\n      0x80\n        /* \"#utility.yul\":6701:6710   */\n      dup7\n        /* \"#utility.yul\":6692:6699   */\n      dup9\n        /* \"#utility.yul\":6688:6711   */\n      sub\n        /* \"#utility.yul\":6684:6717   */\n      slt\n        /* \"#utility.yul\":6681:6801   */\n      iszero\n      tag_245\n      jumpi\n        /* \"#utility.yul\":6720:6799   */\n      tag_246\n      tag_121\n      jump\t// in\n    tag_246:\n        /* \"#utility.yul\":6681:6801   */\n    tag_245:\n        /* \"#utility.yul\":6840:6841   */\n      0x00\n        /* \"#utility.yul\":6865:6918   */\n      tag_247\n        /* \"#utility.yul\":6910:6917   */\n      dup9\n        /* \"#utility.yul\":6901:6907   */\n      dup3\n        /* \"#utility.yul\":6890:6899   */\n      dup10\n        /* \"#utility.yul\":6886:6908   */\n      add\n        /* \"#utility.yul\":6865:6918   */\n      tag_135\n      jump\t// in\n    tag_247:\n        /* \"#utility.yul\":6855:6918   */\n      swap6\n      pop\n        /* \"#utility.yul\":6811:6928   */\n      pop\n        /* \"#utility.yul\":6967:6969   */\n      0x20\n        /* \"#utility.yul\":6993:7046   */\n      tag_248\n        /* \"#utility.yul\":7038:7045   */\n      dup9\n        /* \"#utility.yul\":7029:7035   */\n      dup3\n        /* \"#utility.yul\":7018:7027   */\n      dup10\n        /* \"#utility.yul\":7014:7036   */\n      add\n        /* \"#utility.yul\":6993:7046   */\n      tag_135\n      jump\t// in\n    tag_248:\n        /* \"#utility.yul\":6983:7046   */\n      swap5\n      pop\n        /* \"#utility.yul\":6938:7056   */\n      pop\n        /* \"#utility.yul\":7095:7097   */\n      0x40\n        /* \"#utility.yul\":7121:7174   */\n      tag_249\n        /* \"#utility.yul\":7166:7173   */\n      dup9\n        /* \"#utility.yul\":7157:7163   */\n      dup3\n        /* \"#utility.yul\":7146:7155   */\n      dup10\n        /* \"#utility.yul\":7142:7164   */\n      add\n        /* \"#utility.yul\":7121:7174   */\n      tag_130\n      jump\t// in\n    tag_249:\n        /* \"#utility.yul\":7111:7174   */\n      swap4\n      pop\n        /* \"#utility.yul\":7066:7184   */\n      pop\n        /* \"#utility.yul\":7251:7253   */\n      0x60\n        /* \"#utility.yul\":7240:7249   */\n      dup7\n        /* \"#utility.yul\":7236:7254   */\n      add\n        /* \"#utility.yul\":7223:7255   */\n      calldataload\n        /* \"#utility.yul\":7282:7300   */\n      0xffffffffffffffff\n        /* \"#utility.yul\":7274:7280   */\n      dup2\n        /* \"#utility.yul\":7271:7301   */\n      gt\n        /* \"#utility.yul\":7268:7385   */\n      iszero\n      tag_250\n      jumpi\n        /* \"#utility.yul\":7304:7383   */\n      tag_251\n      tag_122\n      jump\t// in\n    tag_251:\n        /* \"#utility.yul\":7268:7385   */\n    tag_250:\n        /* \"#utility.yul\":7417:7481   */\n      tag_252\n        /* \"#utility.yul\":7473:7480   */\n      dup9\n        /* \"#utility.yul\":7464:7470   */\n      dup3\n        /* \"#utility.yul\":7453:7462   */\n      dup10\n        /* \"#utility.yul\":7449:7471   */\n      add\n        /* \"#utility.yul\":7417:7481   */\n      tag_142\n      jump\t// in\n    tag_252:\n        /* \"#utility.yul\":7399:7481   */\n      swap3\n      pop\n      swap3\n      pop\n        /* \"#utility.yul\":7194:7491   */\n      pop\n        /* \"#utility.yul\":6535:7498   */\n      swap3\n      swap6\n      pop\n      swap3\n      swap6\n      swap1\n      swap4\n      pop\n      jump\t// out\n        /* \"#utility.yul\":7504:7978   */\n    tag_57:\n        /* \"#utility.yul\":7572:7578   */\n      0x00\n        /* \"#utility.yul\":7580:7586   */\n      dup1\n        /* \"#utility.yul\":7629:7631   */\n      0x40\n        /* \"#utility.yul\":7617:7626   */\n      dup4\n        /* \"#utility.yul\":7608:7615   */\n      dup6\n        /* \"#utility.yul\":7604:7627   */\n      sub\n        /* \"#utility.yul\":7600:7632   */\n      slt\n        /* \"#utility.yul\":7597:7716   */\n      iszero\n      tag_254\n      jumpi\n        /* \"#utility.yul\":7635:7714   */\n      tag_255\n      tag_121\n      jump\t// in\n    tag_255:\n        /* \"#utility.yul\":7597:7716   */\n    tag_254:\n        /* \"#utility.yul\":7755:7756   */\n      0x00\n        /* \"#utility.yul\":7780:7833   */\n      tag_256\n        /* \"#utility.yul\":7825:7832   */\n      dup6\n        /* \"#utility.yul\":7816:7822   */\n      dup3\n        /* \"#utility.yul\":7805:7814   */\n      dup7\n        /* \"#utility.yul\":7801:7823   */\n      add\n        /* \"#utility.yul\":7780:7833   */\n      tag_135\n      jump\t// in\n    tag_256:\n        /* \"#utility.yul\":7770:7833   */\n      swap3\n      pop\n        /* \"#utility.yul\":7726:7843   */\n      pop\n        /* \"#utility.yul\":7882:7884   */\n      0x20\n        /* \"#utility.yul\":7908:7961   */\n      tag_257\n        /* \"#utility.yul\":7953:7960   */\n      dup6\n        /* \"#utility.yul\":7944:7950   */\n      dup3\n        /* \"#utility.yul\":7933:7942   */\n      dup7\n        /* \"#utility.yul\":7929:7951   */\n      add\n        /* \"#utility.yul\":7908:7961   */\n      tag_135\n      jump\t// in\n    tag_257:\n        /* \"#utility.yul\":7898:7961   */\n      swap2\n      pop\n        /* \"#utility.yul\":7853:7971   */\n      pop\n        /* \"#utility.yul\":7504:7978   */\n      swap3\n      pop\n      swap3\n      swap1\n      pop\n      jump\t// out\n        /* \"#utility.yul\":7984:8153   */\n    tag_143:\n        /* \"#utility.yul\":8068:8079   */\n      0x00\n        /* \"#utility.yul\":8102:8108   */\n      dup3\n        /* \"#utility.yul\":8097:8100   */\n      dup3\n        /* \"#utility.yul\":8090:8109   */\n      mstore\n        /* \"#utility.yul\":8142:8146   */\n      0x20\n        /* \"#utility.yul\":8137:8140   */\n      dup3\n        /* \"#utility.yul\":8133:8147   */\n      add\n        /* \"#utility.yul\":8118:8147   */\n      swap1\n      pop\n        /* \"#utility.yul\":7984:8153   */\n      swap3\n      swap2\n      pop\n      pop\n      jump\t// out\n        /* \"#utility.yul\":8159:8327   */\n    tag_144:\n        /* \"#utility.yul\":8299:8319   */\n      0x746f6b656e20646f657327742065786974730000000000000000000000000000\n        /* \"#utility.yul\":8295:8296   */\n      0x00\n        /* \"#utility.yul\":8287:8293   */\n      dup3\n        /* \"#utility.yul\":8283:8297   */\n      add\n        /* \"#utility.yul\":8276:8320   */\n      mstore\n        /* \"#utility.yul\":8159:8327   */\n      pop\n      jump\t// out\n        /* \"#utility.yul\":8333:8699   */\n    tag_145:\n        /* \"#utility.yul\":8475:8478   */\n      0x00\n        /* \"#utility.yul\":8496:8563   */\n      tag_261\n        /* \"#utility.yul\":8560:8562   */\n      0x12\n        /* \"#utility.yul\":8555:8558   */\n      dup4\n        /* \"#utility.yul\":8496:8563   */\n      tag_143\n      jump\t// in\n    tag_261:\n        /* \"#utility.yul\":8489:8563   */\n      swap2\n      pop\n        /* \"#utility.yul\":8572:8665   */\n      tag_262\n        /* \"#utility.yul\":8661:8664   */\n      dup3\n        /* \"#utility.yul\":8572:8665   */\n      tag_144\n      jump\t// in\n    tag_262:\n        /* \"#utility.yul\":8690:8692   */\n      0x20\n        /* \"#utility.yul\":8685:8688   */\n      dup3\n        /* \"#utility.yul\":8681:8693   */\n      add\n        /* \"#utility.yul\":8674:8693   */\n      swap1\n      pop\n        /* \"#utility.yul\":8333:8699   */\n      swap2\n      swap1\n      pop\n      jump\t// out\n        /* \"#utility.yul\":8705:9124   */\n    tag_65:\n        /* \"#utility.yul\":8871:8875   */\n      0x00\n        /* \"#utility.yul\":8909:8911   */\n      0x20\n        /* \"#utility.yul\":8898:8907   */\n      dup3\n        /* \"#utility.yul\":8894:8912   */\n      add\n        /* \"#utility.yul\":8886:8912   */\n      swap1\n      pop\n        /* \"#utility.yul\":8958:8967   */\n      dup2\n        /* \"#utility.yul\":8952:8956   */\n      dup2\n        /* \"#utility.yul\":8948:8968   */\n      sub\n        /* \"#utility.yul\":8944:8945   */\n      0x00\n        /* \"#utility.yul\":8933:8942   */\n      dup4\n        /* \"#utility.yul\":8929:8946   */\n      add\n        /* \"#utility.yul\":8922:8969   */\n      mstore\n        /* \"#utility.yul\":8986:9117   */\n      tag_264\n        /* \"#utility.yul\":9112:9116   */\n      dup2\n        /* \"#utility.yul\":8986:9117   */\n      tag_145\n      jump\t// in\n    tag_264:\n        /* \"#utility.yul\":8978:9117   */\n      swap1\n      pop\n        /* \"#utility.yul\":8705:9124   */\n      swap2\n      swap1\n      pop\n      jump\t// out\n        /* \"#utility.yul\":9130:9294   */\n    tag_146:\n        /* \"#utility.yul\":9270:9286   */\n      0x6e6f7420617574686f72697a6564000000000000000000000000000000000000\n        /* \"#utility.yul\":9266:9267   */\n      0x00\n        /* \"#utility.yul\":9258:9264   */\n      dup3\n        /* \"#utility.yul\":9254:9268   */\n      add\n        /* \"#utility.yul\":9247:9287   */\n      mstore\n        /* \"#utility.yul\":9130:9294   */\n      pop\n      jump\t// out\n        /* \"#utility.yul\":9300:9666   */\n    tag_147:\n        /* \"#utility.yul\":9442:9445   */\n      0x00\n        /* \"#utility.yul\":9463:9530   */\n      tag_267\n        /* \"#utility.yul\":9527:9529   */\n      0x0e\n        /* \"#utility.yul\":9522:9525   */\n      dup4\n        /* \"#utility.yul\":9463:9530   */\n      tag_143\n      jump\t// in\n    tag_267:\n        /* \"#utility.yul\":9456:9530   */\n      swap2\n      pop\n        /* \"#utility.yul\":9539:9632   */\n      tag_268\n        /* \"#utility.yul\":9628:9631   */\n      dup3\n        /* \"#utility.yul\":9539:9632   */\n      tag_146\n      jump\t// in\n    tag_268:\n        /* \"#utility.yul\":9657:9659   */\n      0x20\n        /* \"#utility.yul\":9652:9655   */\n      dup3\n        /* \"#utility.yul\":9648:9660   */\n      add\n        /* \"#utility.yul\":9641:9660   */\n      swap1\n      pop\n        /* \"#utility.yul\":9300:9666   */\n      swap2\n      swap1\n      pop\n      jump\t// out\n        /* \"#utility.yul\":9672:10091   */\n    tag_70:\n        /* \"#utility.yul\":9838:9842   */\n      0x00\n        /* \"#utility.yul\":9876:9878   */\n      0x20\n        /* \"#utility.yul\":9865:9874   */\n      dup3\n        /* \"#utility.yul\":9861:9879   */\n      add\n        /* \"#utility.yul\":9853:9879   */\n      swap1\n      pop\n        /* \"#utility.yul\":9925:9934   */\n      dup2\n        /* \"#utility.yul\":9919:9923   */\n      dup2\n        /* \"#utility.yul\":9915:9935   */\n      sub\n        /* \"#utility.yul\":9911:9912   */\n      0x00\n        /* \"#utility.yul\":9900:9909   */\n      dup4\n        /* \"#utility.yul\":9896:9913   */\n      add\n        /* \"#utility.yul\":9889:9936   */\n      mstore\n        /* \"#utility.yul\":9953:10084   */\n      tag_270\n        /* \"#utility.yul\":10079:10083   */\n      dup2\n        /* \"#utility.yul\":9953:10084   */\n      tag_147\n      jump\t// in\n    tag_270:\n        /* \"#utility.yul\":9945:10084   */\n      swap1\n      pop\n        /* \"#utility.yul\":9672:10091   */\n      swap2\n      swap1\n      pop\n      jump\t// out\n        /* \"#utility.yul\":10097:10260   */\n    tag_148:\n        /* \"#utility.yul\":10237:10252   */\n      0x66726f6d20213d206f776e657200000000000000000000000000000000000000\n        /* \"#utility.yul\":10233:10234   */\n      0x00\n        /* \"#utility.yul\":10225:10231   */\n      dup3\n        /* \"#utility.yul\":10221:10235   */\n      add\n        /* \"#utility.yul\":10214:10253   */\n      mstore\n        /* \"#utility.yul\":10097:10260   */\n      pop\n      jump\t// out\n        /* \"#utility.yul\":10266:10632   */\n    tag_149:\n        /* \"#utility.yul\":10408:10411   */\n      0x00\n        /* \"#utility.yul\":10429:10496   */\n      tag_273\n        /* \"#utility.yul\":10493:10495   */\n      0x0d\n        /* \"#utility.yul\":10488:10491   */\n      dup4\n        /* \"#utility.yul\":10429:10496   */\n      tag_143\n      jump\t// in\n    tag_273:\n        /* \"#utility.yul\":10422:10496   */\n      swap2\n      pop\n        /* \"#utility.yul\":10505:10598   */\n      tag_274\n        /* \"#utility.yul\":10594:10597   */\n      dup3\n        /* \"#utility.yul\":10505:10598   */\n      tag_148\n      jump\t// in\n    tag_274:\n        /* \"#utility.yul\":10623:10625   */\n      0x20\n        /* \"#utility.yul\":10618:10621   */\n      dup3\n        /* \"#utility.yul\":10614:10626   */\n      add\n        /* \"#utility.yul\":10607:10626   */\n      swap1\n      pop\n        /* \"#utility.yul\":10266:10632   */\n      swap2\n      swap1\n      pop\n      jump\t// out\n        /* \"#utility.yul\":10638:11057   */\n    tag_74:\n        /* \"#utility.yul\":10804:10808   */\n      0x00\n        /* \"#utility.yul\":10842:10844   */\n      0x20\n        /* \"#utility.yul\":10831:10840   */\n      dup3\n        /* \"#utility.yul\":10827:10845   */\n      add\n        /* \"#utility.yul\":10819:10845   */\n      swap1\n      pop\n        /* \"#utility.yul\":10891:10900   */\n      dup2\n        /* \"#utility.yul\":10885:10889   */\n      dup2\n        /* \"#utility.yul\":10881:10901   */\n      sub\n        /* \"#utility.yul\":10877:10878   */\n      0x00\n        /* \"#utility.yul\":10866:10875   */\n      dup4\n        /* \"#utility.yul\":10862:10879   */\n      add\n        /* \"#utility.yul\":10855:10902   */\n      mstore\n        /* \"#utility.yul\":10919:11050   */\n      tag_276\n        /* \"#utility.yul\":11045:11049   */\n      dup2\n        /* \"#utility.yul\":10919:11050   */\n      tag_149\n      jump\t// in\n    tag_276:\n        /* \"#utility.yul\":10911:11050   */\n      swap1\n      pop\n        /* \"#utility.yul\":10638:11057   */\n      swap2\n      swap1\n      pop\n      jump\t// out\n        /* \"#utility.yul\":11063:11230   */\n    tag_150:\n        /* \"#utility.yul\":11203:11222   */\n      0x746f203d207a65726f2061646472657373000000000000000000000000000000\n        /* \"#utility.yul\":11199:11200   */\n      0x00\n        /* \"#utility.yul\":11191:11197   */\n      dup3\n        /* \"#utility.yul\":11187:11201   */\n      add\n        /* \"#utility.yul\":11180:11223   */\n      mstore\n        /* \"#utility.yul\":11063:11230   */\n      pop\n      jump\t// out\n        /* \"#utility.yul\":11236:11602   */\n    tag_151:\n        /* \"#utility.yul\":11378:11381   */\n      0x00\n        /* \"#utility.yul\":11399:11466   */\n      tag_279\n        /* \"#utility.yul\":11463:11465   */\n      0x11\n        /* \"#utility.yul\":11458:11461   */\n      dup4\n        /* \"#utility.yul\":11399:11466   */\n      tag_143\n      jump\t// in\n    tag_279:\n        /* \"#utility.yul\":11392:11466   */\n      swap2\n      pop\n        /* \"#utility.yul\":11475:11568   */\n      tag_280\n        /* \"#utility.yul\":11564:11567   */\n      dup3\n        /* \"#utility.yul\":11475:11568   */\n      tag_150\n      jump\t// in\n    tag_280:\n        /* \"#utility.yul\":11593:11595   */\n      0x20\n        /* \"#utility.yul\":11588:11591   */\n      dup3\n        /* \"#utility.yul\":11584:11596   */\n      add\n        /* \"#utility.yul\":11577:11596   */\n      swap1\n      pop\n        /* \"#utility.yul\":11236:11602   */\n      swap2\n      swap1\n      pop\n      jump\t// out\n        /* \"#utility.yul\":11608:12027   */\n    tag_77:\n        /* \"#utility.yul\":11774:11778   */\n      0x00\n        /* \"#utility.yul\":11812:11814   */\n      0x20\n        /* \"#utility.yul\":11801:11810   */\n      dup3\n        /* \"#utility.yul\":11797:11815   */\n      add\n        /* \"#utility.yul\":11789:11815   */\n      swap1\n      pop\n        /* \"#utility.yul\":11861:11870   */\n      dup2\n        /* \"#utility.yul\":11855:11859   */\n      dup2\n        /* \"#utility.yul\":11851:11871   */\n      sub\n        /* \"#utility.yul\":11847:11848   */\n      0x00\n        /* \"#utility.yul\":11836:11845   */\n      dup4\n        /* \"#utility.yul\":11832:11849   */\n      add\n        /* \"#utility.yul\":11825:11872   */\n      mstore\n        /* \"#utility.yul\":11889:12020   */\n      tag_282\n        /* \"#utility.yul\":12015:12019   */\n      dup2\n        /* \"#utility.yul\":11889:12020   */\n      tag_151\n      jump\t// in\n    tag_282:\n        /* \"#utility.yul\":11881:12020   */\n      swap1\n      pop\n        /* \"#utility.yul\":11608:12027   */\n      swap2\n      swap1\n      pop\n      jump\t// out\n        /* \"#utility.yul\":12033:12213   */\n    tag_152:\n        /* \"#utility.yul\":12081:12158   */\n      0x4e487b7100000000000000000000000000000000000000000000000000000000\n        /* \"#utility.yul\":12078:12079   */\n      0x00\n        /* \"#utility.yul\":12071:12159   */\n      mstore\n        /* \"#utility.yul\":12178:12182   */\n      0x11\n        /* \"#utility.yul\":12175:12176   */\n      0x04\n        /* \"#utility.yul\":12168:12183   */\n      mstore\n        /* \"#utility.yul\":12202:12206   */\n      0x24\n        /* \"#utility.yul\":12199:12200   */\n      0x00\n        /* \"#utility.yul\":12192:12207   */\n      revert\n        /* \"#utility.yul\":12219:12390   */\n    tag_83:\n        /* \"#utility.yul\":12258:12261   */\n      0x00\n        /* \"#utility.yul\":12281:12305   */\n      tag_285\n        /* \"#utility.yul\":12299:12304   */\n      dup3\n        /* \"#utility.yul\":12281:12305   */\n      tag_128\n      jump\t// in\n    tag_285:\n        /* \"#utility.yul\":12272:12305   */\n      swap2\n      pop\n        /* \"#utility.yul\":12327:12331   */\n      0x00\n        /* \"#utility.yul\":12320:12325   */\n      dup3\n        /* \"#utility.yul\":12317:12332   */\n      sub\n        /* \"#utility.yul\":12314:12355   */\n      tag_286\n      jumpi\n        /* \"#utility.yul\":12335:12353   */\n      tag_287\n      tag_152\n      jump\t// in\n    tag_287:\n        /* \"#utility.yul\":12314:12355   */\n    tag_286:\n        /* \"#utility.yul\":12382:12383   */\n      0x01\n        /* \"#utility.yul\":12375:12380   */\n      dup3\n        /* \"#utility.yul\":12371:12384   */\n      sub\n        /* \"#utility.yul\":12364:12384   */\n      swap1\n      pop\n        /* \"#utility.yul\":12219:12390   */\n      swap2\n      swap1\n      pop\n      jump\t// out\n        /* \"#utility.yul\":12396:12629   */\n    tag_85:\n        /* \"#utility.yul\":12435:12438   */\n      0x00\n        /* \"#utility.yul\":12458:12482   */\n      tag_289\n        /* \"#utility.yul\":12476:12481   */\n      dup3\n        /* \"#utility.yul\":12458:12482   */\n      tag_128\n      jump\t// in\n    tag_289:\n        /* \"#utility.yul\":12449:12482   */\n      swap2\n      pop\n        /* \"#utility.yul\":12504:12570   */\n      0xffffffffffffffffffffffffffffffffffffffffffffffffffffffffffffffff\n        /* \"#utility.yul\":12497:12502   */\n      dup3\n        /* \"#utility.yul\":12494:12571   */\n      sub\n        /* \"#utility.yul\":12491:12594   */\n      tag_290\n      jumpi\n        /* \"#utility.yul\":12574:12592   */\n      tag_291\n      tag_152\n      jump\t// in\n    tag_291:\n        /* \"#utility.yul\":12491:12594   */\n    tag_290:\n        /* \"#utility.yul\":12621:12622   */\n      0x01\n        /* \"#utility.yul\":12614:12619   */\n      dup3\n        /* \"#utility.yul\":12610:12623   */\n      add\n        /* \"#utility.yul\":12603:12623   */\n      swap1\n      pop\n        /* \"#utility.yul\":12396:12629   */\n      swap2\n      swap1\n      pop\n      jump\t// out\n        /* \"#utility.yul\":12635:12803   */\n    tag_153:\n        /* \"#utility.yul\":12718:12729   */\n      0x00\n        /* \"#utility.yul\":12752:12758   */\n      dup3\n        /* \"#utility.yul\":12747:12750   */\n      dup3\n        /* \"#utility.yul\":12740:12759   */\n      mstore\n        /* \"#utility.yul\":12792:12796   */\n      0x20\n        /* \"#utility.yul\":12787:12790   */\n      dup3\n        /* \"#utility.yul\":12783:12797   */\n      add\n        /* \"#utility.yul\":12768:12797   */\n      swap1\n      pop\n        /* \"#utility.yul\":12635:12803   */\n      swap3\n      swap2\n      pop\n      pop\n      jump\t// out\n        /* \"#utility.yul\":12809:12923   */\n    tag_154:\n      pop\n      jump\t// out\n        /* \"#utility.yul\":12929:13291   */\n    tag_155:\n        /* \"#utility.yul\":13070:13073   */\n      0x00\n        /* \"#utility.yul\":13091:13156   */\n      tag_295\n        /* \"#utility.yul\":13154:13155   */\n      0x00\n        /* \"#utility.yul\":13149:13152   */\n      dup4\n        /* \"#utility.yul\":13091:13156   */\n      tag_153\n      jump\t// in\n    tag_295:\n        /* \"#utility.yul\":13084:13156   */\n      swap2\n      pop\n        /* \"#utility.yul\":13165:13258   */\n      tag_296\n        /* \"#utility.yul\":13254:13257   */\n      dup3\n        /* \"#utility.yul\":13165:13258   */\n      tag_154\n      jump\t// in\n    tag_296:\n        /* \"#utility.yul\":13283:13284   */\n      0x00\n        /* \"#utility.yul\":13278:13281   */\n      dup3\n        /* \"#utility.yul\":13274:13285   */\n      add\n        /* \"#utility.yul\":13267:13285   */\n      swap1\n      pop\n        /* \"#utility.yul\":12929:13291   */\n      swap2\n      swap1\n      pop\n      jump\t// out\n        /* \"#utility.yul\":13297:14045   */\n    tag_90:\n        /* \"#utility.yul\":13546:13550   */\n      0x00\n        /* \"#utility.yul\":13584:13587   */\n      0x80\n        /* \"#utility.yul\":13573:13582   */\n      dup3\n        /* \"#utility.yul\":13569:13588   */\n      add\n        /* \"#utility.yul\":13561:13588   */\n      swap1\n      pop\n        /* \"#utility.yul\":13598:13669   */\n      tag_298\n        /* \"#utility.yul\":13666:13667   */\n      0x00\n        /* \"#utility.yul\":13655:13664   */\n      dup4\n        /* \"#utility.yul\":13651:13668   */\n      add\n        /* \"#utility.yul\":13642:13648   */\n      dup7\n        /* \"#utility.yul\":13598:13669   */\n      tag_133\n      jump\t// in\n    tag_298:\n        /* \"#utility.yul\":13679:13751   */\n      tag_299\n        /* \"#utility.yul\":13747:13749   */\n      0x20\n        /* \"#utility.yul\":13736:13745   */\n      dup4\n        /* \"#utility.yul\":13732:13750   */\n      add\n        /* \"#utility.yul\":13723:13729   */\n      dup6\n        /* \"#utility.yul\":13679:13751   */\n      tag_133\n      jump\t// in\n    tag_299:\n        /* \"#utility.yul\":13761:13833   */\n      tag_300\n        /* \"#utility.yul\":13829:13831   */\n      0x40\n        /* \"#utility.yul\":13818:13827   */\n      dup4\n        /* \"#utility.yul\":13814:13832   */\n      add\n        /* \"#utility.yul\":13805:13811   */\n      dup5\n        /* \"#utility.yul\":13761:13833   */\n      tag_136\n      jump\t// in\n    tag_300:\n        /* \"#utility.yul\":13880:13889   */\n      dup2\n        /* \"#utility.yul\":13874:13878   */\n      dup2\n        /* \"#utility.yul\":13870:13890   */\n      sub\n        /* \"#utility.yul\":13865:13867   */\n      0x60\n        /* \"#utility.yul\":13854:13863   */\n      dup4\n        /* \"#utility.yul\":13850:13868   */\n      add\n        /* \"#utility.yul\":13843:13891   */\n      mstore\n        /* \"#utility.yul\":13908:14038   */\n      tag_301\n        /* \"#utility.yul\":14033:14037   */\n      dup2\n        /* \"#utility.yul\":13908:14038   */\n      tag_155\n      jump\t// in\n    tag_301:\n        /* \"#utility.yul\":13900:14038   */\n      swap1\n      pop\n        /* \"#utility.yul\":13297:14045   */\n      swap5\n      swap4\n      pop\n      pop\n      pop\n      pop\n      jump\t// out\n        /* \"#utility.yul\":14051:14192   */\n    tag_156:\n        /* \"#utility.yul\":14107:14112   */\n      0x00\n        /* \"#utility.yul\":14138:14144   */\n      dup2\n        /* \"#utility.yul\":14132:14145   */\n      mload\n        /* \"#utility.yul\":14123:14145   */\n      swap1\n      pop\n        /* \"#utility.yul\":14154:14186   */\n      tag_303\n        /* \"#utility.yul\":14180:14185   */\n      dup2\n        /* \"#utility.yul\":14154:14186   */\n      tag_124\n      jump\t// in\n    tag_303:\n        /* \"#utility.yul\":14051:14192   */\n      swap3\n      swap2\n      pop\n      pop\n      jump\t// out\n        /* \"#utility.yul\":14198:14547   */\n    tag_94:\n        /* \"#utility.yul\":14267:14273   */\n      0x00\n        /* \"#utility.yul\":14316:14318   */\n      0x20\n        /* \"#utility.yul\":14304:14313   */\n      dup3\n        /* \"#utility.yul\":14295:14302   */\n      dup5\n        /* \"#utility.yul\":14291:14314   */\n      sub\n        /* \"#utility.yul\":14287:14319   */\n      slt\n        /* \"#utility.yul\":14284:14403   */\n      iszero\n      tag_305\n      jumpi\n        /* \"#utility.yul\":14322:14401   */\n      tag_306\n      tag_121\n      jump\t// in\n    tag_306:\n        /* \"#utility.yul\":14284:14403   */\n    tag_305:\n        /* \"#utility.yul\":14442:14443   */\n      0x00\n        /* \"#utility.yul\":14467:14530   */\n      tag_307\n        /* \"#utility.yul\":14522:14529   */\n      dup5\n        /* \"#utility.yul\":14513:14519   */\n      dup3\n        /* \"#utility.yul\":14502:14511   */\n      dup6\n        /* \"#utility.yul\":14498:14520   */\n      add\n        /* \"#utility.yul\":14467:14530   */\n      tag_156\n      jump\t// in\n    tag_307:\n        /* \"#utility.yul\":14457:14530   */\n      swap2\n      pop\n        /* \"#utility.yul\":14413:14540   */\n      pop\n        /* \"#utility.yul\":14198:14547   */\n      swap3\n      swap2\n      pop\n      pop\n      jump\t// out\n        /* \"#utility.yul\":14553:14719   */\n    tag_157:\n        /* \"#utility.yul\":14693:14711   */\n      0x756e7361666520726563697069656e7400000000000000000000000000000000\n        /* \"#utility.yul\":14689:14690   */\n      0x00\n        /* \"#utility.yul\":14681:14687   */\n      dup3\n        /* \"#utility.yul\":14677:14691   */\n      add\n        /* \"#utility.yul\":14670:14712   */\n      mstore\n        /* \"#utility.yul\":14553:14719   */\n      pop\n      jump\t// out\n        /* \"#utility.yul\":14725:15091   */\n    tag_158:\n        /* \"#utility.yul\":14867:14870   */\n      0x00\n        /* \"#utility.yul\":14888:14955   */\n      tag_310\n        /* \"#utility.yul\":14952:14954   */\n      0x10\n        /* \"#utility.yul\":14947:14950   */\n      dup4\n        /* \"#utility.yul\":14888:14955   */\n      tag_143\n      jump\t// in\n    tag_310:\n        /* \"#utility.yul\":14881:14955   */\n      swap2\n      pop\n        /* \"#utility.yul\":14964:15057   */\n      tag_311\n        /* \"#utility.yul\":15053:15056   */\n      dup3\n        /* \"#utility.yul\":14964:15057   */\n      tag_157\n      jump\t// in\n    tag_311:\n        /* \"#utility.yul\":15082:15084   */\n      0x20\n        /* \"#utility.yul\":15077:15080   */\n      dup3\n        /* \"#utility.yul\":15073:15085   */\n      add\n        /* \"#utility.yul\":15066:15085   */\n      swap1\n      pop\n        /* \"#utility.yul\":14725:15091   */\n      swap2\n      swap1\n      pop\n      jump\t// out\n        /* \"#utility.yul\":15097:15516   */\n    tag_97:\n        /* \"#utility.yul\":15263:15267   */\n      0x00\n        /* \"#utility.yul\":15301:15303   */\n      0x20\n        /* \"#utility.yul\":15290:15299   */\n      dup3\n        /* \"#utility.yul\":15286:15304   */\n      add\n        /* \"#utility.yul\":15278:15304   */\n      swap1\n      pop\n        /* \"#utility.yul\":15350:15359   */\n      dup2\n        /* \"#utility.yul\":15344:15348   */\n      dup2\n        /* \"#utility.yul\":15340:15360   */\n      sub\n        /* \"#utility.yul\":15336:15337   */\n      0x00\n        /* \"#utility.yul\":15325:15334   */\n      dup4\n        /* \"#utility.yul\":15321:15338   */\n      add\n        /* \"#utility.yul\":15314:15361   */\n      mstore\n        /* \"#utility.yul\":15378:15509   */\n      tag_313\n        /* \"#utility.yul\":15504:15508   */\n      dup2\n        /* \"#utility.yul\":15378:15509   */\n      tag_158\n      jump\t// in\n    tag_313:\n        /* \"#utility.yul\":15370:15509   */\n      swap1\n      pop\n        /* \"#utility.yul\":15097:15516   */\n      swap2\n      swap1\n      pop\n      jump\t// out\n        /* \"#utility.yul\":15522:15692   */\n    tag_159:\n        /* \"#utility.yul\":15662:15684   */\n      0x6f776e6572203d207a65726f2061646472657373000000000000000000000000\n        /* \"#utility.yul\":15658:15659   */\n      0x00\n        /* \"#utility.yul\":15650:15656   */\n      dup3\n        /* \"#utility.yul\":15646:15660   */\n      add\n        /* \"#utility.yul\":15639:15685   */\n      mstore\n        /* \"#utility.yul\":15522:15692   */\n      pop\n      jump\t// out\n        /* \"#utility.yul\":15698:16064   */\n    tag_160:\n        /* \"#utility.yul\":15840:15843   */\n      0x00\n        /* \"#utility.yul\":15861:15928   */\n      tag_316\n        /* \"#utility.yul\":15925:15927   */\n      0x14\n        /* \"#utility.yul\":15920:15923   */\n      dup4\n        /* \"#utility.yul\":15861:15928   */\n      tag_143\n      jump\t// in\n    tag_316:\n        /* \"#utility.yul\":15854:15928   */\n      swap2\n      pop\n        /* \"#utility.yul\":15937:16030   */\n      tag_317\n        /* \"#utility.yul\":16026:16029   */\n      dup3\n        /* \"#utility.yul\":15937:16030   */\n      tag_159\n      jump\t// in\n    tag_317:\n        /* \"#utility.yul\":16055:16057   */\n      0x20\n        /* \"#utility.yul\":16050:16053   */\n      dup3\n        /* \"#utility.yul\":16046:16058   */\n      add\n        /* \"#utility.yul\":16039:16058   */\n      swap1\n      pop\n        /* \"#utility.yul\":15698:16064   */\n      swap2\n      swap1\n      pop\n      jump\t// out\n        /* \"#utility.yul\":16070:16489   */\n    tag_101:\n        /* \"#utility.yul\":16236:16240   */\n      0x00\n        /* \"#utility.yul\":16274:16276   */\n      0x20\n        /* \"#utility.yul\":16263:16272   */\n      dup3\n        /* \"#utility.yul\":16259:16277   */\n      add\n        /* \"#utility.yul\":16251:16277   */\n      swap1\n      pop\n        /* \"#utility.yul\":16323:16332   */\n      dup2\n        /* \"#utility.yul\":16317:16321   */\n      dup2\n        /* \"#utility.yul\":16313:16333   */\n      sub\n        /* \"#utility.yul\":16309:16310   */\n      0x00\n        /* \"#utility.yul\":16298:16307   */\n      dup4\n        /* \"#utility.yul\":16294:16311   */\n      add\n        /* \"#utility.yul\":16287:16334   */\n      mstore\n        /* \"#utility.yul\":16351:16482   */\n      tag_319\n        /* \"#utility.yul\":16477:16481   */\n      dup2\n        /* \"#utility.yul\":16351:16482   */\n      tag_160\n      jump\t// in\n    tag_319:\n        /* \"#utility.yul\":16343:16482   */\n      swap1\n      pop\n        /* \"#utility.yul\":16070:16489   */\n      swap2\n      swap1\n      pop\n      jump\t// out\n        /* \"#utility.yul\":16495:16641   */\n    tag_161:\n        /* \"#utility.yul\":16592:16598   */\n      dup3\n        /* \"#utility.yul\":16587:16590   */\n      dup2\n        /* \"#utility.yul\":16582:16585   */\n      dup4\n        /* \"#utility.yul\":16569:16599   */\n      calldatacopy\n        /* \"#utility.yul\":16633:16634   */\n      0x00\n        /* \"#utility.yul\":16624:16630   */\n      dup4\n        /* \"#utility.yul\":16619:16622   */\n      dup4\n        /* \"#utility.yul\":16615:16631   */\n      add\n        /* \"#utility.yul\":16608:16635   */\n      mstore\n        /* \"#utility.yul\":16495:16641   */\n      pop\n      pop\n      pop\n      jump\t// out\n        /* \"#utility.yul\":16647:16749   */\n    tag_162:\n        /* \"#utility.yul\":16688:16694   */\n      0x00\n        /* \"#utility.yul\":16739:16741   */\n      0x1f\n        /* \"#utility.yul\":16735:16742   */\n      not\n        /* \"#utility.yul\":16730:16732   */\n      0x1f\n        /* \"#utility.yul\":16723:16728   */\n      dup4\n        /* \"#utility.yul\":16719:16733   */\n      add\n        /* \"#utility.yul\":16715:16743   */\n      and\n        /* \"#utility.yul\":16705:16743   */\n      swap1\n      pop\n        /* \"#utility.yul\":16647:16749   */\n      swap2\n      swap1\n      pop\n      jump\t// out\n        /* \"#utility.yul\":16777:17091   */\n    tag_163:\n        /* \"#utility.yul\":16873:16876   */\n      0x00\n        /* \"#utility.yul\":16894:16964   */\n      tag_323\n        /* \"#utility.yul\":16957:16963   */\n      dup4\n        /* \"#utility.yul\":16952:16955   */\n      dup6\n        /* \"#utility.yul\":16894:16964   */\n      tag_153\n      jump\t// in\n    tag_323:\n        /* \"#utility.yul\":16887:16964   */\n      swap4\n      pop\n        /* \"#utility.yul\":16974:17030   */\n      tag_324\n        /* \"#utility.yul\":17023:17029   */\n      dup4\n        /* \"#utility.yul\":17018:17021   */\n      dup6\n        /* \"#utility.yul\":17011:17016   */\n      dup5\n        /* \"#utility.yul\":16974:17030   */\n      tag_161\n      jump\t// in\n    tag_324:\n        /* \"#utility.yul\":17055:17084   */\n      tag_325\n        /* \"#utility.yul\":17077:17083   */\n      dup4\n        /* \"#utility.yul\":17055:17084   */\n      tag_162\n      jump\t// in\n    tag_325:\n        /* \"#utility.yul\":17050:17053   */\n      dup5\n        /* \"#utility.yul\":17046:17085   */\n      add\n        /* \"#utility.yul\":17039:17085   */\n      swap1\n      pop\n        /* \"#utility.yul\":16777:17091   */\n      swap4\n      swap3\n      pop\n      pop\n      pop\n      jump\t// out\n        /* \"#utility.yul\":17097:17757   */\n    tag_111:\n        /* \"#utility.yul\":17302:17306   */\n      0x00\n        /* \"#utility.yul\":17340:17343   */\n      0x80\n        /* \"#utility.yul\":17329:17338   */\n      dup3\n        /* \"#utility.yul\":17325:17344   */\n      add\n        /* \"#utility.yul\":17317:17344   */\n      swap1\n      pop\n        /* \"#utility.yul\":17354:17425   */\n      tag_327\n        /* \"#utility.yul\":17422:17423   */\n      0x00\n        /* \"#utility.yul\":17411:17420   */\n      dup4\n        /* \"#utility.yul\":17407:17424   */\n      add\n        /* \"#utility.yul\":17398:17404   */\n      dup9\n        /* \"#utility.yul\":17354:17425   */\n      tag_133\n      jump\t// in\n    tag_327:\n        /* \"#utility.yul\":17435:17507   */\n      tag_328\n        /* \"#utility.yul\":17503:17505   */\n      0x20\n        /* \"#utility.yul\":17492:17501   */\n      dup4\n        /* \"#utility.yul\":17488:17506   */\n      add\n        /* \"#utility.yul\":17479:17485   */\n      dup8\n        /* \"#utility.yul\":17435:17507   */\n      tag_133\n      jump\t// in\n    tag_328:\n        /* \"#utility.yul\":17517:17589   */\n      tag_329\n        /* \"#utility.yul\":17585:17587   */\n      0x40\n        /* \"#utility.yul\":17574:17583   */\n      dup4\n        /* \"#utility.yul\":17570:17588   */\n      add\n        /* \"#utility.yul\":17561:17567   */\n      dup7\n        /* \"#utility.yul\":17517:17589   */\n      tag_136\n      jump\t// in\n    tag_329:\n        /* \"#utility.yul\":17636:17645   */\n      dup2\n        /* \"#utility.yul\":17630:17634   */\n      dup2\n        /* \"#utility.yul\":17626:17646   */\n      sub\n        /* \"#utility.yul\":17621:17623   */\n      0x60\n        /* \"#utility.yul\":17610:17619   */\n      dup4\n        /* \"#utility.yul\":17606:17624   */\n      add\n        /* \"#utility.yul\":17599:17647   */\n      mstore\n        /* \"#utility.yul\":17664:17750   */\n      tag_330\n        /* \"#utility.yul\":17745:17749   */\n      dup2\n        /* \"#utility.yul\":17736:17742   */\n      dup5\n        /* \"#utility.yul\":17728:17734   */\n      dup7\n        /* \"#utility.yul\":17664:17750   */\n      tag_163\n      jump\t// in\n    tag_330:\n        /* \"#utility.yul\":17656:17750   */\n      swap1\n      pop\n        /* \"#utility.yul\":17097:17757   */\n      swap7\n      swap6\n      pop\n      pop\n      pop\n      pop\n      pop\n      pop\n      jump\t// out\n\n    auxdata: 0xa2646970667358221220fab3a1e3215f8673477ae549005c12055d14c265584124604212e92d1956598064736f6c63430008120033\n}\n",
				"bytecode": {
					"linkReferences": {},
					"object": "608060405234801561001057600080fd5b506117d8806100206000396000f3fe608060405234801561001057600080fd5b506004361061009e5760003560e01c80636352211e116100665780636352211e1461015757806370a0823114610187578063a22cb465146101b7578063b88d4fde146101d3578063ebd1d359146101ef5761009e565b806301ffc9a7146100a3578063081812fc146100d3578063095ea7b31461010357806323b872dd1461011f57806342842e0e1461013b575b600080fd5b6100bd60048036038101906100b89190610f3a565b61021f565b6040516100ca9190610f82565b60405180910390f35b6100ed60048036038101906100e89190610fd3565b6102f1565b6040516100fa9190611041565b60405180910390f35b61011d60048036038101906101189190611088565b6103ce565b005b610139600480360381019061013491906110c8565b6105b6565b005b610155600480360381019061015091906110c8565b6108a0565b005b610171600480360381019061016c9190610fd3565b6109d8565b60405161017e9190611041565b60405180910390f35b6101a1600480360381019061019c919061111b565b610a83565b6040516101ae9190611157565b60405180910390f35b6101d160048036038101906101cc919061119e565b610b3a565b005b6101ed60048036038101906101e89190611243565b610c37565b005b610209600480360381019061020491906112cb565b610d75565b6040516102169190610f82565b60405180910390f35b60007f80ac58cd000000000000000000000000000000000000000000000000000000007bffffffffffffffffffffffffffffffffffffffffffffffffffffffff1916827bffffffffffffffffffffffffffffffffffffffffffffffffffffffff191614806102ea57507f01ffc9a7000000000000000000000000000000000000000000000000000000007bffffffffffffffffffffffffffffffffffffffffffffffffffffffff1916827bffffffffffffffffffffffffffffffffffffffffffffffffffffffff1916145b9050919050565b60008073ffffffffffffffffffffffffffffffffffffffff1660008084815260200190815260200160002060009054906101000a900473ffffffffffffffffffffffffffffffffffffffff1673ffffffffffffffffffffffffffffffffffffffff1603610393576040517f08c379a000000000000000000000000000000000000000000000000000000000815260040161038a90611368565b60405180910390fd5b6002600083815260200190815260200160002060009054906101000a900473ffffffffffffffffffffffffffffffffffffffff169050919050565b600080600083815260200190815260200160002060009054906101000a900473ffffffffffffffffffffffffffffffffffffffff1690508073ffffffffffffffffffffffffffffffffffffffff163373ffffffffffffffffffffffffffffffffffffffff1614806104c55750600360008273ffffffffffffffffffffffffffffffffffffffff1673ffffffffffffffffffffffffffffffffffffffff16815260200190815260200160002060003373ffffffffffffffffffffffffffffffffffffffff1673ffffffffffffffffffffffffffffffffffffffff16815260200190815260200160002060009054906101000a900460ff165b610504576040517f08c379a00000000000000000000000000000000000000000000000000000000081526004016104fb906113d4565b60405180910390fd5b826002600084815260200190815260200160002060006101000a81548173ffffffffffffffffffffffffffffffffffffffff021916908373ffffffffffffffffffffffffffffffffffffffff160217905550818373ffffffffffffffffffffffffffffffffffffffff168273ffffffffffffffffffffffffffffffffffffffff167f8c5be1e5ebec7d5bd14f71427d1e84f3dd0314c0f7b2291e5b200ac8c7c3b92560405160405180910390a4505050565b60008082815260200190815260200160002060009054906101000a900473ffffffffffffffffffffffffffffffffffffffff1673ffffffffffffffffffffffffffffffffffffffff168373ffffffffffffffffffffffffffffffffffffffff1614610656576040517f08c379a000000000000000000000000000000000000000000000000000000000815260040161064d90611440565b60405180910390fd5b600073ffffffffffffffffffffffffffffffffffffffff168273ffffffffffffffffffffffffffffffffffffffff16036106c5576040517f08c379a00000000000000000000000000000000000000000000000000000000081526004016106bc906114ac565b60405180910390fd5b6106d0833383610da4565b61070f576040517f08c379a0000000000000000000000000000000000000000000000000000000008152600401610706906113d4565b60405180910390fd5b600160008473ffffffffffffffffffffffffffffffffffffffff1673ffffffffffffffffffffffffffffffffffffffff168152602001908152602001600020600081548092919061075f906114fb565b9190505550600160008373ffffffffffffffffffffffffffffffffffffffff1673ffffffffffffffffffffffffffffffffffffffff16815260200190815260200160002060008154809291906107b490611524565b91905055508160008083815260200190815260200160002060006101000a81548173ffffffffffffffffffffffffffffffffffffffff021916908373ffffffffffffffffffffffffffffffffffffffff1602179055506002600082815260200190815260200160002060006101000a81549073ffffffffffffffffffffffffffffffffffffffff0219169055808273ffffffffffffffffffffffffffffffffffffffff168473ffffffffffffffffffffffffffffffffffffffff167fddf252ad1be2c89b69c2b068fc378daa952ba7f163c4a11628f55a4df523b3ef60405160405180910390a4505050565b6108ab8383836105b6565b60008273ffffffffffffffffffffffffffffffffffffffff163b1480610994575063150b7a0260e01b7bffffffffffffffffffffffffffffffffffffffffffffffffffffffff19168273ffffffffffffffffffffffffffffffffffffffff1663150b7a023386856040518463ffffffff1660e01b8152600401610930939291906115a3565b6020604051808303816000875af115801561094f573d6000803e3d6000fd5b505050506040513d601f19601f820116820180604052508101906109739190611602565b7bffffffffffffffffffffffffffffffffffffffffffffffffffffffff1916145b6109d3576040517f08c379a00000000000000000000000000000000000000000000000000000000081526004016109ca9061167b565b60405180910390fd5b505050565b600080600083815260200190815260200160002060009054906101000a900473ffffffffffffffffffffffffffffffffffffffff169050600073ffffffffffffffffffffffffffffffffffffffff168173ffffffffffffffffffffffffffffffffffffffff1603610a7e576040517f08c379a0000000000000000000000000000000000000000000000000000000008152600401610a75906116e7565b60405180910390fd5b919050565b60008073ffffffffffffffffffffffffffffffffffffffff168273ffffffffffffffffffffffffffffffffffffffff1603610af3576040517f08c379a0000000000000000000000000000000000000000000000000000000008152600401610aea906116e7565b60405180910390fd5b600160008373ffffffffffffffffffffffffffffffffffffffff1673ffffffffffffffffffffffffffffffffffffffff168152602001908152602001600020549050919050565b80600360003373ffffffffffffffffffffffffffffffffffffffff1673ffffffffffffffffffffffffffffffffffffffff16815260200190815260200160002060008473ffffffffffffffffffffffffffffffffffffffff1673ffffffffffffffffffffffffffffffffffffffff16815260200190815260200160002060006101000a81548160ff0219169083151502179055508173ffffffffffffffffffffffffffffffffffffffff163373ffffffffffffffffffffffffffffffffffffffff167f17307eab39ab6107e8899845ad3d59bd9653f200f220920489ca2b5937696c3183604051610c2b9190610f82565b60405180910390a35050565b610c428585856105b6565b60008473ffffffffffffffffffffffffffffffffffffffff163b1480610d2f575063150b7a0260e01b7bffffffffffffffffffffffffffffffffffffffffffffffffffffffff19168473ffffffffffffffffffffffffffffffffffffffff1663150b7a0233888787876040518663ffffffff1660e01b8152600401610ccb959493929190611754565b6020604051808303816000875af1158015610cea573d6000803e3d6000fd5b505050506040513d601f19601f82011682018060405250810190610d0e9190611602565b7bffffffffffffffffffffffffffffffffffffffffffffffffffffffff1916145b610d6e576040517f08c379a0000000000000000000000000000000000000000000000000000000008152600401610d659061167b565b60405180910390fd5b5050505050565b60036020528160005260406000206020528060005260406000206000915091509054906101000a900460ff1681565b60008373ffffffffffffffffffffffffffffffffffffffff168373ffffffffffffffffffffffffffffffffffffffff161480610e665750600360008573ffffffffffffffffffffffffffffffffffffffff1673ffffffffffffffffffffffffffffffffffffffff16815260200190815260200160002060008473ffffffffffffffffffffffffffffffffffffffff1673ffffffffffffffffffffffffffffffffffffffff16815260200190815260200160002060009054906101000a900460ff165b80610ecf57506002600083815260200190815260200160002060009054906101000a900473ffffffffffffffffffffffffffffffffffffffff1673ffffffffffffffffffffffffffffffffffffffff168373ffffffffffffffffffffffffffffffffffffffff16145b90509392505050565b600080fd5b600080fd5b60007fffffffff0000000000000000000000000000000000000000000000000000000082169050919050565b610f1781610ee2565b8114610f2257600080fd5b50565b600081359050610f3481610f0e565b92915050565b600060208284031215610f5057610f4f610ed8565b5b6000610f5e84828501610f25565b91505092915050565b60008115159050919050565b610f7c81610f67565b82525050565b6000602082019050610f976000830184610f73565b92915050565b6000819050919050565b610fb081610f9d565b8114610fbb57600080fd5b50565b600081359050610fcd81610fa7565b92915050565b600060208284031215610fe957610fe8610ed8565b5b6000610ff784828501610fbe565b91505092915050565b600073ffffffffffffffffffffffffffffffffffffffff82169050919050565b600061102b82611000565b9050919050565b61103b81611020565b82525050565b60006020820190506110566000830184611032565b92915050565b61106581611020565b811461107057600080fd5b50565b6000813590506110828161105c565b92915050565b6000806040838503121561109f5761109e610ed8565b5b60006110ad85828601611073565b92505060206110be85828601610fbe565b9150509250929050565b6000806000606084860312156110e1576110e0610ed8565b5b60006110ef86828701611073565b935050602061110086828701611073565b925050604061111186828701610fbe565b9150509250925092565b60006020828403121561113157611130610ed8565b5b600061113f84828501611073565b91505092915050565b61115181610f9d565b82525050565b600060208201905061116c6000830184611148565b92915050565b61117b81610f67565b811461118657600080fd5b50565b60008135905061119881611172565b92915050565b600080604083850312156111b5576111b4610ed8565b5b60006111c385828601611073565b92505060206111d485828601611189565b9150509250929050565b600080fd5b600080fd5b600080fd5b60008083601f840112611203576112026111de565b5b8235905067ffffffffffffffff8111156112205761121f6111e3565b5b60208301915083600182028301111561123c5761123b6111e8565b5b9250929050565b60008060008060006080868803121561125f5761125e610ed8565b5b600061126d88828901611073565b955050602061127e88828901611073565b945050604061128f88828901610fbe565b935050606086013567ffffffffffffffff8111156112b0576112af610edd565b5b6112bc888289016111ed565b92509250509295509295909350565b600080604083850312156112e2576112e1610ed8565b5b60006112f085828601611073565b925050602061130185828601611073565b9150509250929050565b600082825260208201905092915050565b7f746f6b656e20646f657327742065786974730000000000000000000000000000600082015250565b600061135260128361130b565b915061135d8261131c565b602082019050919050565b6000602082019050818103600083015261138181611345565b9050919050565b7f6e6f7420617574686f72697a6564000000000000000000000000000000000000600082015250565b60006113be600e8361130b565b91506113c982611388565b602082019050919050565b600060208201905081810360008301526113ed816113b1565b9050919050565b7f66726f6d20213d206f776e657200000000000000000000000000000000000000600082015250565b600061142a600d8361130b565b9150611435826113f4565b602082019050919050565b600060208201905081810360008301526114598161141d565b9050919050565b7f746f203d207a65726f2061646472657373000000000000000000000000000000600082015250565b600061149660118361130b565b91506114a182611460565b602082019050919050565b600060208201905081810360008301526114c581611489565b9050919050565b7f4e487b7100000000000000000000000000000000000000000000000000000000600052601160045260246000fd5b600061150682610f9d565b915060008203611519576115186114cc565b5b600182039050919050565b600061152f82610f9d565b91507fffffffffffffffffffffffffffffffffffffffffffffffffffffffffffffffff8203611561576115606114cc565b5b600182019050919050565b600082825260208201905092915050565b50565b600061158d60008361156c565b91506115988261157d565b600082019050919050565b60006080820190506115b86000830186611032565b6115c56020830185611032565b6115d26040830184611148565b81810360608301526115e381611580565b9050949350505050565b6000815190506115fc81610f0e565b92915050565b60006020828403121561161857611617610ed8565b5b6000611626848285016115ed565b91505092915050565b7f756e7361666520726563697069656e7400000000000000000000000000000000600082015250565b600061166560108361130b565b91506116708261162f565b602082019050919050565b6000602082019050818103600083015261169481611658565b9050919050565b7f6f776e6572203d207a65726f2061646472657373000000000000000000000000600082015250565b60006116d160148361130b565b91506116dc8261169b565b602082019050919050565b60006020820190508181036000830152611700816116c4565b9050919050565b82818337600083830152505050565b6000601f19601f8301169050919050565b6000611733838561156c565b9350611740838584611707565b61174983611716565b840190509392505050565b60006080820190506117696000830188611032565b6117766020830187611032565b6117836040830186611148565b8181036060830152611796818486611727565b9050969550505050505056fea2646970667358221220fab3a1e3215f8673477ae549005c12055d14c265584124604212e92d1956598064736f6c63430008120033",
					"opcodes": "PUSH1 0x80 PUSH1 0x40 MSTORE CALLVALUE DUP1 ISZERO PUSH2 0x10 JUMPI PUSH1 0x0 DUP1 REVERT JUMPDEST POP PUSH2 0x17D8 DUP1 PUSH2 0x20 PUSH1 0x0 CODECOPY PUSH1 0x0 RETURN INVALID PUSH1 0x80 PUSH1 0x40 MSTORE CALLVALUE DUP1 ISZERO PUSH2 0x10 JUMPI PUSH1 0x0 DUP1 REVERT JUMPDEST POP PUSH1 0x4 CALLDATASIZE LT PUSH2 0x9E JUMPI PUSH1 0x0 CALLDATALOAD PUSH1 0xE0 SHR DUP1 PUSH4 0x6352211E GT PUSH2 0x66 JUMPI DUP1 PUSH4 0x6352211E EQ PUSH2 0x157 JUMPI DUP1 PUSH4 0x70A08231 EQ PUSH2 0x187 JUMPI DUP1 PUSH4 0xA22CB465 EQ PUSH2 0x1B7 JUMPI DUP1 PUSH4 0xB88D4FDE EQ PUSH2 0x1D3 JUMPI DUP1 PUSH4 0xEBD1D359 EQ PUSH2 0x1EF JUMPI PUSH2 0x9E JUMP JUMPDEST DUP1 PUSH4 0x1FFC9A7 EQ PUSH2 0xA3 JUMPI DUP1 PUSH4 0x81812FC EQ PUSH2 0xD3 JUMPI DUP1 PUSH4 0x95EA7B3 EQ PUSH2 0x103 JUMPI DUP1 PUSH4 0x23B872DD EQ PUSH2 0x11F JUMPI DUP1 PUSH4 0x42842E0E EQ PUSH2 0x13B JUMPI JUMPDEST PUSH1 0x0 DUP1 REVERT JUMPDEST PUSH2 0xBD PUSH1 0x4 DUP1 CALLDATASIZE SUB DUP2 ADD SWAP1 PUSH2 0xB8 SWAP2 SWAP1 PUSH2 0xF3A JUMP JUMPDEST PUSH2 0x21F JUMP JUMPDEST PUSH1 0x40 MLOAD PUSH2 0xCA SWAP2 SWAP1 PUSH2 0xF82 JUMP JUMPDEST PUSH1 0x40 MLOAD DUP1 SWAP2 SUB SWAP1 RETURN JUMPDEST PUSH2 0xED PUSH1 0x4 DUP1 CALLDATASIZE SUB DUP2 ADD SWAP1 PUSH2 0xE8 SWAP2 SWAP1 PUSH2 0xFD3 JUMP JUMPDEST PUSH2 0x2F1 JUMP JUMPDEST PUSH1 0x40 MLOAD PUSH2 0xFA SWAP2 SWAP1 PUSH2 0x1041 JUMP JUMPDEST PUSH1 0x40 MLOAD DUP1 SWAP2 SUB SWAP1 RETURN JUMPDEST PUSH2 0x11D PUSH1 0x4 DUP1 CALLDATASIZE SUB DUP2 ADD SWAP1 PUSH2 0x118 SWAP2 SWAP1 PUSH2 0x1088 JUMP JUMPDEST PUSH2 0x3CE JUMP JUMPDEST STOP JUMPDEST PUSH2 0x139 PUSH1 0x4 DUP1 CALLDATASIZE SUB DUP2 ADD SWAP1 PUSH2 0x134 SWAP2 SWAP1 PUSH2 0x10C8 JUMP JUMPDEST PUSH2 0x5B6 JUMP JUMPDEST STOP JUMPDEST PUSH2 0x155 PUSH1 0x4 DUP1 CALLDATASIZE SUB DUP2 ADD SWAP1 PUSH2 0x150 SWAP2 SWAP1 PUSH2 0x10C8 JUMP JUMPDEST PUSH2 0x8A0 JUMP JUMPDEST STOP JUMPDEST PUSH2 0x171 PUSH1 0x4 DUP1 CALLDATASIZE SUB DUP2 ADD SWAP1 PUSH2 0x16C SWAP2 SWAP1 PUSH2 0xFD3 JUMP JUMPDEST PUSH2 0x9D8 JUMP JUMPDEST PUSH1 0x40 MLOAD PUSH2 0x17E SWAP2 SWAP1 PUSH2 0x1041 JUMP JUMPDEST PUSH1 0x40 MLOAD DUP1 SWAP2 SUB SWAP1 RETURN JUMPDEST PUSH2 0x1A1 PUSH1 0x4 DUP1 CALLDATASIZE SUB DUP2 ADD SWAP1 PUSH2 0x19C SWAP2 SWAP1 PUSH2 0x111B JUMP JUMPDEST PUSH2 0xA83 JUMP JUMPDEST PUSH1 0x40 MLOAD PUSH2 0x1AE SWAP2 SWAP1 PUSH2 0x1157 JUMP JUMPDEST PUSH1 0x40 MLOAD DUP1 SWAP2 SUB SWAP1 RETURN JUMPDEST PUSH2 0x1D1 PUSH1 0x4 DUP1 CALLDATASIZE SUB DUP2 ADD SWAP1 PUSH2 0x1CC SWAP2 SWAP1 PUSH2 0x119E JUMP JUMPDEST PUSH2 0xB3A JUMP JUMPDEST STOP JUMPDEST PUSH2 0x1ED PUSH1 0x4 DUP1 CALLDATASIZE SUB DUP2 ADD SWAP1 PUSH2 0x1E8 SWAP2 SWAP1 PUSH2 0x1243 JUMP JUMPDEST PUSH2 0xC37 JUMP JUMPDEST STOP JUMPDEST PUSH2 0x209 PUSH1 0x4 DUP1 CALLDATASIZE SUB DUP2 ADD SWAP1 PUSH2 0x204 SWAP2 SWAP1 PUSH2 0x12CB JUMP JUMPDEST PUSH2 0xD75 JUMP JUMPDEST PUSH1 0x40 MLOAD PUSH2 0x216 SWAP2 SWAP1 PUSH2 0xF82 JUMP JUMPDEST PUSH1 0x40 MLOAD DUP1 SWAP2 SUB SWAP1 RETURN JUMPDEST PUSH1 0x0 PUSH32 0x80AC58CD00000000000000000000000000000000000000000000000000000000 PUSH28 0xFFFFFFFFFFFFFFFFFFFFFFFFFFFFFFFFFFFFFFFFFFFFFFFFFFFFFFFF NOT AND DUP3 PUSH28 0xFFFFFFFFFFFFFFFFFFFFFFFFFFFFFFFFFFFFFFFFFFFFFFFFFFFFFFFF NOT AND EQ DUP1 PUSH2 0x2EA JUMPI POP PUSH32 0x1FFC9A700000000000000000000000000000000000000000000000000000000 PUSH28 0xFFFFFFFFFFFFFFFFFFFFFFFFFFFFFFFFFFFFFFFFFFFFFFFFFFFFFFFF NOT AND DUP3 PUSH28 0xFFFFFFFFFFFFFFFFFFFFFFFFFFFFFFFFFFFFFFFFFFFFFFFFFFFFFFFF NOT AND EQ JUMPDEST SWAP1 POP SWAP2 SWAP1 POP JUMP JUMPDEST PUSH1 0x0 DUP1 PUSH20 0xFFFFFFFFFFFFFFFFFFFFFFFFFFFFFFFFFFFFFFFF AND PUSH1 0x0 DUP1 DUP5 DUP2 MSTORE PUSH1 0x20 ADD SWAP1 DUP2 MSTORE PUSH1 0x20 ADD PUSH1 0x0 KECCAK256 PUSH1 0x0 SWAP1 SLOAD SWAP1 PUSH2 0x100 EXP SWAP1 DIV PUSH20 0xFFFFFFFFFFFFFFFFFFFFFFFFFFFFFFFFFFFFFFFF AND PUSH20 0xFFFFFFFFFFFFFFFFFFFFFFFFFFFFFFFFFFFFFFFF AND SUB PUSH2 0x393 JUMPI PUSH1 0x40 MLOAD PUSH32 0x8C379A000000000000000000000000000000000000000000000000000000000 DUP2 MSTORE PUSH1 0x4 ADD PUSH2 0x38A SWAP1 PUSH2 0x1368 JUMP JUMPDEST PUSH1 0x40 MLOAD DUP1 SWAP2 SUB SWAP1 REVERT JUMPDEST PUSH1 0x2 PUSH1 0x0 DUP4 DUP2 MSTORE PUSH1 0x20 ADD SWAP1 DUP2 MSTORE PUSH1 0x20 ADD PUSH1 0x0 KECCAK256 PUSH1 0x0 SWAP1 SLOAD SWAP1 PUSH2 0x100 EXP SWAP1 DIV PUSH20 0xFFFFFFFFFFFFFFFFFFFFFFFFFFFFFFFFFFFFFFFF AND SWAP1 POP SWAP2 SWAP1 POP JUMP JUMPDEST PUSH1 0x0 DUP1 PUSH1 0x0 DUP4 DUP2 MSTORE PUSH1 0x20 ADD SWAP1 DUP2 MSTORE PUSH1 0x20 ADD PUSH1 0x0 KECCAK256 PUSH1 0x0 SWAP1 SLOAD SWAP1 PUSH2 0x100 EXP SWAP1 DIV PUSH20 0xFFFFFFFFFFFFFFFFFFFFFFFFFFFFFFFFFFFFFFFF AND SWAP1 POP DUP1 PUSH20 0xFFFFFFFFFFFFFFFFFFFFFFFFFFFFFFFFFFFFFFFF AND CALLER PUSH20 0xFFFFFFFFFFFFFFFFFFFFFFFFFFFFFFFFFFFFFFFF AND EQ DUP1 PUSH2 0x4C5 JUMPI POP PUSH1 0x3 PUSH1 0x0 DUP3 PUSH20 0xFFFFFFFFFFFFFFFFFFFFFFFFFFFFFFFFFFFFFFFF AND PUSH20 0xFFFFFFFFFFFFFFFFFFFFFFFFFFFFFFFFFFFFFFFF AND DUP2 MSTORE PUSH1 0x20 ADD SWAP1 DUP2 MSTORE PUSH1 0x20 ADD PUSH1 0x0 KECCAK256 PUSH1 0x0 CALLER PUSH20 0xFFFFFFFFFFFFFFFFFFFFFFFFFFFFFFFFFFFFFFFF AND PUSH20 0xFFFFFFFFFFFFFFFFFFFFFFFFFFFFFFFFFFFFFFFF AND DUP2 MSTORE PUSH1 0x20 ADD SWAP1 DUP2 MSTORE PUSH1 0x20 ADD PUSH1 0x0 KECCAK256 PUSH1 0x0 SWAP1 SLOAD SWAP1 PUSH2 0x100 EXP SWAP1 DIV PUSH1 0xFF AND JUMPDEST PUSH2 0x504 JUMPI PUSH1 0x40 MLOAD PUSH32 0x8C379A000000000000000000000000000000000000000000000000000000000 DUP2 MSTORE PUSH1 0x4 ADD PUSH2 0x4FB SWAP1 PUSH2 0x13D4 JUMP JUMPDEST PUSH1 0x40 MLOAD DUP1 SWAP2 SUB SWAP1 REVERT JUMPDEST DUP3 PUSH1 0x2 PUSH1 0x0 DUP5 DUP2 MSTORE PUSH1 0x20 ADD SWAP1 DUP2 MSTORE PUSH1 0x20 ADD PUSH1 0x0 KECCAK256 PUSH1 0x0 PUSH2 0x100 EXP DUP2 SLOAD DUP2 PUSH20 0xFFFFFFFFFFFFFFFFFFFFFFFFFFFFFFFFFFFFFFFF MUL NOT AND SWAP1 DUP4 PUSH20 0xFFFFFFFFFFFFFFFFFFFFFFFFFFFFFFFFFFFFFFFF AND MUL OR SWAP1 SSTORE POP DUP2 DUP4 PUSH20 0xFFFFFFFFFFFFFFFFFFFFFFFFFFFFFFFFFFFFFFFF AND DUP3 PUSH20 0xFFFFFFFFFFFFFFFFFFFFFFFFFFFFFFFFFFFFFFFF AND PUSH32 0x8C5BE1E5EBEC7D5BD14F71427D1E84F3DD0314C0F7B2291E5B200AC8C7C3B925 PUSH1 0x40 MLOAD PUSH1 0x40 MLOAD DUP1 SWAP2 SUB SWAP1 LOG4 POP POP POP JUMP JUMPDEST PUSH1 0x0 DUP1 DUP3 DUP2 MSTORE PUSH1 0x20 ADD SWAP1 DUP2 MSTORE PUSH1 0x20 ADD PUSH1 0x0 KECCAK256 PUSH1 0x0 SWAP1 SLOAD SWAP1 PUSH2 0x100 EXP SWAP1 DIV PUSH20 0xFFFFFFFFFFFFFFFFFFFFFFFFFFFFFFFFFFFFFFFF AND PUSH20 0xFFFFFFFFFFFFFFFFFFFFFFFFFFFFFFFFFFFFFFFF AND DUP4 PUSH20 0xFFFFFFFFFFFFFFFFFFFFFFFFFFFFFFFFFFFFFFFF AND EQ PUSH2 0x656 JUMPI PUSH1 0x40 MLOAD PUSH32 0x8C379A000000000000000000000000000000000000000000000000000000000 DUP2 MSTORE PUSH1 0x4 ADD PUSH2 0x64D SWAP1 PUSH2 0x1440 JUMP JUMPDEST PUSH1 0x40 MLOAD DUP1 SWAP2 SUB SWAP1 REVERT JUMPDEST PUSH1 0x0 PUSH20 0xFFFFFFFFFFFFFFFFFFFFFFFFFFFFFFFFFFFFFFFF AND DUP3 PUSH20 0xFFFFFFFFFFFFFFFFFFFFFFFFFFFFFFFFFFFFFFFF AND SUB PUSH2 0x6C5 JUMPI PUSH1 0x40 MLOAD PUSH32 0x8C379A000000000000000000000000000000000000000000000000000000000 DUP2 MSTORE PUSH1 0x4 ADD PUSH2 0x6BC SWAP1 PUSH2 0x14AC JUMP JUMPDEST PUSH1 0x40 MLOAD DUP1 SWAP2 SUB SWAP1 REVERT JUMPDEST PUSH2 0x6D0 DUP4 CALLER DUP4 PUSH2 0xDA4 JUMP JUMPDEST PUSH2 0x70F JUMPI PUSH1 0x40 MLOAD PUSH32 0x8C379A000000000000000000000000000000000000000000000000000000000 DUP2 MSTORE PUSH1 0x4 ADD PUSH2 0x706 SWAP1 PUSH2 0x13D4 JUMP JUMPDEST PUSH1 0x40 MLOAD DUP1 SWAP2 SUB SWAP1 REVERT JUMPDEST PUSH1 0x1 PUSH1 0x0 DUP5 PUSH20 0xFFFFFFFFFFFFFFFFFFFFFFFFFFFFFFFFFFFFFFFF AND PUSH20 0xFFFFFFFFFFFFFFFFFFFFFFFFFFFFFFFFFFFFFFFF AND DUP2 MSTORE PUSH1 0x20 ADD SWAP1 DUP2 MSTORE PUSH1 0x20 ADD PUSH1 0x0 KECCAK256 PUSH1 0x0 DUP2 SLOAD DUP1 SWAP3 SWAP2 SWAP1 PUSH2 0x75F SWAP1 PUSH2 0x14FB JUMP JUMPDEST SWAP2 SWAP1 POP SSTORE POP PUSH1 0x1 PUSH1 0x0 DUP4 PUSH20 0xFFFFFFFFFFFFFFFFFFFFFFFFFFFFFFFFFFFFFFFF AND PUSH20 0xFFFFFFFFFFFFFFFFFFFFFFFFFFFFFFFFFFFFFFFF AND DUP2 MSTORE PUSH1 0x20 ADD SWAP1 DUP2 MSTORE PUSH1 0x20 ADD PUSH1 0x0 KECCAK256 PUSH1 0x0 DUP2 SLOAD DUP1 SWAP3 SWAP2 SWAP1 PUSH2 0x7B4 SWAP1 PUSH2 0x1524 JUMP JUMPDEST SWAP2 SWAP1 POP SSTORE POP DUP2 PUSH1 0x0 DUP1 DUP4 DUP2 MSTORE PUSH1 0x20 ADD SWAP1 DUP2 MSTORE PUSH1 0x20 ADD PUSH1 0x0 KECCAK256 PUSH1 0x0 PUSH2 0x100 EXP DUP2 SLOAD DUP2 PUSH20 0xFFFFFFFFFFFFFFFFFFFFFFFFFFFFFFFFFFFFFFFF MUL NOT AND SWAP1 DUP4 PUSH20 0xFFFFFFFFFFFFFFFFFFFFFFFFFFFFFFFFFFFFFFFF AND MUL OR SWAP1 SSTORE POP PUSH1 0x2 PUSH1 0x0 DUP3 DUP2 MSTORE PUSH1 0x20 ADD SWAP1 DUP2 MSTORE PUSH1 0x20 ADD PUSH1 0x0 KECCAK256 PUSH1 0x0 PUSH2 0x100 EXP DUP2 SLOAD SWAP1 PUSH20 0xFFFFFFFFFFFFFFFFFFFFFFFFFFFFFFFFFFFFFFFF MUL NOT AND SWAP1 SSTORE DUP1 DUP3 PUSH20 0xFFFFFFFFFFFFFFFFFFFFFFFFFFFFFFFFFFFFFFFF AND DUP5 PUSH20 0xFFFFFFFFFFFFFFFFFFFFFFFFFFFFFFFFFFFFFFFF AND PUSH32 0xDDF252AD1BE2C89B69C2B068FC378DAA952BA7F163C4A11628F55A4DF523B3EF PUSH1 0x40 MLOAD PUSH1 0x40 MLOAD DUP1 SWAP2 SUB SWAP1 LOG4 POP POP POP JUMP JUMPDEST PUSH2 0x8AB DUP4 DUP4 DUP4 PUSH2 0x5B6 JUMP JUMPDEST PUSH1 0x0 DUP3 PUSH20 0xFFFFFFFFFFFFFFFFFFFFFFFFFFFFFFFFFFFFFFFF AND EXTCODESIZE EQ DUP1 PUSH2 0x994 JUMPI POP PUSH4 0x150B7A02 PUSH1 0xE0 SHL PUSH28 0xFFFFFFFFFFFFFFFFFFFFFFFFFFFFFFFFFFFFFFFFFFFFFFFFFFFFFFFF NOT AND DUP3 PUSH20 0xFFFFFFFFFFFFFFFFFFFFFFFFFFFFFFFFFFFFFFFF AND PUSH4 0x150B7A02 CALLER DUP7 DUP6 PUSH1 0x40 MLOAD DUP5 PUSH4 0xFFFFFFFF AND PUSH1 0xE0 SHL DUP2 MSTORE PUSH1 0x4 ADD PUSH2 0x930 SWAP4 SWAP3 SWAP2 SWAP1 PUSH2 0x15A3 JUMP JUMPDEST PUSH1 0x20 PUSH1 0x40 MLOAD DUP1 DUP4 SUB DUP2 PUSH1 0x0 DUP8 GAS CALL ISZERO DUP1 ISZERO PUSH2 0x94F JUMPI RETURNDATASIZE PUSH1 0x0 DUP1 RETURNDATACOPY RETURNDATASIZE PUSH1 0x0 REVERT JUMPDEST POP POP POP POP PUSH1 0x40 MLOAD RETURNDATASIZE PUSH1 0x1F NOT PUSH1 0x1F DUP3 ADD AND DUP3 ADD DUP1 PUSH1 0x40 MSTORE POP DUP2 ADD SWAP1 PUSH2 0x973 SWAP2 SWAP1 PUSH2 0x1602 JUMP JUMPDEST PUSH28 0xFFFFFFFFFFFFFFFFFFFFFFFFFFFFFFFFFFFFFFFFFFFFFFFFFFFFFFFF NOT AND EQ JUMPDEST PUSH2 0x9D3 JUMPI PUSH1 0x40 MLOAD PUSH32 0x8C379A000000000000000000000000000000000000000000000000000000000 DUP2 MSTORE PUSH1 0x4 ADD PUSH2 0x9CA SWAP1 PUSH2 0x167B JUMP JUMPDEST PUSH1 0x40 MLOAD DUP1 SWAP2 SUB SWAP1 REVERT JUMPDEST POP POP POP JUMP JUMPDEST PUSH1 0x0 DUP1 PUSH1 0x0 DUP4 DUP2 MSTORE PUSH1 0x20 ADD SWAP1 DUP2 MSTORE PUSH1 0x20 ADD PUSH1 0x0 KECCAK256 PUSH1 0x0 SWAP1 SLOAD SWAP1 PUSH2 0x100 EXP SWAP1 DIV PUSH20 0xFFFFFFFFFFFFFFFFFFFFFFFFFFFFFFFFFFFFFFFF AND SWAP1 POP PUSH1 0x0 PUSH20 0xFFFFFFFFFFFFFFFFFFFFFFFFFFFFFFFFFFFFFFFF AND DUP2 PUSH20 0xFFFFFFFFFFFFFFFFFFFFFFFFFFFFFFFFFFFFFFFF AND SUB PUSH2 0xA7E JUMPI PUSH1 0x40 MLOAD PUSH32 0x8C379A000000000000000000000000000000000000000000000000000000000 DUP2 MSTORE PUSH1 0x4 ADD PUSH2 0xA75 SWAP1 PUSH2 0x16E7 JUMP JUMPDEST PUSH1 0x40 MLOAD DUP1 SWAP2 SUB SWAP1 REVERT JUMPDEST SWAP2 SWAP1 POP JUMP JUMPDEST PUSH1 0x0 DUP1 PUSH20 0xFFFFFFFFFFFFFFFFFFFFFFFFFFFFFFFFFFFFFFFF AND DUP3 PUSH20 0xFFFFFFFFFFFFFFFFFFFFFFFFFFFFFFFFFFFFFFFF AND SUB PUSH2 0xAF3 JUMPI PUSH1 0x40 MLOAD PUSH32 0x8C379A000000000000000000000000000000000000000000000000000000000 DUP2 MSTORE PUSH1 0x4 ADD PUSH2 0xAEA SWAP1 PUSH2 0x16E7 JUMP JUMPDEST PUSH1 0x40 MLOAD DUP1 SWAP2 SUB SWAP1 REVERT JUMPDEST PUSH1 0x1 PUSH1 0x0 DUP4 PUSH20 0xFFFFFFFFFFFFFFFFFFFFFFFFFFFFFFFFFFFFFFFF AND PUSH20 0xFFFFFFFFFFFFFFFFFFFFFFFFFFFFFFFFFFFFFFFF AND DUP2 MSTORE PUSH1 0x20 ADD SWAP1 DUP2 MSTORE PUSH1 0x20 ADD PUSH1 0x0 KECCAK256 SLOAD SWAP1 POP SWAP2 SWAP1 POP JUMP JUMPDEST DUP1 PUSH1 0x3 PUSH1 0x0 CALLER PUSH20 0xFFFFFFFFFFFFFFFFFFFFFFFFFFFFFFFFFFFFFFFF AND PUSH20 0xFFFFFFFFFFFFFFFFFFFFFFFFFFFFFFFFFFFFFFFF AND DUP2 MSTORE PUSH1 0x20 ADD SWAP1 DUP2 MSTORE PUSH1 0x20 ADD PUSH1 0x0 KECCAK256 PUSH1 0x0 DUP5 PUSH20 0xFFFFFFFFFFFFFFFFFFFFFFFFFFFFFFFFFFFFFFFF AND PUSH20 0xFFFFFFFFFFFFFFFFFFFFFFFFFFFFFFFFFFFFFFFF AND DUP2 MSTORE PUSH1 0x20 ADD SWAP1 DUP2 MSTORE PUSH1 0x20 ADD PUSH1 0x0 KECCAK256 PUSH1 0x0 PUSH2 0x100 EXP DUP2 SLOAD DUP2 PUSH1 0xFF MUL NOT AND SWAP1 DUP4 ISZERO ISZERO MUL OR SWAP1 SSTORE POP DUP2 PUSH20 0xFFFFFFFFFFFFFFFFFFFFFFFFFFFFFFFFFFFFFFFF AND CALLER PUSH20 0xFFFFFFFFFFFFFFFFFFFFFFFFFFFFFFFFFFFFFFFF AND PUSH32 0x17307EAB39AB6107E8899845AD3D59BD9653F200F220920489CA2B5937696C31 DUP4 PUSH1 0x40 MLOAD PUSH2 0xC2B SWAP2 SWAP1 PUSH2 0xF82 JUMP JUMPDEST PUSH1 0x40 MLOAD DUP1 SWAP2 SUB SWAP1 LOG3 POP POP JUMP JUMPDEST PUSH2 0xC42 DUP6 DUP6 DUP6 PUSH2 0x5B6 JUMP JUMPDEST PUSH1 0x0 DUP5 PUSH20 0xFFFFFFFFFFFFFFFFFFFFFFFFFFFFFFFFFFFFFFFF AND EXTCODESIZE EQ DUP1 PUSH2 0xD2F JUMPI POP PUSH4 0x150B7A02 PUSH1 0xE0 SHL PUSH28 0xFFFFFFFFFFFFFFFFFFFFFFFFFFFFFFFFFFFFFFFFFFFFFFFFFFFFFFFF NOT AND DUP5 PUSH20 0xFFFFFFFFFFFFFFFFFFFFFFFFFFFFFFFFFFFFFFFF AND PUSH4 0x150B7A02 CALLER DUP9 DUP8 DUP8 DUP8 PUSH1 0x40 MLOAD DUP7 PUSH4 0xFFFFFFFF AND PUSH1 0xE0 SHL DUP2 MSTORE PUSH1 0x4 ADD PUSH2 0xCCB SWAP6 SWAP5 SWAP4 SWAP3 SWAP2 SWAP1 PUSH2 0x1754 JUMP JUMPDEST PUSH1 0x20 PUSH1 0x40 MLOAD DUP1 DUP4 SUB DUP2 PUSH1 0x0 DUP8 GAS CALL ISZERO DUP1 ISZERO PUSH2 0xCEA JUMPI RETURNDATASIZE PUSH1 0x0 DUP1 RETURNDATACOPY RETURNDATASIZE PUSH1 0x0 REVERT JUMPDEST POP POP POP POP PUSH1 0x40 MLOAD RETURNDATASIZE PUSH1 0x1F NOT PUSH1 0x1F DUP3 ADD AND DUP3 ADD DUP1 PUSH1 0x40 MSTORE POP DUP2 ADD SWAP1 PUSH2 0xD0E SWAP2 SWAP1 PUSH2 0x1602 JUMP JUMPDEST PUSH28 0xFFFFFFFFFFFFFFFFFFFFFFFFFFFFFFFFFFFFFFFFFFFFFFFFFFFFFFFF NOT AND EQ JUMPDEST PUSH2 0xD6E JUMPI PUSH1 0x40 MLOAD PUSH32 0x8C379A000000000000000000000000000000000000000000000000000000000 DUP2 MSTORE PUSH1 0x4 ADD PUSH2 0xD65 SWAP1 PUSH2 0x167B JUMP JUMPDEST PUSH1 0x40 MLOAD DUP1 SWAP2 SUB SWAP1 REVERT JUMPDEST POP POP POP POP POP JUMP JUMPDEST PUSH1 0x3 PUSH1 0x20 MSTORE DUP2 PUSH1 0x0 MSTORE PUSH1 0x40 PUSH1 0x0 KECCAK256 PUSH1 0x20 MSTORE DUP1 PUSH1 0x0 MSTORE PUSH1 0x40 PUSH1 0x0 KECCAK256 PUSH1 0x0 SWAP2 POP SWAP2 POP SWAP1 SLOAD SWAP1 PUSH2 0x100 EXP SWAP1 DIV PUSH1 0xFF AND DUP2 JUMP JUMPDEST PUSH1 0x0 DUP4 PUSH20 0xFFFFFFFFFFFFFFFFFFFFFFFFFFFFFFFFFFFFFFFF AND DUP4 PUSH20 0xFFFFFFFFFFFFFFFFFFFFFFFFFFFFFFFFFFFFFFFF AND EQ DUP1 PUSH2 0xE66 JUMPI POP PUSH1 0x3 PUSH1 0x0 DUP6 PUSH20 0xFFFFFFFFFFFFFFFFFFFFFFFFFFFFFFFFFFFFFFFF AND PUSH20 0xFFFFFFFFFFFFFFFFFFFFFFFFFFFFFFFFFFFFFFFF AND DUP2 MSTORE PUSH1 0x20 ADD SWAP1 DUP2 MSTORE PUSH1 0x20 ADD PUSH1 0x0 KECCAK256 PUSH1 0x0 DUP5 PUSH20 0xFFFFFFFFFFFFFFFFFFFFFFFFFFFFFFFFFFFFFFFF AND PUSH20 0xFFFFFFFFFFFFFFFFFFFFFFFFFFFFFFFFFFFFFFFF AND DUP2 MSTORE PUSH1 0x20 ADD SWAP1 DUP2 MSTORE PUSH1 0x20 ADD PUSH1 0x0 KECCAK256 PUSH1 0x0 SWAP1 SLOAD SWAP1 PUSH2 0x100 EXP SWAP1 DIV PUSH1 0xFF AND JUMPDEST DUP1 PUSH2 0xECF JUMPI POP PUSH1 0x2 PUSH1 0x0 DUP4 DUP2 MSTORE PUSH1 0x20 ADD SWAP1 DUP2 MSTORE PUSH1 0x20 ADD PUSH1 0x0 KECCAK256 PUSH1 0x0 SWAP1 SLOAD SWAP1 PUSH2 0x100 EXP SWAP1 DIV PUSH20 0xFFFFFFFFFFFFFFFFFFFFFFFFFFFFFFFFFFFFFFFF AND PUSH20 0xFFFFFFFFFFFFFFFFFFFFFFFFFFFFFFFFFFFFFFFF AND DUP4 PUSH20 0xFFFFFFFFFFFFFFFFFFFFFFFFFFFFFFFFFFFFFFFF AND EQ JUMPDEST SWAP1 POP SWAP4 SWAP3 POP POP POP JUMP JUMPDEST PUSH1 0x0 DUP1 REVERT JUMPDEST PUSH1 0x0 DUP1 REVERT JUMPDEST PUSH1 0x0 PUSH32 0xFFFFFFFF00000000000000000000000000000000000000000000000000000000 DUP3 AND SWAP1 POP SWAP2 SWAP1 POP JUMP JUMPDEST PUSH2 0xF17 DUP2 PUSH2 0xEE2 JUMP JUMPDEST DUP2 EQ PUSH2 0xF22 JUMPI PUSH1 0x0 DUP1 REVERT JUMPDEST POP JUMP JUMPDEST PUSH1 0x0 DUP2 CALLDATALOAD SWAP1 POP PUSH2 0xF34 DUP2 PUSH2 0xF0E JUMP JUMPDEST SWAP3 SWAP2 POP POP JUMP JUMPDEST PUSH1 0x0 PUSH1 0x20 DUP3 DUP5 SUB SLT ISZERO PUSH2 0xF50 JUMPI PUSH2 0xF4F PUSH2 0xED8 JUMP JUMPDEST JUMPDEST PUSH1 0x0 PUSH2 0xF5E DUP5 DUP3 DUP6 ADD PUSH2 0xF25 JUMP JUMPDEST SWAP2 POP POP SWAP3 SWAP2 POP POP JUMP JUMPDEST PUSH1 0x0 DUP2 ISZERO ISZERO SWAP1 POP SWAP2 SWAP1 POP JUMP JUMPDEST PUSH2 0xF7C DUP2 PUSH2 0xF67 JUMP JUMPDEST DUP3 MSTORE POP POP JUMP JUMPDEST PUSH1 0x0 PUSH1 0x20 DUP3 ADD SWAP1 POP PUSH2 0xF97 PUSH1 0x0 DUP4 ADD DUP5 PUSH2 0xF73 JUMP JUMPDEST SWAP3 SWAP2 POP POP JUMP JUMPDEST PUSH1 0x0 DUP2 SWAP1 POP SWAP2 SWAP1 POP JUMP JUMPDEST PUSH2 0xFB0 DUP2 PUSH2 0xF9D JUMP JUMPDEST DUP2 EQ PUSH2 0xFBB JUMPI PUSH1 0x0 DUP1 REVERT JUMPDEST POP JUMP JUMPDEST PUSH1 0x0 DUP2 CALLDATALOAD SWAP1 POP PUSH2 0xFCD DUP2 PUSH2 0xFA7 JUMP JUMPDEST SWAP3 SWAP2 POP POP JUMP JUMPDEST PUSH1 0x0 PUSH1 0x20 DUP3 DUP5 SUB SLT ISZERO PUSH2 0xFE9 JUMPI PUSH2 0xFE8 PUSH2 0xED8 JUMP JUMPDEST JUMPDEST PUSH1 0x0 PUSH2 0xFF7 DUP5 DUP3 DUP6 ADD PUSH2 0xFBE JUMP JUMPDEST SWAP2 POP POP SWAP3 SWAP2 POP POP JUMP JUMPDEST PUSH1 0x0 PUSH20 0xFFFFFFFFFFFFFFFFFFFFFFFFFFFFFFFFFFFFFFFF DUP3 AND SWAP1 POP SWAP2 SWAP1 POP JUMP JUMPDEST PUSH1 0x0 PUSH2 0x102B DUP3 PUSH2 0x1000 JUMP JUMPDEST SWAP1 POP SWAP2 SWAP1 POP JUMP JUMPDEST PUSH2 0x103B DUP2 PUSH2 0x1020 JUMP JUMPDEST DUP3 MSTORE POP POP JUMP JUMPDEST PUSH1 0x0 PUSH1 0x20 DUP3 ADD SWAP1 POP PUSH2 0x1056 PUSH1 0x0 DUP4 ADD DUP5 PUSH2 0x1032 JUMP JUMPDEST SWAP3 SWAP2 POP POP JUMP JUMPDEST PUSH2 0x1065 DUP2 PUSH2 0x1020 JUMP JUMPDEST DUP2 EQ PUSH2 0x1070 JUMPI PUSH1 0x0 DUP1 REVERT JUMPDEST POP JUMP JUMPDEST PUSH1 0x0 DUP2 CALLDATALOAD SWAP1 POP PUSH2 0x1082 DUP2 PUSH2 0x105C JUMP JUMPDEST SWAP3 SWAP2 POP POP JUMP JUMPDEST PUSH1 0x0 DUP1 PUSH1 0x40 DUP4 DUP6 SUB SLT ISZERO PUSH2 0x109F JUMPI PUSH2 0x109E PUSH2 0xED8 JUMP JUMPDEST JUMPDEST PUSH1 0x0 PUSH2 0x10AD DUP6 DUP3 DUP7 ADD PUSH2 0x1073 JUMP JUMPDEST SWAP3 POP POP PUSH1 0x20 PUSH2 0x10BE DUP6 DUP3 DUP7 ADD PUSH2 0xFBE JUMP JUMPDEST SWAP2 POP POP SWAP3 POP SWAP3 SWAP1 POP JUMP JUMPDEST PUSH1 0x0 DUP1 PUSH1 0x0 PUSH1 0x60 DUP5 DUP7 SUB SLT ISZERO PUSH2 0x10E1 JUMPI PUSH2 0x10E0 PUSH2 0xED8 JUMP JUMPDEST JUMPDEST PUSH1 0x0 PUSH2 0x10EF DUP7 DUP3 DUP8 ADD PUSH2 0x1073 JUMP JUMPDEST SWAP4 POP POP PUSH1 0x20 PUSH2 0x1100 DUP7 DUP3 DUP8 ADD PUSH2 0x1073 JUMP JUMPDEST SWAP3 POP POP PUSH1 0x40 PUSH2 0x1111 DUP7 DUP3 DUP8 ADD PUSH2 0xFBE JUMP JUMPDEST SWAP2 POP POP SWAP3 POP SWAP3 POP SWAP3 JUMP JUMPDEST PUSH1 0x0 PUSH1 0x20 DUP3 DUP5 SUB SLT ISZERO PUSH2 0x1131 JUMPI PUSH2 0x1130 PUSH2 0xED8 JUMP JUMPDEST JUMPDEST PUSH1 0x0 PUSH2 0x113F DUP5 DUP3 DUP6 ADD PUSH2 0x1073 JUMP JUMPDEST SWAP2 POP POP SWAP3 SWAP2 POP POP JUMP JUMPDEST PUSH2 0x1151 DUP2 PUSH2 0xF9D JUMP JUMPDEST DUP3 MSTORE POP POP JUMP JUMPDEST PUSH1 0x0 PUSH1 0x20 DUP3 ADD SWAP1 POP PUSH2 0x116C PUSH1 0x0 DUP4 ADD DUP5 PUSH2 0x1148 JUMP JUMPDEST SWAP3 SWAP2 POP POP JUMP JUMPDEST PUSH2 0x117B DUP2 PUSH2 0xF67 JUMP JUMPDEST DUP2 EQ PUSH2 0x1186 JUMPI PUSH1 0x0 DUP1 REVERT JUMPDEST POP JUMP JUMPDEST PUSH1 0x0 DUP2 CALLDATALOAD SWAP1 POP PUSH2 0x1198 DUP2 PUSH2 0x1172 JUMP JUMPDEST SWAP3 SWAP2 POP POP JUMP JUMPDEST PUSH1 0x0 DUP1 PUSH1 0x40 DUP4 DUP6 SUB SLT ISZERO PUSH2 0x11B5 JUMPI PUSH2 0x11B4 PUSH2 0xED8 JUMP JUMPDEST JUMPDEST PUSH1 0x0 PUSH2 0x11C3 DUP6 DUP3 DUP7 ADD PUSH2 0x1073 JUMP JUMPDEST SWAP3 POP POP PUSH1 0x20 PUSH2 0x11D4 DUP6 DUP3 DUP7 ADD PUSH2 0x1189 JUMP JUMPDEST SWAP2 POP POP SWAP3 POP SWAP3 SWAP1 POP JUMP JUMPDEST PUSH1 0x0 DUP1 REVERT JUMPDEST PUSH1 0x0 DUP1 REVERT JUMPDEST PUSH1 0x0 DUP1 REVERT JUMPDEST PUSH1 0x0 DUP1 DUP4 PUSH1 0x1F DUP5 ADD SLT PUSH2 0x1203 JUMPI PUSH2 0x1202 PUSH2 0x11DE JUMP JUMPDEST JUMPDEST DUP3 CALLDATALOAD SWAP1 POP PUSH8 0xFFFFFFFFFFFFFFFF DUP2 GT ISZERO PUSH2 0x1220 JUMPI PUSH2 0x121F PUSH2 0x11E3 JUMP JUMPDEST JUMPDEST PUSH1 0x20 DUP4 ADD SWAP2 POP DUP4 PUSH1 0x1 DUP3 MUL DUP4 ADD GT ISZERO PUSH2 0x123C JUMPI PUSH2 0x123B PUSH2 0x11E8 JUMP JUMPDEST JUMPDEST SWAP3 POP SWAP3 SWAP1 POP JUMP JUMPDEST PUSH1 0x0 DUP1 PUSH1 0x0 DUP1 PUSH1 0x0 PUSH1 0x80 DUP7 DUP9 SUB SLT ISZERO PUSH2 0x125F JUMPI PUSH2 0x125E PUSH2 0xED8 JUMP JUMPDEST JUMPDEST PUSH1 0x0 PUSH2 0x126D DUP9 DUP3 DUP10 ADD PUSH2 0x1073 JUMP JUMPDEST SWAP6 POP POP PUSH1 0x20 PUSH2 0x127E DUP9 DUP3 DUP10 ADD PUSH2 0x1073 JUMP JUMPDEST SWAP5 POP POP PUSH1 0x40 PUSH2 0x128F DUP9 DUP3 DUP10 ADD PUSH2 0xFBE JUMP JUMPDEST SWAP4 POP POP PUSH1 0x60 DUP7 ADD CALLDATALOAD PUSH8 0xFFFFFFFFFFFFFFFF DUP2 GT ISZERO PUSH2 0x12B0 JUMPI PUSH2 0x12AF PUSH2 0xEDD JUMP JUMPDEST JUMPDEST PUSH2 0x12BC DUP9 DUP3 DUP10 ADD PUSH2 0x11ED JUMP JUMPDEST SWAP3 POP SWAP3 POP POP SWAP3 SWAP6 POP SWAP3 SWAP6 SWAP1 SWAP4 POP JUMP JUMPDEST PUSH1 0x0 DUP1 PUSH1 0x40 DUP4 DUP6 SUB SLT ISZERO PUSH2 0x12E2 JUMPI PUSH2 0x12E1 PUSH2 0xED8 JUMP JUMPDEST JUMPDEST PUSH1 0x0 PUSH2 0x12F0 DUP6 DUP3 DUP7 ADD PUSH2 0x1073 JUMP JUMPDEST SWAP3 POP POP PUSH1 0x20 PUSH2 0x1301 DUP6 DUP3 DUP7 ADD PUSH2 0x1073 JUMP JUMPDEST SWAP2 POP POP SWAP3 POP SWAP3 SWAP1 POP JUMP JUMPDEST PUSH1 0x0 DUP3 DUP3 MSTORE PUSH1 0x20 DUP3 ADD SWAP1 POP SWAP3 SWAP2 POP POP JUMP JUMPDEST PUSH32 0x746F6B656E20646F657327742065786974730000000000000000000000000000 PUSH1 0x0 DUP3 ADD MSTORE POP JUMP JUMPDEST PUSH1 0x0 PUSH2 0x1352 PUSH1 0x12 DUP4 PUSH2 0x130B JUMP JUMPDEST SWAP2 POP PUSH2 0x135D DUP3 PUSH2 0x131C JUMP JUMPDEST PUSH1 0x20 DUP3 ADD SWAP1 POP SWAP2 SWAP1 POP JUMP JUMPDEST PUSH1 0x0 PUSH1 0x20 DUP3 ADD SWAP1 POP DUP2 DUP2 SUB PUSH1 0x0 DUP4 ADD MSTORE PUSH2 0x1381 DUP2 PUSH2 0x1345 JUMP JUMPDEST SWAP1 POP SWAP2 SWAP1 POP JUMP JUMPDEST PUSH32 0x6E6F7420617574686F72697A6564000000000000000000000000000000000000 PUSH1 0x0 DUP3 ADD MSTORE POP JUMP JUMPDEST PUSH1 0x0 PUSH2 0x13BE PUSH1 0xE DUP4 PUSH2 0x130B JUMP JUMPDEST SWAP2 POP PUSH2 0x13C9 DUP3 PUSH2 0x1388 JUMP JUMPDEST PUSH1 0x20 DUP3 ADD SWAP1 POP SWAP2 SWAP1 POP JUMP JUMPDEST PUSH1 0x0 PUSH1 0x20 DUP3 ADD SWAP1 POP DUP2 DUP2 SUB PUSH1 0x0 DUP4 ADD MSTORE PUSH2 0x13ED DUP2 PUSH2 0x13B1 JUMP JUMPDEST SWAP1 POP SWAP2 SWAP1 POP JUMP JUMPDEST PUSH32 0x66726F6D20213D206F776E657200000000000000000000000000000000000000 PUSH1 0x0 DUP3 ADD MSTORE POP JUMP JUMPDEST PUSH1 0x0 PUSH2 0x142A PUSH1 0xD DUP4 PUSH2 0x130B JUMP JUMPDEST SWAP2 POP PUSH2 0x1435 DUP3 PUSH2 0x13F4 JUMP JUMPDEST PUSH1 0x20 DUP3 ADD SWAP1 POP SWAP2 SWAP1 POP JUMP JUMPDEST PUSH1 0x0 PUSH1 0x20 DUP3 ADD SWAP1 POP DUP2 DUP2 SUB PUSH1 0x0 DUP4 ADD MSTORE PUSH2 0x1459 DUP2 PUSH2 0x141D JUMP JUMPDEST SWAP1 POP SWAP2 SWAP1 POP JUMP JUMPDEST PUSH32 0x746F203D207A65726F2061646472657373000000000000000000000000000000 PUSH1 0x0 DUP3 ADD MSTORE POP JUMP JUMPDEST PUSH1 0x0 PUSH2 0x1496 PUSH1 0x11 DUP4 PUSH2 0x130B JUMP JUMPDEST SWAP2 POP PUSH2 0x14A1 DUP3 PUSH2 0x1460 JUMP JUMPDEST PUSH1 0x20 DUP3 ADD SWAP1 POP SWAP2 SWAP1 POP JUMP JUMPDEST PUSH1 0x0 PUSH1 0x20 DUP3 ADD SWAP1 POP DUP2 DUP2 SUB PUSH1 0x0 DUP4 ADD MSTORE PUSH2 0x14C5 DUP2 PUSH2 0x1489 JUMP JUMPDEST SWAP1 POP SWAP2 SWAP1 POP JUMP JUMPDEST PUSH32 0x4E487B7100000000000000000000000000000000000000000000000000000000 PUSH1 0x0 MSTORE PUSH1 0x11 PUSH1 0x4 MSTORE PUSH1 0x24 PUSH1 0x0 REVERT JUMPDEST PUSH1 0x0 PUSH2 0x1506 DUP3 PUSH2 0xF9D JUMP JUMPDEST SWAP2 POP PUSH1 0x0 DUP3 SUB PUSH2 0x1519 JUMPI PUSH2 0x1518 PUSH2 0x14CC JUMP JUMPDEST JUMPDEST PUSH1 0x1 DUP3 SUB SWAP1 POP SWAP2 SWAP1 POP JUMP JUMPDEST PUSH1 0x0 PUSH2 0x152F DUP3 PUSH2 0xF9D JUMP JUMPDEST SWAP2 POP PUSH32 0xFFFFFFFFFFFFFFFFFFFFFFFFFFFFFFFFFFFFFFFFFFFFFFFFFFFFFFFFFFFFFFFF DUP3 SUB PUSH2 0x1561 JUMPI PUSH2 0x1560 PUSH2 0x14CC JUMP JUMPDEST JUMPDEST PUSH1 0x1 DUP3 ADD SWAP1 POP SWAP2 SWAP1 POP JUMP JUMPDEST PUSH1 0x0 DUP3 DUP3 MSTORE PUSH1 0x20 DUP3 ADD SWAP1 POP SWAP3 SWAP2 POP POP JUMP JUMPDEST POP JUMP JUMPDEST PUSH1 0x0 PUSH2 0x158D PUSH1 0x0 DUP4 PUSH2 0x156C JUMP JUMPDEST SWAP2 POP PUSH2 0x1598 DUP3 PUSH2 0x157D JUMP JUMPDEST PUSH1 0x0 DUP3 ADD SWAP1 POP SWAP2 SWAP1 POP JUMP JUMPDEST PUSH1 0x0 PUSH1 0x80 DUP3 ADD SWAP1 POP PUSH2 0x15B8 PUSH1 0x0 DUP4 ADD DUP7 PUSH2 0x1032 JUMP JUMPDEST PUSH2 0x15C5 PUSH1 0x20 DUP4 ADD DUP6 PUSH2 0x1032 JUMP JUMPDEST PUSH2 0x15D2 PUSH1 0x40 DUP4 ADD DUP5 PUSH2 0x1148 JUMP JUMPDEST DUP2 DUP2 SUB PUSH1 0x60 DUP4 ADD MSTORE PUSH2 0x15E3 DUP2 PUSH2 0x1580 JUMP JUMPDEST SWAP1 POP SWAP5 SWAP4 POP POP POP POP JUMP JUMPDEST PUSH1 0x0 DUP2 MLOAD SWAP1 POP PUSH2 0x15FC DUP2 PUSH2 0xF0E JUMP JUMPDEST SWAP3 SWAP2 POP POP JUMP JUMPDEST PUSH1 0x0 PUSH1 0x20 DUP3 DUP5 SUB SLT ISZERO PUSH2 0x1618 JUMPI PUSH2 0x1617 PUSH2 0xED8 JUMP JUMPDEST JUMPDEST PUSH1 0x0 PUSH2 0x1626 DUP5 DUP3 DUP6 ADD PUSH2 0x15ED JUMP JUMPDEST SWAP2 POP POP SWAP3 SWAP2 POP POP JUMP JUMPDEST PUSH32 0x756E7361666520726563697069656E7400000000000000000000000000000000 PUSH1 0x0 DUP3 ADD MSTORE POP JUMP JUMPDEST PUSH1 0x0 PUSH2 0x1665 PUSH1 0x10 DUP4 PUSH2 0x130B JUMP JUMPDEST SWAP2 POP PUSH2 0x1670 DUP3 PUSH2 0x162F JUMP JUMPDEST PUSH1 0x20 DUP3 ADD SWAP1 POP SWAP2 SWAP1 POP JUMP JUMPDEST PUSH1 0x0 PUSH1 0x20 DUP3 ADD SWAP1 POP DUP2 DUP2 SUB PUSH1 0x0 DUP4 ADD MSTORE PUSH2 0x1694 DUP2 PUSH2 0x1658 JUMP JUMPDEST SWAP1 POP SWAP2 SWAP1 POP JUMP JUMPDEST PUSH32 0x6F776E6572203D207A65726F2061646472657373000000000000000000000000 PUSH1 0x0 DUP3 ADD MSTORE POP JUMP JUMPDEST PUSH1 0x0 PUSH2 0x16D1 PUSH1 0x14 DUP4 PUSH2 0x130B JUMP JUMPDEST SWAP2 POP PUSH2 0x16DC DUP3 PUSH2 0x169B JUMP JUMPDEST PUSH1 0x20 DUP3 ADD SWAP1 POP SWAP2 SWAP1 POP JUMP JUMPDEST PUSH1 0x0 PUSH1 0x20 DUP3 ADD SWAP1 POP DUP2 DUP2 SUB PUSH1 0x0 DUP4 ADD MSTORE PUSH2 0x1700 DUP2 PUSH2 0x16C4 JUMP JUMPDEST SWAP1 POP SWAP2 SWAP1 POP JUMP JUMPDEST DUP3 DUP2 DUP4 CALLDATACOPY PUSH1 0x0 DUP4 DUP4 ADD MSTORE POP POP POP JUMP JUMPDEST PUSH1 0x0 PUSH1 0x1F NOT PUSH1 0x1F DUP4 ADD AND SWAP1 POP SWAP2 SWAP1 POP JUMP JUMPDEST PUSH1 0x0 PUSH2 0x1733 DUP4 DUP6 PUSH2 0x156C JUMP JUMPDEST SWAP4 POP PUSH2 0x1740 DUP4 DUP6 DUP5 PUSH2 0x1707 JUMP JUMPDEST PUSH2 0x1749 DUP4 PUSH2 0x1716 JUMP JUMPDEST DUP5 ADD SWAP1 POP SWAP4 SWAP3 POP POP POP JUMP JUMPDEST PUSH1 0x0 PUSH1 0x80 DUP3 ADD SWAP1 POP PUSH2 0x1769 PUSH1 0x0 DUP4 ADD DUP9 PUSH2 0x1032 JUMP JUMPDEST PUSH2 0x1776 PUSH1 0x20 DUP4 ADD DUP8 PUSH2 0x1032 JUMP JUMPDEST PUSH2 0x1783 PUSH1 0x40 DUP4 ADD DUP7 PUSH2 0x1148 JUMP JUMPDEST DUP2 DUP2 SUB PUSH1 0x60 DUP4 ADD MSTORE PUSH2 0x1796 DUP2 DUP5 DUP7 PUSH2 0x1727 JUMP JUMPDEST SWAP1 POP SWAP7 SWAP6 POP POP POP POP POP POP JUMP INVALID LOG2 PUSH5 0x6970667358 0x22 SLT KECCAK256 STATICCALL 0xB3 LOG1 0xE3 0x21 0x5F DUP7 PUSH20 0x477AE549005C12055D14C265584124604212E92D NOT JUMP MSIZE DUP1 PUSH5 0x736F6C6343 STOP ADDMOD SLT STOP CALLER "
				},
				"gasEstimates": {
					"creation": {
						"codeDepositCost": "1220800",
						"executionCost": "1268",
						"totalCost": "1222068"
					},
					"external": {
						"approve(address,uint256)": "31539",
						"balanceOf(address)": "2898",
						"getApproved(uint256)": "5137",
						"isApprovalForAll(address,address)": "infinite",
						"ownerOf(uint256)": "2953",
						"safeTransferFrom(address,address,uint256)": "infinite",
						"safeTransferFrom(address,address,uint256,bytes)": "infinite",
						"setApprovalForAll(address,bool)": "infinite",
						"supportsInterface(bytes4)": "685",
						"transferFrom(address,address,uint256)": "infinite"
					},
					"internal": {
						"_burn(uint256)": "infinite",
						"_isApprovedOrOwner(address,address,uint256)": "4648",
						"_mint(address,uint256)": "infinite"
					}
				},
				"methodIdentifiers": {
					"approve(address,uint256)": "095ea7b3",
					"balanceOf(address)": "70a08231",
					"getApproved(uint256)": "081812fc",
					"isApprovalForAll(address,address)": "ebd1d359",
					"ownerOf(uint256)": "6352211e",
					"safeTransferFrom(address,address,uint256)": "42842e0e",
					"safeTransferFrom(address,address,uint256,bytes)": "b88d4fde",
					"setApprovalForAll(address,bool)": "a22cb465",
					"supportsInterface(bytes4)": "01ffc9a7",
					"transferFrom(address,address,uint256)": "23b872dd"
				}
			},
			"storageLayout": {
				"storage": [
					{
						"astId": 178,
						"contract": "LmPool Ver3.0/ERC721.sol:ERC721",
						"label": "_ownerOf",
						"offset": 0,
						"slot": "0",
						"type": "t_mapping(t_uint256,t_address)"
					},
					{
						"astId": 182,
						"contract": "LmPool Ver3.0/ERC721.sol:ERC721",
						"label": "_balanceOf",
						"offset": 0,
						"slot": "1",
						"type": "t_mapping(t_address,t_uint256)"
					},
					{
						"astId": 186,
						"contract": "LmPool Ver3.0/ERC721.sol:ERC721",
						"label": "_approvals",
						"offset": 0,
						"slot": "2",
						"type": "t_mapping(t_uint256,t_address)"
					},
					{
						"astId": 192,
						"contract": "LmPool Ver3.0/ERC721.sol:ERC721",
						"label": "isApprovalForAll",
						"offset": 0,
						"slot": "3",
						"type": "t_mapping(t_address,t_mapping(t_address,t_bool))"
					}
				],
				"types": {
					"t_address": {
						"encoding": "inplace",
						"label": "address",
						"numberOfBytes": "20"
					},
					"t_bool": {
						"encoding": "inplace",
						"label": "bool",
						"numberOfBytes": "1"
					},
					"t_mapping(t_address,t_bool)": {
						"encoding": "mapping",
						"key": "t_address",
						"label": "mapping(address => bool)",
						"numberOfBytes": "32",
						"value": "t_bool"
					},
					"t_mapping(t_address,t_mapping(t_address,t_bool))": {
						"encoding": "mapping",
						"key": "t_address",
						"label": "mapping(address => mapping(address => bool))",
						"numberOfBytes": "32",
						"value": "t_mapping(t_address,t_bool)"
					},
					"t_mapping(t_address,t_uint256)": {
						"encoding": "mapping",
						"key": "t_address",
						"label": "mapping(address => uint256)",
						"numberOfBytes": "32",
						"value": "t_uint256"
					},
					"t_mapping(t_uint256,t_address)": {
						"encoding": "mapping",
						"key": "t_uint256",
						"label": "mapping(uint256 => address)",
						"numberOfBytes": "32",
						"value": "t_address"
					},
					"t_uint256": {
						"encoding": "inplace",
						"label": "uint256",
						"numberOfBytes": "32"
					}
				}
			},
			"userdoc": {
				"kind": "user",
				"methods": {},
				"version": 1
			}
		}
	}
}