{
	"LmPool Ver3.0/Libraries/PriceMath.sol": {
		"PriceMath": {
			"abi": [
				{
					"inputs": [
						{
							"internalType": "int256",
							"name": "price",
							"type": "int256"
						}
					],
					"name": "priceToSqrtPriceX96",
					"outputs": [
						{
							"internalType": "uint160",
							"name": "",
							"type": "uint160"
						}
					],
					"stateMutability": "pure",
					"type": "function"
				},
				{
					"inputs": [
						{
							"internalType": "uint256",
							"name": "price",
							"type": "uint256"
						}
					],
					"name": "sqrtPrice",
					"outputs": [
						{
							"internalType": "uint256",
							"name": "",
							"type": "uint256"
						}
					],
					"stateMutability": "pure",
					"type": "function"
				},
				{
					"inputs": [
						{
							"internalType": "uint160",
							"name": "sqrtPriceX96",
							"type": "uint160"
						}
					],
					"name": "sqrtPriceX96ToPrice",
					"outputs": [
						{
							"internalType": "uint256",
							"name": "",
							"type": "uint256"
						}
					],
					"stateMutability": "pure",
					"type": "function"
				},
				{
					"inputs": [
						{
							"internalType": "uint160",
							"name": "price",
							"type": "uint160"
						}
					],
					"name": "sqrtPriceX96ToTick",
					"outputs": [
						{
							"internalType": "int24",
							"name": "",
							"type": "int24"
						}
					],
					"stateMutability": "pure",
					"type": "function"
				},
				{
					"inputs": [
						{
							"internalType": "int24",
							"name": "tick",
							"type": "int24"
						}
					],
					"name": "tickToSqrtPriceX96",
					"outputs": [
						{
							"internalType": "uint160",
							"name": "",
							"type": "uint160"
						}
					],
					"stateMutability": "pure",
					"type": "function"
				}
			],
			"devdoc": {
				"kind": "dev",
				"methods": {},
				"version": 1
			},
			"evm": {
				"assembly": "    /* \"LmPool Ver3.0/Libraries/PriceMath.sol\":137:1095  library PriceMath {... */\n  dataSize(sub_0)\n  dataOffset(sub_0)\n  0x0b\n  dup3\n  dup3\n  dup3\n  codecopy\n  dup1\n  mload\n  0x00\n  byte\n  0x73\n  eq\n  tag_1\n  jumpi\n  mstore(0x00, 0x4e487b7100000000000000000000000000000000000000000000000000000000)\n  mstore(0x04, 0x00)\n  revert(0x00, 0x24)\ntag_1:\n  mstore(0x00, address)\n  0x73\n  dup2\n  mstore8\n  dup3\n  dup2\n  return\nstop\n\nsub_0: assembly {\n        /* \"LmPool Ver3.0/Libraries/PriceMath.sol\":137:1095  library PriceMath {... */\n      eq(address, deployTimeAddress())\n      mstore(0x40, 0x80)\n      jumpi(tag_1, lt(calldatasize, 0x04))\n      shr(0xe0, calldataload(0x00))\n      dup1\n      0x0a817037\n      eq\n      tag_2\n      jumpi\n      dup1\n      0x9400ff9a\n      eq\n      tag_3\n      jumpi\n      dup1\n      0xaa52cba7\n      eq\n      tag_4\n      jumpi\n      dup1\n      0xb35e24d2\n      eq\n      tag_5\n      jumpi\n      dup1\n      0xb3e30051\n      eq\n      tag_6\n      jumpi\n    tag_1:\n      0x00\n      dup1\n      revert\n        /* \"LmPool Ver3.0/Libraries/PriceMath.sol\":721:850  function sqrtPriceX96ToTick(uint160 price) public pure returns (int24) {... */\n    tag_2:\n      tag_7\n      0x04\n      dup1\n      calldatasize\n      sub\n      dup2\n      add\n      swap1\n      tag_8\n      swap2\n      swap1\n      tag_9\n      jump\t// in\n    tag_8:\n      tag_10\n      jump\t// in\n    tag_7:\n      mload(0x40)\n      tag_11\n      swap2\n      swap1\n      tag_12\n      jump\t// in\n    tag_11:\n      mload(0x40)\n      dup1\n      swap2\n      sub\n      swap1\n      return\n        /* \"LmPool Ver3.0/Libraries/PriceMath.sol\":989:1093  function sqrtPrice(uint256 price) public pure returns (uint256) {... */\n    tag_3:\n      tag_13\n      0x04\n      dup1\n      calldatasize\n      sub\n      dup2\n      add\n      swap1\n      tag_14\n      swap2\n      swap1\n      tag_15\n      jump\t// in\n    tag_14:\n      tag_16\n      jump\t// in\n    tag_13:\n      mload(0x40)\n      tag_17\n      swap2\n      swap1\n      tag_18\n      jump\t// in\n    tag_17:\n      mload(0x40)\n      dup1\n      swap2\n      sub\n      swap1\n      return\n        /* \"LmPool Ver3.0/Libraries/PriceMath.sol\":161:429  function sqrtPriceX96ToPrice(uint160 sqrtPriceX96)... */\n    tag_4:\n      tag_19\n      0x04\n      dup1\n      calldatasize\n      sub\n      dup2\n      add\n      swap1\n      tag_20\n      swap2\n      swap1\n      tag_9\n      jump\t// in\n    tag_20:\n      tag_21\n      jump\t// in\n    tag_19:\n      mload(0x40)\n      tag_22\n      swap2\n      swap1\n      tag_18\n      jump\t// in\n    tag_22:\n      mload(0x40)\n      dup1\n      swap2\n      sub\n      swap1\n      return\n        /* \"LmPool Ver3.0/Libraries/PriceMath.sol\":856:983  function tickToSqrtPriceX96(int24 tick) public pure returns (uint160) {... */\n    tag_5:\n      tag_23\n      0x04\n      dup1\n      calldatasize\n      sub\n      dup2\n      add\n      swap1\n      tag_24\n      swap2\n      swap1\n      tag_25\n      jump\t// in\n    tag_24:\n      tag_26\n      jump\t// in\n    tag_23:\n      mload(0x40)\n      tag_27\n      swap2\n      swap1\n      tag_28\n      jump\t// in\n    tag_27:\n      mload(0x40)\n      dup1\n      swap2\n      sub\n      swap1\n      return\n        /* \"LmPool Ver3.0/Libraries/PriceMath.sol\":435:715  function priceToSqrtPriceX96(int256 price) public pure returns (uint160) {... */\n    tag_6:\n      tag_29\n      0x04\n      dup1\n      calldatasize\n      sub\n      dup2\n      add\n      swap1\n      tag_30\n      swap2\n      swap1\n      tag_31\n      jump\t// in\n    tag_30:\n      tag_32\n      jump\t// in\n    tag_29:\n      mload(0x40)\n      tag_33\n      swap2\n      swap1\n      tag_28\n      jump\t// in\n    tag_33:\n      mload(0x40)\n      dup1\n      swap2\n      sub\n      swap1\n      return\n        /* \"LmPool Ver3.0/Libraries/PriceMath.sol\":721:850  function sqrtPriceX96ToTick(uint160 price) public pure returns (int24) {... */\n    tag_10:\n        /* \"LmPool Ver3.0/Libraries/PriceMath.sol\":785:790  int24 */\n      0x00\n        /* \"LmPool Ver3.0/Libraries/PriceMath.sol\":809:843  TickMath.getTickAtSqrtRatio(price) */\n      tag_35\n        /* \"LmPool Ver3.0/Libraries/PriceMath.sol\":837:842  price */\n      dup3\n        /* \"LmPool Ver3.0/Libraries/PriceMath.sol\":809:836  TickMath.getTickAtSqrtRatio */\n      tag_36\n        /* \"LmPool Ver3.0/Libraries/PriceMath.sol\":809:843  TickMath.getTickAtSqrtRatio(price) */\n      jump\t// in\n    tag_35:\n        /* \"LmPool Ver3.0/Libraries/PriceMath.sol\":802:843  return TickMath.getTickAtSqrtRatio(price) */\n      swap1\n      pop\n        /* \"LmPool Ver3.0/Libraries/PriceMath.sol\":721:850  function sqrtPriceX96ToTick(uint160 price) public pure returns (int24) {... */\n      swap2\n      swap1\n      pop\n      jump\t// out\n        /* \"LmPool Ver3.0/Libraries/PriceMath.sol\":989:1093  function sqrtPrice(uint256 price) public pure returns (uint256) {... */\n    tag_16:\n        /* \"LmPool Ver3.0/Libraries/PriceMath.sol\":1044:1051  uint256 */\n      0x00\n        /* \"LmPool Ver3.0/Libraries/PriceMath.sol\":1070:1086  Math.sqrt(price) */\n      tag_38\n        /* \"LmPool Ver3.0/Libraries/PriceMath.sol\":1080:1085  price */\n      dup3\n        /* \"LmPool Ver3.0/Libraries/PriceMath.sol\":1070:1079  Math.sqrt */\n      tag_39\n        /* \"LmPool Ver3.0/Libraries/PriceMath.sol\":1070:1086  Math.sqrt(price) */\n      jump\t// in\n    tag_38:\n        /* \"LmPool Ver3.0/Libraries/PriceMath.sol\":1063:1086  return Math.sqrt(price) */\n      swap1\n      pop\n        /* \"LmPool Ver3.0/Libraries/PriceMath.sol\":989:1093  function sqrtPrice(uint256 price) public pure returns (uint256) {... */\n      swap2\n      swap1\n      pop\n      jump\t// out\n        /* \"LmPool Ver3.0/Libraries/PriceMath.sol\":161:429  function sqrtPriceX96ToPrice(uint160 sqrtPriceX96)... */\n    tag_21:\n        /* \"LmPool Ver3.0/Libraries/PriceMath.sol\":257:264  uint256 */\n      0x00\n        /* \"LmPool Ver3.0/Libraries/PriceMath.sol\":280:293  uint160 price */\n      dup1\n        /* \"LmPool Ver3.0/Libraries/PriceMath.sol\":339:340  2 */\n      0x02\n        /* \"LmPool Ver3.0/Libraries/FixedPoint96.sol\":357:384  0x1000000000000000000000000 */\n      0x01000000000000000000000000\n        /* \"LmPool Ver3.0/Libraries/PriceMath.sol\":305:317  sqrtPriceX96 */\n      dup5\n        /* \"LmPool Ver3.0/Libraries/PriceMath.sol\":305:336  sqrtPriceX96 / FixedPoint96.Q96 */\n      0xffffffffffffffffffffffffffffffffffffffff\n      and\n      tag_41\n      swap2\n      swap1\n      tag_42\n      jump\t// in\n    tag_41:\n        /* \"LmPool Ver3.0/Libraries/PriceMath.sol\":304:340  (sqrtPriceX96 / FixedPoint96.Q96)**2 */\n      tag_43\n      swap2\n      swap1\n      tag_44\n      jump\t// in\n    tag_43:\n        /* \"LmPool Ver3.0/Libraries/PriceMath.sol\":280:341  uint160 price = uint160((sqrtPriceX96 / FixedPoint96.Q96)**2) */\n      swap1\n      pop\n        /* \"LmPool Ver3.0/Libraries/PriceMath.sol\":351:373  uint256 priceConverted */\n      0x00\n        /* \"LmPool Ver3.0/Libraries/PriceMath.sol\":384:389  price */\n      dup2\n        /* \"LmPool Ver3.0/Libraries/PriceMath.sol\":376:390  uint256(price) */\n      0xffffffffffffffffffffffffffffffffffffffff\n      and\n        /* \"LmPool Ver3.0/Libraries/PriceMath.sol\":351:390  uint256 priceConverted = uint256(price) */\n      swap1\n      pop\n        /* \"LmPool Ver3.0/Libraries/PriceMath.sol\":408:422  priceConverted */\n      dup1\n        /* \"LmPool Ver3.0/Libraries/PriceMath.sol\":401:422  return priceConverted */\n      swap3\n      pop\n      pop\n      pop\n        /* \"LmPool Ver3.0/Libraries/PriceMath.sol\":161:429  function sqrtPriceX96ToPrice(uint160 sqrtPriceX96)... */\n      swap2\n      swap1\n      pop\n      jump\t// out\n        /* \"LmPool Ver3.0/Libraries/PriceMath.sol\":856:983  function tickToSqrtPriceX96(int24 tick) public pure returns (uint160) {... */\n    tag_26:\n        /* \"LmPool Ver3.0/Libraries/PriceMath.sol\":917:924  uint160 */\n      0x00\n        /* \"LmPool Ver3.0/Libraries/PriceMath.sol\":943:976  TickMath.getSqrtRatioAtTick(tick) */\n      tag_46\n        /* \"LmPool Ver3.0/Libraries/PriceMath.sol\":971:975  tick */\n      dup3\n        /* \"LmPool Ver3.0/Libraries/PriceMath.sol\":943:970  TickMath.getSqrtRatioAtTick */\n      tag_47\n        /* \"LmPool Ver3.0/Libraries/PriceMath.sol\":943:976  TickMath.getSqrtRatioAtTick(tick) */\n      jump\t// in\n    tag_46:\n        /* \"LmPool Ver3.0/Libraries/PriceMath.sol\":936:976  return TickMath.getSqrtRatioAtTick(tick) */\n      swap1\n      pop\n        /* \"LmPool Ver3.0/Libraries/PriceMath.sol\":856:983  function tickToSqrtPriceX96(int24 tick) public pure returns (uint160) {... */\n      swap2\n      swap1\n      pop\n      jump\t// out\n        /* \"LmPool Ver3.0/Libraries/PriceMath.sol\":435:715  function priceToSqrtPriceX96(int256 price) public pure returns (uint160) {... */\n    tag_32:\n        /* \"LmPool Ver3.0/Libraries/PriceMath.sol\":499:506  uint160 */\n      0x00\n        /* \"LmPool Ver3.0/Libraries/PriceMath.sol\":518:538  uint256 sqrtPriceX96 */\n      dup1\n        /* \"LmPool Ver3.0/Libraries/FixedPoint96.sol\":357:384  0x1000000000000000000000000 */\n      0x01000000000000000000000000\n        /* \"LmPool Ver3.0/Libraries/PriceMath.sol\":549:574  Math.sqrt(uint256(price)) */\n      tag_49\n        /* \"LmPool Ver3.0/Libraries/PriceMath.sol\":567:572  price */\n      dup5\n        /* \"LmPool Ver3.0/Libraries/PriceMath.sol\":549:558  Math.sqrt */\n      tag_39\n        /* \"LmPool Ver3.0/Libraries/PriceMath.sol\":549:574  Math.sqrt(uint256(price)) */\n      jump\t// in\n    tag_49:\n        /* \"LmPool Ver3.0/Libraries/PriceMath.sol\":541:606  uint256(Math.sqrt(uint256(price))) *... */\n      tag_50\n      swap2\n      swap1\n      tag_51\n      jump\t// in\n    tag_50:\n        /* \"LmPool Ver3.0/Libraries/PriceMath.sol\":518:606  uint256 sqrtPriceX96 = uint256(Math.sqrt(uint256(price))) *... */\n      swap1\n      pop\n        /* \"LmPool Ver3.0/Libraries/PriceMath.sol\":616:645  uint160 sqrtPriceX96Converted */\n      0x00\n        /* \"LmPool Ver3.0/Libraries/PriceMath.sol\":656:668  sqrtPriceX96 */\n      dup2\n        /* \"LmPool Ver3.0/Libraries/PriceMath.sol\":616:669  uint160 sqrtPriceX96Converted = uint160(sqrtPriceX96) */\n      swap1\n      pop\n        /* \"LmPool Ver3.0/Libraries/PriceMath.sol\":687:708  sqrtPriceX96Converted */\n      dup1\n        /* \"LmPool Ver3.0/Libraries/PriceMath.sol\":680:708  return sqrtPriceX96Converted */\n      swap3\n      pop\n      pop\n      pop\n        /* \"LmPool Ver3.0/Libraries/PriceMath.sol\":435:715  function priceToSqrtPriceX96(int256 price) public pure returns (uint160) {... */\n      swap2\n      swap1\n      pop\n      jump\t// out\n        /* \"LmPool Ver3.0/Libraries/TickMath.sol\":4412:8836  function getTickAtSqrtRatio(uint160 sqrtPriceX96) internal pure returns (int24 tick) {... */\n    tag_36:\n        /* \"LmPool Ver3.0/Libraries/TickMath.sol\":4485:4495  int24 tick */\n      0x00\n        /* \"LmPool Ver3.0/Libraries/TickMath.sol\":830:840  4295128739 */\n      0x01000276a3\n        /* \"LmPool Ver3.0/Libraries/TickMath.sol\":4616:4646  sqrtPriceX96 >= MIN_SQRT_RATIO */\n      0xffffffffffffffffffffffffffffffffffffffff\n      and\n        /* \"LmPool Ver3.0/Libraries/TickMath.sol\":4616:4628  sqrtPriceX96 */\n      dup3\n        /* \"LmPool Ver3.0/Libraries/TickMath.sol\":4616:4646  sqrtPriceX96 >= MIN_SQRT_RATIO */\n      0xffffffffffffffffffffffffffffffffffffffff\n      and\n      lt\n      iszero\n        /* \"LmPool Ver3.0/Libraries/TickMath.sol\":4616:4679  sqrtPriceX96 >= MIN_SQRT_RATIO && sqrtPriceX96 < MAX_SQRT_RATIO */\n      dup1\n      iszero\n      tag_53\n      jumpi\n      pop\n        /* \"LmPool Ver3.0/Libraries/TickMath.sol\":1012:1061  1461446703485210103287273052203988822378723970342 */\n      0xfffd8963efd1fc6a506488495d951d5263988d26\n        /* \"LmPool Ver3.0/Libraries/TickMath.sol\":4650:4679  sqrtPriceX96 < MAX_SQRT_RATIO */\n      0xffffffffffffffffffffffffffffffffffffffff\n      and\n        /* \"LmPool Ver3.0/Libraries/TickMath.sol\":4650:4662  sqrtPriceX96 */\n      dup3\n        /* \"LmPool Ver3.0/Libraries/TickMath.sol\":4650:4679  sqrtPriceX96 < MAX_SQRT_RATIO */\n      0xffffffffffffffffffffffffffffffffffffffff\n      and\n      lt\n        /* \"LmPool Ver3.0/Libraries/TickMath.sol\":4616:4679  sqrtPriceX96 >= MIN_SQRT_RATIO && sqrtPriceX96 < MAX_SQRT_RATIO */\n    tag_53:\n        /* \"LmPool Ver3.0/Libraries/TickMath.sol\":4608:4685  require(sqrtPriceX96 >= MIN_SQRT_RATIO && sqrtPriceX96 < MAX_SQRT_RATIO, 'R') */\n      tag_54\n      jumpi\n      mload(0x40)\n      0x08c379a000000000000000000000000000000000000000000000000000000000\n      dup2\n      mstore\n      0x04\n      add\n      tag_55\n      swap1\n      tag_56\n      jump\t// in\n    tag_55:\n      mload(0x40)\n      dup1\n      swap2\n      sub\n      swap1\n      revert\n    tag_54:\n        /* \"LmPool Ver3.0/Libraries/TickMath.sol\":4696:4709  uint256 ratio */\n      0x00\n        /* \"LmPool Ver3.0/Libraries/TickMath.sol\":4737:4739  32 */\n      0x20\n        /* \"LmPool Ver3.0/Libraries/TickMath.sol\":4720:4732  sqrtPriceX96 */\n      dup4\n        /* \"LmPool Ver3.0/Libraries/TickMath.sol\":4712:4733  uint256(sqrtPriceX96) */\n      0xffffffffffffffffffffffffffffffffffffffff\n      and\n        /* \"LmPool Ver3.0/Libraries/TickMath.sol\":4712:4739  uint256(sqrtPriceX96) << 32 */\n      swap1\n      shl\n        /* \"LmPool Ver3.0/Libraries/TickMath.sol\":4696:4739  uint256 ratio = uint256(sqrtPriceX96) << 32 */\n      swap1\n      pop\n        /* \"LmPool Ver3.0/Libraries/TickMath.sol\":4752:4761  uint256 r */\n      0x00\n        /* \"LmPool Ver3.0/Libraries/TickMath.sol\":4764:4769  ratio */\n      dup2\n        /* \"LmPool Ver3.0/Libraries/TickMath.sol\":4752:4769  uint256 r = ratio */\n      swap1\n      pop\n        /* \"LmPool Ver3.0/Libraries/TickMath.sol\":4780:4791  uint256 msb */\n      0x00\n        /* \"LmPool Ver3.0/Libraries/TickMath.sol\":4854:4888  0xFFFFFFFFFFFFFFFFFFFFFFFFFFFFFFFF */\n      0xffffffffffffffffffffffffffffffff\n        /* \"LmPool Ver3.0/Libraries/TickMath.sol\":4851:4852  r */\n      dup3\n        /* \"LmPool Ver3.0/Libraries/TickMath.sol\":4848:4889  gt(r, 0xFFFFFFFFFFFFFFFFFFFFFFFFFFFFFFFF) */\n      gt\n        /* \"LmPool Ver3.0/Libraries/TickMath.sol\":4845:4846  7 */\n      0x07\n        /* \"LmPool Ver3.0/Libraries/TickMath.sol\":4841:4890  shl(7, gt(r, 0xFFFFFFFFFFFFFFFFFFFFFFFFFFFFFFFF)) */\n      shl\n        /* \"LmPool Ver3.0/Libraries/TickMath.sol\":4919:4920  f */\n      dup1\n        /* \"LmPool Ver3.0/Libraries/TickMath.sol\":4914:4917  msb */\n      dup3\n        /* \"LmPool Ver3.0/Libraries/TickMath.sol\":4911:4921  or(msb, f) */\n      or\n        /* \"LmPool Ver3.0/Libraries/TickMath.sol\":4904:4921  msb := or(msb, f) */\n      swap2\n      pop\n        /* \"LmPool Ver3.0/Libraries/TickMath.sol\":4947:4948  r */\n      dup3\n        /* \"LmPool Ver3.0/Libraries/TickMath.sol\":4944:4945  f */\n      dup2\n        /* \"LmPool Ver3.0/Libraries/TickMath.sol\":4940:4949  shr(f, r) */\n      shr\n        /* \"LmPool Ver3.0/Libraries/TickMath.sol\":4935:4949  r := shr(f, r) */\n      swap3\n      pop\n        /* \"LmPool Ver3.0/Libraries/TickMath.sol\":4817:4960  {... */\n      pop\n        /* \"LmPool Ver3.0/Libraries/TickMath.sol\":5016:5034  0xFFFFFFFFFFFFFFFF */\n      0xffffffffffffffff\n        /* \"LmPool Ver3.0/Libraries/TickMath.sol\":5013:5014  r */\n      dup3\n        /* \"LmPool Ver3.0/Libraries/TickMath.sol\":5010:5035  gt(r, 0xFFFFFFFFFFFFFFFF) */\n      gt\n        /* \"LmPool Ver3.0/Libraries/TickMath.sol\":5007:5008  6 */\n      0x06\n        /* \"LmPool Ver3.0/Libraries/TickMath.sol\":5003:5036  shl(6, gt(r, 0xFFFFFFFFFFFFFFFF)) */\n      shl\n        /* \"LmPool Ver3.0/Libraries/TickMath.sol\":5065:5066  f */\n      dup1\n        /* \"LmPool Ver3.0/Libraries/TickMath.sol\":5060:5063  msb */\n      dup3\n        /* \"LmPool Ver3.0/Libraries/TickMath.sol\":5057:5067  or(msb, f) */\n      or\n        /* \"LmPool Ver3.0/Libraries/TickMath.sol\":5050:5067  msb := or(msb, f) */\n      swap2\n      pop\n        /* \"LmPool Ver3.0/Libraries/TickMath.sol\":5093:5094  r */\n      dup3\n        /* \"LmPool Ver3.0/Libraries/TickMath.sol\":5090:5091  f */\n      dup2\n        /* \"LmPool Ver3.0/Libraries/TickMath.sol\":5086:5095  shr(f, r) */\n      shr\n        /* \"LmPool Ver3.0/Libraries/TickMath.sol\":5081:5095  r := shr(f, r) */\n      swap3\n      pop\n        /* \"LmPool Ver3.0/Libraries/TickMath.sol\":4979:5106  {... */\n      pop\n        /* \"LmPool Ver3.0/Libraries/TickMath.sol\":5162:5172  0xFFFFFFFF */\n      0xffffffff\n        /* \"LmPool Ver3.0/Libraries/TickMath.sol\":5159:5160  r */\n      dup3\n        /* \"LmPool Ver3.0/Libraries/TickMath.sol\":5156:5173  gt(r, 0xFFFFFFFF) */\n      gt\n        /* \"LmPool Ver3.0/Libraries/TickMath.sol\":5153:5154  5 */\n      0x05\n        /* \"LmPool Ver3.0/Libraries/TickMath.sol\":5149:5174  shl(5, gt(r, 0xFFFFFFFF)) */\n      shl\n        /* \"LmPool Ver3.0/Libraries/TickMath.sol\":5203:5204  f */\n      dup1\n        /* \"LmPool Ver3.0/Libraries/TickMath.sol\":5198:5201  msb */\n      dup3\n        /* \"LmPool Ver3.0/Libraries/TickMath.sol\":5195:5205  or(msb, f) */\n      or\n        /* \"LmPool Ver3.0/Libraries/TickMath.sol\":5188:5205  msb := or(msb, f) */\n      swap2\n      pop\n        /* \"LmPool Ver3.0/Libraries/TickMath.sol\":5231:5232  r */\n      dup3\n        /* \"LmPool Ver3.0/Libraries/TickMath.sol\":5228:5229  f */\n      dup2\n        /* \"LmPool Ver3.0/Libraries/TickMath.sol\":5224:5233  shr(f, r) */\n      shr\n        /* \"LmPool Ver3.0/Libraries/TickMath.sol\":5219:5233  r := shr(f, r) */\n      swap3\n      pop\n        /* \"LmPool Ver3.0/Libraries/TickMath.sol\":5125:5244  {... */\n      pop\n        /* \"LmPool Ver3.0/Libraries/TickMath.sol\":5300:5306  0xFFFF */\n      0xffff\n        /* \"LmPool Ver3.0/Libraries/TickMath.sol\":5297:5298  r */\n      dup3\n        /* \"LmPool Ver3.0/Libraries/TickMath.sol\":5294:5307  gt(r, 0xFFFF) */\n      gt\n        /* \"LmPool Ver3.0/Libraries/TickMath.sol\":5291:5292  4 */\n      0x04\n        /* \"LmPool Ver3.0/Libraries/TickMath.sol\":5287:5308  shl(4, gt(r, 0xFFFF)) */\n      shl\n        /* \"LmPool Ver3.0/Libraries/TickMath.sol\":5337:5338  f */\n      dup1\n        /* \"LmPool Ver3.0/Libraries/TickMath.sol\":5332:5335  msb */\n      dup3\n        /* \"LmPool Ver3.0/Libraries/TickMath.sol\":5329:5339  or(msb, f) */\n      or\n        /* \"LmPool Ver3.0/Libraries/TickMath.sol\":5322:5339  msb := or(msb, f) */\n      swap2\n      pop\n        /* \"LmPool Ver3.0/Libraries/TickMath.sol\":5365:5366  r */\n      dup3\n        /* \"LmPool Ver3.0/Libraries/TickMath.sol\":5362:5363  f */\n      dup2\n        /* \"LmPool Ver3.0/Libraries/TickMath.sol\":5358:5367  shr(f, r) */\n      shr\n        /* \"LmPool Ver3.0/Libraries/TickMath.sol\":5353:5367  r := shr(f, r) */\n      swap3\n      pop\n        /* \"LmPool Ver3.0/Libraries/TickMath.sol\":5263:5378  {... */\n      pop\n        /* \"LmPool Ver3.0/Libraries/TickMath.sol\":5434:5438  0xFF */\n      0xff\n        /* \"LmPool Ver3.0/Libraries/TickMath.sol\":5431:5432  r */\n      dup3\n        /* \"LmPool Ver3.0/Libraries/TickMath.sol\":5428:5439  gt(r, 0xFF) */\n      gt\n        /* \"LmPool Ver3.0/Libraries/TickMath.sol\":5425:5426  3 */\n      0x03\n        /* \"LmPool Ver3.0/Libraries/TickMath.sol\":5421:5440  shl(3, gt(r, 0xFF)) */\n      shl\n        /* \"LmPool Ver3.0/Libraries/TickMath.sol\":5469:5470  f */\n      dup1\n        /* \"LmPool Ver3.0/Libraries/TickMath.sol\":5464:5467  msb */\n      dup3\n        /* \"LmPool Ver3.0/Libraries/TickMath.sol\":5461:5471  or(msb, f) */\n      or\n        /* \"LmPool Ver3.0/Libraries/TickMath.sol\":5454:5471  msb := or(msb, f) */\n      swap2\n      pop\n        /* \"LmPool Ver3.0/Libraries/TickMath.sol\":5497:5498  r */\n      dup3\n        /* \"LmPool Ver3.0/Libraries/TickMath.sol\":5494:5495  f */\n      dup2\n        /* \"LmPool Ver3.0/Libraries/TickMath.sol\":5490:5499  shr(f, r) */\n      shr\n        /* \"LmPool Ver3.0/Libraries/TickMath.sol\":5485:5499  r := shr(f, r) */\n      swap3\n      pop\n        /* \"LmPool Ver3.0/Libraries/TickMath.sol\":5397:5510  {... */\n      pop\n        /* \"LmPool Ver3.0/Libraries/TickMath.sol\":5566:5569  0xF */\n      0x0f\n        /* \"LmPool Ver3.0/Libraries/TickMath.sol\":5563:5564  r */\n      dup3\n        /* \"LmPool Ver3.0/Libraries/TickMath.sol\":5560:5570  gt(r, 0xF) */\n      gt\n        /* \"LmPool Ver3.0/Libraries/TickMath.sol\":5557:5558  2 */\n      0x02\n        /* \"LmPool Ver3.0/Libraries/TickMath.sol\":5553:5571  shl(2, gt(r, 0xF)) */\n      shl\n        /* \"LmPool Ver3.0/Libraries/TickMath.sol\":5600:5601  f */\n      dup1\n        /* \"LmPool Ver3.0/Libraries/TickMath.sol\":5595:5598  msb */\n      dup3\n        /* \"LmPool Ver3.0/Libraries/TickMath.sol\":5592:5602  or(msb, f) */\n      or\n        /* \"LmPool Ver3.0/Libraries/TickMath.sol\":5585:5602  msb := or(msb, f) */\n      swap2\n      pop\n        /* \"LmPool Ver3.0/Libraries/TickMath.sol\":5628:5629  r */\n      dup3\n        /* \"LmPool Ver3.0/Libraries/TickMath.sol\":5625:5626  f */\n      dup2\n        /* \"LmPool Ver3.0/Libraries/TickMath.sol\":5621:5630  shr(f, r) */\n      shr\n        /* \"LmPool Ver3.0/Libraries/TickMath.sol\":5616:5630  r := shr(f, r) */\n      swap3\n      pop\n        /* \"LmPool Ver3.0/Libraries/TickMath.sol\":5529:5641  {... */\n      pop\n        /* \"LmPool Ver3.0/Libraries/TickMath.sol\":5697:5700  0x3 */\n      0x03\n        /* \"LmPool Ver3.0/Libraries/TickMath.sol\":5694:5695  r */\n      dup3\n        /* \"LmPool Ver3.0/Libraries/TickMath.sol\":5691:5701  gt(r, 0x3) */\n      gt\n        /* \"LmPool Ver3.0/Libraries/TickMath.sol\":5688:5689  1 */\n      0x01\n        /* \"LmPool Ver3.0/Libraries/TickMath.sol\":5684:5702  shl(1, gt(r, 0x3)) */\n      shl\n        /* \"LmPool Ver3.0/Libraries/TickMath.sol\":5731:5732  f */\n      dup1\n        /* \"LmPool Ver3.0/Libraries/TickMath.sol\":5726:5729  msb */\n      dup3\n        /* \"LmPool Ver3.0/Libraries/TickMath.sol\":5723:5733  or(msb, f) */\n      or\n        /* \"LmPool Ver3.0/Libraries/TickMath.sol\":5716:5733  msb := or(msb, f) */\n      swap2\n      pop\n        /* \"LmPool Ver3.0/Libraries/TickMath.sol\":5759:5760  r */\n      dup3\n        /* \"LmPool Ver3.0/Libraries/TickMath.sol\":5756:5757  f */\n      dup2\n        /* \"LmPool Ver3.0/Libraries/TickMath.sol\":5752:5761  shr(f, r) */\n      shr\n        /* \"LmPool Ver3.0/Libraries/TickMath.sol\":5747:5761  r := shr(f, r) */\n      swap3\n      pop\n        /* \"LmPool Ver3.0/Libraries/TickMath.sol\":5660:5772  {... */\n      pop\n        /* \"LmPool Ver3.0/Libraries/TickMath.sol\":5821:5824  0x1 */\n      0x01\n        /* \"LmPool Ver3.0/Libraries/TickMath.sol\":5818:5819  r */\n      dup3\n        /* \"LmPool Ver3.0/Libraries/TickMath.sol\":5815:5825  gt(r, 0x1) */\n      gt\n        /* \"LmPool Ver3.0/Libraries/TickMath.sol\":5854:5855  f */\n      dup1\n        /* \"LmPool Ver3.0/Libraries/TickMath.sol\":5849:5852  msb */\n      dup3\n        /* \"LmPool Ver3.0/Libraries/TickMath.sol\":5846:5856  or(msb, f) */\n      or\n        /* \"LmPool Ver3.0/Libraries/TickMath.sol\":5839:5856  msb := or(msb, f) */\n      swap2\n      pop\n        /* \"LmPool Ver3.0/Libraries/TickMath.sol\":5791:5867  {... */\n      pop\n        /* \"LmPool Ver3.0/Libraries/TickMath.sol\":5890:5893  128 */\n      0x80\n        /* \"LmPool Ver3.0/Libraries/TickMath.sol\":5883:5886  msb */\n      dup2\n        /* \"LmPool Ver3.0/Libraries/TickMath.sol\":5883:5893  msb >= 128 */\n      lt\n        /* \"LmPool Ver3.0/Libraries/TickMath.sol\":5879:5959  if (msb >= 128) r = ratio >> (msb - 127);... */\n      tag_57\n      jumpi\n        /* \"LmPool Ver3.0/Libraries/TickMath.sol\":5915:5918  127 */\n      0x7f\n        /* \"LmPool Ver3.0/Libraries/TickMath.sol\":5909:5912  msb */\n      dup2\n        /* \"LmPool Ver3.0/Libraries/TickMath.sol\":5909:5918  msb - 127 */\n      tag_58\n      swap2\n      swap1\n      tag_59\n      jump\t// in\n    tag_58:\n        /* \"LmPool Ver3.0/Libraries/TickMath.sol\":5899:5904  ratio */\n      dup4\n        /* \"LmPool Ver3.0/Libraries/TickMath.sol\":5899:5919  ratio >> (msb - 127) */\n      swap1\n      shr\n        /* \"LmPool Ver3.0/Libraries/TickMath.sol\":5895:5919  r = ratio >> (msb - 127) */\n      swap2\n      pop\n        /* \"LmPool Ver3.0/Libraries/TickMath.sol\":5879:5959  if (msb >= 128) r = ratio >> (msb - 127);... */\n      jump(tag_60)\n    tag_57:\n        /* \"LmPool Ver3.0/Libraries/TickMath.sol\":5955:5958  msb */\n      dup1\n        /* \"LmPool Ver3.0/Libraries/TickMath.sol\":5949:5952  127 */\n      0x7f\n        /* \"LmPool Ver3.0/Libraries/TickMath.sol\":5949:5958  127 - msb */\n      tag_61\n      swap2\n      swap1\n      tag_59\n      jump\t// in\n    tag_61:\n        /* \"LmPool Ver3.0/Libraries/TickMath.sol\":5939:5944  ratio */\n      dup4\n        /* \"LmPool Ver3.0/Libraries/TickMath.sol\":5939:5959  ratio << (127 - msb) */\n      swap1\n      shl\n        /* \"LmPool Ver3.0/Libraries/TickMath.sol\":5935:5959  r = ratio << (127 - msb) */\n      swap2\n      pop\n        /* \"LmPool Ver3.0/Libraries/TickMath.sol\":5879:5959  if (msb >= 128) r = ratio >> (msb - 127);... */\n    tag_60:\n        /* \"LmPool Ver3.0/Libraries/TickMath.sol\":5972:5984  int256 log_2 */\n      0x00\n        /* \"LmPool Ver3.0/Libraries/TickMath.sol\":6010:6012  64 */\n      0x40\n        /* \"LmPool Ver3.0/Libraries/TickMath.sol\":6002:6005  128 */\n      0x80\n        /* \"LmPool Ver3.0/Libraries/TickMath.sol\":5995:5998  msb */\n      dup4\n        /* \"LmPool Ver3.0/Libraries/TickMath.sol\":5988:6005  int256(msb) - 128 */\n      tag_62\n      swap2\n      swap1\n      tag_63\n      jump\t// in\n    tag_62:\n        /* \"LmPool Ver3.0/Libraries/TickMath.sol\":5987:6012  (int256(msb) - 128) << 64 */\n      swap1\n      shl\n        /* \"LmPool Ver3.0/Libraries/TickMath.sol\":5972:6012  int256 log_2 = (int256(msb) - 128) << 64 */\n      swap1\n      pop\n        /* \"LmPool Ver3.0/Libraries/TickMath.sol\":6070:6071  r */\n      dup3\n        /* \"LmPool Ver3.0/Libraries/TickMath.sol\":6067:6068  r */\n      dup4\n        /* \"LmPool Ver3.0/Libraries/TickMath.sol\":6063:6072  mul(r, r) */\n      mul\n        /* \"LmPool Ver3.0/Libraries/TickMath.sol\":6058:6061  127 */\n      0x7f\n        /* \"LmPool Ver3.0/Libraries/TickMath.sol\":6054:6073  shr(127, mul(r, r)) */\n      shr\n        /* \"LmPool Ver3.0/Libraries/TickMath.sol\":6049:6073  r := shr(127, mul(r, r)) */\n      swap3\n      pop\n        /* \"LmPool Ver3.0/Libraries/TickMath.sol\":6105:6106  r */\n      dup3\n        /* \"LmPool Ver3.0/Libraries/TickMath.sol\":6100:6103  128 */\n      0x80\n        /* \"LmPool Ver3.0/Libraries/TickMath.sol\":6096:6107  shr(128, r) */\n      shr\n        /* \"LmPool Ver3.0/Libraries/TickMath.sol\":6148:6149  f */\n      dup1\n        /* \"LmPool Ver3.0/Libraries/TickMath.sol\":6144:6146  63 */\n      0x3f\n        /* \"LmPool Ver3.0/Libraries/TickMath.sol\":6140:6150  shl(63, f) */\n      shl\n        /* \"LmPool Ver3.0/Libraries/TickMath.sol\":6133:6138  log_2 */\n      dup3\n        /* \"LmPool Ver3.0/Libraries/TickMath.sol\":6130:6151  or(log_2, shl(63, f)) */\n      or\n        /* \"LmPool Ver3.0/Libraries/TickMath.sol\":6121:6151  log_2 := or(log_2, shl(63, f)) */\n      swap2\n      pop\n        /* \"LmPool Ver3.0/Libraries/TickMath.sol\":6177:6178  r */\n      dup4\n        /* \"LmPool Ver3.0/Libraries/TickMath.sol\":6174:6175  f */\n      dup2\n        /* \"LmPool Ver3.0/Libraries/TickMath.sol\":6170:6179  shr(f, r) */\n      shr\n        /* \"LmPool Ver3.0/Libraries/TickMath.sol\":6165:6179  r := shr(f, r) */\n      swap4\n      pop\n        /* \"LmPool Ver3.0/Libraries/TickMath.sol\":6034:6190  {... */\n      pop\n        /* \"LmPool Ver3.0/Libraries/TickMath.sol\":6245:6246  r */\n      dup3\n        /* \"LmPool Ver3.0/Libraries/TickMath.sol\":6242:6243  r */\n      dup4\n        /* \"LmPool Ver3.0/Libraries/TickMath.sol\":6238:6247  mul(r, r) */\n      mul\n        /* \"LmPool Ver3.0/Libraries/TickMath.sol\":6233:6236  127 */\n      0x7f\n        /* \"LmPool Ver3.0/Libraries/TickMath.sol\":6229:6248  shr(127, mul(r, r)) */\n      shr\n        /* \"LmPool Ver3.0/Libraries/TickMath.sol\":6224:6248  r := shr(127, mul(r, r)) */\n      swap3\n      pop\n        /* \"LmPool Ver3.0/Libraries/TickMath.sol\":6280:6281  r */\n      dup3\n        /* \"LmPool Ver3.0/Libraries/TickMath.sol\":6275:6278  128 */\n      0x80\n        /* \"LmPool Ver3.0/Libraries/TickMath.sol\":6271:6282  shr(128, r) */\n      shr\n        /* \"LmPool Ver3.0/Libraries/TickMath.sol\":6323:6324  f */\n      dup1\n        /* \"LmPool Ver3.0/Libraries/TickMath.sol\":6319:6321  62 */\n      0x3e\n        /* \"LmPool Ver3.0/Libraries/TickMath.sol\":6315:6325  shl(62, f) */\n      shl\n        /* \"LmPool Ver3.0/Libraries/TickMath.sol\":6308:6313  log_2 */\n      dup3\n        /* \"LmPool Ver3.0/Libraries/TickMath.sol\":6305:6326  or(log_2, shl(62, f)) */\n      or\n        /* \"LmPool Ver3.0/Libraries/TickMath.sol\":6296:6326  log_2 := or(log_2, shl(62, f)) */\n      swap2\n      pop\n        /* \"LmPool Ver3.0/Libraries/TickMath.sol\":6352:6353  r */\n      dup4\n        /* \"LmPool Ver3.0/Libraries/TickMath.sol\":6349:6350  f */\n      dup2\n        /* \"LmPool Ver3.0/Libraries/TickMath.sol\":6345:6354  shr(f, r) */\n      shr\n        /* \"LmPool Ver3.0/Libraries/TickMath.sol\":6340:6354  r := shr(f, r) */\n      swap4\n      pop\n        /* \"LmPool Ver3.0/Libraries/TickMath.sol\":6209:6365  {... */\n      pop\n        /* \"LmPool Ver3.0/Libraries/TickMath.sol\":6420:6421  r */\n      dup3\n        /* \"LmPool Ver3.0/Libraries/TickMath.sol\":6417:6418  r */\n      dup4\n        /* \"LmPool Ver3.0/Libraries/TickMath.sol\":6413:6422  mul(r, r) */\n      mul\n        /* \"LmPool Ver3.0/Libraries/TickMath.sol\":6408:6411  127 */\n      0x7f\n        /* \"LmPool Ver3.0/Libraries/TickMath.sol\":6404:6423  shr(127, mul(r, r)) */\n      shr\n        /* \"LmPool Ver3.0/Libraries/TickMath.sol\":6399:6423  r := shr(127, mul(r, r)) */\n      swap3\n      pop\n        /* \"LmPool Ver3.0/Libraries/TickMath.sol\":6455:6456  r */\n      dup3\n        /* \"LmPool Ver3.0/Libraries/TickMath.sol\":6450:6453  128 */\n      0x80\n        /* \"LmPool Ver3.0/Libraries/TickMath.sol\":6446:6457  shr(128, r) */\n      shr\n        /* \"LmPool Ver3.0/Libraries/TickMath.sol\":6498:6499  f */\n      dup1\n        /* \"LmPool Ver3.0/Libraries/TickMath.sol\":6494:6496  61 */\n      0x3d\n        /* \"LmPool Ver3.0/Libraries/TickMath.sol\":6490:6500  shl(61, f) */\n      shl\n        /* \"LmPool Ver3.0/Libraries/TickMath.sol\":6483:6488  log_2 */\n      dup3\n        /* \"LmPool Ver3.0/Libraries/TickMath.sol\":6480:6501  or(log_2, shl(61, f)) */\n      or\n        /* \"LmPool Ver3.0/Libraries/TickMath.sol\":6471:6501  log_2 := or(log_2, shl(61, f)) */\n      swap2\n      pop\n        /* \"LmPool Ver3.0/Libraries/TickMath.sol\":6527:6528  r */\n      dup4\n        /* \"LmPool Ver3.0/Libraries/TickMath.sol\":6524:6525  f */\n      dup2\n        /* \"LmPool Ver3.0/Libraries/TickMath.sol\":6520:6529  shr(f, r) */\n      shr\n        /* \"LmPool Ver3.0/Libraries/TickMath.sol\":6515:6529  r := shr(f, r) */\n      swap4\n      pop\n        /* \"LmPool Ver3.0/Libraries/TickMath.sol\":6384:6540  {... */\n      pop\n        /* \"LmPool Ver3.0/Libraries/TickMath.sol\":6595:6596  r */\n      dup3\n        /* \"LmPool Ver3.0/Libraries/TickMath.sol\":6592:6593  r */\n      dup4\n        /* \"LmPool Ver3.0/Libraries/TickMath.sol\":6588:6597  mul(r, r) */\n      mul\n        /* \"LmPool Ver3.0/Libraries/TickMath.sol\":6583:6586  127 */\n      0x7f\n        /* \"LmPool Ver3.0/Libraries/TickMath.sol\":6579:6598  shr(127, mul(r, r)) */\n      shr\n        /* \"LmPool Ver3.0/Libraries/TickMath.sol\":6574:6598  r := shr(127, mul(r, r)) */\n      swap3\n      pop\n        /* \"LmPool Ver3.0/Libraries/TickMath.sol\":6630:6631  r */\n      dup3\n        /* \"LmPool Ver3.0/Libraries/TickMath.sol\":6625:6628  128 */\n      0x80\n        /* \"LmPool Ver3.0/Libraries/TickMath.sol\":6621:6632  shr(128, r) */\n      shr\n        /* \"LmPool Ver3.0/Libraries/TickMath.sol\":6673:6674  f */\n      dup1\n        /* \"LmPool Ver3.0/Libraries/TickMath.sol\":6669:6671  60 */\n      0x3c\n        /* \"LmPool Ver3.0/Libraries/TickMath.sol\":6665:6675  shl(60, f) */\n      shl\n        /* \"LmPool Ver3.0/Libraries/TickMath.sol\":6658:6663  log_2 */\n      dup3\n        /* \"LmPool Ver3.0/Libraries/TickMath.sol\":6655:6676  or(log_2, shl(60, f)) */\n      or\n        /* \"LmPool Ver3.0/Libraries/TickMath.sol\":6646:6676  log_2 := or(log_2, shl(60, f)) */\n      swap2\n      pop\n        /* \"LmPool Ver3.0/Libraries/TickMath.sol\":6702:6703  r */\n      dup4\n        /* \"LmPool Ver3.0/Libraries/TickMath.sol\":6699:6700  f */\n      dup2\n        /* \"LmPool Ver3.0/Libraries/TickMath.sol\":6695:6704  shr(f, r) */\n      shr\n        /* \"LmPool Ver3.0/Libraries/TickMath.sol\":6690:6704  r := shr(f, r) */\n      swap4\n      pop\n        /* \"LmPool Ver3.0/Libraries/TickMath.sol\":6559:6715  {... */\n      pop\n        /* \"LmPool Ver3.0/Libraries/TickMath.sol\":6770:6771  r */\n      dup3\n        /* \"LmPool Ver3.0/Libraries/TickMath.sol\":6767:6768  r */\n      dup4\n        /* \"LmPool Ver3.0/Libraries/TickMath.sol\":6763:6772  mul(r, r) */\n      mul\n        /* \"LmPool Ver3.0/Libraries/TickMath.sol\":6758:6761  127 */\n      0x7f\n        /* \"LmPool Ver3.0/Libraries/TickMath.sol\":6754:6773  shr(127, mul(r, r)) */\n      shr\n        /* \"LmPool Ver3.0/Libraries/TickMath.sol\":6749:6773  r := shr(127, mul(r, r)) */\n      swap3\n      pop\n        /* \"LmPool Ver3.0/Libraries/TickMath.sol\":6805:6806  r */\n      dup3\n        /* \"LmPool Ver3.0/Libraries/TickMath.sol\":6800:6803  128 */\n      0x80\n        /* \"LmPool Ver3.0/Libraries/TickMath.sol\":6796:6807  shr(128, r) */\n      shr\n        /* \"LmPool Ver3.0/Libraries/TickMath.sol\":6848:6849  f */\n      dup1\n        /* \"LmPool Ver3.0/Libraries/TickMath.sol\":6844:6846  59 */\n      0x3b\n        /* \"LmPool Ver3.0/Libraries/TickMath.sol\":6840:6850  shl(59, f) */\n      shl\n        /* \"LmPool Ver3.0/Libraries/TickMath.sol\":6833:6838  log_2 */\n      dup3\n        /* \"LmPool Ver3.0/Libraries/TickMath.sol\":6830:6851  or(log_2, shl(59, f)) */\n      or\n        /* \"LmPool Ver3.0/Libraries/TickMath.sol\":6821:6851  log_2 := or(log_2, shl(59, f)) */\n      swap2\n      pop\n        /* \"LmPool Ver3.0/Libraries/TickMath.sol\":6877:6878  r */\n      dup4\n        /* \"LmPool Ver3.0/Libraries/TickMath.sol\":6874:6875  f */\n      dup2\n        /* \"LmPool Ver3.0/Libraries/TickMath.sol\":6870:6879  shr(f, r) */\n      shr\n        /* \"LmPool Ver3.0/Libraries/TickMath.sol\":6865:6879  r := shr(f, r) */\n      swap4\n      pop\n        /* \"LmPool Ver3.0/Libraries/TickMath.sol\":6734:6890  {... */\n      pop\n        /* \"LmPool Ver3.0/Libraries/TickMath.sol\":6945:6946  r */\n      dup3\n        /* \"LmPool Ver3.0/Libraries/TickMath.sol\":6942:6943  r */\n      dup4\n        /* \"LmPool Ver3.0/Libraries/TickMath.sol\":6938:6947  mul(r, r) */\n      mul\n        /* \"LmPool Ver3.0/Libraries/TickMath.sol\":6933:6936  127 */\n      0x7f\n        /* \"LmPool Ver3.0/Libraries/TickMath.sol\":6929:6948  shr(127, mul(r, r)) */\n      shr\n        /* \"LmPool Ver3.0/Libraries/TickMath.sol\":6924:6948  r := shr(127, mul(r, r)) */\n      swap3\n      pop\n        /* \"LmPool Ver3.0/Libraries/TickMath.sol\":6980:6981  r */\n      dup3\n        /* \"LmPool Ver3.0/Libraries/TickMath.sol\":6975:6978  128 */\n      0x80\n        /* \"LmPool Ver3.0/Libraries/TickMath.sol\":6971:6982  shr(128, r) */\n      shr\n        /* \"LmPool Ver3.0/Libraries/TickMath.sol\":7023:7024  f */\n      dup1\n        /* \"LmPool Ver3.0/Libraries/TickMath.sol\":7019:7021  58 */\n      0x3a\n        /* \"LmPool Ver3.0/Libraries/TickMath.sol\":7015:7025  shl(58, f) */\n      shl\n        /* \"LmPool Ver3.0/Libraries/TickMath.sol\":7008:7013  log_2 */\n      dup3\n        /* \"LmPool Ver3.0/Libraries/TickMath.sol\":7005:7026  or(log_2, shl(58, f)) */\n      or\n        /* \"LmPool Ver3.0/Libraries/TickMath.sol\":6996:7026  log_2 := or(log_2, shl(58, f)) */\n      swap2\n      pop\n        /* \"LmPool Ver3.0/Libraries/TickMath.sol\":7052:7053  r */\n      dup4\n        /* \"LmPool Ver3.0/Libraries/TickMath.sol\":7049:7050  f */\n      dup2\n        /* \"LmPool Ver3.0/Libraries/TickMath.sol\":7045:7054  shr(f, r) */\n      shr\n        /* \"LmPool Ver3.0/Libraries/TickMath.sol\":7040:7054  r := shr(f, r) */\n      swap4\n      pop\n        /* \"LmPool Ver3.0/Libraries/TickMath.sol\":6909:7065  {... */\n      pop\n        /* \"LmPool Ver3.0/Libraries/TickMath.sol\":7120:7121  r */\n      dup3\n        /* \"LmPool Ver3.0/Libraries/TickMath.sol\":7117:7118  r */\n      dup4\n        /* \"LmPool Ver3.0/Libraries/TickMath.sol\":7113:7122  mul(r, r) */\n      mul\n        /* \"LmPool Ver3.0/Libraries/TickMath.sol\":7108:7111  127 */\n      0x7f\n        /* \"LmPool Ver3.0/Libraries/TickMath.sol\":7104:7123  shr(127, mul(r, r)) */\n      shr\n        /* \"LmPool Ver3.0/Libraries/TickMath.sol\":7099:7123  r := shr(127, mul(r, r)) */\n      swap3\n      pop\n        /* \"LmPool Ver3.0/Libraries/TickMath.sol\":7155:7156  r */\n      dup3\n        /* \"LmPool Ver3.0/Libraries/TickMath.sol\":7150:7153  128 */\n      0x80\n        /* \"LmPool Ver3.0/Libraries/TickMath.sol\":7146:7157  shr(128, r) */\n      shr\n        /* \"LmPool Ver3.0/Libraries/TickMath.sol\":7198:7199  f */\n      dup1\n        /* \"LmPool Ver3.0/Libraries/TickMath.sol\":7194:7196  57 */\n      0x39\n        /* \"LmPool Ver3.0/Libraries/TickMath.sol\":7190:7200  shl(57, f) */\n      shl\n        /* \"LmPool Ver3.0/Libraries/TickMath.sol\":7183:7188  log_2 */\n      dup3\n        /* \"LmPool Ver3.0/Libraries/TickMath.sol\":7180:7201  or(log_2, shl(57, f)) */\n      or\n        /* \"LmPool Ver3.0/Libraries/TickMath.sol\":7171:7201  log_2 := or(log_2, shl(57, f)) */\n      swap2\n      pop\n        /* \"LmPool Ver3.0/Libraries/TickMath.sol\":7227:7228  r */\n      dup4\n        /* \"LmPool Ver3.0/Libraries/TickMath.sol\":7224:7225  f */\n      dup2\n        /* \"LmPool Ver3.0/Libraries/TickMath.sol\":7220:7229  shr(f, r) */\n      shr\n        /* \"LmPool Ver3.0/Libraries/TickMath.sol\":7215:7229  r := shr(f, r) */\n      swap4\n      pop\n        /* \"LmPool Ver3.0/Libraries/TickMath.sol\":7084:7240  {... */\n      pop\n        /* \"LmPool Ver3.0/Libraries/TickMath.sol\":7295:7296  r */\n      dup3\n        /* \"LmPool Ver3.0/Libraries/TickMath.sol\":7292:7293  r */\n      dup4\n        /* \"LmPool Ver3.0/Libraries/TickMath.sol\":7288:7297  mul(r, r) */\n      mul\n        /* \"LmPool Ver3.0/Libraries/TickMath.sol\":7283:7286  127 */\n      0x7f\n        /* \"LmPool Ver3.0/Libraries/TickMath.sol\":7279:7298  shr(127, mul(r, r)) */\n      shr\n        /* \"LmPool Ver3.0/Libraries/TickMath.sol\":7274:7298  r := shr(127, mul(r, r)) */\n      swap3\n      pop\n        /* \"LmPool Ver3.0/Libraries/TickMath.sol\":7330:7331  r */\n      dup3\n        /* \"LmPool Ver3.0/Libraries/TickMath.sol\":7325:7328  128 */\n      0x80\n        /* \"LmPool Ver3.0/Libraries/TickMath.sol\":7321:7332  shr(128, r) */\n      shr\n        /* \"LmPool Ver3.0/Libraries/TickMath.sol\":7373:7374  f */\n      dup1\n        /* \"LmPool Ver3.0/Libraries/TickMath.sol\":7369:7371  56 */\n      0x38\n        /* \"LmPool Ver3.0/Libraries/TickMath.sol\":7365:7375  shl(56, f) */\n      shl\n        /* \"LmPool Ver3.0/Libraries/TickMath.sol\":7358:7363  log_2 */\n      dup3\n        /* \"LmPool Ver3.0/Libraries/TickMath.sol\":7355:7376  or(log_2, shl(56, f)) */\n      or\n        /* \"LmPool Ver3.0/Libraries/TickMath.sol\":7346:7376  log_2 := or(log_2, shl(56, f)) */\n      swap2\n      pop\n        /* \"LmPool Ver3.0/Libraries/TickMath.sol\":7402:7403  r */\n      dup4\n        /* \"LmPool Ver3.0/Libraries/TickMath.sol\":7399:7400  f */\n      dup2\n        /* \"LmPool Ver3.0/Libraries/TickMath.sol\":7395:7404  shr(f, r) */\n      shr\n        /* \"LmPool Ver3.0/Libraries/TickMath.sol\":7390:7404  r := shr(f, r) */\n      swap4\n      pop\n        /* \"LmPool Ver3.0/Libraries/TickMath.sol\":7259:7415  {... */\n      pop\n        /* \"LmPool Ver3.0/Libraries/TickMath.sol\":7470:7471  r */\n      dup3\n        /* \"LmPool Ver3.0/Libraries/TickMath.sol\":7467:7468  r */\n      dup4\n        /* \"LmPool Ver3.0/Libraries/TickMath.sol\":7463:7472  mul(r, r) */\n      mul\n        /* \"LmPool Ver3.0/Libraries/TickMath.sol\":7458:7461  127 */\n      0x7f\n        /* \"LmPool Ver3.0/Libraries/TickMath.sol\":7454:7473  shr(127, mul(r, r)) */\n      shr\n        /* \"LmPool Ver3.0/Libraries/TickMath.sol\":7449:7473  r := shr(127, mul(r, r)) */\n      swap3\n      pop\n        /* \"LmPool Ver3.0/Libraries/TickMath.sol\":7505:7506  r */\n      dup3\n        /* \"LmPool Ver3.0/Libraries/TickMath.sol\":7500:7503  128 */\n      0x80\n        /* \"LmPool Ver3.0/Libraries/TickMath.sol\":7496:7507  shr(128, r) */\n      shr\n        /* \"LmPool Ver3.0/Libraries/TickMath.sol\":7548:7549  f */\n      dup1\n        /* \"LmPool Ver3.0/Libraries/TickMath.sol\":7544:7546  55 */\n      0x37\n        /* \"LmPool Ver3.0/Libraries/TickMath.sol\":7540:7550  shl(55, f) */\n      shl\n        /* \"LmPool Ver3.0/Libraries/TickMath.sol\":7533:7538  log_2 */\n      dup3\n        /* \"LmPool Ver3.0/Libraries/TickMath.sol\":7530:7551  or(log_2, shl(55, f)) */\n      or\n        /* \"LmPool Ver3.0/Libraries/TickMath.sol\":7521:7551  log_2 := or(log_2, shl(55, f)) */\n      swap2\n      pop\n        /* \"LmPool Ver3.0/Libraries/TickMath.sol\":7577:7578  r */\n      dup4\n        /* \"LmPool Ver3.0/Libraries/TickMath.sol\":7574:7575  f */\n      dup2\n        /* \"LmPool Ver3.0/Libraries/TickMath.sol\":7570:7579  shr(f, r) */\n      shr\n        /* \"LmPool Ver3.0/Libraries/TickMath.sol\":7565:7579  r := shr(f, r) */\n      swap4\n      pop\n        /* \"LmPool Ver3.0/Libraries/TickMath.sol\":7434:7590  {... */\n      pop\n        /* \"LmPool Ver3.0/Libraries/TickMath.sol\":7645:7646  r */\n      dup3\n        /* \"LmPool Ver3.0/Libraries/TickMath.sol\":7642:7643  r */\n      dup4\n        /* \"LmPool Ver3.0/Libraries/TickMath.sol\":7638:7647  mul(r, r) */\n      mul\n        /* \"LmPool Ver3.0/Libraries/TickMath.sol\":7633:7636  127 */\n      0x7f\n        /* \"LmPool Ver3.0/Libraries/TickMath.sol\":7629:7648  shr(127, mul(r, r)) */\n      shr\n        /* \"LmPool Ver3.0/Libraries/TickMath.sol\":7624:7648  r := shr(127, mul(r, r)) */\n      swap3\n      pop\n        /* \"LmPool Ver3.0/Libraries/TickMath.sol\":7680:7681  r */\n      dup3\n        /* \"LmPool Ver3.0/Libraries/TickMath.sol\":7675:7678  128 */\n      0x80\n        /* \"LmPool Ver3.0/Libraries/TickMath.sol\":7671:7682  shr(128, r) */\n      shr\n        /* \"LmPool Ver3.0/Libraries/TickMath.sol\":7723:7724  f */\n      dup1\n        /* \"LmPool Ver3.0/Libraries/TickMath.sol\":7719:7721  54 */\n      0x36\n        /* \"LmPool Ver3.0/Libraries/TickMath.sol\":7715:7725  shl(54, f) */\n      shl\n        /* \"LmPool Ver3.0/Libraries/TickMath.sol\":7708:7713  log_2 */\n      dup3\n        /* \"LmPool Ver3.0/Libraries/TickMath.sol\":7705:7726  or(log_2, shl(54, f)) */\n      or\n        /* \"LmPool Ver3.0/Libraries/TickMath.sol\":7696:7726  log_2 := or(log_2, shl(54, f)) */\n      swap2\n      pop\n        /* \"LmPool Ver3.0/Libraries/TickMath.sol\":7752:7753  r */\n      dup4\n        /* \"LmPool Ver3.0/Libraries/TickMath.sol\":7749:7750  f */\n      dup2\n        /* \"LmPool Ver3.0/Libraries/TickMath.sol\":7745:7754  shr(f, r) */\n      shr\n        /* \"LmPool Ver3.0/Libraries/TickMath.sol\":7740:7754  r := shr(f, r) */\n      swap4\n      pop\n        /* \"LmPool Ver3.0/Libraries/TickMath.sol\":7609:7765  {... */\n      pop\n        /* \"LmPool Ver3.0/Libraries/TickMath.sol\":7820:7821  r */\n      dup3\n        /* \"LmPool Ver3.0/Libraries/TickMath.sol\":7817:7818  r */\n      dup4\n        /* \"LmPool Ver3.0/Libraries/TickMath.sol\":7813:7822  mul(r, r) */\n      mul\n        /* \"LmPool Ver3.0/Libraries/TickMath.sol\":7808:7811  127 */\n      0x7f\n        /* \"LmPool Ver3.0/Libraries/TickMath.sol\":7804:7823  shr(127, mul(r, r)) */\n      shr\n        /* \"LmPool Ver3.0/Libraries/TickMath.sol\":7799:7823  r := shr(127, mul(r, r)) */\n      swap3\n      pop\n        /* \"LmPool Ver3.0/Libraries/TickMath.sol\":7855:7856  r */\n      dup3\n        /* \"LmPool Ver3.0/Libraries/TickMath.sol\":7850:7853  128 */\n      0x80\n        /* \"LmPool Ver3.0/Libraries/TickMath.sol\":7846:7857  shr(128, r) */\n      shr\n        /* \"LmPool Ver3.0/Libraries/TickMath.sol\":7898:7899  f */\n      dup1\n        /* \"LmPool Ver3.0/Libraries/TickMath.sol\":7894:7896  53 */\n      0x35\n        /* \"LmPool Ver3.0/Libraries/TickMath.sol\":7890:7900  shl(53, f) */\n      shl\n        /* \"LmPool Ver3.0/Libraries/TickMath.sol\":7883:7888  log_2 */\n      dup3\n        /* \"LmPool Ver3.0/Libraries/TickMath.sol\":7880:7901  or(log_2, shl(53, f)) */\n      or\n        /* \"LmPool Ver3.0/Libraries/TickMath.sol\":7871:7901  log_2 := or(log_2, shl(53, f)) */\n      swap2\n      pop\n        /* \"LmPool Ver3.0/Libraries/TickMath.sol\":7927:7928  r */\n      dup4\n        /* \"LmPool Ver3.0/Libraries/TickMath.sol\":7924:7925  f */\n      dup2\n        /* \"LmPool Ver3.0/Libraries/TickMath.sol\":7920:7929  shr(f, r) */\n      shr\n        /* \"LmPool Ver3.0/Libraries/TickMath.sol\":7915:7929  r := shr(f, r) */\n      swap4\n      pop\n        /* \"LmPool Ver3.0/Libraries/TickMath.sol\":7784:7940  {... */\n      pop\n        /* \"LmPool Ver3.0/Libraries/TickMath.sol\":7995:7996  r */\n      dup3\n        /* \"LmPool Ver3.0/Libraries/TickMath.sol\":7992:7993  r */\n      dup4\n        /* \"LmPool Ver3.0/Libraries/TickMath.sol\":7988:7997  mul(r, r) */\n      mul\n        /* \"LmPool Ver3.0/Libraries/TickMath.sol\":7983:7986  127 */\n      0x7f\n        /* \"LmPool Ver3.0/Libraries/TickMath.sol\":7979:7998  shr(127, mul(r, r)) */\n      shr\n        /* \"LmPool Ver3.0/Libraries/TickMath.sol\":7974:7998  r := shr(127, mul(r, r)) */\n      swap3\n      pop\n        /* \"LmPool Ver3.0/Libraries/TickMath.sol\":8030:8031  r */\n      dup3\n        /* \"LmPool Ver3.0/Libraries/TickMath.sol\":8025:8028  128 */\n      0x80\n        /* \"LmPool Ver3.0/Libraries/TickMath.sol\":8021:8032  shr(128, r) */\n      shr\n        /* \"LmPool Ver3.0/Libraries/TickMath.sol\":8073:8074  f */\n      dup1\n        /* \"LmPool Ver3.0/Libraries/TickMath.sol\":8069:8071  52 */\n      0x34\n        /* \"LmPool Ver3.0/Libraries/TickMath.sol\":8065:8075  shl(52, f) */\n      shl\n        /* \"LmPool Ver3.0/Libraries/TickMath.sol\":8058:8063  log_2 */\n      dup3\n        /* \"LmPool Ver3.0/Libraries/TickMath.sol\":8055:8076  or(log_2, shl(52, f)) */\n      or\n        /* \"LmPool Ver3.0/Libraries/TickMath.sol\":8046:8076  log_2 := or(log_2, shl(52, f)) */\n      swap2\n      pop\n        /* \"LmPool Ver3.0/Libraries/TickMath.sol\":8102:8103  r */\n      dup4\n        /* \"LmPool Ver3.0/Libraries/TickMath.sol\":8099:8100  f */\n      dup2\n        /* \"LmPool Ver3.0/Libraries/TickMath.sol\":8095:8104  shr(f, r) */\n      shr\n        /* \"LmPool Ver3.0/Libraries/TickMath.sol\":8090:8104  r := shr(f, r) */\n      swap4\n      pop\n        /* \"LmPool Ver3.0/Libraries/TickMath.sol\":7959:8115  {... */\n      pop\n        /* \"LmPool Ver3.0/Libraries/TickMath.sol\":8170:8171  r */\n      dup3\n        /* \"LmPool Ver3.0/Libraries/TickMath.sol\":8167:8168  r */\n      dup4\n        /* \"LmPool Ver3.0/Libraries/TickMath.sol\":8163:8172  mul(r, r) */\n      mul\n        /* \"LmPool Ver3.0/Libraries/TickMath.sol\":8158:8161  127 */\n      0x7f\n        /* \"LmPool Ver3.0/Libraries/TickMath.sol\":8154:8173  shr(127, mul(r, r)) */\n      shr\n        /* \"LmPool Ver3.0/Libraries/TickMath.sol\":8149:8173  r := shr(127, mul(r, r)) */\n      swap3\n      pop\n        /* \"LmPool Ver3.0/Libraries/TickMath.sol\":8205:8206  r */\n      dup3\n        /* \"LmPool Ver3.0/Libraries/TickMath.sol\":8200:8203  128 */\n      0x80\n        /* \"LmPool Ver3.0/Libraries/TickMath.sol\":8196:8207  shr(128, r) */\n      shr\n        /* \"LmPool Ver3.0/Libraries/TickMath.sol\":8248:8249  f */\n      dup1\n        /* \"LmPool Ver3.0/Libraries/TickMath.sol\":8244:8246  51 */\n      0x33\n        /* \"LmPool Ver3.0/Libraries/TickMath.sol\":8240:8250  shl(51, f) */\n      shl\n        /* \"LmPool Ver3.0/Libraries/TickMath.sol\":8233:8238  log_2 */\n      dup3\n        /* \"LmPool Ver3.0/Libraries/TickMath.sol\":8230:8251  or(log_2, shl(51, f)) */\n      or\n        /* \"LmPool Ver3.0/Libraries/TickMath.sol\":8221:8251  log_2 := or(log_2, shl(51, f)) */\n      swap2\n      pop\n        /* \"LmPool Ver3.0/Libraries/TickMath.sol\":8277:8278  r */\n      dup4\n        /* \"LmPool Ver3.0/Libraries/TickMath.sol\":8274:8275  f */\n      dup2\n        /* \"LmPool Ver3.0/Libraries/TickMath.sol\":8270:8279  shr(f, r) */\n      shr\n        /* \"LmPool Ver3.0/Libraries/TickMath.sol\":8265:8279  r := shr(f, r) */\n      swap4\n      pop\n        /* \"LmPool Ver3.0/Libraries/TickMath.sol\":8134:8290  {... */\n      pop\n        /* \"LmPool Ver3.0/Libraries/TickMath.sol\":8345:8346  r */\n      dup3\n        /* \"LmPool Ver3.0/Libraries/TickMath.sol\":8342:8343  r */\n      dup4\n        /* \"LmPool Ver3.0/Libraries/TickMath.sol\":8338:8347  mul(r, r) */\n      mul\n        /* \"LmPool Ver3.0/Libraries/TickMath.sol\":8333:8336  127 */\n      0x7f\n        /* \"LmPool Ver3.0/Libraries/TickMath.sol\":8329:8348  shr(127, mul(r, r)) */\n      shr\n        /* \"LmPool Ver3.0/Libraries/TickMath.sol\":8324:8348  r := shr(127, mul(r, r)) */\n      swap3\n      pop\n        /* \"LmPool Ver3.0/Libraries/TickMath.sol\":8380:8381  r */\n      dup3\n        /* \"LmPool Ver3.0/Libraries/TickMath.sol\":8375:8378  128 */\n      0x80\n        /* \"LmPool Ver3.0/Libraries/TickMath.sol\":8371:8382  shr(128, r) */\n      shr\n        /* \"LmPool Ver3.0/Libraries/TickMath.sol\":8423:8424  f */\n      dup1\n        /* \"LmPool Ver3.0/Libraries/TickMath.sol\":8419:8421  50 */\n      0x32\n        /* \"LmPool Ver3.0/Libraries/TickMath.sol\":8415:8425  shl(50, f) */\n      shl\n        /* \"LmPool Ver3.0/Libraries/TickMath.sol\":8408:8413  log_2 */\n      dup3\n        /* \"LmPool Ver3.0/Libraries/TickMath.sol\":8405:8426  or(log_2, shl(50, f)) */\n      or\n        /* \"LmPool Ver3.0/Libraries/TickMath.sol\":8396:8426  log_2 := or(log_2, shl(50, f)) */\n      swap2\n      pop\n        /* \"LmPool Ver3.0/Libraries/TickMath.sol\":8309:8437  {... */\n      pop\n        /* \"LmPool Ver3.0/Libraries/TickMath.sol\":8449:8469  int256 log_sqrt10001 */\n      0x00\n        /* \"LmPool Ver3.0/Libraries/TickMath.sol\":8480:8504  255738958999603826347141 */\n      0x3627a301d71055774c85\n        /* \"LmPool Ver3.0/Libraries/TickMath.sol\":8472:8477  log_2 */\n      dup3\n        /* \"LmPool Ver3.0/Libraries/TickMath.sol\":8472:8504  log_2 * 255738958999603826347141 */\n      tag_64\n      swap2\n      swap1\n      tag_65\n      jump\t// in\n    tag_64:\n        /* \"LmPool Ver3.0/Libraries/TickMath.sol\":8449:8504  int256 log_sqrt10001 = log_2 * 255738958999603826347141 */\n      swap1\n      pop\n        /* \"LmPool Ver3.0/Libraries/TickMath.sol\":8535:8548  int24 tickLow */\n      0x00\n        /* \"LmPool Ver3.0/Libraries/TickMath.sol\":8616:8619  128 */\n      0x80\n        /* \"LmPool Ver3.0/Libraries/TickMath.sol\":8574:8611  3402992956809132418596140100660247210 */\n      0x028f6481ab7f045a5af012a19d003aaa\n        /* \"LmPool Ver3.0/Libraries/TickMath.sol\":8558:8571  log_sqrt10001 */\n      dup4\n        /* \"LmPool Ver3.0/Libraries/TickMath.sol\":8558:8611  log_sqrt10001 - 3402992956809132418596140100660247210 */\n      tag_66\n      swap2\n      swap1\n      tag_63\n      jump\t// in\n    tag_66:\n        /* \"LmPool Ver3.0/Libraries/TickMath.sol\":8557:8619  (log_sqrt10001 - 3402992956809132418596140100660247210) >> 128 */\n      swap1\n      sar\n        /* \"LmPool Ver3.0/Libraries/TickMath.sol\":8535:8620  int24 tickLow = int24((log_sqrt10001 - 3402992956809132418596140100660247210) >> 128) */\n      swap1\n      pop\n        /* \"LmPool Ver3.0/Libraries/TickMath.sol\":8631:8643  int24 tickHi */\n      0x00\n        /* \"LmPool Ver3.0/Libraries/TickMath.sol\":8713:8716  128 */\n      0x80\n        /* \"LmPool Ver3.0/Libraries/TickMath.sol\":8669:8708  291339464771989622907027621153398088495 */\n      0xdb2df09e81959a81455e260799a0632f\n        /* \"LmPool Ver3.0/Libraries/TickMath.sol\":8653:8666  log_sqrt10001 */\n      dup5\n        /* \"LmPool Ver3.0/Libraries/TickMath.sol\":8653:8708  log_sqrt10001 + 291339464771989622907027621153398088495 */\n      tag_67\n      swap2\n      swap1\n      tag_68\n      jump\t// in\n    tag_67:\n        /* \"LmPool Ver3.0/Libraries/TickMath.sol\":8652:8716  (log_sqrt10001 + 291339464771989622907027621153398088495) >> 128 */\n      swap1\n      sar\n        /* \"LmPool Ver3.0/Libraries/TickMath.sol\":8631:8717  int24 tickHi = int24((log_sqrt10001 + 291339464771989622907027621153398088495) >> 128) */\n      swap1\n      pop\n        /* \"LmPool Ver3.0/Libraries/TickMath.sol\":8748:8754  tickHi */\n      dup1\n        /* \"LmPool Ver3.0/Libraries/TickMath.sol\":8737:8754  tickLow == tickHi */\n      0x02\n      signextend\n        /* \"LmPool Ver3.0/Libraries/TickMath.sol\":8737:8744  tickLow */\n      dup3\n        /* \"LmPool Ver3.0/Libraries/TickMath.sol\":8737:8754  tickLow == tickHi */\n      0x02\n      signextend\n      eq\n        /* \"LmPool Ver3.0/Libraries/TickMath.sol\":8737:8828  tickLow == tickHi ? tickLow : getSqrtRatioAtTick(tickHi) <= sqrtPriceX96 ? tickHi : tickLow */\n      tag_69\n      jumpi\n        /* \"LmPool Ver3.0/Libraries/TickMath.sol\":8797:8809  sqrtPriceX96 */\n      dup9\n        /* \"LmPool Ver3.0/Libraries/TickMath.sol\":8767:8809  getSqrtRatioAtTick(tickHi) <= sqrtPriceX96 */\n      0xffffffffffffffffffffffffffffffffffffffff\n      and\n        /* \"LmPool Ver3.0/Libraries/TickMath.sol\":8767:8793  getSqrtRatioAtTick(tickHi) */\n      tag_70\n        /* \"LmPool Ver3.0/Libraries/TickMath.sol\":8786:8792  tickHi */\n      dup3\n        /* \"LmPool Ver3.0/Libraries/TickMath.sol\":8767:8785  getSqrtRatioAtTick */\n      tag_47\n        /* \"LmPool Ver3.0/Libraries/TickMath.sol\":8767:8793  getSqrtRatioAtTick(tickHi) */\n      jump\t// in\n    tag_70:\n        /* \"LmPool Ver3.0/Libraries/TickMath.sol\":8767:8809  getSqrtRatioAtTick(tickHi) <= sqrtPriceX96 */\n      0xffffffffffffffffffffffffffffffffffffffff\n      and\n      gt\n      iszero\n        /* \"LmPool Ver3.0/Libraries/TickMath.sol\":8767:8828  getSqrtRatioAtTick(tickHi) <= sqrtPriceX96 ? tickHi : tickLow */\n      tag_71\n      jumpi\n        /* \"LmPool Ver3.0/Libraries/TickMath.sol\":8821:8828  tickLow */\n      dup2\n        /* \"LmPool Ver3.0/Libraries/TickMath.sol\":8767:8828  getSqrtRatioAtTick(tickHi) <= sqrtPriceX96 ? tickHi : tickLow */\n      jump(tag_72)\n    tag_71:\n        /* \"LmPool Ver3.0/Libraries/TickMath.sol\":8812:8818  tickHi */\n      dup1\n        /* \"LmPool Ver3.0/Libraries/TickMath.sol\":8767:8828  getSqrtRatioAtTick(tickHi) <= sqrtPriceX96 ? tickHi : tickLow */\n    tag_72:\n        /* \"LmPool Ver3.0/Libraries/TickMath.sol\":8737:8828  tickLow == tickHi ? tickLow : getSqrtRatioAtTick(tickHi) <= sqrtPriceX96 ? tickHi : tickLow */\n      jump(tag_73)\n    tag_69:\n        /* \"LmPool Ver3.0/Libraries/TickMath.sol\":8757:8764  tickLow */\n      dup2\n        /* \"LmPool Ver3.0/Libraries/TickMath.sol\":8737:8828  tickLow == tickHi ? tickLow : getSqrtRatioAtTick(tickHi) <= sqrtPriceX96 ? tickHi : tickLow */\n    tag_73:\n        /* \"LmPool Ver3.0/Libraries/TickMath.sol\":8730:8828  tick = tickLow == tickHi ? tickLow : getSqrtRatioAtTick(tickHi) <= sqrtPriceX96 ? tickHi : tickLow */\n      swap8\n      pop\n        /* \"LmPool Ver3.0/Libraries/TickMath.sol\":4497:8836  {... */\n      pop\n      pop\n      pop\n      pop\n      pop\n      pop\n      pop\n        /* \"LmPool Ver3.0/Libraries/TickMath.sol\":4412:8836  function getTickAtSqrtRatio(uint160 sqrtPriceX96) internal pure returns (int24 tick) {... */\n      swap2\n      swap1\n      pop\n      jump\t// out\n        /* \"LmPool Ver3.0/Libraries/sqrtMath.sol\":81:423  function sqrt(uint y) internal pure returns (uint z) {... */\n    tag_39:\n        /* \"LmPool Ver3.0/Libraries/sqrtMath.sol\":126:132  uint z */\n      0x00\n        /* \"LmPool Ver3.0/Libraries/sqrtMath.sol\":153:154  3 */\n      0x03\n        /* \"LmPool Ver3.0/Libraries/sqrtMath.sol\":149:150  y */\n      dup3\n        /* \"LmPool Ver3.0/Libraries/sqrtMath.sol\":149:154  y > 3 */\n      gt\n        /* \"LmPool Ver3.0/Libraries/sqrtMath.sol\":145:377  if (y > 3) {... */\n      iszero\n      tag_75\n      jumpi\n        /* \"LmPool Ver3.0/Libraries/sqrtMath.sol\":175:176  y */\n      dup2\n        /* \"LmPool Ver3.0/Libraries/sqrtMath.sol\":171:176  z = y */\n      swap1\n      pop\n        /* \"LmPool Ver3.0/Libraries/sqrtMath.sol\":191:197  uint x */\n      0x00\n        /* \"LmPool Ver3.0/Libraries/sqrtMath.sol\":208:209  1 */\n      0x01\n        /* \"LmPool Ver3.0/Libraries/sqrtMath.sol\":204:205  2 */\n      0x02\n        /* \"LmPool Ver3.0/Libraries/sqrtMath.sol\":200:201  y */\n      dup5\n        /* \"LmPool Ver3.0/Libraries/sqrtMath.sol\":200:205  y / 2 */\n      tag_76\n      swap2\n      swap1\n      tag_42\n      jump\t// in\n    tag_76:\n        /* \"LmPool Ver3.0/Libraries/sqrtMath.sol\":200:209  y / 2 + 1 */\n      tag_77\n      swap2\n      swap1\n      tag_78\n      jump\t// in\n    tag_77:\n        /* \"LmPool Ver3.0/Libraries/sqrtMath.sol\":191:209  uint x = y / 2 + 1 */\n      swap1\n      pop\n        /* \"LmPool Ver3.0/Libraries/sqrtMath.sol\":224:316  while (x < z) {... */\n    tag_79:\n        /* \"LmPool Ver3.0/Libraries/sqrtMath.sol\":235:236  z */\n      dup2\n        /* \"LmPool Ver3.0/Libraries/sqrtMath.sol\":231:232  x */\n      dup2\n        /* \"LmPool Ver3.0/Libraries/sqrtMath.sol\":231:236  x < z */\n      lt\n        /* \"LmPool Ver3.0/Libraries/sqrtMath.sol\":224:316  while (x < z) {... */\n      iszero\n      tag_80\n      jumpi\n        /* \"LmPool Ver3.0/Libraries/sqrtMath.sol\":261:262  x */\n      dup1\n        /* \"LmPool Ver3.0/Libraries/sqrtMath.sol\":257:262  z = x */\n      swap2\n      pop\n        /* \"LmPool Ver3.0/Libraries/sqrtMath.sol\":299:300  2 */\n      0x02\n        /* \"LmPool Ver3.0/Libraries/sqrtMath.sol\":294:295  x */\n      dup2\n        /* \"LmPool Ver3.0/Libraries/sqrtMath.sol\":290:291  x */\n      dup3\n        /* \"LmPool Ver3.0/Libraries/sqrtMath.sol\":286:287  y */\n      dup6\n        /* \"LmPool Ver3.0/Libraries/sqrtMath.sol\":286:291  y / x */\n      tag_81\n      swap2\n      swap1\n      tag_42\n      jump\t// in\n    tag_81:\n        /* \"LmPool Ver3.0/Libraries/sqrtMath.sol\":286:295  y / x + x */\n      tag_82\n      swap2\n      swap1\n      tag_78\n      jump\t// in\n    tag_82:\n        /* \"LmPool Ver3.0/Libraries/sqrtMath.sol\":285:300  (y / x + x) / 2 */\n      tag_83\n      swap2\n      swap1\n      tag_42\n      jump\t// in\n    tag_83:\n        /* \"LmPool Ver3.0/Libraries/sqrtMath.sol\":281:300  x = (y / x + x) / 2 */\n      swap1\n      pop\n        /* \"LmPool Ver3.0/Libraries/sqrtMath.sol\":224:316  while (x < z) {... */\n      jump(tag_79)\n    tag_80:\n        /* \"LmPool Ver3.0/Libraries/sqrtMath.sol\":156:327  {... */\n      pop\n        /* \"LmPool Ver3.0/Libraries/sqrtMath.sol\":145:377  if (y > 3) {... */\n      jump(tag_84)\n    tag_75:\n        /* \"LmPool Ver3.0/Libraries/sqrtMath.sol\":342:343  0 */\n      0x00\n        /* \"LmPool Ver3.0/Libraries/sqrtMath.sol\":337:338  y */\n      dup3\n        /* \"LmPool Ver3.0/Libraries/sqrtMath.sol\":337:343  y != 0 */\n      eq\n        /* \"LmPool Ver3.0/Libraries/sqrtMath.sol\":333:377  if (y != 0) {... */\n      tag_85\n      jumpi\n        /* \"LmPool Ver3.0/Libraries/sqrtMath.sol\":364:365  1 */\n      0x01\n        /* \"LmPool Ver3.0/Libraries/sqrtMath.sol\":360:365  z = 1 */\n      swap1\n      pop\n        /* \"LmPool Ver3.0/Libraries/sqrtMath.sol\":333:377  if (y != 0) {... */\n    tag_85:\n        /* \"LmPool Ver3.0/Libraries/sqrtMath.sol\":145:377  if (y > 3) {... */\n    tag_84:\n        /* \"LmPool Ver3.0/Libraries/sqrtMath.sol\":81:423  function sqrt(uint y) internal pure returns (uint z) {... */\n      swap2\n      swap1\n      pop\n      jump\t// out\n        /* \"LmPool Ver3.0/Libraries/TickMath.sol\":1377:3986  function getSqrtRatioAtTick(int24 tick) internal pure returns (uint160 sqrtPriceX96) {... */\n    tag_47:\n        /* \"LmPool Ver3.0/Libraries/TickMath.sol\":1440:1460  uint160 sqrtPriceX96 */\n      0x00\n        /* \"LmPool Ver3.0/Libraries/TickMath.sol\":1473:1488  uint256 absTick */\n      dup1\n        /* \"LmPool Ver3.0/Libraries/TickMath.sol\":1498:1499  0 */\n      0x00\n        /* \"LmPool Ver3.0/Libraries/TickMath.sol\":1491:1495  tick */\n      dup4\n        /* \"LmPool Ver3.0/Libraries/TickMath.sol\":1491:1499  tick < 0 */\n      0x02\n      signextend\n      slt\n        /* \"LmPool Ver3.0/Libraries/TickMath.sol\":1491:1548  tick < 0 ? uint256(-int256(tick)) : uint256(int256(tick)) */\n      tag_87\n      jumpi\n        /* \"LmPool Ver3.0/Libraries/TickMath.sol\":1542:1546  tick */\n      dup3\n        /* \"LmPool Ver3.0/Libraries/TickMath.sol\":1535:1547  int256(tick) */\n      0x02\n      signextend\n        /* \"LmPool Ver3.0/Libraries/TickMath.sol\":1491:1548  tick < 0 ? uint256(-int256(tick)) : uint256(int256(tick)) */\n      jump(tag_88)\n    tag_87:\n        /* \"LmPool Ver3.0/Libraries/TickMath.sol\":1518:1522  tick */\n      dup3\n        /* \"LmPool Ver3.0/Libraries/TickMath.sol\":1511:1523  int256(tick) */\n      0x02\n      signextend\n        /* \"LmPool Ver3.0/Libraries/TickMath.sol\":1510:1523  -int256(tick) */\n      tag_89\n      swap1\n      tag_90\n      jump\t// in\n    tag_89:\n        /* \"LmPool Ver3.0/Libraries/TickMath.sol\":1491:1548  tick < 0 ? uint256(-int256(tick)) : uint256(int256(tick)) */\n    tag_88:\n        /* \"LmPool Ver3.0/Libraries/TickMath.sol\":1473:1548  uint256 absTick = tick < 0 ? uint256(-int256(tick)) : uint256(int256(tick)) */\n      swap1\n      pop\n        /* \"LmPool Ver3.0/Libraries/TickMath.sol\":1586:1592  887272 */\n      0x0d89e8\n        /* \"LmPool Ver3.0/Libraries/TickMath.sol\":1567:1574  absTick */\n      dup2\n        /* \"LmPool Ver3.0/Libraries/TickMath.sol\":1567:1593  absTick <= uint256(887272) */\n      gt\n      iszero\n        /* \"LmPool Ver3.0/Libraries/TickMath.sol\":1559:1599  require(absTick <= uint256(887272), 'T') */\n      tag_91\n      jumpi\n      mload(0x40)\n      0x08c379a000000000000000000000000000000000000000000000000000000000\n      dup2\n      mstore\n      0x04\n      add\n      tag_92\n      swap1\n      tag_93\n      jump\t// in\n    tag_92:\n      mload(0x40)\n      dup1\n      swap2\n      sub\n      swap1\n      revert\n    tag_91:\n        /* \"LmPool Ver3.0/Libraries/TickMath.sol\":1612:1625  uint256 ratio */\n      0x00\n        /* \"LmPool Ver3.0/Libraries/TickMath.sol\":1645:1646  0 */\n      dup1\n        /* \"LmPool Ver3.0/Libraries/TickMath.sol\":1638:1641  0x1 */\n      0x01\n        /* \"LmPool Ver3.0/Libraries/TickMath.sol\":1628:1635  absTick */\n      dup4\n        /* \"LmPool Ver3.0/Libraries/TickMath.sol\":1628:1641  absTick & 0x1 */\n      and\n        /* \"LmPool Ver3.0/Libraries/TickMath.sol\":1628:1646  absTick & 0x1 != 0 */\n      sub\n        /* \"LmPool Ver3.0/Libraries/TickMath.sol\":1628:1721  absTick & 0x1 != 0 ? 0xfffcb933bd6fad37aa2d162d1a594001 : 0x100000000000000000000000000000000 */\n      tag_94\n      jumpi\n        /* \"LmPool Ver3.0/Libraries/TickMath.sol\":1686:1721  0x100000000000000000000000000000000 */\n      0x0100000000000000000000000000000000\n        /* \"LmPool Ver3.0/Libraries/TickMath.sol\":1628:1721  absTick & 0x1 != 0 ? 0xfffcb933bd6fad37aa2d162d1a594001 : 0x100000000000000000000000000000000 */\n      jump(tag_95)\n    tag_94:\n        /* \"LmPool Ver3.0/Libraries/TickMath.sol\":1649:1683  0xfffcb933bd6fad37aa2d162d1a594001 */\n      0xfffcb933bd6fad37aa2d162d1a594001\n        /* \"LmPool Ver3.0/Libraries/TickMath.sol\":1628:1721  absTick & 0x1 != 0 ? 0xfffcb933bd6fad37aa2d162d1a594001 : 0x100000000000000000000000000000000 */\n    tag_95:\n        /* \"LmPool Ver3.0/Libraries/TickMath.sol\":1612:1721  uint256 ratio = absTick & 0x1 != 0 ? 0xfffcb933bd6fad37aa2d162d1a594001 : 0x100000000000000000000000000000000 */\n      0xffffffffffffffffffffffffffffffffff\n      and\n      swap1\n      pop\n        /* \"LmPool Ver3.0/Libraries/TickMath.sol\":1753:1754  0 */\n      0x00\n        /* \"LmPool Ver3.0/Libraries/TickMath.sol\":1746:1749  0x2 */\n      0x02\n        /* \"LmPool Ver3.0/Libraries/TickMath.sol\":1736:1743  absTick */\n      dup4\n        /* \"LmPool Ver3.0/Libraries/TickMath.sol\":1736:1749  absTick & 0x2 */\n      and\n        /* \"LmPool Ver3.0/Libraries/TickMath.sol\":1736:1754  absTick & 0x2 != 0 */\n      eq\n        /* \"LmPool Ver3.0/Libraries/TickMath.sol\":1732:1815  if (absTick & 0x2 != 0) ratio = (ratio * 0xfff97272373d413259a46990580e213a) >> 128 */\n      tag_96\n      jumpi\n        /* \"LmPool Ver3.0/Libraries/TickMath.sol\":1812:1815  128 */\n      0x80\n        /* \"LmPool Ver3.0/Libraries/TickMath.sol\":1773:1807  0xfff97272373d413259a46990580e213a */\n      0xfff97272373d413259a46990580e213a\n        /* \"LmPool Ver3.0/Libraries/TickMath.sol\":1765:1770  ratio */\n      dup3\n        /* \"LmPool Ver3.0/Libraries/TickMath.sol\":1765:1807  ratio * 0xfff97272373d413259a46990580e213a */\n      tag_97\n      swap2\n      swap1\n      tag_51\n      jump\t// in\n    tag_97:\n        /* \"LmPool Ver3.0/Libraries/TickMath.sol\":1764:1815  (ratio * 0xfff97272373d413259a46990580e213a) >> 128 */\n      swap1\n      shr\n        /* \"LmPool Ver3.0/Libraries/TickMath.sol\":1756:1815  ratio = (ratio * 0xfff97272373d413259a46990580e213a) >> 128 */\n      swap1\n      pop\n        /* \"LmPool Ver3.0/Libraries/TickMath.sol\":1732:1815  if (absTick & 0x2 != 0) ratio = (ratio * 0xfff97272373d413259a46990580e213a) >> 128 */\n    tag_96:\n        /* \"LmPool Ver3.0/Libraries/TickMath.sol\":1847:1848  0 */\n      0x00\n        /* \"LmPool Ver3.0/Libraries/TickMath.sol\":1840:1843  0x4 */\n      0x04\n        /* \"LmPool Ver3.0/Libraries/TickMath.sol\":1830:1837  absTick */\n      dup4\n        /* \"LmPool Ver3.0/Libraries/TickMath.sol\":1830:1843  absTick & 0x4 */\n      and\n        /* \"LmPool Ver3.0/Libraries/TickMath.sol\":1830:1848  absTick & 0x4 != 0 */\n      eq\n        /* \"LmPool Ver3.0/Libraries/TickMath.sol\":1826:1909  if (absTick & 0x4 != 0) ratio = (ratio * 0xfff2e50f5f656932ef12357cf3c7fdcc) >> 128 */\n      tag_98\n      jumpi\n        /* \"LmPool Ver3.0/Libraries/TickMath.sol\":1906:1909  128 */\n      0x80\n        /* \"LmPool Ver3.0/Libraries/TickMath.sol\":1867:1901  0xfff2e50f5f656932ef12357cf3c7fdcc */\n      0xfff2e50f5f656932ef12357cf3c7fdcc\n        /* \"LmPool Ver3.0/Libraries/TickMath.sol\":1859:1864  ratio */\n      dup3\n        /* \"LmPool Ver3.0/Libraries/TickMath.sol\":1859:1901  ratio * 0xfff2e50f5f656932ef12357cf3c7fdcc */\n      tag_99\n      swap2\n      swap1\n      tag_51\n      jump\t// in\n    tag_99:\n        /* \"LmPool Ver3.0/Libraries/TickMath.sol\":1858:1909  (ratio * 0xfff2e50f5f656932ef12357cf3c7fdcc) >> 128 */\n      swap1\n      shr\n        /* \"LmPool Ver3.0/Libraries/TickMath.sol\":1850:1909  ratio = (ratio * 0xfff2e50f5f656932ef12357cf3c7fdcc) >> 128 */\n      swap1\n      pop\n        /* \"LmPool Ver3.0/Libraries/TickMath.sol\":1826:1909  if (absTick & 0x4 != 0) ratio = (ratio * 0xfff2e50f5f656932ef12357cf3c7fdcc) >> 128 */\n    tag_98:\n        /* \"LmPool Ver3.0/Libraries/TickMath.sol\":1941:1942  0 */\n      0x00\n        /* \"LmPool Ver3.0/Libraries/TickMath.sol\":1934:1937  0x8 */\n      0x08\n        /* \"LmPool Ver3.0/Libraries/TickMath.sol\":1924:1931  absTick */\n      dup4\n        /* \"LmPool Ver3.0/Libraries/TickMath.sol\":1924:1937  absTick & 0x8 */\n      and\n        /* \"LmPool Ver3.0/Libraries/TickMath.sol\":1924:1942  absTick & 0x8 != 0 */\n      eq\n        /* \"LmPool Ver3.0/Libraries/TickMath.sol\":1920:2003  if (absTick & 0x8 != 0) ratio = (ratio * 0xffe5caca7e10e4e61c3624eaa0941cd0) >> 128 */\n      tag_100\n      jumpi\n        /* \"LmPool Ver3.0/Libraries/TickMath.sol\":2000:2003  128 */\n      0x80\n        /* \"LmPool Ver3.0/Libraries/TickMath.sol\":1961:1995  0xffe5caca7e10e4e61c3624eaa0941cd0 */\n      0xffe5caca7e10e4e61c3624eaa0941cd0\n        /* \"LmPool Ver3.0/Libraries/TickMath.sol\":1953:1958  ratio */\n      dup3\n        /* \"LmPool Ver3.0/Libraries/TickMath.sol\":1953:1995  ratio * 0xffe5caca7e10e4e61c3624eaa0941cd0 */\n      tag_101\n      swap2\n      swap1\n      tag_51\n      jump\t// in\n    tag_101:\n        /* \"LmPool Ver3.0/Libraries/TickMath.sol\":1952:2003  (ratio * 0xffe5caca7e10e4e61c3624eaa0941cd0) >> 128 */\n      swap1\n      shr\n        /* \"LmPool Ver3.0/Libraries/TickMath.sol\":1944:2003  ratio = (ratio * 0xffe5caca7e10e4e61c3624eaa0941cd0) >> 128 */\n      swap1\n      pop\n        /* \"LmPool Ver3.0/Libraries/TickMath.sol\":1920:2003  if (absTick & 0x8 != 0) ratio = (ratio * 0xffe5caca7e10e4e61c3624eaa0941cd0) >> 128 */\n    tag_100:\n        /* \"LmPool Ver3.0/Libraries/TickMath.sol\":2036:2037  0 */\n      0x00\n        /* \"LmPool Ver3.0/Libraries/TickMath.sol\":2028:2032  0x10 */\n      0x10\n        /* \"LmPool Ver3.0/Libraries/TickMath.sol\":2018:2025  absTick */\n      dup4\n        /* \"LmPool Ver3.0/Libraries/TickMath.sol\":2018:2032  absTick & 0x10 */\n      and\n        /* \"LmPool Ver3.0/Libraries/TickMath.sol\":2018:2037  absTick & 0x10 != 0 */\n      eq\n        /* \"LmPool Ver3.0/Libraries/TickMath.sol\":2014:2098  if (absTick & 0x10 != 0) ratio = (ratio * 0xffcb9843d60f6159c9db58835c926644) >> 128 */\n      tag_102\n      jumpi\n        /* \"LmPool Ver3.0/Libraries/TickMath.sol\":2095:2098  128 */\n      0x80\n        /* \"LmPool Ver3.0/Libraries/TickMath.sol\":2056:2090  0xffcb9843d60f6159c9db58835c926644 */\n      0xffcb9843d60f6159c9db58835c926644\n        /* \"LmPool Ver3.0/Libraries/TickMath.sol\":2048:2053  ratio */\n      dup3\n        /* \"LmPool Ver3.0/Libraries/TickMath.sol\":2048:2090  ratio * 0xffcb9843d60f6159c9db58835c926644 */\n      tag_103\n      swap2\n      swap1\n      tag_51\n      jump\t// in\n    tag_103:\n        /* \"LmPool Ver3.0/Libraries/TickMath.sol\":2047:2098  (ratio * 0xffcb9843d60f6159c9db58835c926644) >> 128 */\n      swap1\n      shr\n        /* \"LmPool Ver3.0/Libraries/TickMath.sol\":2039:2098  ratio = (ratio * 0xffcb9843d60f6159c9db58835c926644) >> 128 */\n      swap1\n      pop\n        /* \"LmPool Ver3.0/Libraries/TickMath.sol\":2014:2098  if (absTick & 0x10 != 0) ratio = (ratio * 0xffcb9843d60f6159c9db58835c926644) >> 128 */\n    tag_102:\n        /* \"LmPool Ver3.0/Libraries/TickMath.sol\":2131:2132  0 */\n      0x00\n        /* \"LmPool Ver3.0/Libraries/TickMath.sol\":2123:2127  0x20 */\n      0x20\n        /* \"LmPool Ver3.0/Libraries/TickMath.sol\":2113:2120  absTick */\n      dup4\n        /* \"LmPool Ver3.0/Libraries/TickMath.sol\":2113:2127  absTick & 0x20 */\n      and\n        /* \"LmPool Ver3.0/Libraries/TickMath.sol\":2113:2132  absTick & 0x20 != 0 */\n      eq\n        /* \"LmPool Ver3.0/Libraries/TickMath.sol\":2109:2193  if (absTick & 0x20 != 0) ratio = (ratio * 0xff973b41fa98c081472e6896dfb254c0) >> 128 */\n      tag_104\n      jumpi\n        /* \"LmPool Ver3.0/Libraries/TickMath.sol\":2190:2193  128 */\n      0x80\n        /* \"LmPool Ver3.0/Libraries/TickMath.sol\":2151:2185  0xff973b41fa98c081472e6896dfb254c0 */\n      0xff973b41fa98c081472e6896dfb254c0\n        /* \"LmPool Ver3.0/Libraries/TickMath.sol\":2143:2148  ratio */\n      dup3\n        /* \"LmPool Ver3.0/Libraries/TickMath.sol\":2143:2185  ratio * 0xff973b41fa98c081472e6896dfb254c0 */\n      tag_105\n      swap2\n      swap1\n      tag_51\n      jump\t// in\n    tag_105:\n        /* \"LmPool Ver3.0/Libraries/TickMath.sol\":2142:2193  (ratio * 0xff973b41fa98c081472e6896dfb254c0) >> 128 */\n      swap1\n      shr\n        /* \"LmPool Ver3.0/Libraries/TickMath.sol\":2134:2193  ratio = (ratio * 0xff973b41fa98c081472e6896dfb254c0) >> 128 */\n      swap1\n      pop\n        /* \"LmPool Ver3.0/Libraries/TickMath.sol\":2109:2193  if (absTick & 0x20 != 0) ratio = (ratio * 0xff973b41fa98c081472e6896dfb254c0) >> 128 */\n    tag_104:\n        /* \"LmPool Ver3.0/Libraries/TickMath.sol\":2226:2227  0 */\n      0x00\n        /* \"LmPool Ver3.0/Libraries/TickMath.sol\":2218:2222  0x40 */\n      0x40\n        /* \"LmPool Ver3.0/Libraries/TickMath.sol\":2208:2215  absTick */\n      dup4\n        /* \"LmPool Ver3.0/Libraries/TickMath.sol\":2208:2222  absTick & 0x40 */\n      and\n        /* \"LmPool Ver3.0/Libraries/TickMath.sol\":2208:2227  absTick & 0x40 != 0 */\n      eq\n        /* \"LmPool Ver3.0/Libraries/TickMath.sol\":2204:2288  if (absTick & 0x40 != 0) ratio = (ratio * 0xff2ea16466c96a3843ec78b326b52861) >> 128 */\n      tag_106\n      jumpi\n        /* \"LmPool Ver3.0/Libraries/TickMath.sol\":2285:2288  128 */\n      0x80\n        /* \"LmPool Ver3.0/Libraries/TickMath.sol\":2246:2280  0xff2ea16466c96a3843ec78b326b52861 */\n      0xff2ea16466c96a3843ec78b326b52861\n        /* \"LmPool Ver3.0/Libraries/TickMath.sol\":2238:2243  ratio */\n      dup3\n        /* \"LmPool Ver3.0/Libraries/TickMath.sol\":2238:2280  ratio * 0xff2ea16466c96a3843ec78b326b52861 */\n      tag_107\n      swap2\n      swap1\n      tag_51\n      jump\t// in\n    tag_107:\n        /* \"LmPool Ver3.0/Libraries/TickMath.sol\":2237:2288  (ratio * 0xff2ea16466c96a3843ec78b326b52861) >> 128 */\n      swap1\n      shr\n        /* \"LmPool Ver3.0/Libraries/TickMath.sol\":2229:2288  ratio = (ratio * 0xff2ea16466c96a3843ec78b326b52861) >> 128 */\n      swap1\n      pop\n        /* \"LmPool Ver3.0/Libraries/TickMath.sol\":2204:2288  if (absTick & 0x40 != 0) ratio = (ratio * 0xff2ea16466c96a3843ec78b326b52861) >> 128 */\n    tag_106:\n        /* \"LmPool Ver3.0/Libraries/TickMath.sol\":2321:2322  0 */\n      0x00\n        /* \"LmPool Ver3.0/Libraries/TickMath.sol\":2313:2317  0x80 */\n      0x80\n        /* \"LmPool Ver3.0/Libraries/TickMath.sol\":2303:2310  absTick */\n      dup4\n        /* \"LmPool Ver3.0/Libraries/TickMath.sol\":2303:2317  absTick & 0x80 */\n      and\n        /* \"LmPool Ver3.0/Libraries/TickMath.sol\":2303:2322  absTick & 0x80 != 0 */\n      eq\n        /* \"LmPool Ver3.0/Libraries/TickMath.sol\":2299:2383  if (absTick & 0x80 != 0) ratio = (ratio * 0xfe5dee046a99a2a811c461f1969c3053) >> 128 */\n      tag_108\n      jumpi\n        /* \"LmPool Ver3.0/Libraries/TickMath.sol\":2380:2383  128 */\n      0x80\n        /* \"LmPool Ver3.0/Libraries/TickMath.sol\":2341:2375  0xfe5dee046a99a2a811c461f1969c3053 */\n      0xfe5dee046a99a2a811c461f1969c3053\n        /* \"LmPool Ver3.0/Libraries/TickMath.sol\":2333:2338  ratio */\n      dup3\n        /* \"LmPool Ver3.0/Libraries/TickMath.sol\":2333:2375  ratio * 0xfe5dee046a99a2a811c461f1969c3053 */\n      tag_109\n      swap2\n      swap1\n      tag_51\n      jump\t// in\n    tag_109:\n        /* \"LmPool Ver3.0/Libraries/TickMath.sol\":2332:2383  (ratio * 0xfe5dee046a99a2a811c461f1969c3053) >> 128 */\n      swap1\n      shr\n        /* \"LmPool Ver3.0/Libraries/TickMath.sol\":2324:2383  ratio = (ratio * 0xfe5dee046a99a2a811c461f1969c3053) >> 128 */\n      swap1\n      pop\n        /* \"LmPool Ver3.0/Libraries/TickMath.sol\":2299:2383  if (absTick & 0x80 != 0) ratio = (ratio * 0xfe5dee046a99a2a811c461f1969c3053) >> 128 */\n    tag_108:\n        /* \"LmPool Ver3.0/Libraries/TickMath.sol\":2417:2418  0 */\n      0x00\n        /* \"LmPool Ver3.0/Libraries/TickMath.sol\":2408:2413  0x100 */\n      0x0100\n        /* \"LmPool Ver3.0/Libraries/TickMath.sol\":2398:2405  absTick */\n      dup4\n        /* \"LmPool Ver3.0/Libraries/TickMath.sol\":2398:2413  absTick & 0x100 */\n      and\n        /* \"LmPool Ver3.0/Libraries/TickMath.sol\":2398:2418  absTick & 0x100 != 0 */\n      eq\n        /* \"LmPool Ver3.0/Libraries/TickMath.sol\":2394:2479  if (absTick & 0x100 != 0) ratio = (ratio * 0xfcbe86c7900a88aedcffc83b479aa3a4) >> 128 */\n      tag_110\n      jumpi\n        /* \"LmPool Ver3.0/Libraries/TickMath.sol\":2476:2479  128 */\n      0x80\n        /* \"LmPool Ver3.0/Libraries/TickMath.sol\":2437:2471  0xfcbe86c7900a88aedcffc83b479aa3a4 */\n      0xfcbe86c7900a88aedcffc83b479aa3a4\n        /* \"LmPool Ver3.0/Libraries/TickMath.sol\":2429:2434  ratio */\n      dup3\n        /* \"LmPool Ver3.0/Libraries/TickMath.sol\":2429:2471  ratio * 0xfcbe86c7900a88aedcffc83b479aa3a4 */\n      tag_111\n      swap2\n      swap1\n      tag_51\n      jump\t// in\n    tag_111:\n        /* \"LmPool Ver3.0/Libraries/TickMath.sol\":2428:2479  (ratio * 0xfcbe86c7900a88aedcffc83b479aa3a4) >> 128 */\n      swap1\n      shr\n        /* \"LmPool Ver3.0/Libraries/TickMath.sol\":2420:2479  ratio = (ratio * 0xfcbe86c7900a88aedcffc83b479aa3a4) >> 128 */\n      swap1\n      pop\n        /* \"LmPool Ver3.0/Libraries/TickMath.sol\":2394:2479  if (absTick & 0x100 != 0) ratio = (ratio * 0xfcbe86c7900a88aedcffc83b479aa3a4) >> 128 */\n    tag_110:\n        /* \"LmPool Ver3.0/Libraries/TickMath.sol\":2513:2514  0 */\n      0x00\n        /* \"LmPool Ver3.0/Libraries/TickMath.sol\":2504:2509  0x200 */\n      0x0200\n        /* \"LmPool Ver3.0/Libraries/TickMath.sol\":2494:2501  absTick */\n      dup4\n        /* \"LmPool Ver3.0/Libraries/TickMath.sol\":2494:2509  absTick & 0x200 */\n      and\n        /* \"LmPool Ver3.0/Libraries/TickMath.sol\":2494:2514  absTick & 0x200 != 0 */\n      eq\n        /* \"LmPool Ver3.0/Libraries/TickMath.sol\":2490:2575  if (absTick & 0x200 != 0) ratio = (ratio * 0xf987a7253ac413176f2b074cf7815e54) >> 128 */\n      tag_112\n      jumpi\n        /* \"LmPool Ver3.0/Libraries/TickMath.sol\":2572:2575  128 */\n      0x80\n        /* \"LmPool Ver3.0/Libraries/TickMath.sol\":2533:2567  0xf987a7253ac413176f2b074cf7815e54 */\n      0xf987a7253ac413176f2b074cf7815e54\n        /* \"LmPool Ver3.0/Libraries/TickMath.sol\":2525:2530  ratio */\n      dup3\n        /* \"LmPool Ver3.0/Libraries/TickMath.sol\":2525:2567  ratio * 0xf987a7253ac413176f2b074cf7815e54 */\n      tag_113\n      swap2\n      swap1\n      tag_51\n      jump\t// in\n    tag_113:\n        /* \"LmPool Ver3.0/Libraries/TickMath.sol\":2524:2575  (ratio * 0xf987a7253ac413176f2b074cf7815e54) >> 128 */\n      swap1\n      shr\n        /* \"LmPool Ver3.0/Libraries/TickMath.sol\":2516:2575  ratio = (ratio * 0xf987a7253ac413176f2b074cf7815e54) >> 128 */\n      swap1\n      pop\n        /* \"LmPool Ver3.0/Libraries/TickMath.sol\":2490:2575  if (absTick & 0x200 != 0) ratio = (ratio * 0xf987a7253ac413176f2b074cf7815e54) >> 128 */\n    tag_112:\n        /* \"LmPool Ver3.0/Libraries/TickMath.sol\":2609:2610  0 */\n      0x00\n        /* \"LmPool Ver3.0/Libraries/TickMath.sol\":2600:2605  0x400 */\n      0x0400\n        /* \"LmPool Ver3.0/Libraries/TickMath.sol\":2590:2597  absTick */\n      dup4\n        /* \"LmPool Ver3.0/Libraries/TickMath.sol\":2590:2605  absTick & 0x400 */\n      and\n        /* \"LmPool Ver3.0/Libraries/TickMath.sol\":2590:2610  absTick & 0x400 != 0 */\n      eq\n        /* \"LmPool Ver3.0/Libraries/TickMath.sol\":2586:2671  if (absTick & 0x400 != 0) ratio = (ratio * 0xf3392b0822b70005940c7a398e4b70f3) >> 128 */\n      tag_114\n      jumpi\n        /* \"LmPool Ver3.0/Libraries/TickMath.sol\":2668:2671  128 */\n      0x80\n        /* \"LmPool Ver3.0/Libraries/TickMath.sol\":2629:2663  0xf3392b0822b70005940c7a398e4b70f3 */\n      0xf3392b0822b70005940c7a398e4b70f3\n        /* \"LmPool Ver3.0/Libraries/TickMath.sol\":2621:2626  ratio */\n      dup3\n        /* \"LmPool Ver3.0/Libraries/TickMath.sol\":2621:2663  ratio * 0xf3392b0822b70005940c7a398e4b70f3 */\n      tag_115\n      swap2\n      swap1\n      tag_51\n      jump\t// in\n    tag_115:\n        /* \"LmPool Ver3.0/Libraries/TickMath.sol\":2620:2671  (ratio * 0xf3392b0822b70005940c7a398e4b70f3) >> 128 */\n      swap1\n      shr\n        /* \"LmPool Ver3.0/Libraries/TickMath.sol\":2612:2671  ratio = (ratio * 0xf3392b0822b70005940c7a398e4b70f3) >> 128 */\n      swap1\n      pop\n        /* \"LmPool Ver3.0/Libraries/TickMath.sol\":2586:2671  if (absTick & 0x400 != 0) ratio = (ratio * 0xf3392b0822b70005940c7a398e4b70f3) >> 128 */\n    tag_114:\n        /* \"LmPool Ver3.0/Libraries/TickMath.sol\":2705:2706  0 */\n      0x00\n        /* \"LmPool Ver3.0/Libraries/TickMath.sol\":2696:2701  0x800 */\n      0x0800\n        /* \"LmPool Ver3.0/Libraries/TickMath.sol\":2686:2693  absTick */\n      dup4\n        /* \"LmPool Ver3.0/Libraries/TickMath.sol\":2686:2701  absTick & 0x800 */\n      and\n        /* \"LmPool Ver3.0/Libraries/TickMath.sol\":2686:2706  absTick & 0x800 != 0 */\n      eq\n        /* \"LmPool Ver3.0/Libraries/TickMath.sol\":2682:2767  if (absTick & 0x800 != 0) ratio = (ratio * 0xe7159475a2c29b7443b29c7fa6e889d9) >> 128 */\n      tag_116\n      jumpi\n        /* \"LmPool Ver3.0/Libraries/TickMath.sol\":2764:2767  128 */\n      0x80\n        /* \"LmPool Ver3.0/Libraries/TickMath.sol\":2725:2759  0xe7159475a2c29b7443b29c7fa6e889d9 */\n      0xe7159475a2c29b7443b29c7fa6e889d9\n        /* \"LmPool Ver3.0/Libraries/TickMath.sol\":2717:2722  ratio */\n      dup3\n        /* \"LmPool Ver3.0/Libraries/TickMath.sol\":2717:2759  ratio * 0xe7159475a2c29b7443b29c7fa6e889d9 */\n      tag_117\n      swap2\n      swap1\n      tag_51\n      jump\t// in\n    tag_117:\n        /* \"LmPool Ver3.0/Libraries/TickMath.sol\":2716:2767  (ratio * 0xe7159475a2c29b7443b29c7fa6e889d9) >> 128 */\n      swap1\n      shr\n        /* \"LmPool Ver3.0/Libraries/TickMath.sol\":2708:2767  ratio = (ratio * 0xe7159475a2c29b7443b29c7fa6e889d9) >> 128 */\n      swap1\n      pop\n        /* \"LmPool Ver3.0/Libraries/TickMath.sol\":2682:2767  if (absTick & 0x800 != 0) ratio = (ratio * 0xe7159475a2c29b7443b29c7fa6e889d9) >> 128 */\n    tag_116:\n        /* \"LmPool Ver3.0/Libraries/TickMath.sol\":2802:2803  0 */\n      0x00\n        /* \"LmPool Ver3.0/Libraries/TickMath.sol\":2792:2798  0x1000 */\n      0x1000\n        /* \"LmPool Ver3.0/Libraries/TickMath.sol\":2782:2789  absTick */\n      dup4\n        /* \"LmPool Ver3.0/Libraries/TickMath.sol\":2782:2798  absTick & 0x1000 */\n      and\n        /* \"LmPool Ver3.0/Libraries/TickMath.sol\":2782:2803  absTick & 0x1000 != 0 */\n      eq\n        /* \"LmPool Ver3.0/Libraries/TickMath.sol\":2778:2864  if (absTick & 0x1000 != 0) ratio = (ratio * 0xd097f3bdfd2022b8845ad8f792aa5825) >> 128 */\n      tag_118\n      jumpi\n        /* \"LmPool Ver3.0/Libraries/TickMath.sol\":2861:2864  128 */\n      0x80\n        /* \"LmPool Ver3.0/Libraries/TickMath.sol\":2822:2856  0xd097f3bdfd2022b8845ad8f792aa5825 */\n      0xd097f3bdfd2022b8845ad8f792aa5825\n        /* \"LmPool Ver3.0/Libraries/TickMath.sol\":2814:2819  ratio */\n      dup3\n        /* \"LmPool Ver3.0/Libraries/TickMath.sol\":2814:2856  ratio * 0xd097f3bdfd2022b8845ad8f792aa5825 */\n      tag_119\n      swap2\n      swap1\n      tag_51\n      jump\t// in\n    tag_119:\n        /* \"LmPool Ver3.0/Libraries/TickMath.sol\":2813:2864  (ratio * 0xd097f3bdfd2022b8845ad8f792aa5825) >> 128 */\n      swap1\n      shr\n        /* \"LmPool Ver3.0/Libraries/TickMath.sol\":2805:2864  ratio = (ratio * 0xd097f3bdfd2022b8845ad8f792aa5825) >> 128 */\n      swap1\n      pop\n        /* \"LmPool Ver3.0/Libraries/TickMath.sol\":2778:2864  if (absTick & 0x1000 != 0) ratio = (ratio * 0xd097f3bdfd2022b8845ad8f792aa5825) >> 128 */\n    tag_118:\n        /* \"LmPool Ver3.0/Libraries/TickMath.sol\":2899:2900  0 */\n      0x00\n        /* \"LmPool Ver3.0/Libraries/TickMath.sol\":2889:2895  0x2000 */\n      0x2000\n        /* \"LmPool Ver3.0/Libraries/TickMath.sol\":2879:2886  absTick */\n      dup4\n        /* \"LmPool Ver3.0/Libraries/TickMath.sol\":2879:2895  absTick & 0x2000 */\n      and\n        /* \"LmPool Ver3.0/Libraries/TickMath.sol\":2879:2900  absTick & 0x2000 != 0 */\n      eq\n        /* \"LmPool Ver3.0/Libraries/TickMath.sol\":2875:2961  if (absTick & 0x2000 != 0) ratio = (ratio * 0xa9f746462d870fdf8a65dc1f90e061e5) >> 128 */\n      tag_120\n      jumpi\n        /* \"LmPool Ver3.0/Libraries/TickMath.sol\":2958:2961  128 */\n      0x80\n        /* \"LmPool Ver3.0/Libraries/TickMath.sol\":2919:2953  0xa9f746462d870fdf8a65dc1f90e061e5 */\n      0xa9f746462d870fdf8a65dc1f90e061e5\n        /* \"LmPool Ver3.0/Libraries/TickMath.sol\":2911:2916  ratio */\n      dup3\n        /* \"LmPool Ver3.0/Libraries/TickMath.sol\":2911:2953  ratio * 0xa9f746462d870fdf8a65dc1f90e061e5 */\n      tag_121\n      swap2\n      swap1\n      tag_51\n      jump\t// in\n    tag_121:\n        /* \"LmPool Ver3.0/Libraries/TickMath.sol\":2910:2961  (ratio * 0xa9f746462d870fdf8a65dc1f90e061e5) >> 128 */\n      swap1\n      shr\n        /* \"LmPool Ver3.0/Libraries/TickMath.sol\":2902:2961  ratio = (ratio * 0xa9f746462d870fdf8a65dc1f90e061e5) >> 128 */\n      swap1\n      pop\n        /* \"LmPool Ver3.0/Libraries/TickMath.sol\":2875:2961  if (absTick & 0x2000 != 0) ratio = (ratio * 0xa9f746462d870fdf8a65dc1f90e061e5) >> 128 */\n    tag_120:\n        /* \"LmPool Ver3.0/Libraries/TickMath.sol\":2996:2997  0 */\n      0x00\n        /* \"LmPool Ver3.0/Libraries/TickMath.sol\":2986:2992  0x4000 */\n      0x4000\n        /* \"LmPool Ver3.0/Libraries/TickMath.sol\":2976:2983  absTick */\n      dup4\n        /* \"LmPool Ver3.0/Libraries/TickMath.sol\":2976:2992  absTick & 0x4000 */\n      and\n        /* \"LmPool Ver3.0/Libraries/TickMath.sol\":2976:2997  absTick & 0x4000 != 0 */\n      eq\n        /* \"LmPool Ver3.0/Libraries/TickMath.sol\":2972:3058  if (absTick & 0x4000 != 0) ratio = (ratio * 0x70d869a156d2a1b890bb3df62baf32f7) >> 128 */\n      tag_122\n      jumpi\n        /* \"LmPool Ver3.0/Libraries/TickMath.sol\":3055:3058  128 */\n      0x80\n        /* \"LmPool Ver3.0/Libraries/TickMath.sol\":3016:3050  0x70d869a156d2a1b890bb3df62baf32f7 */\n      0x70d869a156d2a1b890bb3df62baf32f7\n        /* \"LmPool Ver3.0/Libraries/TickMath.sol\":3008:3013  ratio */\n      dup3\n        /* \"LmPool Ver3.0/Libraries/TickMath.sol\":3008:3050  ratio * 0x70d869a156d2a1b890bb3df62baf32f7 */\n      tag_123\n      swap2\n      swap1\n      tag_51\n      jump\t// in\n    tag_123:\n        /* \"LmPool Ver3.0/Libraries/TickMath.sol\":3007:3058  (ratio * 0x70d869a156d2a1b890bb3df62baf32f7) >> 128 */\n      swap1\n      shr\n        /* \"LmPool Ver3.0/Libraries/TickMath.sol\":2999:3058  ratio = (ratio * 0x70d869a156d2a1b890bb3df62baf32f7) >> 128 */\n      swap1\n      pop\n        /* \"LmPool Ver3.0/Libraries/TickMath.sol\":2972:3058  if (absTick & 0x4000 != 0) ratio = (ratio * 0x70d869a156d2a1b890bb3df62baf32f7) >> 128 */\n    tag_122:\n        /* \"LmPool Ver3.0/Libraries/TickMath.sol\":3093:3094  0 */\n      0x00\n        /* \"LmPool Ver3.0/Libraries/TickMath.sol\":3083:3089  0x8000 */\n      0x8000\n        /* \"LmPool Ver3.0/Libraries/TickMath.sol\":3073:3080  absTick */\n      dup4\n        /* \"LmPool Ver3.0/Libraries/TickMath.sol\":3073:3089  absTick & 0x8000 */\n      and\n        /* \"LmPool Ver3.0/Libraries/TickMath.sol\":3073:3094  absTick & 0x8000 != 0 */\n      eq\n        /* \"LmPool Ver3.0/Libraries/TickMath.sol\":3069:3155  if (absTick & 0x8000 != 0) ratio = (ratio * 0x31be135f97d08fd981231505542fcfa6) >> 128 */\n      tag_124\n      jumpi\n        /* \"LmPool Ver3.0/Libraries/TickMath.sol\":3152:3155  128 */\n      0x80\n        /* \"LmPool Ver3.0/Libraries/TickMath.sol\":3113:3147  0x31be135f97d08fd981231505542fcfa6 */\n      0x31be135f97d08fd981231505542fcfa6\n        /* \"LmPool Ver3.0/Libraries/TickMath.sol\":3105:3110  ratio */\n      dup3\n        /* \"LmPool Ver3.0/Libraries/TickMath.sol\":3105:3147  ratio * 0x31be135f97d08fd981231505542fcfa6 */\n      tag_125\n      swap2\n      swap1\n      tag_51\n      jump\t// in\n    tag_125:\n        /* \"LmPool Ver3.0/Libraries/TickMath.sol\":3104:3155  (ratio * 0x31be135f97d08fd981231505542fcfa6) >> 128 */\n      swap1\n      shr\n        /* \"LmPool Ver3.0/Libraries/TickMath.sol\":3096:3155  ratio = (ratio * 0x31be135f97d08fd981231505542fcfa6) >> 128 */\n      swap1\n      pop\n        /* \"LmPool Ver3.0/Libraries/TickMath.sol\":3069:3155  if (absTick & 0x8000 != 0) ratio = (ratio * 0x31be135f97d08fd981231505542fcfa6) >> 128 */\n    tag_124:\n        /* \"LmPool Ver3.0/Libraries/TickMath.sol\":3191:3192  0 */\n      0x00\n        /* \"LmPool Ver3.0/Libraries/TickMath.sol\":3180:3187  0x10000 */\n      0x010000\n        /* \"LmPool Ver3.0/Libraries/TickMath.sol\":3170:3177  absTick */\n      dup4\n        /* \"LmPool Ver3.0/Libraries/TickMath.sol\":3170:3187  absTick & 0x10000 */\n      and\n        /* \"LmPool Ver3.0/Libraries/TickMath.sol\":3170:3192  absTick & 0x10000 != 0 */\n      eq\n        /* \"LmPool Ver3.0/Libraries/TickMath.sol\":3166:3252  if (absTick & 0x10000 != 0) ratio = (ratio * 0x9aa508b5b7a84e1c677de54f3e99bc9) >> 128 */\n      tag_126\n      jumpi\n        /* \"LmPool Ver3.0/Libraries/TickMath.sol\":3249:3252  128 */\n      0x80\n        /* \"LmPool Ver3.0/Libraries/TickMath.sol\":3211:3244  0x9aa508b5b7a84e1c677de54f3e99bc9 */\n      0x09aa508b5b7a84e1c677de54f3e99bc9\n        /* \"LmPool Ver3.0/Libraries/TickMath.sol\":3203:3208  ratio */\n      dup3\n        /* \"LmPool Ver3.0/Libraries/TickMath.sol\":3203:3244  ratio * 0x9aa508b5b7a84e1c677de54f3e99bc9 */\n      tag_127\n      swap2\n      swap1\n      tag_51\n      jump\t// in\n    tag_127:\n        /* \"LmPool Ver3.0/Libraries/TickMath.sol\":3202:3252  (ratio * 0x9aa508b5b7a84e1c677de54f3e99bc9) >> 128 */\n      swap1\n      shr\n        /* \"LmPool Ver3.0/Libraries/TickMath.sol\":3194:3252  ratio = (ratio * 0x9aa508b5b7a84e1c677de54f3e99bc9) >> 128 */\n      swap1\n      pop\n        /* \"LmPool Ver3.0/Libraries/TickMath.sol\":3166:3252  if (absTick & 0x10000 != 0) ratio = (ratio * 0x9aa508b5b7a84e1c677de54f3e99bc9) >> 128 */\n    tag_126:\n        /* \"LmPool Ver3.0/Libraries/TickMath.sol\":3288:3289  0 */\n      0x00\n        /* \"LmPool Ver3.0/Libraries/TickMath.sol\":3277:3284  0x20000 */\n      0x020000\n        /* \"LmPool Ver3.0/Libraries/TickMath.sol\":3267:3274  absTick */\n      dup4\n        /* \"LmPool Ver3.0/Libraries/TickMath.sol\":3267:3284  absTick & 0x20000 */\n      and\n        /* \"LmPool Ver3.0/Libraries/TickMath.sol\":3267:3289  absTick & 0x20000 != 0 */\n      eq\n        /* \"LmPool Ver3.0/Libraries/TickMath.sol\":3263:3348  if (absTick & 0x20000 != 0) ratio = (ratio * 0x5d6af8dedb81196699c329225ee604) >> 128 */\n      tag_128\n      jumpi\n        /* \"LmPool Ver3.0/Libraries/TickMath.sol\":3345:3348  128 */\n      0x80\n        /* \"LmPool Ver3.0/Libraries/TickMath.sol\":3308:3340  0x5d6af8dedb81196699c329225ee604 */\n      0x5d6af8dedb81196699c329225ee604\n        /* \"LmPool Ver3.0/Libraries/TickMath.sol\":3300:3305  ratio */\n      dup3\n        /* \"LmPool Ver3.0/Libraries/TickMath.sol\":3300:3340  ratio * 0x5d6af8dedb81196699c329225ee604 */\n      tag_129\n      swap2\n      swap1\n      tag_51\n      jump\t// in\n    tag_129:\n        /* \"LmPool Ver3.0/Libraries/TickMath.sol\":3299:3348  (ratio * 0x5d6af8dedb81196699c329225ee604) >> 128 */\n      swap1\n      shr\n        /* \"LmPool Ver3.0/Libraries/TickMath.sol\":3291:3348  ratio = (ratio * 0x5d6af8dedb81196699c329225ee604) >> 128 */\n      swap1\n      pop\n        /* \"LmPool Ver3.0/Libraries/TickMath.sol\":3263:3348  if (absTick & 0x20000 != 0) ratio = (ratio * 0x5d6af8dedb81196699c329225ee604) >> 128 */\n    tag_128:\n        /* \"LmPool Ver3.0/Libraries/TickMath.sol\":3384:3385  0 */\n      0x00\n        /* \"LmPool Ver3.0/Libraries/TickMath.sol\":3373:3380  0x40000 */\n      0x040000\n        /* \"LmPool Ver3.0/Libraries/TickMath.sol\":3363:3370  absTick */\n      dup4\n        /* \"LmPool Ver3.0/Libraries/TickMath.sol\":3363:3380  absTick & 0x40000 */\n      and\n        /* \"LmPool Ver3.0/Libraries/TickMath.sol\":3363:3385  absTick & 0x40000 != 0 */\n      eq\n        /* \"LmPool Ver3.0/Libraries/TickMath.sol\":3359:3442  if (absTick & 0x40000 != 0) ratio = (ratio * 0x2216e584f5fa1ea926041bedfe98) >> 128 */\n      tag_130\n      jumpi\n        /* \"LmPool Ver3.0/Libraries/TickMath.sol\":3439:3442  128 */\n      0x80\n        /* \"LmPool Ver3.0/Libraries/TickMath.sol\":3404:3434  0x2216e584f5fa1ea926041bedfe98 */\n      0x2216e584f5fa1ea926041bedfe98\n        /* \"LmPool Ver3.0/Libraries/TickMath.sol\":3396:3401  ratio */\n      dup3\n        /* \"LmPool Ver3.0/Libraries/TickMath.sol\":3396:3434  ratio * 0x2216e584f5fa1ea926041bedfe98 */\n      tag_131\n      swap2\n      swap1\n      tag_51\n      jump\t// in\n    tag_131:\n        /* \"LmPool Ver3.0/Libraries/TickMath.sol\":3395:3442  (ratio * 0x2216e584f5fa1ea926041bedfe98) >> 128 */\n      swap1\n      shr\n        /* \"LmPool Ver3.0/Libraries/TickMath.sol\":3387:3442  ratio = (ratio * 0x2216e584f5fa1ea926041bedfe98) >> 128 */\n      swap1\n      pop\n        /* \"LmPool Ver3.0/Libraries/TickMath.sol\":3359:3442  if (absTick & 0x40000 != 0) ratio = (ratio * 0x2216e584f5fa1ea926041bedfe98) >> 128 */\n    tag_130:\n        /* \"LmPool Ver3.0/Libraries/TickMath.sol\":3478:3479  0 */\n      0x00\n        /* \"LmPool Ver3.0/Libraries/TickMath.sol\":3467:3474  0x80000 */\n      0x080000\n        /* \"LmPool Ver3.0/Libraries/TickMath.sol\":3457:3464  absTick */\n      dup4\n        /* \"LmPool Ver3.0/Libraries/TickMath.sol\":3457:3474  absTick & 0x80000 */\n      and\n        /* \"LmPool Ver3.0/Libraries/TickMath.sol\":3457:3479  absTick & 0x80000 != 0 */\n      eq\n        /* \"LmPool Ver3.0/Libraries/TickMath.sol\":3453:3531  if (absTick & 0x80000 != 0) ratio = (ratio * 0x48a170391f7dc42444e8fa2) >> 128 */\n      tag_132\n      jumpi\n        /* \"LmPool Ver3.0/Libraries/TickMath.sol\":3528:3531  128 */\n      0x80\n        /* \"LmPool Ver3.0/Libraries/TickMath.sol\":3498:3523  0x48a170391f7dc42444e8fa2 */\n      0x048a170391f7dc42444e8fa2\n        /* \"LmPool Ver3.0/Libraries/TickMath.sol\":3490:3495  ratio */\n      dup3\n        /* \"LmPool Ver3.0/Libraries/TickMath.sol\":3490:3523  ratio * 0x48a170391f7dc42444e8fa2 */\n      tag_133\n      swap2\n      swap1\n      tag_51\n      jump\t// in\n    tag_133:\n        /* \"LmPool Ver3.0/Libraries/TickMath.sol\":3489:3531  (ratio * 0x48a170391f7dc42444e8fa2) >> 128 */\n      swap1\n      shr\n        /* \"LmPool Ver3.0/Libraries/TickMath.sol\":3481:3531  ratio = (ratio * 0x48a170391f7dc42444e8fa2) >> 128 */\n      swap1\n      pop\n        /* \"LmPool Ver3.0/Libraries/TickMath.sol\":3453:3531  if (absTick & 0x80000 != 0) ratio = (ratio * 0x48a170391f7dc42444e8fa2) >> 128 */\n    tag_132:\n        /* \"LmPool Ver3.0/Libraries/TickMath.sol\":3555:3556  0 */\n      0x00\n        /* \"LmPool Ver3.0/Libraries/TickMath.sol\":3548:3552  tick */\n      dup5\n        /* \"LmPool Ver3.0/Libraries/TickMath.sol\":3548:3556  tick > 0 */\n      0x02\n      signextend\n      sgt\n        /* \"LmPool Ver3.0/Libraries/TickMath.sol\":3544:3591  if (tick > 0) ratio = type(uint256).max / ratio */\n      iszero\n      tag_134\n      jumpi\n        /* \"LmPool Ver3.0/Libraries/TickMath.sol\":3586:3591  ratio */\n      dup1\n        /* \"LmPool Ver3.0/Libraries/TickMath.sol\":3566:3583  type(uint256).max */\n      0xffffffffffffffffffffffffffffffffffffffffffffffffffffffffffffffff\n        /* \"LmPool Ver3.0/Libraries/TickMath.sol\":3566:3591  type(uint256).max / ratio */\n      tag_135\n      swap2\n      swap1\n      tag_42\n      jump\t// in\n    tag_135:\n        /* \"LmPool Ver3.0/Libraries/TickMath.sol\":3558:3591  ratio = type(uint256).max / ratio */\n      swap1\n      pop\n        /* \"LmPool Ver3.0/Libraries/TickMath.sol\":3544:3591  if (tick > 0) ratio = type(uint256).max / ratio */\n    tag_134:\n        /* \"LmPool Ver3.0/Libraries/TickMath.sol\":3967:3968  0 */\n      0x00\n        /* \"LmPool Ver3.0/Libraries/TickMath.sol\":3955:3962  1 << 32 */\n      0x0100000000\n        /* \"LmPool Ver3.0/Libraries/TickMath.sol\":3946:3951  ratio */\n      dup3\n        /* \"LmPool Ver3.0/Libraries/TickMath.sol\":3946:3963  ratio % (1 << 32) */\n      tag_136\n      swap2\n      swap1\n      tag_137\n      jump\t// in\n    tag_136:\n        /* \"LmPool Ver3.0/Libraries/TickMath.sol\":3946:3968  ratio % (1 << 32) == 0 */\n      eq\n        /* \"LmPool Ver3.0/Libraries/TickMath.sol\":3946:3976  ratio % (1 << 32) == 0 ? 0 : 1 */\n      tag_138\n      jumpi\n        /* \"LmPool Ver3.0/Libraries/TickMath.sol\":3975:3976  1 */\n      0x01\n        /* \"LmPool Ver3.0/Libraries/TickMath.sol\":3946:3976  ratio % (1 << 32) == 0 ? 0 : 1 */\n      jump(tag_139)\n    tag_138:\n        /* \"LmPool Ver3.0/Libraries/TickMath.sol\":3971:3972  0 */\n      0x00\n        /* \"LmPool Ver3.0/Libraries/TickMath.sol\":3946:3976  ratio % (1 << 32) == 0 ? 0 : 1 */\n    tag_139:\n        /* \"LmPool Ver3.0/Libraries/TickMath.sol\":3929:3977  (ratio >> 32) + (ratio % (1 << 32) == 0 ? 0 : 1) */\n      0xff\n      and\n        /* \"LmPool Ver3.0/Libraries/TickMath.sol\":3939:3941  32 */\n      0x20\n        /* \"LmPool Ver3.0/Libraries/TickMath.sol\":3930:3935  ratio */\n      dup3\n        /* \"LmPool Ver3.0/Libraries/TickMath.sol\":3930:3941  ratio >> 32 */\n      swap1\n      shr\n        /* \"LmPool Ver3.0/Libraries/TickMath.sol\":3929:3977  (ratio >> 32) + (ratio % (1 << 32) == 0 ? 0 : 1) */\n      tag_140\n      swap2\n      swap1\n      tag_78\n      jump\t// in\n    tag_140:\n        /* \"LmPool Ver3.0/Libraries/TickMath.sol\":3906:3978  sqrtPriceX96 = uint160((ratio >> 32) + (ratio % (1 << 32) == 0 ? 0 : 1)) */\n      swap3\n      pop\n        /* \"LmPool Ver3.0/Libraries/TickMath.sol\":1462:3986  {... */\n      pop\n      pop\n        /* \"LmPool Ver3.0/Libraries/TickMath.sol\":1377:3986  function getSqrtRatioAtTick(int24 tick) internal pure returns (uint160 sqrtPriceX96) {... */\n      swap2\n      swap1\n      pop\n      jump\t// out\n        /* \"#utility.yul\":88:205   */\n    tag_142:\n        /* \"#utility.yul\":197:198   */\n      0x00\n        /* \"#utility.yul\":194:195   */\n      dup1\n        /* \"#utility.yul\":187:199   */\n      revert\n        /* \"#utility.yul\":334:460   */\n    tag_144:\n        /* \"#utility.yul\":371:378   */\n      0x00\n        /* \"#utility.yul\":411:453   */\n      0xffffffffffffffffffffffffffffffffffffffff\n        /* \"#utility.yul\":404:409   */\n      dup3\n        /* \"#utility.yul\":400:454   */\n      and\n        /* \"#utility.yul\":389:454   */\n      swap1\n      pop\n        /* \"#utility.yul\":334:460   */\n      swap2\n      swap1\n      pop\n      jump\t// out\n        /* \"#utility.yul\":466:588   */\n    tag_145:\n        /* \"#utility.yul\":539:563   */\n      tag_176\n        /* \"#utility.yul\":557:562   */\n      dup2\n        /* \"#utility.yul\":539:563   */\n      tag_144\n      jump\t// in\n    tag_176:\n        /* \"#utility.yul\":532:537   */\n      dup2\n        /* \"#utility.yul\":529:564   */\n      eq\n        /* \"#utility.yul\":519:582   */\n      tag_177\n      jumpi\n        /* \"#utility.yul\":578:579   */\n      0x00\n        /* \"#utility.yul\":575:576   */\n      dup1\n        /* \"#utility.yul\":568:580   */\n      revert\n        /* \"#utility.yul\":519:582   */\n    tag_177:\n        /* \"#utility.yul\":466:588   */\n      pop\n      jump\t// out\n        /* \"#utility.yul\":594:733   */\n    tag_146:\n        /* \"#utility.yul\":640:645   */\n      0x00\n        /* \"#utility.yul\":678:684   */\n      dup2\n        /* \"#utility.yul\":665:685   */\n      calldataload\n        /* \"#utility.yul\":656:685   */\n      swap1\n      pop\n        /* \"#utility.yul\":694:727   */\n      tag_179\n        /* \"#utility.yul\":721:726   */\n      dup2\n        /* \"#utility.yul\":694:727   */\n      tag_145\n      jump\t// in\n    tag_179:\n        /* \"#utility.yul\":594:733   */\n      swap3\n      swap2\n      pop\n      pop\n      jump\t// out\n        /* \"#utility.yul\":739:1068   */\n    tag_9:\n        /* \"#utility.yul\":798:804   */\n      0x00\n        /* \"#utility.yul\":847:849   */\n      0x20\n        /* \"#utility.yul\":835:844   */\n      dup3\n        /* \"#utility.yul\":826:833   */\n      dup5\n        /* \"#utility.yul\":822:845   */\n      sub\n        /* \"#utility.yul\":818:850   */\n      slt\n        /* \"#utility.yul\":815:934   */\n      iszero\n      tag_181\n      jumpi\n        /* \"#utility.yul\":853:932   */\n      tag_182\n      tag_142\n      jump\t// in\n    tag_182:\n        /* \"#utility.yul\":815:934   */\n    tag_181:\n        /* \"#utility.yul\":973:974   */\n      0x00\n        /* \"#utility.yul\":998:1051   */\n      tag_183\n        /* \"#utility.yul\":1043:1050   */\n      dup5\n        /* \"#utility.yul\":1034:1040   */\n      dup3\n        /* \"#utility.yul\":1023:1032   */\n      dup6\n        /* \"#utility.yul\":1019:1041   */\n      add\n        /* \"#utility.yul\":998:1051   */\n      tag_146\n      jump\t// in\n    tag_183:\n        /* \"#utility.yul\":988:1051   */\n      swap2\n      pop\n        /* \"#utility.yul\":944:1061   */\n      pop\n        /* \"#utility.yul\":739:1068   */\n      swap3\n      swap2\n      pop\n      pop\n      jump\t// out\n        /* \"#utility.yul\":1074:1164   */\n    tag_147:\n        /* \"#utility.yul\":1109:1116   */\n      0x00\n        /* \"#utility.yul\":1152:1157   */\n      dup2\n        /* \"#utility.yul\":1149:1150   */\n      0x02\n        /* \"#utility.yul\":1138:1158   */\n      signextend\n        /* \"#utility.yul\":1127:1158   */\n      swap1\n      pop\n        /* \"#utility.yul\":1074:1164   */\n      swap2\n      swap1\n      pop\n      jump\t// out\n        /* \"#utility.yul\":1170:1290   */\n    tag_148:\n        /* \"#utility.yul\":1261:1283   */\n      tag_186\n        /* \"#utility.yul\":1277:1282   */\n      dup2\n        /* \"#utility.yul\":1261:1283   */\n      tag_147\n      jump\t// in\n    tag_186:\n        /* \"#utility.yul\":1256:1259   */\n      dup3\n        /* \"#utility.yul\":1249:1284   */\n      mstore\n        /* \"#utility.yul\":1170:1290   */\n      pop\n      pop\n      jump\t// out\n        /* \"#utility.yul\":1296:1526   */\n    tag_12:\n        /* \"#utility.yul\":1393:1397   */\n      0x00\n        /* \"#utility.yul\":1431:1433   */\n      0x20\n        /* \"#utility.yul\":1420:1429   */\n      dup3\n        /* \"#utility.yul\":1416:1434   */\n      add\n        /* \"#utility.yul\":1408:1434   */\n      swap1\n      pop\n        /* \"#utility.yul\":1444:1519   */\n      tag_188\n        /* \"#utility.yul\":1516:1517   */\n      0x00\n        /* \"#utility.yul\":1505:1514   */\n      dup4\n        /* \"#utility.yul\":1501:1518   */\n      add\n        /* \"#utility.yul\":1492:1498   */\n      dup5\n        /* \"#utility.yul\":1444:1519   */\n      tag_148\n      jump\t// in\n    tag_188:\n        /* \"#utility.yul\":1296:1526   */\n      swap3\n      swap2\n      pop\n      pop\n      jump\t// out\n        /* \"#utility.yul\":1532:1609   */\n    tag_149:\n        /* \"#utility.yul\":1569:1576   */\n      0x00\n        /* \"#utility.yul\":1598:1603   */\n      dup2\n        /* \"#utility.yul\":1587:1603   */\n      swap1\n      pop\n        /* \"#utility.yul\":1532:1609   */\n      swap2\n      swap1\n      pop\n      jump\t// out\n        /* \"#utility.yul\":1615:1737   */\n    tag_150:\n        /* \"#utility.yul\":1688:1712   */\n      tag_191\n        /* \"#utility.yul\":1706:1711   */\n      dup2\n        /* \"#utility.yul\":1688:1712   */\n      tag_149\n      jump\t// in\n    tag_191:\n        /* \"#utility.yul\":1681:1686   */\n      dup2\n        /* \"#utility.yul\":1678:1713   */\n      eq\n        /* \"#utility.yul\":1668:1731   */\n      tag_192\n      jumpi\n        /* \"#utility.yul\":1727:1728   */\n      0x00\n        /* \"#utility.yul\":1724:1725   */\n      dup1\n        /* \"#utility.yul\":1717:1729   */\n      revert\n        /* \"#utility.yul\":1668:1731   */\n    tag_192:\n        /* \"#utility.yul\":1615:1737   */\n      pop\n      jump\t// out\n        /* \"#utility.yul\":1743:1882   */\n    tag_151:\n        /* \"#utility.yul\":1789:1794   */\n      0x00\n        /* \"#utility.yul\":1827:1833   */\n      dup2\n        /* \"#utility.yul\":1814:1834   */\n      calldataload\n        /* \"#utility.yul\":1805:1834   */\n      swap1\n      pop\n        /* \"#utility.yul\":1843:1876   */\n      tag_194\n        /* \"#utility.yul\":1870:1875   */\n      dup2\n        /* \"#utility.yul\":1843:1876   */\n      tag_150\n      jump\t// in\n    tag_194:\n        /* \"#utility.yul\":1743:1882   */\n      swap3\n      swap2\n      pop\n      pop\n      jump\t// out\n        /* \"#utility.yul\":1888:2217   */\n    tag_15:\n        /* \"#utility.yul\":1947:1953   */\n      0x00\n        /* \"#utility.yul\":1996:1998   */\n      0x20\n        /* \"#utility.yul\":1984:1993   */\n      dup3\n        /* \"#utility.yul\":1975:1982   */\n      dup5\n        /* \"#utility.yul\":1971:1994   */\n      sub\n        /* \"#utility.yul\":1967:1999   */\n      slt\n        /* \"#utility.yul\":1964:2083   */\n      iszero\n      tag_196\n      jumpi\n        /* \"#utility.yul\":2002:2081   */\n      tag_197\n      tag_142\n      jump\t// in\n    tag_197:\n        /* \"#utility.yul\":1964:2083   */\n    tag_196:\n        /* \"#utility.yul\":2122:2123   */\n      0x00\n        /* \"#utility.yul\":2147:2200   */\n      tag_198\n        /* \"#utility.yul\":2192:2199   */\n      dup5\n        /* \"#utility.yul\":2183:2189   */\n      dup3\n        /* \"#utility.yul\":2172:2181   */\n      dup6\n        /* \"#utility.yul\":2168:2190   */\n      add\n        /* \"#utility.yul\":2147:2200   */\n      tag_151\n      jump\t// in\n    tag_198:\n        /* \"#utility.yul\":2137:2200   */\n      swap2\n      pop\n        /* \"#utility.yul\":2093:2210   */\n      pop\n        /* \"#utility.yul\":1888:2217   */\n      swap3\n      swap2\n      pop\n      pop\n      jump\t// out\n        /* \"#utility.yul\":2223:2349   */\n    tag_152:\n        /* \"#utility.yul\":2318:2342   */\n      tag_200\n        /* \"#utility.yul\":2336:2341   */\n      dup2\n        /* \"#utility.yul\":2318:2342   */\n      tag_149\n      jump\t// in\n    tag_200:\n        /* \"#utility.yul\":2313:2316   */\n      dup3\n        /* \"#utility.yul\":2306:2343   */\n      mstore\n        /* \"#utility.yul\":2223:2349   */\n      pop\n      pop\n      jump\t// out\n        /* \"#utility.yul\":2355:2593   */\n    tag_18:\n        /* \"#utility.yul\":2456:2460   */\n      0x00\n        /* \"#utility.yul\":2494:2496   */\n      0x20\n        /* \"#utility.yul\":2483:2492   */\n      dup3\n        /* \"#utility.yul\":2479:2497   */\n      add\n        /* \"#utility.yul\":2471:2497   */\n      swap1\n      pop\n        /* \"#utility.yul\":2507:2586   */\n      tag_202\n        /* \"#utility.yul\":2583:2584   */\n      0x00\n        /* \"#utility.yul\":2572:2581   */\n      dup4\n        /* \"#utility.yul\":2568:2585   */\n      add\n        /* \"#utility.yul\":2559:2565   */\n      dup5\n        /* \"#utility.yul\":2507:2586   */\n      tag_152\n      jump\t// in\n    tag_202:\n        /* \"#utility.yul\":2355:2593   */\n      swap3\n      swap2\n      pop\n      pop\n      jump\t// out\n        /* \"#utility.yul\":2599:2717   */\n    tag_153:\n        /* \"#utility.yul\":2670:2692   */\n      tag_204\n        /* \"#utility.yul\":2686:2691   */\n      dup2\n        /* \"#utility.yul\":2670:2692   */\n      tag_147\n      jump\t// in\n    tag_204:\n        /* \"#utility.yul\":2663:2668   */\n      dup2\n        /* \"#utility.yul\":2660:2693   */\n      eq\n        /* \"#utility.yul\":2650:2711   */\n      tag_205\n      jumpi\n        /* \"#utility.yul\":2707:2708   */\n      0x00\n        /* \"#utility.yul\":2704:2705   */\n      dup1\n        /* \"#utility.yul\":2697:2709   */\n      revert\n        /* \"#utility.yul\":2650:2711   */\n    tag_205:\n        /* \"#utility.yul\":2599:2717   */\n      pop\n      jump\t// out\n        /* \"#utility.yul\":2723:2858   */\n    tag_154:\n        /* \"#utility.yul\":2767:2772   */\n      0x00\n        /* \"#utility.yul\":2805:2811   */\n      dup2\n        /* \"#utility.yul\":2792:2812   */\n      calldataload\n        /* \"#utility.yul\":2783:2812   */\n      swap1\n      pop\n        /* \"#utility.yul\":2821:2852   */\n      tag_207\n        /* \"#utility.yul\":2846:2851   */\n      dup2\n        /* \"#utility.yul\":2821:2852   */\n      tag_153\n      jump\t// in\n    tag_207:\n        /* \"#utility.yul\":2723:2858   */\n      swap3\n      swap2\n      pop\n      pop\n      jump\t// out\n        /* \"#utility.yul\":2864:3189   */\n    tag_25:\n        /* \"#utility.yul\":2921:2927   */\n      0x00\n        /* \"#utility.yul\":2970:2972   */\n      0x20\n        /* \"#utility.yul\":2958:2967   */\n      dup3\n        /* \"#utility.yul\":2949:2956   */\n      dup5\n        /* \"#utility.yul\":2945:2968   */\n      sub\n        /* \"#utility.yul\":2941:2973   */\n      slt\n        /* \"#utility.yul\":2938:3057   */\n      iszero\n      tag_209\n      jumpi\n        /* \"#utility.yul\":2976:3055   */\n      tag_210\n      tag_142\n      jump\t// in\n    tag_210:\n        /* \"#utility.yul\":2938:3057   */\n    tag_209:\n        /* \"#utility.yul\":3096:3097   */\n      0x00\n        /* \"#utility.yul\":3121:3172   */\n      tag_211\n        /* \"#utility.yul\":3164:3171   */\n      dup5\n        /* \"#utility.yul\":3155:3161   */\n      dup3\n        /* \"#utility.yul\":3144:3153   */\n      dup6\n        /* \"#utility.yul\":3140:3162   */\n      add\n        /* \"#utility.yul\":3121:3172   */\n      tag_154\n      jump\t// in\n    tag_211:\n        /* \"#utility.yul\":3111:3172   */\n      swap2\n      pop\n        /* \"#utility.yul\":3067:3182   */\n      pop\n        /* \"#utility.yul\":2864:3189   */\n      swap3\n      swap2\n      pop\n      pop\n      jump\t// out\n        /* \"#utility.yul\":3195:3321   */\n    tag_155:\n        /* \"#utility.yul\":3290:3314   */\n      tag_213\n        /* \"#utility.yul\":3308:3313   */\n      dup2\n        /* \"#utility.yul\":3290:3314   */\n      tag_144\n      jump\t// in\n    tag_213:\n        /* \"#utility.yul\":3285:3288   */\n      dup3\n        /* \"#utility.yul\":3278:3315   */\n      mstore\n        /* \"#utility.yul\":3195:3321   */\n      pop\n      pop\n      jump\t// out\n        /* \"#utility.yul\":3327:3565   */\n    tag_28:\n        /* \"#utility.yul\":3428:3432   */\n      0x00\n        /* \"#utility.yul\":3466:3468   */\n      0x20\n        /* \"#utility.yul\":3455:3464   */\n      dup3\n        /* \"#utility.yul\":3451:3469   */\n      add\n        /* \"#utility.yul\":3443:3469   */\n      swap1\n      pop\n        /* \"#utility.yul\":3479:3558   */\n      tag_215\n        /* \"#utility.yul\":3555:3556   */\n      0x00\n        /* \"#utility.yul\":3544:3553   */\n      dup4\n        /* \"#utility.yul\":3540:3557   */\n      add\n        /* \"#utility.yul\":3531:3537   */\n      dup5\n        /* \"#utility.yul\":3479:3558   */\n      tag_155\n      jump\t// in\n    tag_215:\n        /* \"#utility.yul\":3327:3565   */\n      swap3\n      swap2\n      pop\n      pop\n      jump\t// out\n        /* \"#utility.yul\":3571:3647   */\n    tag_156:\n        /* \"#utility.yul\":3607:3614   */\n      0x00\n        /* \"#utility.yul\":3636:3641   */\n      dup2\n        /* \"#utility.yul\":3625:3641   */\n      swap1\n      pop\n        /* \"#utility.yul\":3571:3647   */\n      swap2\n      swap1\n      pop\n      jump\t// out\n        /* \"#utility.yul\":3653:3773   */\n    tag_157:\n        /* \"#utility.yul\":3725:3748   */\n      tag_218\n        /* \"#utility.yul\":3742:3747   */\n      dup2\n        /* \"#utility.yul\":3725:3748   */\n      tag_156\n      jump\t// in\n    tag_218:\n        /* \"#utility.yul\":3718:3723   */\n      dup2\n        /* \"#utility.yul\":3715:3749   */\n      eq\n        /* \"#utility.yul\":3705:3767   */\n      tag_219\n      jumpi\n        /* \"#utility.yul\":3763:3764   */\n      0x00\n        /* \"#utility.yul\":3760:3761   */\n      dup1\n        /* \"#utility.yul\":3753:3765   */\n      revert\n        /* \"#utility.yul\":3705:3767   */\n    tag_219:\n        /* \"#utility.yul\":3653:3773   */\n      pop\n      jump\t// out\n        /* \"#utility.yul\":3779:3916   */\n    tag_158:\n        /* \"#utility.yul\":3824:3829   */\n      0x00\n        /* \"#utility.yul\":3862:3868   */\n      dup2\n        /* \"#utility.yul\":3849:3869   */\n      calldataload\n        /* \"#utility.yul\":3840:3869   */\n      swap1\n      pop\n        /* \"#utility.yul\":3878:3910   */\n      tag_221\n        /* \"#utility.yul\":3904:3909   */\n      dup2\n        /* \"#utility.yul\":3878:3910   */\n      tag_157\n      jump\t// in\n    tag_221:\n        /* \"#utility.yul\":3779:3916   */\n      swap3\n      swap2\n      pop\n      pop\n      jump\t// out\n        /* \"#utility.yul\":3922:4249   */\n    tag_31:\n        /* \"#utility.yul\":3980:3986   */\n      0x00\n        /* \"#utility.yul\":4029:4031   */\n      0x20\n        /* \"#utility.yul\":4017:4026   */\n      dup3\n        /* \"#utility.yul\":4008:4015   */\n      dup5\n        /* \"#utility.yul\":4004:4027   */\n      sub\n        /* \"#utility.yul\":4000:4032   */\n      slt\n        /* \"#utility.yul\":3997:4116   */\n      iszero\n      tag_223\n      jumpi\n        /* \"#utility.yul\":4035:4114   */\n      tag_224\n      tag_142\n      jump\t// in\n    tag_224:\n        /* \"#utility.yul\":3997:4116   */\n    tag_223:\n        /* \"#utility.yul\":4155:4156   */\n      0x00\n        /* \"#utility.yul\":4180:4232   */\n      tag_225\n        /* \"#utility.yul\":4224:4231   */\n      dup5\n        /* \"#utility.yul\":4215:4221   */\n      dup3\n        /* \"#utility.yul\":4204:4213   */\n      dup6\n        /* \"#utility.yul\":4200:4222   */\n      add\n        /* \"#utility.yul\":4180:4232   */\n      tag_158\n      jump\t// in\n    tag_225:\n        /* \"#utility.yul\":4170:4232   */\n      swap2\n      pop\n        /* \"#utility.yul\":4126:4242   */\n      pop\n        /* \"#utility.yul\":3922:4249   */\n      swap3\n      swap2\n      pop\n      pop\n      jump\t// out\n        /* \"#utility.yul\":4255:4435   */\n    tag_159:\n        /* \"#utility.yul\":4303:4380   */\n      0x4e487b7100000000000000000000000000000000000000000000000000000000\n        /* \"#utility.yul\":4300:4301   */\n      0x00\n        /* \"#utility.yul\":4293:4381   */\n      mstore\n        /* \"#utility.yul\":4400:4404   */\n      0x12\n        /* \"#utility.yul\":4397:4398   */\n      0x04\n        /* \"#utility.yul\":4390:4405   */\n      mstore\n        /* \"#utility.yul\":4424:4428   */\n      0x24\n        /* \"#utility.yul\":4421:4422   */\n      0x00\n        /* \"#utility.yul\":4414:4429   */\n      revert\n        /* \"#utility.yul\":4441:4621   */\n    tag_160:\n        /* \"#utility.yul\":4489:4566   */\n      0x4e487b7100000000000000000000000000000000000000000000000000000000\n        /* \"#utility.yul\":4486:4487   */\n      0x00\n        /* \"#utility.yul\":4479:4567   */\n      mstore\n        /* \"#utility.yul\":4586:4590   */\n      0x11\n        /* \"#utility.yul\":4583:4584   */\n      0x04\n        /* \"#utility.yul\":4576:4591   */\n      mstore\n        /* \"#utility.yul\":4610:4614   */\n      0x24\n        /* \"#utility.yul\":4607:4608   */\n      0x00\n        /* \"#utility.yul\":4600:4615   */\n      revert\n        /* \"#utility.yul\":4627:4812   */\n    tag_42:\n        /* \"#utility.yul\":4667:4668   */\n      0x00\n        /* \"#utility.yul\":4684:4704   */\n      tag_229\n        /* \"#utility.yul\":4702:4703   */\n      dup3\n        /* \"#utility.yul\":4684:4704   */\n      tag_149\n      jump\t// in\n    tag_229:\n        /* \"#utility.yul\":4679:4704   */\n      swap2\n      pop\n        /* \"#utility.yul\":4718:4738   */\n      tag_230\n        /* \"#utility.yul\":4736:4737   */\n      dup4\n        /* \"#utility.yul\":4718:4738   */\n      tag_149\n      jump\t// in\n    tag_230:\n        /* \"#utility.yul\":4713:4738   */\n      swap3\n      pop\n        /* \"#utility.yul\":4757:4758   */\n      dup3\n        /* \"#utility.yul\":4747:4782   */\n      tag_231\n      jumpi\n        /* \"#utility.yul\":4762:4780   */\n      tag_232\n      tag_159\n      jump\t// in\n    tag_232:\n        /* \"#utility.yul\":4747:4782   */\n    tag_231:\n        /* \"#utility.yul\":4804:4805   */\n      dup3\n        /* \"#utility.yul\":4801:4802   */\n      dup3\n        /* \"#utility.yul\":4797:4806   */\n      div\n        /* \"#utility.yul\":4792:4806   */\n      swap1\n      pop\n        /* \"#utility.yul\":4627:4812   */\n      swap3\n      swap2\n      pop\n      pop\n      jump\t// out\n        /* \"#utility.yul\":4818:4920   */\n    tag_161:\n        /* \"#utility.yul\":4860:4868   */\n      0x00\n        /* \"#utility.yul\":4907:4912   */\n      dup2\n        /* \"#utility.yul\":4904:4905   */\n      0x01\n        /* \"#utility.yul\":4900:4913   */\n      shr\n        /* \"#utility.yul\":4879:4913   */\n      swap1\n      pop\n        /* \"#utility.yul\":4818:4920   */\n      swap2\n      swap1\n      pop\n      jump\t// out\n        /* \"#utility.yul\":4926:5774   */\n    tag_162:\n        /* \"#utility.yul\":4987:4992   */\n      0x00\n        /* \"#utility.yul\":4994:4998   */\n      dup1\n        /* \"#utility.yul\":5018:5024   */\n      dup3\n        /* \"#utility.yul\":5009:5024   */\n      swap2\n      pop\n        /* \"#utility.yul\":5042:5047   */\n      dup4\n        /* \"#utility.yul\":5033:5047   */\n      swap1\n      pop\n        /* \"#utility.yul\":5056:5768   */\n    tag_235:\n        /* \"#utility.yul\":5077:5078   */\n      0x01\n        /* \"#utility.yul\":5067:5075   */\n      dup6\n        /* \"#utility.yul\":5064:5079   */\n      gt\n        /* \"#utility.yul\":5056:5768   */\n      iszero\n      tag_237\n      jumpi\n        /* \"#utility.yul\":5172:5176   */\n      dup1\n        /* \"#utility.yul\":5167:5170   */\n      dup7\n        /* \"#utility.yul\":5163:5177   */\n      div\n        /* \"#utility.yul\":5157:5161   */\n      dup2\n        /* \"#utility.yul\":5154:5178   */\n      gt\n        /* \"#utility.yul\":5151:5201   */\n      iszero\n      tag_238\n      jumpi\n        /* \"#utility.yul\":5181:5199   */\n      tag_239\n      tag_160\n      jump\t// in\n    tag_239:\n        /* \"#utility.yul\":5151:5201   */\n    tag_238:\n        /* \"#utility.yul\":5231:5232   */\n      0x01\n        /* \"#utility.yul\":5221:5229   */\n      dup6\n        /* \"#utility.yul\":5217:5233   */\n      and\n        /* \"#utility.yul\":5214:5665   */\n      iszero\n      tag_240\n      jumpi\n        /* \"#utility.yul\":5646:5650   */\n      dup1\n        /* \"#utility.yul\":5639:5644   */\n      dup3\n        /* \"#utility.yul\":5635:5651   */\n      mul\n        /* \"#utility.yul\":5626:5651   */\n      swap2\n      pop\n        /* \"#utility.yul\":5214:5665   */\n    tag_240:\n        /* \"#utility.yul\":5696:5700   */\n      dup1\n        /* \"#utility.yul\":5690:5694   */\n      dup2\n        /* \"#utility.yul\":5686:5701   */\n      mul\n        /* \"#utility.yul\":5678:5701   */\n      swap1\n      pop\n        /* \"#utility.yul\":5726:5758   */\n      tag_241\n        /* \"#utility.yul\":5749:5757   */\n      dup6\n        /* \"#utility.yul\":5726:5758   */\n      tag_161\n      jump\t// in\n    tag_241:\n        /* \"#utility.yul\":5714:5758   */\n      swap5\n      pop\n        /* \"#utility.yul\":5056:5768   */\n      jump(tag_235)\n    tag_237:\n        /* \"#utility.yul\":4926:5774   */\n      swap5\n      pop\n      swap5\n      swap3\n      pop\n      pop\n      pop\n      jump\t// out\n        /* \"#utility.yul\":5780:6853   */\n    tag_163:\n        /* \"#utility.yul\":5834:5839   */\n      0x00\n        /* \"#utility.yul\":6025:6033   */\n      dup3\n        /* \"#utility.yul\":6015:6055   */\n      tag_243\n      jumpi\n        /* \"#utility.yul\":6046:6047   */\n      0x01\n        /* \"#utility.yul\":6037:6047   */\n      swap1\n      pop\n        /* \"#utility.yul\":6048:6053   */\n      jump(tag_242)\n        /* \"#utility.yul\":6015:6055   */\n    tag_243:\n        /* \"#utility.yul\":6074:6078   */\n      dup2\n        /* \"#utility.yul\":6064:6100   */\n      tag_244\n      jumpi\n        /* \"#utility.yul\":6091:6092   */\n      0x00\n        /* \"#utility.yul\":6082:6092   */\n      swap1\n      pop\n        /* \"#utility.yul\":6093:6098   */\n      jump(tag_242)\n        /* \"#utility.yul\":6064:6100   */\n    tag_244:\n        /* \"#utility.yul\":6160:6164   */\n      dup2\n        /* \"#utility.yul\":6208:6209   */\n      0x01\n        /* \"#utility.yul\":6203:6230   */\n      dup2\n      eq\n      tag_246\n      jumpi\n        /* \"#utility.yul\":6244:6245   */\n      0x02\n        /* \"#utility.yul\":6239:6430   */\n      dup2\n      eq\n      tag_247\n      jumpi\n        /* \"#utility.yul\":6153:6430   */\n      jump(tag_245)\n        /* \"#utility.yul\":6203:6230   */\n    tag_246:\n        /* \"#utility.yul\":6221:6222   */\n      0x01\n        /* \"#utility.yul\":6212:6222   */\n      swap2\n      pop\n        /* \"#utility.yul\":6223:6228   */\n      pop\n      jump(tag_242)\n        /* \"#utility.yul\":6239:6430   */\n    tag_247:\n        /* \"#utility.yul\":6284:6287   */\n      0xff\n        /* \"#utility.yul\":6274:6282   */\n      dup5\n        /* \"#utility.yul\":6271:6288   */\n      gt\n        /* \"#utility.yul\":6268:6311   */\n      iszero\n      tag_248\n      jumpi\n        /* \"#utility.yul\":6291:6309   */\n      tag_249\n      tag_160\n      jump\t// in\n    tag_249:\n        /* \"#utility.yul\":6268:6311   */\n    tag_248:\n        /* \"#utility.yul\":6340:6348   */\n      dup4\n        /* \"#utility.yul\":6337:6338   */\n      0x02\n        /* \"#utility.yul\":6333:6349   */\n      exp\n        /* \"#utility.yul\":6324:6349   */\n      swap2\n      pop\n        /* \"#utility.yul\":6375:6378   */\n      dup5\n        /* \"#utility.yul\":6368:6373   */\n      dup3\n        /* \"#utility.yul\":6365:6379   */\n      gt\n        /* \"#utility.yul\":6362:6402   */\n      iszero\n      tag_250\n      jumpi\n        /* \"#utility.yul\":6382:6400   */\n      tag_251\n      tag_160\n      jump\t// in\n    tag_251:\n        /* \"#utility.yul\":6362:6402   */\n    tag_250:\n        /* \"#utility.yul\":6415:6420   */\n      pop\n      jump(tag_242)\n        /* \"#utility.yul\":6153:6430   */\n    tag_245:\n      pop\n        /* \"#utility.yul\":6539:6541   */\n      0x20\n        /* \"#utility.yul\":6529:6537   */\n      dup4\n        /* \"#utility.yul\":6526:6542   */\n      lt\n        /* \"#utility.yul\":6520:6523   */\n      0x0133\n        /* \"#utility.yul\":6514:6518   */\n      dup4\n        /* \"#utility.yul\":6511:6524   */\n      lt\n        /* \"#utility.yul\":6507:6543   */\n      and\n        /* \"#utility.yul\":6489:6491   */\n      0x4e\n        /* \"#utility.yul\":6479:6487   */\n      dup5\n        /* \"#utility.yul\":6476:6492   */\n      lt\n        /* \"#utility.yul\":6471:6473   */\n      0x0b\n        /* \"#utility.yul\":6465:6469   */\n      dup5\n        /* \"#utility.yul\":6462:6474   */\n      lt\n        /* \"#utility.yul\":6458:6493   */\n      and\n        /* \"#utility.yul\":6442:6553   */\n      or\n        /* \"#utility.yul\":6439:6685   */\n      iszero\n      tag_252\n      jumpi\n        /* \"#utility.yul\":6595:6603   */\n      dup3\n        /* \"#utility.yul\":6589:6593   */\n      dup3\n        /* \"#utility.yul\":6585:6604   */\n      exp\n        /* \"#utility.yul\":6576:6604   */\n      swap1\n      pop\n        /* \"#utility.yul\":6630:6633   */\n      dup4\n        /* \"#utility.yul\":6623:6628   */\n      dup2\n        /* \"#utility.yul\":6620:6634   */\n      gt\n        /* \"#utility.yul\":6617:6657   */\n      iszero\n      tag_253\n      jumpi\n        /* \"#utility.yul\":6637:6655   */\n      tag_254\n      tag_160\n      jump\t// in\n    tag_254:\n        /* \"#utility.yul\":6617:6657   */\n    tag_253:\n        /* \"#utility.yul\":6670:6675   */\n      jump(tag_242)\n        /* \"#utility.yul\":6439:6685   */\n    tag_252:\n        /* \"#utility.yul\":6710:6752   */\n      tag_255\n        /* \"#utility.yul\":6748:6751   */\n      dup5\n        /* \"#utility.yul\":6738:6746   */\n      dup5\n        /* \"#utility.yul\":6732:6736   */\n      dup5\n        /* \"#utility.yul\":6729:6730   */\n      0x01\n        /* \"#utility.yul\":6710:6752   */\n      tag_162\n      jump\t// in\n    tag_255:\n        /* \"#utility.yul\":6695:6752   */\n      swap3\n      pop\n      swap1\n      pop\n        /* \"#utility.yul\":6784:6788   */\n      dup2\n        /* \"#utility.yul\":6779:6782   */\n      dup5\n        /* \"#utility.yul\":6775:6789   */\n      div\n        /* \"#utility.yul\":6768:6773   */\n      dup2\n        /* \"#utility.yul\":6765:6790   */\n      gt\n        /* \"#utility.yul\":6762:6813   */\n      iszero\n      tag_256\n      jumpi\n        /* \"#utility.yul\":6793:6811   */\n      tag_257\n      tag_160\n      jump\t// in\n    tag_257:\n        /* \"#utility.yul\":6762:6813   */\n    tag_256:\n        /* \"#utility.yul\":6842:6846   */\n      dup2\n        /* \"#utility.yul\":6835:6840   */\n      dup2\n        /* \"#utility.yul\":6831:6847   */\n      mul\n        /* \"#utility.yul\":6822:6847   */\n      swap1\n      pop\n        /* \"#utility.yul\":5780:6853   */\n    tag_242:\n      swap4\n      swap3\n      pop\n      pop\n      pop\n      jump\t// out\n        /* \"#utility.yul\":6859:6945   */\n    tag_164:\n        /* \"#utility.yul\":6894:6901   */\n      0x00\n        /* \"#utility.yul\":6934:6938   */\n      0xff\n        /* \"#utility.yul\":6927:6932   */\n      dup3\n        /* \"#utility.yul\":6923:6939   */\n      and\n        /* \"#utility.yul\":6912:6939   */\n      swap1\n      pop\n        /* \"#utility.yul\":6859:6945   */\n      swap2\n      swap1\n      pop\n      jump\t// out\n        /* \"#utility.yul\":6951:7232   */\n    tag_44:\n        /* \"#utility.yul\":7009:7014   */\n      0x00\n        /* \"#utility.yul\":7033:7056   */\n      tag_260\n        /* \"#utility.yul\":7051:7055   */\n      dup3\n        /* \"#utility.yul\":7033:7056   */\n      tag_149\n      jump\t// in\n    tag_260:\n        /* \"#utility.yul\":7025:7056   */\n      swap2\n      pop\n        /* \"#utility.yul\":7077:7102   */\n      tag_261\n        /* \"#utility.yul\":7093:7101   */\n      dup4\n        /* \"#utility.yul\":7077:7102   */\n      tag_164\n      jump\t// in\n    tag_261:\n        /* \"#utility.yul\":7065:7102   */\n      swap3\n      pop\n        /* \"#utility.yul\":7121:7225   */\n      tag_262\n        /* \"#utility.yul\":7158:7224   */\n      0xffffffffffffffffffffffffffffffffffffffffffffffffffffffffffffffff\n        /* \"#utility.yul\":7148:7156   */\n      dup5\n        /* \"#utility.yul\":7142:7146   */\n      dup5\n        /* \"#utility.yul\":7121:7225   */\n      tag_163\n      jump\t// in\n    tag_262:\n        /* \"#utility.yul\":7112:7225   */\n      swap1\n      pop\n        /* \"#utility.yul\":6951:7232   */\n      swap3\n      swap2\n      pop\n      pop\n      jump\t// out\n        /* \"#utility.yul\":7238:7648   */\n    tag_51:\n        /* \"#utility.yul\":7278:7285   */\n      0x00\n        /* \"#utility.yul\":7301:7321   */\n      tag_264\n        /* \"#utility.yul\":7319:7320   */\n      dup3\n        /* \"#utility.yul\":7301:7321   */\n      tag_149\n      jump\t// in\n    tag_264:\n        /* \"#utility.yul\":7296:7321   */\n      swap2\n      pop\n        /* \"#utility.yul\":7335:7355   */\n      tag_265\n        /* \"#utility.yul\":7353:7354   */\n      dup4\n        /* \"#utility.yul\":7335:7355   */\n      tag_149\n      jump\t// in\n    tag_265:\n        /* \"#utility.yul\":7330:7355   */\n      swap3\n      pop\n        /* \"#utility.yul\":7390:7391   */\n      dup3\n        /* \"#utility.yul\":7387:7388   */\n      dup3\n        /* \"#utility.yul\":7383:7392   */\n      mul\n        /* \"#utility.yul\":7412:7442   */\n      tag_266\n        /* \"#utility.yul\":7430:7441   */\n      dup2\n        /* \"#utility.yul\":7412:7442   */\n      tag_149\n      jump\t// in\n    tag_266:\n        /* \"#utility.yul\":7401:7442   */\n      swap2\n      pop\n        /* \"#utility.yul\":7591:7592   */\n      dup3\n        /* \"#utility.yul\":7582:7589   */\n      dup3\n        /* \"#utility.yul\":7578:7593   */\n      div\n        /* \"#utility.yul\":7575:7576   */\n      dup5\n        /* \"#utility.yul\":7572:7594   */\n      eq\n        /* \"#utility.yul\":7552:7553   */\n      dup4\n        /* \"#utility.yul\":7545:7554   */\n      iszero\n        /* \"#utility.yul\":7525:7608   */\n      or\n        /* \"#utility.yul\":7502:7641   */\n      tag_267\n      jumpi\n        /* \"#utility.yul\":7621:7639   */\n      tag_268\n      tag_160\n      jump\t// in\n    tag_268:\n        /* \"#utility.yul\":7502:7641   */\n    tag_267:\n        /* \"#utility.yul\":7286:7648   */\n      pop\n        /* \"#utility.yul\":7238:7648   */\n      swap3\n      swap2\n      pop\n      pop\n      jump\t// out\n        /* \"#utility.yul\":7654:7823   */\n    tag_165:\n        /* \"#utility.yul\":7738:7749   */\n      0x00\n        /* \"#utility.yul\":7772:7778   */\n      dup3\n        /* \"#utility.yul\":7767:7770   */\n      dup3\n        /* \"#utility.yul\":7760:7779   */\n      mstore\n        /* \"#utility.yul\":7812:7816   */\n      0x20\n        /* \"#utility.yul\":7807:7810   */\n      dup3\n        /* \"#utility.yul\":7803:7817   */\n      add\n        /* \"#utility.yul\":7788:7817   */\n      swap1\n      pop\n        /* \"#utility.yul\":7654:7823   */\n      swap3\n      swap2\n      pop\n      pop\n      jump\t// out\n        /* \"#utility.yul\":7829:7980   */\n    tag_166:\n        /* \"#utility.yul\":7969:7972   */\n      0x5200000000000000000000000000000000000000000000000000000000000000\n        /* \"#utility.yul\":7965:7966   */\n      0x00\n        /* \"#utility.yul\":7957:7963   */\n      dup3\n        /* \"#utility.yul\":7953:7967   */\n      add\n        /* \"#utility.yul\":7946:7973   */\n      mstore\n        /* \"#utility.yul\":7829:7980   */\n      pop\n      jump\t// out\n        /* \"#utility.yul\":7986:8351   */\n    tag_167:\n        /* \"#utility.yul\":8128:8131   */\n      0x00\n        /* \"#utility.yul\":8149:8215   */\n      tag_272\n        /* \"#utility.yul\":8213:8214   */\n      0x01\n        /* \"#utility.yul\":8208:8211   */\n      dup4\n        /* \"#utility.yul\":8149:8215   */\n      tag_165\n      jump\t// in\n    tag_272:\n        /* \"#utility.yul\":8142:8215   */\n      swap2\n      pop\n        /* \"#utility.yul\":8224:8317   */\n      tag_273\n        /* \"#utility.yul\":8313:8316   */\n      dup3\n        /* \"#utility.yul\":8224:8317   */\n      tag_166\n      jump\t// in\n    tag_273:\n        /* \"#utility.yul\":8342:8344   */\n      0x20\n        /* \"#utility.yul\":8337:8340   */\n      dup3\n        /* \"#utility.yul\":8333:8345   */\n      add\n        /* \"#utility.yul\":8326:8345   */\n      swap1\n      pop\n        /* \"#utility.yul\":7986:8351   */\n      swap2\n      swap1\n      pop\n      jump\t// out\n        /* \"#utility.yul\":8357:8776   */\n    tag_56:\n        /* \"#utility.yul\":8523:8527   */\n      0x00\n        /* \"#utility.yul\":8561:8563   */\n      0x20\n        /* \"#utility.yul\":8550:8559   */\n      dup3\n        /* \"#utility.yul\":8546:8564   */\n      add\n        /* \"#utility.yul\":8538:8564   */\n      swap1\n      pop\n        /* \"#utility.yul\":8610:8619   */\n      dup2\n        /* \"#utility.yul\":8604:8608   */\n      dup2\n        /* \"#utility.yul\":8600:8620   */\n      sub\n        /* \"#utility.yul\":8596:8597   */\n      0x00\n        /* \"#utility.yul\":8585:8594   */\n      dup4\n        /* \"#utility.yul\":8581:8598   */\n      add\n        /* \"#utility.yul\":8574:8621   */\n      mstore\n        /* \"#utility.yul\":8638:8769   */\n      tag_275\n        /* \"#utility.yul\":8764:8768   */\n      dup2\n        /* \"#utility.yul\":8638:8769   */\n      tag_167\n      jump\t// in\n    tag_275:\n        /* \"#utility.yul\":8630:8769   */\n      swap1\n      pop\n        /* \"#utility.yul\":8357:8776   */\n      swap2\n      swap1\n      pop\n      jump\t// out\n        /* \"#utility.yul\":8782:8976   */\n    tag_59:\n        /* \"#utility.yul\":8822:8826   */\n      0x00\n        /* \"#utility.yul\":8842:8862   */\n      tag_277\n        /* \"#utility.yul\":8860:8861   */\n      dup3\n        /* \"#utility.yul\":8842:8862   */\n      tag_149\n      jump\t// in\n    tag_277:\n        /* \"#utility.yul\":8837:8862   */\n      swap2\n      pop\n        /* \"#utility.yul\":8876:8896   */\n      tag_278\n        /* \"#utility.yul\":8894:8895   */\n      dup4\n        /* \"#utility.yul\":8876:8896   */\n      tag_149\n      jump\t// in\n    tag_278:\n        /* \"#utility.yul\":8871:8896   */\n      swap3\n      pop\n        /* \"#utility.yul\":8920:8921   */\n      dup3\n        /* \"#utility.yul\":8917:8918   */\n      dup3\n        /* \"#utility.yul\":8913:8922   */\n      sub\n        /* \"#utility.yul\":8905:8922   */\n      swap1\n      pop\n        /* \"#utility.yul\":8944:8945   */\n      dup2\n        /* \"#utility.yul\":8938:8942   */\n      dup2\n        /* \"#utility.yul\":8935:8946   */\n      gt\n        /* \"#utility.yul\":8932:8969   */\n      iszero\n      tag_279\n      jumpi\n        /* \"#utility.yul\":8949:8967   */\n      tag_280\n      tag_160\n      jump\t// in\n    tag_280:\n        /* \"#utility.yul\":8932:8969   */\n    tag_279:\n        /* \"#utility.yul\":8782:8976   */\n      swap3\n      swap2\n      pop\n      pop\n      jump\t// out\n        /* \"#utility.yul\":8982:9354   */\n    tag_63:\n        /* \"#utility.yul\":9021:9025   */\n      0x00\n        /* \"#utility.yul\":9041:9060   */\n      tag_282\n        /* \"#utility.yul\":9058:9059   */\n      dup3\n        /* \"#utility.yul\":9041:9060   */\n      tag_156\n      jump\t// in\n    tag_282:\n        /* \"#utility.yul\":9036:9060   */\n      swap2\n      pop\n        /* \"#utility.yul\":9074:9093   */\n      tag_283\n        /* \"#utility.yul\":9091:9092   */\n      dup4\n        /* \"#utility.yul\":9074:9093   */\n      tag_156\n      jump\t// in\n    tag_283:\n        /* \"#utility.yul\":9069:9093   */\n      swap3\n      pop\n        /* \"#utility.yul\":9117:9118   */\n      dup3\n        /* \"#utility.yul\":9114:9115   */\n      dup3\n        /* \"#utility.yul\":9110:9119   */\n      sub\n        /* \"#utility.yul\":9102:9119   */\n      swap1\n      pop\n        /* \"#utility.yul\":9311:9312   */\n      dup2\n        /* \"#utility.yul\":9305:9309   */\n      dup2\n        /* \"#utility.yul\":9301:9313   */\n      slt\n        /* \"#utility.yul\":9297:9298   */\n      0x00\n        /* \"#utility.yul\":9294:9295   */\n      dup5\n        /* \"#utility.yul\":9290:9299   */\n      slt\n        /* \"#utility.yul\":9286:9314   */\n      and\n        /* \"#utility.yul\":9269:9270   */\n      dup3\n        /* \"#utility.yul\":9263:9267   */\n      dup3\n        /* \"#utility.yul\":9259:9271   */\n      sgt\n        /* \"#utility.yul\":9254:9255   */\n      0x00\n        /* \"#utility.yul\":9251:9252   */\n      dup6\n        /* \"#utility.yul\":9247:9256   */\n      slt\n        /* \"#utility.yul\":9240:9257   */\n      iszero\n        /* \"#utility.yul\":9236:9272   */\n      and\n        /* \"#utility.yul\":9220:9324   */\n      or\n        /* \"#utility.yul\":9217:9347   */\n      iszero\n      tag_284\n      jumpi\n        /* \"#utility.yul\":9327:9345   */\n      tag_285\n      tag_160\n      jump\t// in\n    tag_285:\n        /* \"#utility.yul\":9217:9347   */\n    tag_284:\n        /* \"#utility.yul\":8982:9354   */\n      swap3\n      swap2\n      pop\n      pop\n      jump\t// out\n        /* \"#utility.yul\":9360:9916   */\n    tag_65:\n        /* \"#utility.yul\":9399:9406   */\n      0x00\n        /* \"#utility.yul\":9422:9441   */\n      tag_287\n        /* \"#utility.yul\":9439:9440   */\n      dup3\n        /* \"#utility.yul\":9422:9441   */\n      tag_156\n      jump\t// in\n    tag_287:\n        /* \"#utility.yul\":9417:9441   */\n      swap2\n      pop\n        /* \"#utility.yul\":9455:9474   */\n      tag_288\n        /* \"#utility.yul\":9472:9473   */\n      dup4\n        /* \"#utility.yul\":9455:9474   */\n      tag_156\n      jump\t// in\n    tag_288:\n        /* \"#utility.yul\":9450:9474   */\n      swap3\n      pop\n        /* \"#utility.yul\":9509:9510   */\n      dup3\n        /* \"#utility.yul\":9506:9507   */\n      dup3\n        /* \"#utility.yul\":9502:9511   */\n      mul\n        /* \"#utility.yul\":9531:9560   */\n      tag_289\n        /* \"#utility.yul\":9548:9559   */\n      dup2\n        /* \"#utility.yul\":9531:9560   */\n      tag_156\n      jump\t// in\n    tag_289:\n        /* \"#utility.yul\":9520:9560   */\n      swap2\n      pop\n        /* \"#utility.yul\":9618:9684   */\n      0x8000000000000000000000000000000000000000000000000000000000000000\n        /* \"#utility.yul\":9615:9616   */\n      dup5\n        /* \"#utility.yul\":9612:9685   */\n      eq\n        /* \"#utility.yul\":9608:9609   */\n      0x00\n        /* \"#utility.yul\":9605:9606   */\n      dup5\n        /* \"#utility.yul\":9601:9610   */\n      slt\n        /* \"#utility.yul\":9597:9686   */\n      and\n        /* \"#utility.yul\":9594:9709   */\n      iszero\n      tag_290\n      jumpi\n        /* \"#utility.yul\":9689:9707   */\n      tag_291\n      tag_160\n      jump\t// in\n    tag_291:\n        /* \"#utility.yul\":9594:9709   */\n    tag_290:\n        /* \"#utility.yul\":9859:9860   */\n      dup3\n        /* \"#utility.yul\":9850:9857   */\n      dup3\n        /* \"#utility.yul\":9845:9861   */\n      sdiv\n        /* \"#utility.yul\":9842:9843   */\n      dup5\n        /* \"#utility.yul\":9839:9862   */\n      eq\n        /* \"#utility.yul\":9819:9820   */\n      dup4\n        /* \"#utility.yul\":9812:9821   */\n      iszero\n        /* \"#utility.yul\":9792:9876   */\n      or\n        /* \"#utility.yul\":9769:9909   */\n      tag_292\n      jumpi\n        /* \"#utility.yul\":9889:9907   */\n      tag_293\n      tag_160\n      jump\t// in\n    tag_293:\n        /* \"#utility.yul\":9769:9909   */\n    tag_292:\n        /* \"#utility.yul\":9407:9916   */\n      pop\n        /* \"#utility.yul\":9360:9916   */\n      swap3\n      swap2\n      pop\n      pop\n      jump\t// out\n        /* \"#utility.yul\":9922:10297   */\n    tag_68:\n        /* \"#utility.yul\":9961:9964   */\n      0x00\n        /* \"#utility.yul\":9980:9999   */\n      tag_295\n        /* \"#utility.yul\":9997:9998   */\n      dup3\n        /* \"#utility.yul\":9980:9999   */\n      tag_156\n      jump\t// in\n    tag_295:\n        /* \"#utility.yul\":9975:9999   */\n      swap2\n      pop\n        /* \"#utility.yul\":10013:10032   */\n      tag_296\n        /* \"#utility.yul\":10030:10031   */\n      dup4\n        /* \"#utility.yul\":10013:10032   */\n      tag_156\n      jump\t// in\n    tag_296:\n        /* \"#utility.yul\":10008:10032   */\n      swap3\n      pop\n        /* \"#utility.yul\":10055:10056   */\n      dup3\n        /* \"#utility.yul\":10052:10053   */\n      dup3\n        /* \"#utility.yul\":10048:10057   */\n      add\n        /* \"#utility.yul\":10041:10057   */\n      swap1\n      pop\n        /* \"#utility.yul\":10253:10254   */\n      dup3\n        /* \"#utility.yul\":10248:10251   */\n      dup2\n        /* \"#utility.yul\":10244:10255   */\n      slt\n        /* \"#utility.yul\":10237:10256   */\n      iszero\n        /* \"#utility.yul\":10233:10234   */\n      0x00\n        /* \"#utility.yul\":10230:10231   */\n      dup4\n        /* \"#utility.yul\":10226:10235   */\n      slt\n        /* \"#utility.yul\":10222:10257   */\n      and\n        /* \"#utility.yul\":10205:10206   */\n      dup4\n        /* \"#utility.yul\":10200:10203   */\n      dup3\n        /* \"#utility.yul\":10196:10207   */\n      slt\n        /* \"#utility.yul\":10191:10192   */\n      0x00\n        /* \"#utility.yul\":10188:10189   */\n      dup5\n        /* \"#utility.yul\":10184:10193   */\n      slt\n        /* \"#utility.yul\":10177:10194   */\n      iszero\n        /* \"#utility.yul\":10173:10208   */\n      and\n        /* \"#utility.yul\":10157:10267   */\n      or\n        /* \"#utility.yul\":10154:10290   */\n      iszero\n      tag_297\n      jumpi\n        /* \"#utility.yul\":10270:10288   */\n      tag_298\n      tag_160\n      jump\t// in\n    tag_298:\n        /* \"#utility.yul\":10154:10290   */\n    tag_297:\n        /* \"#utility.yul\":9922:10297   */\n      swap3\n      swap2\n      pop\n      pop\n      jump\t// out\n        /* \"#utility.yul\":10303:10494   */\n    tag_78:\n        /* \"#utility.yul\":10343:10346   */\n      0x00\n        /* \"#utility.yul\":10362:10382   */\n      tag_300\n        /* \"#utility.yul\":10380:10381   */\n      dup3\n        /* \"#utility.yul\":10362:10382   */\n      tag_149\n      jump\t// in\n    tag_300:\n        /* \"#utility.yul\":10357:10382   */\n      swap2\n      pop\n        /* \"#utility.yul\":10396:10416   */\n      tag_301\n        /* \"#utility.yul\":10414:10415   */\n      dup4\n        /* \"#utility.yul\":10396:10416   */\n      tag_149\n      jump\t// in\n    tag_301:\n        /* \"#utility.yul\":10391:10416   */\n      swap3\n      pop\n        /* \"#utility.yul\":10439:10440   */\n      dup3\n        /* \"#utility.yul\":10436:10437   */\n      dup3\n        /* \"#utility.yul\":10432:10441   */\n      add\n        /* \"#utility.yul\":10425:10441   */\n      swap1\n      pop\n        /* \"#utility.yul\":10460:10463   */\n      dup1\n        /* \"#utility.yul\":10457:10458   */\n      dup3\n        /* \"#utility.yul\":10454:10464   */\n      gt\n        /* \"#utility.yul\":10451:10487   */\n      iszero\n      tag_302\n      jumpi\n        /* \"#utility.yul\":10467:10485   */\n      tag_303\n      tag_160\n      jump\t// in\n    tag_303:\n        /* \"#utility.yul\":10451:10487   */\n    tag_302:\n        /* \"#utility.yul\":10303:10494   */\n      swap3\n      swap2\n      pop\n      pop\n      jump\t// out\n        /* \"#utility.yul\":10500:10728   */\n    tag_90:\n        /* \"#utility.yul\":10535:10538   */\n      0x00\n        /* \"#utility.yul\":10558:10581   */\n      tag_305\n        /* \"#utility.yul\":10575:10580   */\n      dup3\n        /* \"#utility.yul\":10558:10581   */\n      tag_156\n      jump\t// in\n    tag_305:\n        /* \"#utility.yul\":10549:10581   */\n      swap2\n      pop\n        /* \"#utility.yul\":10603:10669   */\n      0x8000000000000000000000000000000000000000000000000000000000000000\n        /* \"#utility.yul\":10596:10601   */\n      dup3\n        /* \"#utility.yul\":10593:10670   */\n      sub\n        /* \"#utility.yul\":10590:10693   */\n      tag_306\n      jumpi\n        /* \"#utility.yul\":10673:10691   */\n      tag_307\n      tag_160\n      jump\t// in\n    tag_307:\n        /* \"#utility.yul\":10590:10693   */\n    tag_306:\n        /* \"#utility.yul\":10716:10721   */\n      dup2\n        /* \"#utility.yul\":10713:10714   */\n      0x00\n        /* \"#utility.yul\":10709:10722   */\n      sub\n        /* \"#utility.yul\":10702:10722   */\n      swap1\n      pop\n        /* \"#utility.yul\":10500:10728   */\n      swap2\n      swap1\n      pop\n      jump\t// out\n        /* \"#utility.yul\":10734:10885   */\n    tag_168:\n        /* \"#utility.yul\":10874:10877   */\n      0x5400000000000000000000000000000000000000000000000000000000000000\n        /* \"#utility.yul\":10870:10871   */\n      0x00\n        /* \"#utility.yul\":10862:10868   */\n      dup3\n        /* \"#utility.yul\":10858:10872   */\n      add\n        /* \"#utility.yul\":10851:10878   */\n      mstore\n        /* \"#utility.yul\":10734:10885   */\n      pop\n      jump\t// out\n        /* \"#utility.yul\":10891:11256   */\n    tag_169:\n        /* \"#utility.yul\":11033:11036   */\n      0x00\n        /* \"#utility.yul\":11054:11120   */\n      tag_310\n        /* \"#utility.yul\":11118:11119   */\n      0x01\n        /* \"#utility.yul\":11113:11116   */\n      dup4\n        /* \"#utility.yul\":11054:11120   */\n      tag_165\n      jump\t// in\n    tag_310:\n        /* \"#utility.yul\":11047:11120   */\n      swap2\n      pop\n        /* \"#utility.yul\":11129:11222   */\n      tag_311\n        /* \"#utility.yul\":11218:11221   */\n      dup3\n        /* \"#utility.yul\":11129:11222   */\n      tag_168\n      jump\t// in\n    tag_311:\n        /* \"#utility.yul\":11247:11249   */\n      0x20\n        /* \"#utility.yul\":11242:11245   */\n      dup3\n        /* \"#utility.yul\":11238:11250   */\n      add\n        /* \"#utility.yul\":11231:11250   */\n      swap1\n      pop\n        /* \"#utility.yul\":10891:11256   */\n      swap2\n      swap1\n      pop\n      jump\t// out\n        /* \"#utility.yul\":11262:11681   */\n    tag_93:\n        /* \"#utility.yul\":11428:11432   */\n      0x00\n        /* \"#utility.yul\":11466:11468   */\n      0x20\n        /* \"#utility.yul\":11455:11464   */\n      dup3\n        /* \"#utility.yul\":11451:11469   */\n      add\n        /* \"#utility.yul\":11443:11469   */\n      swap1\n      pop\n        /* \"#utility.yul\":11515:11524   */\n      dup2\n        /* \"#utility.yul\":11509:11513   */\n      dup2\n        /* \"#utility.yul\":11505:11525   */\n      sub\n        /* \"#utility.yul\":11501:11502   */\n      0x00\n        /* \"#utility.yul\":11490:11499   */\n      dup4\n        /* \"#utility.yul\":11486:11503   */\n      add\n        /* \"#utility.yul\":11479:11526   */\n      mstore\n        /* \"#utility.yul\":11543:11674   */\n      tag_313\n        /* \"#utility.yul\":11669:11673   */\n      dup2\n        /* \"#utility.yul\":11543:11674   */\n      tag_169\n      jump\t// in\n    tag_313:\n        /* \"#utility.yul\":11535:11674   */\n      swap1\n      pop\n        /* \"#utility.yul\":11262:11681   */\n      swap2\n      swap1\n      pop\n      jump\t// out\n        /* \"#utility.yul\":11687:11863   */\n    tag_137:\n        /* \"#utility.yul\":11719:11720   */\n      0x00\n        /* \"#utility.yul\":11736:11756   */\n      tag_315\n        /* \"#utility.yul\":11754:11755   */\n      dup3\n        /* \"#utility.yul\":11736:11756   */\n      tag_149\n      jump\t// in\n    tag_315:\n        /* \"#utility.yul\":11731:11756   */\n      swap2\n      pop\n        /* \"#utility.yul\":11770:11790   */\n      tag_316\n        /* \"#utility.yul\":11788:11789   */\n      dup4\n        /* \"#utility.yul\":11770:11790   */\n      tag_149\n      jump\t// in\n    tag_316:\n        /* \"#utility.yul\":11765:11790   */\n      swap3\n      pop\n        /* \"#utility.yul\":11809:11810   */\n      dup3\n        /* \"#utility.yul\":11799:11834   */\n      tag_317\n      jumpi\n        /* \"#utility.yul\":11814:11832   */\n      tag_318\n      tag_159\n      jump\t// in\n    tag_318:\n        /* \"#utility.yul\":11799:11834   */\n    tag_317:\n        /* \"#utility.yul\":11855:11856   */\n      dup3\n        /* \"#utility.yul\":11852:11853   */\n      dup3\n        /* \"#utility.yul\":11848:11857   */\n      mod\n        /* \"#utility.yul\":11843:11857   */\n      swap1\n      pop\n        /* \"#utility.yul\":11687:11863   */\n      swap3\n      swap2\n      pop\n      pop\n      jump\t// out\n\n    auxdata: 0xa2646970667358221220d396a43a9d5c62dc516142a4f38aa1e2eec31e1cadcc8c76f06a28c1126c06de64736f6c63430008120033\n}\n",
				"bytecode": {
					"linkReferences": {},
					"object": "6112c4610053600b82828239805160001a607314610046577f4e487b7100000000000000000000000000000000000000000000000000000000600052600060045260246000fd5b30600052607381538281f3fe73000000000000000000000000000000000000000030146080604052600436106100615760003560e01c80630a817037146100665780639400ff9a14610096578063aa52cba7146100c6578063b35e24d2146100f6578063b3e3005114610126575b600080fd5b610080600480360381019061007b9190610b92565b610156565b60405161008d9190610bdb565b60405180910390f35b6100b060048036038101906100ab9190610c2c565b610168565b6040516100bd9190610c68565b60405180910390f35b6100e060048036038101906100db9190610b92565b61017a565b6040516100ed9190610c68565b60405180910390f35b610110600480360381019061010b9190610caf565b6101df565b60405161011d9190610ceb565b60405180910390f35b610140600480360381019061013b9190610d3c565b6101f1565b60405161014d9190610ceb565b60405180910390f35b600061016182610226565b9050919050565b600061017382610625565b9050919050565b60008060026c010000000000000000000000008473ffffffffffffffffffffffffffffffffffffffff166101ae9190610dc7565b6101b89190610f38565b905060008173ffffffffffffffffffffffffffffffffffffffff1690508092505050919050565b60006101ea8261069f565b9050919050565b6000806c0100000000000000000000000061020b84610625565b6102159190610f83565b905060008190508092505050919050565b60006401000276a373ffffffffffffffffffffffffffffffffffffffff168273ffffffffffffffffffffffffffffffffffffffff16101580156102a8575073fffd8963efd1fc6a506488495d951d5263988d2673ffffffffffffffffffffffffffffffffffffffff168273ffffffffffffffffffffffffffffffffffffffff16105b6102e7576040517f08c379a00000000000000000000000000000000000000000000000000000000081526004016102de90611022565b60405180910390fd5b600060208373ffffffffffffffffffffffffffffffffffffffff16901b9050600081905060006fffffffffffffffffffffffffffffffff821160071b808217915082811c92505067ffffffffffffffff821160061b808217915082811c92505063ffffffff821160051b808217915082811c92505061ffff821160041b808217915082811c92505060ff821160031b808217915082811c925050600f821160021b808217915082811c9250506003821160011b808217915082811c92505060018211808217915050608081106103ce57607f816103c49190611042565b83901c91506103e1565b80607f6103db9190611042565b83901b91505b600060406080836103f29190611076565b901b9050828302607f1c92508260801c80603f1b8217915083811c935050828302607f1c92508260801c80603e1b8217915083811c935050828302607f1c92508260801c80603d1b8217915083811c935050828302607f1c92508260801c80603c1b8217915083811c935050828302607f1c92508260801c80603b1b8217915083811c935050828302607f1c92508260801c80603a1b8217915083811c935050828302607f1c92508260801c8060391b8217915083811c935050828302607f1c92508260801c8060381b8217915083811c935050828302607f1c92508260801c8060371b8217915083811c935050828302607f1c92508260801c8060361b8217915083811c935050828302607f1c92508260801c8060351b8217915083811c935050828302607f1c92508260801c8060341b8217915083811c935050828302607f1c92508260801c8060331b8217915083811c935050828302607f1c92508260801c8060321b82179150506000693627a301d71055774c858261057591906110b9565b9050600060806f028f6481ab7f045a5af012a19d003aaa836105979190611076565b901d9050600060806fdb2df09e81959a81455e260799a0632f846105bb9190611131565b901d90508060020b8260020b14610615578873ffffffffffffffffffffffffffffffffffffffff166105ec8261069f565b73ffffffffffffffffffffffffffffffffffffffff16111561060e5781610610565b805b610617565b815b975050505050505050919050565b6000600382111561068c57819050600060016002846106449190610dc7565b61064e9190611175565b90505b8181101561068657809150600281828561066b9190610dc7565b6106759190611175565b61067f9190610dc7565b9050610651565b5061069a565b6000821461069957600190505b5b919050565b60008060008360020b126106b6578260020b6106c4565b8260020b6106c3906111a9565b5b9050620d89e881111561070c576040517f08c379a00000000000000000000000000000000000000000000000000000000081526004016107039061123d565b60405180910390fd5b600080600183160361072f57700100000000000000000000000000000000610741565b6ffffcb933bd6fad37aa2d162d1a5940015b70ffffffffffffffffffffffffffffffffff169050600060028316146107845760806ffff97272373d413259a46990580e213a8261077f9190610f83565b901c90505b600060048316146107b25760806ffff2e50f5f656932ef12357cf3c7fdcc826107ad9190610f83565b901c90505b600060088316146107e05760806fffe5caca7e10e4e61c3624eaa0941cd0826107db9190610f83565b901c90505b6000601083161461080e5760806fffcb9843d60f6159c9db58835c926644826108099190610f83565b901c90505b6000602083161461083c5760806fff973b41fa98c081472e6896dfb254c0826108379190610f83565b901c90505b6000604083161461086a5760806fff2ea16466c96a3843ec78b326b52861826108659190610f83565b901c90505b600060808316146108985760806ffe5dee046a99a2a811c461f1969c3053826108939190610f83565b901c90505b60006101008316146108c75760806ffcbe86c7900a88aedcffc83b479aa3a4826108c29190610f83565b901c90505b60006102008316146108f65760806ff987a7253ac413176f2b074cf7815e54826108f19190610f83565b901c90505b60006104008316146109255760806ff3392b0822b70005940c7a398e4b70f3826109209190610f83565b901c90505b60006108008316146109545760806fe7159475a2c29b7443b29c7fa6e889d98261094f9190610f83565b901c90505b60006110008316146109835760806fd097f3bdfd2022b8845ad8f792aa58258261097e9190610f83565b901c90505b60006120008316146109b25760806fa9f746462d870fdf8a65dc1f90e061e5826109ad9190610f83565b901c90505b60006140008316146109e15760806f70d869a156d2a1b890bb3df62baf32f7826109dc9190610f83565b901c90505b6000618000831614610a105760806f31be135f97d08fd981231505542fcfa682610a0b9190610f83565b901c90505b600062010000831614610a405760806f09aa508b5b7a84e1c677de54f3e99bc982610a3b9190610f83565b901c90505b600062020000831614610a6f5760806e5d6af8dedb81196699c329225ee60482610a6a9190610f83565b901c90505b600062040000831614610a9d5760806d2216e584f5fa1ea926041bedfe9882610a989190610f83565b901c90505b600062080000831614610ac95760806b048a170391f7dc42444e8fa282610ac49190610f83565b901c90505b60008460020b1315610b0457807fffffffffffffffffffffffffffffffffffffffffffffffffffffffffffffffff610b019190610dc7565b90505b600064010000000082610b17919061125d565b14610b23576001610b26565b60005b60ff16602082901c610b389190611175565b92505050919050565b600080fd5b600073ffffffffffffffffffffffffffffffffffffffff82169050919050565b610b6f81610b46565b8114610b7a57600080fd5b50565b600081359050610b8c81610b66565b92915050565b600060208284031215610ba857610ba7610b41565b5b6000610bb684828501610b7d565b91505092915050565b60008160020b9050919050565b610bd581610bbf565b82525050565b6000602082019050610bf06000830184610bcc565b92915050565b6000819050919050565b610c0981610bf6565b8114610c1457600080fd5b50565b600081359050610c2681610c00565b92915050565b600060208284031215610c4257610c41610b41565b5b6000610c5084828501610c17565b91505092915050565b610c6281610bf6565b82525050565b6000602082019050610c7d6000830184610c59565b92915050565b610c8c81610bbf565b8114610c9757600080fd5b50565b600081359050610ca981610c83565b92915050565b600060208284031215610cc557610cc4610b41565b5b6000610cd384828501610c9a565b91505092915050565b610ce581610b46565b82525050565b6000602082019050610d006000830184610cdc565b92915050565b6000819050919050565b610d1981610d06565b8114610d2457600080fd5b50565b600081359050610d3681610d10565b92915050565b600060208284031215610d5257610d51610b41565b5b6000610d6084828501610d27565b91505092915050565b7f4e487b7100000000000000000000000000000000000000000000000000000000600052601260045260246000fd5b7f4e487b7100000000000000000000000000000000000000000000000000000000600052601160045260246000fd5b6000610dd282610bf6565b9150610ddd83610bf6565b925082610ded57610dec610d69565b5b828204905092915050565b60008160011c9050919050565b6000808291508390505b6001851115610e4f57808604811115610e2b57610e2a610d98565b5b6001851615610e3a5780820291505b8081029050610e4885610df8565b9450610e0f565b94509492505050565b600082610e685760019050610f24565b81610e765760009050610f24565b8160018114610e8c5760028114610e9657610ec5565b6001915050610f24565b60ff841115610ea857610ea7610d98565b5b8360020a915084821115610ebf57610ebe610d98565b5b50610f24565b5060208310610133831016604e8410600b8410161715610efa5782820a905083811115610ef557610ef4610d98565b5b610f24565b610f078484846001610e05565b92509050818404811115610f1e57610f1d610d98565b5b81810290505b9392505050565b600060ff82169050919050565b6000610f4382610bf6565b9150610f4e83610f2b565b9250610f7b7fffffffffffffffffffffffffffffffffffffffffffffffffffffffffffffffff8484610e58565b905092915050565b6000610f8e82610bf6565b9150610f9983610bf6565b9250828202610fa781610bf6565b91508282048414831517610fbe57610fbd610d98565b5b5092915050565b600082825260208201905092915050565b7f5200000000000000000000000000000000000000000000000000000000000000600082015250565b600061100c600183610fc5565b915061101782610fd6565b602082019050919050565b6000602082019050818103600083015261103b81610fff565b9050919050565b600061104d82610bf6565b915061105883610bf6565b92508282039050818111156110705761106f610d98565b5b92915050565b600061108182610d06565b915061108c83610d06565b92508282039050818112600084121682821360008512151617156110b3576110b2610d98565b5b92915050565b60006110c482610d06565b91506110cf83610d06565b92508282026110dd81610d06565b91507f8000000000000000000000000000000000000000000000000000000000000000841460008412161561111557611114610d98565b5b828205841483151761112a57611129610d98565b5b5092915050565b600061113c82610d06565b915061114783610d06565b92508282019050828112156000831216838212600084121516171561116f5761116e610d98565b5b92915050565b600061118082610bf6565b915061118b83610bf6565b92508282019050808211156111a3576111a2610d98565b5b92915050565b60006111b482610d06565b91507f800000000000000000000000000000000000000000000000000000000000000082036111e6576111e5610d98565b5b816000039050919050565b7f5400000000000000000000000000000000000000000000000000000000000000600082015250565b6000611227600183610fc5565b9150611232826111f1565b602082019050919050565b600060208201905081810360008301526112568161121a565b9050919050565b600061126882610bf6565b915061127383610bf6565b92508261128357611282610d69565b5b82820690509291505056fea2646970667358221220d396a43a9d5c62dc516142a4f38aa1e2eec31e1cadcc8c76f06a28c1126c06de64736f6c63430008120033",
					"opcodes": "PUSH2 0x12C4 PUSH2 0x53 PUSH1 0xB DUP3 DUP3 DUP3 CODECOPY DUP1 MLOAD PUSH1 0x0 BYTE PUSH1 0x73 EQ PUSH2 0x46 JUMPI PUSH32 0x4E487B7100000000000000000000000000000000000000000000000000000000 PUSH1 0x0 MSTORE PUSH1 0x0 PUSH1 0x4 MSTORE PUSH1 0x24 PUSH1 0x0 REVERT JUMPDEST ADDRESS PUSH1 0x0 MSTORE PUSH1 0x73 DUP2 MSTORE8 DUP3 DUP2 RETURN INVALID PUSH20 0x0 ADDRESS EQ PUSH1 0x80 PUSH1 0x40 MSTORE PUSH1 0x4 CALLDATASIZE LT PUSH2 0x61 JUMPI PUSH1 0x0 CALLDATALOAD PUSH1 0xE0 SHR DUP1 PUSH4 0xA817037 EQ PUSH2 0x66 JUMPI DUP1 PUSH4 0x9400FF9A EQ PUSH2 0x96 JUMPI DUP1 PUSH4 0xAA52CBA7 EQ PUSH2 0xC6 JUMPI DUP1 PUSH4 0xB35E24D2 EQ PUSH2 0xF6 JUMPI DUP1 PUSH4 0xB3E30051 EQ PUSH2 0x126 JUMPI JUMPDEST PUSH1 0x0 DUP1 REVERT JUMPDEST PUSH2 0x80 PUSH1 0x4 DUP1 CALLDATASIZE SUB DUP2 ADD SWAP1 PUSH2 0x7B SWAP2 SWAP1 PUSH2 0xB92 JUMP JUMPDEST PUSH2 0x156 JUMP JUMPDEST PUSH1 0x40 MLOAD PUSH2 0x8D SWAP2 SWAP1 PUSH2 0xBDB JUMP JUMPDEST PUSH1 0x40 MLOAD DUP1 SWAP2 SUB SWAP1 RETURN JUMPDEST PUSH2 0xB0 PUSH1 0x4 DUP1 CALLDATASIZE SUB DUP2 ADD SWAP1 PUSH2 0xAB SWAP2 SWAP1 PUSH2 0xC2C JUMP JUMPDEST PUSH2 0x168 JUMP JUMPDEST PUSH1 0x40 MLOAD PUSH2 0xBD SWAP2 SWAP1 PUSH2 0xC68 JUMP JUMPDEST PUSH1 0x40 MLOAD DUP1 SWAP2 SUB SWAP1 RETURN JUMPDEST PUSH2 0xE0 PUSH1 0x4 DUP1 CALLDATASIZE SUB DUP2 ADD SWAP1 PUSH2 0xDB SWAP2 SWAP1 PUSH2 0xB92 JUMP JUMPDEST PUSH2 0x17A JUMP JUMPDEST PUSH1 0x40 MLOAD PUSH2 0xED SWAP2 SWAP1 PUSH2 0xC68 JUMP JUMPDEST PUSH1 0x40 MLOAD DUP1 SWAP2 SUB SWAP1 RETURN JUMPDEST PUSH2 0x110 PUSH1 0x4 DUP1 CALLDATASIZE SUB DUP2 ADD SWAP1 PUSH2 0x10B SWAP2 SWAP1 PUSH2 0xCAF JUMP JUMPDEST PUSH2 0x1DF JUMP JUMPDEST PUSH1 0x40 MLOAD PUSH2 0x11D SWAP2 SWAP1 PUSH2 0xCEB JUMP JUMPDEST PUSH1 0x40 MLOAD DUP1 SWAP2 SUB SWAP1 RETURN JUMPDEST PUSH2 0x140 PUSH1 0x4 DUP1 CALLDATASIZE SUB DUP2 ADD SWAP1 PUSH2 0x13B SWAP2 SWAP1 PUSH2 0xD3C JUMP JUMPDEST PUSH2 0x1F1 JUMP JUMPDEST PUSH1 0x40 MLOAD PUSH2 0x14D SWAP2 SWAP1 PUSH2 0xCEB JUMP JUMPDEST PUSH1 0x40 MLOAD DUP1 SWAP2 SUB SWAP1 RETURN JUMPDEST PUSH1 0x0 PUSH2 0x161 DUP3 PUSH2 0x226 JUMP JUMPDEST SWAP1 POP SWAP2 SWAP1 POP JUMP JUMPDEST PUSH1 0x0 PUSH2 0x173 DUP3 PUSH2 0x625 JUMP JUMPDEST SWAP1 POP SWAP2 SWAP1 POP JUMP JUMPDEST PUSH1 0x0 DUP1 PUSH1 0x2 PUSH13 0x1000000000000000000000000 DUP5 PUSH20 0xFFFFFFFFFFFFFFFFFFFFFFFFFFFFFFFFFFFFFFFF AND PUSH2 0x1AE SWAP2 SWAP1 PUSH2 0xDC7 JUMP JUMPDEST PUSH2 0x1B8 SWAP2 SWAP1 PUSH2 0xF38 JUMP JUMPDEST SWAP1 POP PUSH1 0x0 DUP2 PUSH20 0xFFFFFFFFFFFFFFFFFFFFFFFFFFFFFFFFFFFFFFFF AND SWAP1 POP DUP1 SWAP3 POP POP POP SWAP2 SWAP1 POP JUMP JUMPDEST PUSH1 0x0 PUSH2 0x1EA DUP3 PUSH2 0x69F JUMP JUMPDEST SWAP1 POP SWAP2 SWAP1 POP JUMP JUMPDEST PUSH1 0x0 DUP1 PUSH13 0x1000000000000000000000000 PUSH2 0x20B DUP5 PUSH2 0x625 JUMP JUMPDEST PUSH2 0x215 SWAP2 SWAP1 PUSH2 0xF83 JUMP JUMPDEST SWAP1 POP PUSH1 0x0 DUP2 SWAP1 POP DUP1 SWAP3 POP POP POP SWAP2 SWAP1 POP JUMP JUMPDEST PUSH1 0x0 PUSH5 0x1000276A3 PUSH20 0xFFFFFFFFFFFFFFFFFFFFFFFFFFFFFFFFFFFFFFFF AND DUP3 PUSH20 0xFFFFFFFFFFFFFFFFFFFFFFFFFFFFFFFFFFFFFFFF AND LT ISZERO DUP1 ISZERO PUSH2 0x2A8 JUMPI POP PUSH20 0xFFFD8963EFD1FC6A506488495D951D5263988D26 PUSH20 0xFFFFFFFFFFFFFFFFFFFFFFFFFFFFFFFFFFFFFFFF AND DUP3 PUSH20 0xFFFFFFFFFFFFFFFFFFFFFFFFFFFFFFFFFFFFFFFF AND LT JUMPDEST PUSH2 0x2E7 JUMPI PUSH1 0x40 MLOAD PUSH32 0x8C379A000000000000000000000000000000000000000000000000000000000 DUP2 MSTORE PUSH1 0x4 ADD PUSH2 0x2DE SWAP1 PUSH2 0x1022 JUMP JUMPDEST PUSH1 0x40 MLOAD DUP1 SWAP2 SUB SWAP1 REVERT JUMPDEST PUSH1 0x0 PUSH1 0x20 DUP4 PUSH20 0xFFFFFFFFFFFFFFFFFFFFFFFFFFFFFFFFFFFFFFFF AND SWAP1 SHL SWAP1 POP PUSH1 0x0 DUP2 SWAP1 POP PUSH1 0x0 PUSH16 0xFFFFFFFFFFFFFFFFFFFFFFFFFFFFFFFF DUP3 GT PUSH1 0x7 SHL DUP1 DUP3 OR SWAP2 POP DUP3 DUP2 SHR SWAP3 POP POP PUSH8 0xFFFFFFFFFFFFFFFF DUP3 GT PUSH1 0x6 SHL DUP1 DUP3 OR SWAP2 POP DUP3 DUP2 SHR SWAP3 POP POP PUSH4 0xFFFFFFFF DUP3 GT PUSH1 0x5 SHL DUP1 DUP3 OR SWAP2 POP DUP3 DUP2 SHR SWAP3 POP POP PUSH2 0xFFFF DUP3 GT PUSH1 0x4 SHL DUP1 DUP3 OR SWAP2 POP DUP3 DUP2 SHR SWAP3 POP POP PUSH1 0xFF DUP3 GT PUSH1 0x3 SHL DUP1 DUP3 OR SWAP2 POP DUP3 DUP2 SHR SWAP3 POP POP PUSH1 0xF DUP3 GT PUSH1 0x2 SHL DUP1 DUP3 OR SWAP2 POP DUP3 DUP2 SHR SWAP3 POP POP PUSH1 0x3 DUP3 GT PUSH1 0x1 SHL DUP1 DUP3 OR SWAP2 POP DUP3 DUP2 SHR SWAP3 POP POP PUSH1 0x1 DUP3 GT DUP1 DUP3 OR SWAP2 POP POP PUSH1 0x80 DUP2 LT PUSH2 0x3CE JUMPI PUSH1 0x7F DUP2 PUSH2 0x3C4 SWAP2 SWAP1 PUSH2 0x1042 JUMP JUMPDEST DUP4 SWAP1 SHR SWAP2 POP PUSH2 0x3E1 JUMP JUMPDEST DUP1 PUSH1 0x7F PUSH2 0x3DB SWAP2 SWAP1 PUSH2 0x1042 JUMP JUMPDEST DUP4 SWAP1 SHL SWAP2 POP JUMPDEST PUSH1 0x0 PUSH1 0x40 PUSH1 0x80 DUP4 PUSH2 0x3F2 SWAP2 SWAP1 PUSH2 0x1076 JUMP JUMPDEST SWAP1 SHL SWAP1 POP DUP3 DUP4 MUL PUSH1 0x7F SHR SWAP3 POP DUP3 PUSH1 0x80 SHR DUP1 PUSH1 0x3F SHL DUP3 OR SWAP2 POP DUP4 DUP2 SHR SWAP4 POP POP DUP3 DUP4 MUL PUSH1 0x7F SHR SWAP3 POP DUP3 PUSH1 0x80 SHR DUP1 PUSH1 0x3E SHL DUP3 OR SWAP2 POP DUP4 DUP2 SHR SWAP4 POP POP DUP3 DUP4 MUL PUSH1 0x7F SHR SWAP3 POP DUP3 PUSH1 0x80 SHR DUP1 PUSH1 0x3D SHL DUP3 OR SWAP2 POP DUP4 DUP2 SHR SWAP4 POP POP DUP3 DUP4 MUL PUSH1 0x7F SHR SWAP3 POP DUP3 PUSH1 0x80 SHR DUP1 PUSH1 0x3C SHL DUP3 OR SWAP2 POP DUP4 DUP2 SHR SWAP4 POP POP DUP3 DUP4 MUL PUSH1 0x7F SHR SWAP3 POP DUP3 PUSH1 0x80 SHR DUP1 PUSH1 0x3B SHL DUP3 OR SWAP2 POP DUP4 DUP2 SHR SWAP4 POP POP DUP3 DUP4 MUL PUSH1 0x7F SHR SWAP3 POP DUP3 PUSH1 0x80 SHR DUP1 PUSH1 0x3A SHL DUP3 OR SWAP2 POP DUP4 DUP2 SHR SWAP4 POP POP DUP3 DUP4 MUL PUSH1 0x7F SHR SWAP3 POP DUP3 PUSH1 0x80 SHR DUP1 PUSH1 0x39 SHL DUP3 OR SWAP2 POP DUP4 DUP2 SHR SWAP4 POP POP DUP3 DUP4 MUL PUSH1 0x7F SHR SWAP3 POP DUP3 PUSH1 0x80 SHR DUP1 PUSH1 0x38 SHL DUP3 OR SWAP2 POP DUP4 DUP2 SHR SWAP4 POP POP DUP3 DUP4 MUL PUSH1 0x7F SHR SWAP3 POP DUP3 PUSH1 0x80 SHR DUP1 PUSH1 0x37 SHL DUP3 OR SWAP2 POP DUP4 DUP2 SHR SWAP4 POP POP DUP3 DUP4 MUL PUSH1 0x7F SHR SWAP3 POP DUP3 PUSH1 0x80 SHR DUP1 PUSH1 0x36 SHL DUP3 OR SWAP2 POP DUP4 DUP2 SHR SWAP4 POP POP DUP3 DUP4 MUL PUSH1 0x7F SHR SWAP3 POP DUP3 PUSH1 0x80 SHR DUP1 PUSH1 0x35 SHL DUP3 OR SWAP2 POP DUP4 DUP2 SHR SWAP4 POP POP DUP3 DUP4 MUL PUSH1 0x7F SHR SWAP3 POP DUP3 PUSH1 0x80 SHR DUP1 PUSH1 0x34 SHL DUP3 OR SWAP2 POP DUP4 DUP2 SHR SWAP4 POP POP DUP3 DUP4 MUL PUSH1 0x7F SHR SWAP3 POP DUP3 PUSH1 0x80 SHR DUP1 PUSH1 0x33 SHL DUP3 OR SWAP2 POP DUP4 DUP2 SHR SWAP4 POP POP DUP3 DUP4 MUL PUSH1 0x7F SHR SWAP3 POP DUP3 PUSH1 0x80 SHR DUP1 PUSH1 0x32 SHL DUP3 OR SWAP2 POP POP PUSH1 0x0 PUSH10 0x3627A301D71055774C85 DUP3 PUSH2 0x575 SWAP2 SWAP1 PUSH2 0x10B9 JUMP JUMPDEST SWAP1 POP PUSH1 0x0 PUSH1 0x80 PUSH16 0x28F6481AB7F045A5AF012A19D003AAA DUP4 PUSH2 0x597 SWAP2 SWAP1 PUSH2 0x1076 JUMP JUMPDEST SWAP1 SAR SWAP1 POP PUSH1 0x0 PUSH1 0x80 PUSH16 0xDB2DF09E81959A81455E260799A0632F DUP5 PUSH2 0x5BB SWAP2 SWAP1 PUSH2 0x1131 JUMP JUMPDEST SWAP1 SAR SWAP1 POP DUP1 PUSH1 0x2 SIGNEXTEND DUP3 PUSH1 0x2 SIGNEXTEND EQ PUSH2 0x615 JUMPI DUP9 PUSH20 0xFFFFFFFFFFFFFFFFFFFFFFFFFFFFFFFFFFFFFFFF AND PUSH2 0x5EC DUP3 PUSH2 0x69F JUMP JUMPDEST PUSH20 0xFFFFFFFFFFFFFFFFFFFFFFFFFFFFFFFFFFFFFFFF AND GT ISZERO PUSH2 0x60E JUMPI DUP2 PUSH2 0x610 JUMP JUMPDEST DUP1 JUMPDEST PUSH2 0x617 JUMP JUMPDEST DUP2 JUMPDEST SWAP8 POP POP POP POP POP POP POP POP SWAP2 SWAP1 POP JUMP JUMPDEST PUSH1 0x0 PUSH1 0x3 DUP3 GT ISZERO PUSH2 0x68C JUMPI DUP2 SWAP1 POP PUSH1 0x0 PUSH1 0x1 PUSH1 0x2 DUP5 PUSH2 0x644 SWAP2 SWAP1 PUSH2 0xDC7 JUMP JUMPDEST PUSH2 0x64E SWAP2 SWAP1 PUSH2 0x1175 JUMP JUMPDEST SWAP1 POP JUMPDEST DUP2 DUP2 LT ISZERO PUSH2 0x686 JUMPI DUP1 SWAP2 POP PUSH1 0x2 DUP2 DUP3 DUP6 PUSH2 0x66B SWAP2 SWAP1 PUSH2 0xDC7 JUMP JUMPDEST PUSH2 0x675 SWAP2 SWAP1 PUSH2 0x1175 JUMP JUMPDEST PUSH2 0x67F SWAP2 SWAP1 PUSH2 0xDC7 JUMP JUMPDEST SWAP1 POP PUSH2 0x651 JUMP JUMPDEST POP PUSH2 0x69A JUMP JUMPDEST PUSH1 0x0 DUP3 EQ PUSH2 0x699 JUMPI PUSH1 0x1 SWAP1 POP JUMPDEST JUMPDEST SWAP2 SWAP1 POP JUMP JUMPDEST PUSH1 0x0 DUP1 PUSH1 0x0 DUP4 PUSH1 0x2 SIGNEXTEND SLT PUSH2 0x6B6 JUMPI DUP3 PUSH1 0x2 SIGNEXTEND PUSH2 0x6C4 JUMP JUMPDEST DUP3 PUSH1 0x2 SIGNEXTEND PUSH2 0x6C3 SWAP1 PUSH2 0x11A9 JUMP JUMPDEST JUMPDEST SWAP1 POP PUSH3 0xD89E8 DUP2 GT ISZERO PUSH2 0x70C JUMPI PUSH1 0x40 MLOAD PUSH32 0x8C379A000000000000000000000000000000000000000000000000000000000 DUP2 MSTORE PUSH1 0x4 ADD PUSH2 0x703 SWAP1 PUSH2 0x123D JUMP JUMPDEST PUSH1 0x40 MLOAD DUP1 SWAP2 SUB SWAP1 REVERT JUMPDEST PUSH1 0x0 DUP1 PUSH1 0x1 DUP4 AND SUB PUSH2 0x72F JUMPI PUSH17 0x100000000000000000000000000000000 PUSH2 0x741 JUMP JUMPDEST PUSH16 0xFFFCB933BD6FAD37AA2D162D1A594001 JUMPDEST PUSH17 0xFFFFFFFFFFFFFFFFFFFFFFFFFFFFFFFFFF AND SWAP1 POP PUSH1 0x0 PUSH1 0x2 DUP4 AND EQ PUSH2 0x784 JUMPI PUSH1 0x80 PUSH16 0xFFF97272373D413259A46990580E213A DUP3 PUSH2 0x77F SWAP2 SWAP1 PUSH2 0xF83 JUMP JUMPDEST SWAP1 SHR SWAP1 POP JUMPDEST PUSH1 0x0 PUSH1 0x4 DUP4 AND EQ PUSH2 0x7B2 JUMPI PUSH1 0x80 PUSH16 0xFFF2E50F5F656932EF12357CF3C7FDCC DUP3 PUSH2 0x7AD SWAP2 SWAP1 PUSH2 0xF83 JUMP JUMPDEST SWAP1 SHR SWAP1 POP JUMPDEST PUSH1 0x0 PUSH1 0x8 DUP4 AND EQ PUSH2 0x7E0 JUMPI PUSH1 0x80 PUSH16 0xFFE5CACA7E10E4E61C3624EAA0941CD0 DUP3 PUSH2 0x7DB SWAP2 SWAP1 PUSH2 0xF83 JUMP JUMPDEST SWAP1 SHR SWAP1 POP JUMPDEST PUSH1 0x0 PUSH1 0x10 DUP4 AND EQ PUSH2 0x80E JUMPI PUSH1 0x80 PUSH16 0xFFCB9843D60F6159C9DB58835C926644 DUP3 PUSH2 0x809 SWAP2 SWAP1 PUSH2 0xF83 JUMP JUMPDEST SWAP1 SHR SWAP1 POP JUMPDEST PUSH1 0x0 PUSH1 0x20 DUP4 AND EQ PUSH2 0x83C JUMPI PUSH1 0x80 PUSH16 0xFF973B41FA98C081472E6896DFB254C0 DUP3 PUSH2 0x837 SWAP2 SWAP1 PUSH2 0xF83 JUMP JUMPDEST SWAP1 SHR SWAP1 POP JUMPDEST PUSH1 0x0 PUSH1 0x40 DUP4 AND EQ PUSH2 0x86A JUMPI PUSH1 0x80 PUSH16 0xFF2EA16466C96A3843EC78B326B52861 DUP3 PUSH2 0x865 SWAP2 SWAP1 PUSH2 0xF83 JUMP JUMPDEST SWAP1 SHR SWAP1 POP JUMPDEST PUSH1 0x0 PUSH1 0x80 DUP4 AND EQ PUSH2 0x898 JUMPI PUSH1 0x80 PUSH16 0xFE5DEE046A99A2A811C461F1969C3053 DUP3 PUSH2 0x893 SWAP2 SWAP1 PUSH2 0xF83 JUMP JUMPDEST SWAP1 SHR SWAP1 POP JUMPDEST PUSH1 0x0 PUSH2 0x100 DUP4 AND EQ PUSH2 0x8C7 JUMPI PUSH1 0x80 PUSH16 0xFCBE86C7900A88AEDCFFC83B479AA3A4 DUP3 PUSH2 0x8C2 SWAP2 SWAP1 PUSH2 0xF83 JUMP JUMPDEST SWAP1 SHR SWAP1 POP JUMPDEST PUSH1 0x0 PUSH2 0x200 DUP4 AND EQ PUSH2 0x8F6 JUMPI PUSH1 0x80 PUSH16 0xF987A7253AC413176F2B074CF7815E54 DUP3 PUSH2 0x8F1 SWAP2 SWAP1 PUSH2 0xF83 JUMP JUMPDEST SWAP1 SHR SWAP1 POP JUMPDEST PUSH1 0x0 PUSH2 0x400 DUP4 AND EQ PUSH2 0x925 JUMPI PUSH1 0x80 PUSH16 0xF3392B0822B70005940C7A398E4B70F3 DUP3 PUSH2 0x920 SWAP2 SWAP1 PUSH2 0xF83 JUMP JUMPDEST SWAP1 SHR SWAP1 POP JUMPDEST PUSH1 0x0 PUSH2 0x800 DUP4 AND EQ PUSH2 0x954 JUMPI PUSH1 0x80 PUSH16 0xE7159475A2C29B7443B29C7FA6E889D9 DUP3 PUSH2 0x94F SWAP2 SWAP1 PUSH2 0xF83 JUMP JUMPDEST SWAP1 SHR SWAP1 POP JUMPDEST PUSH1 0x0 PUSH2 0x1000 DUP4 AND EQ PUSH2 0x983 JUMPI PUSH1 0x80 PUSH16 0xD097F3BDFD2022B8845AD8F792AA5825 DUP3 PUSH2 0x97E SWAP2 SWAP1 PUSH2 0xF83 JUMP JUMPDEST SWAP1 SHR SWAP1 POP JUMPDEST PUSH1 0x0 PUSH2 0x2000 DUP4 AND EQ PUSH2 0x9B2 JUMPI PUSH1 0x80 PUSH16 0xA9F746462D870FDF8A65DC1F90E061E5 DUP3 PUSH2 0x9AD SWAP2 SWAP1 PUSH2 0xF83 JUMP JUMPDEST SWAP1 SHR SWAP1 POP JUMPDEST PUSH1 0x0 PUSH2 0x4000 DUP4 AND EQ PUSH2 0x9E1 JUMPI PUSH1 0x80 PUSH16 0x70D869A156D2A1B890BB3DF62BAF32F7 DUP3 PUSH2 0x9DC SWAP2 SWAP1 PUSH2 0xF83 JUMP JUMPDEST SWAP1 SHR SWAP1 POP JUMPDEST PUSH1 0x0 PUSH2 0x8000 DUP4 AND EQ PUSH2 0xA10 JUMPI PUSH1 0x80 PUSH16 0x31BE135F97D08FD981231505542FCFA6 DUP3 PUSH2 0xA0B SWAP2 SWAP1 PUSH2 0xF83 JUMP JUMPDEST SWAP1 SHR SWAP1 POP JUMPDEST PUSH1 0x0 PUSH3 0x10000 DUP4 AND EQ PUSH2 0xA40 JUMPI PUSH1 0x80 PUSH16 0x9AA508B5B7A84E1C677DE54F3E99BC9 DUP3 PUSH2 0xA3B SWAP2 SWAP1 PUSH2 0xF83 JUMP JUMPDEST SWAP1 SHR SWAP1 POP JUMPDEST PUSH1 0x0 PUSH3 0x20000 DUP4 AND EQ PUSH2 0xA6F JUMPI PUSH1 0x80 PUSH15 0x5D6AF8DEDB81196699C329225EE604 DUP3 PUSH2 0xA6A SWAP2 SWAP1 PUSH2 0xF83 JUMP JUMPDEST SWAP1 SHR SWAP1 POP JUMPDEST PUSH1 0x0 PUSH3 0x40000 DUP4 AND EQ PUSH2 0xA9D JUMPI PUSH1 0x80 PUSH14 0x2216E584F5FA1EA926041BEDFE98 DUP3 PUSH2 0xA98 SWAP2 SWAP1 PUSH2 0xF83 JUMP JUMPDEST SWAP1 SHR SWAP1 POP JUMPDEST PUSH1 0x0 PUSH3 0x80000 DUP4 AND EQ PUSH2 0xAC9 JUMPI PUSH1 0x80 PUSH12 0x48A170391F7DC42444E8FA2 DUP3 PUSH2 0xAC4 SWAP2 SWAP1 PUSH2 0xF83 JUMP JUMPDEST SWAP1 SHR SWAP1 POP JUMPDEST PUSH1 0x0 DUP5 PUSH1 0x2 SIGNEXTEND SGT ISZERO PUSH2 0xB04 JUMPI DUP1 PUSH32 0xFFFFFFFFFFFFFFFFFFFFFFFFFFFFFFFFFFFFFFFFFFFFFFFFFFFFFFFFFFFFFFFF PUSH2 0xB01 SWAP2 SWAP1 PUSH2 0xDC7 JUMP JUMPDEST SWAP1 POP JUMPDEST PUSH1 0x0 PUSH5 0x100000000 DUP3 PUSH2 0xB17 SWAP2 SWAP1 PUSH2 0x125D JUMP JUMPDEST EQ PUSH2 0xB23 JUMPI PUSH1 0x1 PUSH2 0xB26 JUMP JUMPDEST PUSH1 0x0 JUMPDEST PUSH1 0xFF AND PUSH1 0x20 DUP3 SWAP1 SHR PUSH2 0xB38 SWAP2 SWAP1 PUSH2 0x1175 JUMP JUMPDEST SWAP3 POP POP POP SWAP2 SWAP1 POP JUMP JUMPDEST PUSH1 0x0 DUP1 REVERT JUMPDEST PUSH1 0x0 PUSH20 0xFFFFFFFFFFFFFFFFFFFFFFFFFFFFFFFFFFFFFFFF DUP3 AND SWAP1 POP SWAP2 SWAP1 POP JUMP JUMPDEST PUSH2 0xB6F DUP2 PUSH2 0xB46 JUMP JUMPDEST DUP2 EQ PUSH2 0xB7A JUMPI PUSH1 0x0 DUP1 REVERT JUMPDEST POP JUMP JUMPDEST PUSH1 0x0 DUP2 CALLDATALOAD SWAP1 POP PUSH2 0xB8C DUP2 PUSH2 0xB66 JUMP JUMPDEST SWAP3 SWAP2 POP POP JUMP JUMPDEST PUSH1 0x0 PUSH1 0x20 DUP3 DUP5 SUB SLT ISZERO PUSH2 0xBA8 JUMPI PUSH2 0xBA7 PUSH2 0xB41 JUMP JUMPDEST JUMPDEST PUSH1 0x0 PUSH2 0xBB6 DUP5 DUP3 DUP6 ADD PUSH2 0xB7D JUMP JUMPDEST SWAP2 POP POP SWAP3 SWAP2 POP POP JUMP JUMPDEST PUSH1 0x0 DUP2 PUSH1 0x2 SIGNEXTEND SWAP1 POP SWAP2 SWAP1 POP JUMP JUMPDEST PUSH2 0xBD5 DUP2 PUSH2 0xBBF JUMP JUMPDEST DUP3 MSTORE POP POP JUMP JUMPDEST PUSH1 0x0 PUSH1 0x20 DUP3 ADD SWAP1 POP PUSH2 0xBF0 PUSH1 0x0 DUP4 ADD DUP5 PUSH2 0xBCC JUMP JUMPDEST SWAP3 SWAP2 POP POP JUMP JUMPDEST PUSH1 0x0 DUP2 SWAP1 POP SWAP2 SWAP1 POP JUMP JUMPDEST PUSH2 0xC09 DUP2 PUSH2 0xBF6 JUMP JUMPDEST DUP2 EQ PUSH2 0xC14 JUMPI PUSH1 0x0 DUP1 REVERT JUMPDEST POP JUMP JUMPDEST PUSH1 0x0 DUP2 CALLDATALOAD SWAP1 POP PUSH2 0xC26 DUP2 PUSH2 0xC00 JUMP JUMPDEST SWAP3 SWAP2 POP POP JUMP JUMPDEST PUSH1 0x0 PUSH1 0x20 DUP3 DUP5 SUB SLT ISZERO PUSH2 0xC42 JUMPI PUSH2 0xC41 PUSH2 0xB41 JUMP JUMPDEST JUMPDEST PUSH1 0x0 PUSH2 0xC50 DUP5 DUP3 DUP6 ADD PUSH2 0xC17 JUMP JUMPDEST SWAP2 POP POP SWAP3 SWAP2 POP POP JUMP JUMPDEST PUSH2 0xC62 DUP2 PUSH2 0xBF6 JUMP JUMPDEST DUP3 MSTORE POP POP JUMP JUMPDEST PUSH1 0x0 PUSH1 0x20 DUP3 ADD SWAP1 POP PUSH2 0xC7D PUSH1 0x0 DUP4 ADD DUP5 PUSH2 0xC59 JUMP JUMPDEST SWAP3 SWAP2 POP POP JUMP JUMPDEST PUSH2 0xC8C DUP2 PUSH2 0xBBF JUMP JUMPDEST DUP2 EQ PUSH2 0xC97 JUMPI PUSH1 0x0 DUP1 REVERT JUMPDEST POP JUMP JUMPDEST PUSH1 0x0 DUP2 CALLDATALOAD SWAP1 POP PUSH2 0xCA9 DUP2 PUSH2 0xC83 JUMP JUMPDEST SWAP3 SWAP2 POP POP JUMP JUMPDEST PUSH1 0x0 PUSH1 0x20 DUP3 DUP5 SUB SLT ISZERO PUSH2 0xCC5 JUMPI PUSH2 0xCC4 PUSH2 0xB41 JUMP JUMPDEST JUMPDEST PUSH1 0x0 PUSH2 0xCD3 DUP5 DUP3 DUP6 ADD PUSH2 0xC9A JUMP JUMPDEST SWAP2 POP POP SWAP3 SWAP2 POP POP JUMP JUMPDEST PUSH2 0xCE5 DUP2 PUSH2 0xB46 JUMP JUMPDEST DUP3 MSTORE POP POP JUMP JUMPDEST PUSH1 0x0 PUSH1 0x20 DUP3 ADD SWAP1 POP PUSH2 0xD00 PUSH1 0x0 DUP4 ADD DUP5 PUSH2 0xCDC JUMP JUMPDEST SWAP3 SWAP2 POP POP JUMP JUMPDEST PUSH1 0x0 DUP2 SWAP1 POP SWAP2 SWAP1 POP JUMP JUMPDEST PUSH2 0xD19 DUP2 PUSH2 0xD06 JUMP JUMPDEST DUP2 EQ PUSH2 0xD24 JUMPI PUSH1 0x0 DUP1 REVERT JUMPDEST POP JUMP JUMPDEST PUSH1 0x0 DUP2 CALLDATALOAD SWAP1 POP PUSH2 0xD36 DUP2 PUSH2 0xD10 JUMP JUMPDEST SWAP3 SWAP2 POP POP JUMP JUMPDEST PUSH1 0x0 PUSH1 0x20 DUP3 DUP5 SUB SLT ISZERO PUSH2 0xD52 JUMPI PUSH2 0xD51 PUSH2 0xB41 JUMP JUMPDEST JUMPDEST PUSH1 0x0 PUSH2 0xD60 DUP5 DUP3 DUP6 ADD PUSH2 0xD27 JUMP JUMPDEST SWAP2 POP POP SWAP3 SWAP2 POP POP JUMP JUMPDEST PUSH32 0x4E487B7100000000000000000000000000000000000000000000000000000000 PUSH1 0x0 MSTORE PUSH1 0x12 PUSH1 0x4 MSTORE PUSH1 0x24 PUSH1 0x0 REVERT JUMPDEST PUSH32 0x4E487B7100000000000000000000000000000000000000000000000000000000 PUSH1 0x0 MSTORE PUSH1 0x11 PUSH1 0x4 MSTORE PUSH1 0x24 PUSH1 0x0 REVERT JUMPDEST PUSH1 0x0 PUSH2 0xDD2 DUP3 PUSH2 0xBF6 JUMP JUMPDEST SWAP2 POP PUSH2 0xDDD DUP4 PUSH2 0xBF6 JUMP JUMPDEST SWAP3 POP DUP3 PUSH2 0xDED JUMPI PUSH2 0xDEC PUSH2 0xD69 JUMP JUMPDEST JUMPDEST DUP3 DUP3 DIV SWAP1 POP SWAP3 SWAP2 POP POP JUMP JUMPDEST PUSH1 0x0 DUP2 PUSH1 0x1 SHR SWAP1 POP SWAP2 SWAP1 POP JUMP JUMPDEST PUSH1 0x0 DUP1 DUP3 SWAP2 POP DUP4 SWAP1 POP JUMPDEST PUSH1 0x1 DUP6 GT ISZERO PUSH2 0xE4F JUMPI DUP1 DUP7 DIV DUP2 GT ISZERO PUSH2 0xE2B JUMPI PUSH2 0xE2A PUSH2 0xD98 JUMP JUMPDEST JUMPDEST PUSH1 0x1 DUP6 AND ISZERO PUSH2 0xE3A JUMPI DUP1 DUP3 MUL SWAP2 POP JUMPDEST DUP1 DUP2 MUL SWAP1 POP PUSH2 0xE48 DUP6 PUSH2 0xDF8 JUMP JUMPDEST SWAP5 POP PUSH2 0xE0F JUMP JUMPDEST SWAP5 POP SWAP5 SWAP3 POP POP POP JUMP JUMPDEST PUSH1 0x0 DUP3 PUSH2 0xE68 JUMPI PUSH1 0x1 SWAP1 POP PUSH2 0xF24 JUMP JUMPDEST DUP2 PUSH2 0xE76 JUMPI PUSH1 0x0 SWAP1 POP PUSH2 0xF24 JUMP JUMPDEST DUP2 PUSH1 0x1 DUP2 EQ PUSH2 0xE8C JUMPI PUSH1 0x2 DUP2 EQ PUSH2 0xE96 JUMPI PUSH2 0xEC5 JUMP JUMPDEST PUSH1 0x1 SWAP2 POP POP PUSH2 0xF24 JUMP JUMPDEST PUSH1 0xFF DUP5 GT ISZERO PUSH2 0xEA8 JUMPI PUSH2 0xEA7 PUSH2 0xD98 JUMP JUMPDEST JUMPDEST DUP4 PUSH1 0x2 EXP SWAP2 POP DUP5 DUP3 GT ISZERO PUSH2 0xEBF JUMPI PUSH2 0xEBE PUSH2 0xD98 JUMP JUMPDEST JUMPDEST POP PUSH2 0xF24 JUMP JUMPDEST POP PUSH1 0x20 DUP4 LT PUSH2 0x133 DUP4 LT AND PUSH1 0x4E DUP5 LT PUSH1 0xB DUP5 LT AND OR ISZERO PUSH2 0xEFA JUMPI DUP3 DUP3 EXP SWAP1 POP DUP4 DUP2 GT ISZERO PUSH2 0xEF5 JUMPI PUSH2 0xEF4 PUSH2 0xD98 JUMP JUMPDEST JUMPDEST PUSH2 0xF24 JUMP JUMPDEST PUSH2 0xF07 DUP5 DUP5 DUP5 PUSH1 0x1 PUSH2 0xE05 JUMP JUMPDEST SWAP3 POP SWAP1 POP DUP2 DUP5 DIV DUP2 GT ISZERO PUSH2 0xF1E JUMPI PUSH2 0xF1D PUSH2 0xD98 JUMP JUMPDEST JUMPDEST DUP2 DUP2 MUL SWAP1 POP JUMPDEST SWAP4 SWAP3 POP POP POP JUMP JUMPDEST PUSH1 0x0 PUSH1 0xFF DUP3 AND SWAP1 POP SWAP2 SWAP1 POP JUMP JUMPDEST PUSH1 0x0 PUSH2 0xF43 DUP3 PUSH2 0xBF6 JUMP JUMPDEST SWAP2 POP PUSH2 0xF4E DUP4 PUSH2 0xF2B JUMP JUMPDEST SWAP3 POP PUSH2 0xF7B PUSH32 0xFFFFFFFFFFFFFFFFFFFFFFFFFFFFFFFFFFFFFFFFFFFFFFFFFFFFFFFFFFFFFFFF DUP5 DUP5 PUSH2 0xE58 JUMP JUMPDEST SWAP1 POP SWAP3 SWAP2 POP POP JUMP JUMPDEST PUSH1 0x0 PUSH2 0xF8E DUP3 PUSH2 0xBF6 JUMP JUMPDEST SWAP2 POP PUSH2 0xF99 DUP4 PUSH2 0xBF6 JUMP JUMPDEST SWAP3 POP DUP3 DUP3 MUL PUSH2 0xFA7 DUP2 PUSH2 0xBF6 JUMP JUMPDEST SWAP2 POP DUP3 DUP3 DIV DUP5 EQ DUP4 ISZERO OR PUSH2 0xFBE JUMPI PUSH2 0xFBD PUSH2 0xD98 JUMP JUMPDEST JUMPDEST POP SWAP3 SWAP2 POP POP JUMP JUMPDEST PUSH1 0x0 DUP3 DUP3 MSTORE PUSH1 0x20 DUP3 ADD SWAP1 POP SWAP3 SWAP2 POP POP JUMP JUMPDEST PUSH32 0x5200000000000000000000000000000000000000000000000000000000000000 PUSH1 0x0 DUP3 ADD MSTORE POP JUMP JUMPDEST PUSH1 0x0 PUSH2 0x100C PUSH1 0x1 DUP4 PUSH2 0xFC5 JUMP JUMPDEST SWAP2 POP PUSH2 0x1017 DUP3 PUSH2 0xFD6 JUMP JUMPDEST PUSH1 0x20 DUP3 ADD SWAP1 POP SWAP2 SWAP1 POP JUMP JUMPDEST PUSH1 0x0 PUSH1 0x20 DUP3 ADD SWAP1 POP DUP2 DUP2 SUB PUSH1 0x0 DUP4 ADD MSTORE PUSH2 0x103B DUP2 PUSH2 0xFFF JUMP JUMPDEST SWAP1 POP SWAP2 SWAP1 POP JUMP JUMPDEST PUSH1 0x0 PUSH2 0x104D DUP3 PUSH2 0xBF6 JUMP JUMPDEST SWAP2 POP PUSH2 0x1058 DUP4 PUSH2 0xBF6 JUMP JUMPDEST SWAP3 POP DUP3 DUP3 SUB SWAP1 POP DUP2 DUP2 GT ISZERO PUSH2 0x1070 JUMPI PUSH2 0x106F PUSH2 0xD98 JUMP JUMPDEST JUMPDEST SWAP3 SWAP2 POP POP JUMP JUMPDEST PUSH1 0x0 PUSH2 0x1081 DUP3 PUSH2 0xD06 JUMP JUMPDEST SWAP2 POP PUSH2 0x108C DUP4 PUSH2 0xD06 JUMP JUMPDEST SWAP3 POP DUP3 DUP3 SUB SWAP1 POP DUP2 DUP2 SLT PUSH1 0x0 DUP5 SLT AND DUP3 DUP3 SGT PUSH1 0x0 DUP6 SLT ISZERO AND OR ISZERO PUSH2 0x10B3 JUMPI PUSH2 0x10B2 PUSH2 0xD98 JUMP JUMPDEST JUMPDEST SWAP3 SWAP2 POP POP JUMP JUMPDEST PUSH1 0x0 PUSH2 0x10C4 DUP3 PUSH2 0xD06 JUMP JUMPDEST SWAP2 POP PUSH2 0x10CF DUP4 PUSH2 0xD06 JUMP JUMPDEST SWAP3 POP DUP3 DUP3 MUL PUSH2 0x10DD DUP2 PUSH2 0xD06 JUMP JUMPDEST SWAP2 POP PUSH32 0x8000000000000000000000000000000000000000000000000000000000000000 DUP5 EQ PUSH1 0x0 DUP5 SLT AND ISZERO PUSH2 0x1115 JUMPI PUSH2 0x1114 PUSH2 0xD98 JUMP JUMPDEST JUMPDEST DUP3 DUP3 SDIV DUP5 EQ DUP4 ISZERO OR PUSH2 0x112A JUMPI PUSH2 0x1129 PUSH2 0xD98 JUMP JUMPDEST JUMPDEST POP SWAP3 SWAP2 POP POP JUMP JUMPDEST PUSH1 0x0 PUSH2 0x113C DUP3 PUSH2 0xD06 JUMP JUMPDEST SWAP2 POP PUSH2 0x1147 DUP4 PUSH2 0xD06 JUMP JUMPDEST SWAP3 POP DUP3 DUP3 ADD SWAP1 POP DUP3 DUP2 SLT ISZERO PUSH1 0x0 DUP4 SLT AND DUP4 DUP3 SLT PUSH1 0x0 DUP5 SLT ISZERO AND OR ISZERO PUSH2 0x116F JUMPI PUSH2 0x116E PUSH2 0xD98 JUMP JUMPDEST JUMPDEST SWAP3 SWAP2 POP POP JUMP JUMPDEST PUSH1 0x0 PUSH2 0x1180 DUP3 PUSH2 0xBF6 JUMP JUMPDEST SWAP2 POP PUSH2 0x118B DUP4 PUSH2 0xBF6 JUMP JUMPDEST SWAP3 POP DUP3 DUP3 ADD SWAP1 POP DUP1 DUP3 GT ISZERO PUSH2 0x11A3 JUMPI PUSH2 0x11A2 PUSH2 0xD98 JUMP JUMPDEST JUMPDEST SWAP3 SWAP2 POP POP JUMP JUMPDEST PUSH1 0x0 PUSH2 0x11B4 DUP3 PUSH2 0xD06 JUMP JUMPDEST SWAP2 POP PUSH32 0x8000000000000000000000000000000000000000000000000000000000000000 DUP3 SUB PUSH2 0x11E6 JUMPI PUSH2 0x11E5 PUSH2 0xD98 JUMP JUMPDEST JUMPDEST DUP2 PUSH1 0x0 SUB SWAP1 POP SWAP2 SWAP1 POP JUMP JUMPDEST PUSH32 0x5400000000000000000000000000000000000000000000000000000000000000 PUSH1 0x0 DUP3 ADD MSTORE POP JUMP JUMPDEST PUSH1 0x0 PUSH2 0x1227 PUSH1 0x1 DUP4 PUSH2 0xFC5 JUMP JUMPDEST SWAP2 POP PUSH2 0x1232 DUP3 PUSH2 0x11F1 JUMP JUMPDEST PUSH1 0x20 DUP3 ADD SWAP1 POP SWAP2 SWAP1 POP JUMP JUMPDEST PUSH1 0x0 PUSH1 0x20 DUP3 ADD SWAP1 POP DUP2 DUP2 SUB PUSH1 0x0 DUP4 ADD MSTORE PUSH2 0x1256 DUP2 PUSH2 0x121A JUMP JUMPDEST SWAP1 POP SWAP2 SWAP1 POP JUMP JUMPDEST PUSH1 0x0 PUSH2 0x1268 DUP3 PUSH2 0xBF6 JUMP JUMPDEST SWAP2 POP PUSH2 0x1273 DUP4 PUSH2 0xBF6 JUMP JUMPDEST SWAP3 POP DUP3 PUSH2 0x1283 JUMPI PUSH2 0x1282 PUSH2 0xD69 JUMP JUMPDEST JUMPDEST DUP3 DUP3 MOD SWAP1 POP SWAP3 SWAP2 POP POP JUMP INVALID LOG2 PUSH5 0x6970667358 0x22 SLT KECCAK256 0xD3 SWAP7 LOG4 GASPRICE SWAP14 0x5C PUSH3 0xDC5161 TIMESTAMP LOG4 RETURN DUP11 LOG1 0xE2 0xEE 0xC3 0x1E SHR 0xAD 0xCC DUP13 PUSH23 0xF06A28C1126C06DE64736F6C6343000812003300000000 "
				},
				"gasEstimates": {
					"creation": {
						"codeDepositCost": "960800",
						"executionCost": "1026",
						"totalCost": "961826"
					},
					"external": {
						"priceToSqrtPriceX96(int256)": "infinite",
						"sqrtPrice(uint256)": "infinite",
						"sqrtPriceX96ToPrice(uint160)": "infinite",
						"sqrtPriceX96ToTick(uint160)": "infinite",
						"tickToSqrtPriceX96(int24)": "infinite"
					}
				},
				"methodIdentifiers": {
					"priceToSqrtPriceX96(int256)": "b3e30051",
					"sqrtPrice(uint256)": "9400ff9a",
					"sqrtPriceX96ToPrice(uint160)": "aa52cba7",
					"sqrtPriceX96ToTick(uint160)": "0a817037",
					"tickToSqrtPriceX96(int24)": "b35e24d2"
				}
			},
			"storageLayout": {
				"storage": [],
				"types": null
			},
			"userdoc": {
				"kind": "user",
				"methods": {},
				"version": 1
			}
		}
	}
}